{
	"Contract.sol": {
		"Pyramid": {
			"abi": [
				{
					"inputs": [],
					"stateMutability": "nonpayable",
					"type": "constructor"
				},
				{
					"anonymous": false,
					"inputs": [
						{
							"indexed": false,
							"internalType": "uint8",
							"name": "gameId",
							"type": "uint8"
						},
						{
							"indexed": false,
							"internalType": "address",
							"name": "account",
							"type": "address"
						},
						{
							"indexed": false,
							"internalType": "bool",
							"name": "success",
							"type": "bool"
						}
					],
					"name": "GamePaymentEvent",
					"type": "event"
				},
				{
					"anonymous": false,
					"inputs": [
						{
							"indexed": false,
							"internalType": "uint8",
							"name": "gameId",
							"type": "uint8"
						},
						{
							"indexed": false,
							"internalType": "uint256",
							"name": "amount",
							"type": "uint256"
						}
					],
					"name": "NewGame",
					"type": "event"
				},
				{
					"anonymous": false,
					"inputs": [
						{
							"indexed": false,
							"internalType": "uint256",
							"name": "userId",
							"type": "uint256"
						},
						{
							"indexed": false,
							"internalType": "uint256",
							"name": "inviterId",
							"type": "uint256"
						}
					],
					"name": "NewUserRegisteredEvent",
					"type": "event"
				},
				{
					"anonymous": false,
					"inputs": [
						{
							"indexed": false,
							"internalType": "uint8",
							"name": "gameId",
							"type": "uint8"
						},
						{
							"indexed": false,
							"internalType": "uint256",
							"name": "from",
							"type": "uint256"
						},
						{
							"indexed": false,
							"internalType": "uint256",
							"name": "to",
							"type": "uint256"
						},
						{
							"indexed": false,
							"internalType": "uint256",
							"name": "amount",
							"type": "uint256"
						}
					],
					"name": "ReferalPaymentEvent",
					"type": "event"
				},
				{
					"stateMutability": "payable",
					"type": "fallback"
				},
				{
					"inputs": [
						{
							"internalType": "uint256",
							"name": "amountToPay",
							"type": "uint256"
						}
					],
					"name": "addGameLevel",
					"outputs": [],
					"stateMutability": "nonpayable",
					"type": "function"
				},
				{
					"inputs": [
						{
							"internalType": "uint256",
							"name": "index",
							"type": "uint256"
						}
					],
					"name": "culcNextWinnerIndex",
					"outputs": [
						{
							"internalType": "uint256",
							"name": "",
							"type": "uint256"
						}
					],
					"stateMutability": "pure",
					"type": "function"
				},
				{
					"inputs": [],
					"name": "currentGameIdIndex",
					"outputs": [
						{
							"internalType": "uint8",
							"name": "",
							"type": "uint8"
						}
					],
					"stateMutability": "view",
					"type": "function"
				},
				{
					"inputs": [],
					"name": "currentUserIdIndex",
					"outputs": [
						{
							"internalType": "uint256",
							"name": "",
							"type": "uint256"
						}
					],
					"stateMutability": "view",
					"type": "function"
				},
				{
					"inputs": [
						{
							"internalType": "uint8",
							"name": "",
							"type": "uint8"
						}
					],
					"name": "currentUserIndex",
					"outputs": [
						{
							"internalType": "uint256",
							"name": "",
							"type": "uint256"
						}
					],
					"stateMutability": "view",
					"type": "function"
				},
				{
					"inputs": [
						{
							"internalType": "address",
							"name": "userAddress",
							"type": "address"
						}
					],
					"name": "getUserBalance",
					"outputs": [
						{
							"internalType": "uint256",
							"name": "",
							"type": "uint256"
						}
					],
					"stateMutability": "view",
					"type": "function"
				},
				{
					"inputs": [
						{
							"internalType": "address",
							"name": "userAdress",
							"type": "address"
						}
					],
					"name": "hasAccess",
					"outputs": [
						{
							"internalType": "bool",
							"name": "",
							"type": "bool"
						}
					],
					"stateMutability": "view",
					"type": "function"
				},
				{
					"inputs": [
						{
							"internalType": "uint8",
							"name": "gameId",
							"type": "uint8"
						}
					],
					"name": "joinToGame",
					"outputs": [],
					"stateMutability": "payable",
					"type": "function"
				},
				{
					"inputs": [
						{
							"internalType": "uint8",
							"name": "",
							"type": "uint8"
						}
					],
					"name": "levels",
					"outputs": [
						{
							"internalType": "uint8",
							"name": "gameId",
							"type": "uint8"
						},
						{
							"internalType": "uint256",
							"name": "amountToPay",
							"type": "uint256"
						}
					],
					"stateMutability": "view",
					"type": "function"
				},
				{
					"inputs": [
						{
							"internalType": "uint8",
							"name": "",
							"type": "uint8"
						},
						{
							"internalType": "uint256",
							"name": "",
							"type": "uint256"
						}
					],
					"name": "pools",
					"outputs": [
						{
							"internalType": "uint256",
							"name": "userId",
							"type": "uint256"
						},
						{
							"internalType": "address payable",
							"name": "userAddress",
							"type": "address"
						},
						{
							"internalType": "uint256",
							"name": "invitedId",
							"type": "uint256"
						}
					],
					"stateMutability": "view",
					"type": "function"
				},
				{
					"inputs": [
						{
							"internalType": "uint256",
							"name": "inviterId",
							"type": "uint256"
						}
					],
					"name": "registerUserToGame",
					"outputs": [],
					"stateMutability": "payable",
					"type": "function"
				},
				{
					"inputs": [
						{
							"internalType": "address",
							"name": "",
							"type": "address"
						}
					],
					"name": "registeredUsers",
					"outputs": [
						{
							"internalType": "uint256",
							"name": "userId",
							"type": "uint256"
						},
						{
							"internalType": "address payable",
							"name": "userAddress",
							"type": "address"
						},
						{
							"internalType": "uint256",
							"name": "invitedId",
							"type": "uint256"
						}
					],
					"stateMutability": "view",
					"type": "function"
				},
				{
					"inputs": [
						{
							"internalType": "address",
							"name": "",
							"type": "address"
						},
						{
							"internalType": "uint8",
							"name": "",
							"type": "uint8"
						}
					],
					"name": "userGames",
					"outputs": [
						{
							"internalType": "bool",
							"name": "",
							"type": "bool"
						}
					],
					"stateMutability": "view",
					"type": "function"
				},
				{
					"inputs": [
						{
							"internalType": "address",
							"name": "",
							"type": "address"
						},
						{
							"internalType": "uint8",
							"name": "",
							"type": "uint8"
						}
					],
					"name": "userPayments",
					"outputs": [
						{
							"internalType": "uint256",
							"name": "",
							"type": "uint256"
						}
					],
					"stateMutability": "view",
					"type": "function"
				},
				{
					"inputs": [
						{
							"internalType": "uint256",
							"name": "",
							"type": "uint256"
						}
					],
					"name": "usersId",
					"outputs": [
						{
							"internalType": "address",
							"name": "",
							"type": "address"
						}
					],
					"stateMutability": "view",
					"type": "function"
				},
				{
					"stateMutability": "payable",
					"type": "receive"
				}
			],
			"devdoc": {
				"kind": "dev",
				"methods": {},
				"version": 1
			},
			"evm": {
				"assembly": "    /* \"Contract.sol\":94:9452  contract Pyramid {\r... */\n  mstore(0x40, 0x80)\n    /* \"Contract.sol\":2574:2833  constructor () {\r... */\n  callvalue\n  dup1\n  iszero\n  tag_1\n  jumpi\n  0x00\n  dup1\n  revert\ntag_1:\n  pop\n    /* \"Contract.sol\":2616:2626  msg.sender */\n  caller\n    /* \"Contract.sol\":2600:2613  contractOwner */\n  0x01\n  dup1\n    /* \"Contract.sol\":2600:2626  contractOwner = msg.sender */\n  0x0100\n  exp\n  dup2\n  sload\n  dup2\n  0xffffffffffffffffffffffffffffffffffffffff\n  mul\n  not\n  and\n  swap1\n  dup4\n  0xffffffffffffffffffffffffffffffffffffffff\n  and\n  mul\n  or\n  swap1\n  sstore\n  pop\n    /* \"Contract.sol\":2650:2663  contractOwner */\n  0x01\n  dup1\n  sload\n  swap1\n  0x0100\n  exp\n  swap1\n  div\n  0xffffffffffffffffffffffffffffffffffffffff\n  and\n    /* \"Contract.sol\":2637:2644  usersId */\n  0x03\n    /* \"Contract.sol\":2637:2647  usersId[0] */\n  0x00\n    /* \"Contract.sol\":2645:2646  0 */\n  dup1\n    /* \"Contract.sol\":2637:2647  usersId[0] */\n  dup2\n  mstore\n  0x20\n  add\n  swap1\n  dup2\n  mstore\n  0x20\n  add\n  0x00\n  keccak256\n  0x00\n    /* \"Contract.sol\":2637:2663  usersId[0] = contractOwner */\n  0x0100\n  exp\n  dup2\n  sload\n  dup2\n  0xffffffffffffffffffffffffffffffffffffffff\n  mul\n  not\n  and\n  swap1\n  dup4\n  0xffffffffffffffffffffffffffffffffffffffff\n  and\n  mul\n  or\n  swap1\n  sstore\n  pop\n    /* \"Contract.sol\":2707:2741  User(0, payable(contractOwner), 0) */\n  mload(0x40)\n  dup1\n  0x60\n  add\n  0x40\n  mstore\n  dup1\n    /* \"Contract.sol\":2712:2713  0 */\n  0x00\n    /* \"Contract.sol\":2707:2741  User(0, payable(contractOwner), 0) */\n  dup2\n  mstore\n  0x20\n  add\n    /* \"Contract.sol\":2723:2736  contractOwner */\n  0x01\n  dup1\n  sload\n  swap1\n  0x0100\n  exp\n  swap1\n  div\n  0xffffffffffffffffffffffffffffffffffffffff\n  and\n    /* \"Contract.sol\":2707:2741  User(0, payable(contractOwner), 0) */\n  0xffffffffffffffffffffffffffffffffffffffff\n  and\n  dup2\n  mstore\n  0x20\n  add\n    /* \"Contract.sol\":2739:2740  0 */\n  0x00\n    /* \"Contract.sol\":2707:2741  User(0, payable(contractOwner), 0) */\n  dup2\n  mstore\n  pop\n    /* \"Contract.sol\":2674:2689  registeredUsers */\n  0x04\n    /* \"Contract.sol\":2674:2704  registeredUsers[contractOwner] */\n  0x00\n    /* \"Contract.sol\":2690:2703  contractOwner */\n  0x01\n  dup1\n  sload\n  swap1\n  0x0100\n  exp\n  swap1\n  div\n  0xffffffffffffffffffffffffffffffffffffffff\n  and\n    /* \"Contract.sol\":2674:2704  registeredUsers[contractOwner] */\n  0xffffffffffffffffffffffffffffffffffffffff\n  and\n  0xffffffffffffffffffffffffffffffffffffffff\n  and\n  dup2\n  mstore\n  0x20\n  add\n  swap1\n  dup2\n  mstore\n  0x20\n  add\n  0x00\n  keccak256\n    /* \"Contract.sol\":2674:2741  registeredUsers[contractOwner] = User(0, payable(contractOwner), 0) */\n  0x00\n  dup3\n  add\n  mload\n  dup2\n  0x00\n  add\n  sstore\n  0x20\n  dup3\n  add\n  mload\n  dup2\n  0x01\n  add\n  exp(0x0100, 0x00)\n  dup2\n  sload\n  dup2\n  0xffffffffffffffffffffffffffffffffffffffff\n  mul\n  not\n  and\n  swap1\n  dup4\n  0xffffffffffffffffffffffffffffffffffffffff\n  and\n  mul\n  or\n  swap1\n  sstore\n  pop\n  0x40\n  dup3\n  add\n  mload\n  dup2\n  0x02\n  add\n  sstore\n  swap1\n  pop\n  pop\n    /* \"Contract.sol\":2773:2774  1 */\n  0x01\n    /* \"Contract.sol\":2752:2770  currentUserIdIndex */\n  0x00\n    /* \"Contract.sol\":2752:2774  currentUserIdIndex = 1 */\n  dup2\n  swap1\n  sstore\n  pop\n    /* \"Contract.sol\":2787:2825  addGameLevel({ amountToPay: 1 ether }) */\n  tag_4\n    /* \"Contract.sol\":2815:2822  1 ether */\n  0x0de0b6b3a7640000\n    /* \"Contract.sol\":2787:2799  addGameLevel */\n  shl(0x20, tag_5)\n    /* \"Contract.sol\":2787:2825  addGameLevel({ amountToPay: 1 ether }) */\n  0x20\n  shr\n  jump\t// in\ntag_4:\n    /* \"Contract.sol\":94:9452  contract Pyramid {\r... */\n  jump(tag_6)\n    /* \"Contract.sol\":4556:4925  function addGameLevel(uint256 amountToPay) public onlyOwner {\r... */\ntag_5:\n    /* \"Contract.sol\":2524:2545  hasAccess(msg.sender) */\n  tag_8\n    /* \"Contract.sol\":2534:2544  msg.sender */\n  caller\n    /* \"Contract.sol\":2524:2533  hasAccess */\n  shl(0x20, tag_9)\n    /* \"Contract.sol\":2524:2545  hasAccess(msg.sender) */\n  0x20\n  shr\n  jump\t// in\ntag_8:\n    /* \"Contract.sol\":2516:2546  require(hasAccess(msg.sender)) */\n  tag_10\n  jumpi\n  0x00\n  dup1\n  revert\ntag_10:\n    /* \"Contract.sol\":4761:4823  Game({ gameId: currentGameIdIndex, amountToPay: amountToPay }) */\n  mload(0x40)\n  dup1\n  0x40\n  add\n  0x40\n  mstore\n  dup1\n    /* \"Contract.sol\":4776:4794  currentGameIdIndex */\n  0x01\n  0x00\n  swap1\n  sload\n  swap1\n  0x0100\n  exp\n  swap1\n  div\n  0xff\n  and\n    /* \"Contract.sol\":4761:4823  Game({ gameId: currentGameIdIndex, amountToPay: amountToPay }) */\n  0xff\n  and\n  dup2\n  mstore\n  0x20\n  add\n    /* \"Contract.sol\":4809:4820  amountToPay */\n  dup3\n    /* \"Contract.sol\":4761:4823  Game({ gameId: currentGameIdIndex, amountToPay: amountToPay }) */\n  dup2\n  mstore\n  pop\n    /* \"Contract.sol\":4732:4738  levels */\n  0x02\n    /* \"Contract.sol\":4732:4758  levels[currentGameIdIndex] */\n  0x00\n    /* \"Contract.sol\":4739:4757  currentGameIdIndex */\n  0x01\n  0x00\n  swap1\n  sload\n  swap1\n  0x0100\n  exp\n  swap1\n  div\n  0xff\n  and\n    /* \"Contract.sol\":4732:4758  levels[currentGameIdIndex] */\n  0xff\n  and\n  0xff\n  and\n  dup2\n  mstore\n  0x20\n  add\n  swap1\n  dup2\n  mstore\n  0x20\n  add\n  0x00\n  keccak256\n    /* \"Contract.sol\":4732:4823  levels[currentGameIdIndex] = Game({ gameId: currentGameIdIndex, amountToPay: amountToPay }) */\n  0x00\n  dup3\n  add\n  mload\n  dup2\n  0x00\n  add\n  exp(0x0100, 0x00)\n  dup2\n  sload\n  dup2\n  0xff\n  mul\n  not\n  and\n  swap1\n  dup4\n  0xff\n  and\n  mul\n  or\n  swap1\n  sstore\n  pop\n  0x20\n  dup3\n  add\n  mload\n  dup2\n  0x01\n  add\n  sstore\n  swap1\n  pop\n  pop\n    /* \"Contract.sol\":4856:4857  1 */\n  0x01\n    /* \"Contract.sol\":4834:4852  currentGameIdIndex */\n  dup1\n  0x00\n    /* \"Contract.sol\":4834:4857  currentGameIdIndex += 1 */\n  dup3\n  dup3\n  dup3\n  swap1\n  sload\n  swap1\n  0x0100\n  exp\n  swap1\n  div\n  0xff\n  and\n  tag_12\n  swap2\n  swap1\n  tag_13\n  jump\t// in\ntag_12:\n  swap3\n  pop\n  0x0100\n  exp\n  dup2\n  sload\n  dup2\n  0xff\n  mul\n  not\n  and\n  swap1\n  dup4\n  0xff\n  and\n  mul\n  or\n  swap1\n  sstore\n  pop\n    /* \"Contract.sol\":4873:4917  NewGame( currentGameIdIndex-1, amountToPay ) */\n  0xcf1ed532d6b83b4290f2f407b156b17826f49752e7a8ff360f502c307e055663\n    /* \"Contract.sol\":4901:4902  1 */\n  0x01\n    /* \"Contract.sol\":4882:4900  currentGameIdIndex */\n  dup1\n  0x00\n  swap1\n  sload\n  swap1\n  0x0100\n  exp\n  swap1\n  div\n  0xff\n  and\n    /* \"Contract.sol\":4882:4902  currentGameIdIndex-1 */\n  tag_14\n  swap2\n  swap1\n  tag_15\n  jump\t// in\ntag_14:\n    /* \"Contract.sol\":4904:4915  amountToPay */\n  dup3\n    /* \"Contract.sol\":4873:4917  NewGame( currentGameIdIndex-1, amountToPay ) */\n  mload(0x40)\n  tag_16\n  swap3\n  swap2\n  swap1\n  tag_17\n  jump\t// in\ntag_16:\n  mload(0x40)\n  dup1\n  swap2\n  sub\n  swap1\n  log1\n    /* \"Contract.sol\":4556:4925  function addGameLevel(uint256 amountToPay) public onlyOwner {\r... */\n  pop\n  jump\t// out\n    /* \"Contract.sol\":4192:4421  function hasAccess(address userAdress) public view returns(bool) {\r... */\ntag_9:\n    /* \"Contract.sol\":4251:4255  bool */\n  0x00\n    /* \"Contract.sol\":4400:4413  contractOwner */\n  0x01\n  dup1\n  sload\n  swap1\n  0x0100\n  exp\n  swap1\n  div\n  0xffffffffffffffffffffffffffffffffffffffff\n  and\n    /* \"Contract.sol\":4386:4413  userAdress == contractOwner */\n  0xffffffffffffffffffffffffffffffffffffffff\n  and\n    /* \"Contract.sol\":4386:4396  userAdress */\n  dup3\n    /* \"Contract.sol\":4386:4413  userAdress == contractOwner */\n  0xffffffffffffffffffffffffffffffffffffffff\n  and\n  eq\n    /* \"Contract.sol\":4379:4413  return userAdress == contractOwner */\n  swap1\n  pop\n    /* \"Contract.sol\":4192:4421  function hasAccess(address userAdress) public view returns(bool) {\r... */\n  swap2\n  swap1\n  pop\n  jump\t// out\n    /* \"#utility.yul\":7:125   */\ntag_20:\n    /* \"#utility.yul\":94:118   */\n  tag_22\n    /* \"#utility.yul\":112:117   */\n  dup2\n    /* \"#utility.yul\":94:118   */\n  tag_23\n  jump\t// in\ntag_22:\n    /* \"#utility.yul\":89:92   */\n  dup3\n    /* \"#utility.yul\":82:119   */\n  mstore\n    /* \"#utility.yul\":7:125   */\n  pop\n  pop\n  jump\t// out\n    /* \"#utility.yul\":131:243   */\ntag_24:\n    /* \"#utility.yul\":214:236   */\n  tag_26\n    /* \"#utility.yul\":230:235   */\n  dup2\n    /* \"#utility.yul\":214:236   */\n  tag_27\n  jump\t// in\ntag_26:\n    /* \"#utility.yul\":209:212   */\n  dup3\n    /* \"#utility.yul\":202:237   */\n  mstore\n    /* \"#utility.yul\":131:243   */\n  pop\n  pop\n  jump\t// out\n    /* \"#utility.yul\":249:573   */\ntag_17:\n    /* \"#utility.yul\":366:370   */\n  0x00\n    /* \"#utility.yul\":404:406   */\n  0x40\n    /* \"#utility.yul\":393:402   */\n  dup3\n    /* \"#utility.yul\":389:407   */\n  add\n    /* \"#utility.yul\":381:407   */\n  swap1\n  pop\n    /* \"#utility.yul\":417:484   */\n  tag_29\n    /* \"#utility.yul\":481:482   */\n  0x00\n    /* \"#utility.yul\":470:479   */\n  dup4\n    /* \"#utility.yul\":466:483   */\n  add\n    /* \"#utility.yul\":457:463   */\n  dup6\n    /* \"#utility.yul\":417:484   */\n  tag_24\n  jump\t// in\ntag_29:\n    /* \"#utility.yul\":494:566   */\n  tag_30\n    /* \"#utility.yul\":562:564   */\n  0x20\n    /* \"#utility.yul\":551:560   */\n  dup4\n    /* \"#utility.yul\":547:565   */\n  add\n    /* \"#utility.yul\":538:544   */\n  dup5\n    /* \"#utility.yul\":494:566   */\n  tag_20\n  jump\t// in\ntag_30:\n    /* \"#utility.yul\":249:573   */\n  swap4\n  swap3\n  pop\n  pop\n  pop\n  jump\t// out\n    /* \"#utility.yul\":579:816   */\ntag_13:\n    /* \"#utility.yul\":617:620   */\n  0x00\n    /* \"#utility.yul\":636:654   */\n  tag_32\n    /* \"#utility.yul\":652:653   */\n  dup3\n    /* \"#utility.yul\":636:654   */\n  tag_27\n  jump\t// in\ntag_32:\n    /* \"#utility.yul\":631:654   */\n  swap2\n  pop\n    /* \"#utility.yul\":668:686   */\n  tag_33\n    /* \"#utility.yul\":684:685   */\n  dup4\n    /* \"#utility.yul\":668:686   */\n  tag_27\n  jump\t// in\ntag_33:\n    /* \"#utility.yul\":663:686   */\n  swap3\n  pop\n    /* \"#utility.yul\":758:759   */\n  dup3\n    /* \"#utility.yul\":752:756   */\n  0xff\n    /* \"#utility.yul\":748:760   */\n  sub\n    /* \"#utility.yul\":745:746   */\n  dup3\n    /* \"#utility.yul\":742:761   */\n  gt\n    /* \"#utility.yul\":739:784   */\n  iszero\n  tag_34\n  jumpi\n    /* \"#utility.yul\":764:782   */\n  tag_35\n  tag_36\n  jump\t// in\ntag_35:\n    /* \"#utility.yul\":739:784   */\ntag_34:\n    /* \"#utility.yul\":808:809   */\n  dup3\n    /* \"#utility.yul\":805:806   */\n  dup3\n    /* \"#utility.yul\":801:810   */\n  add\n    /* \"#utility.yul\":794:810   */\n  swap1\n  pop\n    /* \"#utility.yul\":579:816   */\n  swap3\n  swap2\n  pop\n  pop\n  jump\t// out\n    /* \"#utility.yul\":822:1007   */\ntag_15:\n    /* \"#utility.yul\":860:864   */\n  0x00\n    /* \"#utility.yul\":880:898   */\n  tag_38\n    /* \"#utility.yul\":896:897   */\n  dup3\n    /* \"#utility.yul\":880:898   */\n  tag_27\n  jump\t// in\ntag_38:\n    /* \"#utility.yul\":875:898   */\n  swap2\n  pop\n    /* \"#utility.yul\":912:930   */\n  tag_39\n    /* \"#utility.yul\":928:929   */\n  dup4\n    /* \"#utility.yul\":912:930   */\n  tag_27\n  jump\t// in\ntag_39:\n    /* \"#utility.yul\":907:930   */\n  swap3\n  pop\n    /* \"#utility.yul\":949:950   */\n  dup3\n    /* \"#utility.yul\":946:947   */\n  dup3\n    /* \"#utility.yul\":943:951   */\n  lt\n    /* \"#utility.yul\":940:974   */\n  iszero\n  tag_40\n  jumpi\n    /* \"#utility.yul\":954:972   */\n  tag_41\n  tag_36\n  jump\t// in\ntag_41:\n    /* \"#utility.yul\":940:974   */\ntag_40:\n    /* \"#utility.yul\":999:1000   */\n  dup3\n    /* \"#utility.yul\":996:997   */\n  dup3\n    /* \"#utility.yul\":992:1001   */\n  sub\n    /* \"#utility.yul\":984:1001   */\n  swap1\n  pop\n    /* \"#utility.yul\":822:1007   */\n  swap3\n  swap2\n  pop\n  pop\n  jump\t// out\n    /* \"#utility.yul\":1013:1090   */\ntag_23:\n    /* \"#utility.yul\":1050:1057   */\n  0x00\n    /* \"#utility.yul\":1079:1084   */\n  dup2\n    /* \"#utility.yul\":1068:1084   */\n  swap1\n  pop\n    /* \"#utility.yul\":1013:1090   */\n  swap2\n  swap1\n  pop\n  jump\t// out\n    /* \"#utility.yul\":1096:1182   */\ntag_27:\n    /* \"#utility.yul\":1131:1138   */\n  0x00\n    /* \"#utility.yul\":1171:1175   */\n  0xff\n    /* \"#utility.yul\":1164:1169   */\n  dup3\n    /* \"#utility.yul\":1160:1176   */\n  and\n    /* \"#utility.yul\":1149:1176   */\n  swap1\n  pop\n    /* \"#utility.yul\":1096:1182   */\n  swap2\n  swap1\n  pop\n  jump\t// out\n    /* \"#utility.yul\":1188:1368   */\ntag_36:\n    /* \"#utility.yul\":1236:1313   */\n  0x4e487b7100000000000000000000000000000000000000000000000000000000\n    /* \"#utility.yul\":1233:1234   */\n  0x00\n    /* \"#utility.yul\":1226:1314   */\n  mstore\n    /* \"#utility.yul\":1333:1337   */\n  0x11\n    /* \"#utility.yul\":1330:1331   */\n  0x04\n    /* \"#utility.yul\":1323:1338   */\n  mstore\n    /* \"#utility.yul\":1357:1361   */\n  0x24\n    /* \"#utility.yul\":1354:1355   */\n  0x00\n    /* \"#utility.yul\":1347:1362   */\n  revert\n    /* \"Contract.sol\":94:9452  contract Pyramid {\r... */\ntag_6:\n  dataSize(sub_0)\n  dup1\n  dataOffset(sub_0)\n  0x00\n  codecopy\n  0x00\n  return\nstop\n\nsub_0: assembly {\n        /* \"Contract.sol\":94:9452  contract Pyramid {\r... */\n      mstore(0x40, 0x80)\n      jumpi(tag_1, lt(calldatasize, 0x04))\n      shr(0xe0, calldataload(0x00))\n      dup1\n      0x78a32e21\n      gt\n      tag_18\n      jumpi\n      dup1\n      0xad39f0a3\n      gt\n      tag_19\n      jumpi\n      dup1\n      0xad39f0a3\n      eq\n      tag_14\n      jumpi\n      dup1\n      0xae9283b5\n      eq\n      tag_15\n      jumpi\n      dup1\n      0xbd233b91\n      eq\n      tag_16\n      jumpi\n      dup1\n      0xf1060006\n      eq\n      tag_17\n      jumpi\n      jump(tag_2)\n    tag_19:\n      dup1\n      0x78a32e21\n      eq\n      tag_10\n      jumpi\n      dup1\n      0x906cbf57\n      eq\n      tag_11\n      jumpi\n      dup1\n      0x95a078e8\n      eq\n      tag_12\n      jumpi\n      dup1\n      0x9b0b0ae3\n      eq\n      tag_13\n      jumpi\n      jump(tag_2)\n    tag_18:\n      dup1\n      0x2e8aab9b\n      gt\n      tag_20\n      jumpi\n      dup1\n      0x2e8aab9b\n      eq\n      tag_6\n      jumpi\n      dup1\n      0x33afc80b\n      eq\n      tag_7\n      jumpi\n      dup1\n      0x47734892\n      eq\n      tag_8\n      jumpi\n      dup1\n      0x556c9095\n      eq\n      tag_9\n      jumpi\n      jump(tag_2)\n    tag_20:\n      dup1\n      0x0173c05b\n      eq\n      tag_3\n      jumpi\n      dup1\n      0x0e50cee5\n      eq\n      tag_4\n      jumpi\n      dup1\n      0x2a648c89\n      eq\n      tag_5\n      jumpi\n      jump(tag_2)\n    tag_1:\n      jumpi(tag_2, calldatasize)\n        /* \"Contract.sol\":2880:2912  _fallback(msg.sender, msg.value) */\n      tag_23\n        /* \"Contract.sol\":2890:2900  msg.sender */\n      caller\n        /* \"Contract.sol\":2902:2911  msg.value */\n      callvalue\n        /* \"Contract.sol\":2880:2889  _fallback */\n      tag_24\n        /* \"Contract.sol\":2880:2912  _fallback(msg.sender, msg.value) */\n      jump\t// in\n    tag_23:\n        /* \"Contract.sol\":94:9452  contract Pyramid {\r... */\n      stop\n    tag_2:\n        /* \"Contract.sol\":2968:3000  _fallback(msg.sender, msg.value) */\n      tag_27\n        /* \"Contract.sol\":2978:2988  msg.sender */\n      caller\n        /* \"Contract.sol\":2990:2999  msg.value */\n      callvalue\n        /* \"Contract.sol\":2968:2977  _fallback */\n      tag_24\n        /* \"Contract.sol\":2968:3000  _fallback(msg.sender, msg.value) */\n      jump\t// in\n    tag_27:\n        /* \"Contract.sol\":94:9452  contract Pyramid {\r... */\n      stop\n        /* \"Contract.sol\":4933:5548  function registerUserToGame(uint256 inviterId) external payable noContractAccess {\r... */\n    tag_3:\n      tag_28\n      0x04\n      dup1\n      calldatasize\n      sub\n      dup2\n      add\n      swap1\n      tag_29\n      swap2\n      swap1\n      tag_30\n      jump\t// in\n    tag_29:\n      tag_31\n      jump\t// in\n    tag_28:\n      stop\n        /* \"Contract.sol\":1042:1090  mapping (address => User) public registeredUsers */\n    tag_4:\n      callvalue\n      dup1\n      iszero\n      tag_32\n      jumpi\n      0x00\n      dup1\n      revert\n    tag_32:\n      pop\n      tag_33\n      0x04\n      dup1\n      calldatasize\n      sub\n      dup2\n      add\n      swap1\n      tag_34\n      swap2\n      swap1\n      tag_35\n      jump\t// in\n    tag_34:\n      tag_36\n      jump\t// in\n    tag_33:\n      mload(0x40)\n      tag_37\n      swap4\n      swap3\n      swap2\n      swap1\n      tag_38\n      jump\t// in\n    tag_37:\n      mload(0x40)\n      dup1\n      swap2\n      sub\n      swap1\n      return\n        /* \"Contract.sol\":1446:1507  mapping (address => mapping (uint8 => bool)) public userGames */\n    tag_5:\n      callvalue\n      dup1\n      iszero\n      tag_39\n      jumpi\n      0x00\n      dup1\n      revert\n    tag_39:\n      pop\n      tag_40\n      0x04\n      dup1\n      calldatasize\n      sub\n      dup2\n      add\n      swap1\n      tag_41\n      swap2\n      swap1\n      tag_42\n      jump\t// in\n    tag_41:\n      tag_43\n      jump\t// in\n    tag_40:\n      mload(0x40)\n      tag_44\n      swap2\n      swap1\n      tag_45\n      jump\t// in\n    tag_44:\n      mload(0x40)\n      dup1\n      swap2\n      sub\n      swap1\n      return\n        /* \"Contract.sol\":5556:5773  function joinToGame(uint8 gameId) public payable onlyRegistered {\r... */\n    tag_6:\n      tag_46\n      0x04\n      dup1\n      calldatasize\n      sub\n      dup2\n      add\n      swap1\n      tag_47\n      swap2\n      swap1\n      tag_48\n      jump\t// in\n    tag_47:\n      tag_49\n      jump\t// in\n    tag_46:\n      stop\n        /* \"Contract.sol\":3623:4184  function culcNextWinnerIndex(uint256 index) public pure returns(uint256) {\r... */\n    tag_7:\n      callvalue\n      dup1\n      iszero\n      tag_50\n      jumpi\n      0x00\n      dup1\n      revert\n    tag_50:\n      pop\n      tag_51\n      0x04\n      dup1\n      calldatasize\n      sub\n      dup2\n      add\n      swap1\n      tag_52\n      swap2\n      swap1\n      tag_30\n      jump\t// in\n    tag_52:\n      tag_53\n      jump\t// in\n    tag_51:\n      mload(0x40)\n      tag_54\n      swap2\n      swap1\n      tag_55\n      jump\t// in\n    tag_54:\n      mload(0x40)\n      dup1\n      swap2\n      sub\n      swap1\n      return\n        /* \"Contract.sol\":4429:4548  function getUserBalance(address userAddress) public view returns(uint256) {\r... */\n    tag_8:\n      callvalue\n      dup1\n      iszero\n      tag_56\n      jumpi\n      0x00\n      dup1\n      revert\n    tag_56:\n      pop\n      tag_57\n      0x04\n      dup1\n      calldatasize\n      sub\n      dup2\n      add\n      swap1\n      tag_58\n      swap2\n      swap1\n      tag_35\n      jump\t// in\n    tag_58:\n      tag_59\n      jump\t// in\n    tag_57:\n      mload(0x40)\n      tag_60\n      swap2\n      swap1\n      tag_55\n      jump\t// in\n    tag_60:\n      mload(0x40)\n      dup1\n      swap2\n      sub\n      swap1\n      return\n        /* \"Contract.sol\":118:151  uint256 public currentUserIdIndex */\n    tag_9:\n      callvalue\n      dup1\n      iszero\n      tag_61\n      jumpi\n      0x00\n      dup1\n      revert\n    tag_61:\n      pop\n      tag_62\n      tag_63\n      jump\t// in\n    tag_62:\n      mload(0x40)\n      tag_64\n      swap2\n      swap1\n      tag_55\n      jump\t// in\n    tag_64:\n      mload(0x40)\n      dup1\n      swap2\n      sub\n      swap1\n      return\n        /* \"Contract.sol\":1234:1291  mapping (uint8 => mapping (uint256 => User)) public pools */\n    tag_10:\n      callvalue\n      dup1\n      iszero\n      tag_65\n      jumpi\n      0x00\n      dup1\n      revert\n    tag_65:\n      pop\n      tag_66\n      0x04\n      dup1\n      calldatasize\n      sub\n      dup2\n      add\n      swap1\n      tag_67\n      swap2\n      swap1\n      tag_68\n      jump\t// in\n    tag_67:\n      tag_69\n      jump\t// in\n    tag_66:\n      mload(0x40)\n      tag_70\n      swap4\n      swap3\n      swap2\n      swap1\n      tag_38\n      jump\t// in\n    tag_70:\n      mload(0x40)\n      dup1\n      swap2\n      sub\n      swap1\n      return\n        /* \"Contract.sol\":894:931  mapping (uint8 => Game) public levels */\n    tag_11:\n      callvalue\n      dup1\n      iszero\n      tag_71\n      jumpi\n      0x00\n      dup1\n      revert\n    tag_71:\n      pop\n      tag_72\n      0x04\n      dup1\n      calldatasize\n      sub\n      dup2\n      add\n      swap1\n      tag_73\n      swap2\n      swap1\n      tag_48\n      jump\t// in\n    tag_73:\n      tag_74\n      jump\t// in\n    tag_72:\n      mload(0x40)\n      tag_75\n      swap3\n      swap2\n      swap1\n      tag_76\n      jump\t// in\n    tag_75:\n      mload(0x40)\n      dup1\n      swap2\n      sub\n      swap1\n      return\n        /* \"Contract.sol\":4192:4421  function hasAccess(address userAdress) public view returns(bool) {\r... */\n    tag_12:\n      callvalue\n      dup1\n      iszero\n      tag_77\n      jumpi\n      0x00\n      dup1\n      revert\n    tag_77:\n      pop\n      tag_78\n      0x04\n      dup1\n      calldatasize\n      sub\n      dup2\n      add\n      swap1\n      tag_79\n      swap2\n      swap1\n      tag_35\n      jump\t// in\n    tag_79:\n      tag_80\n      jump\t// in\n    tag_78:\n      mload(0x40)\n      tag_81\n      swap2\n      swap1\n      tag_45\n      jump\t// in\n    tag_81:\n      mload(0x40)\n      dup1\n      swap2\n      sub\n      swap1\n      return\n        /* \"Contract.sol\":1145:1195  mapping (uint8 => uint256) public currentUserIndex */\n    tag_13:\n      callvalue\n      dup1\n      iszero\n      tag_82\n      jumpi\n      0x00\n      dup1\n      revert\n    tag_82:\n      pop\n      tag_83\n      0x04\n      dup1\n      calldatasize\n      sub\n      dup2\n      add\n      swap1\n      tag_84\n      swap2\n      swap1\n      tag_48\n      jump\t// in\n    tag_84:\n      tag_85\n      jump\t// in\n    tag_83:\n      mload(0x40)\n      tag_86\n      swap2\n      swap1\n      tag_55\n      jump\t// in\n    tag_86:\n      mload(0x40)\n      dup1\n      swap2\n      sub\n      swap1\n      return\n        /* \"Contract.sol\":187:218  uint8 public currentGameIdIndex */\n    tag_14:\n      callvalue\n      dup1\n      iszero\n      tag_87\n      jumpi\n      0x00\n      dup1\n      revert\n    tag_87:\n      pop\n      tag_88\n      tag_89\n      jump\t// in\n    tag_88:\n      mload(0x40)\n      tag_90\n      swap2\n      swap1\n      tag_91\n      jump\t// in\n    tag_90:\n      mload(0x40)\n      dup1\n      swap2\n      sub\n      swap1\n      return\n        /* \"Contract.sol\":4556:4925  function addGameLevel(uint256 amountToPay) public onlyOwner {\r... */\n    tag_15:\n      callvalue\n      dup1\n      iszero\n      tag_92\n      jumpi\n      0x00\n      dup1\n      revert\n    tag_92:\n      pop\n      tag_93\n      0x04\n      dup1\n      calldatasize\n      sub\n      dup2\n      add\n      swap1\n      tag_94\n      swap2\n      swap1\n      tag_30\n      jump\t// in\n    tag_94:\n      tag_95\n      jump\t// in\n    tag_93:\n      stop\n        /* \"Contract.sol\":955:998  mapping (uint256 => address) public usersId */\n    tag_16:\n      callvalue\n      dup1\n      iszero\n      tag_96\n      jumpi\n      0x00\n      dup1\n      revert\n    tag_96:\n      pop\n      tag_97\n      0x04\n      dup1\n      calldatasize\n      sub\n      dup2\n      add\n      swap1\n      tag_98\n      swap2\n      swap1\n      tag_30\n      jump\t// in\n    tag_98:\n      tag_99\n      jump\t// in\n    tag_97:\n      mload(0x40)\n      tag_100\n      swap2\n      swap1\n      tag_101\n      jump\t// in\n    tag_100:\n      mload(0x40)\n      dup1\n      swap2\n      sub\n      swap1\n      return\n        /* \"Contract.sol\":1333:1400  mapping (address => mapping (uint8 => uint256)) public userPayments */\n    tag_17:\n      callvalue\n      dup1\n      iszero\n      tag_102\n      jumpi\n      0x00\n      dup1\n      revert\n    tag_102:\n      pop\n      tag_103\n      0x04\n      dup1\n      calldatasize\n      sub\n      dup2\n      add\n      swap1\n      tag_104\n      swap2\n      swap1\n      tag_42\n      jump\t// in\n    tag_104:\n      tag_105\n      jump\t// in\n    tag_103:\n      mload(0x40)\n      tag_106\n      swap2\n      swap1\n      tag_55\n      jump\t// in\n    tag_106:\n      mload(0x40)\n      dup1\n      swap2\n      sub\n      swap1\n      return\n        /* \"Contract.sol\":3016:3615  function _fallback(address sender, uint256 value) internal {\r... */\n    tag_24:\n        /* \"Contract.sol\":3227:3239  bool success */\n      0x00\n        /* \"Contract.sol\":3250:3262  uint8 gameId */\n      dup1\n        /* \"Contract.sol\":3280:3291  uint8 index */\n      0x00\n        /* \"Contract.sol\":3275:3508  for (uint8 index; index < currentGameIdIndex+1; index++) {\r... */\n    tag_108:\n        /* \"Contract.sol\":3320:3321  1 */\n      0x01\n        /* \"Contract.sol\":3301:3319  currentGameIdIndex */\n      dup1\n      0x00\n      swap1\n      sload\n      swap1\n      0x0100\n      exp\n      swap1\n      div\n      0xff\n      and\n        /* \"Contract.sol\":3301:3321  currentGameIdIndex+1 */\n      tag_111\n      swap2\n      swap1\n      tag_112\n      jump\t// in\n    tag_111:\n        /* \"Contract.sol\":3293:3321  index < currentGameIdIndex+1 */\n      0xff\n      and\n        /* \"Contract.sol\":3293:3298  index */\n      dup2\n        /* \"Contract.sol\":3293:3321  index < currentGameIdIndex+1 */\n      0xff\n      and\n      lt\n        /* \"Contract.sol\":3275:3508  for (uint8 index; index < currentGameIdIndex+1; index++) {\r... */\n      iszero\n      tag_109\n      jumpi\n        /* \"Contract.sol\":3380:3389  msg.value */\n      callvalue\n        /* \"Contract.sol\":3351:3357  levels */\n      0x02\n        /* \"Contract.sol\":3351:3364  levels[index] */\n      0x00\n        /* \"Contract.sol\":3358:3363  index */\n      dup4\n        /* \"Contract.sol\":3351:3364  levels[index] */\n      0xff\n      and\n      0xff\n      and\n      dup2\n      mstore\n      0x20\n      add\n      swap1\n      dup2\n      mstore\n      0x20\n      add\n      0x00\n      keccak256\n        /* \"Contract.sol\":3351:3376  levels[index].amountToPay */\n      0x01\n      add\n      sload\n        /* \"Contract.sol\":3351:3389  levels[index].amountToPay == msg.value */\n      eq\n        /* \"Contract.sol\":3347:3497  if (levels[index].amountToPay == msg.value) {\r... */\n      iszero\n      tag_113\n      jumpi\n        /* \"Contract.sol\":3420:3424  true */\n      0x01\n        /* \"Contract.sol\":3410:3424  success = true */\n      swap3\n      pop\n        /* \"Contract.sol\":3452:3457  index */\n      dup1\n        /* \"Contract.sol\":3443:3457  gameId = index */\n      swap2\n      pop\n        /* \"Contract.sol\":3476:3481  break */\n      jump(tag_109)\n        /* \"Contract.sol\":3347:3497  if (levels[index].amountToPay == msg.value) {\r... */\n    tag_113:\n        /* \"Contract.sol\":3323:3330  index++ */\n      dup1\n      dup1\n      tag_114\n      swap1\n      tag_115\n      jump\t// in\n    tag_114:\n      swap2\n      pop\n      pop\n        /* \"Contract.sol\":3275:3508  for (uint8 index; index < currentGameIdIndex+1; index++) {\r... */\n      jump(tag_108)\n    tag_109:\n      pop\n        /* \"Contract.sol\":3536:3543  success */\n      dup2\n        /* \"Contract.sol\":3528:3562  require(success, \"Game not found\") */\n      tag_116\n      jumpi\n      mload(0x40)\n      0x08c379a000000000000000000000000000000000000000000000000000000000\n      dup2\n      mstore\n      0x04\n      add\n      tag_117\n      swap1\n      tag_118\n      jump\t// in\n    tag_117:\n      mload(0x40)\n      dup1\n      swap2\n      sub\n      swap1\n      revert\n    tag_116:\n        /* \"Contract.sol\":3573:3607  _joinToGame(gameId, sender, value) */\n      tag_119\n        /* \"Contract.sol\":3585:3591  gameId */\n      dup2\n        /* \"Contract.sol\":3593:3599  sender */\n      dup6\n        /* \"Contract.sol\":3601:3606  value */\n      dup6\n        /* \"Contract.sol\":3573:3584  _joinToGame */\n      tag_120\n        /* \"Contract.sol\":3573:3607  _joinToGame(gameId, sender, value) */\n      jump\t// in\n    tag_119:\n        /* \"Contract.sol\":3075:3615  {\r... */\n      pop\n      pop\n        /* \"Contract.sol\":3016:3615  function _fallback(address sender, uint256 value) internal {\r... */\n      pop\n      pop\n      jump\t// out\n        /* \"Contract.sol\":4933:5548  function registerUserToGame(uint256 inviterId) external payable noContractAccess {\r... */\n    tag_31:\n        /* \"Contract.sol\":2250:2261  uint32 size */\n      0x00\n        /* \"Contract.sol\":2272:2286  address sender */\n      dup1\n        /* \"Contract.sol\":2289:2299  msg.sender */\n      caller\n        /* \"Contract.sol\":2272:2299  address sender = msg.sender */\n      swap1\n      pop\n        /* \"Contract.sol\":2341:2347  sender */\n      dup1\n        /* \"Contract.sol\":2329:2348  extcodesize(sender) */\n      extcodesize\n        /* \"Contract.sol\":2321:2348  size := extcodesize(sender) */\n      swap2\n      pop\n        /* \"Contract.sol\":2379:2380  0 */\n      0x00\n        /* \"Contract.sol\":2372:2376  size */\n      dup3\n        /* \"Contract.sol\":2372:2380  size > 0 */\n      0xffffffff\n      and\n      gt\n        /* \"Contract.sol\":2370:2381  !(size > 0) */\n      iszero\n        /* \"Contract.sol\":2362:2398  require(!(size > 0), \"No contracts\") */\n      tag_122\n      jumpi\n      mload(0x40)\n      0x08c379a000000000000000000000000000000000000000000000000000000000\n      dup2\n      mstore\n      0x04\n      add\n      tag_123\n      swap1\n      tag_124\n      jump\t// in\n    tag_123:\n      mload(0x40)\n      dup1\n      swap2\n      sub\n      swap1\n      revert\n    tag_122:\n        /* \"Contract.sol\":5163:5164  0 */\n      0x00\n        /* \"Contract.sol\":5112:5165  registeredUsers[msg.sender].userAddress == address(0) */\n      0xffffffffffffffffffffffffffffffffffffffff\n      and\n        /* \"Contract.sol\":5112:5127  registeredUsers */\n      0x04\n        /* \"Contract.sol\":5112:5139  registeredUsers[msg.sender] */\n      0x00\n        /* \"Contract.sol\":5128:5138  msg.sender */\n      caller\n        /* \"Contract.sol\":5112:5139  registeredUsers[msg.sender] */\n      0xffffffffffffffffffffffffffffffffffffffff\n      and\n      0xffffffffffffffffffffffffffffffffffffffff\n      and\n      dup2\n      mstore\n      0x20\n      add\n      swap1\n      dup2\n      mstore\n      0x20\n      add\n      0x00\n      keccak256\n        /* \"Contract.sol\":5112:5151  registeredUsers[msg.sender].userAddress */\n      0x01\n      add\n      0x00\n      swap1\n      sload\n      swap1\n      0x0100\n      exp\n      swap1\n      div\n      0xffffffffffffffffffffffffffffffffffffffff\n      and\n        /* \"Contract.sol\":5112:5165  registeredUsers[msg.sender].userAddress == address(0) */\n      0xffffffffffffffffffffffffffffffffffffffff\n      and\n      eq\n        /* \"Contract.sol\":5104:5196  require(registeredUsers[msg.sender].userAddress == address(0), \"You are already registered\") */\n      tag_126\n      jumpi\n      mload(0x40)\n      0x08c379a000000000000000000000000000000000000000000000000000000000\n      dup2\n      mstore\n      0x04\n      add\n      tag_127\n      swap1\n      tag_128\n      jump\t// in\n    tag_127:\n      mload(0x40)\n      dup1\n      swap2\n      sub\n      swap1\n      revert\n    tag_126:\n        /* \"Contract.sol\":5229:5236  1 ether */\n      0x0de0b6b3a7640000\n        /* \"Contract.sol\":5216:5225  msg.value */\n      callvalue\n        /* \"Contract.sol\":5216:5236  msg.value == 1 ether */\n      eq\n        /* \"Contract.sol\":5207:5281  require (msg.value == 1 ether, \"For regiter in game you need pay 1 ether\") */\n      tag_129\n      jumpi\n      mload(0x40)\n      0x08c379a000000000000000000000000000000000000000000000000000000000\n      dup2\n      mstore\n      0x04\n      add\n      tag_130\n      swap1\n      tag_131\n      jump\t// in\n    tag_130:\n      mload(0x40)\n      dup1\n      swap2\n      sub\n      swap1\n      revert\n    tag_129:\n        /* \"Contract.sol\":5324:5380  User(currentUserIdIndex, payable(msg.sender), inviterId) */\n      mload(0x40)\n      dup1\n      0x60\n      add\n      0x40\n      mstore\n      dup1\n        /* \"Contract.sol\":5329:5347  currentUserIdIndex */\n      sload(0x00)\n        /* \"Contract.sol\":5324:5380  User(currentUserIdIndex, payable(msg.sender), inviterId) */\n      dup2\n      mstore\n      0x20\n      add\n        /* \"Contract.sol\":5357:5367  msg.sender */\n      caller\n        /* \"Contract.sol\":5324:5380  User(currentUserIdIndex, payable(msg.sender), inviterId) */\n      0xffffffffffffffffffffffffffffffffffffffff\n      and\n      dup2\n      mstore\n      0x20\n      add\n        /* \"Contract.sol\":5370:5379  inviterId */\n      dup5\n        /* \"Contract.sol\":5324:5380  User(currentUserIdIndex, payable(msg.sender), inviterId) */\n      dup2\n      mstore\n      pop\n        /* \"Contract.sol\":5294:5309  registeredUsers */\n      0x04\n        /* \"Contract.sol\":5294:5321  registeredUsers[msg.sender] */\n      0x00\n        /* \"Contract.sol\":5310:5320  msg.sender */\n      caller\n        /* \"Contract.sol\":5294:5321  registeredUsers[msg.sender] */\n      0xffffffffffffffffffffffffffffffffffffffff\n      and\n      0xffffffffffffffffffffffffffffffffffffffff\n      and\n      dup2\n      mstore\n      0x20\n      add\n      swap1\n      dup2\n      mstore\n      0x20\n      add\n      0x00\n      keccak256\n        /* \"Contract.sol\":5294:5380  registeredUsers[msg.sender] = User(currentUserIdIndex, payable(msg.sender), inviterId) */\n      0x00\n      dup3\n      add\n      mload\n      dup2\n      0x00\n      add\n      sstore\n      0x20\n      dup3\n      add\n      mload\n      dup2\n      0x01\n      add\n      exp(0x0100, 0x00)\n      dup2\n      sload\n      dup2\n      0xffffffffffffffffffffffffffffffffffffffff\n      mul\n      not\n      and\n      swap1\n      dup4\n      0xffffffffffffffffffffffffffffffffffffffff\n      and\n      mul\n      or\n      swap1\n      sstore\n      pop\n      0x40\n      dup3\n      add\n      mload\n      dup2\n      0x02\n      add\n      sstore\n      swap1\n      pop\n      pop\n        /* \"Contract.sol\":5421:5431  msg.sender */\n      caller\n        /* \"Contract.sol\":5391:5398  usersId */\n      0x03\n        /* \"Contract.sol\":5391:5418  usersId[currentUserIdIndex] */\n      0x00\n        /* \"Contract.sol\":5399:5417  currentUserIdIndex */\n      dup1\n      sload\n        /* \"Contract.sol\":5391:5418  usersId[currentUserIdIndex] */\n      dup2\n      mstore\n      0x20\n      add\n      swap1\n      dup2\n      mstore\n      0x20\n      add\n      0x00\n      keccak256\n      0x00\n        /* \"Contract.sol\":5391:5431  usersId[currentUserIdIndex] = msg.sender */\n      0x0100\n      exp\n      dup2\n      sload\n      dup2\n      0xffffffffffffffffffffffffffffffffffffffff\n      mul\n      not\n      and\n      swap1\n      dup4\n      0xffffffffffffffffffffffffffffffffffffffff\n      and\n      mul\n      or\n      swap1\n      sstore\n      pop\n        /* \"Contract.sol\":5464:5465  1 */\n      0x01\n        /* \"Contract.sol\":5442:5460  currentUserIdIndex */\n      0x00\n      dup1\n        /* \"Contract.sol\":5442:5465  currentUserIdIndex += 1 */\n      dup3\n      dup3\n      sload\n      tag_132\n      swap2\n      swap1\n      tag_133\n      jump\t// in\n    tag_132:\n      swap3\n      pop\n      pop\n      dup2\n      swap1\n      sstore\n      pop\n        /* \"Contract.sol\":5483:5540  NewUserRegisteredEvent(currentUserIdIndex - 1, inviterId) */\n      0x1bb25ee34577114c5cbb122d81354acec5c791f324520729ea1b913d1a2034aa\n        /* \"Contract.sol\":5527:5528  1 */\n      0x01\n        /* \"Contract.sol\":5506:5524  currentUserIdIndex */\n      sload(0x00)\n        /* \"Contract.sol\":5506:5528  currentUserIdIndex - 1 */\n      tag_134\n      swap2\n      swap1\n      tag_135\n      jump\t// in\n    tag_134:\n        /* \"Contract.sol\":5530:5539  inviterId */\n      dup5\n        /* \"Contract.sol\":5483:5540  NewUserRegisteredEvent(currentUserIdIndex - 1, inviterId) */\n      mload(0x40)\n      tag_136\n      swap3\n      swap2\n      swap1\n      tag_137\n      jump\t// in\n    tag_136:\n      mload(0x40)\n      dup1\n      swap2\n      sub\n      swap1\n      log1\n        /* \"Contract.sol\":2172:2418  {\r... */\n      pop\n      pop\n        /* \"Contract.sol\":4933:5548  function registerUserToGame(uint256 inviterId) external payable noContractAccess {\r... */\n      pop\n      jump\t// out\n        /* \"Contract.sol\":1042:1090  mapping (address => User) public registeredUsers */\n    tag_36:\n      mstore(0x20, 0x04)\n      dup1\n      0x00\n      mstore\n      keccak256(0x00, 0x40)\n      0x00\n      swap2\n      pop\n      swap1\n      pop\n      dup1\n      0x00\n      add\n      sload\n      swap1\n      dup1\n      0x01\n      add\n      0x00\n      swap1\n      sload\n      swap1\n      0x0100\n      exp\n      swap1\n      div\n      0xffffffffffffffffffffffffffffffffffffffff\n      and\n      swap1\n      dup1\n      0x02\n      add\n      sload\n      swap1\n      pop\n      dup4\n      jump\t// out\n        /* \"Contract.sol\":1446:1507  mapping (address => mapping (uint8 => bool)) public userGames */\n    tag_43:\n      mstore(0x20, 0x08)\n      dup2\n      0x00\n      mstore\n      mstore(0x20, keccak256(0x00, 0x40))\n      dup1\n      0x00\n      mstore\n      keccak256(0x00, 0x40)\n      0x00\n      swap2\n      pop\n      swap2\n      pop\n      swap1\n      sload\n      swap1\n      0x0100\n      exp\n      swap1\n      div\n      0xff\n      and\n      dup2\n      jump\t// out\n        /* \"Contract.sol\":5556:5773  function joinToGame(uint8 gameId) public payable onlyRegistered {\r... */\n    tag_49:\n        /* \"Contract.sol\":2115:2116  0 */\n      0x00\n        /* \"Contract.sol\":2064:2117  registeredUsers[msg.sender].userAddress != address(0) */\n      0xffffffffffffffffffffffffffffffffffffffff\n      and\n        /* \"Contract.sol\":2064:2079  registeredUsers */\n      0x04\n        /* \"Contract.sol\":2064:2091  registeredUsers[msg.sender] */\n      0x00\n        /* \"Contract.sol\":2080:2090  msg.sender */\n      caller\n        /* \"Contract.sol\":2064:2091  registeredUsers[msg.sender] */\n      0xffffffffffffffffffffffffffffffffffffffff\n      and\n      0xffffffffffffffffffffffffffffffffffffffff\n      and\n      dup2\n      mstore\n      0x20\n      add\n      swap1\n      dup2\n      mstore\n      0x20\n      add\n      0x00\n      keccak256\n        /* \"Contract.sol\":2064:2103  registeredUsers[msg.sender].userAddress */\n      0x01\n      add\n      0x00\n      swap1\n      sload\n      swap1\n      0x0100\n      exp\n      swap1\n      div\n      0xffffffffffffffffffffffffffffffffffffffff\n      and\n        /* \"Contract.sol\":2064:2117  registeredUsers[msg.sender].userAddress != address(0) */\n      0xffffffffffffffffffffffffffffffffffffffff\n      and\n      eq\n      iszero\n        /* \"Contract.sol\":2056:2118  require(registeredUsers[msg.sender].userAddress != address(0)) */\n      tag_139\n      jumpi\n      0x00\n      dup1\n      revert\n    tag_139:\n        /* \"Contract.sol\":5723:5765  _joinToGame(gameId, msg.sender, msg.value) */\n      tag_141\n        /* \"Contract.sol\":5735:5741  gameId */\n      dup2\n        /* \"Contract.sol\":5743:5753  msg.sender */\n      caller\n        /* \"Contract.sol\":5755:5764  msg.value */\n      callvalue\n        /* \"Contract.sol\":5723:5734  _joinToGame */\n      tag_120\n        /* \"Contract.sol\":5723:5765  _joinToGame(gameId, msg.sender, msg.value) */\n      jump\t// in\n    tag_141:\n        /* \"Contract.sol\":5556:5773  function joinToGame(uint8 gameId) public payable onlyRegistered {\r... */\n      pop\n      jump\t// out\n        /* \"Contract.sol\":3623:4184  function culcNextWinnerIndex(uint256 index) public pure returns(uint256) {\r... */\n    tag_53:\n        /* \"Contract.sol\":3687:3694  uint256 */\n      0x00\n        /* \"Contract.sol\":4159:4160  0 */\n      dup1\n        /* \"Contract.sol\":4154:4155  2 */\n      0x02\n        /* \"Contract.sol\":4146:4151  index */\n      dup4\n        /* \"Contract.sol\":4146:4155  index % 2 */\n      tag_143\n      swap2\n      swap1\n      tag_144\n      jump\t// in\n    tag_143:\n        /* \"Contract.sol\":4146:4160  index % 2 == 0 */\n      eq\n        /* \"Contract.sol\":4146:4176  index % 2 == 0 ? 0 : index / 2 */\n      tag_145\n      jumpi\n        /* \"Contract.sol\":4175:4176  2 */\n      0x02\n        /* \"Contract.sol\":4167:4172  index */\n      dup3\n        /* \"Contract.sol\":4167:4176  index / 2 */\n      tag_146\n      swap2\n      swap1\n      tag_147\n      jump\t// in\n    tag_146:\n        /* \"Contract.sol\":4146:4176  index % 2 == 0 ? 0 : index / 2 */\n      jump(tag_148)\n    tag_145:\n        /* \"Contract.sol\":4163:4164  0 */\n      0x00\n        /* \"Contract.sol\":4146:4176  index % 2 == 0 ? 0 : index / 2 */\n    tag_148:\n        /* \"Contract.sol\":4139:4176  return index % 2 == 0 ? 0 : index / 2 */\n      swap1\n      pop\n        /* \"Contract.sol\":3623:4184  function culcNextWinnerIndex(uint256 index) public pure returns(uint256) {\r... */\n      swap2\n      swap1\n      pop\n      jump\t// out\n        /* \"Contract.sol\":4429:4548  function getUserBalance(address userAddress) public view returns(uint256) {\r... */\n    tag_59:\n        /* \"Contract.sol\":4494:4501  uint256 */\n      0x00\n        /* \"Contract.sol\":4521:4532  userAddress */\n      dup2\n        /* \"Contract.sol\":4521:4540  userAddress.balance */\n      0xffffffffffffffffffffffffffffffffffffffff\n      and\n      balance\n        /* \"Contract.sol\":4514:4540  return userAddress.balance */\n      swap1\n      pop\n        /* \"Contract.sol\":4429:4548  function getUserBalance(address userAddress) public view returns(uint256) {\r... */\n      swap2\n      swap1\n      pop\n      jump\t// out\n        /* \"Contract.sol\":118:151  uint256 public currentUserIdIndex */\n    tag_63:\n      sload(0x00)\n      dup2\n      jump\t// out\n        /* \"Contract.sol\":1234:1291  mapping (uint8 => mapping (uint256 => User)) public pools */\n    tag_69:\n      mstore(0x20, 0x06)\n      dup2\n      0x00\n      mstore\n      mstore(0x20, keccak256(0x00, 0x40))\n      dup1\n      0x00\n      mstore\n      keccak256(0x00, 0x40)\n      0x00\n      swap2\n      pop\n      swap2\n      pop\n      pop\n      dup1\n      0x00\n      add\n      sload\n      swap1\n      dup1\n      0x01\n      add\n      0x00\n      swap1\n      sload\n      swap1\n      0x0100\n      exp\n      swap1\n      div\n      0xffffffffffffffffffffffffffffffffffffffff\n      and\n      swap1\n      dup1\n      0x02\n      add\n      sload\n      swap1\n      pop\n      dup4\n      jump\t// out\n        /* \"Contract.sol\":894:931  mapping (uint8 => Game) public levels */\n    tag_74:\n      mstore(0x20, 0x02)\n      dup1\n      0x00\n      mstore\n      keccak256(0x00, 0x40)\n      0x00\n      swap2\n      pop\n      swap1\n      pop\n      dup1\n      0x00\n      add\n      0x00\n      swap1\n      sload\n      swap1\n      0x0100\n      exp\n      swap1\n      div\n      0xff\n      and\n      swap1\n      dup1\n      0x01\n      add\n      sload\n      swap1\n      pop\n      dup3\n      jump\t// out\n        /* \"Contract.sol\":4192:4421  function hasAccess(address userAdress) public view returns(bool) {\r... */\n    tag_80:\n        /* \"Contract.sol\":4251:4255  bool */\n      0x00\n        /* \"Contract.sol\":4400:4413  contractOwner */\n      0x01\n      dup1\n      sload\n      swap1\n      0x0100\n      exp\n      swap1\n      div\n      0xffffffffffffffffffffffffffffffffffffffff\n      and\n        /* \"Contract.sol\":4386:4413  userAdress == contractOwner */\n      0xffffffffffffffffffffffffffffffffffffffff\n      and\n        /* \"Contract.sol\":4386:4396  userAdress */\n      dup3\n        /* \"Contract.sol\":4386:4413  userAdress == contractOwner */\n      0xffffffffffffffffffffffffffffffffffffffff\n      and\n      eq\n        /* \"Contract.sol\":4379:4413  return userAdress == contractOwner */\n      swap1\n      pop\n        /* \"Contract.sol\":4192:4421  function hasAccess(address userAdress) public view returns(bool) {\r... */\n      swap2\n      swap1\n      pop\n      jump\t// out\n        /* \"Contract.sol\":1145:1195  mapping (uint8 => uint256) public currentUserIndex */\n    tag_85:\n      mstore(0x20, 0x05)\n      dup1\n      0x00\n      mstore\n      keccak256(0x00, 0x40)\n      0x00\n      swap2\n      pop\n      swap1\n      pop\n      sload\n      dup2\n      jump\t// out\n        /* \"Contract.sol\":187:218  uint8 public currentGameIdIndex */\n    tag_89:\n      0x01\n      0x00\n      swap1\n      sload\n      swap1\n      0x0100\n      exp\n      swap1\n      div\n      0xff\n      and\n      dup2\n      jump\t// out\n        /* \"Contract.sol\":4556:4925  function addGameLevel(uint256 amountToPay) public onlyOwner {\r... */\n    tag_95:\n        /* \"Contract.sol\":2524:2545  hasAccess(msg.sender) */\n      tag_152\n        /* \"Contract.sol\":2534:2544  msg.sender */\n      caller\n        /* \"Contract.sol\":2524:2533  hasAccess */\n      tag_80\n        /* \"Contract.sol\":2524:2545  hasAccess(msg.sender) */\n      jump\t// in\n    tag_152:\n        /* \"Contract.sol\":2516:2546  require(hasAccess(msg.sender)) */\n      tag_153\n      jumpi\n      0x00\n      dup1\n      revert\n    tag_153:\n        /* \"Contract.sol\":4761:4823  Game({ gameId: currentGameIdIndex, amountToPay: amountToPay }) */\n      mload(0x40)\n      dup1\n      0x40\n      add\n      0x40\n      mstore\n      dup1\n        /* \"Contract.sol\":4776:4794  currentGameIdIndex */\n      0x01\n      0x00\n      swap1\n      sload\n      swap1\n      0x0100\n      exp\n      swap1\n      div\n      0xff\n      and\n        /* \"Contract.sol\":4761:4823  Game({ gameId: currentGameIdIndex, amountToPay: amountToPay }) */\n      0xff\n      and\n      dup2\n      mstore\n      0x20\n      add\n        /* \"Contract.sol\":4809:4820  amountToPay */\n      dup3\n        /* \"Contract.sol\":4761:4823  Game({ gameId: currentGameIdIndex, amountToPay: amountToPay }) */\n      dup2\n      mstore\n      pop\n        /* \"Contract.sol\":4732:4738  levels */\n      0x02\n        /* \"Contract.sol\":4732:4758  levels[currentGameIdIndex] */\n      0x00\n        /* \"Contract.sol\":4739:4757  currentGameIdIndex */\n      0x01\n      0x00\n      swap1\n      sload\n      swap1\n      0x0100\n      exp\n      swap1\n      div\n      0xff\n      and\n        /* \"Contract.sol\":4732:4758  levels[currentGameIdIndex] */\n      0xff\n      and\n      0xff\n      and\n      dup2\n      mstore\n      0x20\n      add\n      swap1\n      dup2\n      mstore\n      0x20\n      add\n      0x00\n      keccak256\n        /* \"Contract.sol\":4732:4823  levels[currentGameIdIndex] = Game({ gameId: currentGameIdIndex, amountToPay: amountToPay }) */\n      0x00\n      dup3\n      add\n      mload\n      dup2\n      0x00\n      add\n      exp(0x0100, 0x00)\n      dup2\n      sload\n      dup2\n      0xff\n      mul\n      not\n      and\n      swap1\n      dup4\n      0xff\n      and\n      mul\n      or\n      swap1\n      sstore\n      pop\n      0x20\n      dup3\n      add\n      mload\n      dup2\n      0x01\n      add\n      sstore\n      swap1\n      pop\n      pop\n        /* \"Contract.sol\":4856:4857  1 */\n      0x01\n        /* \"Contract.sol\":4834:4852  currentGameIdIndex */\n      dup1\n      0x00\n        /* \"Contract.sol\":4834:4857  currentGameIdIndex += 1 */\n      dup3\n      dup3\n      dup3\n      swap1\n      sload\n      swap1\n      0x0100\n      exp\n      swap1\n      div\n      0xff\n      and\n      tag_155\n      swap2\n      swap1\n      tag_112\n      jump\t// in\n    tag_155:\n      swap3\n      pop\n      0x0100\n      exp\n      dup2\n      sload\n      dup2\n      0xff\n      mul\n      not\n      and\n      swap1\n      dup4\n      0xff\n      and\n      mul\n      or\n      swap1\n      sstore\n      pop\n        /* \"Contract.sol\":4873:4917  NewGame( currentGameIdIndex-1, amountToPay ) */\n      0xcf1ed532d6b83b4290f2f407b156b17826f49752e7a8ff360f502c307e055663\n        /* \"Contract.sol\":4901:4902  1 */\n      0x01\n        /* \"Contract.sol\":4882:4900  currentGameIdIndex */\n      dup1\n      0x00\n      swap1\n      sload\n      swap1\n      0x0100\n      exp\n      swap1\n      div\n      0xff\n      and\n        /* \"Contract.sol\":4882:4902  currentGameIdIndex-1 */\n      tag_156\n      swap2\n      swap1\n      tag_157\n      jump\t// in\n    tag_156:\n        /* \"Contract.sol\":4904:4915  amountToPay */\n      dup3\n        /* \"Contract.sol\":4873:4917  NewGame( currentGameIdIndex-1, amountToPay ) */\n      mload(0x40)\n      tag_158\n      swap3\n      swap2\n      swap1\n      tag_76\n      jump\t// in\n    tag_158:\n      mload(0x40)\n      dup1\n      swap2\n      sub\n      swap1\n      log1\n        /* \"Contract.sol\":4556:4925  function addGameLevel(uint256 amountToPay) public onlyOwner {\r... */\n      pop\n      jump\t// out\n        /* \"Contract.sol\":955:998  mapping (uint256 => address) public usersId */\n    tag_99:\n      mstore(0x20, 0x03)\n      dup1\n      0x00\n      mstore\n      keccak256(0x00, 0x40)\n      0x00\n      swap2\n      pop\n      sload\n      swap1\n      0x0100\n      exp\n      swap1\n      div\n      0xffffffffffffffffffffffffffffffffffffffff\n      and\n      dup2\n      jump\t// out\n        /* \"Contract.sol\":1333:1400  mapping (address => mapping (uint8 => uint256)) public userPayments */\n    tag_105:\n      mstore(0x20, 0x07)\n      dup2\n      0x00\n      mstore\n      mstore(0x20, keccak256(0x00, 0x40))\n      dup1\n      0x00\n      mstore\n      keccak256(0x00, 0x40)\n      0x00\n      swap2\n      pop\n      swap2\n      pop\n      pop\n      sload\n      dup2\n      jump\t// out\n        /* \"Contract.sol\":5781:9449  function _joinToGame(uint8 gameId, address sender, uint256 value) internal {\r... */\n    tag_120:\n        /* \"Contract.sol\":5885:5891  levels */\n      0x02\n        /* \"Contract.sol\":5885:5899  levels[gameId] */\n      0x00\n        /* \"Contract.sol\":5892:5898  gameId */\n      dup5\n        /* \"Contract.sol\":5885:5899  levels[gameId] */\n      0xff\n      and\n      0xff\n      and\n      dup2\n      mstore\n      0x20\n      add\n      swap1\n      dup2\n      mstore\n      0x20\n      add\n      0x00\n      keccak256\n        /* \"Contract.sol\":5885:5911  levels[gameId].amountToPay */\n      0x01\n      add\n      sload\n        /* \"Contract.sol\":5876:5881  value */\n      dup2\n        /* \"Contract.sol\":5876:5911  value >= levels[gameId].amountToPay */\n      lt\n      iszero\n        /* \"Contract.sol\":5867:5951  require (value >= levels[gameId].amountToPay, \"Insufficient amount of contribution\") */\n      tag_160\n      jumpi\n      mload(0x40)\n      0x08c379a000000000000000000000000000000000000000000000000000000000\n      dup2\n      mstore\n      0x04\n      add\n      tag_161\n      swap1\n      tag_162\n      jump\t// in\n    tag_161:\n      mload(0x40)\n      dup1\n      swap2\n      sub\n      swap1\n      revert\n    tag_160:\n        /* \"Contract.sol\":6126:6141  registeredUsers */\n      0x04\n        /* \"Contract.sol\":6126:6149  registeredUsers[sender] */\n      0x00\n        /* \"Contract.sol\":6142:6148  sender */\n      dup4\n        /* \"Contract.sol\":6126:6149  registeredUsers[sender] */\n      0xffffffffffffffffffffffffffffffffffffffff\n      and\n      0xffffffffffffffffffffffffffffffffffffffff\n      and\n      dup2\n      mstore\n      0x20\n      add\n      swap1\n      dup2\n      mstore\n      0x20\n      add\n      0x00\n      keccak256\n        /* \"Contract.sol\":6084:6089  pools */\n      0x06\n        /* \"Contract.sol\":6084:6097  pools[gameId] */\n      0x00\n        /* \"Contract.sol\":6090:6096  gameId */\n      dup6\n        /* \"Contract.sol\":6084:6097  pools[gameId] */\n      0xff\n      and\n      0xff\n      and\n      dup2\n      mstore\n      0x20\n      add\n      swap1\n      dup2\n      mstore\n      0x20\n      add\n      0x00\n      keccak256\n        /* \"Contract.sol\":6084:6123  pools[gameId][currentUserIndex[gameId]] */\n      0x00\n        /* \"Contract.sol\":6098:6114  currentUserIndex */\n      0x05\n        /* \"Contract.sol\":6098:6122  currentUserIndex[gameId] */\n      0x00\n        /* \"Contract.sol\":6115:6121  gameId */\n      dup8\n        /* \"Contract.sol\":6098:6122  currentUserIndex[gameId] */\n      0xff\n      and\n      0xff\n      and\n      dup2\n      mstore\n      0x20\n      add\n      swap1\n      dup2\n      mstore\n      0x20\n      add\n      0x00\n      keccak256\n      sload\n        /* \"Contract.sol\":6084:6123  pools[gameId][currentUserIndex[gameId]] */\n      dup2\n      mstore\n      0x20\n      add\n      swap1\n      dup2\n      mstore\n      0x20\n      add\n      0x00\n      keccak256\n        /* \"Contract.sol\":6084:6149  pools[gameId][currentUserIndex[gameId]] = registeredUsers[sender] */\n      0x00\n      dup3\n      add\n      sload\n      dup2\n      0x00\n      add\n      sstore\n      0x01\n      dup3\n      add\n      0x00\n      swap1\n      sload\n      swap1\n      0x0100\n      exp\n      swap1\n      div\n      0xffffffffffffffffffffffffffffffffffffffff\n      and\n      dup2\n      0x01\n      add\n      exp(0x0100, 0x00)\n      dup2\n      sload\n      dup2\n      0xffffffffffffffffffffffffffffffffffffffff\n      mul\n      not\n      and\n      swap1\n      dup4\n      0xffffffffffffffffffffffffffffffffffffffff\n      and\n      mul\n      or\n      swap1\n      sstore\n      pop\n      0x02\n      dup3\n      add\n      sload\n      dup2\n      0x02\n      add\n      sstore\n      swap1\n      pop\n      pop\n        /* \"Contract.sol\":6188:6192  true */\n      0x01\n        /* \"Contract.sol\":6160:6169  userGames */\n      0x08\n        /* \"Contract.sol\":6160:6177  userGames[sender] */\n      0x00\n        /* \"Contract.sol\":6170:6176  sender */\n      dup5\n        /* \"Contract.sol\":6160:6177  userGames[sender] */\n      0xffffffffffffffffffffffffffffffffffffffff\n      and\n      0xffffffffffffffffffffffffffffffffffffffff\n      and\n      dup2\n      mstore\n      0x20\n      add\n      swap1\n      dup2\n      mstore\n      0x20\n      add\n      0x00\n      keccak256\n        /* \"Contract.sol\":6160:6185  userGames[sender][gameId] */\n      0x00\n        /* \"Contract.sol\":6178:6184  gameId */\n      dup6\n        /* \"Contract.sol\":6160:6185  userGames[sender][gameId] */\n      0xff\n      and\n      0xff\n      and\n      dup2\n      mstore\n      0x20\n      add\n      swap1\n      dup2\n      mstore\n      0x20\n      add\n      0x00\n      keccak256\n      0x00\n        /* \"Contract.sol\":6160:6192  userGames[sender][gameId] = true */\n      0x0100\n      exp\n      dup2\n      sload\n      dup2\n      0xff\n      mul\n      not\n      and\n      swap1\n      dup4\n      iszero\n      iszero\n      mul\n      or\n      swap1\n      sstore\n      pop\n        /* \"Contract.sol\":6231:6232  1 */\n      0x01\n        /* \"Contract.sol\":6203:6219  currentUserIndex */\n      0x05\n        /* \"Contract.sol\":6203:6227  currentUserIndex[gameId] */\n      0x00\n        /* \"Contract.sol\":6220:6226  gameId */\n      dup6\n        /* \"Contract.sol\":6203:6227  currentUserIndex[gameId] */\n      0xff\n      and\n      0xff\n      and\n      dup2\n      mstore\n      0x20\n      add\n      swap1\n      dup2\n      mstore\n      0x20\n      add\n      0x00\n      keccak256\n      0x00\n        /* \"Contract.sol\":6203:6232  currentUserIndex[gameId] += 1 */\n      dup3\n      dup3\n      sload\n      tag_163\n      swap2\n      swap1\n      tag_133\n      jump\t// in\n    tag_163:\n      swap3\n      pop\n      pop\n      dup2\n      swap1\n      sstore\n      pop\n        /* \"Contract.sol\":6376:6377  3 */\n      0x03\n        /* \"Contract.sol\":6348:6364  currentUserIndex */\n      0x05\n        /* \"Contract.sol\":6348:6372  currentUserIndex[gameId] */\n      0x00\n        /* \"Contract.sol\":6365:6371  gameId */\n      dup6\n        /* \"Contract.sol\":6348:6372  currentUserIndex[gameId] */\n      0xff\n      and\n      0xff\n      and\n      dup2\n      mstore\n      0x20\n      add\n      swap1\n      dup2\n      mstore\n      0x20\n      add\n      0x00\n      keccak256\n      sload\n        /* \"Contract.sol\":6348:6377  currentUserIndex[gameId] >= 3 */\n      lt\n        /* \"Contract.sol\":6344:9442  if (currentUserIndex[gameId] >= 3) {\r... */\n      tag_164\n      jumpi\n        /* \"Contract.sol\":6394:6411  uint256 userIndex */\n      0x00\n        /* \"Contract.sol\":6414:6459  culcNextWinnerIndex(currentUserIndex[gameId]) */\n      tag_165\n        /* \"Contract.sol\":6434:6450  currentUserIndex */\n      0x05\n        /* \"Contract.sol\":6434:6458  currentUserIndex[gameId] */\n      0x00\n        /* \"Contract.sol\":6451:6457  gameId */\n      dup7\n        /* \"Contract.sol\":6434:6458  currentUserIndex[gameId] */\n      0xff\n      and\n      0xff\n      and\n      dup2\n      mstore\n      0x20\n      add\n      swap1\n      dup2\n      mstore\n      0x20\n      add\n      0x00\n      keccak256\n      sload\n        /* \"Contract.sol\":6414:6433  culcNextWinnerIndex */\n      tag_53\n        /* \"Contract.sol\":6414:6459  culcNextWinnerIndex(currentUserIndex[gameId]) */\n      jump\t// in\n    tag_165:\n        /* \"Contract.sol\":6394:6459  uint256 userIndex = culcNextWinnerIndex(currentUserIndex[gameId]) */\n      swap1\n      pop\n        /* \"Contract.sol\":6600:9431  while (userIndex != 0) {\r... */\n    tag_166:\n        /* \"Contract.sol\":6620:6621  0 */\n      0x00\n        /* \"Contract.sol\":6607:6616  userIndex */\n      dup2\n        /* \"Contract.sol\":6607:6621  userIndex != 0 */\n      eq\n        /* \"Contract.sol\":6600:9431  while (userIndex != 0) {\r... */\n      tag_167\n      jumpi\n        /* \"Contract.sol\":6642:6665  address selectedAddress */\n      0x00\n        /* \"Contract.sol\":6668:6673  pools */\n      0x06\n        /* \"Contract.sol\":6668:6681  pools[gameId] */\n      0x00\n        /* \"Contract.sol\":6674:6680  gameId */\n      dup7\n        /* \"Contract.sol\":6668:6681  pools[gameId] */\n      0xff\n      and\n      0xff\n      and\n      dup2\n      mstore\n      0x20\n      add\n      swap1\n      dup2\n      mstore\n      0x20\n      add\n      0x00\n      keccak256\n        /* \"Contract.sol\":6668:6696  pools[gameId][userIndex - 1] */\n      0x00\n        /* \"Contract.sol\":6694:6695  1 */\n      0x01\n        /* \"Contract.sol\":6682:6691  userIndex */\n      dup5\n        /* \"Contract.sol\":6682:6695  userIndex - 1 */\n      tag_168\n      swap2\n      swap1\n      tag_135\n      jump\t// in\n    tag_168:\n        /* \"Contract.sol\":6668:6696  pools[gameId][userIndex - 1] */\n      dup2\n      mstore\n      0x20\n      add\n      swap1\n      dup2\n      mstore\n      0x20\n      add\n      0x00\n      keccak256\n        /* \"Contract.sol\":6668:6708  pools[gameId][userIndex - 1].userAddress */\n      0x01\n      add\n      0x00\n      swap1\n      sload\n      swap1\n      0x0100\n      exp\n      swap1\n      div\n      0xffffffffffffffffffffffffffffffffffffffff\n      and\n        /* \"Contract.sol\":6642:6708  address selectedAddress = pools[gameId][userIndex - 1].userAddress */\n      swap1\n      pop\n        /* \"Contract.sol\":6914:6915  1 */\n      0x01\n        /* \"Contract.sol\":6873:6885  userPayments */\n      0x07\n        /* \"Contract.sol\":6873:6902  userPayments[selectedAddress] */\n      0x00\n        /* \"Contract.sol\":6886:6901  selectedAddress */\n      dup4\n        /* \"Contract.sol\":6873:6902  userPayments[selectedAddress] */\n      0xffffffffffffffffffffffffffffffffffffffff\n      and\n      0xffffffffffffffffffffffffffffffffffffffff\n      and\n      dup2\n      mstore\n      0x20\n      add\n      swap1\n      dup2\n      mstore\n      0x20\n      add\n      0x00\n      keccak256\n        /* \"Contract.sol\":6873:6910  userPayments[selectedAddress][gameId] */\n      0x00\n        /* \"Contract.sol\":6903:6909  gameId */\n      dup8\n        /* \"Contract.sol\":6873:6910  userPayments[selectedAddress][gameId] */\n      0xff\n      and\n      0xff\n      and\n      dup2\n      mstore\n      0x20\n      add\n      swap1\n      dup2\n      mstore\n      0x20\n      add\n      0x00\n      keccak256\n      sload\n        /* \"Contract.sol\":6873:6915  userPayments[selectedAddress][gameId] <= 1 */\n      gt\n      iszero\n        /* \"Contract.sol\":6873:6955  userPayments[selectedAddress][gameId] <= 1 || userGames[selectedAddress][gameId+1] */\n      dup1\n      tag_169\n      jumpi\n      pop\n        /* \"Contract.sol\":6919:6928  userGames */\n      0x08\n        /* \"Contract.sol\":6919:6945  userGames[selectedAddress] */\n      0x00\n        /* \"Contract.sol\":6929:6944  selectedAddress */\n      dup3\n        /* \"Contract.sol\":6919:6945  userGames[selectedAddress] */\n      0xffffffffffffffffffffffffffffffffffffffff\n      and\n      0xffffffffffffffffffffffffffffffffffffffff\n      and\n      dup2\n      mstore\n      0x20\n      add\n      swap1\n      dup2\n      mstore\n      0x20\n      add\n      0x00\n      keccak256\n        /* \"Contract.sol\":6919:6955  userGames[selectedAddress][gameId+1] */\n      0x00\n        /* \"Contract.sol\":6953:6954  1 */\n      0x01\n        /* \"Contract.sol\":6946:6952  gameId */\n      dup8\n        /* \"Contract.sol\":6946:6954  gameId+1 */\n      tag_170\n      swap2\n      swap1\n      tag_112\n      jump\t// in\n    tag_170:\n        /* \"Contract.sol\":6919:6955  userGames[selectedAddress][gameId+1] */\n      0xff\n      and\n      0xff\n      and\n      dup2\n      mstore\n      0x20\n      add\n      swap1\n      dup2\n      mstore\n      0x20\n      add\n      0x00\n      keccak256\n      0x00\n      swap1\n      sload\n      swap1\n      0x0100\n      exp\n      swap1\n      div\n      0xff\n      and\n        /* \"Contract.sol\":6873:6955  userPayments[selectedAddress][gameId] <= 1 || userGames[selectedAddress][gameId+1] */\n    tag_169:\n        /* \"Contract.sol\":6869:9355  if (userPayments[selectedAddress][gameId] <= 1 || userGames[selectedAddress][gameId+1]) {\r... */\n      iszero\n      tag_171\n      jumpi\n        /* \"Contract.sol\":7157:7169  bool success */\n      0x00\n        /* \"Contract.sol\":7175:7190  selectedAddress */\n      dup2\n        /* \"Contract.sol\":7175:7195  selectedAddress.call */\n      0xffffffffffffffffffffffffffffffffffffffff\n      and\n        /* \"Contract.sol\":7244:7247  100 */\n      0x64\n        /* \"Contract.sol\":307:309  74 */\n      0x4a\n        /* \"Contract.sol\":7203:7209  levels */\n      0x02\n        /* \"Contract.sol\":7203:7217  levels[gameId] */\n      0x00\n        /* \"Contract.sol\":7210:7216  gameId */\n      dup11\n        /* \"Contract.sol\":7203:7217  levels[gameId] */\n      0xff\n      and\n      0xff\n      and\n      dup2\n      mstore\n      0x20\n      add\n      swap1\n      dup2\n      mstore\n      0x20\n      add\n      0x00\n      keccak256\n        /* \"Contract.sol\":7203:7229  levels[gameId].amountToPay */\n      0x01\n      add\n      sload\n        /* \"Contract.sol\":7203:7241  levels[gameId].amountToPay * baseAward */\n      tag_172\n      swap2\n      swap1\n      tag_173\n      jump\t// in\n    tag_172:\n        /* \"Contract.sol\":7203:7247  levels[gameId].amountToPay * baseAward / 100 */\n      tag_174\n      swap2\n      swap1\n      tag_147\n      jump\t// in\n    tag_174:\n        /* \"Contract.sol\":7175:7252  selectedAddress.call{value: levels[gameId].amountToPay * baseAward / 100}(\"\") */\n      mload(0x40)\n      tag_175\n      swap1\n      tag_176\n      jump\t// in\n    tag_175:\n      0x00\n      mload(0x40)\n      dup1\n      dup4\n      sub\n      dup2\n      dup6\n      dup8\n      gas\n      call\n      swap3\n      pop\n      pop\n      pop\n      returndatasize\n      dup1\n      0x00\n      dup2\n      eq\n      tag_179\n      jumpi\n      mload(0x40)\n      swap2\n      pop\n      and(add(returndatasize, 0x3f), not(0x1f))\n      dup3\n      add\n      0x40\n      mstore\n      returndatasize\n      dup3\n      mstore\n      returndatasize\n      0x00\n      0x20\n      dup5\n      add\n      returndatacopy\n      jump(tag_178)\n    tag_179:\n      0x60\n      swap2\n      pop\n    tag_178:\n      pop\n        /* \"Contract.sol\":7156:7252  (bool success, ) = selectedAddress.call{value: levels[gameId].amountToPay * baseAward / 100}(\"\") */\n      pop\n      swap1\n      pop\n        /* \"Contract.sol\":7316:7317  1 */\n      0x01\n        /* \"Contract.sol\":7275:7287  userPayments */\n      0x07\n        /* \"Contract.sol\":7275:7304  userPayments[selectedAddress] */\n      0x00\n        /* \"Contract.sol\":7288:7303  selectedAddress */\n      dup5\n        /* \"Contract.sol\":7275:7304  userPayments[selectedAddress] */\n      0xffffffffffffffffffffffffffffffffffffffff\n      and\n      0xffffffffffffffffffffffffffffffffffffffff\n      and\n      dup2\n      mstore\n      0x20\n      add\n      swap1\n      dup2\n      mstore\n      0x20\n      add\n      0x00\n      keccak256\n        /* \"Contract.sol\":7275:7312  userPayments[selectedAddress][gameId] */\n      0x00\n        /* \"Contract.sol\":7305:7311  gameId */\n      dup9\n        /* \"Contract.sol\":7275:7312  userPayments[selectedAddress][gameId] */\n      0xff\n      and\n      0xff\n      and\n      dup2\n      mstore\n      0x20\n      add\n      swap1\n      dup2\n      mstore\n      0x20\n      add\n      0x00\n      keccak256\n      0x00\n        /* \"Contract.sol\":7275:7317  userPayments[selectedAddress][gameId] += 1 */\n      dup3\n      dup3\n      sload\n      tag_180\n      swap2\n      swap1\n      tag_133\n      jump\t// in\n    tag_180:\n      swap3\n      pop\n      pop\n      dup2\n      swap1\n      sstore\n      pop\n        /* \"Contract.sol\":7399:7464  GamePaymentEvent(levels[gameId].gameId, selectedAddress, success) */\n      0xd9ff1d189bd8473f87a70327222795b92238d06f3edf14fa23403ac2153c10a9\n        /* \"Contract.sol\":7416:7422  levels */\n      0x02\n        /* \"Contract.sol\":7416:7430  levels[gameId] */\n      0x00\n        /* \"Contract.sol\":7423:7429  gameId */\n      dup9\n        /* \"Contract.sol\":7416:7430  levels[gameId] */\n      0xff\n      and\n      0xff\n      and\n      dup2\n      mstore\n      0x20\n      add\n      swap1\n      dup2\n      mstore\n      0x20\n      add\n      0x00\n      keccak256\n        /* \"Contract.sol\":7416:7437  levels[gameId].gameId */\n      0x00\n      add\n      0x00\n      swap1\n      sload\n      swap1\n      0x0100\n      exp\n      swap1\n      div\n      0xff\n      and\n        /* \"Contract.sol\":7439:7454  selectedAddress */\n      dup4\n        /* \"Contract.sol\":7456:7463  success */\n      dup4\n        /* \"Contract.sol\":7399:7464  GamePaymentEvent(levels[gameId].gameId, selectedAddress, success) */\n      mload(0x40)\n      tag_181\n      swap4\n      swap3\n      swap2\n      swap1\n      tag_182\n      jump\t// in\n    tag_181:\n      mload(0x40)\n      dup1\n      swap2\n      sub\n      swap1\n      log1\n        /* \"Contract.sol\":7489:7503  uint256 userId */\n      0x00\n        /* \"Contract.sol\":7506:7511  pools */\n      0x06\n        /* \"Contract.sol\":7506:7519  pools[gameId] */\n      0x00\n        /* \"Contract.sol\":7512:7518  gameId */\n      dup9\n        /* \"Contract.sol\":7506:7519  pools[gameId] */\n      0xff\n      and\n      0xff\n      and\n      dup2\n      mstore\n      0x20\n      add\n      swap1\n      dup2\n      mstore\n      0x20\n      add\n      0x00\n      keccak256\n        /* \"Contract.sol\":7506:7534  pools[gameId][userIndex - 1] */\n      0x00\n        /* \"Contract.sol\":7532:7533  1 */\n      0x01\n        /* \"Contract.sol\":7520:7529  userIndex */\n      dup7\n        /* \"Contract.sol\":7520:7533  userIndex - 1 */\n      tag_183\n      swap2\n      swap1\n      tag_135\n      jump\t// in\n    tag_183:\n        /* \"Contract.sol\":7506:7534  pools[gameId][userIndex - 1] */\n      dup2\n      mstore\n      0x20\n      add\n      swap1\n      dup2\n      mstore\n      0x20\n      add\n      0x00\n      keccak256\n        /* \"Contract.sol\":7506:7541  pools[gameId][userIndex - 1].userId */\n      0x00\n      add\n      sload\n        /* \"Contract.sol\":7489:7541  uint256 userId = pools[gameId][userIndex - 1].userId */\n      swap1\n      pop\n        /* \"Contract.sol\":7593:7610  uint256 invitedId */\n      0x00\n        /* \"Contract.sol\":7613:7618  pools */\n      0x06\n        /* \"Contract.sol\":7613:7626  pools[gameId] */\n      0x00\n        /* \"Contract.sol\":7619:7625  gameId */\n      dup10\n        /* \"Contract.sol\":7613:7626  pools[gameId] */\n      0xff\n      and\n      0xff\n      and\n      dup2\n      mstore\n      0x20\n      add\n      swap1\n      dup2\n      mstore\n      0x20\n      add\n      0x00\n      keccak256\n        /* \"Contract.sol\":7613:7641  pools[gameId][userIndex - 1] */\n      0x00\n        /* \"Contract.sol\":7639:7640  1 */\n      0x01\n        /* \"Contract.sol\":7627:7636  userIndex */\n      dup8\n        /* \"Contract.sol\":7627:7640  userIndex - 1 */\n      tag_184\n      swap2\n      swap1\n      tag_135\n      jump\t// in\n    tag_184:\n        /* \"Contract.sol\":7613:7641  pools[gameId][userIndex - 1] */\n      dup2\n      mstore\n      0x20\n      add\n      swap1\n      dup2\n      mstore\n      0x20\n      add\n      0x00\n      keccak256\n        /* \"Contract.sol\":7613:7651  pools[gameId][userIndex - 1].invitedId */\n      0x02\n      add\n      sload\n        /* \"Contract.sol\":7593:7651  uint256 invitedId = pools[gameId][userIndex - 1].invitedId */\n      swap1\n      pop\n        /* \"Contract.sol\":7711:7724  uint refValue */\n      0x00\n        /* \"Contract.sol\":7776:7779  100 */\n      0x64\n        /* \"Contract.sol\":370:372  10 */\n      0x0a\n        /* \"Contract.sol\":7727:7733  levels */\n      0x02\n        /* \"Contract.sol\":7727:7741  levels[gameId] */\n      0x00\n        /* \"Contract.sol\":7734:7740  gameId */\n      dup13\n        /* \"Contract.sol\":7727:7741  levels[gameId] */\n      0xff\n      and\n      0xff\n      and\n      dup2\n      mstore\n      0x20\n      add\n      swap1\n      dup2\n      mstore\n      0x20\n      add\n      0x00\n      keccak256\n        /* \"Contract.sol\":7727:7753  levels[gameId].amountToPay */\n      0x01\n      add\n      sload\n        /* \"Contract.sol\":7727:7773  levels[gameId].amountToPay * firstLevelReferal */\n      tag_185\n      swap2\n      swap1\n      tag_173\n      jump\t// in\n    tag_185:\n        /* \"Contract.sol\":7727:7779  levels[gameId].amountToPay * firstLevelReferal / 100 */\n      tag_186\n      swap2\n      swap1\n      tag_147\n      jump\t// in\n    tag_186:\n        /* \"Contract.sol\":7711:7779  uint refValue = levels[gameId].amountToPay * firstLevelReferal / 100 */\n      swap1\n      pop\n        /* \"Contract.sol\":7841:7848  usersId */\n      0x03\n        /* \"Contract.sol\":7841:7859  usersId[invitedId] */\n      0x00\n        /* \"Contract.sol\":7849:7858  invitedId */\n      dup4\n        /* \"Contract.sol\":7841:7859  usersId[invitedId] */\n      dup2\n      mstore\n      0x20\n      add\n      swap1\n      dup2\n      mstore\n      0x20\n      add\n      0x00\n      keccak256\n      0x00\n      swap1\n      sload\n      swap1\n      0x0100\n      exp\n      swap1\n      div\n      0xffffffffffffffffffffffffffffffffffffffff\n      and\n        /* \"Contract.sol\":7841:7864  usersId[invitedId].call */\n      0xffffffffffffffffffffffffffffffffffffffff\n      and\n        /* \"Contract.sol\":7872:7880  refValue */\n      dup2\n        /* \"Contract.sol\":7841:7885  usersId[invitedId].call{value: refValue}(\"\") */\n      mload(0x40)\n      tag_187\n      swap1\n      tag_176\n      jump\t// in\n    tag_187:\n      0x00\n      mload(0x40)\n      dup1\n      dup4\n      sub\n      dup2\n      dup6\n      dup8\n      gas\n      call\n      swap3\n      pop\n      pop\n      pop\n      returndatasize\n      dup1\n      0x00\n      dup2\n      eq\n      tag_190\n      jumpi\n      mload(0x40)\n      swap2\n      pop\n      and(add(returndatasize, 0x3f), not(0x1f))\n      dup3\n      add\n      0x40\n      mstore\n      returndatasize\n      dup3\n      mstore\n      returndatasize\n      0x00\n      0x20\n      dup5\n      add\n      returndatacopy\n      jump(tag_189)\n    tag_190:\n      0x60\n      swap2\n      pop\n    tag_189:\n      pop\n        /* \"Contract.sol\":7827:7885  (success, ) = usersId[invitedId].call{value: refValue}(\"\") */\n      pop\n      dup1\n      swap5\n      pop\n      pop\n        /* \"Contract.sol\":7914:7921  success */\n      dup4\n        /* \"Contract.sol\":7910:7999  if (success) emit ReferalPaymentEvent(levels[gameId].gameId, userId, invitedId, refValue) */\n      iszero\n      tag_191\n      jumpi\n        /* \"Contract.sol\":7928:7999  ReferalPaymentEvent(levels[gameId].gameId, userId, invitedId, refValue) */\n      0xafe90bc52fc3dd02b2550b825fc68e93b4bfbcb8165bbacda6cd14b2bad5bc02\n        /* \"Contract.sol\":7948:7954  levels */\n      0x02\n        /* \"Contract.sol\":7948:7962  levels[gameId] */\n      0x00\n        /* \"Contract.sol\":7955:7961  gameId */\n      dup12\n        /* \"Contract.sol\":7948:7962  levels[gameId] */\n      0xff\n      and\n      0xff\n      and\n      dup2\n      mstore\n      0x20\n      add\n      swap1\n      dup2\n      mstore\n      0x20\n      add\n      0x00\n      keccak256\n        /* \"Contract.sol\":7948:7969  levels[gameId].gameId */\n      0x00\n      add\n      0x00\n      swap1\n      sload\n      swap1\n      0x0100\n      exp\n      swap1\n      div\n      0xff\n      and\n        /* \"Contract.sol\":7971:7977  userId */\n      dup5\n        /* \"Contract.sol\":7979:7988  invitedId */\n      dup5\n        /* \"Contract.sol\":7990:7998  refValue */\n      dup5\n        /* \"Contract.sol\":7928:7999  ReferalPaymentEvent(levels[gameId].gameId, userId, invitedId, refValue) */\n      mload(0x40)\n      tag_192\n      swap5\n      swap4\n      swap3\n      swap2\n      swap1\n      tag_193\n      jump\t// in\n    tag_192:\n      mload(0x40)\n      dup1\n      swap2\n      sub\n      swap1\n      log1\n        /* \"Contract.sol\":7910:7999  if (success) emit ReferalPaymentEvent(levels[gameId].gameId, userId, invitedId, refValue) */\n    tag_191:\n        /* \"Contract.sol\":8085:8088  100 */\n      0x64\n        /* \"Contract.sol\":447:448  6 */\n      0x06\n        /* \"Contract.sol\":8035:8041  levels */\n      0x02\n        /* \"Contract.sol\":8035:8049  levels[gameId] */\n      0x00\n        /* \"Contract.sol\":8042:8048  gameId */\n      dup13\n        /* \"Contract.sol\":8035:8049  levels[gameId] */\n      0xff\n      and\n      0xff\n      and\n      dup2\n      mstore\n      0x20\n      add\n      swap1\n      dup2\n      mstore\n      0x20\n      add\n      0x00\n      keccak256\n        /* \"Contract.sol\":8035:8061  levels[gameId].amountToPay */\n      0x01\n      add\n      sload\n        /* \"Contract.sol\":8035:8082  levels[gameId].amountToPay * secondLevelReferal */\n      tag_194\n      swap2\n      swap1\n      tag_173\n      jump\t// in\n    tag_194:\n        /* \"Contract.sol\":8035:8088  levels[gameId].amountToPay * secondLevelReferal / 100 */\n      tag_195\n      swap2\n      swap1\n      tag_147\n      jump\t// in\n    tag_195:\n        /* \"Contract.sol\":8024:8088  refValue = levels[gameId].amountToPay * secondLevelReferal / 100 */\n      swap1\n      pop\n        /* \"Contract.sol\":8149:8164  registeredUsers */\n      0x04\n        /* \"Contract.sol\":8149:8184  registeredUsers[usersId[invitedId]] */\n      0x00\n        /* \"Contract.sol\":8165:8172  usersId */\n      0x03\n        /* \"Contract.sol\":8165:8183  usersId[invitedId] */\n      0x00\n        /* \"Contract.sol\":8173:8182  invitedId */\n      dup6\n        /* \"Contract.sol\":8165:8183  usersId[invitedId] */\n      dup2\n      mstore\n      0x20\n      add\n      swap1\n      dup2\n      mstore\n      0x20\n      add\n      0x00\n      keccak256\n      0x00\n      swap1\n      sload\n      swap1\n      0x0100\n      exp\n      swap1\n      div\n      0xffffffffffffffffffffffffffffffffffffffff\n      and\n        /* \"Contract.sol\":8149:8184  registeredUsers[usersId[invitedId]] */\n      0xffffffffffffffffffffffffffffffffffffffff\n      and\n      0xffffffffffffffffffffffffffffffffffffffff\n      and\n      dup2\n      mstore\n      0x20\n      add\n      swap1\n      dup2\n      mstore\n      0x20\n      add\n      0x00\n      keccak256\n        /* \"Contract.sol\":8149:8196  registeredUsers[usersId[invitedId]].userAddress */\n      0x01\n      add\n      0x00\n      swap1\n      sload\n      swap1\n      0x0100\n      exp\n      swap1\n      div\n      0xffffffffffffffffffffffffffffffffffffffff\n      and\n        /* \"Contract.sol\":8149:8201  registeredUsers[usersId[invitedId]].userAddress.call */\n      0xffffffffffffffffffffffffffffffffffffffff\n      and\n        /* \"Contract.sol\":8209:8217  refValue */\n      dup2\n        /* \"Contract.sol\":8149:8222  registeredUsers[usersId[invitedId]].userAddress.call{value: refValue}(\"\") */\n      mload(0x40)\n      tag_196\n      swap1\n      tag_176\n      jump\t// in\n    tag_196:\n      0x00\n      mload(0x40)\n      dup1\n      dup4\n      sub\n      dup2\n      dup6\n      dup8\n      gas\n      call\n      swap3\n      pop\n      pop\n      pop\n      returndatasize\n      dup1\n      0x00\n      dup2\n      eq\n      tag_199\n      jumpi\n      mload(0x40)\n      swap2\n      pop\n      and(add(returndatasize, 0x3f), not(0x1f))\n      dup3\n      add\n      0x40\n      mstore\n      returndatasize\n      dup3\n      mstore\n      returndatasize\n      0x00\n      0x20\n      dup5\n      add\n      returndatacopy\n      jump(tag_198)\n    tag_199:\n      0x60\n      swap2\n      pop\n    tag_198:\n      pop\n        /* \"Contract.sol\":8135:8222  (success, ) = registeredUsers[usersId[invitedId]].userAddress.call{value: refValue}(\"\") */\n      pop\n      dup1\n      swap5\n      pop\n      pop\n        /* \"Contract.sol\":8277:8284  success */\n      dup4\n        /* \"Contract.sol\":8273:8398  if (success) emit ReferalPaymentEvent(levels[gameId].gameId, invitedId, registeredUsers[usersId[invitedId]].userId, refValue) */\n      iszero\n      tag_200\n      jumpi\n        /* \"Contract.sol\":8291:8398  ReferalPaymentEvent(levels[gameId].gameId, invitedId, registeredUsers[usersId[invitedId]].userId, refValue) */\n      0xafe90bc52fc3dd02b2550b825fc68e93b4bfbcb8165bbacda6cd14b2bad5bc02\n        /* \"Contract.sol\":8311:8317  levels */\n      0x02\n        /* \"Contract.sol\":8311:8325  levels[gameId] */\n      0x00\n        /* \"Contract.sol\":8318:8324  gameId */\n      dup12\n        /* \"Contract.sol\":8311:8325  levels[gameId] */\n      0xff\n      and\n      0xff\n      and\n      dup2\n      mstore\n      0x20\n      add\n      swap1\n      dup2\n      mstore\n      0x20\n      add\n      0x00\n      keccak256\n        /* \"Contract.sol\":8311:8332  levels[gameId].gameId */\n      0x00\n      add\n      0x00\n      swap1\n      sload\n      swap1\n      0x0100\n      exp\n      swap1\n      div\n      0xff\n      and\n        /* \"Contract.sol\":8334:8343  invitedId */\n      dup4\n        /* \"Contract.sol\":8345:8360  registeredUsers */\n      0x04\n        /* \"Contract.sol\":8345:8380  registeredUsers[usersId[invitedId]] */\n      0x00\n        /* \"Contract.sol\":8361:8368  usersId */\n      0x03\n        /* \"Contract.sol\":8361:8379  usersId[invitedId] */\n      0x00\n        /* \"Contract.sol\":8369:8378  invitedId */\n      dup9\n        /* \"Contract.sol\":8361:8379  usersId[invitedId] */\n      dup2\n      mstore\n      0x20\n      add\n      swap1\n      dup2\n      mstore\n      0x20\n      add\n      0x00\n      keccak256\n      0x00\n      swap1\n      sload\n      swap1\n      0x0100\n      exp\n      swap1\n      div\n      0xffffffffffffffffffffffffffffffffffffffff\n      and\n        /* \"Contract.sol\":8345:8380  registeredUsers[usersId[invitedId]] */\n      0xffffffffffffffffffffffffffffffffffffffff\n      and\n      0xffffffffffffffffffffffffffffffffffffffff\n      and\n      dup2\n      mstore\n      0x20\n      add\n      swap1\n      dup2\n      mstore\n      0x20\n      add\n      0x00\n      keccak256\n        /* \"Contract.sol\":8345:8387  registeredUsers[usersId[invitedId]].userId */\n      0x00\n      add\n      sload\n        /* \"Contract.sol\":8389:8397  refValue */\n      dup5\n        /* \"Contract.sol\":8291:8398  ReferalPaymentEvent(levels[gameId].gameId, invitedId, registeredUsers[usersId[invitedId]].userId, refValue) */\n      mload(0x40)\n      tag_201\n      swap5\n      swap4\n      swap3\n      swap2\n      swap1\n      tag_193\n      jump\t// in\n    tag_201:\n      mload(0x40)\n      dup1\n      swap2\n      sub\n      swap1\n      log1\n        /* \"Contract.sol\":8273:8398  if (success) emit ReferalPaymentEvent(levels[gameId].gameId, invitedId, registeredUsers[usersId[invitedId]].userId, refValue) */\n    tag_200:\n        /* \"Contract.sol\":8483:8486  100 */\n      0x64\n        /* \"Contract.sol\":522:523  4 */\n      0x04\n        /* \"Contract.sol\":8434:8440  levels */\n      0x02\n        /* \"Contract.sol\":8434:8448  levels[gameId] */\n      0x00\n        /* \"Contract.sol\":8441:8447  gameId */\n      dup13\n        /* \"Contract.sol\":8434:8448  levels[gameId] */\n      0xff\n      and\n      0xff\n      and\n      dup2\n      mstore\n      0x20\n      add\n      swap1\n      dup2\n      mstore\n      0x20\n      add\n      0x00\n      keccak256\n        /* \"Contract.sol\":8434:8460  levels[gameId].amountToPay */\n      0x01\n      add\n      sload\n        /* \"Contract.sol\":8434:8480  levels[gameId].amountToPay * thirdLevelReferal */\n      tag_202\n      swap2\n      swap1\n      tag_173\n      jump\t// in\n    tag_202:\n        /* \"Contract.sol\":8434:8486  levels[gameId].amountToPay * thirdLevelReferal / 100 */\n      tag_203\n      swap2\n      swap1\n      tag_147\n      jump\t// in\n    tag_203:\n        /* \"Contract.sol\":8423:8486  refValue = levels[gameId].amountToPay * thirdLevelReferal / 100 */\n      swap1\n      pop\n        /* \"Contract.sol\":8546:8561  registeredUsers */\n      0x04\n        /* \"Contract.sol\":8546:8614  registeredUsers[usersId[registeredUsers[usersId[invitedId]].userId]] */\n      0x00\n        /* \"Contract.sol\":8562:8569  usersId */\n      0x03\n        /* \"Contract.sol\":8562:8613  usersId[registeredUsers[usersId[invitedId]].userId] */\n      0x00\n        /* \"Contract.sol\":8570:8585  registeredUsers */\n      0x04\n        /* \"Contract.sol\":8570:8605  registeredUsers[usersId[invitedId]] */\n      0x00\n        /* \"Contract.sol\":8586:8593  usersId */\n      0x03\n        /* \"Contract.sol\":8586:8604  usersId[invitedId] */\n      0x00\n        /* \"Contract.sol\":8594:8603  invitedId */\n      dup10\n        /* \"Contract.sol\":8586:8604  usersId[invitedId] */\n      dup2\n      mstore\n      0x20\n      add\n      swap1\n      dup2\n      mstore\n      0x20\n      add\n      0x00\n      keccak256\n      0x00\n      swap1\n      sload\n      swap1\n      0x0100\n      exp\n      swap1\n      div\n      0xffffffffffffffffffffffffffffffffffffffff\n      and\n        /* \"Contract.sol\":8570:8605  registeredUsers[usersId[invitedId]] */\n      0xffffffffffffffffffffffffffffffffffffffff\n      and\n      0xffffffffffffffffffffffffffffffffffffffff\n      and\n      dup2\n      mstore\n      0x20\n      add\n      swap1\n      dup2\n      mstore\n      0x20\n      add\n      0x00\n      keccak256\n        /* \"Contract.sol\":8570:8612  registeredUsers[usersId[invitedId]].userId */\n      0x00\n      add\n      sload\n        /* \"Contract.sol\":8562:8613  usersId[registeredUsers[usersId[invitedId]].userId] */\n      dup2\n      mstore\n      0x20\n      add\n      swap1\n      dup2\n      mstore\n      0x20\n      add\n      0x00\n      keccak256\n      0x00\n      swap1\n      sload\n      swap1\n      0x0100\n      exp\n      swap1\n      div\n      0xffffffffffffffffffffffffffffffffffffffff\n      and\n        /* \"Contract.sol\":8546:8614  registeredUsers[usersId[registeredUsers[usersId[invitedId]].userId]] */\n      0xffffffffffffffffffffffffffffffffffffffff\n      and\n      0xffffffffffffffffffffffffffffffffffffffff\n      and\n      dup2\n      mstore\n      0x20\n      add\n      swap1\n      dup2\n      mstore\n      0x20\n      add\n      0x00\n      keccak256\n        /* \"Contract.sol\":8546:8626  registeredUsers[usersId[registeredUsers[usersId[invitedId]].userId]].userAddress */\n      0x01\n      add\n      0x00\n      swap1\n      sload\n      swap1\n      0x0100\n      exp\n      swap1\n      div\n      0xffffffffffffffffffffffffffffffffffffffff\n      and\n        /* \"Contract.sol\":8546:8631  registeredUsers[usersId[registeredUsers[usersId[invitedId]].userId]].userAddress.call */\n      0xffffffffffffffffffffffffffffffffffffffff\n      and\n        /* \"Contract.sol\":8639:8647  refValue */\n      dup2\n        /* \"Contract.sol\":8546:8652  registeredUsers[usersId[registeredUsers[usersId[invitedId]].userId]].userAddress.call{value: refValue}(\"\") */\n      mload(0x40)\n      tag_204\n      swap1\n      tag_176\n      jump\t// in\n    tag_204:\n      0x00\n      mload(0x40)\n      dup1\n      dup4\n      sub\n      dup2\n      dup6\n      dup8\n      gas\n      call\n      swap3\n      pop\n      pop\n      pop\n      returndatasize\n      dup1\n      0x00\n      dup2\n      eq\n      tag_207\n      jumpi\n      mload(0x40)\n      swap2\n      pop\n      and(add(returndatasize, 0x3f), not(0x1f))\n      dup3\n      add\n      0x40\n      mstore\n      returndatasize\n      dup3\n      mstore\n      returndatasize\n      0x00\n      0x20\n      dup5\n      add\n      returndatacopy\n      jump(tag_206)\n    tag_207:\n      0x60\n      swap2\n      pop\n    tag_206:\n      pop\n        /* \"Contract.sol\":8532:8652  (success, ) = registeredUsers[usersId[registeredUsers[usersId[invitedId]].userId]].userAddress.call{value: refValue}(\"\") */\n      pop\n      dup1\n      swap5\n      pop\n      pop\n        /* \"Contract.sol\":8681:8688  success */\n      dup4\n        /* \"Contract.sol\":8677:8868  if (success) emit ReferalPaymentEvent(levels[gameId].gameId, registeredUsers[usersId[invitedId]].userId, registeredUsers[usersId[registeredUsers[usersId[invitedId]].userId]].userId, refValue) */\n      iszero\n      tag_208\n      jumpi\n        /* \"Contract.sol\":8695:8868  ReferalPaymentEvent(levels[gameId].gameId, registeredUsers[usersId[invitedId]].userId, registeredUsers[usersId[registeredUsers[usersId[invitedId]].userId]].userId, refValue) */\n      0xafe90bc52fc3dd02b2550b825fc68e93b4bfbcb8165bbacda6cd14b2bad5bc02\n        /* \"Contract.sol\":8715:8721  levels */\n      0x02\n        /* \"Contract.sol\":8715:8729  levels[gameId] */\n      0x00\n        /* \"Contract.sol\":8722:8728  gameId */\n      dup12\n        /* \"Contract.sol\":8715:8729  levels[gameId] */\n      0xff\n      and\n      0xff\n      and\n      dup2\n      mstore\n      0x20\n      add\n      swap1\n      dup2\n      mstore\n      0x20\n      add\n      0x00\n      keccak256\n        /* \"Contract.sol\":8715:8736  levels[gameId].gameId */\n      0x00\n      add\n      0x00\n      swap1\n      sload\n      swap1\n      0x0100\n      exp\n      swap1\n      div\n      0xff\n      and\n        /* \"Contract.sol\":8738:8753  registeredUsers */\n      0x04\n        /* \"Contract.sol\":8738:8773  registeredUsers[usersId[invitedId]] */\n      0x00\n        /* \"Contract.sol\":8754:8761  usersId */\n      0x03\n        /* \"Contract.sol\":8754:8772  usersId[invitedId] */\n      0x00\n        /* \"Contract.sol\":8762:8771  invitedId */\n      dup8\n        /* \"Contract.sol\":8754:8772  usersId[invitedId] */\n      dup2\n      mstore\n      0x20\n      add\n      swap1\n      dup2\n      mstore\n      0x20\n      add\n      0x00\n      keccak256\n      0x00\n      swap1\n      sload\n      swap1\n      0x0100\n      exp\n      swap1\n      div\n      0xffffffffffffffffffffffffffffffffffffffff\n      and\n        /* \"Contract.sol\":8738:8773  registeredUsers[usersId[invitedId]] */\n      0xffffffffffffffffffffffffffffffffffffffff\n      and\n      0xffffffffffffffffffffffffffffffffffffffff\n      and\n      dup2\n      mstore\n      0x20\n      add\n      swap1\n      dup2\n      mstore\n      0x20\n      add\n      0x00\n      keccak256\n        /* \"Contract.sol\":8738:8780  registeredUsers[usersId[invitedId]].userId */\n      0x00\n      add\n      sload\n        /* \"Contract.sol\":8782:8797  registeredUsers */\n      0x04\n        /* \"Contract.sol\":8782:8850  registeredUsers[usersId[registeredUsers[usersId[invitedId]].userId]] */\n      0x00\n        /* \"Contract.sol\":8798:8805  usersId */\n      0x03\n        /* \"Contract.sol\":8798:8849  usersId[registeredUsers[usersId[invitedId]].userId] */\n      0x00\n        /* \"Contract.sol\":8806:8821  registeredUsers */\n      0x04\n        /* \"Contract.sol\":8806:8841  registeredUsers[usersId[invitedId]] */\n      0x00\n        /* \"Contract.sol\":8822:8829  usersId */\n      0x03\n        /* \"Contract.sol\":8822:8840  usersId[invitedId] */\n      0x00\n        /* \"Contract.sol\":8830:8839  invitedId */\n      dup13\n        /* \"Contract.sol\":8822:8840  usersId[invitedId] */\n      dup2\n      mstore\n      0x20\n      add\n      swap1\n      dup2\n      mstore\n      0x20\n      add\n      0x00\n      keccak256\n      0x00\n      swap1\n      sload\n      swap1\n      0x0100\n      exp\n      swap1\n      div\n      0xffffffffffffffffffffffffffffffffffffffff\n      and\n        /* \"Contract.sol\":8806:8841  registeredUsers[usersId[invitedId]] */\n      0xffffffffffffffffffffffffffffffffffffffff\n      and\n      0xffffffffffffffffffffffffffffffffffffffff\n      and\n      dup2\n      mstore\n      0x20\n      add\n      swap1\n      dup2\n      mstore\n      0x20\n      add\n      0x00\n      keccak256\n        /* \"Contract.sol\":8806:8848  registeredUsers[usersId[invitedId]].userId */\n      0x00\n      add\n      sload\n        /* \"Contract.sol\":8798:8849  usersId[registeredUsers[usersId[invitedId]].userId] */\n      dup2\n      mstore\n      0x20\n      add\n      swap1\n      dup2\n      mstore\n      0x20\n      add\n      0x00\n      keccak256\n      0x00\n      swap1\n      sload\n      swap1\n      0x0100\n      exp\n      swap1\n      div\n      0xffffffffffffffffffffffffffffffffffffffff\n      and\n        /* \"Contract.sol\":8782:8850  registeredUsers[usersId[registeredUsers[usersId[invitedId]].userId]] */\n      0xffffffffffffffffffffffffffffffffffffffff\n      and\n      0xffffffffffffffffffffffffffffffffffffffff\n      and\n      dup2\n      mstore\n      0x20\n      add\n      swap1\n      dup2\n      mstore\n      0x20\n      add\n      0x00\n      keccak256\n        /* \"Contract.sol\":8782:8857  registeredUsers[usersId[registeredUsers[usersId[invitedId]].userId]].userId */\n      0x00\n      add\n      sload\n        /* \"Contract.sol\":8859:8867  refValue */\n      dup5\n        /* \"Contract.sol\":8695:8868  ReferalPaymentEvent(levels[gameId].gameId, registeredUsers[usersId[invitedId]].userId, registeredUsers[usersId[registeredUsers[usersId[invitedId]].userId]].userId, refValue) */\n      mload(0x40)\n      tag_209\n      swap5\n      swap4\n      swap3\n      swap2\n      swap1\n      tag_193\n      jump\t// in\n    tag_209:\n      mload(0x40)\n      dup1\n      swap2\n      sub\n      swap1\n      log1\n        /* \"Contract.sol\":8677:8868  if (success) emit ReferalPaymentEvent(levels[gameId].gameId, registeredUsers[usersId[invitedId]].userId, registeredUsers[usersId[registeredUsers[usersId[invitedId]].userId]].userId, refValue) */\n    tag_208:\n        /* \"Contract.sol\":9068:9071  100 */\n      0x64\n        /* \"Contract.sol\":591:592  6 */\n      0x06\n        /* \"Contract.sol\":9024:9030  levels */\n      0x02\n        /* \"Contract.sol\":9024:9038  levels[gameId] */\n      0x00\n        /* \"Contract.sol\":9031:9037  gameId */\n      dup13\n        /* \"Contract.sol\":9024:9038  levels[gameId] */\n      0xff\n      and\n      0xff\n      and\n      dup2\n      mstore\n      0x20\n      add\n      swap1\n      dup2\n      mstore\n      0x20\n      add\n      0x00\n      keccak256\n        /* \"Contract.sol\":9024:9050  levels[gameId].amountToPay */\n      0x01\n      add\n      sload\n        /* \"Contract.sol\":9024:9065  levels[gameId].amountToPay * ownerReferal */\n      tag_210\n      swap2\n      swap1\n      tag_173\n      jump\t// in\n    tag_210:\n        /* \"Contract.sol\":9024:9071  levels[gameId].amountToPay * ownerReferal / 100 */\n      tag_211\n      swap2\n      swap1\n      tag_147\n      jump\t// in\n    tag_211:\n        /* \"Contract.sol\":9013:9071  refValue = levels[gameId].amountToPay * ownerReferal / 100 */\n      swap1\n      pop\n        /* \"Contract.sol\":9125:9140  registeredUsers */\n      0x04\n        /* \"Contract.sol\":9125:9155  registeredUsers[contractOwner] */\n      0x00\n        /* \"Contract.sol\":9141:9154  contractOwner */\n      0x01\n      dup1\n      sload\n      swap1\n      0x0100\n      exp\n      swap1\n      div\n      0xffffffffffffffffffffffffffffffffffffffff\n      and\n        /* \"Contract.sol\":9125:9155  registeredUsers[contractOwner] */\n      0xffffffffffffffffffffffffffffffffffffffff\n      and\n      0xffffffffffffffffffffffffffffffffffffffff\n      and\n      dup2\n      mstore\n      0x20\n      add\n      swap1\n      dup2\n      mstore\n      0x20\n      add\n      0x00\n      keccak256\n        /* \"Contract.sol\":9125:9167  registeredUsers[contractOwner].userAddress */\n      0x01\n      add\n      0x00\n      swap1\n      sload\n      swap1\n      0x0100\n      exp\n      swap1\n      div\n      0xffffffffffffffffffffffffffffffffffffffff\n      and\n        /* \"Contract.sol\":9125:9172  registeredUsers[contractOwner].userAddress.call */\n      0xffffffffffffffffffffffffffffffffffffffff\n      and\n        /* \"Contract.sol\":9180:9188  refValue */\n      dup2\n        /* \"Contract.sol\":9125:9193  registeredUsers[contractOwner].userAddress.call{value: refValue}(\"\") */\n      mload(0x40)\n      tag_212\n      swap1\n      tag_176\n      jump\t// in\n    tag_212:\n      0x00\n      mload(0x40)\n      dup1\n      dup4\n      sub\n      dup2\n      dup6\n      dup8\n      gas\n      call\n      swap3\n      pop\n      pop\n      pop\n      returndatasize\n      dup1\n      0x00\n      dup2\n      eq\n      tag_215\n      jumpi\n      mload(0x40)\n      swap2\n      pop\n      and(add(returndatasize, 0x3f), not(0x1f))\n      dup3\n      add\n      0x40\n      mstore\n      returndatasize\n      dup3\n      mstore\n      returndatasize\n      0x00\n      0x20\n      dup5\n      add\n      returndatacopy\n      jump(tag_214)\n    tag_215:\n      0x60\n      swap2\n      pop\n    tag_214:\n      pop\n        /* \"Contract.sol\":9111:9193  (success, ) = registeredUsers[contractOwner].userAddress.call{value: refValue}(\"\") */\n      pop\n      dup1\n      swap5\n      pop\n      pop\n        /* \"Contract.sol\":9222:9229  success */\n      dup4\n        /* \"Contract.sol\":9218:9335  if (success) emit ReferalPaymentEvent(levels[gameId].gameId, userId, registeredUsers[contractOwner].userId, refValue) */\n      iszero\n      tag_216\n      jumpi\n        /* \"Contract.sol\":9236:9335  ReferalPaymentEvent(levels[gameId].gameId, userId, registeredUsers[contractOwner].userId, refValue) */\n      0xafe90bc52fc3dd02b2550b825fc68e93b4bfbcb8165bbacda6cd14b2bad5bc02\n        /* \"Contract.sol\":9256:9262  levels */\n      0x02\n        /* \"Contract.sol\":9256:9270  levels[gameId] */\n      0x00\n        /* \"Contract.sol\":9263:9269  gameId */\n      dup12\n        /* \"Contract.sol\":9256:9270  levels[gameId] */\n      0xff\n      and\n      0xff\n      and\n      dup2\n      mstore\n      0x20\n      add\n      swap1\n      dup2\n      mstore\n      0x20\n      add\n      0x00\n      keccak256\n        /* \"Contract.sol\":9256:9277  levels[gameId].gameId */\n      0x00\n      add\n      0x00\n      swap1\n      sload\n      swap1\n      0x0100\n      exp\n      swap1\n      div\n      0xff\n      and\n        /* \"Contract.sol\":9279:9285  userId */\n      dup5\n        /* \"Contract.sol\":9287:9302  registeredUsers */\n      0x04\n        /* \"Contract.sol\":9287:9317  registeredUsers[contractOwner] */\n      0x00\n        /* \"Contract.sol\":9303:9316  contractOwner */\n      0x01\n      dup1\n      sload\n      swap1\n      0x0100\n      exp\n      swap1\n      div\n      0xffffffffffffffffffffffffffffffffffffffff\n      and\n        /* \"Contract.sol\":9287:9317  registeredUsers[contractOwner] */\n      0xffffffffffffffffffffffffffffffffffffffff\n      and\n      0xffffffffffffffffffffffffffffffffffffffff\n      and\n      dup2\n      mstore\n      0x20\n      add\n      swap1\n      dup2\n      mstore\n      0x20\n      add\n      0x00\n      keccak256\n        /* \"Contract.sol\":9287:9324  registeredUsers[contractOwner].userId */\n      0x00\n      add\n      sload\n        /* \"Contract.sol\":9326:9334  refValue */\n      dup5\n        /* \"Contract.sol\":9236:9335  ReferalPaymentEvent(levels[gameId].gameId, userId, registeredUsers[contractOwner].userId, refValue) */\n      mload(0x40)\n      tag_217\n      swap5\n      swap4\n      swap3\n      swap2\n      swap1\n      tag_193\n      jump\t// in\n    tag_217:\n      mload(0x40)\n      dup1\n      swap2\n      sub\n      swap1\n      log1\n        /* \"Contract.sol\":9218:9335  if (success) emit ReferalPaymentEvent(levels[gameId].gameId, userId, registeredUsers[contractOwner].userId, refValue) */\n    tag_216:\n        /* \"Contract.sol\":6957:9355  {\r... */\n      pop\n      pop\n      pop\n      pop\n        /* \"Contract.sol\":6869:9355  if (userPayments[selectedAddress][gameId] <= 1 || userGames[selectedAddress][gameId+1]) {\r... */\n    tag_171:\n        /* \"Contract.sol\":9385:9415  culcNextWinnerIndex(userIndex) */\n      tag_218\n        /* \"Contract.sol\":9405:9414  userIndex */\n      dup3\n        /* \"Contract.sol\":9385:9404  culcNextWinnerIndex */\n      tag_53\n        /* \"Contract.sol\":9385:9415  culcNextWinnerIndex(userIndex) */\n      jump\t// in\n    tag_218:\n        /* \"Contract.sol\":9373:9415  userIndex = culcNextWinnerIndex(userIndex) */\n      swap2\n      pop\n        /* \"Contract.sol\":6623:9431  {\r... */\n      pop\n        /* \"Contract.sol\":6600:9431  while (userIndex != 0) {\r... */\n      jump(tag_166)\n    tag_167:\n        /* \"Contract.sol\":6379:9442  {\r... */\n      pop\n        /* \"Contract.sol\":6344:9442  if (currentUserIndex[gameId] >= 3) {\r... */\n    tag_164:\n        /* \"Contract.sol\":5781:9449  function _joinToGame(uint8 gameId, address sender, uint256 value) internal {\r... */\n      pop\n      pop\n      pop\n      jump\t// out\n        /* \"#utility.yul\":7:146   */\n    tag_220:\n        /* \"#utility.yul\":53:58   */\n      0x00\n        /* \"#utility.yul\":91:97   */\n      dup2\n        /* \"#utility.yul\":78:98   */\n      calldataload\n        /* \"#utility.yul\":69:98   */\n      swap1\n      pop\n        /* \"#utility.yul\":107:140   */\n      tag_222\n        /* \"#utility.yul\":134:139   */\n      dup2\n        /* \"#utility.yul\":107:140   */\n      tag_223\n      jump\t// in\n    tag_222:\n        /* \"#utility.yul\":7:146   */\n      swap3\n      swap2\n      pop\n      pop\n      jump\t// out\n        /* \"#utility.yul\":152:291   */\n    tag_224:\n        /* \"#utility.yul\":198:203   */\n      0x00\n        /* \"#utility.yul\":236:242   */\n      dup2\n        /* \"#utility.yul\":223:243   */\n      calldataload\n        /* \"#utility.yul\":214:243   */\n      swap1\n      pop\n        /* \"#utility.yul\":252:285   */\n      tag_226\n        /* \"#utility.yul\":279:284   */\n      dup2\n        /* \"#utility.yul\":252:285   */\n      tag_227\n      jump\t// in\n    tag_226:\n        /* \"#utility.yul\":152:291   */\n      swap3\n      swap2\n      pop\n      pop\n      jump\t// out\n        /* \"#utility.yul\":297:432   */\n    tag_228:\n        /* \"#utility.yul\":341:346   */\n      0x00\n        /* \"#utility.yul\":379:385   */\n      dup2\n        /* \"#utility.yul\":366:386   */\n      calldataload\n        /* \"#utility.yul\":357:386   */\n      swap1\n      pop\n        /* \"#utility.yul\":395:426   */\n      tag_230\n        /* \"#utility.yul\":420:425   */\n      dup2\n        /* \"#utility.yul\":395:426   */\n      tag_231\n      jump\t// in\n    tag_230:\n        /* \"#utility.yul\":297:432   */\n      swap3\n      swap2\n      pop\n      pop\n      jump\t// out\n        /* \"#utility.yul\":438:767   */\n    tag_35:\n        /* \"#utility.yul\":497:503   */\n      0x00\n        /* \"#utility.yul\":546:548   */\n      0x20\n        /* \"#utility.yul\":534:543   */\n      dup3\n        /* \"#utility.yul\":525:532   */\n      dup5\n        /* \"#utility.yul\":521:544   */\n      sub\n        /* \"#utility.yul\":517:549   */\n      slt\n        /* \"#utility.yul\":514:633   */\n      iszero\n      tag_233\n      jumpi\n        /* \"#utility.yul\":552:631   */\n      tag_234\n      tag_235\n      jump\t// in\n    tag_234:\n        /* \"#utility.yul\":514:633   */\n    tag_233:\n        /* \"#utility.yul\":672:673   */\n      0x00\n        /* \"#utility.yul\":697:750   */\n      tag_236\n        /* \"#utility.yul\":742:749   */\n      dup5\n        /* \"#utility.yul\":733:739   */\n      dup3\n        /* \"#utility.yul\":722:731   */\n      dup6\n        /* \"#utility.yul\":718:740   */\n      add\n        /* \"#utility.yul\":697:750   */\n      tag_220\n      jump\t// in\n    tag_236:\n        /* \"#utility.yul\":687:750   */\n      swap2\n      pop\n        /* \"#utility.yul\":643:760   */\n      pop\n        /* \"#utility.yul\":438:767   */\n      swap3\n      swap2\n      pop\n      pop\n      jump\t// out\n        /* \"#utility.yul\":773:1243   */\n    tag_42:\n        /* \"#utility.yul\":839:845   */\n      0x00\n        /* \"#utility.yul\":847:853   */\n      dup1\n        /* \"#utility.yul\":896:898   */\n      0x40\n        /* \"#utility.yul\":884:893   */\n      dup4\n        /* \"#utility.yul\":875:882   */\n      dup6\n        /* \"#utility.yul\":871:894   */\n      sub\n        /* \"#utility.yul\":867:899   */\n      slt\n        /* \"#utility.yul\":864:983   */\n      iszero\n      tag_238\n      jumpi\n        /* \"#utility.yul\":902:981   */\n      tag_239\n      tag_235\n      jump\t// in\n    tag_239:\n        /* \"#utility.yul\":864:983   */\n    tag_238:\n        /* \"#utility.yul\":1022:1023   */\n      0x00\n        /* \"#utility.yul\":1047:1100   */\n      tag_240\n        /* \"#utility.yul\":1092:1099   */\n      dup6\n        /* \"#utility.yul\":1083:1089   */\n      dup3\n        /* \"#utility.yul\":1072:1081   */\n      dup7\n        /* \"#utility.yul\":1068:1090   */\n      add\n        /* \"#utility.yul\":1047:1100   */\n      tag_220\n      jump\t// in\n    tag_240:\n        /* \"#utility.yul\":1037:1100   */\n      swap3\n      pop\n        /* \"#utility.yul\":993:1110   */\n      pop\n        /* \"#utility.yul\":1149:1151   */\n      0x20\n        /* \"#utility.yul\":1175:1226   */\n      tag_241\n        /* \"#utility.yul\":1218:1225   */\n      dup6\n        /* \"#utility.yul\":1209:1215   */\n      dup3\n        /* \"#utility.yul\":1198:1207   */\n      dup7\n        /* \"#utility.yul\":1194:1216   */\n      add\n        /* \"#utility.yul\":1175:1226   */\n      tag_228\n      jump\t// in\n    tag_241:\n        /* \"#utility.yul\":1165:1226   */\n      swap2\n      pop\n        /* \"#utility.yul\":1120:1236   */\n      pop\n        /* \"#utility.yul\":773:1243   */\n      swap3\n      pop\n      swap3\n      swap1\n      pop\n      jump\t// out\n        /* \"#utility.yul\":1249:1578   */\n    tag_30:\n        /* \"#utility.yul\":1308:1314   */\n      0x00\n        /* \"#utility.yul\":1357:1359   */\n      0x20\n        /* \"#utility.yul\":1345:1354   */\n      dup3\n        /* \"#utility.yul\":1336:1343   */\n      dup5\n        /* \"#utility.yul\":1332:1355   */\n      sub\n        /* \"#utility.yul\":1328:1360   */\n      slt\n        /* \"#utility.yul\":1325:1444   */\n      iszero\n      tag_243\n      jumpi\n        /* \"#utility.yul\":1363:1442   */\n      tag_244\n      tag_235\n      jump\t// in\n    tag_244:\n        /* \"#utility.yul\":1325:1444   */\n    tag_243:\n        /* \"#utility.yul\":1483:1484   */\n      0x00\n        /* \"#utility.yul\":1508:1561   */\n      tag_245\n        /* \"#utility.yul\":1553:1560   */\n      dup5\n        /* \"#utility.yul\":1544:1550   */\n      dup3\n        /* \"#utility.yul\":1533:1542   */\n      dup6\n        /* \"#utility.yul\":1529:1551   */\n      add\n        /* \"#utility.yul\":1508:1561   */\n      tag_224\n      jump\t// in\n    tag_245:\n        /* \"#utility.yul\":1498:1561   */\n      swap2\n      pop\n        /* \"#utility.yul\":1454:1571   */\n      pop\n        /* \"#utility.yul\":1249:1578   */\n      swap3\n      swap2\n      pop\n      pop\n      jump\t// out\n        /* \"#utility.yul\":1584:1909   */\n    tag_48:\n        /* \"#utility.yul\":1641:1647   */\n      0x00\n        /* \"#utility.yul\":1690:1692   */\n      0x20\n        /* \"#utility.yul\":1678:1687   */\n      dup3\n        /* \"#utility.yul\":1669:1676   */\n      dup5\n        /* \"#utility.yul\":1665:1688   */\n      sub\n        /* \"#utility.yul\":1661:1693   */\n      slt\n        /* \"#utility.yul\":1658:1777   */\n      iszero\n      tag_247\n      jumpi\n        /* \"#utility.yul\":1696:1775   */\n      tag_248\n      tag_235\n      jump\t// in\n    tag_248:\n        /* \"#utility.yul\":1658:1777   */\n    tag_247:\n        /* \"#utility.yul\":1816:1817   */\n      0x00\n        /* \"#utility.yul\":1841:1892   */\n      tag_249\n        /* \"#utility.yul\":1884:1891   */\n      dup5\n        /* \"#utility.yul\":1875:1881   */\n      dup3\n        /* \"#utility.yul\":1864:1873   */\n      dup6\n        /* \"#utility.yul\":1860:1882   */\n      add\n        /* \"#utility.yul\":1841:1892   */\n      tag_228\n      jump\t// in\n    tag_249:\n        /* \"#utility.yul\":1831:1892   */\n      swap2\n      pop\n        /* \"#utility.yul\":1787:1902   */\n      pop\n        /* \"#utility.yul\":1584:1909   */\n      swap3\n      swap2\n      pop\n      pop\n      jump\t// out\n        /* \"#utility.yul\":1915:2385   */\n    tag_68:\n        /* \"#utility.yul\":1981:1987   */\n      0x00\n        /* \"#utility.yul\":1989:1995   */\n      dup1\n        /* \"#utility.yul\":2038:2040   */\n      0x40\n        /* \"#utility.yul\":2026:2035   */\n      dup4\n        /* \"#utility.yul\":2017:2024   */\n      dup6\n        /* \"#utility.yul\":2013:2036   */\n      sub\n        /* \"#utility.yul\":2009:2041   */\n      slt\n        /* \"#utility.yul\":2006:2125   */\n      iszero\n      tag_251\n      jumpi\n        /* \"#utility.yul\":2044:2123   */\n      tag_252\n      tag_235\n      jump\t// in\n    tag_252:\n        /* \"#utility.yul\":2006:2125   */\n    tag_251:\n        /* \"#utility.yul\":2164:2165   */\n      0x00\n        /* \"#utility.yul\":2189:2240   */\n      tag_253\n        /* \"#utility.yul\":2232:2239   */\n      dup6\n        /* \"#utility.yul\":2223:2229   */\n      dup3\n        /* \"#utility.yul\":2212:2221   */\n      dup7\n        /* \"#utility.yul\":2208:2230   */\n      add\n        /* \"#utility.yul\":2189:2240   */\n      tag_228\n      jump\t// in\n    tag_253:\n        /* \"#utility.yul\":2179:2240   */\n      swap3\n      pop\n        /* \"#utility.yul\":2135:2250   */\n      pop\n        /* \"#utility.yul\":2289:2291   */\n      0x20\n        /* \"#utility.yul\":2315:2368   */\n      tag_254\n        /* \"#utility.yul\":2360:2367   */\n      dup6\n        /* \"#utility.yul\":2351:2357   */\n      dup3\n        /* \"#utility.yul\":2340:2349   */\n      dup7\n        /* \"#utility.yul\":2336:2358   */\n      add\n        /* \"#utility.yul\":2315:2368   */\n      tag_224\n      jump\t// in\n    tag_254:\n        /* \"#utility.yul\":2305:2368   */\n      swap2\n      pop\n        /* \"#utility.yul\":2260:2378   */\n      pop\n        /* \"#utility.yul\":1915:2385   */\n      swap3\n      pop\n      swap3\n      swap1\n      pop\n      jump\t// out\n        /* \"#utility.yul\":2391:2533   */\n    tag_255:\n        /* \"#utility.yul\":2494:2526   */\n      tag_257\n        /* \"#utility.yul\":2520:2525   */\n      dup2\n        /* \"#utility.yul\":2494:2526   */\n      tag_258\n      jump\t// in\n    tag_257:\n        /* \"#utility.yul\":2489:2492   */\n      dup3\n        /* \"#utility.yul\":2482:2527   */\n      mstore\n        /* \"#utility.yul\":2391:2533   */\n      pop\n      pop\n      jump\t// out\n        /* \"#utility.yul\":2539:2657   */\n    tag_259:\n        /* \"#utility.yul\":2626:2650   */\n      tag_261\n        /* \"#utility.yul\":2644:2649   */\n      dup2\n        /* \"#utility.yul\":2626:2650   */\n      tag_262\n      jump\t// in\n    tag_261:\n        /* \"#utility.yul\":2621:2624   */\n      dup3\n        /* \"#utility.yul\":2614:2651   */\n      mstore\n        /* \"#utility.yul\":2539:2657   */\n      pop\n      pop\n      jump\t// out\n        /* \"#utility.yul\":2663:2772   */\n    tag_263:\n        /* \"#utility.yul\":2744:2765   */\n      tag_265\n        /* \"#utility.yul\":2759:2764   */\n      dup2\n        /* \"#utility.yul\":2744:2765   */\n      tag_266\n      jump\t// in\n    tag_265:\n        /* \"#utility.yul\":2739:2742   */\n      dup3\n        /* \"#utility.yul\":2732:2766   */\n      mstore\n        /* \"#utility.yul\":2663:2772   */\n      pop\n      pop\n      jump\t// out\n        /* \"#utility.yul\":2778:3144   */\n    tag_267:\n        /* \"#utility.yul\":2920:2923   */\n      0x00\n        /* \"#utility.yul\":2941:3008   */\n      tag_269\n        /* \"#utility.yul\":3005:3007   */\n      0x0e\n        /* \"#utility.yul\":3000:3003   */\n      dup4\n        /* \"#utility.yul\":2941:3008   */\n      tag_270\n      jump\t// in\n    tag_269:\n        /* \"#utility.yul\":2934:3008   */\n      swap2\n      pop\n        /* \"#utility.yul\":3017:3110   */\n      tag_271\n        /* \"#utility.yul\":3106:3109   */\n      dup3\n        /* \"#utility.yul\":3017:3110   */\n      tag_272\n      jump\t// in\n    tag_271:\n        /* \"#utility.yul\":3135:3137   */\n      0x20\n        /* \"#utility.yul\":3130:3133   */\n      dup3\n        /* \"#utility.yul\":3126:3138   */\n      add\n        /* \"#utility.yul\":3119:3138   */\n      swap1\n      pop\n        /* \"#utility.yul\":2778:3144   */\n      swap2\n      swap1\n      pop\n      jump\t// out\n        /* \"#utility.yul\":3150:3516   */\n    tag_273:\n        /* \"#utility.yul\":3292:3295   */\n      0x00\n        /* \"#utility.yul\":3313:3380   */\n      tag_275\n        /* \"#utility.yul\":3377:3379   */\n      0x1a\n        /* \"#utility.yul\":3372:3375   */\n      dup4\n        /* \"#utility.yul\":3313:3380   */\n      tag_270\n      jump\t// in\n    tag_275:\n        /* \"#utility.yul\":3306:3380   */\n      swap2\n      pop\n        /* \"#utility.yul\":3389:3482   */\n      tag_276\n        /* \"#utility.yul\":3478:3481   */\n      dup3\n        /* \"#utility.yul\":3389:3482   */\n      tag_277\n      jump\t// in\n    tag_276:\n        /* \"#utility.yul\":3507:3509   */\n      0x20\n        /* \"#utility.yul\":3502:3505   */\n      dup3\n        /* \"#utility.yul\":3498:3510   */\n      add\n        /* \"#utility.yul\":3491:3510   */\n      swap1\n      pop\n        /* \"#utility.yul\":3150:3516   */\n      swap2\n      swap1\n      pop\n      jump\t// out\n        /* \"#utility.yul\":3522:3920   */\n    tag_278:\n        /* \"#utility.yul\":3681:3684   */\n      0x00\n        /* \"#utility.yul\":3702:3785   */\n      tag_280\n        /* \"#utility.yul\":3783:3784   */\n      0x00\n        /* \"#utility.yul\":3778:3781   */\n      dup4\n        /* \"#utility.yul\":3702:3785   */\n      tag_281\n      jump\t// in\n    tag_280:\n        /* \"#utility.yul\":3695:3785   */\n      swap2\n      pop\n        /* \"#utility.yul\":3794:3887   */\n      tag_282\n        /* \"#utility.yul\":3883:3886   */\n      dup3\n        /* \"#utility.yul\":3794:3887   */\n      tag_283\n      jump\t// in\n    tag_282:\n        /* \"#utility.yul\":3912:3913   */\n      0x00\n        /* \"#utility.yul\":3907:3910   */\n      dup3\n        /* \"#utility.yul\":3903:3914   */\n      add\n        /* \"#utility.yul\":3896:3914   */\n      swap1\n      pop\n        /* \"#utility.yul\":3522:3920   */\n      swap2\n      swap1\n      pop\n      jump\t// out\n        /* \"#utility.yul\":3926:4292   */\n    tag_284:\n        /* \"#utility.yul\":4068:4071   */\n      0x00\n        /* \"#utility.yul\":4089:4156   */\n      tag_286\n        /* \"#utility.yul\":4153:4155   */\n      0x23\n        /* \"#utility.yul\":4148:4151   */\n      dup4\n        /* \"#utility.yul\":4089:4156   */\n      tag_270\n      jump\t// in\n    tag_286:\n        /* \"#utility.yul\":4082:4156   */\n      swap2\n      pop\n        /* \"#utility.yul\":4165:4258   */\n      tag_287\n        /* \"#utility.yul\":4254:4257   */\n      dup3\n        /* \"#utility.yul\":4165:4258   */\n      tag_288\n      jump\t// in\n    tag_287:\n        /* \"#utility.yul\":4283:4285   */\n      0x40\n        /* \"#utility.yul\":4278:4281   */\n      dup3\n        /* \"#utility.yul\":4274:4286   */\n      add\n        /* \"#utility.yul\":4267:4286   */\n      swap1\n      pop\n        /* \"#utility.yul\":3926:4292   */\n      swap2\n      swap1\n      pop\n      jump\t// out\n        /* \"#utility.yul\":4298:4664   */\n    tag_289:\n        /* \"#utility.yul\":4440:4443   */\n      0x00\n        /* \"#utility.yul\":4461:4528   */\n      tag_291\n        /* \"#utility.yul\":4525:4527   */\n      0x28\n        /* \"#utility.yul\":4520:4523   */\n      dup4\n        /* \"#utility.yul\":4461:4528   */\n      tag_270\n      jump\t// in\n    tag_291:\n        /* \"#utility.yul\":4454:4528   */\n      swap2\n      pop\n        /* \"#utility.yul\":4537:4630   */\n      tag_292\n        /* \"#utility.yul\":4626:4629   */\n      dup3\n        /* \"#utility.yul\":4537:4630   */\n      tag_293\n      jump\t// in\n    tag_292:\n        /* \"#utility.yul\":4655:4657   */\n      0x40\n        /* \"#utility.yul\":4650:4653   */\n      dup3\n        /* \"#utility.yul\":4646:4658   */\n      add\n        /* \"#utility.yul\":4639:4658   */\n      swap1\n      pop\n        /* \"#utility.yul\":4298:4664   */\n      swap2\n      swap1\n      pop\n      jump\t// out\n        /* \"#utility.yul\":4670:5036   */\n    tag_294:\n        /* \"#utility.yul\":4812:4815   */\n      0x00\n        /* \"#utility.yul\":4833:4900   */\n      tag_296\n        /* \"#utility.yul\":4897:4899   */\n      0x0c\n        /* \"#utility.yul\":4892:4895   */\n      dup4\n        /* \"#utility.yul\":4833:4900   */\n      tag_270\n      jump\t// in\n    tag_296:\n        /* \"#utility.yul\":4826:4900   */\n      swap2\n      pop\n        /* \"#utility.yul\":4909:5002   */\n      tag_297\n        /* \"#utility.yul\":4998:5001   */\n      dup3\n        /* \"#utility.yul\":4909:5002   */\n      tag_298\n      jump\t// in\n    tag_297:\n        /* \"#utility.yul\":5027:5029   */\n      0x20\n        /* \"#utility.yul\":5022:5025   */\n      dup3\n        /* \"#utility.yul\":5018:5030   */\n      add\n        /* \"#utility.yul\":5011:5030   */\n      swap1\n      pop\n        /* \"#utility.yul\":4670:5036   */\n      swap2\n      swap1\n      pop\n      jump\t// out\n        /* \"#utility.yul\":5042:5160   */\n    tag_299:\n        /* \"#utility.yul\":5129:5153   */\n      tag_301\n        /* \"#utility.yul\":5147:5152   */\n      dup2\n        /* \"#utility.yul\":5129:5153   */\n      tag_302\n      jump\t// in\n    tag_301:\n        /* \"#utility.yul\":5124:5127   */\n      dup3\n        /* \"#utility.yul\":5117:5154   */\n      mstore\n        /* \"#utility.yul\":5042:5160   */\n      pop\n      pop\n      jump\t// out\n        /* \"#utility.yul\":5166:5278   */\n    tag_303:\n        /* \"#utility.yul\":5249:5271   */\n      tag_305\n        /* \"#utility.yul\":5265:5270   */\n      dup2\n        /* \"#utility.yul\":5249:5271   */\n      tag_306\n      jump\t// in\n    tag_305:\n        /* \"#utility.yul\":5244:5247   */\n      dup3\n        /* \"#utility.yul\":5237:5272   */\n      mstore\n        /* \"#utility.yul\":5166:5278   */\n      pop\n      pop\n      jump\t// out\n        /* \"#utility.yul\":5284:5663   */\n    tag_176:\n        /* \"#utility.yul\":5468:5471   */\n      0x00\n        /* \"#utility.yul\":5490:5637   */\n      tag_308\n        /* \"#utility.yul\":5633:5636   */\n      dup3\n        /* \"#utility.yul\":5490:5637   */\n      tag_278\n      jump\t// in\n    tag_308:\n        /* \"#utility.yul\":5483:5637   */\n      swap2\n      pop\n        /* \"#utility.yul\":5654:5657   */\n      dup2\n        /* \"#utility.yul\":5647:5657   */\n      swap1\n      pop\n        /* \"#utility.yul\":5284:5663   */\n      swap2\n      swap1\n      pop\n      jump\t// out\n        /* \"#utility.yul\":5669:5891   */\n    tag_101:\n        /* \"#utility.yul\":5762:5766   */\n      0x00\n        /* \"#utility.yul\":5800:5802   */\n      0x20\n        /* \"#utility.yul\":5789:5798   */\n      dup3\n        /* \"#utility.yul\":5785:5803   */\n      add\n        /* \"#utility.yul\":5777:5803   */\n      swap1\n      pop\n        /* \"#utility.yul\":5813:5884   */\n      tag_310\n        /* \"#utility.yul\":5881:5882   */\n      0x00\n        /* \"#utility.yul\":5870:5879   */\n      dup4\n        /* \"#utility.yul\":5866:5883   */\n      add\n        /* \"#utility.yul\":5857:5863   */\n      dup5\n        /* \"#utility.yul\":5813:5884   */\n      tag_259\n      jump\t// in\n    tag_310:\n        /* \"#utility.yul\":5669:5891   */\n      swap3\n      swap2\n      pop\n      pop\n      jump\t// out\n        /* \"#utility.yul\":5897:6107   */\n    tag_45:\n        /* \"#utility.yul\":5984:5988   */\n      0x00\n        /* \"#utility.yul\":6022:6024   */\n      0x20\n        /* \"#utility.yul\":6011:6020   */\n      dup3\n        /* \"#utility.yul\":6007:6025   */\n      add\n        /* \"#utility.yul\":5999:6025   */\n      swap1\n      pop\n        /* \"#utility.yul\":6035:6100   */\n      tag_312\n        /* \"#utility.yul\":6097:6098   */\n      0x00\n        /* \"#utility.yul\":6086:6095   */\n      dup4\n        /* \"#utility.yul\":6082:6099   */\n      add\n        /* \"#utility.yul\":6073:6079   */\n      dup5\n        /* \"#utility.yul\":6035:6100   */\n      tag_263\n      jump\t// in\n    tag_312:\n        /* \"#utility.yul\":5897:6107   */\n      swap3\n      swap2\n      pop\n      pop\n      jump\t// out\n        /* \"#utility.yul\":6113:6532   */\n    tag_118:\n        /* \"#utility.yul\":6279:6283   */\n      0x00\n        /* \"#utility.yul\":6317:6319   */\n      0x20\n        /* \"#utility.yul\":6306:6315   */\n      dup3\n        /* \"#utility.yul\":6302:6320   */\n      add\n        /* \"#utility.yul\":6294:6320   */\n      swap1\n      pop\n        /* \"#utility.yul\":6366:6375   */\n      dup2\n        /* \"#utility.yul\":6360:6364   */\n      dup2\n        /* \"#utility.yul\":6356:6376   */\n      sub\n        /* \"#utility.yul\":6352:6353   */\n      0x00\n        /* \"#utility.yul\":6341:6350   */\n      dup4\n        /* \"#utility.yul\":6337:6354   */\n      add\n        /* \"#utility.yul\":6330:6377   */\n      mstore\n        /* \"#utility.yul\":6394:6525   */\n      tag_314\n        /* \"#utility.yul\":6520:6524   */\n      dup2\n        /* \"#utility.yul\":6394:6525   */\n      tag_267\n      jump\t// in\n    tag_314:\n        /* \"#utility.yul\":6386:6525   */\n      swap1\n      pop\n        /* \"#utility.yul\":6113:6532   */\n      swap2\n      swap1\n      pop\n      jump\t// out\n        /* \"#utility.yul\":6538:6957   */\n    tag_128:\n        /* \"#utility.yul\":6704:6708   */\n      0x00\n        /* \"#utility.yul\":6742:6744   */\n      0x20\n        /* \"#utility.yul\":6731:6740   */\n      dup3\n        /* \"#utility.yul\":6727:6745   */\n      add\n        /* \"#utility.yul\":6719:6745   */\n      swap1\n      pop\n        /* \"#utility.yul\":6791:6800   */\n      dup2\n        /* \"#utility.yul\":6785:6789   */\n      dup2\n        /* \"#utility.yul\":6781:6801   */\n      sub\n        /* \"#utility.yul\":6777:6778   */\n      0x00\n        /* \"#utility.yul\":6766:6775   */\n      dup4\n        /* \"#utility.yul\":6762:6779   */\n      add\n        /* \"#utility.yul\":6755:6802   */\n      mstore\n        /* \"#utility.yul\":6819:6950   */\n      tag_316\n        /* \"#utility.yul\":6945:6949   */\n      dup2\n        /* \"#utility.yul\":6819:6950   */\n      tag_273\n      jump\t// in\n    tag_316:\n        /* \"#utility.yul\":6811:6950   */\n      swap1\n      pop\n        /* \"#utility.yul\":6538:6957   */\n      swap2\n      swap1\n      pop\n      jump\t// out\n        /* \"#utility.yul\":6963:7382   */\n    tag_162:\n        /* \"#utility.yul\":7129:7133   */\n      0x00\n        /* \"#utility.yul\":7167:7169   */\n      0x20\n        /* \"#utility.yul\":7156:7165   */\n      dup3\n        /* \"#utility.yul\":7152:7170   */\n      add\n        /* \"#utility.yul\":7144:7170   */\n      swap1\n      pop\n        /* \"#utility.yul\":7216:7225   */\n      dup2\n        /* \"#utility.yul\":7210:7214   */\n      dup2\n        /* \"#utility.yul\":7206:7226   */\n      sub\n        /* \"#utility.yul\":7202:7203   */\n      0x00\n        /* \"#utility.yul\":7191:7200   */\n      dup4\n        /* \"#utility.yul\":7187:7204   */\n      add\n        /* \"#utility.yul\":7180:7227   */\n      mstore\n        /* \"#utility.yul\":7244:7375   */\n      tag_318\n        /* \"#utility.yul\":7370:7374   */\n      dup2\n        /* \"#utility.yul\":7244:7375   */\n      tag_284\n      jump\t// in\n    tag_318:\n        /* \"#utility.yul\":7236:7375   */\n      swap1\n      pop\n        /* \"#utility.yul\":6963:7382   */\n      swap2\n      swap1\n      pop\n      jump\t// out\n        /* \"#utility.yul\":7388:7807   */\n    tag_131:\n        /* \"#utility.yul\":7554:7558   */\n      0x00\n        /* \"#utility.yul\":7592:7594   */\n      0x20\n        /* \"#utility.yul\":7581:7590   */\n      dup3\n        /* \"#utility.yul\":7577:7595   */\n      add\n        /* \"#utility.yul\":7569:7595   */\n      swap1\n      pop\n        /* \"#utility.yul\":7641:7650   */\n      dup2\n        /* \"#utility.yul\":7635:7639   */\n      dup2\n        /* \"#utility.yul\":7631:7651   */\n      sub\n        /* \"#utility.yul\":7627:7628   */\n      0x00\n        /* \"#utility.yul\":7616:7625   */\n      dup4\n        /* \"#utility.yul\":7612:7629   */\n      add\n        /* \"#utility.yul\":7605:7652   */\n      mstore\n        /* \"#utility.yul\":7669:7800   */\n      tag_320\n        /* \"#utility.yul\":7795:7799   */\n      dup2\n        /* \"#utility.yul\":7669:7800   */\n      tag_289\n      jump\t// in\n    tag_320:\n        /* \"#utility.yul\":7661:7800   */\n      swap1\n      pop\n        /* \"#utility.yul\":7388:7807   */\n      swap2\n      swap1\n      pop\n      jump\t// out\n        /* \"#utility.yul\":7813:8232   */\n    tag_124:\n        /* \"#utility.yul\":7979:7983   */\n      0x00\n        /* \"#utility.yul\":8017:8019   */\n      0x20\n        /* \"#utility.yul\":8006:8015   */\n      dup3\n        /* \"#utility.yul\":8002:8020   */\n      add\n        /* \"#utility.yul\":7994:8020   */\n      swap1\n      pop\n        /* \"#utility.yul\":8066:8075   */\n      dup2\n        /* \"#utility.yul\":8060:8064   */\n      dup2\n        /* \"#utility.yul\":8056:8076   */\n      sub\n        /* \"#utility.yul\":8052:8053   */\n      0x00\n        /* \"#utility.yul\":8041:8050   */\n      dup4\n        /* \"#utility.yul\":8037:8054   */\n      add\n        /* \"#utility.yul\":8030:8077   */\n      mstore\n        /* \"#utility.yul\":8094:8225   */\n      tag_322\n        /* \"#utility.yul\":8220:8224   */\n      dup2\n        /* \"#utility.yul\":8094:8225   */\n      tag_294\n      jump\t// in\n    tag_322:\n        /* \"#utility.yul\":8086:8225   */\n      swap1\n      pop\n        /* \"#utility.yul\":7813:8232   */\n      swap2\n      swap1\n      pop\n      jump\t// out\n        /* \"#utility.yul\":8238:8460   */\n    tag_55:\n        /* \"#utility.yul\":8331:8335   */\n      0x00\n        /* \"#utility.yul\":8369:8371   */\n      0x20\n        /* \"#utility.yul\":8358:8367   */\n      dup3\n        /* \"#utility.yul\":8354:8372   */\n      add\n        /* \"#utility.yul\":8346:8372   */\n      swap1\n      pop\n        /* \"#utility.yul\":8382:8453   */\n      tag_324\n        /* \"#utility.yul\":8450:8451   */\n      0x00\n        /* \"#utility.yul\":8439:8448   */\n      dup4\n        /* \"#utility.yul\":8435:8452   */\n      add\n        /* \"#utility.yul\":8426:8432   */\n      dup5\n        /* \"#utility.yul\":8382:8453   */\n      tag_299\n      jump\t// in\n    tag_324:\n        /* \"#utility.yul\":8238:8460   */\n      swap3\n      swap2\n      pop\n      pop\n      jump\t// out\n        /* \"#utility.yul\":8466:8940   */\n    tag_38:\n        /* \"#utility.yul\":8631:8635   */\n      0x00\n        /* \"#utility.yul\":8669:8671   */\n      0x60\n        /* \"#utility.yul\":8658:8667   */\n      dup3\n        /* \"#utility.yul\":8654:8672   */\n      add\n        /* \"#utility.yul\":8646:8672   */\n      swap1\n      pop\n        /* \"#utility.yul\":8682:8753   */\n      tag_326\n        /* \"#utility.yul\":8750:8751   */\n      0x00\n        /* \"#utility.yul\":8739:8748   */\n      dup4\n        /* \"#utility.yul\":8735:8752   */\n      add\n        /* \"#utility.yul\":8726:8732   */\n      dup7\n        /* \"#utility.yul\":8682:8753   */\n      tag_299\n      jump\t// in\n    tag_326:\n        /* \"#utility.yul\":8763:8851   */\n      tag_327\n        /* \"#utility.yul\":8847:8849   */\n      0x20\n        /* \"#utility.yul\":8836:8845   */\n      dup4\n        /* \"#utility.yul\":8832:8850   */\n      add\n        /* \"#utility.yul\":8823:8829   */\n      dup6\n        /* \"#utility.yul\":8763:8851   */\n      tag_255\n      jump\t// in\n    tag_327:\n        /* \"#utility.yul\":8861:8933   */\n      tag_328\n        /* \"#utility.yul\":8929:8931   */\n      0x40\n        /* \"#utility.yul\":8918:8927   */\n      dup4\n        /* \"#utility.yul\":8914:8932   */\n      add\n        /* \"#utility.yul\":8905:8911   */\n      dup5\n        /* \"#utility.yul\":8861:8933   */\n      tag_299\n      jump\t// in\n    tag_328:\n        /* \"#utility.yul\":8466:8940   */\n      swap5\n      swap4\n      pop\n      pop\n      pop\n      pop\n      jump\t// out\n        /* \"#utility.yul\":8946:9278   */\n    tag_137:\n        /* \"#utility.yul\":9067:9071   */\n      0x00\n        /* \"#utility.yul\":9105:9107   */\n      0x40\n        /* \"#utility.yul\":9094:9103   */\n      dup3\n        /* \"#utility.yul\":9090:9108   */\n      add\n        /* \"#utility.yul\":9082:9108   */\n      swap1\n      pop\n        /* \"#utility.yul\":9118:9189   */\n      tag_330\n        /* \"#utility.yul\":9186:9187   */\n      0x00\n        /* \"#utility.yul\":9175:9184   */\n      dup4\n        /* \"#utility.yul\":9171:9188   */\n      add\n        /* \"#utility.yul\":9162:9168   */\n      dup6\n        /* \"#utility.yul\":9118:9189   */\n      tag_299\n      jump\t// in\n    tag_330:\n        /* \"#utility.yul\":9199:9271   */\n      tag_331\n        /* \"#utility.yul\":9267:9269   */\n      0x20\n        /* \"#utility.yul\":9256:9265   */\n      dup4\n        /* \"#utility.yul\":9252:9270   */\n      add\n        /* \"#utility.yul\":9243:9249   */\n      dup5\n        /* \"#utility.yul\":9199:9271   */\n      tag_299\n      jump\t// in\n    tag_331:\n        /* \"#utility.yul\":8946:9278   */\n      swap4\n      swap3\n      pop\n      pop\n      pop\n      jump\t// out\n        /* \"#utility.yul\":9284:9498   */\n    tag_91:\n        /* \"#utility.yul\":9373:9377   */\n      0x00\n        /* \"#utility.yul\":9411:9413   */\n      0x20\n        /* \"#utility.yul\":9400:9409   */\n      dup3\n        /* \"#utility.yul\":9396:9414   */\n      add\n        /* \"#utility.yul\":9388:9414   */\n      swap1\n      pop\n        /* \"#utility.yul\":9424:9491   */\n      tag_333\n        /* \"#utility.yul\":9488:9489   */\n      0x00\n        /* \"#utility.yul\":9477:9486   */\n      dup4\n        /* \"#utility.yul\":9473:9490   */\n      add\n        /* \"#utility.yul\":9464:9470   */\n      dup5\n        /* \"#utility.yul\":9424:9491   */\n      tag_303\n      jump\t// in\n    tag_333:\n        /* \"#utility.yul\":9284:9498   */\n      swap3\n      swap2\n      pop\n      pop\n      jump\t// out\n        /* \"#utility.yul\":9504:9926   */\n    tag_182:\n        /* \"#utility.yul\":9643:9647   */\n      0x00\n        /* \"#utility.yul\":9681:9683   */\n      0x60\n        /* \"#utility.yul\":9670:9679   */\n      dup3\n        /* \"#utility.yul\":9666:9684   */\n      add\n        /* \"#utility.yul\":9658:9684   */\n      swap1\n      pop\n        /* \"#utility.yul\":9694:9761   */\n      tag_335\n        /* \"#utility.yul\":9758:9759   */\n      0x00\n        /* \"#utility.yul\":9747:9756   */\n      dup4\n        /* \"#utility.yul\":9743:9760   */\n      add\n        /* \"#utility.yul\":9734:9740   */\n      dup7\n        /* \"#utility.yul\":9694:9761   */\n      tag_303\n      jump\t// in\n    tag_335:\n        /* \"#utility.yul\":9771:9843   */\n      tag_336\n        /* \"#utility.yul\":9839:9841   */\n      0x20\n        /* \"#utility.yul\":9828:9837   */\n      dup4\n        /* \"#utility.yul\":9824:9842   */\n      add\n        /* \"#utility.yul\":9815:9821   */\n      dup6\n        /* \"#utility.yul\":9771:9843   */\n      tag_259\n      jump\t// in\n    tag_336:\n        /* \"#utility.yul\":9853:9919   */\n      tag_337\n        /* \"#utility.yul\":9915:9917   */\n      0x40\n        /* \"#utility.yul\":9904:9913   */\n      dup4\n        /* \"#utility.yul\":9900:9918   */\n      add\n        /* \"#utility.yul\":9891:9897   */\n      dup5\n        /* \"#utility.yul\":9853:9919   */\n      tag_263\n      jump\t// in\n    tag_337:\n        /* \"#utility.yul\":9504:9926   */\n      swap5\n      swap4\n      pop\n      pop\n      pop\n      pop\n      jump\t// out\n        /* \"#utility.yul\":9932:10256   */\n    tag_76:\n        /* \"#utility.yul\":10049:10053   */\n      0x00\n        /* \"#utility.yul\":10087:10089   */\n      0x40\n        /* \"#utility.yul\":10076:10085   */\n      dup3\n        /* \"#utility.yul\":10072:10090   */\n      add\n        /* \"#utility.yul\":10064:10090   */\n      swap1\n      pop\n        /* \"#utility.yul\":10100:10167   */\n      tag_339\n        /* \"#utility.yul\":10164:10165   */\n      0x00\n        /* \"#utility.yul\":10153:10162   */\n      dup4\n        /* \"#utility.yul\":10149:10166   */\n      add\n        /* \"#utility.yul\":10140:10146   */\n      dup6\n        /* \"#utility.yul\":10100:10167   */\n      tag_303\n      jump\t// in\n    tag_339:\n        /* \"#utility.yul\":10177:10249   */\n      tag_340\n        /* \"#utility.yul\":10245:10247   */\n      0x20\n        /* \"#utility.yul\":10234:10243   */\n      dup4\n        /* \"#utility.yul\":10230:10248   */\n      add\n        /* \"#utility.yul\":10221:10227   */\n      dup5\n        /* \"#utility.yul\":10177:10249   */\n      tag_299\n      jump\t// in\n    tag_340:\n        /* \"#utility.yul\":9932:10256   */\n      swap4\n      swap3\n      pop\n      pop\n      pop\n      jump\t// out\n        /* \"#utility.yul\":10262:10807   */\n    tag_193:\n        /* \"#utility.yul\":10435:10439   */\n      0x00\n        /* \"#utility.yul\":10473:10476   */\n      0x80\n        /* \"#utility.yul\":10462:10471   */\n      dup3\n        /* \"#utility.yul\":10458:10477   */\n      add\n        /* \"#utility.yul\":10450:10477   */\n      swap1\n      pop\n        /* \"#utility.yul\":10487:10554   */\n      tag_342\n        /* \"#utility.yul\":10551:10552   */\n      0x00\n        /* \"#utility.yul\":10540:10549   */\n      dup4\n        /* \"#utility.yul\":10536:10553   */\n      add\n        /* \"#utility.yul\":10527:10533   */\n      dup8\n        /* \"#utility.yul\":10487:10554   */\n      tag_303\n      jump\t// in\n    tag_342:\n        /* \"#utility.yul\":10564:10636   */\n      tag_343\n        /* \"#utility.yul\":10632:10634   */\n      0x20\n        /* \"#utility.yul\":10621:10630   */\n      dup4\n        /* \"#utility.yul\":10617:10635   */\n      add\n        /* \"#utility.yul\":10608:10614   */\n      dup7\n        /* \"#utility.yul\":10564:10636   */\n      tag_299\n      jump\t// in\n    tag_343:\n        /* \"#utility.yul\":10646:10718   */\n      tag_344\n        /* \"#utility.yul\":10714:10716   */\n      0x40\n        /* \"#utility.yul\":10703:10712   */\n      dup4\n        /* \"#utility.yul\":10699:10717   */\n      add\n        /* \"#utility.yul\":10690:10696   */\n      dup6\n        /* \"#utility.yul\":10646:10718   */\n      tag_299\n      jump\t// in\n    tag_344:\n        /* \"#utility.yul\":10728:10800   */\n      tag_345\n        /* \"#utility.yul\":10796:10798   */\n      0x60\n        /* \"#utility.yul\":10785:10794   */\n      dup4\n        /* \"#utility.yul\":10781:10799   */\n      add\n        /* \"#utility.yul\":10772:10778   */\n      dup5\n        /* \"#utility.yul\":10728:10800   */\n      tag_299\n      jump\t// in\n    tag_345:\n        /* \"#utility.yul\":10262:10807   */\n      swap6\n      swap5\n      pop\n      pop\n      pop\n      pop\n      pop\n      jump\t// out\n        /* \"#utility.yul\":10894:11041   */\n    tag_281:\n        /* \"#utility.yul\":10995:11006   */\n      0x00\n        /* \"#utility.yul\":11032:11035   */\n      dup2\n        /* \"#utility.yul\":11017:11035   */\n      swap1\n      pop\n        /* \"#utility.yul\":10894:11041   */\n      swap3\n      swap2\n      pop\n      pop\n      jump\t// out\n        /* \"#utility.yul\":11047:11216   */\n    tag_270:\n        /* \"#utility.yul\":11131:11142   */\n      0x00\n        /* \"#utility.yul\":11165:11171   */\n      dup3\n        /* \"#utility.yul\":11160:11163   */\n      dup3\n        /* \"#utility.yul\":11153:11172   */\n      mstore\n        /* \"#utility.yul\":11205:11209   */\n      0x20\n        /* \"#utility.yul\":11200:11203   */\n      dup3\n        /* \"#utility.yul\":11196:11210   */\n      add\n        /* \"#utility.yul\":11181:11210   */\n      swap1\n      pop\n        /* \"#utility.yul\":11047:11216   */\n      swap3\n      swap2\n      pop\n      pop\n      jump\t// out\n        /* \"#utility.yul\":11222:11527   */\n    tag_133:\n        /* \"#utility.yul\":11262:11265   */\n      0x00\n        /* \"#utility.yul\":11281:11301   */\n      tag_351\n        /* \"#utility.yul\":11299:11300   */\n      dup3\n        /* \"#utility.yul\":11281:11301   */\n      tag_302\n      jump\t// in\n    tag_351:\n        /* \"#utility.yul\":11276:11301   */\n      swap2\n      pop\n        /* \"#utility.yul\":11315:11335   */\n      tag_352\n        /* \"#utility.yul\":11333:11334   */\n      dup4\n        /* \"#utility.yul\":11315:11335   */\n      tag_302\n      jump\t// in\n    tag_352:\n        /* \"#utility.yul\":11310:11335   */\n      swap3\n      pop\n        /* \"#utility.yul\":11469:11470   */\n      dup3\n        /* \"#utility.yul\":11401:11467   */\n      0xffffffffffffffffffffffffffffffffffffffffffffffffffffffffffffffff\n        /* \"#utility.yul\":11397:11471   */\n      sub\n        /* \"#utility.yul\":11394:11395   */\n      dup3\n        /* \"#utility.yul\":11391:11472   */\n      gt\n        /* \"#utility.yul\":11388:11495   */\n      iszero\n      tag_353\n      jumpi\n        /* \"#utility.yul\":11475:11493   */\n      tag_354\n      tag_355\n      jump\t// in\n    tag_354:\n        /* \"#utility.yul\":11388:11495   */\n    tag_353:\n        /* \"#utility.yul\":11519:11520   */\n      dup3\n        /* \"#utility.yul\":11516:11517   */\n      dup3\n        /* \"#utility.yul\":11512:11521   */\n      add\n        /* \"#utility.yul\":11505:11521   */\n      swap1\n      pop\n        /* \"#utility.yul\":11222:11527   */\n      swap3\n      swap2\n      pop\n      pop\n      jump\t// out\n        /* \"#utility.yul\":11533:11770   */\n    tag_112:\n        /* \"#utility.yul\":11571:11574   */\n      0x00\n        /* \"#utility.yul\":11590:11608   */\n      tag_357\n        /* \"#utility.yul\":11606:11607   */\n      dup3\n        /* \"#utility.yul\":11590:11608   */\n      tag_306\n      jump\t// in\n    tag_357:\n        /* \"#utility.yul\":11585:11608   */\n      swap2\n      pop\n        /* \"#utility.yul\":11622:11640   */\n      tag_358\n        /* \"#utility.yul\":11638:11639   */\n      dup4\n        /* \"#utility.yul\":11622:11640   */\n      tag_306\n      jump\t// in\n    tag_358:\n        /* \"#utility.yul\":11617:11640   */\n      swap3\n      pop\n        /* \"#utility.yul\":11712:11713   */\n      dup3\n        /* \"#utility.yul\":11706:11710   */\n      0xff\n        /* \"#utility.yul\":11702:11714   */\n      sub\n        /* \"#utility.yul\":11699:11700   */\n      dup3\n        /* \"#utility.yul\":11696:11715   */\n      gt\n        /* \"#utility.yul\":11693:11738   */\n      iszero\n      tag_359\n      jumpi\n        /* \"#utility.yul\":11718:11736   */\n      tag_360\n      tag_355\n      jump\t// in\n    tag_360:\n        /* \"#utility.yul\":11693:11738   */\n    tag_359:\n        /* \"#utility.yul\":11762:11763   */\n      dup3\n        /* \"#utility.yul\":11759:11760   */\n      dup3\n        /* \"#utility.yul\":11755:11764   */\n      add\n        /* \"#utility.yul\":11748:11764   */\n      swap1\n      pop\n        /* \"#utility.yul\":11533:11770   */\n      swap3\n      swap2\n      pop\n      pop\n      jump\t// out\n        /* \"#utility.yul\":11776:11961   */\n    tag_147:\n        /* \"#utility.yul\":11816:11817   */\n      0x00\n        /* \"#utility.yul\":11833:11853   */\n      tag_362\n        /* \"#utility.yul\":11851:11852   */\n      dup3\n        /* \"#utility.yul\":11833:11853   */\n      tag_302\n      jump\t// in\n    tag_362:\n        /* \"#utility.yul\":11828:11853   */\n      swap2\n      pop\n        /* \"#utility.yul\":11867:11887   */\n      tag_363\n        /* \"#utility.yul\":11885:11886   */\n      dup4\n        /* \"#utility.yul\":11867:11887   */\n      tag_302\n      jump\t// in\n    tag_363:\n        /* \"#utility.yul\":11862:11887   */\n      swap3\n      pop\n        /* \"#utility.yul\":11906:11907   */\n      dup3\n        /* \"#utility.yul\":11896:11931   */\n      tag_364\n      jumpi\n        /* \"#utility.yul\":11911:11929   */\n      tag_365\n      tag_366\n      jump\t// in\n    tag_365:\n        /* \"#utility.yul\":11896:11931   */\n    tag_364:\n        /* \"#utility.yul\":11953:11954   */\n      dup3\n        /* \"#utility.yul\":11950:11951   */\n      dup3\n        /* \"#utility.yul\":11946:11955   */\n      div\n        /* \"#utility.yul\":11941:11955   */\n      swap1\n      pop\n        /* \"#utility.yul\":11776:11961   */\n      swap3\n      swap2\n      pop\n      pop\n      jump\t// out\n        /* \"#utility.yul\":11967:12315   */\n    tag_173:\n        /* \"#utility.yul\":12007:12014   */\n      0x00\n        /* \"#utility.yul\":12030:12050   */\n      tag_368\n        /* \"#utility.yul\":12048:12049   */\n      dup3\n        /* \"#utility.yul\":12030:12050   */\n      tag_302\n      jump\t// in\n    tag_368:\n        /* \"#utility.yul\":12025:12050   */\n      swap2\n      pop\n        /* \"#utility.yul\":12064:12084   */\n      tag_369\n        /* \"#utility.yul\":12082:12083   */\n      dup4\n        /* \"#utility.yul\":12064:12084   */\n      tag_302\n      jump\t// in\n    tag_369:\n        /* \"#utility.yul\":12059:12084   */\n      swap3\n      pop\n        /* \"#utility.yul\":12252:12253   */\n      dup2\n        /* \"#utility.yul\":12184:12250   */\n      0xffffffffffffffffffffffffffffffffffffffffffffffffffffffffffffffff\n        /* \"#utility.yul\":12180:12254   */\n      div\n        /* \"#utility.yul\":12177:12178   */\n      dup4\n        /* \"#utility.yul\":12174:12255   */\n      gt\n        /* \"#utility.yul\":12169:12170   */\n      dup3\n        /* \"#utility.yul\":12162:12171   */\n      iszero\n        /* \"#utility.yul\":12155:12172   */\n      iszero\n        /* \"#utility.yul\":12151:12256   */\n      and\n        /* \"#utility.yul\":12148:12279   */\n      iszero\n      tag_370\n      jumpi\n        /* \"#utility.yul\":12259:12277   */\n      tag_371\n      tag_355\n      jump\t// in\n    tag_371:\n        /* \"#utility.yul\":12148:12279   */\n    tag_370:\n        /* \"#utility.yul\":12307:12308   */\n      dup3\n        /* \"#utility.yul\":12304:12305   */\n      dup3\n        /* \"#utility.yul\":12300:12309   */\n      mul\n        /* \"#utility.yul\":12289:12309   */\n      swap1\n      pop\n        /* \"#utility.yul\":11967:12315   */\n      swap3\n      swap2\n      pop\n      pop\n      jump\t// out\n        /* \"#utility.yul\":12321:12512   */\n    tag_135:\n        /* \"#utility.yul\":12361:12365   */\n      0x00\n        /* \"#utility.yul\":12381:12401   */\n      tag_373\n        /* \"#utility.yul\":12399:12400   */\n      dup3\n        /* \"#utility.yul\":12381:12401   */\n      tag_302\n      jump\t// in\n    tag_373:\n        /* \"#utility.yul\":12376:12401   */\n      swap2\n      pop\n        /* \"#utility.yul\":12415:12435   */\n      tag_374\n        /* \"#utility.yul\":12433:12434   */\n      dup4\n        /* \"#utility.yul\":12415:12435   */\n      tag_302\n      jump\t// in\n    tag_374:\n        /* \"#utility.yul\":12410:12435   */\n      swap3\n      pop\n        /* \"#utility.yul\":12454:12455   */\n      dup3\n        /* \"#utility.yul\":12451:12452   */\n      dup3\n        /* \"#utility.yul\":12448:12456   */\n      lt\n        /* \"#utility.yul\":12445:12479   */\n      iszero\n      tag_375\n      jumpi\n        /* \"#utility.yul\":12459:12477   */\n      tag_376\n      tag_355\n      jump\t// in\n    tag_376:\n        /* \"#utility.yul\":12445:12479   */\n    tag_375:\n        /* \"#utility.yul\":12504:12505   */\n      dup3\n        /* \"#utility.yul\":12501:12502   */\n      dup3\n        /* \"#utility.yul\":12497:12506   */\n      sub\n        /* \"#utility.yul\":12489:12506   */\n      swap1\n      pop\n        /* \"#utility.yul\":12321:12512   */\n      swap3\n      swap2\n      pop\n      pop\n      jump\t// out\n        /* \"#utility.yul\":12518:12703   */\n    tag_157:\n        /* \"#utility.yul\":12556:12560   */\n      0x00\n        /* \"#utility.yul\":12576:12594   */\n      tag_378\n        /* \"#utility.yul\":12592:12593   */\n      dup3\n        /* \"#utility.yul\":12576:12594   */\n      tag_306\n      jump\t// in\n    tag_378:\n        /* \"#utility.yul\":12571:12594   */\n      swap2\n      pop\n        /* \"#utility.yul\":12608:12626   */\n      tag_379\n        /* \"#utility.yul\":12624:12625   */\n      dup4\n        /* \"#utility.yul\":12608:12626   */\n      tag_306\n      jump\t// in\n    tag_379:\n        /* \"#utility.yul\":12603:12626   */\n      swap3\n      pop\n        /* \"#utility.yul\":12645:12646   */\n      dup3\n        /* \"#utility.yul\":12642:12643   */\n      dup3\n        /* \"#utility.yul\":12639:12647   */\n      lt\n        /* \"#utility.yul\":12636:12670   */\n      iszero\n      tag_380\n      jumpi\n        /* \"#utility.yul\":12650:12668   */\n      tag_381\n      tag_355\n      jump\t// in\n    tag_381:\n        /* \"#utility.yul\":12636:12670   */\n    tag_380:\n        /* \"#utility.yul\":12695:12696   */\n      dup3\n        /* \"#utility.yul\":12692:12693   */\n      dup3\n        /* \"#utility.yul\":12688:12697   */\n      sub\n        /* \"#utility.yul\":12680:12697   */\n      swap1\n      pop\n        /* \"#utility.yul\":12518:12703   */\n      swap3\n      swap2\n      pop\n      pop\n      jump\t// out\n        /* \"#utility.yul\":12709:12805   */\n    tag_262:\n        /* \"#utility.yul\":12746:12753   */\n      0x00\n        /* \"#utility.yul\":12775:12799   */\n      tag_383\n        /* \"#utility.yul\":12793:12798   */\n      dup3\n        /* \"#utility.yul\":12775:12799   */\n      tag_384\n      jump\t// in\n    tag_383:\n        /* \"#utility.yul\":12764:12799   */\n      swap1\n      pop\n        /* \"#utility.yul\":12709:12805   */\n      swap2\n      swap1\n      pop\n      jump\t// out\n        /* \"#utility.yul\":12811:12915   */\n    tag_258:\n        /* \"#utility.yul\":12856:12863   */\n      0x00\n        /* \"#utility.yul\":12885:12909   */\n      tag_386\n        /* \"#utility.yul\":12903:12908   */\n      dup3\n        /* \"#utility.yul\":12885:12909   */\n      tag_384\n      jump\t// in\n    tag_386:\n        /* \"#utility.yul\":12874:12909   */\n      swap1\n      pop\n        /* \"#utility.yul\":12811:12915   */\n      swap2\n      swap1\n      pop\n      jump\t// out\n        /* \"#utility.yul\":12921:13011   */\n    tag_266:\n        /* \"#utility.yul\":12955:12962   */\n      0x00\n        /* \"#utility.yul\":12998:13003   */\n      dup2\n        /* \"#utility.yul\":12991:13004   */\n      iszero\n        /* \"#utility.yul\":12984:13005   */\n      iszero\n        /* \"#utility.yul\":12973:13005   */\n      swap1\n      pop\n        /* \"#utility.yul\":12921:13011   */\n      swap2\n      swap1\n      pop\n      jump\t// out\n        /* \"#utility.yul\":13017:13143   */\n    tag_384:\n        /* \"#utility.yul\":13054:13061   */\n      0x00\n        /* \"#utility.yul\":13094:13136   */\n      0xffffffffffffffffffffffffffffffffffffffff\n        /* \"#utility.yul\":13087:13092   */\n      dup3\n        /* \"#utility.yul\":13083:13137   */\n      and\n        /* \"#utility.yul\":13072:13137   */\n      swap1\n      pop\n        /* \"#utility.yul\":13017:13143   */\n      swap2\n      swap1\n      pop\n      jump\t// out\n        /* \"#utility.yul\":13149:13226   */\n    tag_302:\n        /* \"#utility.yul\":13186:13193   */\n      0x00\n        /* \"#utility.yul\":13215:13220   */\n      dup2\n        /* \"#utility.yul\":13204:13220   */\n      swap1\n      pop\n        /* \"#utility.yul\":13149:13226   */\n      swap2\n      swap1\n      pop\n      jump\t// out\n        /* \"#utility.yul\":13232:13318   */\n    tag_306:\n        /* \"#utility.yul\":13267:13274   */\n      0x00\n        /* \"#utility.yul\":13307:13311   */\n      0xff\n        /* \"#utility.yul\":13300:13305   */\n      dup3\n        /* \"#utility.yul\":13296:13312   */\n      and\n        /* \"#utility.yul\":13285:13312   */\n      swap1\n      pop\n        /* \"#utility.yul\":13232:13318   */\n      swap2\n      swap1\n      pop\n      jump\t// out\n        /* \"#utility.yul\":13324:13491   */\n    tag_115:\n        /* \"#utility.yul\":13361:13364   */\n      0x00\n        /* \"#utility.yul\":13384:13406   */\n      tag_392\n        /* \"#utility.yul\":13400:13405   */\n      dup3\n        /* \"#utility.yul\":13384:13406   */\n      tag_306\n      jump\t// in\n    tag_392:\n        /* \"#utility.yul\":13375:13406   */\n      swap2\n      pop\n        /* \"#utility.yul\":13428:13432   */\n      0xff\n        /* \"#utility.yul\":13421:13426   */\n      dup3\n        /* \"#utility.yul\":13418:13433   */\n      eq\n        /* \"#utility.yul\":13415:13456   */\n      iszero\n      tag_393\n      jumpi\n        /* \"#utility.yul\":13436:13454   */\n      tag_394\n      tag_355\n      jump\t// in\n    tag_394:\n        /* \"#utility.yul\":13415:13456   */\n    tag_393:\n        /* \"#utility.yul\":13483:13484   */\n      0x01\n        /* \"#utility.yul\":13476:13481   */\n      dup3\n        /* \"#utility.yul\":13472:13485   */\n      add\n        /* \"#utility.yul\":13465:13485   */\n      swap1\n      pop\n        /* \"#utility.yul\":13324:13491   */\n      swap2\n      swap1\n      pop\n      jump\t// out\n        /* \"#utility.yul\":13497:13673   */\n    tag_144:\n        /* \"#utility.yul\":13529:13530   */\n      0x00\n        /* \"#utility.yul\":13546:13566   */\n      tag_396\n        /* \"#utility.yul\":13564:13565   */\n      dup3\n        /* \"#utility.yul\":13546:13566   */\n      tag_302\n      jump\t// in\n    tag_396:\n        /* \"#utility.yul\":13541:13566   */\n      swap2\n      pop\n        /* \"#utility.yul\":13580:13600   */\n      tag_397\n        /* \"#utility.yul\":13598:13599   */\n      dup4\n        /* \"#utility.yul\":13580:13600   */\n      tag_302\n      jump\t// in\n    tag_397:\n        /* \"#utility.yul\":13575:13600   */\n      swap3\n      pop\n        /* \"#utility.yul\":13619:13620   */\n      dup3\n        /* \"#utility.yul\":13609:13644   */\n      tag_398\n      jumpi\n        /* \"#utility.yul\":13624:13642   */\n      tag_399\n      tag_366\n      jump\t// in\n    tag_399:\n        /* \"#utility.yul\":13609:13644   */\n    tag_398:\n        /* \"#utility.yul\":13665:13666   */\n      dup3\n        /* \"#utility.yul\":13662:13663   */\n      dup3\n        /* \"#utility.yul\":13658:13667   */\n      mod\n        /* \"#utility.yul\":13653:13667   */\n      swap1\n      pop\n        /* \"#utility.yul\":13497:13673   */\n      swap3\n      swap2\n      pop\n      pop\n      jump\t// out\n        /* \"#utility.yul\":13679:13859   */\n    tag_355:\n        /* \"#utility.yul\":13727:13804   */\n      0x4e487b7100000000000000000000000000000000000000000000000000000000\n        /* \"#utility.yul\":13724:13725   */\n      0x00\n        /* \"#utility.yul\":13717:13805   */\n      mstore\n        /* \"#utility.yul\":13824:13828   */\n      0x11\n        /* \"#utility.yul\":13821:13822   */\n      0x04\n        /* \"#utility.yul\":13814:13829   */\n      mstore\n        /* \"#utility.yul\":13848:13852   */\n      0x24\n        /* \"#utility.yul\":13845:13846   */\n      0x00\n        /* \"#utility.yul\":13838:13853   */\n      revert\n        /* \"#utility.yul\":13865:14045   */\n    tag_366:\n        /* \"#utility.yul\":13913:13990   */\n      0x4e487b7100000000000000000000000000000000000000000000000000000000\n        /* \"#utility.yul\":13910:13911   */\n      0x00\n        /* \"#utility.yul\":13903:13991   */\n      mstore\n        /* \"#utility.yul\":14010:14014   */\n      0x12\n        /* \"#utility.yul\":14007:14008   */\n      0x04\n        /* \"#utility.yul\":14000:14015   */\n      mstore\n        /* \"#utility.yul\":14034:14038   */\n      0x24\n        /* \"#utility.yul\":14031:14032   */\n      0x00\n        /* \"#utility.yul\":14024:14039   */\n      revert\n        /* \"#utility.yul\":14174:14291   */\n    tag_235:\n        /* \"#utility.yul\":14283:14284   */\n      0x00\n        /* \"#utility.yul\":14280:14281   */\n      dup1\n        /* \"#utility.yul\":14273:14285   */\n      revert\n        /* \"#utility.yul\":14297:14461   */\n    tag_272:\n        /* \"#utility.yul\":14437:14453   */\n      0x47616d65206e6f7420666f756e64000000000000000000000000000000000000\n        /* \"#utility.yul\":14433:14434   */\n      0x00\n        /* \"#utility.yul\":14425:14431   */\n      dup3\n        /* \"#utility.yul\":14421:14435   */\n      add\n        /* \"#utility.yul\":14414:14454   */\n      mstore\n        /* \"#utility.yul\":14297:14461   */\n      pop\n      jump\t// out\n        /* \"#utility.yul\":14467:14643   */\n    tag_277:\n        /* \"#utility.yul\":14607:14635   */\n      0x596f752061726520616c72656164792072656769737465726564000000000000\n        /* \"#utility.yul\":14603:14604   */\n      0x00\n        /* \"#utility.yul\":14595:14601   */\n      dup3\n        /* \"#utility.yul\":14591:14605   */\n      add\n        /* \"#utility.yul\":14584:14636   */\n      mstore\n        /* \"#utility.yul\":14467:14643   */\n      pop\n      jump\t// out\n        /* \"#utility.yul\":14649:14763   */\n    tag_283:\n      pop\n      jump\t// out\n        /* \"#utility.yul\":14769:14991   */\n    tag_288:\n        /* \"#utility.yul\":14909:14943   */\n      0x496e73756666696369656e7420616d6f756e74206f6620636f6e747269627574\n        /* \"#utility.yul\":14905:14906   */\n      0x00\n        /* \"#utility.yul\":14897:14903   */\n      dup3\n        /* \"#utility.yul\":14893:14907   */\n      add\n        /* \"#utility.yul\":14886:14944   */\n      mstore\n        /* \"#utility.yul\":14978:14983   */\n      0x696f6e0000000000000000000000000000000000000000000000000000000000\n        /* \"#utility.yul\":14973:14975   */\n      0x20\n        /* \"#utility.yul\":14965:14971   */\n      dup3\n        /* \"#utility.yul\":14961:14976   */\n      add\n        /* \"#utility.yul\":14954:14984   */\n      mstore\n        /* \"#utility.yul\":14769:14991   */\n      pop\n      jump\t// out\n        /* \"#utility.yul\":14997:15224   */\n    tag_293:\n        /* \"#utility.yul\":15137:15171   */\n      0x466f72207265676974657220696e2067616d6520796f75206e65656420706179\n        /* \"#utility.yul\":15133:15134   */\n      0x00\n        /* \"#utility.yul\":15125:15131   */\n      dup3\n        /* \"#utility.yul\":15121:15135   */\n      add\n        /* \"#utility.yul\":15114:15172   */\n      mstore\n        /* \"#utility.yul\":15206:15216   */\n      0x2031206574686572000000000000000000000000000000000000000000000000\n        /* \"#utility.yul\":15201:15203   */\n      0x20\n        /* \"#utility.yul\":15193:15199   */\n      dup3\n        /* \"#utility.yul\":15189:15204   */\n      add\n        /* \"#utility.yul\":15182:15217   */\n      mstore\n        /* \"#utility.yul\":14997:15224   */\n      pop\n      jump\t// out\n        /* \"#utility.yul\":15230:15392   */\n    tag_298:\n        /* \"#utility.yul\":15370:15384   */\n      0x4e6f20636f6e7472616374730000000000000000000000000000000000000000\n        /* \"#utility.yul\":15366:15367   */\n      0x00\n        /* \"#utility.yul\":15358:15364   */\n      dup3\n        /* \"#utility.yul\":15354:15368   */\n      add\n        /* \"#utility.yul\":15347:15385   */\n      mstore\n        /* \"#utility.yul\":15230:15392   */\n      pop\n      jump\t// out\n        /* \"#utility.yul\":15398:15520   */\n    tag_223:\n        /* \"#utility.yul\":15471:15495   */\n      tag_412\n        /* \"#utility.yul\":15489:15494   */\n      dup2\n        /* \"#utility.yul\":15471:15495   */\n      tag_262\n      jump\t// in\n    tag_412:\n        /* \"#utility.yul\":15464:15469   */\n      dup2\n        /* \"#utility.yul\":15461:15496   */\n      eq\n        /* \"#utility.yul\":15451:15514   */\n      tag_413\n      jumpi\n        /* \"#utility.yul\":15510:15511   */\n      0x00\n        /* \"#utility.yul\":15507:15508   */\n      dup1\n        /* \"#utility.yul\":15500:15512   */\n      revert\n        /* \"#utility.yul\":15451:15514   */\n    tag_413:\n        /* \"#utility.yul\":15398:15520   */\n      pop\n      jump\t// out\n        /* \"#utility.yul\":15526:15648   */\n    tag_227:\n        /* \"#utility.yul\":15599:15623   */\n      tag_415\n        /* \"#utility.yul\":15617:15622   */\n      dup2\n        /* \"#utility.yul\":15599:15623   */\n      tag_302\n      jump\t// in\n    tag_415:\n        /* \"#utility.yul\":15592:15597   */\n      dup2\n        /* \"#utility.yul\":15589:15624   */\n      eq\n        /* \"#utility.yul\":15579:15642   */\n      tag_416\n      jumpi\n        /* \"#utility.yul\":15638:15639   */\n      0x00\n        /* \"#utility.yul\":15635:15636   */\n      dup1\n        /* \"#utility.yul\":15628:15640   */\n      revert\n        /* \"#utility.yul\":15579:15642   */\n    tag_416:\n        /* \"#utility.yul\":15526:15648   */\n      pop\n      jump\t// out\n        /* \"#utility.yul\":15654:15772   */\n    tag_231:\n        /* \"#utility.yul\":15725:15747   */\n      tag_418\n        /* \"#utility.yul\":15741:15746   */\n      dup2\n        /* \"#utility.yul\":15725:15747   */\n      tag_306\n      jump\t// in\n    tag_418:\n        /* \"#utility.yul\":15718:15723   */\n      dup2\n        /* \"#utility.yul\":15715:15748   */\n      eq\n        /* \"#utility.yul\":15705:15766   */\n      tag_419\n      jumpi\n        /* \"#utility.yul\":15762:15763   */\n      0x00\n        /* \"#utility.yul\":15759:15760   */\n      dup1\n        /* \"#utility.yul\":15752:15764   */\n      revert\n        /* \"#utility.yul\":15705:15766   */\n    tag_419:\n        /* \"#utility.yul\":15654:15772   */\n      pop\n      jump\t// out\n\n    auxdata: 0xa26469706673582212205cb7db1bac393c97ed7e1057f84f6c39a1c404b85b7caecd474a8b8fd2c070fd64736f6c63430008070033\n}\n",
				"bytecode": {
					"linkReferences": {},
					"object": "60806040523480156200001157600080fd5b50336001806101000a81548173ffffffffffffffffffffffffffffffffffffffff021916908373ffffffffffffffffffffffffffffffffffffffff16021790555060018054906101000a900473ffffffffffffffffffffffffffffffffffffffff166003600080815260200190815260200160002060006101000a81548173ffffffffffffffffffffffffffffffffffffffff021916908373ffffffffffffffffffffffffffffffffffffffff16021790555060405180606001604052806000815260200160018054906101000a900473ffffffffffffffffffffffffffffffffffffffff1673ffffffffffffffffffffffffffffffffffffffff16815260200160008152506004600060018054906101000a900473ffffffffffffffffffffffffffffffffffffffff1673ffffffffffffffffffffffffffffffffffffffff1673ffffffffffffffffffffffffffffffffffffffff1681526020019081526020016000206000820151816000015560208201518160010160006101000a81548173ffffffffffffffffffffffffffffffffffffffff021916908373ffffffffffffffffffffffffffffffffffffffff160217905550604082015181600201559050506001600081905550620001f5670de0b6b3a7640000620001fb60201b60201c565b6200048b565b6200020c336200032560201b60201c565b6200021657600080fd5b6040518060400160405280600160009054906101000a900460ff1660ff1681526020018281525060026000600160009054906101000a900460ff1660ff1660ff16815260200190815260200160002060008201518160000160006101000a81548160ff021916908360ff1602179055506020820151816001015590505060018060008282829054906101000a900460ff16620002b39190620003cc565b92506101000a81548160ff021916908360ff1602179055507fcf1ed532d6b83b4290f2f407b156b17826f49752e7a8ff360f502c307e05566360018060009054906101000a900460ff166200030991906200040a565b826040516200031a9291906200039f565b60405180910390a150565b600060018054906101000a900473ffffffffffffffffffffffffffffffffffffffff1673ffffffffffffffffffffffffffffffffffffffff168273ffffffffffffffffffffffffffffffffffffffff16149050919050565b620003888162000445565b82525050565b62000399816200044f565b82525050565b6000604082019050620003b660008301856200038e565b620003c560208301846200037d565b9392505050565b6000620003d9826200044f565b9150620003e6836200044f565b92508260ff03821115620003ff57620003fe6200045c565b5b828201905092915050565b600062000417826200044f565b915062000424836200044f565b9250828210156200043a57620004396200045c565b5b828203905092915050565b6000819050919050565b600060ff82169050919050565b7f4e487b7100000000000000000000000000000000000000000000000000000000600052601160045260246000fd5b612316806200049b6000396000f3fe6080604052600436106100ec5760003560e01c806378a32e211161008a578063ad39f0a311610059578063ad39f0a314610359578063ae9283b514610384578063bd233b91146103ad578063f1060006146103ea576100fd565b806378a32e2114610262578063906cbf57146102a157806395a078e8146102df5780639b0b0ae31461031c576100fd565b80632e8aab9b116100c65780632e8aab9b146101a157806333afc80b146101bd57806347734892146101fa578063556c909514610237576100fd565b80630173c05b146101095780630e50cee5146101255780632a648c8914610164576100fd565b366100fd576100fb3334610427565b005b6101073334610427565b005b610123600480360381019061011e9190611ae1565b6104ea565b005b34801561013157600080fd5b5061014c60048036038101906101479190611a74565b6107e1565b60405161015b93929190611d9e565b60405180910390f35b34801561017057600080fd5b5061018b60048036038101906101869190611aa1565b61082b565b6040516101989190611cc8565b60405180910390f35b6101bb60048036038101906101b69190611b0e565b61085a565b005b3480156101c957600080fd5b506101e460048036038101906101df9190611ae1565b610904565b6040516101f19190611d83565b60405180910390f35b34801561020657600080fd5b50610221600480360381019061021c9190611a74565b610935565b60405161022e9190611d83565b60405180910390f35b34801561024357600080fd5b5061024c610956565b6040516102599190611d83565b60405180910390f35b34801561026e57600080fd5b5061028960048036038101906102849190611b3b565b61095c565b60405161029893929190611d9e565b60405180910390f35b3480156102ad57600080fd5b506102c860048036038101906102c39190611b0e565b6109b3565b6040516102d6929190611e50565b60405180910390f35b3480156102eb57600080fd5b5061030660048036038101906103019190611a74565b6109e4565b6040516103139190611cc8565b60405180910390f35b34801561032857600080fd5b50610343600480360381019061033e9190611b0e565b610a3c565b6040516103509190611d83565b60405180910390f35b34801561036557600080fd5b5061036e610a54565b60405161037b9190611dfe565b60405180910390f35b34801561039057600080fd5b506103ab60048036038101906103a69190611ae1565b610a67565b005b3480156103b957600080fd5b506103d460048036038101906103cf9190611ae1565b610b82565b6040516103e19190611cad565b60405180910390f35b3480156103f657600080fd5b50610411600480360381019061040c9190611aa1565b610bb5565b60405161041e9190611d83565b60405180910390f35b60008060005b60018060009054906101000a900460ff166104489190611f30565b60ff168160ff1610156104985734600260008360ff1660ff1681526020019081526020016000206001015414156104855760019250809150610498565b8080610490906120c1565b91505061042d565b50816104d9576040517f08c379a00000000000000000000000000000000000000000000000000000000081526004016104d090611ce3565b60405180910390fd5b6104e4818585610bda565b50505050565b600080339050803b915060008263ffffffff16111561053e576040517f08c379a000000000000000000000000000000000000000000000000000000000815260040161053590611d63565b60405180910390fd5b600073ffffffffffffffffffffffffffffffffffffffff16600460003373ffffffffffffffffffffffffffffffffffffffff1673ffffffffffffffffffffffffffffffffffffffff16815260200190815260200160002060010160009054906101000a900473ffffffffffffffffffffffffffffffffffffffff1673ffffffffffffffffffffffffffffffffffffffff161461060f576040517f08c379a000000000000000000000000000000000000000000000000000000000815260040161060690611d03565b60405180910390fd5b670de0b6b3a76400003414610659576040517f08c379a000000000000000000000000000000000000000000000000000000000815260040161065090611d43565b60405180910390fd5b604051806060016040528060005481526020013373ffffffffffffffffffffffffffffffffffffffff16815260200184815250600460003373ffffffffffffffffffffffffffffffffffffffff1673ffffffffffffffffffffffffffffffffffffffff1681526020019081526020016000206000820151816000015560208201518160010160006101000a81548173ffffffffffffffffffffffffffffffffffffffff021916908373ffffffffffffffffffffffffffffffffffffffff1602179055506040820151816002015590505033600360008054815260200190815260200160002060006101000a81548173ffffffffffffffffffffffffffffffffffffffff021916908373ffffffffffffffffffffffffffffffffffffffff160217905550600160008082825461078e9190611eda565b925050819055507f1bb25ee34577114c5cbb122d81354acec5c791f324520729ea1b913d1a2034aa60016000546107c59190611ff2565b846040516107d4929190611dd5565b60405180910390a1505050565b60046020528060005260406000206000915090508060000154908060010160009054906101000a900473ffffffffffffffffffffffffffffffffffffffff16908060020154905083565b60086020528160005260406000206020528060005260406000206000915091509054906101000a900460ff1681565b600073ffffffffffffffffffffffffffffffffffffffff16600460003373ffffffffffffffffffffffffffffffffffffffff1673ffffffffffffffffffffffffffffffffffffffff16815260200190815260200160002060010160009054906101000a900473ffffffffffffffffffffffffffffffffffffffff1673ffffffffffffffffffffffffffffffffffffffff1614156108f657600080fd5b610901813334610bda565b50565b60008060028361091491906120eb565b1461092b576002826109269190611f67565b61092e565b60005b9050919050565b60008173ffffffffffffffffffffffffffffffffffffffff16319050919050565b60005481565b6006602052816000526040600020602052806000526040600020600091509150508060000154908060010160009054906101000a900473ffffffffffffffffffffffffffffffffffffffff16908060020154905083565b60026020528060005260406000206000915090508060000160009054906101000a900460ff16908060010154905082565b600060018054906101000a900473ffffffffffffffffffffffffffffffffffffffff1673ffffffffffffffffffffffffffffffffffffffff168273ffffffffffffffffffffffffffffffffffffffff16149050919050565b60056020528060005260406000206000915090505481565b600160009054906101000a900460ff1681565b610a70336109e4565b610a7957600080fd5b6040518060400160405280600160009054906101000a900460ff1660ff1681526020018281525060026000600160009054906101000a900460ff1660ff1660ff16815260200190815260200160002060008201518160000160006101000a81548160ff021916908360ff1602179055506020820151816001015590505060018060008282829054906101000a900460ff16610b149190611f30565b92506101000a81548160ff021916908360ff1602179055507fcf1ed532d6b83b4290f2f407b156b17826f49752e7a8ff360f502c307e05566360018060009054906101000a900460ff16610b689190612026565b82604051610b77929190611e50565b60405180910390a150565b60036020528060005260406000206000915054906101000a900473ffffffffffffffffffffffffffffffffffffffff1681565b6007602052816000526040600020602052806000526040600020600091509150505481565b600260008460ff1660ff16815260200190815260200160002060010154811015610c39576040517f08c379a0000000000000000000000000000000000000000000000000000000008152600401610c3090611d23565b60405180910390fd5b600460008373ffffffffffffffffffffffffffffffffffffffff1673ffffffffffffffffffffffffffffffffffffffff168152602001908152602001600020600660008560ff1660ff1681526020019081526020016000206000600560008760ff1660ff168152602001908152602001600020548152602001908152602001600020600082015481600001556001820160009054906101000a900473ffffffffffffffffffffffffffffffffffffffff168160010160006101000a81548173ffffffffffffffffffffffffffffffffffffffff021916908373ffffffffffffffffffffffffffffffffffffffff160217905550600282015481600201559050506001600860008473ffffffffffffffffffffffffffffffffffffffff1673ffffffffffffffffffffffffffffffffffffffff16815260200190815260200160002060008560ff1660ff16815260200190815260200160002060006101000a81548160ff0219169083151502179055506001600560008560ff1660ff1681526020019081526020016000206000828254610dd29190611eda565b925050819055506003600560008560ff1660ff1681526020019081526020016000205410611a30576000610e1e600560008660ff1660ff16815260200190815260200160002054610904565b90505b60008114611a2e576000600660008660ff1660ff1681526020019081526020016000206000600184610e539190611ff2565b815260200190815260200160002060010160009054906101000a900473ffffffffffffffffffffffffffffffffffffffff1690506001600760008373ffffffffffffffffffffffffffffffffffffffff1673ffffffffffffffffffffffffffffffffffffffff16815260200190815260200160002060008760ff1660ff16815260200190815260200160002054111580610f595750600860008273ffffffffffffffffffffffffffffffffffffffff1673ffffffffffffffffffffffffffffffffffffffff1681526020019081526020016000206000600187610f369190611f30565b60ff1660ff16815260200190815260200160002060009054906101000a900460ff165b15611a1d5760008173ffffffffffffffffffffffffffffffffffffffff166064604a600260008a60ff1660ff16815260200190815260200160002060010154610fa29190611f98565b610fac9190611f67565b604051610fb890611c98565b60006040518083038185875af1925050503d8060008114610ff5576040519150601f19603f3d011682016040523d82523d6000602084013e610ffa565b606091505b505090506001600760008473ffffffffffffffffffffffffffffffffffffffff1673ffffffffffffffffffffffffffffffffffffffff16815260200190815260200160002060008860ff1660ff16815260200190815260200160002060008282546110659190611eda565b925050819055507fd9ff1d189bd8473f87a70327222795b92238d06f3edf14fa23403ac2153c10a9600260008860ff1660ff16815260200190815260200160002060000160009054906101000a900460ff1683836040516110c893929190611e19565b60405180910390a16000600660008860ff1660ff16815260200190815260200160002060006001866110fa9190611ff2565b81526020019081526020016000206000015490506000600660008960ff1660ff16815260200190815260200160002060006001876111389190611ff2565b815260200190815260200160002060020154905060006064600a600260008c60ff1660ff168152602001908152602001600020600101546111799190611f98565b6111839190611f67565b90506003600083815260200190815260200160002060009054906101000a900473ffffffffffffffffffffffffffffffffffffffff1673ffffffffffffffffffffffffffffffffffffffff16816040516111dc90611c98565b60006040518083038185875af1925050503d8060008114611219576040519150601f19603f3d011682016040523d82523d6000602084013e61121e565b606091505b5050809450508315611291577fafe90bc52fc3dd02b2550b825fc68e93b4bfbcb8165bbacda6cd14b2bad5bc02600260008b60ff1660ff16815260200190815260200160002060000160009054906101000a900460ff168484846040516112889493929190611e79565b60405180910390a15b60646006600260008c60ff1660ff168152602001908152602001600020600101546112bc9190611f98565b6112c69190611f67565b9050600460006003600085815260200190815260200160002060009054906101000a900473ffffffffffffffffffffffffffffffffffffffff1673ffffffffffffffffffffffffffffffffffffffff1673ffffffffffffffffffffffffffffffffffffffff16815260200190815260200160002060010160009054906101000a900473ffffffffffffffffffffffffffffffffffffffff1673ffffffffffffffffffffffffffffffffffffffff168160405161138190611c98565b60006040518083038185875af1925050503d80600081146113be576040519150601f19603f3d011682016040523d82523d6000602084013e6113c3565b606091505b50508094505083156114ab577fafe90bc52fc3dd02b2550b825fc68e93b4bfbcb8165bbacda6cd14b2bad5bc02600260008b60ff1660ff16815260200190815260200160002060000160009054906101000a900460ff1683600460006003600088815260200190815260200160002060009054906101000a900473ffffffffffffffffffffffffffffffffffffffff1673ffffffffffffffffffffffffffffffffffffffff1673ffffffffffffffffffffffffffffffffffffffff16815260200190815260200160002060000154846040516114a29493929190611e79565b60405180910390a15b60646004600260008c60ff1660ff168152602001908152602001600020600101546114d69190611f98565b6114e09190611f67565b90506004600060036000600460006003600089815260200190815260200160002060009054906101000a900473ffffffffffffffffffffffffffffffffffffffff1673ffffffffffffffffffffffffffffffffffffffff1673ffffffffffffffffffffffffffffffffffffffff16815260200190815260200160002060000154815260200190815260200160002060009054906101000a900473ffffffffffffffffffffffffffffffffffffffff1673ffffffffffffffffffffffffffffffffffffffff1673ffffffffffffffffffffffffffffffffffffffff16815260200190815260200160002060010160009054906101000a900473ffffffffffffffffffffffffffffffffffffffff1673ffffffffffffffffffffffffffffffffffffffff168160405161161090611c98565b60006040518083038185875af1925050503d806000811461164d576040519150601f19603f3d011682016040523d82523d6000602084013e611652565b606091505b5050809450508315611824577fafe90bc52fc3dd02b2550b825fc68e93b4bfbcb8165bbacda6cd14b2bad5bc02600260008b60ff1660ff16815260200190815260200160002060000160009054906101000a900460ff16600460006003600087815260200190815260200160002060009054906101000a900473ffffffffffffffffffffffffffffffffffffffff1673ffffffffffffffffffffffffffffffffffffffff1673ffffffffffffffffffffffffffffffffffffffff16815260200190815260200160002060000154600460006003600060046000600360008c815260200190815260200160002060009054906101000a900473ffffffffffffffffffffffffffffffffffffffff1673ffffffffffffffffffffffffffffffffffffffff1673ffffffffffffffffffffffffffffffffffffffff16815260200190815260200160002060000154815260200190815260200160002060009054906101000a900473ffffffffffffffffffffffffffffffffffffffff1673ffffffffffffffffffffffffffffffffffffffff1673ffffffffffffffffffffffffffffffffffffffff168152602001908152602001600020600001548460405161181b9493929190611e79565b60405180910390a15b60646006600260008c60ff1660ff1681526020019081526020016000206001015461184f9190611f98565b6118599190611f67565b90506004600060018054906101000a900473ffffffffffffffffffffffffffffffffffffffff1673ffffffffffffffffffffffffffffffffffffffff1673ffffffffffffffffffffffffffffffffffffffff16815260200190815260200160002060010160009054906101000a900473ffffffffffffffffffffffffffffffffffffffff1673ffffffffffffffffffffffffffffffffffffffff168160405161190190611c98565b60006040518083038185875af1925050503d806000811461193e576040519150601f19603f3d011682016040523d82523d6000602084013e611943565b606091505b5050809450508315611a18577fafe90bc52fc3dd02b2550b825fc68e93b4bfbcb8165bbacda6cd14b2bad5bc02600260008b60ff1660ff16815260200190815260200160002060000160009054906101000a900460ff16846004600060018054906101000a900473ffffffffffffffffffffffffffffffffffffffff1673ffffffffffffffffffffffffffffffffffffffff1673ffffffffffffffffffffffffffffffffffffffff1681526020019081526020016000206000015484604051611a0f9493929190611e79565b60405180910390a15b505050505b611a2682610904565b915050610e21565b505b505050565b600081359050611a448161229b565b92915050565b600081359050611a59816122b2565b92915050565b600081359050611a6e816122c9565b92915050565b600060208284031215611a8a57611a8961217a565b5b6000611a9884828501611a35565b91505092915050565b60008060408385031215611ab857611ab761217a565b5b6000611ac685828601611a35565b9250506020611ad785828601611a5f565b9150509250929050565b600060208284031215611af757611af661217a565b5b6000611b0584828501611a4a565b91505092915050565b600060208284031215611b2457611b2361217a565b5b6000611b3284828501611a5f565b91505092915050565b60008060408385031215611b5257611b5161217a565b5b6000611b6085828601611a5f565b9250506020611b7185828601611a4a565b9150509250929050565b611b848161206c565b82525050565b611b938161205a565b82525050565b611ba28161207e565b82525050565b6000611bb5600e83611ec9565b9150611bc08261217f565b602082019050919050565b6000611bd8601a83611ec9565b9150611be3826121a8565b602082019050919050565b6000611bfb600083611ebe565b9150611c06826121d1565b600082019050919050565b6000611c1e602383611ec9565b9150611c29826121d4565b604082019050919050565b6000611c41602883611ec9565b9150611c4c82612223565b604082019050919050565b6000611c64600c83611ec9565b9150611c6f82612272565b602082019050919050565b611c83816120aa565b82525050565b611c92816120b4565b82525050565b6000611ca382611bee565b9150819050919050565b6000602082019050611cc26000830184611b8a565b92915050565b6000602082019050611cdd6000830184611b99565b92915050565b60006020820190508181036000830152611cfc81611ba8565b9050919050565b60006020820190508181036000830152611d1c81611bcb565b9050919050565b60006020820190508181036000830152611d3c81611c11565b9050919050565b60006020820190508181036000830152611d5c81611c34565b9050919050565b60006020820190508181036000830152611d7c81611c57565b9050919050565b6000602082019050611d986000830184611c7a565b92915050565b6000606082019050611db36000830186611c7a565b611dc06020830185611b7b565b611dcd6040830184611c7a565b949350505050565b6000604082019050611dea6000830185611c7a565b611df76020830184611c7a565b9392505050565b6000602082019050611e136000830184611c89565b92915050565b6000606082019050611e2e6000830186611c89565b611e3b6020830185611b8a565b611e486040830184611b99565b949350505050565b6000604082019050611e656000830185611c89565b611e726020830184611c7a565b9392505050565b6000608082019050611e8e6000830187611c89565b611e9b6020830186611c7a565b611ea86040830185611c7a565b611eb56060830184611c7a565b95945050505050565b600081905092915050565b600082825260208201905092915050565b6000611ee5826120aa565b9150611ef0836120aa565b9250827fffffffffffffffffffffffffffffffffffffffffffffffffffffffffffffffff03821115611f2557611f2461211c565b5b828201905092915050565b6000611f3b826120b4565b9150611f46836120b4565b92508260ff03821115611f5c57611f5b61211c565b5b828201905092915050565b6000611f72826120aa565b9150611f7d836120aa565b925082611f8d57611f8c61214b565b5b828204905092915050565b6000611fa3826120aa565b9150611fae836120aa565b9250817fffffffffffffffffffffffffffffffffffffffffffffffffffffffffffffffff0483118215151615611fe757611fe661211c565b5b828202905092915050565b6000611ffd826120aa565b9150612008836120aa565b92508282101561201b5761201a61211c565b5b828203905092915050565b6000612031826120b4565b915061203c836120b4565b92508282101561204f5761204e61211c565b5b828203905092915050565b60006120658261208a565b9050919050565b60006120778261208a565b9050919050565b60008115159050919050565b600073ffffffffffffffffffffffffffffffffffffffff82169050919050565b6000819050919050565b600060ff82169050919050565b60006120cc826120b4565b915060ff8214156120e0576120df61211c565b5b600182019050919050565b60006120f6826120aa565b9150612101836120aa565b9250826121115761211061214b565b5b828206905092915050565b7f4e487b7100000000000000000000000000000000000000000000000000000000600052601160045260246000fd5b7f4e487b7100000000000000000000000000000000000000000000000000000000600052601260045260246000fd5b600080fd5b7f47616d65206e6f7420666f756e64000000000000000000000000000000000000600082015250565b7f596f752061726520616c72656164792072656769737465726564000000000000600082015250565b50565b7f496e73756666696369656e7420616d6f756e74206f6620636f6e74726962757460008201527f696f6e0000000000000000000000000000000000000000000000000000000000602082015250565b7f466f72207265676974657220696e2067616d6520796f75206e6565642070617960008201527f2031206574686572000000000000000000000000000000000000000000000000602082015250565b7f4e6f20636f6e7472616374730000000000000000000000000000000000000000600082015250565b6122a48161205a565b81146122af57600080fd5b50565b6122bb816120aa565b81146122c657600080fd5b50565b6122d2816120b4565b81146122dd57600080fd5b5056fea26469706673582212205cb7db1bac393c97ed7e1057f84f6c39a1c404b85b7caecd474a8b8fd2c070fd64736f6c63430008070033",
					"opcodes": "PUSH1 0x80 PUSH1 0x40 MSTORE CALLVALUE DUP1 ISZERO PUSH3 0x11 JUMPI PUSH1 0x0 DUP1 REVERT JUMPDEST POP CALLER PUSH1 0x1 DUP1 PUSH2 0x100 EXP DUP2 SLOAD DUP2 PUSH20 0xFFFFFFFFFFFFFFFFFFFFFFFFFFFFFFFFFFFFFFFF MUL NOT AND SWAP1 DUP4 PUSH20 0xFFFFFFFFFFFFFFFFFFFFFFFFFFFFFFFFFFFFFFFF AND MUL OR SWAP1 SSTORE POP PUSH1 0x1 DUP1 SLOAD SWAP1 PUSH2 0x100 EXP SWAP1 DIV PUSH20 0xFFFFFFFFFFFFFFFFFFFFFFFFFFFFFFFFFFFFFFFF AND PUSH1 0x3 PUSH1 0x0 DUP1 DUP2 MSTORE PUSH1 0x20 ADD SWAP1 DUP2 MSTORE PUSH1 0x20 ADD PUSH1 0x0 KECCAK256 PUSH1 0x0 PUSH2 0x100 EXP DUP2 SLOAD DUP2 PUSH20 0xFFFFFFFFFFFFFFFFFFFFFFFFFFFFFFFFFFFFFFFF MUL NOT AND SWAP1 DUP4 PUSH20 0xFFFFFFFFFFFFFFFFFFFFFFFFFFFFFFFFFFFFFFFF AND MUL OR SWAP1 SSTORE POP PUSH1 0x40 MLOAD DUP1 PUSH1 0x60 ADD PUSH1 0x40 MSTORE DUP1 PUSH1 0x0 DUP2 MSTORE PUSH1 0x20 ADD PUSH1 0x1 DUP1 SLOAD SWAP1 PUSH2 0x100 EXP SWAP1 DIV PUSH20 0xFFFFFFFFFFFFFFFFFFFFFFFFFFFFFFFFFFFFFFFF AND PUSH20 0xFFFFFFFFFFFFFFFFFFFFFFFFFFFFFFFFFFFFFFFF AND DUP2 MSTORE PUSH1 0x20 ADD PUSH1 0x0 DUP2 MSTORE POP PUSH1 0x4 PUSH1 0x0 PUSH1 0x1 DUP1 SLOAD SWAP1 PUSH2 0x100 EXP SWAP1 DIV PUSH20 0xFFFFFFFFFFFFFFFFFFFFFFFFFFFFFFFFFFFFFFFF AND PUSH20 0xFFFFFFFFFFFFFFFFFFFFFFFFFFFFFFFFFFFFFFFF AND PUSH20 0xFFFFFFFFFFFFFFFFFFFFFFFFFFFFFFFFFFFFFFFF AND DUP2 MSTORE PUSH1 0x20 ADD SWAP1 DUP2 MSTORE PUSH1 0x20 ADD PUSH1 0x0 KECCAK256 PUSH1 0x0 DUP3 ADD MLOAD DUP2 PUSH1 0x0 ADD SSTORE PUSH1 0x20 DUP3 ADD MLOAD DUP2 PUSH1 0x1 ADD PUSH1 0x0 PUSH2 0x100 EXP DUP2 SLOAD DUP2 PUSH20 0xFFFFFFFFFFFFFFFFFFFFFFFFFFFFFFFFFFFFFFFF MUL NOT AND SWAP1 DUP4 PUSH20 0xFFFFFFFFFFFFFFFFFFFFFFFFFFFFFFFFFFFFFFFF AND MUL OR SWAP1 SSTORE POP PUSH1 0x40 DUP3 ADD MLOAD DUP2 PUSH1 0x2 ADD SSTORE SWAP1 POP POP PUSH1 0x1 PUSH1 0x0 DUP2 SWAP1 SSTORE POP PUSH3 0x1F5 PUSH8 0xDE0B6B3A7640000 PUSH3 0x1FB PUSH1 0x20 SHL PUSH1 0x20 SHR JUMP JUMPDEST PUSH3 0x48B JUMP JUMPDEST PUSH3 0x20C CALLER PUSH3 0x325 PUSH1 0x20 SHL PUSH1 0x20 SHR JUMP JUMPDEST PUSH3 0x216 JUMPI PUSH1 0x0 DUP1 REVERT JUMPDEST PUSH1 0x40 MLOAD DUP1 PUSH1 0x40 ADD PUSH1 0x40 MSTORE DUP1 PUSH1 0x1 PUSH1 0x0 SWAP1 SLOAD SWAP1 PUSH2 0x100 EXP SWAP1 DIV PUSH1 0xFF AND PUSH1 0xFF AND DUP2 MSTORE PUSH1 0x20 ADD DUP3 DUP2 MSTORE POP PUSH1 0x2 PUSH1 0x0 PUSH1 0x1 PUSH1 0x0 SWAP1 SLOAD SWAP1 PUSH2 0x100 EXP SWAP1 DIV PUSH1 0xFF AND PUSH1 0xFF AND PUSH1 0xFF AND DUP2 MSTORE PUSH1 0x20 ADD SWAP1 DUP2 MSTORE PUSH1 0x20 ADD PUSH1 0x0 KECCAK256 PUSH1 0x0 DUP3 ADD MLOAD DUP2 PUSH1 0x0 ADD PUSH1 0x0 PUSH2 0x100 EXP DUP2 SLOAD DUP2 PUSH1 0xFF MUL NOT AND SWAP1 DUP4 PUSH1 0xFF AND MUL OR SWAP1 SSTORE POP PUSH1 0x20 DUP3 ADD MLOAD DUP2 PUSH1 0x1 ADD SSTORE SWAP1 POP POP PUSH1 0x1 DUP1 PUSH1 0x0 DUP3 DUP3 DUP3 SWAP1 SLOAD SWAP1 PUSH2 0x100 EXP SWAP1 DIV PUSH1 0xFF AND PUSH3 0x2B3 SWAP2 SWAP1 PUSH3 0x3CC JUMP JUMPDEST SWAP3 POP PUSH2 0x100 EXP DUP2 SLOAD DUP2 PUSH1 0xFF MUL NOT AND SWAP1 DUP4 PUSH1 0xFF AND MUL OR SWAP1 SSTORE POP PUSH32 0xCF1ED532D6B83B4290F2F407B156B17826F49752E7A8FF360F502C307E055663 PUSH1 0x1 DUP1 PUSH1 0x0 SWAP1 SLOAD SWAP1 PUSH2 0x100 EXP SWAP1 DIV PUSH1 0xFF AND PUSH3 0x309 SWAP2 SWAP1 PUSH3 0x40A JUMP JUMPDEST DUP3 PUSH1 0x40 MLOAD PUSH3 0x31A SWAP3 SWAP2 SWAP1 PUSH3 0x39F JUMP JUMPDEST PUSH1 0x40 MLOAD DUP1 SWAP2 SUB SWAP1 LOG1 POP JUMP JUMPDEST PUSH1 0x0 PUSH1 0x1 DUP1 SLOAD SWAP1 PUSH2 0x100 EXP SWAP1 DIV PUSH20 0xFFFFFFFFFFFFFFFFFFFFFFFFFFFFFFFFFFFFFFFF AND PUSH20 0xFFFFFFFFFFFFFFFFFFFFFFFFFFFFFFFFFFFFFFFF AND DUP3 PUSH20 0xFFFFFFFFFFFFFFFFFFFFFFFFFFFFFFFFFFFFFFFF AND EQ SWAP1 POP SWAP2 SWAP1 POP JUMP JUMPDEST PUSH3 0x388 DUP2 PUSH3 0x445 JUMP JUMPDEST DUP3 MSTORE POP POP JUMP JUMPDEST PUSH3 0x399 DUP2 PUSH3 0x44F JUMP JUMPDEST DUP3 MSTORE POP POP JUMP JUMPDEST PUSH1 0x0 PUSH1 0x40 DUP3 ADD SWAP1 POP PUSH3 0x3B6 PUSH1 0x0 DUP4 ADD DUP6 PUSH3 0x38E JUMP JUMPDEST PUSH3 0x3C5 PUSH1 0x20 DUP4 ADD DUP5 PUSH3 0x37D JUMP JUMPDEST SWAP4 SWAP3 POP POP POP JUMP JUMPDEST PUSH1 0x0 PUSH3 0x3D9 DUP3 PUSH3 0x44F JUMP JUMPDEST SWAP2 POP PUSH3 0x3E6 DUP4 PUSH3 0x44F JUMP JUMPDEST SWAP3 POP DUP3 PUSH1 0xFF SUB DUP3 GT ISZERO PUSH3 0x3FF JUMPI PUSH3 0x3FE PUSH3 0x45C JUMP JUMPDEST JUMPDEST DUP3 DUP3 ADD SWAP1 POP SWAP3 SWAP2 POP POP JUMP JUMPDEST PUSH1 0x0 PUSH3 0x417 DUP3 PUSH3 0x44F JUMP JUMPDEST SWAP2 POP PUSH3 0x424 DUP4 PUSH3 0x44F JUMP JUMPDEST SWAP3 POP DUP3 DUP3 LT ISZERO PUSH3 0x43A JUMPI PUSH3 0x439 PUSH3 0x45C JUMP JUMPDEST JUMPDEST DUP3 DUP3 SUB SWAP1 POP SWAP3 SWAP2 POP POP JUMP JUMPDEST PUSH1 0x0 DUP2 SWAP1 POP SWAP2 SWAP1 POP JUMP JUMPDEST PUSH1 0x0 PUSH1 0xFF DUP3 AND SWAP1 POP SWAP2 SWAP1 POP JUMP JUMPDEST PUSH32 0x4E487B7100000000000000000000000000000000000000000000000000000000 PUSH1 0x0 MSTORE PUSH1 0x11 PUSH1 0x4 MSTORE PUSH1 0x24 PUSH1 0x0 REVERT JUMPDEST PUSH2 0x2316 DUP1 PUSH3 0x49B PUSH1 0x0 CODECOPY PUSH1 0x0 RETURN INVALID PUSH1 0x80 PUSH1 0x40 MSTORE PUSH1 0x4 CALLDATASIZE LT PUSH2 0xEC JUMPI PUSH1 0x0 CALLDATALOAD PUSH1 0xE0 SHR DUP1 PUSH4 0x78A32E21 GT PUSH2 0x8A JUMPI DUP1 PUSH4 0xAD39F0A3 GT PUSH2 0x59 JUMPI DUP1 PUSH4 0xAD39F0A3 EQ PUSH2 0x359 JUMPI DUP1 PUSH4 0xAE9283B5 EQ PUSH2 0x384 JUMPI DUP1 PUSH4 0xBD233B91 EQ PUSH2 0x3AD JUMPI DUP1 PUSH4 0xF1060006 EQ PUSH2 0x3EA JUMPI PUSH2 0xFD JUMP JUMPDEST DUP1 PUSH4 0x78A32E21 EQ PUSH2 0x262 JUMPI DUP1 PUSH4 0x906CBF57 EQ PUSH2 0x2A1 JUMPI DUP1 PUSH4 0x95A078E8 EQ PUSH2 0x2DF JUMPI DUP1 PUSH4 0x9B0B0AE3 EQ PUSH2 0x31C JUMPI PUSH2 0xFD JUMP JUMPDEST DUP1 PUSH4 0x2E8AAB9B GT PUSH2 0xC6 JUMPI DUP1 PUSH4 0x2E8AAB9B EQ PUSH2 0x1A1 JUMPI DUP1 PUSH4 0x33AFC80B EQ PUSH2 0x1BD JUMPI DUP1 PUSH4 0x47734892 EQ PUSH2 0x1FA JUMPI DUP1 PUSH4 0x556C9095 EQ PUSH2 0x237 JUMPI PUSH2 0xFD JUMP JUMPDEST DUP1 PUSH4 0x173C05B EQ PUSH2 0x109 JUMPI DUP1 PUSH4 0xE50CEE5 EQ PUSH2 0x125 JUMPI DUP1 PUSH4 0x2A648C89 EQ PUSH2 0x164 JUMPI PUSH2 0xFD JUMP JUMPDEST CALLDATASIZE PUSH2 0xFD JUMPI PUSH2 0xFB CALLER CALLVALUE PUSH2 0x427 JUMP JUMPDEST STOP JUMPDEST PUSH2 0x107 CALLER CALLVALUE PUSH2 0x427 JUMP JUMPDEST STOP JUMPDEST PUSH2 0x123 PUSH1 0x4 DUP1 CALLDATASIZE SUB DUP2 ADD SWAP1 PUSH2 0x11E SWAP2 SWAP1 PUSH2 0x1AE1 JUMP JUMPDEST PUSH2 0x4EA JUMP JUMPDEST STOP JUMPDEST CALLVALUE DUP1 ISZERO PUSH2 0x131 JUMPI PUSH1 0x0 DUP1 REVERT JUMPDEST POP PUSH2 0x14C PUSH1 0x4 DUP1 CALLDATASIZE SUB DUP2 ADD SWAP1 PUSH2 0x147 SWAP2 SWAP1 PUSH2 0x1A74 JUMP JUMPDEST PUSH2 0x7E1 JUMP JUMPDEST PUSH1 0x40 MLOAD PUSH2 0x15B SWAP4 SWAP3 SWAP2 SWAP1 PUSH2 0x1D9E JUMP JUMPDEST PUSH1 0x40 MLOAD DUP1 SWAP2 SUB SWAP1 RETURN JUMPDEST CALLVALUE DUP1 ISZERO PUSH2 0x170 JUMPI PUSH1 0x0 DUP1 REVERT JUMPDEST POP PUSH2 0x18B PUSH1 0x4 DUP1 CALLDATASIZE SUB DUP2 ADD SWAP1 PUSH2 0x186 SWAP2 SWAP1 PUSH2 0x1AA1 JUMP JUMPDEST PUSH2 0x82B JUMP JUMPDEST PUSH1 0x40 MLOAD PUSH2 0x198 SWAP2 SWAP1 PUSH2 0x1CC8 JUMP JUMPDEST PUSH1 0x40 MLOAD DUP1 SWAP2 SUB SWAP1 RETURN JUMPDEST PUSH2 0x1BB PUSH1 0x4 DUP1 CALLDATASIZE SUB DUP2 ADD SWAP1 PUSH2 0x1B6 SWAP2 SWAP1 PUSH2 0x1B0E JUMP JUMPDEST PUSH2 0x85A JUMP JUMPDEST STOP JUMPDEST CALLVALUE DUP1 ISZERO PUSH2 0x1C9 JUMPI PUSH1 0x0 DUP1 REVERT JUMPDEST POP PUSH2 0x1E4 PUSH1 0x4 DUP1 CALLDATASIZE SUB DUP2 ADD SWAP1 PUSH2 0x1DF SWAP2 SWAP1 PUSH2 0x1AE1 JUMP JUMPDEST PUSH2 0x904 JUMP JUMPDEST PUSH1 0x40 MLOAD PUSH2 0x1F1 SWAP2 SWAP1 PUSH2 0x1D83 JUMP JUMPDEST PUSH1 0x40 MLOAD DUP1 SWAP2 SUB SWAP1 RETURN JUMPDEST CALLVALUE DUP1 ISZERO PUSH2 0x206 JUMPI PUSH1 0x0 DUP1 REVERT JUMPDEST POP PUSH2 0x221 PUSH1 0x4 DUP1 CALLDATASIZE SUB DUP2 ADD SWAP1 PUSH2 0x21C SWAP2 SWAP1 PUSH2 0x1A74 JUMP JUMPDEST PUSH2 0x935 JUMP JUMPDEST PUSH1 0x40 MLOAD PUSH2 0x22E SWAP2 SWAP1 PUSH2 0x1D83 JUMP JUMPDEST PUSH1 0x40 MLOAD DUP1 SWAP2 SUB SWAP1 RETURN JUMPDEST CALLVALUE DUP1 ISZERO PUSH2 0x243 JUMPI PUSH1 0x0 DUP1 REVERT JUMPDEST POP PUSH2 0x24C PUSH2 0x956 JUMP JUMPDEST PUSH1 0x40 MLOAD PUSH2 0x259 SWAP2 SWAP1 PUSH2 0x1D83 JUMP JUMPDEST PUSH1 0x40 MLOAD DUP1 SWAP2 SUB SWAP1 RETURN JUMPDEST CALLVALUE DUP1 ISZERO PUSH2 0x26E JUMPI PUSH1 0x0 DUP1 REVERT JUMPDEST POP PUSH2 0x289 PUSH1 0x4 DUP1 CALLDATASIZE SUB DUP2 ADD SWAP1 PUSH2 0x284 SWAP2 SWAP1 PUSH2 0x1B3B JUMP JUMPDEST PUSH2 0x95C JUMP JUMPDEST PUSH1 0x40 MLOAD PUSH2 0x298 SWAP4 SWAP3 SWAP2 SWAP1 PUSH2 0x1D9E JUMP JUMPDEST PUSH1 0x40 MLOAD DUP1 SWAP2 SUB SWAP1 RETURN JUMPDEST CALLVALUE DUP1 ISZERO PUSH2 0x2AD JUMPI PUSH1 0x0 DUP1 REVERT JUMPDEST POP PUSH2 0x2C8 PUSH1 0x4 DUP1 CALLDATASIZE SUB DUP2 ADD SWAP1 PUSH2 0x2C3 SWAP2 SWAP1 PUSH2 0x1B0E JUMP JUMPDEST PUSH2 0x9B3 JUMP JUMPDEST PUSH1 0x40 MLOAD PUSH2 0x2D6 SWAP3 SWAP2 SWAP1 PUSH2 0x1E50 JUMP JUMPDEST PUSH1 0x40 MLOAD DUP1 SWAP2 SUB SWAP1 RETURN JUMPDEST CALLVALUE DUP1 ISZERO PUSH2 0x2EB JUMPI PUSH1 0x0 DUP1 REVERT JUMPDEST POP PUSH2 0x306 PUSH1 0x4 DUP1 CALLDATASIZE SUB DUP2 ADD SWAP1 PUSH2 0x301 SWAP2 SWAP1 PUSH2 0x1A74 JUMP JUMPDEST PUSH2 0x9E4 JUMP JUMPDEST PUSH1 0x40 MLOAD PUSH2 0x313 SWAP2 SWAP1 PUSH2 0x1CC8 JUMP JUMPDEST PUSH1 0x40 MLOAD DUP1 SWAP2 SUB SWAP1 RETURN JUMPDEST CALLVALUE DUP1 ISZERO PUSH2 0x328 JUMPI PUSH1 0x0 DUP1 REVERT JUMPDEST POP PUSH2 0x343 PUSH1 0x4 DUP1 CALLDATASIZE SUB DUP2 ADD SWAP1 PUSH2 0x33E SWAP2 SWAP1 PUSH2 0x1B0E JUMP JUMPDEST PUSH2 0xA3C JUMP JUMPDEST PUSH1 0x40 MLOAD PUSH2 0x350 SWAP2 SWAP1 PUSH2 0x1D83 JUMP JUMPDEST PUSH1 0x40 MLOAD DUP1 SWAP2 SUB SWAP1 RETURN JUMPDEST CALLVALUE DUP1 ISZERO PUSH2 0x365 JUMPI PUSH1 0x0 DUP1 REVERT JUMPDEST POP PUSH2 0x36E PUSH2 0xA54 JUMP JUMPDEST PUSH1 0x40 MLOAD PUSH2 0x37B SWAP2 SWAP1 PUSH2 0x1DFE JUMP JUMPDEST PUSH1 0x40 MLOAD DUP1 SWAP2 SUB SWAP1 RETURN JUMPDEST CALLVALUE DUP1 ISZERO PUSH2 0x390 JUMPI PUSH1 0x0 DUP1 REVERT JUMPDEST POP PUSH2 0x3AB PUSH1 0x4 DUP1 CALLDATASIZE SUB DUP2 ADD SWAP1 PUSH2 0x3A6 SWAP2 SWAP1 PUSH2 0x1AE1 JUMP JUMPDEST PUSH2 0xA67 JUMP JUMPDEST STOP JUMPDEST CALLVALUE DUP1 ISZERO PUSH2 0x3B9 JUMPI PUSH1 0x0 DUP1 REVERT JUMPDEST POP PUSH2 0x3D4 PUSH1 0x4 DUP1 CALLDATASIZE SUB DUP2 ADD SWAP1 PUSH2 0x3CF SWAP2 SWAP1 PUSH2 0x1AE1 JUMP JUMPDEST PUSH2 0xB82 JUMP JUMPDEST PUSH1 0x40 MLOAD PUSH2 0x3E1 SWAP2 SWAP1 PUSH2 0x1CAD JUMP JUMPDEST PUSH1 0x40 MLOAD DUP1 SWAP2 SUB SWAP1 RETURN JUMPDEST CALLVALUE DUP1 ISZERO PUSH2 0x3F6 JUMPI PUSH1 0x0 DUP1 REVERT JUMPDEST POP PUSH2 0x411 PUSH1 0x4 DUP1 CALLDATASIZE SUB DUP2 ADD SWAP1 PUSH2 0x40C SWAP2 SWAP1 PUSH2 0x1AA1 JUMP JUMPDEST PUSH2 0xBB5 JUMP JUMPDEST PUSH1 0x40 MLOAD PUSH2 0x41E SWAP2 SWAP1 PUSH2 0x1D83 JUMP JUMPDEST PUSH1 0x40 MLOAD DUP1 SWAP2 SUB SWAP1 RETURN JUMPDEST PUSH1 0x0 DUP1 PUSH1 0x0 JUMPDEST PUSH1 0x1 DUP1 PUSH1 0x0 SWAP1 SLOAD SWAP1 PUSH2 0x100 EXP SWAP1 DIV PUSH1 0xFF AND PUSH2 0x448 SWAP2 SWAP1 PUSH2 0x1F30 JUMP JUMPDEST PUSH1 0xFF AND DUP2 PUSH1 0xFF AND LT ISZERO PUSH2 0x498 JUMPI CALLVALUE PUSH1 0x2 PUSH1 0x0 DUP4 PUSH1 0xFF AND PUSH1 0xFF AND DUP2 MSTORE PUSH1 0x20 ADD SWAP1 DUP2 MSTORE PUSH1 0x20 ADD PUSH1 0x0 KECCAK256 PUSH1 0x1 ADD SLOAD EQ ISZERO PUSH2 0x485 JUMPI PUSH1 0x1 SWAP3 POP DUP1 SWAP2 POP PUSH2 0x498 JUMP JUMPDEST DUP1 DUP1 PUSH2 0x490 SWAP1 PUSH2 0x20C1 JUMP JUMPDEST SWAP2 POP POP PUSH2 0x42D JUMP JUMPDEST POP DUP2 PUSH2 0x4D9 JUMPI PUSH1 0x40 MLOAD PUSH32 0x8C379A000000000000000000000000000000000000000000000000000000000 DUP2 MSTORE PUSH1 0x4 ADD PUSH2 0x4D0 SWAP1 PUSH2 0x1CE3 JUMP JUMPDEST PUSH1 0x40 MLOAD DUP1 SWAP2 SUB SWAP1 REVERT JUMPDEST PUSH2 0x4E4 DUP2 DUP6 DUP6 PUSH2 0xBDA JUMP JUMPDEST POP POP POP POP JUMP JUMPDEST PUSH1 0x0 DUP1 CALLER SWAP1 POP DUP1 EXTCODESIZE SWAP2 POP PUSH1 0x0 DUP3 PUSH4 0xFFFFFFFF AND GT ISZERO PUSH2 0x53E JUMPI PUSH1 0x40 MLOAD PUSH32 0x8C379A000000000000000000000000000000000000000000000000000000000 DUP2 MSTORE PUSH1 0x4 ADD PUSH2 0x535 SWAP1 PUSH2 0x1D63 JUMP JUMPDEST PUSH1 0x40 MLOAD DUP1 SWAP2 SUB SWAP1 REVERT JUMPDEST PUSH1 0x0 PUSH20 0xFFFFFFFFFFFFFFFFFFFFFFFFFFFFFFFFFFFFFFFF AND PUSH1 0x4 PUSH1 0x0 CALLER PUSH20 0xFFFFFFFFFFFFFFFFFFFFFFFFFFFFFFFFFFFFFFFF AND PUSH20 0xFFFFFFFFFFFFFFFFFFFFFFFFFFFFFFFFFFFFFFFF AND DUP2 MSTORE PUSH1 0x20 ADD SWAP1 DUP2 MSTORE PUSH1 0x20 ADD PUSH1 0x0 KECCAK256 PUSH1 0x1 ADD PUSH1 0x0 SWAP1 SLOAD SWAP1 PUSH2 0x100 EXP SWAP1 DIV PUSH20 0xFFFFFFFFFFFFFFFFFFFFFFFFFFFFFFFFFFFFFFFF AND PUSH20 0xFFFFFFFFFFFFFFFFFFFFFFFFFFFFFFFFFFFFFFFF AND EQ PUSH2 0x60F JUMPI PUSH1 0x40 MLOAD PUSH32 0x8C379A000000000000000000000000000000000000000000000000000000000 DUP2 MSTORE PUSH1 0x4 ADD PUSH2 0x606 SWAP1 PUSH2 0x1D03 JUMP JUMPDEST PUSH1 0x40 MLOAD DUP1 SWAP2 SUB SWAP1 REVERT JUMPDEST PUSH8 0xDE0B6B3A7640000 CALLVALUE EQ PUSH2 0x659 JUMPI PUSH1 0x40 MLOAD PUSH32 0x8C379A000000000000000000000000000000000000000000000000000000000 DUP2 MSTORE PUSH1 0x4 ADD PUSH2 0x650 SWAP1 PUSH2 0x1D43 JUMP JUMPDEST PUSH1 0x40 MLOAD DUP1 SWAP2 SUB SWAP1 REVERT JUMPDEST PUSH1 0x40 MLOAD DUP1 PUSH1 0x60 ADD PUSH1 0x40 MSTORE DUP1 PUSH1 0x0 SLOAD DUP2 MSTORE PUSH1 0x20 ADD CALLER PUSH20 0xFFFFFFFFFFFFFFFFFFFFFFFFFFFFFFFFFFFFFFFF AND DUP2 MSTORE PUSH1 0x20 ADD DUP5 DUP2 MSTORE POP PUSH1 0x4 PUSH1 0x0 CALLER PUSH20 0xFFFFFFFFFFFFFFFFFFFFFFFFFFFFFFFFFFFFFFFF AND PUSH20 0xFFFFFFFFFFFFFFFFFFFFFFFFFFFFFFFFFFFFFFFF AND DUP2 MSTORE PUSH1 0x20 ADD SWAP1 DUP2 MSTORE PUSH1 0x20 ADD PUSH1 0x0 KECCAK256 PUSH1 0x0 DUP3 ADD MLOAD DUP2 PUSH1 0x0 ADD SSTORE PUSH1 0x20 DUP3 ADD MLOAD DUP2 PUSH1 0x1 ADD PUSH1 0x0 PUSH2 0x100 EXP DUP2 SLOAD DUP2 PUSH20 0xFFFFFFFFFFFFFFFFFFFFFFFFFFFFFFFFFFFFFFFF MUL NOT AND SWAP1 DUP4 PUSH20 0xFFFFFFFFFFFFFFFFFFFFFFFFFFFFFFFFFFFFFFFF AND MUL OR SWAP1 SSTORE POP PUSH1 0x40 DUP3 ADD MLOAD DUP2 PUSH1 0x2 ADD SSTORE SWAP1 POP POP CALLER PUSH1 0x3 PUSH1 0x0 DUP1 SLOAD DUP2 MSTORE PUSH1 0x20 ADD SWAP1 DUP2 MSTORE PUSH1 0x20 ADD PUSH1 0x0 KECCAK256 PUSH1 0x0 PUSH2 0x100 EXP DUP2 SLOAD DUP2 PUSH20 0xFFFFFFFFFFFFFFFFFFFFFFFFFFFFFFFFFFFFFFFF MUL NOT AND SWAP1 DUP4 PUSH20 0xFFFFFFFFFFFFFFFFFFFFFFFFFFFFFFFFFFFFFFFF AND MUL OR SWAP1 SSTORE POP PUSH1 0x1 PUSH1 0x0 DUP1 DUP3 DUP3 SLOAD PUSH2 0x78E SWAP2 SWAP1 PUSH2 0x1EDA JUMP JUMPDEST SWAP3 POP POP DUP2 SWAP1 SSTORE POP PUSH32 0x1BB25EE34577114C5CBB122D81354ACEC5C791F324520729EA1B913D1A2034AA PUSH1 0x1 PUSH1 0x0 SLOAD PUSH2 0x7C5 SWAP2 SWAP1 PUSH2 0x1FF2 JUMP JUMPDEST DUP5 PUSH1 0x40 MLOAD PUSH2 0x7D4 SWAP3 SWAP2 SWAP1 PUSH2 0x1DD5 JUMP JUMPDEST PUSH1 0x40 MLOAD DUP1 SWAP2 SUB SWAP1 LOG1 POP POP POP JUMP JUMPDEST PUSH1 0x4 PUSH1 0x20 MSTORE DUP1 PUSH1 0x0 MSTORE PUSH1 0x40 PUSH1 0x0 KECCAK256 PUSH1 0x0 SWAP2 POP SWAP1 POP DUP1 PUSH1 0x0 ADD SLOAD SWAP1 DUP1 PUSH1 0x1 ADD PUSH1 0x0 SWAP1 SLOAD SWAP1 PUSH2 0x100 EXP SWAP1 DIV PUSH20 0xFFFFFFFFFFFFFFFFFFFFFFFFFFFFFFFFFFFFFFFF AND SWAP1 DUP1 PUSH1 0x2 ADD SLOAD SWAP1 POP DUP4 JUMP JUMPDEST PUSH1 0x8 PUSH1 0x20 MSTORE DUP2 PUSH1 0x0 MSTORE PUSH1 0x40 PUSH1 0x0 KECCAK256 PUSH1 0x20 MSTORE DUP1 PUSH1 0x0 MSTORE PUSH1 0x40 PUSH1 0x0 KECCAK256 PUSH1 0x0 SWAP2 POP SWAP2 POP SWAP1 SLOAD SWAP1 PUSH2 0x100 EXP SWAP1 DIV PUSH1 0xFF AND DUP2 JUMP JUMPDEST PUSH1 0x0 PUSH20 0xFFFFFFFFFFFFFFFFFFFFFFFFFFFFFFFFFFFFFFFF AND PUSH1 0x4 PUSH1 0x0 CALLER PUSH20 0xFFFFFFFFFFFFFFFFFFFFFFFFFFFFFFFFFFFFFFFF AND PUSH20 0xFFFFFFFFFFFFFFFFFFFFFFFFFFFFFFFFFFFFFFFF AND DUP2 MSTORE PUSH1 0x20 ADD SWAP1 DUP2 MSTORE PUSH1 0x20 ADD PUSH1 0x0 KECCAK256 PUSH1 0x1 ADD PUSH1 0x0 SWAP1 SLOAD SWAP1 PUSH2 0x100 EXP SWAP1 DIV PUSH20 0xFFFFFFFFFFFFFFFFFFFFFFFFFFFFFFFFFFFFFFFF AND PUSH20 0xFFFFFFFFFFFFFFFFFFFFFFFFFFFFFFFFFFFFFFFF AND EQ ISZERO PUSH2 0x8F6 JUMPI PUSH1 0x0 DUP1 REVERT JUMPDEST PUSH2 0x901 DUP2 CALLER CALLVALUE PUSH2 0xBDA JUMP JUMPDEST POP JUMP JUMPDEST PUSH1 0x0 DUP1 PUSH1 0x2 DUP4 PUSH2 0x914 SWAP2 SWAP1 PUSH2 0x20EB JUMP JUMPDEST EQ PUSH2 0x92B JUMPI PUSH1 0x2 DUP3 PUSH2 0x926 SWAP2 SWAP1 PUSH2 0x1F67 JUMP JUMPDEST PUSH2 0x92E JUMP JUMPDEST PUSH1 0x0 JUMPDEST SWAP1 POP SWAP2 SWAP1 POP JUMP JUMPDEST PUSH1 0x0 DUP2 PUSH20 0xFFFFFFFFFFFFFFFFFFFFFFFFFFFFFFFFFFFFFFFF AND BALANCE SWAP1 POP SWAP2 SWAP1 POP JUMP JUMPDEST PUSH1 0x0 SLOAD DUP2 JUMP JUMPDEST PUSH1 0x6 PUSH1 0x20 MSTORE DUP2 PUSH1 0x0 MSTORE PUSH1 0x40 PUSH1 0x0 KECCAK256 PUSH1 0x20 MSTORE DUP1 PUSH1 0x0 MSTORE PUSH1 0x40 PUSH1 0x0 KECCAK256 PUSH1 0x0 SWAP2 POP SWAP2 POP POP DUP1 PUSH1 0x0 ADD SLOAD SWAP1 DUP1 PUSH1 0x1 ADD PUSH1 0x0 SWAP1 SLOAD SWAP1 PUSH2 0x100 EXP SWAP1 DIV PUSH20 0xFFFFFFFFFFFFFFFFFFFFFFFFFFFFFFFFFFFFFFFF AND SWAP1 DUP1 PUSH1 0x2 ADD SLOAD SWAP1 POP DUP4 JUMP JUMPDEST PUSH1 0x2 PUSH1 0x20 MSTORE DUP1 PUSH1 0x0 MSTORE PUSH1 0x40 PUSH1 0x0 KECCAK256 PUSH1 0x0 SWAP2 POP SWAP1 POP DUP1 PUSH1 0x0 ADD PUSH1 0x0 SWAP1 SLOAD SWAP1 PUSH2 0x100 EXP SWAP1 DIV PUSH1 0xFF AND SWAP1 DUP1 PUSH1 0x1 ADD SLOAD SWAP1 POP DUP3 JUMP JUMPDEST PUSH1 0x0 PUSH1 0x1 DUP1 SLOAD SWAP1 PUSH2 0x100 EXP SWAP1 DIV PUSH20 0xFFFFFFFFFFFFFFFFFFFFFFFFFFFFFFFFFFFFFFFF AND PUSH20 0xFFFFFFFFFFFFFFFFFFFFFFFFFFFFFFFFFFFFFFFF AND DUP3 PUSH20 0xFFFFFFFFFFFFFFFFFFFFFFFFFFFFFFFFFFFFFFFF AND EQ SWAP1 POP SWAP2 SWAP1 POP JUMP JUMPDEST PUSH1 0x5 PUSH1 0x20 MSTORE DUP1 PUSH1 0x0 MSTORE PUSH1 0x40 PUSH1 0x0 KECCAK256 PUSH1 0x0 SWAP2 POP SWAP1 POP SLOAD DUP2 JUMP JUMPDEST PUSH1 0x1 PUSH1 0x0 SWAP1 SLOAD SWAP1 PUSH2 0x100 EXP SWAP1 DIV PUSH1 0xFF AND DUP2 JUMP JUMPDEST PUSH2 0xA70 CALLER PUSH2 0x9E4 JUMP JUMPDEST PUSH2 0xA79 JUMPI PUSH1 0x0 DUP1 REVERT JUMPDEST PUSH1 0x40 MLOAD DUP1 PUSH1 0x40 ADD PUSH1 0x40 MSTORE DUP1 PUSH1 0x1 PUSH1 0x0 SWAP1 SLOAD SWAP1 PUSH2 0x100 EXP SWAP1 DIV PUSH1 0xFF AND PUSH1 0xFF AND DUP2 MSTORE PUSH1 0x20 ADD DUP3 DUP2 MSTORE POP PUSH1 0x2 PUSH1 0x0 PUSH1 0x1 PUSH1 0x0 SWAP1 SLOAD SWAP1 PUSH2 0x100 EXP SWAP1 DIV PUSH1 0xFF AND PUSH1 0xFF AND PUSH1 0xFF AND DUP2 MSTORE PUSH1 0x20 ADD SWAP1 DUP2 MSTORE PUSH1 0x20 ADD PUSH1 0x0 KECCAK256 PUSH1 0x0 DUP3 ADD MLOAD DUP2 PUSH1 0x0 ADD PUSH1 0x0 PUSH2 0x100 EXP DUP2 SLOAD DUP2 PUSH1 0xFF MUL NOT AND SWAP1 DUP4 PUSH1 0xFF AND MUL OR SWAP1 SSTORE POP PUSH1 0x20 DUP3 ADD MLOAD DUP2 PUSH1 0x1 ADD SSTORE SWAP1 POP POP PUSH1 0x1 DUP1 PUSH1 0x0 DUP3 DUP3 DUP3 SWAP1 SLOAD SWAP1 PUSH2 0x100 EXP SWAP1 DIV PUSH1 0xFF AND PUSH2 0xB14 SWAP2 SWAP1 PUSH2 0x1F30 JUMP JUMPDEST SWAP3 POP PUSH2 0x100 EXP DUP2 SLOAD DUP2 PUSH1 0xFF MUL NOT AND SWAP1 DUP4 PUSH1 0xFF AND MUL OR SWAP1 SSTORE POP PUSH32 0xCF1ED532D6B83B4290F2F407B156B17826F49752E7A8FF360F502C307E055663 PUSH1 0x1 DUP1 PUSH1 0x0 SWAP1 SLOAD SWAP1 PUSH2 0x100 EXP SWAP1 DIV PUSH1 0xFF AND PUSH2 0xB68 SWAP2 SWAP1 PUSH2 0x2026 JUMP JUMPDEST DUP3 PUSH1 0x40 MLOAD PUSH2 0xB77 SWAP3 SWAP2 SWAP1 PUSH2 0x1E50 JUMP JUMPDEST PUSH1 0x40 MLOAD DUP1 SWAP2 SUB SWAP1 LOG1 POP JUMP JUMPDEST PUSH1 0x3 PUSH1 0x20 MSTORE DUP1 PUSH1 0x0 MSTORE PUSH1 0x40 PUSH1 0x0 KECCAK256 PUSH1 0x0 SWAP2 POP SLOAD SWAP1 PUSH2 0x100 EXP SWAP1 DIV PUSH20 0xFFFFFFFFFFFFFFFFFFFFFFFFFFFFFFFFFFFFFFFF AND DUP2 JUMP JUMPDEST PUSH1 0x7 PUSH1 0x20 MSTORE DUP2 PUSH1 0x0 MSTORE PUSH1 0x40 PUSH1 0x0 KECCAK256 PUSH1 0x20 MSTORE DUP1 PUSH1 0x0 MSTORE PUSH1 0x40 PUSH1 0x0 KECCAK256 PUSH1 0x0 SWAP2 POP SWAP2 POP POP SLOAD DUP2 JUMP JUMPDEST PUSH1 0x2 PUSH1 0x0 DUP5 PUSH1 0xFF AND PUSH1 0xFF AND DUP2 MSTORE PUSH1 0x20 ADD SWAP1 DUP2 MSTORE PUSH1 0x20 ADD PUSH1 0x0 KECCAK256 PUSH1 0x1 ADD SLOAD DUP2 LT ISZERO PUSH2 0xC39 JUMPI PUSH1 0x40 MLOAD PUSH32 0x8C379A000000000000000000000000000000000000000000000000000000000 DUP2 MSTORE PUSH1 0x4 ADD PUSH2 0xC30 SWAP1 PUSH2 0x1D23 JUMP JUMPDEST PUSH1 0x40 MLOAD DUP1 SWAP2 SUB SWAP1 REVERT JUMPDEST PUSH1 0x4 PUSH1 0x0 DUP4 PUSH20 0xFFFFFFFFFFFFFFFFFFFFFFFFFFFFFFFFFFFFFFFF AND PUSH20 0xFFFFFFFFFFFFFFFFFFFFFFFFFFFFFFFFFFFFFFFF AND DUP2 MSTORE PUSH1 0x20 ADD SWAP1 DUP2 MSTORE PUSH1 0x20 ADD PUSH1 0x0 KECCAK256 PUSH1 0x6 PUSH1 0x0 DUP6 PUSH1 0xFF AND PUSH1 0xFF AND DUP2 MSTORE PUSH1 0x20 ADD SWAP1 DUP2 MSTORE PUSH1 0x20 ADD PUSH1 0x0 KECCAK256 PUSH1 0x0 PUSH1 0x5 PUSH1 0x0 DUP8 PUSH1 0xFF AND PUSH1 0xFF AND DUP2 MSTORE PUSH1 0x20 ADD SWAP1 DUP2 MSTORE PUSH1 0x20 ADD PUSH1 0x0 KECCAK256 SLOAD DUP2 MSTORE PUSH1 0x20 ADD SWAP1 DUP2 MSTORE PUSH1 0x20 ADD PUSH1 0x0 KECCAK256 PUSH1 0x0 DUP3 ADD SLOAD DUP2 PUSH1 0x0 ADD SSTORE PUSH1 0x1 DUP3 ADD PUSH1 0x0 SWAP1 SLOAD SWAP1 PUSH2 0x100 EXP SWAP1 DIV PUSH20 0xFFFFFFFFFFFFFFFFFFFFFFFFFFFFFFFFFFFFFFFF AND DUP2 PUSH1 0x1 ADD PUSH1 0x0 PUSH2 0x100 EXP DUP2 SLOAD DUP2 PUSH20 0xFFFFFFFFFFFFFFFFFFFFFFFFFFFFFFFFFFFFFFFF MUL NOT AND SWAP1 DUP4 PUSH20 0xFFFFFFFFFFFFFFFFFFFFFFFFFFFFFFFFFFFFFFFF AND MUL OR SWAP1 SSTORE POP PUSH1 0x2 DUP3 ADD SLOAD DUP2 PUSH1 0x2 ADD SSTORE SWAP1 POP POP PUSH1 0x1 PUSH1 0x8 PUSH1 0x0 DUP5 PUSH20 0xFFFFFFFFFFFFFFFFFFFFFFFFFFFFFFFFFFFFFFFF AND PUSH20 0xFFFFFFFFFFFFFFFFFFFFFFFFFFFFFFFFFFFFFFFF AND DUP2 MSTORE PUSH1 0x20 ADD SWAP1 DUP2 MSTORE PUSH1 0x20 ADD PUSH1 0x0 KECCAK256 PUSH1 0x0 DUP6 PUSH1 0xFF AND PUSH1 0xFF AND DUP2 MSTORE PUSH1 0x20 ADD SWAP1 DUP2 MSTORE PUSH1 0x20 ADD PUSH1 0x0 KECCAK256 PUSH1 0x0 PUSH2 0x100 EXP DUP2 SLOAD DUP2 PUSH1 0xFF MUL NOT AND SWAP1 DUP4 ISZERO ISZERO MUL OR SWAP1 SSTORE POP PUSH1 0x1 PUSH1 0x5 PUSH1 0x0 DUP6 PUSH1 0xFF AND PUSH1 0xFF AND DUP2 MSTORE PUSH1 0x20 ADD SWAP1 DUP2 MSTORE PUSH1 0x20 ADD PUSH1 0x0 KECCAK256 PUSH1 0x0 DUP3 DUP3 SLOAD PUSH2 0xDD2 SWAP2 SWAP1 PUSH2 0x1EDA JUMP JUMPDEST SWAP3 POP POP DUP2 SWAP1 SSTORE POP PUSH1 0x3 PUSH1 0x5 PUSH1 0x0 DUP6 PUSH1 0xFF AND PUSH1 0xFF AND DUP2 MSTORE PUSH1 0x20 ADD SWAP1 DUP2 MSTORE PUSH1 0x20 ADD PUSH1 0x0 KECCAK256 SLOAD LT PUSH2 0x1A30 JUMPI PUSH1 0x0 PUSH2 0xE1E PUSH1 0x5 PUSH1 0x0 DUP7 PUSH1 0xFF AND PUSH1 0xFF AND DUP2 MSTORE PUSH1 0x20 ADD SWAP1 DUP2 MSTORE PUSH1 0x20 ADD PUSH1 0x0 KECCAK256 SLOAD PUSH2 0x904 JUMP JUMPDEST SWAP1 POP JUMPDEST PUSH1 0x0 DUP2 EQ PUSH2 0x1A2E JUMPI PUSH1 0x0 PUSH1 0x6 PUSH1 0x0 DUP7 PUSH1 0xFF AND PUSH1 0xFF AND DUP2 MSTORE PUSH1 0x20 ADD SWAP1 DUP2 MSTORE PUSH1 0x20 ADD PUSH1 0x0 KECCAK256 PUSH1 0x0 PUSH1 0x1 DUP5 PUSH2 0xE53 SWAP2 SWAP1 PUSH2 0x1FF2 JUMP JUMPDEST DUP2 MSTORE PUSH1 0x20 ADD SWAP1 DUP2 MSTORE PUSH1 0x20 ADD PUSH1 0x0 KECCAK256 PUSH1 0x1 ADD PUSH1 0x0 SWAP1 SLOAD SWAP1 PUSH2 0x100 EXP SWAP1 DIV PUSH20 0xFFFFFFFFFFFFFFFFFFFFFFFFFFFFFFFFFFFFFFFF AND SWAP1 POP PUSH1 0x1 PUSH1 0x7 PUSH1 0x0 DUP4 PUSH20 0xFFFFFFFFFFFFFFFFFFFFFFFFFFFFFFFFFFFFFFFF AND PUSH20 0xFFFFFFFFFFFFFFFFFFFFFFFFFFFFFFFFFFFFFFFF AND DUP2 MSTORE PUSH1 0x20 ADD SWAP1 DUP2 MSTORE PUSH1 0x20 ADD PUSH1 0x0 KECCAK256 PUSH1 0x0 DUP8 PUSH1 0xFF AND PUSH1 0xFF AND DUP2 MSTORE PUSH1 0x20 ADD SWAP1 DUP2 MSTORE PUSH1 0x20 ADD PUSH1 0x0 KECCAK256 SLOAD GT ISZERO DUP1 PUSH2 0xF59 JUMPI POP PUSH1 0x8 PUSH1 0x0 DUP3 PUSH20 0xFFFFFFFFFFFFFFFFFFFFFFFFFFFFFFFFFFFFFFFF AND PUSH20 0xFFFFFFFFFFFFFFFFFFFFFFFFFFFFFFFFFFFFFFFF AND DUP2 MSTORE PUSH1 0x20 ADD SWAP1 DUP2 MSTORE PUSH1 0x20 ADD PUSH1 0x0 KECCAK256 PUSH1 0x0 PUSH1 0x1 DUP8 PUSH2 0xF36 SWAP2 SWAP1 PUSH2 0x1F30 JUMP JUMPDEST PUSH1 0xFF AND PUSH1 0xFF AND DUP2 MSTORE PUSH1 0x20 ADD SWAP1 DUP2 MSTORE PUSH1 0x20 ADD PUSH1 0x0 KECCAK256 PUSH1 0x0 SWAP1 SLOAD SWAP1 PUSH2 0x100 EXP SWAP1 DIV PUSH1 0xFF AND JUMPDEST ISZERO PUSH2 0x1A1D JUMPI PUSH1 0x0 DUP2 PUSH20 0xFFFFFFFFFFFFFFFFFFFFFFFFFFFFFFFFFFFFFFFF AND PUSH1 0x64 PUSH1 0x4A PUSH1 0x2 PUSH1 0x0 DUP11 PUSH1 0xFF AND PUSH1 0xFF AND DUP2 MSTORE PUSH1 0x20 ADD SWAP1 DUP2 MSTORE PUSH1 0x20 ADD PUSH1 0x0 KECCAK256 PUSH1 0x1 ADD SLOAD PUSH2 0xFA2 SWAP2 SWAP1 PUSH2 0x1F98 JUMP JUMPDEST PUSH2 0xFAC SWAP2 SWAP1 PUSH2 0x1F67 JUMP JUMPDEST PUSH1 0x40 MLOAD PUSH2 0xFB8 SWAP1 PUSH2 0x1C98 JUMP JUMPDEST PUSH1 0x0 PUSH1 0x40 MLOAD DUP1 DUP4 SUB DUP2 DUP6 DUP8 GAS CALL SWAP3 POP POP POP RETURNDATASIZE DUP1 PUSH1 0x0 DUP2 EQ PUSH2 0xFF5 JUMPI PUSH1 0x40 MLOAD SWAP2 POP PUSH1 0x1F NOT PUSH1 0x3F RETURNDATASIZE ADD AND DUP3 ADD PUSH1 0x40 MSTORE RETURNDATASIZE DUP3 MSTORE RETURNDATASIZE PUSH1 0x0 PUSH1 0x20 DUP5 ADD RETURNDATACOPY PUSH2 0xFFA JUMP JUMPDEST PUSH1 0x60 SWAP2 POP JUMPDEST POP POP SWAP1 POP PUSH1 0x1 PUSH1 0x7 PUSH1 0x0 DUP5 PUSH20 0xFFFFFFFFFFFFFFFFFFFFFFFFFFFFFFFFFFFFFFFF AND PUSH20 0xFFFFFFFFFFFFFFFFFFFFFFFFFFFFFFFFFFFFFFFF AND DUP2 MSTORE PUSH1 0x20 ADD SWAP1 DUP2 MSTORE PUSH1 0x20 ADD PUSH1 0x0 KECCAK256 PUSH1 0x0 DUP9 PUSH1 0xFF AND PUSH1 0xFF AND DUP2 MSTORE PUSH1 0x20 ADD SWAP1 DUP2 MSTORE PUSH1 0x20 ADD PUSH1 0x0 KECCAK256 PUSH1 0x0 DUP3 DUP3 SLOAD PUSH2 0x1065 SWAP2 SWAP1 PUSH2 0x1EDA JUMP JUMPDEST SWAP3 POP POP DUP2 SWAP1 SSTORE POP PUSH32 0xD9FF1D189BD8473F87A70327222795B92238D06F3EDF14FA23403AC2153C10A9 PUSH1 0x2 PUSH1 0x0 DUP9 PUSH1 0xFF AND PUSH1 0xFF AND DUP2 MSTORE PUSH1 0x20 ADD SWAP1 DUP2 MSTORE PUSH1 0x20 ADD PUSH1 0x0 KECCAK256 PUSH1 0x0 ADD PUSH1 0x0 SWAP1 SLOAD SWAP1 PUSH2 0x100 EXP SWAP1 DIV PUSH1 0xFF AND DUP4 DUP4 PUSH1 0x40 MLOAD PUSH2 0x10C8 SWAP4 SWAP3 SWAP2 SWAP1 PUSH2 0x1E19 JUMP JUMPDEST PUSH1 0x40 MLOAD DUP1 SWAP2 SUB SWAP1 LOG1 PUSH1 0x0 PUSH1 0x6 PUSH1 0x0 DUP9 PUSH1 0xFF AND PUSH1 0xFF AND DUP2 MSTORE PUSH1 0x20 ADD SWAP1 DUP2 MSTORE PUSH1 0x20 ADD PUSH1 0x0 KECCAK256 PUSH1 0x0 PUSH1 0x1 DUP7 PUSH2 0x10FA SWAP2 SWAP1 PUSH2 0x1FF2 JUMP JUMPDEST DUP2 MSTORE PUSH1 0x20 ADD SWAP1 DUP2 MSTORE PUSH1 0x20 ADD PUSH1 0x0 KECCAK256 PUSH1 0x0 ADD SLOAD SWAP1 POP PUSH1 0x0 PUSH1 0x6 PUSH1 0x0 DUP10 PUSH1 0xFF AND PUSH1 0xFF AND DUP2 MSTORE PUSH1 0x20 ADD SWAP1 DUP2 MSTORE PUSH1 0x20 ADD PUSH1 0x0 KECCAK256 PUSH1 0x0 PUSH1 0x1 DUP8 PUSH2 0x1138 SWAP2 SWAP1 PUSH2 0x1FF2 JUMP JUMPDEST DUP2 MSTORE PUSH1 0x20 ADD SWAP1 DUP2 MSTORE PUSH1 0x20 ADD PUSH1 0x0 KECCAK256 PUSH1 0x2 ADD SLOAD SWAP1 POP PUSH1 0x0 PUSH1 0x64 PUSH1 0xA PUSH1 0x2 PUSH1 0x0 DUP13 PUSH1 0xFF AND PUSH1 0xFF AND DUP2 MSTORE PUSH1 0x20 ADD SWAP1 DUP2 MSTORE PUSH1 0x20 ADD PUSH1 0x0 KECCAK256 PUSH1 0x1 ADD SLOAD PUSH2 0x1179 SWAP2 SWAP1 PUSH2 0x1F98 JUMP JUMPDEST PUSH2 0x1183 SWAP2 SWAP1 PUSH2 0x1F67 JUMP JUMPDEST SWAP1 POP PUSH1 0x3 PUSH1 0x0 DUP4 DUP2 MSTORE PUSH1 0x20 ADD SWAP1 DUP2 MSTORE PUSH1 0x20 ADD PUSH1 0x0 KECCAK256 PUSH1 0x0 SWAP1 SLOAD SWAP1 PUSH2 0x100 EXP SWAP1 DIV PUSH20 0xFFFFFFFFFFFFFFFFFFFFFFFFFFFFFFFFFFFFFFFF AND PUSH20 0xFFFFFFFFFFFFFFFFFFFFFFFFFFFFFFFFFFFFFFFF AND DUP2 PUSH1 0x40 MLOAD PUSH2 0x11DC SWAP1 PUSH2 0x1C98 JUMP JUMPDEST PUSH1 0x0 PUSH1 0x40 MLOAD DUP1 DUP4 SUB DUP2 DUP6 DUP8 GAS CALL SWAP3 POP POP POP RETURNDATASIZE DUP1 PUSH1 0x0 DUP2 EQ PUSH2 0x1219 JUMPI PUSH1 0x40 MLOAD SWAP2 POP PUSH1 0x1F NOT PUSH1 0x3F RETURNDATASIZE ADD AND DUP3 ADD PUSH1 0x40 MSTORE RETURNDATASIZE DUP3 MSTORE RETURNDATASIZE PUSH1 0x0 PUSH1 0x20 DUP5 ADD RETURNDATACOPY PUSH2 0x121E JUMP JUMPDEST PUSH1 0x60 SWAP2 POP JUMPDEST POP POP DUP1 SWAP5 POP POP DUP4 ISZERO PUSH2 0x1291 JUMPI PUSH32 0xAFE90BC52FC3DD02B2550B825FC68E93B4BFBCB8165BBACDA6CD14B2BAD5BC02 PUSH1 0x2 PUSH1 0x0 DUP12 PUSH1 0xFF AND PUSH1 0xFF AND DUP2 MSTORE PUSH1 0x20 ADD SWAP1 DUP2 MSTORE PUSH1 0x20 ADD PUSH1 0x0 KECCAK256 PUSH1 0x0 ADD PUSH1 0x0 SWAP1 SLOAD SWAP1 PUSH2 0x100 EXP SWAP1 DIV PUSH1 0xFF AND DUP5 DUP5 DUP5 PUSH1 0x40 MLOAD PUSH2 0x1288 SWAP5 SWAP4 SWAP3 SWAP2 SWAP1 PUSH2 0x1E79 JUMP JUMPDEST PUSH1 0x40 MLOAD DUP1 SWAP2 SUB SWAP1 LOG1 JUMPDEST PUSH1 0x64 PUSH1 0x6 PUSH1 0x2 PUSH1 0x0 DUP13 PUSH1 0xFF AND PUSH1 0xFF AND DUP2 MSTORE PUSH1 0x20 ADD SWAP1 DUP2 MSTORE PUSH1 0x20 ADD PUSH1 0x0 KECCAK256 PUSH1 0x1 ADD SLOAD PUSH2 0x12BC SWAP2 SWAP1 PUSH2 0x1F98 JUMP JUMPDEST PUSH2 0x12C6 SWAP2 SWAP1 PUSH2 0x1F67 JUMP JUMPDEST SWAP1 POP PUSH1 0x4 PUSH1 0x0 PUSH1 0x3 PUSH1 0x0 DUP6 DUP2 MSTORE PUSH1 0x20 ADD SWAP1 DUP2 MSTORE PUSH1 0x20 ADD PUSH1 0x0 KECCAK256 PUSH1 0x0 SWAP1 SLOAD SWAP1 PUSH2 0x100 EXP SWAP1 DIV PUSH20 0xFFFFFFFFFFFFFFFFFFFFFFFFFFFFFFFFFFFFFFFF AND PUSH20 0xFFFFFFFFFFFFFFFFFFFFFFFFFFFFFFFFFFFFFFFF AND PUSH20 0xFFFFFFFFFFFFFFFFFFFFFFFFFFFFFFFFFFFFFFFF AND DUP2 MSTORE PUSH1 0x20 ADD SWAP1 DUP2 MSTORE PUSH1 0x20 ADD PUSH1 0x0 KECCAK256 PUSH1 0x1 ADD PUSH1 0x0 SWAP1 SLOAD SWAP1 PUSH2 0x100 EXP SWAP1 DIV PUSH20 0xFFFFFFFFFFFFFFFFFFFFFFFFFFFFFFFFFFFFFFFF AND PUSH20 0xFFFFFFFFFFFFFFFFFFFFFFFFFFFFFFFFFFFFFFFF AND DUP2 PUSH1 0x40 MLOAD PUSH2 0x1381 SWAP1 PUSH2 0x1C98 JUMP JUMPDEST PUSH1 0x0 PUSH1 0x40 MLOAD DUP1 DUP4 SUB DUP2 DUP6 DUP8 GAS CALL SWAP3 POP POP POP RETURNDATASIZE DUP1 PUSH1 0x0 DUP2 EQ PUSH2 0x13BE JUMPI PUSH1 0x40 MLOAD SWAP2 POP PUSH1 0x1F NOT PUSH1 0x3F RETURNDATASIZE ADD AND DUP3 ADD PUSH1 0x40 MSTORE RETURNDATASIZE DUP3 MSTORE RETURNDATASIZE PUSH1 0x0 PUSH1 0x20 DUP5 ADD RETURNDATACOPY PUSH2 0x13C3 JUMP JUMPDEST PUSH1 0x60 SWAP2 POP JUMPDEST POP POP DUP1 SWAP5 POP POP DUP4 ISZERO PUSH2 0x14AB JUMPI PUSH32 0xAFE90BC52FC3DD02B2550B825FC68E93B4BFBCB8165BBACDA6CD14B2BAD5BC02 PUSH1 0x2 PUSH1 0x0 DUP12 PUSH1 0xFF AND PUSH1 0xFF AND DUP2 MSTORE PUSH1 0x20 ADD SWAP1 DUP2 MSTORE PUSH1 0x20 ADD PUSH1 0x0 KECCAK256 PUSH1 0x0 ADD PUSH1 0x0 SWAP1 SLOAD SWAP1 PUSH2 0x100 EXP SWAP1 DIV PUSH1 0xFF AND DUP4 PUSH1 0x4 PUSH1 0x0 PUSH1 0x3 PUSH1 0x0 DUP9 DUP2 MSTORE PUSH1 0x20 ADD SWAP1 DUP2 MSTORE PUSH1 0x20 ADD PUSH1 0x0 KECCAK256 PUSH1 0x0 SWAP1 SLOAD SWAP1 PUSH2 0x100 EXP SWAP1 DIV PUSH20 0xFFFFFFFFFFFFFFFFFFFFFFFFFFFFFFFFFFFFFFFF AND PUSH20 0xFFFFFFFFFFFFFFFFFFFFFFFFFFFFFFFFFFFFFFFF AND PUSH20 0xFFFFFFFFFFFFFFFFFFFFFFFFFFFFFFFFFFFFFFFF AND DUP2 MSTORE PUSH1 0x20 ADD SWAP1 DUP2 MSTORE PUSH1 0x20 ADD PUSH1 0x0 KECCAK256 PUSH1 0x0 ADD SLOAD DUP5 PUSH1 0x40 MLOAD PUSH2 0x14A2 SWAP5 SWAP4 SWAP3 SWAP2 SWAP1 PUSH2 0x1E79 JUMP JUMPDEST PUSH1 0x40 MLOAD DUP1 SWAP2 SUB SWAP1 LOG1 JUMPDEST PUSH1 0x64 PUSH1 0x4 PUSH1 0x2 PUSH1 0x0 DUP13 PUSH1 0xFF AND PUSH1 0xFF AND DUP2 MSTORE PUSH1 0x20 ADD SWAP1 DUP2 MSTORE PUSH1 0x20 ADD PUSH1 0x0 KECCAK256 PUSH1 0x1 ADD SLOAD PUSH2 0x14D6 SWAP2 SWAP1 PUSH2 0x1F98 JUMP JUMPDEST PUSH2 0x14E0 SWAP2 SWAP1 PUSH2 0x1F67 JUMP JUMPDEST SWAP1 POP PUSH1 0x4 PUSH1 0x0 PUSH1 0x3 PUSH1 0x0 PUSH1 0x4 PUSH1 0x0 PUSH1 0x3 PUSH1 0x0 DUP10 DUP2 MSTORE PUSH1 0x20 ADD SWAP1 DUP2 MSTORE PUSH1 0x20 ADD PUSH1 0x0 KECCAK256 PUSH1 0x0 SWAP1 SLOAD SWAP1 PUSH2 0x100 EXP SWAP1 DIV PUSH20 0xFFFFFFFFFFFFFFFFFFFFFFFFFFFFFFFFFFFFFFFF AND PUSH20 0xFFFFFFFFFFFFFFFFFFFFFFFFFFFFFFFFFFFFFFFF AND PUSH20 0xFFFFFFFFFFFFFFFFFFFFFFFFFFFFFFFFFFFFFFFF AND DUP2 MSTORE PUSH1 0x20 ADD SWAP1 DUP2 MSTORE PUSH1 0x20 ADD PUSH1 0x0 KECCAK256 PUSH1 0x0 ADD SLOAD DUP2 MSTORE PUSH1 0x20 ADD SWAP1 DUP2 MSTORE PUSH1 0x20 ADD PUSH1 0x0 KECCAK256 PUSH1 0x0 SWAP1 SLOAD SWAP1 PUSH2 0x100 EXP SWAP1 DIV PUSH20 0xFFFFFFFFFFFFFFFFFFFFFFFFFFFFFFFFFFFFFFFF AND PUSH20 0xFFFFFFFFFFFFFFFFFFFFFFFFFFFFFFFFFFFFFFFF AND PUSH20 0xFFFFFFFFFFFFFFFFFFFFFFFFFFFFFFFFFFFFFFFF AND DUP2 MSTORE PUSH1 0x20 ADD SWAP1 DUP2 MSTORE PUSH1 0x20 ADD PUSH1 0x0 KECCAK256 PUSH1 0x1 ADD PUSH1 0x0 SWAP1 SLOAD SWAP1 PUSH2 0x100 EXP SWAP1 DIV PUSH20 0xFFFFFFFFFFFFFFFFFFFFFFFFFFFFFFFFFFFFFFFF AND PUSH20 0xFFFFFFFFFFFFFFFFFFFFFFFFFFFFFFFFFFFFFFFF AND DUP2 PUSH1 0x40 MLOAD PUSH2 0x1610 SWAP1 PUSH2 0x1C98 JUMP JUMPDEST PUSH1 0x0 PUSH1 0x40 MLOAD DUP1 DUP4 SUB DUP2 DUP6 DUP8 GAS CALL SWAP3 POP POP POP RETURNDATASIZE DUP1 PUSH1 0x0 DUP2 EQ PUSH2 0x164D JUMPI PUSH1 0x40 MLOAD SWAP2 POP PUSH1 0x1F NOT PUSH1 0x3F RETURNDATASIZE ADD AND DUP3 ADD PUSH1 0x40 MSTORE RETURNDATASIZE DUP3 MSTORE RETURNDATASIZE PUSH1 0x0 PUSH1 0x20 DUP5 ADD RETURNDATACOPY PUSH2 0x1652 JUMP JUMPDEST PUSH1 0x60 SWAP2 POP JUMPDEST POP POP DUP1 SWAP5 POP POP DUP4 ISZERO PUSH2 0x1824 JUMPI PUSH32 0xAFE90BC52FC3DD02B2550B825FC68E93B4BFBCB8165BBACDA6CD14B2BAD5BC02 PUSH1 0x2 PUSH1 0x0 DUP12 PUSH1 0xFF AND PUSH1 0xFF AND DUP2 MSTORE PUSH1 0x20 ADD SWAP1 DUP2 MSTORE PUSH1 0x20 ADD PUSH1 0x0 KECCAK256 PUSH1 0x0 ADD PUSH1 0x0 SWAP1 SLOAD SWAP1 PUSH2 0x100 EXP SWAP1 DIV PUSH1 0xFF AND PUSH1 0x4 PUSH1 0x0 PUSH1 0x3 PUSH1 0x0 DUP8 DUP2 MSTORE PUSH1 0x20 ADD SWAP1 DUP2 MSTORE PUSH1 0x20 ADD PUSH1 0x0 KECCAK256 PUSH1 0x0 SWAP1 SLOAD SWAP1 PUSH2 0x100 EXP SWAP1 DIV PUSH20 0xFFFFFFFFFFFFFFFFFFFFFFFFFFFFFFFFFFFFFFFF AND PUSH20 0xFFFFFFFFFFFFFFFFFFFFFFFFFFFFFFFFFFFFFFFF AND PUSH20 0xFFFFFFFFFFFFFFFFFFFFFFFFFFFFFFFFFFFFFFFF AND DUP2 MSTORE PUSH1 0x20 ADD SWAP1 DUP2 MSTORE PUSH1 0x20 ADD PUSH1 0x0 KECCAK256 PUSH1 0x0 ADD SLOAD PUSH1 0x4 PUSH1 0x0 PUSH1 0x3 PUSH1 0x0 PUSH1 0x4 PUSH1 0x0 PUSH1 0x3 PUSH1 0x0 DUP13 DUP2 MSTORE PUSH1 0x20 ADD SWAP1 DUP2 MSTORE PUSH1 0x20 ADD PUSH1 0x0 KECCAK256 PUSH1 0x0 SWAP1 SLOAD SWAP1 PUSH2 0x100 EXP SWAP1 DIV PUSH20 0xFFFFFFFFFFFFFFFFFFFFFFFFFFFFFFFFFFFFFFFF AND PUSH20 0xFFFFFFFFFFFFFFFFFFFFFFFFFFFFFFFFFFFFFFFF AND PUSH20 0xFFFFFFFFFFFFFFFFFFFFFFFFFFFFFFFFFFFFFFFF AND DUP2 MSTORE PUSH1 0x20 ADD SWAP1 DUP2 MSTORE PUSH1 0x20 ADD PUSH1 0x0 KECCAK256 PUSH1 0x0 ADD SLOAD DUP2 MSTORE PUSH1 0x20 ADD SWAP1 DUP2 MSTORE PUSH1 0x20 ADD PUSH1 0x0 KECCAK256 PUSH1 0x0 SWAP1 SLOAD SWAP1 PUSH2 0x100 EXP SWAP1 DIV PUSH20 0xFFFFFFFFFFFFFFFFFFFFFFFFFFFFFFFFFFFFFFFF AND PUSH20 0xFFFFFFFFFFFFFFFFFFFFFFFFFFFFFFFFFFFFFFFF AND PUSH20 0xFFFFFFFFFFFFFFFFFFFFFFFFFFFFFFFFFFFFFFFF AND DUP2 MSTORE PUSH1 0x20 ADD SWAP1 DUP2 MSTORE PUSH1 0x20 ADD PUSH1 0x0 KECCAK256 PUSH1 0x0 ADD SLOAD DUP5 PUSH1 0x40 MLOAD PUSH2 0x181B SWAP5 SWAP4 SWAP3 SWAP2 SWAP1 PUSH2 0x1E79 JUMP JUMPDEST PUSH1 0x40 MLOAD DUP1 SWAP2 SUB SWAP1 LOG1 JUMPDEST PUSH1 0x64 PUSH1 0x6 PUSH1 0x2 PUSH1 0x0 DUP13 PUSH1 0xFF AND PUSH1 0xFF AND DUP2 MSTORE PUSH1 0x20 ADD SWAP1 DUP2 MSTORE PUSH1 0x20 ADD PUSH1 0x0 KECCAK256 PUSH1 0x1 ADD SLOAD PUSH2 0x184F SWAP2 SWAP1 PUSH2 0x1F98 JUMP JUMPDEST PUSH2 0x1859 SWAP2 SWAP1 PUSH2 0x1F67 JUMP JUMPDEST SWAP1 POP PUSH1 0x4 PUSH1 0x0 PUSH1 0x1 DUP1 SLOAD SWAP1 PUSH2 0x100 EXP SWAP1 DIV PUSH20 0xFFFFFFFFFFFFFFFFFFFFFFFFFFFFFFFFFFFFFFFF AND PUSH20 0xFFFFFFFFFFFFFFFFFFFFFFFFFFFFFFFFFFFFFFFF AND PUSH20 0xFFFFFFFFFFFFFFFFFFFFFFFFFFFFFFFFFFFFFFFF AND DUP2 MSTORE PUSH1 0x20 ADD SWAP1 DUP2 MSTORE PUSH1 0x20 ADD PUSH1 0x0 KECCAK256 PUSH1 0x1 ADD PUSH1 0x0 SWAP1 SLOAD SWAP1 PUSH2 0x100 EXP SWAP1 DIV PUSH20 0xFFFFFFFFFFFFFFFFFFFFFFFFFFFFFFFFFFFFFFFF AND PUSH20 0xFFFFFFFFFFFFFFFFFFFFFFFFFFFFFFFFFFFFFFFF AND DUP2 PUSH1 0x40 MLOAD PUSH2 0x1901 SWAP1 PUSH2 0x1C98 JUMP JUMPDEST PUSH1 0x0 PUSH1 0x40 MLOAD DUP1 DUP4 SUB DUP2 DUP6 DUP8 GAS CALL SWAP3 POP POP POP RETURNDATASIZE DUP1 PUSH1 0x0 DUP2 EQ PUSH2 0x193E JUMPI PUSH1 0x40 MLOAD SWAP2 POP PUSH1 0x1F NOT PUSH1 0x3F RETURNDATASIZE ADD AND DUP3 ADD PUSH1 0x40 MSTORE RETURNDATASIZE DUP3 MSTORE RETURNDATASIZE PUSH1 0x0 PUSH1 0x20 DUP5 ADD RETURNDATACOPY PUSH2 0x1943 JUMP JUMPDEST PUSH1 0x60 SWAP2 POP JUMPDEST POP POP DUP1 SWAP5 POP POP DUP4 ISZERO PUSH2 0x1A18 JUMPI PUSH32 0xAFE90BC52FC3DD02B2550B825FC68E93B4BFBCB8165BBACDA6CD14B2BAD5BC02 PUSH1 0x2 PUSH1 0x0 DUP12 PUSH1 0xFF AND PUSH1 0xFF AND DUP2 MSTORE PUSH1 0x20 ADD SWAP1 DUP2 MSTORE PUSH1 0x20 ADD PUSH1 0x0 KECCAK256 PUSH1 0x0 ADD PUSH1 0x0 SWAP1 SLOAD SWAP1 PUSH2 0x100 EXP SWAP1 DIV PUSH1 0xFF AND DUP5 PUSH1 0x4 PUSH1 0x0 PUSH1 0x1 DUP1 SLOAD SWAP1 PUSH2 0x100 EXP SWAP1 DIV PUSH20 0xFFFFFFFFFFFFFFFFFFFFFFFFFFFFFFFFFFFFFFFF AND PUSH20 0xFFFFFFFFFFFFFFFFFFFFFFFFFFFFFFFFFFFFFFFF AND PUSH20 0xFFFFFFFFFFFFFFFFFFFFFFFFFFFFFFFFFFFFFFFF AND DUP2 MSTORE PUSH1 0x20 ADD SWAP1 DUP2 MSTORE PUSH1 0x20 ADD PUSH1 0x0 KECCAK256 PUSH1 0x0 ADD SLOAD DUP5 PUSH1 0x40 MLOAD PUSH2 0x1A0F SWAP5 SWAP4 SWAP3 SWAP2 SWAP1 PUSH2 0x1E79 JUMP JUMPDEST PUSH1 0x40 MLOAD DUP1 SWAP2 SUB SWAP1 LOG1 JUMPDEST POP POP POP POP JUMPDEST PUSH2 0x1A26 DUP3 PUSH2 0x904 JUMP JUMPDEST SWAP2 POP POP PUSH2 0xE21 JUMP JUMPDEST POP JUMPDEST POP POP POP JUMP JUMPDEST PUSH1 0x0 DUP2 CALLDATALOAD SWAP1 POP PUSH2 0x1A44 DUP2 PUSH2 0x229B JUMP JUMPDEST SWAP3 SWAP2 POP POP JUMP JUMPDEST PUSH1 0x0 DUP2 CALLDATALOAD SWAP1 POP PUSH2 0x1A59 DUP2 PUSH2 0x22B2 JUMP JUMPDEST SWAP3 SWAP2 POP POP JUMP JUMPDEST PUSH1 0x0 DUP2 CALLDATALOAD SWAP1 POP PUSH2 0x1A6E DUP2 PUSH2 0x22C9 JUMP JUMPDEST SWAP3 SWAP2 POP POP JUMP JUMPDEST PUSH1 0x0 PUSH1 0x20 DUP3 DUP5 SUB SLT ISZERO PUSH2 0x1A8A JUMPI PUSH2 0x1A89 PUSH2 0x217A JUMP JUMPDEST JUMPDEST PUSH1 0x0 PUSH2 0x1A98 DUP5 DUP3 DUP6 ADD PUSH2 0x1A35 JUMP JUMPDEST SWAP2 POP POP SWAP3 SWAP2 POP POP JUMP JUMPDEST PUSH1 0x0 DUP1 PUSH1 0x40 DUP4 DUP6 SUB SLT ISZERO PUSH2 0x1AB8 JUMPI PUSH2 0x1AB7 PUSH2 0x217A JUMP JUMPDEST JUMPDEST PUSH1 0x0 PUSH2 0x1AC6 DUP6 DUP3 DUP7 ADD PUSH2 0x1A35 JUMP JUMPDEST SWAP3 POP POP PUSH1 0x20 PUSH2 0x1AD7 DUP6 DUP3 DUP7 ADD PUSH2 0x1A5F JUMP JUMPDEST SWAP2 POP POP SWAP3 POP SWAP3 SWAP1 POP JUMP JUMPDEST PUSH1 0x0 PUSH1 0x20 DUP3 DUP5 SUB SLT ISZERO PUSH2 0x1AF7 JUMPI PUSH2 0x1AF6 PUSH2 0x217A JUMP JUMPDEST JUMPDEST PUSH1 0x0 PUSH2 0x1B05 DUP5 DUP3 DUP6 ADD PUSH2 0x1A4A JUMP JUMPDEST SWAP2 POP POP SWAP3 SWAP2 POP POP JUMP JUMPDEST PUSH1 0x0 PUSH1 0x20 DUP3 DUP5 SUB SLT ISZERO PUSH2 0x1B24 JUMPI PUSH2 0x1B23 PUSH2 0x217A JUMP JUMPDEST JUMPDEST PUSH1 0x0 PUSH2 0x1B32 DUP5 DUP3 DUP6 ADD PUSH2 0x1A5F JUMP JUMPDEST SWAP2 POP POP SWAP3 SWAP2 POP POP JUMP JUMPDEST PUSH1 0x0 DUP1 PUSH1 0x40 DUP4 DUP6 SUB SLT ISZERO PUSH2 0x1B52 JUMPI PUSH2 0x1B51 PUSH2 0x217A JUMP JUMPDEST JUMPDEST PUSH1 0x0 PUSH2 0x1B60 DUP6 DUP3 DUP7 ADD PUSH2 0x1A5F JUMP JUMPDEST SWAP3 POP POP PUSH1 0x20 PUSH2 0x1B71 DUP6 DUP3 DUP7 ADD PUSH2 0x1A4A JUMP JUMPDEST SWAP2 POP POP SWAP3 POP SWAP3 SWAP1 POP JUMP JUMPDEST PUSH2 0x1B84 DUP2 PUSH2 0x206C JUMP JUMPDEST DUP3 MSTORE POP POP JUMP JUMPDEST PUSH2 0x1B93 DUP2 PUSH2 0x205A JUMP JUMPDEST DUP3 MSTORE POP POP JUMP JUMPDEST PUSH2 0x1BA2 DUP2 PUSH2 0x207E JUMP JUMPDEST DUP3 MSTORE POP POP JUMP JUMPDEST PUSH1 0x0 PUSH2 0x1BB5 PUSH1 0xE DUP4 PUSH2 0x1EC9 JUMP JUMPDEST SWAP2 POP PUSH2 0x1BC0 DUP3 PUSH2 0x217F JUMP JUMPDEST PUSH1 0x20 DUP3 ADD SWAP1 POP SWAP2 SWAP1 POP JUMP JUMPDEST PUSH1 0x0 PUSH2 0x1BD8 PUSH1 0x1A DUP4 PUSH2 0x1EC9 JUMP JUMPDEST SWAP2 POP PUSH2 0x1BE3 DUP3 PUSH2 0x21A8 JUMP JUMPDEST PUSH1 0x20 DUP3 ADD SWAP1 POP SWAP2 SWAP1 POP JUMP JUMPDEST PUSH1 0x0 PUSH2 0x1BFB PUSH1 0x0 DUP4 PUSH2 0x1EBE JUMP JUMPDEST SWAP2 POP PUSH2 0x1C06 DUP3 PUSH2 0x21D1 JUMP JUMPDEST PUSH1 0x0 DUP3 ADD SWAP1 POP SWAP2 SWAP1 POP JUMP JUMPDEST PUSH1 0x0 PUSH2 0x1C1E PUSH1 0x23 DUP4 PUSH2 0x1EC9 JUMP JUMPDEST SWAP2 POP PUSH2 0x1C29 DUP3 PUSH2 0x21D4 JUMP JUMPDEST PUSH1 0x40 DUP3 ADD SWAP1 POP SWAP2 SWAP1 POP JUMP JUMPDEST PUSH1 0x0 PUSH2 0x1C41 PUSH1 0x28 DUP4 PUSH2 0x1EC9 JUMP JUMPDEST SWAP2 POP PUSH2 0x1C4C DUP3 PUSH2 0x2223 JUMP JUMPDEST PUSH1 0x40 DUP3 ADD SWAP1 POP SWAP2 SWAP1 POP JUMP JUMPDEST PUSH1 0x0 PUSH2 0x1C64 PUSH1 0xC DUP4 PUSH2 0x1EC9 JUMP JUMPDEST SWAP2 POP PUSH2 0x1C6F DUP3 PUSH2 0x2272 JUMP JUMPDEST PUSH1 0x20 DUP3 ADD SWAP1 POP SWAP2 SWAP1 POP JUMP JUMPDEST PUSH2 0x1C83 DUP2 PUSH2 0x20AA JUMP JUMPDEST DUP3 MSTORE POP POP JUMP JUMPDEST PUSH2 0x1C92 DUP2 PUSH2 0x20B4 JUMP JUMPDEST DUP3 MSTORE POP POP JUMP JUMPDEST PUSH1 0x0 PUSH2 0x1CA3 DUP3 PUSH2 0x1BEE JUMP JUMPDEST SWAP2 POP DUP2 SWAP1 POP SWAP2 SWAP1 POP JUMP JUMPDEST PUSH1 0x0 PUSH1 0x20 DUP3 ADD SWAP1 POP PUSH2 0x1CC2 PUSH1 0x0 DUP4 ADD DUP5 PUSH2 0x1B8A JUMP JUMPDEST SWAP3 SWAP2 POP POP JUMP JUMPDEST PUSH1 0x0 PUSH1 0x20 DUP3 ADD SWAP1 POP PUSH2 0x1CDD PUSH1 0x0 DUP4 ADD DUP5 PUSH2 0x1B99 JUMP JUMPDEST SWAP3 SWAP2 POP POP JUMP JUMPDEST PUSH1 0x0 PUSH1 0x20 DUP3 ADD SWAP1 POP DUP2 DUP2 SUB PUSH1 0x0 DUP4 ADD MSTORE PUSH2 0x1CFC DUP2 PUSH2 0x1BA8 JUMP JUMPDEST SWAP1 POP SWAP2 SWAP1 POP JUMP JUMPDEST PUSH1 0x0 PUSH1 0x20 DUP3 ADD SWAP1 POP DUP2 DUP2 SUB PUSH1 0x0 DUP4 ADD MSTORE PUSH2 0x1D1C DUP2 PUSH2 0x1BCB JUMP JUMPDEST SWAP1 POP SWAP2 SWAP1 POP JUMP JUMPDEST PUSH1 0x0 PUSH1 0x20 DUP3 ADD SWAP1 POP DUP2 DUP2 SUB PUSH1 0x0 DUP4 ADD MSTORE PUSH2 0x1D3C DUP2 PUSH2 0x1C11 JUMP JUMPDEST SWAP1 POP SWAP2 SWAP1 POP JUMP JUMPDEST PUSH1 0x0 PUSH1 0x20 DUP3 ADD SWAP1 POP DUP2 DUP2 SUB PUSH1 0x0 DUP4 ADD MSTORE PUSH2 0x1D5C DUP2 PUSH2 0x1C34 JUMP JUMPDEST SWAP1 POP SWAP2 SWAP1 POP JUMP JUMPDEST PUSH1 0x0 PUSH1 0x20 DUP3 ADD SWAP1 POP DUP2 DUP2 SUB PUSH1 0x0 DUP4 ADD MSTORE PUSH2 0x1D7C DUP2 PUSH2 0x1C57 JUMP JUMPDEST SWAP1 POP SWAP2 SWAP1 POP JUMP JUMPDEST PUSH1 0x0 PUSH1 0x20 DUP3 ADD SWAP1 POP PUSH2 0x1D98 PUSH1 0x0 DUP4 ADD DUP5 PUSH2 0x1C7A JUMP JUMPDEST SWAP3 SWAP2 POP POP JUMP JUMPDEST PUSH1 0x0 PUSH1 0x60 DUP3 ADD SWAP1 POP PUSH2 0x1DB3 PUSH1 0x0 DUP4 ADD DUP7 PUSH2 0x1C7A JUMP JUMPDEST PUSH2 0x1DC0 PUSH1 0x20 DUP4 ADD DUP6 PUSH2 0x1B7B JUMP JUMPDEST PUSH2 0x1DCD PUSH1 0x40 DUP4 ADD DUP5 PUSH2 0x1C7A JUMP JUMPDEST SWAP5 SWAP4 POP POP POP POP JUMP JUMPDEST PUSH1 0x0 PUSH1 0x40 DUP3 ADD SWAP1 POP PUSH2 0x1DEA PUSH1 0x0 DUP4 ADD DUP6 PUSH2 0x1C7A JUMP JUMPDEST PUSH2 0x1DF7 PUSH1 0x20 DUP4 ADD DUP5 PUSH2 0x1C7A JUMP JUMPDEST SWAP4 SWAP3 POP POP POP JUMP JUMPDEST PUSH1 0x0 PUSH1 0x20 DUP3 ADD SWAP1 POP PUSH2 0x1E13 PUSH1 0x0 DUP4 ADD DUP5 PUSH2 0x1C89 JUMP JUMPDEST SWAP3 SWAP2 POP POP JUMP JUMPDEST PUSH1 0x0 PUSH1 0x60 DUP3 ADD SWAP1 POP PUSH2 0x1E2E PUSH1 0x0 DUP4 ADD DUP7 PUSH2 0x1C89 JUMP JUMPDEST PUSH2 0x1E3B PUSH1 0x20 DUP4 ADD DUP6 PUSH2 0x1B8A JUMP JUMPDEST PUSH2 0x1E48 PUSH1 0x40 DUP4 ADD DUP5 PUSH2 0x1B99 JUMP JUMPDEST SWAP5 SWAP4 POP POP POP POP JUMP JUMPDEST PUSH1 0x0 PUSH1 0x40 DUP3 ADD SWAP1 POP PUSH2 0x1E65 PUSH1 0x0 DUP4 ADD DUP6 PUSH2 0x1C89 JUMP JUMPDEST PUSH2 0x1E72 PUSH1 0x20 DUP4 ADD DUP5 PUSH2 0x1C7A JUMP JUMPDEST SWAP4 SWAP3 POP POP POP JUMP JUMPDEST PUSH1 0x0 PUSH1 0x80 DUP3 ADD SWAP1 POP PUSH2 0x1E8E PUSH1 0x0 DUP4 ADD DUP8 PUSH2 0x1C89 JUMP JUMPDEST PUSH2 0x1E9B PUSH1 0x20 DUP4 ADD DUP7 PUSH2 0x1C7A JUMP JUMPDEST PUSH2 0x1EA8 PUSH1 0x40 DUP4 ADD DUP6 PUSH2 0x1C7A JUMP JUMPDEST PUSH2 0x1EB5 PUSH1 0x60 DUP4 ADD DUP5 PUSH2 0x1C7A JUMP JUMPDEST SWAP6 SWAP5 POP POP POP POP POP JUMP JUMPDEST PUSH1 0x0 DUP2 SWAP1 POP SWAP3 SWAP2 POP POP JUMP JUMPDEST PUSH1 0x0 DUP3 DUP3 MSTORE PUSH1 0x20 DUP3 ADD SWAP1 POP SWAP3 SWAP2 POP POP JUMP JUMPDEST PUSH1 0x0 PUSH2 0x1EE5 DUP3 PUSH2 0x20AA JUMP JUMPDEST SWAP2 POP PUSH2 0x1EF0 DUP4 PUSH2 0x20AA JUMP JUMPDEST SWAP3 POP DUP3 PUSH32 0xFFFFFFFFFFFFFFFFFFFFFFFFFFFFFFFFFFFFFFFFFFFFFFFFFFFFFFFFFFFFFFFF SUB DUP3 GT ISZERO PUSH2 0x1F25 JUMPI PUSH2 0x1F24 PUSH2 0x211C JUMP JUMPDEST JUMPDEST DUP3 DUP3 ADD SWAP1 POP SWAP3 SWAP2 POP POP JUMP JUMPDEST PUSH1 0x0 PUSH2 0x1F3B DUP3 PUSH2 0x20B4 JUMP JUMPDEST SWAP2 POP PUSH2 0x1F46 DUP4 PUSH2 0x20B4 JUMP JUMPDEST SWAP3 POP DUP3 PUSH1 0xFF SUB DUP3 GT ISZERO PUSH2 0x1F5C JUMPI PUSH2 0x1F5B PUSH2 0x211C JUMP JUMPDEST JUMPDEST DUP3 DUP3 ADD SWAP1 POP SWAP3 SWAP2 POP POP JUMP JUMPDEST PUSH1 0x0 PUSH2 0x1F72 DUP3 PUSH2 0x20AA JUMP JUMPDEST SWAP2 POP PUSH2 0x1F7D DUP4 PUSH2 0x20AA JUMP JUMPDEST SWAP3 POP DUP3 PUSH2 0x1F8D JUMPI PUSH2 0x1F8C PUSH2 0x214B JUMP JUMPDEST JUMPDEST DUP3 DUP3 DIV SWAP1 POP SWAP3 SWAP2 POP POP JUMP JUMPDEST PUSH1 0x0 PUSH2 0x1FA3 DUP3 PUSH2 0x20AA JUMP JUMPDEST SWAP2 POP PUSH2 0x1FAE DUP4 PUSH2 0x20AA JUMP JUMPDEST SWAP3 POP DUP2 PUSH32 0xFFFFFFFFFFFFFFFFFFFFFFFFFFFFFFFFFFFFFFFFFFFFFFFFFFFFFFFFFFFFFFFF DIV DUP4 GT DUP3 ISZERO ISZERO AND ISZERO PUSH2 0x1FE7 JUMPI PUSH2 0x1FE6 PUSH2 0x211C JUMP JUMPDEST JUMPDEST DUP3 DUP3 MUL SWAP1 POP SWAP3 SWAP2 POP POP JUMP JUMPDEST PUSH1 0x0 PUSH2 0x1FFD DUP3 PUSH2 0x20AA JUMP JUMPDEST SWAP2 POP PUSH2 0x2008 DUP4 PUSH2 0x20AA JUMP JUMPDEST SWAP3 POP DUP3 DUP3 LT ISZERO PUSH2 0x201B JUMPI PUSH2 0x201A PUSH2 0x211C JUMP JUMPDEST JUMPDEST DUP3 DUP3 SUB SWAP1 POP SWAP3 SWAP2 POP POP JUMP JUMPDEST PUSH1 0x0 PUSH2 0x2031 DUP3 PUSH2 0x20B4 JUMP JUMPDEST SWAP2 POP PUSH2 0x203C DUP4 PUSH2 0x20B4 JUMP JUMPDEST SWAP3 POP DUP3 DUP3 LT ISZERO PUSH2 0x204F JUMPI PUSH2 0x204E PUSH2 0x211C JUMP JUMPDEST JUMPDEST DUP3 DUP3 SUB SWAP1 POP SWAP3 SWAP2 POP POP JUMP JUMPDEST PUSH1 0x0 PUSH2 0x2065 DUP3 PUSH2 0x208A JUMP JUMPDEST SWAP1 POP SWAP2 SWAP1 POP JUMP JUMPDEST PUSH1 0x0 PUSH2 0x2077 DUP3 PUSH2 0x208A JUMP JUMPDEST SWAP1 POP SWAP2 SWAP1 POP JUMP JUMPDEST PUSH1 0x0 DUP2 ISZERO ISZERO SWAP1 POP SWAP2 SWAP1 POP JUMP JUMPDEST PUSH1 0x0 PUSH20 0xFFFFFFFFFFFFFFFFFFFFFFFFFFFFFFFFFFFFFFFF DUP3 AND SWAP1 POP SWAP2 SWAP1 POP JUMP JUMPDEST PUSH1 0x0 DUP2 SWAP1 POP SWAP2 SWAP1 POP JUMP JUMPDEST PUSH1 0x0 PUSH1 0xFF DUP3 AND SWAP1 POP SWAP2 SWAP1 POP JUMP JUMPDEST PUSH1 0x0 PUSH2 0x20CC DUP3 PUSH2 0x20B4 JUMP JUMPDEST SWAP2 POP PUSH1 0xFF DUP3 EQ ISZERO PUSH2 0x20E0 JUMPI PUSH2 0x20DF PUSH2 0x211C JUMP JUMPDEST JUMPDEST PUSH1 0x1 DUP3 ADD SWAP1 POP SWAP2 SWAP1 POP JUMP JUMPDEST PUSH1 0x0 PUSH2 0x20F6 DUP3 PUSH2 0x20AA JUMP JUMPDEST SWAP2 POP PUSH2 0x2101 DUP4 PUSH2 0x20AA JUMP JUMPDEST SWAP3 POP DUP3 PUSH2 0x2111 JUMPI PUSH2 0x2110 PUSH2 0x214B JUMP JUMPDEST JUMPDEST DUP3 DUP3 MOD SWAP1 POP SWAP3 SWAP2 POP POP JUMP JUMPDEST PUSH32 0x4E487B7100000000000000000000000000000000000000000000000000000000 PUSH1 0x0 MSTORE PUSH1 0x11 PUSH1 0x4 MSTORE PUSH1 0x24 PUSH1 0x0 REVERT JUMPDEST PUSH32 0x4E487B7100000000000000000000000000000000000000000000000000000000 PUSH1 0x0 MSTORE PUSH1 0x12 PUSH1 0x4 MSTORE PUSH1 0x24 PUSH1 0x0 REVERT JUMPDEST PUSH1 0x0 DUP1 REVERT JUMPDEST PUSH32 0x47616D65206E6F7420666F756E64000000000000000000000000000000000000 PUSH1 0x0 DUP3 ADD MSTORE POP JUMP JUMPDEST PUSH32 0x596F752061726520616C72656164792072656769737465726564000000000000 PUSH1 0x0 DUP3 ADD MSTORE POP JUMP JUMPDEST POP JUMP JUMPDEST PUSH32 0x496E73756666696369656E7420616D6F756E74206F6620636F6E747269627574 PUSH1 0x0 DUP3 ADD MSTORE PUSH32 0x696F6E0000000000000000000000000000000000000000000000000000000000 PUSH1 0x20 DUP3 ADD MSTORE POP JUMP JUMPDEST PUSH32 0x466F72207265676974657220696E2067616D6520796F75206E65656420706179 PUSH1 0x0 DUP3 ADD MSTORE PUSH32 0x2031206574686572000000000000000000000000000000000000000000000000 PUSH1 0x20 DUP3 ADD MSTORE POP JUMP JUMPDEST PUSH32 0x4E6F20636F6E7472616374730000000000000000000000000000000000000000 PUSH1 0x0 DUP3 ADD MSTORE POP JUMP JUMPDEST PUSH2 0x22A4 DUP2 PUSH2 0x205A JUMP JUMPDEST DUP2 EQ PUSH2 0x22AF JUMPI PUSH1 0x0 DUP1 REVERT JUMPDEST POP JUMP JUMPDEST PUSH2 0x22BB DUP2 PUSH2 0x20AA JUMP JUMPDEST DUP2 EQ PUSH2 0x22C6 JUMPI PUSH1 0x0 DUP1 REVERT JUMPDEST POP JUMP JUMPDEST PUSH2 0x22D2 DUP2 PUSH2 0x20B4 JUMP JUMPDEST DUP2 EQ PUSH2 0x22DD JUMPI PUSH1 0x0 DUP1 REVERT JUMPDEST POP JUMP INVALID LOG2 PUSH5 0x6970667358 0x22 SLT KECCAK256 0x5C 0xB7 0xDB SHL 0xAC CODECOPY EXTCODECOPY SWAP8 0xED PUSH31 0x1057F84F6C39A1C404B85B7CAECD474A8B8FD2C070FD64736F6C6343000807 STOP CALLER "
				},
				"gasEstimates": {
					"creation": {
						"codeDepositCost": "1796400",
						"executionCost": "infinite",
						"totalCost": "infinite"
					},
					"external": {
						"": "infinite",
						"addGameLevel(uint256)": "infinite",
						"culcNextWinnerIndex(uint256)": "infinite",
						"currentGameIdIndex()": "2493",
						"currentUserIdIndex()": "2518",
						"currentUserIndex(uint8)": "2860",
						"getUserBalance(address)": "3324",
						"hasAccess(address)": "2925",
						"joinToGame(uint8)": "infinite",
						"levels(uint8)": "infinite",
						"pools(uint8,uint256)": "infinite",
						"registerUserToGame(uint256)": "infinite",
						"registeredUsers(address)": "infinite",
						"userGames(address,uint8)": "3161",
						"userPayments(address,uint8)": "3144",
						"usersId(uint256)": "2905"
					},
					"internal": {
						"_fallback(address,uint256)": "infinite",
						"_joinToGame(uint8,address,uint256)": "infinite"
					}
				},
				"methodIdentifiers": {
					"addGameLevel(uint256)": "ae9283b5",
					"culcNextWinnerIndex(uint256)": "33afc80b",
					"currentGameIdIndex()": "ad39f0a3",
					"currentUserIdIndex()": "556c9095",
					"currentUserIndex(uint8)": "9b0b0ae3",
					"getUserBalance(address)": "47734892",
					"hasAccess(address)": "95a078e8",
					"joinToGame(uint8)": "2e8aab9b",
					"levels(uint8)": "906cbf57",
					"pools(uint8,uint256)": "78a32e21",
					"registerUserToGame(uint256)": "0173c05b",
					"registeredUsers(address)": "0e50cee5",
					"userGames(address,uint8)": "2a648c89",
					"userPayments(address,uint8)": "f1060006",
					"usersId(uint256)": "bd233b91"
				}
			},
			"storageLayout": {
				"storage": [
					{
						"astId": 3,
						"contract": "Contract.sol:Pyramid",
						"label": "currentUserIdIndex",
						"offset": 0,
						"slot": "0",
						"type": "t_uint256"
					},
					{
						"astId": 5,
						"contract": "Contract.sol:Pyramid",
						"label": "currentGameIdIndex",
						"offset": 0,
						"slot": "1",
						"type": "t_uint8"
					},
					{
						"astId": 7,
						"contract": "Contract.sol:Pyramid",
						"label": "contractOwner",
						"offset": 1,
						"slot": "1",
						"type": "t_address"
					},
					{
						"astId": 39,
						"contract": "Contract.sol:Pyramid",
						"label": "levels",
						"offset": 0,
						"slot": "2",
						"type": "t_mapping(t_uint8,t_struct(Game)34_storage)"
					},
					{
						"astId": 43,
						"contract": "Contract.sol:Pyramid",
						"label": "usersId",
						"offset": 0,
						"slot": "3",
						"type": "t_mapping(t_uint256,t_address)"
					},
					{
						"astId": 48,
						"contract": "Contract.sol:Pyramid",
						"label": "registeredUsers",
						"offset": 0,
						"slot": "4",
						"type": "t_mapping(t_address,t_struct(User)29_storage)"
					},
					{
						"astId": 52,
						"contract": "Contract.sol:Pyramid",
						"label": "currentUserIndex",
						"offset": 0,
						"slot": "5",
						"type": "t_mapping(t_uint8,t_uint256)"
					},
					{
						"astId": 59,
						"contract": "Contract.sol:Pyramid",
						"label": "pools",
						"offset": 0,
						"slot": "6",
						"type": "t_mapping(t_uint8,t_mapping(t_uint256,t_struct(User)29_storage))"
					},
					{
						"astId": 65,
						"contract": "Contract.sol:Pyramid",
						"label": "userPayments",
						"offset": 0,
						"slot": "7",
						"type": "t_mapping(t_address,t_mapping(t_uint8,t_uint256))"
					},
					{
						"astId": 71,
						"contract": "Contract.sol:Pyramid",
						"label": "userGames",
						"offset": 0,
						"slot": "8",
						"type": "t_mapping(t_address,t_mapping(t_uint8,t_bool))"
					}
				],
				"types": {
					"t_address": {
						"encoding": "inplace",
						"label": "address",
						"numberOfBytes": "20"
					},
					"t_address_payable": {
						"encoding": "inplace",
						"label": "address payable",
						"numberOfBytes": "20"
					},
					"t_bool": {
						"encoding": "inplace",
						"label": "bool",
						"numberOfBytes": "1"
					},
					"t_mapping(t_address,t_mapping(t_uint8,t_bool))": {
						"encoding": "mapping",
						"key": "t_address",
						"label": "mapping(address => mapping(uint8 => bool))",
						"numberOfBytes": "32",
						"value": "t_mapping(t_uint8,t_bool)"
					},
					"t_mapping(t_address,t_mapping(t_uint8,t_uint256))": {
						"encoding": "mapping",
						"key": "t_address",
						"label": "mapping(address => mapping(uint8 => uint256))",
						"numberOfBytes": "32",
						"value": "t_mapping(t_uint8,t_uint256)"
					},
					"t_mapping(t_address,t_struct(User)29_storage)": {
						"encoding": "mapping",
						"key": "t_address",
						"label": "mapping(address => struct Pyramid.User)",
						"numberOfBytes": "32",
						"value": "t_struct(User)29_storage"
					},
					"t_mapping(t_uint256,t_address)": {
						"encoding": "mapping",
						"key": "t_uint256",
						"label": "mapping(uint256 => address)",
						"numberOfBytes": "32",
						"value": "t_address"
					},
					"t_mapping(t_uint256,t_struct(User)29_storage)": {
						"encoding": "mapping",
						"key": "t_uint256",
						"label": "mapping(uint256 => struct Pyramid.User)",
						"numberOfBytes": "32",
						"value": "t_struct(User)29_storage"
					},
					"t_mapping(t_uint8,t_bool)": {
						"encoding": "mapping",
						"key": "t_uint8",
						"label": "mapping(uint8 => bool)",
						"numberOfBytes": "32",
						"value": "t_bool"
					},
					"t_mapping(t_uint8,t_mapping(t_uint256,t_struct(User)29_storage))": {
						"encoding": "mapping",
						"key": "t_uint8",
						"label": "mapping(uint8 => mapping(uint256 => struct Pyramid.User))",
						"numberOfBytes": "32",
						"value": "t_mapping(t_uint256,t_struct(User)29_storage)"
					},
					"t_mapping(t_uint8,t_struct(Game)34_storage)": {
						"encoding": "mapping",
						"key": "t_uint8",
						"label": "mapping(uint8 => struct Pyramid.Game)",
						"numberOfBytes": "32",
						"value": "t_struct(Game)34_storage"
					},
					"t_mapping(t_uint8,t_uint256)": {
						"encoding": "mapping",
						"key": "t_uint8",
						"label": "mapping(uint8 => uint256)",
						"numberOfBytes": "32",
						"value": "t_uint256"
					},
					"t_struct(Game)34_storage": {
						"encoding": "inplace",
						"label": "struct Pyramid.Game",
						"members": [
							{
								"astId": 31,
								"contract": "Contract.sol:Pyramid",
								"label": "gameId",
								"offset": 0,
								"slot": "0",
								"type": "t_uint8"
							},
							{
								"astId": 33,
								"contract": "Contract.sol:Pyramid",
								"label": "amountToPay",
								"offset": 0,
								"slot": "1",
								"type": "t_uint256"
							}
						],
						"numberOfBytes": "64"
					},
					"t_struct(User)29_storage": {
						"encoding": "inplace",
						"label": "struct Pyramid.User",
						"members": [
							{
								"astId": 24,
								"contract": "Contract.sol:Pyramid",
								"label": "userId",
								"offset": 0,
								"slot": "0",
								"type": "t_uint256"
							},
							{
								"astId": 26,
								"contract": "Contract.sol:Pyramid",
								"label": "userAddress",
								"offset": 0,
								"slot": "1",
								"type": "t_address_payable"
							},
							{
								"astId": 28,
								"contract": "Contract.sol:Pyramid",
								"label": "invitedId",
								"offset": 0,
								"slot": "2",
								"type": "t_uint256"
							}
						],
						"numberOfBytes": "96"
					},
					"t_uint256": {
						"encoding": "inplace",
						"label": "uint256",
						"numberOfBytes": "32"
					},
					"t_uint8": {
						"encoding": "inplace",
						"label": "uint8",
						"numberOfBytes": "1"
					}
				}
			},
			"userdoc": {
				"kind": "user",
				"methods": {},
				"version": 1
			}
		}
	}
}