{
	"cobraBot/Contract.sol": {
		"Pyramid": {
			"abi": [
				{
					"inputs": [],
					"stateMutability": "nonpayable",
					"type": "constructor"
				},
				{
					"anonymous": false,
					"inputs": [
						{
							"components": [
								{
									"internalType": "uint256",
									"name": "circleCount",
									"type": "uint256"
								},
								{
									"internalType": "uint256",
									"name": "amountToPay",
									"type": "uint256"
								}
							],
							"indexed": false,
							"internalType": "struct Pyramid.Game",
							"name": "game",
							"type": "tuple"
						},
						{
							"indexed": false,
							"internalType": "address",
							"name": "account",
							"type": "address"
						},
						{
							"indexed": false,
							"internalType": "bool",
							"name": "success",
							"type": "bool"
						}
					],
					"name": "GamePaymentEvent",
					"type": "event"
				},
				{
					"anonymous": false,
					"inputs": [
						{
							"components": [
								{
									"internalType": "uint256",
									"name": "circleCount",
									"type": "uint256"
								},
								{
									"internalType": "uint256",
									"name": "amountToPay",
									"type": "uint256"
								}
							],
							"indexed": false,
							"internalType": "struct Pyramid.Game",
							"name": "game",
							"type": "tuple"
						}
					],
					"name": "NewGame",
					"type": "event"
				},
				{
					"anonymous": false,
					"inputs": [
						{
							"components": [
								{
									"internalType": "uint256",
									"name": "circleCount",
									"type": "uint256"
								},
								{
									"internalType": "uint256",
									"name": "amountToPay",
									"type": "uint256"
								}
							],
							"indexed": false,
							"internalType": "struct Pyramid.Game",
							"name": "game",
							"type": "tuple"
						},
						{
							"indexed": false,
							"internalType": "uint256",
							"name": "from",
							"type": "uint256"
						},
						{
							"indexed": false,
							"internalType": "uint256",
							"name": "to",
							"type": "uint256"
						},
						{
							"indexed": false,
							"internalType": "uint256",
							"name": "amount",
							"type": "uint256"
						}
					],
					"name": "ReferalPaymentEvent",
					"type": "event"
				},
				{
					"stateMutability": "payable",
					"type": "fallback"
				},
				{
					"inputs": [
						{
							"internalType": "uint256",
							"name": "circleCount",
							"type": "uint256"
						},
						{
							"internalType": "uint256",
							"name": "amountToPay",
							"type": "uint256"
						}
					],
					"name": "addGameLevel",
					"outputs": [],
					"stateMutability": "nonpayable",
					"type": "function"
				},
				{
					"inputs": [],
					"name": "currentGameIdIndex",
					"outputs": [
						{
							"internalType": "uint8",
							"name": "",
							"type": "uint8"
						}
					],
					"stateMutability": "view",
					"type": "function"
				},
				{
					"inputs": [
						{
							"internalType": "uint8",
							"name": "",
							"type": "uint8"
						}
					],
					"name": "currentUserIndex",
					"outputs": [
						{
							"internalType": "uint256",
							"name": "",
							"type": "uint256"
						}
					],
					"stateMutability": "view",
					"type": "function"
				},
				{
					"inputs": [
						{
							"internalType": "address",
							"name": "userAddress",
							"type": "address"
						}
					],
					"name": "getUserBalance",
					"outputs": [
						{
							"internalType": "uint256",
							"name": "",
							"type": "uint256"
						}
					],
					"stateMutability": "view",
					"type": "function"
				},
				{
					"inputs": [
						{
							"internalType": "address",
							"name": "userAdress",
							"type": "address"
						}
					],
					"name": "hasAccess",
					"outputs": [
						{
							"internalType": "bool",
							"name": "",
							"type": "bool"
						}
					],
					"stateMutability": "view",
					"type": "function"
				},
				{
					"inputs": [
						{
							"internalType": "uint8",
							"name": "gameId",
							"type": "uint8"
						}
					],
					"name": "joinToGame",
					"outputs": [],
					"stateMutability": "payable",
					"type": "function"
				},
				{
					"inputs": [
						{
							"internalType": "uint8",
							"name": "",
							"type": "uint8"
						}
					],
					"name": "levels",
					"outputs": [
						{
							"internalType": "uint256",
							"name": "circleCount",
							"type": "uint256"
						},
						{
							"internalType": "uint256",
							"name": "amountToPay",
							"type": "uint256"
						}
					],
					"stateMutability": "view",
					"type": "function"
				},
				{
					"inputs": [
						{
							"internalType": "uint8",
							"name": "",
							"type": "uint8"
						},
						{
							"internalType": "uint256",
							"name": "",
							"type": "uint256"
						}
					],
					"name": "pools",
					"outputs": [
						{
							"internalType": "uint256",
							"name": "userId",
							"type": "uint256"
						},
						{
							"internalType": "address payable",
							"name": "userAddress",
							"type": "address"
						},
						{
							"internalType": "uint256",
							"name": "invitedId",
							"type": "uint256"
						}
					],
					"stateMutability": "view",
					"type": "function"
				},
				{
					"inputs": [
						{
							"internalType": "uint256",
							"name": "inviterId",
							"type": "uint256"
						}
					],
					"name": "registerUserToGame",
					"outputs": [],
					"stateMutability": "payable",
					"type": "function"
				},
				{
					"inputs": [
						{
							"internalType": "address",
							"name": "",
							"type": "address"
						}
					],
					"name": "registeredUsers",
					"outputs": [
						{
							"internalType": "uint256",
							"name": "userId",
							"type": "uint256"
						},
						{
							"internalType": "address payable",
							"name": "userAddress",
							"type": "address"
						},
						{
							"internalType": "uint256",
							"name": "invitedId",
							"type": "uint256"
						}
					],
					"stateMutability": "view",
					"type": "function"
				},
				{
					"inputs": [
						{
							"internalType": "address",
							"name": "",
							"type": "address"
						},
						{
							"internalType": "uint8",
							"name": "",
							"type": "uint8"
						}
					],
					"name": "userGames",
					"outputs": [
						{
							"internalType": "bool",
							"name": "",
							"type": "bool"
						}
					],
					"stateMutability": "view",
					"type": "function"
				},
				{
					"inputs": [
						{
							"internalType": "address",
							"name": "",
							"type": "address"
						},
						{
							"internalType": "uint8",
							"name": "",
							"type": "uint8"
						}
					],
					"name": "userPayments",
					"outputs": [
						{
							"internalType": "uint256",
							"name": "",
							"type": "uint256"
						}
					],
					"stateMutability": "view",
					"type": "function"
				},
				{
					"inputs": [
						{
							"internalType": "uint256",
							"name": "",
							"type": "uint256"
						}
					],
					"name": "usersId",
					"outputs": [
						{
							"internalType": "address",
							"name": "",
							"type": "address"
						}
					],
					"stateMutability": "view",
					"type": "function"
				},
				{
					"stateMutability": "payable",
					"type": "receive"
				}
			],
			"devdoc": {
				"kind": "dev",
				"methods": {},
				"version": 1
			},
			"evm": {
				"assembly": "    /* \"cobraBot/Contract.sol\":64:8354  contract Pyramid {\r... */\n  mstore(0x40, 0x80)\n    /* \"cobraBot/Contract.sol\":2247:2522  constructor () {\r... */\n  callvalue\n  dup1\n  iszero\n  tag_1\n  jumpi\n  0x00\n  dup1\n  revert\ntag_1:\n  pop\n    /* \"cobraBot/Contract.sol\":2289:2299  msg.sender */\n  caller\n    /* \"cobraBot/Contract.sol\":2273:2286  contractOwner */\n  0x01\n  dup1\n    /* \"cobraBot/Contract.sol\":2273:2299  contractOwner = msg.sender */\n  0x0100\n  exp\n  dup2\n  sload\n  dup2\n  0xffffffffffffffffffffffffffffffffffffffff\n  mul\n  not\n  and\n  swap1\n  dup4\n  0xffffffffffffffffffffffffffffffffffffffff\n  and\n  mul\n  or\n  swap1\n  sstore\n  pop\n    /* \"cobraBot/Contract.sol\":2323:2336  contractOwner */\n  0x01\n  dup1\n  sload\n  swap1\n  0x0100\n  exp\n  swap1\n  div\n  0xffffffffffffffffffffffffffffffffffffffff\n  and\n    /* \"cobraBot/Contract.sol\":2310:2317  usersId */\n  0x03\n    /* \"cobraBot/Contract.sol\":2310:2320  usersId[0] */\n  0x00\n    /* \"cobraBot/Contract.sol\":2318:2319  0 */\n  dup1\n    /* \"cobraBot/Contract.sol\":2310:2320  usersId[0] */\n  dup2\n  mstore\n  0x20\n  add\n  swap1\n  dup2\n  mstore\n  0x20\n  add\n  0x00\n  keccak256\n  0x00\n    /* \"cobraBot/Contract.sol\":2310:2336  usersId[0] = contractOwner */\n  0x0100\n  exp\n  dup2\n  sload\n  dup2\n  0xffffffffffffffffffffffffffffffffffffffff\n  mul\n  not\n  and\n  swap1\n  dup4\n  0xffffffffffffffffffffffffffffffffffffffff\n  and\n  mul\n  or\n  swap1\n  sstore\n  pop\n    /* \"cobraBot/Contract.sol\":2380:2414  User(0, payable(contractOwner), 0) */\n  mload(0x40)\n  dup1\n  0x60\n  add\n  0x40\n  mstore\n  dup1\n    /* \"cobraBot/Contract.sol\":2385:2386  0 */\n  0x00\n    /* \"cobraBot/Contract.sol\":2380:2414  User(0, payable(contractOwner), 0) */\n  dup2\n  mstore\n  0x20\n  add\n    /* \"cobraBot/Contract.sol\":2396:2409  contractOwner */\n  0x01\n  dup1\n  sload\n  swap1\n  0x0100\n  exp\n  swap1\n  div\n  0xffffffffffffffffffffffffffffffffffffffff\n  and\n    /* \"cobraBot/Contract.sol\":2380:2414  User(0, payable(contractOwner), 0) */\n  0xffffffffffffffffffffffffffffffffffffffff\n  and\n  dup2\n  mstore\n  0x20\n  add\n    /* \"cobraBot/Contract.sol\":2412:2413  0 */\n  0x00\n    /* \"cobraBot/Contract.sol\":2380:2414  User(0, payable(contractOwner), 0) */\n  dup2\n  mstore\n  pop\n    /* \"cobraBot/Contract.sol\":2347:2362  registeredUsers */\n  0x04\n    /* \"cobraBot/Contract.sol\":2347:2377  registeredUsers[contractOwner] */\n  0x00\n    /* \"cobraBot/Contract.sol\":2363:2376  contractOwner */\n  0x01\n  dup1\n  sload\n  swap1\n  0x0100\n  exp\n  swap1\n  div\n  0xffffffffffffffffffffffffffffffffffffffff\n  and\n    /* \"cobraBot/Contract.sol\":2347:2377  registeredUsers[contractOwner] */\n  0xffffffffffffffffffffffffffffffffffffffff\n  and\n  0xffffffffffffffffffffffffffffffffffffffff\n  and\n  dup2\n  mstore\n  0x20\n  add\n  swap1\n  dup2\n  mstore\n  0x20\n  add\n  0x00\n  keccak256\n    /* \"cobraBot/Contract.sol\":2347:2414  registeredUsers[contractOwner] = User(0, payable(contractOwner), 0) */\n  0x00\n  dup3\n  add\n  mload\n  dup2\n  0x00\n  add\n  sstore\n  0x20\n  dup3\n  add\n  mload\n  dup2\n  0x01\n  add\n  exp(0x0100, 0x00)\n  dup2\n  sload\n  dup2\n  0xffffffffffffffffffffffffffffffffffffffff\n  mul\n  not\n  and\n  swap1\n  dup4\n  0xffffffffffffffffffffffffffffffffffffffff\n  and\n  mul\n  or\n  swap1\n  sstore\n  pop\n  0x40\n  dup3\n  add\n  mload\n  dup2\n  0x02\n  add\n  sstore\n  swap1\n  pop\n  pop\n    /* \"cobraBot/Contract.sol\":2446:2447  1 */\n  0x01\n    /* \"cobraBot/Contract.sol\":2425:2443  currentUserIdIndex */\n  0x00\n    /* \"cobraBot/Contract.sol\":2425:2447  currentUserIdIndex = 1 */\n  dup2\n  swap1\n  sstore\n  pop\n    /* \"cobraBot/Contract.sol\":2460:2514  addGameLevel({ circleCount: 3, amountToPay: 1 ether }) */\n  tag_4\n    /* \"cobraBot/Contract.sol\":2488:2489  3 */\n  0x03\n    /* \"cobraBot/Contract.sol\":2504:2511  1 ether */\n  0x0de0b6b3a7640000\n    /* \"cobraBot/Contract.sol\":2460:2472  addGameLevel */\n  shl(0x20, tag_5)\n    /* \"cobraBot/Contract.sol\":2460:2514  addGameLevel({ circleCount: 3, amountToPay: 1 ether }) */\n  0x20\n  shr\n  jump\t// in\ntag_4:\n    /* \"cobraBot/Contract.sol\":64:8354  contract Pyramid {\r... */\n  jump(tag_6)\n    /* \"cobraBot/Contract.sol\":3676:4055  function addGameLevel(uint256 circleCount, uint256 amountToPay) public onlyOwner {\r... */\ntag_5:\n    /* \"cobraBot/Contract.sol\":2197:2218  hasAccess(msg.sender) */\n  tag_8\n    /* \"cobraBot/Contract.sol\":2207:2217  msg.sender */\n  caller\n    /* \"cobraBot/Contract.sol\":2197:2206  hasAccess */\n  shl(0x20, tag_9)\n    /* \"cobraBot/Contract.sol\":2197:2218  hasAccess(msg.sender) */\n  0x20\n  shr\n  jump\t// in\ntag_8:\n    /* \"cobraBot/Contract.sol\":2189:2219  require(hasAccess(msg.sender)) */\n  tag_10\n  jumpi\n  0x00\n  dup1\n  revert\ntag_10:\n    /* \"cobraBot/Contract.sol\":3902:3962  Game({ circleCount: circleCount, amountToPay: amountToPay }) */\n  mload(0x40)\n  dup1\n  0x40\n  add\n  0x40\n  mstore\n  dup1\n    /* \"cobraBot/Contract.sol\":3922:3933  circleCount */\n  dup4\n    /* \"cobraBot/Contract.sol\":3902:3962  Game({ circleCount: circleCount, amountToPay: amountToPay }) */\n  dup2\n  mstore\n  0x20\n  add\n    /* \"cobraBot/Contract.sol\":3948:3959  amountToPay */\n  dup3\n    /* \"cobraBot/Contract.sol\":3902:3962  Game({ circleCount: circleCount, amountToPay: amountToPay }) */\n  dup2\n  mstore\n  pop\n    /* \"cobraBot/Contract.sol\":3873:3879  levels */\n  0x02\n    /* \"cobraBot/Contract.sol\":3873:3899  levels[currentGameIdIndex] */\n  0x00\n    /* \"cobraBot/Contract.sol\":3880:3898  currentGameIdIndex */\n  0x01\n  0x00\n  swap1\n  sload\n  swap1\n  0x0100\n  exp\n  swap1\n  div\n  0xff\n  and\n    /* \"cobraBot/Contract.sol\":3873:3899  levels[currentGameIdIndex] */\n  0xff\n  and\n  0xff\n  and\n  dup2\n  mstore\n  0x20\n  add\n  swap1\n  dup2\n  mstore\n  0x20\n  add\n  0x00\n  keccak256\n    /* \"cobraBot/Contract.sol\":3873:3962  levels[currentGameIdIndex] = Game({ circleCount: circleCount, amountToPay: amountToPay }) */\n  0x00\n  dup3\n  add\n  mload\n  dup2\n  0x00\n  add\n  sstore\n  0x20\n  dup3\n  add\n  mload\n  dup2\n  0x01\n  add\n  sstore\n  swap1\n  pop\n  pop\n    /* \"cobraBot/Contract.sol\":3978:4013  NewGame(levels[currentGameIdIndex]) */\n  0x954900f0fb49268c265d1bafbfbf6c060c8b41cdb6b0bcaa575389d650b5e374\n    /* \"cobraBot/Contract.sol\":3986:3992  levels */\n  0x02\n    /* \"cobraBot/Contract.sol\":3986:4012  levels[currentGameIdIndex] */\n  0x00\n    /* \"cobraBot/Contract.sol\":3993:4011  currentGameIdIndex */\n  0x01\n  0x00\n  swap1\n  sload\n  swap1\n  0x0100\n  exp\n  swap1\n  div\n  0xff\n  and\n    /* \"cobraBot/Contract.sol\":3986:4012  levels[currentGameIdIndex] */\n  0xff\n  and\n  0xff\n  and\n  dup2\n  mstore\n  0x20\n  add\n  swap1\n  dup2\n  mstore\n  0x20\n  add\n  0x00\n  keccak256\n    /* \"cobraBot/Contract.sol\":3978:4013  NewGame(levels[currentGameIdIndex]) */\n  mload(0x40)\n  tag_12\n  swap2\n  swap1\n  tag_13\n  jump\t// in\ntag_12:\n  mload(0x40)\n  dup1\n  swap2\n  sub\n  swap1\n  log1\n    /* \"cobraBot/Contract.sol\":4046:4047  1 */\n  0x01\n    /* \"cobraBot/Contract.sol\":4024:4042  currentGameIdIndex */\n  dup1\n  0x00\n    /* \"cobraBot/Contract.sol\":4024:4047  currentGameIdIndex += 1 */\n  dup3\n  dup3\n  dup3\n  swap1\n  sload\n  swap1\n  0x0100\n  exp\n  swap1\n  div\n  0xff\n  and\n  tag_14\n  swap2\n  swap1\n  tag_15\n  jump\t// in\ntag_14:\n  swap3\n  pop\n  0x0100\n  exp\n  dup2\n  sload\n  dup2\n  0xff\n  mul\n  not\n  and\n  swap1\n  dup4\n  0xff\n  and\n  mul\n  or\n  swap1\n  sstore\n  pop\n    /* \"cobraBot/Contract.sol\":3676:4055  function addGameLevel(uint256 circleCount, uint256 amountToPay) public onlyOwner {\r... */\n  pop\n  pop\n  jump\t// out\n    /* \"cobraBot/Contract.sol\":3312:3541  function hasAccess(address userAdress) public view returns(bool) {\r... */\ntag_9:\n    /* \"cobraBot/Contract.sol\":3371:3375  bool */\n  0x00\n    /* \"cobraBot/Contract.sol\":3520:3533  contractOwner */\n  0x01\n  dup1\n  sload\n  swap1\n  0x0100\n  exp\n  swap1\n  div\n  0xffffffffffffffffffffffffffffffffffffffff\n  and\n    /* \"cobraBot/Contract.sol\":3506:3533  userAdress == contractOwner */\n  0xffffffffffffffffffffffffffffffffffffffff\n  and\n    /* \"cobraBot/Contract.sol\":3506:3516  userAdress */\n  dup3\n    /* \"cobraBot/Contract.sol\":3506:3533  userAdress == contractOwner */\n  0xffffffffffffffffffffffffffffffffffffffff\n  and\n  eq\n    /* \"cobraBot/Contract.sol\":3499:3533  return userAdress == contractOwner */\n  swap1\n  pop\n    /* \"cobraBot/Contract.sol\":3312:3541  function hasAccess(address userAdress) public view returns(bool) {\r... */\n  swap2\n  swap1\n  pop\n  jump\t// out\n    /* \"#utility.yul\":57:752   */\ntag_18:\n    /* \"#utility.yul\":191:195   */\n  0x40\n    /* \"#utility.yul\":186:189   */\n  dup3\n    /* \"#utility.yul\":182:196   */\n  add\n    /* \"#utility.yul\":222:223   */\n  0x00\n    /* \"#utility.yul\":304:308   */\n  dup1\n    /* \"#utility.yul\":297:302   */\n  dup4\n    /* \"#utility.yul\":293:309   */\n  add\n    /* \"#utility.yul\":287:310   */\n  sload\n    /* \"#utility.yul\":274:310   */\n  swap1\n  pop\n    /* \"#utility.yul\":343:398   */\n  tag_20\n    /* \"#utility.yul\":388:397   */\n  dup2\n    /* \"#utility.yul\":343:398   */\n  tag_21\n  jump\t// in\ntag_20:\n    /* \"#utility.yul\":411:474   */\n  tag_22\n    /* \"#utility.yul\":468:472   */\n  0x00\n    /* \"#utility.yul\":463:466   */\n  dup7\n    /* \"#utility.yul\":459:473   */\n  add\n    /* \"#utility.yul\":445:457   */\n  dup3\n    /* \"#utility.yul\":411:474   */\n  tag_23\n  jump\t// in\ntag_22:\n    /* \"#utility.yul\":233:484   */\n  pop\n    /* \"#utility.yul\":565:569   */\n  0x01\n    /* \"#utility.yul\":558:563   */\n  dup4\n    /* \"#utility.yul\":554:570   */\n  add\n    /* \"#utility.yul\":548:571   */\n  sload\n    /* \"#utility.yul\":535:571   */\n  swap1\n  pop\n    /* \"#utility.yul\":604:659   */\n  tag_24\n    /* \"#utility.yul\":649:658   */\n  dup2\n    /* \"#utility.yul\":604:659   */\n  tag_21\n  jump\t// in\ntag_24:\n    /* \"#utility.yul\":672:735   */\n  tag_25\n    /* \"#utility.yul\":729:733   */\n  0x20\n    /* \"#utility.yul\":724:727   */\n  dup7\n    /* \"#utility.yul\":720:734   */\n  add\n    /* \"#utility.yul\":706:718   */\n  dup3\n    /* \"#utility.yul\":672:735   */\n  tag_23\n  jump\t// in\ntag_25:\n    /* \"#utility.yul\":494:745   */\n  pop\n    /* \"#utility.yul\":160:752   */\n  pop\n  pop\n    /* \"#utility.yul\":57:752   */\n  pop\n  pop\n  jump\t// out\n    /* \"#utility.yul\":758:866   */\ntag_23:\n    /* \"#utility.yul\":835:859   */\n  tag_27\n    /* \"#utility.yul\":853:858   */\n  dup2\n    /* \"#utility.yul\":835:859   */\n  tag_28\n  jump\t// in\ntag_27:\n    /* \"#utility.yul\":830:833   */\n  dup3\n    /* \"#utility.yul\":823:860   */\n  mstore\n    /* \"#utility.yul\":758:866   */\n  pop\n  pop\n  jump\t// out\n    /* \"#utility.yul\":872:1168   */\ntag_13:\n    /* \"#utility.yul\":1002:1006   */\n  0x00\n    /* \"#utility.yul\":1040:1042   */\n  0x40\n    /* \"#utility.yul\":1029:1038   */\n  dup3\n    /* \"#utility.yul\":1025:1043   */\n  add\n    /* \"#utility.yul\":1017:1043   */\n  swap1\n  pop\n    /* \"#utility.yul\":1053:1161   */\n  tag_30\n    /* \"#utility.yul\":1158:1159   */\n  0x00\n    /* \"#utility.yul\":1147:1156   */\n  dup4\n    /* \"#utility.yul\":1143:1160   */\n  add\n    /* \"#utility.yul\":1134:1140   */\n  dup5\n    /* \"#utility.yul\":1053:1161   */\n  tag_18\n  jump\t// in\ntag_30:\n    /* \"#utility.yul\":872:1168   */\n  swap3\n  swap2\n  pop\n  pop\n  jump\t// out\n    /* \"#utility.yul\":1174:1411   */\ntag_15:\n    /* \"#utility.yul\":1212:1215   */\n  0x00\n    /* \"#utility.yul\":1231:1249   */\n  tag_32\n    /* \"#utility.yul\":1247:1248   */\n  dup3\n    /* \"#utility.yul\":1231:1249   */\n  tag_33\n  jump\t// in\ntag_32:\n    /* \"#utility.yul\":1226:1249   */\n  swap2\n  pop\n    /* \"#utility.yul\":1263:1281   */\n  tag_34\n    /* \"#utility.yul\":1279:1280   */\n  dup4\n    /* \"#utility.yul\":1263:1281   */\n  tag_33\n  jump\t// in\ntag_34:\n    /* \"#utility.yul\":1258:1281   */\n  swap3\n  pop\n    /* \"#utility.yul\":1353:1354   */\n  dup3\n    /* \"#utility.yul\":1347:1351   */\n  0xff\n    /* \"#utility.yul\":1343:1355   */\n  sub\n    /* \"#utility.yul\":1340:1341   */\n  dup3\n    /* \"#utility.yul\":1337:1356   */\n  gt\n    /* \"#utility.yul\":1334:1379   */\n  iszero\n  tag_35\n  jumpi\n    /* \"#utility.yul\":1359:1377   */\n  tag_36\n  tag_37\n  jump\t// in\ntag_36:\n    /* \"#utility.yul\":1334:1379   */\ntag_35:\n    /* \"#utility.yul\":1403:1404   */\n  dup3\n    /* \"#utility.yul\":1400:1401   */\n  dup3\n    /* \"#utility.yul\":1396:1405   */\n  add\n    /* \"#utility.yul\":1389:1405   */\n  swap1\n  pop\n    /* \"#utility.yul\":1174:1411   */\n  swap3\n  swap2\n  pop\n  pop\n  jump\t// out\n    /* \"#utility.yul\":1417:1507   */\ntag_38:\n    /* \"#utility.yul\":1467:1474   */\n  0x00\n    /* \"#utility.yul\":1496:1501   */\n  dup2\n    /* \"#utility.yul\":1485:1501   */\n  swap1\n  pop\n    /* \"#utility.yul\":1417:1507   */\n  swap2\n  swap1\n  pop\n  jump\t// out\n    /* \"#utility.yul\":1513:1590   */\ntag_28:\n    /* \"#utility.yul\":1550:1557   */\n  0x00\n    /* \"#utility.yul\":1579:1584   */\n  dup2\n    /* \"#utility.yul\":1568:1584   */\n  swap1\n  pop\n    /* \"#utility.yul\":1513:1590   */\n  swap2\n  swap1\n  pop\n  jump\t// out\n    /* \"#utility.yul\":1596:1682   */\ntag_33:\n    /* \"#utility.yul\":1631:1638   */\n  0x00\n    /* \"#utility.yul\":1671:1675   */\n  0xff\n    /* \"#utility.yul\":1664:1669   */\n  dup3\n    /* \"#utility.yul\":1660:1676   */\n  and\n    /* \"#utility.yul\":1649:1676   */\n  swap1\n  pop\n    /* \"#utility.yul\":1596:1682   */\n  swap2\n  swap1\n  pop\n  jump\t// out\n    /* \"#utility.yul\":1688:1854   */\ntag_21:\n    /* \"#utility.yul\":1757:1762   */\n  0x00\n    /* \"#utility.yul\":1782:1848   */\n  tag_43\n    /* \"#utility.yul\":1813:1847   */\n  tag_44\n    /* \"#utility.yul\":1836:1846   */\n  dup4\n    /* \"#utility.yul\":1813:1847   */\n  tag_45\n  jump\t// in\ntag_44:\n    /* \"#utility.yul\":1782:1848   */\n  tag_38\n  jump\t// in\ntag_43:\n    /* \"#utility.yul\":1773:1848   */\n  swap1\n  pop\n    /* \"#utility.yul\":1688:1854   */\n  swap2\n  swap1\n  pop\n  jump\t// out\n    /* \"#utility.yul\":1860:2040   */\ntag_37:\n    /* \"#utility.yul\":1908:1985   */\n  0x4e487b7100000000000000000000000000000000000000000000000000000000\n    /* \"#utility.yul\":1905:1906   */\n  0x00\n    /* \"#utility.yul\":1898:1986   */\n  mstore\n    /* \"#utility.yul\":2005:2009   */\n  0x11\n    /* \"#utility.yul\":2002:2003   */\n  0x04\n    /* \"#utility.yul\":1995:2010   */\n  mstore\n    /* \"#utility.yul\":2029:2033   */\n  0x24\n    /* \"#utility.yul\":2026:2027   */\n  0x00\n    /* \"#utility.yul\":2019:2034   */\n  revert\n    /* \"#utility.yul\":2046:2148   */\ntag_45:\n    /* \"#utility.yul\":2088:2096   */\n  0x00\n    /* \"#utility.yul\":2135:2140   */\n  dup2\n    /* \"#utility.yul\":2132:2133   */\n  0x00\n    /* \"#utility.yul\":2128:2141   */\n  shr\n    /* \"#utility.yul\":2107:2141   */\n  swap1\n  pop\n    /* \"#utility.yul\":2046:2148   */\n  swap2\n  swap1\n  pop\n  jump\t// out\n    /* \"cobraBot/Contract.sol\":64:8354  contract Pyramid {\r... */\ntag_6:\n  dataSize(sub_0)\n  dup1\n  dataOffset(sub_0)\n  0x00\n  codecopy\n  0x00\n  return\nstop\n\nsub_0: assembly {\n        /* \"cobraBot/Contract.sol\":64:8354  contract Pyramid {\r... */\n      mstore(0x40, 0x80)\n      jumpi(tag_1, lt(calldatasize, 0x04))\n      shr(0xe0, calldataload(0x00))\n      dup1\n      0x7b0d5efa\n      gt\n      tag_16\n      jumpi\n      dup1\n      0x9b0b0ae3\n      gt\n      tag_17\n      jumpi\n      dup1\n      0x9b0b0ae3\n      eq\n      tag_12\n      jumpi\n      dup1\n      0xad39f0a3\n      eq\n      tag_13\n      jumpi\n      dup1\n      0xbd233b91\n      eq\n      tag_14\n      jumpi\n      dup1\n      0xf1060006\n      eq\n      tag_15\n      jumpi\n      jump(tag_2)\n    tag_17:\n      dup1\n      0x7b0d5efa\n      eq\n      tag_9\n      jumpi\n      dup1\n      0x906cbf57\n      eq\n      tag_10\n      jumpi\n      dup1\n      0x95a078e8\n      eq\n      tag_11\n      jumpi\n      jump(tag_2)\n    tag_16:\n      dup1\n      0x0173c05b\n      eq\n      tag_3\n      jumpi\n      dup1\n      0x0e50cee5\n      eq\n      tag_4\n      jumpi\n      dup1\n      0x2a648c89\n      eq\n      tag_5\n      jumpi\n      dup1\n      0x2e8aab9b\n      eq\n      tag_6\n      jumpi\n      dup1\n      0x47734892\n      eq\n      tag_7\n      jumpi\n      dup1\n      0x78a32e21\n      eq\n      tag_8\n      jumpi\n      jump(tag_2)\n    tag_1:\n      jumpi(tag_2, calldatasize)\n        /* \"cobraBot/Contract.sol\":2569:2601  _fallback(msg.sender, msg.value) */\n      tag_20\n        /* \"cobraBot/Contract.sol\":2579:2589  msg.sender */\n      caller\n        /* \"cobraBot/Contract.sol\":2591:2600  msg.value */\n      callvalue\n        /* \"cobraBot/Contract.sol\":2569:2578  _fallback */\n      tag_21\n        /* \"cobraBot/Contract.sol\":2569:2601  _fallback(msg.sender, msg.value) */\n      jump\t// in\n    tag_20:\n        /* \"cobraBot/Contract.sol\":64:8354  contract Pyramid {\r... */\n      stop\n    tag_2:\n        /* \"cobraBot/Contract.sol\":2657:2689  _fallback(msg.sender, msg.value) */\n      tag_24\n        /* \"cobraBot/Contract.sol\":2667:2677  msg.sender */\n      caller\n        /* \"cobraBot/Contract.sol\":2679:2688  msg.value */\n      callvalue\n        /* \"cobraBot/Contract.sol\":2657:2666  _fallback */\n      tag_21\n        /* \"cobraBot/Contract.sol\":2657:2689  _fallback(msg.sender, msg.value) */\n      jump\t// in\n    tag_24:\n        /* \"cobraBot/Contract.sol\":64:8354  contract Pyramid {\r... */\n      stop\n        /* \"cobraBot/Contract.sol\":4063:4500  function registerUserToGame(uint256 inviterId) external payable noContractAccess {\r... */\n    tag_3:\n      tag_25\n      0x04\n      dup1\n      calldatasize\n      sub\n      dup2\n      add\n      swap1\n      tag_26\n      swap2\n      swap1\n      tag_27\n      jump\t// in\n    tag_26:\n      tag_28\n      jump\t// in\n    tag_25:\n      stop\n        /* \"cobraBot/Contract.sol\":943:991  mapping (address => User) public registeredUsers */\n    tag_4:\n      callvalue\n      dup1\n      iszero\n      tag_29\n      jumpi\n      0x00\n      dup1\n      revert\n    tag_29:\n      pop\n      tag_30\n      0x04\n      dup1\n      calldatasize\n      sub\n      dup2\n      add\n      swap1\n      tag_31\n      swap2\n      swap1\n      tag_32\n      jump\t// in\n    tag_31:\n      tag_33\n      jump\t// in\n    tag_30:\n      mload(0x40)\n      tag_34\n      swap4\n      swap3\n      swap2\n      swap1\n      tag_35\n      jump\t// in\n    tag_34:\n      mload(0x40)\n      dup1\n      swap2\n      sub\n      swap1\n      return\n        /* \"cobraBot/Contract.sol\":1347:1408  mapping (address => mapping (uint8 => bool)) public userGames */\n    tag_5:\n      callvalue\n      dup1\n      iszero\n      tag_36\n      jumpi\n      0x00\n      dup1\n      revert\n    tag_36:\n      pop\n      tag_37\n      0x04\n      dup1\n      calldatasize\n      sub\n      dup2\n      add\n      swap1\n      tag_38\n      swap2\n      swap1\n      tag_39\n      jump\t// in\n    tag_38:\n      tag_40\n      jump\t// in\n    tag_37:\n      mload(0x40)\n      tag_41\n      swap2\n      swap1\n      tag_42\n      jump\t// in\n    tag_41:\n      mload(0x40)\n      dup1\n      swap2\n      sub\n      swap1\n      return\n        /* \"cobraBot/Contract.sol\":4508:4725  function joinToGame(uint8 gameId) public payable onlyRegistered {\r... */\n    tag_6:\n      tag_43\n      0x04\n      dup1\n      calldatasize\n      sub\n      dup2\n      add\n      swap1\n      tag_44\n      swap2\n      swap1\n      tag_45\n      jump\t// in\n    tag_44:\n      tag_46\n      jump\t// in\n    tag_43:\n      stop\n        /* \"cobraBot/Contract.sol\":3549:3668  function getUserBalance(address userAddress) public view returns(uint256) {\r... */\n    tag_7:\n      callvalue\n      dup1\n      iszero\n      tag_47\n      jumpi\n      0x00\n      dup1\n      revert\n    tag_47:\n      pop\n      tag_48\n      0x04\n      dup1\n      calldatasize\n      sub\n      dup2\n      add\n      swap1\n      tag_49\n      swap2\n      swap1\n      tag_32\n      jump\t// in\n    tag_49:\n      tag_50\n      jump\t// in\n    tag_48:\n      mload(0x40)\n      tag_51\n      swap2\n      swap1\n      tag_52\n      jump\t// in\n    tag_51:\n      mload(0x40)\n      dup1\n      swap2\n      sub\n      swap1\n      return\n        /* \"cobraBot/Contract.sol\":1135:1192  mapping (uint8 => mapping (uint256 => User)) public pools */\n    tag_8:\n      callvalue\n      dup1\n      iszero\n      tag_53\n      jumpi\n      0x00\n      dup1\n      revert\n    tag_53:\n      pop\n      tag_54\n      0x04\n      dup1\n      calldatasize\n      sub\n      dup2\n      add\n      swap1\n      tag_55\n      swap2\n      swap1\n      tag_56\n      jump\t// in\n    tag_55:\n      tag_57\n      jump\t// in\n    tag_54:\n      mload(0x40)\n      tag_58\n      swap4\n      swap3\n      swap2\n      swap1\n      tag_35\n      jump\t// in\n    tag_58:\n      mload(0x40)\n      dup1\n      swap2\n      sub\n      swap1\n      return\n        /* \"cobraBot/Contract.sol\":3676:4055  function addGameLevel(uint256 circleCount, uint256 amountToPay) public onlyOwner {\r... */\n    tag_9:\n      callvalue\n      dup1\n      iszero\n      tag_59\n      jumpi\n      0x00\n      dup1\n      revert\n    tag_59:\n      pop\n      tag_60\n      0x04\n      dup1\n      calldatasize\n      sub\n      dup2\n      add\n      swap1\n      tag_61\n      swap2\n      swap1\n      tag_62\n      jump\t// in\n    tag_61:\n      tag_63\n      jump\t// in\n    tag_60:\n      stop\n        /* \"cobraBot/Contract.sol\":795:832  mapping (uint8 => Game) public levels */\n    tag_10:\n      callvalue\n      dup1\n      iszero\n      tag_64\n      jumpi\n      0x00\n      dup1\n      revert\n    tag_64:\n      pop\n      tag_65\n      0x04\n      dup1\n      calldatasize\n      sub\n      dup2\n      add\n      swap1\n      tag_66\n      swap2\n      swap1\n      tag_45\n      jump\t// in\n    tag_66:\n      tag_67\n      jump\t// in\n    tag_65:\n      mload(0x40)\n      tag_68\n      swap3\n      swap2\n      swap1\n      tag_69\n      jump\t// in\n    tag_68:\n      mload(0x40)\n      dup1\n      swap2\n      sub\n      swap1\n      return\n        /* \"cobraBot/Contract.sol\":3312:3541  function hasAccess(address userAdress) public view returns(bool) {\r... */\n    tag_11:\n      callvalue\n      dup1\n      iszero\n      tag_70\n      jumpi\n      0x00\n      dup1\n      revert\n    tag_70:\n      pop\n      tag_71\n      0x04\n      dup1\n      calldatasize\n      sub\n      dup2\n      add\n      swap1\n      tag_72\n      swap2\n      swap1\n      tag_32\n      jump\t// in\n    tag_72:\n      tag_73\n      jump\t// in\n    tag_71:\n      mload(0x40)\n      tag_74\n      swap2\n      swap1\n      tag_42\n      jump\t// in\n    tag_74:\n      mload(0x40)\n      dup1\n      swap2\n      sub\n      swap1\n      return\n        /* \"cobraBot/Contract.sol\":1046:1096  mapping (uint8 => uint256) public currentUserIndex */\n    tag_12:\n      callvalue\n      dup1\n      iszero\n      tag_75\n      jumpi\n      0x00\n      dup1\n      revert\n    tag_75:\n      pop\n      tag_76\n      0x04\n      dup1\n      calldatasize\n      sub\n      dup2\n      add\n      swap1\n      tag_77\n      swap2\n      swap1\n      tag_45\n      jump\t// in\n    tag_77:\n      tag_78\n      jump\t// in\n    tag_76:\n      mload(0x40)\n      tag_79\n      swap2\n      swap1\n      tag_52\n      jump\t// in\n    tag_79:\n      mload(0x40)\n      dup1\n      swap2\n      sub\n      swap1\n      return\n        /* \"cobraBot/Contract.sol\":150:181  uint8 public currentGameIdIndex */\n    tag_13:\n      callvalue\n      dup1\n      iszero\n      tag_80\n      jumpi\n      0x00\n      dup1\n      revert\n    tag_80:\n      pop\n      tag_81\n      tag_82\n      jump\t// in\n    tag_81:\n      mload(0x40)\n      tag_83\n      swap2\n      swap1\n      tag_84\n      jump\t// in\n    tag_83:\n      mload(0x40)\n      dup1\n      swap2\n      sub\n      swap1\n      return\n        /* \"cobraBot/Contract.sol\":856:899  mapping (uint256 => address) public usersId */\n    tag_14:\n      callvalue\n      dup1\n      iszero\n      tag_85\n      jumpi\n      0x00\n      dup1\n      revert\n    tag_85:\n      pop\n      tag_86\n      0x04\n      dup1\n      calldatasize\n      sub\n      dup2\n      add\n      swap1\n      tag_87\n      swap2\n      swap1\n      tag_27\n      jump\t// in\n    tag_87:\n      tag_88\n      jump\t// in\n    tag_86:\n      mload(0x40)\n      tag_89\n      swap2\n      swap1\n      tag_90\n      jump\t// in\n    tag_89:\n      mload(0x40)\n      dup1\n      swap2\n      sub\n      swap1\n      return\n        /* \"cobraBot/Contract.sol\":1234:1301  mapping (address => mapping (uint8 => uint256)) public userPayments */\n    tag_15:\n      callvalue\n      dup1\n      iszero\n      tag_91\n      jumpi\n      0x00\n      dup1\n      revert\n    tag_91:\n      pop\n      tag_92\n      0x04\n      dup1\n      calldatasize\n      sub\n      dup2\n      add\n      swap1\n      tag_93\n      swap2\n      swap1\n      tag_39\n      jump\t// in\n    tag_93:\n      tag_94\n      jump\t// in\n    tag_92:\n      mload(0x40)\n      tag_95\n      swap2\n      swap1\n      tag_52\n      jump\t// in\n    tag_95:\n      mload(0x40)\n      dup1\n      swap2\n      sub\n      swap1\n      return\n        /* \"cobraBot/Contract.sol\":2705:3304  function _fallback(address sender, uint256 value) internal {\r... */\n    tag_21:\n        /* \"cobraBot/Contract.sol\":2916:2928  bool success */\n      0x00\n        /* \"cobraBot/Contract.sol\":2939:2951  uint8 gameId */\n      dup1\n        /* \"cobraBot/Contract.sol\":2969:2980  uint8 index */\n      0x00\n        /* \"cobraBot/Contract.sol\":2964:3197  for (uint8 index; index < currentGameIdIndex+1; index++) {\r... */\n    tag_97:\n        /* \"cobraBot/Contract.sol\":3009:3010  1 */\n      0x01\n        /* \"cobraBot/Contract.sol\":2990:3008  currentGameIdIndex */\n      dup1\n      0x00\n      swap1\n      sload\n      swap1\n      0x0100\n      exp\n      swap1\n      div\n      0xff\n      and\n        /* \"cobraBot/Contract.sol\":2990:3010  currentGameIdIndex+1 */\n      tag_100\n      swap2\n      swap1\n      tag_101\n      jump\t// in\n    tag_100:\n        /* \"cobraBot/Contract.sol\":2982:3010  index < currentGameIdIndex+1 */\n      0xff\n      and\n        /* \"cobraBot/Contract.sol\":2982:2987  index */\n      dup2\n        /* \"cobraBot/Contract.sol\":2982:3010  index < currentGameIdIndex+1 */\n      0xff\n      and\n      lt\n        /* \"cobraBot/Contract.sol\":2964:3197  for (uint8 index; index < currentGameIdIndex+1; index++) {\r... */\n      iszero\n      tag_98\n      jumpi\n        /* \"cobraBot/Contract.sol\":3069:3078  msg.value */\n      callvalue\n        /* \"cobraBot/Contract.sol\":3040:3046  levels */\n      0x02\n        /* \"cobraBot/Contract.sol\":3040:3053  levels[index] */\n      0x00\n        /* \"cobraBot/Contract.sol\":3047:3052  index */\n      dup4\n        /* \"cobraBot/Contract.sol\":3040:3053  levels[index] */\n      0xff\n      and\n      0xff\n      and\n      dup2\n      mstore\n      0x20\n      add\n      swap1\n      dup2\n      mstore\n      0x20\n      add\n      0x00\n      keccak256\n        /* \"cobraBot/Contract.sol\":3040:3065  levels[index].amountToPay */\n      0x01\n      add\n      sload\n        /* \"cobraBot/Contract.sol\":3040:3078  levels[index].amountToPay == msg.value */\n      eq\n        /* \"cobraBot/Contract.sol\":3036:3186  if (levels[index].amountToPay == msg.value) {\r... */\n      iszero\n      tag_102\n      jumpi\n        /* \"cobraBot/Contract.sol\":3109:3113  true */\n      0x01\n        /* \"cobraBot/Contract.sol\":3099:3113  success = true */\n      swap3\n      pop\n        /* \"cobraBot/Contract.sol\":3141:3146  index */\n      dup1\n        /* \"cobraBot/Contract.sol\":3132:3146  gameId = index */\n      swap2\n      pop\n        /* \"cobraBot/Contract.sol\":3165:3170  break */\n      jump(tag_98)\n        /* \"cobraBot/Contract.sol\":3036:3186  if (levels[index].amountToPay == msg.value) {\r... */\n    tag_102:\n        /* \"cobraBot/Contract.sol\":3012:3019  index++ */\n      dup1\n      dup1\n      tag_103\n      swap1\n      tag_104\n      jump\t// in\n    tag_103:\n      swap2\n      pop\n      pop\n        /* \"cobraBot/Contract.sol\":2964:3197  for (uint8 index; index < currentGameIdIndex+1; index++) {\r... */\n      jump(tag_97)\n    tag_98:\n      pop\n        /* \"cobraBot/Contract.sol\":3225:3232  success */\n      dup2\n        /* \"cobraBot/Contract.sol\":3217:3251  require(success, \"Game not found\") */\n      tag_105\n      jumpi\n      mload(0x40)\n      0x08c379a000000000000000000000000000000000000000000000000000000000\n      dup2\n      mstore\n      0x04\n      add\n      tag_106\n      swap1\n      tag_107\n      jump\t// in\n    tag_106:\n      mload(0x40)\n      dup1\n      swap2\n      sub\n      swap1\n      revert\n    tag_105:\n        /* \"cobraBot/Contract.sol\":3262:3296  _joinToGame(gameId, sender, value) */\n      tag_108\n        /* \"cobraBot/Contract.sol\":3274:3280  gameId */\n      dup2\n        /* \"cobraBot/Contract.sol\":3282:3288  sender */\n      dup6\n        /* \"cobraBot/Contract.sol\":3290:3295  value */\n      dup6\n        /* \"cobraBot/Contract.sol\":3262:3273  _joinToGame */\n      tag_109\n        /* \"cobraBot/Contract.sol\":3262:3296  _joinToGame(gameId, sender, value) */\n      jump\t// in\n    tag_108:\n        /* \"cobraBot/Contract.sol\":2764:3304  {\r... */\n      pop\n      pop\n        /* \"cobraBot/Contract.sol\":2705:3304  function _fallback(address sender, uint256 value) internal {\r... */\n      pop\n      pop\n      jump\t// out\n        /* \"cobraBot/Contract.sol\":4063:4500  function registerUserToGame(uint256 inviterId) external payable noContractAccess {\r... */\n    tag_28:\n        /* \"cobraBot/Contract.sol\":1954:1965  uint32 size */\n      0x00\n        /* \"cobraBot/Contract.sol\":1976:1990  address sender */\n      dup1\n        /* \"cobraBot/Contract.sol\":1993:2003  msg.sender */\n      caller\n        /* \"cobraBot/Contract.sol\":1976:2003  address sender = msg.sender */\n      swap1\n      pop\n        /* \"cobraBot/Contract.sol\":2045:2051  sender */\n      dup1\n        /* \"cobraBot/Contract.sol\":2033:2052  extcodesize(sender) */\n      extcodesize\n        /* \"cobraBot/Contract.sol\":2025:2052  size := extcodesize(sender) */\n      swap2\n      pop\n        /* \"cobraBot/Contract.sol\":2083:2084  0 */\n      0x00\n        /* \"cobraBot/Contract.sol\":2076:2080  size */\n      dup3\n        /* \"cobraBot/Contract.sol\":2076:2084  size > 0 */\n      0xffffffff\n      and\n      gt\n        /* \"cobraBot/Contract.sol\":2074:2085  !(size > 0) */\n      iszero\n        /* \"cobraBot/Contract.sol\":2066:2102  require(!(size > 0), \"No contracts\") */\n      tag_111\n      jumpi\n      mload(0x40)\n      0x08c379a000000000000000000000000000000000000000000000000000000000\n      dup2\n      mstore\n      0x04\n      add\n      tag_112\n      swap1\n      tag_113\n      jump\t// in\n    tag_112:\n      mload(0x40)\n      dup1\n      swap2\n      sub\n      swap1\n      revert\n    tag_111:\n        /* \"cobraBot/Contract.sol\":4256:4263  1 ether */\n      0x0de0b6b3a7640000\n        /* \"cobraBot/Contract.sol\":4243:4252  msg.value */\n      callvalue\n        /* \"cobraBot/Contract.sol\":4243:4263  msg.value == 1 ether */\n      eq\n        /* \"cobraBot/Contract.sol\":4234:4308  require (msg.value == 1 ether, \"For regiter in game you need pay 1 ether\") */\n      tag_115\n      jumpi\n      mload(0x40)\n      0x08c379a000000000000000000000000000000000000000000000000000000000\n      dup2\n      mstore\n      0x04\n      add\n      tag_116\n      swap1\n      tag_117\n      jump\t// in\n    tag_116:\n      mload(0x40)\n      dup1\n      swap2\n      sub\n      swap1\n      revert\n    tag_115:\n        /* \"cobraBot/Contract.sol\":4351:4407  User(currentUserIdIndex, payable(msg.sender), inviterId) */\n      mload(0x40)\n      dup1\n      0x60\n      add\n      0x40\n      mstore\n      dup1\n        /* \"cobraBot/Contract.sol\":4356:4374  currentUserIdIndex */\n      sload(0x00)\n        /* \"cobraBot/Contract.sol\":4351:4407  User(currentUserIdIndex, payable(msg.sender), inviterId) */\n      dup2\n      mstore\n      0x20\n      add\n        /* \"cobraBot/Contract.sol\":4384:4394  msg.sender */\n      caller\n        /* \"cobraBot/Contract.sol\":4351:4407  User(currentUserIdIndex, payable(msg.sender), inviterId) */\n      0xffffffffffffffffffffffffffffffffffffffff\n      and\n      dup2\n      mstore\n      0x20\n      add\n        /* \"cobraBot/Contract.sol\":4397:4406  inviterId */\n      dup5\n        /* \"cobraBot/Contract.sol\":4351:4407  User(currentUserIdIndex, payable(msg.sender), inviterId) */\n      dup2\n      mstore\n      pop\n        /* \"cobraBot/Contract.sol\":4321:4336  registeredUsers */\n      0x04\n        /* \"cobraBot/Contract.sol\":4321:4348  registeredUsers[msg.sender] */\n      0x00\n        /* \"cobraBot/Contract.sol\":4337:4347  msg.sender */\n      caller\n        /* \"cobraBot/Contract.sol\":4321:4348  registeredUsers[msg.sender] */\n      0xffffffffffffffffffffffffffffffffffffffff\n      and\n      0xffffffffffffffffffffffffffffffffffffffff\n      and\n      dup2\n      mstore\n      0x20\n      add\n      swap1\n      dup2\n      mstore\n      0x20\n      add\n      0x00\n      keccak256\n        /* \"cobraBot/Contract.sol\":4321:4407  registeredUsers[msg.sender] = User(currentUserIdIndex, payable(msg.sender), inviterId) */\n      0x00\n      dup3\n      add\n      mload\n      dup2\n      0x00\n      add\n      sstore\n      0x20\n      dup3\n      add\n      mload\n      dup2\n      0x01\n      add\n      exp(0x0100, 0x00)\n      dup2\n      sload\n      dup2\n      0xffffffffffffffffffffffffffffffffffffffff\n      mul\n      not\n      and\n      swap1\n      dup4\n      0xffffffffffffffffffffffffffffffffffffffff\n      and\n      mul\n      or\n      swap1\n      sstore\n      pop\n      0x40\n      dup3\n      add\n      mload\n      dup2\n      0x02\n      add\n      sstore\n      swap1\n      pop\n      pop\n        /* \"cobraBot/Contract.sol\":4448:4458  msg.sender */\n      caller\n        /* \"cobraBot/Contract.sol\":4418:4425  usersId */\n      0x03\n        /* \"cobraBot/Contract.sol\":4418:4445  usersId[currentUserIdIndex] */\n      0x00\n        /* \"cobraBot/Contract.sol\":4426:4444  currentUserIdIndex */\n      dup1\n      sload\n        /* \"cobraBot/Contract.sol\":4418:4445  usersId[currentUserIdIndex] */\n      dup2\n      mstore\n      0x20\n      add\n      swap1\n      dup2\n      mstore\n      0x20\n      add\n      0x00\n      keccak256\n      0x00\n        /* \"cobraBot/Contract.sol\":4418:4458  usersId[currentUserIdIndex] = msg.sender */\n      0x0100\n      exp\n      dup2\n      sload\n      dup2\n      0xffffffffffffffffffffffffffffffffffffffff\n      mul\n      not\n      and\n      swap1\n      dup4\n      0xffffffffffffffffffffffffffffffffffffffff\n      and\n      mul\n      or\n      swap1\n      sstore\n      pop\n        /* \"cobraBot/Contract.sol\":4491:4492  1 */\n      0x01\n        /* \"cobraBot/Contract.sol\":4469:4487  currentUserIdIndex */\n      0x00\n      dup1\n        /* \"cobraBot/Contract.sol\":4469:4492  currentUserIdIndex += 1 */\n      dup3\n      dup3\n      sload\n      tag_118\n      swap2\n      swap1\n      tag_119\n      jump\t// in\n    tag_118:\n      swap3\n      pop\n      pop\n      dup2\n      swap1\n      sstore\n      pop\n        /* \"cobraBot/Contract.sol\":1907:2122  {\r... */\n      pop\n      pop\n        /* \"cobraBot/Contract.sol\":4063:4500  function registerUserToGame(uint256 inviterId) external payable noContractAccess {\r... */\n      pop\n      jump\t// out\n        /* \"cobraBot/Contract.sol\":943:991  mapping (address => User) public registeredUsers */\n    tag_33:\n      mstore(0x20, 0x04)\n      dup1\n      0x00\n      mstore\n      keccak256(0x00, 0x40)\n      0x00\n      swap2\n      pop\n      swap1\n      pop\n      dup1\n      0x00\n      add\n      sload\n      swap1\n      dup1\n      0x01\n      add\n      0x00\n      swap1\n      sload\n      swap1\n      0x0100\n      exp\n      swap1\n      div\n      0xffffffffffffffffffffffffffffffffffffffff\n      and\n      swap1\n      dup1\n      0x02\n      add\n      sload\n      swap1\n      pop\n      dup4\n      jump\t// out\n        /* \"cobraBot/Contract.sol\":1347:1408  mapping (address => mapping (uint8 => bool)) public userGames */\n    tag_40:\n      mstore(0x20, 0x08)\n      dup2\n      0x00\n      mstore\n      mstore(0x20, keccak256(0x00, 0x40))\n      dup1\n      0x00\n      mstore\n      keccak256(0x00, 0x40)\n      0x00\n      swap2\n      pop\n      swap2\n      pop\n      swap1\n      sload\n      swap1\n      0x0100\n      exp\n      swap1\n      div\n      0xff\n      and\n      dup2\n      jump\t// out\n        /* \"cobraBot/Contract.sol\":4508:4725  function joinToGame(uint8 gameId) public payable onlyRegistered {\r... */\n    tag_46:\n        /* \"cobraBot/Contract.sol\":1850:1851  0 */\n      0x00\n        /* \"cobraBot/Contract.sol\":1799:1852  registeredUsers[msg.sender].userAddress != address(0) */\n      0xffffffffffffffffffffffffffffffffffffffff\n      and\n        /* \"cobraBot/Contract.sol\":1799:1814  registeredUsers */\n      0x04\n        /* \"cobraBot/Contract.sol\":1799:1826  registeredUsers[msg.sender] */\n      0x00\n        /* \"cobraBot/Contract.sol\":1815:1825  msg.sender */\n      caller\n        /* \"cobraBot/Contract.sol\":1799:1826  registeredUsers[msg.sender] */\n      0xffffffffffffffffffffffffffffffffffffffff\n      and\n      0xffffffffffffffffffffffffffffffffffffffff\n      and\n      dup2\n      mstore\n      0x20\n      add\n      swap1\n      dup2\n      mstore\n      0x20\n      add\n      0x00\n      keccak256\n        /* \"cobraBot/Contract.sol\":1799:1838  registeredUsers[msg.sender].userAddress */\n      0x01\n      add\n      0x00\n      swap1\n      sload\n      swap1\n      0x0100\n      exp\n      swap1\n      div\n      0xffffffffffffffffffffffffffffffffffffffff\n      and\n        /* \"cobraBot/Contract.sol\":1799:1852  registeredUsers[msg.sender].userAddress != address(0) */\n      0xffffffffffffffffffffffffffffffffffffffff\n      and\n      eq\n      iszero\n        /* \"cobraBot/Contract.sol\":1791:1853  require(registeredUsers[msg.sender].userAddress != address(0)) */\n      tag_121\n      jumpi\n      0x00\n      dup1\n      revert\n    tag_121:\n        /* \"cobraBot/Contract.sol\":4675:4717  _joinToGame(gameId, msg.sender, msg.value) */\n      tag_123\n        /* \"cobraBot/Contract.sol\":4687:4693  gameId */\n      dup2\n        /* \"cobraBot/Contract.sol\":4695:4705  msg.sender */\n      caller\n        /* \"cobraBot/Contract.sol\":4707:4716  msg.value */\n      callvalue\n        /* \"cobraBot/Contract.sol\":4675:4686  _joinToGame */\n      tag_109\n        /* \"cobraBot/Contract.sol\":4675:4717  _joinToGame(gameId, msg.sender, msg.value) */\n      jump\t// in\n    tag_123:\n        /* \"cobraBot/Contract.sol\":4508:4725  function joinToGame(uint8 gameId) public payable onlyRegistered {\r... */\n      pop\n      jump\t// out\n        /* \"cobraBot/Contract.sol\":3549:3668  function getUserBalance(address userAddress) public view returns(uint256) {\r... */\n    tag_50:\n        /* \"cobraBot/Contract.sol\":3614:3621  uint256 */\n      0x00\n        /* \"cobraBot/Contract.sol\":3641:3652  userAddress */\n      dup2\n        /* \"cobraBot/Contract.sol\":3641:3660  userAddress.balance */\n      0xffffffffffffffffffffffffffffffffffffffff\n      and\n      balance\n        /* \"cobraBot/Contract.sol\":3634:3660  return userAddress.balance */\n      swap1\n      pop\n        /* \"cobraBot/Contract.sol\":3549:3668  function getUserBalance(address userAddress) public view returns(uint256) {\r... */\n      swap2\n      swap1\n      pop\n      jump\t// out\n        /* \"cobraBot/Contract.sol\":1135:1192  mapping (uint8 => mapping (uint256 => User)) public pools */\n    tag_57:\n      mstore(0x20, 0x06)\n      dup2\n      0x00\n      mstore\n      mstore(0x20, keccak256(0x00, 0x40))\n      dup1\n      0x00\n      mstore\n      keccak256(0x00, 0x40)\n      0x00\n      swap2\n      pop\n      swap2\n      pop\n      pop\n      dup1\n      0x00\n      add\n      sload\n      swap1\n      dup1\n      0x01\n      add\n      0x00\n      swap1\n      sload\n      swap1\n      0x0100\n      exp\n      swap1\n      div\n      0xffffffffffffffffffffffffffffffffffffffff\n      and\n      swap1\n      dup1\n      0x02\n      add\n      sload\n      swap1\n      pop\n      dup4\n      jump\t// out\n        /* \"cobraBot/Contract.sol\":3676:4055  function addGameLevel(uint256 circleCount, uint256 amountToPay) public onlyOwner {\r... */\n    tag_63:\n        /* \"cobraBot/Contract.sol\":2197:2218  hasAccess(msg.sender) */\n      tag_126\n        /* \"cobraBot/Contract.sol\":2207:2217  msg.sender */\n      caller\n        /* \"cobraBot/Contract.sol\":2197:2206  hasAccess */\n      tag_73\n        /* \"cobraBot/Contract.sol\":2197:2218  hasAccess(msg.sender) */\n      jump\t// in\n    tag_126:\n        /* \"cobraBot/Contract.sol\":2189:2219  require(hasAccess(msg.sender)) */\n      tag_127\n      jumpi\n      0x00\n      dup1\n      revert\n    tag_127:\n        /* \"cobraBot/Contract.sol\":3902:3962  Game({ circleCount: circleCount, amountToPay: amountToPay }) */\n      mload(0x40)\n      dup1\n      0x40\n      add\n      0x40\n      mstore\n      dup1\n        /* \"cobraBot/Contract.sol\":3922:3933  circleCount */\n      dup4\n        /* \"cobraBot/Contract.sol\":3902:3962  Game({ circleCount: circleCount, amountToPay: amountToPay }) */\n      dup2\n      mstore\n      0x20\n      add\n        /* \"cobraBot/Contract.sol\":3948:3959  amountToPay */\n      dup3\n        /* \"cobraBot/Contract.sol\":3902:3962  Game({ circleCount: circleCount, amountToPay: amountToPay }) */\n      dup2\n      mstore\n      pop\n        /* \"cobraBot/Contract.sol\":3873:3879  levels */\n      0x02\n        /* \"cobraBot/Contract.sol\":3873:3899  levels[currentGameIdIndex] */\n      0x00\n        /* \"cobraBot/Contract.sol\":3880:3898  currentGameIdIndex */\n      0x01\n      0x00\n      swap1\n      sload\n      swap1\n      0x0100\n      exp\n      swap1\n      div\n      0xff\n      and\n        /* \"cobraBot/Contract.sol\":3873:3899  levels[currentGameIdIndex] */\n      0xff\n      and\n      0xff\n      and\n      dup2\n      mstore\n      0x20\n      add\n      swap1\n      dup2\n      mstore\n      0x20\n      add\n      0x00\n      keccak256\n        /* \"cobraBot/Contract.sol\":3873:3962  levels[currentGameIdIndex] = Game({ circleCount: circleCount, amountToPay: amountToPay }) */\n      0x00\n      dup3\n      add\n      mload\n      dup2\n      0x00\n      add\n      sstore\n      0x20\n      dup3\n      add\n      mload\n      dup2\n      0x01\n      add\n      sstore\n      swap1\n      pop\n      pop\n        /* \"cobraBot/Contract.sol\":3978:4013  NewGame(levels[currentGameIdIndex]) */\n      0x954900f0fb49268c265d1bafbfbf6c060c8b41cdb6b0bcaa575389d650b5e374\n        /* \"cobraBot/Contract.sol\":3986:3992  levels */\n      0x02\n        /* \"cobraBot/Contract.sol\":3986:4012  levels[currentGameIdIndex] */\n      0x00\n        /* \"cobraBot/Contract.sol\":3993:4011  currentGameIdIndex */\n      0x01\n      0x00\n      swap1\n      sload\n      swap1\n      0x0100\n      exp\n      swap1\n      div\n      0xff\n      and\n        /* \"cobraBot/Contract.sol\":3986:4012  levels[currentGameIdIndex] */\n      0xff\n      and\n      0xff\n      and\n      dup2\n      mstore\n      0x20\n      add\n      swap1\n      dup2\n      mstore\n      0x20\n      add\n      0x00\n      keccak256\n        /* \"cobraBot/Contract.sol\":3978:4013  NewGame(levels[currentGameIdIndex]) */\n      mload(0x40)\n      tag_129\n      swap2\n      swap1\n      tag_130\n      jump\t// in\n    tag_129:\n      mload(0x40)\n      dup1\n      swap2\n      sub\n      swap1\n      log1\n        /* \"cobraBot/Contract.sol\":4046:4047  1 */\n      0x01\n        /* \"cobraBot/Contract.sol\":4024:4042  currentGameIdIndex */\n      dup1\n      0x00\n        /* \"cobraBot/Contract.sol\":4024:4047  currentGameIdIndex += 1 */\n      dup3\n      dup3\n      dup3\n      swap1\n      sload\n      swap1\n      0x0100\n      exp\n      swap1\n      div\n      0xff\n      and\n      tag_131\n      swap2\n      swap1\n      tag_101\n      jump\t// in\n    tag_131:\n      swap3\n      pop\n      0x0100\n      exp\n      dup2\n      sload\n      dup2\n      0xff\n      mul\n      not\n      and\n      swap1\n      dup4\n      0xff\n      and\n      mul\n      or\n      swap1\n      sstore\n      pop\n        /* \"cobraBot/Contract.sol\":3676:4055  function addGameLevel(uint256 circleCount, uint256 amountToPay) public onlyOwner {\r... */\n      pop\n      pop\n      jump\t// out\n        /* \"cobraBot/Contract.sol\":795:832  mapping (uint8 => Game) public levels */\n    tag_67:\n      mstore(0x20, 0x02)\n      dup1\n      0x00\n      mstore\n      keccak256(0x00, 0x40)\n      0x00\n      swap2\n      pop\n      swap1\n      pop\n      dup1\n      0x00\n      add\n      sload\n      swap1\n      dup1\n      0x01\n      add\n      sload\n      swap1\n      pop\n      dup3\n      jump\t// out\n        /* \"cobraBot/Contract.sol\":3312:3541  function hasAccess(address userAdress) public view returns(bool) {\r... */\n    tag_73:\n        /* \"cobraBot/Contract.sol\":3371:3375  bool */\n      0x00\n        /* \"cobraBot/Contract.sol\":3520:3533  contractOwner */\n      0x01\n      dup1\n      sload\n      swap1\n      0x0100\n      exp\n      swap1\n      div\n      0xffffffffffffffffffffffffffffffffffffffff\n      and\n        /* \"cobraBot/Contract.sol\":3506:3533  userAdress == contractOwner */\n      0xffffffffffffffffffffffffffffffffffffffff\n      and\n        /* \"cobraBot/Contract.sol\":3506:3516  userAdress */\n      dup3\n        /* \"cobraBot/Contract.sol\":3506:3533  userAdress == contractOwner */\n      0xffffffffffffffffffffffffffffffffffffffff\n      and\n      eq\n        /* \"cobraBot/Contract.sol\":3499:3533  return userAdress == contractOwner */\n      swap1\n      pop\n        /* \"cobraBot/Contract.sol\":3312:3541  function hasAccess(address userAdress) public view returns(bool) {\r... */\n      swap2\n      swap1\n      pop\n      jump\t// out\n        /* \"cobraBot/Contract.sol\":1046:1096  mapping (uint8 => uint256) public currentUserIndex */\n    tag_78:\n      mstore(0x20, 0x05)\n      dup1\n      0x00\n      mstore\n      keccak256(0x00, 0x40)\n      0x00\n      swap2\n      pop\n      swap1\n      pop\n      sload\n      dup2\n      jump\t// out\n        /* \"cobraBot/Contract.sol\":150:181  uint8 public currentGameIdIndex */\n    tag_82:\n      0x01\n      0x00\n      swap1\n      sload\n      swap1\n      0x0100\n      exp\n      swap1\n      div\n      0xff\n      and\n      dup2\n      jump\t// out\n        /* \"cobraBot/Contract.sol\":856:899  mapping (uint256 => address) public usersId */\n    tag_88:\n      mstore(0x20, 0x03)\n      dup1\n      0x00\n      mstore\n      keccak256(0x00, 0x40)\n      0x00\n      swap2\n      pop\n      sload\n      swap1\n      0x0100\n      exp\n      swap1\n      div\n      0xffffffffffffffffffffffffffffffffffffffff\n      and\n      dup2\n      jump\t// out\n        /* \"cobraBot/Contract.sol\":1234:1301  mapping (address => mapping (uint8 => uint256)) public userPayments */\n    tag_94:\n      mstore(0x20, 0x07)\n      dup2\n      0x00\n      mstore\n      mstore(0x20, keccak256(0x00, 0x40))\n      dup1\n      0x00\n      mstore\n      keccak256(0x00, 0x40)\n      0x00\n      swap2\n      pop\n      swap2\n      pop\n      pop\n      sload\n      dup2\n      jump\t// out\n        /* \"cobraBot/Contract.sol\":4733:8351  function _joinToGame(uint8 gameId, address sender, uint256 value) internal {\r... */\n    tag_109:\n        /* \"cobraBot/Contract.sol\":4837:4843  levels */\n      0x02\n        /* \"cobraBot/Contract.sol\":4837:4851  levels[gameId] */\n      0x00\n        /* \"cobraBot/Contract.sol\":4844:4850  gameId */\n      dup5\n        /* \"cobraBot/Contract.sol\":4837:4851  levels[gameId] */\n      0xff\n      and\n      0xff\n      and\n      dup2\n      mstore\n      0x20\n      add\n      swap1\n      dup2\n      mstore\n      0x20\n      add\n      0x00\n      keccak256\n        /* \"cobraBot/Contract.sol\":4837:4863  levels[gameId].amountToPay */\n      0x01\n      add\n      sload\n        /* \"cobraBot/Contract.sol\":4828:4833  value */\n      dup2\n        /* \"cobraBot/Contract.sol\":4828:4863  value >= levels[gameId].amountToPay */\n      lt\n      iszero\n        /* \"cobraBot/Contract.sol\":4819:4903  require (value >= levels[gameId].amountToPay, \"Insufficient amount of contribution\") */\n      tag_134\n      jumpi\n      mload(0x40)\n      0x08c379a000000000000000000000000000000000000000000000000000000000\n      dup2\n      mstore\n      0x04\n      add\n      tag_135\n      swap1\n      tag_136\n      jump\t// in\n    tag_135:\n      mload(0x40)\n      dup1\n      swap2\n      sub\n      swap1\n      revert\n    tag_134:\n        /* \"cobraBot/Contract.sol\":4916:4929  uint256 index */\n      0x00\n        /* \"cobraBot/Contract.sol\":4932:4948  currentUserIndex */\n      0x05\n        /* \"cobraBot/Contract.sol\":4932:4956  currentUserIndex[gameId] */\n      0x00\n        /* \"cobraBot/Contract.sol\":4949:4955  gameId */\n      dup6\n        /* \"cobraBot/Contract.sol\":4932:4956  currentUserIndex[gameId] */\n      0xff\n      and\n      0xff\n      and\n      dup2\n      mstore\n      0x20\n      add\n      swap1\n      dup2\n      mstore\n      0x20\n      add\n      0x00\n      keccak256\n      sload\n        /* \"cobraBot/Contract.sol\":4916:4956  uint256 index = currentUserIndex[gameId] */\n      swap1\n      pop\n        /* \"cobraBot/Contract.sol\":5140:5155  registeredUsers */\n      0x04\n        /* \"cobraBot/Contract.sol\":5140:5163  registeredUsers[sender] */\n      0x00\n        /* \"cobraBot/Contract.sol\":5156:5162  sender */\n      dup5\n        /* \"cobraBot/Contract.sol\":5140:5163  registeredUsers[sender] */\n      0xffffffffffffffffffffffffffffffffffffffff\n      and\n      0xffffffffffffffffffffffffffffffffffffffff\n      and\n      dup2\n      mstore\n      0x20\n      add\n      swap1\n      dup2\n      mstore\n      0x20\n      add\n      0x00\n      keccak256\n        /* \"cobraBot/Contract.sol\":5117:5122  pools */\n      0x06\n        /* \"cobraBot/Contract.sol\":5117:5130  pools[gameId] */\n      0x00\n        /* \"cobraBot/Contract.sol\":5123:5129  gameId */\n      dup7\n        /* \"cobraBot/Contract.sol\":5117:5130  pools[gameId] */\n      0xff\n      and\n      0xff\n      and\n      dup2\n      mstore\n      0x20\n      add\n      swap1\n      dup2\n      mstore\n      0x20\n      add\n      0x00\n      keccak256\n        /* \"cobraBot/Contract.sol\":5117:5137  pools[gameId][index] */\n      0x00\n        /* \"cobraBot/Contract.sol\":5131:5136  index */\n      dup4\n        /* \"cobraBot/Contract.sol\":5117:5137  pools[gameId][index] */\n      dup2\n      mstore\n      0x20\n      add\n      swap1\n      dup2\n      mstore\n      0x20\n      add\n      0x00\n      keccak256\n        /* \"cobraBot/Contract.sol\":5117:5163  pools[gameId][index] = registeredUsers[sender] */\n      0x00\n      dup3\n      add\n      sload\n      dup2\n      0x00\n      add\n      sstore\n      0x01\n      dup3\n      add\n      0x00\n      swap1\n      sload\n      swap1\n      0x0100\n      exp\n      swap1\n      div\n      0xffffffffffffffffffffffffffffffffffffffff\n      and\n      dup2\n      0x01\n      add\n      exp(0x0100, 0x00)\n      dup2\n      sload\n      dup2\n      0xffffffffffffffffffffffffffffffffffffffff\n      mul\n      not\n      and\n      swap1\n      dup4\n      0xffffffffffffffffffffffffffffffffffffffff\n      and\n      mul\n      or\n      swap1\n      sstore\n      pop\n      0x02\n      dup3\n      add\n      sload\n      dup2\n      0x02\n      add\n      sstore\n      swap1\n      pop\n      pop\n        /* \"cobraBot/Contract.sol\":5202:5203  1 */\n      0x01\n        /* \"cobraBot/Contract.sol\":5174:5190  currentUserIndex */\n      0x05\n        /* \"cobraBot/Contract.sol\":5174:5198  currentUserIndex[gameId] */\n      0x00\n        /* \"cobraBot/Contract.sol\":5191:5197  gameId */\n      dup7\n        /* \"cobraBot/Contract.sol\":5174:5198  currentUserIndex[gameId] */\n      0xff\n      and\n      0xff\n      and\n      dup2\n      mstore\n      0x20\n      add\n      swap1\n      dup2\n      mstore\n      0x20\n      add\n      0x00\n      keccak256\n      0x00\n        /* \"cobraBot/Contract.sol\":5174:5203  currentUserIndex[gameId] += 1 */\n      dup3\n      dup3\n      sload\n      tag_137\n      swap2\n      swap1\n      tag_119\n      jump\t// in\n    tag_137:\n      swap3\n      pop\n      pop\n      dup2\n      swap1\n      sstore\n      pop\n        /* \"cobraBot/Contract.sol\":5242:5246  true */\n      0x01\n        /* \"cobraBot/Contract.sol\":5214:5223  userGames */\n      0x08\n        /* \"cobraBot/Contract.sol\":5214:5231  userGames[sender] */\n      0x00\n        /* \"cobraBot/Contract.sol\":5224:5230  sender */\n      dup6\n        /* \"cobraBot/Contract.sol\":5214:5231  userGames[sender] */\n      0xffffffffffffffffffffffffffffffffffffffff\n      and\n      0xffffffffffffffffffffffffffffffffffffffff\n      and\n      dup2\n      mstore\n      0x20\n      add\n      swap1\n      dup2\n      mstore\n      0x20\n      add\n      0x00\n      keccak256\n        /* \"cobraBot/Contract.sol\":5214:5239  userGames[sender][gameId] */\n      0x00\n        /* \"cobraBot/Contract.sol\":5232:5238  gameId */\n      dup7\n        /* \"cobraBot/Contract.sol\":5214:5239  userGames[sender][gameId] */\n      0xff\n      and\n      0xff\n      and\n      dup2\n      mstore\n      0x20\n      add\n      swap1\n      dup2\n      mstore\n      0x20\n      add\n      0x00\n      keccak256\n      0x00\n        /* \"cobraBot/Contract.sol\":5214:5246  userGames[sender][gameId] = true */\n      0x0100\n      exp\n      dup2\n      sload\n      dup2\n      0xff\n      mul\n      not\n      and\n      swap1\n      dup4\n      iszero\n      iszero\n      mul\n      or\n      swap1\n      sstore\n      pop\n        /* \"cobraBot/Contract.sol\":5369:5375  levels */\n      0x02\n        /* \"cobraBot/Contract.sol\":5369:5383  levels[gameId] */\n      0x00\n        /* \"cobraBot/Contract.sol\":5376:5382  gameId */\n      dup6\n        /* \"cobraBot/Contract.sol\":5369:5383  levels[gameId] */\n      0xff\n      and\n      0xff\n      and\n      dup2\n      mstore\n      0x20\n      add\n      swap1\n      dup2\n      mstore\n      0x20\n      add\n      0x00\n      keccak256\n        /* \"cobraBot/Contract.sol\":5369:5395  levels[gameId].circleCount */\n      0x00\n      add\n      sload\n        /* \"cobraBot/Contract.sol\":5360:5365  index */\n      dup2\n        /* \"cobraBot/Contract.sol\":5360:5395  index >= levels[gameId].circleCount */\n      lt\n        /* \"cobraBot/Contract.sol\":5356:8344  if (index >= levels[gameId].circleCount) {\r... */\n      tag_138\n      jumpi\n        /* \"cobraBot/Contract.sol\":5417:5428  uint circle */\n      0x00\n        /* \"cobraBot/Contract.sol\":5431:5432  1 */\n      0x01\n        /* \"cobraBot/Contract.sol\":5417:5432  uint circle = 1 */\n      swap1\n      pop\n        /* \"cobraBot/Contract.sol\":5412:8333  for (uint circle = 1; circle <= index / levels[gameId].circleCount; circle++) {\r... */\n    tag_139:\n        /* \"cobraBot/Contract.sol\":5452:5458  levels */\n      0x02\n        /* \"cobraBot/Contract.sol\":5452:5466  levels[gameId] */\n      0x00\n        /* \"cobraBot/Contract.sol\":5459:5465  gameId */\n      dup7\n        /* \"cobraBot/Contract.sol\":5452:5466  levels[gameId] */\n      0xff\n      and\n      0xff\n      and\n      dup2\n      mstore\n      0x20\n      add\n      swap1\n      dup2\n      mstore\n      0x20\n      add\n      0x00\n      keccak256\n        /* \"cobraBot/Contract.sol\":5452:5478  levels[gameId].circleCount */\n      0x00\n      add\n      sload\n        /* \"cobraBot/Contract.sol\":5444:5449  index */\n      dup3\n        /* \"cobraBot/Contract.sol\":5444:5478  index / levels[gameId].circleCount */\n      tag_142\n      swap2\n      swap1\n      tag_143\n      jump\t// in\n    tag_142:\n        /* \"cobraBot/Contract.sol\":5434:5440  circle */\n      dup2\n        /* \"cobraBot/Contract.sol\":5434:5478  circle <= index / levels[gameId].circleCount */\n      gt\n        /* \"cobraBot/Contract.sol\":5412:8333  for (uint circle = 1; circle <= index / levels[gameId].circleCount; circle++) {\r... */\n      tag_140\n      jumpi\n        /* \"cobraBot/Contract.sol\":5509:5528  uint256 winnerIndex */\n      0x00\n        /* \"cobraBot/Contract.sol\":5549:5555  levels */\n      0x02\n        /* \"cobraBot/Contract.sol\":5549:5563  levels[gameId] */\n      0x00\n        /* \"cobraBot/Contract.sol\":5556:5562  gameId */\n      dup8\n        /* \"cobraBot/Contract.sol\":5549:5563  levels[gameId] */\n      0xff\n      and\n      0xff\n      and\n      dup2\n      mstore\n      0x20\n      add\n      swap1\n      dup2\n      mstore\n      0x20\n      add\n      0x00\n      keccak256\n        /* \"cobraBot/Contract.sol\":5549:5575  levels[gameId].circleCount */\n      0x00\n      add\n      sload\n        /* \"cobraBot/Contract.sol\":5540:5546  circle */\n      dup3\n        /* \"cobraBot/Contract.sol\":5540:5575  circle * levels[gameId].circleCount */\n      tag_144\n      swap2\n      swap1\n      tag_145\n      jump\t// in\n    tag_144:\n        /* \"cobraBot/Contract.sol\":5531:5536  index */\n      dup4\n        /* \"cobraBot/Contract.sol\":5531:5575  index -  circle * levels[gameId].circleCount */\n      tag_146\n      swap2\n      swap1\n      tag_147\n      jump\t// in\n    tag_146:\n        /* \"cobraBot/Contract.sol\":5509:5575  uint256 winnerIndex = index -  circle * levels[gameId].circleCount */\n      swap1\n      pop\n        /* \"cobraBot/Contract.sol\":5594:5625  address payable selectedAddress */\n      0x00\n        /* \"cobraBot/Contract.sol\":5628:5633  pools */\n      0x06\n        /* \"cobraBot/Contract.sol\":5628:5641  pools[gameId] */\n      0x00\n        /* \"cobraBot/Contract.sol\":5634:5640  gameId */\n      dup9\n        /* \"cobraBot/Contract.sol\":5628:5641  pools[gameId] */\n      0xff\n      and\n      0xff\n      and\n      dup2\n      mstore\n      0x20\n      add\n      swap1\n      dup2\n      mstore\n      0x20\n      add\n      0x00\n      keccak256\n        /* \"cobraBot/Contract.sol\":5628:5654  pools[gameId][winnerIndex] */\n      0x00\n        /* \"cobraBot/Contract.sol\":5642:5653  winnerIndex */\n      dup4\n        /* \"cobraBot/Contract.sol\":5628:5654  pools[gameId][winnerIndex] */\n      dup2\n      mstore\n      0x20\n      add\n      swap1\n      dup2\n      mstore\n      0x20\n      add\n      0x00\n      keccak256\n        /* \"cobraBot/Contract.sol\":5628:5666  pools[gameId][winnerIndex].userAddress */\n      0x01\n      add\n      0x00\n      swap1\n      sload\n      swap1\n      0x0100\n      exp\n      swap1\n      div\n      0xffffffffffffffffffffffffffffffffffffffff\n      and\n        /* \"cobraBot/Contract.sol\":5594:5666  address payable selectedAddress = pools[gameId][winnerIndex].userAddress */\n      swap1\n      pop\n        /* \"cobraBot/Contract.sol\":5896:5897  1 */\n      0x01\n        /* \"cobraBot/Contract.sol\":5855:5867  userPayments */\n      0x07\n        /* \"cobraBot/Contract.sol\":5855:5884  userPayments[selectedAddress] */\n      0x00\n        /* \"cobraBot/Contract.sol\":5868:5883  selectedAddress */\n      dup4\n        /* \"cobraBot/Contract.sol\":5855:5884  userPayments[selectedAddress] */\n      0xffffffffffffffffffffffffffffffffffffffff\n      and\n      0xffffffffffffffffffffffffffffffffffffffff\n      and\n      dup2\n      mstore\n      0x20\n      add\n      swap1\n      dup2\n      mstore\n      0x20\n      add\n      0x00\n      keccak256\n        /* \"cobraBot/Contract.sol\":5855:5892  userPayments[selectedAddress][gameId] */\n      0x00\n        /* \"cobraBot/Contract.sol\":5885:5891  gameId */\n      dup10\n        /* \"cobraBot/Contract.sol\":5855:5892  userPayments[selectedAddress][gameId] */\n      0xff\n      and\n      0xff\n      and\n      dup2\n      mstore\n      0x20\n      add\n      swap1\n      dup2\n      mstore\n      0x20\n      add\n      0x00\n      keccak256\n      sload\n        /* \"cobraBot/Contract.sol\":5855:5897  userPayments[selectedAddress][gameId] <= 1 */\n      gt\n      iszero\n        /* \"cobraBot/Contract.sol\":5855:5937  userPayments[selectedAddress][gameId] <= 1 || userGames[selectedAddress][gameId+1] */\n      dup1\n      tag_148\n      jumpi\n      pop\n        /* \"cobraBot/Contract.sol\":5901:5910  userGames */\n      0x08\n        /* \"cobraBot/Contract.sol\":5901:5927  userGames[selectedAddress] */\n      0x00\n        /* \"cobraBot/Contract.sol\":5911:5926  selectedAddress */\n      dup3\n        /* \"cobraBot/Contract.sol\":5901:5927  userGames[selectedAddress] */\n      0xffffffffffffffffffffffffffffffffffffffff\n      and\n      0xffffffffffffffffffffffffffffffffffffffff\n      and\n      dup2\n      mstore\n      0x20\n      add\n      swap1\n      dup2\n      mstore\n      0x20\n      add\n      0x00\n      keccak256\n        /* \"cobraBot/Contract.sol\":5901:5937  userGames[selectedAddress][gameId+1] */\n      0x00\n        /* \"cobraBot/Contract.sol\":5935:5936  1 */\n      0x01\n        /* \"cobraBot/Contract.sol\":5928:5934  gameId */\n      dup10\n        /* \"cobraBot/Contract.sol\":5928:5936  gameId+1 */\n      tag_149\n      swap2\n      swap1\n      tag_101\n      jump\t// in\n    tag_149:\n        /* \"cobraBot/Contract.sol\":5901:5937  userGames[selectedAddress][gameId+1] */\n      0xff\n      and\n      0xff\n      and\n      dup2\n      mstore\n      0x20\n      add\n      swap1\n      dup2\n      mstore\n      0x20\n      add\n      0x00\n      keccak256\n      0x00\n      swap1\n      sload\n      swap1\n      0x0100\n      exp\n      swap1\n      div\n      0xff\n      and\n        /* \"cobraBot/Contract.sol\":5855:5937  userPayments[selectedAddress][gameId] <= 1 || userGames[selectedAddress][gameId+1] */\n    tag_148:\n        /* \"cobraBot/Contract.sol\":5851:8316  if (userPayments[selectedAddress][gameId] <= 1 || userGames[selectedAddress][gameId+1]) {\r... */\n      iszero\n      tag_150\n      jumpi\n        /* \"cobraBot/Contract.sol\":6139:6151  bool success */\n      0x00\n        /* \"cobraBot/Contract.sol\":6157:6172  selectedAddress */\n      dup2\n        /* \"cobraBot/Contract.sol\":6157:6177  selectedAddress.call */\n      0xffffffffffffffffffffffffffffffffffffffff\n      and\n        /* \"cobraBot/Contract.sol\":6226:6229  100 */\n      0x64\n        /* \"cobraBot/Contract.sol\":270:272  74 */\n      0x4a\n        /* \"cobraBot/Contract.sol\":6185:6191  levels */\n      0x02\n        /* \"cobraBot/Contract.sol\":6185:6199  levels[gameId] */\n      0x00\n        /* \"cobraBot/Contract.sol\":6192:6198  gameId */\n      dup13\n        /* \"cobraBot/Contract.sol\":6185:6199  levels[gameId] */\n      0xff\n      and\n      0xff\n      and\n      dup2\n      mstore\n      0x20\n      add\n      swap1\n      dup2\n      mstore\n      0x20\n      add\n      0x00\n      keccak256\n        /* \"cobraBot/Contract.sol\":6185:6211  levels[gameId].amountToPay */\n      0x01\n      add\n      sload\n        /* \"cobraBot/Contract.sol\":6185:6223  levels[gameId].amountToPay * baseAward */\n      tag_151\n      swap2\n      swap1\n      tag_145\n      jump\t// in\n    tag_151:\n        /* \"cobraBot/Contract.sol\":6185:6229  levels[gameId].amountToPay * baseAward / 100 */\n      tag_152\n      swap2\n      swap1\n      tag_143\n      jump\t// in\n    tag_152:\n        /* \"cobraBot/Contract.sol\":6157:6234  selectedAddress.call{value: levels[gameId].amountToPay * baseAward / 100}(\"\") */\n      mload(0x40)\n      tag_153\n      swap1\n      tag_154\n      jump\t// in\n    tag_153:\n      0x00\n      mload(0x40)\n      dup1\n      dup4\n      sub\n      dup2\n      dup6\n      dup8\n      gas\n      call\n      swap3\n      pop\n      pop\n      pop\n      returndatasize\n      dup1\n      0x00\n      dup2\n      eq\n      tag_157\n      jumpi\n      mload(0x40)\n      swap2\n      pop\n      and(add(returndatasize, 0x3f), not(0x1f))\n      dup3\n      add\n      0x40\n      mstore\n      returndatasize\n      dup3\n      mstore\n      returndatasize\n      0x00\n      0x20\n      dup5\n      add\n      returndatacopy\n      jump(tag_156)\n    tag_157:\n      0x60\n      swap2\n      pop\n    tag_156:\n      pop\n        /* \"cobraBot/Contract.sol\":6138:6234  (bool success, ) = selectedAddress.call{value: levels[gameId].amountToPay * baseAward / 100}(\"\") */\n      pop\n      swap1\n      pop\n        /* \"cobraBot/Contract.sol\":6298:6299  1 */\n      0x01\n        /* \"cobraBot/Contract.sol\":6257:6269  userPayments */\n      0x07\n        /* \"cobraBot/Contract.sol\":6257:6286  userPayments[selectedAddress] */\n      0x00\n        /* \"cobraBot/Contract.sol\":6270:6285  selectedAddress */\n      dup5\n        /* \"cobraBot/Contract.sol\":6257:6286  userPayments[selectedAddress] */\n      0xffffffffffffffffffffffffffffffffffffffff\n      and\n      0xffffffffffffffffffffffffffffffffffffffff\n      and\n      dup2\n      mstore\n      0x20\n      add\n      swap1\n      dup2\n      mstore\n      0x20\n      add\n      0x00\n      keccak256\n        /* \"cobraBot/Contract.sol\":6257:6294  userPayments[selectedAddress][gameId] */\n      0x00\n        /* \"cobraBot/Contract.sol\":6287:6293  gameId */\n      dup11\n        /* \"cobraBot/Contract.sol\":6257:6294  userPayments[selectedAddress][gameId] */\n      0xff\n      and\n      0xff\n      and\n      dup2\n      mstore\n      0x20\n      add\n      swap1\n      dup2\n      mstore\n      0x20\n      add\n      0x00\n      keccak256\n      0x00\n        /* \"cobraBot/Contract.sol\":6257:6299  userPayments[selectedAddress][gameId] += 1 */\n      dup3\n      dup3\n      sload\n      tag_158\n      swap2\n      swap1\n      tag_119\n      jump\t// in\n    tag_158:\n      swap3\n      pop\n      pop\n      dup2\n      swap1\n      sstore\n      pop\n        /* \"cobraBot/Contract.sol\":6381:6439  GamePaymentEvent(levels[gameId], selectedAddress, success) */\n      0x48926dbe5ddf41609856a5a4f394bd85410dfcedaa2cfefb48bbb3bbab8b6be7\n        /* \"cobraBot/Contract.sol\":6398:6404  levels */\n      0x02\n        /* \"cobraBot/Contract.sol\":6398:6412  levels[gameId] */\n      0x00\n        /* \"cobraBot/Contract.sol\":6405:6411  gameId */\n      dup11\n        /* \"cobraBot/Contract.sol\":6398:6412  levels[gameId] */\n      0xff\n      and\n      0xff\n      and\n      dup2\n      mstore\n      0x20\n      add\n      swap1\n      dup2\n      mstore\n      0x20\n      add\n      0x00\n      keccak256\n        /* \"cobraBot/Contract.sol\":6414:6429  selectedAddress */\n      dup4\n        /* \"cobraBot/Contract.sol\":6431:6438  success */\n      dup4\n        /* \"cobraBot/Contract.sol\":6381:6439  GamePaymentEvent(levels[gameId], selectedAddress, success) */\n      mload(0x40)\n      tag_159\n      swap4\n      swap3\n      swap2\n      swap1\n      tag_160\n      jump\t// in\n    tag_159:\n      mload(0x40)\n      dup1\n      swap2\n      sub\n      swap1\n      log1\n        /* \"cobraBot/Contract.sol\":6464:6478  uint256 userId */\n      0x00\n        /* \"cobraBot/Contract.sol\":6481:6486  pools */\n      0x06\n        /* \"cobraBot/Contract.sol\":6481:6494  pools[gameId] */\n      0x00\n        /* \"cobraBot/Contract.sol\":6487:6493  gameId */\n      dup11\n        /* \"cobraBot/Contract.sol\":6481:6494  pools[gameId] */\n      0xff\n      and\n      0xff\n      and\n      dup2\n      mstore\n      0x20\n      add\n      swap1\n      dup2\n      mstore\n      0x20\n      add\n      0x00\n      keccak256\n        /* \"cobraBot/Contract.sol\":6481:6507  pools[gameId][winnerIndex] */\n      0x00\n        /* \"cobraBot/Contract.sol\":6495:6506  winnerIndex */\n      dup6\n        /* \"cobraBot/Contract.sol\":6481:6507  pools[gameId][winnerIndex] */\n      dup2\n      mstore\n      0x20\n      add\n      swap1\n      dup2\n      mstore\n      0x20\n      add\n      0x00\n      keccak256\n        /* \"cobraBot/Contract.sol\":6481:6514  pools[gameId][winnerIndex].userId */\n      0x00\n      add\n      sload\n        /* \"cobraBot/Contract.sol\":6464:6514  uint256 userId = pools[gameId][winnerIndex].userId */\n      swap1\n      pop\n        /* \"cobraBot/Contract.sol\":6566:6583  uint256 invitedId */\n      0x00\n        /* \"cobraBot/Contract.sol\":6586:6591  pools */\n      0x06\n        /* \"cobraBot/Contract.sol\":6586:6599  pools[gameId] */\n      0x00\n        /* \"cobraBot/Contract.sol\":6592:6598  gameId */\n      dup12\n        /* \"cobraBot/Contract.sol\":6586:6599  pools[gameId] */\n      0xff\n      and\n      0xff\n      and\n      dup2\n      mstore\n      0x20\n      add\n      swap1\n      dup2\n      mstore\n      0x20\n      add\n      0x00\n      keccak256\n        /* \"cobraBot/Contract.sol\":6586:6612  pools[gameId][winnerIndex] */\n      0x00\n        /* \"cobraBot/Contract.sol\":6600:6611  winnerIndex */\n      dup7\n        /* \"cobraBot/Contract.sol\":6586:6612  pools[gameId][winnerIndex] */\n      dup2\n      mstore\n      0x20\n      add\n      swap1\n      dup2\n      mstore\n      0x20\n      add\n      0x00\n      keccak256\n        /* \"cobraBot/Contract.sol\":6586:6622  pools[gameId][winnerIndex].invitedId */\n      0x02\n      add\n      sload\n        /* \"cobraBot/Contract.sol\":6566:6622  uint256 invitedId = pools[gameId][winnerIndex].invitedId */\n      swap1\n      pop\n        /* \"cobraBot/Contract.sol\":6682:6695  uint refValue */\n      0x00\n        /* \"cobraBot/Contract.sol\":6747:6750  100 */\n      0x64\n        /* \"cobraBot/Contract.sol\":333:335  10 */\n      0x0a\n        /* \"cobraBot/Contract.sol\":6698:6704  levels */\n      0x02\n        /* \"cobraBot/Contract.sol\":6698:6712  levels[gameId] */\n      0x00\n        /* \"cobraBot/Contract.sol\":6705:6711  gameId */\n      dup15\n        /* \"cobraBot/Contract.sol\":6698:6712  levels[gameId] */\n      0xff\n      and\n      0xff\n      and\n      dup2\n      mstore\n      0x20\n      add\n      swap1\n      dup2\n      mstore\n      0x20\n      add\n      0x00\n      keccak256\n        /* \"cobraBot/Contract.sol\":6698:6724  levels[gameId].amountToPay */\n      0x01\n      add\n      sload\n        /* \"cobraBot/Contract.sol\":6698:6744  levels[gameId].amountToPay * firstLevelReferal */\n      tag_161\n      swap2\n      swap1\n      tag_145\n      jump\t// in\n    tag_161:\n        /* \"cobraBot/Contract.sol\":6698:6750  levels[gameId].amountToPay * firstLevelReferal / 100 */\n      tag_162\n      swap2\n      swap1\n      tag_143\n      jump\t// in\n    tag_162:\n        /* \"cobraBot/Contract.sol\":6682:6750  uint refValue = levels[gameId].amountToPay * firstLevelReferal / 100 */\n      swap1\n      pop\n        /* \"cobraBot/Contract.sol\":6812:6819  usersId */\n      0x03\n        /* \"cobraBot/Contract.sol\":6812:6830  usersId[invitedId] */\n      0x00\n        /* \"cobraBot/Contract.sol\":6820:6829  invitedId */\n      dup4\n        /* \"cobraBot/Contract.sol\":6812:6830  usersId[invitedId] */\n      dup2\n      mstore\n      0x20\n      add\n      swap1\n      dup2\n      mstore\n      0x20\n      add\n      0x00\n      keccak256\n      0x00\n      swap1\n      sload\n      swap1\n      0x0100\n      exp\n      swap1\n      div\n      0xffffffffffffffffffffffffffffffffffffffff\n      and\n        /* \"cobraBot/Contract.sol\":6812:6835  usersId[invitedId].call */\n      0xffffffffffffffffffffffffffffffffffffffff\n      and\n        /* \"cobraBot/Contract.sol\":6843:6851  refValue */\n      dup2\n        /* \"cobraBot/Contract.sol\":6812:6856  usersId[invitedId].call{value: refValue}(\"\") */\n      mload(0x40)\n      tag_163\n      swap1\n      tag_154\n      jump\t// in\n    tag_163:\n      0x00\n      mload(0x40)\n      dup1\n      dup4\n      sub\n      dup2\n      dup6\n      dup8\n      gas\n      call\n      swap3\n      pop\n      pop\n      pop\n      returndatasize\n      dup1\n      0x00\n      dup2\n      eq\n      tag_166\n      jumpi\n      mload(0x40)\n      swap2\n      pop\n      and(add(returndatasize, 0x3f), not(0x1f))\n      dup3\n      add\n      0x40\n      mstore\n      returndatasize\n      dup3\n      mstore\n      returndatasize\n      0x00\n      0x20\n      dup5\n      add\n      returndatacopy\n      jump(tag_165)\n    tag_166:\n      0x60\n      swap2\n      pop\n    tag_165:\n      pop\n        /* \"cobraBot/Contract.sol\":6798:6856  (success, ) = usersId[invitedId].call{value: refValue}(\"\") */\n      pop\n      dup1\n      swap5\n      pop\n      pop\n        /* \"cobraBot/Contract.sol\":6885:6892  success */\n      dup4\n        /* \"cobraBot/Contract.sol\":6881:6963  if (success) emit ReferalPaymentEvent(levels[gameId], userId, invitedId, refValue) */\n      iszero\n      tag_167\n      jumpi\n        /* \"cobraBot/Contract.sol\":6899:6963  ReferalPaymentEvent(levels[gameId], userId, invitedId, refValue) */\n      0x99a41df4773da34d9d98cc939025289e5db562f8fb5df346a9e7a1672bd288e3\n        /* \"cobraBot/Contract.sol\":6919:6925  levels */\n      0x02\n        /* \"cobraBot/Contract.sol\":6919:6933  levels[gameId] */\n      0x00\n        /* \"cobraBot/Contract.sol\":6926:6932  gameId */\n      dup14\n        /* \"cobraBot/Contract.sol\":6919:6933  levels[gameId] */\n      0xff\n      and\n      0xff\n      and\n      dup2\n      mstore\n      0x20\n      add\n      swap1\n      dup2\n      mstore\n      0x20\n      add\n      0x00\n      keccak256\n        /* \"cobraBot/Contract.sol\":6935:6941  userId */\n      dup5\n        /* \"cobraBot/Contract.sol\":6943:6952  invitedId */\n      dup5\n        /* \"cobraBot/Contract.sol\":6954:6962  refValue */\n      dup5\n        /* \"cobraBot/Contract.sol\":6899:6963  ReferalPaymentEvent(levels[gameId], userId, invitedId, refValue) */\n      mload(0x40)\n      tag_168\n      swap5\n      swap4\n      swap3\n      swap2\n      swap1\n      tag_169\n      jump\t// in\n    tag_168:\n      mload(0x40)\n      dup1\n      swap2\n      sub\n      swap1\n      log1\n        /* \"cobraBot/Contract.sol\":6881:6963  if (success) emit ReferalPaymentEvent(levels[gameId], userId, invitedId, refValue) */\n    tag_167:\n        /* \"cobraBot/Contract.sol\":7049:7052  100 */\n      0x64\n        /* \"cobraBot/Contract.sol\":410:411  6 */\n      0x06\n        /* \"cobraBot/Contract.sol\":6999:7005  levels */\n      0x02\n        /* \"cobraBot/Contract.sol\":6999:7013  levels[gameId] */\n      0x00\n        /* \"cobraBot/Contract.sol\":7006:7012  gameId */\n      dup15\n        /* \"cobraBot/Contract.sol\":6999:7013  levels[gameId] */\n      0xff\n      and\n      0xff\n      and\n      dup2\n      mstore\n      0x20\n      add\n      swap1\n      dup2\n      mstore\n      0x20\n      add\n      0x00\n      keccak256\n        /* \"cobraBot/Contract.sol\":6999:7025  levels[gameId].amountToPay */\n      0x01\n      add\n      sload\n        /* \"cobraBot/Contract.sol\":6999:7046  levels[gameId].amountToPay * secondLevelReferal */\n      tag_170\n      swap2\n      swap1\n      tag_145\n      jump\t// in\n    tag_170:\n        /* \"cobraBot/Contract.sol\":6999:7052  levels[gameId].amountToPay * secondLevelReferal / 100 */\n      tag_171\n      swap2\n      swap1\n      tag_143\n      jump\t// in\n    tag_171:\n        /* \"cobraBot/Contract.sol\":6988:7052  refValue = levels[gameId].amountToPay * secondLevelReferal / 100 */\n      swap1\n      pop\n        /* \"cobraBot/Contract.sol\":7113:7128  registeredUsers */\n      0x04\n        /* \"cobraBot/Contract.sol\":7113:7148  registeredUsers[usersId[invitedId]] */\n      0x00\n        /* \"cobraBot/Contract.sol\":7129:7136  usersId */\n      0x03\n        /* \"cobraBot/Contract.sol\":7129:7147  usersId[invitedId] */\n      0x00\n        /* \"cobraBot/Contract.sol\":7137:7146  invitedId */\n      dup6\n        /* \"cobraBot/Contract.sol\":7129:7147  usersId[invitedId] */\n      dup2\n      mstore\n      0x20\n      add\n      swap1\n      dup2\n      mstore\n      0x20\n      add\n      0x00\n      keccak256\n      0x00\n      swap1\n      sload\n      swap1\n      0x0100\n      exp\n      swap1\n      div\n      0xffffffffffffffffffffffffffffffffffffffff\n      and\n        /* \"cobraBot/Contract.sol\":7113:7148  registeredUsers[usersId[invitedId]] */\n      0xffffffffffffffffffffffffffffffffffffffff\n      and\n      0xffffffffffffffffffffffffffffffffffffffff\n      and\n      dup2\n      mstore\n      0x20\n      add\n      swap1\n      dup2\n      mstore\n      0x20\n      add\n      0x00\n      keccak256\n        /* \"cobraBot/Contract.sol\":7113:7160  registeredUsers[usersId[invitedId]].userAddress */\n      0x01\n      add\n      0x00\n      swap1\n      sload\n      swap1\n      0x0100\n      exp\n      swap1\n      div\n      0xffffffffffffffffffffffffffffffffffffffff\n      and\n        /* \"cobraBot/Contract.sol\":7113:7165  registeredUsers[usersId[invitedId]].userAddress.call */\n      0xffffffffffffffffffffffffffffffffffffffff\n      and\n        /* \"cobraBot/Contract.sol\":7173:7181  refValue */\n      dup2\n        /* \"cobraBot/Contract.sol\":7113:7186  registeredUsers[usersId[invitedId]].userAddress.call{value: refValue}(\"\") */\n      mload(0x40)\n      tag_172\n      swap1\n      tag_154\n      jump\t// in\n    tag_172:\n      0x00\n      mload(0x40)\n      dup1\n      dup4\n      sub\n      dup2\n      dup6\n      dup8\n      gas\n      call\n      swap3\n      pop\n      pop\n      pop\n      returndatasize\n      dup1\n      0x00\n      dup2\n      eq\n      tag_175\n      jumpi\n      mload(0x40)\n      swap2\n      pop\n      and(add(returndatasize, 0x3f), not(0x1f))\n      dup3\n      add\n      0x40\n      mstore\n      returndatasize\n      dup3\n      mstore\n      returndatasize\n      0x00\n      0x20\n      dup5\n      add\n      returndatacopy\n      jump(tag_174)\n    tag_175:\n      0x60\n      swap2\n      pop\n    tag_174:\n      pop\n        /* \"cobraBot/Contract.sol\":7099:7186  (success, ) = registeredUsers[usersId[invitedId]].userAddress.call{value: refValue}(\"\") */\n      pop\n      dup1\n      swap5\n      pop\n      pop\n        /* \"cobraBot/Contract.sol\":7241:7248  success */\n      dup4\n        /* \"cobraBot/Contract.sol\":7237:7355  if (success) emit ReferalPaymentEvent(levels[gameId], invitedId, registeredUsers[usersId[invitedId]].userId, refValue) */\n      iszero\n      tag_176\n      jumpi\n        /* \"cobraBot/Contract.sol\":7255:7355  ReferalPaymentEvent(levels[gameId], invitedId, registeredUsers[usersId[invitedId]].userId, refValue) */\n      0x99a41df4773da34d9d98cc939025289e5db562f8fb5df346a9e7a1672bd288e3\n        /* \"cobraBot/Contract.sol\":7275:7281  levels */\n      0x02\n        /* \"cobraBot/Contract.sol\":7275:7289  levels[gameId] */\n      0x00\n        /* \"cobraBot/Contract.sol\":7282:7288  gameId */\n      dup14\n        /* \"cobraBot/Contract.sol\":7275:7289  levels[gameId] */\n      0xff\n      and\n      0xff\n      and\n      dup2\n      mstore\n      0x20\n      add\n      swap1\n      dup2\n      mstore\n      0x20\n      add\n      0x00\n      keccak256\n        /* \"cobraBot/Contract.sol\":7291:7300  invitedId */\n      dup4\n        /* \"cobraBot/Contract.sol\":7302:7317  registeredUsers */\n      0x04\n        /* \"cobraBot/Contract.sol\":7302:7337  registeredUsers[usersId[invitedId]] */\n      0x00\n        /* \"cobraBot/Contract.sol\":7318:7325  usersId */\n      0x03\n        /* \"cobraBot/Contract.sol\":7318:7336  usersId[invitedId] */\n      0x00\n        /* \"cobraBot/Contract.sol\":7326:7335  invitedId */\n      dup9\n        /* \"cobraBot/Contract.sol\":7318:7336  usersId[invitedId] */\n      dup2\n      mstore\n      0x20\n      add\n      swap1\n      dup2\n      mstore\n      0x20\n      add\n      0x00\n      keccak256\n      0x00\n      swap1\n      sload\n      swap1\n      0x0100\n      exp\n      swap1\n      div\n      0xffffffffffffffffffffffffffffffffffffffff\n      and\n        /* \"cobraBot/Contract.sol\":7302:7337  registeredUsers[usersId[invitedId]] */\n      0xffffffffffffffffffffffffffffffffffffffff\n      and\n      0xffffffffffffffffffffffffffffffffffffffff\n      and\n      dup2\n      mstore\n      0x20\n      add\n      swap1\n      dup2\n      mstore\n      0x20\n      add\n      0x00\n      keccak256\n        /* \"cobraBot/Contract.sol\":7302:7344  registeredUsers[usersId[invitedId]].userId */\n      0x00\n      add\n      sload\n        /* \"cobraBot/Contract.sol\":7346:7354  refValue */\n      dup5\n        /* \"cobraBot/Contract.sol\":7255:7355  ReferalPaymentEvent(levels[gameId], invitedId, registeredUsers[usersId[invitedId]].userId, refValue) */\n      mload(0x40)\n      tag_177\n      swap5\n      swap4\n      swap3\n      swap2\n      swap1\n      tag_169\n      jump\t// in\n    tag_177:\n      mload(0x40)\n      dup1\n      swap2\n      sub\n      swap1\n      log1\n        /* \"cobraBot/Contract.sol\":7237:7355  if (success) emit ReferalPaymentEvent(levels[gameId], invitedId, registeredUsers[usersId[invitedId]].userId, refValue) */\n    tag_176:\n        /* \"cobraBot/Contract.sol\":7440:7443  100 */\n      0x64\n        /* \"cobraBot/Contract.sol\":485:486  4 */\n      0x04\n        /* \"cobraBot/Contract.sol\":7391:7397  levels */\n      0x02\n        /* \"cobraBot/Contract.sol\":7391:7405  levels[gameId] */\n      0x00\n        /* \"cobraBot/Contract.sol\":7398:7404  gameId */\n      dup15\n        /* \"cobraBot/Contract.sol\":7391:7405  levels[gameId] */\n      0xff\n      and\n      0xff\n      and\n      dup2\n      mstore\n      0x20\n      add\n      swap1\n      dup2\n      mstore\n      0x20\n      add\n      0x00\n      keccak256\n        /* \"cobraBot/Contract.sol\":7391:7417  levels[gameId].amountToPay */\n      0x01\n      add\n      sload\n        /* \"cobraBot/Contract.sol\":7391:7437  levels[gameId].amountToPay * thirdLevelReferal */\n      tag_178\n      swap2\n      swap1\n      tag_145\n      jump\t// in\n    tag_178:\n        /* \"cobraBot/Contract.sol\":7391:7443  levels[gameId].amountToPay * thirdLevelReferal / 100 */\n      tag_179\n      swap2\n      swap1\n      tag_143\n      jump\t// in\n    tag_179:\n        /* \"cobraBot/Contract.sol\":7380:7443  refValue = levels[gameId].amountToPay * thirdLevelReferal / 100 */\n      swap1\n      pop\n        /* \"cobraBot/Contract.sol\":7503:7518  registeredUsers */\n      0x04\n        /* \"cobraBot/Contract.sol\":7503:7571  registeredUsers[usersId[registeredUsers[usersId[invitedId]].userId]] */\n      0x00\n        /* \"cobraBot/Contract.sol\":7519:7526  usersId */\n      0x03\n        /* \"cobraBot/Contract.sol\":7519:7570  usersId[registeredUsers[usersId[invitedId]].userId] */\n      0x00\n        /* \"cobraBot/Contract.sol\":7527:7542  registeredUsers */\n      0x04\n        /* \"cobraBot/Contract.sol\":7527:7562  registeredUsers[usersId[invitedId]] */\n      0x00\n        /* \"cobraBot/Contract.sol\":7543:7550  usersId */\n      0x03\n        /* \"cobraBot/Contract.sol\":7543:7561  usersId[invitedId] */\n      0x00\n        /* \"cobraBot/Contract.sol\":7551:7560  invitedId */\n      dup10\n        /* \"cobraBot/Contract.sol\":7543:7561  usersId[invitedId] */\n      dup2\n      mstore\n      0x20\n      add\n      swap1\n      dup2\n      mstore\n      0x20\n      add\n      0x00\n      keccak256\n      0x00\n      swap1\n      sload\n      swap1\n      0x0100\n      exp\n      swap1\n      div\n      0xffffffffffffffffffffffffffffffffffffffff\n      and\n        /* \"cobraBot/Contract.sol\":7527:7562  registeredUsers[usersId[invitedId]] */\n      0xffffffffffffffffffffffffffffffffffffffff\n      and\n      0xffffffffffffffffffffffffffffffffffffffff\n      and\n      dup2\n      mstore\n      0x20\n      add\n      swap1\n      dup2\n      mstore\n      0x20\n      add\n      0x00\n      keccak256\n        /* \"cobraBot/Contract.sol\":7527:7569  registeredUsers[usersId[invitedId]].userId */\n      0x00\n      add\n      sload\n        /* \"cobraBot/Contract.sol\":7519:7570  usersId[registeredUsers[usersId[invitedId]].userId] */\n      dup2\n      mstore\n      0x20\n      add\n      swap1\n      dup2\n      mstore\n      0x20\n      add\n      0x00\n      keccak256\n      0x00\n      swap1\n      sload\n      swap1\n      0x0100\n      exp\n      swap1\n      div\n      0xffffffffffffffffffffffffffffffffffffffff\n      and\n        /* \"cobraBot/Contract.sol\":7503:7571  registeredUsers[usersId[registeredUsers[usersId[invitedId]].userId]] */\n      0xffffffffffffffffffffffffffffffffffffffff\n      and\n      0xffffffffffffffffffffffffffffffffffffffff\n      and\n      dup2\n      mstore\n      0x20\n      add\n      swap1\n      dup2\n      mstore\n      0x20\n      add\n      0x00\n      keccak256\n        /* \"cobraBot/Contract.sol\":7503:7583  registeredUsers[usersId[registeredUsers[usersId[invitedId]].userId]].userAddress */\n      0x01\n      add\n      0x00\n      swap1\n      sload\n      swap1\n      0x0100\n      exp\n      swap1\n      div\n      0xffffffffffffffffffffffffffffffffffffffff\n      and\n        /* \"cobraBot/Contract.sol\":7503:7588  registeredUsers[usersId[registeredUsers[usersId[invitedId]].userId]].userAddress.call */\n      0xffffffffffffffffffffffffffffffffffffffff\n      and\n        /* \"cobraBot/Contract.sol\":7596:7604  refValue */\n      dup2\n        /* \"cobraBot/Contract.sol\":7503:7609  registeredUsers[usersId[registeredUsers[usersId[invitedId]].userId]].userAddress.call{value: refValue}(\"\") */\n      mload(0x40)\n      tag_180\n      swap1\n      tag_154\n      jump\t// in\n    tag_180:\n      0x00\n      mload(0x40)\n      dup1\n      dup4\n      sub\n      dup2\n      dup6\n      dup8\n      gas\n      call\n      swap3\n      pop\n      pop\n      pop\n      returndatasize\n      dup1\n      0x00\n      dup2\n      eq\n      tag_183\n      jumpi\n      mload(0x40)\n      swap2\n      pop\n      and(add(returndatasize, 0x3f), not(0x1f))\n      dup3\n      add\n      0x40\n      mstore\n      returndatasize\n      dup3\n      mstore\n      returndatasize\n      0x00\n      0x20\n      dup5\n      add\n      returndatacopy\n      jump(tag_182)\n    tag_183:\n      0x60\n      swap2\n      pop\n    tag_182:\n      pop\n        /* \"cobraBot/Contract.sol\":7489:7609  (success, ) = registeredUsers[usersId[registeredUsers[usersId[invitedId]].userId]].userAddress.call{value: refValue}(\"\") */\n      pop\n      dup1\n      swap5\n      pop\n      pop\n        /* \"cobraBot/Contract.sol\":7638:7645  success */\n      dup4\n        /* \"cobraBot/Contract.sol\":7634:7818  if (success) emit ReferalPaymentEvent(levels[gameId], registeredUsers[usersId[invitedId]].userId, registeredUsers[usersId[registeredUsers[usersId[invitedId]].userId]].userId, refValue) */\n      iszero\n      tag_184\n      jumpi\n        /* \"cobraBot/Contract.sol\":7652:7818  ReferalPaymentEvent(levels[gameId], registeredUsers[usersId[invitedId]].userId, registeredUsers[usersId[registeredUsers[usersId[invitedId]].userId]].userId, refValue) */\n      0x99a41df4773da34d9d98cc939025289e5db562f8fb5df346a9e7a1672bd288e3\n        /* \"cobraBot/Contract.sol\":7672:7678  levels */\n      0x02\n        /* \"cobraBot/Contract.sol\":7672:7686  levels[gameId] */\n      0x00\n        /* \"cobraBot/Contract.sol\":7679:7685  gameId */\n      dup14\n        /* \"cobraBot/Contract.sol\":7672:7686  levels[gameId] */\n      0xff\n      and\n      0xff\n      and\n      dup2\n      mstore\n      0x20\n      add\n      swap1\n      dup2\n      mstore\n      0x20\n      add\n      0x00\n      keccak256\n        /* \"cobraBot/Contract.sol\":7688:7703  registeredUsers */\n      0x04\n        /* \"cobraBot/Contract.sol\":7688:7723  registeredUsers[usersId[invitedId]] */\n      0x00\n        /* \"cobraBot/Contract.sol\":7704:7711  usersId */\n      0x03\n        /* \"cobraBot/Contract.sol\":7704:7722  usersId[invitedId] */\n      0x00\n        /* \"cobraBot/Contract.sol\":7712:7721  invitedId */\n      dup8\n        /* \"cobraBot/Contract.sol\":7704:7722  usersId[invitedId] */\n      dup2\n      mstore\n      0x20\n      add\n      swap1\n      dup2\n      mstore\n      0x20\n      add\n      0x00\n      keccak256\n      0x00\n      swap1\n      sload\n      swap1\n      0x0100\n      exp\n      swap1\n      div\n      0xffffffffffffffffffffffffffffffffffffffff\n      and\n        /* \"cobraBot/Contract.sol\":7688:7723  registeredUsers[usersId[invitedId]] */\n      0xffffffffffffffffffffffffffffffffffffffff\n      and\n      0xffffffffffffffffffffffffffffffffffffffff\n      and\n      dup2\n      mstore\n      0x20\n      add\n      swap1\n      dup2\n      mstore\n      0x20\n      add\n      0x00\n      keccak256\n        /* \"cobraBot/Contract.sol\":7688:7730  registeredUsers[usersId[invitedId]].userId */\n      0x00\n      add\n      sload\n        /* \"cobraBot/Contract.sol\":7732:7747  registeredUsers */\n      0x04\n        /* \"cobraBot/Contract.sol\":7732:7800  registeredUsers[usersId[registeredUsers[usersId[invitedId]].userId]] */\n      0x00\n        /* \"cobraBot/Contract.sol\":7748:7755  usersId */\n      0x03\n        /* \"cobraBot/Contract.sol\":7748:7799  usersId[registeredUsers[usersId[invitedId]].userId] */\n      0x00\n        /* \"cobraBot/Contract.sol\":7756:7771  registeredUsers */\n      0x04\n        /* \"cobraBot/Contract.sol\":7756:7791  registeredUsers[usersId[invitedId]] */\n      0x00\n        /* \"cobraBot/Contract.sol\":7772:7779  usersId */\n      0x03\n        /* \"cobraBot/Contract.sol\":7772:7790  usersId[invitedId] */\n      0x00\n        /* \"cobraBot/Contract.sol\":7780:7789  invitedId */\n      dup13\n        /* \"cobraBot/Contract.sol\":7772:7790  usersId[invitedId] */\n      dup2\n      mstore\n      0x20\n      add\n      swap1\n      dup2\n      mstore\n      0x20\n      add\n      0x00\n      keccak256\n      0x00\n      swap1\n      sload\n      swap1\n      0x0100\n      exp\n      swap1\n      div\n      0xffffffffffffffffffffffffffffffffffffffff\n      and\n        /* \"cobraBot/Contract.sol\":7756:7791  registeredUsers[usersId[invitedId]] */\n      0xffffffffffffffffffffffffffffffffffffffff\n      and\n      0xffffffffffffffffffffffffffffffffffffffff\n      and\n      dup2\n      mstore\n      0x20\n      add\n      swap1\n      dup2\n      mstore\n      0x20\n      add\n      0x00\n      keccak256\n        /* \"cobraBot/Contract.sol\":7756:7798  registeredUsers[usersId[invitedId]].userId */\n      0x00\n      add\n      sload\n        /* \"cobraBot/Contract.sol\":7748:7799  usersId[registeredUsers[usersId[invitedId]].userId] */\n      dup2\n      mstore\n      0x20\n      add\n      swap1\n      dup2\n      mstore\n      0x20\n      add\n      0x00\n      keccak256\n      0x00\n      swap1\n      sload\n      swap1\n      0x0100\n      exp\n      swap1\n      div\n      0xffffffffffffffffffffffffffffffffffffffff\n      and\n        /* \"cobraBot/Contract.sol\":7732:7800  registeredUsers[usersId[registeredUsers[usersId[invitedId]].userId]] */\n      0xffffffffffffffffffffffffffffffffffffffff\n      and\n      0xffffffffffffffffffffffffffffffffffffffff\n      and\n      dup2\n      mstore\n      0x20\n      add\n      swap1\n      dup2\n      mstore\n      0x20\n      add\n      0x00\n      keccak256\n        /* \"cobraBot/Contract.sol\":7732:7807  registeredUsers[usersId[registeredUsers[usersId[invitedId]].userId]].userId */\n      0x00\n      add\n      sload\n        /* \"cobraBot/Contract.sol\":7809:7817  refValue */\n      dup5\n        /* \"cobraBot/Contract.sol\":7652:7818  ReferalPaymentEvent(levels[gameId], registeredUsers[usersId[invitedId]].userId, registeredUsers[usersId[registeredUsers[usersId[invitedId]].userId]].userId, refValue) */\n      mload(0x40)\n      tag_185\n      swap5\n      swap4\n      swap3\n      swap2\n      swap1\n      tag_169\n      jump\t// in\n    tag_185:\n      mload(0x40)\n      dup1\n      swap2\n      sub\n      swap1\n      log1\n        /* \"cobraBot/Contract.sol\":7634:7818  if (success) emit ReferalPaymentEvent(levels[gameId], registeredUsers[usersId[invitedId]].userId, registeredUsers[usersId[registeredUsers[usersId[invitedId]].userId]].userId, refValue) */\n    tag_184:\n        /* \"cobraBot/Contract.sol\":8018:8021  100 */\n      0x64\n        /* \"cobraBot/Contract.sol\":554:555  6 */\n      0x06\n        /* \"cobraBot/Contract.sol\":7974:7980  levels */\n      0x02\n        /* \"cobraBot/Contract.sol\":7974:7988  levels[gameId] */\n      0x00\n        /* \"cobraBot/Contract.sol\":7981:7987  gameId */\n      dup15\n        /* \"cobraBot/Contract.sol\":7974:7988  levels[gameId] */\n      0xff\n      and\n      0xff\n      and\n      dup2\n      mstore\n      0x20\n      add\n      swap1\n      dup2\n      mstore\n      0x20\n      add\n      0x00\n      keccak256\n        /* \"cobraBot/Contract.sol\":7974:8000  levels[gameId].amountToPay */\n      0x01\n      add\n      sload\n        /* \"cobraBot/Contract.sol\":7974:8015  levels[gameId].amountToPay * ownerReferal */\n      tag_186\n      swap2\n      swap1\n      tag_145\n      jump\t// in\n    tag_186:\n        /* \"cobraBot/Contract.sol\":7974:8021  levels[gameId].amountToPay * ownerReferal / 100 */\n      tag_187\n      swap2\n      swap1\n      tag_143\n      jump\t// in\n    tag_187:\n        /* \"cobraBot/Contract.sol\":7963:8021  refValue = levels[gameId].amountToPay * ownerReferal / 100 */\n      swap1\n      pop\n        /* \"cobraBot/Contract.sol\":8075:8090  registeredUsers */\n      0x04\n        /* \"cobraBot/Contract.sol\":8075:8105  registeredUsers[contractOwner] */\n      0x00\n        /* \"cobraBot/Contract.sol\":8091:8104  contractOwner */\n      0x01\n      dup1\n      sload\n      swap1\n      0x0100\n      exp\n      swap1\n      div\n      0xffffffffffffffffffffffffffffffffffffffff\n      and\n        /* \"cobraBot/Contract.sol\":8075:8105  registeredUsers[contractOwner] */\n      0xffffffffffffffffffffffffffffffffffffffff\n      and\n      0xffffffffffffffffffffffffffffffffffffffff\n      and\n      dup2\n      mstore\n      0x20\n      add\n      swap1\n      dup2\n      mstore\n      0x20\n      add\n      0x00\n      keccak256\n        /* \"cobraBot/Contract.sol\":8075:8117  registeredUsers[contractOwner].userAddress */\n      0x01\n      add\n      0x00\n      swap1\n      sload\n      swap1\n      0x0100\n      exp\n      swap1\n      div\n      0xffffffffffffffffffffffffffffffffffffffff\n      and\n        /* \"cobraBot/Contract.sol\":8075:8122  registeredUsers[contractOwner].userAddress.call */\n      0xffffffffffffffffffffffffffffffffffffffff\n      and\n        /* \"cobraBot/Contract.sol\":8130:8138  refValue */\n      dup2\n        /* \"cobraBot/Contract.sol\":8075:8143  registeredUsers[contractOwner].userAddress.call{value: refValue}(\"\") */\n      mload(0x40)\n      tag_188\n      swap1\n      tag_154\n      jump\t// in\n    tag_188:\n      0x00\n      mload(0x40)\n      dup1\n      dup4\n      sub\n      dup2\n      dup6\n      dup8\n      gas\n      call\n      swap3\n      pop\n      pop\n      pop\n      returndatasize\n      dup1\n      0x00\n      dup2\n      eq\n      tag_191\n      jumpi\n      mload(0x40)\n      swap2\n      pop\n      and(add(returndatasize, 0x3f), not(0x1f))\n      dup3\n      add\n      0x40\n      mstore\n      returndatasize\n      dup3\n      mstore\n      returndatasize\n      0x00\n      0x20\n      dup5\n      add\n      returndatacopy\n      jump(tag_190)\n    tag_191:\n      0x60\n      swap2\n      pop\n    tag_190:\n      pop\n        /* \"cobraBot/Contract.sol\":8061:8143  (success, ) = registeredUsers[contractOwner].userAddress.call{value: refValue}(\"\") */\n      pop\n      dup1\n      swap5\n      pop\n      pop\n        /* \"cobraBot/Contract.sol\":8172:8179  success */\n      dup4\n        /* \"cobraBot/Contract.sol\":8168:8278  if (success) emit ReferalPaymentEvent(levels[gameId], userId, registeredUsers[contractOwner].userId, refValue) */\n      iszero\n      tag_192\n      jumpi\n        /* \"cobraBot/Contract.sol\":8186:8278  ReferalPaymentEvent(levels[gameId], userId, registeredUsers[contractOwner].userId, refValue) */\n      0x99a41df4773da34d9d98cc939025289e5db562f8fb5df346a9e7a1672bd288e3\n        /* \"cobraBot/Contract.sol\":8206:8212  levels */\n      0x02\n        /* \"cobraBot/Contract.sol\":8206:8220  levels[gameId] */\n      0x00\n        /* \"cobraBot/Contract.sol\":8213:8219  gameId */\n      dup14\n        /* \"cobraBot/Contract.sol\":8206:8220  levels[gameId] */\n      0xff\n      and\n      0xff\n      and\n      dup2\n      mstore\n      0x20\n      add\n      swap1\n      dup2\n      mstore\n      0x20\n      add\n      0x00\n      keccak256\n        /* \"cobraBot/Contract.sol\":8222:8228  userId */\n      dup5\n        /* \"cobraBot/Contract.sol\":8230:8245  registeredUsers */\n      0x04\n        /* \"cobraBot/Contract.sol\":8230:8260  registeredUsers[contractOwner] */\n      0x00\n        /* \"cobraBot/Contract.sol\":8246:8259  contractOwner */\n      0x01\n      dup1\n      sload\n      swap1\n      0x0100\n      exp\n      swap1\n      div\n      0xffffffffffffffffffffffffffffffffffffffff\n      and\n        /* \"cobraBot/Contract.sol\":8230:8260  registeredUsers[contractOwner] */\n      0xffffffffffffffffffffffffffffffffffffffff\n      and\n      0xffffffffffffffffffffffffffffffffffffffff\n      and\n      dup2\n      mstore\n      0x20\n      add\n      swap1\n      dup2\n      mstore\n      0x20\n      add\n      0x00\n      keccak256\n        /* \"cobraBot/Contract.sol\":8230:8267  registeredUsers[contractOwner].userId */\n      0x00\n      add\n      sload\n        /* \"cobraBot/Contract.sol\":8269:8277  refValue */\n      dup5\n        /* \"cobraBot/Contract.sol\":8186:8278  ReferalPaymentEvent(levels[gameId], userId, registeredUsers[contractOwner].userId, refValue) */\n      mload(0x40)\n      tag_193\n      swap5\n      swap4\n      swap3\n      swap2\n      swap1\n      tag_169\n      jump\t// in\n    tag_193:\n      mload(0x40)\n      dup1\n      swap2\n      sub\n      swap1\n      log1\n        /* \"cobraBot/Contract.sol\":8168:8278  if (success) emit ReferalPaymentEvent(levels[gameId], userId, registeredUsers[contractOwner].userId, refValue) */\n    tag_192:\n        /* \"cobraBot/Contract.sol\":5939:8316  {\r... */\n      pop\n      pop\n      pop\n      pop\n        /* \"cobraBot/Contract.sol\":5851:8316  if (userPayments[selectedAddress][gameId] <= 1 || userGames[selectedAddress][gameId+1]) {\r... */\n    tag_150:\n        /* \"cobraBot/Contract.sol\":5490:8333  {\r... */\n      pop\n      pop\n        /* \"cobraBot/Contract.sol\":5480:5488  circle++ */\n      dup1\n      dup1\n      tag_194\n      swap1\n      tag_195\n      jump\t// in\n    tag_194:\n      swap2\n      pop\n      pop\n        /* \"cobraBot/Contract.sol\":5412:8333  for (uint circle = 1; circle <= index / levels[gameId].circleCount; circle++) {\r... */\n      jump(tag_139)\n    tag_140:\n      pop\n        /* \"cobraBot/Contract.sol\":5356:8344  if (index >= levels[gameId].circleCount) {\r... */\n    tag_138:\n        /* \"cobraBot/Contract.sol\":4808:8351  {\r... */\n      pop\n        /* \"cobraBot/Contract.sol\":4733:8351  function _joinToGame(uint8 gameId, address sender, uint256 value) internal {\r... */\n      pop\n      pop\n      pop\n      jump\t// out\n        /* \"#utility.yul\":7:146   */\n    tag_197:\n        /* \"#utility.yul\":53:58   */\n      0x00\n        /* \"#utility.yul\":91:97   */\n      dup2\n        /* \"#utility.yul\":78:98   */\n      calldataload\n        /* \"#utility.yul\":69:98   */\n      swap1\n      pop\n        /* \"#utility.yul\":107:140   */\n      tag_199\n        /* \"#utility.yul\":134:139   */\n      dup2\n        /* \"#utility.yul\":107:140   */\n      tag_200\n      jump\t// in\n    tag_199:\n        /* \"#utility.yul\":7:146   */\n      swap3\n      swap2\n      pop\n      pop\n      jump\t// out\n        /* \"#utility.yul\":152:291   */\n    tag_201:\n        /* \"#utility.yul\":198:203   */\n      0x00\n        /* \"#utility.yul\":236:242   */\n      dup2\n        /* \"#utility.yul\":223:243   */\n      calldataload\n        /* \"#utility.yul\":214:243   */\n      swap1\n      pop\n        /* \"#utility.yul\":252:285   */\n      tag_203\n        /* \"#utility.yul\":279:284   */\n      dup2\n        /* \"#utility.yul\":252:285   */\n      tag_204\n      jump\t// in\n    tag_203:\n        /* \"#utility.yul\":152:291   */\n      swap3\n      swap2\n      pop\n      pop\n      jump\t// out\n        /* \"#utility.yul\":297:432   */\n    tag_205:\n        /* \"#utility.yul\":341:346   */\n      0x00\n        /* \"#utility.yul\":379:385   */\n      dup2\n        /* \"#utility.yul\":366:386   */\n      calldataload\n        /* \"#utility.yul\":357:386   */\n      swap1\n      pop\n        /* \"#utility.yul\":395:426   */\n      tag_207\n        /* \"#utility.yul\":420:425   */\n      dup2\n        /* \"#utility.yul\":395:426   */\n      tag_208\n      jump\t// in\n    tag_207:\n        /* \"#utility.yul\":297:432   */\n      swap3\n      swap2\n      pop\n      pop\n      jump\t// out\n        /* \"#utility.yul\":438:767   */\n    tag_32:\n        /* \"#utility.yul\":497:503   */\n      0x00\n        /* \"#utility.yul\":546:548   */\n      0x20\n        /* \"#utility.yul\":534:543   */\n      dup3\n        /* \"#utility.yul\":525:532   */\n      dup5\n        /* \"#utility.yul\":521:544   */\n      sub\n        /* \"#utility.yul\":517:549   */\n      slt\n        /* \"#utility.yul\":514:633   */\n      iszero\n      tag_210\n      jumpi\n        /* \"#utility.yul\":552:631   */\n      tag_211\n      tag_212\n      jump\t// in\n    tag_211:\n        /* \"#utility.yul\":514:633   */\n    tag_210:\n        /* \"#utility.yul\":672:673   */\n      0x00\n        /* \"#utility.yul\":697:750   */\n      tag_213\n        /* \"#utility.yul\":742:749   */\n      dup5\n        /* \"#utility.yul\":733:739   */\n      dup3\n        /* \"#utility.yul\":722:731   */\n      dup6\n        /* \"#utility.yul\":718:740   */\n      add\n        /* \"#utility.yul\":697:750   */\n      tag_197\n      jump\t// in\n    tag_213:\n        /* \"#utility.yul\":687:750   */\n      swap2\n      pop\n        /* \"#utility.yul\":643:760   */\n      pop\n        /* \"#utility.yul\":438:767   */\n      swap3\n      swap2\n      pop\n      pop\n      jump\t// out\n        /* \"#utility.yul\":773:1243   */\n    tag_39:\n        /* \"#utility.yul\":839:845   */\n      0x00\n        /* \"#utility.yul\":847:853   */\n      dup1\n        /* \"#utility.yul\":896:898   */\n      0x40\n        /* \"#utility.yul\":884:893   */\n      dup4\n        /* \"#utility.yul\":875:882   */\n      dup6\n        /* \"#utility.yul\":871:894   */\n      sub\n        /* \"#utility.yul\":867:899   */\n      slt\n        /* \"#utility.yul\":864:983   */\n      iszero\n      tag_215\n      jumpi\n        /* \"#utility.yul\":902:981   */\n      tag_216\n      tag_212\n      jump\t// in\n    tag_216:\n        /* \"#utility.yul\":864:983   */\n    tag_215:\n        /* \"#utility.yul\":1022:1023   */\n      0x00\n        /* \"#utility.yul\":1047:1100   */\n      tag_217\n        /* \"#utility.yul\":1092:1099   */\n      dup6\n        /* \"#utility.yul\":1083:1089   */\n      dup3\n        /* \"#utility.yul\":1072:1081   */\n      dup7\n        /* \"#utility.yul\":1068:1090   */\n      add\n        /* \"#utility.yul\":1047:1100   */\n      tag_197\n      jump\t// in\n    tag_217:\n        /* \"#utility.yul\":1037:1100   */\n      swap3\n      pop\n        /* \"#utility.yul\":993:1110   */\n      pop\n        /* \"#utility.yul\":1149:1151   */\n      0x20\n        /* \"#utility.yul\":1175:1226   */\n      tag_218\n        /* \"#utility.yul\":1218:1225   */\n      dup6\n        /* \"#utility.yul\":1209:1215   */\n      dup3\n        /* \"#utility.yul\":1198:1207   */\n      dup7\n        /* \"#utility.yul\":1194:1216   */\n      add\n        /* \"#utility.yul\":1175:1226   */\n      tag_205\n      jump\t// in\n    tag_218:\n        /* \"#utility.yul\":1165:1226   */\n      swap2\n      pop\n        /* \"#utility.yul\":1120:1236   */\n      pop\n        /* \"#utility.yul\":773:1243   */\n      swap3\n      pop\n      swap3\n      swap1\n      pop\n      jump\t// out\n        /* \"#utility.yul\":1249:1578   */\n    tag_27:\n        /* \"#utility.yul\":1308:1314   */\n      0x00\n        /* \"#utility.yul\":1357:1359   */\n      0x20\n        /* \"#utility.yul\":1345:1354   */\n      dup3\n        /* \"#utility.yul\":1336:1343   */\n      dup5\n        /* \"#utility.yul\":1332:1355   */\n      sub\n        /* \"#utility.yul\":1328:1360   */\n      slt\n        /* \"#utility.yul\":1325:1444   */\n      iszero\n      tag_220\n      jumpi\n        /* \"#utility.yul\":1363:1442   */\n      tag_221\n      tag_212\n      jump\t// in\n    tag_221:\n        /* \"#utility.yul\":1325:1444   */\n    tag_220:\n        /* \"#utility.yul\":1483:1484   */\n      0x00\n        /* \"#utility.yul\":1508:1561   */\n      tag_222\n        /* \"#utility.yul\":1553:1560   */\n      dup5\n        /* \"#utility.yul\":1544:1550   */\n      dup3\n        /* \"#utility.yul\":1533:1542   */\n      dup6\n        /* \"#utility.yul\":1529:1551   */\n      add\n        /* \"#utility.yul\":1508:1561   */\n      tag_201\n      jump\t// in\n    tag_222:\n        /* \"#utility.yul\":1498:1561   */\n      swap2\n      pop\n        /* \"#utility.yul\":1454:1571   */\n      pop\n        /* \"#utility.yul\":1249:1578   */\n      swap3\n      swap2\n      pop\n      pop\n      jump\t// out\n        /* \"#utility.yul\":1584:2058   */\n    tag_62:\n        /* \"#utility.yul\":1652:1658   */\n      0x00\n        /* \"#utility.yul\":1660:1666   */\n      dup1\n        /* \"#utility.yul\":1709:1711   */\n      0x40\n        /* \"#utility.yul\":1697:1706   */\n      dup4\n        /* \"#utility.yul\":1688:1695   */\n      dup6\n        /* \"#utility.yul\":1684:1707   */\n      sub\n        /* \"#utility.yul\":1680:1712   */\n      slt\n        /* \"#utility.yul\":1677:1796   */\n      iszero\n      tag_224\n      jumpi\n        /* \"#utility.yul\":1715:1794   */\n      tag_225\n      tag_212\n      jump\t// in\n    tag_225:\n        /* \"#utility.yul\":1677:1796   */\n    tag_224:\n        /* \"#utility.yul\":1835:1836   */\n      0x00\n        /* \"#utility.yul\":1860:1913   */\n      tag_226\n        /* \"#utility.yul\":1905:1912   */\n      dup6\n        /* \"#utility.yul\":1896:1902   */\n      dup3\n        /* \"#utility.yul\":1885:1894   */\n      dup7\n        /* \"#utility.yul\":1881:1903   */\n      add\n        /* \"#utility.yul\":1860:1913   */\n      tag_201\n      jump\t// in\n    tag_226:\n        /* \"#utility.yul\":1850:1913   */\n      swap3\n      pop\n        /* \"#utility.yul\":1806:1923   */\n      pop\n        /* \"#utility.yul\":1962:1964   */\n      0x20\n        /* \"#utility.yul\":1988:2041   */\n      tag_227\n        /* \"#utility.yul\":2033:2040   */\n      dup6\n        /* \"#utility.yul\":2024:2030   */\n      dup3\n        /* \"#utility.yul\":2013:2022   */\n      dup7\n        /* \"#utility.yul\":2009:2031   */\n      add\n        /* \"#utility.yul\":1988:2041   */\n      tag_201\n      jump\t// in\n    tag_227:\n        /* \"#utility.yul\":1978:2041   */\n      swap2\n      pop\n        /* \"#utility.yul\":1933:2051   */\n      pop\n        /* \"#utility.yul\":1584:2058   */\n      swap3\n      pop\n      swap3\n      swap1\n      pop\n      jump\t// out\n        /* \"#utility.yul\":2064:2389   */\n    tag_45:\n        /* \"#utility.yul\":2121:2127   */\n      0x00\n        /* \"#utility.yul\":2170:2172   */\n      0x20\n        /* \"#utility.yul\":2158:2167   */\n      dup3\n        /* \"#utility.yul\":2149:2156   */\n      dup5\n        /* \"#utility.yul\":2145:2168   */\n      sub\n        /* \"#utility.yul\":2141:2173   */\n      slt\n        /* \"#utility.yul\":2138:2257   */\n      iszero\n      tag_229\n      jumpi\n        /* \"#utility.yul\":2176:2255   */\n      tag_230\n      tag_212\n      jump\t// in\n    tag_230:\n        /* \"#utility.yul\":2138:2257   */\n    tag_229:\n        /* \"#utility.yul\":2296:2297   */\n      0x00\n        /* \"#utility.yul\":2321:2372   */\n      tag_231\n        /* \"#utility.yul\":2364:2371   */\n      dup5\n        /* \"#utility.yul\":2355:2361   */\n      dup3\n        /* \"#utility.yul\":2344:2353   */\n      dup6\n        /* \"#utility.yul\":2340:2362   */\n      add\n        /* \"#utility.yul\":2321:2372   */\n      tag_205\n      jump\t// in\n    tag_231:\n        /* \"#utility.yul\":2311:2372   */\n      swap2\n      pop\n        /* \"#utility.yul\":2267:2382   */\n      pop\n        /* \"#utility.yul\":2064:2389   */\n      swap3\n      swap2\n      pop\n      pop\n      jump\t// out\n        /* \"#utility.yul\":2395:2865   */\n    tag_56:\n        /* \"#utility.yul\":2461:2467   */\n      0x00\n        /* \"#utility.yul\":2469:2475   */\n      dup1\n        /* \"#utility.yul\":2518:2520   */\n      0x40\n        /* \"#utility.yul\":2506:2515   */\n      dup4\n        /* \"#utility.yul\":2497:2504   */\n      dup6\n        /* \"#utility.yul\":2493:2516   */\n      sub\n        /* \"#utility.yul\":2489:2521   */\n      slt\n        /* \"#utility.yul\":2486:2605   */\n      iszero\n      tag_233\n      jumpi\n        /* \"#utility.yul\":2524:2603   */\n      tag_234\n      tag_212\n      jump\t// in\n    tag_234:\n        /* \"#utility.yul\":2486:2605   */\n    tag_233:\n        /* \"#utility.yul\":2644:2645   */\n      0x00\n        /* \"#utility.yul\":2669:2720   */\n      tag_235\n        /* \"#utility.yul\":2712:2719   */\n      dup6\n        /* \"#utility.yul\":2703:2709   */\n      dup3\n        /* \"#utility.yul\":2692:2701   */\n      dup7\n        /* \"#utility.yul\":2688:2710   */\n      add\n        /* \"#utility.yul\":2669:2720   */\n      tag_205\n      jump\t// in\n    tag_235:\n        /* \"#utility.yul\":2659:2720   */\n      swap3\n      pop\n        /* \"#utility.yul\":2615:2730   */\n      pop\n        /* \"#utility.yul\":2769:2771   */\n      0x20\n        /* \"#utility.yul\":2795:2848   */\n      tag_236\n        /* \"#utility.yul\":2840:2847   */\n      dup6\n        /* \"#utility.yul\":2831:2837   */\n      dup3\n        /* \"#utility.yul\":2820:2829   */\n      dup7\n        /* \"#utility.yul\":2816:2838   */\n      add\n        /* \"#utility.yul\":2795:2848   */\n      tag_201\n      jump\t// in\n    tag_236:\n        /* \"#utility.yul\":2785:2848   */\n      swap2\n      pop\n        /* \"#utility.yul\":2740:2858   */\n      pop\n        /* \"#utility.yul\":2395:2865   */\n      swap3\n      pop\n      swap3\n      swap1\n      pop\n      jump\t// out\n        /* \"#utility.yul\":2871:3018   */\n    tag_237:\n        /* \"#utility.yul\":2966:3011   */\n      tag_239\n        /* \"#utility.yul\":3005:3010   */\n      dup2\n        /* \"#utility.yul\":2966:3011   */\n      tag_240\n      jump\t// in\n    tag_239:\n        /* \"#utility.yul\":2961:2964   */\n      dup3\n        /* \"#utility.yul\":2954:3012   */\n      mstore\n        /* \"#utility.yul\":2871:3018   */\n      pop\n      pop\n      jump\t// out\n        /* \"#utility.yul\":3024:3166   */\n    tag_241:\n        /* \"#utility.yul\":3127:3159   */\n      tag_243\n        /* \"#utility.yul\":3153:3158   */\n      dup2\n        /* \"#utility.yul\":3127:3159   */\n      tag_244\n      jump\t// in\n    tag_243:\n        /* \"#utility.yul\":3122:3125   */\n      dup3\n        /* \"#utility.yul\":3115:3160   */\n      mstore\n        /* \"#utility.yul\":3024:3166   */\n      pop\n      pop\n      jump\t// out\n        /* \"#utility.yul\":3172:3290   */\n    tag_245:\n        /* \"#utility.yul\":3259:3283   */\n      tag_247\n        /* \"#utility.yul\":3277:3282   */\n      dup2\n        /* \"#utility.yul\":3259:3283   */\n      tag_248\n      jump\t// in\n    tag_247:\n        /* \"#utility.yul\":3254:3257   */\n      dup3\n        /* \"#utility.yul\":3247:3284   */\n      mstore\n        /* \"#utility.yul\":3172:3290   */\n      pop\n      pop\n      jump\t// out\n        /* \"#utility.yul\":3296:3405   */\n    tag_249:\n        /* \"#utility.yul\":3377:3398   */\n      tag_251\n        /* \"#utility.yul\":3392:3397   */\n      dup2\n        /* \"#utility.yul\":3377:3398   */\n      tag_252\n      jump\t// in\n    tag_251:\n        /* \"#utility.yul\":3372:3375   */\n      dup3\n        /* \"#utility.yul\":3365:3399   */\n      mstore\n        /* \"#utility.yul\":3296:3405   */\n      pop\n      pop\n      jump\t// out\n        /* \"#utility.yul\":3411:3777   */\n    tag_253:\n        /* \"#utility.yul\":3553:3556   */\n      0x00\n        /* \"#utility.yul\":3574:3641   */\n      tag_255\n        /* \"#utility.yul\":3638:3640   */\n      0x0e\n        /* \"#utility.yul\":3633:3636   */\n      dup4\n        /* \"#utility.yul\":3574:3641   */\n      tag_256\n      jump\t// in\n    tag_255:\n        /* \"#utility.yul\":3567:3641   */\n      swap2\n      pop\n        /* \"#utility.yul\":3650:3743   */\n      tag_257\n        /* \"#utility.yul\":3739:3742   */\n      dup3\n        /* \"#utility.yul\":3650:3743   */\n      tag_258\n      jump\t// in\n    tag_257:\n        /* \"#utility.yul\":3768:3770   */\n      0x20\n        /* \"#utility.yul\":3763:3766   */\n      dup3\n        /* \"#utility.yul\":3759:3771   */\n      add\n        /* \"#utility.yul\":3752:3771   */\n      swap1\n      pop\n        /* \"#utility.yul\":3411:3777   */\n      swap2\n      swap1\n      pop\n      jump\t// out\n        /* \"#utility.yul\":3783:4181   */\n    tag_259:\n        /* \"#utility.yul\":3942:3945   */\n      0x00\n        /* \"#utility.yul\":3963:4046   */\n      tag_261\n        /* \"#utility.yul\":4044:4045   */\n      0x00\n        /* \"#utility.yul\":4039:4042   */\n      dup4\n        /* \"#utility.yul\":3963:4046   */\n      tag_262\n      jump\t// in\n    tag_261:\n        /* \"#utility.yul\":3956:4046   */\n      swap2\n      pop\n        /* \"#utility.yul\":4055:4148   */\n      tag_263\n        /* \"#utility.yul\":4144:4147   */\n      dup3\n        /* \"#utility.yul\":4055:4148   */\n      tag_264\n      jump\t// in\n    tag_263:\n        /* \"#utility.yul\":4173:4174   */\n      0x00\n        /* \"#utility.yul\":4168:4171   */\n      dup3\n        /* \"#utility.yul\":4164:4175   */\n      add\n        /* \"#utility.yul\":4157:4175   */\n      swap1\n      pop\n        /* \"#utility.yul\":3783:4181   */\n      swap2\n      swap1\n      pop\n      jump\t// out\n        /* \"#utility.yul\":4187:4553   */\n    tag_265:\n        /* \"#utility.yul\":4329:4332   */\n      0x00\n        /* \"#utility.yul\":4350:4417   */\n      tag_267\n        /* \"#utility.yul\":4414:4416   */\n      0x23\n        /* \"#utility.yul\":4409:4412   */\n      dup4\n        /* \"#utility.yul\":4350:4417   */\n      tag_256\n      jump\t// in\n    tag_267:\n        /* \"#utility.yul\":4343:4417   */\n      swap2\n      pop\n        /* \"#utility.yul\":4426:4519   */\n      tag_268\n        /* \"#utility.yul\":4515:4518   */\n      dup3\n        /* \"#utility.yul\":4426:4519   */\n      tag_269\n      jump\t// in\n    tag_268:\n        /* \"#utility.yul\":4544:4546   */\n      0x40\n        /* \"#utility.yul\":4539:4542   */\n      dup3\n        /* \"#utility.yul\":4535:4547   */\n      add\n        /* \"#utility.yul\":4528:4547   */\n      swap1\n      pop\n        /* \"#utility.yul\":4187:4553   */\n      swap2\n      swap1\n      pop\n      jump\t// out\n        /* \"#utility.yul\":4559:4925   */\n    tag_270:\n        /* \"#utility.yul\":4701:4704   */\n      0x00\n        /* \"#utility.yul\":4722:4789   */\n      tag_272\n        /* \"#utility.yul\":4786:4788   */\n      0x28\n        /* \"#utility.yul\":4781:4784   */\n      dup4\n        /* \"#utility.yul\":4722:4789   */\n      tag_256\n      jump\t// in\n    tag_272:\n        /* \"#utility.yul\":4715:4789   */\n      swap2\n      pop\n        /* \"#utility.yul\":4798:4891   */\n      tag_273\n        /* \"#utility.yul\":4887:4890   */\n      dup3\n        /* \"#utility.yul\":4798:4891   */\n      tag_274\n      jump\t// in\n    tag_273:\n        /* \"#utility.yul\":4916:4918   */\n      0x40\n        /* \"#utility.yul\":4911:4914   */\n      dup3\n        /* \"#utility.yul\":4907:4919   */\n      add\n        /* \"#utility.yul\":4900:4919   */\n      swap1\n      pop\n        /* \"#utility.yul\":4559:4925   */\n      swap2\n      swap1\n      pop\n      jump\t// out\n        /* \"#utility.yul\":4931:5297   */\n    tag_275:\n        /* \"#utility.yul\":5073:5076   */\n      0x00\n        /* \"#utility.yul\":5094:5161   */\n      tag_277\n        /* \"#utility.yul\":5158:5160   */\n      0x0c\n        /* \"#utility.yul\":5153:5156   */\n      dup4\n        /* \"#utility.yul\":5094:5161   */\n      tag_256\n      jump\t// in\n    tag_277:\n        /* \"#utility.yul\":5087:5161   */\n      swap2\n      pop\n        /* \"#utility.yul\":5170:5263   */\n      tag_278\n        /* \"#utility.yul\":5259:5262   */\n      dup3\n        /* \"#utility.yul\":5170:5263   */\n      tag_279\n      jump\t// in\n    tag_278:\n        /* \"#utility.yul\":5288:5290   */\n      0x20\n        /* \"#utility.yul\":5283:5286   */\n      dup3\n        /* \"#utility.yul\":5279:5291   */\n      add\n        /* \"#utility.yul\":5272:5291   */\n      swap1\n      pop\n        /* \"#utility.yul\":4931:5297   */\n      swap2\n      swap1\n      pop\n      jump\t// out\n        /* \"#utility.yul\":5353:6048   */\n    tag_280:\n        /* \"#utility.yul\":5487:5491   */\n      0x40\n        /* \"#utility.yul\":5482:5485   */\n      dup3\n        /* \"#utility.yul\":5478:5492   */\n      add\n        /* \"#utility.yul\":5518:5519   */\n      0x00\n        /* \"#utility.yul\":5600:5604   */\n      dup1\n        /* \"#utility.yul\":5593:5598   */\n      dup4\n        /* \"#utility.yul\":5589:5605   */\n      add\n        /* \"#utility.yul\":5583:5606   */\n      sload\n        /* \"#utility.yul\":5570:5606   */\n      swap1\n      pop\n        /* \"#utility.yul\":5639:5694   */\n      tag_282\n        /* \"#utility.yul\":5684:5693   */\n      dup2\n        /* \"#utility.yul\":5639:5694   */\n      tag_283\n      jump\t// in\n    tag_282:\n        /* \"#utility.yul\":5707:5770   */\n      tag_284\n        /* \"#utility.yul\":5764:5768   */\n      0x00\n        /* \"#utility.yul\":5759:5762   */\n      dup7\n        /* \"#utility.yul\":5755:5769   */\n      add\n        /* \"#utility.yul\":5741:5753   */\n      dup3\n        /* \"#utility.yul\":5707:5770   */\n      tag_285\n      jump\t// in\n    tag_284:\n        /* \"#utility.yul\":5529:5780   */\n      pop\n        /* \"#utility.yul\":5861:5865   */\n      0x01\n        /* \"#utility.yul\":5854:5859   */\n      dup4\n        /* \"#utility.yul\":5850:5866   */\n      add\n        /* \"#utility.yul\":5844:5867   */\n      sload\n        /* \"#utility.yul\":5831:5867   */\n      swap1\n      pop\n        /* \"#utility.yul\":5900:5955   */\n      tag_286\n        /* \"#utility.yul\":5945:5954   */\n      dup2\n        /* \"#utility.yul\":5900:5955   */\n      tag_283\n      jump\t// in\n    tag_286:\n        /* \"#utility.yul\":5968:6031   */\n      tag_287\n        /* \"#utility.yul\":6025:6029   */\n      0x20\n        /* \"#utility.yul\":6020:6023   */\n      dup7\n        /* \"#utility.yul\":6016:6030   */\n      add\n        /* \"#utility.yul\":6002:6014   */\n      dup3\n        /* \"#utility.yul\":5968:6031   */\n      tag_285\n      jump\t// in\n    tag_287:\n        /* \"#utility.yul\":5790:6041   */\n      pop\n        /* \"#utility.yul\":5456:6048   */\n      pop\n      pop\n        /* \"#utility.yul\":5353:6048   */\n      pop\n      pop\n      jump\t// out\n        /* \"#utility.yul\":6054:6162   */\n    tag_285:\n        /* \"#utility.yul\":6131:6155   */\n      tag_289\n        /* \"#utility.yul\":6149:6154   */\n      dup2\n        /* \"#utility.yul\":6131:6155   */\n      tag_290\n      jump\t// in\n    tag_289:\n        /* \"#utility.yul\":6126:6129   */\n      dup3\n        /* \"#utility.yul\":6119:6156   */\n      mstore\n        /* \"#utility.yul\":6054:6162   */\n      pop\n      pop\n      jump\t// out\n        /* \"#utility.yul\":6168:6286   */\n    tag_291:\n        /* \"#utility.yul\":6255:6279   */\n      tag_293\n        /* \"#utility.yul\":6273:6278   */\n      dup2\n        /* \"#utility.yul\":6255:6279   */\n      tag_290\n      jump\t// in\n    tag_293:\n        /* \"#utility.yul\":6250:6253   */\n      dup3\n        /* \"#utility.yul\":6243:6280   */\n      mstore\n        /* \"#utility.yul\":6168:6286   */\n      pop\n      pop\n      jump\t// out\n        /* \"#utility.yul\":6292:6404   */\n    tag_294:\n        /* \"#utility.yul\":6375:6397   */\n      tag_296\n        /* \"#utility.yul\":6391:6396   */\n      dup2\n        /* \"#utility.yul\":6375:6397   */\n      tag_297\n      jump\t// in\n    tag_296:\n        /* \"#utility.yul\":6370:6373   */\n      dup3\n        /* \"#utility.yul\":6363:6398   */\n      mstore\n        /* \"#utility.yul\":6292:6404   */\n      pop\n      pop\n      jump\t// out\n        /* \"#utility.yul\":6410:6789   */\n    tag_154:\n        /* \"#utility.yul\":6594:6597   */\n      0x00\n        /* \"#utility.yul\":6616:6763   */\n      tag_299\n        /* \"#utility.yul\":6759:6762   */\n      dup3\n        /* \"#utility.yul\":6616:6763   */\n      tag_259\n      jump\t// in\n    tag_299:\n        /* \"#utility.yul\":6609:6763   */\n      swap2\n      pop\n        /* \"#utility.yul\":6780:6783   */\n      dup2\n        /* \"#utility.yul\":6773:6783   */\n      swap1\n      pop\n        /* \"#utility.yul\":6410:6789   */\n      swap2\n      swap1\n      pop\n      jump\t// out\n        /* \"#utility.yul\":6795:7017   */\n    tag_90:\n        /* \"#utility.yul\":6888:6892   */\n      0x00\n        /* \"#utility.yul\":6926:6928   */\n      0x20\n        /* \"#utility.yul\":6915:6924   */\n      dup3\n        /* \"#utility.yul\":6911:6929   */\n      add\n        /* \"#utility.yul\":6903:6929   */\n      swap1\n      pop\n        /* \"#utility.yul\":6939:7010   */\n      tag_301\n        /* \"#utility.yul\":7007:7008   */\n      0x00\n        /* \"#utility.yul\":6996:7005   */\n      dup4\n        /* \"#utility.yul\":6992:7009   */\n      add\n        /* \"#utility.yul\":6983:6989   */\n      dup5\n        /* \"#utility.yul\":6939:7010   */\n      tag_245\n      jump\t// in\n    tag_301:\n        /* \"#utility.yul\":6795:7017   */\n      swap3\n      swap2\n      pop\n      pop\n      jump\t// out\n        /* \"#utility.yul\":7023:7233   */\n    tag_42:\n        /* \"#utility.yul\":7110:7114   */\n      0x00\n        /* \"#utility.yul\":7148:7150   */\n      0x20\n        /* \"#utility.yul\":7137:7146   */\n      dup3\n        /* \"#utility.yul\":7133:7151   */\n      add\n        /* \"#utility.yul\":7125:7151   */\n      swap1\n      pop\n        /* \"#utility.yul\":7161:7226   */\n      tag_303\n        /* \"#utility.yul\":7223:7224   */\n      0x00\n        /* \"#utility.yul\":7212:7221   */\n      dup4\n        /* \"#utility.yul\":7208:7225   */\n      add\n        /* \"#utility.yul\":7199:7205   */\n      dup5\n        /* \"#utility.yul\":7161:7226   */\n      tag_249\n      jump\t// in\n    tag_303:\n        /* \"#utility.yul\":7023:7233   */\n      swap3\n      swap2\n      pop\n      pop\n      jump\t// out\n        /* \"#utility.yul\":7239:7658   */\n    tag_107:\n        /* \"#utility.yul\":7405:7409   */\n      0x00\n        /* \"#utility.yul\":7443:7445   */\n      0x20\n        /* \"#utility.yul\":7432:7441   */\n      dup3\n        /* \"#utility.yul\":7428:7446   */\n      add\n        /* \"#utility.yul\":7420:7446   */\n      swap1\n      pop\n        /* \"#utility.yul\":7492:7501   */\n      dup2\n        /* \"#utility.yul\":7486:7490   */\n      dup2\n        /* \"#utility.yul\":7482:7502   */\n      sub\n        /* \"#utility.yul\":7478:7479   */\n      0x00\n        /* \"#utility.yul\":7467:7476   */\n      dup4\n        /* \"#utility.yul\":7463:7480   */\n      add\n        /* \"#utility.yul\":7456:7503   */\n      mstore\n        /* \"#utility.yul\":7520:7651   */\n      tag_305\n        /* \"#utility.yul\":7646:7650   */\n      dup2\n        /* \"#utility.yul\":7520:7651   */\n      tag_253\n      jump\t// in\n    tag_305:\n        /* \"#utility.yul\":7512:7651   */\n      swap1\n      pop\n        /* \"#utility.yul\":7239:7658   */\n      swap2\n      swap1\n      pop\n      jump\t// out\n        /* \"#utility.yul\":7664:8083   */\n    tag_136:\n        /* \"#utility.yul\":7830:7834   */\n      0x00\n        /* \"#utility.yul\":7868:7870   */\n      0x20\n        /* \"#utility.yul\":7857:7866   */\n      dup3\n        /* \"#utility.yul\":7853:7871   */\n      add\n        /* \"#utility.yul\":7845:7871   */\n      swap1\n      pop\n        /* \"#utility.yul\":7917:7926   */\n      dup2\n        /* \"#utility.yul\":7911:7915   */\n      dup2\n        /* \"#utility.yul\":7907:7927   */\n      sub\n        /* \"#utility.yul\":7903:7904   */\n      0x00\n        /* \"#utility.yul\":7892:7901   */\n      dup4\n        /* \"#utility.yul\":7888:7905   */\n      add\n        /* \"#utility.yul\":7881:7928   */\n      mstore\n        /* \"#utility.yul\":7945:8076   */\n      tag_307\n        /* \"#utility.yul\":8071:8075   */\n      dup2\n        /* \"#utility.yul\":7945:8076   */\n      tag_265\n      jump\t// in\n    tag_307:\n        /* \"#utility.yul\":7937:8076   */\n      swap1\n      pop\n        /* \"#utility.yul\":7664:8083   */\n      swap2\n      swap1\n      pop\n      jump\t// out\n        /* \"#utility.yul\":8089:8508   */\n    tag_117:\n        /* \"#utility.yul\":8255:8259   */\n      0x00\n        /* \"#utility.yul\":8293:8295   */\n      0x20\n        /* \"#utility.yul\":8282:8291   */\n      dup3\n        /* \"#utility.yul\":8278:8296   */\n      add\n        /* \"#utility.yul\":8270:8296   */\n      swap1\n      pop\n        /* \"#utility.yul\":8342:8351   */\n      dup2\n        /* \"#utility.yul\":8336:8340   */\n      dup2\n        /* \"#utility.yul\":8332:8352   */\n      sub\n        /* \"#utility.yul\":8328:8329   */\n      0x00\n        /* \"#utility.yul\":8317:8326   */\n      dup4\n        /* \"#utility.yul\":8313:8330   */\n      add\n        /* \"#utility.yul\":8306:8353   */\n      mstore\n        /* \"#utility.yul\":8370:8501   */\n      tag_309\n        /* \"#utility.yul\":8496:8500   */\n      dup2\n        /* \"#utility.yul\":8370:8501   */\n      tag_270\n      jump\t// in\n    tag_309:\n        /* \"#utility.yul\":8362:8501   */\n      swap1\n      pop\n        /* \"#utility.yul\":8089:8508   */\n      swap2\n      swap1\n      pop\n      jump\t// out\n        /* \"#utility.yul\":8514:8933   */\n    tag_113:\n        /* \"#utility.yul\":8680:8684   */\n      0x00\n        /* \"#utility.yul\":8718:8720   */\n      0x20\n        /* \"#utility.yul\":8707:8716   */\n      dup3\n        /* \"#utility.yul\":8703:8721   */\n      add\n        /* \"#utility.yul\":8695:8721   */\n      swap1\n      pop\n        /* \"#utility.yul\":8767:8776   */\n      dup2\n        /* \"#utility.yul\":8761:8765   */\n      dup2\n        /* \"#utility.yul\":8757:8777   */\n      sub\n        /* \"#utility.yul\":8753:8754   */\n      0x00\n        /* \"#utility.yul\":8742:8751   */\n      dup4\n        /* \"#utility.yul\":8738:8755   */\n      add\n        /* \"#utility.yul\":8731:8778   */\n      mstore\n        /* \"#utility.yul\":8795:8926   */\n      tag_311\n        /* \"#utility.yul\":8921:8925   */\n      dup2\n        /* \"#utility.yul\":8795:8926   */\n      tag_275\n      jump\t// in\n    tag_311:\n        /* \"#utility.yul\":8787:8926   */\n      swap1\n      pop\n        /* \"#utility.yul\":8514:8933   */\n      swap2\n      swap1\n      pop\n      jump\t// out\n        /* \"#utility.yul\":8939:9235   */\n    tag_130:\n        /* \"#utility.yul\":9069:9073   */\n      0x00\n        /* \"#utility.yul\":9107:9109   */\n      0x40\n        /* \"#utility.yul\":9096:9105   */\n      dup3\n        /* \"#utility.yul\":9092:9110   */\n      add\n        /* \"#utility.yul\":9084:9110   */\n      swap1\n      pop\n        /* \"#utility.yul\":9120:9228   */\n      tag_313\n        /* \"#utility.yul\":9225:9226   */\n      0x00\n        /* \"#utility.yul\":9214:9223   */\n      dup4\n        /* \"#utility.yul\":9210:9227   */\n      add\n        /* \"#utility.yul\":9201:9207   */\n      dup5\n        /* \"#utility.yul\":9120:9228   */\n      tag_280\n      jump\t// in\n    tag_313:\n        /* \"#utility.yul\":8939:9235   */\n      swap3\n      swap2\n      pop\n      pop\n      jump\t// out\n        /* \"#utility.yul\":9241:9762   */\n    tag_160:\n        /* \"#utility.yul\":9429:9433   */\n      0x00\n        /* \"#utility.yul\":9467:9470   */\n      0x80\n        /* \"#utility.yul\":9456:9465   */\n      dup3\n        /* \"#utility.yul\":9452:9471   */\n      add\n        /* \"#utility.yul\":9444:9471   */\n      swap1\n      pop\n        /* \"#utility.yul\":9481:9589   */\n      tag_315\n        /* \"#utility.yul\":9586:9587   */\n      0x00\n        /* \"#utility.yul\":9575:9584   */\n      dup4\n        /* \"#utility.yul\":9571:9588   */\n      add\n        /* \"#utility.yul\":9562:9568   */\n      dup7\n        /* \"#utility.yul\":9481:9589   */\n      tag_280\n      jump\t// in\n    tag_315:\n        /* \"#utility.yul\":9599:9679   */\n      tag_316\n        /* \"#utility.yul\":9675:9677   */\n      0x40\n        /* \"#utility.yul\":9664:9673   */\n      dup4\n        /* \"#utility.yul\":9660:9678   */\n      add\n        /* \"#utility.yul\":9651:9657   */\n      dup6\n        /* \"#utility.yul\":9599:9679   */\n      tag_237\n      jump\t// in\n    tag_316:\n        /* \"#utility.yul\":9689:9755   */\n      tag_317\n        /* \"#utility.yul\":9751:9753   */\n      0x60\n        /* \"#utility.yul\":9740:9749   */\n      dup4\n        /* \"#utility.yul\":9736:9754   */\n      add\n        /* \"#utility.yul\":9727:9733   */\n      dup5\n        /* \"#utility.yul\":9689:9755   */\n      tag_249\n      jump\t// in\n    tag_317:\n        /* \"#utility.yul\":9241:9762   */\n      swap5\n      swap4\n      pop\n      pop\n      pop\n      pop\n      jump\t// out\n        /* \"#utility.yul\":9768:10396   */\n    tag_169:\n        /* \"#utility.yul\":9982:9986   */\n      0x00\n        /* \"#utility.yul\":10020:10023   */\n      0xa0\n        /* \"#utility.yul\":10009:10018   */\n      dup3\n        /* \"#utility.yul\":10005:10024   */\n      add\n        /* \"#utility.yul\":9997:10024   */\n      swap1\n      pop\n        /* \"#utility.yul\":10034:10142   */\n      tag_319\n        /* \"#utility.yul\":10139:10140   */\n      0x00\n        /* \"#utility.yul\":10128:10137   */\n      dup4\n        /* \"#utility.yul\":10124:10141   */\n      add\n        /* \"#utility.yul\":10115:10121   */\n      dup8\n        /* \"#utility.yul\":10034:10142   */\n      tag_280\n      jump\t// in\n    tag_319:\n        /* \"#utility.yul\":10152:10224   */\n      tag_320\n        /* \"#utility.yul\":10220:10222   */\n      0x40\n        /* \"#utility.yul\":10209:10218   */\n      dup4\n        /* \"#utility.yul\":10205:10223   */\n      add\n        /* \"#utility.yul\":10196:10202   */\n      dup7\n        /* \"#utility.yul\":10152:10224   */\n      tag_291\n      jump\t// in\n    tag_320:\n        /* \"#utility.yul\":10234:10306   */\n      tag_321\n        /* \"#utility.yul\":10302:10304   */\n      0x60\n        /* \"#utility.yul\":10291:10300   */\n      dup4\n        /* \"#utility.yul\":10287:10305   */\n      add\n        /* \"#utility.yul\":10278:10284   */\n      dup6\n        /* \"#utility.yul\":10234:10306   */\n      tag_291\n      jump\t// in\n    tag_321:\n        /* \"#utility.yul\":10316:10389   */\n      tag_322\n        /* \"#utility.yul\":10384:10387   */\n      0x80\n        /* \"#utility.yul\":10373:10382   */\n      dup4\n        /* \"#utility.yul\":10369:10388   */\n      add\n        /* \"#utility.yul\":10360:10366   */\n      dup5\n        /* \"#utility.yul\":10316:10389   */\n      tag_291\n      jump\t// in\n    tag_322:\n        /* \"#utility.yul\":9768:10396   */\n      swap6\n      swap5\n      pop\n      pop\n      pop\n      pop\n      pop\n      jump\t// out\n        /* \"#utility.yul\":10402:10624   */\n    tag_52:\n        /* \"#utility.yul\":10495:10499   */\n      0x00\n        /* \"#utility.yul\":10533:10535   */\n      0x20\n        /* \"#utility.yul\":10522:10531   */\n      dup3\n        /* \"#utility.yul\":10518:10536   */\n      add\n        /* \"#utility.yul\":10510:10536   */\n      swap1\n      pop\n        /* \"#utility.yul\":10546:10617   */\n      tag_324\n        /* \"#utility.yul\":10614:10615   */\n      0x00\n        /* \"#utility.yul\":10603:10612   */\n      dup4\n        /* \"#utility.yul\":10599:10616   */\n      add\n        /* \"#utility.yul\":10590:10596   */\n      dup5\n        /* \"#utility.yul\":10546:10617   */\n      tag_291\n      jump\t// in\n    tag_324:\n        /* \"#utility.yul\":10402:10624   */\n      swap3\n      swap2\n      pop\n      pop\n      jump\t// out\n        /* \"#utility.yul\":10630:11104   */\n    tag_35:\n        /* \"#utility.yul\":10795:10799   */\n      0x00\n        /* \"#utility.yul\":10833:10835   */\n      0x60\n        /* \"#utility.yul\":10822:10831   */\n      dup3\n        /* \"#utility.yul\":10818:10836   */\n      add\n        /* \"#utility.yul\":10810:10836   */\n      swap1\n      pop\n        /* \"#utility.yul\":10846:10917   */\n      tag_326\n        /* \"#utility.yul\":10914:10915   */\n      0x00\n        /* \"#utility.yul\":10903:10912   */\n      dup4\n        /* \"#utility.yul\":10899:10916   */\n      add\n        /* \"#utility.yul\":10890:10896   */\n      dup7\n        /* \"#utility.yul\":10846:10917   */\n      tag_291\n      jump\t// in\n    tag_326:\n        /* \"#utility.yul\":10927:11015   */\n      tag_327\n        /* \"#utility.yul\":11011:11013   */\n      0x20\n        /* \"#utility.yul\":11000:11009   */\n      dup4\n        /* \"#utility.yul\":10996:11014   */\n      add\n        /* \"#utility.yul\":10987:10993   */\n      dup6\n        /* \"#utility.yul\":10927:11015   */\n      tag_241\n      jump\t// in\n    tag_327:\n        /* \"#utility.yul\":11025:11097   */\n      tag_328\n        /* \"#utility.yul\":11093:11095   */\n      0x40\n        /* \"#utility.yul\":11082:11091   */\n      dup4\n        /* \"#utility.yul\":11078:11096   */\n      add\n        /* \"#utility.yul\":11069:11075   */\n      dup5\n        /* \"#utility.yul\":11025:11097   */\n      tag_291\n      jump\t// in\n    tag_328:\n        /* \"#utility.yul\":10630:11104   */\n      swap5\n      swap4\n      pop\n      pop\n      pop\n      pop\n      jump\t// out\n        /* \"#utility.yul\":11110:11442   */\n    tag_69:\n        /* \"#utility.yul\":11231:11235   */\n      0x00\n        /* \"#utility.yul\":11269:11271   */\n      0x40\n        /* \"#utility.yul\":11258:11267   */\n      dup3\n        /* \"#utility.yul\":11254:11272   */\n      add\n        /* \"#utility.yul\":11246:11272   */\n      swap1\n      pop\n        /* \"#utility.yul\":11282:11353   */\n      tag_330\n        /* \"#utility.yul\":11350:11351   */\n      0x00\n        /* \"#utility.yul\":11339:11348   */\n      dup4\n        /* \"#utility.yul\":11335:11352   */\n      add\n        /* \"#utility.yul\":11326:11332   */\n      dup6\n        /* \"#utility.yul\":11282:11353   */\n      tag_291\n      jump\t// in\n    tag_330:\n        /* \"#utility.yul\":11363:11435   */\n      tag_331\n        /* \"#utility.yul\":11431:11433   */\n      0x20\n        /* \"#utility.yul\":11420:11429   */\n      dup4\n        /* \"#utility.yul\":11416:11434   */\n      add\n        /* \"#utility.yul\":11407:11413   */\n      dup5\n        /* \"#utility.yul\":11363:11435   */\n      tag_291\n      jump\t// in\n    tag_331:\n        /* \"#utility.yul\":11110:11442   */\n      swap4\n      swap3\n      pop\n      pop\n      pop\n      jump\t// out\n        /* \"#utility.yul\":11448:11662   */\n    tag_84:\n        /* \"#utility.yul\":11537:11541   */\n      0x00\n        /* \"#utility.yul\":11575:11577   */\n      0x20\n        /* \"#utility.yul\":11564:11573   */\n      dup3\n        /* \"#utility.yul\":11560:11578   */\n      add\n        /* \"#utility.yul\":11552:11578   */\n      swap1\n      pop\n        /* \"#utility.yul\":11588:11655   */\n      tag_333\n        /* \"#utility.yul\":11652:11653   */\n      0x00\n        /* \"#utility.yul\":11641:11650   */\n      dup4\n        /* \"#utility.yul\":11637:11654   */\n      add\n        /* \"#utility.yul\":11628:11634   */\n      dup5\n        /* \"#utility.yul\":11588:11655   */\n      tag_294\n      jump\t// in\n    tag_333:\n        /* \"#utility.yul\":11448:11662   */\n      swap3\n      swap2\n      pop\n      pop\n      jump\t// out\n        /* \"#utility.yul\":11749:11896   */\n    tag_262:\n        /* \"#utility.yul\":11850:11861   */\n      0x00\n        /* \"#utility.yul\":11887:11890   */\n      dup2\n        /* \"#utility.yul\":11872:11890   */\n      swap1\n      pop\n        /* \"#utility.yul\":11749:11896   */\n      swap3\n      swap2\n      pop\n      pop\n      jump\t// out\n        /* \"#utility.yul\":11902:12071   */\n    tag_256:\n        /* \"#utility.yul\":11986:11997   */\n      0x00\n        /* \"#utility.yul\":12020:12026   */\n      dup3\n        /* \"#utility.yul\":12015:12018   */\n      dup3\n        /* \"#utility.yul\":12008:12027   */\n      mstore\n        /* \"#utility.yul\":12060:12064   */\n      0x20\n        /* \"#utility.yul\":12055:12058   */\n      dup3\n        /* \"#utility.yul\":12051:12065   */\n      add\n        /* \"#utility.yul\":12036:12065   */\n      swap1\n      pop\n        /* \"#utility.yul\":11902:12071   */\n      swap3\n      swap2\n      pop\n      pop\n      jump\t// out\n        /* \"#utility.yul\":12077:12382   */\n    tag_119:\n        /* \"#utility.yul\":12117:12120   */\n      0x00\n        /* \"#utility.yul\":12136:12156   */\n      tag_339\n        /* \"#utility.yul\":12154:12155   */\n      dup3\n        /* \"#utility.yul\":12136:12156   */\n      tag_290\n      jump\t// in\n    tag_339:\n        /* \"#utility.yul\":12131:12156   */\n      swap2\n      pop\n        /* \"#utility.yul\":12170:12190   */\n      tag_340\n        /* \"#utility.yul\":12188:12189   */\n      dup4\n        /* \"#utility.yul\":12170:12190   */\n      tag_290\n      jump\t// in\n    tag_340:\n        /* \"#utility.yul\":12165:12190   */\n      swap3\n      pop\n        /* \"#utility.yul\":12324:12325   */\n      dup3\n        /* \"#utility.yul\":12256:12322   */\n      0xffffffffffffffffffffffffffffffffffffffffffffffffffffffffffffffff\n        /* \"#utility.yul\":12252:12326   */\n      sub\n        /* \"#utility.yul\":12249:12250   */\n      dup3\n        /* \"#utility.yul\":12246:12327   */\n      gt\n        /* \"#utility.yul\":12243:12350   */\n      iszero\n      tag_341\n      jumpi\n        /* \"#utility.yul\":12330:12348   */\n      tag_342\n      tag_343\n      jump\t// in\n    tag_342:\n        /* \"#utility.yul\":12243:12350   */\n    tag_341:\n        /* \"#utility.yul\":12374:12375   */\n      dup3\n        /* \"#utility.yul\":12371:12372   */\n      dup3\n        /* \"#utility.yul\":12367:12376   */\n      add\n        /* \"#utility.yul\":12360:12376   */\n      swap1\n      pop\n        /* \"#utility.yul\":12077:12382   */\n      swap3\n      swap2\n      pop\n      pop\n      jump\t// out\n        /* \"#utility.yul\":12388:12625   */\n    tag_101:\n        /* \"#utility.yul\":12426:12429   */\n      0x00\n        /* \"#utility.yul\":12445:12463   */\n      tag_345\n        /* \"#utility.yul\":12461:12462   */\n      dup3\n        /* \"#utility.yul\":12445:12463   */\n      tag_297\n      jump\t// in\n    tag_345:\n        /* \"#utility.yul\":12440:12463   */\n      swap2\n      pop\n        /* \"#utility.yul\":12477:12495   */\n      tag_346\n        /* \"#utility.yul\":12493:12494   */\n      dup4\n        /* \"#utility.yul\":12477:12495   */\n      tag_297\n      jump\t// in\n    tag_346:\n        /* \"#utility.yul\":12472:12495   */\n      swap3\n      pop\n        /* \"#utility.yul\":12567:12568   */\n      dup3\n        /* \"#utility.yul\":12561:12565   */\n      0xff\n        /* \"#utility.yul\":12557:12569   */\n      sub\n        /* \"#utility.yul\":12554:12555   */\n      dup3\n        /* \"#utility.yul\":12551:12570   */\n      gt\n        /* \"#utility.yul\":12548:12593   */\n      iszero\n      tag_347\n      jumpi\n        /* \"#utility.yul\":12573:12591   */\n      tag_348\n      tag_343\n      jump\t// in\n    tag_348:\n        /* \"#utility.yul\":12548:12593   */\n    tag_347:\n        /* \"#utility.yul\":12617:12618   */\n      dup3\n        /* \"#utility.yul\":12614:12615   */\n      dup3\n        /* \"#utility.yul\":12610:12619   */\n      add\n        /* \"#utility.yul\":12603:12619   */\n      swap1\n      pop\n        /* \"#utility.yul\":12388:12625   */\n      swap3\n      swap2\n      pop\n      pop\n      jump\t// out\n        /* \"#utility.yul\":12631:12816   */\n    tag_143:\n        /* \"#utility.yul\":12671:12672   */\n      0x00\n        /* \"#utility.yul\":12688:12708   */\n      tag_350\n        /* \"#utility.yul\":12706:12707   */\n      dup3\n        /* \"#utility.yul\":12688:12708   */\n      tag_290\n      jump\t// in\n    tag_350:\n        /* \"#utility.yul\":12683:12708   */\n      swap2\n      pop\n        /* \"#utility.yul\":12722:12742   */\n      tag_351\n        /* \"#utility.yul\":12740:12741   */\n      dup4\n        /* \"#utility.yul\":12722:12742   */\n      tag_290\n      jump\t// in\n    tag_351:\n        /* \"#utility.yul\":12717:12742   */\n      swap3\n      pop\n        /* \"#utility.yul\":12761:12762   */\n      dup3\n        /* \"#utility.yul\":12751:12786   */\n      tag_352\n      jumpi\n        /* \"#utility.yul\":12766:12784   */\n      tag_353\n      tag_354\n      jump\t// in\n    tag_353:\n        /* \"#utility.yul\":12751:12786   */\n    tag_352:\n        /* \"#utility.yul\":12808:12809   */\n      dup3\n        /* \"#utility.yul\":12805:12806   */\n      dup3\n        /* \"#utility.yul\":12801:12810   */\n      div\n        /* \"#utility.yul\":12796:12810   */\n      swap1\n      pop\n        /* \"#utility.yul\":12631:12816   */\n      swap3\n      swap2\n      pop\n      pop\n      jump\t// out\n        /* \"#utility.yul\":12822:13170   */\n    tag_145:\n        /* \"#utility.yul\":12862:12869   */\n      0x00\n        /* \"#utility.yul\":12885:12905   */\n      tag_356\n        /* \"#utility.yul\":12903:12904   */\n      dup3\n        /* \"#utility.yul\":12885:12905   */\n      tag_290\n      jump\t// in\n    tag_356:\n        /* \"#utility.yul\":12880:12905   */\n      swap2\n      pop\n        /* \"#utility.yul\":12919:12939   */\n      tag_357\n        /* \"#utility.yul\":12937:12938   */\n      dup4\n        /* \"#utility.yul\":12919:12939   */\n      tag_290\n      jump\t// in\n    tag_357:\n        /* \"#utility.yul\":12914:12939   */\n      swap3\n      pop\n        /* \"#utility.yul\":13107:13108   */\n      dup2\n        /* \"#utility.yul\":13039:13105   */\n      0xffffffffffffffffffffffffffffffffffffffffffffffffffffffffffffffff\n        /* \"#utility.yul\":13035:13109   */\n      div\n        /* \"#utility.yul\":13032:13033   */\n      dup4\n        /* \"#utility.yul\":13029:13110   */\n      gt\n        /* \"#utility.yul\":13024:13025   */\n      dup3\n        /* \"#utility.yul\":13017:13026   */\n      iszero\n        /* \"#utility.yul\":13010:13027   */\n      iszero\n        /* \"#utility.yul\":13006:13111   */\n      and\n        /* \"#utility.yul\":13003:13134   */\n      iszero\n      tag_358\n      jumpi\n        /* \"#utility.yul\":13114:13132   */\n      tag_359\n      tag_343\n      jump\t// in\n    tag_359:\n        /* \"#utility.yul\":13003:13134   */\n    tag_358:\n        /* \"#utility.yul\":13162:13163   */\n      dup3\n        /* \"#utility.yul\":13159:13160   */\n      dup3\n        /* \"#utility.yul\":13155:13164   */\n      mul\n        /* \"#utility.yul\":13144:13164   */\n      swap1\n      pop\n        /* \"#utility.yul\":12822:13170   */\n      swap3\n      swap2\n      pop\n      pop\n      jump\t// out\n        /* \"#utility.yul\":13176:13367   */\n    tag_147:\n        /* \"#utility.yul\":13216:13220   */\n      0x00\n        /* \"#utility.yul\":13236:13256   */\n      tag_361\n        /* \"#utility.yul\":13254:13255   */\n      dup3\n        /* \"#utility.yul\":13236:13256   */\n      tag_290\n      jump\t// in\n    tag_361:\n        /* \"#utility.yul\":13231:13256   */\n      swap2\n      pop\n        /* \"#utility.yul\":13270:13290   */\n      tag_362\n        /* \"#utility.yul\":13288:13289   */\n      dup4\n        /* \"#utility.yul\":13270:13290   */\n      tag_290\n      jump\t// in\n    tag_362:\n        /* \"#utility.yul\":13265:13290   */\n      swap3\n      pop\n        /* \"#utility.yul\":13309:13310   */\n      dup3\n        /* \"#utility.yul\":13306:13307   */\n      dup3\n        /* \"#utility.yul\":13303:13311   */\n      lt\n        /* \"#utility.yul\":13300:13334   */\n      iszero\n      tag_363\n      jumpi\n        /* \"#utility.yul\":13314:13332   */\n      tag_364\n      tag_343\n      jump\t// in\n    tag_364:\n        /* \"#utility.yul\":13300:13334   */\n    tag_363:\n        /* \"#utility.yul\":13359:13360   */\n      dup3\n        /* \"#utility.yul\":13356:13357   */\n      dup3\n        /* \"#utility.yul\":13352:13361   */\n      sub\n        /* \"#utility.yul\":13344:13361   */\n      swap1\n      pop\n        /* \"#utility.yul\":13176:13367   */\n      swap3\n      swap2\n      pop\n      pop\n      jump\t// out\n        /* \"#utility.yul\":13373:13463   */\n    tag_365:\n        /* \"#utility.yul\":13423:13430   */\n      0x00\n        /* \"#utility.yul\":13452:13457   */\n      dup2\n        /* \"#utility.yul\":13441:13457   */\n      swap1\n      pop\n        /* \"#utility.yul\":13373:13463   */\n      swap2\n      swap1\n      pop\n      jump\t// out\n        /* \"#utility.yul\":13469:13565   */\n    tag_248:\n        /* \"#utility.yul\":13506:13513   */\n      0x00\n        /* \"#utility.yul\":13535:13559   */\n      tag_368\n        /* \"#utility.yul\":13553:13558   */\n      dup3\n        /* \"#utility.yul\":13535:13559   */\n      tag_369\n      jump\t// in\n    tag_368:\n        /* \"#utility.yul\":13524:13559   */\n      swap1\n      pop\n        /* \"#utility.yul\":13469:13565   */\n      swap2\n      swap1\n      pop\n      jump\t// out\n        /* \"#utility.yul\":13571:13675   */\n    tag_244:\n        /* \"#utility.yul\":13616:13623   */\n      0x00\n        /* \"#utility.yul\":13645:13669   */\n      tag_371\n        /* \"#utility.yul\":13663:13668   */\n      dup3\n        /* \"#utility.yul\":13645:13669   */\n      tag_369\n      jump\t// in\n    tag_371:\n        /* \"#utility.yul\":13634:13669   */\n      swap1\n      pop\n        /* \"#utility.yul\":13571:13675   */\n      swap2\n      swap1\n      pop\n      jump\t// out\n        /* \"#utility.yul\":13681:13771   */\n    tag_252:\n        /* \"#utility.yul\":13715:13722   */\n      0x00\n        /* \"#utility.yul\":13758:13763   */\n      dup2\n        /* \"#utility.yul\":13751:13764   */\n      iszero\n        /* \"#utility.yul\":13744:13765   */\n      iszero\n        /* \"#utility.yul\":13733:13765   */\n      swap1\n      pop\n        /* \"#utility.yul\":13681:13771   */\n      swap2\n      swap1\n      pop\n      jump\t// out\n        /* \"#utility.yul\":13777:13903   */\n    tag_369:\n        /* \"#utility.yul\":13814:13821   */\n      0x00\n        /* \"#utility.yul\":13854:13896   */\n      0xffffffffffffffffffffffffffffffffffffffff\n        /* \"#utility.yul\":13847:13852   */\n      dup3\n        /* \"#utility.yul\":13843:13897   */\n      and\n        /* \"#utility.yul\":13832:13897   */\n      swap1\n      pop\n        /* \"#utility.yul\":13777:13903   */\n      swap2\n      swap1\n      pop\n      jump\t// out\n        /* \"#utility.yul\":13909:13986   */\n    tag_290:\n        /* \"#utility.yul\":13946:13953   */\n      0x00\n        /* \"#utility.yul\":13975:13980   */\n      dup2\n        /* \"#utility.yul\":13964:13980   */\n      swap1\n      pop\n        /* \"#utility.yul\":13909:13986   */\n      swap2\n      swap1\n      pop\n      jump\t// out\n        /* \"#utility.yul\":13992:14078   */\n    tag_297:\n        /* \"#utility.yul\":14027:14034   */\n      0x00\n        /* \"#utility.yul\":14067:14071   */\n      0xff\n        /* \"#utility.yul\":14060:14065   */\n      dup3\n        /* \"#utility.yul\":14056:14072   */\n      and\n        /* \"#utility.yul\":14045:14072   */\n      swap1\n      pop\n        /* \"#utility.yul\":13992:14078   */\n      swap2\n      swap1\n      pop\n      jump\t// out\n        /* \"#utility.yul\":14084:14218   */\n    tag_240:\n        /* \"#utility.yul\":14142:14151   */\n      0x00\n        /* \"#utility.yul\":14175:14212   */\n      tag_377\n        /* \"#utility.yul\":14206:14211   */\n      dup3\n        /* \"#utility.yul\":14175:14212   */\n      tag_378\n      jump\t// in\n    tag_377:\n        /* \"#utility.yul\":14162:14212   */\n      swap1\n      pop\n        /* \"#utility.yul\":14084:14218   */\n      swap2\n      swap1\n      pop\n      jump\t// out\n        /* \"#utility.yul\":14224:14350   */\n    tag_378:\n        /* \"#utility.yul\":14274:14283   */\n      0x00\n        /* \"#utility.yul\":14307:14344   */\n      tag_380\n        /* \"#utility.yul\":14338:14343   */\n      dup3\n        /* \"#utility.yul\":14307:14344   */\n      tag_381\n      jump\t// in\n    tag_380:\n        /* \"#utility.yul\":14294:14344   */\n      swap1\n      pop\n        /* \"#utility.yul\":14224:14350   */\n      swap2\n      swap1\n      pop\n      jump\t// out\n        /* \"#utility.yul\":14356:14469   */\n    tag_381:\n        /* \"#utility.yul\":14406:14415   */\n      0x00\n        /* \"#utility.yul\":14439:14463   */\n      tag_383\n        /* \"#utility.yul\":14457:14462   */\n      dup3\n        /* \"#utility.yul\":14439:14463   */\n      tag_369\n      jump\t// in\n    tag_383:\n        /* \"#utility.yul\":14426:14463   */\n      swap1\n      pop\n        /* \"#utility.yul\":14356:14469   */\n      swap2\n      swap1\n      pop\n      jump\t// out\n        /* \"#utility.yul\":14475:14641   */\n    tag_283:\n        /* \"#utility.yul\":14544:14549   */\n      0x00\n        /* \"#utility.yul\":14569:14635   */\n      tag_385\n        /* \"#utility.yul\":14600:14634   */\n      tag_386\n        /* \"#utility.yul\":14623:14633   */\n      dup4\n        /* \"#utility.yul\":14600:14634   */\n      tag_387\n      jump\t// in\n    tag_386:\n        /* \"#utility.yul\":14569:14635   */\n      tag_365\n      jump\t// in\n    tag_385:\n        /* \"#utility.yul\":14560:14635   */\n      swap1\n      pop\n        /* \"#utility.yul\":14475:14641   */\n      swap2\n      swap1\n      pop\n      jump\t// out\n        /* \"#utility.yul\":14647:14880   */\n    tag_195:\n        /* \"#utility.yul\":14686:14689   */\n      0x00\n        /* \"#utility.yul\":14709:14733   */\n      tag_389\n        /* \"#utility.yul\":14727:14732   */\n      dup3\n        /* \"#utility.yul\":14709:14733   */\n      tag_290\n      jump\t// in\n    tag_389:\n        /* \"#utility.yul\":14700:14733   */\n      swap2\n      pop\n        /* \"#utility.yul\":14755:14821   */\n      0xffffffffffffffffffffffffffffffffffffffffffffffffffffffffffffffff\n        /* \"#utility.yul\":14748:14753   */\n      dup3\n        /* \"#utility.yul\":14745:14822   */\n      eq\n        /* \"#utility.yul\":14742:14845   */\n      iszero\n      tag_390\n      jumpi\n        /* \"#utility.yul\":14825:14843   */\n      tag_391\n      tag_343\n      jump\t// in\n    tag_391:\n        /* \"#utility.yul\":14742:14845   */\n    tag_390:\n        /* \"#utility.yul\":14872:14873   */\n      0x01\n        /* \"#utility.yul\":14865:14870   */\n      dup3\n        /* \"#utility.yul\":14861:14874   */\n      add\n        /* \"#utility.yul\":14854:14874   */\n      swap1\n      pop\n        /* \"#utility.yul\":14647:14880   */\n      swap2\n      swap1\n      pop\n      jump\t// out\n        /* \"#utility.yul\":14886:15053   */\n    tag_104:\n        /* \"#utility.yul\":14923:14926   */\n      0x00\n        /* \"#utility.yul\":14946:14968   */\n      tag_393\n        /* \"#utility.yul\":14962:14967   */\n      dup3\n        /* \"#utility.yul\":14946:14968   */\n      tag_297\n      jump\t// in\n    tag_393:\n        /* \"#utility.yul\":14937:14968   */\n      swap2\n      pop\n        /* \"#utility.yul\":14990:14994   */\n      0xff\n        /* \"#utility.yul\":14983:14988   */\n      dup3\n        /* \"#utility.yul\":14980:14995   */\n      eq\n        /* \"#utility.yul\":14977:15018   */\n      iszero\n      tag_394\n      jumpi\n        /* \"#utility.yul\":14998:15016   */\n      tag_395\n      tag_343\n      jump\t// in\n    tag_395:\n        /* \"#utility.yul\":14977:15018   */\n    tag_394:\n        /* \"#utility.yul\":15045:15046   */\n      0x01\n        /* \"#utility.yul\":15038:15043   */\n      dup3\n        /* \"#utility.yul\":15034:15047   */\n      add\n        /* \"#utility.yul\":15027:15047   */\n      swap1\n      pop\n        /* \"#utility.yul\":14886:15053   */\n      swap2\n      swap1\n      pop\n      jump\t// out\n        /* \"#utility.yul\":15059:15239   */\n    tag_343:\n        /* \"#utility.yul\":15107:15184   */\n      0x4e487b7100000000000000000000000000000000000000000000000000000000\n        /* \"#utility.yul\":15104:15105   */\n      0x00\n        /* \"#utility.yul\":15097:15185   */\n      mstore\n        /* \"#utility.yul\":15204:15208   */\n      0x11\n        /* \"#utility.yul\":15201:15202   */\n      0x04\n        /* \"#utility.yul\":15194:15209   */\n      mstore\n        /* \"#utility.yul\":15228:15232   */\n      0x24\n        /* \"#utility.yul\":15225:15226   */\n      0x00\n        /* \"#utility.yul\":15218:15233   */\n      revert\n        /* \"#utility.yul\":15245:15425   */\n    tag_354:\n        /* \"#utility.yul\":15293:15370   */\n      0x4e487b7100000000000000000000000000000000000000000000000000000000\n        /* \"#utility.yul\":15290:15291   */\n      0x00\n        /* \"#utility.yul\":15283:15371   */\n      mstore\n        /* \"#utility.yul\":15390:15394   */\n      0x12\n        /* \"#utility.yul\":15387:15388   */\n      0x04\n        /* \"#utility.yul\":15380:15395   */\n      mstore\n        /* \"#utility.yul\":15414:15418   */\n      0x24\n        /* \"#utility.yul\":15411:15412   */\n      0x00\n        /* \"#utility.yul\":15404:15419   */\n      revert\n        /* \"#utility.yul\":15554:15671   */\n    tag_212:\n        /* \"#utility.yul\":15663:15664   */\n      0x00\n        /* \"#utility.yul\":15660:15661   */\n      dup1\n        /* \"#utility.yul\":15653:15665   */\n      revert\n        /* \"#utility.yul\":15677:15779   */\n    tag_387:\n        /* \"#utility.yul\":15719:15727   */\n      0x00\n        /* \"#utility.yul\":15766:15771   */\n      dup2\n        /* \"#utility.yul\":15763:15764   */\n      0x00\n        /* \"#utility.yul\":15759:15772   */\n      shr\n        /* \"#utility.yul\":15738:15772   */\n      swap1\n      pop\n        /* \"#utility.yul\":15677:15779   */\n      swap2\n      swap1\n      pop\n      jump\t// out\n        /* \"#utility.yul\":15785:15949   */\n    tag_258:\n        /* \"#utility.yul\":15925:15941   */\n      0x47616d65206e6f7420666f756e64000000000000000000000000000000000000\n        /* \"#utility.yul\":15921:15922   */\n      0x00\n        /* \"#utility.yul\":15913:15919   */\n      dup3\n        /* \"#utility.yul\":15909:15923   */\n      add\n        /* \"#utility.yul\":15902:15942   */\n      mstore\n        /* \"#utility.yul\":15785:15949   */\n      pop\n      jump\t// out\n        /* \"#utility.yul\":15955:16069   */\n    tag_264:\n      pop\n      jump\t// out\n        /* \"#utility.yul\":16075:16297   */\n    tag_269:\n        /* \"#utility.yul\":16215:16249   */\n      0x496e73756666696369656e7420616d6f756e74206f6620636f6e747269627574\n        /* \"#utility.yul\":16211:16212   */\n      0x00\n        /* \"#utility.yul\":16203:16209   */\n      dup3\n        /* \"#utility.yul\":16199:16213   */\n      add\n        /* \"#utility.yul\":16192:16250   */\n      mstore\n        /* \"#utility.yul\":16284:16289   */\n      0x696f6e0000000000000000000000000000000000000000000000000000000000\n        /* \"#utility.yul\":16279:16281   */\n      0x20\n        /* \"#utility.yul\":16271:16277   */\n      dup3\n        /* \"#utility.yul\":16267:16282   */\n      add\n        /* \"#utility.yul\":16260:16290   */\n      mstore\n        /* \"#utility.yul\":16075:16297   */\n      pop\n      jump\t// out\n        /* \"#utility.yul\":16303:16530   */\n    tag_274:\n        /* \"#utility.yul\":16443:16477   */\n      0x466f72207265676974657220696e2067616d6520796f75206e65656420706179\n        /* \"#utility.yul\":16439:16440   */\n      0x00\n        /* \"#utility.yul\":16431:16437   */\n      dup3\n        /* \"#utility.yul\":16427:16441   */\n      add\n        /* \"#utility.yul\":16420:16478   */\n      mstore\n        /* \"#utility.yul\":16512:16522   */\n      0x2031206574686572000000000000000000000000000000000000000000000000\n        /* \"#utility.yul\":16507:16509   */\n      0x20\n        /* \"#utility.yul\":16499:16505   */\n      dup3\n        /* \"#utility.yul\":16495:16510   */\n      add\n        /* \"#utility.yul\":16488:16523   */\n      mstore\n        /* \"#utility.yul\":16303:16530   */\n      pop\n      jump\t// out\n        /* \"#utility.yul\":16536:16698   */\n    tag_279:\n        /* \"#utility.yul\":16676:16690   */\n      0x4e6f20636f6e7472616374730000000000000000000000000000000000000000\n        /* \"#utility.yul\":16672:16673   */\n      0x00\n        /* \"#utility.yul\":16664:16670   */\n      dup3\n        /* \"#utility.yul\":16660:16674   */\n      add\n        /* \"#utility.yul\":16653:16691   */\n      mstore\n        /* \"#utility.yul\":16536:16698   */\n      pop\n      jump\t// out\n        /* \"#utility.yul\":16704:16826   */\n    tag_200:\n        /* \"#utility.yul\":16777:16801   */\n      tag_408\n        /* \"#utility.yul\":16795:16800   */\n      dup2\n        /* \"#utility.yul\":16777:16801   */\n      tag_248\n      jump\t// in\n    tag_408:\n        /* \"#utility.yul\":16770:16775   */\n      dup2\n        /* \"#utility.yul\":16767:16802   */\n      eq\n        /* \"#utility.yul\":16757:16820   */\n      tag_409\n      jumpi\n        /* \"#utility.yul\":16816:16817   */\n      0x00\n        /* \"#utility.yul\":16813:16814   */\n      dup1\n        /* \"#utility.yul\":16806:16818   */\n      revert\n        /* \"#utility.yul\":16757:16820   */\n    tag_409:\n        /* \"#utility.yul\":16704:16826   */\n      pop\n      jump\t// out\n        /* \"#utility.yul\":16832:16954   */\n    tag_204:\n        /* \"#utility.yul\":16905:16929   */\n      tag_411\n        /* \"#utility.yul\":16923:16928   */\n      dup2\n        /* \"#utility.yul\":16905:16929   */\n      tag_290\n      jump\t// in\n    tag_411:\n        /* \"#utility.yul\":16898:16903   */\n      dup2\n        /* \"#utility.yul\":16895:16930   */\n      eq\n        /* \"#utility.yul\":16885:16948   */\n      tag_412\n      jumpi\n        /* \"#utility.yul\":16944:16945   */\n      0x00\n        /* \"#utility.yul\":16941:16942   */\n      dup1\n        /* \"#utility.yul\":16934:16946   */\n      revert\n        /* \"#utility.yul\":16885:16948   */\n    tag_412:\n        /* \"#utility.yul\":16832:16954   */\n      pop\n      jump\t// out\n        /* \"#utility.yul\":16960:17078   */\n    tag_208:\n        /* \"#utility.yul\":17031:17053   */\n      tag_414\n        /* \"#utility.yul\":17047:17052   */\n      dup2\n        /* \"#utility.yul\":17031:17053   */\n      tag_297\n      jump\t// in\n    tag_414:\n        /* \"#utility.yul\":17024:17029   */\n      dup2\n        /* \"#utility.yul\":17021:17054   */\n      eq\n        /* \"#utility.yul\":17011:17072   */\n      tag_415\n      jumpi\n        /* \"#utility.yul\":17068:17069   */\n      0x00\n        /* \"#utility.yul\":17065:17066   */\n      dup1\n        /* \"#utility.yul\":17058:17070   */\n      revert\n        /* \"#utility.yul\":17011:17072   */\n    tag_415:\n        /* \"#utility.yul\":16960:17078   */\n      pop\n      jump\t// out\n\n    auxdata: 0xa26469706673582212202ec20f8c0c355915f5b77b19989c11b9b2438229e1bb3170e1a84e83ed0c78c964736f6c63430008070033\n}\n",
				"bytecode": {
					"linkReferences": {},
					"object": "60806040523480156200001157600080fd5b50336001806101000a81548173ffffffffffffffffffffffffffffffffffffffff021916908373ffffffffffffffffffffffffffffffffffffffff16021790555060018054906101000a900473ffffffffffffffffffffffffffffffffffffffff166003600080815260200190815260200160002060006101000a81548173ffffffffffffffffffffffffffffffffffffffff021916908373ffffffffffffffffffffffffffffffffffffffff16021790555060405180606001604052806000815260200160018054906101000a900473ffffffffffffffffffffffffffffffffffffffff1673ffffffffffffffffffffffffffffffffffffffff16815260200160008152506004600060018054906101000a900473ffffffffffffffffffffffffffffffffffffffff1673ffffffffffffffffffffffffffffffffffffffff1673ffffffffffffffffffffffffffffffffffffffff1681526020019081526020016000206000820151816000015560208201518160010160006101000a81548173ffffffffffffffffffffffffffffffffffffffff021916908373ffffffffffffffffffffffffffffffffffffffff160217905550604082015181600201559050506001600081905550620001f76003670de0b6b3a7640000620001fd60201b60201c565b62000496565b6200020e336200030860201b60201c565b6200021857600080fd5b60405180604001604052808381526020018281525060026000600160009054906101000a900460ff1660ff1660ff16815260200190815260200160002060008201518160000155602082015181600101559050507f954900f0fb49268c265d1bafbfbf6c060c8b41cdb6b0bcaa575389d650b5e37460026000600160009054906101000a900460ff1660ff1660ff168152602001908152602001600020604051620002c49190620003c0565b60405180910390a160018060008282829054906101000a900460ff16620002ec9190620003dd565b92506101000a81548160ff021916908360ff1602179055505050565b600060018054906101000a900473ffffffffffffffffffffffffffffffffffffffff1673ffffffffffffffffffffffffffffffffffffffff168273ffffffffffffffffffffffffffffffffffffffff16149050919050565b60408201600080830154905062000377816200043c565b620003866000860182620003af565b506001830154905062000399816200043c565b620003a86020860182620003af565b5050505050565b620003ba8162000425565b82525050565b6000604082019050620003d7600083018462000360565b92915050565b6000620003ea826200042f565b9150620003f7836200042f565b92508260ff0382111562000410576200040f6200045a565b5b828201905092915050565b6000819050919050565b6000819050919050565b600060ff82169050919050565b6000620004536200044d8362000489565b6200041b565b9050919050565b7f4e487b7100000000000000000000000000000000000000000000000000000000600052601160045260246000fd5b60008160001c9050919050565b61215580620004a66000396000f3fe6080604052600436106100c65760003560e01c80637b0d5efa1161007f5780639b0b0ae3116100595780639b0b0ae3146102b7578063ad39f0a3146102f4578063bd233b911461031f578063f10600061461035c576100d7565b80637b0d5efa14610213578063906cbf571461023c57806395a078e81461027a576100d7565b80630173c05b146100e35780630e50cee5146100ff5780632a648c891461013e5780632e8aab9b1461017b578063477348921461019757806378a32e21146101d4576100d7565b366100d7576100d53334610399565b005b6100e13334610399565b005b6100fd60048036038101906100f891906118aa565b61045c565b005b34801561010b57600080fd5b506101266004803603810190610121919061183d565b61063b565b60405161013593929190611c60565b60405180910390f35b34801561014a57600080fd5b506101656004803603810190610160919061186a565b610685565b6040516101729190611b13565b60405180910390f35b61019560048036038101906101909190611917565b6106b4565b005b3480156101a357600080fd5b506101be60048036038101906101b9919061183d565b61075e565b6040516101cb9190611c45565b60405180910390f35b3480156101e057600080fd5b506101fb60048036038101906101f69190611944565b61077f565b60405161020a93929190611c60565b60405180910390f35b34801561021f57600080fd5b5061023a600480360381019061023591906118d7565b6107d6565b005b34801561024857600080fd5b50610263600480360381019061025e9190611917565b6108d4565b604051610271929190611c97565b60405180910390f35b34801561028657600080fd5b506102a1600480360381019061029c919061183d565b6108f8565b6040516102ae9190611b13565b60405180910390f35b3480156102c357600080fd5b506102de60048036038101906102d99190611917565b610950565b6040516102eb9190611c45565b60405180910390f35b34801561030057600080fd5b50610309610968565b6040516103169190611cc0565b60405180910390f35b34801561032b57600080fd5b50610346600480360381019061034191906118aa565b61097b565b6040516103539190611af8565b60405180910390f35b34801561036857600080fd5b50610383600480360381019061037e919061186a565b6109ae565b6040516103909190611c45565b60405180910390f35b60008060005b60018060009054906101000a900460ff166103ba9190611d4d565b60ff168160ff16101561040a5734600260008360ff1660ff1681526020019081526020016000206001015414156103f7576001925080915061040a565b808061040290611f4d565b91505061039f565b508161044b576040517f08c379a000000000000000000000000000000000000000000000000000000000815260040161044290611b2e565b60405180910390fd5b6104568185856109d3565b50505050565b600080339050803b915060008263ffffffff1611156104b0576040517f08c379a00000000000000000000000000000000000000000000000000000000081526004016104a790611b8e565b60405180910390fd5b670de0b6b3a764000034146104fa576040517f08c379a00000000000000000000000000000000000000000000000000000000081526004016104f190611b6e565b60405180910390fd5b604051806060016040528060005481526020013373ffffffffffffffffffffffffffffffffffffffff16815260200184815250600460003373ffffffffffffffffffffffffffffffffffffffff1673ffffffffffffffffffffffffffffffffffffffff1681526020019081526020016000206000820151816000015560208201518160010160006101000a81548173ffffffffffffffffffffffffffffffffffffffff021916908373ffffffffffffffffffffffffffffffffffffffff1602179055506040820151816002015590505033600360008054815260200190815260200160002060006101000a81548173ffffffffffffffffffffffffffffffffffffffff021916908373ffffffffffffffffffffffffffffffffffffffff160217905550600160008082825461062f9190611cf7565b92505081905550505050565b60046020528060005260406000206000915090508060000154908060010160009054906101000a900473ffffffffffffffffffffffffffffffffffffffff16908060020154905083565b60086020528160005260406000206020528060005260406000206000915091509054906101000a900460ff1681565b600073ffffffffffffffffffffffffffffffffffffffff16600460003373ffffffffffffffffffffffffffffffffffffffff1673ffffffffffffffffffffffffffffffffffffffff16815260200190815260200160002060010160009054906101000a900473ffffffffffffffffffffffffffffffffffffffff1673ffffffffffffffffffffffffffffffffffffffff16141561075057600080fd5b61075b8133346109d3565b50565b60008173ffffffffffffffffffffffffffffffffffffffff16319050919050565b6006602052816000526040600020602052806000526040600020600091509150508060000154908060010160009054906101000a900473ffffffffffffffffffffffffffffffffffffffff16908060020154905083565b6107df336108f8565b6107e857600080fd5b60405180604001604052808381526020018281525060026000600160009054906101000a900460ff1660ff1660ff16815260200190815260200160002060008201518160000155602082015181600101559050507f954900f0fb49268c265d1bafbfbf6c060c8b41cdb6b0bcaa575389d650b5e37460026000600160009054906101000a900460ff1660ff1660ff1681526020019081526020016000206040516108929190611bae565b60405180910390a160018060008282829054906101000a900460ff166108b89190611d4d565b92506101000a81548160ff021916908360ff1602179055505050565b60026020528060005260406000206000915090508060000154908060010154905082565b600060018054906101000a900473ffffffffffffffffffffffffffffffffffffffff1673ffffffffffffffffffffffffffffffffffffffff168273ffffffffffffffffffffffffffffffffffffffff16149050919050565b60056020528060005260406000206000915090505481565b600160009054906101000a900460ff1681565b60036020528060005260406000206000915054906101000a900473ffffffffffffffffffffffffffffffffffffffff1681565b6007602052816000526040600020602052806000526040600020600091509150505481565b600260008460ff1660ff16815260200190815260200160002060010154811015610a32576040517f08c379a0000000000000000000000000000000000000000000000000000000008152600401610a2990611b4e565b60405180910390fd5b6000600560008560ff1660ff168152602001908152602001600020549050600460008473ffffffffffffffffffffffffffffffffffffffff1673ffffffffffffffffffffffffffffffffffffffff168152602001908152602001600020600660008660ff1660ff1681526020019081526020016000206000838152602001908152602001600020600082015481600001556001820160009054906101000a900473ffffffffffffffffffffffffffffffffffffffff168160010160006101000a81548173ffffffffffffffffffffffffffffffffffffffff021916908373ffffffffffffffffffffffffffffffffffffffff160217905550600282015481600201559050506001600560008660ff1660ff1681526020019081526020016000206000828254610b619190611cf7565b925050819055506001600860008573ffffffffffffffffffffffffffffffffffffffff1673ffffffffffffffffffffffffffffffffffffffff16815260200190815260200160002060008660ff1660ff16815260200190815260200160002060006101000a81548160ff021916908315150217905550600260008560ff1660ff1681526020019081526020016000206000015481106117f8576000600190505b600260008660ff1660ff1681526020019081526020016000206000015482610c299190611d84565b81116117f6576000600260008760ff1660ff1681526020019081526020016000206000015482610c599190611db5565b83610c649190611e0f565b90506000600660008860ff1660ff168152602001908152602001600020600083815260200190815260200160002060010160009054906101000a900473ffffffffffffffffffffffffffffffffffffffff1690506001600760008373ffffffffffffffffffffffffffffffffffffffff1673ffffffffffffffffffffffffffffffffffffffff16815260200190815260200160002060008960ff1660ff16815260200190815260200160002054111580610d8a5750600860008273ffffffffffffffffffffffffffffffffffffffff1673ffffffffffffffffffffffffffffffffffffffff1681526020019081526020016000206000600189610d679190611d4d565b60ff1660ff16815260200190815260200160002060009054906101000a900460ff165b156117e15760008173ffffffffffffffffffffffffffffffffffffffff166064604a600260008c60ff1660ff16815260200190815260200160002060010154610dd39190611db5565b610ddd9190611d84565b604051610de990611ae3565b60006040518083038185875af1925050503d8060008114610e26576040519150601f19603f3d011682016040523d82523d6000602084013e610e2b565b606091505b505090506001600760008473ffffffffffffffffffffffffffffffffffffffff1673ffffffffffffffffffffffffffffffffffffffff16815260200190815260200160002060008a60ff1660ff1681526020019081526020016000206000828254610e969190611cf7565b925050819055507f48926dbe5ddf41609856a5a4f394bd85410dfcedaa2cfefb48bbb3bbab8b6be7600260008a60ff1660ff1681526020019081526020016000208383604051610ee893929190611bc9565b60405180910390a16000600660008a60ff1660ff16815260200190815260200160002060008581526020019081526020016000206000015490506000600660008b60ff1660ff168152602001908152602001600020600086815260200190815260200160002060020154905060006064600a600260008e60ff1660ff16815260200190815260200160002060010154610f819190611db5565b610f8b9190611d84565b90506003600083815260200190815260200160002060009054906101000a900473ffffffffffffffffffffffffffffffffffffffff1673ffffffffffffffffffffffffffffffffffffffff1681604051610fe490611ae3565b60006040518083038185875af1925050503d8060008114611021576040519150601f19603f3d011682016040523d82523d6000602084013e611026565b606091505b5050809450508315611088577f99a41df4773da34d9d98cc939025289e5db562f8fb5df346a9e7a1672bd288e3600260008d60ff1660ff16815260200190815260200160002084848460405161107f9493929190611c00565b60405180910390a15b60646006600260008e60ff1660ff168152602001908152602001600020600101546110b39190611db5565b6110bd9190611d84565b9050600460006003600085815260200190815260200160002060009054906101000a900473ffffffffffffffffffffffffffffffffffffffff1673ffffffffffffffffffffffffffffffffffffffff1673ffffffffffffffffffffffffffffffffffffffff16815260200190815260200160002060010160009054906101000a900473ffffffffffffffffffffffffffffffffffffffff1673ffffffffffffffffffffffffffffffffffffffff168160405161117890611ae3565b60006040518083038185875af1925050503d80600081146111b5576040519150601f19603f3d011682016040523d82523d6000602084013e6111ba565b606091505b5050809450508315611291577f99a41df4773da34d9d98cc939025289e5db562f8fb5df346a9e7a1672bd288e3600260008d60ff1660ff16815260200190815260200160002083600460006003600088815260200190815260200160002060009054906101000a900473ffffffffffffffffffffffffffffffffffffffff1673ffffffffffffffffffffffffffffffffffffffff1673ffffffffffffffffffffffffffffffffffffffff16815260200190815260200160002060000154846040516112889493929190611c00565b60405180910390a15b60646004600260008e60ff1660ff168152602001908152602001600020600101546112bc9190611db5565b6112c69190611d84565b90506004600060036000600460006003600089815260200190815260200160002060009054906101000a900473ffffffffffffffffffffffffffffffffffffffff1673ffffffffffffffffffffffffffffffffffffffff1673ffffffffffffffffffffffffffffffffffffffff16815260200190815260200160002060000154815260200190815260200160002060009054906101000a900473ffffffffffffffffffffffffffffffffffffffff1673ffffffffffffffffffffffffffffffffffffffff1673ffffffffffffffffffffffffffffffffffffffff16815260200190815260200160002060010160009054906101000a900473ffffffffffffffffffffffffffffffffffffffff1673ffffffffffffffffffffffffffffffffffffffff16816040516113f690611ae3565b60006040518083038185875af1925050503d8060008114611433576040519150601f19603f3d011682016040523d82523d6000602084013e611438565b606091505b50508094505083156115f9577f99a41df4773da34d9d98cc939025289e5db562f8fb5df346a9e7a1672bd288e3600260008d60ff1660ff168152602001908152602001600020600460006003600087815260200190815260200160002060009054906101000a900473ffffffffffffffffffffffffffffffffffffffff1673ffffffffffffffffffffffffffffffffffffffff1673ffffffffffffffffffffffffffffffffffffffff16815260200190815260200160002060000154600460006003600060046000600360008c815260200190815260200160002060009054906101000a900473ffffffffffffffffffffffffffffffffffffffff1673ffffffffffffffffffffffffffffffffffffffff1673ffffffffffffffffffffffffffffffffffffffff16815260200190815260200160002060000154815260200190815260200160002060009054906101000a900473ffffffffffffffffffffffffffffffffffffffff1673ffffffffffffffffffffffffffffffffffffffff1673ffffffffffffffffffffffffffffffffffffffff16815260200190815260200160002060000154846040516115f09493929190611c00565b60405180910390a15b60646006600260008e60ff1660ff168152602001908152602001600020600101546116249190611db5565b61162e9190611d84565b90506004600060018054906101000a900473ffffffffffffffffffffffffffffffffffffffff1673ffffffffffffffffffffffffffffffffffffffff1673ffffffffffffffffffffffffffffffffffffffff16815260200190815260200160002060010160009054906101000a900473ffffffffffffffffffffffffffffffffffffffff1673ffffffffffffffffffffffffffffffffffffffff16816040516116d690611ae3565b60006040518083038185875af1925050503d8060008114611713576040519150601f19603f3d011682016040523d82523d6000602084013e611718565b606091505b50508094505083156117dc577f99a41df4773da34d9d98cc939025289e5db562f8fb5df346a9e7a1672bd288e3600260008d60ff1660ff168152602001908152602001600020846004600060018054906101000a900473ffffffffffffffffffffffffffffffffffffffff1673ffffffffffffffffffffffffffffffffffffffff1673ffffffffffffffffffffffffffffffffffffffff16815260200190815260200160002060000154846040516117d39493929190611c00565b60405180910390a15b505050505b505080806117ee90611f04565b915050610c01565b505b50505050565b60008135905061180d816120da565b92915050565b600081359050611822816120f1565b92915050565b60008135905061183781612108565b92915050565b60006020828403121561185357611852611fd5565b5b6000611861848285016117fe565b91505092915050565b6000806040838503121561188157611880611fd5565b5b600061188f858286016117fe565b92505060206118a085828601611828565b9150509250929050565b6000602082840312156118c0576118bf611fd5565b5b60006118ce84828501611813565b91505092915050565b600080604083850312156118ee576118ed611fd5565b5b60006118fc85828601611813565b925050602061190d85828601611813565b9150509250929050565b60006020828403121561192d5761192c611fd5565b5b600061193b84828501611828565b91505092915050565b6000806040838503121561195b5761195a611fd5565b5b600061196985828601611828565b925050602061197a85828601611813565b9150509250929050565b61198d81611eb4565b82525050565b61199c81611e5f565b82525050565b6119ab81611e4d565b82525050565b6119ba81611e71565b82525050565b60006119cd600e83611ce6565b91506119d882611fe7565b602082019050919050565b60006119f0600083611cdb565b91506119fb82612010565b600082019050919050565b6000611a13602383611ce6565b9150611a1e82612013565b604082019050919050565b6000611a36602883611ce6565b9150611a4182612062565b604082019050919050565b6000611a59600c83611ce6565b9150611a64826120b1565b602082019050919050565b604082016000808301549050611a8481611eea565b611a916000860182611ab6565b5060018301549050611aa281611eea565b611aaf6020860182611ab6565b5050505050565b611abf81611e9d565b82525050565b611ace81611e9d565b82525050565b611add81611ea7565b82525050565b6000611aee826119e3565b9150819050919050565b6000602082019050611b0d60008301846119a2565b92915050565b6000602082019050611b2860008301846119b1565b92915050565b60006020820190508181036000830152611b47816119c0565b9050919050565b60006020820190508181036000830152611b6781611a06565b9050919050565b60006020820190508181036000830152611b8781611a29565b9050919050565b60006020820190508181036000830152611ba781611a4c565b9050919050565b6000604082019050611bc36000830184611a6f565b92915050565b6000608082019050611bde6000830186611a6f565b611beb6040830185611984565b611bf860608301846119b1565b949350505050565b600060a082019050611c156000830187611a6f565b611c226040830186611ac5565b611c2f6060830185611ac5565b611c3c6080830184611ac5565b95945050505050565b6000602082019050611c5a6000830184611ac5565b92915050565b6000606082019050611c756000830186611ac5565b611c826020830185611993565b611c8f6040830184611ac5565b949350505050565b6000604082019050611cac6000830185611ac5565b611cb96020830184611ac5565b9392505050565b6000602082019050611cd56000830184611ad4565b92915050565b600081905092915050565b600082825260208201905092915050565b6000611d0282611e9d565b9150611d0d83611e9d565b9250827fffffffffffffffffffffffffffffffffffffffffffffffffffffffffffffffff03821115611d4257611d41611f77565b5b828201905092915050565b6000611d5882611ea7565b9150611d6383611ea7565b92508260ff03821115611d7957611d78611f77565b5b828201905092915050565b6000611d8f82611e9d565b9150611d9a83611e9d565b925082611daa57611da9611fa6565b5b828204905092915050565b6000611dc082611e9d565b9150611dcb83611e9d565b9250817fffffffffffffffffffffffffffffffffffffffffffffffffffffffffffffffff0483118215151615611e0457611e03611f77565b5b828202905092915050565b6000611e1a82611e9d565b9150611e2583611e9d565b925082821015611e3857611e37611f77565b5b828203905092915050565b6000819050919050565b6000611e5882611e7d565b9050919050565b6000611e6a82611e7d565b9050919050565b60008115159050919050565b600073ffffffffffffffffffffffffffffffffffffffff82169050919050565b6000819050919050565b600060ff82169050919050565b6000611ebf82611ec6565b9050919050565b6000611ed182611ed8565b9050919050565b6000611ee382611e7d565b9050919050565b6000611efd611ef883611fda565b611e43565b9050919050565b6000611f0f82611e9d565b91507fffffffffffffffffffffffffffffffffffffffffffffffffffffffffffffffff821415611f4257611f41611f77565b5b600182019050919050565b6000611f5882611ea7565b915060ff821415611f6c57611f6b611f77565b5b600182019050919050565b7f4e487b7100000000000000000000000000000000000000000000000000000000600052601160045260246000fd5b7f4e487b7100000000000000000000000000000000000000000000000000000000600052601260045260246000fd5b600080fd5b60008160001c9050919050565b7f47616d65206e6f7420666f756e64000000000000000000000000000000000000600082015250565b50565b7f496e73756666696369656e7420616d6f756e74206f6620636f6e74726962757460008201527f696f6e0000000000000000000000000000000000000000000000000000000000602082015250565b7f466f72207265676974657220696e2067616d6520796f75206e6565642070617960008201527f2031206574686572000000000000000000000000000000000000000000000000602082015250565b7f4e6f20636f6e7472616374730000000000000000000000000000000000000000600082015250565b6120e381611e4d565b81146120ee57600080fd5b50565b6120fa81611e9d565b811461210557600080fd5b50565b61211181611ea7565b811461211c57600080fd5b5056fea26469706673582212202ec20f8c0c355915f5b77b19989c11b9b2438229e1bb3170e1a84e83ed0c78c964736f6c63430008070033",
					"opcodes": "PUSH1 0x80 PUSH1 0x40 MSTORE CALLVALUE DUP1 ISZERO PUSH3 0x11 JUMPI PUSH1 0x0 DUP1 REVERT JUMPDEST POP CALLER PUSH1 0x1 DUP1 PUSH2 0x100 EXP DUP2 SLOAD DUP2 PUSH20 0xFFFFFFFFFFFFFFFFFFFFFFFFFFFFFFFFFFFFFFFF MUL NOT AND SWAP1 DUP4 PUSH20 0xFFFFFFFFFFFFFFFFFFFFFFFFFFFFFFFFFFFFFFFF AND MUL OR SWAP1 SSTORE POP PUSH1 0x1 DUP1 SLOAD SWAP1 PUSH2 0x100 EXP SWAP1 DIV PUSH20 0xFFFFFFFFFFFFFFFFFFFFFFFFFFFFFFFFFFFFFFFF AND PUSH1 0x3 PUSH1 0x0 DUP1 DUP2 MSTORE PUSH1 0x20 ADD SWAP1 DUP2 MSTORE PUSH1 0x20 ADD PUSH1 0x0 KECCAK256 PUSH1 0x0 PUSH2 0x100 EXP DUP2 SLOAD DUP2 PUSH20 0xFFFFFFFFFFFFFFFFFFFFFFFFFFFFFFFFFFFFFFFF MUL NOT AND SWAP1 DUP4 PUSH20 0xFFFFFFFFFFFFFFFFFFFFFFFFFFFFFFFFFFFFFFFF AND MUL OR SWAP1 SSTORE POP PUSH1 0x40 MLOAD DUP1 PUSH1 0x60 ADD PUSH1 0x40 MSTORE DUP1 PUSH1 0x0 DUP2 MSTORE PUSH1 0x20 ADD PUSH1 0x1 DUP1 SLOAD SWAP1 PUSH2 0x100 EXP SWAP1 DIV PUSH20 0xFFFFFFFFFFFFFFFFFFFFFFFFFFFFFFFFFFFFFFFF AND PUSH20 0xFFFFFFFFFFFFFFFFFFFFFFFFFFFFFFFFFFFFFFFF AND DUP2 MSTORE PUSH1 0x20 ADD PUSH1 0x0 DUP2 MSTORE POP PUSH1 0x4 PUSH1 0x0 PUSH1 0x1 DUP1 SLOAD SWAP1 PUSH2 0x100 EXP SWAP1 DIV PUSH20 0xFFFFFFFFFFFFFFFFFFFFFFFFFFFFFFFFFFFFFFFF AND PUSH20 0xFFFFFFFFFFFFFFFFFFFFFFFFFFFFFFFFFFFFFFFF AND PUSH20 0xFFFFFFFFFFFFFFFFFFFFFFFFFFFFFFFFFFFFFFFF AND DUP2 MSTORE PUSH1 0x20 ADD SWAP1 DUP2 MSTORE PUSH1 0x20 ADD PUSH1 0x0 KECCAK256 PUSH1 0x0 DUP3 ADD MLOAD DUP2 PUSH1 0x0 ADD SSTORE PUSH1 0x20 DUP3 ADD MLOAD DUP2 PUSH1 0x1 ADD PUSH1 0x0 PUSH2 0x100 EXP DUP2 SLOAD DUP2 PUSH20 0xFFFFFFFFFFFFFFFFFFFFFFFFFFFFFFFFFFFFFFFF MUL NOT AND SWAP1 DUP4 PUSH20 0xFFFFFFFFFFFFFFFFFFFFFFFFFFFFFFFFFFFFFFFF AND MUL OR SWAP1 SSTORE POP PUSH1 0x40 DUP3 ADD MLOAD DUP2 PUSH1 0x2 ADD SSTORE SWAP1 POP POP PUSH1 0x1 PUSH1 0x0 DUP2 SWAP1 SSTORE POP PUSH3 0x1F7 PUSH1 0x3 PUSH8 0xDE0B6B3A7640000 PUSH3 0x1FD PUSH1 0x20 SHL PUSH1 0x20 SHR JUMP JUMPDEST PUSH3 0x496 JUMP JUMPDEST PUSH3 0x20E CALLER PUSH3 0x308 PUSH1 0x20 SHL PUSH1 0x20 SHR JUMP JUMPDEST PUSH3 0x218 JUMPI PUSH1 0x0 DUP1 REVERT JUMPDEST PUSH1 0x40 MLOAD DUP1 PUSH1 0x40 ADD PUSH1 0x40 MSTORE DUP1 DUP4 DUP2 MSTORE PUSH1 0x20 ADD DUP3 DUP2 MSTORE POP PUSH1 0x2 PUSH1 0x0 PUSH1 0x1 PUSH1 0x0 SWAP1 SLOAD SWAP1 PUSH2 0x100 EXP SWAP1 DIV PUSH1 0xFF AND PUSH1 0xFF AND PUSH1 0xFF AND DUP2 MSTORE PUSH1 0x20 ADD SWAP1 DUP2 MSTORE PUSH1 0x20 ADD PUSH1 0x0 KECCAK256 PUSH1 0x0 DUP3 ADD MLOAD DUP2 PUSH1 0x0 ADD SSTORE PUSH1 0x20 DUP3 ADD MLOAD DUP2 PUSH1 0x1 ADD SSTORE SWAP1 POP POP PUSH32 0x954900F0FB49268C265D1BAFBFBF6C060C8B41CDB6B0BCAA575389D650B5E374 PUSH1 0x2 PUSH1 0x0 PUSH1 0x1 PUSH1 0x0 SWAP1 SLOAD SWAP1 PUSH2 0x100 EXP SWAP1 DIV PUSH1 0xFF AND PUSH1 0xFF AND PUSH1 0xFF AND DUP2 MSTORE PUSH1 0x20 ADD SWAP1 DUP2 MSTORE PUSH1 0x20 ADD PUSH1 0x0 KECCAK256 PUSH1 0x40 MLOAD PUSH3 0x2C4 SWAP2 SWAP1 PUSH3 0x3C0 JUMP JUMPDEST PUSH1 0x40 MLOAD DUP1 SWAP2 SUB SWAP1 LOG1 PUSH1 0x1 DUP1 PUSH1 0x0 DUP3 DUP3 DUP3 SWAP1 SLOAD SWAP1 PUSH2 0x100 EXP SWAP1 DIV PUSH1 0xFF AND PUSH3 0x2EC SWAP2 SWAP1 PUSH3 0x3DD JUMP JUMPDEST SWAP3 POP PUSH2 0x100 EXP DUP2 SLOAD DUP2 PUSH1 0xFF MUL NOT AND SWAP1 DUP4 PUSH1 0xFF AND MUL OR SWAP1 SSTORE POP POP POP JUMP JUMPDEST PUSH1 0x0 PUSH1 0x1 DUP1 SLOAD SWAP1 PUSH2 0x100 EXP SWAP1 DIV PUSH20 0xFFFFFFFFFFFFFFFFFFFFFFFFFFFFFFFFFFFFFFFF AND PUSH20 0xFFFFFFFFFFFFFFFFFFFFFFFFFFFFFFFFFFFFFFFF AND DUP3 PUSH20 0xFFFFFFFFFFFFFFFFFFFFFFFFFFFFFFFFFFFFFFFF AND EQ SWAP1 POP SWAP2 SWAP1 POP JUMP JUMPDEST PUSH1 0x40 DUP3 ADD PUSH1 0x0 DUP1 DUP4 ADD SLOAD SWAP1 POP PUSH3 0x377 DUP2 PUSH3 0x43C JUMP JUMPDEST PUSH3 0x386 PUSH1 0x0 DUP7 ADD DUP3 PUSH3 0x3AF JUMP JUMPDEST POP PUSH1 0x1 DUP4 ADD SLOAD SWAP1 POP PUSH3 0x399 DUP2 PUSH3 0x43C JUMP JUMPDEST PUSH3 0x3A8 PUSH1 0x20 DUP7 ADD DUP3 PUSH3 0x3AF JUMP JUMPDEST POP POP POP POP POP JUMP JUMPDEST PUSH3 0x3BA DUP2 PUSH3 0x425 JUMP JUMPDEST DUP3 MSTORE POP POP JUMP JUMPDEST PUSH1 0x0 PUSH1 0x40 DUP3 ADD SWAP1 POP PUSH3 0x3D7 PUSH1 0x0 DUP4 ADD DUP5 PUSH3 0x360 JUMP JUMPDEST SWAP3 SWAP2 POP POP JUMP JUMPDEST PUSH1 0x0 PUSH3 0x3EA DUP3 PUSH3 0x42F JUMP JUMPDEST SWAP2 POP PUSH3 0x3F7 DUP4 PUSH3 0x42F JUMP JUMPDEST SWAP3 POP DUP3 PUSH1 0xFF SUB DUP3 GT ISZERO PUSH3 0x410 JUMPI PUSH3 0x40F PUSH3 0x45A JUMP JUMPDEST JUMPDEST DUP3 DUP3 ADD SWAP1 POP SWAP3 SWAP2 POP POP JUMP JUMPDEST PUSH1 0x0 DUP2 SWAP1 POP SWAP2 SWAP1 POP JUMP JUMPDEST PUSH1 0x0 DUP2 SWAP1 POP SWAP2 SWAP1 POP JUMP JUMPDEST PUSH1 0x0 PUSH1 0xFF DUP3 AND SWAP1 POP SWAP2 SWAP1 POP JUMP JUMPDEST PUSH1 0x0 PUSH3 0x453 PUSH3 0x44D DUP4 PUSH3 0x489 JUMP JUMPDEST PUSH3 0x41B JUMP JUMPDEST SWAP1 POP SWAP2 SWAP1 POP JUMP JUMPDEST PUSH32 0x4E487B7100000000000000000000000000000000000000000000000000000000 PUSH1 0x0 MSTORE PUSH1 0x11 PUSH1 0x4 MSTORE PUSH1 0x24 PUSH1 0x0 REVERT JUMPDEST PUSH1 0x0 DUP2 PUSH1 0x0 SHR SWAP1 POP SWAP2 SWAP1 POP JUMP JUMPDEST PUSH2 0x2155 DUP1 PUSH3 0x4A6 PUSH1 0x0 CODECOPY PUSH1 0x0 RETURN INVALID PUSH1 0x80 PUSH1 0x40 MSTORE PUSH1 0x4 CALLDATASIZE LT PUSH2 0xC6 JUMPI PUSH1 0x0 CALLDATALOAD PUSH1 0xE0 SHR DUP1 PUSH4 0x7B0D5EFA GT PUSH2 0x7F JUMPI DUP1 PUSH4 0x9B0B0AE3 GT PUSH2 0x59 JUMPI DUP1 PUSH4 0x9B0B0AE3 EQ PUSH2 0x2B7 JUMPI DUP1 PUSH4 0xAD39F0A3 EQ PUSH2 0x2F4 JUMPI DUP1 PUSH4 0xBD233B91 EQ PUSH2 0x31F JUMPI DUP1 PUSH4 0xF1060006 EQ PUSH2 0x35C JUMPI PUSH2 0xD7 JUMP JUMPDEST DUP1 PUSH4 0x7B0D5EFA EQ PUSH2 0x213 JUMPI DUP1 PUSH4 0x906CBF57 EQ PUSH2 0x23C JUMPI DUP1 PUSH4 0x95A078E8 EQ PUSH2 0x27A JUMPI PUSH2 0xD7 JUMP JUMPDEST DUP1 PUSH4 0x173C05B EQ PUSH2 0xE3 JUMPI DUP1 PUSH4 0xE50CEE5 EQ PUSH2 0xFF JUMPI DUP1 PUSH4 0x2A648C89 EQ PUSH2 0x13E JUMPI DUP1 PUSH4 0x2E8AAB9B EQ PUSH2 0x17B JUMPI DUP1 PUSH4 0x47734892 EQ PUSH2 0x197 JUMPI DUP1 PUSH4 0x78A32E21 EQ PUSH2 0x1D4 JUMPI PUSH2 0xD7 JUMP JUMPDEST CALLDATASIZE PUSH2 0xD7 JUMPI PUSH2 0xD5 CALLER CALLVALUE PUSH2 0x399 JUMP JUMPDEST STOP JUMPDEST PUSH2 0xE1 CALLER CALLVALUE PUSH2 0x399 JUMP JUMPDEST STOP JUMPDEST PUSH2 0xFD PUSH1 0x4 DUP1 CALLDATASIZE SUB DUP2 ADD SWAP1 PUSH2 0xF8 SWAP2 SWAP1 PUSH2 0x18AA JUMP JUMPDEST PUSH2 0x45C JUMP JUMPDEST STOP JUMPDEST CALLVALUE DUP1 ISZERO PUSH2 0x10B JUMPI PUSH1 0x0 DUP1 REVERT JUMPDEST POP PUSH2 0x126 PUSH1 0x4 DUP1 CALLDATASIZE SUB DUP2 ADD SWAP1 PUSH2 0x121 SWAP2 SWAP1 PUSH2 0x183D JUMP JUMPDEST PUSH2 0x63B JUMP JUMPDEST PUSH1 0x40 MLOAD PUSH2 0x135 SWAP4 SWAP3 SWAP2 SWAP1 PUSH2 0x1C60 JUMP JUMPDEST PUSH1 0x40 MLOAD DUP1 SWAP2 SUB SWAP1 RETURN JUMPDEST CALLVALUE DUP1 ISZERO PUSH2 0x14A JUMPI PUSH1 0x0 DUP1 REVERT JUMPDEST POP PUSH2 0x165 PUSH1 0x4 DUP1 CALLDATASIZE SUB DUP2 ADD SWAP1 PUSH2 0x160 SWAP2 SWAP1 PUSH2 0x186A JUMP JUMPDEST PUSH2 0x685 JUMP JUMPDEST PUSH1 0x40 MLOAD PUSH2 0x172 SWAP2 SWAP1 PUSH2 0x1B13 JUMP JUMPDEST PUSH1 0x40 MLOAD DUP1 SWAP2 SUB SWAP1 RETURN JUMPDEST PUSH2 0x195 PUSH1 0x4 DUP1 CALLDATASIZE SUB DUP2 ADD SWAP1 PUSH2 0x190 SWAP2 SWAP1 PUSH2 0x1917 JUMP JUMPDEST PUSH2 0x6B4 JUMP JUMPDEST STOP JUMPDEST CALLVALUE DUP1 ISZERO PUSH2 0x1A3 JUMPI PUSH1 0x0 DUP1 REVERT JUMPDEST POP PUSH2 0x1BE PUSH1 0x4 DUP1 CALLDATASIZE SUB DUP2 ADD SWAP1 PUSH2 0x1B9 SWAP2 SWAP1 PUSH2 0x183D JUMP JUMPDEST PUSH2 0x75E JUMP JUMPDEST PUSH1 0x40 MLOAD PUSH2 0x1CB SWAP2 SWAP1 PUSH2 0x1C45 JUMP JUMPDEST PUSH1 0x40 MLOAD DUP1 SWAP2 SUB SWAP1 RETURN JUMPDEST CALLVALUE DUP1 ISZERO PUSH2 0x1E0 JUMPI PUSH1 0x0 DUP1 REVERT JUMPDEST POP PUSH2 0x1FB PUSH1 0x4 DUP1 CALLDATASIZE SUB DUP2 ADD SWAP1 PUSH2 0x1F6 SWAP2 SWAP1 PUSH2 0x1944 JUMP JUMPDEST PUSH2 0x77F JUMP JUMPDEST PUSH1 0x40 MLOAD PUSH2 0x20A SWAP4 SWAP3 SWAP2 SWAP1 PUSH2 0x1C60 JUMP JUMPDEST PUSH1 0x40 MLOAD DUP1 SWAP2 SUB SWAP1 RETURN JUMPDEST CALLVALUE DUP1 ISZERO PUSH2 0x21F JUMPI PUSH1 0x0 DUP1 REVERT JUMPDEST POP PUSH2 0x23A PUSH1 0x4 DUP1 CALLDATASIZE SUB DUP2 ADD SWAP1 PUSH2 0x235 SWAP2 SWAP1 PUSH2 0x18D7 JUMP JUMPDEST PUSH2 0x7D6 JUMP JUMPDEST STOP JUMPDEST CALLVALUE DUP1 ISZERO PUSH2 0x248 JUMPI PUSH1 0x0 DUP1 REVERT JUMPDEST POP PUSH2 0x263 PUSH1 0x4 DUP1 CALLDATASIZE SUB DUP2 ADD SWAP1 PUSH2 0x25E SWAP2 SWAP1 PUSH2 0x1917 JUMP JUMPDEST PUSH2 0x8D4 JUMP JUMPDEST PUSH1 0x40 MLOAD PUSH2 0x271 SWAP3 SWAP2 SWAP1 PUSH2 0x1C97 JUMP JUMPDEST PUSH1 0x40 MLOAD DUP1 SWAP2 SUB SWAP1 RETURN JUMPDEST CALLVALUE DUP1 ISZERO PUSH2 0x286 JUMPI PUSH1 0x0 DUP1 REVERT JUMPDEST POP PUSH2 0x2A1 PUSH1 0x4 DUP1 CALLDATASIZE SUB DUP2 ADD SWAP1 PUSH2 0x29C SWAP2 SWAP1 PUSH2 0x183D JUMP JUMPDEST PUSH2 0x8F8 JUMP JUMPDEST PUSH1 0x40 MLOAD PUSH2 0x2AE SWAP2 SWAP1 PUSH2 0x1B13 JUMP JUMPDEST PUSH1 0x40 MLOAD DUP1 SWAP2 SUB SWAP1 RETURN JUMPDEST CALLVALUE DUP1 ISZERO PUSH2 0x2C3 JUMPI PUSH1 0x0 DUP1 REVERT JUMPDEST POP PUSH2 0x2DE PUSH1 0x4 DUP1 CALLDATASIZE SUB DUP2 ADD SWAP1 PUSH2 0x2D9 SWAP2 SWAP1 PUSH2 0x1917 JUMP JUMPDEST PUSH2 0x950 JUMP JUMPDEST PUSH1 0x40 MLOAD PUSH2 0x2EB SWAP2 SWAP1 PUSH2 0x1C45 JUMP JUMPDEST PUSH1 0x40 MLOAD DUP1 SWAP2 SUB SWAP1 RETURN JUMPDEST CALLVALUE DUP1 ISZERO PUSH2 0x300 JUMPI PUSH1 0x0 DUP1 REVERT JUMPDEST POP PUSH2 0x309 PUSH2 0x968 JUMP JUMPDEST PUSH1 0x40 MLOAD PUSH2 0x316 SWAP2 SWAP1 PUSH2 0x1CC0 JUMP JUMPDEST PUSH1 0x40 MLOAD DUP1 SWAP2 SUB SWAP1 RETURN JUMPDEST CALLVALUE DUP1 ISZERO PUSH2 0x32B JUMPI PUSH1 0x0 DUP1 REVERT JUMPDEST POP PUSH2 0x346 PUSH1 0x4 DUP1 CALLDATASIZE SUB DUP2 ADD SWAP1 PUSH2 0x341 SWAP2 SWAP1 PUSH2 0x18AA JUMP JUMPDEST PUSH2 0x97B JUMP JUMPDEST PUSH1 0x40 MLOAD PUSH2 0x353 SWAP2 SWAP1 PUSH2 0x1AF8 JUMP JUMPDEST PUSH1 0x40 MLOAD DUP1 SWAP2 SUB SWAP1 RETURN JUMPDEST CALLVALUE DUP1 ISZERO PUSH2 0x368 JUMPI PUSH1 0x0 DUP1 REVERT JUMPDEST POP PUSH2 0x383 PUSH1 0x4 DUP1 CALLDATASIZE SUB DUP2 ADD SWAP1 PUSH2 0x37E SWAP2 SWAP1 PUSH2 0x186A JUMP JUMPDEST PUSH2 0x9AE JUMP JUMPDEST PUSH1 0x40 MLOAD PUSH2 0x390 SWAP2 SWAP1 PUSH2 0x1C45 JUMP JUMPDEST PUSH1 0x40 MLOAD DUP1 SWAP2 SUB SWAP1 RETURN JUMPDEST PUSH1 0x0 DUP1 PUSH1 0x0 JUMPDEST PUSH1 0x1 DUP1 PUSH1 0x0 SWAP1 SLOAD SWAP1 PUSH2 0x100 EXP SWAP1 DIV PUSH1 0xFF AND PUSH2 0x3BA SWAP2 SWAP1 PUSH2 0x1D4D JUMP JUMPDEST PUSH1 0xFF AND DUP2 PUSH1 0xFF AND LT ISZERO PUSH2 0x40A JUMPI CALLVALUE PUSH1 0x2 PUSH1 0x0 DUP4 PUSH1 0xFF AND PUSH1 0xFF AND DUP2 MSTORE PUSH1 0x20 ADD SWAP1 DUP2 MSTORE PUSH1 0x20 ADD PUSH1 0x0 KECCAK256 PUSH1 0x1 ADD SLOAD EQ ISZERO PUSH2 0x3F7 JUMPI PUSH1 0x1 SWAP3 POP DUP1 SWAP2 POP PUSH2 0x40A JUMP JUMPDEST DUP1 DUP1 PUSH2 0x402 SWAP1 PUSH2 0x1F4D JUMP JUMPDEST SWAP2 POP POP PUSH2 0x39F JUMP JUMPDEST POP DUP2 PUSH2 0x44B JUMPI PUSH1 0x40 MLOAD PUSH32 0x8C379A000000000000000000000000000000000000000000000000000000000 DUP2 MSTORE PUSH1 0x4 ADD PUSH2 0x442 SWAP1 PUSH2 0x1B2E JUMP JUMPDEST PUSH1 0x40 MLOAD DUP1 SWAP2 SUB SWAP1 REVERT JUMPDEST PUSH2 0x456 DUP2 DUP6 DUP6 PUSH2 0x9D3 JUMP JUMPDEST POP POP POP POP JUMP JUMPDEST PUSH1 0x0 DUP1 CALLER SWAP1 POP DUP1 EXTCODESIZE SWAP2 POP PUSH1 0x0 DUP3 PUSH4 0xFFFFFFFF AND GT ISZERO PUSH2 0x4B0 JUMPI PUSH1 0x40 MLOAD PUSH32 0x8C379A000000000000000000000000000000000000000000000000000000000 DUP2 MSTORE PUSH1 0x4 ADD PUSH2 0x4A7 SWAP1 PUSH2 0x1B8E JUMP JUMPDEST PUSH1 0x40 MLOAD DUP1 SWAP2 SUB SWAP1 REVERT JUMPDEST PUSH8 0xDE0B6B3A7640000 CALLVALUE EQ PUSH2 0x4FA JUMPI PUSH1 0x40 MLOAD PUSH32 0x8C379A000000000000000000000000000000000000000000000000000000000 DUP2 MSTORE PUSH1 0x4 ADD PUSH2 0x4F1 SWAP1 PUSH2 0x1B6E JUMP JUMPDEST PUSH1 0x40 MLOAD DUP1 SWAP2 SUB SWAP1 REVERT JUMPDEST PUSH1 0x40 MLOAD DUP1 PUSH1 0x60 ADD PUSH1 0x40 MSTORE DUP1 PUSH1 0x0 SLOAD DUP2 MSTORE PUSH1 0x20 ADD CALLER PUSH20 0xFFFFFFFFFFFFFFFFFFFFFFFFFFFFFFFFFFFFFFFF AND DUP2 MSTORE PUSH1 0x20 ADD DUP5 DUP2 MSTORE POP PUSH1 0x4 PUSH1 0x0 CALLER PUSH20 0xFFFFFFFFFFFFFFFFFFFFFFFFFFFFFFFFFFFFFFFF AND PUSH20 0xFFFFFFFFFFFFFFFFFFFFFFFFFFFFFFFFFFFFFFFF AND DUP2 MSTORE PUSH1 0x20 ADD SWAP1 DUP2 MSTORE PUSH1 0x20 ADD PUSH1 0x0 KECCAK256 PUSH1 0x0 DUP3 ADD MLOAD DUP2 PUSH1 0x0 ADD SSTORE PUSH1 0x20 DUP3 ADD MLOAD DUP2 PUSH1 0x1 ADD PUSH1 0x0 PUSH2 0x100 EXP DUP2 SLOAD DUP2 PUSH20 0xFFFFFFFFFFFFFFFFFFFFFFFFFFFFFFFFFFFFFFFF MUL NOT AND SWAP1 DUP4 PUSH20 0xFFFFFFFFFFFFFFFFFFFFFFFFFFFFFFFFFFFFFFFF AND MUL OR SWAP1 SSTORE POP PUSH1 0x40 DUP3 ADD MLOAD DUP2 PUSH1 0x2 ADD SSTORE SWAP1 POP POP CALLER PUSH1 0x3 PUSH1 0x0 DUP1 SLOAD DUP2 MSTORE PUSH1 0x20 ADD SWAP1 DUP2 MSTORE PUSH1 0x20 ADD PUSH1 0x0 KECCAK256 PUSH1 0x0 PUSH2 0x100 EXP DUP2 SLOAD DUP2 PUSH20 0xFFFFFFFFFFFFFFFFFFFFFFFFFFFFFFFFFFFFFFFF MUL NOT AND SWAP1 DUP4 PUSH20 0xFFFFFFFFFFFFFFFFFFFFFFFFFFFFFFFFFFFFFFFF AND MUL OR SWAP1 SSTORE POP PUSH1 0x1 PUSH1 0x0 DUP1 DUP3 DUP3 SLOAD PUSH2 0x62F SWAP2 SWAP1 PUSH2 0x1CF7 JUMP JUMPDEST SWAP3 POP POP DUP2 SWAP1 SSTORE POP POP POP POP JUMP JUMPDEST PUSH1 0x4 PUSH1 0x20 MSTORE DUP1 PUSH1 0x0 MSTORE PUSH1 0x40 PUSH1 0x0 KECCAK256 PUSH1 0x0 SWAP2 POP SWAP1 POP DUP1 PUSH1 0x0 ADD SLOAD SWAP1 DUP1 PUSH1 0x1 ADD PUSH1 0x0 SWAP1 SLOAD SWAP1 PUSH2 0x100 EXP SWAP1 DIV PUSH20 0xFFFFFFFFFFFFFFFFFFFFFFFFFFFFFFFFFFFFFFFF AND SWAP1 DUP1 PUSH1 0x2 ADD SLOAD SWAP1 POP DUP4 JUMP JUMPDEST PUSH1 0x8 PUSH1 0x20 MSTORE DUP2 PUSH1 0x0 MSTORE PUSH1 0x40 PUSH1 0x0 KECCAK256 PUSH1 0x20 MSTORE DUP1 PUSH1 0x0 MSTORE PUSH1 0x40 PUSH1 0x0 KECCAK256 PUSH1 0x0 SWAP2 POP SWAP2 POP SWAP1 SLOAD SWAP1 PUSH2 0x100 EXP SWAP1 DIV PUSH1 0xFF AND DUP2 JUMP JUMPDEST PUSH1 0x0 PUSH20 0xFFFFFFFFFFFFFFFFFFFFFFFFFFFFFFFFFFFFFFFF AND PUSH1 0x4 PUSH1 0x0 CALLER PUSH20 0xFFFFFFFFFFFFFFFFFFFFFFFFFFFFFFFFFFFFFFFF AND PUSH20 0xFFFFFFFFFFFFFFFFFFFFFFFFFFFFFFFFFFFFFFFF AND DUP2 MSTORE PUSH1 0x20 ADD SWAP1 DUP2 MSTORE PUSH1 0x20 ADD PUSH1 0x0 KECCAK256 PUSH1 0x1 ADD PUSH1 0x0 SWAP1 SLOAD SWAP1 PUSH2 0x100 EXP SWAP1 DIV PUSH20 0xFFFFFFFFFFFFFFFFFFFFFFFFFFFFFFFFFFFFFFFF AND PUSH20 0xFFFFFFFFFFFFFFFFFFFFFFFFFFFFFFFFFFFFFFFF AND EQ ISZERO PUSH2 0x750 JUMPI PUSH1 0x0 DUP1 REVERT JUMPDEST PUSH2 0x75B DUP2 CALLER CALLVALUE PUSH2 0x9D3 JUMP JUMPDEST POP JUMP JUMPDEST PUSH1 0x0 DUP2 PUSH20 0xFFFFFFFFFFFFFFFFFFFFFFFFFFFFFFFFFFFFFFFF AND BALANCE SWAP1 POP SWAP2 SWAP1 POP JUMP JUMPDEST PUSH1 0x6 PUSH1 0x20 MSTORE DUP2 PUSH1 0x0 MSTORE PUSH1 0x40 PUSH1 0x0 KECCAK256 PUSH1 0x20 MSTORE DUP1 PUSH1 0x0 MSTORE PUSH1 0x40 PUSH1 0x0 KECCAK256 PUSH1 0x0 SWAP2 POP SWAP2 POP POP DUP1 PUSH1 0x0 ADD SLOAD SWAP1 DUP1 PUSH1 0x1 ADD PUSH1 0x0 SWAP1 SLOAD SWAP1 PUSH2 0x100 EXP SWAP1 DIV PUSH20 0xFFFFFFFFFFFFFFFFFFFFFFFFFFFFFFFFFFFFFFFF AND SWAP1 DUP1 PUSH1 0x2 ADD SLOAD SWAP1 POP DUP4 JUMP JUMPDEST PUSH2 0x7DF CALLER PUSH2 0x8F8 JUMP JUMPDEST PUSH2 0x7E8 JUMPI PUSH1 0x0 DUP1 REVERT JUMPDEST PUSH1 0x40 MLOAD DUP1 PUSH1 0x40 ADD PUSH1 0x40 MSTORE DUP1 DUP4 DUP2 MSTORE PUSH1 0x20 ADD DUP3 DUP2 MSTORE POP PUSH1 0x2 PUSH1 0x0 PUSH1 0x1 PUSH1 0x0 SWAP1 SLOAD SWAP1 PUSH2 0x100 EXP SWAP1 DIV PUSH1 0xFF AND PUSH1 0xFF AND PUSH1 0xFF AND DUP2 MSTORE PUSH1 0x20 ADD SWAP1 DUP2 MSTORE PUSH1 0x20 ADD PUSH1 0x0 KECCAK256 PUSH1 0x0 DUP3 ADD MLOAD DUP2 PUSH1 0x0 ADD SSTORE PUSH1 0x20 DUP3 ADD MLOAD DUP2 PUSH1 0x1 ADD SSTORE SWAP1 POP POP PUSH32 0x954900F0FB49268C265D1BAFBFBF6C060C8B41CDB6B0BCAA575389D650B5E374 PUSH1 0x2 PUSH1 0x0 PUSH1 0x1 PUSH1 0x0 SWAP1 SLOAD SWAP1 PUSH2 0x100 EXP SWAP1 DIV PUSH1 0xFF AND PUSH1 0xFF AND PUSH1 0xFF AND DUP2 MSTORE PUSH1 0x20 ADD SWAP1 DUP2 MSTORE PUSH1 0x20 ADD PUSH1 0x0 KECCAK256 PUSH1 0x40 MLOAD PUSH2 0x892 SWAP2 SWAP1 PUSH2 0x1BAE JUMP JUMPDEST PUSH1 0x40 MLOAD DUP1 SWAP2 SUB SWAP1 LOG1 PUSH1 0x1 DUP1 PUSH1 0x0 DUP3 DUP3 DUP3 SWAP1 SLOAD SWAP1 PUSH2 0x100 EXP SWAP1 DIV PUSH1 0xFF AND PUSH2 0x8B8 SWAP2 SWAP1 PUSH2 0x1D4D JUMP JUMPDEST SWAP3 POP PUSH2 0x100 EXP DUP2 SLOAD DUP2 PUSH1 0xFF MUL NOT AND SWAP1 DUP4 PUSH1 0xFF AND MUL OR SWAP1 SSTORE POP POP POP JUMP JUMPDEST PUSH1 0x2 PUSH1 0x20 MSTORE DUP1 PUSH1 0x0 MSTORE PUSH1 0x40 PUSH1 0x0 KECCAK256 PUSH1 0x0 SWAP2 POP SWAP1 POP DUP1 PUSH1 0x0 ADD SLOAD SWAP1 DUP1 PUSH1 0x1 ADD SLOAD SWAP1 POP DUP3 JUMP JUMPDEST PUSH1 0x0 PUSH1 0x1 DUP1 SLOAD SWAP1 PUSH2 0x100 EXP SWAP1 DIV PUSH20 0xFFFFFFFFFFFFFFFFFFFFFFFFFFFFFFFFFFFFFFFF AND PUSH20 0xFFFFFFFFFFFFFFFFFFFFFFFFFFFFFFFFFFFFFFFF AND DUP3 PUSH20 0xFFFFFFFFFFFFFFFFFFFFFFFFFFFFFFFFFFFFFFFF AND EQ SWAP1 POP SWAP2 SWAP1 POP JUMP JUMPDEST PUSH1 0x5 PUSH1 0x20 MSTORE DUP1 PUSH1 0x0 MSTORE PUSH1 0x40 PUSH1 0x0 KECCAK256 PUSH1 0x0 SWAP2 POP SWAP1 POP SLOAD DUP2 JUMP JUMPDEST PUSH1 0x1 PUSH1 0x0 SWAP1 SLOAD SWAP1 PUSH2 0x100 EXP SWAP1 DIV PUSH1 0xFF AND DUP2 JUMP JUMPDEST PUSH1 0x3 PUSH1 0x20 MSTORE DUP1 PUSH1 0x0 MSTORE PUSH1 0x40 PUSH1 0x0 KECCAK256 PUSH1 0x0 SWAP2 POP SLOAD SWAP1 PUSH2 0x100 EXP SWAP1 DIV PUSH20 0xFFFFFFFFFFFFFFFFFFFFFFFFFFFFFFFFFFFFFFFF AND DUP2 JUMP JUMPDEST PUSH1 0x7 PUSH1 0x20 MSTORE DUP2 PUSH1 0x0 MSTORE PUSH1 0x40 PUSH1 0x0 KECCAK256 PUSH1 0x20 MSTORE DUP1 PUSH1 0x0 MSTORE PUSH1 0x40 PUSH1 0x0 KECCAK256 PUSH1 0x0 SWAP2 POP SWAP2 POP POP SLOAD DUP2 JUMP JUMPDEST PUSH1 0x2 PUSH1 0x0 DUP5 PUSH1 0xFF AND PUSH1 0xFF AND DUP2 MSTORE PUSH1 0x20 ADD SWAP1 DUP2 MSTORE PUSH1 0x20 ADD PUSH1 0x0 KECCAK256 PUSH1 0x1 ADD SLOAD DUP2 LT ISZERO PUSH2 0xA32 JUMPI PUSH1 0x40 MLOAD PUSH32 0x8C379A000000000000000000000000000000000000000000000000000000000 DUP2 MSTORE PUSH1 0x4 ADD PUSH2 0xA29 SWAP1 PUSH2 0x1B4E JUMP JUMPDEST PUSH1 0x40 MLOAD DUP1 SWAP2 SUB SWAP1 REVERT JUMPDEST PUSH1 0x0 PUSH1 0x5 PUSH1 0x0 DUP6 PUSH1 0xFF AND PUSH1 0xFF AND DUP2 MSTORE PUSH1 0x20 ADD SWAP1 DUP2 MSTORE PUSH1 0x20 ADD PUSH1 0x0 KECCAK256 SLOAD SWAP1 POP PUSH1 0x4 PUSH1 0x0 DUP5 PUSH20 0xFFFFFFFFFFFFFFFFFFFFFFFFFFFFFFFFFFFFFFFF AND PUSH20 0xFFFFFFFFFFFFFFFFFFFFFFFFFFFFFFFFFFFFFFFF AND DUP2 MSTORE PUSH1 0x20 ADD SWAP1 DUP2 MSTORE PUSH1 0x20 ADD PUSH1 0x0 KECCAK256 PUSH1 0x6 PUSH1 0x0 DUP7 PUSH1 0xFF AND PUSH1 0xFF AND DUP2 MSTORE PUSH1 0x20 ADD SWAP1 DUP2 MSTORE PUSH1 0x20 ADD PUSH1 0x0 KECCAK256 PUSH1 0x0 DUP4 DUP2 MSTORE PUSH1 0x20 ADD SWAP1 DUP2 MSTORE PUSH1 0x20 ADD PUSH1 0x0 KECCAK256 PUSH1 0x0 DUP3 ADD SLOAD DUP2 PUSH1 0x0 ADD SSTORE PUSH1 0x1 DUP3 ADD PUSH1 0x0 SWAP1 SLOAD SWAP1 PUSH2 0x100 EXP SWAP1 DIV PUSH20 0xFFFFFFFFFFFFFFFFFFFFFFFFFFFFFFFFFFFFFFFF AND DUP2 PUSH1 0x1 ADD PUSH1 0x0 PUSH2 0x100 EXP DUP2 SLOAD DUP2 PUSH20 0xFFFFFFFFFFFFFFFFFFFFFFFFFFFFFFFFFFFFFFFF MUL NOT AND SWAP1 DUP4 PUSH20 0xFFFFFFFFFFFFFFFFFFFFFFFFFFFFFFFFFFFFFFFF AND MUL OR SWAP1 SSTORE POP PUSH1 0x2 DUP3 ADD SLOAD DUP2 PUSH1 0x2 ADD SSTORE SWAP1 POP POP PUSH1 0x1 PUSH1 0x5 PUSH1 0x0 DUP7 PUSH1 0xFF AND PUSH1 0xFF AND DUP2 MSTORE PUSH1 0x20 ADD SWAP1 DUP2 MSTORE PUSH1 0x20 ADD PUSH1 0x0 KECCAK256 PUSH1 0x0 DUP3 DUP3 SLOAD PUSH2 0xB61 SWAP2 SWAP1 PUSH2 0x1CF7 JUMP JUMPDEST SWAP3 POP POP DUP2 SWAP1 SSTORE POP PUSH1 0x1 PUSH1 0x8 PUSH1 0x0 DUP6 PUSH20 0xFFFFFFFFFFFFFFFFFFFFFFFFFFFFFFFFFFFFFFFF AND PUSH20 0xFFFFFFFFFFFFFFFFFFFFFFFFFFFFFFFFFFFFFFFF AND DUP2 MSTORE PUSH1 0x20 ADD SWAP1 DUP2 MSTORE PUSH1 0x20 ADD PUSH1 0x0 KECCAK256 PUSH1 0x0 DUP7 PUSH1 0xFF AND PUSH1 0xFF AND DUP2 MSTORE PUSH1 0x20 ADD SWAP1 DUP2 MSTORE PUSH1 0x20 ADD PUSH1 0x0 KECCAK256 PUSH1 0x0 PUSH2 0x100 EXP DUP2 SLOAD DUP2 PUSH1 0xFF MUL NOT AND SWAP1 DUP4 ISZERO ISZERO MUL OR SWAP1 SSTORE POP PUSH1 0x2 PUSH1 0x0 DUP6 PUSH1 0xFF AND PUSH1 0xFF AND DUP2 MSTORE PUSH1 0x20 ADD SWAP1 DUP2 MSTORE PUSH1 0x20 ADD PUSH1 0x0 KECCAK256 PUSH1 0x0 ADD SLOAD DUP2 LT PUSH2 0x17F8 JUMPI PUSH1 0x0 PUSH1 0x1 SWAP1 POP JUMPDEST PUSH1 0x2 PUSH1 0x0 DUP7 PUSH1 0xFF AND PUSH1 0xFF AND DUP2 MSTORE PUSH1 0x20 ADD SWAP1 DUP2 MSTORE PUSH1 0x20 ADD PUSH1 0x0 KECCAK256 PUSH1 0x0 ADD SLOAD DUP3 PUSH2 0xC29 SWAP2 SWAP1 PUSH2 0x1D84 JUMP JUMPDEST DUP2 GT PUSH2 0x17F6 JUMPI PUSH1 0x0 PUSH1 0x2 PUSH1 0x0 DUP8 PUSH1 0xFF AND PUSH1 0xFF AND DUP2 MSTORE PUSH1 0x20 ADD SWAP1 DUP2 MSTORE PUSH1 0x20 ADD PUSH1 0x0 KECCAK256 PUSH1 0x0 ADD SLOAD DUP3 PUSH2 0xC59 SWAP2 SWAP1 PUSH2 0x1DB5 JUMP JUMPDEST DUP4 PUSH2 0xC64 SWAP2 SWAP1 PUSH2 0x1E0F JUMP JUMPDEST SWAP1 POP PUSH1 0x0 PUSH1 0x6 PUSH1 0x0 DUP9 PUSH1 0xFF AND PUSH1 0xFF AND DUP2 MSTORE PUSH1 0x20 ADD SWAP1 DUP2 MSTORE PUSH1 0x20 ADD PUSH1 0x0 KECCAK256 PUSH1 0x0 DUP4 DUP2 MSTORE PUSH1 0x20 ADD SWAP1 DUP2 MSTORE PUSH1 0x20 ADD PUSH1 0x0 KECCAK256 PUSH1 0x1 ADD PUSH1 0x0 SWAP1 SLOAD SWAP1 PUSH2 0x100 EXP SWAP1 DIV PUSH20 0xFFFFFFFFFFFFFFFFFFFFFFFFFFFFFFFFFFFFFFFF AND SWAP1 POP PUSH1 0x1 PUSH1 0x7 PUSH1 0x0 DUP4 PUSH20 0xFFFFFFFFFFFFFFFFFFFFFFFFFFFFFFFFFFFFFFFF AND PUSH20 0xFFFFFFFFFFFFFFFFFFFFFFFFFFFFFFFFFFFFFFFF AND DUP2 MSTORE PUSH1 0x20 ADD SWAP1 DUP2 MSTORE PUSH1 0x20 ADD PUSH1 0x0 KECCAK256 PUSH1 0x0 DUP10 PUSH1 0xFF AND PUSH1 0xFF AND DUP2 MSTORE PUSH1 0x20 ADD SWAP1 DUP2 MSTORE PUSH1 0x20 ADD PUSH1 0x0 KECCAK256 SLOAD GT ISZERO DUP1 PUSH2 0xD8A JUMPI POP PUSH1 0x8 PUSH1 0x0 DUP3 PUSH20 0xFFFFFFFFFFFFFFFFFFFFFFFFFFFFFFFFFFFFFFFF AND PUSH20 0xFFFFFFFFFFFFFFFFFFFFFFFFFFFFFFFFFFFFFFFF AND DUP2 MSTORE PUSH1 0x20 ADD SWAP1 DUP2 MSTORE PUSH1 0x20 ADD PUSH1 0x0 KECCAK256 PUSH1 0x0 PUSH1 0x1 DUP10 PUSH2 0xD67 SWAP2 SWAP1 PUSH2 0x1D4D JUMP JUMPDEST PUSH1 0xFF AND PUSH1 0xFF AND DUP2 MSTORE PUSH1 0x20 ADD SWAP1 DUP2 MSTORE PUSH1 0x20 ADD PUSH1 0x0 KECCAK256 PUSH1 0x0 SWAP1 SLOAD SWAP1 PUSH2 0x100 EXP SWAP1 DIV PUSH1 0xFF AND JUMPDEST ISZERO PUSH2 0x17E1 JUMPI PUSH1 0x0 DUP2 PUSH20 0xFFFFFFFFFFFFFFFFFFFFFFFFFFFFFFFFFFFFFFFF AND PUSH1 0x64 PUSH1 0x4A PUSH1 0x2 PUSH1 0x0 DUP13 PUSH1 0xFF AND PUSH1 0xFF AND DUP2 MSTORE PUSH1 0x20 ADD SWAP1 DUP2 MSTORE PUSH1 0x20 ADD PUSH1 0x0 KECCAK256 PUSH1 0x1 ADD SLOAD PUSH2 0xDD3 SWAP2 SWAP1 PUSH2 0x1DB5 JUMP JUMPDEST PUSH2 0xDDD SWAP2 SWAP1 PUSH2 0x1D84 JUMP JUMPDEST PUSH1 0x40 MLOAD PUSH2 0xDE9 SWAP1 PUSH2 0x1AE3 JUMP JUMPDEST PUSH1 0x0 PUSH1 0x40 MLOAD DUP1 DUP4 SUB DUP2 DUP6 DUP8 GAS CALL SWAP3 POP POP POP RETURNDATASIZE DUP1 PUSH1 0x0 DUP2 EQ PUSH2 0xE26 JUMPI PUSH1 0x40 MLOAD SWAP2 POP PUSH1 0x1F NOT PUSH1 0x3F RETURNDATASIZE ADD AND DUP3 ADD PUSH1 0x40 MSTORE RETURNDATASIZE DUP3 MSTORE RETURNDATASIZE PUSH1 0x0 PUSH1 0x20 DUP5 ADD RETURNDATACOPY PUSH2 0xE2B JUMP JUMPDEST PUSH1 0x60 SWAP2 POP JUMPDEST POP POP SWAP1 POP PUSH1 0x1 PUSH1 0x7 PUSH1 0x0 DUP5 PUSH20 0xFFFFFFFFFFFFFFFFFFFFFFFFFFFFFFFFFFFFFFFF AND PUSH20 0xFFFFFFFFFFFFFFFFFFFFFFFFFFFFFFFFFFFFFFFF AND DUP2 MSTORE PUSH1 0x20 ADD SWAP1 DUP2 MSTORE PUSH1 0x20 ADD PUSH1 0x0 KECCAK256 PUSH1 0x0 DUP11 PUSH1 0xFF AND PUSH1 0xFF AND DUP2 MSTORE PUSH1 0x20 ADD SWAP1 DUP2 MSTORE PUSH1 0x20 ADD PUSH1 0x0 KECCAK256 PUSH1 0x0 DUP3 DUP3 SLOAD PUSH2 0xE96 SWAP2 SWAP1 PUSH2 0x1CF7 JUMP JUMPDEST SWAP3 POP POP DUP2 SWAP1 SSTORE POP PUSH32 0x48926DBE5DDF41609856A5A4F394BD85410DFCEDAA2CFEFB48BBB3BBAB8B6BE7 PUSH1 0x2 PUSH1 0x0 DUP11 PUSH1 0xFF AND PUSH1 0xFF AND DUP2 MSTORE PUSH1 0x20 ADD SWAP1 DUP2 MSTORE PUSH1 0x20 ADD PUSH1 0x0 KECCAK256 DUP4 DUP4 PUSH1 0x40 MLOAD PUSH2 0xEE8 SWAP4 SWAP3 SWAP2 SWAP1 PUSH2 0x1BC9 JUMP JUMPDEST PUSH1 0x40 MLOAD DUP1 SWAP2 SUB SWAP1 LOG1 PUSH1 0x0 PUSH1 0x6 PUSH1 0x0 DUP11 PUSH1 0xFF AND PUSH1 0xFF AND DUP2 MSTORE PUSH1 0x20 ADD SWAP1 DUP2 MSTORE PUSH1 0x20 ADD PUSH1 0x0 KECCAK256 PUSH1 0x0 DUP6 DUP2 MSTORE PUSH1 0x20 ADD SWAP1 DUP2 MSTORE PUSH1 0x20 ADD PUSH1 0x0 KECCAK256 PUSH1 0x0 ADD SLOAD SWAP1 POP PUSH1 0x0 PUSH1 0x6 PUSH1 0x0 DUP12 PUSH1 0xFF AND PUSH1 0xFF AND DUP2 MSTORE PUSH1 0x20 ADD SWAP1 DUP2 MSTORE PUSH1 0x20 ADD PUSH1 0x0 KECCAK256 PUSH1 0x0 DUP7 DUP2 MSTORE PUSH1 0x20 ADD SWAP1 DUP2 MSTORE PUSH1 0x20 ADD PUSH1 0x0 KECCAK256 PUSH1 0x2 ADD SLOAD SWAP1 POP PUSH1 0x0 PUSH1 0x64 PUSH1 0xA PUSH1 0x2 PUSH1 0x0 DUP15 PUSH1 0xFF AND PUSH1 0xFF AND DUP2 MSTORE PUSH1 0x20 ADD SWAP1 DUP2 MSTORE PUSH1 0x20 ADD PUSH1 0x0 KECCAK256 PUSH1 0x1 ADD SLOAD PUSH2 0xF81 SWAP2 SWAP1 PUSH2 0x1DB5 JUMP JUMPDEST PUSH2 0xF8B SWAP2 SWAP1 PUSH2 0x1D84 JUMP JUMPDEST SWAP1 POP PUSH1 0x3 PUSH1 0x0 DUP4 DUP2 MSTORE PUSH1 0x20 ADD SWAP1 DUP2 MSTORE PUSH1 0x20 ADD PUSH1 0x0 KECCAK256 PUSH1 0x0 SWAP1 SLOAD SWAP1 PUSH2 0x100 EXP SWAP1 DIV PUSH20 0xFFFFFFFFFFFFFFFFFFFFFFFFFFFFFFFFFFFFFFFF AND PUSH20 0xFFFFFFFFFFFFFFFFFFFFFFFFFFFFFFFFFFFFFFFF AND DUP2 PUSH1 0x40 MLOAD PUSH2 0xFE4 SWAP1 PUSH2 0x1AE3 JUMP JUMPDEST PUSH1 0x0 PUSH1 0x40 MLOAD DUP1 DUP4 SUB DUP2 DUP6 DUP8 GAS CALL SWAP3 POP POP POP RETURNDATASIZE DUP1 PUSH1 0x0 DUP2 EQ PUSH2 0x1021 JUMPI PUSH1 0x40 MLOAD SWAP2 POP PUSH1 0x1F NOT PUSH1 0x3F RETURNDATASIZE ADD AND DUP3 ADD PUSH1 0x40 MSTORE RETURNDATASIZE DUP3 MSTORE RETURNDATASIZE PUSH1 0x0 PUSH1 0x20 DUP5 ADD RETURNDATACOPY PUSH2 0x1026 JUMP JUMPDEST PUSH1 0x60 SWAP2 POP JUMPDEST POP POP DUP1 SWAP5 POP POP DUP4 ISZERO PUSH2 0x1088 JUMPI PUSH32 0x99A41DF4773DA34D9D98CC939025289E5DB562F8FB5DF346A9E7A1672BD288E3 PUSH1 0x2 PUSH1 0x0 DUP14 PUSH1 0xFF AND PUSH1 0xFF AND DUP2 MSTORE PUSH1 0x20 ADD SWAP1 DUP2 MSTORE PUSH1 0x20 ADD PUSH1 0x0 KECCAK256 DUP5 DUP5 DUP5 PUSH1 0x40 MLOAD PUSH2 0x107F SWAP5 SWAP4 SWAP3 SWAP2 SWAP1 PUSH2 0x1C00 JUMP JUMPDEST PUSH1 0x40 MLOAD DUP1 SWAP2 SUB SWAP1 LOG1 JUMPDEST PUSH1 0x64 PUSH1 0x6 PUSH1 0x2 PUSH1 0x0 DUP15 PUSH1 0xFF AND PUSH1 0xFF AND DUP2 MSTORE PUSH1 0x20 ADD SWAP1 DUP2 MSTORE PUSH1 0x20 ADD PUSH1 0x0 KECCAK256 PUSH1 0x1 ADD SLOAD PUSH2 0x10B3 SWAP2 SWAP1 PUSH2 0x1DB5 JUMP JUMPDEST PUSH2 0x10BD SWAP2 SWAP1 PUSH2 0x1D84 JUMP JUMPDEST SWAP1 POP PUSH1 0x4 PUSH1 0x0 PUSH1 0x3 PUSH1 0x0 DUP6 DUP2 MSTORE PUSH1 0x20 ADD SWAP1 DUP2 MSTORE PUSH1 0x20 ADD PUSH1 0x0 KECCAK256 PUSH1 0x0 SWAP1 SLOAD SWAP1 PUSH2 0x100 EXP SWAP1 DIV PUSH20 0xFFFFFFFFFFFFFFFFFFFFFFFFFFFFFFFFFFFFFFFF AND PUSH20 0xFFFFFFFFFFFFFFFFFFFFFFFFFFFFFFFFFFFFFFFF AND PUSH20 0xFFFFFFFFFFFFFFFFFFFFFFFFFFFFFFFFFFFFFFFF AND DUP2 MSTORE PUSH1 0x20 ADD SWAP1 DUP2 MSTORE PUSH1 0x20 ADD PUSH1 0x0 KECCAK256 PUSH1 0x1 ADD PUSH1 0x0 SWAP1 SLOAD SWAP1 PUSH2 0x100 EXP SWAP1 DIV PUSH20 0xFFFFFFFFFFFFFFFFFFFFFFFFFFFFFFFFFFFFFFFF AND PUSH20 0xFFFFFFFFFFFFFFFFFFFFFFFFFFFFFFFFFFFFFFFF AND DUP2 PUSH1 0x40 MLOAD PUSH2 0x1178 SWAP1 PUSH2 0x1AE3 JUMP JUMPDEST PUSH1 0x0 PUSH1 0x40 MLOAD DUP1 DUP4 SUB DUP2 DUP6 DUP8 GAS CALL SWAP3 POP POP POP RETURNDATASIZE DUP1 PUSH1 0x0 DUP2 EQ PUSH2 0x11B5 JUMPI PUSH1 0x40 MLOAD SWAP2 POP PUSH1 0x1F NOT PUSH1 0x3F RETURNDATASIZE ADD AND DUP3 ADD PUSH1 0x40 MSTORE RETURNDATASIZE DUP3 MSTORE RETURNDATASIZE PUSH1 0x0 PUSH1 0x20 DUP5 ADD RETURNDATACOPY PUSH2 0x11BA JUMP JUMPDEST PUSH1 0x60 SWAP2 POP JUMPDEST POP POP DUP1 SWAP5 POP POP DUP4 ISZERO PUSH2 0x1291 JUMPI PUSH32 0x99A41DF4773DA34D9D98CC939025289E5DB562F8FB5DF346A9E7A1672BD288E3 PUSH1 0x2 PUSH1 0x0 DUP14 PUSH1 0xFF AND PUSH1 0xFF AND DUP2 MSTORE PUSH1 0x20 ADD SWAP1 DUP2 MSTORE PUSH1 0x20 ADD PUSH1 0x0 KECCAK256 DUP4 PUSH1 0x4 PUSH1 0x0 PUSH1 0x3 PUSH1 0x0 DUP9 DUP2 MSTORE PUSH1 0x20 ADD SWAP1 DUP2 MSTORE PUSH1 0x20 ADD PUSH1 0x0 KECCAK256 PUSH1 0x0 SWAP1 SLOAD SWAP1 PUSH2 0x100 EXP SWAP1 DIV PUSH20 0xFFFFFFFFFFFFFFFFFFFFFFFFFFFFFFFFFFFFFFFF AND PUSH20 0xFFFFFFFFFFFFFFFFFFFFFFFFFFFFFFFFFFFFFFFF AND PUSH20 0xFFFFFFFFFFFFFFFFFFFFFFFFFFFFFFFFFFFFFFFF AND DUP2 MSTORE PUSH1 0x20 ADD SWAP1 DUP2 MSTORE PUSH1 0x20 ADD PUSH1 0x0 KECCAK256 PUSH1 0x0 ADD SLOAD DUP5 PUSH1 0x40 MLOAD PUSH2 0x1288 SWAP5 SWAP4 SWAP3 SWAP2 SWAP1 PUSH2 0x1C00 JUMP JUMPDEST PUSH1 0x40 MLOAD DUP1 SWAP2 SUB SWAP1 LOG1 JUMPDEST PUSH1 0x64 PUSH1 0x4 PUSH1 0x2 PUSH1 0x0 DUP15 PUSH1 0xFF AND PUSH1 0xFF AND DUP2 MSTORE PUSH1 0x20 ADD SWAP1 DUP2 MSTORE PUSH1 0x20 ADD PUSH1 0x0 KECCAK256 PUSH1 0x1 ADD SLOAD PUSH2 0x12BC SWAP2 SWAP1 PUSH2 0x1DB5 JUMP JUMPDEST PUSH2 0x12C6 SWAP2 SWAP1 PUSH2 0x1D84 JUMP JUMPDEST SWAP1 POP PUSH1 0x4 PUSH1 0x0 PUSH1 0x3 PUSH1 0x0 PUSH1 0x4 PUSH1 0x0 PUSH1 0x3 PUSH1 0x0 DUP10 DUP2 MSTORE PUSH1 0x20 ADD SWAP1 DUP2 MSTORE PUSH1 0x20 ADD PUSH1 0x0 KECCAK256 PUSH1 0x0 SWAP1 SLOAD SWAP1 PUSH2 0x100 EXP SWAP1 DIV PUSH20 0xFFFFFFFFFFFFFFFFFFFFFFFFFFFFFFFFFFFFFFFF AND PUSH20 0xFFFFFFFFFFFFFFFFFFFFFFFFFFFFFFFFFFFFFFFF AND PUSH20 0xFFFFFFFFFFFFFFFFFFFFFFFFFFFFFFFFFFFFFFFF AND DUP2 MSTORE PUSH1 0x20 ADD SWAP1 DUP2 MSTORE PUSH1 0x20 ADD PUSH1 0x0 KECCAK256 PUSH1 0x0 ADD SLOAD DUP2 MSTORE PUSH1 0x20 ADD SWAP1 DUP2 MSTORE PUSH1 0x20 ADD PUSH1 0x0 KECCAK256 PUSH1 0x0 SWAP1 SLOAD SWAP1 PUSH2 0x100 EXP SWAP1 DIV PUSH20 0xFFFFFFFFFFFFFFFFFFFFFFFFFFFFFFFFFFFFFFFF AND PUSH20 0xFFFFFFFFFFFFFFFFFFFFFFFFFFFFFFFFFFFFFFFF AND PUSH20 0xFFFFFFFFFFFFFFFFFFFFFFFFFFFFFFFFFFFFFFFF AND DUP2 MSTORE PUSH1 0x20 ADD SWAP1 DUP2 MSTORE PUSH1 0x20 ADD PUSH1 0x0 KECCAK256 PUSH1 0x1 ADD PUSH1 0x0 SWAP1 SLOAD SWAP1 PUSH2 0x100 EXP SWAP1 DIV PUSH20 0xFFFFFFFFFFFFFFFFFFFFFFFFFFFFFFFFFFFFFFFF AND PUSH20 0xFFFFFFFFFFFFFFFFFFFFFFFFFFFFFFFFFFFFFFFF AND DUP2 PUSH1 0x40 MLOAD PUSH2 0x13F6 SWAP1 PUSH2 0x1AE3 JUMP JUMPDEST PUSH1 0x0 PUSH1 0x40 MLOAD DUP1 DUP4 SUB DUP2 DUP6 DUP8 GAS CALL SWAP3 POP POP POP RETURNDATASIZE DUP1 PUSH1 0x0 DUP2 EQ PUSH2 0x1433 JUMPI PUSH1 0x40 MLOAD SWAP2 POP PUSH1 0x1F NOT PUSH1 0x3F RETURNDATASIZE ADD AND DUP3 ADD PUSH1 0x40 MSTORE RETURNDATASIZE DUP3 MSTORE RETURNDATASIZE PUSH1 0x0 PUSH1 0x20 DUP5 ADD RETURNDATACOPY PUSH2 0x1438 JUMP JUMPDEST PUSH1 0x60 SWAP2 POP JUMPDEST POP POP DUP1 SWAP5 POP POP DUP4 ISZERO PUSH2 0x15F9 JUMPI PUSH32 0x99A41DF4773DA34D9D98CC939025289E5DB562F8FB5DF346A9E7A1672BD288E3 PUSH1 0x2 PUSH1 0x0 DUP14 PUSH1 0xFF AND PUSH1 0xFF AND DUP2 MSTORE PUSH1 0x20 ADD SWAP1 DUP2 MSTORE PUSH1 0x20 ADD PUSH1 0x0 KECCAK256 PUSH1 0x4 PUSH1 0x0 PUSH1 0x3 PUSH1 0x0 DUP8 DUP2 MSTORE PUSH1 0x20 ADD SWAP1 DUP2 MSTORE PUSH1 0x20 ADD PUSH1 0x0 KECCAK256 PUSH1 0x0 SWAP1 SLOAD SWAP1 PUSH2 0x100 EXP SWAP1 DIV PUSH20 0xFFFFFFFFFFFFFFFFFFFFFFFFFFFFFFFFFFFFFFFF AND PUSH20 0xFFFFFFFFFFFFFFFFFFFFFFFFFFFFFFFFFFFFFFFF AND PUSH20 0xFFFFFFFFFFFFFFFFFFFFFFFFFFFFFFFFFFFFFFFF AND DUP2 MSTORE PUSH1 0x20 ADD SWAP1 DUP2 MSTORE PUSH1 0x20 ADD PUSH1 0x0 KECCAK256 PUSH1 0x0 ADD SLOAD PUSH1 0x4 PUSH1 0x0 PUSH1 0x3 PUSH1 0x0 PUSH1 0x4 PUSH1 0x0 PUSH1 0x3 PUSH1 0x0 DUP13 DUP2 MSTORE PUSH1 0x20 ADD SWAP1 DUP2 MSTORE PUSH1 0x20 ADD PUSH1 0x0 KECCAK256 PUSH1 0x0 SWAP1 SLOAD SWAP1 PUSH2 0x100 EXP SWAP1 DIV PUSH20 0xFFFFFFFFFFFFFFFFFFFFFFFFFFFFFFFFFFFFFFFF AND PUSH20 0xFFFFFFFFFFFFFFFFFFFFFFFFFFFFFFFFFFFFFFFF AND PUSH20 0xFFFFFFFFFFFFFFFFFFFFFFFFFFFFFFFFFFFFFFFF AND DUP2 MSTORE PUSH1 0x20 ADD SWAP1 DUP2 MSTORE PUSH1 0x20 ADD PUSH1 0x0 KECCAK256 PUSH1 0x0 ADD SLOAD DUP2 MSTORE PUSH1 0x20 ADD SWAP1 DUP2 MSTORE PUSH1 0x20 ADD PUSH1 0x0 KECCAK256 PUSH1 0x0 SWAP1 SLOAD SWAP1 PUSH2 0x100 EXP SWAP1 DIV PUSH20 0xFFFFFFFFFFFFFFFFFFFFFFFFFFFFFFFFFFFFFFFF AND PUSH20 0xFFFFFFFFFFFFFFFFFFFFFFFFFFFFFFFFFFFFFFFF AND PUSH20 0xFFFFFFFFFFFFFFFFFFFFFFFFFFFFFFFFFFFFFFFF AND DUP2 MSTORE PUSH1 0x20 ADD SWAP1 DUP2 MSTORE PUSH1 0x20 ADD PUSH1 0x0 KECCAK256 PUSH1 0x0 ADD SLOAD DUP5 PUSH1 0x40 MLOAD PUSH2 0x15F0 SWAP5 SWAP4 SWAP3 SWAP2 SWAP1 PUSH2 0x1C00 JUMP JUMPDEST PUSH1 0x40 MLOAD DUP1 SWAP2 SUB SWAP1 LOG1 JUMPDEST PUSH1 0x64 PUSH1 0x6 PUSH1 0x2 PUSH1 0x0 DUP15 PUSH1 0xFF AND PUSH1 0xFF AND DUP2 MSTORE PUSH1 0x20 ADD SWAP1 DUP2 MSTORE PUSH1 0x20 ADD PUSH1 0x0 KECCAK256 PUSH1 0x1 ADD SLOAD PUSH2 0x1624 SWAP2 SWAP1 PUSH2 0x1DB5 JUMP JUMPDEST PUSH2 0x162E SWAP2 SWAP1 PUSH2 0x1D84 JUMP JUMPDEST SWAP1 POP PUSH1 0x4 PUSH1 0x0 PUSH1 0x1 DUP1 SLOAD SWAP1 PUSH2 0x100 EXP SWAP1 DIV PUSH20 0xFFFFFFFFFFFFFFFFFFFFFFFFFFFFFFFFFFFFFFFF AND PUSH20 0xFFFFFFFFFFFFFFFFFFFFFFFFFFFFFFFFFFFFFFFF AND PUSH20 0xFFFFFFFFFFFFFFFFFFFFFFFFFFFFFFFFFFFFFFFF AND DUP2 MSTORE PUSH1 0x20 ADD SWAP1 DUP2 MSTORE PUSH1 0x20 ADD PUSH1 0x0 KECCAK256 PUSH1 0x1 ADD PUSH1 0x0 SWAP1 SLOAD SWAP1 PUSH2 0x100 EXP SWAP1 DIV PUSH20 0xFFFFFFFFFFFFFFFFFFFFFFFFFFFFFFFFFFFFFFFF AND PUSH20 0xFFFFFFFFFFFFFFFFFFFFFFFFFFFFFFFFFFFFFFFF AND DUP2 PUSH1 0x40 MLOAD PUSH2 0x16D6 SWAP1 PUSH2 0x1AE3 JUMP JUMPDEST PUSH1 0x0 PUSH1 0x40 MLOAD DUP1 DUP4 SUB DUP2 DUP6 DUP8 GAS CALL SWAP3 POP POP POP RETURNDATASIZE DUP1 PUSH1 0x0 DUP2 EQ PUSH2 0x1713 JUMPI PUSH1 0x40 MLOAD SWAP2 POP PUSH1 0x1F NOT PUSH1 0x3F RETURNDATASIZE ADD AND DUP3 ADD PUSH1 0x40 MSTORE RETURNDATASIZE DUP3 MSTORE RETURNDATASIZE PUSH1 0x0 PUSH1 0x20 DUP5 ADD RETURNDATACOPY PUSH2 0x1718 JUMP JUMPDEST PUSH1 0x60 SWAP2 POP JUMPDEST POP POP DUP1 SWAP5 POP POP DUP4 ISZERO PUSH2 0x17DC JUMPI PUSH32 0x99A41DF4773DA34D9D98CC939025289E5DB562F8FB5DF346A9E7A1672BD288E3 PUSH1 0x2 PUSH1 0x0 DUP14 PUSH1 0xFF AND PUSH1 0xFF AND DUP2 MSTORE PUSH1 0x20 ADD SWAP1 DUP2 MSTORE PUSH1 0x20 ADD PUSH1 0x0 KECCAK256 DUP5 PUSH1 0x4 PUSH1 0x0 PUSH1 0x1 DUP1 SLOAD SWAP1 PUSH2 0x100 EXP SWAP1 DIV PUSH20 0xFFFFFFFFFFFFFFFFFFFFFFFFFFFFFFFFFFFFFFFF AND PUSH20 0xFFFFFFFFFFFFFFFFFFFFFFFFFFFFFFFFFFFFFFFF AND PUSH20 0xFFFFFFFFFFFFFFFFFFFFFFFFFFFFFFFFFFFFFFFF AND DUP2 MSTORE PUSH1 0x20 ADD SWAP1 DUP2 MSTORE PUSH1 0x20 ADD PUSH1 0x0 KECCAK256 PUSH1 0x0 ADD SLOAD DUP5 PUSH1 0x40 MLOAD PUSH2 0x17D3 SWAP5 SWAP4 SWAP3 SWAP2 SWAP1 PUSH2 0x1C00 JUMP JUMPDEST PUSH1 0x40 MLOAD DUP1 SWAP2 SUB SWAP1 LOG1 JUMPDEST POP POP POP POP JUMPDEST POP POP DUP1 DUP1 PUSH2 0x17EE SWAP1 PUSH2 0x1F04 JUMP JUMPDEST SWAP2 POP POP PUSH2 0xC01 JUMP JUMPDEST POP JUMPDEST POP POP POP POP JUMP JUMPDEST PUSH1 0x0 DUP2 CALLDATALOAD SWAP1 POP PUSH2 0x180D DUP2 PUSH2 0x20DA JUMP JUMPDEST SWAP3 SWAP2 POP POP JUMP JUMPDEST PUSH1 0x0 DUP2 CALLDATALOAD SWAP1 POP PUSH2 0x1822 DUP2 PUSH2 0x20F1 JUMP JUMPDEST SWAP3 SWAP2 POP POP JUMP JUMPDEST PUSH1 0x0 DUP2 CALLDATALOAD SWAP1 POP PUSH2 0x1837 DUP2 PUSH2 0x2108 JUMP JUMPDEST SWAP3 SWAP2 POP POP JUMP JUMPDEST PUSH1 0x0 PUSH1 0x20 DUP3 DUP5 SUB SLT ISZERO PUSH2 0x1853 JUMPI PUSH2 0x1852 PUSH2 0x1FD5 JUMP JUMPDEST JUMPDEST PUSH1 0x0 PUSH2 0x1861 DUP5 DUP3 DUP6 ADD PUSH2 0x17FE JUMP JUMPDEST SWAP2 POP POP SWAP3 SWAP2 POP POP JUMP JUMPDEST PUSH1 0x0 DUP1 PUSH1 0x40 DUP4 DUP6 SUB SLT ISZERO PUSH2 0x1881 JUMPI PUSH2 0x1880 PUSH2 0x1FD5 JUMP JUMPDEST JUMPDEST PUSH1 0x0 PUSH2 0x188F DUP6 DUP3 DUP7 ADD PUSH2 0x17FE JUMP JUMPDEST SWAP3 POP POP PUSH1 0x20 PUSH2 0x18A0 DUP6 DUP3 DUP7 ADD PUSH2 0x1828 JUMP JUMPDEST SWAP2 POP POP SWAP3 POP SWAP3 SWAP1 POP JUMP JUMPDEST PUSH1 0x0 PUSH1 0x20 DUP3 DUP5 SUB SLT ISZERO PUSH2 0x18C0 JUMPI PUSH2 0x18BF PUSH2 0x1FD5 JUMP JUMPDEST JUMPDEST PUSH1 0x0 PUSH2 0x18CE DUP5 DUP3 DUP6 ADD PUSH2 0x1813 JUMP JUMPDEST SWAP2 POP POP SWAP3 SWAP2 POP POP JUMP JUMPDEST PUSH1 0x0 DUP1 PUSH1 0x40 DUP4 DUP6 SUB SLT ISZERO PUSH2 0x18EE JUMPI PUSH2 0x18ED PUSH2 0x1FD5 JUMP JUMPDEST JUMPDEST PUSH1 0x0 PUSH2 0x18FC DUP6 DUP3 DUP7 ADD PUSH2 0x1813 JUMP JUMPDEST SWAP3 POP POP PUSH1 0x20 PUSH2 0x190D DUP6 DUP3 DUP7 ADD PUSH2 0x1813 JUMP JUMPDEST SWAP2 POP POP SWAP3 POP SWAP3 SWAP1 POP JUMP JUMPDEST PUSH1 0x0 PUSH1 0x20 DUP3 DUP5 SUB SLT ISZERO PUSH2 0x192D JUMPI PUSH2 0x192C PUSH2 0x1FD5 JUMP JUMPDEST JUMPDEST PUSH1 0x0 PUSH2 0x193B DUP5 DUP3 DUP6 ADD PUSH2 0x1828 JUMP JUMPDEST SWAP2 POP POP SWAP3 SWAP2 POP POP JUMP JUMPDEST PUSH1 0x0 DUP1 PUSH1 0x40 DUP4 DUP6 SUB SLT ISZERO PUSH2 0x195B JUMPI PUSH2 0x195A PUSH2 0x1FD5 JUMP JUMPDEST JUMPDEST PUSH1 0x0 PUSH2 0x1969 DUP6 DUP3 DUP7 ADD PUSH2 0x1828 JUMP JUMPDEST SWAP3 POP POP PUSH1 0x20 PUSH2 0x197A DUP6 DUP3 DUP7 ADD PUSH2 0x1813 JUMP JUMPDEST SWAP2 POP POP SWAP3 POP SWAP3 SWAP1 POP JUMP JUMPDEST PUSH2 0x198D DUP2 PUSH2 0x1EB4 JUMP JUMPDEST DUP3 MSTORE POP POP JUMP JUMPDEST PUSH2 0x199C DUP2 PUSH2 0x1E5F JUMP JUMPDEST DUP3 MSTORE POP POP JUMP JUMPDEST PUSH2 0x19AB DUP2 PUSH2 0x1E4D JUMP JUMPDEST DUP3 MSTORE POP POP JUMP JUMPDEST PUSH2 0x19BA DUP2 PUSH2 0x1E71 JUMP JUMPDEST DUP3 MSTORE POP POP JUMP JUMPDEST PUSH1 0x0 PUSH2 0x19CD PUSH1 0xE DUP4 PUSH2 0x1CE6 JUMP JUMPDEST SWAP2 POP PUSH2 0x19D8 DUP3 PUSH2 0x1FE7 JUMP JUMPDEST PUSH1 0x20 DUP3 ADD SWAP1 POP SWAP2 SWAP1 POP JUMP JUMPDEST PUSH1 0x0 PUSH2 0x19F0 PUSH1 0x0 DUP4 PUSH2 0x1CDB JUMP JUMPDEST SWAP2 POP PUSH2 0x19FB DUP3 PUSH2 0x2010 JUMP JUMPDEST PUSH1 0x0 DUP3 ADD SWAP1 POP SWAP2 SWAP1 POP JUMP JUMPDEST PUSH1 0x0 PUSH2 0x1A13 PUSH1 0x23 DUP4 PUSH2 0x1CE6 JUMP JUMPDEST SWAP2 POP PUSH2 0x1A1E DUP3 PUSH2 0x2013 JUMP JUMPDEST PUSH1 0x40 DUP3 ADD SWAP1 POP SWAP2 SWAP1 POP JUMP JUMPDEST PUSH1 0x0 PUSH2 0x1A36 PUSH1 0x28 DUP4 PUSH2 0x1CE6 JUMP JUMPDEST SWAP2 POP PUSH2 0x1A41 DUP3 PUSH2 0x2062 JUMP JUMPDEST PUSH1 0x40 DUP3 ADD SWAP1 POP SWAP2 SWAP1 POP JUMP JUMPDEST PUSH1 0x0 PUSH2 0x1A59 PUSH1 0xC DUP4 PUSH2 0x1CE6 JUMP JUMPDEST SWAP2 POP PUSH2 0x1A64 DUP3 PUSH2 0x20B1 JUMP JUMPDEST PUSH1 0x20 DUP3 ADD SWAP1 POP SWAP2 SWAP1 POP JUMP JUMPDEST PUSH1 0x40 DUP3 ADD PUSH1 0x0 DUP1 DUP4 ADD SLOAD SWAP1 POP PUSH2 0x1A84 DUP2 PUSH2 0x1EEA JUMP JUMPDEST PUSH2 0x1A91 PUSH1 0x0 DUP7 ADD DUP3 PUSH2 0x1AB6 JUMP JUMPDEST POP PUSH1 0x1 DUP4 ADD SLOAD SWAP1 POP PUSH2 0x1AA2 DUP2 PUSH2 0x1EEA JUMP JUMPDEST PUSH2 0x1AAF PUSH1 0x20 DUP7 ADD DUP3 PUSH2 0x1AB6 JUMP JUMPDEST POP POP POP POP POP JUMP JUMPDEST PUSH2 0x1ABF DUP2 PUSH2 0x1E9D JUMP JUMPDEST DUP3 MSTORE POP POP JUMP JUMPDEST PUSH2 0x1ACE DUP2 PUSH2 0x1E9D JUMP JUMPDEST DUP3 MSTORE POP POP JUMP JUMPDEST PUSH2 0x1ADD DUP2 PUSH2 0x1EA7 JUMP JUMPDEST DUP3 MSTORE POP POP JUMP JUMPDEST PUSH1 0x0 PUSH2 0x1AEE DUP3 PUSH2 0x19E3 JUMP JUMPDEST SWAP2 POP DUP2 SWAP1 POP SWAP2 SWAP1 POP JUMP JUMPDEST PUSH1 0x0 PUSH1 0x20 DUP3 ADD SWAP1 POP PUSH2 0x1B0D PUSH1 0x0 DUP4 ADD DUP5 PUSH2 0x19A2 JUMP JUMPDEST SWAP3 SWAP2 POP POP JUMP JUMPDEST PUSH1 0x0 PUSH1 0x20 DUP3 ADD SWAP1 POP PUSH2 0x1B28 PUSH1 0x0 DUP4 ADD DUP5 PUSH2 0x19B1 JUMP JUMPDEST SWAP3 SWAP2 POP POP JUMP JUMPDEST PUSH1 0x0 PUSH1 0x20 DUP3 ADD SWAP1 POP DUP2 DUP2 SUB PUSH1 0x0 DUP4 ADD MSTORE PUSH2 0x1B47 DUP2 PUSH2 0x19C0 JUMP JUMPDEST SWAP1 POP SWAP2 SWAP1 POP JUMP JUMPDEST PUSH1 0x0 PUSH1 0x20 DUP3 ADD SWAP1 POP DUP2 DUP2 SUB PUSH1 0x0 DUP4 ADD MSTORE PUSH2 0x1B67 DUP2 PUSH2 0x1A06 JUMP JUMPDEST SWAP1 POP SWAP2 SWAP1 POP JUMP JUMPDEST PUSH1 0x0 PUSH1 0x20 DUP3 ADD SWAP1 POP DUP2 DUP2 SUB PUSH1 0x0 DUP4 ADD MSTORE PUSH2 0x1B87 DUP2 PUSH2 0x1A29 JUMP JUMPDEST SWAP1 POP SWAP2 SWAP1 POP JUMP JUMPDEST PUSH1 0x0 PUSH1 0x20 DUP3 ADD SWAP1 POP DUP2 DUP2 SUB PUSH1 0x0 DUP4 ADD MSTORE PUSH2 0x1BA7 DUP2 PUSH2 0x1A4C JUMP JUMPDEST SWAP1 POP SWAP2 SWAP1 POP JUMP JUMPDEST PUSH1 0x0 PUSH1 0x40 DUP3 ADD SWAP1 POP PUSH2 0x1BC3 PUSH1 0x0 DUP4 ADD DUP5 PUSH2 0x1A6F JUMP JUMPDEST SWAP3 SWAP2 POP POP JUMP JUMPDEST PUSH1 0x0 PUSH1 0x80 DUP3 ADD SWAP1 POP PUSH2 0x1BDE PUSH1 0x0 DUP4 ADD DUP7 PUSH2 0x1A6F JUMP JUMPDEST PUSH2 0x1BEB PUSH1 0x40 DUP4 ADD DUP6 PUSH2 0x1984 JUMP JUMPDEST PUSH2 0x1BF8 PUSH1 0x60 DUP4 ADD DUP5 PUSH2 0x19B1 JUMP JUMPDEST SWAP5 SWAP4 POP POP POP POP JUMP JUMPDEST PUSH1 0x0 PUSH1 0xA0 DUP3 ADD SWAP1 POP PUSH2 0x1C15 PUSH1 0x0 DUP4 ADD DUP8 PUSH2 0x1A6F JUMP JUMPDEST PUSH2 0x1C22 PUSH1 0x40 DUP4 ADD DUP7 PUSH2 0x1AC5 JUMP JUMPDEST PUSH2 0x1C2F PUSH1 0x60 DUP4 ADD DUP6 PUSH2 0x1AC5 JUMP JUMPDEST PUSH2 0x1C3C PUSH1 0x80 DUP4 ADD DUP5 PUSH2 0x1AC5 JUMP JUMPDEST SWAP6 SWAP5 POP POP POP POP POP JUMP JUMPDEST PUSH1 0x0 PUSH1 0x20 DUP3 ADD SWAP1 POP PUSH2 0x1C5A PUSH1 0x0 DUP4 ADD DUP5 PUSH2 0x1AC5 JUMP JUMPDEST SWAP3 SWAP2 POP POP JUMP JUMPDEST PUSH1 0x0 PUSH1 0x60 DUP3 ADD SWAP1 POP PUSH2 0x1C75 PUSH1 0x0 DUP4 ADD DUP7 PUSH2 0x1AC5 JUMP JUMPDEST PUSH2 0x1C82 PUSH1 0x20 DUP4 ADD DUP6 PUSH2 0x1993 JUMP JUMPDEST PUSH2 0x1C8F PUSH1 0x40 DUP4 ADD DUP5 PUSH2 0x1AC5 JUMP JUMPDEST SWAP5 SWAP4 POP POP POP POP JUMP JUMPDEST PUSH1 0x0 PUSH1 0x40 DUP3 ADD SWAP1 POP PUSH2 0x1CAC PUSH1 0x0 DUP4 ADD DUP6 PUSH2 0x1AC5 JUMP JUMPDEST PUSH2 0x1CB9 PUSH1 0x20 DUP4 ADD DUP5 PUSH2 0x1AC5 JUMP JUMPDEST SWAP4 SWAP3 POP POP POP JUMP JUMPDEST PUSH1 0x0 PUSH1 0x20 DUP3 ADD SWAP1 POP PUSH2 0x1CD5 PUSH1 0x0 DUP4 ADD DUP5 PUSH2 0x1AD4 JUMP JUMPDEST SWAP3 SWAP2 POP POP JUMP JUMPDEST PUSH1 0x0 DUP2 SWAP1 POP SWAP3 SWAP2 POP POP JUMP JUMPDEST PUSH1 0x0 DUP3 DUP3 MSTORE PUSH1 0x20 DUP3 ADD SWAP1 POP SWAP3 SWAP2 POP POP JUMP JUMPDEST PUSH1 0x0 PUSH2 0x1D02 DUP3 PUSH2 0x1E9D JUMP JUMPDEST SWAP2 POP PUSH2 0x1D0D DUP4 PUSH2 0x1E9D JUMP JUMPDEST SWAP3 POP DUP3 PUSH32 0xFFFFFFFFFFFFFFFFFFFFFFFFFFFFFFFFFFFFFFFFFFFFFFFFFFFFFFFFFFFFFFFF SUB DUP3 GT ISZERO PUSH2 0x1D42 JUMPI PUSH2 0x1D41 PUSH2 0x1F77 JUMP JUMPDEST JUMPDEST DUP3 DUP3 ADD SWAP1 POP SWAP3 SWAP2 POP POP JUMP JUMPDEST PUSH1 0x0 PUSH2 0x1D58 DUP3 PUSH2 0x1EA7 JUMP JUMPDEST SWAP2 POP PUSH2 0x1D63 DUP4 PUSH2 0x1EA7 JUMP JUMPDEST SWAP3 POP DUP3 PUSH1 0xFF SUB DUP3 GT ISZERO PUSH2 0x1D79 JUMPI PUSH2 0x1D78 PUSH2 0x1F77 JUMP JUMPDEST JUMPDEST DUP3 DUP3 ADD SWAP1 POP SWAP3 SWAP2 POP POP JUMP JUMPDEST PUSH1 0x0 PUSH2 0x1D8F DUP3 PUSH2 0x1E9D JUMP JUMPDEST SWAP2 POP PUSH2 0x1D9A DUP4 PUSH2 0x1E9D JUMP JUMPDEST SWAP3 POP DUP3 PUSH2 0x1DAA JUMPI PUSH2 0x1DA9 PUSH2 0x1FA6 JUMP JUMPDEST JUMPDEST DUP3 DUP3 DIV SWAP1 POP SWAP3 SWAP2 POP POP JUMP JUMPDEST PUSH1 0x0 PUSH2 0x1DC0 DUP3 PUSH2 0x1E9D JUMP JUMPDEST SWAP2 POP PUSH2 0x1DCB DUP4 PUSH2 0x1E9D JUMP JUMPDEST SWAP3 POP DUP2 PUSH32 0xFFFFFFFFFFFFFFFFFFFFFFFFFFFFFFFFFFFFFFFFFFFFFFFFFFFFFFFFFFFFFFFF DIV DUP4 GT DUP3 ISZERO ISZERO AND ISZERO PUSH2 0x1E04 JUMPI PUSH2 0x1E03 PUSH2 0x1F77 JUMP JUMPDEST JUMPDEST DUP3 DUP3 MUL SWAP1 POP SWAP3 SWAP2 POP POP JUMP JUMPDEST PUSH1 0x0 PUSH2 0x1E1A DUP3 PUSH2 0x1E9D JUMP JUMPDEST SWAP2 POP PUSH2 0x1E25 DUP4 PUSH2 0x1E9D JUMP JUMPDEST SWAP3 POP DUP3 DUP3 LT ISZERO PUSH2 0x1E38 JUMPI PUSH2 0x1E37 PUSH2 0x1F77 JUMP JUMPDEST JUMPDEST DUP3 DUP3 SUB SWAP1 POP SWAP3 SWAP2 POP POP JUMP JUMPDEST PUSH1 0x0 DUP2 SWAP1 POP SWAP2 SWAP1 POP JUMP JUMPDEST PUSH1 0x0 PUSH2 0x1E58 DUP3 PUSH2 0x1E7D JUMP JUMPDEST SWAP1 POP SWAP2 SWAP1 POP JUMP JUMPDEST PUSH1 0x0 PUSH2 0x1E6A DUP3 PUSH2 0x1E7D JUMP JUMPDEST SWAP1 POP SWAP2 SWAP1 POP JUMP JUMPDEST PUSH1 0x0 DUP2 ISZERO ISZERO SWAP1 POP SWAP2 SWAP1 POP JUMP JUMPDEST PUSH1 0x0 PUSH20 0xFFFFFFFFFFFFFFFFFFFFFFFFFFFFFFFFFFFFFFFF DUP3 AND SWAP1 POP SWAP2 SWAP1 POP JUMP JUMPDEST PUSH1 0x0 DUP2 SWAP1 POP SWAP2 SWAP1 POP JUMP JUMPDEST PUSH1 0x0 PUSH1 0xFF DUP3 AND SWAP1 POP SWAP2 SWAP1 POP JUMP JUMPDEST PUSH1 0x0 PUSH2 0x1EBF DUP3 PUSH2 0x1EC6 JUMP JUMPDEST SWAP1 POP SWAP2 SWAP1 POP JUMP JUMPDEST PUSH1 0x0 PUSH2 0x1ED1 DUP3 PUSH2 0x1ED8 JUMP JUMPDEST SWAP1 POP SWAP2 SWAP1 POP JUMP JUMPDEST PUSH1 0x0 PUSH2 0x1EE3 DUP3 PUSH2 0x1E7D JUMP JUMPDEST SWAP1 POP SWAP2 SWAP1 POP JUMP JUMPDEST PUSH1 0x0 PUSH2 0x1EFD PUSH2 0x1EF8 DUP4 PUSH2 0x1FDA JUMP JUMPDEST PUSH2 0x1E43 JUMP JUMPDEST SWAP1 POP SWAP2 SWAP1 POP JUMP JUMPDEST PUSH1 0x0 PUSH2 0x1F0F DUP3 PUSH2 0x1E9D JUMP JUMPDEST SWAP2 POP PUSH32 0xFFFFFFFFFFFFFFFFFFFFFFFFFFFFFFFFFFFFFFFFFFFFFFFFFFFFFFFFFFFFFFFF DUP3 EQ ISZERO PUSH2 0x1F42 JUMPI PUSH2 0x1F41 PUSH2 0x1F77 JUMP JUMPDEST JUMPDEST PUSH1 0x1 DUP3 ADD SWAP1 POP SWAP2 SWAP1 POP JUMP JUMPDEST PUSH1 0x0 PUSH2 0x1F58 DUP3 PUSH2 0x1EA7 JUMP JUMPDEST SWAP2 POP PUSH1 0xFF DUP3 EQ ISZERO PUSH2 0x1F6C JUMPI PUSH2 0x1F6B PUSH2 0x1F77 JUMP JUMPDEST JUMPDEST PUSH1 0x1 DUP3 ADD SWAP1 POP SWAP2 SWAP1 POP JUMP JUMPDEST PUSH32 0x4E487B7100000000000000000000000000000000000000000000000000000000 PUSH1 0x0 MSTORE PUSH1 0x11 PUSH1 0x4 MSTORE PUSH1 0x24 PUSH1 0x0 REVERT JUMPDEST PUSH32 0x4E487B7100000000000000000000000000000000000000000000000000000000 PUSH1 0x0 MSTORE PUSH1 0x12 PUSH1 0x4 MSTORE PUSH1 0x24 PUSH1 0x0 REVERT JUMPDEST PUSH1 0x0 DUP1 REVERT JUMPDEST PUSH1 0x0 DUP2 PUSH1 0x0 SHR SWAP1 POP SWAP2 SWAP1 POP JUMP JUMPDEST PUSH32 0x47616D65206E6F7420666F756E64000000000000000000000000000000000000 PUSH1 0x0 DUP3 ADD MSTORE POP JUMP JUMPDEST POP JUMP JUMPDEST PUSH32 0x496E73756666696369656E7420616D6F756E74206F6620636F6E747269627574 PUSH1 0x0 DUP3 ADD MSTORE PUSH32 0x696F6E0000000000000000000000000000000000000000000000000000000000 PUSH1 0x20 DUP3 ADD MSTORE POP JUMP JUMPDEST PUSH32 0x466F72207265676974657220696E2067616D6520796F75206E65656420706179 PUSH1 0x0 DUP3 ADD MSTORE PUSH32 0x2031206574686572000000000000000000000000000000000000000000000000 PUSH1 0x20 DUP3 ADD MSTORE POP JUMP JUMPDEST PUSH32 0x4E6F20636F6E7472616374730000000000000000000000000000000000000000 PUSH1 0x0 DUP3 ADD MSTORE POP JUMP JUMPDEST PUSH2 0x20E3 DUP2 PUSH2 0x1E4D JUMP JUMPDEST DUP2 EQ PUSH2 0x20EE JUMPI PUSH1 0x0 DUP1 REVERT JUMPDEST POP JUMP JUMPDEST PUSH2 0x20FA DUP2 PUSH2 0x1E9D JUMP JUMPDEST DUP2 EQ PUSH2 0x2105 JUMPI PUSH1 0x0 DUP1 REVERT JUMPDEST POP JUMP JUMPDEST PUSH2 0x2111 DUP2 PUSH2 0x1EA7 JUMP JUMPDEST DUP2 EQ PUSH2 0x211C JUMPI PUSH1 0x0 DUP1 REVERT JUMPDEST POP JUMP INVALID LOG2 PUSH5 0x6970667358 0x22 SLT KECCAK256 0x2E 0xC2 0xF DUP13 0xC CALLDATALOAD MSIZE ISZERO CREATE2 0xB7 PUSH28 0x19989C11B9B2438229E1BB3170E1A84E83ED0C78C964736F6C634300 ADDMOD SMOD STOP CALLER "
				},
				"gasEstimates": {
					"creation": {
						"codeDepositCost": "1706600",
						"executionCost": "infinite",
						"totalCost": "infinite"
					},
					"external": {
						"": "infinite",
						"addGameLevel(uint256,uint256)": "infinite",
						"currentGameIdIndex()": "2515",
						"currentUserIndex(uint8)": "2793",
						"getUserBalance(address)": "3346",
						"hasAccess(address)": "2925",
						"joinToGame(uint8)": "infinite",
						"levels(uint8)": "infinite",
						"pools(uint8,uint256)": "infinite",
						"registerUserToGame(uint256)": "infinite",
						"registeredUsers(address)": "infinite",
						"userGames(address,uint8)": "3138",
						"userPayments(address,uint8)": "3144",
						"usersId(uint256)": "2905"
					},
					"internal": {
						"_fallback(address,uint256)": "infinite",
						"_joinToGame(uint8,address,uint256)": "infinite"
					}
				},
				"methodIdentifiers": {
					"addGameLevel(uint256,uint256)": "7b0d5efa",
					"currentGameIdIndex()": "ad39f0a3",
					"currentUserIndex(uint8)": "9b0b0ae3",
					"getUserBalance(address)": "47734892",
					"hasAccess(address)": "95a078e8",
					"joinToGame(uint8)": "2e8aab9b",
					"levels(uint8)": "906cbf57",
					"pools(uint8,uint256)": "78a32e21",
					"registerUserToGame(uint256)": "0173c05b",
					"registeredUsers(address)": "0e50cee5",
					"userGames(address,uint8)": "2a648c89",
					"userPayments(address,uint8)": "f1060006",
					"usersId(uint256)": "bd233b91"
				}
			},
			"storageLayout": {
				"storage": [
					{
						"astId": 3,
						"contract": "cobraBot/Contract.sol:Pyramid",
						"label": "currentUserIdIndex",
						"offset": 0,
						"slot": "0",
						"type": "t_uint256"
					},
					{
						"astId": 5,
						"contract": "cobraBot/Contract.sol:Pyramid",
						"label": "currentGameIdIndex",
						"offset": 0,
						"slot": "1",
						"type": "t_uint8"
					},
					{
						"astId": 7,
						"contract": "cobraBot/Contract.sol:Pyramid",
						"label": "contractOwner",
						"offset": 1,
						"slot": "1",
						"type": "t_address"
					},
					{
						"astId": 39,
						"contract": "cobraBot/Contract.sol:Pyramid",
						"label": "levels",
						"offset": 0,
						"slot": "2",
						"type": "t_mapping(t_uint8,t_struct(Game)34_storage)"
					},
					{
						"astId": 43,
						"contract": "cobraBot/Contract.sol:Pyramid",
						"label": "usersId",
						"offset": 0,
						"slot": "3",
						"type": "t_mapping(t_uint256,t_address)"
					},
					{
						"astId": 48,
						"contract": "cobraBot/Contract.sol:Pyramid",
						"label": "registeredUsers",
						"offset": 0,
						"slot": "4",
						"type": "t_mapping(t_address,t_struct(User)29_storage)"
					},
					{
						"astId": 52,
						"contract": "cobraBot/Contract.sol:Pyramid",
						"label": "currentUserIndex",
						"offset": 0,
						"slot": "5",
						"type": "t_mapping(t_uint8,t_uint256)"
					},
					{
						"astId": 59,
						"contract": "cobraBot/Contract.sol:Pyramid",
						"label": "pools",
						"offset": 0,
						"slot": "6",
						"type": "t_mapping(t_uint8,t_mapping(t_uint256,t_struct(User)29_storage))"
					},
					{
						"astId": 65,
						"contract": "cobraBot/Contract.sol:Pyramid",
						"label": "userPayments",
						"offset": 0,
						"slot": "7",
						"type": "t_mapping(t_address,t_mapping(t_uint8,t_uint256))"
					},
					{
						"astId": 71,
						"contract": "cobraBot/Contract.sol:Pyramid",
						"label": "userGames",
						"offset": 0,
						"slot": "8",
						"type": "t_mapping(t_address,t_mapping(t_uint8,t_bool))"
					}
				],
				"types": {
					"t_address": {
						"encoding": "inplace",
						"label": "address",
						"numberOfBytes": "20"
					},
					"t_address_payable": {
						"encoding": "inplace",
						"label": "address payable",
						"numberOfBytes": "20"
					},
					"t_bool": {
						"encoding": "inplace",
						"label": "bool",
						"numberOfBytes": "1"
					},
					"t_mapping(t_address,t_mapping(t_uint8,t_bool))": {
						"encoding": "mapping",
						"key": "t_address",
						"label": "mapping(address => mapping(uint8 => bool))",
						"numberOfBytes": "32",
						"value": "t_mapping(t_uint8,t_bool)"
					},
					"t_mapping(t_address,t_mapping(t_uint8,t_uint256))": {
						"encoding": "mapping",
						"key": "t_address",
						"label": "mapping(address => mapping(uint8 => uint256))",
						"numberOfBytes": "32",
						"value": "t_mapping(t_uint8,t_uint256)"
					},
					"t_mapping(t_address,t_struct(User)29_storage)": {
						"encoding": "mapping",
						"key": "t_address",
						"label": "mapping(address => struct Pyramid.User)",
						"numberOfBytes": "32",
						"value": "t_struct(User)29_storage"
					},
					"t_mapping(t_uint256,t_address)": {
						"encoding": "mapping",
						"key": "t_uint256",
						"label": "mapping(uint256 => address)",
						"numberOfBytes": "32",
						"value": "t_address"
					},
					"t_mapping(t_uint256,t_struct(User)29_storage)": {
						"encoding": "mapping",
						"key": "t_uint256",
						"label": "mapping(uint256 => struct Pyramid.User)",
						"numberOfBytes": "32",
						"value": "t_struct(User)29_storage"
					},
					"t_mapping(t_uint8,t_bool)": {
						"encoding": "mapping",
						"key": "t_uint8",
						"label": "mapping(uint8 => bool)",
						"numberOfBytes": "32",
						"value": "t_bool"
					},
					"t_mapping(t_uint8,t_mapping(t_uint256,t_struct(User)29_storage))": {
						"encoding": "mapping",
						"key": "t_uint8",
						"label": "mapping(uint8 => mapping(uint256 => struct Pyramid.User))",
						"numberOfBytes": "32",
						"value": "t_mapping(t_uint256,t_struct(User)29_storage)"
					},
					"t_mapping(t_uint8,t_struct(Game)34_storage)": {
						"encoding": "mapping",
						"key": "t_uint8",
						"label": "mapping(uint8 => struct Pyramid.Game)",
						"numberOfBytes": "32",
						"value": "t_struct(Game)34_storage"
					},
					"t_mapping(t_uint8,t_uint256)": {
						"encoding": "mapping",
						"key": "t_uint8",
						"label": "mapping(uint8 => uint256)",
						"numberOfBytes": "32",
						"value": "t_uint256"
					},
					"t_struct(Game)34_storage": {
						"encoding": "inplace",
						"label": "struct Pyramid.Game",
						"members": [
							{
								"astId": 31,
								"contract": "cobraBot/Contract.sol:Pyramid",
								"label": "circleCount",
								"offset": 0,
								"slot": "0",
								"type": "t_uint256"
							},
							{
								"astId": 33,
								"contract": "cobraBot/Contract.sol:Pyramid",
								"label": "amountToPay",
								"offset": 0,
								"slot": "1",
								"type": "t_uint256"
							}
						],
						"numberOfBytes": "64"
					},
					"t_struct(User)29_storage": {
						"encoding": "inplace",
						"label": "struct Pyramid.User",
						"members": [
							{
								"astId": 24,
								"contract": "cobraBot/Contract.sol:Pyramid",
								"label": "userId",
								"offset": 0,
								"slot": "0",
								"type": "t_uint256"
							},
							{
								"astId": 26,
								"contract": "cobraBot/Contract.sol:Pyramid",
								"label": "userAddress",
								"offset": 0,
								"slot": "1",
								"type": "t_address_payable"
							},
							{
								"astId": 28,
								"contract": "cobraBot/Contract.sol:Pyramid",
								"label": "invitedId",
								"offset": 0,
								"slot": "2",
								"type": "t_uint256"
							}
						],
						"numberOfBytes": "96"
					},
					"t_uint256": {
						"encoding": "inplace",
						"label": "uint256",
						"numberOfBytes": "32"
					},
					"t_uint8": {
						"encoding": "inplace",
						"label": "uint8",
						"numberOfBytes": "1"
					}
				}
			},
			"userdoc": {
				"kind": "user",
				"methods": {},
				"version": 1
			}
		}
	}
}