{
	"Contract.sol": {
		"Pyramid": {
			"abi": [
				{
					"inputs": [],
					"stateMutability": "nonpayable",
					"type": "constructor"
				},
				{
					"anonymous": false,
					"inputs": [
						{
							"indexed": false,
							"internalType": "uint256",
							"name": "amountToPay",
							"type": "uint256"
						},
						{
							"indexed": false,
							"internalType": "address",
							"name": "account",
							"type": "address"
						},
						{
							"indexed": false,
							"internalType": "bool",
							"name": "success",
							"type": "bool"
						}
					],
					"name": "GamePaymentEvent",
					"type": "event"
				},
				{
					"anonymous": false,
					"inputs": [
						{
							"indexed": false,
							"internalType": "uint256",
							"name": "amountToPay",
							"type": "uint256"
						}
					],
					"name": "NewGame",
					"type": "event"
				},
				{
					"anonymous": false,
					"inputs": [
						{
							"indexed": false,
							"internalType": "uint256",
							"name": "amountToPay",
							"type": "uint256"
						},
						{
							"indexed": false,
							"internalType": "uint256",
							"name": "from",
							"type": "uint256"
						},
						{
							"indexed": false,
							"internalType": "uint256",
							"name": "to",
							"type": "uint256"
						},
						{
							"indexed": false,
							"internalType": "uint256",
							"name": "amount",
							"type": "uint256"
						}
					],
					"name": "ReferalPaymentEvent",
					"type": "event"
				},
				{
					"stateMutability": "payable",
					"type": "fallback"
				},
				{
					"inputs": [
						{
							"internalType": "uint256",
							"name": "amountToPay",
							"type": "uint256"
						}
					],
					"name": "addGameLevel",
					"outputs": [],
					"stateMutability": "nonpayable",
					"type": "function"
				},
				{
					"inputs": [],
					"name": "currentGameIdIndex",
					"outputs": [
						{
							"internalType": "uint8",
							"name": "",
							"type": "uint8"
						}
					],
					"stateMutability": "view",
					"type": "function"
				},
				{
					"inputs": [],
					"name": "currentUserIdIndex",
					"outputs": [
						{
							"internalType": "uint256",
							"name": "",
							"type": "uint256"
						}
					],
					"stateMutability": "view",
					"type": "function"
				},
				{
					"inputs": [
						{
							"internalType": "uint8",
							"name": "",
							"type": "uint8"
						}
					],
					"name": "currentUserIndex",
					"outputs": [
						{
							"internalType": "uint256",
							"name": "",
							"type": "uint256"
						}
					],
					"stateMutability": "view",
					"type": "function"
				},
				{
					"inputs": [
						{
							"internalType": "address",
							"name": "userAddress",
							"type": "address"
						}
					],
					"name": "getUserBalance",
					"outputs": [
						{
							"internalType": "uint256",
							"name": "",
							"type": "uint256"
						}
					],
					"stateMutability": "view",
					"type": "function"
				},
				{
					"inputs": [
						{
							"internalType": "address",
							"name": "userAdress",
							"type": "address"
						}
					],
					"name": "hasAccess",
					"outputs": [
						{
							"internalType": "bool",
							"name": "",
							"type": "bool"
						}
					],
					"stateMutability": "view",
					"type": "function"
				},
				{
					"inputs": [
						{
							"internalType": "uint8",
							"name": "gameId",
							"type": "uint8"
						}
					],
					"name": "joinToGame",
					"outputs": [],
					"stateMutability": "payable",
					"type": "function"
				},
				{
					"inputs": [
						{
							"internalType": "uint8",
							"name": "",
							"type": "uint8"
						}
					],
					"name": "levels",
					"outputs": [
						{
							"internalType": "uint256",
							"name": "amountToPay",
							"type": "uint256"
						}
					],
					"stateMutability": "view",
					"type": "function"
				},
				{
					"inputs": [
						{
							"internalType": "uint8",
							"name": "",
							"type": "uint8"
						},
						{
							"internalType": "uint256",
							"name": "",
							"type": "uint256"
						}
					],
					"name": "pools",
					"outputs": [
						{
							"internalType": "uint256",
							"name": "userId",
							"type": "uint256"
						},
						{
							"internalType": "address payable",
							"name": "userAddress",
							"type": "address"
						},
						{
							"internalType": "uint256",
							"name": "invitedId",
							"type": "uint256"
						}
					],
					"stateMutability": "view",
					"type": "function"
				},
				{
					"inputs": [
						{
							"internalType": "uint256",
							"name": "inviterId",
							"type": "uint256"
						}
					],
					"name": "registerUserToGame",
					"outputs": [],
					"stateMutability": "payable",
					"type": "function"
				},
				{
					"inputs": [
						{
							"internalType": "address",
							"name": "",
							"type": "address"
						}
					],
					"name": "registeredUsers",
					"outputs": [
						{
							"internalType": "uint256",
							"name": "userId",
							"type": "uint256"
						},
						{
							"internalType": "address payable",
							"name": "userAddress",
							"type": "address"
						},
						{
							"internalType": "uint256",
							"name": "invitedId",
							"type": "uint256"
						}
					],
					"stateMutability": "view",
					"type": "function"
				},
				{
					"inputs": [],
					"name": "test",
					"outputs": [],
					"stateMutability": "nonpayable",
					"type": "function"
				},
				{
					"inputs": [
						{
							"internalType": "address",
							"name": "",
							"type": "address"
						},
						{
							"internalType": "uint8",
							"name": "",
							"type": "uint8"
						}
					],
					"name": "userGames",
					"outputs": [
						{
							"internalType": "bool",
							"name": "",
							"type": "bool"
						}
					],
					"stateMutability": "view",
					"type": "function"
				},
				{
					"inputs": [
						{
							"internalType": "address",
							"name": "",
							"type": "address"
						},
						{
							"internalType": "uint8",
							"name": "",
							"type": "uint8"
						}
					],
					"name": "userPayments",
					"outputs": [
						{
							"internalType": "uint256",
							"name": "",
							"type": "uint256"
						}
					],
					"stateMutability": "view",
					"type": "function"
				},
				{
					"inputs": [
						{
							"internalType": "uint256",
							"name": "",
							"type": "uint256"
						}
					],
					"name": "usersId",
					"outputs": [
						{
							"internalType": "address",
							"name": "",
							"type": "address"
						}
					],
					"stateMutability": "view",
					"type": "function"
				},
				{
					"stateMutability": "payable",
					"type": "receive"
				}
			],
			"devdoc": {
				"kind": "dev",
				"methods": {},
				"version": 1
			},
			"evm": {
				"assembly": "    /* \"Contract.sol\":62:9288  contract Pyramid {\r... */\n  mstore(0x40, 0x80)\n    /* \"Contract.sol\":2423:2682  constructor () {\r... */\n  callvalue\n  dup1\n  iszero\n  tag_1\n  jumpi\n  0x00\n  dup1\n  revert\ntag_1:\n  pop\n    /* \"Contract.sol\":2465:2475  msg.sender */\n  caller\n    /* \"Contract.sol\":2449:2462  contractOwner */\n  0x01\n  dup1\n    /* \"Contract.sol\":2449:2475  contractOwner = msg.sender */\n  0x0100\n  exp\n  dup2\n  sload\n  dup2\n  0xffffffffffffffffffffffffffffffffffffffff\n  mul\n  not\n  and\n  swap1\n  dup4\n  0xffffffffffffffffffffffffffffffffffffffff\n  and\n  mul\n  or\n  swap1\n  sstore\n  pop\n    /* \"Contract.sol\":2499:2512  contractOwner */\n  0x01\n  dup1\n  sload\n  swap1\n  0x0100\n  exp\n  swap1\n  div\n  0xffffffffffffffffffffffffffffffffffffffff\n  and\n    /* \"Contract.sol\":2486:2493  usersId */\n  0x03\n    /* \"Contract.sol\":2486:2496  usersId[0] */\n  0x00\n    /* \"Contract.sol\":2494:2495  0 */\n  dup1\n    /* \"Contract.sol\":2486:2496  usersId[0] */\n  dup2\n  mstore\n  0x20\n  add\n  swap1\n  dup2\n  mstore\n  0x20\n  add\n  0x00\n  keccak256\n  0x00\n    /* \"Contract.sol\":2486:2512  usersId[0] = contractOwner */\n  0x0100\n  exp\n  dup2\n  sload\n  dup2\n  0xffffffffffffffffffffffffffffffffffffffff\n  mul\n  not\n  and\n  swap1\n  dup4\n  0xffffffffffffffffffffffffffffffffffffffff\n  and\n  mul\n  or\n  swap1\n  sstore\n  pop\n    /* \"Contract.sol\":2556:2590  User(0, payable(contractOwner), 0) */\n  mload(0x40)\n  dup1\n  0x60\n  add\n  0x40\n  mstore\n  dup1\n    /* \"Contract.sol\":2561:2562  0 */\n  0x00\n    /* \"Contract.sol\":2556:2590  User(0, payable(contractOwner), 0) */\n  dup2\n  mstore\n  0x20\n  add\n    /* \"Contract.sol\":2572:2585  contractOwner */\n  0x01\n  dup1\n  sload\n  swap1\n  0x0100\n  exp\n  swap1\n  div\n  0xffffffffffffffffffffffffffffffffffffffff\n  and\n    /* \"Contract.sol\":2556:2590  User(0, payable(contractOwner), 0) */\n  0xffffffffffffffffffffffffffffffffffffffff\n  and\n  dup2\n  mstore\n  0x20\n  add\n    /* \"Contract.sol\":2588:2589  0 */\n  0x00\n    /* \"Contract.sol\":2556:2590  User(0, payable(contractOwner), 0) */\n  dup2\n  mstore\n  pop\n    /* \"Contract.sol\":2523:2538  registeredUsers */\n  0x04\n    /* \"Contract.sol\":2523:2553  registeredUsers[contractOwner] */\n  0x00\n    /* \"Contract.sol\":2539:2552  contractOwner */\n  0x01\n  dup1\n  sload\n  swap1\n  0x0100\n  exp\n  swap1\n  div\n  0xffffffffffffffffffffffffffffffffffffffff\n  and\n    /* \"Contract.sol\":2523:2553  registeredUsers[contractOwner] */\n  0xffffffffffffffffffffffffffffffffffffffff\n  and\n  0xffffffffffffffffffffffffffffffffffffffff\n  and\n  dup2\n  mstore\n  0x20\n  add\n  swap1\n  dup2\n  mstore\n  0x20\n  add\n  0x00\n  keccak256\n    /* \"Contract.sol\":2523:2590  registeredUsers[contractOwner] = User(0, payable(contractOwner), 0) */\n  0x00\n  dup3\n  add\n  mload\n  dup2\n  0x00\n  add\n  sstore\n  0x20\n  dup3\n  add\n  mload\n  dup2\n  0x01\n  add\n  exp(0x0100, 0x00)\n  dup2\n  sload\n  dup2\n  0xffffffffffffffffffffffffffffffffffffffff\n  mul\n  not\n  and\n  swap1\n  dup4\n  0xffffffffffffffffffffffffffffffffffffffff\n  and\n  mul\n  or\n  swap1\n  sstore\n  pop\n  0x40\n  dup3\n  add\n  mload\n  dup2\n  0x02\n  add\n  sstore\n  swap1\n  pop\n  pop\n    /* \"Contract.sol\":2622:2623  1 */\n  0x01\n    /* \"Contract.sol\":2601:2619  currentUserIdIndex */\n  0x00\n    /* \"Contract.sol\":2601:2623  currentUserIdIndex = 1 */\n  dup2\n  swap1\n  sstore\n  pop\n    /* \"Contract.sol\":2636:2674  addGameLevel({ amountToPay: 1 ether }) */\n  tag_4\n    /* \"Contract.sol\":2664:2671  1 ether */\n  0x0de0b6b3a7640000\n    /* \"Contract.sol\":2636:2648  addGameLevel */\n  shl(0x20, tag_5)\n    /* \"Contract.sol\":2636:2674  addGameLevel({ amountToPay: 1 ether }) */\n  0x20\n  shr\n  jump\t// in\ntag_4:\n    /* \"Contract.sol\":62:9288  contract Pyramid {\r... */\n  jump(tag_6)\n    /* \"Contract.sol\":4461:4805  function addGameLevel(uint256 amountToPay) public onlyOwner {\r... */\ntag_5:\n    /* \"Contract.sol\":2373:2394  hasAccess(msg.sender) */\n  tag_8\n    /* \"Contract.sol\":2383:2393  msg.sender */\n  caller\n    /* \"Contract.sol\":2373:2382  hasAccess */\n  shl(0x20, tag_9)\n    /* \"Contract.sol\":2373:2394  hasAccess(msg.sender) */\n  0x20\n  shr\n  jump\t// in\ntag_8:\n    /* \"Contract.sol\":2365:2395  require(hasAccess(msg.sender)) */\n  tag_10\n  jumpi\n  0x00\n  dup1\n  revert\ntag_10:\n    /* \"Contract.sol\":4666:4700  Game({ amountToPay: amountToPay }) */\n  mload(0x40)\n  dup1\n  0x20\n  add\n  0x40\n  mstore\n  dup1\n    /* \"Contract.sol\":4686:4697  amountToPay */\n  dup3\n    /* \"Contract.sol\":4666:4700  Game({ amountToPay: amountToPay }) */\n  dup2\n  mstore\n  pop\n    /* \"Contract.sol\":4637:4643  levels */\n  0x02\n    /* \"Contract.sol\":4637:4663  levels[currentGameIdIndex] */\n  0x00\n    /* \"Contract.sol\":4644:4662  currentGameIdIndex */\n  0x01\n  0x00\n  swap1\n  sload\n  swap1\n  0x0100\n  exp\n  swap1\n  div\n  0xff\n  and\n    /* \"Contract.sol\":4637:4663  levels[currentGameIdIndex] */\n  0xff\n  and\n  0xff\n  and\n  dup2\n  mstore\n  0x20\n  add\n  swap1\n  dup2\n  mstore\n  0x20\n  add\n  0x00\n  keccak256\n    /* \"Contract.sol\":4637:4700  levels[currentGameIdIndex] = Game({ amountToPay: amountToPay }) */\n  0x00\n  dup3\n  add\n  mload\n  dup2\n  0x00\n  add\n  sstore\n  swap1\n  pop\n  pop\n    /* \"Contract.sol\":4733:4734  1 */\n  0x01\n    /* \"Contract.sol\":4711:4729  currentGameIdIndex */\n  dup1\n  0x00\n    /* \"Contract.sol\":4711:4734  currentGameIdIndex += 1 */\n  dup3\n  dup3\n  dup3\n  swap1\n  sload\n  swap1\n  0x0100\n  exp\n  swap1\n  div\n  0xff\n  and\n  tag_12\n  swap2\n  swap1\n  tag_13\n  jump\t// in\ntag_12:\n  swap3\n  pop\n  0x0100\n  exp\n  dup2\n  sload\n  dup2\n  0xff\n  mul\n  not\n  and\n  swap1\n  dup4\n  0xff\n  and\n  mul\n  or\n  swap1\n  sstore\n  pop\n    /* \"Contract.sol\":4750:4797  NewGame(levels[currentGameIdIndex].amountToPay) */\n  0xa0b7f6f22bb4f69adc52dd16ffe2a964ab8b577be274247fa9a1547b03ce3e55\n    /* \"Contract.sol\":4758:4764  levels */\n  0x02\n    /* \"Contract.sol\":4758:4784  levels[currentGameIdIndex] */\n  0x00\n    /* \"Contract.sol\":4765:4783  currentGameIdIndex */\n  0x01\n  0x00\n  swap1\n  sload\n  swap1\n  0x0100\n  exp\n  swap1\n  div\n  0xff\n  and\n    /* \"Contract.sol\":4758:4784  levels[currentGameIdIndex] */\n  0xff\n  and\n  0xff\n  and\n  dup2\n  mstore\n  0x20\n  add\n  swap1\n  dup2\n  mstore\n  0x20\n  add\n  0x00\n  keccak256\n    /* \"Contract.sol\":4758:4796  levels[currentGameIdIndex].amountToPay */\n  0x00\n  add\n  sload\n    /* \"Contract.sol\":4750:4797  NewGame(levels[currentGameIdIndex].amountToPay) */\n  mload(0x40)\n  tag_14\n  swap2\n  swap1\n  tag_15\n  jump\t// in\ntag_14:\n  mload(0x40)\n  dup1\n  swap2\n  sub\n  swap1\n  log1\n    /* \"Contract.sol\":4461:4805  function addGameLevel(uint256 amountToPay) public onlyOwner {\r... */\n  pop\n  jump\t// out\n    /* \"Contract.sol\":4097:4326  function hasAccess(address userAdress) public view returns(bool) {\r... */\ntag_9:\n    /* \"Contract.sol\":4156:4160  bool */\n  0x00\n    /* \"Contract.sol\":4305:4318  contractOwner */\n  0x01\n  dup1\n  sload\n  swap1\n  0x0100\n  exp\n  swap1\n  div\n  0xffffffffffffffffffffffffffffffffffffffff\n  and\n    /* \"Contract.sol\":4291:4318  userAdress == contractOwner */\n  0xffffffffffffffffffffffffffffffffffffffff\n  and\n    /* \"Contract.sol\":4291:4301  userAdress */\n  dup3\n    /* \"Contract.sol\":4291:4318  userAdress == contractOwner */\n  0xffffffffffffffffffffffffffffffffffffffff\n  and\n  eq\n    /* \"Contract.sol\":4284:4318  return userAdress == contractOwner */\n  swap1\n  pop\n    /* \"Contract.sol\":4097:4326  function hasAccess(address userAdress) public view returns(bool) {\r... */\n  swap2\n  swap1\n  pop\n  jump\t// out\n    /* \"#utility.yul\":7:125   */\ntag_18:\n    /* \"#utility.yul\":94:118   */\n  tag_20\n    /* \"#utility.yul\":112:117   */\n  dup2\n    /* \"#utility.yul\":94:118   */\n  tag_21\n  jump\t// in\ntag_20:\n    /* \"#utility.yul\":89:92   */\n  dup3\n    /* \"#utility.yul\":82:119   */\n  mstore\n    /* \"#utility.yul\":7:125   */\n  pop\n  pop\n  jump\t// out\n    /* \"#utility.yul\":131:353   */\ntag_15:\n    /* \"#utility.yul\":224:228   */\n  0x00\n    /* \"#utility.yul\":262:264   */\n  0x20\n    /* \"#utility.yul\":251:260   */\n  dup3\n    /* \"#utility.yul\":247:265   */\n  add\n    /* \"#utility.yul\":239:265   */\n  swap1\n  pop\n    /* \"#utility.yul\":275:346   */\n  tag_23\n    /* \"#utility.yul\":343:344   */\n  0x00\n    /* \"#utility.yul\":332:341   */\n  dup4\n    /* \"#utility.yul\":328:345   */\n  add\n    /* \"#utility.yul\":319:325   */\n  dup5\n    /* \"#utility.yul\":275:346   */\n  tag_18\n  jump\t// in\ntag_23:\n    /* \"#utility.yul\":131:353   */\n  swap3\n  swap2\n  pop\n  pop\n  jump\t// out\n    /* \"#utility.yul\":359:596   */\ntag_13:\n    /* \"#utility.yul\":397:400   */\n  0x00\n    /* \"#utility.yul\":416:434   */\n  tag_25\n    /* \"#utility.yul\":432:433   */\n  dup3\n    /* \"#utility.yul\":416:434   */\n  tag_26\n  jump\t// in\ntag_25:\n    /* \"#utility.yul\":411:434   */\n  swap2\n  pop\n    /* \"#utility.yul\":448:466   */\n  tag_27\n    /* \"#utility.yul\":464:465   */\n  dup4\n    /* \"#utility.yul\":448:466   */\n  tag_26\n  jump\t// in\ntag_27:\n    /* \"#utility.yul\":443:466   */\n  swap3\n  pop\n    /* \"#utility.yul\":538:539   */\n  dup3\n    /* \"#utility.yul\":532:536   */\n  0xff\n    /* \"#utility.yul\":528:540   */\n  sub\n    /* \"#utility.yul\":525:526   */\n  dup3\n    /* \"#utility.yul\":522:541   */\n  gt\n    /* \"#utility.yul\":519:564   */\n  iszero\n  tag_28\n  jumpi\n    /* \"#utility.yul\":544:562   */\n  tag_29\n  tag_30\n  jump\t// in\ntag_29:\n    /* \"#utility.yul\":519:564   */\ntag_28:\n    /* \"#utility.yul\":588:589   */\n  dup3\n    /* \"#utility.yul\":585:586   */\n  dup3\n    /* \"#utility.yul\":581:590   */\n  add\n    /* \"#utility.yul\":574:590   */\n  swap1\n  pop\n    /* \"#utility.yul\":359:596   */\n  swap3\n  swap2\n  pop\n  pop\n  jump\t// out\n    /* \"#utility.yul\":602:679   */\ntag_21:\n    /* \"#utility.yul\":639:646   */\n  0x00\n    /* \"#utility.yul\":668:673   */\n  dup2\n    /* \"#utility.yul\":657:673   */\n  swap1\n  pop\n    /* \"#utility.yul\":602:679   */\n  swap2\n  swap1\n  pop\n  jump\t// out\n    /* \"#utility.yul\":685:771   */\ntag_26:\n    /* \"#utility.yul\":720:727   */\n  0x00\n    /* \"#utility.yul\":760:764   */\n  0xff\n    /* \"#utility.yul\":753:758   */\n  dup3\n    /* \"#utility.yul\":749:765   */\n  and\n    /* \"#utility.yul\":738:765   */\n  swap1\n  pop\n    /* \"#utility.yul\":685:771   */\n  swap2\n  swap1\n  pop\n  jump\t// out\n    /* \"#utility.yul\":777:957   */\ntag_30:\n    /* \"#utility.yul\":825:902   */\n  0x4e487b7100000000000000000000000000000000000000000000000000000000\n    /* \"#utility.yul\":822:823   */\n  0x00\n    /* \"#utility.yul\":815:903   */\n  mstore\n    /* \"#utility.yul\":922:926   */\n  0x11\n    /* \"#utility.yul\":919:920   */\n  0x04\n    /* \"#utility.yul\":912:927   */\n  mstore\n    /* \"#utility.yul\":946:950   */\n  0x24\n    /* \"#utility.yul\":943:944   */\n  0x00\n    /* \"#utility.yul\":936:951   */\n  revert\n    /* \"Contract.sol\":62:9288  contract Pyramid {\r... */\ntag_6:\n  dataSize(sub_0)\n  dup1\n  dataOffset(sub_0)\n  0x00\n  codecopy\n  0x00\n  return\nstop\n\nsub_0: assembly {\n        /* \"Contract.sol\":62:9288  contract Pyramid {\r... */\n      mstore(0x40, 0x80)\n      jumpi(tag_1, lt(calldatasize, 0x04))\n      shr(0xe0, calldataload(0x00))\n      dup1\n      0x906cbf57\n      gt\n      tag_18\n      jumpi\n      dup1\n      0xae9283b5\n      gt\n      tag_19\n      jumpi\n      dup1\n      0xae9283b5\n      eq\n      tag_14\n      jumpi\n      dup1\n      0xbd233b91\n      eq\n      tag_15\n      jumpi\n      dup1\n      0xf1060006\n      eq\n      tag_16\n      jumpi\n      dup1\n      0xf8a8fd6d\n      eq\n      tag_17\n      jumpi\n      jump(tag_2)\n    tag_19:\n      dup1\n      0x906cbf57\n      eq\n      tag_10\n      jumpi\n      dup1\n      0x95a078e8\n      eq\n      tag_11\n      jumpi\n      dup1\n      0x9b0b0ae3\n      eq\n      tag_12\n      jumpi\n      dup1\n      0xad39f0a3\n      eq\n      tag_13\n      jumpi\n      jump(tag_2)\n    tag_18:\n      dup1\n      0x2e8aab9b\n      gt\n      tag_20\n      jumpi\n      dup1\n      0x2e8aab9b\n      eq\n      tag_6\n      jumpi\n      dup1\n      0x47734892\n      eq\n      tag_7\n      jumpi\n      dup1\n      0x556c9095\n      eq\n      tag_8\n      jumpi\n      dup1\n      0x78a32e21\n      eq\n      tag_9\n      jumpi\n      jump(tag_2)\n    tag_20:\n      dup1\n      0x0173c05b\n      eq\n      tag_3\n      jumpi\n      dup1\n      0x0e50cee5\n      eq\n      tag_4\n      jumpi\n      dup1\n      0x2a648c89\n      eq\n      tag_5\n      jumpi\n      jump(tag_2)\n    tag_1:\n      jumpi(tag_2, calldatasize)\n        /* \"Contract.sol\":2729:2761  _fallback(msg.sender, msg.value) */\n      tag_23\n        /* \"Contract.sol\":2739:2749  msg.sender */\n      caller\n        /* \"Contract.sol\":2751:2760  msg.value */\n      callvalue\n        /* \"Contract.sol\":2729:2738  _fallback */\n      tag_24\n        /* \"Contract.sol\":2729:2761  _fallback(msg.sender, msg.value) */\n      jump\t// in\n    tag_23:\n        /* \"Contract.sol\":62:9288  contract Pyramid {\r... */\n      stop\n    tag_2:\n        /* \"Contract.sol\":2817:2849  _fallback(msg.sender, msg.value) */\n      tag_27\n        /* \"Contract.sol\":2827:2837  msg.sender */\n      caller\n        /* \"Contract.sol\":2839:2848  msg.value */\n      callvalue\n        /* \"Contract.sol\":2817:2826  _fallback */\n      tag_24\n        /* \"Contract.sol\":2817:2849  _fallback(msg.sender, msg.value) */\n      jump\t// in\n    tag_27:\n        /* \"Contract.sol\":62:9288  contract Pyramid {\r... */\n      stop\n        /* \"Contract.sol\":4813:5353  function registerUserToGame(uint256 inviterId) external payable noContractAccess {\r... */\n    tag_3:\n      tag_28\n      0x04\n      dup1\n      calldatasize\n      sub\n      dup2\n      add\n      swap1\n      tag_29\n      swap2\n      swap1\n      tag_30\n      jump\t// in\n    tag_29:\n      tag_31\n      jump\t// in\n    tag_28:\n      stop\n        /* \"Contract.sol\":996:1044  mapping (address => User) public registeredUsers */\n    tag_4:\n      callvalue\n      dup1\n      iszero\n      tag_32\n      jumpi\n      0x00\n      dup1\n      revert\n    tag_32:\n      pop\n      tag_33\n      0x04\n      dup1\n      calldatasize\n      sub\n      dup2\n      add\n      swap1\n      tag_34\n      swap2\n      swap1\n      tag_35\n      jump\t// in\n    tag_34:\n      tag_36\n      jump\t// in\n    tag_33:\n      mload(0x40)\n      tag_37\n      swap4\n      swap3\n      swap2\n      swap1\n      tag_38\n      jump\t// in\n    tag_37:\n      mload(0x40)\n      dup1\n      swap2\n      sub\n      swap1\n      return\n        /* \"Contract.sol\":1400:1461  mapping (address => mapping (uint8 => bool)) public userGames */\n    tag_5:\n      callvalue\n      dup1\n      iszero\n      tag_39\n      jumpi\n      0x00\n      dup1\n      revert\n    tag_39:\n      pop\n      tag_40\n      0x04\n      dup1\n      calldatasize\n      sub\n      dup2\n      add\n      swap1\n      tag_41\n      swap2\n      swap1\n      tag_42\n      jump\t// in\n    tag_41:\n      tag_43\n      jump\t// in\n    tag_40:\n      mload(0x40)\n      tag_44\n      swap2\n      swap1\n      tag_45\n      jump\t// in\n    tag_44:\n      mload(0x40)\n      dup1\n      swap2\n      sub\n      swap1\n      return\n        /* \"Contract.sol\":5361:5578  function joinToGame(uint8 gameId) public payable onlyRegistered {\r... */\n    tag_6:\n      tag_46\n      0x04\n      dup1\n      calldatasize\n      sub\n      dup2\n      add\n      swap1\n      tag_47\n      swap2\n      swap1\n      tag_48\n      jump\t// in\n    tag_47:\n      tag_49\n      jump\t// in\n    tag_46:\n      stop\n        /* \"Contract.sol\":4334:4453  function getUserBalance(address userAddress) public view returns(uint256) {\r... */\n    tag_7:\n      callvalue\n      dup1\n      iszero\n      tag_50\n      jumpi\n      0x00\n      dup1\n      revert\n    tag_50:\n      pop\n      tag_51\n      0x04\n      dup1\n      calldatasize\n      sub\n      dup2\n      add\n      swap1\n      tag_52\n      swap2\n      swap1\n      tag_35\n      jump\t// in\n    tag_52:\n      tag_53\n      jump\t// in\n    tag_51:\n      mload(0x40)\n      tag_54\n      swap2\n      swap1\n      tag_55\n      jump\t// in\n    tag_54:\n      mload(0x40)\n      dup1\n      swap2\n      sub\n      swap1\n      return\n        /* \"Contract.sol\":86:119  uint256 public currentUserIdIndex */\n    tag_8:\n      callvalue\n      dup1\n      iszero\n      tag_56\n      jumpi\n      0x00\n      dup1\n      revert\n    tag_56:\n      pop\n      tag_57\n      tag_58\n      jump\t// in\n    tag_57:\n      mload(0x40)\n      tag_59\n      swap2\n      swap1\n      tag_55\n      jump\t// in\n    tag_59:\n      mload(0x40)\n      dup1\n      swap2\n      sub\n      swap1\n      return\n        /* \"Contract.sol\":1188:1245  mapping (uint8 => mapping (uint256 => User)) public pools */\n    tag_9:\n      callvalue\n      dup1\n      iszero\n      tag_60\n      jumpi\n      0x00\n      dup1\n      revert\n    tag_60:\n      pop\n      tag_61\n      0x04\n      dup1\n      calldatasize\n      sub\n      dup2\n      add\n      swap1\n      tag_62\n      swap2\n      swap1\n      tag_63\n      jump\t// in\n    tag_62:\n      tag_64\n      jump\t// in\n    tag_61:\n      mload(0x40)\n      tag_65\n      swap4\n      swap3\n      swap2\n      swap1\n      tag_38\n      jump\t// in\n    tag_65:\n      mload(0x40)\n      dup1\n      swap2\n      sub\n      swap1\n      return\n        /* \"Contract.sol\":848:885  mapping (uint8 => Game) public levels */\n    tag_10:\n      callvalue\n      dup1\n      iszero\n      tag_66\n      jumpi\n      0x00\n      dup1\n      revert\n    tag_66:\n      pop\n      tag_67\n      0x04\n      dup1\n      calldatasize\n      sub\n      dup2\n      add\n      swap1\n      tag_68\n      swap2\n      swap1\n      tag_48\n      jump\t// in\n    tag_68:\n      tag_69\n      jump\t// in\n    tag_67:\n      mload(0x40)\n      tag_70\n      swap2\n      swap1\n      tag_55\n      jump\t// in\n    tag_70:\n      mload(0x40)\n      dup1\n      swap2\n      sub\n      swap1\n      return\n        /* \"Contract.sol\":4097:4326  function hasAccess(address userAdress) public view returns(bool) {\r... */\n    tag_11:\n      callvalue\n      dup1\n      iszero\n      tag_71\n      jumpi\n      0x00\n      dup1\n      revert\n    tag_71:\n      pop\n      tag_72\n      0x04\n      dup1\n      calldatasize\n      sub\n      dup2\n      add\n      swap1\n      tag_73\n      swap2\n      swap1\n      tag_35\n      jump\t// in\n    tag_73:\n      tag_74\n      jump\t// in\n    tag_72:\n      mload(0x40)\n      tag_75\n      swap2\n      swap1\n      tag_45\n      jump\t// in\n    tag_75:\n      mload(0x40)\n      dup1\n      swap2\n      sub\n      swap1\n      return\n        /* \"Contract.sol\":1099:1149  mapping (uint8 => uint256) public currentUserIndex */\n    tag_12:\n      callvalue\n      dup1\n      iszero\n      tag_76\n      jumpi\n      0x00\n      dup1\n      revert\n    tag_76:\n      pop\n      tag_77\n      0x04\n      dup1\n      calldatasize\n      sub\n      dup2\n      add\n      swap1\n      tag_78\n      swap2\n      swap1\n      tag_48\n      jump\t// in\n    tag_78:\n      tag_79\n      jump\t// in\n    tag_77:\n      mload(0x40)\n      tag_80\n      swap2\n      swap1\n      tag_55\n      jump\t// in\n    tag_80:\n      mload(0x40)\n      dup1\n      swap2\n      sub\n      swap1\n      return\n        /* \"Contract.sol\":155:186  uint8 public currentGameIdIndex */\n    tag_13:\n      callvalue\n      dup1\n      iszero\n      tag_81\n      jumpi\n      0x00\n      dup1\n      revert\n    tag_81:\n      pop\n      tag_82\n      tag_83\n      jump\t// in\n    tag_82:\n      mload(0x40)\n      tag_84\n      swap2\n      swap1\n      tag_85\n      jump\t// in\n    tag_84:\n      mload(0x40)\n      dup1\n      swap2\n      sub\n      swap1\n      return\n        /* \"Contract.sol\":4461:4805  function addGameLevel(uint256 amountToPay) public onlyOwner {\r... */\n    tag_14:\n      callvalue\n      dup1\n      iszero\n      tag_86\n      jumpi\n      0x00\n      dup1\n      revert\n    tag_86:\n      pop\n      tag_87\n      0x04\n      dup1\n      calldatasize\n      sub\n      dup2\n      add\n      swap1\n      tag_88\n      swap2\n      swap1\n      tag_30\n      jump\t// in\n    tag_88:\n      tag_89\n      jump\t// in\n    tag_87:\n      stop\n        /* \"Contract.sol\":909:952  mapping (uint256 => address) public usersId */\n    tag_15:\n      callvalue\n      dup1\n      iszero\n      tag_90\n      jumpi\n      0x00\n      dup1\n      revert\n    tag_90:\n      pop\n      tag_91\n      0x04\n      dup1\n      calldatasize\n      sub\n      dup2\n      add\n      swap1\n      tag_92\n      swap2\n      swap1\n      tag_30\n      jump\t// in\n    tag_92:\n      tag_93\n      jump\t// in\n    tag_91:\n      mload(0x40)\n      tag_94\n      swap2\n      swap1\n      tag_95\n      jump\t// in\n    tag_94:\n      mload(0x40)\n      dup1\n      swap2\n      sub\n      swap1\n      return\n        /* \"Contract.sol\":1287:1354  mapping (address => mapping (uint8 => uint256)) public userPayments */\n    tag_16:\n      callvalue\n      dup1\n      iszero\n      tag_96\n      jumpi\n      0x00\n      dup1\n      revert\n    tag_96:\n      pop\n      tag_97\n      0x04\n      dup1\n      calldatasize\n      sub\n      dup2\n      add\n      swap1\n      tag_98\n      swap2\n      swap1\n      tag_42\n      jump\t// in\n    tag_98:\n      tag_99\n      jump\t// in\n    tag_97:\n      mload(0x40)\n      tag_100\n      swap2\n      swap1\n      tag_55\n      jump\t// in\n    tag_100:\n      mload(0x40)\n      dup1\n      swap2\n      sub\n      swap1\n      return\n        /* \"Contract.sol\":2865:2911  function test() public {\r... */\n    tag_17:\n      callvalue\n      dup1\n      iszero\n      tag_101\n      jumpi\n      0x00\n      dup1\n      revert\n    tag_101:\n      pop\n      tag_102\n      tag_103\n      jump\t// in\n    tag_102:\n      stop\n        /* \"Contract.sol\":2919:3518  function _fallback(address sender, uint256 value) internal {\r... */\n    tag_24:\n        /* \"Contract.sol\":3130:3142  bool success */\n      0x00\n        /* \"Contract.sol\":3153:3165  uint8 gameId */\n      dup1\n        /* \"Contract.sol\":3183:3194  uint8 index */\n      0x00\n        /* \"Contract.sol\":3178:3411  for (uint8 index; index < currentGameIdIndex+1; index++) {\r... */\n    tag_105:\n        /* \"Contract.sol\":3223:3224  1 */\n      0x01\n        /* \"Contract.sol\":3204:3222  currentGameIdIndex */\n      dup1\n      0x00\n      swap1\n      sload\n      swap1\n      0x0100\n      exp\n      swap1\n      div\n      0xff\n      and\n        /* \"Contract.sol\":3204:3224  currentGameIdIndex+1 */\n      tag_108\n      swap2\n      swap1\n      tag_109\n      jump\t// in\n    tag_108:\n        /* \"Contract.sol\":3196:3224  index < currentGameIdIndex+1 */\n      0xff\n      and\n        /* \"Contract.sol\":3196:3201  index */\n      dup2\n        /* \"Contract.sol\":3196:3224  index < currentGameIdIndex+1 */\n      0xff\n      and\n      lt\n        /* \"Contract.sol\":3178:3411  for (uint8 index; index < currentGameIdIndex+1; index++) {\r... */\n      iszero\n      tag_106\n      jumpi\n        /* \"Contract.sol\":3283:3292  msg.value */\n      callvalue\n        /* \"Contract.sol\":3254:3260  levels */\n      0x02\n        /* \"Contract.sol\":3254:3267  levels[index] */\n      0x00\n        /* \"Contract.sol\":3261:3266  index */\n      dup4\n        /* \"Contract.sol\":3254:3267  levels[index] */\n      0xff\n      and\n      0xff\n      and\n      dup2\n      mstore\n      0x20\n      add\n      swap1\n      dup2\n      mstore\n      0x20\n      add\n      0x00\n      keccak256\n        /* \"Contract.sol\":3254:3279  levels[index].amountToPay */\n      0x00\n      add\n      sload\n        /* \"Contract.sol\":3254:3292  levels[index].amountToPay == msg.value */\n      eq\n        /* \"Contract.sol\":3250:3400  if (levels[index].amountToPay == msg.value) {\r... */\n      iszero\n      tag_110\n      jumpi\n        /* \"Contract.sol\":3323:3327  true */\n      0x01\n        /* \"Contract.sol\":3313:3327  success = true */\n      swap3\n      pop\n        /* \"Contract.sol\":3355:3360  index */\n      dup1\n        /* \"Contract.sol\":3346:3360  gameId = index */\n      swap2\n      pop\n        /* \"Contract.sol\":3379:3384  break */\n      jump(tag_106)\n        /* \"Contract.sol\":3250:3400  if (levels[index].amountToPay == msg.value) {\r... */\n    tag_110:\n        /* \"Contract.sol\":3226:3233  index++ */\n      dup1\n      dup1\n      tag_111\n      swap1\n      tag_112\n      jump\t// in\n    tag_111:\n      swap2\n      pop\n      pop\n        /* \"Contract.sol\":3178:3411  for (uint8 index; index < currentGameIdIndex+1; index++) {\r... */\n      jump(tag_105)\n    tag_106:\n      pop\n        /* \"Contract.sol\":3439:3446  success */\n      dup2\n        /* \"Contract.sol\":3431:3465  require(success, \"Game not found\") */\n      tag_113\n      jumpi\n      mload(0x40)\n      0x08c379a000000000000000000000000000000000000000000000000000000000\n      dup2\n      mstore\n      0x04\n      add\n      tag_114\n      swap1\n      tag_115\n      jump\t// in\n    tag_114:\n      mload(0x40)\n      dup1\n      swap2\n      sub\n      swap1\n      revert\n    tag_113:\n        /* \"Contract.sol\":3476:3510  _joinToGame(gameId, sender, value) */\n      tag_116\n        /* \"Contract.sol\":3488:3494  gameId */\n      dup2\n        /* \"Contract.sol\":3496:3502  sender */\n      dup6\n        /* \"Contract.sol\":3504:3509  value */\n      dup6\n        /* \"Contract.sol\":3476:3487  _joinToGame */\n      tag_117\n        /* \"Contract.sol\":3476:3510  _joinToGame(gameId, sender, value) */\n      jump\t// in\n    tag_116:\n        /* \"Contract.sol\":2978:3518  {\r... */\n      pop\n      pop\n        /* \"Contract.sol\":2919:3518  function _fallback(address sender, uint256 value) internal {\r... */\n      pop\n      pop\n      jump\t// out\n        /* \"Contract.sol\":4813:5353  function registerUserToGame(uint256 inviterId) external payable noContractAccess {\r... */\n    tag_31:\n        /* \"Contract.sol\":2099:2110  uint32 size */\n      0x00\n        /* \"Contract.sol\":2121:2135  address sender */\n      dup1\n        /* \"Contract.sol\":2138:2148  msg.sender */\n      caller\n        /* \"Contract.sol\":2121:2148  address sender = msg.sender */\n      swap1\n      pop\n        /* \"Contract.sol\":2190:2196  sender */\n      dup1\n        /* \"Contract.sol\":2178:2197  extcodesize(sender) */\n      extcodesize\n        /* \"Contract.sol\":2170:2197  size := extcodesize(sender) */\n      swap2\n      pop\n        /* \"Contract.sol\":2228:2229  0 */\n      0x00\n        /* \"Contract.sol\":2221:2225  size */\n      dup3\n        /* \"Contract.sol\":2221:2229  size > 0 */\n      0xffffffff\n      and\n      gt\n        /* \"Contract.sol\":2219:2230  !(size > 0) */\n      iszero\n        /* \"Contract.sol\":2211:2247  require(!(size > 0), \"No contracts\") */\n      tag_119\n      jumpi\n      mload(0x40)\n      0x08c379a000000000000000000000000000000000000000000000000000000000\n      dup2\n      mstore\n      0x04\n      add\n      tag_120\n      swap1\n      tag_121\n      jump\t// in\n    tag_120:\n      mload(0x40)\n      dup1\n      swap2\n      sub\n      swap1\n      revert\n    tag_119:\n        /* \"Contract.sol\":5043:5044  0 */\n      0x00\n        /* \"Contract.sol\":4992:5045  registeredUsers[msg.sender].userAddress == address(0) */\n      0xffffffffffffffffffffffffffffffffffffffff\n      and\n        /* \"Contract.sol\":4992:5007  registeredUsers */\n      0x04\n        /* \"Contract.sol\":4992:5019  registeredUsers[msg.sender] */\n      0x00\n        /* \"Contract.sol\":5008:5018  msg.sender */\n      caller\n        /* \"Contract.sol\":4992:5019  registeredUsers[msg.sender] */\n      0xffffffffffffffffffffffffffffffffffffffff\n      and\n      0xffffffffffffffffffffffffffffffffffffffff\n      and\n      dup2\n      mstore\n      0x20\n      add\n      swap1\n      dup2\n      mstore\n      0x20\n      add\n      0x00\n      keccak256\n        /* \"Contract.sol\":4992:5031  registeredUsers[msg.sender].userAddress */\n      0x01\n      add\n      0x00\n      swap1\n      sload\n      swap1\n      0x0100\n      exp\n      swap1\n      div\n      0xffffffffffffffffffffffffffffffffffffffff\n      and\n        /* \"Contract.sol\":4992:5045  registeredUsers[msg.sender].userAddress == address(0) */\n      0xffffffffffffffffffffffffffffffffffffffff\n      and\n      eq\n        /* \"Contract.sol\":4984:5076  require(registeredUsers[msg.sender].userAddress == address(0), \"You are already registered\") */\n      tag_123\n      jumpi\n      mload(0x40)\n      0x08c379a000000000000000000000000000000000000000000000000000000000\n      dup2\n      mstore\n      0x04\n      add\n      tag_124\n      swap1\n      tag_125\n      jump\t// in\n    tag_124:\n      mload(0x40)\n      dup1\n      swap2\n      sub\n      swap1\n      revert\n    tag_123:\n        /* \"Contract.sol\":5109:5116  1 ether */\n      0x0de0b6b3a7640000\n        /* \"Contract.sol\":5096:5105  msg.value */\n      callvalue\n        /* \"Contract.sol\":5096:5116  msg.value == 1 ether */\n      eq\n        /* \"Contract.sol\":5087:5161  require (msg.value == 1 ether, \"For regiter in game you need pay 1 ether\") */\n      tag_126\n      jumpi\n      mload(0x40)\n      0x08c379a000000000000000000000000000000000000000000000000000000000\n      dup2\n      mstore\n      0x04\n      add\n      tag_127\n      swap1\n      tag_128\n      jump\t// in\n    tag_127:\n      mload(0x40)\n      dup1\n      swap2\n      sub\n      swap1\n      revert\n    tag_126:\n        /* \"Contract.sol\":5204:5260  User(currentUserIdIndex, payable(msg.sender), inviterId) */\n      mload(0x40)\n      dup1\n      0x60\n      add\n      0x40\n      mstore\n      dup1\n        /* \"Contract.sol\":5209:5227  currentUserIdIndex */\n      sload(0x00)\n        /* \"Contract.sol\":5204:5260  User(currentUserIdIndex, payable(msg.sender), inviterId) */\n      dup2\n      mstore\n      0x20\n      add\n        /* \"Contract.sol\":5237:5247  msg.sender */\n      caller\n        /* \"Contract.sol\":5204:5260  User(currentUserIdIndex, payable(msg.sender), inviterId) */\n      0xffffffffffffffffffffffffffffffffffffffff\n      and\n      dup2\n      mstore\n      0x20\n      add\n        /* \"Contract.sol\":5250:5259  inviterId */\n      dup5\n        /* \"Contract.sol\":5204:5260  User(currentUserIdIndex, payable(msg.sender), inviterId) */\n      dup2\n      mstore\n      pop\n        /* \"Contract.sol\":5174:5189  registeredUsers */\n      0x04\n        /* \"Contract.sol\":5174:5201  registeredUsers[msg.sender] */\n      0x00\n        /* \"Contract.sol\":5190:5200  msg.sender */\n      caller\n        /* \"Contract.sol\":5174:5201  registeredUsers[msg.sender] */\n      0xffffffffffffffffffffffffffffffffffffffff\n      and\n      0xffffffffffffffffffffffffffffffffffffffff\n      and\n      dup2\n      mstore\n      0x20\n      add\n      swap1\n      dup2\n      mstore\n      0x20\n      add\n      0x00\n      keccak256\n        /* \"Contract.sol\":5174:5260  registeredUsers[msg.sender] = User(currentUserIdIndex, payable(msg.sender), inviterId) */\n      0x00\n      dup3\n      add\n      mload\n      dup2\n      0x00\n      add\n      sstore\n      0x20\n      dup3\n      add\n      mload\n      dup2\n      0x01\n      add\n      exp(0x0100, 0x00)\n      dup2\n      sload\n      dup2\n      0xffffffffffffffffffffffffffffffffffffffff\n      mul\n      not\n      and\n      swap1\n      dup4\n      0xffffffffffffffffffffffffffffffffffffffff\n      and\n      mul\n      or\n      swap1\n      sstore\n      pop\n      0x40\n      dup3\n      add\n      mload\n      dup2\n      0x02\n      add\n      sstore\n      swap1\n      pop\n      pop\n        /* \"Contract.sol\":5301:5311  msg.sender */\n      caller\n        /* \"Contract.sol\":5271:5278  usersId */\n      0x03\n        /* \"Contract.sol\":5271:5298  usersId[currentUserIdIndex] */\n      0x00\n        /* \"Contract.sol\":5279:5297  currentUserIdIndex */\n      dup1\n      sload\n        /* \"Contract.sol\":5271:5298  usersId[currentUserIdIndex] */\n      dup2\n      mstore\n      0x20\n      add\n      swap1\n      dup2\n      mstore\n      0x20\n      add\n      0x00\n      keccak256\n      0x00\n        /* \"Contract.sol\":5271:5311  usersId[currentUserIdIndex] = msg.sender */\n      0x0100\n      exp\n      dup2\n      sload\n      dup2\n      0xffffffffffffffffffffffffffffffffffffffff\n      mul\n      not\n      and\n      swap1\n      dup4\n      0xffffffffffffffffffffffffffffffffffffffff\n      and\n      mul\n      or\n      swap1\n      sstore\n      pop\n        /* \"Contract.sol\":5344:5345  1 */\n      0x01\n        /* \"Contract.sol\":5322:5340  currentUserIdIndex */\n      0x00\n      dup1\n        /* \"Contract.sol\":5322:5345  currentUserIdIndex += 1 */\n      dup3\n      dup3\n      sload\n      tag_129\n      swap2\n      swap1\n      tag_130\n      jump\t// in\n    tag_129:\n      swap3\n      pop\n      pop\n      dup2\n      swap1\n      sstore\n      pop\n        /* \"Contract.sol\":2021:2267  {\r... */\n      pop\n      pop\n        /* \"Contract.sol\":4813:5353  function registerUserToGame(uint256 inviterId) external payable noContractAccess {\r... */\n      pop\n      jump\t// out\n        /* \"Contract.sol\":996:1044  mapping (address => User) public registeredUsers */\n    tag_36:\n      mstore(0x20, 0x04)\n      dup1\n      0x00\n      mstore\n      keccak256(0x00, 0x40)\n      0x00\n      swap2\n      pop\n      swap1\n      pop\n      dup1\n      0x00\n      add\n      sload\n      swap1\n      dup1\n      0x01\n      add\n      0x00\n      swap1\n      sload\n      swap1\n      0x0100\n      exp\n      swap1\n      div\n      0xffffffffffffffffffffffffffffffffffffffff\n      and\n      swap1\n      dup1\n      0x02\n      add\n      sload\n      swap1\n      pop\n      dup4\n      jump\t// out\n        /* \"Contract.sol\":1400:1461  mapping (address => mapping (uint8 => bool)) public userGames */\n    tag_43:\n      mstore(0x20, 0x08)\n      dup2\n      0x00\n      mstore\n      mstore(0x20, keccak256(0x00, 0x40))\n      dup1\n      0x00\n      mstore\n      keccak256(0x00, 0x40)\n      0x00\n      swap2\n      pop\n      swap2\n      pop\n      swap1\n      sload\n      swap1\n      0x0100\n      exp\n      swap1\n      div\n      0xff\n      and\n      dup2\n      jump\t// out\n        /* \"Contract.sol\":5361:5578  function joinToGame(uint8 gameId) public payable onlyRegistered {\r... */\n    tag_49:\n        /* \"Contract.sol\":1964:1965  0 */\n      0x00\n        /* \"Contract.sol\":1913:1966  registeredUsers[msg.sender].userAddress != address(0) */\n      0xffffffffffffffffffffffffffffffffffffffff\n      and\n        /* \"Contract.sol\":1913:1928  registeredUsers */\n      0x04\n        /* \"Contract.sol\":1913:1940  registeredUsers[msg.sender] */\n      0x00\n        /* \"Contract.sol\":1929:1939  msg.sender */\n      caller\n        /* \"Contract.sol\":1913:1940  registeredUsers[msg.sender] */\n      0xffffffffffffffffffffffffffffffffffffffff\n      and\n      0xffffffffffffffffffffffffffffffffffffffff\n      and\n      dup2\n      mstore\n      0x20\n      add\n      swap1\n      dup2\n      mstore\n      0x20\n      add\n      0x00\n      keccak256\n        /* \"Contract.sol\":1913:1952  registeredUsers[msg.sender].userAddress */\n      0x01\n      add\n      0x00\n      swap1\n      sload\n      swap1\n      0x0100\n      exp\n      swap1\n      div\n      0xffffffffffffffffffffffffffffffffffffffff\n      and\n        /* \"Contract.sol\":1913:1966  registeredUsers[msg.sender].userAddress != address(0) */\n      0xffffffffffffffffffffffffffffffffffffffff\n      and\n      eq\n      iszero\n        /* \"Contract.sol\":1905:1967  require(registeredUsers[msg.sender].userAddress != address(0)) */\n      tag_132\n      jumpi\n      0x00\n      dup1\n      revert\n    tag_132:\n        /* \"Contract.sol\":5528:5570  _joinToGame(gameId, msg.sender, msg.value) */\n      tag_134\n        /* \"Contract.sol\":5540:5546  gameId */\n      dup2\n        /* \"Contract.sol\":5548:5558  msg.sender */\n      caller\n        /* \"Contract.sol\":5560:5569  msg.value */\n      callvalue\n        /* \"Contract.sol\":5528:5539  _joinToGame */\n      tag_117\n        /* \"Contract.sol\":5528:5570  _joinToGame(gameId, msg.sender, msg.value) */\n      jump\t// in\n    tag_134:\n        /* \"Contract.sol\":5361:5578  function joinToGame(uint8 gameId) public payable onlyRegistered {\r... */\n      pop\n      jump\t// out\n        /* \"Contract.sol\":4334:4453  function getUserBalance(address userAddress) public view returns(uint256) {\r... */\n    tag_53:\n        /* \"Contract.sol\":4399:4406  uint256 */\n      0x00\n        /* \"Contract.sol\":4426:4437  userAddress */\n      dup2\n        /* \"Contract.sol\":4426:4445  userAddress.balance */\n      0xffffffffffffffffffffffffffffffffffffffff\n      and\n      balance\n        /* \"Contract.sol\":4419:4445  return userAddress.balance */\n      swap1\n      pop\n        /* \"Contract.sol\":4334:4453  function getUserBalance(address userAddress) public view returns(uint256) {\r... */\n      swap2\n      swap1\n      pop\n      jump\t// out\n        /* \"Contract.sol\":86:119  uint256 public currentUserIdIndex */\n    tag_58:\n      sload(0x00)\n      dup2\n      jump\t// out\n        /* \"Contract.sol\":1188:1245  mapping (uint8 => mapping (uint256 => User)) public pools */\n    tag_64:\n      mstore(0x20, 0x06)\n      dup2\n      0x00\n      mstore\n      mstore(0x20, keccak256(0x00, 0x40))\n      dup1\n      0x00\n      mstore\n      keccak256(0x00, 0x40)\n      0x00\n      swap2\n      pop\n      swap2\n      pop\n      pop\n      dup1\n      0x00\n      add\n      sload\n      swap1\n      dup1\n      0x01\n      add\n      0x00\n      swap1\n      sload\n      swap1\n      0x0100\n      exp\n      swap1\n      div\n      0xffffffffffffffffffffffffffffffffffffffff\n      and\n      swap1\n      dup1\n      0x02\n      add\n      sload\n      swap1\n      pop\n      dup4\n      jump\t// out\n        /* \"Contract.sol\":848:885  mapping (uint8 => Game) public levels */\n    tag_69:\n      mstore(0x20, 0x02)\n      dup1\n      0x00\n      mstore\n      keccak256(0x00, 0x40)\n      0x00\n      swap2\n      pop\n      swap1\n      pop\n      dup1\n      0x00\n      add\n      sload\n      swap1\n      pop\n      dup2\n      jump\t// out\n        /* \"Contract.sol\":4097:4326  function hasAccess(address userAdress) public view returns(bool) {\r... */\n    tag_74:\n        /* \"Contract.sol\":4156:4160  bool */\n      0x00\n        /* \"Contract.sol\":4305:4318  contractOwner */\n      0x01\n      dup1\n      sload\n      swap1\n      0x0100\n      exp\n      swap1\n      div\n      0xffffffffffffffffffffffffffffffffffffffff\n      and\n        /* \"Contract.sol\":4291:4318  userAdress == contractOwner */\n      0xffffffffffffffffffffffffffffffffffffffff\n      and\n        /* \"Contract.sol\":4291:4301  userAdress */\n      dup3\n        /* \"Contract.sol\":4291:4318  userAdress == contractOwner */\n      0xffffffffffffffffffffffffffffffffffffffff\n      and\n      eq\n        /* \"Contract.sol\":4284:4318  return userAdress == contractOwner */\n      swap1\n      pop\n        /* \"Contract.sol\":4097:4326  function hasAccess(address userAdress) public view returns(bool) {\r... */\n      swap2\n      swap1\n      pop\n      jump\t// out\n        /* \"Contract.sol\":1099:1149  mapping (uint8 => uint256) public currentUserIndex */\n    tag_79:\n      mstore(0x20, 0x05)\n      dup1\n      0x00\n      mstore\n      keccak256(0x00, 0x40)\n      0x00\n      swap2\n      pop\n      swap1\n      pop\n      sload\n      dup2\n      jump\t// out\n        /* \"Contract.sol\":155:186  uint8 public currentGameIdIndex */\n    tag_83:\n      0x01\n      0x00\n      swap1\n      sload\n      swap1\n      0x0100\n      exp\n      swap1\n      div\n      0xff\n      and\n      dup2\n      jump\t// out\n        /* \"Contract.sol\":4461:4805  function addGameLevel(uint256 amountToPay) public onlyOwner {\r... */\n    tag_89:\n        /* \"Contract.sol\":2373:2394  hasAccess(msg.sender) */\n      tag_138\n        /* \"Contract.sol\":2383:2393  msg.sender */\n      caller\n        /* \"Contract.sol\":2373:2382  hasAccess */\n      tag_74\n        /* \"Contract.sol\":2373:2394  hasAccess(msg.sender) */\n      jump\t// in\n    tag_138:\n        /* \"Contract.sol\":2365:2395  require(hasAccess(msg.sender)) */\n      tag_139\n      jumpi\n      0x00\n      dup1\n      revert\n    tag_139:\n        /* \"Contract.sol\":4666:4700  Game({ amountToPay: amountToPay }) */\n      mload(0x40)\n      dup1\n      0x20\n      add\n      0x40\n      mstore\n      dup1\n        /* \"Contract.sol\":4686:4697  amountToPay */\n      dup3\n        /* \"Contract.sol\":4666:4700  Game({ amountToPay: amountToPay }) */\n      dup2\n      mstore\n      pop\n        /* \"Contract.sol\":4637:4643  levels */\n      0x02\n        /* \"Contract.sol\":4637:4663  levels[currentGameIdIndex] */\n      0x00\n        /* \"Contract.sol\":4644:4662  currentGameIdIndex */\n      0x01\n      0x00\n      swap1\n      sload\n      swap1\n      0x0100\n      exp\n      swap1\n      div\n      0xff\n      and\n        /* \"Contract.sol\":4637:4663  levels[currentGameIdIndex] */\n      0xff\n      and\n      0xff\n      and\n      dup2\n      mstore\n      0x20\n      add\n      swap1\n      dup2\n      mstore\n      0x20\n      add\n      0x00\n      keccak256\n        /* \"Contract.sol\":4637:4700  levels[currentGameIdIndex] = Game({ amountToPay: amountToPay }) */\n      0x00\n      dup3\n      add\n      mload\n      dup2\n      0x00\n      add\n      sstore\n      swap1\n      pop\n      pop\n        /* \"Contract.sol\":4733:4734  1 */\n      0x01\n        /* \"Contract.sol\":4711:4729  currentGameIdIndex */\n      dup1\n      0x00\n        /* \"Contract.sol\":4711:4734  currentGameIdIndex += 1 */\n      dup3\n      dup3\n      dup3\n      swap1\n      sload\n      swap1\n      0x0100\n      exp\n      swap1\n      div\n      0xff\n      and\n      tag_141\n      swap2\n      swap1\n      tag_109\n      jump\t// in\n    tag_141:\n      swap3\n      pop\n      0x0100\n      exp\n      dup2\n      sload\n      dup2\n      0xff\n      mul\n      not\n      and\n      swap1\n      dup4\n      0xff\n      and\n      mul\n      or\n      swap1\n      sstore\n      pop\n        /* \"Contract.sol\":4750:4797  NewGame(levels[currentGameIdIndex].amountToPay) */\n      0xa0b7f6f22bb4f69adc52dd16ffe2a964ab8b577be274247fa9a1547b03ce3e55\n        /* \"Contract.sol\":4758:4764  levels */\n      0x02\n        /* \"Contract.sol\":4758:4784  levels[currentGameIdIndex] */\n      0x00\n        /* \"Contract.sol\":4765:4783  currentGameIdIndex */\n      0x01\n      0x00\n      swap1\n      sload\n      swap1\n      0x0100\n      exp\n      swap1\n      div\n      0xff\n      and\n        /* \"Contract.sol\":4758:4784  levels[currentGameIdIndex] */\n      0xff\n      and\n      0xff\n      and\n      dup2\n      mstore\n      0x20\n      add\n      swap1\n      dup2\n      mstore\n      0x20\n      add\n      0x00\n      keccak256\n        /* \"Contract.sol\":4758:4796  levels[currentGameIdIndex].amountToPay */\n      0x00\n      add\n      sload\n        /* \"Contract.sol\":4750:4797  NewGame(levels[currentGameIdIndex].amountToPay) */\n      mload(0x40)\n      tag_142\n      swap2\n      swap1\n      tag_55\n      jump\t// in\n    tag_142:\n      mload(0x40)\n      dup1\n      swap2\n      sub\n      swap1\n      log1\n        /* \"Contract.sol\":4461:4805  function addGameLevel(uint256 amountToPay) public onlyOwner {\r... */\n      pop\n      jump\t// out\n        /* \"Contract.sol\":909:952  mapping (uint256 => address) public usersId */\n    tag_93:\n      mstore(0x20, 0x03)\n      dup1\n      0x00\n      mstore\n      keccak256(0x00, 0x40)\n      0x00\n      swap2\n      pop\n      sload\n      swap1\n      0x0100\n      exp\n      swap1\n      div\n      0xffffffffffffffffffffffffffffffffffffffff\n      and\n      dup2\n      jump\t// out\n        /* \"Contract.sol\":1287:1354  mapping (address => mapping (uint8 => uint256)) public userPayments */\n    tag_99:\n      mstore(0x20, 0x07)\n      dup2\n      0x00\n      mstore\n      mstore(0x20, keccak256(0x00, 0x40))\n      dup1\n      0x00\n      mstore\n      keccak256(0x00, 0x40)\n      0x00\n      swap2\n      pop\n      swap2\n      pop\n      pop\n      sload\n      dup2\n      jump\t// out\n        /* \"Contract.sol\":2865:2911  function test() public {\r... */\n    tag_103:\n        /* \"Contract.sol\":2897:2903  test() */\n      tag_144\n        /* \"Contract.sol\":2897:2901  test */\n      tag_103\n        /* \"Contract.sol\":2897:2903  test() */\n      jump\t// in\n    tag_144:\n        /* \"Contract.sol\":2865:2911  function test() public {\r... */\n      jump\t// out\n        /* \"Contract.sol\":5586:9285  function _joinToGame(uint8 gameId, address sender, uint256 value) internal {\r... */\n    tag_117:\n        /* \"Contract.sol\":5690:5696  levels */\n      0x02\n        /* \"Contract.sol\":5690:5704  levels[gameId] */\n      0x00\n        /* \"Contract.sol\":5697:5703  gameId */\n      dup5\n        /* \"Contract.sol\":5690:5704  levels[gameId] */\n      0xff\n      and\n      0xff\n      and\n      dup2\n      mstore\n      0x20\n      add\n      swap1\n      dup2\n      mstore\n      0x20\n      add\n      0x00\n      keccak256\n        /* \"Contract.sol\":5690:5716  levels[gameId].amountToPay */\n      0x00\n      add\n      sload\n        /* \"Contract.sol\":5681:5686  value */\n      dup2\n        /* \"Contract.sol\":5681:5716  value >= levels[gameId].amountToPay */\n      lt\n      iszero\n        /* \"Contract.sol\":5672:5756  require (value >= levels[gameId].amountToPay, \"Insufficient amount of contribution\") */\n      tag_146\n      jumpi\n      mload(0x40)\n      0x08c379a000000000000000000000000000000000000000000000000000000000\n      dup2\n      mstore\n      0x04\n      add\n      tag_147\n      swap1\n      tag_148\n      jump\t// in\n    tag_147:\n      mload(0x40)\n      dup1\n      swap2\n      sub\n      swap1\n      revert\n    tag_146:\n        /* \"Contract.sol\":5931:5946  registeredUsers */\n      0x04\n        /* \"Contract.sol\":5931:5954  registeredUsers[sender] */\n      0x00\n        /* \"Contract.sol\":5947:5953  sender */\n      dup4\n        /* \"Contract.sol\":5931:5954  registeredUsers[sender] */\n      0xffffffffffffffffffffffffffffffffffffffff\n      and\n      0xffffffffffffffffffffffffffffffffffffffff\n      and\n      dup2\n      mstore\n      0x20\n      add\n      swap1\n      dup2\n      mstore\n      0x20\n      add\n      0x00\n      keccak256\n        /* \"Contract.sol\":5889:5894  pools */\n      0x06\n        /* \"Contract.sol\":5889:5902  pools[gameId] */\n      0x00\n        /* \"Contract.sol\":5895:5901  gameId */\n      dup6\n        /* \"Contract.sol\":5889:5902  pools[gameId] */\n      0xff\n      and\n      0xff\n      and\n      dup2\n      mstore\n      0x20\n      add\n      swap1\n      dup2\n      mstore\n      0x20\n      add\n      0x00\n      keccak256\n        /* \"Contract.sol\":5889:5928  pools[gameId][currentUserIndex[gameId]] */\n      0x00\n        /* \"Contract.sol\":5903:5919  currentUserIndex */\n      0x05\n        /* \"Contract.sol\":5903:5927  currentUserIndex[gameId] */\n      0x00\n        /* \"Contract.sol\":5920:5926  gameId */\n      dup8\n        /* \"Contract.sol\":5903:5927  currentUserIndex[gameId] */\n      0xff\n      and\n      0xff\n      and\n      dup2\n      mstore\n      0x20\n      add\n      swap1\n      dup2\n      mstore\n      0x20\n      add\n      0x00\n      keccak256\n      sload\n        /* \"Contract.sol\":5889:5928  pools[gameId][currentUserIndex[gameId]] */\n      dup2\n      mstore\n      0x20\n      add\n      swap1\n      dup2\n      mstore\n      0x20\n      add\n      0x00\n      keccak256\n        /* \"Contract.sol\":5889:5954  pools[gameId][currentUserIndex[gameId]] = registeredUsers[sender] */\n      0x00\n      dup3\n      add\n      sload\n      dup2\n      0x00\n      add\n      sstore\n      0x01\n      dup3\n      add\n      0x00\n      swap1\n      sload\n      swap1\n      0x0100\n      exp\n      swap1\n      div\n      0xffffffffffffffffffffffffffffffffffffffff\n      and\n      dup2\n      0x01\n      add\n      exp(0x0100, 0x00)\n      dup2\n      sload\n      dup2\n      0xffffffffffffffffffffffffffffffffffffffff\n      mul\n      not\n      and\n      swap1\n      dup4\n      0xffffffffffffffffffffffffffffffffffffffff\n      and\n      mul\n      or\n      swap1\n      sstore\n      pop\n      0x02\n      dup3\n      add\n      sload\n      dup2\n      0x02\n      add\n      sstore\n      swap1\n      pop\n      pop\n        /* \"Contract.sol\":5993:5997  true */\n      0x01\n        /* \"Contract.sol\":5965:5974  userGames */\n      0x08\n        /* \"Contract.sol\":5965:5982  userGames[sender] */\n      0x00\n        /* \"Contract.sol\":5975:5981  sender */\n      dup5\n        /* \"Contract.sol\":5965:5982  userGames[sender] */\n      0xffffffffffffffffffffffffffffffffffffffff\n      and\n      0xffffffffffffffffffffffffffffffffffffffff\n      and\n      dup2\n      mstore\n      0x20\n      add\n      swap1\n      dup2\n      mstore\n      0x20\n      add\n      0x00\n      keccak256\n        /* \"Contract.sol\":5965:5990  userGames[sender][gameId] */\n      0x00\n        /* \"Contract.sol\":5983:5989  gameId */\n      dup6\n        /* \"Contract.sol\":5965:5990  userGames[sender][gameId] */\n      0xff\n      and\n      0xff\n      and\n      dup2\n      mstore\n      0x20\n      add\n      swap1\n      dup2\n      mstore\n      0x20\n      add\n      0x00\n      keccak256\n      0x00\n        /* \"Contract.sol\":5965:5997  userGames[sender][gameId] = true */\n      0x0100\n      exp\n      dup2\n      sload\n      dup2\n      0xff\n      mul\n      not\n      and\n      swap1\n      dup4\n      iszero\n      iszero\n      mul\n      or\n      swap1\n      sstore\n      pop\n        /* \"Contract.sol\":6036:6037  1 */\n      0x01\n        /* \"Contract.sol\":6008:6024  currentUserIndex */\n      0x05\n        /* \"Contract.sol\":6008:6032  currentUserIndex[gameId] */\n      0x00\n        /* \"Contract.sol\":6025:6031  gameId */\n      dup6\n        /* \"Contract.sol\":6008:6032  currentUserIndex[gameId] */\n      0xff\n      and\n      0xff\n      and\n      dup2\n      mstore\n      0x20\n      add\n      swap1\n      dup2\n      mstore\n      0x20\n      add\n      0x00\n      keccak256\n      0x00\n        /* \"Contract.sol\":6008:6037  currentUserIndex[gameId] += 1 */\n      dup3\n      dup3\n      sload\n      tag_149\n      swap2\n      swap1\n      tag_130\n      jump\t// in\n    tag_149:\n      swap3\n      pop\n      pop\n      dup2\n      swap1\n      sstore\n      pop\n        /* \"Contract.sol\":6181:6182  3 */\n      0x03\n        /* \"Contract.sol\":6153:6169  currentUserIndex */\n      0x05\n        /* \"Contract.sol\":6153:6177  currentUserIndex[gameId] */\n      0x00\n        /* \"Contract.sol\":6170:6176  gameId */\n      dup6\n        /* \"Contract.sol\":6153:6177  currentUserIndex[gameId] */\n      0xff\n      and\n      0xff\n      and\n      dup2\n      mstore\n      0x20\n      add\n      swap1\n      dup2\n      mstore\n      0x20\n      add\n      0x00\n      keccak256\n      sload\n        /* \"Contract.sol\":6153:6182  currentUserIndex[gameId] >= 3 */\n      lt\n        /* \"Contract.sol\":6149:9278  if (currentUserIndex[gameId] >= 3) {\r... */\n      tag_150\n      jumpi\n        /* \"Contract.sol\":6199:6216  uint256 userIndex */\n      0x00\n        /* \"Contract.sol\":6219:6264  culcNextWinnerIndex(currentUserIndex[gameId]) */\n      tag_151\n        /* \"Contract.sol\":6239:6255  currentUserIndex */\n      0x05\n        /* \"Contract.sol\":6239:6263  currentUserIndex[gameId] */\n      0x00\n        /* \"Contract.sol\":6256:6262  gameId */\n      dup7\n        /* \"Contract.sol\":6239:6263  currentUserIndex[gameId] */\n      0xff\n      and\n      0xff\n      and\n      dup2\n      mstore\n      0x20\n      add\n      swap1\n      dup2\n      mstore\n      0x20\n      add\n      0x00\n      keccak256\n      sload\n        /* \"Contract.sol\":6219:6238  culcNextWinnerIndex */\n      tag_152\n        /* \"Contract.sol\":6219:6264  culcNextWinnerIndex(currentUserIndex[gameId]) */\n      jump\t// in\n    tag_151:\n        /* \"Contract.sol\":6199:6264  uint256 userIndex = culcNextWinnerIndex(currentUserIndex[gameId]) */\n      swap1\n      pop\n        /* \"Contract.sol\":6405:9267  while (userIndex != 0) {\r... */\n    tag_153:\n        /* \"Contract.sol\":6425:6426  0 */\n      0x00\n        /* \"Contract.sol\":6412:6421  userIndex */\n      dup2\n        /* \"Contract.sol\":6412:6426  userIndex != 0 */\n      eq\n        /* \"Contract.sol\":6405:9267  while (userIndex != 0) {\r... */\n      tag_154\n      jumpi\n        /* \"Contract.sol\":6447:6470  address selectedAddress */\n      0x00\n        /* \"Contract.sol\":6473:6478  pools */\n      0x06\n        /* \"Contract.sol\":6473:6486  pools[gameId] */\n      0x00\n        /* \"Contract.sol\":6479:6485  gameId */\n      dup7\n        /* \"Contract.sol\":6473:6486  pools[gameId] */\n      0xff\n      and\n      0xff\n      and\n      dup2\n      mstore\n      0x20\n      add\n      swap1\n      dup2\n      mstore\n      0x20\n      add\n      0x00\n      keccak256\n        /* \"Contract.sol\":6473:6501  pools[gameId][userIndex - 1] */\n      0x00\n        /* \"Contract.sol\":6499:6500  1 */\n      0x01\n        /* \"Contract.sol\":6487:6496  userIndex */\n      dup5\n        /* \"Contract.sol\":6487:6500  userIndex - 1 */\n      tag_155\n      swap2\n      swap1\n      tag_156\n      jump\t// in\n    tag_155:\n        /* \"Contract.sol\":6473:6501  pools[gameId][userIndex - 1] */\n      dup2\n      mstore\n      0x20\n      add\n      swap1\n      dup2\n      mstore\n      0x20\n      add\n      0x00\n      keccak256\n        /* \"Contract.sol\":6473:6513  pools[gameId][userIndex - 1].userAddress */\n      0x01\n      add\n      0x00\n      swap1\n      sload\n      swap1\n      0x0100\n      exp\n      swap1\n      div\n      0xffffffffffffffffffffffffffffffffffffffff\n      and\n        /* \"Contract.sol\":6447:6513  address selectedAddress = pools[gameId][userIndex - 1].userAddress */\n      swap1\n      pop\n        /* \"Contract.sol\":6719:6720  1 */\n      0x01\n        /* \"Contract.sol\":6678:6690  userPayments */\n      0x07\n        /* \"Contract.sol\":6678:6707  userPayments[selectedAddress] */\n      0x00\n        /* \"Contract.sol\":6691:6706  selectedAddress */\n      dup4\n        /* \"Contract.sol\":6678:6707  userPayments[selectedAddress] */\n      0xffffffffffffffffffffffffffffffffffffffff\n      and\n      0xffffffffffffffffffffffffffffffffffffffff\n      and\n      dup2\n      mstore\n      0x20\n      add\n      swap1\n      dup2\n      mstore\n      0x20\n      add\n      0x00\n      keccak256\n        /* \"Contract.sol\":6678:6715  userPayments[selectedAddress][gameId] */\n      0x00\n        /* \"Contract.sol\":6708:6714  gameId */\n      dup8\n        /* \"Contract.sol\":6678:6715  userPayments[selectedAddress][gameId] */\n      0xff\n      and\n      0xff\n      and\n      dup2\n      mstore\n      0x20\n      add\n      swap1\n      dup2\n      mstore\n      0x20\n      add\n      0x00\n      keccak256\n      sload\n        /* \"Contract.sol\":6678:6720  userPayments[selectedAddress][gameId] <= 1 */\n      gt\n      iszero\n        /* \"Contract.sol\":6678:6760  userPayments[selectedAddress][gameId] <= 1 || userGames[selectedAddress][gameId+1] */\n      dup1\n      tag_157\n      jumpi\n      pop\n        /* \"Contract.sol\":6724:6733  userGames */\n      0x08\n        /* \"Contract.sol\":6724:6750  userGames[selectedAddress] */\n      0x00\n        /* \"Contract.sol\":6734:6749  selectedAddress */\n      dup3\n        /* \"Contract.sol\":6724:6750  userGames[selectedAddress] */\n      0xffffffffffffffffffffffffffffffffffffffff\n      and\n      0xffffffffffffffffffffffffffffffffffffffff\n      and\n      dup2\n      mstore\n      0x20\n      add\n      swap1\n      dup2\n      mstore\n      0x20\n      add\n      0x00\n      keccak256\n        /* \"Contract.sol\":6724:6760  userGames[selectedAddress][gameId+1] */\n      0x00\n        /* \"Contract.sol\":6758:6759  1 */\n      0x01\n        /* \"Contract.sol\":6751:6757  gameId */\n      dup8\n        /* \"Contract.sol\":6751:6759  gameId+1 */\n      tag_158\n      swap2\n      swap1\n      tag_109\n      jump\t// in\n    tag_158:\n        /* \"Contract.sol\":6724:6760  userGames[selectedAddress][gameId+1] */\n      0xff\n      and\n      0xff\n      and\n      dup2\n      mstore\n      0x20\n      add\n      swap1\n      dup2\n      mstore\n      0x20\n      add\n      0x00\n      keccak256\n      0x00\n      swap1\n      sload\n      swap1\n      0x0100\n      exp\n      swap1\n      div\n      0xff\n      and\n        /* \"Contract.sol\":6678:6760  userPayments[selectedAddress][gameId] <= 1 || userGames[selectedAddress][gameId+1] */\n    tag_157:\n        /* \"Contract.sol\":6674:9252  if (userPayments[selectedAddress][gameId] <= 1 || userGames[selectedAddress][gameId+1]) {\r... */\n      iszero\n      tag_159\n      jumpi\n        /* \"Contract.sol\":6962:6974  bool success */\n      0x00\n        /* \"Contract.sol\":6980:6995  selectedAddress */\n      dup2\n        /* \"Contract.sol\":6980:7000  selectedAddress.call */\n      0xffffffffffffffffffffffffffffffffffffffff\n      and\n        /* \"Contract.sol\":7049:7052  100 */\n      0x64\n        /* \"Contract.sol\":275:277  74 */\n      0x4a\n        /* \"Contract.sol\":7008:7014  levels */\n      0x02\n        /* \"Contract.sol\":7008:7022  levels[gameId] */\n      0x00\n        /* \"Contract.sol\":7015:7021  gameId */\n      dup11\n        /* \"Contract.sol\":7008:7022  levels[gameId] */\n      0xff\n      and\n      0xff\n      and\n      dup2\n      mstore\n      0x20\n      add\n      swap1\n      dup2\n      mstore\n      0x20\n      add\n      0x00\n      keccak256\n        /* \"Contract.sol\":7008:7034  levels[gameId].amountToPay */\n      0x00\n      add\n      sload\n        /* \"Contract.sol\":7008:7046  levels[gameId].amountToPay * baseAward */\n      tag_160\n      swap2\n      swap1\n      tag_161\n      jump\t// in\n    tag_160:\n        /* \"Contract.sol\":7008:7052  levels[gameId].amountToPay * baseAward / 100 */\n      tag_162\n      swap2\n      swap1\n      tag_163\n      jump\t// in\n    tag_162:\n        /* \"Contract.sol\":6980:7057  selectedAddress.call{value: levels[gameId].amountToPay * baseAward / 100}(\"\") */\n      mload(0x40)\n      tag_164\n      swap1\n      tag_165\n      jump\t// in\n    tag_164:\n      0x00\n      mload(0x40)\n      dup1\n      dup4\n      sub\n      dup2\n      dup6\n      dup8\n      gas\n      call\n      swap3\n      pop\n      pop\n      pop\n      returndatasize\n      dup1\n      0x00\n      dup2\n      eq\n      tag_168\n      jumpi\n      mload(0x40)\n      swap2\n      pop\n      and(add(returndatasize, 0x3f), not(0x1f))\n      dup3\n      add\n      0x40\n      mstore\n      returndatasize\n      dup3\n      mstore\n      returndatasize\n      0x00\n      0x20\n      dup5\n      add\n      returndatacopy\n      jump(tag_167)\n    tag_168:\n      0x60\n      swap2\n      pop\n    tag_167:\n      pop\n        /* \"Contract.sol\":6961:7057  (bool success, ) = selectedAddress.call{value: levels[gameId].amountToPay * baseAward / 100}(\"\") */\n      pop\n      swap1\n      pop\n        /* \"Contract.sol\":7121:7122  1 */\n      0x01\n        /* \"Contract.sol\":7080:7092  userPayments */\n      0x07\n        /* \"Contract.sol\":7080:7109  userPayments[selectedAddress] */\n      0x00\n        /* \"Contract.sol\":7093:7108  selectedAddress */\n      dup5\n        /* \"Contract.sol\":7080:7109  userPayments[selectedAddress] */\n      0xffffffffffffffffffffffffffffffffffffffff\n      and\n      0xffffffffffffffffffffffffffffffffffffffff\n      and\n      dup2\n      mstore\n      0x20\n      add\n      swap1\n      dup2\n      mstore\n      0x20\n      add\n      0x00\n      keccak256\n        /* \"Contract.sol\":7080:7117  userPayments[selectedAddress][gameId] */\n      0x00\n        /* \"Contract.sol\":7110:7116  gameId */\n      dup9\n        /* \"Contract.sol\":7080:7117  userPayments[selectedAddress][gameId] */\n      0xff\n      and\n      0xff\n      and\n      dup2\n      mstore\n      0x20\n      add\n      swap1\n      dup2\n      mstore\n      0x20\n      add\n      0x00\n      keccak256\n      0x00\n        /* \"Contract.sol\":7080:7122  userPayments[selectedAddress][gameId] += 1 */\n      dup3\n      dup3\n      sload\n      tag_169\n      swap2\n      swap1\n      tag_130\n      jump\t// in\n    tag_169:\n      swap3\n      pop\n      pop\n      dup2\n      swap1\n      sstore\n      pop\n        /* \"Contract.sol\":7204:7274  GamePaymentEvent(levels[gameId].amountToPay, selectedAddress, success) */\n      0x99af5599bf20c9414934ff2eb4264f5ac1a42fe0e5ec331366cf59ed0641c1bd\n        /* \"Contract.sol\":7221:7227  levels */\n      0x02\n        /* \"Contract.sol\":7221:7235  levels[gameId] */\n      0x00\n        /* \"Contract.sol\":7228:7234  gameId */\n      dup9\n        /* \"Contract.sol\":7221:7235  levels[gameId] */\n      0xff\n      and\n      0xff\n      and\n      dup2\n      mstore\n      0x20\n      add\n      swap1\n      dup2\n      mstore\n      0x20\n      add\n      0x00\n      keccak256\n        /* \"Contract.sol\":7221:7247  levels[gameId].amountToPay */\n      0x00\n      add\n      sload\n        /* \"Contract.sol\":7249:7264  selectedAddress */\n      dup4\n        /* \"Contract.sol\":7266:7273  success */\n      dup4\n        /* \"Contract.sol\":7204:7274  GamePaymentEvent(levels[gameId].amountToPay, selectedAddress, success) */\n      mload(0x40)\n      tag_170\n      swap4\n      swap3\n      swap2\n      swap1\n      tag_171\n      jump\t// in\n    tag_170:\n      mload(0x40)\n      dup1\n      swap2\n      sub\n      swap1\n      log1\n        /* \"Contract.sol\":7299:7313  uint256 userId */\n      0x00\n        /* \"Contract.sol\":7316:7321  pools */\n      0x06\n        /* \"Contract.sol\":7316:7329  pools[gameId] */\n      0x00\n        /* \"Contract.sol\":7322:7328  gameId */\n      dup9\n        /* \"Contract.sol\":7316:7329  pools[gameId] */\n      0xff\n      and\n      0xff\n      and\n      dup2\n      mstore\n      0x20\n      add\n      swap1\n      dup2\n      mstore\n      0x20\n      add\n      0x00\n      keccak256\n        /* \"Contract.sol\":7316:7344  pools[gameId][userIndex - 1] */\n      0x00\n        /* \"Contract.sol\":7342:7343  1 */\n      0x01\n        /* \"Contract.sol\":7330:7339  userIndex */\n      dup7\n        /* \"Contract.sol\":7330:7343  userIndex - 1 */\n      tag_172\n      swap2\n      swap1\n      tag_156\n      jump\t// in\n    tag_172:\n        /* \"Contract.sol\":7316:7344  pools[gameId][userIndex - 1] */\n      dup2\n      mstore\n      0x20\n      add\n      swap1\n      dup2\n      mstore\n      0x20\n      add\n      0x00\n      keccak256\n        /* \"Contract.sol\":7316:7351  pools[gameId][userIndex - 1].userId */\n      0x00\n      add\n      sload\n        /* \"Contract.sol\":7299:7351  uint256 userId = pools[gameId][userIndex - 1].userId */\n      swap1\n      pop\n        /* \"Contract.sol\":7403:7420  uint256 invitedId */\n      0x00\n        /* \"Contract.sol\":7423:7428  pools */\n      0x06\n        /* \"Contract.sol\":7423:7436  pools[gameId] */\n      0x00\n        /* \"Contract.sol\":7429:7435  gameId */\n      dup10\n        /* \"Contract.sol\":7423:7436  pools[gameId] */\n      0xff\n      and\n      0xff\n      and\n      dup2\n      mstore\n      0x20\n      add\n      swap1\n      dup2\n      mstore\n      0x20\n      add\n      0x00\n      keccak256\n        /* \"Contract.sol\":7423:7451  pools[gameId][userIndex - 1] */\n      0x00\n        /* \"Contract.sol\":7449:7450  1 */\n      0x01\n        /* \"Contract.sol\":7437:7446  userIndex */\n      dup8\n        /* \"Contract.sol\":7437:7450  userIndex - 1 */\n      tag_173\n      swap2\n      swap1\n      tag_156\n      jump\t// in\n    tag_173:\n        /* \"Contract.sol\":7423:7451  pools[gameId][userIndex - 1] */\n      dup2\n      mstore\n      0x20\n      add\n      swap1\n      dup2\n      mstore\n      0x20\n      add\n      0x00\n      keccak256\n        /* \"Contract.sol\":7423:7461  pools[gameId][userIndex - 1].invitedId */\n      0x02\n      add\n      sload\n        /* \"Contract.sol\":7403:7461  uint256 invitedId = pools[gameId][userIndex - 1].invitedId */\n      swap1\n      pop\n        /* \"Contract.sol\":7521:7534  uint refValue */\n      0x00\n        /* \"Contract.sol\":7586:7589  100 */\n      0x64\n        /* \"Contract.sol\":338:340  10 */\n      0x0a\n        /* \"Contract.sol\":7537:7543  levels */\n      0x02\n        /* \"Contract.sol\":7537:7551  levels[gameId] */\n      0x00\n        /* \"Contract.sol\":7544:7550  gameId */\n      dup13\n        /* \"Contract.sol\":7537:7551  levels[gameId] */\n      0xff\n      and\n      0xff\n      and\n      dup2\n      mstore\n      0x20\n      add\n      swap1\n      dup2\n      mstore\n      0x20\n      add\n      0x00\n      keccak256\n        /* \"Contract.sol\":7537:7563  levels[gameId].amountToPay */\n      0x00\n      add\n      sload\n        /* \"Contract.sol\":7537:7583  levels[gameId].amountToPay * firstLevelReferal */\n      tag_174\n      swap2\n      swap1\n      tag_161\n      jump\t// in\n    tag_174:\n        /* \"Contract.sol\":7537:7589  levels[gameId].amountToPay * firstLevelReferal / 100 */\n      tag_175\n      swap2\n      swap1\n      tag_163\n      jump\t// in\n    tag_175:\n        /* \"Contract.sol\":7521:7589  uint refValue = levels[gameId].amountToPay * firstLevelReferal / 100 */\n      swap1\n      pop\n        /* \"Contract.sol\":7651:7658  usersId */\n      0x03\n        /* \"Contract.sol\":7651:7669  usersId[invitedId] */\n      0x00\n        /* \"Contract.sol\":7659:7668  invitedId */\n      dup4\n        /* \"Contract.sol\":7651:7669  usersId[invitedId] */\n      dup2\n      mstore\n      0x20\n      add\n      swap1\n      dup2\n      mstore\n      0x20\n      add\n      0x00\n      keccak256\n      0x00\n      swap1\n      sload\n      swap1\n      0x0100\n      exp\n      swap1\n      div\n      0xffffffffffffffffffffffffffffffffffffffff\n      and\n        /* \"Contract.sol\":7651:7674  usersId[invitedId].call */\n      0xffffffffffffffffffffffffffffffffffffffff\n      and\n        /* \"Contract.sol\":7682:7690  refValue */\n      dup2\n        /* \"Contract.sol\":7651:7695  usersId[invitedId].call{value: refValue}(\"\") */\n      mload(0x40)\n      tag_176\n      swap1\n      tag_165\n      jump\t// in\n    tag_176:\n      0x00\n      mload(0x40)\n      dup1\n      dup4\n      sub\n      dup2\n      dup6\n      dup8\n      gas\n      call\n      swap3\n      pop\n      pop\n      pop\n      returndatasize\n      dup1\n      0x00\n      dup2\n      eq\n      tag_179\n      jumpi\n      mload(0x40)\n      swap2\n      pop\n      and(add(returndatasize, 0x3f), not(0x1f))\n      dup3\n      add\n      0x40\n      mstore\n      returndatasize\n      dup3\n      mstore\n      returndatasize\n      0x00\n      0x20\n      dup5\n      add\n      returndatacopy\n      jump(tag_178)\n    tag_179:\n      0x60\n      swap2\n      pop\n    tag_178:\n      pop\n        /* \"Contract.sol\":7637:7695  (success, ) = usersId[invitedId].call{value: refValue}(\"\") */\n      pop\n      dup1\n      swap5\n      pop\n      pop\n        /* \"Contract.sol\":7724:7731  success */\n      dup4\n        /* \"Contract.sol\":7720:7814  if (success) emit ReferalPaymentEvent(levels[gameId].amountToPay, userId, invitedId, refValue) */\n      iszero\n      tag_180\n      jumpi\n        /* \"Contract.sol\":7738:7814  ReferalPaymentEvent(levels[gameId].amountToPay, userId, invitedId, refValue) */\n      0x394d81fc6d726f376ac7e03cfb1bf07f04a993ec0a3fe7f4782e2ef8e5416145\n        /* \"Contract.sol\":7758:7764  levels */\n      0x02\n        /* \"Contract.sol\":7758:7772  levels[gameId] */\n      0x00\n        /* \"Contract.sol\":7765:7771  gameId */\n      dup12\n        /* \"Contract.sol\":7758:7772  levels[gameId] */\n      0xff\n      and\n      0xff\n      and\n      dup2\n      mstore\n      0x20\n      add\n      swap1\n      dup2\n      mstore\n      0x20\n      add\n      0x00\n      keccak256\n        /* \"Contract.sol\":7758:7784  levels[gameId].amountToPay */\n      0x00\n      add\n      sload\n        /* \"Contract.sol\":7786:7792  userId */\n      dup5\n        /* \"Contract.sol\":7794:7803  invitedId */\n      dup5\n        /* \"Contract.sol\":7805:7813  refValue */\n      dup5\n        /* \"Contract.sol\":7738:7814  ReferalPaymentEvent(levels[gameId].amountToPay, userId, invitedId, refValue) */\n      mload(0x40)\n      tag_181\n      swap5\n      swap4\n      swap3\n      swap2\n      swap1\n      tag_182\n      jump\t// in\n    tag_181:\n      mload(0x40)\n      dup1\n      swap2\n      sub\n      swap1\n      log1\n        /* \"Contract.sol\":7720:7814  if (success) emit ReferalPaymentEvent(levels[gameId].amountToPay, userId, invitedId, refValue) */\n    tag_180:\n        /* \"Contract.sol\":7900:7903  100 */\n      0x64\n        /* \"Contract.sol\":415:416  6 */\n      0x06\n        /* \"Contract.sol\":7850:7856  levels */\n      0x02\n        /* \"Contract.sol\":7850:7864  levels[gameId] */\n      0x00\n        /* \"Contract.sol\":7857:7863  gameId */\n      dup13\n        /* \"Contract.sol\":7850:7864  levels[gameId] */\n      0xff\n      and\n      0xff\n      and\n      dup2\n      mstore\n      0x20\n      add\n      swap1\n      dup2\n      mstore\n      0x20\n      add\n      0x00\n      keccak256\n        /* \"Contract.sol\":7850:7876  levels[gameId].amountToPay */\n      0x00\n      add\n      sload\n        /* \"Contract.sol\":7850:7897  levels[gameId].amountToPay * secondLevelReferal */\n      tag_183\n      swap2\n      swap1\n      tag_161\n      jump\t// in\n    tag_183:\n        /* \"Contract.sol\":7850:7903  levels[gameId].amountToPay * secondLevelReferal / 100 */\n      tag_184\n      swap2\n      swap1\n      tag_163\n      jump\t// in\n    tag_184:\n        /* \"Contract.sol\":7839:7903  refValue = levels[gameId].amountToPay * secondLevelReferal / 100 */\n      swap1\n      pop\n        /* \"Contract.sol\":7964:7979  registeredUsers */\n      0x04\n        /* \"Contract.sol\":7964:7999  registeredUsers[usersId[invitedId]] */\n      0x00\n        /* \"Contract.sol\":7980:7987  usersId */\n      0x03\n        /* \"Contract.sol\":7980:7998  usersId[invitedId] */\n      0x00\n        /* \"Contract.sol\":7988:7997  invitedId */\n      dup6\n        /* \"Contract.sol\":7980:7998  usersId[invitedId] */\n      dup2\n      mstore\n      0x20\n      add\n      swap1\n      dup2\n      mstore\n      0x20\n      add\n      0x00\n      keccak256\n      0x00\n      swap1\n      sload\n      swap1\n      0x0100\n      exp\n      swap1\n      div\n      0xffffffffffffffffffffffffffffffffffffffff\n      and\n        /* \"Contract.sol\":7964:7999  registeredUsers[usersId[invitedId]] */\n      0xffffffffffffffffffffffffffffffffffffffff\n      and\n      0xffffffffffffffffffffffffffffffffffffffff\n      and\n      dup2\n      mstore\n      0x20\n      add\n      swap1\n      dup2\n      mstore\n      0x20\n      add\n      0x00\n      keccak256\n        /* \"Contract.sol\":7964:8011  registeredUsers[usersId[invitedId]].userAddress */\n      0x01\n      add\n      0x00\n      swap1\n      sload\n      swap1\n      0x0100\n      exp\n      swap1\n      div\n      0xffffffffffffffffffffffffffffffffffffffff\n      and\n        /* \"Contract.sol\":7964:8016  registeredUsers[usersId[invitedId]].userAddress.call */\n      0xffffffffffffffffffffffffffffffffffffffff\n      and\n        /* \"Contract.sol\":8024:8032  refValue */\n      dup2\n        /* \"Contract.sol\":7964:8037  registeredUsers[usersId[invitedId]].userAddress.call{value: refValue}(\"\") */\n      mload(0x40)\n      tag_185\n      swap1\n      tag_165\n      jump\t// in\n    tag_185:\n      0x00\n      mload(0x40)\n      dup1\n      dup4\n      sub\n      dup2\n      dup6\n      dup8\n      gas\n      call\n      swap3\n      pop\n      pop\n      pop\n      returndatasize\n      dup1\n      0x00\n      dup2\n      eq\n      tag_188\n      jumpi\n      mload(0x40)\n      swap2\n      pop\n      and(add(returndatasize, 0x3f), not(0x1f))\n      dup3\n      add\n      0x40\n      mstore\n      returndatasize\n      dup3\n      mstore\n      returndatasize\n      0x00\n      0x20\n      dup5\n      add\n      returndatacopy\n      jump(tag_187)\n    tag_188:\n      0x60\n      swap2\n      pop\n    tag_187:\n      pop\n        /* \"Contract.sol\":7950:8037  (success, ) = registeredUsers[usersId[invitedId]].userAddress.call{value: refValue}(\"\") */\n      pop\n      dup1\n      swap5\n      pop\n      pop\n        /* \"Contract.sol\":8092:8099  success */\n      dup4\n        /* \"Contract.sol\":8088:8218  if (success) emit ReferalPaymentEvent(levels[gameId].amountToPay, invitedId, registeredUsers[usersId[invitedId]].userId, refValue) */\n      iszero\n      tag_189\n      jumpi\n        /* \"Contract.sol\":8106:8218  ReferalPaymentEvent(levels[gameId].amountToPay, invitedId, registeredUsers[usersId[invitedId]].userId, refValue) */\n      0x394d81fc6d726f376ac7e03cfb1bf07f04a993ec0a3fe7f4782e2ef8e5416145\n        /* \"Contract.sol\":8126:8132  levels */\n      0x02\n        /* \"Contract.sol\":8126:8140  levels[gameId] */\n      0x00\n        /* \"Contract.sol\":8133:8139  gameId */\n      dup12\n        /* \"Contract.sol\":8126:8140  levels[gameId] */\n      0xff\n      and\n      0xff\n      and\n      dup2\n      mstore\n      0x20\n      add\n      swap1\n      dup2\n      mstore\n      0x20\n      add\n      0x00\n      keccak256\n        /* \"Contract.sol\":8126:8152  levels[gameId].amountToPay */\n      0x00\n      add\n      sload\n        /* \"Contract.sol\":8154:8163  invitedId */\n      dup4\n        /* \"Contract.sol\":8165:8180  registeredUsers */\n      0x04\n        /* \"Contract.sol\":8165:8200  registeredUsers[usersId[invitedId]] */\n      0x00\n        /* \"Contract.sol\":8181:8188  usersId */\n      0x03\n        /* \"Contract.sol\":8181:8199  usersId[invitedId] */\n      0x00\n        /* \"Contract.sol\":8189:8198  invitedId */\n      dup9\n        /* \"Contract.sol\":8181:8199  usersId[invitedId] */\n      dup2\n      mstore\n      0x20\n      add\n      swap1\n      dup2\n      mstore\n      0x20\n      add\n      0x00\n      keccak256\n      0x00\n      swap1\n      sload\n      swap1\n      0x0100\n      exp\n      swap1\n      div\n      0xffffffffffffffffffffffffffffffffffffffff\n      and\n        /* \"Contract.sol\":8165:8200  registeredUsers[usersId[invitedId]] */\n      0xffffffffffffffffffffffffffffffffffffffff\n      and\n      0xffffffffffffffffffffffffffffffffffffffff\n      and\n      dup2\n      mstore\n      0x20\n      add\n      swap1\n      dup2\n      mstore\n      0x20\n      add\n      0x00\n      keccak256\n        /* \"Contract.sol\":8165:8207  registeredUsers[usersId[invitedId]].userId */\n      0x00\n      add\n      sload\n        /* \"Contract.sol\":8209:8217  refValue */\n      dup5\n        /* \"Contract.sol\":8106:8218  ReferalPaymentEvent(levels[gameId].amountToPay, invitedId, registeredUsers[usersId[invitedId]].userId, refValue) */\n      mload(0x40)\n      tag_190\n      swap5\n      swap4\n      swap3\n      swap2\n      swap1\n      tag_182\n      jump\t// in\n    tag_190:\n      mload(0x40)\n      dup1\n      swap2\n      sub\n      swap1\n      log1\n        /* \"Contract.sol\":8088:8218  if (success) emit ReferalPaymentEvent(levels[gameId].amountToPay, invitedId, registeredUsers[usersId[invitedId]].userId, refValue) */\n    tag_189:\n        /* \"Contract.sol\":8303:8306  100 */\n      0x64\n        /* \"Contract.sol\":490:491  4 */\n      0x04\n        /* \"Contract.sol\":8254:8260  levels */\n      0x02\n        /* \"Contract.sol\":8254:8268  levels[gameId] */\n      0x00\n        /* \"Contract.sol\":8261:8267  gameId */\n      dup13\n        /* \"Contract.sol\":8254:8268  levels[gameId] */\n      0xff\n      and\n      0xff\n      and\n      dup2\n      mstore\n      0x20\n      add\n      swap1\n      dup2\n      mstore\n      0x20\n      add\n      0x00\n      keccak256\n        /* \"Contract.sol\":8254:8280  levels[gameId].amountToPay */\n      0x00\n      add\n      sload\n        /* \"Contract.sol\":8254:8300  levels[gameId].amountToPay * thirdLevelReferal */\n      tag_191\n      swap2\n      swap1\n      tag_161\n      jump\t// in\n    tag_191:\n        /* \"Contract.sol\":8254:8306  levels[gameId].amountToPay * thirdLevelReferal / 100 */\n      tag_192\n      swap2\n      swap1\n      tag_163\n      jump\t// in\n    tag_192:\n        /* \"Contract.sol\":8243:8306  refValue = levels[gameId].amountToPay * thirdLevelReferal / 100 */\n      swap1\n      pop\n        /* \"Contract.sol\":8366:8381  registeredUsers */\n      0x04\n        /* \"Contract.sol\":8366:8434  registeredUsers[usersId[registeredUsers[usersId[invitedId]].userId]] */\n      0x00\n        /* \"Contract.sol\":8382:8389  usersId */\n      0x03\n        /* \"Contract.sol\":8382:8433  usersId[registeredUsers[usersId[invitedId]].userId] */\n      0x00\n        /* \"Contract.sol\":8390:8405  registeredUsers */\n      0x04\n        /* \"Contract.sol\":8390:8425  registeredUsers[usersId[invitedId]] */\n      0x00\n        /* \"Contract.sol\":8406:8413  usersId */\n      0x03\n        /* \"Contract.sol\":8406:8424  usersId[invitedId] */\n      0x00\n        /* \"Contract.sol\":8414:8423  invitedId */\n      dup10\n        /* \"Contract.sol\":8406:8424  usersId[invitedId] */\n      dup2\n      mstore\n      0x20\n      add\n      swap1\n      dup2\n      mstore\n      0x20\n      add\n      0x00\n      keccak256\n      0x00\n      swap1\n      sload\n      swap1\n      0x0100\n      exp\n      swap1\n      div\n      0xffffffffffffffffffffffffffffffffffffffff\n      and\n        /* \"Contract.sol\":8390:8425  registeredUsers[usersId[invitedId]] */\n      0xffffffffffffffffffffffffffffffffffffffff\n      and\n      0xffffffffffffffffffffffffffffffffffffffff\n      and\n      dup2\n      mstore\n      0x20\n      add\n      swap1\n      dup2\n      mstore\n      0x20\n      add\n      0x00\n      keccak256\n        /* \"Contract.sol\":8390:8432  registeredUsers[usersId[invitedId]].userId */\n      0x00\n      add\n      sload\n        /* \"Contract.sol\":8382:8433  usersId[registeredUsers[usersId[invitedId]].userId] */\n      dup2\n      mstore\n      0x20\n      add\n      swap1\n      dup2\n      mstore\n      0x20\n      add\n      0x00\n      keccak256\n      0x00\n      swap1\n      sload\n      swap1\n      0x0100\n      exp\n      swap1\n      div\n      0xffffffffffffffffffffffffffffffffffffffff\n      and\n        /* \"Contract.sol\":8366:8434  registeredUsers[usersId[registeredUsers[usersId[invitedId]].userId]] */\n      0xffffffffffffffffffffffffffffffffffffffff\n      and\n      0xffffffffffffffffffffffffffffffffffffffff\n      and\n      dup2\n      mstore\n      0x20\n      add\n      swap1\n      dup2\n      mstore\n      0x20\n      add\n      0x00\n      keccak256\n        /* \"Contract.sol\":8366:8446  registeredUsers[usersId[registeredUsers[usersId[invitedId]].userId]].userAddress */\n      0x01\n      add\n      0x00\n      swap1\n      sload\n      swap1\n      0x0100\n      exp\n      swap1\n      div\n      0xffffffffffffffffffffffffffffffffffffffff\n      and\n        /* \"Contract.sol\":8366:8451  registeredUsers[usersId[registeredUsers[usersId[invitedId]].userId]].userAddress.call */\n      0xffffffffffffffffffffffffffffffffffffffff\n      and\n        /* \"Contract.sol\":8459:8467  refValue */\n      dup2\n        /* \"Contract.sol\":8366:8472  registeredUsers[usersId[registeredUsers[usersId[invitedId]].userId]].userAddress.call{value: refValue}(\"\") */\n      mload(0x40)\n      tag_193\n      swap1\n      tag_165\n      jump\t// in\n    tag_193:\n      0x00\n      mload(0x40)\n      dup1\n      dup4\n      sub\n      dup2\n      dup6\n      dup8\n      gas\n      call\n      swap3\n      pop\n      pop\n      pop\n      returndatasize\n      dup1\n      0x00\n      dup2\n      eq\n      tag_196\n      jumpi\n      mload(0x40)\n      swap2\n      pop\n      and(add(returndatasize, 0x3f), not(0x1f))\n      dup3\n      add\n      0x40\n      mstore\n      returndatasize\n      dup3\n      mstore\n      returndatasize\n      0x00\n      0x20\n      dup5\n      add\n      returndatacopy\n      jump(tag_195)\n    tag_196:\n      0x60\n      swap2\n      pop\n    tag_195:\n      pop\n        /* \"Contract.sol\":8352:8472  (success, ) = registeredUsers[usersId[registeredUsers[usersId[invitedId]].userId]].userAddress.call{value: refValue}(\"\") */\n      pop\n      dup1\n      swap5\n      pop\n      pop\n        /* \"Contract.sol\":8501:8508  success */\n      dup4\n        /* \"Contract.sol\":8497:8693  if (success) emit ReferalPaymentEvent(levels[gameId].amountToPay, registeredUsers[usersId[invitedId]].userId, registeredUsers[usersId[registeredUsers[usersId[invitedId]].userId]].userId, refValue) */\n      iszero\n      tag_197\n      jumpi\n        /* \"Contract.sol\":8515:8693  ReferalPaymentEvent(levels[gameId].amountToPay, registeredUsers[usersId[invitedId]].userId, registeredUsers[usersId[registeredUsers[usersId[invitedId]].userId]].userId, refValue) */\n      0x394d81fc6d726f376ac7e03cfb1bf07f04a993ec0a3fe7f4782e2ef8e5416145\n        /* \"Contract.sol\":8535:8541  levels */\n      0x02\n        /* \"Contract.sol\":8535:8549  levels[gameId] */\n      0x00\n        /* \"Contract.sol\":8542:8548  gameId */\n      dup12\n        /* \"Contract.sol\":8535:8549  levels[gameId] */\n      0xff\n      and\n      0xff\n      and\n      dup2\n      mstore\n      0x20\n      add\n      swap1\n      dup2\n      mstore\n      0x20\n      add\n      0x00\n      keccak256\n        /* \"Contract.sol\":8535:8561  levels[gameId].amountToPay */\n      0x00\n      add\n      sload\n        /* \"Contract.sol\":8563:8578  registeredUsers */\n      0x04\n        /* \"Contract.sol\":8563:8598  registeredUsers[usersId[invitedId]] */\n      0x00\n        /* \"Contract.sol\":8579:8586  usersId */\n      0x03\n        /* \"Contract.sol\":8579:8597  usersId[invitedId] */\n      0x00\n        /* \"Contract.sol\":8587:8596  invitedId */\n      dup8\n        /* \"Contract.sol\":8579:8597  usersId[invitedId] */\n      dup2\n      mstore\n      0x20\n      add\n      swap1\n      dup2\n      mstore\n      0x20\n      add\n      0x00\n      keccak256\n      0x00\n      swap1\n      sload\n      swap1\n      0x0100\n      exp\n      swap1\n      div\n      0xffffffffffffffffffffffffffffffffffffffff\n      and\n        /* \"Contract.sol\":8563:8598  registeredUsers[usersId[invitedId]] */\n      0xffffffffffffffffffffffffffffffffffffffff\n      and\n      0xffffffffffffffffffffffffffffffffffffffff\n      and\n      dup2\n      mstore\n      0x20\n      add\n      swap1\n      dup2\n      mstore\n      0x20\n      add\n      0x00\n      keccak256\n        /* \"Contract.sol\":8563:8605  registeredUsers[usersId[invitedId]].userId */\n      0x00\n      add\n      sload\n        /* \"Contract.sol\":8607:8622  registeredUsers */\n      0x04\n        /* \"Contract.sol\":8607:8675  registeredUsers[usersId[registeredUsers[usersId[invitedId]].userId]] */\n      0x00\n        /* \"Contract.sol\":8623:8630  usersId */\n      0x03\n        /* \"Contract.sol\":8623:8674  usersId[registeredUsers[usersId[invitedId]].userId] */\n      0x00\n        /* \"Contract.sol\":8631:8646  registeredUsers */\n      0x04\n        /* \"Contract.sol\":8631:8666  registeredUsers[usersId[invitedId]] */\n      0x00\n        /* \"Contract.sol\":8647:8654  usersId */\n      0x03\n        /* \"Contract.sol\":8647:8665  usersId[invitedId] */\n      0x00\n        /* \"Contract.sol\":8655:8664  invitedId */\n      dup13\n        /* \"Contract.sol\":8647:8665  usersId[invitedId] */\n      dup2\n      mstore\n      0x20\n      add\n      swap1\n      dup2\n      mstore\n      0x20\n      add\n      0x00\n      keccak256\n      0x00\n      swap1\n      sload\n      swap1\n      0x0100\n      exp\n      swap1\n      div\n      0xffffffffffffffffffffffffffffffffffffffff\n      and\n        /* \"Contract.sol\":8631:8666  registeredUsers[usersId[invitedId]] */\n      0xffffffffffffffffffffffffffffffffffffffff\n      and\n      0xffffffffffffffffffffffffffffffffffffffff\n      and\n      dup2\n      mstore\n      0x20\n      add\n      swap1\n      dup2\n      mstore\n      0x20\n      add\n      0x00\n      keccak256\n        /* \"Contract.sol\":8631:8673  registeredUsers[usersId[invitedId]].userId */\n      0x00\n      add\n      sload\n        /* \"Contract.sol\":8623:8674  usersId[registeredUsers[usersId[invitedId]].userId] */\n      dup2\n      mstore\n      0x20\n      add\n      swap1\n      dup2\n      mstore\n      0x20\n      add\n      0x00\n      keccak256\n      0x00\n      swap1\n      sload\n      swap1\n      0x0100\n      exp\n      swap1\n      div\n      0xffffffffffffffffffffffffffffffffffffffff\n      and\n        /* \"Contract.sol\":8607:8675  registeredUsers[usersId[registeredUsers[usersId[invitedId]].userId]] */\n      0xffffffffffffffffffffffffffffffffffffffff\n      and\n      0xffffffffffffffffffffffffffffffffffffffff\n      and\n      dup2\n      mstore\n      0x20\n      add\n      swap1\n      dup2\n      mstore\n      0x20\n      add\n      0x00\n      keccak256\n        /* \"Contract.sol\":8607:8682  registeredUsers[usersId[registeredUsers[usersId[invitedId]].userId]].userId */\n      0x00\n      add\n      sload\n        /* \"Contract.sol\":8684:8692  refValue */\n      dup5\n        /* \"Contract.sol\":8515:8693  ReferalPaymentEvent(levels[gameId].amountToPay, registeredUsers[usersId[invitedId]].userId, registeredUsers[usersId[registeredUsers[usersId[invitedId]].userId]].userId, refValue) */\n      mload(0x40)\n      tag_198\n      swap5\n      swap4\n      swap3\n      swap2\n      swap1\n      tag_182\n      jump\t// in\n    tag_198:\n      mload(0x40)\n      dup1\n      swap2\n      sub\n      swap1\n      log1\n        /* \"Contract.sol\":8497:8693  if (success) emit ReferalPaymentEvent(levels[gameId].amountToPay, registeredUsers[usersId[invitedId]].userId, registeredUsers[usersId[registeredUsers[usersId[invitedId]].userId]].userId, refValue) */\n    tag_197:\n        /* \"Contract.sol\":8893:8896  100 */\n      0x64\n        /* \"Contract.sol\":559:560  6 */\n      0x06\n        /* \"Contract.sol\":8849:8855  levels */\n      0x02\n        /* \"Contract.sol\":8849:8863  levels[gameId] */\n      0x00\n        /* \"Contract.sol\":8856:8862  gameId */\n      dup13\n        /* \"Contract.sol\":8849:8863  levels[gameId] */\n      0xff\n      and\n      0xff\n      and\n      dup2\n      mstore\n      0x20\n      add\n      swap1\n      dup2\n      mstore\n      0x20\n      add\n      0x00\n      keccak256\n        /* \"Contract.sol\":8849:8875  levels[gameId].amountToPay */\n      0x00\n      add\n      sload\n        /* \"Contract.sol\":8849:8890  levels[gameId].amountToPay * ownerReferal */\n      tag_199\n      swap2\n      swap1\n      tag_161\n      jump\t// in\n    tag_199:\n        /* \"Contract.sol\":8849:8896  levels[gameId].amountToPay * ownerReferal / 100 */\n      tag_200\n      swap2\n      swap1\n      tag_163\n      jump\t// in\n    tag_200:\n        /* \"Contract.sol\":8838:8896  refValue = levels[gameId].amountToPay * ownerReferal / 100 */\n      swap1\n      pop\n        /* \"Contract.sol\":8950:8965  registeredUsers */\n      0x04\n        /* \"Contract.sol\":8950:8980  registeredUsers[contractOwner] */\n      0x00\n        /* \"Contract.sol\":8966:8979  contractOwner */\n      0x01\n      dup1\n      sload\n      swap1\n      0x0100\n      exp\n      swap1\n      div\n      0xffffffffffffffffffffffffffffffffffffffff\n      and\n        /* \"Contract.sol\":8950:8980  registeredUsers[contractOwner] */\n      0xffffffffffffffffffffffffffffffffffffffff\n      and\n      0xffffffffffffffffffffffffffffffffffffffff\n      and\n      dup2\n      mstore\n      0x20\n      add\n      swap1\n      dup2\n      mstore\n      0x20\n      add\n      0x00\n      keccak256\n        /* \"Contract.sol\":8950:8992  registeredUsers[contractOwner].userAddress */\n      0x01\n      add\n      0x00\n      swap1\n      sload\n      swap1\n      0x0100\n      exp\n      swap1\n      div\n      0xffffffffffffffffffffffffffffffffffffffff\n      and\n        /* \"Contract.sol\":8950:8997  registeredUsers[contractOwner].userAddress.call */\n      0xffffffffffffffffffffffffffffffffffffffff\n      and\n        /* \"Contract.sol\":9005:9013  refValue */\n      dup2\n        /* \"Contract.sol\":8950:9018  registeredUsers[contractOwner].userAddress.call{value: refValue}(\"\") */\n      mload(0x40)\n      tag_201\n      swap1\n      tag_165\n      jump\t// in\n    tag_201:\n      0x00\n      mload(0x40)\n      dup1\n      dup4\n      sub\n      dup2\n      dup6\n      dup8\n      gas\n      call\n      swap3\n      pop\n      pop\n      pop\n      returndatasize\n      dup1\n      0x00\n      dup2\n      eq\n      tag_204\n      jumpi\n      mload(0x40)\n      swap2\n      pop\n      and(add(returndatasize, 0x3f), not(0x1f))\n      dup3\n      add\n      0x40\n      mstore\n      returndatasize\n      dup3\n      mstore\n      returndatasize\n      0x00\n      0x20\n      dup5\n      add\n      returndatacopy\n      jump(tag_203)\n    tag_204:\n      0x60\n      swap2\n      pop\n    tag_203:\n      pop\n        /* \"Contract.sol\":8936:9018  (success, ) = registeredUsers[contractOwner].userAddress.call{value: refValue}(\"\") */\n      pop\n      dup1\n      swap5\n      pop\n      pop\n        /* \"Contract.sol\":9047:9054  success */\n      dup4\n        /* \"Contract.sol\":9043:9165  if (success) emit ReferalPaymentEvent(levels[gameId].amountToPay, userId, registeredUsers[contractOwner].userId, refValue) */\n      iszero\n      tag_205\n      jumpi\n        /* \"Contract.sol\":9061:9165  ReferalPaymentEvent(levels[gameId].amountToPay, userId, registeredUsers[contractOwner].userId, refValue) */\n      0x394d81fc6d726f376ac7e03cfb1bf07f04a993ec0a3fe7f4782e2ef8e5416145\n        /* \"Contract.sol\":9081:9087  levels */\n      0x02\n        /* \"Contract.sol\":9081:9095  levels[gameId] */\n      0x00\n        /* \"Contract.sol\":9088:9094  gameId */\n      dup12\n        /* \"Contract.sol\":9081:9095  levels[gameId] */\n      0xff\n      and\n      0xff\n      and\n      dup2\n      mstore\n      0x20\n      add\n      swap1\n      dup2\n      mstore\n      0x20\n      add\n      0x00\n      keccak256\n        /* \"Contract.sol\":9081:9107  levels[gameId].amountToPay */\n      0x00\n      add\n      sload\n        /* \"Contract.sol\":9109:9115  userId */\n      dup5\n        /* \"Contract.sol\":9117:9132  registeredUsers */\n      0x04\n        /* \"Contract.sol\":9117:9147  registeredUsers[contractOwner] */\n      0x00\n        /* \"Contract.sol\":9133:9146  contractOwner */\n      0x01\n      dup1\n      sload\n      swap1\n      0x0100\n      exp\n      swap1\n      div\n      0xffffffffffffffffffffffffffffffffffffffff\n      and\n        /* \"Contract.sol\":9117:9147  registeredUsers[contractOwner] */\n      0xffffffffffffffffffffffffffffffffffffffff\n      and\n      0xffffffffffffffffffffffffffffffffffffffff\n      and\n      dup2\n      mstore\n      0x20\n      add\n      swap1\n      dup2\n      mstore\n      0x20\n      add\n      0x00\n      keccak256\n        /* \"Contract.sol\":9117:9154  registeredUsers[contractOwner].userId */\n      0x00\n      add\n      sload\n        /* \"Contract.sol\":9156:9164  refValue */\n      dup5\n        /* \"Contract.sol\":9061:9165  ReferalPaymentEvent(levels[gameId].amountToPay, userId, registeredUsers[contractOwner].userId, refValue) */\n      mload(0x40)\n      tag_206\n      swap5\n      swap4\n      swap3\n      swap2\n      swap1\n      tag_182\n      jump\t// in\n    tag_206:\n      mload(0x40)\n      dup1\n      swap2\n      sub\n      swap1\n      log1\n        /* \"Contract.sol\":9043:9165  if (success) emit ReferalPaymentEvent(levels[gameId].amountToPay, userId, registeredUsers[contractOwner].userId, refValue) */\n    tag_205:\n        /* \"Contract.sol\":9202:9232  culcNextWinnerIndex(userIndex) */\n      tag_207\n        /* \"Contract.sol\":9222:9231  userIndex */\n      dup7\n        /* \"Contract.sol\":9202:9221  culcNextWinnerIndex */\n      tag_152\n        /* \"Contract.sol\":9202:9232  culcNextWinnerIndex(userIndex) */\n      jump\t// in\n    tag_207:\n        /* \"Contract.sol\":9190:9232  userIndex = culcNextWinnerIndex(userIndex) */\n      swap6\n      pop\n        /* \"Contract.sol\":6762:9252  {\r... */\n      pop\n      pop\n      pop\n      pop\n        /* \"Contract.sol\":6674:9252  if (userPayments[selectedAddress][gameId] <= 1 || userGames[selectedAddress][gameId+1]) {\r... */\n    tag_159:\n        /* \"Contract.sol\":6428:9267  {\r... */\n      pop\n        /* \"Contract.sol\":6405:9267  while (userIndex != 0) {\r... */\n      jump(tag_153)\n    tag_154:\n        /* \"Contract.sol\":6184:9278  {\r... */\n      pop\n        /* \"Contract.sol\":6149:9278  if (currentUserIndex[gameId] >= 3) {\r... */\n    tag_150:\n        /* \"Contract.sol\":5586:9285  function _joinToGame(uint8 gameId, address sender, uint256 value) internal {\r... */\n      pop\n      pop\n      pop\n      jump\t// out\n        /* \"Contract.sol\":3526:4089  function culcNextWinnerIndex(uint256 index) internal pure returns(uint256) {\r... */\n    tag_152:\n        /* \"Contract.sol\":3592:3599  uint256 */\n      0x00\n        /* \"Contract.sol\":4064:4065  0 */\n      dup1\n        /* \"Contract.sol\":4059:4060  2 */\n      0x02\n        /* \"Contract.sol\":4051:4056  index */\n      dup4\n        /* \"Contract.sol\":4051:4060  index % 2 */\n      tag_209\n      swap2\n      swap1\n      tag_210\n      jump\t// in\n    tag_209:\n        /* \"Contract.sol\":4051:4065  index % 2 == 0 */\n      eq\n        /* \"Contract.sol\":4051:4081  index % 2 == 0 ? 0 : index / 2 */\n      tag_211\n      jumpi\n        /* \"Contract.sol\":4080:4081  2 */\n      0x02\n        /* \"Contract.sol\":4072:4077  index */\n      dup3\n        /* \"Contract.sol\":4072:4081  index / 2 */\n      tag_212\n      swap2\n      swap1\n      tag_163\n      jump\t// in\n    tag_212:\n        /* \"Contract.sol\":4051:4081  index % 2 == 0 ? 0 : index / 2 */\n      jump(tag_213)\n    tag_211:\n        /* \"Contract.sol\":4068:4069  0 */\n      0x00\n        /* \"Contract.sol\":4051:4081  index % 2 == 0 ? 0 : index / 2 */\n    tag_213:\n        /* \"Contract.sol\":4044:4081  return index % 2 == 0 ? 0 : index / 2 */\n      swap1\n      pop\n        /* \"Contract.sol\":3526:4089  function culcNextWinnerIndex(uint256 index) internal pure returns(uint256) {\r... */\n      swap2\n      swap1\n      pop\n      jump\t// out\n        /* \"#utility.yul\":7:146   */\n    tag_215:\n        /* \"#utility.yul\":53:58   */\n      0x00\n        /* \"#utility.yul\":91:97   */\n      dup2\n        /* \"#utility.yul\":78:98   */\n      calldataload\n        /* \"#utility.yul\":69:98   */\n      swap1\n      pop\n        /* \"#utility.yul\":107:140   */\n      tag_217\n        /* \"#utility.yul\":134:139   */\n      dup2\n        /* \"#utility.yul\":107:140   */\n      tag_218\n      jump\t// in\n    tag_217:\n        /* \"#utility.yul\":7:146   */\n      swap3\n      swap2\n      pop\n      pop\n      jump\t// out\n        /* \"#utility.yul\":152:291   */\n    tag_219:\n        /* \"#utility.yul\":198:203   */\n      0x00\n        /* \"#utility.yul\":236:242   */\n      dup2\n        /* \"#utility.yul\":223:243   */\n      calldataload\n        /* \"#utility.yul\":214:243   */\n      swap1\n      pop\n        /* \"#utility.yul\":252:285   */\n      tag_221\n        /* \"#utility.yul\":279:284   */\n      dup2\n        /* \"#utility.yul\":252:285   */\n      tag_222\n      jump\t// in\n    tag_221:\n        /* \"#utility.yul\":152:291   */\n      swap3\n      swap2\n      pop\n      pop\n      jump\t// out\n        /* \"#utility.yul\":297:432   */\n    tag_223:\n        /* \"#utility.yul\":341:346   */\n      0x00\n        /* \"#utility.yul\":379:385   */\n      dup2\n        /* \"#utility.yul\":366:386   */\n      calldataload\n        /* \"#utility.yul\":357:386   */\n      swap1\n      pop\n        /* \"#utility.yul\":395:426   */\n      tag_225\n        /* \"#utility.yul\":420:425   */\n      dup2\n        /* \"#utility.yul\":395:426   */\n      tag_226\n      jump\t// in\n    tag_225:\n        /* \"#utility.yul\":297:432   */\n      swap3\n      swap2\n      pop\n      pop\n      jump\t// out\n        /* \"#utility.yul\":438:767   */\n    tag_35:\n        /* \"#utility.yul\":497:503   */\n      0x00\n        /* \"#utility.yul\":546:548   */\n      0x20\n        /* \"#utility.yul\":534:543   */\n      dup3\n        /* \"#utility.yul\":525:532   */\n      dup5\n        /* \"#utility.yul\":521:544   */\n      sub\n        /* \"#utility.yul\":517:549   */\n      slt\n        /* \"#utility.yul\":514:633   */\n      iszero\n      tag_228\n      jumpi\n        /* \"#utility.yul\":552:631   */\n      tag_229\n      tag_230\n      jump\t// in\n    tag_229:\n        /* \"#utility.yul\":514:633   */\n    tag_228:\n        /* \"#utility.yul\":672:673   */\n      0x00\n        /* \"#utility.yul\":697:750   */\n      tag_231\n        /* \"#utility.yul\":742:749   */\n      dup5\n        /* \"#utility.yul\":733:739   */\n      dup3\n        /* \"#utility.yul\":722:731   */\n      dup6\n        /* \"#utility.yul\":718:740   */\n      add\n        /* \"#utility.yul\":697:750   */\n      tag_215\n      jump\t// in\n    tag_231:\n        /* \"#utility.yul\":687:750   */\n      swap2\n      pop\n        /* \"#utility.yul\":643:760   */\n      pop\n        /* \"#utility.yul\":438:767   */\n      swap3\n      swap2\n      pop\n      pop\n      jump\t// out\n        /* \"#utility.yul\":773:1243   */\n    tag_42:\n        /* \"#utility.yul\":839:845   */\n      0x00\n        /* \"#utility.yul\":847:853   */\n      dup1\n        /* \"#utility.yul\":896:898   */\n      0x40\n        /* \"#utility.yul\":884:893   */\n      dup4\n        /* \"#utility.yul\":875:882   */\n      dup6\n        /* \"#utility.yul\":871:894   */\n      sub\n        /* \"#utility.yul\":867:899   */\n      slt\n        /* \"#utility.yul\":864:983   */\n      iszero\n      tag_233\n      jumpi\n        /* \"#utility.yul\":902:981   */\n      tag_234\n      tag_230\n      jump\t// in\n    tag_234:\n        /* \"#utility.yul\":864:983   */\n    tag_233:\n        /* \"#utility.yul\":1022:1023   */\n      0x00\n        /* \"#utility.yul\":1047:1100   */\n      tag_235\n        /* \"#utility.yul\":1092:1099   */\n      dup6\n        /* \"#utility.yul\":1083:1089   */\n      dup3\n        /* \"#utility.yul\":1072:1081   */\n      dup7\n        /* \"#utility.yul\":1068:1090   */\n      add\n        /* \"#utility.yul\":1047:1100   */\n      tag_215\n      jump\t// in\n    tag_235:\n        /* \"#utility.yul\":1037:1100   */\n      swap3\n      pop\n        /* \"#utility.yul\":993:1110   */\n      pop\n        /* \"#utility.yul\":1149:1151   */\n      0x20\n        /* \"#utility.yul\":1175:1226   */\n      tag_236\n        /* \"#utility.yul\":1218:1225   */\n      dup6\n        /* \"#utility.yul\":1209:1215   */\n      dup3\n        /* \"#utility.yul\":1198:1207   */\n      dup7\n        /* \"#utility.yul\":1194:1216   */\n      add\n        /* \"#utility.yul\":1175:1226   */\n      tag_223\n      jump\t// in\n    tag_236:\n        /* \"#utility.yul\":1165:1226   */\n      swap2\n      pop\n        /* \"#utility.yul\":1120:1236   */\n      pop\n        /* \"#utility.yul\":773:1243   */\n      swap3\n      pop\n      swap3\n      swap1\n      pop\n      jump\t// out\n        /* \"#utility.yul\":1249:1578   */\n    tag_30:\n        /* \"#utility.yul\":1308:1314   */\n      0x00\n        /* \"#utility.yul\":1357:1359   */\n      0x20\n        /* \"#utility.yul\":1345:1354   */\n      dup3\n        /* \"#utility.yul\":1336:1343   */\n      dup5\n        /* \"#utility.yul\":1332:1355   */\n      sub\n        /* \"#utility.yul\":1328:1360   */\n      slt\n        /* \"#utility.yul\":1325:1444   */\n      iszero\n      tag_238\n      jumpi\n        /* \"#utility.yul\":1363:1442   */\n      tag_239\n      tag_230\n      jump\t// in\n    tag_239:\n        /* \"#utility.yul\":1325:1444   */\n    tag_238:\n        /* \"#utility.yul\":1483:1484   */\n      0x00\n        /* \"#utility.yul\":1508:1561   */\n      tag_240\n        /* \"#utility.yul\":1553:1560   */\n      dup5\n        /* \"#utility.yul\":1544:1550   */\n      dup3\n        /* \"#utility.yul\":1533:1542   */\n      dup6\n        /* \"#utility.yul\":1529:1551   */\n      add\n        /* \"#utility.yul\":1508:1561   */\n      tag_219\n      jump\t// in\n    tag_240:\n        /* \"#utility.yul\":1498:1561   */\n      swap2\n      pop\n        /* \"#utility.yul\":1454:1571   */\n      pop\n        /* \"#utility.yul\":1249:1578   */\n      swap3\n      swap2\n      pop\n      pop\n      jump\t// out\n        /* \"#utility.yul\":1584:1909   */\n    tag_48:\n        /* \"#utility.yul\":1641:1647   */\n      0x00\n        /* \"#utility.yul\":1690:1692   */\n      0x20\n        /* \"#utility.yul\":1678:1687   */\n      dup3\n        /* \"#utility.yul\":1669:1676   */\n      dup5\n        /* \"#utility.yul\":1665:1688   */\n      sub\n        /* \"#utility.yul\":1661:1693   */\n      slt\n        /* \"#utility.yul\":1658:1777   */\n      iszero\n      tag_242\n      jumpi\n        /* \"#utility.yul\":1696:1775   */\n      tag_243\n      tag_230\n      jump\t// in\n    tag_243:\n        /* \"#utility.yul\":1658:1777   */\n    tag_242:\n        /* \"#utility.yul\":1816:1817   */\n      0x00\n        /* \"#utility.yul\":1841:1892   */\n      tag_244\n        /* \"#utility.yul\":1884:1891   */\n      dup5\n        /* \"#utility.yul\":1875:1881   */\n      dup3\n        /* \"#utility.yul\":1864:1873   */\n      dup6\n        /* \"#utility.yul\":1860:1882   */\n      add\n        /* \"#utility.yul\":1841:1892   */\n      tag_223\n      jump\t// in\n    tag_244:\n        /* \"#utility.yul\":1831:1892   */\n      swap2\n      pop\n        /* \"#utility.yul\":1787:1902   */\n      pop\n        /* \"#utility.yul\":1584:1909   */\n      swap3\n      swap2\n      pop\n      pop\n      jump\t// out\n        /* \"#utility.yul\":1915:2385   */\n    tag_63:\n        /* \"#utility.yul\":1981:1987   */\n      0x00\n        /* \"#utility.yul\":1989:1995   */\n      dup1\n        /* \"#utility.yul\":2038:2040   */\n      0x40\n        /* \"#utility.yul\":2026:2035   */\n      dup4\n        /* \"#utility.yul\":2017:2024   */\n      dup6\n        /* \"#utility.yul\":2013:2036   */\n      sub\n        /* \"#utility.yul\":2009:2041   */\n      slt\n        /* \"#utility.yul\":2006:2125   */\n      iszero\n      tag_246\n      jumpi\n        /* \"#utility.yul\":2044:2123   */\n      tag_247\n      tag_230\n      jump\t// in\n    tag_247:\n        /* \"#utility.yul\":2006:2125   */\n    tag_246:\n        /* \"#utility.yul\":2164:2165   */\n      0x00\n        /* \"#utility.yul\":2189:2240   */\n      tag_248\n        /* \"#utility.yul\":2232:2239   */\n      dup6\n        /* \"#utility.yul\":2223:2229   */\n      dup3\n        /* \"#utility.yul\":2212:2221   */\n      dup7\n        /* \"#utility.yul\":2208:2230   */\n      add\n        /* \"#utility.yul\":2189:2240   */\n      tag_223\n      jump\t// in\n    tag_248:\n        /* \"#utility.yul\":2179:2240   */\n      swap3\n      pop\n        /* \"#utility.yul\":2135:2250   */\n      pop\n        /* \"#utility.yul\":2289:2291   */\n      0x20\n        /* \"#utility.yul\":2315:2368   */\n      tag_249\n        /* \"#utility.yul\":2360:2367   */\n      dup6\n        /* \"#utility.yul\":2351:2357   */\n      dup3\n        /* \"#utility.yul\":2340:2349   */\n      dup7\n        /* \"#utility.yul\":2336:2358   */\n      add\n        /* \"#utility.yul\":2315:2368   */\n      tag_219\n      jump\t// in\n    tag_249:\n        /* \"#utility.yul\":2305:2368   */\n      swap2\n      pop\n        /* \"#utility.yul\":2260:2378   */\n      pop\n        /* \"#utility.yul\":1915:2385   */\n      swap3\n      pop\n      swap3\n      swap1\n      pop\n      jump\t// out\n        /* \"#utility.yul\":2391:2533   */\n    tag_250:\n        /* \"#utility.yul\":2494:2526   */\n      tag_252\n        /* \"#utility.yul\":2520:2525   */\n      dup2\n        /* \"#utility.yul\":2494:2526   */\n      tag_253\n      jump\t// in\n    tag_252:\n        /* \"#utility.yul\":2489:2492   */\n      dup3\n        /* \"#utility.yul\":2482:2527   */\n      mstore\n        /* \"#utility.yul\":2391:2533   */\n      pop\n      pop\n      jump\t// out\n        /* \"#utility.yul\":2539:2657   */\n    tag_254:\n        /* \"#utility.yul\":2626:2650   */\n      tag_256\n        /* \"#utility.yul\":2644:2649   */\n      dup2\n        /* \"#utility.yul\":2626:2650   */\n      tag_257\n      jump\t// in\n    tag_256:\n        /* \"#utility.yul\":2621:2624   */\n      dup3\n        /* \"#utility.yul\":2614:2651   */\n      mstore\n        /* \"#utility.yul\":2539:2657   */\n      pop\n      pop\n      jump\t// out\n        /* \"#utility.yul\":2663:2772   */\n    tag_258:\n        /* \"#utility.yul\":2744:2765   */\n      tag_260\n        /* \"#utility.yul\":2759:2764   */\n      dup2\n        /* \"#utility.yul\":2744:2765   */\n      tag_261\n      jump\t// in\n    tag_260:\n        /* \"#utility.yul\":2739:2742   */\n      dup3\n        /* \"#utility.yul\":2732:2766   */\n      mstore\n        /* \"#utility.yul\":2663:2772   */\n      pop\n      pop\n      jump\t// out\n        /* \"#utility.yul\":2778:3144   */\n    tag_262:\n        /* \"#utility.yul\":2920:2923   */\n      0x00\n        /* \"#utility.yul\":2941:3008   */\n      tag_264\n        /* \"#utility.yul\":3005:3007   */\n      0x0e\n        /* \"#utility.yul\":3000:3003   */\n      dup4\n        /* \"#utility.yul\":2941:3008   */\n      tag_265\n      jump\t// in\n    tag_264:\n        /* \"#utility.yul\":2934:3008   */\n      swap2\n      pop\n        /* \"#utility.yul\":3017:3110   */\n      tag_266\n        /* \"#utility.yul\":3106:3109   */\n      dup3\n        /* \"#utility.yul\":3017:3110   */\n      tag_267\n      jump\t// in\n    tag_266:\n        /* \"#utility.yul\":3135:3137   */\n      0x20\n        /* \"#utility.yul\":3130:3133   */\n      dup3\n        /* \"#utility.yul\":3126:3138   */\n      add\n        /* \"#utility.yul\":3119:3138   */\n      swap1\n      pop\n        /* \"#utility.yul\":2778:3144   */\n      swap2\n      swap1\n      pop\n      jump\t// out\n        /* \"#utility.yul\":3150:3516   */\n    tag_268:\n        /* \"#utility.yul\":3292:3295   */\n      0x00\n        /* \"#utility.yul\":3313:3380   */\n      tag_270\n        /* \"#utility.yul\":3377:3379   */\n      0x1a\n        /* \"#utility.yul\":3372:3375   */\n      dup4\n        /* \"#utility.yul\":3313:3380   */\n      tag_265\n      jump\t// in\n    tag_270:\n        /* \"#utility.yul\":3306:3380   */\n      swap2\n      pop\n        /* \"#utility.yul\":3389:3482   */\n      tag_271\n        /* \"#utility.yul\":3478:3481   */\n      dup3\n        /* \"#utility.yul\":3389:3482   */\n      tag_272\n      jump\t// in\n    tag_271:\n        /* \"#utility.yul\":3507:3509   */\n      0x20\n        /* \"#utility.yul\":3502:3505   */\n      dup3\n        /* \"#utility.yul\":3498:3510   */\n      add\n        /* \"#utility.yul\":3491:3510   */\n      swap1\n      pop\n        /* \"#utility.yul\":3150:3516   */\n      swap2\n      swap1\n      pop\n      jump\t// out\n        /* \"#utility.yul\":3522:3920   */\n    tag_273:\n        /* \"#utility.yul\":3681:3684   */\n      0x00\n        /* \"#utility.yul\":3702:3785   */\n      tag_275\n        /* \"#utility.yul\":3783:3784   */\n      0x00\n        /* \"#utility.yul\":3778:3781   */\n      dup4\n        /* \"#utility.yul\":3702:3785   */\n      tag_276\n      jump\t// in\n    tag_275:\n        /* \"#utility.yul\":3695:3785   */\n      swap2\n      pop\n        /* \"#utility.yul\":3794:3887   */\n      tag_277\n        /* \"#utility.yul\":3883:3886   */\n      dup3\n        /* \"#utility.yul\":3794:3887   */\n      tag_278\n      jump\t// in\n    tag_277:\n        /* \"#utility.yul\":3912:3913   */\n      0x00\n        /* \"#utility.yul\":3907:3910   */\n      dup3\n        /* \"#utility.yul\":3903:3914   */\n      add\n        /* \"#utility.yul\":3896:3914   */\n      swap1\n      pop\n        /* \"#utility.yul\":3522:3920   */\n      swap2\n      swap1\n      pop\n      jump\t// out\n        /* \"#utility.yul\":3926:4292   */\n    tag_279:\n        /* \"#utility.yul\":4068:4071   */\n      0x00\n        /* \"#utility.yul\":4089:4156   */\n      tag_281\n        /* \"#utility.yul\":4153:4155   */\n      0x23\n        /* \"#utility.yul\":4148:4151   */\n      dup4\n        /* \"#utility.yul\":4089:4156   */\n      tag_265\n      jump\t// in\n    tag_281:\n        /* \"#utility.yul\":4082:4156   */\n      swap2\n      pop\n        /* \"#utility.yul\":4165:4258   */\n      tag_282\n        /* \"#utility.yul\":4254:4257   */\n      dup3\n        /* \"#utility.yul\":4165:4258   */\n      tag_283\n      jump\t// in\n    tag_282:\n        /* \"#utility.yul\":4283:4285   */\n      0x40\n        /* \"#utility.yul\":4278:4281   */\n      dup3\n        /* \"#utility.yul\":4274:4286   */\n      add\n        /* \"#utility.yul\":4267:4286   */\n      swap1\n      pop\n        /* \"#utility.yul\":3926:4292   */\n      swap2\n      swap1\n      pop\n      jump\t// out\n        /* \"#utility.yul\":4298:4664   */\n    tag_284:\n        /* \"#utility.yul\":4440:4443   */\n      0x00\n        /* \"#utility.yul\":4461:4528   */\n      tag_286\n        /* \"#utility.yul\":4525:4527   */\n      0x28\n        /* \"#utility.yul\":4520:4523   */\n      dup4\n        /* \"#utility.yul\":4461:4528   */\n      tag_265\n      jump\t// in\n    tag_286:\n        /* \"#utility.yul\":4454:4528   */\n      swap2\n      pop\n        /* \"#utility.yul\":4537:4630   */\n      tag_287\n        /* \"#utility.yul\":4626:4629   */\n      dup3\n        /* \"#utility.yul\":4537:4630   */\n      tag_288\n      jump\t// in\n    tag_287:\n        /* \"#utility.yul\":4655:4657   */\n      0x40\n        /* \"#utility.yul\":4650:4653   */\n      dup3\n        /* \"#utility.yul\":4646:4658   */\n      add\n        /* \"#utility.yul\":4639:4658   */\n      swap1\n      pop\n        /* \"#utility.yul\":4298:4664   */\n      swap2\n      swap1\n      pop\n      jump\t// out\n        /* \"#utility.yul\":4670:5036   */\n    tag_289:\n        /* \"#utility.yul\":4812:4815   */\n      0x00\n        /* \"#utility.yul\":4833:4900   */\n      tag_291\n        /* \"#utility.yul\":4897:4899   */\n      0x0c\n        /* \"#utility.yul\":4892:4895   */\n      dup4\n        /* \"#utility.yul\":4833:4900   */\n      tag_265\n      jump\t// in\n    tag_291:\n        /* \"#utility.yul\":4826:4900   */\n      swap2\n      pop\n        /* \"#utility.yul\":4909:5002   */\n      tag_292\n        /* \"#utility.yul\":4998:5001   */\n      dup3\n        /* \"#utility.yul\":4909:5002   */\n      tag_293\n      jump\t// in\n    tag_292:\n        /* \"#utility.yul\":5027:5029   */\n      0x20\n        /* \"#utility.yul\":5022:5025   */\n      dup3\n        /* \"#utility.yul\":5018:5030   */\n      add\n        /* \"#utility.yul\":5011:5030   */\n      swap1\n      pop\n        /* \"#utility.yul\":4670:5036   */\n      swap2\n      swap1\n      pop\n      jump\t// out\n        /* \"#utility.yul\":5042:5160   */\n    tag_294:\n        /* \"#utility.yul\":5129:5153   */\n      tag_296\n        /* \"#utility.yul\":5147:5152   */\n      dup2\n        /* \"#utility.yul\":5129:5153   */\n      tag_297\n      jump\t// in\n    tag_296:\n        /* \"#utility.yul\":5124:5127   */\n      dup3\n        /* \"#utility.yul\":5117:5154   */\n      mstore\n        /* \"#utility.yul\":5042:5160   */\n      pop\n      pop\n      jump\t// out\n        /* \"#utility.yul\":5166:5278   */\n    tag_298:\n        /* \"#utility.yul\":5249:5271   */\n      tag_300\n        /* \"#utility.yul\":5265:5270   */\n      dup2\n        /* \"#utility.yul\":5249:5271   */\n      tag_301\n      jump\t// in\n    tag_300:\n        /* \"#utility.yul\":5244:5247   */\n      dup3\n        /* \"#utility.yul\":5237:5272   */\n      mstore\n        /* \"#utility.yul\":5166:5278   */\n      pop\n      pop\n      jump\t// out\n        /* \"#utility.yul\":5284:5663   */\n    tag_165:\n        /* \"#utility.yul\":5468:5471   */\n      0x00\n        /* \"#utility.yul\":5490:5637   */\n      tag_303\n        /* \"#utility.yul\":5633:5636   */\n      dup3\n        /* \"#utility.yul\":5490:5637   */\n      tag_273\n      jump\t// in\n    tag_303:\n        /* \"#utility.yul\":5483:5637   */\n      swap2\n      pop\n        /* \"#utility.yul\":5654:5657   */\n      dup2\n        /* \"#utility.yul\":5647:5657   */\n      swap1\n      pop\n        /* \"#utility.yul\":5284:5663   */\n      swap2\n      swap1\n      pop\n      jump\t// out\n        /* \"#utility.yul\":5669:5891   */\n    tag_95:\n        /* \"#utility.yul\":5762:5766   */\n      0x00\n        /* \"#utility.yul\":5800:5802   */\n      0x20\n        /* \"#utility.yul\":5789:5798   */\n      dup3\n        /* \"#utility.yul\":5785:5803   */\n      add\n        /* \"#utility.yul\":5777:5803   */\n      swap1\n      pop\n        /* \"#utility.yul\":5813:5884   */\n      tag_305\n        /* \"#utility.yul\":5881:5882   */\n      0x00\n        /* \"#utility.yul\":5870:5879   */\n      dup4\n        /* \"#utility.yul\":5866:5883   */\n      add\n        /* \"#utility.yul\":5857:5863   */\n      dup5\n        /* \"#utility.yul\":5813:5884   */\n      tag_254\n      jump\t// in\n    tag_305:\n        /* \"#utility.yul\":5669:5891   */\n      swap3\n      swap2\n      pop\n      pop\n      jump\t// out\n        /* \"#utility.yul\":5897:6107   */\n    tag_45:\n        /* \"#utility.yul\":5984:5988   */\n      0x00\n        /* \"#utility.yul\":6022:6024   */\n      0x20\n        /* \"#utility.yul\":6011:6020   */\n      dup3\n        /* \"#utility.yul\":6007:6025   */\n      add\n        /* \"#utility.yul\":5999:6025   */\n      swap1\n      pop\n        /* \"#utility.yul\":6035:6100   */\n      tag_307\n        /* \"#utility.yul\":6097:6098   */\n      0x00\n        /* \"#utility.yul\":6086:6095   */\n      dup4\n        /* \"#utility.yul\":6082:6099   */\n      add\n        /* \"#utility.yul\":6073:6079   */\n      dup5\n        /* \"#utility.yul\":6035:6100   */\n      tag_258\n      jump\t// in\n    tag_307:\n        /* \"#utility.yul\":5897:6107   */\n      swap3\n      swap2\n      pop\n      pop\n      jump\t// out\n        /* \"#utility.yul\":6113:6532   */\n    tag_115:\n        /* \"#utility.yul\":6279:6283   */\n      0x00\n        /* \"#utility.yul\":6317:6319   */\n      0x20\n        /* \"#utility.yul\":6306:6315   */\n      dup3\n        /* \"#utility.yul\":6302:6320   */\n      add\n        /* \"#utility.yul\":6294:6320   */\n      swap1\n      pop\n        /* \"#utility.yul\":6366:6375   */\n      dup2\n        /* \"#utility.yul\":6360:6364   */\n      dup2\n        /* \"#utility.yul\":6356:6376   */\n      sub\n        /* \"#utility.yul\":6352:6353   */\n      0x00\n        /* \"#utility.yul\":6341:6350   */\n      dup4\n        /* \"#utility.yul\":6337:6354   */\n      add\n        /* \"#utility.yul\":6330:6377   */\n      mstore\n        /* \"#utility.yul\":6394:6525   */\n      tag_309\n        /* \"#utility.yul\":6520:6524   */\n      dup2\n        /* \"#utility.yul\":6394:6525   */\n      tag_262\n      jump\t// in\n    tag_309:\n        /* \"#utility.yul\":6386:6525   */\n      swap1\n      pop\n        /* \"#utility.yul\":6113:6532   */\n      swap2\n      swap1\n      pop\n      jump\t// out\n        /* \"#utility.yul\":6538:6957   */\n    tag_125:\n        /* \"#utility.yul\":6704:6708   */\n      0x00\n        /* \"#utility.yul\":6742:6744   */\n      0x20\n        /* \"#utility.yul\":6731:6740   */\n      dup3\n        /* \"#utility.yul\":6727:6745   */\n      add\n        /* \"#utility.yul\":6719:6745   */\n      swap1\n      pop\n        /* \"#utility.yul\":6791:6800   */\n      dup2\n        /* \"#utility.yul\":6785:6789   */\n      dup2\n        /* \"#utility.yul\":6781:6801   */\n      sub\n        /* \"#utility.yul\":6777:6778   */\n      0x00\n        /* \"#utility.yul\":6766:6775   */\n      dup4\n        /* \"#utility.yul\":6762:6779   */\n      add\n        /* \"#utility.yul\":6755:6802   */\n      mstore\n        /* \"#utility.yul\":6819:6950   */\n      tag_311\n        /* \"#utility.yul\":6945:6949   */\n      dup2\n        /* \"#utility.yul\":6819:6950   */\n      tag_268\n      jump\t// in\n    tag_311:\n        /* \"#utility.yul\":6811:6950   */\n      swap1\n      pop\n        /* \"#utility.yul\":6538:6957   */\n      swap2\n      swap1\n      pop\n      jump\t// out\n        /* \"#utility.yul\":6963:7382   */\n    tag_148:\n        /* \"#utility.yul\":7129:7133   */\n      0x00\n        /* \"#utility.yul\":7167:7169   */\n      0x20\n        /* \"#utility.yul\":7156:7165   */\n      dup3\n        /* \"#utility.yul\":7152:7170   */\n      add\n        /* \"#utility.yul\":7144:7170   */\n      swap1\n      pop\n        /* \"#utility.yul\":7216:7225   */\n      dup2\n        /* \"#utility.yul\":7210:7214   */\n      dup2\n        /* \"#utility.yul\":7206:7226   */\n      sub\n        /* \"#utility.yul\":7202:7203   */\n      0x00\n        /* \"#utility.yul\":7191:7200   */\n      dup4\n        /* \"#utility.yul\":7187:7204   */\n      add\n        /* \"#utility.yul\":7180:7227   */\n      mstore\n        /* \"#utility.yul\":7244:7375   */\n      tag_313\n        /* \"#utility.yul\":7370:7374   */\n      dup2\n        /* \"#utility.yul\":7244:7375   */\n      tag_279\n      jump\t// in\n    tag_313:\n        /* \"#utility.yul\":7236:7375   */\n      swap1\n      pop\n        /* \"#utility.yul\":6963:7382   */\n      swap2\n      swap1\n      pop\n      jump\t// out\n        /* \"#utility.yul\":7388:7807   */\n    tag_128:\n        /* \"#utility.yul\":7554:7558   */\n      0x00\n        /* \"#utility.yul\":7592:7594   */\n      0x20\n        /* \"#utility.yul\":7581:7590   */\n      dup3\n        /* \"#utility.yul\":7577:7595   */\n      add\n        /* \"#utility.yul\":7569:7595   */\n      swap1\n      pop\n        /* \"#utility.yul\":7641:7650   */\n      dup2\n        /* \"#utility.yul\":7635:7639   */\n      dup2\n        /* \"#utility.yul\":7631:7651   */\n      sub\n        /* \"#utility.yul\":7627:7628   */\n      0x00\n        /* \"#utility.yul\":7616:7625   */\n      dup4\n        /* \"#utility.yul\":7612:7629   */\n      add\n        /* \"#utility.yul\":7605:7652   */\n      mstore\n        /* \"#utility.yul\":7669:7800   */\n      tag_315\n        /* \"#utility.yul\":7795:7799   */\n      dup2\n        /* \"#utility.yul\":7669:7800   */\n      tag_284\n      jump\t// in\n    tag_315:\n        /* \"#utility.yul\":7661:7800   */\n      swap1\n      pop\n        /* \"#utility.yul\":7388:7807   */\n      swap2\n      swap1\n      pop\n      jump\t// out\n        /* \"#utility.yul\":7813:8232   */\n    tag_121:\n        /* \"#utility.yul\":7979:7983   */\n      0x00\n        /* \"#utility.yul\":8017:8019   */\n      0x20\n        /* \"#utility.yul\":8006:8015   */\n      dup3\n        /* \"#utility.yul\":8002:8020   */\n      add\n        /* \"#utility.yul\":7994:8020   */\n      swap1\n      pop\n        /* \"#utility.yul\":8066:8075   */\n      dup2\n        /* \"#utility.yul\":8060:8064   */\n      dup2\n        /* \"#utility.yul\":8056:8076   */\n      sub\n        /* \"#utility.yul\":8052:8053   */\n      0x00\n        /* \"#utility.yul\":8041:8050   */\n      dup4\n        /* \"#utility.yul\":8037:8054   */\n      add\n        /* \"#utility.yul\":8030:8077   */\n      mstore\n        /* \"#utility.yul\":8094:8225   */\n      tag_317\n        /* \"#utility.yul\":8220:8224   */\n      dup2\n        /* \"#utility.yul\":8094:8225   */\n      tag_289\n      jump\t// in\n    tag_317:\n        /* \"#utility.yul\":8086:8225   */\n      swap1\n      pop\n        /* \"#utility.yul\":7813:8232   */\n      swap2\n      swap1\n      pop\n      jump\t// out\n        /* \"#utility.yul\":8238:8460   */\n    tag_55:\n        /* \"#utility.yul\":8331:8335   */\n      0x00\n        /* \"#utility.yul\":8369:8371   */\n      0x20\n        /* \"#utility.yul\":8358:8367   */\n      dup3\n        /* \"#utility.yul\":8354:8372   */\n      add\n        /* \"#utility.yul\":8346:8372   */\n      swap1\n      pop\n        /* \"#utility.yul\":8382:8453   */\n      tag_319\n        /* \"#utility.yul\":8450:8451   */\n      0x00\n        /* \"#utility.yul\":8439:8448   */\n      dup4\n        /* \"#utility.yul\":8435:8452   */\n      add\n        /* \"#utility.yul\":8426:8432   */\n      dup5\n        /* \"#utility.yul\":8382:8453   */\n      tag_294\n      jump\t// in\n    tag_319:\n        /* \"#utility.yul\":8238:8460   */\n      swap3\n      swap2\n      pop\n      pop\n      jump\t// out\n        /* \"#utility.yul\":8466:8940   */\n    tag_38:\n        /* \"#utility.yul\":8631:8635   */\n      0x00\n        /* \"#utility.yul\":8669:8671   */\n      0x60\n        /* \"#utility.yul\":8658:8667   */\n      dup3\n        /* \"#utility.yul\":8654:8672   */\n      add\n        /* \"#utility.yul\":8646:8672   */\n      swap1\n      pop\n        /* \"#utility.yul\":8682:8753   */\n      tag_321\n        /* \"#utility.yul\":8750:8751   */\n      0x00\n        /* \"#utility.yul\":8739:8748   */\n      dup4\n        /* \"#utility.yul\":8735:8752   */\n      add\n        /* \"#utility.yul\":8726:8732   */\n      dup7\n        /* \"#utility.yul\":8682:8753   */\n      tag_294\n      jump\t// in\n    tag_321:\n        /* \"#utility.yul\":8763:8851   */\n      tag_322\n        /* \"#utility.yul\":8847:8849   */\n      0x20\n        /* \"#utility.yul\":8836:8845   */\n      dup4\n        /* \"#utility.yul\":8832:8850   */\n      add\n        /* \"#utility.yul\":8823:8829   */\n      dup6\n        /* \"#utility.yul\":8763:8851   */\n      tag_250\n      jump\t// in\n    tag_322:\n        /* \"#utility.yul\":8861:8933   */\n      tag_323\n        /* \"#utility.yul\":8929:8931   */\n      0x40\n        /* \"#utility.yul\":8918:8927   */\n      dup4\n        /* \"#utility.yul\":8914:8932   */\n      add\n        /* \"#utility.yul\":8905:8911   */\n      dup5\n        /* \"#utility.yul\":8861:8933   */\n      tag_294\n      jump\t// in\n    tag_323:\n        /* \"#utility.yul\":8466:8940   */\n      swap5\n      swap4\n      pop\n      pop\n      pop\n      pop\n      jump\t// out\n        /* \"#utility.yul\":8946:9376   */\n    tag_171:\n        /* \"#utility.yul\":9089:9093   */\n      0x00\n        /* \"#utility.yul\":9127:9129   */\n      0x60\n        /* \"#utility.yul\":9116:9125   */\n      dup3\n        /* \"#utility.yul\":9112:9130   */\n      add\n        /* \"#utility.yul\":9104:9130   */\n      swap1\n      pop\n        /* \"#utility.yul\":9140:9211   */\n      tag_325\n        /* \"#utility.yul\":9208:9209   */\n      0x00\n        /* \"#utility.yul\":9197:9206   */\n      dup4\n        /* \"#utility.yul\":9193:9210   */\n      add\n        /* \"#utility.yul\":9184:9190   */\n      dup7\n        /* \"#utility.yul\":9140:9211   */\n      tag_294\n      jump\t// in\n    tag_325:\n        /* \"#utility.yul\":9221:9293   */\n      tag_326\n        /* \"#utility.yul\":9289:9291   */\n      0x20\n        /* \"#utility.yul\":9278:9287   */\n      dup4\n        /* \"#utility.yul\":9274:9292   */\n      add\n        /* \"#utility.yul\":9265:9271   */\n      dup6\n        /* \"#utility.yul\":9221:9293   */\n      tag_254\n      jump\t// in\n    tag_326:\n        /* \"#utility.yul\":9303:9369   */\n      tag_327\n        /* \"#utility.yul\":9365:9367   */\n      0x40\n        /* \"#utility.yul\":9354:9363   */\n      dup4\n        /* \"#utility.yul\":9350:9368   */\n      add\n        /* \"#utility.yul\":9341:9347   */\n      dup5\n        /* \"#utility.yul\":9303:9369   */\n      tag_258\n      jump\t// in\n    tag_327:\n        /* \"#utility.yul\":8946:9376   */\n      swap5\n      swap4\n      pop\n      pop\n      pop\n      pop\n      jump\t// out\n        /* \"#utility.yul\":9382:9935   */\n    tag_182:\n        /* \"#utility.yul\":9559:9563   */\n      0x00\n        /* \"#utility.yul\":9597:9600   */\n      0x80\n        /* \"#utility.yul\":9586:9595   */\n      dup3\n        /* \"#utility.yul\":9582:9601   */\n      add\n        /* \"#utility.yul\":9574:9601   */\n      swap1\n      pop\n        /* \"#utility.yul\":9611:9682   */\n      tag_329\n        /* \"#utility.yul\":9679:9680   */\n      0x00\n        /* \"#utility.yul\":9668:9677   */\n      dup4\n        /* \"#utility.yul\":9664:9681   */\n      add\n        /* \"#utility.yul\":9655:9661   */\n      dup8\n        /* \"#utility.yul\":9611:9682   */\n      tag_294\n      jump\t// in\n    tag_329:\n        /* \"#utility.yul\":9692:9764   */\n      tag_330\n        /* \"#utility.yul\":9760:9762   */\n      0x20\n        /* \"#utility.yul\":9749:9758   */\n      dup4\n        /* \"#utility.yul\":9745:9763   */\n      add\n        /* \"#utility.yul\":9736:9742   */\n      dup7\n        /* \"#utility.yul\":9692:9764   */\n      tag_294\n      jump\t// in\n    tag_330:\n        /* \"#utility.yul\":9774:9846   */\n      tag_331\n        /* \"#utility.yul\":9842:9844   */\n      0x40\n        /* \"#utility.yul\":9831:9840   */\n      dup4\n        /* \"#utility.yul\":9827:9845   */\n      add\n        /* \"#utility.yul\":9818:9824   */\n      dup6\n        /* \"#utility.yul\":9774:9846   */\n      tag_294\n      jump\t// in\n    tag_331:\n        /* \"#utility.yul\":9856:9928   */\n      tag_332\n        /* \"#utility.yul\":9924:9926   */\n      0x60\n        /* \"#utility.yul\":9913:9922   */\n      dup4\n        /* \"#utility.yul\":9909:9927   */\n      add\n        /* \"#utility.yul\":9900:9906   */\n      dup5\n        /* \"#utility.yul\":9856:9928   */\n      tag_294\n      jump\t// in\n    tag_332:\n        /* \"#utility.yul\":9382:9935   */\n      swap6\n      swap5\n      pop\n      pop\n      pop\n      pop\n      pop\n      jump\t// out\n        /* \"#utility.yul\":9941:10155   */\n    tag_85:\n        /* \"#utility.yul\":10030:10034   */\n      0x00\n        /* \"#utility.yul\":10068:10070   */\n      0x20\n        /* \"#utility.yul\":10057:10066   */\n      dup3\n        /* \"#utility.yul\":10053:10071   */\n      add\n        /* \"#utility.yul\":10045:10071   */\n      swap1\n      pop\n        /* \"#utility.yul\":10081:10148   */\n      tag_334\n        /* \"#utility.yul\":10145:10146   */\n      0x00\n        /* \"#utility.yul\":10134:10143   */\n      dup4\n        /* \"#utility.yul\":10130:10147   */\n      add\n        /* \"#utility.yul\":10121:10127   */\n      dup5\n        /* \"#utility.yul\":10081:10148   */\n      tag_298\n      jump\t// in\n    tag_334:\n        /* \"#utility.yul\":9941:10155   */\n      swap3\n      swap2\n      pop\n      pop\n      jump\t// out\n        /* \"#utility.yul\":10242:10389   */\n    tag_276:\n        /* \"#utility.yul\":10343:10354   */\n      0x00\n        /* \"#utility.yul\":10380:10383   */\n      dup2\n        /* \"#utility.yul\":10365:10383   */\n      swap1\n      pop\n        /* \"#utility.yul\":10242:10389   */\n      swap3\n      swap2\n      pop\n      pop\n      jump\t// out\n        /* \"#utility.yul\":10395:10564   */\n    tag_265:\n        /* \"#utility.yul\":10479:10490   */\n      0x00\n        /* \"#utility.yul\":10513:10519   */\n      dup3\n        /* \"#utility.yul\":10508:10511   */\n      dup3\n        /* \"#utility.yul\":10501:10520   */\n      mstore\n        /* \"#utility.yul\":10553:10557   */\n      0x20\n        /* \"#utility.yul\":10548:10551   */\n      dup3\n        /* \"#utility.yul\":10544:10558   */\n      add\n        /* \"#utility.yul\":10529:10558   */\n      swap1\n      pop\n        /* \"#utility.yul\":10395:10564   */\n      swap3\n      swap2\n      pop\n      pop\n      jump\t// out\n        /* \"#utility.yul\":10570:10875   */\n    tag_130:\n        /* \"#utility.yul\":10610:10613   */\n      0x00\n        /* \"#utility.yul\":10629:10649   */\n      tag_340\n        /* \"#utility.yul\":10647:10648   */\n      dup3\n        /* \"#utility.yul\":10629:10649   */\n      tag_297\n      jump\t// in\n    tag_340:\n        /* \"#utility.yul\":10624:10649   */\n      swap2\n      pop\n        /* \"#utility.yul\":10663:10683   */\n      tag_341\n        /* \"#utility.yul\":10681:10682   */\n      dup4\n        /* \"#utility.yul\":10663:10683   */\n      tag_297\n      jump\t// in\n    tag_341:\n        /* \"#utility.yul\":10658:10683   */\n      swap3\n      pop\n        /* \"#utility.yul\":10817:10818   */\n      dup3\n        /* \"#utility.yul\":10749:10815   */\n      0xffffffffffffffffffffffffffffffffffffffffffffffffffffffffffffffff\n        /* \"#utility.yul\":10745:10819   */\n      sub\n        /* \"#utility.yul\":10742:10743   */\n      dup3\n        /* \"#utility.yul\":10739:10820   */\n      gt\n        /* \"#utility.yul\":10736:10843   */\n      iszero\n      tag_342\n      jumpi\n        /* \"#utility.yul\":10823:10841   */\n      tag_343\n      tag_344\n      jump\t// in\n    tag_343:\n        /* \"#utility.yul\":10736:10843   */\n    tag_342:\n        /* \"#utility.yul\":10867:10868   */\n      dup3\n        /* \"#utility.yul\":10864:10865   */\n      dup3\n        /* \"#utility.yul\":10860:10869   */\n      add\n        /* \"#utility.yul\":10853:10869   */\n      swap1\n      pop\n        /* \"#utility.yul\":10570:10875   */\n      swap3\n      swap2\n      pop\n      pop\n      jump\t// out\n        /* \"#utility.yul\":10881:11118   */\n    tag_109:\n        /* \"#utility.yul\":10919:10922   */\n      0x00\n        /* \"#utility.yul\":10938:10956   */\n      tag_346\n        /* \"#utility.yul\":10954:10955   */\n      dup3\n        /* \"#utility.yul\":10938:10956   */\n      tag_301\n      jump\t// in\n    tag_346:\n        /* \"#utility.yul\":10933:10956   */\n      swap2\n      pop\n        /* \"#utility.yul\":10970:10988   */\n      tag_347\n        /* \"#utility.yul\":10986:10987   */\n      dup4\n        /* \"#utility.yul\":10970:10988   */\n      tag_301\n      jump\t// in\n    tag_347:\n        /* \"#utility.yul\":10965:10988   */\n      swap3\n      pop\n        /* \"#utility.yul\":11060:11061   */\n      dup3\n        /* \"#utility.yul\":11054:11058   */\n      0xff\n        /* \"#utility.yul\":11050:11062   */\n      sub\n        /* \"#utility.yul\":11047:11048   */\n      dup3\n        /* \"#utility.yul\":11044:11063   */\n      gt\n        /* \"#utility.yul\":11041:11086   */\n      iszero\n      tag_348\n      jumpi\n        /* \"#utility.yul\":11066:11084   */\n      tag_349\n      tag_344\n      jump\t// in\n    tag_349:\n        /* \"#utility.yul\":11041:11086   */\n    tag_348:\n        /* \"#utility.yul\":11110:11111   */\n      dup3\n        /* \"#utility.yul\":11107:11108   */\n      dup3\n        /* \"#utility.yul\":11103:11112   */\n      add\n        /* \"#utility.yul\":11096:11112   */\n      swap1\n      pop\n        /* \"#utility.yul\":10881:11118   */\n      swap3\n      swap2\n      pop\n      pop\n      jump\t// out\n        /* \"#utility.yul\":11124:11309   */\n    tag_163:\n        /* \"#utility.yul\":11164:11165   */\n      0x00\n        /* \"#utility.yul\":11181:11201   */\n      tag_351\n        /* \"#utility.yul\":11199:11200   */\n      dup3\n        /* \"#utility.yul\":11181:11201   */\n      tag_297\n      jump\t// in\n    tag_351:\n        /* \"#utility.yul\":11176:11201   */\n      swap2\n      pop\n        /* \"#utility.yul\":11215:11235   */\n      tag_352\n        /* \"#utility.yul\":11233:11234   */\n      dup4\n        /* \"#utility.yul\":11215:11235   */\n      tag_297\n      jump\t// in\n    tag_352:\n        /* \"#utility.yul\":11210:11235   */\n      swap3\n      pop\n        /* \"#utility.yul\":11254:11255   */\n      dup3\n        /* \"#utility.yul\":11244:11279   */\n      tag_353\n      jumpi\n        /* \"#utility.yul\":11259:11277   */\n      tag_354\n      tag_355\n      jump\t// in\n    tag_354:\n        /* \"#utility.yul\":11244:11279   */\n    tag_353:\n        /* \"#utility.yul\":11301:11302   */\n      dup3\n        /* \"#utility.yul\":11298:11299   */\n      dup3\n        /* \"#utility.yul\":11294:11303   */\n      div\n        /* \"#utility.yul\":11289:11303   */\n      swap1\n      pop\n        /* \"#utility.yul\":11124:11309   */\n      swap3\n      swap2\n      pop\n      pop\n      jump\t// out\n        /* \"#utility.yul\":11315:11663   */\n    tag_161:\n        /* \"#utility.yul\":11355:11362   */\n      0x00\n        /* \"#utility.yul\":11378:11398   */\n      tag_357\n        /* \"#utility.yul\":11396:11397   */\n      dup3\n        /* \"#utility.yul\":11378:11398   */\n      tag_297\n      jump\t// in\n    tag_357:\n        /* \"#utility.yul\":11373:11398   */\n      swap2\n      pop\n        /* \"#utility.yul\":11412:11432   */\n      tag_358\n        /* \"#utility.yul\":11430:11431   */\n      dup4\n        /* \"#utility.yul\":11412:11432   */\n      tag_297\n      jump\t// in\n    tag_358:\n        /* \"#utility.yul\":11407:11432   */\n      swap3\n      pop\n        /* \"#utility.yul\":11600:11601   */\n      dup2\n        /* \"#utility.yul\":11532:11598   */\n      0xffffffffffffffffffffffffffffffffffffffffffffffffffffffffffffffff\n        /* \"#utility.yul\":11528:11602   */\n      div\n        /* \"#utility.yul\":11525:11526   */\n      dup4\n        /* \"#utility.yul\":11522:11603   */\n      gt\n        /* \"#utility.yul\":11517:11518   */\n      dup3\n        /* \"#utility.yul\":11510:11519   */\n      iszero\n        /* \"#utility.yul\":11503:11520   */\n      iszero\n        /* \"#utility.yul\":11499:11604   */\n      and\n        /* \"#utility.yul\":11496:11627   */\n      iszero\n      tag_359\n      jumpi\n        /* \"#utility.yul\":11607:11625   */\n      tag_360\n      tag_344\n      jump\t// in\n    tag_360:\n        /* \"#utility.yul\":11496:11627   */\n    tag_359:\n        /* \"#utility.yul\":11655:11656   */\n      dup3\n        /* \"#utility.yul\":11652:11653   */\n      dup3\n        /* \"#utility.yul\":11648:11657   */\n      mul\n        /* \"#utility.yul\":11637:11657   */\n      swap1\n      pop\n        /* \"#utility.yul\":11315:11663   */\n      swap3\n      swap2\n      pop\n      pop\n      jump\t// out\n        /* \"#utility.yul\":11669:11860   */\n    tag_156:\n        /* \"#utility.yul\":11709:11713   */\n      0x00\n        /* \"#utility.yul\":11729:11749   */\n      tag_362\n        /* \"#utility.yul\":11747:11748   */\n      dup3\n        /* \"#utility.yul\":11729:11749   */\n      tag_297\n      jump\t// in\n    tag_362:\n        /* \"#utility.yul\":11724:11749   */\n      swap2\n      pop\n        /* \"#utility.yul\":11763:11783   */\n      tag_363\n        /* \"#utility.yul\":11781:11782   */\n      dup4\n        /* \"#utility.yul\":11763:11783   */\n      tag_297\n      jump\t// in\n    tag_363:\n        /* \"#utility.yul\":11758:11783   */\n      swap3\n      pop\n        /* \"#utility.yul\":11802:11803   */\n      dup3\n        /* \"#utility.yul\":11799:11800   */\n      dup3\n        /* \"#utility.yul\":11796:11804   */\n      lt\n        /* \"#utility.yul\":11793:11827   */\n      iszero\n      tag_364\n      jumpi\n        /* \"#utility.yul\":11807:11825   */\n      tag_365\n      tag_344\n      jump\t// in\n    tag_365:\n        /* \"#utility.yul\":11793:11827   */\n    tag_364:\n        /* \"#utility.yul\":11852:11853   */\n      dup3\n        /* \"#utility.yul\":11849:11850   */\n      dup3\n        /* \"#utility.yul\":11845:11854   */\n      sub\n        /* \"#utility.yul\":11837:11854   */\n      swap1\n      pop\n        /* \"#utility.yul\":11669:11860   */\n      swap3\n      swap2\n      pop\n      pop\n      jump\t// out\n        /* \"#utility.yul\":11866:11962   */\n    tag_257:\n        /* \"#utility.yul\":11903:11910   */\n      0x00\n        /* \"#utility.yul\":11932:11956   */\n      tag_367\n        /* \"#utility.yul\":11950:11955   */\n      dup3\n        /* \"#utility.yul\":11932:11956   */\n      tag_368\n      jump\t// in\n    tag_367:\n        /* \"#utility.yul\":11921:11956   */\n      swap1\n      pop\n        /* \"#utility.yul\":11866:11962   */\n      swap2\n      swap1\n      pop\n      jump\t// out\n        /* \"#utility.yul\":11968:12072   */\n    tag_253:\n        /* \"#utility.yul\":12013:12020   */\n      0x00\n        /* \"#utility.yul\":12042:12066   */\n      tag_370\n        /* \"#utility.yul\":12060:12065   */\n      dup3\n        /* \"#utility.yul\":12042:12066   */\n      tag_368\n      jump\t// in\n    tag_370:\n        /* \"#utility.yul\":12031:12066   */\n      swap1\n      pop\n        /* \"#utility.yul\":11968:12072   */\n      swap2\n      swap1\n      pop\n      jump\t// out\n        /* \"#utility.yul\":12078:12168   */\n    tag_261:\n        /* \"#utility.yul\":12112:12119   */\n      0x00\n        /* \"#utility.yul\":12155:12160   */\n      dup2\n        /* \"#utility.yul\":12148:12161   */\n      iszero\n        /* \"#utility.yul\":12141:12162   */\n      iszero\n        /* \"#utility.yul\":12130:12162   */\n      swap1\n      pop\n        /* \"#utility.yul\":12078:12168   */\n      swap2\n      swap1\n      pop\n      jump\t// out\n        /* \"#utility.yul\":12174:12300   */\n    tag_368:\n        /* \"#utility.yul\":12211:12218   */\n      0x00\n        /* \"#utility.yul\":12251:12293   */\n      0xffffffffffffffffffffffffffffffffffffffff\n        /* \"#utility.yul\":12244:12249   */\n      dup3\n        /* \"#utility.yul\":12240:12294   */\n      and\n        /* \"#utility.yul\":12229:12294   */\n      swap1\n      pop\n        /* \"#utility.yul\":12174:12300   */\n      swap2\n      swap1\n      pop\n      jump\t// out\n        /* \"#utility.yul\":12306:12383   */\n    tag_297:\n        /* \"#utility.yul\":12343:12350   */\n      0x00\n        /* \"#utility.yul\":12372:12377   */\n      dup2\n        /* \"#utility.yul\":12361:12377   */\n      swap1\n      pop\n        /* \"#utility.yul\":12306:12383   */\n      swap2\n      swap1\n      pop\n      jump\t// out\n        /* \"#utility.yul\":12389:12475   */\n    tag_301:\n        /* \"#utility.yul\":12424:12431   */\n      0x00\n        /* \"#utility.yul\":12464:12468   */\n      0xff\n        /* \"#utility.yul\":12457:12462   */\n      dup3\n        /* \"#utility.yul\":12453:12469   */\n      and\n        /* \"#utility.yul\":12442:12469   */\n      swap1\n      pop\n        /* \"#utility.yul\":12389:12475   */\n      swap2\n      swap1\n      pop\n      jump\t// out\n        /* \"#utility.yul\":12481:12648   */\n    tag_112:\n        /* \"#utility.yul\":12518:12521   */\n      0x00\n        /* \"#utility.yul\":12541:12563   */\n      tag_376\n        /* \"#utility.yul\":12557:12562   */\n      dup3\n        /* \"#utility.yul\":12541:12563   */\n      tag_301\n      jump\t// in\n    tag_376:\n        /* \"#utility.yul\":12532:12563   */\n      swap2\n      pop\n        /* \"#utility.yul\":12585:12589   */\n      0xff\n        /* \"#utility.yul\":12578:12583   */\n      dup3\n        /* \"#utility.yul\":12575:12590   */\n      eq\n        /* \"#utility.yul\":12572:12613   */\n      iszero\n      tag_377\n      jumpi\n        /* \"#utility.yul\":12593:12611   */\n      tag_378\n      tag_344\n      jump\t// in\n    tag_378:\n        /* \"#utility.yul\":12572:12613   */\n    tag_377:\n        /* \"#utility.yul\":12640:12641   */\n      0x01\n        /* \"#utility.yul\":12633:12638   */\n      dup3\n        /* \"#utility.yul\":12629:12642   */\n      add\n        /* \"#utility.yul\":12622:12642   */\n      swap1\n      pop\n        /* \"#utility.yul\":12481:12648   */\n      swap2\n      swap1\n      pop\n      jump\t// out\n        /* \"#utility.yul\":12654:12830   */\n    tag_210:\n        /* \"#utility.yul\":12686:12687   */\n      0x00\n        /* \"#utility.yul\":12703:12723   */\n      tag_380\n        /* \"#utility.yul\":12721:12722   */\n      dup3\n        /* \"#utility.yul\":12703:12723   */\n      tag_297\n      jump\t// in\n    tag_380:\n        /* \"#utility.yul\":12698:12723   */\n      swap2\n      pop\n        /* \"#utility.yul\":12737:12757   */\n      tag_381\n        /* \"#utility.yul\":12755:12756   */\n      dup4\n        /* \"#utility.yul\":12737:12757   */\n      tag_297\n      jump\t// in\n    tag_381:\n        /* \"#utility.yul\":12732:12757   */\n      swap3\n      pop\n        /* \"#utility.yul\":12776:12777   */\n      dup3\n        /* \"#utility.yul\":12766:12801   */\n      tag_382\n      jumpi\n        /* \"#utility.yul\":12781:12799   */\n      tag_383\n      tag_355\n      jump\t// in\n    tag_383:\n        /* \"#utility.yul\":12766:12801   */\n    tag_382:\n        /* \"#utility.yul\":12822:12823   */\n      dup3\n        /* \"#utility.yul\":12819:12820   */\n      dup3\n        /* \"#utility.yul\":12815:12824   */\n      mod\n        /* \"#utility.yul\":12810:12824   */\n      swap1\n      pop\n        /* \"#utility.yul\":12654:12830   */\n      swap3\n      swap2\n      pop\n      pop\n      jump\t// out\n        /* \"#utility.yul\":12836:13016   */\n    tag_344:\n        /* \"#utility.yul\":12884:12961   */\n      0x4e487b7100000000000000000000000000000000000000000000000000000000\n        /* \"#utility.yul\":12881:12882   */\n      0x00\n        /* \"#utility.yul\":12874:12962   */\n      mstore\n        /* \"#utility.yul\":12981:12985   */\n      0x11\n        /* \"#utility.yul\":12978:12979   */\n      0x04\n        /* \"#utility.yul\":12971:12986   */\n      mstore\n        /* \"#utility.yul\":13005:13009   */\n      0x24\n        /* \"#utility.yul\":13002:13003   */\n      0x00\n        /* \"#utility.yul\":12995:13010   */\n      revert\n        /* \"#utility.yul\":13022:13202   */\n    tag_355:\n        /* \"#utility.yul\":13070:13147   */\n      0x4e487b7100000000000000000000000000000000000000000000000000000000\n        /* \"#utility.yul\":13067:13068   */\n      0x00\n        /* \"#utility.yul\":13060:13148   */\n      mstore\n        /* \"#utility.yul\":13167:13171   */\n      0x12\n        /* \"#utility.yul\":13164:13165   */\n      0x04\n        /* \"#utility.yul\":13157:13172   */\n      mstore\n        /* \"#utility.yul\":13191:13195   */\n      0x24\n        /* \"#utility.yul\":13188:13189   */\n      0x00\n        /* \"#utility.yul\":13181:13196   */\n      revert\n        /* \"#utility.yul\":13331:13448   */\n    tag_230:\n        /* \"#utility.yul\":13440:13441   */\n      0x00\n        /* \"#utility.yul\":13437:13438   */\n      dup1\n        /* \"#utility.yul\":13430:13442   */\n      revert\n        /* \"#utility.yul\":13454:13618   */\n    tag_267:\n        /* \"#utility.yul\":13594:13610   */\n      0x47616d65206e6f7420666f756e64000000000000000000000000000000000000\n        /* \"#utility.yul\":13590:13591   */\n      0x00\n        /* \"#utility.yul\":13582:13588   */\n      dup3\n        /* \"#utility.yul\":13578:13592   */\n      add\n        /* \"#utility.yul\":13571:13611   */\n      mstore\n        /* \"#utility.yul\":13454:13618   */\n      pop\n      jump\t// out\n        /* \"#utility.yul\":13624:13800   */\n    tag_272:\n        /* \"#utility.yul\":13764:13792   */\n      0x596f752061726520616c72656164792072656769737465726564000000000000\n        /* \"#utility.yul\":13760:13761   */\n      0x00\n        /* \"#utility.yul\":13752:13758   */\n      dup3\n        /* \"#utility.yul\":13748:13762   */\n      add\n        /* \"#utility.yul\":13741:13793   */\n      mstore\n        /* \"#utility.yul\":13624:13800   */\n      pop\n      jump\t// out\n        /* \"#utility.yul\":13806:13920   */\n    tag_278:\n      pop\n      jump\t// out\n        /* \"#utility.yul\":13926:14148   */\n    tag_283:\n        /* \"#utility.yul\":14066:14100   */\n      0x496e73756666696369656e7420616d6f756e74206f6620636f6e747269627574\n        /* \"#utility.yul\":14062:14063   */\n      0x00\n        /* \"#utility.yul\":14054:14060   */\n      dup3\n        /* \"#utility.yul\":14050:14064   */\n      add\n        /* \"#utility.yul\":14043:14101   */\n      mstore\n        /* \"#utility.yul\":14135:14140   */\n      0x696f6e0000000000000000000000000000000000000000000000000000000000\n        /* \"#utility.yul\":14130:14132   */\n      0x20\n        /* \"#utility.yul\":14122:14128   */\n      dup3\n        /* \"#utility.yul\":14118:14133   */\n      add\n        /* \"#utility.yul\":14111:14141   */\n      mstore\n        /* \"#utility.yul\":13926:14148   */\n      pop\n      jump\t// out\n        /* \"#utility.yul\":14154:14381   */\n    tag_288:\n        /* \"#utility.yul\":14294:14328   */\n      0x466f72207265676974657220696e2067616d6520796f75206e65656420706179\n        /* \"#utility.yul\":14290:14291   */\n      0x00\n        /* \"#utility.yul\":14282:14288   */\n      dup3\n        /* \"#utility.yul\":14278:14292   */\n      add\n        /* \"#utility.yul\":14271:14329   */\n      mstore\n        /* \"#utility.yul\":14363:14373   */\n      0x2031206574686572000000000000000000000000000000000000000000000000\n        /* \"#utility.yul\":14358:14360   */\n      0x20\n        /* \"#utility.yul\":14350:14356   */\n      dup3\n        /* \"#utility.yul\":14346:14361   */\n      add\n        /* \"#utility.yul\":14339:14374   */\n      mstore\n        /* \"#utility.yul\":14154:14381   */\n      pop\n      jump\t// out\n        /* \"#utility.yul\":14387:14549   */\n    tag_293:\n        /* \"#utility.yul\":14527:14541   */\n      0x4e6f20636f6e7472616374730000000000000000000000000000000000000000\n        /* \"#utility.yul\":14523:14524   */\n      0x00\n        /* \"#utility.yul\":14515:14521   */\n      dup3\n        /* \"#utility.yul\":14511:14525   */\n      add\n        /* \"#utility.yul\":14504:14542   */\n      mstore\n        /* \"#utility.yul\":14387:14549   */\n      pop\n      jump\t// out\n        /* \"#utility.yul\":14555:14677   */\n    tag_218:\n        /* \"#utility.yul\":14628:14652   */\n      tag_396\n        /* \"#utility.yul\":14646:14651   */\n      dup2\n        /* \"#utility.yul\":14628:14652   */\n      tag_257\n      jump\t// in\n    tag_396:\n        /* \"#utility.yul\":14621:14626   */\n      dup2\n        /* \"#utility.yul\":14618:14653   */\n      eq\n        /* \"#utility.yul\":14608:14671   */\n      tag_397\n      jumpi\n        /* \"#utility.yul\":14667:14668   */\n      0x00\n        /* \"#utility.yul\":14664:14665   */\n      dup1\n        /* \"#utility.yul\":14657:14669   */\n      revert\n        /* \"#utility.yul\":14608:14671   */\n    tag_397:\n        /* \"#utility.yul\":14555:14677   */\n      pop\n      jump\t// out\n        /* \"#utility.yul\":14683:14805   */\n    tag_222:\n        /* \"#utility.yul\":14756:14780   */\n      tag_399\n        /* \"#utility.yul\":14774:14779   */\n      dup2\n        /* \"#utility.yul\":14756:14780   */\n      tag_297\n      jump\t// in\n    tag_399:\n        /* \"#utility.yul\":14749:14754   */\n      dup2\n        /* \"#utility.yul\":14746:14781   */\n      eq\n        /* \"#utility.yul\":14736:14799   */\n      tag_400\n      jumpi\n        /* \"#utility.yul\":14795:14796   */\n      0x00\n        /* \"#utility.yul\":14792:14793   */\n      dup1\n        /* \"#utility.yul\":14785:14797   */\n      revert\n        /* \"#utility.yul\":14736:14799   */\n    tag_400:\n        /* \"#utility.yul\":14683:14805   */\n      pop\n      jump\t// out\n        /* \"#utility.yul\":14811:14929   */\n    tag_226:\n        /* \"#utility.yul\":14882:14904   */\n      tag_402\n        /* \"#utility.yul\":14898:14903   */\n      dup2\n        /* \"#utility.yul\":14882:14904   */\n      tag_301\n      jump\t// in\n    tag_402:\n        /* \"#utility.yul\":14875:14880   */\n      dup2\n        /* \"#utility.yul\":14872:14905   */\n      eq\n        /* \"#utility.yul\":14862:14923   */\n      tag_403\n      jumpi\n        /* \"#utility.yul\":14919:14920   */\n      0x00\n        /* \"#utility.yul\":14916:14917   */\n      dup1\n        /* \"#utility.yul\":14909:14921   */\n      revert\n        /* \"#utility.yul\":14862:14923   */\n    tag_403:\n        /* \"#utility.yul\":14811:14929   */\n      pop\n      jump\t// out\n\n    auxdata: 0xa2646970667358221220f5d507dc081a6957b3b224217124b8d064290af44400cfc8e8002854d35d1b4064736f6c63430008070033\n}\n",
				"bytecode": {
					"linkReferences": {},
					"object": "60806040523480156200001157600080fd5b50336001806101000a81548173ffffffffffffffffffffffffffffffffffffffff021916908373ffffffffffffffffffffffffffffffffffffffff16021790555060018054906101000a900473ffffffffffffffffffffffffffffffffffffffff166003600080815260200190815260200160002060006101000a81548173ffffffffffffffffffffffffffffffffffffffff021916908373ffffffffffffffffffffffffffffffffffffffff16021790555060405180606001604052806000815260200160018054906101000a900473ffffffffffffffffffffffffffffffffffffffff1673ffffffffffffffffffffffffffffffffffffffff16815260200160008152506004600060018054906101000a900473ffffffffffffffffffffffffffffffffffffffff1673ffffffffffffffffffffffffffffffffffffffff1673ffffffffffffffffffffffffffffffffffffffff1681526020019081526020016000206000820151816000015560208201518160010160006101000a81548173ffffffffffffffffffffffffffffffffffffffff021916908373ffffffffffffffffffffffffffffffffffffffff160217905550604082015181600201559050506001600081905550620001f5670de0b6b3a7640000620001fb60201b60201c565b62000403565b6200020c33620002f960201b60201c565b6200021657600080fd5b60405180602001604052808281525060026000600160009054906101000a900460ff1660ff1660ff1681526020019081526020016000206000820151816000015590505060018060008282829054906101000a900460ff166200027a91906200037f565b92506101000a81548160ff021916908360ff1602179055507fa0b7f6f22bb4f69adc52dd16ffe2a964ab8b577be274247fa9a1547b03ce3e5560026000600160009054906101000a900460ff1660ff1660ff16815260200190815260200160002060000154604051620002ee919062000362565b60405180910390a150565b600060018054906101000a900473ffffffffffffffffffffffffffffffffffffffff1673ffffffffffffffffffffffffffffffffffffffff168273ffffffffffffffffffffffffffffffffffffffff16149050919050565b6200035c81620003bd565b82525050565b600060208201905062000379600083018462000351565b92915050565b60006200038c82620003c7565b91506200039983620003c7565b92508260ff03821115620003b257620003b1620003d4565b5b828201905092915050565b6000819050919050565b600060ff82169050919050565b7f4e487b7100000000000000000000000000000000000000000000000000000000600052601160045260246000fd5b6121ae80620004136000396000f3fe6080604052600436106100ec5760003560e01c8063906cbf571161008a578063ae9283b511610059578063ae9283b514610346578063bd233b911461036f578063f1060006146103ac578063f8a8fd6d146103e9576100fd565b8063906cbf571461026457806395a078e8146102a15780639b0b0ae3146102de578063ad39f0a31461031b576100fd565b80632e8aab9b116100c65780632e8aab9b146101a157806347734892146101bd578063556c9095146101fa57806378a32e2114610225576100fd565b80630173c05b146101095780630e50cee5146101255780632a648c8914610164576100fd565b366100fd576100fb3334610400565b005b6101073334610400565b005b610123600480360381019061011e91906119ff565b6104c3565b005b34801561013157600080fd5b5061014c60048036038101906101479190611992565b610773565b60405161015b93929190611cbc565b60405180910390f35b34801561017057600080fd5b5061018b600480360381019061018691906119bf565b6107bd565b6040516101989190611be6565b60405180910390f35b6101bb60048036038101906101b69190611a2c565b6107ec565b005b3480156101c957600080fd5b506101e460048036038101906101df9190611992565b610896565b6040516101f19190611ca1565b60405180910390f35b34801561020657600080fd5b5061020f6108b7565b60405161021c9190611ca1565b60405180910390f35b34801561023157600080fd5b5061024c60048036038101906102479190611a59565b6108bd565b60405161025b93929190611cbc565b60405180910390f35b34801561027057600080fd5b5061028b60048036038101906102869190611a2c565b610914565b6040516102989190611ca1565b60405180910390f35b3480156102ad57600080fd5b506102c860048036038101906102c39190611992565b610932565b6040516102d59190611be6565b60405180910390f35b3480156102ea57600080fd5b5061030560048036038101906103009190611a2c565b61098a565b6040516103129190611ca1565b60405180910390f35b34801561032757600080fd5b506103306109a2565b60405161033d9190611d6f565b60405180910390f35b34801561035257600080fd5b5061036d600480360381019061036891906119ff565b6109b5565b005b34801561037b57600080fd5b50610396600480360381019061039191906119ff565b610aa6565b6040516103a39190611bcb565b60405180910390f35b3480156103b857600080fd5b506103d360048036038101906103ce91906119bf565b610ad9565b6040516103e09190611ca1565b60405180910390f35b3480156103f557600080fd5b506103fe610afe565b005b60008060005b60018060009054906101000a900460ff166104219190611dfc565b60ff168160ff1610156104715734600260008360ff1660ff16815260200190815260200160002060000154141561045e5760019250809150610471565b808061046990611f59565b915050610406565b50816104b2576040517f08c379a00000000000000000000000000000000000000000000000000000000081526004016104a990611c01565b60405180910390fd5b6104bd818585610b08565b50505050565b600080339050803b915060008263ffffffff161115610517576040517f08c379a000000000000000000000000000000000000000000000000000000000815260040161050e90611c81565b60405180910390fd5b600073ffffffffffffffffffffffffffffffffffffffff16600460003373ffffffffffffffffffffffffffffffffffffffff1673ffffffffffffffffffffffffffffffffffffffff16815260200190815260200160002060010160009054906101000a900473ffffffffffffffffffffffffffffffffffffffff1673ffffffffffffffffffffffffffffffffffffffff16146105e8576040517f08c379a00000000000000000000000000000000000000000000000000000000081526004016105df90611c21565b60405180910390fd5b670de0b6b3a76400003414610632576040517f08c379a000000000000000000000000000000000000000000000000000000000815260040161062990611c61565b60405180910390fd5b604051806060016040528060005481526020013373ffffffffffffffffffffffffffffffffffffffff16815260200184815250600460003373ffffffffffffffffffffffffffffffffffffffff1673ffffffffffffffffffffffffffffffffffffffff1681526020019081526020016000206000820151816000015560208201518160010160006101000a81548173ffffffffffffffffffffffffffffffffffffffff021916908373ffffffffffffffffffffffffffffffffffffffff1602179055506040820151816002015590505033600360008054815260200190815260200160002060006101000a81548173ffffffffffffffffffffffffffffffffffffffff021916908373ffffffffffffffffffffffffffffffffffffffff16021790555060016000808282546107679190611da6565b92505081905550505050565b60046020528060005260406000206000915090508060000154908060010160009054906101000a900473ffffffffffffffffffffffffffffffffffffffff16908060020154905083565b60086020528160005260406000206020528060005260406000206000915091509054906101000a900460ff1681565b600073ffffffffffffffffffffffffffffffffffffffff16600460003373ffffffffffffffffffffffffffffffffffffffff1673ffffffffffffffffffffffffffffffffffffffff16815260200190815260200160002060010160009054906101000a900473ffffffffffffffffffffffffffffffffffffffff1673ffffffffffffffffffffffffffffffffffffffff16141561088857600080fd5b610893813334610b08565b50565b60008173ffffffffffffffffffffffffffffffffffffffff16319050919050565b60005481565b6006602052816000526040600020602052806000526040600020600091509150508060000154908060010160009054906101000a900473ffffffffffffffffffffffffffffffffffffffff16908060020154905083565b60026020528060005260406000206000915090508060000154905081565b600060018054906101000a900473ffffffffffffffffffffffffffffffffffffffff1673ffffffffffffffffffffffffffffffffffffffff168273ffffffffffffffffffffffffffffffffffffffff16149050919050565b60056020528060005260406000206000915090505481565b600160009054906101000a900460ff1681565b6109be33610932565b6109c757600080fd5b60405180602001604052808281525060026000600160009054906101000a900460ff1660ff1660ff1681526020019081526020016000206000820151816000015590505060018060008282829054906101000a900460ff16610a299190611dfc565b92506101000a81548160ff021916908360ff1602179055507fa0b7f6f22bb4f69adc52dd16ffe2a964ab8b577be274247fa9a1547b03ce3e5560026000600160009054906101000a900460ff1660ff1660ff16815260200190815260200160002060000154604051610a9b9190611ca1565b60405180910390a150565b60036020528060005260406000206000915054906101000a900473ffffffffffffffffffffffffffffffffffffffff1681565b6007602052816000526040600020602052806000526040600020600091509150505481565b610b06610afe565b565b600260008460ff1660ff16815260200190815260200160002060000154811015610b67576040517f08c379a0000000000000000000000000000000000000000000000000000000008152600401610b5e90611c41565b60405180910390fd5b600460008373ffffffffffffffffffffffffffffffffffffffff1673ffffffffffffffffffffffffffffffffffffffff168152602001908152602001600020600660008560ff1660ff1681526020019081526020016000206000600560008760ff1660ff168152602001908152602001600020548152602001908152602001600020600082015481600001556001820160009054906101000a900473ffffffffffffffffffffffffffffffffffffffff168160010160006101000a81548173ffffffffffffffffffffffffffffffffffffffff021916908373ffffffffffffffffffffffffffffffffffffffff160217905550600282015481600201559050506001600860008473ffffffffffffffffffffffffffffffffffffffff1673ffffffffffffffffffffffffffffffffffffffff16815260200190815260200160002060008560ff1660ff16815260200190815260200160002060006101000a81548160ff0219169083151502179055506001600560008560ff1660ff1681526020019081526020016000206000828254610d009190611da6565b925050819055506003600560008560ff1660ff168152602001908152602001600020541061191d576000610d4c600560008660ff1660ff16815260200190815260200160002054611922565b90505b6000811461191b576000600660008660ff1660ff1681526020019081526020016000206000600184610d819190611ebe565b815260200190815260200160002060010160009054906101000a900473ffffffffffffffffffffffffffffffffffffffff1690506001600760008373ffffffffffffffffffffffffffffffffffffffff1673ffffffffffffffffffffffffffffffffffffffff16815260200190815260200160002060008760ff1660ff16815260200190815260200160002054111580610e875750600860008273ffffffffffffffffffffffffffffffffffffffff1673ffffffffffffffffffffffffffffffffffffffff1681526020019081526020016000206000600187610e649190611dfc565b60ff1660ff16815260200190815260200160002060009054906101000a900460ff165b156119155760008173ffffffffffffffffffffffffffffffffffffffff166064604a600260008a60ff1660ff16815260200190815260200160002060000154610ed09190611e64565b610eda9190611e33565b604051610ee690611bb6565b60006040518083038185875af1925050503d8060008114610f23576040519150601f19603f3d011682016040523d82523d6000602084013e610f28565b606091505b505090506001600760008473ffffffffffffffffffffffffffffffffffffffff1673ffffffffffffffffffffffffffffffffffffffff16815260200190815260200160002060008860ff1660ff1681526020019081526020016000206000828254610f939190611da6565b925050819055507f99af5599bf20c9414934ff2eb4264f5ac1a42fe0e5ec331366cf59ed0641c1bd600260008860ff1660ff168152602001908152602001600020600001548383604051610fe993929190611cf3565b60405180910390a16000600660008860ff1660ff168152602001908152602001600020600060018661101b9190611ebe565b81526020019081526020016000206000015490506000600660008960ff1660ff16815260200190815260200160002060006001876110599190611ebe565b815260200190815260200160002060020154905060006064600a600260008c60ff1660ff1681526020019081526020016000206000015461109a9190611e64565b6110a49190611e33565b90506003600083815260200190815260200160002060009054906101000a900473ffffffffffffffffffffffffffffffffffffffff1673ffffffffffffffffffffffffffffffffffffffff16816040516110fd90611bb6565b60006040518083038185875af1925050503d806000811461113a576040519150601f19603f3d011682016040523d82523d6000602084013e61113f565b606091505b50508094505083156111a5577f394d81fc6d726f376ac7e03cfb1bf07f04a993ec0a3fe7f4782e2ef8e5416145600260008b60ff1660ff1681526020019081526020016000206000015484848460405161119c9493929190611d2a565b60405180910390a15b60646006600260008c60ff1660ff168152602001908152602001600020600001546111d09190611e64565b6111da9190611e33565b9050600460006003600085815260200190815260200160002060009054906101000a900473ffffffffffffffffffffffffffffffffffffffff1673ffffffffffffffffffffffffffffffffffffffff1673ffffffffffffffffffffffffffffffffffffffff16815260200190815260200160002060010160009054906101000a900473ffffffffffffffffffffffffffffffffffffffff1673ffffffffffffffffffffffffffffffffffffffff168160405161129590611bb6565b60006040518083038185875af1925050503d80600081146112d2576040519150601f19603f3d011682016040523d82523d6000602084013e6112d7565b606091505b50508094505083156113b2577f394d81fc6d726f376ac7e03cfb1bf07f04a993ec0a3fe7f4782e2ef8e5416145600260008b60ff1660ff1681526020019081526020016000206000015483600460006003600088815260200190815260200160002060009054906101000a900473ffffffffffffffffffffffffffffffffffffffff1673ffffffffffffffffffffffffffffffffffffffff1673ffffffffffffffffffffffffffffffffffffffff16815260200190815260200160002060000154846040516113a99493929190611d2a565b60405180910390a15b60646004600260008c60ff1660ff168152602001908152602001600020600001546113dd9190611e64565b6113e79190611e33565b90506004600060036000600460006003600089815260200190815260200160002060009054906101000a900473ffffffffffffffffffffffffffffffffffffffff1673ffffffffffffffffffffffffffffffffffffffff1673ffffffffffffffffffffffffffffffffffffffff16815260200190815260200160002060000154815260200190815260200160002060009054906101000a900473ffffffffffffffffffffffffffffffffffffffff1673ffffffffffffffffffffffffffffffffffffffff1673ffffffffffffffffffffffffffffffffffffffff16815260200190815260200160002060010160009054906101000a900473ffffffffffffffffffffffffffffffffffffffff1673ffffffffffffffffffffffffffffffffffffffff168160405161151790611bb6565b60006040518083038185875af1925050503d8060008114611554576040519150601f19603f3d011682016040523d82523d6000602084013e611559565b606091505b505080945050831561171e577f394d81fc6d726f376ac7e03cfb1bf07f04a993ec0a3fe7f4782e2ef8e5416145600260008b60ff1660ff16815260200190815260200160002060000154600460006003600087815260200190815260200160002060009054906101000a900473ffffffffffffffffffffffffffffffffffffffff1673ffffffffffffffffffffffffffffffffffffffff1673ffffffffffffffffffffffffffffffffffffffff16815260200190815260200160002060000154600460006003600060046000600360008c815260200190815260200160002060009054906101000a900473ffffffffffffffffffffffffffffffffffffffff1673ffffffffffffffffffffffffffffffffffffffff1673ffffffffffffffffffffffffffffffffffffffff16815260200190815260200160002060000154815260200190815260200160002060009054906101000a900473ffffffffffffffffffffffffffffffffffffffff1673ffffffffffffffffffffffffffffffffffffffff1673ffffffffffffffffffffffffffffffffffffffff16815260200190815260200160002060000154846040516117159493929190611d2a565b60405180910390a15b60646006600260008c60ff1660ff168152602001908152602001600020600001546117499190611e64565b6117539190611e33565b90506004600060018054906101000a900473ffffffffffffffffffffffffffffffffffffffff1673ffffffffffffffffffffffffffffffffffffffff1673ffffffffffffffffffffffffffffffffffffffff16815260200190815260200160002060010160009054906101000a900473ffffffffffffffffffffffffffffffffffffffff1673ffffffffffffffffffffffffffffffffffffffff16816040516117fb90611bb6565b60006040518083038185875af1925050503d8060008114611838576040519150601f19603f3d011682016040523d82523d6000602084013e61183d565b606091505b5050809450508315611905577f394d81fc6d726f376ac7e03cfb1bf07f04a993ec0a3fe7f4782e2ef8e5416145600260008b60ff1660ff16815260200190815260200160002060000154846004600060018054906101000a900473ffffffffffffffffffffffffffffffffffffffff1673ffffffffffffffffffffffffffffffffffffffff1673ffffffffffffffffffffffffffffffffffffffff16815260200190815260200160002060000154846040516118fc9493929190611d2a565b60405180910390a15b61190e86611922565b9550505050505b50610d4f565b505b505050565b6000806002836119329190611f83565b14611949576002826119449190611e33565b61194c565b60005b9050919050565b60008135905061196281612133565b92915050565b6000813590506119778161214a565b92915050565b60008135905061198c81612161565b92915050565b6000602082840312156119a8576119a7612012565b5b60006119b684828501611953565b91505092915050565b600080604083850312156119d6576119d5612012565b5b60006119e485828601611953565b92505060206119f58582860161197d565b9150509250929050565b600060208284031215611a1557611a14612012565b5b6000611a2384828501611968565b91505092915050565b600060208284031215611a4257611a41612012565b5b6000611a508482850161197d565b91505092915050565b60008060408385031215611a7057611a6f612012565b5b6000611a7e8582860161197d565b9250506020611a8f85828601611968565b9150509250929050565b611aa281611f04565b82525050565b611ab181611ef2565b82525050565b611ac081611f16565b82525050565b6000611ad3600e83611d95565b9150611ade82612017565b602082019050919050565b6000611af6601a83611d95565b9150611b0182612040565b602082019050919050565b6000611b19600083611d8a565b9150611b2482612069565b600082019050919050565b6000611b3c602383611d95565b9150611b478261206c565b604082019050919050565b6000611b5f602883611d95565b9150611b6a826120bb565b604082019050919050565b6000611b82600c83611d95565b9150611b8d8261210a565b602082019050919050565b611ba181611f42565b82525050565b611bb081611f4c565b82525050565b6000611bc182611b0c565b9150819050919050565b6000602082019050611be06000830184611aa8565b92915050565b6000602082019050611bfb6000830184611ab7565b92915050565b60006020820190508181036000830152611c1a81611ac6565b9050919050565b60006020820190508181036000830152611c3a81611ae9565b9050919050565b60006020820190508181036000830152611c5a81611b2f565b9050919050565b60006020820190508181036000830152611c7a81611b52565b9050919050565b60006020820190508181036000830152611c9a81611b75565b9050919050565b6000602082019050611cb66000830184611b98565b92915050565b6000606082019050611cd16000830186611b98565b611cde6020830185611a99565b611ceb6040830184611b98565b949350505050565b6000606082019050611d086000830186611b98565b611d156020830185611aa8565b611d226040830184611ab7565b949350505050565b6000608082019050611d3f6000830187611b98565b611d4c6020830186611b98565b611d596040830185611b98565b611d666060830184611b98565b95945050505050565b6000602082019050611d846000830184611ba7565b92915050565b600081905092915050565b600082825260208201905092915050565b6000611db182611f42565b9150611dbc83611f42565b9250827fffffffffffffffffffffffffffffffffffffffffffffffffffffffffffffffff03821115611df157611df0611fb4565b5b828201905092915050565b6000611e0782611f4c565b9150611e1283611f4c565b92508260ff03821115611e2857611e27611fb4565b5b828201905092915050565b6000611e3e82611f42565b9150611e4983611f42565b925082611e5957611e58611fe3565b5b828204905092915050565b6000611e6f82611f42565b9150611e7a83611f42565b9250817fffffffffffffffffffffffffffffffffffffffffffffffffffffffffffffffff0483118215151615611eb357611eb2611fb4565b5b828202905092915050565b6000611ec982611f42565b9150611ed483611f42565b925082821015611ee757611ee6611fb4565b5b828203905092915050565b6000611efd82611f22565b9050919050565b6000611f0f82611f22565b9050919050565b60008115159050919050565b600073ffffffffffffffffffffffffffffffffffffffff82169050919050565b6000819050919050565b600060ff82169050919050565b6000611f6482611f4c565b915060ff821415611f7857611f77611fb4565b5b600182019050919050565b6000611f8e82611f42565b9150611f9983611f42565b925082611fa957611fa8611fe3565b5b828206905092915050565b7f4e487b7100000000000000000000000000000000000000000000000000000000600052601160045260246000fd5b7f4e487b7100000000000000000000000000000000000000000000000000000000600052601260045260246000fd5b600080fd5b7f47616d65206e6f7420666f756e64000000000000000000000000000000000000600082015250565b7f596f752061726520616c72656164792072656769737465726564000000000000600082015250565b50565b7f496e73756666696369656e7420616d6f756e74206f6620636f6e74726962757460008201527f696f6e0000000000000000000000000000000000000000000000000000000000602082015250565b7f466f72207265676974657220696e2067616d6520796f75206e6565642070617960008201527f2031206574686572000000000000000000000000000000000000000000000000602082015250565b7f4e6f20636f6e7472616374730000000000000000000000000000000000000000600082015250565b61213c81611ef2565b811461214757600080fd5b50565b61215381611f42565b811461215e57600080fd5b50565b61216a81611f4c565b811461217557600080fd5b5056fea2646970667358221220f5d507dc081a6957b3b224217124b8d064290af44400cfc8e8002854d35d1b4064736f6c63430008070033",
					"opcodes": "PUSH1 0x80 PUSH1 0x40 MSTORE CALLVALUE DUP1 ISZERO PUSH3 0x11 JUMPI PUSH1 0x0 DUP1 REVERT JUMPDEST POP CALLER PUSH1 0x1 DUP1 PUSH2 0x100 EXP DUP2 SLOAD DUP2 PUSH20 0xFFFFFFFFFFFFFFFFFFFFFFFFFFFFFFFFFFFFFFFF MUL NOT AND SWAP1 DUP4 PUSH20 0xFFFFFFFFFFFFFFFFFFFFFFFFFFFFFFFFFFFFFFFF AND MUL OR SWAP1 SSTORE POP PUSH1 0x1 DUP1 SLOAD SWAP1 PUSH2 0x100 EXP SWAP1 DIV PUSH20 0xFFFFFFFFFFFFFFFFFFFFFFFFFFFFFFFFFFFFFFFF AND PUSH1 0x3 PUSH1 0x0 DUP1 DUP2 MSTORE PUSH1 0x20 ADD SWAP1 DUP2 MSTORE PUSH1 0x20 ADD PUSH1 0x0 KECCAK256 PUSH1 0x0 PUSH2 0x100 EXP DUP2 SLOAD DUP2 PUSH20 0xFFFFFFFFFFFFFFFFFFFFFFFFFFFFFFFFFFFFFFFF MUL NOT AND SWAP1 DUP4 PUSH20 0xFFFFFFFFFFFFFFFFFFFFFFFFFFFFFFFFFFFFFFFF AND MUL OR SWAP1 SSTORE POP PUSH1 0x40 MLOAD DUP1 PUSH1 0x60 ADD PUSH1 0x40 MSTORE DUP1 PUSH1 0x0 DUP2 MSTORE PUSH1 0x20 ADD PUSH1 0x1 DUP1 SLOAD SWAP1 PUSH2 0x100 EXP SWAP1 DIV PUSH20 0xFFFFFFFFFFFFFFFFFFFFFFFFFFFFFFFFFFFFFFFF AND PUSH20 0xFFFFFFFFFFFFFFFFFFFFFFFFFFFFFFFFFFFFFFFF AND DUP2 MSTORE PUSH1 0x20 ADD PUSH1 0x0 DUP2 MSTORE POP PUSH1 0x4 PUSH1 0x0 PUSH1 0x1 DUP1 SLOAD SWAP1 PUSH2 0x100 EXP SWAP1 DIV PUSH20 0xFFFFFFFFFFFFFFFFFFFFFFFFFFFFFFFFFFFFFFFF AND PUSH20 0xFFFFFFFFFFFFFFFFFFFFFFFFFFFFFFFFFFFFFFFF AND PUSH20 0xFFFFFFFFFFFFFFFFFFFFFFFFFFFFFFFFFFFFFFFF AND DUP2 MSTORE PUSH1 0x20 ADD SWAP1 DUP2 MSTORE PUSH1 0x20 ADD PUSH1 0x0 KECCAK256 PUSH1 0x0 DUP3 ADD MLOAD DUP2 PUSH1 0x0 ADD SSTORE PUSH1 0x20 DUP3 ADD MLOAD DUP2 PUSH1 0x1 ADD PUSH1 0x0 PUSH2 0x100 EXP DUP2 SLOAD DUP2 PUSH20 0xFFFFFFFFFFFFFFFFFFFFFFFFFFFFFFFFFFFFFFFF MUL NOT AND SWAP1 DUP4 PUSH20 0xFFFFFFFFFFFFFFFFFFFFFFFFFFFFFFFFFFFFFFFF AND MUL OR SWAP1 SSTORE POP PUSH1 0x40 DUP3 ADD MLOAD DUP2 PUSH1 0x2 ADD SSTORE SWAP1 POP POP PUSH1 0x1 PUSH1 0x0 DUP2 SWAP1 SSTORE POP PUSH3 0x1F5 PUSH8 0xDE0B6B3A7640000 PUSH3 0x1FB PUSH1 0x20 SHL PUSH1 0x20 SHR JUMP JUMPDEST PUSH3 0x403 JUMP JUMPDEST PUSH3 0x20C CALLER PUSH3 0x2F9 PUSH1 0x20 SHL PUSH1 0x20 SHR JUMP JUMPDEST PUSH3 0x216 JUMPI PUSH1 0x0 DUP1 REVERT JUMPDEST PUSH1 0x40 MLOAD DUP1 PUSH1 0x20 ADD PUSH1 0x40 MSTORE DUP1 DUP3 DUP2 MSTORE POP PUSH1 0x2 PUSH1 0x0 PUSH1 0x1 PUSH1 0x0 SWAP1 SLOAD SWAP1 PUSH2 0x100 EXP SWAP1 DIV PUSH1 0xFF AND PUSH1 0xFF AND PUSH1 0xFF AND DUP2 MSTORE PUSH1 0x20 ADD SWAP1 DUP2 MSTORE PUSH1 0x20 ADD PUSH1 0x0 KECCAK256 PUSH1 0x0 DUP3 ADD MLOAD DUP2 PUSH1 0x0 ADD SSTORE SWAP1 POP POP PUSH1 0x1 DUP1 PUSH1 0x0 DUP3 DUP3 DUP3 SWAP1 SLOAD SWAP1 PUSH2 0x100 EXP SWAP1 DIV PUSH1 0xFF AND PUSH3 0x27A SWAP2 SWAP1 PUSH3 0x37F JUMP JUMPDEST SWAP3 POP PUSH2 0x100 EXP DUP2 SLOAD DUP2 PUSH1 0xFF MUL NOT AND SWAP1 DUP4 PUSH1 0xFF AND MUL OR SWAP1 SSTORE POP PUSH32 0xA0B7F6F22BB4F69ADC52DD16FFE2A964AB8B577BE274247FA9A1547B03CE3E55 PUSH1 0x2 PUSH1 0x0 PUSH1 0x1 PUSH1 0x0 SWAP1 SLOAD SWAP1 PUSH2 0x100 EXP SWAP1 DIV PUSH1 0xFF AND PUSH1 0xFF AND PUSH1 0xFF AND DUP2 MSTORE PUSH1 0x20 ADD SWAP1 DUP2 MSTORE PUSH1 0x20 ADD PUSH1 0x0 KECCAK256 PUSH1 0x0 ADD SLOAD PUSH1 0x40 MLOAD PUSH3 0x2EE SWAP2 SWAP1 PUSH3 0x362 JUMP JUMPDEST PUSH1 0x40 MLOAD DUP1 SWAP2 SUB SWAP1 LOG1 POP JUMP JUMPDEST PUSH1 0x0 PUSH1 0x1 DUP1 SLOAD SWAP1 PUSH2 0x100 EXP SWAP1 DIV PUSH20 0xFFFFFFFFFFFFFFFFFFFFFFFFFFFFFFFFFFFFFFFF AND PUSH20 0xFFFFFFFFFFFFFFFFFFFFFFFFFFFFFFFFFFFFFFFF AND DUP3 PUSH20 0xFFFFFFFFFFFFFFFFFFFFFFFFFFFFFFFFFFFFFFFF AND EQ SWAP1 POP SWAP2 SWAP1 POP JUMP JUMPDEST PUSH3 0x35C DUP2 PUSH3 0x3BD JUMP JUMPDEST DUP3 MSTORE POP POP JUMP JUMPDEST PUSH1 0x0 PUSH1 0x20 DUP3 ADD SWAP1 POP PUSH3 0x379 PUSH1 0x0 DUP4 ADD DUP5 PUSH3 0x351 JUMP JUMPDEST SWAP3 SWAP2 POP POP JUMP JUMPDEST PUSH1 0x0 PUSH3 0x38C DUP3 PUSH3 0x3C7 JUMP JUMPDEST SWAP2 POP PUSH3 0x399 DUP4 PUSH3 0x3C7 JUMP JUMPDEST SWAP3 POP DUP3 PUSH1 0xFF SUB DUP3 GT ISZERO PUSH3 0x3B2 JUMPI PUSH3 0x3B1 PUSH3 0x3D4 JUMP JUMPDEST JUMPDEST DUP3 DUP3 ADD SWAP1 POP SWAP3 SWAP2 POP POP JUMP JUMPDEST PUSH1 0x0 DUP2 SWAP1 POP SWAP2 SWAP1 POP JUMP JUMPDEST PUSH1 0x0 PUSH1 0xFF DUP3 AND SWAP1 POP SWAP2 SWAP1 POP JUMP JUMPDEST PUSH32 0x4E487B7100000000000000000000000000000000000000000000000000000000 PUSH1 0x0 MSTORE PUSH1 0x11 PUSH1 0x4 MSTORE PUSH1 0x24 PUSH1 0x0 REVERT JUMPDEST PUSH2 0x21AE DUP1 PUSH3 0x413 PUSH1 0x0 CODECOPY PUSH1 0x0 RETURN INVALID PUSH1 0x80 PUSH1 0x40 MSTORE PUSH1 0x4 CALLDATASIZE LT PUSH2 0xEC JUMPI PUSH1 0x0 CALLDATALOAD PUSH1 0xE0 SHR DUP1 PUSH4 0x906CBF57 GT PUSH2 0x8A JUMPI DUP1 PUSH4 0xAE9283B5 GT PUSH2 0x59 JUMPI DUP1 PUSH4 0xAE9283B5 EQ PUSH2 0x346 JUMPI DUP1 PUSH4 0xBD233B91 EQ PUSH2 0x36F JUMPI DUP1 PUSH4 0xF1060006 EQ PUSH2 0x3AC JUMPI DUP1 PUSH4 0xF8A8FD6D EQ PUSH2 0x3E9 JUMPI PUSH2 0xFD JUMP JUMPDEST DUP1 PUSH4 0x906CBF57 EQ PUSH2 0x264 JUMPI DUP1 PUSH4 0x95A078E8 EQ PUSH2 0x2A1 JUMPI DUP1 PUSH4 0x9B0B0AE3 EQ PUSH2 0x2DE JUMPI DUP1 PUSH4 0xAD39F0A3 EQ PUSH2 0x31B JUMPI PUSH2 0xFD JUMP JUMPDEST DUP1 PUSH4 0x2E8AAB9B GT PUSH2 0xC6 JUMPI DUP1 PUSH4 0x2E8AAB9B EQ PUSH2 0x1A1 JUMPI DUP1 PUSH4 0x47734892 EQ PUSH2 0x1BD JUMPI DUP1 PUSH4 0x556C9095 EQ PUSH2 0x1FA JUMPI DUP1 PUSH4 0x78A32E21 EQ PUSH2 0x225 JUMPI PUSH2 0xFD JUMP JUMPDEST DUP1 PUSH4 0x173C05B EQ PUSH2 0x109 JUMPI DUP1 PUSH4 0xE50CEE5 EQ PUSH2 0x125 JUMPI DUP1 PUSH4 0x2A648C89 EQ PUSH2 0x164 JUMPI PUSH2 0xFD JUMP JUMPDEST CALLDATASIZE PUSH2 0xFD JUMPI PUSH2 0xFB CALLER CALLVALUE PUSH2 0x400 JUMP JUMPDEST STOP JUMPDEST PUSH2 0x107 CALLER CALLVALUE PUSH2 0x400 JUMP JUMPDEST STOP JUMPDEST PUSH2 0x123 PUSH1 0x4 DUP1 CALLDATASIZE SUB DUP2 ADD SWAP1 PUSH2 0x11E SWAP2 SWAP1 PUSH2 0x19FF JUMP JUMPDEST PUSH2 0x4C3 JUMP JUMPDEST STOP JUMPDEST CALLVALUE DUP1 ISZERO PUSH2 0x131 JUMPI PUSH1 0x0 DUP1 REVERT JUMPDEST POP PUSH2 0x14C PUSH1 0x4 DUP1 CALLDATASIZE SUB DUP2 ADD SWAP1 PUSH2 0x147 SWAP2 SWAP1 PUSH2 0x1992 JUMP JUMPDEST PUSH2 0x773 JUMP JUMPDEST PUSH1 0x40 MLOAD PUSH2 0x15B SWAP4 SWAP3 SWAP2 SWAP1 PUSH2 0x1CBC JUMP JUMPDEST PUSH1 0x40 MLOAD DUP1 SWAP2 SUB SWAP1 RETURN JUMPDEST CALLVALUE DUP1 ISZERO PUSH2 0x170 JUMPI PUSH1 0x0 DUP1 REVERT JUMPDEST POP PUSH2 0x18B PUSH1 0x4 DUP1 CALLDATASIZE SUB DUP2 ADD SWAP1 PUSH2 0x186 SWAP2 SWAP1 PUSH2 0x19BF JUMP JUMPDEST PUSH2 0x7BD JUMP JUMPDEST PUSH1 0x40 MLOAD PUSH2 0x198 SWAP2 SWAP1 PUSH2 0x1BE6 JUMP JUMPDEST PUSH1 0x40 MLOAD DUP1 SWAP2 SUB SWAP1 RETURN JUMPDEST PUSH2 0x1BB PUSH1 0x4 DUP1 CALLDATASIZE SUB DUP2 ADD SWAP1 PUSH2 0x1B6 SWAP2 SWAP1 PUSH2 0x1A2C JUMP JUMPDEST PUSH2 0x7EC JUMP JUMPDEST STOP JUMPDEST CALLVALUE DUP1 ISZERO PUSH2 0x1C9 JUMPI PUSH1 0x0 DUP1 REVERT JUMPDEST POP PUSH2 0x1E4 PUSH1 0x4 DUP1 CALLDATASIZE SUB DUP2 ADD SWAP1 PUSH2 0x1DF SWAP2 SWAP1 PUSH2 0x1992 JUMP JUMPDEST PUSH2 0x896 JUMP JUMPDEST PUSH1 0x40 MLOAD PUSH2 0x1F1 SWAP2 SWAP1 PUSH2 0x1CA1 JUMP JUMPDEST PUSH1 0x40 MLOAD DUP1 SWAP2 SUB SWAP1 RETURN JUMPDEST CALLVALUE DUP1 ISZERO PUSH2 0x206 JUMPI PUSH1 0x0 DUP1 REVERT JUMPDEST POP PUSH2 0x20F PUSH2 0x8B7 JUMP JUMPDEST PUSH1 0x40 MLOAD PUSH2 0x21C SWAP2 SWAP1 PUSH2 0x1CA1 JUMP JUMPDEST PUSH1 0x40 MLOAD DUP1 SWAP2 SUB SWAP1 RETURN JUMPDEST CALLVALUE DUP1 ISZERO PUSH2 0x231 JUMPI PUSH1 0x0 DUP1 REVERT JUMPDEST POP PUSH2 0x24C PUSH1 0x4 DUP1 CALLDATASIZE SUB DUP2 ADD SWAP1 PUSH2 0x247 SWAP2 SWAP1 PUSH2 0x1A59 JUMP JUMPDEST PUSH2 0x8BD JUMP JUMPDEST PUSH1 0x40 MLOAD PUSH2 0x25B SWAP4 SWAP3 SWAP2 SWAP1 PUSH2 0x1CBC JUMP JUMPDEST PUSH1 0x40 MLOAD DUP1 SWAP2 SUB SWAP1 RETURN JUMPDEST CALLVALUE DUP1 ISZERO PUSH2 0x270 JUMPI PUSH1 0x0 DUP1 REVERT JUMPDEST POP PUSH2 0x28B PUSH1 0x4 DUP1 CALLDATASIZE SUB DUP2 ADD SWAP1 PUSH2 0x286 SWAP2 SWAP1 PUSH2 0x1A2C JUMP JUMPDEST PUSH2 0x914 JUMP JUMPDEST PUSH1 0x40 MLOAD PUSH2 0x298 SWAP2 SWAP1 PUSH2 0x1CA1 JUMP JUMPDEST PUSH1 0x40 MLOAD DUP1 SWAP2 SUB SWAP1 RETURN JUMPDEST CALLVALUE DUP1 ISZERO PUSH2 0x2AD JUMPI PUSH1 0x0 DUP1 REVERT JUMPDEST POP PUSH2 0x2C8 PUSH1 0x4 DUP1 CALLDATASIZE SUB DUP2 ADD SWAP1 PUSH2 0x2C3 SWAP2 SWAP1 PUSH2 0x1992 JUMP JUMPDEST PUSH2 0x932 JUMP JUMPDEST PUSH1 0x40 MLOAD PUSH2 0x2D5 SWAP2 SWAP1 PUSH2 0x1BE6 JUMP JUMPDEST PUSH1 0x40 MLOAD DUP1 SWAP2 SUB SWAP1 RETURN JUMPDEST CALLVALUE DUP1 ISZERO PUSH2 0x2EA JUMPI PUSH1 0x0 DUP1 REVERT JUMPDEST POP PUSH2 0x305 PUSH1 0x4 DUP1 CALLDATASIZE SUB DUP2 ADD SWAP1 PUSH2 0x300 SWAP2 SWAP1 PUSH2 0x1A2C JUMP JUMPDEST PUSH2 0x98A JUMP JUMPDEST PUSH1 0x40 MLOAD PUSH2 0x312 SWAP2 SWAP1 PUSH2 0x1CA1 JUMP JUMPDEST PUSH1 0x40 MLOAD DUP1 SWAP2 SUB SWAP1 RETURN JUMPDEST CALLVALUE DUP1 ISZERO PUSH2 0x327 JUMPI PUSH1 0x0 DUP1 REVERT JUMPDEST POP PUSH2 0x330 PUSH2 0x9A2 JUMP JUMPDEST PUSH1 0x40 MLOAD PUSH2 0x33D SWAP2 SWAP1 PUSH2 0x1D6F JUMP JUMPDEST PUSH1 0x40 MLOAD DUP1 SWAP2 SUB SWAP1 RETURN JUMPDEST CALLVALUE DUP1 ISZERO PUSH2 0x352 JUMPI PUSH1 0x0 DUP1 REVERT JUMPDEST POP PUSH2 0x36D PUSH1 0x4 DUP1 CALLDATASIZE SUB DUP2 ADD SWAP1 PUSH2 0x368 SWAP2 SWAP1 PUSH2 0x19FF JUMP JUMPDEST PUSH2 0x9B5 JUMP JUMPDEST STOP JUMPDEST CALLVALUE DUP1 ISZERO PUSH2 0x37B JUMPI PUSH1 0x0 DUP1 REVERT JUMPDEST POP PUSH2 0x396 PUSH1 0x4 DUP1 CALLDATASIZE SUB DUP2 ADD SWAP1 PUSH2 0x391 SWAP2 SWAP1 PUSH2 0x19FF JUMP JUMPDEST PUSH2 0xAA6 JUMP JUMPDEST PUSH1 0x40 MLOAD PUSH2 0x3A3 SWAP2 SWAP1 PUSH2 0x1BCB JUMP JUMPDEST PUSH1 0x40 MLOAD DUP1 SWAP2 SUB SWAP1 RETURN JUMPDEST CALLVALUE DUP1 ISZERO PUSH2 0x3B8 JUMPI PUSH1 0x0 DUP1 REVERT JUMPDEST POP PUSH2 0x3D3 PUSH1 0x4 DUP1 CALLDATASIZE SUB DUP2 ADD SWAP1 PUSH2 0x3CE SWAP2 SWAP1 PUSH2 0x19BF JUMP JUMPDEST PUSH2 0xAD9 JUMP JUMPDEST PUSH1 0x40 MLOAD PUSH2 0x3E0 SWAP2 SWAP1 PUSH2 0x1CA1 JUMP JUMPDEST PUSH1 0x40 MLOAD DUP1 SWAP2 SUB SWAP1 RETURN JUMPDEST CALLVALUE DUP1 ISZERO PUSH2 0x3F5 JUMPI PUSH1 0x0 DUP1 REVERT JUMPDEST POP PUSH2 0x3FE PUSH2 0xAFE JUMP JUMPDEST STOP JUMPDEST PUSH1 0x0 DUP1 PUSH1 0x0 JUMPDEST PUSH1 0x1 DUP1 PUSH1 0x0 SWAP1 SLOAD SWAP1 PUSH2 0x100 EXP SWAP1 DIV PUSH1 0xFF AND PUSH2 0x421 SWAP2 SWAP1 PUSH2 0x1DFC JUMP JUMPDEST PUSH1 0xFF AND DUP2 PUSH1 0xFF AND LT ISZERO PUSH2 0x471 JUMPI CALLVALUE PUSH1 0x2 PUSH1 0x0 DUP4 PUSH1 0xFF AND PUSH1 0xFF AND DUP2 MSTORE PUSH1 0x20 ADD SWAP1 DUP2 MSTORE PUSH1 0x20 ADD PUSH1 0x0 KECCAK256 PUSH1 0x0 ADD SLOAD EQ ISZERO PUSH2 0x45E JUMPI PUSH1 0x1 SWAP3 POP DUP1 SWAP2 POP PUSH2 0x471 JUMP JUMPDEST DUP1 DUP1 PUSH2 0x469 SWAP1 PUSH2 0x1F59 JUMP JUMPDEST SWAP2 POP POP PUSH2 0x406 JUMP JUMPDEST POP DUP2 PUSH2 0x4B2 JUMPI PUSH1 0x40 MLOAD PUSH32 0x8C379A000000000000000000000000000000000000000000000000000000000 DUP2 MSTORE PUSH1 0x4 ADD PUSH2 0x4A9 SWAP1 PUSH2 0x1C01 JUMP JUMPDEST PUSH1 0x40 MLOAD DUP1 SWAP2 SUB SWAP1 REVERT JUMPDEST PUSH2 0x4BD DUP2 DUP6 DUP6 PUSH2 0xB08 JUMP JUMPDEST POP POP POP POP JUMP JUMPDEST PUSH1 0x0 DUP1 CALLER SWAP1 POP DUP1 EXTCODESIZE SWAP2 POP PUSH1 0x0 DUP3 PUSH4 0xFFFFFFFF AND GT ISZERO PUSH2 0x517 JUMPI PUSH1 0x40 MLOAD PUSH32 0x8C379A000000000000000000000000000000000000000000000000000000000 DUP2 MSTORE PUSH1 0x4 ADD PUSH2 0x50E SWAP1 PUSH2 0x1C81 JUMP JUMPDEST PUSH1 0x40 MLOAD DUP1 SWAP2 SUB SWAP1 REVERT JUMPDEST PUSH1 0x0 PUSH20 0xFFFFFFFFFFFFFFFFFFFFFFFFFFFFFFFFFFFFFFFF AND PUSH1 0x4 PUSH1 0x0 CALLER PUSH20 0xFFFFFFFFFFFFFFFFFFFFFFFFFFFFFFFFFFFFFFFF AND PUSH20 0xFFFFFFFFFFFFFFFFFFFFFFFFFFFFFFFFFFFFFFFF AND DUP2 MSTORE PUSH1 0x20 ADD SWAP1 DUP2 MSTORE PUSH1 0x20 ADD PUSH1 0x0 KECCAK256 PUSH1 0x1 ADD PUSH1 0x0 SWAP1 SLOAD SWAP1 PUSH2 0x100 EXP SWAP1 DIV PUSH20 0xFFFFFFFFFFFFFFFFFFFFFFFFFFFFFFFFFFFFFFFF AND PUSH20 0xFFFFFFFFFFFFFFFFFFFFFFFFFFFFFFFFFFFFFFFF AND EQ PUSH2 0x5E8 JUMPI PUSH1 0x40 MLOAD PUSH32 0x8C379A000000000000000000000000000000000000000000000000000000000 DUP2 MSTORE PUSH1 0x4 ADD PUSH2 0x5DF SWAP1 PUSH2 0x1C21 JUMP JUMPDEST PUSH1 0x40 MLOAD DUP1 SWAP2 SUB SWAP1 REVERT JUMPDEST PUSH8 0xDE0B6B3A7640000 CALLVALUE EQ PUSH2 0x632 JUMPI PUSH1 0x40 MLOAD PUSH32 0x8C379A000000000000000000000000000000000000000000000000000000000 DUP2 MSTORE PUSH1 0x4 ADD PUSH2 0x629 SWAP1 PUSH2 0x1C61 JUMP JUMPDEST PUSH1 0x40 MLOAD DUP1 SWAP2 SUB SWAP1 REVERT JUMPDEST PUSH1 0x40 MLOAD DUP1 PUSH1 0x60 ADD PUSH1 0x40 MSTORE DUP1 PUSH1 0x0 SLOAD DUP2 MSTORE PUSH1 0x20 ADD CALLER PUSH20 0xFFFFFFFFFFFFFFFFFFFFFFFFFFFFFFFFFFFFFFFF AND DUP2 MSTORE PUSH1 0x20 ADD DUP5 DUP2 MSTORE POP PUSH1 0x4 PUSH1 0x0 CALLER PUSH20 0xFFFFFFFFFFFFFFFFFFFFFFFFFFFFFFFFFFFFFFFF AND PUSH20 0xFFFFFFFFFFFFFFFFFFFFFFFFFFFFFFFFFFFFFFFF AND DUP2 MSTORE PUSH1 0x20 ADD SWAP1 DUP2 MSTORE PUSH1 0x20 ADD PUSH1 0x0 KECCAK256 PUSH1 0x0 DUP3 ADD MLOAD DUP2 PUSH1 0x0 ADD SSTORE PUSH1 0x20 DUP3 ADD MLOAD DUP2 PUSH1 0x1 ADD PUSH1 0x0 PUSH2 0x100 EXP DUP2 SLOAD DUP2 PUSH20 0xFFFFFFFFFFFFFFFFFFFFFFFFFFFFFFFFFFFFFFFF MUL NOT AND SWAP1 DUP4 PUSH20 0xFFFFFFFFFFFFFFFFFFFFFFFFFFFFFFFFFFFFFFFF AND MUL OR SWAP1 SSTORE POP PUSH1 0x40 DUP3 ADD MLOAD DUP2 PUSH1 0x2 ADD SSTORE SWAP1 POP POP CALLER PUSH1 0x3 PUSH1 0x0 DUP1 SLOAD DUP2 MSTORE PUSH1 0x20 ADD SWAP1 DUP2 MSTORE PUSH1 0x20 ADD PUSH1 0x0 KECCAK256 PUSH1 0x0 PUSH2 0x100 EXP DUP2 SLOAD DUP2 PUSH20 0xFFFFFFFFFFFFFFFFFFFFFFFFFFFFFFFFFFFFFFFF MUL NOT AND SWAP1 DUP4 PUSH20 0xFFFFFFFFFFFFFFFFFFFFFFFFFFFFFFFFFFFFFFFF AND MUL OR SWAP1 SSTORE POP PUSH1 0x1 PUSH1 0x0 DUP1 DUP3 DUP3 SLOAD PUSH2 0x767 SWAP2 SWAP1 PUSH2 0x1DA6 JUMP JUMPDEST SWAP3 POP POP DUP2 SWAP1 SSTORE POP POP POP POP JUMP JUMPDEST PUSH1 0x4 PUSH1 0x20 MSTORE DUP1 PUSH1 0x0 MSTORE PUSH1 0x40 PUSH1 0x0 KECCAK256 PUSH1 0x0 SWAP2 POP SWAP1 POP DUP1 PUSH1 0x0 ADD SLOAD SWAP1 DUP1 PUSH1 0x1 ADD PUSH1 0x0 SWAP1 SLOAD SWAP1 PUSH2 0x100 EXP SWAP1 DIV PUSH20 0xFFFFFFFFFFFFFFFFFFFFFFFFFFFFFFFFFFFFFFFF AND SWAP1 DUP1 PUSH1 0x2 ADD SLOAD SWAP1 POP DUP4 JUMP JUMPDEST PUSH1 0x8 PUSH1 0x20 MSTORE DUP2 PUSH1 0x0 MSTORE PUSH1 0x40 PUSH1 0x0 KECCAK256 PUSH1 0x20 MSTORE DUP1 PUSH1 0x0 MSTORE PUSH1 0x40 PUSH1 0x0 KECCAK256 PUSH1 0x0 SWAP2 POP SWAP2 POP SWAP1 SLOAD SWAP1 PUSH2 0x100 EXP SWAP1 DIV PUSH1 0xFF AND DUP2 JUMP JUMPDEST PUSH1 0x0 PUSH20 0xFFFFFFFFFFFFFFFFFFFFFFFFFFFFFFFFFFFFFFFF AND PUSH1 0x4 PUSH1 0x0 CALLER PUSH20 0xFFFFFFFFFFFFFFFFFFFFFFFFFFFFFFFFFFFFFFFF AND PUSH20 0xFFFFFFFFFFFFFFFFFFFFFFFFFFFFFFFFFFFFFFFF AND DUP2 MSTORE PUSH1 0x20 ADD SWAP1 DUP2 MSTORE PUSH1 0x20 ADD PUSH1 0x0 KECCAK256 PUSH1 0x1 ADD PUSH1 0x0 SWAP1 SLOAD SWAP1 PUSH2 0x100 EXP SWAP1 DIV PUSH20 0xFFFFFFFFFFFFFFFFFFFFFFFFFFFFFFFFFFFFFFFF AND PUSH20 0xFFFFFFFFFFFFFFFFFFFFFFFFFFFFFFFFFFFFFFFF AND EQ ISZERO PUSH2 0x888 JUMPI PUSH1 0x0 DUP1 REVERT JUMPDEST PUSH2 0x893 DUP2 CALLER CALLVALUE PUSH2 0xB08 JUMP JUMPDEST POP JUMP JUMPDEST PUSH1 0x0 DUP2 PUSH20 0xFFFFFFFFFFFFFFFFFFFFFFFFFFFFFFFFFFFFFFFF AND BALANCE SWAP1 POP SWAP2 SWAP1 POP JUMP JUMPDEST PUSH1 0x0 SLOAD DUP2 JUMP JUMPDEST PUSH1 0x6 PUSH1 0x20 MSTORE DUP2 PUSH1 0x0 MSTORE PUSH1 0x40 PUSH1 0x0 KECCAK256 PUSH1 0x20 MSTORE DUP1 PUSH1 0x0 MSTORE PUSH1 0x40 PUSH1 0x0 KECCAK256 PUSH1 0x0 SWAP2 POP SWAP2 POP POP DUP1 PUSH1 0x0 ADD SLOAD SWAP1 DUP1 PUSH1 0x1 ADD PUSH1 0x0 SWAP1 SLOAD SWAP1 PUSH2 0x100 EXP SWAP1 DIV PUSH20 0xFFFFFFFFFFFFFFFFFFFFFFFFFFFFFFFFFFFFFFFF AND SWAP1 DUP1 PUSH1 0x2 ADD SLOAD SWAP1 POP DUP4 JUMP JUMPDEST PUSH1 0x2 PUSH1 0x20 MSTORE DUP1 PUSH1 0x0 MSTORE PUSH1 0x40 PUSH1 0x0 KECCAK256 PUSH1 0x0 SWAP2 POP SWAP1 POP DUP1 PUSH1 0x0 ADD SLOAD SWAP1 POP DUP2 JUMP JUMPDEST PUSH1 0x0 PUSH1 0x1 DUP1 SLOAD SWAP1 PUSH2 0x100 EXP SWAP1 DIV PUSH20 0xFFFFFFFFFFFFFFFFFFFFFFFFFFFFFFFFFFFFFFFF AND PUSH20 0xFFFFFFFFFFFFFFFFFFFFFFFFFFFFFFFFFFFFFFFF AND DUP3 PUSH20 0xFFFFFFFFFFFFFFFFFFFFFFFFFFFFFFFFFFFFFFFF AND EQ SWAP1 POP SWAP2 SWAP1 POP JUMP JUMPDEST PUSH1 0x5 PUSH1 0x20 MSTORE DUP1 PUSH1 0x0 MSTORE PUSH1 0x40 PUSH1 0x0 KECCAK256 PUSH1 0x0 SWAP2 POP SWAP1 POP SLOAD DUP2 JUMP JUMPDEST PUSH1 0x1 PUSH1 0x0 SWAP1 SLOAD SWAP1 PUSH2 0x100 EXP SWAP1 DIV PUSH1 0xFF AND DUP2 JUMP JUMPDEST PUSH2 0x9BE CALLER PUSH2 0x932 JUMP JUMPDEST PUSH2 0x9C7 JUMPI PUSH1 0x0 DUP1 REVERT JUMPDEST PUSH1 0x40 MLOAD DUP1 PUSH1 0x20 ADD PUSH1 0x40 MSTORE DUP1 DUP3 DUP2 MSTORE POP PUSH1 0x2 PUSH1 0x0 PUSH1 0x1 PUSH1 0x0 SWAP1 SLOAD SWAP1 PUSH2 0x100 EXP SWAP1 DIV PUSH1 0xFF AND PUSH1 0xFF AND PUSH1 0xFF AND DUP2 MSTORE PUSH1 0x20 ADD SWAP1 DUP2 MSTORE PUSH1 0x20 ADD PUSH1 0x0 KECCAK256 PUSH1 0x0 DUP3 ADD MLOAD DUP2 PUSH1 0x0 ADD SSTORE SWAP1 POP POP PUSH1 0x1 DUP1 PUSH1 0x0 DUP3 DUP3 DUP3 SWAP1 SLOAD SWAP1 PUSH2 0x100 EXP SWAP1 DIV PUSH1 0xFF AND PUSH2 0xA29 SWAP2 SWAP1 PUSH2 0x1DFC JUMP JUMPDEST SWAP3 POP PUSH2 0x100 EXP DUP2 SLOAD DUP2 PUSH1 0xFF MUL NOT AND SWAP1 DUP4 PUSH1 0xFF AND MUL OR SWAP1 SSTORE POP PUSH32 0xA0B7F6F22BB4F69ADC52DD16FFE2A964AB8B577BE274247FA9A1547B03CE3E55 PUSH1 0x2 PUSH1 0x0 PUSH1 0x1 PUSH1 0x0 SWAP1 SLOAD SWAP1 PUSH2 0x100 EXP SWAP1 DIV PUSH1 0xFF AND PUSH1 0xFF AND PUSH1 0xFF AND DUP2 MSTORE PUSH1 0x20 ADD SWAP1 DUP2 MSTORE PUSH1 0x20 ADD PUSH1 0x0 KECCAK256 PUSH1 0x0 ADD SLOAD PUSH1 0x40 MLOAD PUSH2 0xA9B SWAP2 SWAP1 PUSH2 0x1CA1 JUMP JUMPDEST PUSH1 0x40 MLOAD DUP1 SWAP2 SUB SWAP1 LOG1 POP JUMP JUMPDEST PUSH1 0x3 PUSH1 0x20 MSTORE DUP1 PUSH1 0x0 MSTORE PUSH1 0x40 PUSH1 0x0 KECCAK256 PUSH1 0x0 SWAP2 POP SLOAD SWAP1 PUSH2 0x100 EXP SWAP1 DIV PUSH20 0xFFFFFFFFFFFFFFFFFFFFFFFFFFFFFFFFFFFFFFFF AND DUP2 JUMP JUMPDEST PUSH1 0x7 PUSH1 0x20 MSTORE DUP2 PUSH1 0x0 MSTORE PUSH1 0x40 PUSH1 0x0 KECCAK256 PUSH1 0x20 MSTORE DUP1 PUSH1 0x0 MSTORE PUSH1 0x40 PUSH1 0x0 KECCAK256 PUSH1 0x0 SWAP2 POP SWAP2 POP POP SLOAD DUP2 JUMP JUMPDEST PUSH2 0xB06 PUSH2 0xAFE JUMP JUMPDEST JUMP JUMPDEST PUSH1 0x2 PUSH1 0x0 DUP5 PUSH1 0xFF AND PUSH1 0xFF AND DUP2 MSTORE PUSH1 0x20 ADD SWAP1 DUP2 MSTORE PUSH1 0x20 ADD PUSH1 0x0 KECCAK256 PUSH1 0x0 ADD SLOAD DUP2 LT ISZERO PUSH2 0xB67 JUMPI PUSH1 0x40 MLOAD PUSH32 0x8C379A000000000000000000000000000000000000000000000000000000000 DUP2 MSTORE PUSH1 0x4 ADD PUSH2 0xB5E SWAP1 PUSH2 0x1C41 JUMP JUMPDEST PUSH1 0x40 MLOAD DUP1 SWAP2 SUB SWAP1 REVERT JUMPDEST PUSH1 0x4 PUSH1 0x0 DUP4 PUSH20 0xFFFFFFFFFFFFFFFFFFFFFFFFFFFFFFFFFFFFFFFF AND PUSH20 0xFFFFFFFFFFFFFFFFFFFFFFFFFFFFFFFFFFFFFFFF AND DUP2 MSTORE PUSH1 0x20 ADD SWAP1 DUP2 MSTORE PUSH1 0x20 ADD PUSH1 0x0 KECCAK256 PUSH1 0x6 PUSH1 0x0 DUP6 PUSH1 0xFF AND PUSH1 0xFF AND DUP2 MSTORE PUSH1 0x20 ADD SWAP1 DUP2 MSTORE PUSH1 0x20 ADD PUSH1 0x0 KECCAK256 PUSH1 0x0 PUSH1 0x5 PUSH1 0x0 DUP8 PUSH1 0xFF AND PUSH1 0xFF AND DUP2 MSTORE PUSH1 0x20 ADD SWAP1 DUP2 MSTORE PUSH1 0x20 ADD PUSH1 0x0 KECCAK256 SLOAD DUP2 MSTORE PUSH1 0x20 ADD SWAP1 DUP2 MSTORE PUSH1 0x20 ADD PUSH1 0x0 KECCAK256 PUSH1 0x0 DUP3 ADD SLOAD DUP2 PUSH1 0x0 ADD SSTORE PUSH1 0x1 DUP3 ADD PUSH1 0x0 SWAP1 SLOAD SWAP1 PUSH2 0x100 EXP SWAP1 DIV PUSH20 0xFFFFFFFFFFFFFFFFFFFFFFFFFFFFFFFFFFFFFFFF AND DUP2 PUSH1 0x1 ADD PUSH1 0x0 PUSH2 0x100 EXP DUP2 SLOAD DUP2 PUSH20 0xFFFFFFFFFFFFFFFFFFFFFFFFFFFFFFFFFFFFFFFF MUL NOT AND SWAP1 DUP4 PUSH20 0xFFFFFFFFFFFFFFFFFFFFFFFFFFFFFFFFFFFFFFFF AND MUL OR SWAP1 SSTORE POP PUSH1 0x2 DUP3 ADD SLOAD DUP2 PUSH1 0x2 ADD SSTORE SWAP1 POP POP PUSH1 0x1 PUSH1 0x8 PUSH1 0x0 DUP5 PUSH20 0xFFFFFFFFFFFFFFFFFFFFFFFFFFFFFFFFFFFFFFFF AND PUSH20 0xFFFFFFFFFFFFFFFFFFFFFFFFFFFFFFFFFFFFFFFF AND DUP2 MSTORE PUSH1 0x20 ADD SWAP1 DUP2 MSTORE PUSH1 0x20 ADD PUSH1 0x0 KECCAK256 PUSH1 0x0 DUP6 PUSH1 0xFF AND PUSH1 0xFF AND DUP2 MSTORE PUSH1 0x20 ADD SWAP1 DUP2 MSTORE PUSH1 0x20 ADD PUSH1 0x0 KECCAK256 PUSH1 0x0 PUSH2 0x100 EXP DUP2 SLOAD DUP2 PUSH1 0xFF MUL NOT AND SWAP1 DUP4 ISZERO ISZERO MUL OR SWAP1 SSTORE POP PUSH1 0x1 PUSH1 0x5 PUSH1 0x0 DUP6 PUSH1 0xFF AND PUSH1 0xFF AND DUP2 MSTORE PUSH1 0x20 ADD SWAP1 DUP2 MSTORE PUSH1 0x20 ADD PUSH1 0x0 KECCAK256 PUSH1 0x0 DUP3 DUP3 SLOAD PUSH2 0xD00 SWAP2 SWAP1 PUSH2 0x1DA6 JUMP JUMPDEST SWAP3 POP POP DUP2 SWAP1 SSTORE POP PUSH1 0x3 PUSH1 0x5 PUSH1 0x0 DUP6 PUSH1 0xFF AND PUSH1 0xFF AND DUP2 MSTORE PUSH1 0x20 ADD SWAP1 DUP2 MSTORE PUSH1 0x20 ADD PUSH1 0x0 KECCAK256 SLOAD LT PUSH2 0x191D JUMPI PUSH1 0x0 PUSH2 0xD4C PUSH1 0x5 PUSH1 0x0 DUP7 PUSH1 0xFF AND PUSH1 0xFF AND DUP2 MSTORE PUSH1 0x20 ADD SWAP1 DUP2 MSTORE PUSH1 0x20 ADD PUSH1 0x0 KECCAK256 SLOAD PUSH2 0x1922 JUMP JUMPDEST SWAP1 POP JUMPDEST PUSH1 0x0 DUP2 EQ PUSH2 0x191B JUMPI PUSH1 0x0 PUSH1 0x6 PUSH1 0x0 DUP7 PUSH1 0xFF AND PUSH1 0xFF AND DUP2 MSTORE PUSH1 0x20 ADD SWAP1 DUP2 MSTORE PUSH1 0x20 ADD PUSH1 0x0 KECCAK256 PUSH1 0x0 PUSH1 0x1 DUP5 PUSH2 0xD81 SWAP2 SWAP1 PUSH2 0x1EBE JUMP JUMPDEST DUP2 MSTORE PUSH1 0x20 ADD SWAP1 DUP2 MSTORE PUSH1 0x20 ADD PUSH1 0x0 KECCAK256 PUSH1 0x1 ADD PUSH1 0x0 SWAP1 SLOAD SWAP1 PUSH2 0x100 EXP SWAP1 DIV PUSH20 0xFFFFFFFFFFFFFFFFFFFFFFFFFFFFFFFFFFFFFFFF AND SWAP1 POP PUSH1 0x1 PUSH1 0x7 PUSH1 0x0 DUP4 PUSH20 0xFFFFFFFFFFFFFFFFFFFFFFFFFFFFFFFFFFFFFFFF AND PUSH20 0xFFFFFFFFFFFFFFFFFFFFFFFFFFFFFFFFFFFFFFFF AND DUP2 MSTORE PUSH1 0x20 ADD SWAP1 DUP2 MSTORE PUSH1 0x20 ADD PUSH1 0x0 KECCAK256 PUSH1 0x0 DUP8 PUSH1 0xFF AND PUSH1 0xFF AND DUP2 MSTORE PUSH1 0x20 ADD SWAP1 DUP2 MSTORE PUSH1 0x20 ADD PUSH1 0x0 KECCAK256 SLOAD GT ISZERO DUP1 PUSH2 0xE87 JUMPI POP PUSH1 0x8 PUSH1 0x0 DUP3 PUSH20 0xFFFFFFFFFFFFFFFFFFFFFFFFFFFFFFFFFFFFFFFF AND PUSH20 0xFFFFFFFFFFFFFFFFFFFFFFFFFFFFFFFFFFFFFFFF AND DUP2 MSTORE PUSH1 0x20 ADD SWAP1 DUP2 MSTORE PUSH1 0x20 ADD PUSH1 0x0 KECCAK256 PUSH1 0x0 PUSH1 0x1 DUP8 PUSH2 0xE64 SWAP2 SWAP1 PUSH2 0x1DFC JUMP JUMPDEST PUSH1 0xFF AND PUSH1 0xFF AND DUP2 MSTORE PUSH1 0x20 ADD SWAP1 DUP2 MSTORE PUSH1 0x20 ADD PUSH1 0x0 KECCAK256 PUSH1 0x0 SWAP1 SLOAD SWAP1 PUSH2 0x100 EXP SWAP1 DIV PUSH1 0xFF AND JUMPDEST ISZERO PUSH2 0x1915 JUMPI PUSH1 0x0 DUP2 PUSH20 0xFFFFFFFFFFFFFFFFFFFFFFFFFFFFFFFFFFFFFFFF AND PUSH1 0x64 PUSH1 0x4A PUSH1 0x2 PUSH1 0x0 DUP11 PUSH1 0xFF AND PUSH1 0xFF AND DUP2 MSTORE PUSH1 0x20 ADD SWAP1 DUP2 MSTORE PUSH1 0x20 ADD PUSH1 0x0 KECCAK256 PUSH1 0x0 ADD SLOAD PUSH2 0xED0 SWAP2 SWAP1 PUSH2 0x1E64 JUMP JUMPDEST PUSH2 0xEDA SWAP2 SWAP1 PUSH2 0x1E33 JUMP JUMPDEST PUSH1 0x40 MLOAD PUSH2 0xEE6 SWAP1 PUSH2 0x1BB6 JUMP JUMPDEST PUSH1 0x0 PUSH1 0x40 MLOAD DUP1 DUP4 SUB DUP2 DUP6 DUP8 GAS CALL SWAP3 POP POP POP RETURNDATASIZE DUP1 PUSH1 0x0 DUP2 EQ PUSH2 0xF23 JUMPI PUSH1 0x40 MLOAD SWAP2 POP PUSH1 0x1F NOT PUSH1 0x3F RETURNDATASIZE ADD AND DUP3 ADD PUSH1 0x40 MSTORE RETURNDATASIZE DUP3 MSTORE RETURNDATASIZE PUSH1 0x0 PUSH1 0x20 DUP5 ADD RETURNDATACOPY PUSH2 0xF28 JUMP JUMPDEST PUSH1 0x60 SWAP2 POP JUMPDEST POP POP SWAP1 POP PUSH1 0x1 PUSH1 0x7 PUSH1 0x0 DUP5 PUSH20 0xFFFFFFFFFFFFFFFFFFFFFFFFFFFFFFFFFFFFFFFF AND PUSH20 0xFFFFFFFFFFFFFFFFFFFFFFFFFFFFFFFFFFFFFFFF AND DUP2 MSTORE PUSH1 0x20 ADD SWAP1 DUP2 MSTORE PUSH1 0x20 ADD PUSH1 0x0 KECCAK256 PUSH1 0x0 DUP9 PUSH1 0xFF AND PUSH1 0xFF AND DUP2 MSTORE PUSH1 0x20 ADD SWAP1 DUP2 MSTORE PUSH1 0x20 ADD PUSH1 0x0 KECCAK256 PUSH1 0x0 DUP3 DUP3 SLOAD PUSH2 0xF93 SWAP2 SWAP1 PUSH2 0x1DA6 JUMP JUMPDEST SWAP3 POP POP DUP2 SWAP1 SSTORE POP PUSH32 0x99AF5599BF20C9414934FF2EB4264F5AC1A42FE0E5EC331366CF59ED0641C1BD PUSH1 0x2 PUSH1 0x0 DUP9 PUSH1 0xFF AND PUSH1 0xFF AND DUP2 MSTORE PUSH1 0x20 ADD SWAP1 DUP2 MSTORE PUSH1 0x20 ADD PUSH1 0x0 KECCAK256 PUSH1 0x0 ADD SLOAD DUP4 DUP4 PUSH1 0x40 MLOAD PUSH2 0xFE9 SWAP4 SWAP3 SWAP2 SWAP1 PUSH2 0x1CF3 JUMP JUMPDEST PUSH1 0x40 MLOAD DUP1 SWAP2 SUB SWAP1 LOG1 PUSH1 0x0 PUSH1 0x6 PUSH1 0x0 DUP9 PUSH1 0xFF AND PUSH1 0xFF AND DUP2 MSTORE PUSH1 0x20 ADD SWAP1 DUP2 MSTORE PUSH1 0x20 ADD PUSH1 0x0 KECCAK256 PUSH1 0x0 PUSH1 0x1 DUP7 PUSH2 0x101B SWAP2 SWAP1 PUSH2 0x1EBE JUMP JUMPDEST DUP2 MSTORE PUSH1 0x20 ADD SWAP1 DUP2 MSTORE PUSH1 0x20 ADD PUSH1 0x0 KECCAK256 PUSH1 0x0 ADD SLOAD SWAP1 POP PUSH1 0x0 PUSH1 0x6 PUSH1 0x0 DUP10 PUSH1 0xFF AND PUSH1 0xFF AND DUP2 MSTORE PUSH1 0x20 ADD SWAP1 DUP2 MSTORE PUSH1 0x20 ADD PUSH1 0x0 KECCAK256 PUSH1 0x0 PUSH1 0x1 DUP8 PUSH2 0x1059 SWAP2 SWAP1 PUSH2 0x1EBE JUMP JUMPDEST DUP2 MSTORE PUSH1 0x20 ADD SWAP1 DUP2 MSTORE PUSH1 0x20 ADD PUSH1 0x0 KECCAK256 PUSH1 0x2 ADD SLOAD SWAP1 POP PUSH1 0x0 PUSH1 0x64 PUSH1 0xA PUSH1 0x2 PUSH1 0x0 DUP13 PUSH1 0xFF AND PUSH1 0xFF AND DUP2 MSTORE PUSH1 0x20 ADD SWAP1 DUP2 MSTORE PUSH1 0x20 ADD PUSH1 0x0 KECCAK256 PUSH1 0x0 ADD SLOAD PUSH2 0x109A SWAP2 SWAP1 PUSH2 0x1E64 JUMP JUMPDEST PUSH2 0x10A4 SWAP2 SWAP1 PUSH2 0x1E33 JUMP JUMPDEST SWAP1 POP PUSH1 0x3 PUSH1 0x0 DUP4 DUP2 MSTORE PUSH1 0x20 ADD SWAP1 DUP2 MSTORE PUSH1 0x20 ADD PUSH1 0x0 KECCAK256 PUSH1 0x0 SWAP1 SLOAD SWAP1 PUSH2 0x100 EXP SWAP1 DIV PUSH20 0xFFFFFFFFFFFFFFFFFFFFFFFFFFFFFFFFFFFFFFFF AND PUSH20 0xFFFFFFFFFFFFFFFFFFFFFFFFFFFFFFFFFFFFFFFF AND DUP2 PUSH1 0x40 MLOAD PUSH2 0x10FD SWAP1 PUSH2 0x1BB6 JUMP JUMPDEST PUSH1 0x0 PUSH1 0x40 MLOAD DUP1 DUP4 SUB DUP2 DUP6 DUP8 GAS CALL SWAP3 POP POP POP RETURNDATASIZE DUP1 PUSH1 0x0 DUP2 EQ PUSH2 0x113A JUMPI PUSH1 0x40 MLOAD SWAP2 POP PUSH1 0x1F NOT PUSH1 0x3F RETURNDATASIZE ADD AND DUP3 ADD PUSH1 0x40 MSTORE RETURNDATASIZE DUP3 MSTORE RETURNDATASIZE PUSH1 0x0 PUSH1 0x20 DUP5 ADD RETURNDATACOPY PUSH2 0x113F JUMP JUMPDEST PUSH1 0x60 SWAP2 POP JUMPDEST POP POP DUP1 SWAP5 POP POP DUP4 ISZERO PUSH2 0x11A5 JUMPI PUSH32 0x394D81FC6D726F376AC7E03CFB1BF07F04A993EC0A3FE7F4782E2EF8E5416145 PUSH1 0x2 PUSH1 0x0 DUP12 PUSH1 0xFF AND PUSH1 0xFF AND DUP2 MSTORE PUSH1 0x20 ADD SWAP1 DUP2 MSTORE PUSH1 0x20 ADD PUSH1 0x0 KECCAK256 PUSH1 0x0 ADD SLOAD DUP5 DUP5 DUP5 PUSH1 0x40 MLOAD PUSH2 0x119C SWAP5 SWAP4 SWAP3 SWAP2 SWAP1 PUSH2 0x1D2A JUMP JUMPDEST PUSH1 0x40 MLOAD DUP1 SWAP2 SUB SWAP1 LOG1 JUMPDEST PUSH1 0x64 PUSH1 0x6 PUSH1 0x2 PUSH1 0x0 DUP13 PUSH1 0xFF AND PUSH1 0xFF AND DUP2 MSTORE PUSH1 0x20 ADD SWAP1 DUP2 MSTORE PUSH1 0x20 ADD PUSH1 0x0 KECCAK256 PUSH1 0x0 ADD SLOAD PUSH2 0x11D0 SWAP2 SWAP1 PUSH2 0x1E64 JUMP JUMPDEST PUSH2 0x11DA SWAP2 SWAP1 PUSH2 0x1E33 JUMP JUMPDEST SWAP1 POP PUSH1 0x4 PUSH1 0x0 PUSH1 0x3 PUSH1 0x0 DUP6 DUP2 MSTORE PUSH1 0x20 ADD SWAP1 DUP2 MSTORE PUSH1 0x20 ADD PUSH1 0x0 KECCAK256 PUSH1 0x0 SWAP1 SLOAD SWAP1 PUSH2 0x100 EXP SWAP1 DIV PUSH20 0xFFFFFFFFFFFFFFFFFFFFFFFFFFFFFFFFFFFFFFFF AND PUSH20 0xFFFFFFFFFFFFFFFFFFFFFFFFFFFFFFFFFFFFFFFF AND PUSH20 0xFFFFFFFFFFFFFFFFFFFFFFFFFFFFFFFFFFFFFFFF AND DUP2 MSTORE PUSH1 0x20 ADD SWAP1 DUP2 MSTORE PUSH1 0x20 ADD PUSH1 0x0 KECCAK256 PUSH1 0x1 ADD PUSH1 0x0 SWAP1 SLOAD SWAP1 PUSH2 0x100 EXP SWAP1 DIV PUSH20 0xFFFFFFFFFFFFFFFFFFFFFFFFFFFFFFFFFFFFFFFF AND PUSH20 0xFFFFFFFFFFFFFFFFFFFFFFFFFFFFFFFFFFFFFFFF AND DUP2 PUSH1 0x40 MLOAD PUSH2 0x1295 SWAP1 PUSH2 0x1BB6 JUMP JUMPDEST PUSH1 0x0 PUSH1 0x40 MLOAD DUP1 DUP4 SUB DUP2 DUP6 DUP8 GAS CALL SWAP3 POP POP POP RETURNDATASIZE DUP1 PUSH1 0x0 DUP2 EQ PUSH2 0x12D2 JUMPI PUSH1 0x40 MLOAD SWAP2 POP PUSH1 0x1F NOT PUSH1 0x3F RETURNDATASIZE ADD AND DUP3 ADD PUSH1 0x40 MSTORE RETURNDATASIZE DUP3 MSTORE RETURNDATASIZE PUSH1 0x0 PUSH1 0x20 DUP5 ADD RETURNDATACOPY PUSH2 0x12D7 JUMP JUMPDEST PUSH1 0x60 SWAP2 POP JUMPDEST POP POP DUP1 SWAP5 POP POP DUP4 ISZERO PUSH2 0x13B2 JUMPI PUSH32 0x394D81FC6D726F376AC7E03CFB1BF07F04A993EC0A3FE7F4782E2EF8E5416145 PUSH1 0x2 PUSH1 0x0 DUP12 PUSH1 0xFF AND PUSH1 0xFF AND DUP2 MSTORE PUSH1 0x20 ADD SWAP1 DUP2 MSTORE PUSH1 0x20 ADD PUSH1 0x0 KECCAK256 PUSH1 0x0 ADD SLOAD DUP4 PUSH1 0x4 PUSH1 0x0 PUSH1 0x3 PUSH1 0x0 DUP9 DUP2 MSTORE PUSH1 0x20 ADD SWAP1 DUP2 MSTORE PUSH1 0x20 ADD PUSH1 0x0 KECCAK256 PUSH1 0x0 SWAP1 SLOAD SWAP1 PUSH2 0x100 EXP SWAP1 DIV PUSH20 0xFFFFFFFFFFFFFFFFFFFFFFFFFFFFFFFFFFFFFFFF AND PUSH20 0xFFFFFFFFFFFFFFFFFFFFFFFFFFFFFFFFFFFFFFFF AND PUSH20 0xFFFFFFFFFFFFFFFFFFFFFFFFFFFFFFFFFFFFFFFF AND DUP2 MSTORE PUSH1 0x20 ADD SWAP1 DUP2 MSTORE PUSH1 0x20 ADD PUSH1 0x0 KECCAK256 PUSH1 0x0 ADD SLOAD DUP5 PUSH1 0x40 MLOAD PUSH2 0x13A9 SWAP5 SWAP4 SWAP3 SWAP2 SWAP1 PUSH2 0x1D2A JUMP JUMPDEST PUSH1 0x40 MLOAD DUP1 SWAP2 SUB SWAP1 LOG1 JUMPDEST PUSH1 0x64 PUSH1 0x4 PUSH1 0x2 PUSH1 0x0 DUP13 PUSH1 0xFF AND PUSH1 0xFF AND DUP2 MSTORE PUSH1 0x20 ADD SWAP1 DUP2 MSTORE PUSH1 0x20 ADD PUSH1 0x0 KECCAK256 PUSH1 0x0 ADD SLOAD PUSH2 0x13DD SWAP2 SWAP1 PUSH2 0x1E64 JUMP JUMPDEST PUSH2 0x13E7 SWAP2 SWAP1 PUSH2 0x1E33 JUMP JUMPDEST SWAP1 POP PUSH1 0x4 PUSH1 0x0 PUSH1 0x3 PUSH1 0x0 PUSH1 0x4 PUSH1 0x0 PUSH1 0x3 PUSH1 0x0 DUP10 DUP2 MSTORE PUSH1 0x20 ADD SWAP1 DUP2 MSTORE PUSH1 0x20 ADD PUSH1 0x0 KECCAK256 PUSH1 0x0 SWAP1 SLOAD SWAP1 PUSH2 0x100 EXP SWAP1 DIV PUSH20 0xFFFFFFFFFFFFFFFFFFFFFFFFFFFFFFFFFFFFFFFF AND PUSH20 0xFFFFFFFFFFFFFFFFFFFFFFFFFFFFFFFFFFFFFFFF AND PUSH20 0xFFFFFFFFFFFFFFFFFFFFFFFFFFFFFFFFFFFFFFFF AND DUP2 MSTORE PUSH1 0x20 ADD SWAP1 DUP2 MSTORE PUSH1 0x20 ADD PUSH1 0x0 KECCAK256 PUSH1 0x0 ADD SLOAD DUP2 MSTORE PUSH1 0x20 ADD SWAP1 DUP2 MSTORE PUSH1 0x20 ADD PUSH1 0x0 KECCAK256 PUSH1 0x0 SWAP1 SLOAD SWAP1 PUSH2 0x100 EXP SWAP1 DIV PUSH20 0xFFFFFFFFFFFFFFFFFFFFFFFFFFFFFFFFFFFFFFFF AND PUSH20 0xFFFFFFFFFFFFFFFFFFFFFFFFFFFFFFFFFFFFFFFF AND PUSH20 0xFFFFFFFFFFFFFFFFFFFFFFFFFFFFFFFFFFFFFFFF AND DUP2 MSTORE PUSH1 0x20 ADD SWAP1 DUP2 MSTORE PUSH1 0x20 ADD PUSH1 0x0 KECCAK256 PUSH1 0x1 ADD PUSH1 0x0 SWAP1 SLOAD SWAP1 PUSH2 0x100 EXP SWAP1 DIV PUSH20 0xFFFFFFFFFFFFFFFFFFFFFFFFFFFFFFFFFFFFFFFF AND PUSH20 0xFFFFFFFFFFFFFFFFFFFFFFFFFFFFFFFFFFFFFFFF AND DUP2 PUSH1 0x40 MLOAD PUSH2 0x1517 SWAP1 PUSH2 0x1BB6 JUMP JUMPDEST PUSH1 0x0 PUSH1 0x40 MLOAD DUP1 DUP4 SUB DUP2 DUP6 DUP8 GAS CALL SWAP3 POP POP POP RETURNDATASIZE DUP1 PUSH1 0x0 DUP2 EQ PUSH2 0x1554 JUMPI PUSH1 0x40 MLOAD SWAP2 POP PUSH1 0x1F NOT PUSH1 0x3F RETURNDATASIZE ADD AND DUP3 ADD PUSH1 0x40 MSTORE RETURNDATASIZE DUP3 MSTORE RETURNDATASIZE PUSH1 0x0 PUSH1 0x20 DUP5 ADD RETURNDATACOPY PUSH2 0x1559 JUMP JUMPDEST PUSH1 0x60 SWAP2 POP JUMPDEST POP POP DUP1 SWAP5 POP POP DUP4 ISZERO PUSH2 0x171E JUMPI PUSH32 0x394D81FC6D726F376AC7E03CFB1BF07F04A993EC0A3FE7F4782E2EF8E5416145 PUSH1 0x2 PUSH1 0x0 DUP12 PUSH1 0xFF AND PUSH1 0xFF AND DUP2 MSTORE PUSH1 0x20 ADD SWAP1 DUP2 MSTORE PUSH1 0x20 ADD PUSH1 0x0 KECCAK256 PUSH1 0x0 ADD SLOAD PUSH1 0x4 PUSH1 0x0 PUSH1 0x3 PUSH1 0x0 DUP8 DUP2 MSTORE PUSH1 0x20 ADD SWAP1 DUP2 MSTORE PUSH1 0x20 ADD PUSH1 0x0 KECCAK256 PUSH1 0x0 SWAP1 SLOAD SWAP1 PUSH2 0x100 EXP SWAP1 DIV PUSH20 0xFFFFFFFFFFFFFFFFFFFFFFFFFFFFFFFFFFFFFFFF AND PUSH20 0xFFFFFFFFFFFFFFFFFFFFFFFFFFFFFFFFFFFFFFFF AND PUSH20 0xFFFFFFFFFFFFFFFFFFFFFFFFFFFFFFFFFFFFFFFF AND DUP2 MSTORE PUSH1 0x20 ADD SWAP1 DUP2 MSTORE PUSH1 0x20 ADD PUSH1 0x0 KECCAK256 PUSH1 0x0 ADD SLOAD PUSH1 0x4 PUSH1 0x0 PUSH1 0x3 PUSH1 0x0 PUSH1 0x4 PUSH1 0x0 PUSH1 0x3 PUSH1 0x0 DUP13 DUP2 MSTORE PUSH1 0x20 ADD SWAP1 DUP2 MSTORE PUSH1 0x20 ADD PUSH1 0x0 KECCAK256 PUSH1 0x0 SWAP1 SLOAD SWAP1 PUSH2 0x100 EXP SWAP1 DIV PUSH20 0xFFFFFFFFFFFFFFFFFFFFFFFFFFFFFFFFFFFFFFFF AND PUSH20 0xFFFFFFFFFFFFFFFFFFFFFFFFFFFFFFFFFFFFFFFF AND PUSH20 0xFFFFFFFFFFFFFFFFFFFFFFFFFFFFFFFFFFFFFFFF AND DUP2 MSTORE PUSH1 0x20 ADD SWAP1 DUP2 MSTORE PUSH1 0x20 ADD PUSH1 0x0 KECCAK256 PUSH1 0x0 ADD SLOAD DUP2 MSTORE PUSH1 0x20 ADD SWAP1 DUP2 MSTORE PUSH1 0x20 ADD PUSH1 0x0 KECCAK256 PUSH1 0x0 SWAP1 SLOAD SWAP1 PUSH2 0x100 EXP SWAP1 DIV PUSH20 0xFFFFFFFFFFFFFFFFFFFFFFFFFFFFFFFFFFFFFFFF AND PUSH20 0xFFFFFFFFFFFFFFFFFFFFFFFFFFFFFFFFFFFFFFFF AND PUSH20 0xFFFFFFFFFFFFFFFFFFFFFFFFFFFFFFFFFFFFFFFF AND DUP2 MSTORE PUSH1 0x20 ADD SWAP1 DUP2 MSTORE PUSH1 0x20 ADD PUSH1 0x0 KECCAK256 PUSH1 0x0 ADD SLOAD DUP5 PUSH1 0x40 MLOAD PUSH2 0x1715 SWAP5 SWAP4 SWAP3 SWAP2 SWAP1 PUSH2 0x1D2A JUMP JUMPDEST PUSH1 0x40 MLOAD DUP1 SWAP2 SUB SWAP1 LOG1 JUMPDEST PUSH1 0x64 PUSH1 0x6 PUSH1 0x2 PUSH1 0x0 DUP13 PUSH1 0xFF AND PUSH1 0xFF AND DUP2 MSTORE PUSH1 0x20 ADD SWAP1 DUP2 MSTORE PUSH1 0x20 ADD PUSH1 0x0 KECCAK256 PUSH1 0x0 ADD SLOAD PUSH2 0x1749 SWAP2 SWAP1 PUSH2 0x1E64 JUMP JUMPDEST PUSH2 0x1753 SWAP2 SWAP1 PUSH2 0x1E33 JUMP JUMPDEST SWAP1 POP PUSH1 0x4 PUSH1 0x0 PUSH1 0x1 DUP1 SLOAD SWAP1 PUSH2 0x100 EXP SWAP1 DIV PUSH20 0xFFFFFFFFFFFFFFFFFFFFFFFFFFFFFFFFFFFFFFFF AND PUSH20 0xFFFFFFFFFFFFFFFFFFFFFFFFFFFFFFFFFFFFFFFF AND PUSH20 0xFFFFFFFFFFFFFFFFFFFFFFFFFFFFFFFFFFFFFFFF AND DUP2 MSTORE PUSH1 0x20 ADD SWAP1 DUP2 MSTORE PUSH1 0x20 ADD PUSH1 0x0 KECCAK256 PUSH1 0x1 ADD PUSH1 0x0 SWAP1 SLOAD SWAP1 PUSH2 0x100 EXP SWAP1 DIV PUSH20 0xFFFFFFFFFFFFFFFFFFFFFFFFFFFFFFFFFFFFFFFF AND PUSH20 0xFFFFFFFFFFFFFFFFFFFFFFFFFFFFFFFFFFFFFFFF AND DUP2 PUSH1 0x40 MLOAD PUSH2 0x17FB SWAP1 PUSH2 0x1BB6 JUMP JUMPDEST PUSH1 0x0 PUSH1 0x40 MLOAD DUP1 DUP4 SUB DUP2 DUP6 DUP8 GAS CALL SWAP3 POP POP POP RETURNDATASIZE DUP1 PUSH1 0x0 DUP2 EQ PUSH2 0x1838 JUMPI PUSH1 0x40 MLOAD SWAP2 POP PUSH1 0x1F NOT PUSH1 0x3F RETURNDATASIZE ADD AND DUP3 ADD PUSH1 0x40 MSTORE RETURNDATASIZE DUP3 MSTORE RETURNDATASIZE PUSH1 0x0 PUSH1 0x20 DUP5 ADD RETURNDATACOPY PUSH2 0x183D JUMP JUMPDEST PUSH1 0x60 SWAP2 POP JUMPDEST POP POP DUP1 SWAP5 POP POP DUP4 ISZERO PUSH2 0x1905 JUMPI PUSH32 0x394D81FC6D726F376AC7E03CFB1BF07F04A993EC0A3FE7F4782E2EF8E5416145 PUSH1 0x2 PUSH1 0x0 DUP12 PUSH1 0xFF AND PUSH1 0xFF AND DUP2 MSTORE PUSH1 0x20 ADD SWAP1 DUP2 MSTORE PUSH1 0x20 ADD PUSH1 0x0 KECCAK256 PUSH1 0x0 ADD SLOAD DUP5 PUSH1 0x4 PUSH1 0x0 PUSH1 0x1 DUP1 SLOAD SWAP1 PUSH2 0x100 EXP SWAP1 DIV PUSH20 0xFFFFFFFFFFFFFFFFFFFFFFFFFFFFFFFFFFFFFFFF AND PUSH20 0xFFFFFFFFFFFFFFFFFFFFFFFFFFFFFFFFFFFFFFFF AND PUSH20 0xFFFFFFFFFFFFFFFFFFFFFFFFFFFFFFFFFFFFFFFF AND DUP2 MSTORE PUSH1 0x20 ADD SWAP1 DUP2 MSTORE PUSH1 0x20 ADD PUSH1 0x0 KECCAK256 PUSH1 0x0 ADD SLOAD DUP5 PUSH1 0x40 MLOAD PUSH2 0x18FC SWAP5 SWAP4 SWAP3 SWAP2 SWAP1 PUSH2 0x1D2A JUMP JUMPDEST PUSH1 0x40 MLOAD DUP1 SWAP2 SUB SWAP1 LOG1 JUMPDEST PUSH2 0x190E DUP7 PUSH2 0x1922 JUMP JUMPDEST SWAP6 POP POP POP POP POP JUMPDEST POP PUSH2 0xD4F JUMP JUMPDEST POP JUMPDEST POP POP POP JUMP JUMPDEST PUSH1 0x0 DUP1 PUSH1 0x2 DUP4 PUSH2 0x1932 SWAP2 SWAP1 PUSH2 0x1F83 JUMP JUMPDEST EQ PUSH2 0x1949 JUMPI PUSH1 0x2 DUP3 PUSH2 0x1944 SWAP2 SWAP1 PUSH2 0x1E33 JUMP JUMPDEST PUSH2 0x194C JUMP JUMPDEST PUSH1 0x0 JUMPDEST SWAP1 POP SWAP2 SWAP1 POP JUMP JUMPDEST PUSH1 0x0 DUP2 CALLDATALOAD SWAP1 POP PUSH2 0x1962 DUP2 PUSH2 0x2133 JUMP JUMPDEST SWAP3 SWAP2 POP POP JUMP JUMPDEST PUSH1 0x0 DUP2 CALLDATALOAD SWAP1 POP PUSH2 0x1977 DUP2 PUSH2 0x214A JUMP JUMPDEST SWAP3 SWAP2 POP POP JUMP JUMPDEST PUSH1 0x0 DUP2 CALLDATALOAD SWAP1 POP PUSH2 0x198C DUP2 PUSH2 0x2161 JUMP JUMPDEST SWAP3 SWAP2 POP POP JUMP JUMPDEST PUSH1 0x0 PUSH1 0x20 DUP3 DUP5 SUB SLT ISZERO PUSH2 0x19A8 JUMPI PUSH2 0x19A7 PUSH2 0x2012 JUMP JUMPDEST JUMPDEST PUSH1 0x0 PUSH2 0x19B6 DUP5 DUP3 DUP6 ADD PUSH2 0x1953 JUMP JUMPDEST SWAP2 POP POP SWAP3 SWAP2 POP POP JUMP JUMPDEST PUSH1 0x0 DUP1 PUSH1 0x40 DUP4 DUP6 SUB SLT ISZERO PUSH2 0x19D6 JUMPI PUSH2 0x19D5 PUSH2 0x2012 JUMP JUMPDEST JUMPDEST PUSH1 0x0 PUSH2 0x19E4 DUP6 DUP3 DUP7 ADD PUSH2 0x1953 JUMP JUMPDEST SWAP3 POP POP PUSH1 0x20 PUSH2 0x19F5 DUP6 DUP3 DUP7 ADD PUSH2 0x197D JUMP JUMPDEST SWAP2 POP POP SWAP3 POP SWAP3 SWAP1 POP JUMP JUMPDEST PUSH1 0x0 PUSH1 0x20 DUP3 DUP5 SUB SLT ISZERO PUSH2 0x1A15 JUMPI PUSH2 0x1A14 PUSH2 0x2012 JUMP JUMPDEST JUMPDEST PUSH1 0x0 PUSH2 0x1A23 DUP5 DUP3 DUP6 ADD PUSH2 0x1968 JUMP JUMPDEST SWAP2 POP POP SWAP3 SWAP2 POP POP JUMP JUMPDEST PUSH1 0x0 PUSH1 0x20 DUP3 DUP5 SUB SLT ISZERO PUSH2 0x1A42 JUMPI PUSH2 0x1A41 PUSH2 0x2012 JUMP JUMPDEST JUMPDEST PUSH1 0x0 PUSH2 0x1A50 DUP5 DUP3 DUP6 ADD PUSH2 0x197D JUMP JUMPDEST SWAP2 POP POP SWAP3 SWAP2 POP POP JUMP JUMPDEST PUSH1 0x0 DUP1 PUSH1 0x40 DUP4 DUP6 SUB SLT ISZERO PUSH2 0x1A70 JUMPI PUSH2 0x1A6F PUSH2 0x2012 JUMP JUMPDEST JUMPDEST PUSH1 0x0 PUSH2 0x1A7E DUP6 DUP3 DUP7 ADD PUSH2 0x197D JUMP JUMPDEST SWAP3 POP POP PUSH1 0x20 PUSH2 0x1A8F DUP6 DUP3 DUP7 ADD PUSH2 0x1968 JUMP JUMPDEST SWAP2 POP POP SWAP3 POP SWAP3 SWAP1 POP JUMP JUMPDEST PUSH2 0x1AA2 DUP2 PUSH2 0x1F04 JUMP JUMPDEST DUP3 MSTORE POP POP JUMP JUMPDEST PUSH2 0x1AB1 DUP2 PUSH2 0x1EF2 JUMP JUMPDEST DUP3 MSTORE POP POP JUMP JUMPDEST PUSH2 0x1AC0 DUP2 PUSH2 0x1F16 JUMP JUMPDEST DUP3 MSTORE POP POP JUMP JUMPDEST PUSH1 0x0 PUSH2 0x1AD3 PUSH1 0xE DUP4 PUSH2 0x1D95 JUMP JUMPDEST SWAP2 POP PUSH2 0x1ADE DUP3 PUSH2 0x2017 JUMP JUMPDEST PUSH1 0x20 DUP3 ADD SWAP1 POP SWAP2 SWAP1 POP JUMP JUMPDEST PUSH1 0x0 PUSH2 0x1AF6 PUSH1 0x1A DUP4 PUSH2 0x1D95 JUMP JUMPDEST SWAP2 POP PUSH2 0x1B01 DUP3 PUSH2 0x2040 JUMP JUMPDEST PUSH1 0x20 DUP3 ADD SWAP1 POP SWAP2 SWAP1 POP JUMP JUMPDEST PUSH1 0x0 PUSH2 0x1B19 PUSH1 0x0 DUP4 PUSH2 0x1D8A JUMP JUMPDEST SWAP2 POP PUSH2 0x1B24 DUP3 PUSH2 0x2069 JUMP JUMPDEST PUSH1 0x0 DUP3 ADD SWAP1 POP SWAP2 SWAP1 POP JUMP JUMPDEST PUSH1 0x0 PUSH2 0x1B3C PUSH1 0x23 DUP4 PUSH2 0x1D95 JUMP JUMPDEST SWAP2 POP PUSH2 0x1B47 DUP3 PUSH2 0x206C JUMP JUMPDEST PUSH1 0x40 DUP3 ADD SWAP1 POP SWAP2 SWAP1 POP JUMP JUMPDEST PUSH1 0x0 PUSH2 0x1B5F PUSH1 0x28 DUP4 PUSH2 0x1D95 JUMP JUMPDEST SWAP2 POP PUSH2 0x1B6A DUP3 PUSH2 0x20BB JUMP JUMPDEST PUSH1 0x40 DUP3 ADD SWAP1 POP SWAP2 SWAP1 POP JUMP JUMPDEST PUSH1 0x0 PUSH2 0x1B82 PUSH1 0xC DUP4 PUSH2 0x1D95 JUMP JUMPDEST SWAP2 POP PUSH2 0x1B8D DUP3 PUSH2 0x210A JUMP JUMPDEST PUSH1 0x20 DUP3 ADD SWAP1 POP SWAP2 SWAP1 POP JUMP JUMPDEST PUSH2 0x1BA1 DUP2 PUSH2 0x1F42 JUMP JUMPDEST DUP3 MSTORE POP POP JUMP JUMPDEST PUSH2 0x1BB0 DUP2 PUSH2 0x1F4C JUMP JUMPDEST DUP3 MSTORE POP POP JUMP JUMPDEST PUSH1 0x0 PUSH2 0x1BC1 DUP3 PUSH2 0x1B0C JUMP JUMPDEST SWAP2 POP DUP2 SWAP1 POP SWAP2 SWAP1 POP JUMP JUMPDEST PUSH1 0x0 PUSH1 0x20 DUP3 ADD SWAP1 POP PUSH2 0x1BE0 PUSH1 0x0 DUP4 ADD DUP5 PUSH2 0x1AA8 JUMP JUMPDEST SWAP3 SWAP2 POP POP JUMP JUMPDEST PUSH1 0x0 PUSH1 0x20 DUP3 ADD SWAP1 POP PUSH2 0x1BFB PUSH1 0x0 DUP4 ADD DUP5 PUSH2 0x1AB7 JUMP JUMPDEST SWAP3 SWAP2 POP POP JUMP JUMPDEST PUSH1 0x0 PUSH1 0x20 DUP3 ADD SWAP1 POP DUP2 DUP2 SUB PUSH1 0x0 DUP4 ADD MSTORE PUSH2 0x1C1A DUP2 PUSH2 0x1AC6 JUMP JUMPDEST SWAP1 POP SWAP2 SWAP1 POP JUMP JUMPDEST PUSH1 0x0 PUSH1 0x20 DUP3 ADD SWAP1 POP DUP2 DUP2 SUB PUSH1 0x0 DUP4 ADD MSTORE PUSH2 0x1C3A DUP2 PUSH2 0x1AE9 JUMP JUMPDEST SWAP1 POP SWAP2 SWAP1 POP JUMP JUMPDEST PUSH1 0x0 PUSH1 0x20 DUP3 ADD SWAP1 POP DUP2 DUP2 SUB PUSH1 0x0 DUP4 ADD MSTORE PUSH2 0x1C5A DUP2 PUSH2 0x1B2F JUMP JUMPDEST SWAP1 POP SWAP2 SWAP1 POP JUMP JUMPDEST PUSH1 0x0 PUSH1 0x20 DUP3 ADD SWAP1 POP DUP2 DUP2 SUB PUSH1 0x0 DUP4 ADD MSTORE PUSH2 0x1C7A DUP2 PUSH2 0x1B52 JUMP JUMPDEST SWAP1 POP SWAP2 SWAP1 POP JUMP JUMPDEST PUSH1 0x0 PUSH1 0x20 DUP3 ADD SWAP1 POP DUP2 DUP2 SUB PUSH1 0x0 DUP4 ADD MSTORE PUSH2 0x1C9A DUP2 PUSH2 0x1B75 JUMP JUMPDEST SWAP1 POP SWAP2 SWAP1 POP JUMP JUMPDEST PUSH1 0x0 PUSH1 0x20 DUP3 ADD SWAP1 POP PUSH2 0x1CB6 PUSH1 0x0 DUP4 ADD DUP5 PUSH2 0x1B98 JUMP JUMPDEST SWAP3 SWAP2 POP POP JUMP JUMPDEST PUSH1 0x0 PUSH1 0x60 DUP3 ADD SWAP1 POP PUSH2 0x1CD1 PUSH1 0x0 DUP4 ADD DUP7 PUSH2 0x1B98 JUMP JUMPDEST PUSH2 0x1CDE PUSH1 0x20 DUP4 ADD DUP6 PUSH2 0x1A99 JUMP JUMPDEST PUSH2 0x1CEB PUSH1 0x40 DUP4 ADD DUP5 PUSH2 0x1B98 JUMP JUMPDEST SWAP5 SWAP4 POP POP POP POP JUMP JUMPDEST PUSH1 0x0 PUSH1 0x60 DUP3 ADD SWAP1 POP PUSH2 0x1D08 PUSH1 0x0 DUP4 ADD DUP7 PUSH2 0x1B98 JUMP JUMPDEST PUSH2 0x1D15 PUSH1 0x20 DUP4 ADD DUP6 PUSH2 0x1AA8 JUMP JUMPDEST PUSH2 0x1D22 PUSH1 0x40 DUP4 ADD DUP5 PUSH2 0x1AB7 JUMP JUMPDEST SWAP5 SWAP4 POP POP POP POP JUMP JUMPDEST PUSH1 0x0 PUSH1 0x80 DUP3 ADD SWAP1 POP PUSH2 0x1D3F PUSH1 0x0 DUP4 ADD DUP8 PUSH2 0x1B98 JUMP JUMPDEST PUSH2 0x1D4C PUSH1 0x20 DUP4 ADD DUP7 PUSH2 0x1B98 JUMP JUMPDEST PUSH2 0x1D59 PUSH1 0x40 DUP4 ADD DUP6 PUSH2 0x1B98 JUMP JUMPDEST PUSH2 0x1D66 PUSH1 0x60 DUP4 ADD DUP5 PUSH2 0x1B98 JUMP JUMPDEST SWAP6 SWAP5 POP POP POP POP POP JUMP JUMPDEST PUSH1 0x0 PUSH1 0x20 DUP3 ADD SWAP1 POP PUSH2 0x1D84 PUSH1 0x0 DUP4 ADD DUP5 PUSH2 0x1BA7 JUMP JUMPDEST SWAP3 SWAP2 POP POP JUMP JUMPDEST PUSH1 0x0 DUP2 SWAP1 POP SWAP3 SWAP2 POP POP JUMP JUMPDEST PUSH1 0x0 DUP3 DUP3 MSTORE PUSH1 0x20 DUP3 ADD SWAP1 POP SWAP3 SWAP2 POP POP JUMP JUMPDEST PUSH1 0x0 PUSH2 0x1DB1 DUP3 PUSH2 0x1F42 JUMP JUMPDEST SWAP2 POP PUSH2 0x1DBC DUP4 PUSH2 0x1F42 JUMP JUMPDEST SWAP3 POP DUP3 PUSH32 0xFFFFFFFFFFFFFFFFFFFFFFFFFFFFFFFFFFFFFFFFFFFFFFFFFFFFFFFFFFFFFFFF SUB DUP3 GT ISZERO PUSH2 0x1DF1 JUMPI PUSH2 0x1DF0 PUSH2 0x1FB4 JUMP JUMPDEST JUMPDEST DUP3 DUP3 ADD SWAP1 POP SWAP3 SWAP2 POP POP JUMP JUMPDEST PUSH1 0x0 PUSH2 0x1E07 DUP3 PUSH2 0x1F4C JUMP JUMPDEST SWAP2 POP PUSH2 0x1E12 DUP4 PUSH2 0x1F4C JUMP JUMPDEST SWAP3 POP DUP3 PUSH1 0xFF SUB DUP3 GT ISZERO PUSH2 0x1E28 JUMPI PUSH2 0x1E27 PUSH2 0x1FB4 JUMP JUMPDEST JUMPDEST DUP3 DUP3 ADD SWAP1 POP SWAP3 SWAP2 POP POP JUMP JUMPDEST PUSH1 0x0 PUSH2 0x1E3E DUP3 PUSH2 0x1F42 JUMP JUMPDEST SWAP2 POP PUSH2 0x1E49 DUP4 PUSH2 0x1F42 JUMP JUMPDEST SWAP3 POP DUP3 PUSH2 0x1E59 JUMPI PUSH2 0x1E58 PUSH2 0x1FE3 JUMP JUMPDEST JUMPDEST DUP3 DUP3 DIV SWAP1 POP SWAP3 SWAP2 POP POP JUMP JUMPDEST PUSH1 0x0 PUSH2 0x1E6F DUP3 PUSH2 0x1F42 JUMP JUMPDEST SWAP2 POP PUSH2 0x1E7A DUP4 PUSH2 0x1F42 JUMP JUMPDEST SWAP3 POP DUP2 PUSH32 0xFFFFFFFFFFFFFFFFFFFFFFFFFFFFFFFFFFFFFFFFFFFFFFFFFFFFFFFFFFFFFFFF DIV DUP4 GT DUP3 ISZERO ISZERO AND ISZERO PUSH2 0x1EB3 JUMPI PUSH2 0x1EB2 PUSH2 0x1FB4 JUMP JUMPDEST JUMPDEST DUP3 DUP3 MUL SWAP1 POP SWAP3 SWAP2 POP POP JUMP JUMPDEST PUSH1 0x0 PUSH2 0x1EC9 DUP3 PUSH2 0x1F42 JUMP JUMPDEST SWAP2 POP PUSH2 0x1ED4 DUP4 PUSH2 0x1F42 JUMP JUMPDEST SWAP3 POP DUP3 DUP3 LT ISZERO PUSH2 0x1EE7 JUMPI PUSH2 0x1EE6 PUSH2 0x1FB4 JUMP JUMPDEST JUMPDEST DUP3 DUP3 SUB SWAP1 POP SWAP3 SWAP2 POP POP JUMP JUMPDEST PUSH1 0x0 PUSH2 0x1EFD DUP3 PUSH2 0x1F22 JUMP JUMPDEST SWAP1 POP SWAP2 SWAP1 POP JUMP JUMPDEST PUSH1 0x0 PUSH2 0x1F0F DUP3 PUSH2 0x1F22 JUMP JUMPDEST SWAP1 POP SWAP2 SWAP1 POP JUMP JUMPDEST PUSH1 0x0 DUP2 ISZERO ISZERO SWAP1 POP SWAP2 SWAP1 POP JUMP JUMPDEST PUSH1 0x0 PUSH20 0xFFFFFFFFFFFFFFFFFFFFFFFFFFFFFFFFFFFFFFFF DUP3 AND SWAP1 POP SWAP2 SWAP1 POP JUMP JUMPDEST PUSH1 0x0 DUP2 SWAP1 POP SWAP2 SWAP1 POP JUMP JUMPDEST PUSH1 0x0 PUSH1 0xFF DUP3 AND SWAP1 POP SWAP2 SWAP1 POP JUMP JUMPDEST PUSH1 0x0 PUSH2 0x1F64 DUP3 PUSH2 0x1F4C JUMP JUMPDEST SWAP2 POP PUSH1 0xFF DUP3 EQ ISZERO PUSH2 0x1F78 JUMPI PUSH2 0x1F77 PUSH2 0x1FB4 JUMP JUMPDEST JUMPDEST PUSH1 0x1 DUP3 ADD SWAP1 POP SWAP2 SWAP1 POP JUMP JUMPDEST PUSH1 0x0 PUSH2 0x1F8E DUP3 PUSH2 0x1F42 JUMP JUMPDEST SWAP2 POP PUSH2 0x1F99 DUP4 PUSH2 0x1F42 JUMP JUMPDEST SWAP3 POP DUP3 PUSH2 0x1FA9 JUMPI PUSH2 0x1FA8 PUSH2 0x1FE3 JUMP JUMPDEST JUMPDEST DUP3 DUP3 MOD SWAP1 POP SWAP3 SWAP2 POP POP JUMP JUMPDEST PUSH32 0x4E487B7100000000000000000000000000000000000000000000000000000000 PUSH1 0x0 MSTORE PUSH1 0x11 PUSH1 0x4 MSTORE PUSH1 0x24 PUSH1 0x0 REVERT JUMPDEST PUSH32 0x4E487B7100000000000000000000000000000000000000000000000000000000 PUSH1 0x0 MSTORE PUSH1 0x12 PUSH1 0x4 MSTORE PUSH1 0x24 PUSH1 0x0 REVERT JUMPDEST PUSH1 0x0 DUP1 REVERT JUMPDEST PUSH32 0x47616D65206E6F7420666F756E64000000000000000000000000000000000000 PUSH1 0x0 DUP3 ADD MSTORE POP JUMP JUMPDEST PUSH32 0x596F752061726520616C72656164792072656769737465726564000000000000 PUSH1 0x0 DUP3 ADD MSTORE POP JUMP JUMPDEST POP JUMP JUMPDEST PUSH32 0x496E73756666696369656E7420616D6F756E74206F6620636F6E747269627574 PUSH1 0x0 DUP3 ADD MSTORE PUSH32 0x696F6E0000000000000000000000000000000000000000000000000000000000 PUSH1 0x20 DUP3 ADD MSTORE POP JUMP JUMPDEST PUSH32 0x466F72207265676974657220696E2067616D6520796F75206E65656420706179 PUSH1 0x0 DUP3 ADD MSTORE PUSH32 0x2031206574686572000000000000000000000000000000000000000000000000 PUSH1 0x20 DUP3 ADD MSTORE POP JUMP JUMPDEST PUSH32 0x4E6F20636F6E7472616374730000000000000000000000000000000000000000 PUSH1 0x0 DUP3 ADD MSTORE POP JUMP JUMPDEST PUSH2 0x213C DUP2 PUSH2 0x1EF2 JUMP JUMPDEST DUP2 EQ PUSH2 0x2147 JUMPI PUSH1 0x0 DUP1 REVERT JUMPDEST POP JUMP JUMPDEST PUSH2 0x2153 DUP2 PUSH2 0x1F42 JUMP JUMPDEST DUP2 EQ PUSH2 0x215E JUMPI PUSH1 0x0 DUP1 REVERT JUMPDEST POP JUMP JUMPDEST PUSH2 0x216A DUP2 PUSH2 0x1F4C JUMP JUMPDEST DUP2 EQ PUSH2 0x2175 JUMPI PUSH1 0x0 DUP1 REVERT JUMPDEST POP JUMP INVALID LOG2 PUSH5 0x6970667358 0x22 SLT KECCAK256 CREATE2 0xD5 SMOD 0xDC ADDMOD BYTE PUSH10 0x57B3B224217124B8D064 0x29 EXP DELEGATECALL DIFFICULTY STOP 0xCF 0xC8 0xE8 STOP 0x28 SLOAD 0xD3 0x5D SHL BLOCKHASH PUSH5 0x736F6C6343 STOP ADDMOD SMOD STOP CALLER "
				},
				"gasEstimates": {
					"creation": {
						"codeDepositCost": "1724400",
						"executionCost": "infinite",
						"totalCost": "infinite"
					},
					"external": {
						"": "infinite",
						"addGameLevel(uint256)": "infinite",
						"currentGameIdIndex()": "2560",
						"currentUserIdIndex()": "2496",
						"currentUserIndex(uint8)": "2838",
						"getUserBalance(address)": "3302",
						"hasAccess(address)": "2903",
						"joinToGame(uint8)": "infinite",
						"levels(uint8)": "2808",
						"pools(uint8,uint256)": "infinite",
						"registerUserToGame(uint256)": "infinite",
						"registeredUsers(address)": "infinite",
						"test()": "infinite",
						"userGames(address,uint8)": "3161",
						"userPayments(address,uint8)": "3122",
						"usersId(uint256)": "2883"
					},
					"internal": {
						"_fallback(address,uint256)": "infinite",
						"_joinToGame(uint8,address,uint256)": "infinite",
						"culcNextWinnerIndex(uint256)": "infinite"
					}
				},
				"methodIdentifiers": {
					"addGameLevel(uint256)": "ae9283b5",
					"currentGameIdIndex()": "ad39f0a3",
					"currentUserIdIndex()": "556c9095",
					"currentUserIndex(uint8)": "9b0b0ae3",
					"getUserBalance(address)": "47734892",
					"hasAccess(address)": "95a078e8",
					"joinToGame(uint8)": "2e8aab9b",
					"levels(uint8)": "906cbf57",
					"pools(uint8,uint256)": "78a32e21",
					"registerUserToGame(uint256)": "0173c05b",
					"registeredUsers(address)": "0e50cee5",
					"test()": "f8a8fd6d",
					"userGames(address,uint8)": "2a648c89",
					"userPayments(address,uint8)": "f1060006",
					"usersId(uint256)": "bd233b91"
				}
			},
			"storageLayout": {
				"storage": [
					{
						"astId": 3,
						"contract": "Contract.sol:Pyramid",
						"label": "currentUserIdIndex",
						"offset": 0,
						"slot": "0",
						"type": "t_uint256"
					},
					{
						"astId": 5,
						"contract": "Contract.sol:Pyramid",
						"label": "currentGameIdIndex",
						"offset": 0,
						"slot": "1",
						"type": "t_uint8"
					},
					{
						"astId": 7,
						"contract": "Contract.sol:Pyramid",
						"label": "contractOwner",
						"offset": 1,
						"slot": "1",
						"type": "t_address"
					},
					{
						"astId": 37,
						"contract": "Contract.sol:Pyramid",
						"label": "levels",
						"offset": 0,
						"slot": "2",
						"type": "t_mapping(t_uint8,t_struct(Game)32_storage)"
					},
					{
						"astId": 41,
						"contract": "Contract.sol:Pyramid",
						"label": "usersId",
						"offset": 0,
						"slot": "3",
						"type": "t_mapping(t_uint256,t_address)"
					},
					{
						"astId": 46,
						"contract": "Contract.sol:Pyramid",
						"label": "registeredUsers",
						"offset": 0,
						"slot": "4",
						"type": "t_mapping(t_address,t_struct(User)29_storage)"
					},
					{
						"astId": 50,
						"contract": "Contract.sol:Pyramid",
						"label": "currentUserIndex",
						"offset": 0,
						"slot": "5",
						"type": "t_mapping(t_uint8,t_uint256)"
					},
					{
						"astId": 57,
						"contract": "Contract.sol:Pyramid",
						"label": "pools",
						"offset": 0,
						"slot": "6",
						"type": "t_mapping(t_uint8,t_mapping(t_uint256,t_struct(User)29_storage))"
					},
					{
						"astId": 63,
						"contract": "Contract.sol:Pyramid",
						"label": "userPayments",
						"offset": 0,
						"slot": "7",
						"type": "t_mapping(t_address,t_mapping(t_uint8,t_uint256))"
					},
					{
						"astId": 69,
						"contract": "Contract.sol:Pyramid",
						"label": "userGames",
						"offset": 0,
						"slot": "8",
						"type": "t_mapping(t_address,t_mapping(t_uint8,t_bool))"
					}
				],
				"types": {
					"t_address": {
						"encoding": "inplace",
						"label": "address",
						"numberOfBytes": "20"
					},
					"t_address_payable": {
						"encoding": "inplace",
						"label": "address payable",
						"numberOfBytes": "20"
					},
					"t_bool": {
						"encoding": "inplace",
						"label": "bool",
						"numberOfBytes": "1"
					},
					"t_mapping(t_address,t_mapping(t_uint8,t_bool))": {
						"encoding": "mapping",
						"key": "t_address",
						"label": "mapping(address => mapping(uint8 => bool))",
						"numberOfBytes": "32",
						"value": "t_mapping(t_uint8,t_bool)"
					},
					"t_mapping(t_address,t_mapping(t_uint8,t_uint256))": {
						"encoding": "mapping",
						"key": "t_address",
						"label": "mapping(address => mapping(uint8 => uint256))",
						"numberOfBytes": "32",
						"value": "t_mapping(t_uint8,t_uint256)"
					},
					"t_mapping(t_address,t_struct(User)29_storage)": {
						"encoding": "mapping",
						"key": "t_address",
						"label": "mapping(address => struct Pyramid.User)",
						"numberOfBytes": "32",
						"value": "t_struct(User)29_storage"
					},
					"t_mapping(t_uint256,t_address)": {
						"encoding": "mapping",
						"key": "t_uint256",
						"label": "mapping(uint256 => address)",
						"numberOfBytes": "32",
						"value": "t_address"
					},
					"t_mapping(t_uint256,t_struct(User)29_storage)": {
						"encoding": "mapping",
						"key": "t_uint256",
						"label": "mapping(uint256 => struct Pyramid.User)",
						"numberOfBytes": "32",
						"value": "t_struct(User)29_storage"
					},
					"t_mapping(t_uint8,t_bool)": {
						"encoding": "mapping",
						"key": "t_uint8",
						"label": "mapping(uint8 => bool)",
						"numberOfBytes": "32",
						"value": "t_bool"
					},
					"t_mapping(t_uint8,t_mapping(t_uint256,t_struct(User)29_storage))": {
						"encoding": "mapping",
						"key": "t_uint8",
						"label": "mapping(uint8 => mapping(uint256 => struct Pyramid.User))",
						"numberOfBytes": "32",
						"value": "t_mapping(t_uint256,t_struct(User)29_storage)"
					},
					"t_mapping(t_uint8,t_struct(Game)32_storage)": {
						"encoding": "mapping",
						"key": "t_uint8",
						"label": "mapping(uint8 => struct Pyramid.Game)",
						"numberOfBytes": "32",
						"value": "t_struct(Game)32_storage"
					},
					"t_mapping(t_uint8,t_uint256)": {
						"encoding": "mapping",
						"key": "t_uint8",
						"label": "mapping(uint8 => uint256)",
						"numberOfBytes": "32",
						"value": "t_uint256"
					},
					"t_struct(Game)32_storage": {
						"encoding": "inplace",
						"label": "struct Pyramid.Game",
						"members": [
							{
								"astId": 31,
								"contract": "Contract.sol:Pyramid",
								"label": "amountToPay",
								"offset": 0,
								"slot": "0",
								"type": "t_uint256"
							}
						],
						"numberOfBytes": "32"
					},
					"t_struct(User)29_storage": {
						"encoding": "inplace",
						"label": "struct Pyramid.User",
						"members": [
							{
								"astId": 24,
								"contract": "Contract.sol:Pyramid",
								"label": "userId",
								"offset": 0,
								"slot": "0",
								"type": "t_uint256"
							},
							{
								"astId": 26,
								"contract": "Contract.sol:Pyramid",
								"label": "userAddress",
								"offset": 0,
								"slot": "1",
								"type": "t_address_payable"
							},
							{
								"astId": 28,
								"contract": "Contract.sol:Pyramid",
								"label": "invitedId",
								"offset": 0,
								"slot": "2",
								"type": "t_uint256"
							}
						],
						"numberOfBytes": "96"
					},
					"t_uint256": {
						"encoding": "inplace",
						"label": "uint256",
						"numberOfBytes": "32"
					},
					"t_uint8": {
						"encoding": "inplace",
						"label": "uint8",
						"numberOfBytes": "1"
					}
				}
			},
			"userdoc": {
				"kind": "user",
				"methods": {},
				"version": 1
			}
		}
	}
}