{
	"cobraBot/Contract.sol": {
		"Pyramid": {
			"abi": [
				{
					"inputs": [],
					"stateMutability": "nonpayable",
					"type": "constructor"
				},
				{
					"anonymous": false,
					"inputs": [
						{
							"indexed": false,
							"internalType": "uint256",
							"name": "amountToPay",
							"type": "uint256"
						},
						{
							"indexed": false,
							"internalType": "address",
							"name": "account",
							"type": "address"
						},
						{
							"indexed": false,
							"internalType": "bool",
							"name": "success",
							"type": "bool"
						}
					],
					"name": "GamePaymentEvent",
					"type": "event"
				},
				{
					"anonymous": false,
					"inputs": [
						{
							"indexed": false,
							"internalType": "uint256",
							"name": "amountToPay",
							"type": "uint256"
						}
					],
					"name": "NewGame",
					"type": "event"
				},
				{
					"anonymous": false,
					"inputs": [
						{
							"indexed": false,
							"internalType": "uint256",
							"name": "amountToPay",
							"type": "uint256"
						},
						{
							"indexed": false,
							"internalType": "uint256",
							"name": "from",
							"type": "uint256"
						},
						{
							"indexed": false,
							"internalType": "uint256",
							"name": "to",
							"type": "uint256"
						},
						{
							"indexed": false,
							"internalType": "uint256",
							"name": "amount",
							"type": "uint256"
						}
					],
					"name": "ReferalPaymentEvent",
					"type": "event"
				},
				{
					"stateMutability": "payable",
					"type": "fallback"
				},
				{
					"inputs": [
						{
							"internalType": "uint256",
							"name": "amountToPay",
							"type": "uint256"
						}
					],
					"name": "addGameLevel",
					"outputs": [],
					"stateMutability": "nonpayable",
					"type": "function"
				},
				{
					"inputs": [],
					"name": "currentGameIdIndex",
					"outputs": [
						{
							"internalType": "uint8",
							"name": "",
							"type": "uint8"
						}
					],
					"stateMutability": "view",
					"type": "function"
				},
				{
					"inputs": [],
					"name": "currentUserIdIndex",
					"outputs": [
						{
							"internalType": "uint256",
							"name": "",
							"type": "uint256"
						}
					],
					"stateMutability": "view",
					"type": "function"
				},
				{
					"inputs": [
						{
							"internalType": "uint8",
							"name": "",
							"type": "uint8"
						}
					],
					"name": "currentUserIndex",
					"outputs": [
						{
							"internalType": "uint256",
							"name": "",
							"type": "uint256"
						}
					],
					"stateMutability": "view",
					"type": "function"
				},
				{
					"inputs": [
						{
							"internalType": "address",
							"name": "userAddress",
							"type": "address"
						}
					],
					"name": "getUserBalance",
					"outputs": [
						{
							"internalType": "uint256",
							"name": "",
							"type": "uint256"
						}
					],
					"stateMutability": "view",
					"type": "function"
				},
				{
					"inputs": [
						{
							"internalType": "address",
							"name": "userAdress",
							"type": "address"
						}
					],
					"name": "hasAccess",
					"outputs": [
						{
							"internalType": "bool",
							"name": "",
							"type": "bool"
						}
					],
					"stateMutability": "view",
					"type": "function"
				},
				{
					"inputs": [
						{
							"internalType": "uint8",
							"name": "gameId",
							"type": "uint8"
						}
					],
					"name": "joinToGame",
					"outputs": [],
					"stateMutability": "payable",
					"type": "function"
				},
				{
					"inputs": [
						{
							"internalType": "uint8",
							"name": "",
							"type": "uint8"
						}
					],
					"name": "levels",
					"outputs": [
						{
							"internalType": "uint256",
							"name": "amountToPay",
							"type": "uint256"
						}
					],
					"stateMutability": "view",
					"type": "function"
				},
				{
					"inputs": [
						{
							"internalType": "uint8",
							"name": "",
							"type": "uint8"
						},
						{
							"internalType": "uint256",
							"name": "",
							"type": "uint256"
						}
					],
					"name": "pools",
					"outputs": [
						{
							"internalType": "uint256",
							"name": "userId",
							"type": "uint256"
						},
						{
							"internalType": "address payable",
							"name": "userAddress",
							"type": "address"
						},
						{
							"internalType": "uint256",
							"name": "invitedId",
							"type": "uint256"
						}
					],
					"stateMutability": "view",
					"type": "function"
				},
				{
					"inputs": [
						{
							"internalType": "uint256",
							"name": "inviterId",
							"type": "uint256"
						}
					],
					"name": "registerUserToGame",
					"outputs": [],
					"stateMutability": "payable",
					"type": "function"
				},
				{
					"inputs": [
						{
							"internalType": "address",
							"name": "",
							"type": "address"
						}
					],
					"name": "registeredUsers",
					"outputs": [
						{
							"internalType": "uint256",
							"name": "userId",
							"type": "uint256"
						},
						{
							"internalType": "address payable",
							"name": "userAddress",
							"type": "address"
						},
						{
							"internalType": "uint256",
							"name": "invitedId",
							"type": "uint256"
						}
					],
					"stateMutability": "view",
					"type": "function"
				},
				{
					"inputs": [
						{
							"internalType": "address",
							"name": "",
							"type": "address"
						},
						{
							"internalType": "uint8",
							"name": "",
							"type": "uint8"
						}
					],
					"name": "userGames",
					"outputs": [
						{
							"internalType": "bool",
							"name": "",
							"type": "bool"
						}
					],
					"stateMutability": "view",
					"type": "function"
				},
				{
					"inputs": [
						{
							"internalType": "address",
							"name": "",
							"type": "address"
						},
						{
							"internalType": "uint8",
							"name": "",
							"type": "uint8"
						}
					],
					"name": "userPayments",
					"outputs": [
						{
							"internalType": "uint256",
							"name": "",
							"type": "uint256"
						}
					],
					"stateMutability": "view",
					"type": "function"
				},
				{
					"inputs": [
						{
							"internalType": "uint256",
							"name": "",
							"type": "uint256"
						}
					],
					"name": "usersId",
					"outputs": [
						{
							"internalType": "address",
							"name": "",
							"type": "address"
						}
					],
					"stateMutability": "view",
					"type": "function"
				},
				{
					"stateMutability": "payable",
					"type": "receive"
				}
			],
			"devdoc": {
				"kind": "dev",
				"methods": {},
				"version": 1
			},
			"evm": {
				"assembly": "    /* \"cobraBot/Contract.sol\":62:9108  contract Pyramid {\r... */\n  mstore(0x40, 0x80)\n    /* \"cobraBot/Contract.sol\":2238:2497  constructor () {\r... */\n  callvalue\n  dup1\n  iszero\n  tag_1\n  jumpi\n  0x00\n  dup1\n  revert\ntag_1:\n  pop\n    /* \"cobraBot/Contract.sol\":2280:2290  msg.sender */\n  caller\n    /* \"cobraBot/Contract.sol\":2264:2277  contractOwner */\n  0x01\n  dup1\n    /* \"cobraBot/Contract.sol\":2264:2290  contractOwner = msg.sender */\n  0x0100\n  exp\n  dup2\n  sload\n  dup2\n  0xffffffffffffffffffffffffffffffffffffffff\n  mul\n  not\n  and\n  swap1\n  dup4\n  0xffffffffffffffffffffffffffffffffffffffff\n  and\n  mul\n  or\n  swap1\n  sstore\n  pop\n    /* \"cobraBot/Contract.sol\":2314:2327  contractOwner */\n  0x01\n  dup1\n  sload\n  swap1\n  0x0100\n  exp\n  swap1\n  div\n  0xffffffffffffffffffffffffffffffffffffffff\n  and\n    /* \"cobraBot/Contract.sol\":2301:2308  usersId */\n  0x03\n    /* \"cobraBot/Contract.sol\":2301:2311  usersId[0] */\n  0x00\n    /* \"cobraBot/Contract.sol\":2309:2310  0 */\n  dup1\n    /* \"cobraBot/Contract.sol\":2301:2311  usersId[0] */\n  dup2\n  mstore\n  0x20\n  add\n  swap1\n  dup2\n  mstore\n  0x20\n  add\n  0x00\n  keccak256\n  0x00\n    /* \"cobraBot/Contract.sol\":2301:2327  usersId[0] = contractOwner */\n  0x0100\n  exp\n  dup2\n  sload\n  dup2\n  0xffffffffffffffffffffffffffffffffffffffff\n  mul\n  not\n  and\n  swap1\n  dup4\n  0xffffffffffffffffffffffffffffffffffffffff\n  and\n  mul\n  or\n  swap1\n  sstore\n  pop\n    /* \"cobraBot/Contract.sol\":2371:2405  User(0, payable(contractOwner), 0) */\n  mload(0x40)\n  dup1\n  0x60\n  add\n  0x40\n  mstore\n  dup1\n    /* \"cobraBot/Contract.sol\":2376:2377  0 */\n  0x00\n    /* \"cobraBot/Contract.sol\":2371:2405  User(0, payable(contractOwner), 0) */\n  dup2\n  mstore\n  0x20\n  add\n    /* \"cobraBot/Contract.sol\":2387:2400  contractOwner */\n  0x01\n  dup1\n  sload\n  swap1\n  0x0100\n  exp\n  swap1\n  div\n  0xffffffffffffffffffffffffffffffffffffffff\n  and\n    /* \"cobraBot/Contract.sol\":2371:2405  User(0, payable(contractOwner), 0) */\n  0xffffffffffffffffffffffffffffffffffffffff\n  and\n  dup2\n  mstore\n  0x20\n  add\n    /* \"cobraBot/Contract.sol\":2403:2404  0 */\n  0x00\n    /* \"cobraBot/Contract.sol\":2371:2405  User(0, payable(contractOwner), 0) */\n  dup2\n  mstore\n  pop\n    /* \"cobraBot/Contract.sol\":2338:2353  registeredUsers */\n  0x04\n    /* \"cobraBot/Contract.sol\":2338:2368  registeredUsers[contractOwner] */\n  0x00\n    /* \"cobraBot/Contract.sol\":2354:2367  contractOwner */\n  0x01\n  dup1\n  sload\n  swap1\n  0x0100\n  exp\n  swap1\n  div\n  0xffffffffffffffffffffffffffffffffffffffff\n  and\n    /* \"cobraBot/Contract.sol\":2338:2368  registeredUsers[contractOwner] */\n  0xffffffffffffffffffffffffffffffffffffffff\n  and\n  0xffffffffffffffffffffffffffffffffffffffff\n  and\n  dup2\n  mstore\n  0x20\n  add\n  swap1\n  dup2\n  mstore\n  0x20\n  add\n  0x00\n  keccak256\n    /* \"cobraBot/Contract.sol\":2338:2405  registeredUsers[contractOwner] = User(0, payable(contractOwner), 0) */\n  0x00\n  dup3\n  add\n  mload\n  dup2\n  0x00\n  add\n  sstore\n  0x20\n  dup3\n  add\n  mload\n  dup2\n  0x01\n  add\n  exp(0x0100, 0x00)\n  dup2\n  sload\n  dup2\n  0xffffffffffffffffffffffffffffffffffffffff\n  mul\n  not\n  and\n  swap1\n  dup4\n  0xffffffffffffffffffffffffffffffffffffffff\n  and\n  mul\n  or\n  swap1\n  sstore\n  pop\n  0x40\n  dup3\n  add\n  mload\n  dup2\n  0x02\n  add\n  sstore\n  swap1\n  pop\n  pop\n    /* \"cobraBot/Contract.sol\":2437:2438  1 */\n  0x01\n    /* \"cobraBot/Contract.sol\":2416:2434  currentUserIdIndex */\n  0x00\n    /* \"cobraBot/Contract.sol\":2416:2438  currentUserIdIndex = 1 */\n  dup2\n  swap1\n  sstore\n  pop\n    /* \"cobraBot/Contract.sol\":2451:2489  addGameLevel({ amountToPay: 1 ether }) */\n  tag_4\n    /* \"cobraBot/Contract.sol\":2479:2486  1 ether */\n  0x0de0b6b3a7640000\n    /* \"cobraBot/Contract.sol\":2451:2463  addGameLevel */\n  shl(0x20, tag_5)\n    /* \"cobraBot/Contract.sol\":2451:2489  addGameLevel({ amountToPay: 1 ether }) */\n  0x20\n  shr\n  jump\t// in\ntag_4:\n    /* \"cobraBot/Contract.sol\":62:9108  contract Pyramid {\r... */\n  jump(tag_6)\n    /* \"cobraBot/Contract.sol\":4222:4566  function addGameLevel(uint256 amountToPay) public onlyOwner {\r... */\ntag_5:\n    /* \"cobraBot/Contract.sol\":2188:2209  hasAccess(msg.sender) */\n  tag_8\n    /* \"cobraBot/Contract.sol\":2198:2208  msg.sender */\n  caller\n    /* \"cobraBot/Contract.sol\":2188:2197  hasAccess */\n  shl(0x20, tag_9)\n    /* \"cobraBot/Contract.sol\":2188:2209  hasAccess(msg.sender) */\n  0x20\n  shr\n  jump\t// in\ntag_8:\n    /* \"cobraBot/Contract.sol\":2180:2210  require(hasAccess(msg.sender)) */\n  tag_10\n  jumpi\n  0x00\n  dup1\n  revert\ntag_10:\n    /* \"cobraBot/Contract.sol\":4427:4461  Game({ amountToPay: amountToPay }) */\n  mload(0x40)\n  dup1\n  0x20\n  add\n  0x40\n  mstore\n  dup1\n    /* \"cobraBot/Contract.sol\":4447:4458  amountToPay */\n  dup3\n    /* \"cobraBot/Contract.sol\":4427:4461  Game({ amountToPay: amountToPay }) */\n  dup2\n  mstore\n  pop\n    /* \"cobraBot/Contract.sol\":4398:4404  levels */\n  0x02\n    /* \"cobraBot/Contract.sol\":4398:4424  levels[currentGameIdIndex] */\n  0x00\n    /* \"cobraBot/Contract.sol\":4405:4423  currentGameIdIndex */\n  0x01\n  0x00\n  swap1\n  sload\n  swap1\n  0x0100\n  exp\n  swap1\n  div\n  0xff\n  and\n    /* \"cobraBot/Contract.sol\":4398:4424  levels[currentGameIdIndex] */\n  0xff\n  and\n  0xff\n  and\n  dup2\n  mstore\n  0x20\n  add\n  swap1\n  dup2\n  mstore\n  0x20\n  add\n  0x00\n  keccak256\n    /* \"cobraBot/Contract.sol\":4398:4461  levels[currentGameIdIndex] = Game({ amountToPay: amountToPay }) */\n  0x00\n  dup3\n  add\n  mload\n  dup2\n  0x00\n  add\n  sstore\n  swap1\n  pop\n  pop\n    /* \"cobraBot/Contract.sol\":4494:4495  1 */\n  0x01\n    /* \"cobraBot/Contract.sol\":4472:4490  currentGameIdIndex */\n  dup1\n  0x00\n    /* \"cobraBot/Contract.sol\":4472:4495  currentGameIdIndex += 1 */\n  dup3\n  dup3\n  dup3\n  swap1\n  sload\n  swap1\n  0x0100\n  exp\n  swap1\n  div\n  0xff\n  and\n  tag_12\n  swap2\n  swap1\n  tag_13\n  jump\t// in\ntag_12:\n  swap3\n  pop\n  0x0100\n  exp\n  dup2\n  sload\n  dup2\n  0xff\n  mul\n  not\n  and\n  swap1\n  dup4\n  0xff\n  and\n  mul\n  or\n  swap1\n  sstore\n  pop\n    /* \"cobraBot/Contract.sol\":4511:4558  NewGame(levels[currentGameIdIndex].amountToPay) */\n  0xa0b7f6f22bb4f69adc52dd16ffe2a964ab8b577be274247fa9a1547b03ce3e55\n    /* \"cobraBot/Contract.sol\":4519:4525  levels */\n  0x02\n    /* \"cobraBot/Contract.sol\":4519:4545  levels[currentGameIdIndex] */\n  0x00\n    /* \"cobraBot/Contract.sol\":4526:4544  currentGameIdIndex */\n  0x01\n  0x00\n  swap1\n  sload\n  swap1\n  0x0100\n  exp\n  swap1\n  div\n  0xff\n  and\n    /* \"cobraBot/Contract.sol\":4519:4545  levels[currentGameIdIndex] */\n  0xff\n  and\n  0xff\n  and\n  dup2\n  mstore\n  0x20\n  add\n  swap1\n  dup2\n  mstore\n  0x20\n  add\n  0x00\n  keccak256\n    /* \"cobraBot/Contract.sol\":4519:4557  levels[currentGameIdIndex].amountToPay */\n  0x00\n  add\n  sload\n    /* \"cobraBot/Contract.sol\":4511:4558  NewGame(levels[currentGameIdIndex].amountToPay) */\n  mload(0x40)\n  tag_14\n  swap2\n  swap1\n  tag_15\n  jump\t// in\ntag_14:\n  mload(0x40)\n  dup1\n  swap2\n  sub\n  swap1\n  log1\n    /* \"cobraBot/Contract.sol\":4222:4566  function addGameLevel(uint256 amountToPay) public onlyOwner {\r... */\n  pop\n  jump\t// out\n    /* \"cobraBot/Contract.sol\":3858:4087  function hasAccess(address userAdress) public view returns(bool) {\r... */\ntag_9:\n    /* \"cobraBot/Contract.sol\":3917:3921  bool */\n  0x00\n    /* \"cobraBot/Contract.sol\":4066:4079  contractOwner */\n  0x01\n  dup1\n  sload\n  swap1\n  0x0100\n  exp\n  swap1\n  div\n  0xffffffffffffffffffffffffffffffffffffffff\n  and\n    /* \"cobraBot/Contract.sol\":4052:4079  userAdress == contractOwner */\n  0xffffffffffffffffffffffffffffffffffffffff\n  and\n    /* \"cobraBot/Contract.sol\":4052:4062  userAdress */\n  dup3\n    /* \"cobraBot/Contract.sol\":4052:4079  userAdress == contractOwner */\n  0xffffffffffffffffffffffffffffffffffffffff\n  and\n  eq\n    /* \"cobraBot/Contract.sol\":4045:4079  return userAdress == contractOwner */\n  swap1\n  pop\n    /* \"cobraBot/Contract.sol\":3858:4087  function hasAccess(address userAdress) public view returns(bool) {\r... */\n  swap2\n  swap1\n  pop\n  jump\t// out\n    /* \"#utility.yul\":7:125   */\ntag_18:\n    /* \"#utility.yul\":94:118   */\n  tag_20\n    /* \"#utility.yul\":112:117   */\n  dup2\n    /* \"#utility.yul\":94:118   */\n  tag_21\n  jump\t// in\ntag_20:\n    /* \"#utility.yul\":89:92   */\n  dup3\n    /* \"#utility.yul\":82:119   */\n  mstore\n    /* \"#utility.yul\":7:125   */\n  pop\n  pop\n  jump\t// out\n    /* \"#utility.yul\":131:353   */\ntag_15:\n    /* \"#utility.yul\":224:228   */\n  0x00\n    /* \"#utility.yul\":262:264   */\n  0x20\n    /* \"#utility.yul\":251:260   */\n  dup3\n    /* \"#utility.yul\":247:265   */\n  add\n    /* \"#utility.yul\":239:265   */\n  swap1\n  pop\n    /* \"#utility.yul\":275:346   */\n  tag_23\n    /* \"#utility.yul\":343:344   */\n  0x00\n    /* \"#utility.yul\":332:341   */\n  dup4\n    /* \"#utility.yul\":328:345   */\n  add\n    /* \"#utility.yul\":319:325   */\n  dup5\n    /* \"#utility.yul\":275:346   */\n  tag_18\n  jump\t// in\ntag_23:\n    /* \"#utility.yul\":131:353   */\n  swap3\n  swap2\n  pop\n  pop\n  jump\t// out\n    /* \"#utility.yul\":359:596   */\ntag_13:\n    /* \"#utility.yul\":397:400   */\n  0x00\n    /* \"#utility.yul\":416:434   */\n  tag_25\n    /* \"#utility.yul\":432:433   */\n  dup3\n    /* \"#utility.yul\":416:434   */\n  tag_26\n  jump\t// in\ntag_25:\n    /* \"#utility.yul\":411:434   */\n  swap2\n  pop\n    /* \"#utility.yul\":448:466   */\n  tag_27\n    /* \"#utility.yul\":464:465   */\n  dup4\n    /* \"#utility.yul\":448:466   */\n  tag_26\n  jump\t// in\ntag_27:\n    /* \"#utility.yul\":443:466   */\n  swap3\n  pop\n    /* \"#utility.yul\":538:539   */\n  dup3\n    /* \"#utility.yul\":532:536   */\n  0xff\n    /* \"#utility.yul\":528:540   */\n  sub\n    /* \"#utility.yul\":525:526   */\n  dup3\n    /* \"#utility.yul\":522:541   */\n  gt\n    /* \"#utility.yul\":519:564   */\n  iszero\n  tag_28\n  jumpi\n    /* \"#utility.yul\":544:562   */\n  tag_29\n  tag_30\n  jump\t// in\ntag_29:\n    /* \"#utility.yul\":519:564   */\ntag_28:\n    /* \"#utility.yul\":588:589   */\n  dup3\n    /* \"#utility.yul\":585:586   */\n  dup3\n    /* \"#utility.yul\":581:590   */\n  add\n    /* \"#utility.yul\":574:590   */\n  swap1\n  pop\n    /* \"#utility.yul\":359:596   */\n  swap3\n  swap2\n  pop\n  pop\n  jump\t// out\n    /* \"#utility.yul\":602:679   */\ntag_21:\n    /* \"#utility.yul\":639:646   */\n  0x00\n    /* \"#utility.yul\":668:673   */\n  dup2\n    /* \"#utility.yul\":657:673   */\n  swap1\n  pop\n    /* \"#utility.yul\":602:679   */\n  swap2\n  swap1\n  pop\n  jump\t// out\n    /* \"#utility.yul\":685:771   */\ntag_26:\n    /* \"#utility.yul\":720:727   */\n  0x00\n    /* \"#utility.yul\":760:764   */\n  0xff\n    /* \"#utility.yul\":753:758   */\n  dup3\n    /* \"#utility.yul\":749:765   */\n  and\n    /* \"#utility.yul\":738:765   */\n  swap1\n  pop\n    /* \"#utility.yul\":685:771   */\n  swap2\n  swap1\n  pop\n  jump\t// out\n    /* \"#utility.yul\":777:957   */\ntag_30:\n    /* \"#utility.yul\":825:902   */\n  0x4e487b7100000000000000000000000000000000000000000000000000000000\n    /* \"#utility.yul\":822:823   */\n  0x00\n    /* \"#utility.yul\":815:903   */\n  mstore\n    /* \"#utility.yul\":922:926   */\n  0x11\n    /* \"#utility.yul\":919:920   */\n  0x04\n    /* \"#utility.yul\":912:927   */\n  mstore\n    /* \"#utility.yul\":946:950   */\n  0x24\n    /* \"#utility.yul\":943:944   */\n  0x00\n    /* \"#utility.yul\":936:951   */\n  revert\n    /* \"cobraBot/Contract.sol\":62:9108  contract Pyramid {\r... */\ntag_6:\n  dataSize(sub_0)\n  dup1\n  dataOffset(sub_0)\n  0x00\n  codecopy\n  0x00\n  return\nstop\n\nsub_0: assembly {\n        /* \"cobraBot/Contract.sol\":62:9108  contract Pyramid {\r... */\n      mstore(0x40, 0x80)\n      jumpi(tag_1, lt(calldatasize, 0x04))\n      shr(0xe0, calldataload(0x00))\n      dup1\n      0x906cbf57\n      gt\n      tag_17\n      jumpi\n      dup1\n      0xad39f0a3\n      gt\n      tag_18\n      jumpi\n      dup1\n      0xad39f0a3\n      eq\n      tag_13\n      jumpi\n      dup1\n      0xae9283b5\n      eq\n      tag_14\n      jumpi\n      dup1\n      0xbd233b91\n      eq\n      tag_15\n      jumpi\n      dup1\n      0xf1060006\n      eq\n      tag_16\n      jumpi\n      jump(tag_2)\n    tag_18:\n      dup1\n      0x906cbf57\n      eq\n      tag_10\n      jumpi\n      dup1\n      0x95a078e8\n      eq\n      tag_11\n      jumpi\n      dup1\n      0x9b0b0ae3\n      eq\n      tag_12\n      jumpi\n      jump(tag_2)\n    tag_17:\n      dup1\n      0x2e8aab9b\n      gt\n      tag_19\n      jumpi\n      dup1\n      0x2e8aab9b\n      eq\n      tag_6\n      jumpi\n      dup1\n      0x47734892\n      eq\n      tag_7\n      jumpi\n      dup1\n      0x556c9095\n      eq\n      tag_8\n      jumpi\n      dup1\n      0x78a32e21\n      eq\n      tag_9\n      jumpi\n      jump(tag_2)\n    tag_19:\n      dup1\n      0x0173c05b\n      eq\n      tag_3\n      jumpi\n      dup1\n      0x0e50cee5\n      eq\n      tag_4\n      jumpi\n      dup1\n      0x2a648c89\n      eq\n      tag_5\n      jumpi\n      jump(tag_2)\n    tag_1:\n      jumpi(tag_2, calldatasize)\n        /* \"cobraBot/Contract.sol\":2544:2576  _fallback(msg.sender, msg.value) */\n      tag_22\n        /* \"cobraBot/Contract.sol\":2554:2564  msg.sender */\n      caller\n        /* \"cobraBot/Contract.sol\":2566:2575  msg.value */\n      callvalue\n        /* \"cobraBot/Contract.sol\":2544:2553  _fallback */\n      tag_23\n        /* \"cobraBot/Contract.sol\":2544:2576  _fallback(msg.sender, msg.value) */\n      jump\t// in\n    tag_22:\n        /* \"cobraBot/Contract.sol\":62:9108  contract Pyramid {\r... */\n      stop\n    tag_2:\n        /* \"cobraBot/Contract.sol\":2632:2664  _fallback(msg.sender, msg.value) */\n      tag_26\n        /* \"cobraBot/Contract.sol\":2642:2652  msg.sender */\n      caller\n        /* \"cobraBot/Contract.sol\":2654:2663  msg.value */\n      callvalue\n        /* \"cobraBot/Contract.sol\":2632:2641  _fallback */\n      tag_23\n        /* \"cobraBot/Contract.sol\":2632:2664  _fallback(msg.sender, msg.value) */\n      jump\t// in\n    tag_26:\n        /* \"cobraBot/Contract.sol\":62:9108  contract Pyramid {\r... */\n      stop\n        /* \"cobraBot/Contract.sol\":4574:5114  function registerUserToGame(uint256 inviterId) external payable noContractAccess {\r... */\n    tag_3:\n      tag_27\n      0x04\n      dup1\n      calldatasize\n      sub\n      dup2\n      add\n      swap1\n      tag_28\n      swap2\n      swap1\n      tag_29\n      jump\t// in\n    tag_28:\n      tag_30\n      jump\t// in\n    tag_27:\n      stop\n        /* \"cobraBot/Contract.sol\":904:952  mapping (address => User) public registeredUsers */\n    tag_4:\n      callvalue\n      dup1\n      iszero\n      tag_31\n      jumpi\n      0x00\n      dup1\n      revert\n    tag_31:\n      pop\n      tag_32\n      0x04\n      dup1\n      calldatasize\n      sub\n      dup2\n      add\n      swap1\n      tag_33\n      swap2\n      swap1\n      tag_34\n      jump\t// in\n    tag_33:\n      tag_35\n      jump\t// in\n    tag_32:\n      mload(0x40)\n      tag_36\n      swap4\n      swap3\n      swap2\n      swap1\n      tag_37\n      jump\t// in\n    tag_36:\n      mload(0x40)\n      dup1\n      swap2\n      sub\n      swap1\n      return\n        /* \"cobraBot/Contract.sol\":1308:1369  mapping (address => mapping (uint8 => bool)) public userGames */\n    tag_5:\n      callvalue\n      dup1\n      iszero\n      tag_38\n      jumpi\n      0x00\n      dup1\n      revert\n    tag_38:\n      pop\n      tag_39\n      0x04\n      dup1\n      calldatasize\n      sub\n      dup2\n      add\n      swap1\n      tag_40\n      swap2\n      swap1\n      tag_41\n      jump\t// in\n    tag_40:\n      tag_42\n      jump\t// in\n    tag_39:\n      mload(0x40)\n      tag_43\n      swap2\n      swap1\n      tag_44\n      jump\t// in\n    tag_43:\n      mload(0x40)\n      dup1\n      swap2\n      sub\n      swap1\n      return\n        /* \"cobraBot/Contract.sol\":5122:5339  function joinToGame(uint8 gameId) public payable onlyRegistered {\r... */\n    tag_6:\n      tag_45\n      0x04\n      dup1\n      calldatasize\n      sub\n      dup2\n      add\n      swap1\n      tag_46\n      swap2\n      swap1\n      tag_47\n      jump\t// in\n    tag_46:\n      tag_48\n      jump\t// in\n    tag_45:\n      stop\n        /* \"cobraBot/Contract.sol\":4095:4214  function getUserBalance(address userAddress) public view returns(uint256) {\r... */\n    tag_7:\n      callvalue\n      dup1\n      iszero\n      tag_49\n      jumpi\n      0x00\n      dup1\n      revert\n    tag_49:\n      pop\n      tag_50\n      0x04\n      dup1\n      calldatasize\n      sub\n      dup2\n      add\n      swap1\n      tag_51\n      swap2\n      swap1\n      tag_34\n      jump\t// in\n    tag_51:\n      tag_52\n      jump\t// in\n    tag_50:\n      mload(0x40)\n      tag_53\n      swap2\n      swap1\n      tag_54\n      jump\t// in\n    tag_53:\n      mload(0x40)\n      dup1\n      swap2\n      sub\n      swap1\n      return\n        /* \"cobraBot/Contract.sol\":86:119  uint256 public currentUserIdIndex */\n    tag_8:\n      callvalue\n      dup1\n      iszero\n      tag_55\n      jumpi\n      0x00\n      dup1\n      revert\n    tag_55:\n      pop\n      tag_56\n      tag_57\n      jump\t// in\n    tag_56:\n      mload(0x40)\n      tag_58\n      swap2\n      swap1\n      tag_54\n      jump\t// in\n    tag_58:\n      mload(0x40)\n      dup1\n      swap2\n      sub\n      swap1\n      return\n        /* \"cobraBot/Contract.sol\":1096:1153  mapping (uint8 => mapping (uint256 => User)) public pools */\n    tag_9:\n      callvalue\n      dup1\n      iszero\n      tag_59\n      jumpi\n      0x00\n      dup1\n      revert\n    tag_59:\n      pop\n      tag_60\n      0x04\n      dup1\n      calldatasize\n      sub\n      dup2\n      add\n      swap1\n      tag_61\n      swap2\n      swap1\n      tag_62\n      jump\t// in\n    tag_61:\n      tag_63\n      jump\t// in\n    tag_60:\n      mload(0x40)\n      tag_64\n      swap4\n      swap3\n      swap2\n      swap1\n      tag_37\n      jump\t// in\n    tag_64:\n      mload(0x40)\n      dup1\n      swap2\n      sub\n      swap1\n      return\n        /* \"cobraBot/Contract.sol\":756:793  mapping (uint8 => Game) public levels */\n    tag_10:\n      callvalue\n      dup1\n      iszero\n      tag_65\n      jumpi\n      0x00\n      dup1\n      revert\n    tag_65:\n      pop\n      tag_66\n      0x04\n      dup1\n      calldatasize\n      sub\n      dup2\n      add\n      swap1\n      tag_67\n      swap2\n      swap1\n      tag_47\n      jump\t// in\n    tag_67:\n      tag_68\n      jump\t// in\n    tag_66:\n      mload(0x40)\n      tag_69\n      swap2\n      swap1\n      tag_54\n      jump\t// in\n    tag_69:\n      mload(0x40)\n      dup1\n      swap2\n      sub\n      swap1\n      return\n        /* \"cobraBot/Contract.sol\":3858:4087  function hasAccess(address userAdress) public view returns(bool) {\r... */\n    tag_11:\n      callvalue\n      dup1\n      iszero\n      tag_70\n      jumpi\n      0x00\n      dup1\n      revert\n    tag_70:\n      pop\n      tag_71\n      0x04\n      dup1\n      calldatasize\n      sub\n      dup2\n      add\n      swap1\n      tag_72\n      swap2\n      swap1\n      tag_34\n      jump\t// in\n    tag_72:\n      tag_73\n      jump\t// in\n    tag_71:\n      mload(0x40)\n      tag_74\n      swap2\n      swap1\n      tag_44\n      jump\t// in\n    tag_74:\n      mload(0x40)\n      dup1\n      swap2\n      sub\n      swap1\n      return\n        /* \"cobraBot/Contract.sol\":1007:1057  mapping (uint8 => uint256) public currentUserIndex */\n    tag_12:\n      callvalue\n      dup1\n      iszero\n      tag_75\n      jumpi\n      0x00\n      dup1\n      revert\n    tag_75:\n      pop\n      tag_76\n      0x04\n      dup1\n      calldatasize\n      sub\n      dup2\n      add\n      swap1\n      tag_77\n      swap2\n      swap1\n      tag_47\n      jump\t// in\n    tag_77:\n      tag_78\n      jump\t// in\n    tag_76:\n      mload(0x40)\n      tag_79\n      swap2\n      swap1\n      tag_54\n      jump\t// in\n    tag_79:\n      mload(0x40)\n      dup1\n      swap2\n      sub\n      swap1\n      return\n        /* \"cobraBot/Contract.sol\":155:186  uint8 public currentGameIdIndex */\n    tag_13:\n      callvalue\n      dup1\n      iszero\n      tag_80\n      jumpi\n      0x00\n      dup1\n      revert\n    tag_80:\n      pop\n      tag_81\n      tag_82\n      jump\t// in\n    tag_81:\n      mload(0x40)\n      tag_83\n      swap2\n      swap1\n      tag_84\n      jump\t// in\n    tag_83:\n      mload(0x40)\n      dup1\n      swap2\n      sub\n      swap1\n      return\n        /* \"cobraBot/Contract.sol\":4222:4566  function addGameLevel(uint256 amountToPay) public onlyOwner {\r... */\n    tag_14:\n      callvalue\n      dup1\n      iszero\n      tag_85\n      jumpi\n      0x00\n      dup1\n      revert\n    tag_85:\n      pop\n      tag_86\n      0x04\n      dup1\n      calldatasize\n      sub\n      dup2\n      add\n      swap1\n      tag_87\n      swap2\n      swap1\n      tag_29\n      jump\t// in\n    tag_87:\n      tag_88\n      jump\t// in\n    tag_86:\n      stop\n        /* \"cobraBot/Contract.sol\":817:860  mapping (uint256 => address) public usersId */\n    tag_15:\n      callvalue\n      dup1\n      iszero\n      tag_89\n      jumpi\n      0x00\n      dup1\n      revert\n    tag_89:\n      pop\n      tag_90\n      0x04\n      dup1\n      calldatasize\n      sub\n      dup2\n      add\n      swap1\n      tag_91\n      swap2\n      swap1\n      tag_29\n      jump\t// in\n    tag_91:\n      tag_92\n      jump\t// in\n    tag_90:\n      mload(0x40)\n      tag_93\n      swap2\n      swap1\n      tag_94\n      jump\t// in\n    tag_93:\n      mload(0x40)\n      dup1\n      swap2\n      sub\n      swap1\n      return\n        /* \"cobraBot/Contract.sol\":1195:1262  mapping (address => mapping (uint8 => uint256)) public userPayments */\n    tag_16:\n      callvalue\n      dup1\n      iszero\n      tag_95\n      jumpi\n      0x00\n      dup1\n      revert\n    tag_95:\n      pop\n      tag_96\n      0x04\n      dup1\n      calldatasize\n      sub\n      dup2\n      add\n      swap1\n      tag_97\n      swap2\n      swap1\n      tag_41\n      jump\t// in\n    tag_97:\n      tag_98\n      jump\t// in\n    tag_96:\n      mload(0x40)\n      tag_99\n      swap2\n      swap1\n      tag_54\n      jump\t// in\n    tag_99:\n      mload(0x40)\n      dup1\n      swap2\n      sub\n      swap1\n      return\n        /* \"cobraBot/Contract.sol\":2680:3279  function _fallback(address sender, uint256 value) internal {\r... */\n    tag_23:\n        /* \"cobraBot/Contract.sol\":2891:2903  bool success */\n      0x00\n        /* \"cobraBot/Contract.sol\":2914:2926  uint8 gameId */\n      dup1\n        /* \"cobraBot/Contract.sol\":2944:2955  uint8 index */\n      0x00\n        /* \"cobraBot/Contract.sol\":2939:3172  for (uint8 index; index < currentGameIdIndex+1; index++) {\r... */\n    tag_101:\n        /* \"cobraBot/Contract.sol\":2984:2985  1 */\n      0x01\n        /* \"cobraBot/Contract.sol\":2965:2983  currentGameIdIndex */\n      dup1\n      0x00\n      swap1\n      sload\n      swap1\n      0x0100\n      exp\n      swap1\n      div\n      0xff\n      and\n        /* \"cobraBot/Contract.sol\":2965:2985  currentGameIdIndex+1 */\n      tag_104\n      swap2\n      swap1\n      tag_105\n      jump\t// in\n    tag_104:\n        /* \"cobraBot/Contract.sol\":2957:2985  index < currentGameIdIndex+1 */\n      0xff\n      and\n        /* \"cobraBot/Contract.sol\":2957:2962  index */\n      dup2\n        /* \"cobraBot/Contract.sol\":2957:2985  index < currentGameIdIndex+1 */\n      0xff\n      and\n      lt\n        /* \"cobraBot/Contract.sol\":2939:3172  for (uint8 index; index < currentGameIdIndex+1; index++) {\r... */\n      iszero\n      tag_102\n      jumpi\n        /* \"cobraBot/Contract.sol\":3044:3053  msg.value */\n      callvalue\n        /* \"cobraBot/Contract.sol\":3015:3021  levels */\n      0x02\n        /* \"cobraBot/Contract.sol\":3015:3028  levels[index] */\n      0x00\n        /* \"cobraBot/Contract.sol\":3022:3027  index */\n      dup4\n        /* \"cobraBot/Contract.sol\":3015:3028  levels[index] */\n      0xff\n      and\n      0xff\n      and\n      dup2\n      mstore\n      0x20\n      add\n      swap1\n      dup2\n      mstore\n      0x20\n      add\n      0x00\n      keccak256\n        /* \"cobraBot/Contract.sol\":3015:3040  levels[index].amountToPay */\n      0x00\n      add\n      sload\n        /* \"cobraBot/Contract.sol\":3015:3053  levels[index].amountToPay == msg.value */\n      eq\n        /* \"cobraBot/Contract.sol\":3011:3161  if (levels[index].amountToPay == msg.value) {\r... */\n      iszero\n      tag_106\n      jumpi\n        /* \"cobraBot/Contract.sol\":3084:3088  true */\n      0x01\n        /* \"cobraBot/Contract.sol\":3074:3088  success = true */\n      swap3\n      pop\n        /* \"cobraBot/Contract.sol\":3116:3121  index */\n      dup1\n        /* \"cobraBot/Contract.sol\":3107:3121  gameId = index */\n      swap2\n      pop\n        /* \"cobraBot/Contract.sol\":3140:3145  break */\n      jump(tag_102)\n        /* \"cobraBot/Contract.sol\":3011:3161  if (levels[index].amountToPay == msg.value) {\r... */\n    tag_106:\n        /* \"cobraBot/Contract.sol\":2987:2994  index++ */\n      dup1\n      dup1\n      tag_107\n      swap1\n      tag_108\n      jump\t// in\n    tag_107:\n      swap2\n      pop\n      pop\n        /* \"cobraBot/Contract.sol\":2939:3172  for (uint8 index; index < currentGameIdIndex+1; index++) {\r... */\n      jump(tag_101)\n    tag_102:\n      pop\n        /* \"cobraBot/Contract.sol\":3200:3207  success */\n      dup2\n        /* \"cobraBot/Contract.sol\":3192:3226  require(success, \"Game not found\") */\n      tag_109\n      jumpi\n      mload(0x40)\n      0x08c379a000000000000000000000000000000000000000000000000000000000\n      dup2\n      mstore\n      0x04\n      add\n      tag_110\n      swap1\n      tag_111\n      jump\t// in\n    tag_110:\n      mload(0x40)\n      dup1\n      swap2\n      sub\n      swap1\n      revert\n    tag_109:\n        /* \"cobraBot/Contract.sol\":3237:3271  _joinToGame(gameId, sender, value) */\n      tag_112\n        /* \"cobraBot/Contract.sol\":3249:3255  gameId */\n      dup2\n        /* \"cobraBot/Contract.sol\":3257:3263  sender */\n      dup6\n        /* \"cobraBot/Contract.sol\":3265:3270  value */\n      dup6\n        /* \"cobraBot/Contract.sol\":3237:3248  _joinToGame */\n      tag_113\n        /* \"cobraBot/Contract.sol\":3237:3271  _joinToGame(gameId, sender, value) */\n      jump\t// in\n    tag_112:\n        /* \"cobraBot/Contract.sol\":2739:3279  {\r... */\n      pop\n      pop\n        /* \"cobraBot/Contract.sol\":2680:3279  function _fallback(address sender, uint256 value) internal {\r... */\n      pop\n      pop\n      jump\t// out\n        /* \"cobraBot/Contract.sol\":4574:5114  function registerUserToGame(uint256 inviterId) external payable noContractAccess {\r... */\n    tag_30:\n        /* \"cobraBot/Contract.sol\":1945:1956  uint32 size */\n      0x00\n        /* \"cobraBot/Contract.sol\":1967:1981  address sender */\n      dup1\n        /* \"cobraBot/Contract.sol\":1984:1994  msg.sender */\n      caller\n        /* \"cobraBot/Contract.sol\":1967:1994  address sender = msg.sender */\n      swap1\n      pop\n        /* \"cobraBot/Contract.sol\":2036:2042  sender */\n      dup1\n        /* \"cobraBot/Contract.sol\":2024:2043  extcodesize(sender) */\n      extcodesize\n        /* \"cobraBot/Contract.sol\":2016:2043  size := extcodesize(sender) */\n      swap2\n      pop\n        /* \"cobraBot/Contract.sol\":2074:2075  0 */\n      0x00\n        /* \"cobraBot/Contract.sol\":2067:2071  size */\n      dup3\n        /* \"cobraBot/Contract.sol\":2067:2075  size > 0 */\n      0xffffffff\n      and\n      gt\n        /* \"cobraBot/Contract.sol\":2065:2076  !(size > 0) */\n      iszero\n        /* \"cobraBot/Contract.sol\":2057:2093  require(!(size > 0), \"No contracts\") */\n      tag_115\n      jumpi\n      mload(0x40)\n      0x08c379a000000000000000000000000000000000000000000000000000000000\n      dup2\n      mstore\n      0x04\n      add\n      tag_116\n      swap1\n      tag_117\n      jump\t// in\n    tag_116:\n      mload(0x40)\n      dup1\n      swap2\n      sub\n      swap1\n      revert\n    tag_115:\n        /* \"cobraBot/Contract.sol\":4804:4805  0 */\n      0x00\n        /* \"cobraBot/Contract.sol\":4753:4806  registeredUsers[msg.sender].userAddress == address(0) */\n      0xffffffffffffffffffffffffffffffffffffffff\n      and\n        /* \"cobraBot/Contract.sol\":4753:4768  registeredUsers */\n      0x04\n        /* \"cobraBot/Contract.sol\":4753:4780  registeredUsers[msg.sender] */\n      0x00\n        /* \"cobraBot/Contract.sol\":4769:4779  msg.sender */\n      caller\n        /* \"cobraBot/Contract.sol\":4753:4780  registeredUsers[msg.sender] */\n      0xffffffffffffffffffffffffffffffffffffffff\n      and\n      0xffffffffffffffffffffffffffffffffffffffff\n      and\n      dup2\n      mstore\n      0x20\n      add\n      swap1\n      dup2\n      mstore\n      0x20\n      add\n      0x00\n      keccak256\n        /* \"cobraBot/Contract.sol\":4753:4792  registeredUsers[msg.sender].userAddress */\n      0x01\n      add\n      0x00\n      swap1\n      sload\n      swap1\n      0x0100\n      exp\n      swap1\n      div\n      0xffffffffffffffffffffffffffffffffffffffff\n      and\n        /* \"cobraBot/Contract.sol\":4753:4806  registeredUsers[msg.sender].userAddress == address(0) */\n      0xffffffffffffffffffffffffffffffffffffffff\n      and\n      eq\n        /* \"cobraBot/Contract.sol\":4745:4837  require(registeredUsers[msg.sender].userAddress == address(0), \"You are already registered\") */\n      tag_119\n      jumpi\n      mload(0x40)\n      0x08c379a000000000000000000000000000000000000000000000000000000000\n      dup2\n      mstore\n      0x04\n      add\n      tag_120\n      swap1\n      tag_121\n      jump\t// in\n    tag_120:\n      mload(0x40)\n      dup1\n      swap2\n      sub\n      swap1\n      revert\n    tag_119:\n        /* \"cobraBot/Contract.sol\":4870:4877  1 ether */\n      0x0de0b6b3a7640000\n        /* \"cobraBot/Contract.sol\":4857:4866  msg.value */\n      callvalue\n        /* \"cobraBot/Contract.sol\":4857:4877  msg.value == 1 ether */\n      eq\n        /* \"cobraBot/Contract.sol\":4848:4922  require (msg.value == 1 ether, \"For regiter in game you need pay 1 ether\") */\n      tag_122\n      jumpi\n      mload(0x40)\n      0x08c379a000000000000000000000000000000000000000000000000000000000\n      dup2\n      mstore\n      0x04\n      add\n      tag_123\n      swap1\n      tag_124\n      jump\t// in\n    tag_123:\n      mload(0x40)\n      dup1\n      swap2\n      sub\n      swap1\n      revert\n    tag_122:\n        /* \"cobraBot/Contract.sol\":4965:5021  User(currentUserIdIndex, payable(msg.sender), inviterId) */\n      mload(0x40)\n      dup1\n      0x60\n      add\n      0x40\n      mstore\n      dup1\n        /* \"cobraBot/Contract.sol\":4970:4988  currentUserIdIndex */\n      sload(0x00)\n        /* \"cobraBot/Contract.sol\":4965:5021  User(currentUserIdIndex, payable(msg.sender), inviterId) */\n      dup2\n      mstore\n      0x20\n      add\n        /* \"cobraBot/Contract.sol\":4998:5008  msg.sender */\n      caller\n        /* \"cobraBot/Contract.sol\":4965:5021  User(currentUserIdIndex, payable(msg.sender), inviterId) */\n      0xffffffffffffffffffffffffffffffffffffffff\n      and\n      dup2\n      mstore\n      0x20\n      add\n        /* \"cobraBot/Contract.sol\":5011:5020  inviterId */\n      dup5\n        /* \"cobraBot/Contract.sol\":4965:5021  User(currentUserIdIndex, payable(msg.sender), inviterId) */\n      dup2\n      mstore\n      pop\n        /* \"cobraBot/Contract.sol\":4935:4950  registeredUsers */\n      0x04\n        /* \"cobraBot/Contract.sol\":4935:4962  registeredUsers[msg.sender] */\n      0x00\n        /* \"cobraBot/Contract.sol\":4951:4961  msg.sender */\n      caller\n        /* \"cobraBot/Contract.sol\":4935:4962  registeredUsers[msg.sender] */\n      0xffffffffffffffffffffffffffffffffffffffff\n      and\n      0xffffffffffffffffffffffffffffffffffffffff\n      and\n      dup2\n      mstore\n      0x20\n      add\n      swap1\n      dup2\n      mstore\n      0x20\n      add\n      0x00\n      keccak256\n        /* \"cobraBot/Contract.sol\":4935:5021  registeredUsers[msg.sender] = User(currentUserIdIndex, payable(msg.sender), inviterId) */\n      0x00\n      dup3\n      add\n      mload\n      dup2\n      0x00\n      add\n      sstore\n      0x20\n      dup3\n      add\n      mload\n      dup2\n      0x01\n      add\n      exp(0x0100, 0x00)\n      dup2\n      sload\n      dup2\n      0xffffffffffffffffffffffffffffffffffffffff\n      mul\n      not\n      and\n      swap1\n      dup4\n      0xffffffffffffffffffffffffffffffffffffffff\n      and\n      mul\n      or\n      swap1\n      sstore\n      pop\n      0x40\n      dup3\n      add\n      mload\n      dup2\n      0x02\n      add\n      sstore\n      swap1\n      pop\n      pop\n        /* \"cobraBot/Contract.sol\":5062:5072  msg.sender */\n      caller\n        /* \"cobraBot/Contract.sol\":5032:5039  usersId */\n      0x03\n        /* \"cobraBot/Contract.sol\":5032:5059  usersId[currentUserIdIndex] */\n      0x00\n        /* \"cobraBot/Contract.sol\":5040:5058  currentUserIdIndex */\n      dup1\n      sload\n        /* \"cobraBot/Contract.sol\":5032:5059  usersId[currentUserIdIndex] */\n      dup2\n      mstore\n      0x20\n      add\n      swap1\n      dup2\n      mstore\n      0x20\n      add\n      0x00\n      keccak256\n      0x00\n        /* \"cobraBot/Contract.sol\":5032:5072  usersId[currentUserIdIndex] = msg.sender */\n      0x0100\n      exp\n      dup2\n      sload\n      dup2\n      0xffffffffffffffffffffffffffffffffffffffff\n      mul\n      not\n      and\n      swap1\n      dup4\n      0xffffffffffffffffffffffffffffffffffffffff\n      and\n      mul\n      or\n      swap1\n      sstore\n      pop\n        /* \"cobraBot/Contract.sol\":5105:5106  1 */\n      0x01\n        /* \"cobraBot/Contract.sol\":5083:5101  currentUserIdIndex */\n      0x00\n      dup1\n        /* \"cobraBot/Contract.sol\":5083:5106  currentUserIdIndex += 1 */\n      dup3\n      dup3\n      sload\n      tag_125\n      swap2\n      swap1\n      tag_126\n      jump\t// in\n    tag_125:\n      swap3\n      pop\n      pop\n      dup2\n      swap1\n      sstore\n      pop\n        /* \"cobraBot/Contract.sol\":1898:2113  {\r... */\n      pop\n      pop\n        /* \"cobraBot/Contract.sol\":4574:5114  function registerUserToGame(uint256 inviterId) external payable noContractAccess {\r... */\n      pop\n      jump\t// out\n        /* \"cobraBot/Contract.sol\":904:952  mapping (address => User) public registeredUsers */\n    tag_35:\n      mstore(0x20, 0x04)\n      dup1\n      0x00\n      mstore\n      keccak256(0x00, 0x40)\n      0x00\n      swap2\n      pop\n      swap1\n      pop\n      dup1\n      0x00\n      add\n      sload\n      swap1\n      dup1\n      0x01\n      add\n      0x00\n      swap1\n      sload\n      swap1\n      0x0100\n      exp\n      swap1\n      div\n      0xffffffffffffffffffffffffffffffffffffffff\n      and\n      swap1\n      dup1\n      0x02\n      add\n      sload\n      swap1\n      pop\n      dup4\n      jump\t// out\n        /* \"cobraBot/Contract.sol\":1308:1369  mapping (address => mapping (uint8 => bool)) public userGames */\n    tag_42:\n      mstore(0x20, 0x08)\n      dup2\n      0x00\n      mstore\n      mstore(0x20, keccak256(0x00, 0x40))\n      dup1\n      0x00\n      mstore\n      keccak256(0x00, 0x40)\n      0x00\n      swap2\n      pop\n      swap2\n      pop\n      swap1\n      sload\n      swap1\n      0x0100\n      exp\n      swap1\n      div\n      0xff\n      and\n      dup2\n      jump\t// out\n        /* \"cobraBot/Contract.sol\":5122:5339  function joinToGame(uint8 gameId) public payable onlyRegistered {\r... */\n    tag_48:\n        /* \"cobraBot/Contract.sol\":1841:1842  0 */\n      0x00\n        /* \"cobraBot/Contract.sol\":1790:1843  registeredUsers[msg.sender].userAddress != address(0) */\n      0xffffffffffffffffffffffffffffffffffffffff\n      and\n        /* \"cobraBot/Contract.sol\":1790:1805  registeredUsers */\n      0x04\n        /* \"cobraBot/Contract.sol\":1790:1817  registeredUsers[msg.sender] */\n      0x00\n        /* \"cobraBot/Contract.sol\":1806:1816  msg.sender */\n      caller\n        /* \"cobraBot/Contract.sol\":1790:1817  registeredUsers[msg.sender] */\n      0xffffffffffffffffffffffffffffffffffffffff\n      and\n      0xffffffffffffffffffffffffffffffffffffffff\n      and\n      dup2\n      mstore\n      0x20\n      add\n      swap1\n      dup2\n      mstore\n      0x20\n      add\n      0x00\n      keccak256\n        /* \"cobraBot/Contract.sol\":1790:1829  registeredUsers[msg.sender].userAddress */\n      0x01\n      add\n      0x00\n      swap1\n      sload\n      swap1\n      0x0100\n      exp\n      swap1\n      div\n      0xffffffffffffffffffffffffffffffffffffffff\n      and\n        /* \"cobraBot/Contract.sol\":1790:1843  registeredUsers[msg.sender].userAddress != address(0) */\n      0xffffffffffffffffffffffffffffffffffffffff\n      and\n      eq\n      iszero\n        /* \"cobraBot/Contract.sol\":1782:1844  require(registeredUsers[msg.sender].userAddress != address(0)) */\n      tag_128\n      jumpi\n      0x00\n      dup1\n      revert\n    tag_128:\n        /* \"cobraBot/Contract.sol\":5289:5331  _joinToGame(gameId, msg.sender, msg.value) */\n      tag_130\n        /* \"cobraBot/Contract.sol\":5301:5307  gameId */\n      dup2\n        /* \"cobraBot/Contract.sol\":5309:5319  msg.sender */\n      caller\n        /* \"cobraBot/Contract.sol\":5321:5330  msg.value */\n      callvalue\n        /* \"cobraBot/Contract.sol\":5289:5300  _joinToGame */\n      tag_113\n        /* \"cobraBot/Contract.sol\":5289:5331  _joinToGame(gameId, msg.sender, msg.value) */\n      jump\t// in\n    tag_130:\n        /* \"cobraBot/Contract.sol\":5122:5339  function joinToGame(uint8 gameId) public payable onlyRegistered {\r... */\n      pop\n      jump\t// out\n        /* \"cobraBot/Contract.sol\":4095:4214  function getUserBalance(address userAddress) public view returns(uint256) {\r... */\n    tag_52:\n        /* \"cobraBot/Contract.sol\":4160:4167  uint256 */\n      0x00\n        /* \"cobraBot/Contract.sol\":4187:4198  userAddress */\n      dup2\n        /* \"cobraBot/Contract.sol\":4187:4206  userAddress.balance */\n      0xffffffffffffffffffffffffffffffffffffffff\n      and\n      balance\n        /* \"cobraBot/Contract.sol\":4180:4206  return userAddress.balance */\n      swap1\n      pop\n        /* \"cobraBot/Contract.sol\":4095:4214  function getUserBalance(address userAddress) public view returns(uint256) {\r... */\n      swap2\n      swap1\n      pop\n      jump\t// out\n        /* \"cobraBot/Contract.sol\":86:119  uint256 public currentUserIdIndex */\n    tag_57:\n      sload(0x00)\n      dup2\n      jump\t// out\n        /* \"cobraBot/Contract.sol\":1096:1153  mapping (uint8 => mapping (uint256 => User)) public pools */\n    tag_63:\n      mstore(0x20, 0x06)\n      dup2\n      0x00\n      mstore\n      mstore(0x20, keccak256(0x00, 0x40))\n      dup1\n      0x00\n      mstore\n      keccak256(0x00, 0x40)\n      0x00\n      swap2\n      pop\n      swap2\n      pop\n      pop\n      dup1\n      0x00\n      add\n      sload\n      swap1\n      dup1\n      0x01\n      add\n      0x00\n      swap1\n      sload\n      swap1\n      0x0100\n      exp\n      swap1\n      div\n      0xffffffffffffffffffffffffffffffffffffffff\n      and\n      swap1\n      dup1\n      0x02\n      add\n      sload\n      swap1\n      pop\n      dup4\n      jump\t// out\n        /* \"cobraBot/Contract.sol\":756:793  mapping (uint8 => Game) public levels */\n    tag_68:\n      mstore(0x20, 0x02)\n      dup1\n      0x00\n      mstore\n      keccak256(0x00, 0x40)\n      0x00\n      swap2\n      pop\n      swap1\n      pop\n      dup1\n      0x00\n      add\n      sload\n      swap1\n      pop\n      dup2\n      jump\t// out\n        /* \"cobraBot/Contract.sol\":3858:4087  function hasAccess(address userAdress) public view returns(bool) {\r... */\n    tag_73:\n        /* \"cobraBot/Contract.sol\":3917:3921  bool */\n      0x00\n        /* \"cobraBot/Contract.sol\":4066:4079  contractOwner */\n      0x01\n      dup1\n      sload\n      swap1\n      0x0100\n      exp\n      swap1\n      div\n      0xffffffffffffffffffffffffffffffffffffffff\n      and\n        /* \"cobraBot/Contract.sol\":4052:4079  userAdress == contractOwner */\n      0xffffffffffffffffffffffffffffffffffffffff\n      and\n        /* \"cobraBot/Contract.sol\":4052:4062  userAdress */\n      dup3\n        /* \"cobraBot/Contract.sol\":4052:4079  userAdress == contractOwner */\n      0xffffffffffffffffffffffffffffffffffffffff\n      and\n      eq\n        /* \"cobraBot/Contract.sol\":4045:4079  return userAdress == contractOwner */\n      swap1\n      pop\n        /* \"cobraBot/Contract.sol\":3858:4087  function hasAccess(address userAdress) public view returns(bool) {\r... */\n      swap2\n      swap1\n      pop\n      jump\t// out\n        /* \"cobraBot/Contract.sol\":1007:1057  mapping (uint8 => uint256) public currentUserIndex */\n    tag_78:\n      mstore(0x20, 0x05)\n      dup1\n      0x00\n      mstore\n      keccak256(0x00, 0x40)\n      0x00\n      swap2\n      pop\n      swap1\n      pop\n      sload\n      dup2\n      jump\t// out\n        /* \"cobraBot/Contract.sol\":155:186  uint8 public currentGameIdIndex */\n    tag_82:\n      0x01\n      0x00\n      swap1\n      sload\n      swap1\n      0x0100\n      exp\n      swap1\n      div\n      0xff\n      and\n      dup2\n      jump\t// out\n        /* \"cobraBot/Contract.sol\":4222:4566  function addGameLevel(uint256 amountToPay) public onlyOwner {\r... */\n    tag_88:\n        /* \"cobraBot/Contract.sol\":2188:2209  hasAccess(msg.sender) */\n      tag_134\n        /* \"cobraBot/Contract.sol\":2198:2208  msg.sender */\n      caller\n        /* \"cobraBot/Contract.sol\":2188:2197  hasAccess */\n      tag_73\n        /* \"cobraBot/Contract.sol\":2188:2209  hasAccess(msg.sender) */\n      jump\t// in\n    tag_134:\n        /* \"cobraBot/Contract.sol\":2180:2210  require(hasAccess(msg.sender)) */\n      tag_135\n      jumpi\n      0x00\n      dup1\n      revert\n    tag_135:\n        /* \"cobraBot/Contract.sol\":4427:4461  Game({ amountToPay: amountToPay }) */\n      mload(0x40)\n      dup1\n      0x20\n      add\n      0x40\n      mstore\n      dup1\n        /* \"cobraBot/Contract.sol\":4447:4458  amountToPay */\n      dup3\n        /* \"cobraBot/Contract.sol\":4427:4461  Game({ amountToPay: amountToPay }) */\n      dup2\n      mstore\n      pop\n        /* \"cobraBot/Contract.sol\":4398:4404  levels */\n      0x02\n        /* \"cobraBot/Contract.sol\":4398:4424  levels[currentGameIdIndex] */\n      0x00\n        /* \"cobraBot/Contract.sol\":4405:4423  currentGameIdIndex */\n      0x01\n      0x00\n      swap1\n      sload\n      swap1\n      0x0100\n      exp\n      swap1\n      div\n      0xff\n      and\n        /* \"cobraBot/Contract.sol\":4398:4424  levels[currentGameIdIndex] */\n      0xff\n      and\n      0xff\n      and\n      dup2\n      mstore\n      0x20\n      add\n      swap1\n      dup2\n      mstore\n      0x20\n      add\n      0x00\n      keccak256\n        /* \"cobraBot/Contract.sol\":4398:4461  levels[currentGameIdIndex] = Game({ amountToPay: amountToPay }) */\n      0x00\n      dup3\n      add\n      mload\n      dup2\n      0x00\n      add\n      sstore\n      swap1\n      pop\n      pop\n        /* \"cobraBot/Contract.sol\":4494:4495  1 */\n      0x01\n        /* \"cobraBot/Contract.sol\":4472:4490  currentGameIdIndex */\n      dup1\n      0x00\n        /* \"cobraBot/Contract.sol\":4472:4495  currentGameIdIndex += 1 */\n      dup3\n      dup3\n      dup3\n      swap1\n      sload\n      swap1\n      0x0100\n      exp\n      swap1\n      div\n      0xff\n      and\n      tag_137\n      swap2\n      swap1\n      tag_105\n      jump\t// in\n    tag_137:\n      swap3\n      pop\n      0x0100\n      exp\n      dup2\n      sload\n      dup2\n      0xff\n      mul\n      not\n      and\n      swap1\n      dup4\n      0xff\n      and\n      mul\n      or\n      swap1\n      sstore\n      pop\n        /* \"cobraBot/Contract.sol\":4511:4558  NewGame(levels[currentGameIdIndex].amountToPay) */\n      0xa0b7f6f22bb4f69adc52dd16ffe2a964ab8b577be274247fa9a1547b03ce3e55\n        /* \"cobraBot/Contract.sol\":4519:4525  levels */\n      0x02\n        /* \"cobraBot/Contract.sol\":4519:4545  levels[currentGameIdIndex] */\n      0x00\n        /* \"cobraBot/Contract.sol\":4526:4544  currentGameIdIndex */\n      0x01\n      0x00\n      swap1\n      sload\n      swap1\n      0x0100\n      exp\n      swap1\n      div\n      0xff\n      and\n        /* \"cobraBot/Contract.sol\":4519:4545  levels[currentGameIdIndex] */\n      0xff\n      and\n      0xff\n      and\n      dup2\n      mstore\n      0x20\n      add\n      swap1\n      dup2\n      mstore\n      0x20\n      add\n      0x00\n      keccak256\n        /* \"cobraBot/Contract.sol\":4519:4557  levels[currentGameIdIndex].amountToPay */\n      0x00\n      add\n      sload\n        /* \"cobraBot/Contract.sol\":4511:4558  NewGame(levels[currentGameIdIndex].amountToPay) */\n      mload(0x40)\n      tag_138\n      swap2\n      swap1\n      tag_54\n      jump\t// in\n    tag_138:\n      mload(0x40)\n      dup1\n      swap2\n      sub\n      swap1\n      log1\n        /* \"cobraBot/Contract.sol\":4222:4566  function addGameLevel(uint256 amountToPay) public onlyOwner {\r... */\n      pop\n      jump\t// out\n        /* \"cobraBot/Contract.sol\":817:860  mapping (uint256 => address) public usersId */\n    tag_92:\n      mstore(0x20, 0x03)\n      dup1\n      0x00\n      mstore\n      keccak256(0x00, 0x40)\n      0x00\n      swap2\n      pop\n      sload\n      swap1\n      0x0100\n      exp\n      swap1\n      div\n      0xffffffffffffffffffffffffffffffffffffffff\n      and\n      dup2\n      jump\t// out\n        /* \"cobraBot/Contract.sol\":1195:1262  mapping (address => mapping (uint8 => uint256)) public userPayments */\n    tag_98:\n      mstore(0x20, 0x07)\n      dup2\n      0x00\n      mstore\n      mstore(0x20, keccak256(0x00, 0x40))\n      dup1\n      0x00\n      mstore\n      keccak256(0x00, 0x40)\n      0x00\n      swap2\n      pop\n      swap2\n      pop\n      pop\n      sload\n      dup2\n      jump\t// out\n        /* \"cobraBot/Contract.sol\":5347:9105  function _joinToGame(uint8 gameId, address sender, uint256 value) internal {\r... */\n    tag_113:\n        /* \"cobraBot/Contract.sol\":5451:5457  levels */\n      0x02\n        /* \"cobraBot/Contract.sol\":5451:5465  levels[gameId] */\n      0x00\n        /* \"cobraBot/Contract.sol\":5458:5464  gameId */\n      dup5\n        /* \"cobraBot/Contract.sol\":5451:5465  levels[gameId] */\n      0xff\n      and\n      0xff\n      and\n      dup2\n      mstore\n      0x20\n      add\n      swap1\n      dup2\n      mstore\n      0x20\n      add\n      0x00\n      keccak256\n        /* \"cobraBot/Contract.sol\":5451:5477  levels[gameId].amountToPay */\n      0x00\n      add\n      sload\n        /* \"cobraBot/Contract.sol\":5442:5447  value */\n      dup2\n        /* \"cobraBot/Contract.sol\":5442:5477  value >= levels[gameId].amountToPay */\n      lt\n      iszero\n        /* \"cobraBot/Contract.sol\":5433:5517  require (value >= levels[gameId].amountToPay, \"Insufficient amount of contribution\") */\n      tag_140\n      jumpi\n      mload(0x40)\n      0x08c379a000000000000000000000000000000000000000000000000000000000\n      dup2\n      mstore\n      0x04\n      add\n      tag_141\n      swap1\n      tag_142\n      jump\t// in\n    tag_141:\n      mload(0x40)\n      dup1\n      swap2\n      sub\n      swap1\n      revert\n    tag_140:\n        /* \"cobraBot/Contract.sol\":5692:5707  registeredUsers */\n      0x04\n        /* \"cobraBot/Contract.sol\":5692:5715  registeredUsers[sender] */\n      0x00\n        /* \"cobraBot/Contract.sol\":5708:5714  sender */\n      dup4\n        /* \"cobraBot/Contract.sol\":5692:5715  registeredUsers[sender] */\n      0xffffffffffffffffffffffffffffffffffffffff\n      and\n      0xffffffffffffffffffffffffffffffffffffffff\n      and\n      dup2\n      mstore\n      0x20\n      add\n      swap1\n      dup2\n      mstore\n      0x20\n      add\n      0x00\n      keccak256\n        /* \"cobraBot/Contract.sol\":5650:5655  pools */\n      0x06\n        /* \"cobraBot/Contract.sol\":5650:5663  pools[gameId] */\n      0x00\n        /* \"cobraBot/Contract.sol\":5656:5662  gameId */\n      dup6\n        /* \"cobraBot/Contract.sol\":5650:5663  pools[gameId] */\n      0xff\n      and\n      0xff\n      and\n      dup2\n      mstore\n      0x20\n      add\n      swap1\n      dup2\n      mstore\n      0x20\n      add\n      0x00\n      keccak256\n        /* \"cobraBot/Contract.sol\":5650:5689  pools[gameId][currentUserIndex[gameId]] */\n      0x00\n        /* \"cobraBot/Contract.sol\":5664:5680  currentUserIndex */\n      0x05\n        /* \"cobraBot/Contract.sol\":5664:5688  currentUserIndex[gameId] */\n      0x00\n        /* \"cobraBot/Contract.sol\":5681:5687  gameId */\n      dup8\n        /* \"cobraBot/Contract.sol\":5664:5688  currentUserIndex[gameId] */\n      0xff\n      and\n      0xff\n      and\n      dup2\n      mstore\n      0x20\n      add\n      swap1\n      dup2\n      mstore\n      0x20\n      add\n      0x00\n      keccak256\n      sload\n        /* \"cobraBot/Contract.sol\":5650:5689  pools[gameId][currentUserIndex[gameId]] */\n      dup2\n      mstore\n      0x20\n      add\n      swap1\n      dup2\n      mstore\n      0x20\n      add\n      0x00\n      keccak256\n        /* \"cobraBot/Contract.sol\":5650:5715  pools[gameId][currentUserIndex[gameId]] = registeredUsers[sender] */\n      0x00\n      dup3\n      add\n      sload\n      dup2\n      0x00\n      add\n      sstore\n      0x01\n      dup3\n      add\n      0x00\n      swap1\n      sload\n      swap1\n      0x0100\n      exp\n      swap1\n      div\n      0xffffffffffffffffffffffffffffffffffffffff\n      and\n      dup2\n      0x01\n      add\n      exp(0x0100, 0x00)\n      dup2\n      sload\n      dup2\n      0xffffffffffffffffffffffffffffffffffffffff\n      mul\n      not\n      and\n      swap1\n      dup4\n      0xffffffffffffffffffffffffffffffffffffffff\n      and\n      mul\n      or\n      swap1\n      sstore\n      pop\n      0x02\n      dup3\n      add\n      sload\n      dup2\n      0x02\n      add\n      sstore\n      swap1\n      pop\n      pop\n        /* \"cobraBot/Contract.sol\":5754:5758  true */\n      0x01\n        /* \"cobraBot/Contract.sol\":5726:5735  userGames */\n      0x08\n        /* \"cobraBot/Contract.sol\":5726:5743  userGames[sender] */\n      0x00\n        /* \"cobraBot/Contract.sol\":5736:5742  sender */\n      dup5\n        /* \"cobraBot/Contract.sol\":5726:5743  userGames[sender] */\n      0xffffffffffffffffffffffffffffffffffffffff\n      and\n      0xffffffffffffffffffffffffffffffffffffffff\n      and\n      dup2\n      mstore\n      0x20\n      add\n      swap1\n      dup2\n      mstore\n      0x20\n      add\n      0x00\n      keccak256\n        /* \"cobraBot/Contract.sol\":5726:5751  userGames[sender][gameId] */\n      0x00\n        /* \"cobraBot/Contract.sol\":5744:5750  gameId */\n      dup6\n        /* \"cobraBot/Contract.sol\":5726:5751  userGames[sender][gameId] */\n      0xff\n      and\n      0xff\n      and\n      dup2\n      mstore\n      0x20\n      add\n      swap1\n      dup2\n      mstore\n      0x20\n      add\n      0x00\n      keccak256\n      0x00\n        /* \"cobraBot/Contract.sol\":5726:5758  userGames[sender][gameId] = true */\n      0x0100\n      exp\n      dup2\n      sload\n      dup2\n      0xff\n      mul\n      not\n      and\n      swap1\n      dup4\n      iszero\n      iszero\n      mul\n      or\n      swap1\n      sstore\n      pop\n        /* \"cobraBot/Contract.sol\":5902:5903  3 */\n      0x03\n        /* \"cobraBot/Contract.sol\":5874:5890  currentUserIndex */\n      0x05\n        /* \"cobraBot/Contract.sol\":5874:5898  currentUserIndex[gameId] */\n      0x00\n        /* \"cobraBot/Contract.sol\":5891:5897  gameId */\n      dup6\n        /* \"cobraBot/Contract.sol\":5874:5898  currentUserIndex[gameId] */\n      0xff\n      and\n      0xff\n      and\n      dup2\n      mstore\n      0x20\n      add\n      swap1\n      dup2\n      mstore\n      0x20\n      add\n      0x00\n      keccak256\n      sload\n        /* \"cobraBot/Contract.sol\":5874:5903  currentUserIndex[gameId] >= 3 */\n      lt\n        /* \"cobraBot/Contract.sol\":5870:8987  if (currentUserIndex[gameId] >= 3) {\r... */\n      tag_143\n      jumpi\n        /* \"cobraBot/Contract.sol\":5920:5937  uint256 userIndex */\n      0x00\n        /* \"cobraBot/Contract.sol\":5940:5985  culcNextWinnerIndex(currentUserIndex[gameId]) */\n      tag_144\n        /* \"cobraBot/Contract.sol\":5960:5976  currentUserIndex */\n      0x05\n        /* \"cobraBot/Contract.sol\":5960:5984  currentUserIndex[gameId] */\n      0x00\n        /* \"cobraBot/Contract.sol\":5977:5983  gameId */\n      dup7\n        /* \"cobraBot/Contract.sol\":5960:5984  currentUserIndex[gameId] */\n      0xff\n      and\n      0xff\n      and\n      dup2\n      mstore\n      0x20\n      add\n      swap1\n      dup2\n      mstore\n      0x20\n      add\n      0x00\n      keccak256\n      sload\n        /* \"cobraBot/Contract.sol\":5940:5959  culcNextWinnerIndex */\n      tag_145\n        /* \"cobraBot/Contract.sol\":5940:5985  culcNextWinnerIndex(currentUserIndex[gameId]) */\n      jump\t// in\n    tag_144:\n        /* \"cobraBot/Contract.sol\":5920:5985  uint256 userIndex = culcNextWinnerIndex(currentUserIndex[gameId]) */\n      swap1\n      pop\n        /* \"cobraBot/Contract.sol\":6126:8976  while (userIndex != 0) {\r... */\n    tag_146:\n        /* \"cobraBot/Contract.sol\":6146:6147  0 */\n      0x00\n        /* \"cobraBot/Contract.sol\":6133:6142  userIndex */\n      dup2\n        /* \"cobraBot/Contract.sol\":6133:6147  userIndex != 0 */\n      eq\n        /* \"cobraBot/Contract.sol\":6126:8976  while (userIndex != 0) {\r... */\n      tag_147\n      jumpi\n        /* \"cobraBot/Contract.sol\":6168:6191  address selectedAddress */\n      0x00\n        /* \"cobraBot/Contract.sol\":6194:6199  pools */\n      0x06\n        /* \"cobraBot/Contract.sol\":6194:6207  pools[gameId] */\n      0x00\n        /* \"cobraBot/Contract.sol\":6200:6206  gameId */\n      dup7\n        /* \"cobraBot/Contract.sol\":6194:6207  pools[gameId] */\n      0xff\n      and\n      0xff\n      and\n      dup2\n      mstore\n      0x20\n      add\n      swap1\n      dup2\n      mstore\n      0x20\n      add\n      0x00\n      keccak256\n        /* \"cobraBot/Contract.sol\":6194:6218  pools[gameId][userIndex] */\n      0x00\n        /* \"cobraBot/Contract.sol\":6208:6217  userIndex */\n      dup4\n        /* \"cobraBot/Contract.sol\":6194:6218  pools[gameId][userIndex] */\n      dup2\n      mstore\n      0x20\n      add\n      swap1\n      dup2\n      mstore\n      0x20\n      add\n      0x00\n      keccak256\n        /* \"cobraBot/Contract.sol\":6194:6230  pools[gameId][userIndex].userAddress */\n      0x01\n      add\n      0x00\n      swap1\n      sload\n      swap1\n      0x0100\n      exp\n      swap1\n      div\n      0xffffffffffffffffffffffffffffffffffffffff\n      and\n        /* \"cobraBot/Contract.sol\":6168:6230  address selectedAddress = pools[gameId][userIndex].userAddress */\n      swap1\n      pop\n        /* \"cobraBot/Contract.sol\":6436:6437  1 */\n      0x01\n        /* \"cobraBot/Contract.sol\":6395:6407  userPayments */\n      0x07\n        /* \"cobraBot/Contract.sol\":6395:6424  userPayments[selectedAddress] */\n      0x00\n        /* \"cobraBot/Contract.sol\":6408:6423  selectedAddress */\n      dup4\n        /* \"cobraBot/Contract.sol\":6395:6424  userPayments[selectedAddress] */\n      0xffffffffffffffffffffffffffffffffffffffff\n      and\n      0xffffffffffffffffffffffffffffffffffffffff\n      and\n      dup2\n      mstore\n      0x20\n      add\n      swap1\n      dup2\n      mstore\n      0x20\n      add\n      0x00\n      keccak256\n        /* \"cobraBot/Contract.sol\":6395:6432  userPayments[selectedAddress][gameId] */\n      0x00\n        /* \"cobraBot/Contract.sol\":6425:6431  gameId */\n      dup8\n        /* \"cobraBot/Contract.sol\":6395:6432  userPayments[selectedAddress][gameId] */\n      0xff\n      and\n      0xff\n      and\n      dup2\n      mstore\n      0x20\n      add\n      swap1\n      dup2\n      mstore\n      0x20\n      add\n      0x00\n      keccak256\n      sload\n        /* \"cobraBot/Contract.sol\":6395:6437  userPayments[selectedAddress][gameId] <= 1 */\n      gt\n      iszero\n        /* \"cobraBot/Contract.sol\":6395:6477  userPayments[selectedAddress][gameId] <= 1 || userGames[selectedAddress][gameId+1] */\n      dup1\n      tag_148\n      jumpi\n      pop\n        /* \"cobraBot/Contract.sol\":6441:6450  userGames */\n      0x08\n        /* \"cobraBot/Contract.sol\":6441:6467  userGames[selectedAddress] */\n      0x00\n        /* \"cobraBot/Contract.sol\":6451:6466  selectedAddress */\n      dup3\n        /* \"cobraBot/Contract.sol\":6441:6467  userGames[selectedAddress] */\n      0xffffffffffffffffffffffffffffffffffffffff\n      and\n      0xffffffffffffffffffffffffffffffffffffffff\n      and\n      dup2\n      mstore\n      0x20\n      add\n      swap1\n      dup2\n      mstore\n      0x20\n      add\n      0x00\n      keccak256\n        /* \"cobraBot/Contract.sol\":6441:6477  userGames[selectedAddress][gameId+1] */\n      0x00\n        /* \"cobraBot/Contract.sol\":6475:6476  1 */\n      0x01\n        /* \"cobraBot/Contract.sol\":6468:6474  gameId */\n      dup8\n        /* \"cobraBot/Contract.sol\":6468:6476  gameId+1 */\n      tag_149\n      swap2\n      swap1\n      tag_105\n      jump\t// in\n    tag_149:\n        /* \"cobraBot/Contract.sol\":6441:6477  userGames[selectedAddress][gameId+1] */\n      0xff\n      and\n      0xff\n      and\n      dup2\n      mstore\n      0x20\n      add\n      swap1\n      dup2\n      mstore\n      0x20\n      add\n      0x00\n      keccak256\n      0x00\n      swap1\n      sload\n      swap1\n      0x0100\n      exp\n      swap1\n      div\n      0xff\n      and\n        /* \"cobraBot/Contract.sol\":6395:6477  userPayments[selectedAddress][gameId] <= 1 || userGames[selectedAddress][gameId+1] */\n    tag_148:\n        /* \"cobraBot/Contract.sol\":6391:8961  if (userPayments[selectedAddress][gameId] <= 1 || userGames[selectedAddress][gameId+1]) {\r... */\n      iszero\n      tag_150\n      jumpi\n        /* \"cobraBot/Contract.sol\":6679:6691  bool success */\n      0x00\n        /* \"cobraBot/Contract.sol\":6697:6712  selectedAddress */\n      dup2\n        /* \"cobraBot/Contract.sol\":6697:6717  selectedAddress.call */\n      0xffffffffffffffffffffffffffffffffffffffff\n      and\n        /* \"cobraBot/Contract.sol\":6766:6769  100 */\n      0x64\n        /* \"cobraBot/Contract.sol\":275:277  74 */\n      0x4a\n        /* \"cobraBot/Contract.sol\":6725:6731  levels */\n      0x02\n        /* \"cobraBot/Contract.sol\":6725:6739  levels[gameId] */\n      0x00\n        /* \"cobraBot/Contract.sol\":6732:6738  gameId */\n      dup11\n        /* \"cobraBot/Contract.sol\":6725:6739  levels[gameId] */\n      0xff\n      and\n      0xff\n      and\n      dup2\n      mstore\n      0x20\n      add\n      swap1\n      dup2\n      mstore\n      0x20\n      add\n      0x00\n      keccak256\n        /* \"cobraBot/Contract.sol\":6725:6751  levels[gameId].amountToPay */\n      0x00\n      add\n      sload\n        /* \"cobraBot/Contract.sol\":6725:6763  levels[gameId].amountToPay * baseAward */\n      tag_151\n      swap2\n      swap1\n      tag_152\n      jump\t// in\n    tag_151:\n        /* \"cobraBot/Contract.sol\":6725:6769  levels[gameId].amountToPay * baseAward / 100 */\n      tag_153\n      swap2\n      swap1\n      tag_154\n      jump\t// in\n    tag_153:\n        /* \"cobraBot/Contract.sol\":6697:6774  selectedAddress.call{value: levels[gameId].amountToPay * baseAward / 100}(\"\") */\n      mload(0x40)\n      tag_155\n      swap1\n      tag_156\n      jump\t// in\n    tag_155:\n      0x00\n      mload(0x40)\n      dup1\n      dup4\n      sub\n      dup2\n      dup6\n      dup8\n      gas\n      call\n      swap3\n      pop\n      pop\n      pop\n      returndatasize\n      dup1\n      0x00\n      dup2\n      eq\n      tag_159\n      jumpi\n      mload(0x40)\n      swap2\n      pop\n      and(add(returndatasize, 0x3f), not(0x1f))\n      dup3\n      add\n      0x40\n      mstore\n      returndatasize\n      dup3\n      mstore\n      returndatasize\n      0x00\n      0x20\n      dup5\n      add\n      returndatacopy\n      jump(tag_158)\n    tag_159:\n      0x60\n      swap2\n      pop\n    tag_158:\n      pop\n        /* \"cobraBot/Contract.sol\":6678:6774  (bool success, ) = selectedAddress.call{value: levels[gameId].amountToPay * baseAward / 100}(\"\") */\n      pop\n      swap1\n      pop\n        /* \"cobraBot/Contract.sol\":6838:6839  1 */\n      0x01\n        /* \"cobraBot/Contract.sol\":6797:6809  userPayments */\n      0x07\n        /* \"cobraBot/Contract.sol\":6797:6826  userPayments[selectedAddress] */\n      0x00\n        /* \"cobraBot/Contract.sol\":6810:6825  selectedAddress */\n      dup5\n        /* \"cobraBot/Contract.sol\":6797:6826  userPayments[selectedAddress] */\n      0xffffffffffffffffffffffffffffffffffffffff\n      and\n      0xffffffffffffffffffffffffffffffffffffffff\n      and\n      dup2\n      mstore\n      0x20\n      add\n      swap1\n      dup2\n      mstore\n      0x20\n      add\n      0x00\n      keccak256\n        /* \"cobraBot/Contract.sol\":6797:6834  userPayments[selectedAddress][gameId] */\n      0x00\n        /* \"cobraBot/Contract.sol\":6827:6833  gameId */\n      dup9\n        /* \"cobraBot/Contract.sol\":6797:6834  userPayments[selectedAddress][gameId] */\n      0xff\n      and\n      0xff\n      and\n      dup2\n      mstore\n      0x20\n      add\n      swap1\n      dup2\n      mstore\n      0x20\n      add\n      0x00\n      keccak256\n      0x00\n        /* \"cobraBot/Contract.sol\":6797:6839  userPayments[selectedAddress][gameId] += 1 */\n      dup3\n      dup3\n      sload\n      tag_160\n      swap2\n      swap1\n      tag_126\n      jump\t// in\n    tag_160:\n      swap3\n      pop\n      pop\n      dup2\n      swap1\n      sstore\n      pop\n        /* \"cobraBot/Contract.sol\":6921:6991  GamePaymentEvent(levels[gameId].amountToPay, selectedAddress, success) */\n      0x99af5599bf20c9414934ff2eb4264f5ac1a42fe0e5ec331366cf59ed0641c1bd\n        /* \"cobraBot/Contract.sol\":6938:6944  levels */\n      0x02\n        /* \"cobraBot/Contract.sol\":6938:6952  levels[gameId] */\n      0x00\n        /* \"cobraBot/Contract.sol\":6945:6951  gameId */\n      dup9\n        /* \"cobraBot/Contract.sol\":6938:6952  levels[gameId] */\n      0xff\n      and\n      0xff\n      and\n      dup2\n      mstore\n      0x20\n      add\n      swap1\n      dup2\n      mstore\n      0x20\n      add\n      0x00\n      keccak256\n        /* \"cobraBot/Contract.sol\":6938:6964  levels[gameId].amountToPay */\n      0x00\n      add\n      sload\n        /* \"cobraBot/Contract.sol\":6966:6981  selectedAddress */\n      dup4\n        /* \"cobraBot/Contract.sol\":6983:6990  success */\n      dup4\n        /* \"cobraBot/Contract.sol\":6921:6991  GamePaymentEvent(levels[gameId].amountToPay, selectedAddress, success) */\n      mload(0x40)\n      tag_161\n      swap4\n      swap3\n      swap2\n      swap1\n      tag_162\n      jump\t// in\n    tag_161:\n      mload(0x40)\n      dup1\n      swap2\n      sub\n      swap1\n      log1\n        /* \"cobraBot/Contract.sol\":7016:7030  uint256 userId */\n      0x00\n        /* \"cobraBot/Contract.sol\":7033:7038  pools */\n      0x06\n        /* \"cobraBot/Contract.sol\":7033:7046  pools[gameId] */\n      0x00\n        /* \"cobraBot/Contract.sol\":7039:7045  gameId */\n      dup9\n        /* \"cobraBot/Contract.sol\":7033:7046  pools[gameId] */\n      0xff\n      and\n      0xff\n      and\n      dup2\n      mstore\n      0x20\n      add\n      swap1\n      dup2\n      mstore\n      0x20\n      add\n      0x00\n      keccak256\n        /* \"cobraBot/Contract.sol\":7033:7057  pools[gameId][userIndex] */\n      0x00\n        /* \"cobraBot/Contract.sol\":7047:7056  userIndex */\n      dup6\n        /* \"cobraBot/Contract.sol\":7033:7057  pools[gameId][userIndex] */\n      dup2\n      mstore\n      0x20\n      add\n      swap1\n      dup2\n      mstore\n      0x20\n      add\n      0x00\n      keccak256\n        /* \"cobraBot/Contract.sol\":7033:7064  pools[gameId][userIndex].userId */\n      0x00\n      add\n      sload\n        /* \"cobraBot/Contract.sol\":7016:7064  uint256 userId = pools[gameId][userIndex].userId */\n      swap1\n      pop\n        /* \"cobraBot/Contract.sol\":7116:7133  uint256 invitedId */\n      0x00\n        /* \"cobraBot/Contract.sol\":7136:7141  pools */\n      0x06\n        /* \"cobraBot/Contract.sol\":7136:7149  pools[gameId] */\n      0x00\n        /* \"cobraBot/Contract.sol\":7142:7148  gameId */\n      dup10\n        /* \"cobraBot/Contract.sol\":7136:7149  pools[gameId] */\n      0xff\n      and\n      0xff\n      and\n      dup2\n      mstore\n      0x20\n      add\n      swap1\n      dup2\n      mstore\n      0x20\n      add\n      0x00\n      keccak256\n        /* \"cobraBot/Contract.sol\":7136:7160  pools[gameId][userIndex] */\n      0x00\n        /* \"cobraBot/Contract.sol\":7150:7159  userIndex */\n      dup7\n        /* \"cobraBot/Contract.sol\":7136:7160  pools[gameId][userIndex] */\n      dup2\n      mstore\n      0x20\n      add\n      swap1\n      dup2\n      mstore\n      0x20\n      add\n      0x00\n      keccak256\n        /* \"cobraBot/Contract.sol\":7136:7170  pools[gameId][userIndex].invitedId */\n      0x02\n      add\n      sload\n        /* \"cobraBot/Contract.sol\":7116:7170  uint256 invitedId = pools[gameId][userIndex].invitedId */\n      swap1\n      pop\n        /* \"cobraBot/Contract.sol\":7230:7243  uint refValue */\n      0x00\n        /* \"cobraBot/Contract.sol\":7295:7298  100 */\n      0x64\n        /* \"cobraBot/Contract.sol\":338:340  10 */\n      0x0a\n        /* \"cobraBot/Contract.sol\":7246:7252  levels */\n      0x02\n        /* \"cobraBot/Contract.sol\":7246:7260  levels[gameId] */\n      0x00\n        /* \"cobraBot/Contract.sol\":7253:7259  gameId */\n      dup13\n        /* \"cobraBot/Contract.sol\":7246:7260  levels[gameId] */\n      0xff\n      and\n      0xff\n      and\n      dup2\n      mstore\n      0x20\n      add\n      swap1\n      dup2\n      mstore\n      0x20\n      add\n      0x00\n      keccak256\n        /* \"cobraBot/Contract.sol\":7246:7272  levels[gameId].amountToPay */\n      0x00\n      add\n      sload\n        /* \"cobraBot/Contract.sol\":7246:7292  levels[gameId].amountToPay * firstLevelReferal */\n      tag_163\n      swap2\n      swap1\n      tag_152\n      jump\t// in\n    tag_163:\n        /* \"cobraBot/Contract.sol\":7246:7298  levels[gameId].amountToPay * firstLevelReferal / 100 */\n      tag_164\n      swap2\n      swap1\n      tag_154\n      jump\t// in\n    tag_164:\n        /* \"cobraBot/Contract.sol\":7230:7298  uint refValue = levels[gameId].amountToPay * firstLevelReferal / 100 */\n      swap1\n      pop\n        /* \"cobraBot/Contract.sol\":7360:7367  usersId */\n      0x03\n        /* \"cobraBot/Contract.sol\":7360:7378  usersId[invitedId] */\n      0x00\n        /* \"cobraBot/Contract.sol\":7368:7377  invitedId */\n      dup4\n        /* \"cobraBot/Contract.sol\":7360:7378  usersId[invitedId] */\n      dup2\n      mstore\n      0x20\n      add\n      swap1\n      dup2\n      mstore\n      0x20\n      add\n      0x00\n      keccak256\n      0x00\n      swap1\n      sload\n      swap1\n      0x0100\n      exp\n      swap1\n      div\n      0xffffffffffffffffffffffffffffffffffffffff\n      and\n        /* \"cobraBot/Contract.sol\":7360:7383  usersId[invitedId].call */\n      0xffffffffffffffffffffffffffffffffffffffff\n      and\n        /* \"cobraBot/Contract.sol\":7391:7399  refValue */\n      dup2\n        /* \"cobraBot/Contract.sol\":7360:7404  usersId[invitedId].call{value: refValue}(\"\") */\n      mload(0x40)\n      tag_165\n      swap1\n      tag_156\n      jump\t// in\n    tag_165:\n      0x00\n      mload(0x40)\n      dup1\n      dup4\n      sub\n      dup2\n      dup6\n      dup8\n      gas\n      call\n      swap3\n      pop\n      pop\n      pop\n      returndatasize\n      dup1\n      0x00\n      dup2\n      eq\n      tag_168\n      jumpi\n      mload(0x40)\n      swap2\n      pop\n      and(add(returndatasize, 0x3f), not(0x1f))\n      dup3\n      add\n      0x40\n      mstore\n      returndatasize\n      dup3\n      mstore\n      returndatasize\n      0x00\n      0x20\n      dup5\n      add\n      returndatacopy\n      jump(tag_167)\n    tag_168:\n      0x60\n      swap2\n      pop\n    tag_167:\n      pop\n        /* \"cobraBot/Contract.sol\":7346:7404  (success, ) = usersId[invitedId].call{value: refValue}(\"\") */\n      pop\n      dup1\n      swap5\n      pop\n      pop\n        /* \"cobraBot/Contract.sol\":7433:7440  success */\n      dup4\n        /* \"cobraBot/Contract.sol\":7429:7523  if (success) emit ReferalPaymentEvent(levels[gameId].amountToPay, userId, invitedId, refValue) */\n      iszero\n      tag_169\n      jumpi\n        /* \"cobraBot/Contract.sol\":7447:7523  ReferalPaymentEvent(levels[gameId].amountToPay, userId, invitedId, refValue) */\n      0x394d81fc6d726f376ac7e03cfb1bf07f04a993ec0a3fe7f4782e2ef8e5416145\n        /* \"cobraBot/Contract.sol\":7467:7473  levels */\n      0x02\n        /* \"cobraBot/Contract.sol\":7467:7481  levels[gameId] */\n      0x00\n        /* \"cobraBot/Contract.sol\":7474:7480  gameId */\n      dup12\n        /* \"cobraBot/Contract.sol\":7467:7481  levels[gameId] */\n      0xff\n      and\n      0xff\n      and\n      dup2\n      mstore\n      0x20\n      add\n      swap1\n      dup2\n      mstore\n      0x20\n      add\n      0x00\n      keccak256\n        /* \"cobraBot/Contract.sol\":7467:7493  levels[gameId].amountToPay */\n      0x00\n      add\n      sload\n        /* \"cobraBot/Contract.sol\":7495:7501  userId */\n      dup5\n        /* \"cobraBot/Contract.sol\":7503:7512  invitedId */\n      dup5\n        /* \"cobraBot/Contract.sol\":7514:7522  refValue */\n      dup5\n        /* \"cobraBot/Contract.sol\":7447:7523  ReferalPaymentEvent(levels[gameId].amountToPay, userId, invitedId, refValue) */\n      mload(0x40)\n      tag_170\n      swap5\n      swap4\n      swap3\n      swap2\n      swap1\n      tag_171\n      jump\t// in\n    tag_170:\n      mload(0x40)\n      dup1\n      swap2\n      sub\n      swap1\n      log1\n        /* \"cobraBot/Contract.sol\":7429:7523  if (success) emit ReferalPaymentEvent(levels[gameId].amountToPay, userId, invitedId, refValue) */\n    tag_169:\n        /* \"cobraBot/Contract.sol\":7609:7612  100 */\n      0x64\n        /* \"cobraBot/Contract.sol\":415:416  6 */\n      0x06\n        /* \"cobraBot/Contract.sol\":7559:7565  levels */\n      0x02\n        /* \"cobraBot/Contract.sol\":7559:7573  levels[gameId] */\n      0x00\n        /* \"cobraBot/Contract.sol\":7566:7572  gameId */\n      dup13\n        /* \"cobraBot/Contract.sol\":7559:7573  levels[gameId] */\n      0xff\n      and\n      0xff\n      and\n      dup2\n      mstore\n      0x20\n      add\n      swap1\n      dup2\n      mstore\n      0x20\n      add\n      0x00\n      keccak256\n        /* \"cobraBot/Contract.sol\":7559:7585  levels[gameId].amountToPay */\n      0x00\n      add\n      sload\n        /* \"cobraBot/Contract.sol\":7559:7606  levels[gameId].amountToPay * secondLevelReferal */\n      tag_172\n      swap2\n      swap1\n      tag_152\n      jump\t// in\n    tag_172:\n        /* \"cobraBot/Contract.sol\":7559:7612  levels[gameId].amountToPay * secondLevelReferal / 100 */\n      tag_173\n      swap2\n      swap1\n      tag_154\n      jump\t// in\n    tag_173:\n        /* \"cobraBot/Contract.sol\":7548:7612  refValue = levels[gameId].amountToPay * secondLevelReferal / 100 */\n      swap1\n      pop\n        /* \"cobraBot/Contract.sol\":7673:7688  registeredUsers */\n      0x04\n        /* \"cobraBot/Contract.sol\":7673:7708  registeredUsers[usersId[invitedId]] */\n      0x00\n        /* \"cobraBot/Contract.sol\":7689:7696  usersId */\n      0x03\n        /* \"cobraBot/Contract.sol\":7689:7707  usersId[invitedId] */\n      0x00\n        /* \"cobraBot/Contract.sol\":7697:7706  invitedId */\n      dup6\n        /* \"cobraBot/Contract.sol\":7689:7707  usersId[invitedId] */\n      dup2\n      mstore\n      0x20\n      add\n      swap1\n      dup2\n      mstore\n      0x20\n      add\n      0x00\n      keccak256\n      0x00\n      swap1\n      sload\n      swap1\n      0x0100\n      exp\n      swap1\n      div\n      0xffffffffffffffffffffffffffffffffffffffff\n      and\n        /* \"cobraBot/Contract.sol\":7673:7708  registeredUsers[usersId[invitedId]] */\n      0xffffffffffffffffffffffffffffffffffffffff\n      and\n      0xffffffffffffffffffffffffffffffffffffffff\n      and\n      dup2\n      mstore\n      0x20\n      add\n      swap1\n      dup2\n      mstore\n      0x20\n      add\n      0x00\n      keccak256\n        /* \"cobraBot/Contract.sol\":7673:7720  registeredUsers[usersId[invitedId]].userAddress */\n      0x01\n      add\n      0x00\n      swap1\n      sload\n      swap1\n      0x0100\n      exp\n      swap1\n      div\n      0xffffffffffffffffffffffffffffffffffffffff\n      and\n        /* \"cobraBot/Contract.sol\":7673:7725  registeredUsers[usersId[invitedId]].userAddress.call */\n      0xffffffffffffffffffffffffffffffffffffffff\n      and\n        /* \"cobraBot/Contract.sol\":7733:7741  refValue */\n      dup2\n        /* \"cobraBot/Contract.sol\":7673:7746  registeredUsers[usersId[invitedId]].userAddress.call{value: refValue}(\"\") */\n      mload(0x40)\n      tag_174\n      swap1\n      tag_156\n      jump\t// in\n    tag_174:\n      0x00\n      mload(0x40)\n      dup1\n      dup4\n      sub\n      dup2\n      dup6\n      dup8\n      gas\n      call\n      swap3\n      pop\n      pop\n      pop\n      returndatasize\n      dup1\n      0x00\n      dup2\n      eq\n      tag_177\n      jumpi\n      mload(0x40)\n      swap2\n      pop\n      and(add(returndatasize, 0x3f), not(0x1f))\n      dup3\n      add\n      0x40\n      mstore\n      returndatasize\n      dup3\n      mstore\n      returndatasize\n      0x00\n      0x20\n      dup5\n      add\n      returndatacopy\n      jump(tag_176)\n    tag_177:\n      0x60\n      swap2\n      pop\n    tag_176:\n      pop\n        /* \"cobraBot/Contract.sol\":7659:7746  (success, ) = registeredUsers[usersId[invitedId]].userAddress.call{value: refValue}(\"\") */\n      pop\n      dup1\n      swap5\n      pop\n      pop\n        /* \"cobraBot/Contract.sol\":7801:7808  success */\n      dup4\n        /* \"cobraBot/Contract.sol\":7797:7927  if (success) emit ReferalPaymentEvent(levels[gameId].amountToPay, invitedId, registeredUsers[usersId[invitedId]].userId, refValue) */\n      iszero\n      tag_178\n      jumpi\n        /* \"cobraBot/Contract.sol\":7815:7927  ReferalPaymentEvent(levels[gameId].amountToPay, invitedId, registeredUsers[usersId[invitedId]].userId, refValue) */\n      0x394d81fc6d726f376ac7e03cfb1bf07f04a993ec0a3fe7f4782e2ef8e5416145\n        /* \"cobraBot/Contract.sol\":7835:7841  levels */\n      0x02\n        /* \"cobraBot/Contract.sol\":7835:7849  levels[gameId] */\n      0x00\n        /* \"cobraBot/Contract.sol\":7842:7848  gameId */\n      dup12\n        /* \"cobraBot/Contract.sol\":7835:7849  levels[gameId] */\n      0xff\n      and\n      0xff\n      and\n      dup2\n      mstore\n      0x20\n      add\n      swap1\n      dup2\n      mstore\n      0x20\n      add\n      0x00\n      keccak256\n        /* \"cobraBot/Contract.sol\":7835:7861  levels[gameId].amountToPay */\n      0x00\n      add\n      sload\n        /* \"cobraBot/Contract.sol\":7863:7872  invitedId */\n      dup4\n        /* \"cobraBot/Contract.sol\":7874:7889  registeredUsers */\n      0x04\n        /* \"cobraBot/Contract.sol\":7874:7909  registeredUsers[usersId[invitedId]] */\n      0x00\n        /* \"cobraBot/Contract.sol\":7890:7897  usersId */\n      0x03\n        /* \"cobraBot/Contract.sol\":7890:7908  usersId[invitedId] */\n      0x00\n        /* \"cobraBot/Contract.sol\":7898:7907  invitedId */\n      dup9\n        /* \"cobraBot/Contract.sol\":7890:7908  usersId[invitedId] */\n      dup2\n      mstore\n      0x20\n      add\n      swap1\n      dup2\n      mstore\n      0x20\n      add\n      0x00\n      keccak256\n      0x00\n      swap1\n      sload\n      swap1\n      0x0100\n      exp\n      swap1\n      div\n      0xffffffffffffffffffffffffffffffffffffffff\n      and\n        /* \"cobraBot/Contract.sol\":7874:7909  registeredUsers[usersId[invitedId]] */\n      0xffffffffffffffffffffffffffffffffffffffff\n      and\n      0xffffffffffffffffffffffffffffffffffffffff\n      and\n      dup2\n      mstore\n      0x20\n      add\n      swap1\n      dup2\n      mstore\n      0x20\n      add\n      0x00\n      keccak256\n        /* \"cobraBot/Contract.sol\":7874:7916  registeredUsers[usersId[invitedId]].userId */\n      0x00\n      add\n      sload\n        /* \"cobraBot/Contract.sol\":7918:7926  refValue */\n      dup5\n        /* \"cobraBot/Contract.sol\":7815:7927  ReferalPaymentEvent(levels[gameId].amountToPay, invitedId, registeredUsers[usersId[invitedId]].userId, refValue) */\n      mload(0x40)\n      tag_179\n      swap5\n      swap4\n      swap3\n      swap2\n      swap1\n      tag_171\n      jump\t// in\n    tag_179:\n      mload(0x40)\n      dup1\n      swap2\n      sub\n      swap1\n      log1\n        /* \"cobraBot/Contract.sol\":7797:7927  if (success) emit ReferalPaymentEvent(levels[gameId].amountToPay, invitedId, registeredUsers[usersId[invitedId]].userId, refValue) */\n    tag_178:\n        /* \"cobraBot/Contract.sol\":8012:8015  100 */\n      0x64\n        /* \"cobraBot/Contract.sol\":490:491  4 */\n      0x04\n        /* \"cobraBot/Contract.sol\":7963:7969  levels */\n      0x02\n        /* \"cobraBot/Contract.sol\":7963:7977  levels[gameId] */\n      0x00\n        /* \"cobraBot/Contract.sol\":7970:7976  gameId */\n      dup13\n        /* \"cobraBot/Contract.sol\":7963:7977  levels[gameId] */\n      0xff\n      and\n      0xff\n      and\n      dup2\n      mstore\n      0x20\n      add\n      swap1\n      dup2\n      mstore\n      0x20\n      add\n      0x00\n      keccak256\n        /* \"cobraBot/Contract.sol\":7963:7989  levels[gameId].amountToPay */\n      0x00\n      add\n      sload\n        /* \"cobraBot/Contract.sol\":7963:8009  levels[gameId].amountToPay * thirdLevelReferal */\n      tag_180\n      swap2\n      swap1\n      tag_152\n      jump\t// in\n    tag_180:\n        /* \"cobraBot/Contract.sol\":7963:8015  levels[gameId].amountToPay * thirdLevelReferal / 100 */\n      tag_181\n      swap2\n      swap1\n      tag_154\n      jump\t// in\n    tag_181:\n        /* \"cobraBot/Contract.sol\":7952:8015  refValue = levels[gameId].amountToPay * thirdLevelReferal / 100 */\n      swap1\n      pop\n        /* \"cobraBot/Contract.sol\":8075:8090  registeredUsers */\n      0x04\n        /* \"cobraBot/Contract.sol\":8075:8143  registeredUsers[usersId[registeredUsers[usersId[invitedId]].userId]] */\n      0x00\n        /* \"cobraBot/Contract.sol\":8091:8098  usersId */\n      0x03\n        /* \"cobraBot/Contract.sol\":8091:8142  usersId[registeredUsers[usersId[invitedId]].userId] */\n      0x00\n        /* \"cobraBot/Contract.sol\":8099:8114  registeredUsers */\n      0x04\n        /* \"cobraBot/Contract.sol\":8099:8134  registeredUsers[usersId[invitedId]] */\n      0x00\n        /* \"cobraBot/Contract.sol\":8115:8122  usersId */\n      0x03\n        /* \"cobraBot/Contract.sol\":8115:8133  usersId[invitedId] */\n      0x00\n        /* \"cobraBot/Contract.sol\":8123:8132  invitedId */\n      dup10\n        /* \"cobraBot/Contract.sol\":8115:8133  usersId[invitedId] */\n      dup2\n      mstore\n      0x20\n      add\n      swap1\n      dup2\n      mstore\n      0x20\n      add\n      0x00\n      keccak256\n      0x00\n      swap1\n      sload\n      swap1\n      0x0100\n      exp\n      swap1\n      div\n      0xffffffffffffffffffffffffffffffffffffffff\n      and\n        /* \"cobraBot/Contract.sol\":8099:8134  registeredUsers[usersId[invitedId]] */\n      0xffffffffffffffffffffffffffffffffffffffff\n      and\n      0xffffffffffffffffffffffffffffffffffffffff\n      and\n      dup2\n      mstore\n      0x20\n      add\n      swap1\n      dup2\n      mstore\n      0x20\n      add\n      0x00\n      keccak256\n        /* \"cobraBot/Contract.sol\":8099:8141  registeredUsers[usersId[invitedId]].userId */\n      0x00\n      add\n      sload\n        /* \"cobraBot/Contract.sol\":8091:8142  usersId[registeredUsers[usersId[invitedId]].userId] */\n      dup2\n      mstore\n      0x20\n      add\n      swap1\n      dup2\n      mstore\n      0x20\n      add\n      0x00\n      keccak256\n      0x00\n      swap1\n      sload\n      swap1\n      0x0100\n      exp\n      swap1\n      div\n      0xffffffffffffffffffffffffffffffffffffffff\n      and\n        /* \"cobraBot/Contract.sol\":8075:8143  registeredUsers[usersId[registeredUsers[usersId[invitedId]].userId]] */\n      0xffffffffffffffffffffffffffffffffffffffff\n      and\n      0xffffffffffffffffffffffffffffffffffffffff\n      and\n      dup2\n      mstore\n      0x20\n      add\n      swap1\n      dup2\n      mstore\n      0x20\n      add\n      0x00\n      keccak256\n        /* \"cobraBot/Contract.sol\":8075:8155  registeredUsers[usersId[registeredUsers[usersId[invitedId]].userId]].userAddress */\n      0x01\n      add\n      0x00\n      swap1\n      sload\n      swap1\n      0x0100\n      exp\n      swap1\n      div\n      0xffffffffffffffffffffffffffffffffffffffff\n      and\n        /* \"cobraBot/Contract.sol\":8075:8160  registeredUsers[usersId[registeredUsers[usersId[invitedId]].userId]].userAddress.call */\n      0xffffffffffffffffffffffffffffffffffffffff\n      and\n        /* \"cobraBot/Contract.sol\":8168:8176  refValue */\n      dup2\n        /* \"cobraBot/Contract.sol\":8075:8181  registeredUsers[usersId[registeredUsers[usersId[invitedId]].userId]].userAddress.call{value: refValue}(\"\") */\n      mload(0x40)\n      tag_182\n      swap1\n      tag_156\n      jump\t// in\n    tag_182:\n      0x00\n      mload(0x40)\n      dup1\n      dup4\n      sub\n      dup2\n      dup6\n      dup8\n      gas\n      call\n      swap3\n      pop\n      pop\n      pop\n      returndatasize\n      dup1\n      0x00\n      dup2\n      eq\n      tag_185\n      jumpi\n      mload(0x40)\n      swap2\n      pop\n      and(add(returndatasize, 0x3f), not(0x1f))\n      dup3\n      add\n      0x40\n      mstore\n      returndatasize\n      dup3\n      mstore\n      returndatasize\n      0x00\n      0x20\n      dup5\n      add\n      returndatacopy\n      jump(tag_184)\n    tag_185:\n      0x60\n      swap2\n      pop\n    tag_184:\n      pop\n        /* \"cobraBot/Contract.sol\":8061:8181  (success, ) = registeredUsers[usersId[registeredUsers[usersId[invitedId]].userId]].userAddress.call{value: refValue}(\"\") */\n      pop\n      dup1\n      swap5\n      pop\n      pop\n        /* \"cobraBot/Contract.sol\":8210:8217  success */\n      dup4\n        /* \"cobraBot/Contract.sol\":8206:8402  if (success) emit ReferalPaymentEvent(levels[gameId].amountToPay, registeredUsers[usersId[invitedId]].userId, registeredUsers[usersId[registeredUsers[usersId[invitedId]].userId]].userId, refValue) */\n      iszero\n      tag_186\n      jumpi\n        /* \"cobraBot/Contract.sol\":8224:8402  ReferalPaymentEvent(levels[gameId].amountToPay, registeredUsers[usersId[invitedId]].userId, registeredUsers[usersId[registeredUsers[usersId[invitedId]].userId]].userId, refValue) */\n      0x394d81fc6d726f376ac7e03cfb1bf07f04a993ec0a3fe7f4782e2ef8e5416145\n        /* \"cobraBot/Contract.sol\":8244:8250  levels */\n      0x02\n        /* \"cobraBot/Contract.sol\":8244:8258  levels[gameId] */\n      0x00\n        /* \"cobraBot/Contract.sol\":8251:8257  gameId */\n      dup12\n        /* \"cobraBot/Contract.sol\":8244:8258  levels[gameId] */\n      0xff\n      and\n      0xff\n      and\n      dup2\n      mstore\n      0x20\n      add\n      swap1\n      dup2\n      mstore\n      0x20\n      add\n      0x00\n      keccak256\n        /* \"cobraBot/Contract.sol\":8244:8270  levels[gameId].amountToPay */\n      0x00\n      add\n      sload\n        /* \"cobraBot/Contract.sol\":8272:8287  registeredUsers */\n      0x04\n        /* \"cobraBot/Contract.sol\":8272:8307  registeredUsers[usersId[invitedId]] */\n      0x00\n        /* \"cobraBot/Contract.sol\":8288:8295  usersId */\n      0x03\n        /* \"cobraBot/Contract.sol\":8288:8306  usersId[invitedId] */\n      0x00\n        /* \"cobraBot/Contract.sol\":8296:8305  invitedId */\n      dup8\n        /* \"cobraBot/Contract.sol\":8288:8306  usersId[invitedId] */\n      dup2\n      mstore\n      0x20\n      add\n      swap1\n      dup2\n      mstore\n      0x20\n      add\n      0x00\n      keccak256\n      0x00\n      swap1\n      sload\n      swap1\n      0x0100\n      exp\n      swap1\n      div\n      0xffffffffffffffffffffffffffffffffffffffff\n      and\n        /* \"cobraBot/Contract.sol\":8272:8307  registeredUsers[usersId[invitedId]] */\n      0xffffffffffffffffffffffffffffffffffffffff\n      and\n      0xffffffffffffffffffffffffffffffffffffffff\n      and\n      dup2\n      mstore\n      0x20\n      add\n      swap1\n      dup2\n      mstore\n      0x20\n      add\n      0x00\n      keccak256\n        /* \"cobraBot/Contract.sol\":8272:8314  registeredUsers[usersId[invitedId]].userId */\n      0x00\n      add\n      sload\n        /* \"cobraBot/Contract.sol\":8316:8331  registeredUsers */\n      0x04\n        /* \"cobraBot/Contract.sol\":8316:8384  registeredUsers[usersId[registeredUsers[usersId[invitedId]].userId]] */\n      0x00\n        /* \"cobraBot/Contract.sol\":8332:8339  usersId */\n      0x03\n        /* \"cobraBot/Contract.sol\":8332:8383  usersId[registeredUsers[usersId[invitedId]].userId] */\n      0x00\n        /* \"cobraBot/Contract.sol\":8340:8355  registeredUsers */\n      0x04\n        /* \"cobraBot/Contract.sol\":8340:8375  registeredUsers[usersId[invitedId]] */\n      0x00\n        /* \"cobraBot/Contract.sol\":8356:8363  usersId */\n      0x03\n        /* \"cobraBot/Contract.sol\":8356:8374  usersId[invitedId] */\n      0x00\n        /* \"cobraBot/Contract.sol\":8364:8373  invitedId */\n      dup13\n        /* \"cobraBot/Contract.sol\":8356:8374  usersId[invitedId] */\n      dup2\n      mstore\n      0x20\n      add\n      swap1\n      dup2\n      mstore\n      0x20\n      add\n      0x00\n      keccak256\n      0x00\n      swap1\n      sload\n      swap1\n      0x0100\n      exp\n      swap1\n      div\n      0xffffffffffffffffffffffffffffffffffffffff\n      and\n        /* \"cobraBot/Contract.sol\":8340:8375  registeredUsers[usersId[invitedId]] */\n      0xffffffffffffffffffffffffffffffffffffffff\n      and\n      0xffffffffffffffffffffffffffffffffffffffff\n      and\n      dup2\n      mstore\n      0x20\n      add\n      swap1\n      dup2\n      mstore\n      0x20\n      add\n      0x00\n      keccak256\n        /* \"cobraBot/Contract.sol\":8340:8382  registeredUsers[usersId[invitedId]].userId */\n      0x00\n      add\n      sload\n        /* \"cobraBot/Contract.sol\":8332:8383  usersId[registeredUsers[usersId[invitedId]].userId] */\n      dup2\n      mstore\n      0x20\n      add\n      swap1\n      dup2\n      mstore\n      0x20\n      add\n      0x00\n      keccak256\n      0x00\n      swap1\n      sload\n      swap1\n      0x0100\n      exp\n      swap1\n      div\n      0xffffffffffffffffffffffffffffffffffffffff\n      and\n        /* \"cobraBot/Contract.sol\":8316:8384  registeredUsers[usersId[registeredUsers[usersId[invitedId]].userId]] */\n      0xffffffffffffffffffffffffffffffffffffffff\n      and\n      0xffffffffffffffffffffffffffffffffffffffff\n      and\n      dup2\n      mstore\n      0x20\n      add\n      swap1\n      dup2\n      mstore\n      0x20\n      add\n      0x00\n      keccak256\n        /* \"cobraBot/Contract.sol\":8316:8391  registeredUsers[usersId[registeredUsers[usersId[invitedId]].userId]].userId */\n      0x00\n      add\n      sload\n        /* \"cobraBot/Contract.sol\":8393:8401  refValue */\n      dup5\n        /* \"cobraBot/Contract.sol\":8224:8402  ReferalPaymentEvent(levels[gameId].amountToPay, registeredUsers[usersId[invitedId]].userId, registeredUsers[usersId[registeredUsers[usersId[invitedId]].userId]].userId, refValue) */\n      mload(0x40)\n      tag_187\n      swap5\n      swap4\n      swap3\n      swap2\n      swap1\n      tag_171\n      jump\t// in\n    tag_187:\n      mload(0x40)\n      dup1\n      swap2\n      sub\n      swap1\n      log1\n        /* \"cobraBot/Contract.sol\":8206:8402  if (success) emit ReferalPaymentEvent(levels[gameId].amountToPay, registeredUsers[usersId[invitedId]].userId, registeredUsers[usersId[registeredUsers[usersId[invitedId]].userId]].userId, refValue) */\n    tag_186:\n        /* \"cobraBot/Contract.sol\":8602:8605  100 */\n      0x64\n        /* \"cobraBot/Contract.sol\":559:560  6 */\n      0x06\n        /* \"cobraBot/Contract.sol\":8558:8564  levels */\n      0x02\n        /* \"cobraBot/Contract.sol\":8558:8572  levels[gameId] */\n      0x00\n        /* \"cobraBot/Contract.sol\":8565:8571  gameId */\n      dup13\n        /* \"cobraBot/Contract.sol\":8558:8572  levels[gameId] */\n      0xff\n      and\n      0xff\n      and\n      dup2\n      mstore\n      0x20\n      add\n      swap1\n      dup2\n      mstore\n      0x20\n      add\n      0x00\n      keccak256\n        /* \"cobraBot/Contract.sol\":8558:8584  levels[gameId].amountToPay */\n      0x00\n      add\n      sload\n        /* \"cobraBot/Contract.sol\":8558:8599  levels[gameId].amountToPay * ownerReferal */\n      tag_188\n      swap2\n      swap1\n      tag_152\n      jump\t// in\n    tag_188:\n        /* \"cobraBot/Contract.sol\":8558:8605  levels[gameId].amountToPay * ownerReferal / 100 */\n      tag_189\n      swap2\n      swap1\n      tag_154\n      jump\t// in\n    tag_189:\n        /* \"cobraBot/Contract.sol\":8547:8605  refValue = levels[gameId].amountToPay * ownerReferal / 100 */\n      swap1\n      pop\n        /* \"cobraBot/Contract.sol\":8659:8674  registeredUsers */\n      0x04\n        /* \"cobraBot/Contract.sol\":8659:8689  registeredUsers[contractOwner] */\n      0x00\n        /* \"cobraBot/Contract.sol\":8675:8688  contractOwner */\n      0x01\n      dup1\n      sload\n      swap1\n      0x0100\n      exp\n      swap1\n      div\n      0xffffffffffffffffffffffffffffffffffffffff\n      and\n        /* \"cobraBot/Contract.sol\":8659:8689  registeredUsers[contractOwner] */\n      0xffffffffffffffffffffffffffffffffffffffff\n      and\n      0xffffffffffffffffffffffffffffffffffffffff\n      and\n      dup2\n      mstore\n      0x20\n      add\n      swap1\n      dup2\n      mstore\n      0x20\n      add\n      0x00\n      keccak256\n        /* \"cobraBot/Contract.sol\":8659:8701  registeredUsers[contractOwner].userAddress */\n      0x01\n      add\n      0x00\n      swap1\n      sload\n      swap1\n      0x0100\n      exp\n      swap1\n      div\n      0xffffffffffffffffffffffffffffffffffffffff\n      and\n        /* \"cobraBot/Contract.sol\":8659:8706  registeredUsers[contractOwner].userAddress.call */\n      0xffffffffffffffffffffffffffffffffffffffff\n      and\n        /* \"cobraBot/Contract.sol\":8714:8722  refValue */\n      dup2\n        /* \"cobraBot/Contract.sol\":8659:8727  registeredUsers[contractOwner].userAddress.call{value: refValue}(\"\") */\n      mload(0x40)\n      tag_190\n      swap1\n      tag_156\n      jump\t// in\n    tag_190:\n      0x00\n      mload(0x40)\n      dup1\n      dup4\n      sub\n      dup2\n      dup6\n      dup8\n      gas\n      call\n      swap3\n      pop\n      pop\n      pop\n      returndatasize\n      dup1\n      0x00\n      dup2\n      eq\n      tag_193\n      jumpi\n      mload(0x40)\n      swap2\n      pop\n      and(add(returndatasize, 0x3f), not(0x1f))\n      dup3\n      add\n      0x40\n      mstore\n      returndatasize\n      dup3\n      mstore\n      returndatasize\n      0x00\n      0x20\n      dup5\n      add\n      returndatacopy\n      jump(tag_192)\n    tag_193:\n      0x60\n      swap2\n      pop\n    tag_192:\n      pop\n        /* \"cobraBot/Contract.sol\":8645:8727  (success, ) = registeredUsers[contractOwner].userAddress.call{value: refValue}(\"\") */\n      pop\n      dup1\n      swap5\n      pop\n      pop\n        /* \"cobraBot/Contract.sol\":8756:8763  success */\n      dup4\n        /* \"cobraBot/Contract.sol\":8752:8874  if (success) emit ReferalPaymentEvent(levels[gameId].amountToPay, userId, registeredUsers[contractOwner].userId, refValue) */\n      iszero\n      tag_194\n      jumpi\n        /* \"cobraBot/Contract.sol\":8770:8874  ReferalPaymentEvent(levels[gameId].amountToPay, userId, registeredUsers[contractOwner].userId, refValue) */\n      0x394d81fc6d726f376ac7e03cfb1bf07f04a993ec0a3fe7f4782e2ef8e5416145\n        /* \"cobraBot/Contract.sol\":8790:8796  levels */\n      0x02\n        /* \"cobraBot/Contract.sol\":8790:8804  levels[gameId] */\n      0x00\n        /* \"cobraBot/Contract.sol\":8797:8803  gameId */\n      dup12\n        /* \"cobraBot/Contract.sol\":8790:8804  levels[gameId] */\n      0xff\n      and\n      0xff\n      and\n      dup2\n      mstore\n      0x20\n      add\n      swap1\n      dup2\n      mstore\n      0x20\n      add\n      0x00\n      keccak256\n        /* \"cobraBot/Contract.sol\":8790:8816  levels[gameId].amountToPay */\n      0x00\n      add\n      sload\n        /* \"cobraBot/Contract.sol\":8818:8824  userId */\n      dup5\n        /* \"cobraBot/Contract.sol\":8826:8841  registeredUsers */\n      0x04\n        /* \"cobraBot/Contract.sol\":8826:8856  registeredUsers[contractOwner] */\n      0x00\n        /* \"cobraBot/Contract.sol\":8842:8855  contractOwner */\n      0x01\n      dup1\n      sload\n      swap1\n      0x0100\n      exp\n      swap1\n      div\n      0xffffffffffffffffffffffffffffffffffffffff\n      and\n        /* \"cobraBot/Contract.sol\":8826:8856  registeredUsers[contractOwner] */\n      0xffffffffffffffffffffffffffffffffffffffff\n      and\n      0xffffffffffffffffffffffffffffffffffffffff\n      and\n      dup2\n      mstore\n      0x20\n      add\n      swap1\n      dup2\n      mstore\n      0x20\n      add\n      0x00\n      keccak256\n        /* \"cobraBot/Contract.sol\":8826:8863  registeredUsers[contractOwner].userId */\n      0x00\n      add\n      sload\n        /* \"cobraBot/Contract.sol\":8865:8873  refValue */\n      dup5\n        /* \"cobraBot/Contract.sol\":8770:8874  ReferalPaymentEvent(levels[gameId].amountToPay, userId, registeredUsers[contractOwner].userId, refValue) */\n      mload(0x40)\n      tag_195\n      swap5\n      swap4\n      swap3\n      swap2\n      swap1\n      tag_171\n      jump\t// in\n    tag_195:\n      mload(0x40)\n      dup1\n      swap2\n      sub\n      swap1\n      log1\n        /* \"cobraBot/Contract.sol\":8752:8874  if (success) emit ReferalPaymentEvent(levels[gameId].amountToPay, userId, registeredUsers[contractOwner].userId, refValue) */\n    tag_194:\n        /* \"cobraBot/Contract.sol\":8911:8941  culcNextWinnerIndex(userIndex) */\n      tag_196\n        /* \"cobraBot/Contract.sol\":8931:8940  userIndex */\n      dup7\n        /* \"cobraBot/Contract.sol\":8911:8930  culcNextWinnerIndex */\n      tag_145\n        /* \"cobraBot/Contract.sol\":8911:8941  culcNextWinnerIndex(userIndex) */\n      jump\t// in\n    tag_196:\n        /* \"cobraBot/Contract.sol\":8899:8941  userIndex = culcNextWinnerIndex(userIndex) */\n      swap6\n      pop\n        /* \"cobraBot/Contract.sol\":6479:8961  {\r... */\n      pop\n      pop\n      pop\n      pop\n        /* \"cobraBot/Contract.sol\":6391:8961  if (userPayments[selectedAddress][gameId] <= 1 || userGames[selectedAddress][gameId+1]) {\r... */\n    tag_150:\n        /* \"cobraBot/Contract.sol\":6149:8976  {\r... */\n      pop\n        /* \"cobraBot/Contract.sol\":6126:8976  while (userIndex != 0) {\r... */\n      jump(tag_146)\n    tag_147:\n        /* \"cobraBot/Contract.sol\":5905:8987  {\r... */\n      pop\n        /* \"cobraBot/Contract.sol\":5870:8987  if (currentUserIndex[gameId] >= 3) {\r... */\n    tag_143:\n        /* \"cobraBot/Contract.sol\":9096:9097  1 */\n      0x01\n        /* \"cobraBot/Contract.sol\":9068:9084  currentUserIndex */\n      0x05\n        /* \"cobraBot/Contract.sol\":9068:9092  currentUserIndex[gameId] */\n      0x00\n        /* \"cobraBot/Contract.sol\":9085:9091  gameId */\n      dup6\n        /* \"cobraBot/Contract.sol\":9068:9092  currentUserIndex[gameId] */\n      0xff\n      and\n      0xff\n      and\n      dup2\n      mstore\n      0x20\n      add\n      swap1\n      dup2\n      mstore\n      0x20\n      add\n      0x00\n      keccak256\n      0x00\n        /* \"cobraBot/Contract.sol\":9068:9097  currentUserIndex[gameId] += 1 */\n      dup3\n      dup3\n      sload\n      tag_197\n      swap2\n      swap1\n      tag_126\n      jump\t// in\n    tag_197:\n      swap3\n      pop\n      pop\n      dup2\n      swap1\n      sstore\n      pop\n        /* \"cobraBot/Contract.sol\":5347:9105  function _joinToGame(uint8 gameId, address sender, uint256 value) internal {\r... */\n      pop\n      pop\n      pop\n      jump\t// out\n        /* \"cobraBot/Contract.sol\":3287:3850  function culcNextWinnerIndex(uint256 index) internal pure returns(uint256) {\r... */\n    tag_145:\n        /* \"cobraBot/Contract.sol\":3353:3360  uint256 */\n      0x00\n        /* \"cobraBot/Contract.sol\":3825:3826  0 */\n      dup1\n        /* \"cobraBot/Contract.sol\":3820:3821  2 */\n      0x02\n        /* \"cobraBot/Contract.sol\":3812:3817  index */\n      dup4\n        /* \"cobraBot/Contract.sol\":3812:3821  index % 2 */\n      tag_199\n      swap2\n      swap1\n      tag_200\n      jump\t// in\n    tag_199:\n        /* \"cobraBot/Contract.sol\":3812:3826  index % 2 == 0 */\n      eq\n        /* \"cobraBot/Contract.sol\":3812:3842  index % 2 == 0 ? 0 : index / 2 */\n      tag_201\n      jumpi\n        /* \"cobraBot/Contract.sol\":3841:3842  2 */\n      0x02\n        /* \"cobraBot/Contract.sol\":3833:3838  index */\n      dup3\n        /* \"cobraBot/Contract.sol\":3833:3842  index / 2 */\n      tag_202\n      swap2\n      swap1\n      tag_154\n      jump\t// in\n    tag_202:\n        /* \"cobraBot/Contract.sol\":3812:3842  index % 2 == 0 ? 0 : index / 2 */\n      jump(tag_203)\n    tag_201:\n        /* \"cobraBot/Contract.sol\":3829:3830  0 */\n      0x00\n        /* \"cobraBot/Contract.sol\":3812:3842  index % 2 == 0 ? 0 : index / 2 */\n    tag_203:\n        /* \"cobraBot/Contract.sol\":3805:3842  return index % 2 == 0 ? 0 : index / 2 */\n      swap1\n      pop\n        /* \"cobraBot/Contract.sol\":3287:3850  function culcNextWinnerIndex(uint256 index) internal pure returns(uint256) {\r... */\n      swap2\n      swap1\n      pop\n      jump\t// out\n        /* \"#utility.yul\":7:146   */\n    tag_205:\n        /* \"#utility.yul\":53:58   */\n      0x00\n        /* \"#utility.yul\":91:97   */\n      dup2\n        /* \"#utility.yul\":78:98   */\n      calldataload\n        /* \"#utility.yul\":69:98   */\n      swap1\n      pop\n        /* \"#utility.yul\":107:140   */\n      tag_207\n        /* \"#utility.yul\":134:139   */\n      dup2\n        /* \"#utility.yul\":107:140   */\n      tag_208\n      jump\t// in\n    tag_207:\n        /* \"#utility.yul\":7:146   */\n      swap3\n      swap2\n      pop\n      pop\n      jump\t// out\n        /* \"#utility.yul\":152:291   */\n    tag_209:\n        /* \"#utility.yul\":198:203   */\n      0x00\n        /* \"#utility.yul\":236:242   */\n      dup2\n        /* \"#utility.yul\":223:243   */\n      calldataload\n        /* \"#utility.yul\":214:243   */\n      swap1\n      pop\n        /* \"#utility.yul\":252:285   */\n      tag_211\n        /* \"#utility.yul\":279:284   */\n      dup2\n        /* \"#utility.yul\":252:285   */\n      tag_212\n      jump\t// in\n    tag_211:\n        /* \"#utility.yul\":152:291   */\n      swap3\n      swap2\n      pop\n      pop\n      jump\t// out\n        /* \"#utility.yul\":297:432   */\n    tag_213:\n        /* \"#utility.yul\":341:346   */\n      0x00\n        /* \"#utility.yul\":379:385   */\n      dup2\n        /* \"#utility.yul\":366:386   */\n      calldataload\n        /* \"#utility.yul\":357:386   */\n      swap1\n      pop\n        /* \"#utility.yul\":395:426   */\n      tag_215\n        /* \"#utility.yul\":420:425   */\n      dup2\n        /* \"#utility.yul\":395:426   */\n      tag_216\n      jump\t// in\n    tag_215:\n        /* \"#utility.yul\":297:432   */\n      swap3\n      swap2\n      pop\n      pop\n      jump\t// out\n        /* \"#utility.yul\":438:767   */\n    tag_34:\n        /* \"#utility.yul\":497:503   */\n      0x00\n        /* \"#utility.yul\":546:548   */\n      0x20\n        /* \"#utility.yul\":534:543   */\n      dup3\n        /* \"#utility.yul\":525:532   */\n      dup5\n        /* \"#utility.yul\":521:544   */\n      sub\n        /* \"#utility.yul\":517:549   */\n      slt\n        /* \"#utility.yul\":514:633   */\n      iszero\n      tag_218\n      jumpi\n        /* \"#utility.yul\":552:631   */\n      tag_219\n      tag_220\n      jump\t// in\n    tag_219:\n        /* \"#utility.yul\":514:633   */\n    tag_218:\n        /* \"#utility.yul\":672:673   */\n      0x00\n        /* \"#utility.yul\":697:750   */\n      tag_221\n        /* \"#utility.yul\":742:749   */\n      dup5\n        /* \"#utility.yul\":733:739   */\n      dup3\n        /* \"#utility.yul\":722:731   */\n      dup6\n        /* \"#utility.yul\":718:740   */\n      add\n        /* \"#utility.yul\":697:750   */\n      tag_205\n      jump\t// in\n    tag_221:\n        /* \"#utility.yul\":687:750   */\n      swap2\n      pop\n        /* \"#utility.yul\":643:760   */\n      pop\n        /* \"#utility.yul\":438:767   */\n      swap3\n      swap2\n      pop\n      pop\n      jump\t// out\n        /* \"#utility.yul\":773:1243   */\n    tag_41:\n        /* \"#utility.yul\":839:845   */\n      0x00\n        /* \"#utility.yul\":847:853   */\n      dup1\n        /* \"#utility.yul\":896:898   */\n      0x40\n        /* \"#utility.yul\":884:893   */\n      dup4\n        /* \"#utility.yul\":875:882   */\n      dup6\n        /* \"#utility.yul\":871:894   */\n      sub\n        /* \"#utility.yul\":867:899   */\n      slt\n        /* \"#utility.yul\":864:983   */\n      iszero\n      tag_223\n      jumpi\n        /* \"#utility.yul\":902:981   */\n      tag_224\n      tag_220\n      jump\t// in\n    tag_224:\n        /* \"#utility.yul\":864:983   */\n    tag_223:\n        /* \"#utility.yul\":1022:1023   */\n      0x00\n        /* \"#utility.yul\":1047:1100   */\n      tag_225\n        /* \"#utility.yul\":1092:1099   */\n      dup6\n        /* \"#utility.yul\":1083:1089   */\n      dup3\n        /* \"#utility.yul\":1072:1081   */\n      dup7\n        /* \"#utility.yul\":1068:1090   */\n      add\n        /* \"#utility.yul\":1047:1100   */\n      tag_205\n      jump\t// in\n    tag_225:\n        /* \"#utility.yul\":1037:1100   */\n      swap3\n      pop\n        /* \"#utility.yul\":993:1110   */\n      pop\n        /* \"#utility.yul\":1149:1151   */\n      0x20\n        /* \"#utility.yul\":1175:1226   */\n      tag_226\n        /* \"#utility.yul\":1218:1225   */\n      dup6\n        /* \"#utility.yul\":1209:1215   */\n      dup3\n        /* \"#utility.yul\":1198:1207   */\n      dup7\n        /* \"#utility.yul\":1194:1216   */\n      add\n        /* \"#utility.yul\":1175:1226   */\n      tag_213\n      jump\t// in\n    tag_226:\n        /* \"#utility.yul\":1165:1226   */\n      swap2\n      pop\n        /* \"#utility.yul\":1120:1236   */\n      pop\n        /* \"#utility.yul\":773:1243   */\n      swap3\n      pop\n      swap3\n      swap1\n      pop\n      jump\t// out\n        /* \"#utility.yul\":1249:1578   */\n    tag_29:\n        /* \"#utility.yul\":1308:1314   */\n      0x00\n        /* \"#utility.yul\":1357:1359   */\n      0x20\n        /* \"#utility.yul\":1345:1354   */\n      dup3\n        /* \"#utility.yul\":1336:1343   */\n      dup5\n        /* \"#utility.yul\":1332:1355   */\n      sub\n        /* \"#utility.yul\":1328:1360   */\n      slt\n        /* \"#utility.yul\":1325:1444   */\n      iszero\n      tag_228\n      jumpi\n        /* \"#utility.yul\":1363:1442   */\n      tag_229\n      tag_220\n      jump\t// in\n    tag_229:\n        /* \"#utility.yul\":1325:1444   */\n    tag_228:\n        /* \"#utility.yul\":1483:1484   */\n      0x00\n        /* \"#utility.yul\":1508:1561   */\n      tag_230\n        /* \"#utility.yul\":1553:1560   */\n      dup5\n        /* \"#utility.yul\":1544:1550   */\n      dup3\n        /* \"#utility.yul\":1533:1542   */\n      dup6\n        /* \"#utility.yul\":1529:1551   */\n      add\n        /* \"#utility.yul\":1508:1561   */\n      tag_209\n      jump\t// in\n    tag_230:\n        /* \"#utility.yul\":1498:1561   */\n      swap2\n      pop\n        /* \"#utility.yul\":1454:1571   */\n      pop\n        /* \"#utility.yul\":1249:1578   */\n      swap3\n      swap2\n      pop\n      pop\n      jump\t// out\n        /* \"#utility.yul\":1584:1909   */\n    tag_47:\n        /* \"#utility.yul\":1641:1647   */\n      0x00\n        /* \"#utility.yul\":1690:1692   */\n      0x20\n        /* \"#utility.yul\":1678:1687   */\n      dup3\n        /* \"#utility.yul\":1669:1676   */\n      dup5\n        /* \"#utility.yul\":1665:1688   */\n      sub\n        /* \"#utility.yul\":1661:1693   */\n      slt\n        /* \"#utility.yul\":1658:1777   */\n      iszero\n      tag_232\n      jumpi\n        /* \"#utility.yul\":1696:1775   */\n      tag_233\n      tag_220\n      jump\t// in\n    tag_233:\n        /* \"#utility.yul\":1658:1777   */\n    tag_232:\n        /* \"#utility.yul\":1816:1817   */\n      0x00\n        /* \"#utility.yul\":1841:1892   */\n      tag_234\n        /* \"#utility.yul\":1884:1891   */\n      dup5\n        /* \"#utility.yul\":1875:1881   */\n      dup3\n        /* \"#utility.yul\":1864:1873   */\n      dup6\n        /* \"#utility.yul\":1860:1882   */\n      add\n        /* \"#utility.yul\":1841:1892   */\n      tag_213\n      jump\t// in\n    tag_234:\n        /* \"#utility.yul\":1831:1892   */\n      swap2\n      pop\n        /* \"#utility.yul\":1787:1902   */\n      pop\n        /* \"#utility.yul\":1584:1909   */\n      swap3\n      swap2\n      pop\n      pop\n      jump\t// out\n        /* \"#utility.yul\":1915:2385   */\n    tag_62:\n        /* \"#utility.yul\":1981:1987   */\n      0x00\n        /* \"#utility.yul\":1989:1995   */\n      dup1\n        /* \"#utility.yul\":2038:2040   */\n      0x40\n        /* \"#utility.yul\":2026:2035   */\n      dup4\n        /* \"#utility.yul\":2017:2024   */\n      dup6\n        /* \"#utility.yul\":2013:2036   */\n      sub\n        /* \"#utility.yul\":2009:2041   */\n      slt\n        /* \"#utility.yul\":2006:2125   */\n      iszero\n      tag_236\n      jumpi\n        /* \"#utility.yul\":2044:2123   */\n      tag_237\n      tag_220\n      jump\t// in\n    tag_237:\n        /* \"#utility.yul\":2006:2125   */\n    tag_236:\n        /* \"#utility.yul\":2164:2165   */\n      0x00\n        /* \"#utility.yul\":2189:2240   */\n      tag_238\n        /* \"#utility.yul\":2232:2239   */\n      dup6\n        /* \"#utility.yul\":2223:2229   */\n      dup3\n        /* \"#utility.yul\":2212:2221   */\n      dup7\n        /* \"#utility.yul\":2208:2230   */\n      add\n        /* \"#utility.yul\":2189:2240   */\n      tag_213\n      jump\t// in\n    tag_238:\n        /* \"#utility.yul\":2179:2240   */\n      swap3\n      pop\n        /* \"#utility.yul\":2135:2250   */\n      pop\n        /* \"#utility.yul\":2289:2291   */\n      0x20\n        /* \"#utility.yul\":2315:2368   */\n      tag_239\n        /* \"#utility.yul\":2360:2367   */\n      dup6\n        /* \"#utility.yul\":2351:2357   */\n      dup3\n        /* \"#utility.yul\":2340:2349   */\n      dup7\n        /* \"#utility.yul\":2336:2358   */\n      add\n        /* \"#utility.yul\":2315:2368   */\n      tag_209\n      jump\t// in\n    tag_239:\n        /* \"#utility.yul\":2305:2368   */\n      swap2\n      pop\n        /* \"#utility.yul\":2260:2378   */\n      pop\n        /* \"#utility.yul\":1915:2385   */\n      swap3\n      pop\n      swap3\n      swap1\n      pop\n      jump\t// out\n        /* \"#utility.yul\":2391:2533   */\n    tag_240:\n        /* \"#utility.yul\":2494:2526   */\n      tag_242\n        /* \"#utility.yul\":2520:2525   */\n      dup2\n        /* \"#utility.yul\":2494:2526   */\n      tag_243\n      jump\t// in\n    tag_242:\n        /* \"#utility.yul\":2489:2492   */\n      dup3\n        /* \"#utility.yul\":2482:2527   */\n      mstore\n        /* \"#utility.yul\":2391:2533   */\n      pop\n      pop\n      jump\t// out\n        /* \"#utility.yul\":2539:2657   */\n    tag_244:\n        /* \"#utility.yul\":2626:2650   */\n      tag_246\n        /* \"#utility.yul\":2644:2649   */\n      dup2\n        /* \"#utility.yul\":2626:2650   */\n      tag_247\n      jump\t// in\n    tag_246:\n        /* \"#utility.yul\":2621:2624   */\n      dup3\n        /* \"#utility.yul\":2614:2651   */\n      mstore\n        /* \"#utility.yul\":2539:2657   */\n      pop\n      pop\n      jump\t// out\n        /* \"#utility.yul\":2663:2772   */\n    tag_248:\n        /* \"#utility.yul\":2744:2765   */\n      tag_250\n        /* \"#utility.yul\":2759:2764   */\n      dup2\n        /* \"#utility.yul\":2744:2765   */\n      tag_251\n      jump\t// in\n    tag_250:\n        /* \"#utility.yul\":2739:2742   */\n      dup3\n        /* \"#utility.yul\":2732:2766   */\n      mstore\n        /* \"#utility.yul\":2663:2772   */\n      pop\n      pop\n      jump\t// out\n        /* \"#utility.yul\":2778:3144   */\n    tag_252:\n        /* \"#utility.yul\":2920:2923   */\n      0x00\n        /* \"#utility.yul\":2941:3008   */\n      tag_254\n        /* \"#utility.yul\":3005:3007   */\n      0x0e\n        /* \"#utility.yul\":3000:3003   */\n      dup4\n        /* \"#utility.yul\":2941:3008   */\n      tag_255\n      jump\t// in\n    tag_254:\n        /* \"#utility.yul\":2934:3008   */\n      swap2\n      pop\n        /* \"#utility.yul\":3017:3110   */\n      tag_256\n        /* \"#utility.yul\":3106:3109   */\n      dup3\n        /* \"#utility.yul\":3017:3110   */\n      tag_257\n      jump\t// in\n    tag_256:\n        /* \"#utility.yul\":3135:3137   */\n      0x20\n        /* \"#utility.yul\":3130:3133   */\n      dup3\n        /* \"#utility.yul\":3126:3138   */\n      add\n        /* \"#utility.yul\":3119:3138   */\n      swap1\n      pop\n        /* \"#utility.yul\":2778:3144   */\n      swap2\n      swap1\n      pop\n      jump\t// out\n        /* \"#utility.yul\":3150:3516   */\n    tag_258:\n        /* \"#utility.yul\":3292:3295   */\n      0x00\n        /* \"#utility.yul\":3313:3380   */\n      tag_260\n        /* \"#utility.yul\":3377:3379   */\n      0x1a\n        /* \"#utility.yul\":3372:3375   */\n      dup4\n        /* \"#utility.yul\":3313:3380   */\n      tag_255\n      jump\t// in\n    tag_260:\n        /* \"#utility.yul\":3306:3380   */\n      swap2\n      pop\n        /* \"#utility.yul\":3389:3482   */\n      tag_261\n        /* \"#utility.yul\":3478:3481   */\n      dup3\n        /* \"#utility.yul\":3389:3482   */\n      tag_262\n      jump\t// in\n    tag_261:\n        /* \"#utility.yul\":3507:3509   */\n      0x20\n        /* \"#utility.yul\":3502:3505   */\n      dup3\n        /* \"#utility.yul\":3498:3510   */\n      add\n        /* \"#utility.yul\":3491:3510   */\n      swap1\n      pop\n        /* \"#utility.yul\":3150:3516   */\n      swap2\n      swap1\n      pop\n      jump\t// out\n        /* \"#utility.yul\":3522:3920   */\n    tag_263:\n        /* \"#utility.yul\":3681:3684   */\n      0x00\n        /* \"#utility.yul\":3702:3785   */\n      tag_265\n        /* \"#utility.yul\":3783:3784   */\n      0x00\n        /* \"#utility.yul\":3778:3781   */\n      dup4\n        /* \"#utility.yul\":3702:3785   */\n      tag_266\n      jump\t// in\n    tag_265:\n        /* \"#utility.yul\":3695:3785   */\n      swap2\n      pop\n        /* \"#utility.yul\":3794:3887   */\n      tag_267\n        /* \"#utility.yul\":3883:3886   */\n      dup3\n        /* \"#utility.yul\":3794:3887   */\n      tag_268\n      jump\t// in\n    tag_267:\n        /* \"#utility.yul\":3912:3913   */\n      0x00\n        /* \"#utility.yul\":3907:3910   */\n      dup3\n        /* \"#utility.yul\":3903:3914   */\n      add\n        /* \"#utility.yul\":3896:3914   */\n      swap1\n      pop\n        /* \"#utility.yul\":3522:3920   */\n      swap2\n      swap1\n      pop\n      jump\t// out\n        /* \"#utility.yul\":3926:4292   */\n    tag_269:\n        /* \"#utility.yul\":4068:4071   */\n      0x00\n        /* \"#utility.yul\":4089:4156   */\n      tag_271\n        /* \"#utility.yul\":4153:4155   */\n      0x23\n        /* \"#utility.yul\":4148:4151   */\n      dup4\n        /* \"#utility.yul\":4089:4156   */\n      tag_255\n      jump\t// in\n    tag_271:\n        /* \"#utility.yul\":4082:4156   */\n      swap2\n      pop\n        /* \"#utility.yul\":4165:4258   */\n      tag_272\n        /* \"#utility.yul\":4254:4257   */\n      dup3\n        /* \"#utility.yul\":4165:4258   */\n      tag_273\n      jump\t// in\n    tag_272:\n        /* \"#utility.yul\":4283:4285   */\n      0x40\n        /* \"#utility.yul\":4278:4281   */\n      dup3\n        /* \"#utility.yul\":4274:4286   */\n      add\n        /* \"#utility.yul\":4267:4286   */\n      swap1\n      pop\n        /* \"#utility.yul\":3926:4292   */\n      swap2\n      swap1\n      pop\n      jump\t// out\n        /* \"#utility.yul\":4298:4664   */\n    tag_274:\n        /* \"#utility.yul\":4440:4443   */\n      0x00\n        /* \"#utility.yul\":4461:4528   */\n      tag_276\n        /* \"#utility.yul\":4525:4527   */\n      0x28\n        /* \"#utility.yul\":4520:4523   */\n      dup4\n        /* \"#utility.yul\":4461:4528   */\n      tag_255\n      jump\t// in\n    tag_276:\n        /* \"#utility.yul\":4454:4528   */\n      swap2\n      pop\n        /* \"#utility.yul\":4537:4630   */\n      tag_277\n        /* \"#utility.yul\":4626:4629   */\n      dup3\n        /* \"#utility.yul\":4537:4630   */\n      tag_278\n      jump\t// in\n    tag_277:\n        /* \"#utility.yul\":4655:4657   */\n      0x40\n        /* \"#utility.yul\":4650:4653   */\n      dup3\n        /* \"#utility.yul\":4646:4658   */\n      add\n        /* \"#utility.yul\":4639:4658   */\n      swap1\n      pop\n        /* \"#utility.yul\":4298:4664   */\n      swap2\n      swap1\n      pop\n      jump\t// out\n        /* \"#utility.yul\":4670:5036   */\n    tag_279:\n        /* \"#utility.yul\":4812:4815   */\n      0x00\n        /* \"#utility.yul\":4833:4900   */\n      tag_281\n        /* \"#utility.yul\":4897:4899   */\n      0x0c\n        /* \"#utility.yul\":4892:4895   */\n      dup4\n        /* \"#utility.yul\":4833:4900   */\n      tag_255\n      jump\t// in\n    tag_281:\n        /* \"#utility.yul\":4826:4900   */\n      swap2\n      pop\n        /* \"#utility.yul\":4909:5002   */\n      tag_282\n        /* \"#utility.yul\":4998:5001   */\n      dup3\n        /* \"#utility.yul\":4909:5002   */\n      tag_283\n      jump\t// in\n    tag_282:\n        /* \"#utility.yul\":5027:5029   */\n      0x20\n        /* \"#utility.yul\":5022:5025   */\n      dup3\n        /* \"#utility.yul\":5018:5030   */\n      add\n        /* \"#utility.yul\":5011:5030   */\n      swap1\n      pop\n        /* \"#utility.yul\":4670:5036   */\n      swap2\n      swap1\n      pop\n      jump\t// out\n        /* \"#utility.yul\":5042:5160   */\n    tag_284:\n        /* \"#utility.yul\":5129:5153   */\n      tag_286\n        /* \"#utility.yul\":5147:5152   */\n      dup2\n        /* \"#utility.yul\":5129:5153   */\n      tag_287\n      jump\t// in\n    tag_286:\n        /* \"#utility.yul\":5124:5127   */\n      dup3\n        /* \"#utility.yul\":5117:5154   */\n      mstore\n        /* \"#utility.yul\":5042:5160   */\n      pop\n      pop\n      jump\t// out\n        /* \"#utility.yul\":5166:5278   */\n    tag_288:\n        /* \"#utility.yul\":5249:5271   */\n      tag_290\n        /* \"#utility.yul\":5265:5270   */\n      dup2\n        /* \"#utility.yul\":5249:5271   */\n      tag_291\n      jump\t// in\n    tag_290:\n        /* \"#utility.yul\":5244:5247   */\n      dup3\n        /* \"#utility.yul\":5237:5272   */\n      mstore\n        /* \"#utility.yul\":5166:5278   */\n      pop\n      pop\n      jump\t// out\n        /* \"#utility.yul\":5284:5663   */\n    tag_156:\n        /* \"#utility.yul\":5468:5471   */\n      0x00\n        /* \"#utility.yul\":5490:5637   */\n      tag_293\n        /* \"#utility.yul\":5633:5636   */\n      dup3\n        /* \"#utility.yul\":5490:5637   */\n      tag_263\n      jump\t// in\n    tag_293:\n        /* \"#utility.yul\":5483:5637   */\n      swap2\n      pop\n        /* \"#utility.yul\":5654:5657   */\n      dup2\n        /* \"#utility.yul\":5647:5657   */\n      swap1\n      pop\n        /* \"#utility.yul\":5284:5663   */\n      swap2\n      swap1\n      pop\n      jump\t// out\n        /* \"#utility.yul\":5669:5891   */\n    tag_94:\n        /* \"#utility.yul\":5762:5766   */\n      0x00\n        /* \"#utility.yul\":5800:5802   */\n      0x20\n        /* \"#utility.yul\":5789:5798   */\n      dup3\n        /* \"#utility.yul\":5785:5803   */\n      add\n        /* \"#utility.yul\":5777:5803   */\n      swap1\n      pop\n        /* \"#utility.yul\":5813:5884   */\n      tag_295\n        /* \"#utility.yul\":5881:5882   */\n      0x00\n        /* \"#utility.yul\":5870:5879   */\n      dup4\n        /* \"#utility.yul\":5866:5883   */\n      add\n        /* \"#utility.yul\":5857:5863   */\n      dup5\n        /* \"#utility.yul\":5813:5884   */\n      tag_244\n      jump\t// in\n    tag_295:\n        /* \"#utility.yul\":5669:5891   */\n      swap3\n      swap2\n      pop\n      pop\n      jump\t// out\n        /* \"#utility.yul\":5897:6107   */\n    tag_44:\n        /* \"#utility.yul\":5984:5988   */\n      0x00\n        /* \"#utility.yul\":6022:6024   */\n      0x20\n        /* \"#utility.yul\":6011:6020   */\n      dup3\n        /* \"#utility.yul\":6007:6025   */\n      add\n        /* \"#utility.yul\":5999:6025   */\n      swap1\n      pop\n        /* \"#utility.yul\":6035:6100   */\n      tag_297\n        /* \"#utility.yul\":6097:6098   */\n      0x00\n        /* \"#utility.yul\":6086:6095   */\n      dup4\n        /* \"#utility.yul\":6082:6099   */\n      add\n        /* \"#utility.yul\":6073:6079   */\n      dup5\n        /* \"#utility.yul\":6035:6100   */\n      tag_248\n      jump\t// in\n    tag_297:\n        /* \"#utility.yul\":5897:6107   */\n      swap3\n      swap2\n      pop\n      pop\n      jump\t// out\n        /* \"#utility.yul\":6113:6532   */\n    tag_111:\n        /* \"#utility.yul\":6279:6283   */\n      0x00\n        /* \"#utility.yul\":6317:6319   */\n      0x20\n        /* \"#utility.yul\":6306:6315   */\n      dup3\n        /* \"#utility.yul\":6302:6320   */\n      add\n        /* \"#utility.yul\":6294:6320   */\n      swap1\n      pop\n        /* \"#utility.yul\":6366:6375   */\n      dup2\n        /* \"#utility.yul\":6360:6364   */\n      dup2\n        /* \"#utility.yul\":6356:6376   */\n      sub\n        /* \"#utility.yul\":6352:6353   */\n      0x00\n        /* \"#utility.yul\":6341:6350   */\n      dup4\n        /* \"#utility.yul\":6337:6354   */\n      add\n        /* \"#utility.yul\":6330:6377   */\n      mstore\n        /* \"#utility.yul\":6394:6525   */\n      tag_299\n        /* \"#utility.yul\":6520:6524   */\n      dup2\n        /* \"#utility.yul\":6394:6525   */\n      tag_252\n      jump\t// in\n    tag_299:\n        /* \"#utility.yul\":6386:6525   */\n      swap1\n      pop\n        /* \"#utility.yul\":6113:6532   */\n      swap2\n      swap1\n      pop\n      jump\t// out\n        /* \"#utility.yul\":6538:6957   */\n    tag_121:\n        /* \"#utility.yul\":6704:6708   */\n      0x00\n        /* \"#utility.yul\":6742:6744   */\n      0x20\n        /* \"#utility.yul\":6731:6740   */\n      dup3\n        /* \"#utility.yul\":6727:6745   */\n      add\n        /* \"#utility.yul\":6719:6745   */\n      swap1\n      pop\n        /* \"#utility.yul\":6791:6800   */\n      dup2\n        /* \"#utility.yul\":6785:6789   */\n      dup2\n        /* \"#utility.yul\":6781:6801   */\n      sub\n        /* \"#utility.yul\":6777:6778   */\n      0x00\n        /* \"#utility.yul\":6766:6775   */\n      dup4\n        /* \"#utility.yul\":6762:6779   */\n      add\n        /* \"#utility.yul\":6755:6802   */\n      mstore\n        /* \"#utility.yul\":6819:6950   */\n      tag_301\n        /* \"#utility.yul\":6945:6949   */\n      dup2\n        /* \"#utility.yul\":6819:6950   */\n      tag_258\n      jump\t// in\n    tag_301:\n        /* \"#utility.yul\":6811:6950   */\n      swap1\n      pop\n        /* \"#utility.yul\":6538:6957   */\n      swap2\n      swap1\n      pop\n      jump\t// out\n        /* \"#utility.yul\":6963:7382   */\n    tag_142:\n        /* \"#utility.yul\":7129:7133   */\n      0x00\n        /* \"#utility.yul\":7167:7169   */\n      0x20\n        /* \"#utility.yul\":7156:7165   */\n      dup3\n        /* \"#utility.yul\":7152:7170   */\n      add\n        /* \"#utility.yul\":7144:7170   */\n      swap1\n      pop\n        /* \"#utility.yul\":7216:7225   */\n      dup2\n        /* \"#utility.yul\":7210:7214   */\n      dup2\n        /* \"#utility.yul\":7206:7226   */\n      sub\n        /* \"#utility.yul\":7202:7203   */\n      0x00\n        /* \"#utility.yul\":7191:7200   */\n      dup4\n        /* \"#utility.yul\":7187:7204   */\n      add\n        /* \"#utility.yul\":7180:7227   */\n      mstore\n        /* \"#utility.yul\":7244:7375   */\n      tag_303\n        /* \"#utility.yul\":7370:7374   */\n      dup2\n        /* \"#utility.yul\":7244:7375   */\n      tag_269\n      jump\t// in\n    tag_303:\n        /* \"#utility.yul\":7236:7375   */\n      swap1\n      pop\n        /* \"#utility.yul\":6963:7382   */\n      swap2\n      swap1\n      pop\n      jump\t// out\n        /* \"#utility.yul\":7388:7807   */\n    tag_124:\n        /* \"#utility.yul\":7554:7558   */\n      0x00\n        /* \"#utility.yul\":7592:7594   */\n      0x20\n        /* \"#utility.yul\":7581:7590   */\n      dup3\n        /* \"#utility.yul\":7577:7595   */\n      add\n        /* \"#utility.yul\":7569:7595   */\n      swap1\n      pop\n        /* \"#utility.yul\":7641:7650   */\n      dup2\n        /* \"#utility.yul\":7635:7639   */\n      dup2\n        /* \"#utility.yul\":7631:7651   */\n      sub\n        /* \"#utility.yul\":7627:7628   */\n      0x00\n        /* \"#utility.yul\":7616:7625   */\n      dup4\n        /* \"#utility.yul\":7612:7629   */\n      add\n        /* \"#utility.yul\":7605:7652   */\n      mstore\n        /* \"#utility.yul\":7669:7800   */\n      tag_305\n        /* \"#utility.yul\":7795:7799   */\n      dup2\n        /* \"#utility.yul\":7669:7800   */\n      tag_274\n      jump\t// in\n    tag_305:\n        /* \"#utility.yul\":7661:7800   */\n      swap1\n      pop\n        /* \"#utility.yul\":7388:7807   */\n      swap2\n      swap1\n      pop\n      jump\t// out\n        /* \"#utility.yul\":7813:8232   */\n    tag_117:\n        /* \"#utility.yul\":7979:7983   */\n      0x00\n        /* \"#utility.yul\":8017:8019   */\n      0x20\n        /* \"#utility.yul\":8006:8015   */\n      dup3\n        /* \"#utility.yul\":8002:8020   */\n      add\n        /* \"#utility.yul\":7994:8020   */\n      swap1\n      pop\n        /* \"#utility.yul\":8066:8075   */\n      dup2\n        /* \"#utility.yul\":8060:8064   */\n      dup2\n        /* \"#utility.yul\":8056:8076   */\n      sub\n        /* \"#utility.yul\":8052:8053   */\n      0x00\n        /* \"#utility.yul\":8041:8050   */\n      dup4\n        /* \"#utility.yul\":8037:8054   */\n      add\n        /* \"#utility.yul\":8030:8077   */\n      mstore\n        /* \"#utility.yul\":8094:8225   */\n      tag_307\n        /* \"#utility.yul\":8220:8224   */\n      dup2\n        /* \"#utility.yul\":8094:8225   */\n      tag_279\n      jump\t// in\n    tag_307:\n        /* \"#utility.yul\":8086:8225   */\n      swap1\n      pop\n        /* \"#utility.yul\":7813:8232   */\n      swap2\n      swap1\n      pop\n      jump\t// out\n        /* \"#utility.yul\":8238:8460   */\n    tag_54:\n        /* \"#utility.yul\":8331:8335   */\n      0x00\n        /* \"#utility.yul\":8369:8371   */\n      0x20\n        /* \"#utility.yul\":8358:8367   */\n      dup3\n        /* \"#utility.yul\":8354:8372   */\n      add\n        /* \"#utility.yul\":8346:8372   */\n      swap1\n      pop\n        /* \"#utility.yul\":8382:8453   */\n      tag_309\n        /* \"#utility.yul\":8450:8451   */\n      0x00\n        /* \"#utility.yul\":8439:8448   */\n      dup4\n        /* \"#utility.yul\":8435:8452   */\n      add\n        /* \"#utility.yul\":8426:8432   */\n      dup5\n        /* \"#utility.yul\":8382:8453   */\n      tag_284\n      jump\t// in\n    tag_309:\n        /* \"#utility.yul\":8238:8460   */\n      swap3\n      swap2\n      pop\n      pop\n      jump\t// out\n        /* \"#utility.yul\":8466:8940   */\n    tag_37:\n        /* \"#utility.yul\":8631:8635   */\n      0x00\n        /* \"#utility.yul\":8669:8671   */\n      0x60\n        /* \"#utility.yul\":8658:8667   */\n      dup3\n        /* \"#utility.yul\":8654:8672   */\n      add\n        /* \"#utility.yul\":8646:8672   */\n      swap1\n      pop\n        /* \"#utility.yul\":8682:8753   */\n      tag_311\n        /* \"#utility.yul\":8750:8751   */\n      0x00\n        /* \"#utility.yul\":8739:8748   */\n      dup4\n        /* \"#utility.yul\":8735:8752   */\n      add\n        /* \"#utility.yul\":8726:8732   */\n      dup7\n        /* \"#utility.yul\":8682:8753   */\n      tag_284\n      jump\t// in\n    tag_311:\n        /* \"#utility.yul\":8763:8851   */\n      tag_312\n        /* \"#utility.yul\":8847:8849   */\n      0x20\n        /* \"#utility.yul\":8836:8845   */\n      dup4\n        /* \"#utility.yul\":8832:8850   */\n      add\n        /* \"#utility.yul\":8823:8829   */\n      dup6\n        /* \"#utility.yul\":8763:8851   */\n      tag_240\n      jump\t// in\n    tag_312:\n        /* \"#utility.yul\":8861:8933   */\n      tag_313\n        /* \"#utility.yul\":8929:8931   */\n      0x40\n        /* \"#utility.yul\":8918:8927   */\n      dup4\n        /* \"#utility.yul\":8914:8932   */\n      add\n        /* \"#utility.yul\":8905:8911   */\n      dup5\n        /* \"#utility.yul\":8861:8933   */\n      tag_284\n      jump\t// in\n    tag_313:\n        /* \"#utility.yul\":8466:8940   */\n      swap5\n      swap4\n      pop\n      pop\n      pop\n      pop\n      jump\t// out\n        /* \"#utility.yul\":8946:9376   */\n    tag_162:\n        /* \"#utility.yul\":9089:9093   */\n      0x00\n        /* \"#utility.yul\":9127:9129   */\n      0x60\n        /* \"#utility.yul\":9116:9125   */\n      dup3\n        /* \"#utility.yul\":9112:9130   */\n      add\n        /* \"#utility.yul\":9104:9130   */\n      swap1\n      pop\n        /* \"#utility.yul\":9140:9211   */\n      tag_315\n        /* \"#utility.yul\":9208:9209   */\n      0x00\n        /* \"#utility.yul\":9197:9206   */\n      dup4\n        /* \"#utility.yul\":9193:9210   */\n      add\n        /* \"#utility.yul\":9184:9190   */\n      dup7\n        /* \"#utility.yul\":9140:9211   */\n      tag_284\n      jump\t// in\n    tag_315:\n        /* \"#utility.yul\":9221:9293   */\n      tag_316\n        /* \"#utility.yul\":9289:9291   */\n      0x20\n        /* \"#utility.yul\":9278:9287   */\n      dup4\n        /* \"#utility.yul\":9274:9292   */\n      add\n        /* \"#utility.yul\":9265:9271   */\n      dup6\n        /* \"#utility.yul\":9221:9293   */\n      tag_244\n      jump\t// in\n    tag_316:\n        /* \"#utility.yul\":9303:9369   */\n      tag_317\n        /* \"#utility.yul\":9365:9367   */\n      0x40\n        /* \"#utility.yul\":9354:9363   */\n      dup4\n        /* \"#utility.yul\":9350:9368   */\n      add\n        /* \"#utility.yul\":9341:9347   */\n      dup5\n        /* \"#utility.yul\":9303:9369   */\n      tag_248\n      jump\t// in\n    tag_317:\n        /* \"#utility.yul\":8946:9376   */\n      swap5\n      swap4\n      pop\n      pop\n      pop\n      pop\n      jump\t// out\n        /* \"#utility.yul\":9382:9935   */\n    tag_171:\n        /* \"#utility.yul\":9559:9563   */\n      0x00\n        /* \"#utility.yul\":9597:9600   */\n      0x80\n        /* \"#utility.yul\":9586:9595   */\n      dup3\n        /* \"#utility.yul\":9582:9601   */\n      add\n        /* \"#utility.yul\":9574:9601   */\n      swap1\n      pop\n        /* \"#utility.yul\":9611:9682   */\n      tag_319\n        /* \"#utility.yul\":9679:9680   */\n      0x00\n        /* \"#utility.yul\":9668:9677   */\n      dup4\n        /* \"#utility.yul\":9664:9681   */\n      add\n        /* \"#utility.yul\":9655:9661   */\n      dup8\n        /* \"#utility.yul\":9611:9682   */\n      tag_284\n      jump\t// in\n    tag_319:\n        /* \"#utility.yul\":9692:9764   */\n      tag_320\n        /* \"#utility.yul\":9760:9762   */\n      0x20\n        /* \"#utility.yul\":9749:9758   */\n      dup4\n        /* \"#utility.yul\":9745:9763   */\n      add\n        /* \"#utility.yul\":9736:9742   */\n      dup7\n        /* \"#utility.yul\":9692:9764   */\n      tag_284\n      jump\t// in\n    tag_320:\n        /* \"#utility.yul\":9774:9846   */\n      tag_321\n        /* \"#utility.yul\":9842:9844   */\n      0x40\n        /* \"#utility.yul\":9831:9840   */\n      dup4\n        /* \"#utility.yul\":9827:9845   */\n      add\n        /* \"#utility.yul\":9818:9824   */\n      dup6\n        /* \"#utility.yul\":9774:9846   */\n      tag_284\n      jump\t// in\n    tag_321:\n        /* \"#utility.yul\":9856:9928   */\n      tag_322\n        /* \"#utility.yul\":9924:9926   */\n      0x60\n        /* \"#utility.yul\":9913:9922   */\n      dup4\n        /* \"#utility.yul\":9909:9927   */\n      add\n        /* \"#utility.yul\":9900:9906   */\n      dup5\n        /* \"#utility.yul\":9856:9928   */\n      tag_284\n      jump\t// in\n    tag_322:\n        /* \"#utility.yul\":9382:9935   */\n      swap6\n      swap5\n      pop\n      pop\n      pop\n      pop\n      pop\n      jump\t// out\n        /* \"#utility.yul\":9941:10155   */\n    tag_84:\n        /* \"#utility.yul\":10030:10034   */\n      0x00\n        /* \"#utility.yul\":10068:10070   */\n      0x20\n        /* \"#utility.yul\":10057:10066   */\n      dup3\n        /* \"#utility.yul\":10053:10071   */\n      add\n        /* \"#utility.yul\":10045:10071   */\n      swap1\n      pop\n        /* \"#utility.yul\":10081:10148   */\n      tag_324\n        /* \"#utility.yul\":10145:10146   */\n      0x00\n        /* \"#utility.yul\":10134:10143   */\n      dup4\n        /* \"#utility.yul\":10130:10147   */\n      add\n        /* \"#utility.yul\":10121:10127   */\n      dup5\n        /* \"#utility.yul\":10081:10148   */\n      tag_288\n      jump\t// in\n    tag_324:\n        /* \"#utility.yul\":9941:10155   */\n      swap3\n      swap2\n      pop\n      pop\n      jump\t// out\n        /* \"#utility.yul\":10242:10389   */\n    tag_266:\n        /* \"#utility.yul\":10343:10354   */\n      0x00\n        /* \"#utility.yul\":10380:10383   */\n      dup2\n        /* \"#utility.yul\":10365:10383   */\n      swap1\n      pop\n        /* \"#utility.yul\":10242:10389   */\n      swap3\n      swap2\n      pop\n      pop\n      jump\t// out\n        /* \"#utility.yul\":10395:10564   */\n    tag_255:\n        /* \"#utility.yul\":10479:10490   */\n      0x00\n        /* \"#utility.yul\":10513:10519   */\n      dup3\n        /* \"#utility.yul\":10508:10511   */\n      dup3\n        /* \"#utility.yul\":10501:10520   */\n      mstore\n        /* \"#utility.yul\":10553:10557   */\n      0x20\n        /* \"#utility.yul\":10548:10551   */\n      dup3\n        /* \"#utility.yul\":10544:10558   */\n      add\n        /* \"#utility.yul\":10529:10558   */\n      swap1\n      pop\n        /* \"#utility.yul\":10395:10564   */\n      swap3\n      swap2\n      pop\n      pop\n      jump\t// out\n        /* \"#utility.yul\":10570:10875   */\n    tag_126:\n        /* \"#utility.yul\":10610:10613   */\n      0x00\n        /* \"#utility.yul\":10629:10649   */\n      tag_330\n        /* \"#utility.yul\":10647:10648   */\n      dup3\n        /* \"#utility.yul\":10629:10649   */\n      tag_287\n      jump\t// in\n    tag_330:\n        /* \"#utility.yul\":10624:10649   */\n      swap2\n      pop\n        /* \"#utility.yul\":10663:10683   */\n      tag_331\n        /* \"#utility.yul\":10681:10682   */\n      dup4\n        /* \"#utility.yul\":10663:10683   */\n      tag_287\n      jump\t// in\n    tag_331:\n        /* \"#utility.yul\":10658:10683   */\n      swap3\n      pop\n        /* \"#utility.yul\":10817:10818   */\n      dup3\n        /* \"#utility.yul\":10749:10815   */\n      0xffffffffffffffffffffffffffffffffffffffffffffffffffffffffffffffff\n        /* \"#utility.yul\":10745:10819   */\n      sub\n        /* \"#utility.yul\":10742:10743   */\n      dup3\n        /* \"#utility.yul\":10739:10820   */\n      gt\n        /* \"#utility.yul\":10736:10843   */\n      iszero\n      tag_332\n      jumpi\n        /* \"#utility.yul\":10823:10841   */\n      tag_333\n      tag_334\n      jump\t// in\n    tag_333:\n        /* \"#utility.yul\":10736:10843   */\n    tag_332:\n        /* \"#utility.yul\":10867:10868   */\n      dup3\n        /* \"#utility.yul\":10864:10865   */\n      dup3\n        /* \"#utility.yul\":10860:10869   */\n      add\n        /* \"#utility.yul\":10853:10869   */\n      swap1\n      pop\n        /* \"#utility.yul\":10570:10875   */\n      swap3\n      swap2\n      pop\n      pop\n      jump\t// out\n        /* \"#utility.yul\":10881:11118   */\n    tag_105:\n        /* \"#utility.yul\":10919:10922   */\n      0x00\n        /* \"#utility.yul\":10938:10956   */\n      tag_336\n        /* \"#utility.yul\":10954:10955   */\n      dup3\n        /* \"#utility.yul\":10938:10956   */\n      tag_291\n      jump\t// in\n    tag_336:\n        /* \"#utility.yul\":10933:10956   */\n      swap2\n      pop\n        /* \"#utility.yul\":10970:10988   */\n      tag_337\n        /* \"#utility.yul\":10986:10987   */\n      dup4\n        /* \"#utility.yul\":10970:10988   */\n      tag_291\n      jump\t// in\n    tag_337:\n        /* \"#utility.yul\":10965:10988   */\n      swap3\n      pop\n        /* \"#utility.yul\":11060:11061   */\n      dup3\n        /* \"#utility.yul\":11054:11058   */\n      0xff\n        /* \"#utility.yul\":11050:11062   */\n      sub\n        /* \"#utility.yul\":11047:11048   */\n      dup3\n        /* \"#utility.yul\":11044:11063   */\n      gt\n        /* \"#utility.yul\":11041:11086   */\n      iszero\n      tag_338\n      jumpi\n        /* \"#utility.yul\":11066:11084   */\n      tag_339\n      tag_334\n      jump\t// in\n    tag_339:\n        /* \"#utility.yul\":11041:11086   */\n    tag_338:\n        /* \"#utility.yul\":11110:11111   */\n      dup3\n        /* \"#utility.yul\":11107:11108   */\n      dup3\n        /* \"#utility.yul\":11103:11112   */\n      add\n        /* \"#utility.yul\":11096:11112   */\n      swap1\n      pop\n        /* \"#utility.yul\":10881:11118   */\n      swap3\n      swap2\n      pop\n      pop\n      jump\t// out\n        /* \"#utility.yul\":11124:11309   */\n    tag_154:\n        /* \"#utility.yul\":11164:11165   */\n      0x00\n        /* \"#utility.yul\":11181:11201   */\n      tag_341\n        /* \"#utility.yul\":11199:11200   */\n      dup3\n        /* \"#utility.yul\":11181:11201   */\n      tag_287\n      jump\t// in\n    tag_341:\n        /* \"#utility.yul\":11176:11201   */\n      swap2\n      pop\n        /* \"#utility.yul\":11215:11235   */\n      tag_342\n        /* \"#utility.yul\":11233:11234   */\n      dup4\n        /* \"#utility.yul\":11215:11235   */\n      tag_287\n      jump\t// in\n    tag_342:\n        /* \"#utility.yul\":11210:11235   */\n      swap3\n      pop\n        /* \"#utility.yul\":11254:11255   */\n      dup3\n        /* \"#utility.yul\":11244:11279   */\n      tag_343\n      jumpi\n        /* \"#utility.yul\":11259:11277   */\n      tag_344\n      tag_345\n      jump\t// in\n    tag_344:\n        /* \"#utility.yul\":11244:11279   */\n    tag_343:\n        /* \"#utility.yul\":11301:11302   */\n      dup3\n        /* \"#utility.yul\":11298:11299   */\n      dup3\n        /* \"#utility.yul\":11294:11303   */\n      div\n        /* \"#utility.yul\":11289:11303   */\n      swap1\n      pop\n        /* \"#utility.yul\":11124:11309   */\n      swap3\n      swap2\n      pop\n      pop\n      jump\t// out\n        /* \"#utility.yul\":11315:11663   */\n    tag_152:\n        /* \"#utility.yul\":11355:11362   */\n      0x00\n        /* \"#utility.yul\":11378:11398   */\n      tag_347\n        /* \"#utility.yul\":11396:11397   */\n      dup3\n        /* \"#utility.yul\":11378:11398   */\n      tag_287\n      jump\t// in\n    tag_347:\n        /* \"#utility.yul\":11373:11398   */\n      swap2\n      pop\n        /* \"#utility.yul\":11412:11432   */\n      tag_348\n        /* \"#utility.yul\":11430:11431   */\n      dup4\n        /* \"#utility.yul\":11412:11432   */\n      tag_287\n      jump\t// in\n    tag_348:\n        /* \"#utility.yul\":11407:11432   */\n      swap3\n      pop\n        /* \"#utility.yul\":11600:11601   */\n      dup2\n        /* \"#utility.yul\":11532:11598   */\n      0xffffffffffffffffffffffffffffffffffffffffffffffffffffffffffffffff\n        /* \"#utility.yul\":11528:11602   */\n      div\n        /* \"#utility.yul\":11525:11526   */\n      dup4\n        /* \"#utility.yul\":11522:11603   */\n      gt\n        /* \"#utility.yul\":11517:11518   */\n      dup3\n        /* \"#utility.yul\":11510:11519   */\n      iszero\n        /* \"#utility.yul\":11503:11520   */\n      iszero\n        /* \"#utility.yul\":11499:11604   */\n      and\n        /* \"#utility.yul\":11496:11627   */\n      iszero\n      tag_349\n      jumpi\n        /* \"#utility.yul\":11607:11625   */\n      tag_350\n      tag_334\n      jump\t// in\n    tag_350:\n        /* \"#utility.yul\":11496:11627   */\n    tag_349:\n        /* \"#utility.yul\":11655:11656   */\n      dup3\n        /* \"#utility.yul\":11652:11653   */\n      dup3\n        /* \"#utility.yul\":11648:11657   */\n      mul\n        /* \"#utility.yul\":11637:11657   */\n      swap1\n      pop\n        /* \"#utility.yul\":11315:11663   */\n      swap3\n      swap2\n      pop\n      pop\n      jump\t// out\n        /* \"#utility.yul\":11669:11765   */\n    tag_247:\n        /* \"#utility.yul\":11706:11713   */\n      0x00\n        /* \"#utility.yul\":11735:11759   */\n      tag_352\n        /* \"#utility.yul\":11753:11758   */\n      dup3\n        /* \"#utility.yul\":11735:11759   */\n      tag_353\n      jump\t// in\n    tag_352:\n        /* \"#utility.yul\":11724:11759   */\n      swap1\n      pop\n        /* \"#utility.yul\":11669:11765   */\n      swap2\n      swap1\n      pop\n      jump\t// out\n        /* \"#utility.yul\":11771:11875   */\n    tag_243:\n        /* \"#utility.yul\":11816:11823   */\n      0x00\n        /* \"#utility.yul\":11845:11869   */\n      tag_355\n        /* \"#utility.yul\":11863:11868   */\n      dup3\n        /* \"#utility.yul\":11845:11869   */\n      tag_353\n      jump\t// in\n    tag_355:\n        /* \"#utility.yul\":11834:11869   */\n      swap1\n      pop\n        /* \"#utility.yul\":11771:11875   */\n      swap2\n      swap1\n      pop\n      jump\t// out\n        /* \"#utility.yul\":11881:11971   */\n    tag_251:\n        /* \"#utility.yul\":11915:11922   */\n      0x00\n        /* \"#utility.yul\":11958:11963   */\n      dup2\n        /* \"#utility.yul\":11951:11964   */\n      iszero\n        /* \"#utility.yul\":11944:11965   */\n      iszero\n        /* \"#utility.yul\":11933:11965   */\n      swap1\n      pop\n        /* \"#utility.yul\":11881:11971   */\n      swap2\n      swap1\n      pop\n      jump\t// out\n        /* \"#utility.yul\":11977:12103   */\n    tag_353:\n        /* \"#utility.yul\":12014:12021   */\n      0x00\n        /* \"#utility.yul\":12054:12096   */\n      0xffffffffffffffffffffffffffffffffffffffff\n        /* \"#utility.yul\":12047:12052   */\n      dup3\n        /* \"#utility.yul\":12043:12097   */\n      and\n        /* \"#utility.yul\":12032:12097   */\n      swap1\n      pop\n        /* \"#utility.yul\":11977:12103   */\n      swap2\n      swap1\n      pop\n      jump\t// out\n        /* \"#utility.yul\":12109:12186   */\n    tag_287:\n        /* \"#utility.yul\":12146:12153   */\n      0x00\n        /* \"#utility.yul\":12175:12180   */\n      dup2\n        /* \"#utility.yul\":12164:12180   */\n      swap1\n      pop\n        /* \"#utility.yul\":12109:12186   */\n      swap2\n      swap1\n      pop\n      jump\t// out\n        /* \"#utility.yul\":12192:12278   */\n    tag_291:\n        /* \"#utility.yul\":12227:12234   */\n      0x00\n        /* \"#utility.yul\":12267:12271   */\n      0xff\n        /* \"#utility.yul\":12260:12265   */\n      dup3\n        /* \"#utility.yul\":12256:12272   */\n      and\n        /* \"#utility.yul\":12245:12272   */\n      swap1\n      pop\n        /* \"#utility.yul\":12192:12278   */\n      swap2\n      swap1\n      pop\n      jump\t// out\n        /* \"#utility.yul\":12284:12451   */\n    tag_108:\n        /* \"#utility.yul\":12321:12324   */\n      0x00\n        /* \"#utility.yul\":12344:12366   */\n      tag_361\n        /* \"#utility.yul\":12360:12365   */\n      dup3\n        /* \"#utility.yul\":12344:12366   */\n      tag_291\n      jump\t// in\n    tag_361:\n        /* \"#utility.yul\":12335:12366   */\n      swap2\n      pop\n        /* \"#utility.yul\":12388:12392   */\n      0xff\n        /* \"#utility.yul\":12381:12386   */\n      dup3\n        /* \"#utility.yul\":12378:12393   */\n      eq\n        /* \"#utility.yul\":12375:12416   */\n      iszero\n      tag_362\n      jumpi\n        /* \"#utility.yul\":12396:12414   */\n      tag_363\n      tag_334\n      jump\t// in\n    tag_363:\n        /* \"#utility.yul\":12375:12416   */\n    tag_362:\n        /* \"#utility.yul\":12443:12444   */\n      0x01\n        /* \"#utility.yul\":12436:12441   */\n      dup3\n        /* \"#utility.yul\":12432:12445   */\n      add\n        /* \"#utility.yul\":12425:12445   */\n      swap1\n      pop\n        /* \"#utility.yul\":12284:12451   */\n      swap2\n      swap1\n      pop\n      jump\t// out\n        /* \"#utility.yul\":12457:12633   */\n    tag_200:\n        /* \"#utility.yul\":12489:12490   */\n      0x00\n        /* \"#utility.yul\":12506:12526   */\n      tag_365\n        /* \"#utility.yul\":12524:12525   */\n      dup3\n        /* \"#utility.yul\":12506:12526   */\n      tag_287\n      jump\t// in\n    tag_365:\n        /* \"#utility.yul\":12501:12526   */\n      swap2\n      pop\n        /* \"#utility.yul\":12540:12560   */\n      tag_366\n        /* \"#utility.yul\":12558:12559   */\n      dup4\n        /* \"#utility.yul\":12540:12560   */\n      tag_287\n      jump\t// in\n    tag_366:\n        /* \"#utility.yul\":12535:12560   */\n      swap3\n      pop\n        /* \"#utility.yul\":12579:12580   */\n      dup3\n        /* \"#utility.yul\":12569:12604   */\n      tag_367\n      jumpi\n        /* \"#utility.yul\":12584:12602   */\n      tag_368\n      tag_345\n      jump\t// in\n    tag_368:\n        /* \"#utility.yul\":12569:12604   */\n    tag_367:\n        /* \"#utility.yul\":12625:12626   */\n      dup3\n        /* \"#utility.yul\":12622:12623   */\n      dup3\n        /* \"#utility.yul\":12618:12627   */\n      mod\n        /* \"#utility.yul\":12613:12627   */\n      swap1\n      pop\n        /* \"#utility.yul\":12457:12633   */\n      swap3\n      swap2\n      pop\n      pop\n      jump\t// out\n        /* \"#utility.yul\":12639:12819   */\n    tag_334:\n        /* \"#utility.yul\":12687:12764   */\n      0x4e487b7100000000000000000000000000000000000000000000000000000000\n        /* \"#utility.yul\":12684:12685   */\n      0x00\n        /* \"#utility.yul\":12677:12765   */\n      mstore\n        /* \"#utility.yul\":12784:12788   */\n      0x11\n        /* \"#utility.yul\":12781:12782   */\n      0x04\n        /* \"#utility.yul\":12774:12789   */\n      mstore\n        /* \"#utility.yul\":12808:12812   */\n      0x24\n        /* \"#utility.yul\":12805:12806   */\n      0x00\n        /* \"#utility.yul\":12798:12813   */\n      revert\n        /* \"#utility.yul\":12825:13005   */\n    tag_345:\n        /* \"#utility.yul\":12873:12950   */\n      0x4e487b7100000000000000000000000000000000000000000000000000000000\n        /* \"#utility.yul\":12870:12871   */\n      0x00\n        /* \"#utility.yul\":12863:12951   */\n      mstore\n        /* \"#utility.yul\":12970:12974   */\n      0x12\n        /* \"#utility.yul\":12967:12968   */\n      0x04\n        /* \"#utility.yul\":12960:12975   */\n      mstore\n        /* \"#utility.yul\":12994:12998   */\n      0x24\n        /* \"#utility.yul\":12991:12992   */\n      0x00\n        /* \"#utility.yul\":12984:12999   */\n      revert\n        /* \"#utility.yul\":13134:13251   */\n    tag_220:\n        /* \"#utility.yul\":13243:13244   */\n      0x00\n        /* \"#utility.yul\":13240:13241   */\n      dup1\n        /* \"#utility.yul\":13233:13245   */\n      revert\n        /* \"#utility.yul\":13257:13421   */\n    tag_257:\n        /* \"#utility.yul\":13397:13413   */\n      0x47616d65206e6f7420666f756e64000000000000000000000000000000000000\n        /* \"#utility.yul\":13393:13394   */\n      0x00\n        /* \"#utility.yul\":13385:13391   */\n      dup3\n        /* \"#utility.yul\":13381:13395   */\n      add\n        /* \"#utility.yul\":13374:13414   */\n      mstore\n        /* \"#utility.yul\":13257:13421   */\n      pop\n      jump\t// out\n        /* \"#utility.yul\":13427:13603   */\n    tag_262:\n        /* \"#utility.yul\":13567:13595   */\n      0x596f752061726520616c72656164792072656769737465726564000000000000\n        /* \"#utility.yul\":13563:13564   */\n      0x00\n        /* \"#utility.yul\":13555:13561   */\n      dup3\n        /* \"#utility.yul\":13551:13565   */\n      add\n        /* \"#utility.yul\":13544:13596   */\n      mstore\n        /* \"#utility.yul\":13427:13603   */\n      pop\n      jump\t// out\n        /* \"#utility.yul\":13609:13723   */\n    tag_268:\n      pop\n      jump\t// out\n        /* \"#utility.yul\":13729:13951   */\n    tag_273:\n        /* \"#utility.yul\":13869:13903   */\n      0x496e73756666696369656e7420616d6f756e74206f6620636f6e747269627574\n        /* \"#utility.yul\":13865:13866   */\n      0x00\n        /* \"#utility.yul\":13857:13863   */\n      dup3\n        /* \"#utility.yul\":13853:13867   */\n      add\n        /* \"#utility.yul\":13846:13904   */\n      mstore\n        /* \"#utility.yul\":13938:13943   */\n      0x696f6e0000000000000000000000000000000000000000000000000000000000\n        /* \"#utility.yul\":13933:13935   */\n      0x20\n        /* \"#utility.yul\":13925:13931   */\n      dup3\n        /* \"#utility.yul\":13921:13936   */\n      add\n        /* \"#utility.yul\":13914:13944   */\n      mstore\n        /* \"#utility.yul\":13729:13951   */\n      pop\n      jump\t// out\n        /* \"#utility.yul\":13957:14184   */\n    tag_278:\n        /* \"#utility.yul\":14097:14131   */\n      0x466f72207265676974657220696e2067616d6520796f75206e65656420706179\n        /* \"#utility.yul\":14093:14094   */\n      0x00\n        /* \"#utility.yul\":14085:14091   */\n      dup3\n        /* \"#utility.yul\":14081:14095   */\n      add\n        /* \"#utility.yul\":14074:14132   */\n      mstore\n        /* \"#utility.yul\":14166:14176   */\n      0x2031206574686572000000000000000000000000000000000000000000000000\n        /* \"#utility.yul\":14161:14163   */\n      0x20\n        /* \"#utility.yul\":14153:14159   */\n      dup3\n        /* \"#utility.yul\":14149:14164   */\n      add\n        /* \"#utility.yul\":14142:14177   */\n      mstore\n        /* \"#utility.yul\":13957:14184   */\n      pop\n      jump\t// out\n        /* \"#utility.yul\":14190:14352   */\n    tag_283:\n        /* \"#utility.yul\":14330:14344   */\n      0x4e6f20636f6e7472616374730000000000000000000000000000000000000000\n        /* \"#utility.yul\":14326:14327   */\n      0x00\n        /* \"#utility.yul\":14318:14324   */\n      dup3\n        /* \"#utility.yul\":14314:14328   */\n      add\n        /* \"#utility.yul\":14307:14345   */\n      mstore\n        /* \"#utility.yul\":14190:14352   */\n      pop\n      jump\t// out\n        /* \"#utility.yul\":14358:14480   */\n    tag_208:\n        /* \"#utility.yul\":14431:14455   */\n      tag_381\n        /* \"#utility.yul\":14449:14454   */\n      dup2\n        /* \"#utility.yul\":14431:14455   */\n      tag_247\n      jump\t// in\n    tag_381:\n        /* \"#utility.yul\":14424:14429   */\n      dup2\n        /* \"#utility.yul\":14421:14456   */\n      eq\n        /* \"#utility.yul\":14411:14474   */\n      tag_382\n      jumpi\n        /* \"#utility.yul\":14470:14471   */\n      0x00\n        /* \"#utility.yul\":14467:14468   */\n      dup1\n        /* \"#utility.yul\":14460:14472   */\n      revert\n        /* \"#utility.yul\":14411:14474   */\n    tag_382:\n        /* \"#utility.yul\":14358:14480   */\n      pop\n      jump\t// out\n        /* \"#utility.yul\":14486:14608   */\n    tag_212:\n        /* \"#utility.yul\":14559:14583   */\n      tag_384\n        /* \"#utility.yul\":14577:14582   */\n      dup2\n        /* \"#utility.yul\":14559:14583   */\n      tag_287\n      jump\t// in\n    tag_384:\n        /* \"#utility.yul\":14552:14557   */\n      dup2\n        /* \"#utility.yul\":14549:14584   */\n      eq\n        /* \"#utility.yul\":14539:14602   */\n      tag_385\n      jumpi\n        /* \"#utility.yul\":14598:14599   */\n      0x00\n        /* \"#utility.yul\":14595:14596   */\n      dup1\n        /* \"#utility.yul\":14588:14600   */\n      revert\n        /* \"#utility.yul\":14539:14602   */\n    tag_385:\n        /* \"#utility.yul\":14486:14608   */\n      pop\n      jump\t// out\n        /* \"#utility.yul\":14614:14732   */\n    tag_216:\n        /* \"#utility.yul\":14685:14707   */\n      tag_387\n        /* \"#utility.yul\":14701:14706   */\n      dup2\n        /* \"#utility.yul\":14685:14707   */\n      tag_291\n      jump\t// in\n    tag_387:\n        /* \"#utility.yul\":14678:14683   */\n      dup2\n        /* \"#utility.yul\":14675:14708   */\n      eq\n        /* \"#utility.yul\":14665:14726   */\n      tag_388\n      jumpi\n        /* \"#utility.yul\":14722:14723   */\n      0x00\n        /* \"#utility.yul\":14719:14720   */\n      dup1\n        /* \"#utility.yul\":14712:14724   */\n      revert\n        /* \"#utility.yul\":14665:14726   */\n    tag_388:\n        /* \"#utility.yul\":14614:14732   */\n      pop\n      jump\t// out\n\n    auxdata: 0xa264697066735822122027fb72d75f67e7fc7cd1c652bba5feff5d174e4e4a4e612e21251616de27ec3264736f6c63430008070033\n}\n",
				"bytecode": {
					"linkReferences": {},
					"object": "60806040523480156200001157600080fd5b50336001806101000a81548173ffffffffffffffffffffffffffffffffffffffff021916908373ffffffffffffffffffffffffffffffffffffffff16021790555060018054906101000a900473ffffffffffffffffffffffffffffffffffffffff166003600080815260200190815260200160002060006101000a81548173ffffffffffffffffffffffffffffffffffffffff021916908373ffffffffffffffffffffffffffffffffffffffff16021790555060405180606001604052806000815260200160018054906101000a900473ffffffffffffffffffffffffffffffffffffffff1673ffffffffffffffffffffffffffffffffffffffff16815260200160008152506004600060018054906101000a900473ffffffffffffffffffffffffffffffffffffffff1673ffffffffffffffffffffffffffffffffffffffff1673ffffffffffffffffffffffffffffffffffffffff1681526020019081526020016000206000820151816000015560208201518160010160006101000a81548173ffffffffffffffffffffffffffffffffffffffff021916908373ffffffffffffffffffffffffffffffffffffffff160217905550604082015181600201559050506001600081905550620001f5670de0b6b3a7640000620001fb60201b60201c565b62000403565b6200020c33620002f960201b60201c565b6200021657600080fd5b60405180602001604052808281525060026000600160009054906101000a900460ff1660ff1660ff1681526020019081526020016000206000820151816000015590505060018060008282829054906101000a900460ff166200027a91906200037f565b92506101000a81548160ff021916908360ff1602179055507fa0b7f6f22bb4f69adc52dd16ffe2a964ab8b577be274247fa9a1547b03ce3e5560026000600160009054906101000a900460ff1660ff1660ff16815260200190815260200160002060000154604051620002ee919062000362565b60405180910390a150565b600060018054906101000a900473ffffffffffffffffffffffffffffffffffffffff1673ffffffffffffffffffffffffffffffffffffffff168273ffffffffffffffffffffffffffffffffffffffff16149050919050565b6200035c81620003bd565b82525050565b600060208201905062000379600083018462000351565b92915050565b60006200038c82620003c7565b91506200039983620003c7565b92508260ff03821115620003b257620003b1620003d4565b5b828201905092915050565b6000819050919050565b600060ff82169050919050565b7f4e487b7100000000000000000000000000000000000000000000000000000000600052601160045260246000fd5b61212a80620004136000396000f3fe6080604052600436106100e15760003560e01c8063906cbf571161007f578063ad39f0a311610059578063ad39f0a314610310578063ae9283b51461033b578063bd233b9114610364578063f1060006146103a1576100f2565b8063906cbf571461025957806395a078e8146102965780639b0b0ae3146102d3576100f2565b80632e8aab9b116100bb5780632e8aab9b1461019657806347734892146101b2578063556c9095146101ef57806378a32e211461021a576100f2565b80630173c05b146100fe5780630e50cee51461011a5780632a648c8914610159576100f2565b366100f2576100f033346103de565b005b6100fc33346103de565b005b610118600480360381019061011391906119af565b6104a1565b005b34801561012657600080fd5b50610141600480360381019061013c9190611942565b610751565b60405161015093929190611c6c565b60405180910390f35b34801561016557600080fd5b50610180600480360381019061017b919061196f565b61079b565b60405161018d9190611b96565b60405180910390f35b6101b060048036038101906101ab91906119dc565b6107ca565b005b3480156101be57600080fd5b506101d960048036038101906101d49190611942565b610874565b6040516101e69190611c51565b60405180910390f35b3480156101fb57600080fd5b50610204610895565b6040516102119190611c51565b60405180910390f35b34801561022657600080fd5b50610241600480360381019061023c9190611a09565b61089b565b60405161025093929190611c6c565b60405180910390f35b34801561026557600080fd5b50610280600480360381019061027b91906119dc565b6108f2565b60405161028d9190611c51565b60405180910390f35b3480156102a257600080fd5b506102bd60048036038101906102b89190611942565b610910565b6040516102ca9190611b96565b60405180910390f35b3480156102df57600080fd5b506102fa60048036038101906102f591906119dc565b610968565b6040516103079190611c51565b60405180910390f35b34801561031c57600080fd5b50610325610980565b6040516103329190611d1f565b60405180910390f35b34801561034757600080fd5b50610362600480360381019061035d91906119af565b610993565b005b34801561037057600080fd5b5061038b600480360381019061038691906119af565b610a84565b6040516103989190611b7b565b60405180910390f35b3480156103ad57600080fd5b506103c860048036038101906103c3919061196f565b610ab7565b6040516103d59190611c51565b60405180910390f35b60008060005b60018060009054906101000a900460ff166103ff9190611dac565b60ff168160ff16101561044f5734600260008360ff1660ff16815260200190815260200160002060000154141561043c576001925080915061044f565b808061044790611ed5565b9150506103e4565b5081610490576040517f08c379a000000000000000000000000000000000000000000000000000000000815260040161048790611bb1565b60405180910390fd5b61049b818585610adc565b50505050565b600080339050803b915060008263ffffffff1611156104f5576040517f08c379a00000000000000000000000000000000000000000000000000000000081526004016104ec90611c31565b60405180910390fd5b600073ffffffffffffffffffffffffffffffffffffffff16600460003373ffffffffffffffffffffffffffffffffffffffff1673ffffffffffffffffffffffffffffffffffffffff16815260200190815260200160002060010160009054906101000a900473ffffffffffffffffffffffffffffffffffffffff1673ffffffffffffffffffffffffffffffffffffffff16146105c6576040517f08c379a00000000000000000000000000000000000000000000000000000000081526004016105bd90611bd1565b60405180910390fd5b670de0b6b3a76400003414610610576040517f08c379a000000000000000000000000000000000000000000000000000000000815260040161060790611c11565b60405180910390fd5b604051806060016040528060005481526020013373ffffffffffffffffffffffffffffffffffffffff16815260200184815250600460003373ffffffffffffffffffffffffffffffffffffffff1673ffffffffffffffffffffffffffffffffffffffff1681526020019081526020016000206000820151816000015560208201518160010160006101000a81548173ffffffffffffffffffffffffffffffffffffffff021916908373ffffffffffffffffffffffffffffffffffffffff1602179055506040820151816002015590505033600360008054815260200190815260200160002060006101000a81548173ffffffffffffffffffffffffffffffffffffffff021916908373ffffffffffffffffffffffffffffffffffffffff16021790555060016000808282546107459190611d56565b92505081905550505050565b60046020528060005260406000206000915090508060000154908060010160009054906101000a900473ffffffffffffffffffffffffffffffffffffffff16908060020154905083565b60086020528160005260406000206020528060005260406000206000915091509054906101000a900460ff1681565b600073ffffffffffffffffffffffffffffffffffffffff16600460003373ffffffffffffffffffffffffffffffffffffffff1673ffffffffffffffffffffffffffffffffffffffff16815260200190815260200160002060010160009054906101000a900473ffffffffffffffffffffffffffffffffffffffff1673ffffffffffffffffffffffffffffffffffffffff16141561086657600080fd5b610871813334610adc565b50565b60008173ffffffffffffffffffffffffffffffffffffffff16319050919050565b60005481565b6006602052816000526040600020602052806000526040600020600091509150508060000154908060010160009054906101000a900473ffffffffffffffffffffffffffffffffffffffff16908060020154905083565b60026020528060005260406000206000915090508060000154905081565b600060018054906101000a900473ffffffffffffffffffffffffffffffffffffffff1673ffffffffffffffffffffffffffffffffffffffff168273ffffffffffffffffffffffffffffffffffffffff16149050919050565b60056020528060005260406000206000915090505481565b600160009054906101000a900460ff1681565b61099c33610910565b6109a557600080fd5b60405180602001604052808281525060026000600160009054906101000a900460ff1660ff1660ff1681526020019081526020016000206000820151816000015590505060018060008282829054906101000a900460ff16610a079190611dac565b92506101000a81548160ff021916908360ff1602179055507fa0b7f6f22bb4f69adc52dd16ffe2a964ab8b577be274247fa9a1547b03ce3e5560026000600160009054906101000a900460ff1660ff1660ff16815260200190815260200160002060000154604051610a799190611c51565b60405180910390a150565b60036020528060005260406000206000915054906101000a900473ffffffffffffffffffffffffffffffffffffffff1681565b6007602052816000526040600020602052806000526040600020600091509150505481565b600260008460ff1660ff16815260200190815260200160002060000154811015610b3b576040517f08c379a0000000000000000000000000000000000000000000000000000000008152600401610b3290611bf1565b60405180910390fd5b600460008373ffffffffffffffffffffffffffffffffffffffff1673ffffffffffffffffffffffffffffffffffffffff168152602001908152602001600020600660008560ff1660ff1681526020019081526020016000206000600560008760ff1660ff168152602001908152602001600020548152602001908152602001600020600082015481600001556001820160009054906101000a900473ffffffffffffffffffffffffffffffffffffffff168160010160006101000a81548173ffffffffffffffffffffffffffffffffffffffff021916908373ffffffffffffffffffffffffffffffffffffffff160217905550600282015481600201559050506001600860008473ffffffffffffffffffffffffffffffffffffffff1673ffffffffffffffffffffffffffffffffffffffff16815260200190815260200160002060008560ff1660ff16815260200190815260200160002060006101000a81548160ff0219169083151502179055506003600560008560ff1660ff168152602001908152602001600020541061189c576000610cef600560008660ff1660ff168152602001908152602001600020546118d2565b90505b6000811461189a576000600660008660ff1660ff168152602001908152602001600020600083815260200190815260200160002060010160009054906101000a900473ffffffffffffffffffffffffffffffffffffffff1690506001600760008373ffffffffffffffffffffffffffffffffffffffff1673ffffffffffffffffffffffffffffffffffffffff16815260200190815260200160002060008760ff1660ff16815260200190815260200160002054111580610e1e5750600860008273ffffffffffffffffffffffffffffffffffffffff1673ffffffffffffffffffffffffffffffffffffffff1681526020019081526020016000206000600187610dfb9190611dac565b60ff1660ff16815260200190815260200160002060009054906101000a900460ff165b156118945760008173ffffffffffffffffffffffffffffffffffffffff166064604a600260008a60ff1660ff16815260200190815260200160002060000154610e679190611e14565b610e719190611de3565b604051610e7d90611b66565b60006040518083038185875af1925050503d8060008114610eba576040519150601f19603f3d011682016040523d82523d6000602084013e610ebf565b606091505b505090506001600760008473ffffffffffffffffffffffffffffffffffffffff1673ffffffffffffffffffffffffffffffffffffffff16815260200190815260200160002060008860ff1660ff1681526020019081526020016000206000828254610f2a9190611d56565b925050819055507f99af5599bf20c9414934ff2eb4264f5ac1a42fe0e5ec331366cf59ed0641c1bd600260008860ff1660ff168152602001908152602001600020600001548383604051610f8093929190611ca3565b60405180910390a16000600660008860ff1660ff16815260200190815260200160002060008581526020019081526020016000206000015490506000600660008960ff1660ff168152602001908152602001600020600086815260200190815260200160002060020154905060006064600a600260008c60ff1660ff168152602001908152602001600020600001546110199190611e14565b6110239190611de3565b90506003600083815260200190815260200160002060009054906101000a900473ffffffffffffffffffffffffffffffffffffffff1673ffffffffffffffffffffffffffffffffffffffff168160405161107c90611b66565b60006040518083038185875af1925050503d80600081146110b9576040519150601f19603f3d011682016040523d82523d6000602084013e6110be565b606091505b5050809450508315611124577f394d81fc6d726f376ac7e03cfb1bf07f04a993ec0a3fe7f4782e2ef8e5416145600260008b60ff1660ff1681526020019081526020016000206000015484848460405161111b9493929190611cda565b60405180910390a15b60646006600260008c60ff1660ff1681526020019081526020016000206000015461114f9190611e14565b6111599190611de3565b9050600460006003600085815260200190815260200160002060009054906101000a900473ffffffffffffffffffffffffffffffffffffffff1673ffffffffffffffffffffffffffffffffffffffff1673ffffffffffffffffffffffffffffffffffffffff16815260200190815260200160002060010160009054906101000a900473ffffffffffffffffffffffffffffffffffffffff1673ffffffffffffffffffffffffffffffffffffffff168160405161121490611b66565b60006040518083038185875af1925050503d8060008114611251576040519150601f19603f3d011682016040523d82523d6000602084013e611256565b606091505b5050809450508315611331577f394d81fc6d726f376ac7e03cfb1bf07f04a993ec0a3fe7f4782e2ef8e5416145600260008b60ff1660ff1681526020019081526020016000206000015483600460006003600088815260200190815260200160002060009054906101000a900473ffffffffffffffffffffffffffffffffffffffff1673ffffffffffffffffffffffffffffffffffffffff1673ffffffffffffffffffffffffffffffffffffffff16815260200190815260200160002060000154846040516113289493929190611cda565b60405180910390a15b60646004600260008c60ff1660ff1681526020019081526020016000206000015461135c9190611e14565b6113669190611de3565b90506004600060036000600460006003600089815260200190815260200160002060009054906101000a900473ffffffffffffffffffffffffffffffffffffffff1673ffffffffffffffffffffffffffffffffffffffff1673ffffffffffffffffffffffffffffffffffffffff16815260200190815260200160002060000154815260200190815260200160002060009054906101000a900473ffffffffffffffffffffffffffffffffffffffff1673ffffffffffffffffffffffffffffffffffffffff1673ffffffffffffffffffffffffffffffffffffffff16815260200190815260200160002060010160009054906101000a900473ffffffffffffffffffffffffffffffffffffffff1673ffffffffffffffffffffffffffffffffffffffff168160405161149690611b66565b60006040518083038185875af1925050503d80600081146114d3576040519150601f19603f3d011682016040523d82523d6000602084013e6114d8565b606091505b505080945050831561169d577f394d81fc6d726f376ac7e03cfb1bf07f04a993ec0a3fe7f4782e2ef8e5416145600260008b60ff1660ff16815260200190815260200160002060000154600460006003600087815260200190815260200160002060009054906101000a900473ffffffffffffffffffffffffffffffffffffffff1673ffffffffffffffffffffffffffffffffffffffff1673ffffffffffffffffffffffffffffffffffffffff16815260200190815260200160002060000154600460006003600060046000600360008c815260200190815260200160002060009054906101000a900473ffffffffffffffffffffffffffffffffffffffff1673ffffffffffffffffffffffffffffffffffffffff1673ffffffffffffffffffffffffffffffffffffffff16815260200190815260200160002060000154815260200190815260200160002060009054906101000a900473ffffffffffffffffffffffffffffffffffffffff1673ffffffffffffffffffffffffffffffffffffffff1673ffffffffffffffffffffffffffffffffffffffff16815260200190815260200160002060000154846040516116949493929190611cda565b60405180910390a15b60646006600260008c60ff1660ff168152602001908152602001600020600001546116c89190611e14565b6116d29190611de3565b90506004600060018054906101000a900473ffffffffffffffffffffffffffffffffffffffff1673ffffffffffffffffffffffffffffffffffffffff1673ffffffffffffffffffffffffffffffffffffffff16815260200190815260200160002060010160009054906101000a900473ffffffffffffffffffffffffffffffffffffffff1673ffffffffffffffffffffffffffffffffffffffff168160405161177a90611b66565b60006040518083038185875af1925050503d80600081146117b7576040519150601f19603f3d011682016040523d82523d6000602084013e6117bc565b606091505b5050809450508315611884577f394d81fc6d726f376ac7e03cfb1bf07f04a993ec0a3fe7f4782e2ef8e5416145600260008b60ff1660ff16815260200190815260200160002060000154846004600060018054906101000a900473ffffffffffffffffffffffffffffffffffffffff1673ffffffffffffffffffffffffffffffffffffffff1673ffffffffffffffffffffffffffffffffffffffff168152602001908152602001600020600001548460405161187b9493929190611cda565b60405180910390a15b61188d866118d2565b9550505050505b50610cf2565b505b6001600560008560ff1660ff16815260200190815260200160002060008282546118c69190611d56565b92505081905550505050565b6000806002836118e29190611eff565b146118f9576002826118f49190611de3565b6118fc565b60005b9050919050565b600081359050611912816120af565b92915050565b600081359050611927816120c6565b92915050565b60008135905061193c816120dd565b92915050565b60006020828403121561195857611957611f8e565b5b600061196684828501611903565b91505092915050565b6000806040838503121561198657611985611f8e565b5b600061199485828601611903565b92505060206119a58582860161192d565b9150509250929050565b6000602082840312156119c5576119c4611f8e565b5b60006119d384828501611918565b91505092915050565b6000602082840312156119f2576119f1611f8e565b5b6000611a008482850161192d565b91505092915050565b60008060408385031215611a2057611a1f611f8e565b5b6000611a2e8582860161192d565b9250506020611a3f85828601611918565b9150509250929050565b611a5281611e80565b82525050565b611a6181611e6e565b82525050565b611a7081611e92565b82525050565b6000611a83600e83611d45565b9150611a8e82611f93565b602082019050919050565b6000611aa6601a83611d45565b9150611ab182611fbc565b602082019050919050565b6000611ac9600083611d3a565b9150611ad482611fe5565b600082019050919050565b6000611aec602383611d45565b9150611af782611fe8565b604082019050919050565b6000611b0f602883611d45565b9150611b1a82612037565b604082019050919050565b6000611b32600c83611d45565b9150611b3d82612086565b602082019050919050565b611b5181611ebe565b82525050565b611b6081611ec8565b82525050565b6000611b7182611abc565b9150819050919050565b6000602082019050611b906000830184611a58565b92915050565b6000602082019050611bab6000830184611a67565b92915050565b60006020820190508181036000830152611bca81611a76565b9050919050565b60006020820190508181036000830152611bea81611a99565b9050919050565b60006020820190508181036000830152611c0a81611adf565b9050919050565b60006020820190508181036000830152611c2a81611b02565b9050919050565b60006020820190508181036000830152611c4a81611b25565b9050919050565b6000602082019050611c666000830184611b48565b92915050565b6000606082019050611c816000830186611b48565b611c8e6020830185611a49565b611c9b6040830184611b48565b949350505050565b6000606082019050611cb86000830186611b48565b611cc56020830185611a58565b611cd26040830184611a67565b949350505050565b6000608082019050611cef6000830187611b48565b611cfc6020830186611b48565b611d096040830185611b48565b611d166060830184611b48565b95945050505050565b6000602082019050611d346000830184611b57565b92915050565b600081905092915050565b600082825260208201905092915050565b6000611d6182611ebe565b9150611d6c83611ebe565b9250827fffffffffffffffffffffffffffffffffffffffffffffffffffffffffffffffff03821115611da157611da0611f30565b5b828201905092915050565b6000611db782611ec8565b9150611dc283611ec8565b92508260ff03821115611dd857611dd7611f30565b5b828201905092915050565b6000611dee82611ebe565b9150611df983611ebe565b925082611e0957611e08611f5f565b5b828204905092915050565b6000611e1f82611ebe565b9150611e2a83611ebe565b9250817fffffffffffffffffffffffffffffffffffffffffffffffffffffffffffffffff0483118215151615611e6357611e62611f30565b5b828202905092915050565b6000611e7982611e9e565b9050919050565b6000611e8b82611e9e565b9050919050565b60008115159050919050565b600073ffffffffffffffffffffffffffffffffffffffff82169050919050565b6000819050919050565b600060ff82169050919050565b6000611ee082611ec8565b915060ff821415611ef457611ef3611f30565b5b600182019050919050565b6000611f0a82611ebe565b9150611f1583611ebe565b925082611f2557611f24611f5f565b5b828206905092915050565b7f4e487b7100000000000000000000000000000000000000000000000000000000600052601160045260246000fd5b7f4e487b7100000000000000000000000000000000000000000000000000000000600052601260045260246000fd5b600080fd5b7f47616d65206e6f7420666f756e64000000000000000000000000000000000000600082015250565b7f596f752061726520616c72656164792072656769737465726564000000000000600082015250565b50565b7f496e73756666696369656e7420616d6f756e74206f6620636f6e74726962757460008201527f696f6e0000000000000000000000000000000000000000000000000000000000602082015250565b7f466f72207265676974657220696e2067616d6520796f75206e6565642070617960008201527f2031206574686572000000000000000000000000000000000000000000000000602082015250565b7f4e6f20636f6e7472616374730000000000000000000000000000000000000000600082015250565b6120b881611e6e565b81146120c357600080fd5b50565b6120cf81611ebe565b81146120da57600080fd5b50565b6120e681611ec8565b81146120f157600080fd5b5056fea264697066735822122027fb72d75f67e7fc7cd1c652bba5feff5d174e4e4a4e612e21251616de27ec3264736f6c63430008070033",
					"opcodes": "PUSH1 0x80 PUSH1 0x40 MSTORE CALLVALUE DUP1 ISZERO PUSH3 0x11 JUMPI PUSH1 0x0 DUP1 REVERT JUMPDEST POP CALLER PUSH1 0x1 DUP1 PUSH2 0x100 EXP DUP2 SLOAD DUP2 PUSH20 0xFFFFFFFFFFFFFFFFFFFFFFFFFFFFFFFFFFFFFFFF MUL NOT AND SWAP1 DUP4 PUSH20 0xFFFFFFFFFFFFFFFFFFFFFFFFFFFFFFFFFFFFFFFF AND MUL OR SWAP1 SSTORE POP PUSH1 0x1 DUP1 SLOAD SWAP1 PUSH2 0x100 EXP SWAP1 DIV PUSH20 0xFFFFFFFFFFFFFFFFFFFFFFFFFFFFFFFFFFFFFFFF AND PUSH1 0x3 PUSH1 0x0 DUP1 DUP2 MSTORE PUSH1 0x20 ADD SWAP1 DUP2 MSTORE PUSH1 0x20 ADD PUSH1 0x0 KECCAK256 PUSH1 0x0 PUSH2 0x100 EXP DUP2 SLOAD DUP2 PUSH20 0xFFFFFFFFFFFFFFFFFFFFFFFFFFFFFFFFFFFFFFFF MUL NOT AND SWAP1 DUP4 PUSH20 0xFFFFFFFFFFFFFFFFFFFFFFFFFFFFFFFFFFFFFFFF AND MUL OR SWAP1 SSTORE POP PUSH1 0x40 MLOAD DUP1 PUSH1 0x60 ADD PUSH1 0x40 MSTORE DUP1 PUSH1 0x0 DUP2 MSTORE PUSH1 0x20 ADD PUSH1 0x1 DUP1 SLOAD SWAP1 PUSH2 0x100 EXP SWAP1 DIV PUSH20 0xFFFFFFFFFFFFFFFFFFFFFFFFFFFFFFFFFFFFFFFF AND PUSH20 0xFFFFFFFFFFFFFFFFFFFFFFFFFFFFFFFFFFFFFFFF AND DUP2 MSTORE PUSH1 0x20 ADD PUSH1 0x0 DUP2 MSTORE POP PUSH1 0x4 PUSH1 0x0 PUSH1 0x1 DUP1 SLOAD SWAP1 PUSH2 0x100 EXP SWAP1 DIV PUSH20 0xFFFFFFFFFFFFFFFFFFFFFFFFFFFFFFFFFFFFFFFF AND PUSH20 0xFFFFFFFFFFFFFFFFFFFFFFFFFFFFFFFFFFFFFFFF AND PUSH20 0xFFFFFFFFFFFFFFFFFFFFFFFFFFFFFFFFFFFFFFFF AND DUP2 MSTORE PUSH1 0x20 ADD SWAP1 DUP2 MSTORE PUSH1 0x20 ADD PUSH1 0x0 KECCAK256 PUSH1 0x0 DUP3 ADD MLOAD DUP2 PUSH1 0x0 ADD SSTORE PUSH1 0x20 DUP3 ADD MLOAD DUP2 PUSH1 0x1 ADD PUSH1 0x0 PUSH2 0x100 EXP DUP2 SLOAD DUP2 PUSH20 0xFFFFFFFFFFFFFFFFFFFFFFFFFFFFFFFFFFFFFFFF MUL NOT AND SWAP1 DUP4 PUSH20 0xFFFFFFFFFFFFFFFFFFFFFFFFFFFFFFFFFFFFFFFF AND MUL OR SWAP1 SSTORE POP PUSH1 0x40 DUP3 ADD MLOAD DUP2 PUSH1 0x2 ADD SSTORE SWAP1 POP POP PUSH1 0x1 PUSH1 0x0 DUP2 SWAP1 SSTORE POP PUSH3 0x1F5 PUSH8 0xDE0B6B3A7640000 PUSH3 0x1FB PUSH1 0x20 SHL PUSH1 0x20 SHR JUMP JUMPDEST PUSH3 0x403 JUMP JUMPDEST PUSH3 0x20C CALLER PUSH3 0x2F9 PUSH1 0x20 SHL PUSH1 0x20 SHR JUMP JUMPDEST PUSH3 0x216 JUMPI PUSH1 0x0 DUP1 REVERT JUMPDEST PUSH1 0x40 MLOAD DUP1 PUSH1 0x20 ADD PUSH1 0x40 MSTORE DUP1 DUP3 DUP2 MSTORE POP PUSH1 0x2 PUSH1 0x0 PUSH1 0x1 PUSH1 0x0 SWAP1 SLOAD SWAP1 PUSH2 0x100 EXP SWAP1 DIV PUSH1 0xFF AND PUSH1 0xFF AND PUSH1 0xFF AND DUP2 MSTORE PUSH1 0x20 ADD SWAP1 DUP2 MSTORE PUSH1 0x20 ADD PUSH1 0x0 KECCAK256 PUSH1 0x0 DUP3 ADD MLOAD DUP2 PUSH1 0x0 ADD SSTORE SWAP1 POP POP PUSH1 0x1 DUP1 PUSH1 0x0 DUP3 DUP3 DUP3 SWAP1 SLOAD SWAP1 PUSH2 0x100 EXP SWAP1 DIV PUSH1 0xFF AND PUSH3 0x27A SWAP2 SWAP1 PUSH3 0x37F JUMP JUMPDEST SWAP3 POP PUSH2 0x100 EXP DUP2 SLOAD DUP2 PUSH1 0xFF MUL NOT AND SWAP1 DUP4 PUSH1 0xFF AND MUL OR SWAP1 SSTORE POP PUSH32 0xA0B7F6F22BB4F69ADC52DD16FFE2A964AB8B577BE274247FA9A1547B03CE3E55 PUSH1 0x2 PUSH1 0x0 PUSH1 0x1 PUSH1 0x0 SWAP1 SLOAD SWAP1 PUSH2 0x100 EXP SWAP1 DIV PUSH1 0xFF AND PUSH1 0xFF AND PUSH1 0xFF AND DUP2 MSTORE PUSH1 0x20 ADD SWAP1 DUP2 MSTORE PUSH1 0x20 ADD PUSH1 0x0 KECCAK256 PUSH1 0x0 ADD SLOAD PUSH1 0x40 MLOAD PUSH3 0x2EE SWAP2 SWAP1 PUSH3 0x362 JUMP JUMPDEST PUSH1 0x40 MLOAD DUP1 SWAP2 SUB SWAP1 LOG1 POP JUMP JUMPDEST PUSH1 0x0 PUSH1 0x1 DUP1 SLOAD SWAP1 PUSH2 0x100 EXP SWAP1 DIV PUSH20 0xFFFFFFFFFFFFFFFFFFFFFFFFFFFFFFFFFFFFFFFF AND PUSH20 0xFFFFFFFFFFFFFFFFFFFFFFFFFFFFFFFFFFFFFFFF AND DUP3 PUSH20 0xFFFFFFFFFFFFFFFFFFFFFFFFFFFFFFFFFFFFFFFF AND EQ SWAP1 POP SWAP2 SWAP1 POP JUMP JUMPDEST PUSH3 0x35C DUP2 PUSH3 0x3BD JUMP JUMPDEST DUP3 MSTORE POP POP JUMP JUMPDEST PUSH1 0x0 PUSH1 0x20 DUP3 ADD SWAP1 POP PUSH3 0x379 PUSH1 0x0 DUP4 ADD DUP5 PUSH3 0x351 JUMP JUMPDEST SWAP3 SWAP2 POP POP JUMP JUMPDEST PUSH1 0x0 PUSH3 0x38C DUP3 PUSH3 0x3C7 JUMP JUMPDEST SWAP2 POP PUSH3 0x399 DUP4 PUSH3 0x3C7 JUMP JUMPDEST SWAP3 POP DUP3 PUSH1 0xFF SUB DUP3 GT ISZERO PUSH3 0x3B2 JUMPI PUSH3 0x3B1 PUSH3 0x3D4 JUMP JUMPDEST JUMPDEST DUP3 DUP3 ADD SWAP1 POP SWAP3 SWAP2 POP POP JUMP JUMPDEST PUSH1 0x0 DUP2 SWAP1 POP SWAP2 SWAP1 POP JUMP JUMPDEST PUSH1 0x0 PUSH1 0xFF DUP3 AND SWAP1 POP SWAP2 SWAP1 POP JUMP JUMPDEST PUSH32 0x4E487B7100000000000000000000000000000000000000000000000000000000 PUSH1 0x0 MSTORE PUSH1 0x11 PUSH1 0x4 MSTORE PUSH1 0x24 PUSH1 0x0 REVERT JUMPDEST PUSH2 0x212A DUP1 PUSH3 0x413 PUSH1 0x0 CODECOPY PUSH1 0x0 RETURN INVALID PUSH1 0x80 PUSH1 0x40 MSTORE PUSH1 0x4 CALLDATASIZE LT PUSH2 0xE1 JUMPI PUSH1 0x0 CALLDATALOAD PUSH1 0xE0 SHR DUP1 PUSH4 0x906CBF57 GT PUSH2 0x7F JUMPI DUP1 PUSH4 0xAD39F0A3 GT PUSH2 0x59 JUMPI DUP1 PUSH4 0xAD39F0A3 EQ PUSH2 0x310 JUMPI DUP1 PUSH4 0xAE9283B5 EQ PUSH2 0x33B JUMPI DUP1 PUSH4 0xBD233B91 EQ PUSH2 0x364 JUMPI DUP1 PUSH4 0xF1060006 EQ PUSH2 0x3A1 JUMPI PUSH2 0xF2 JUMP JUMPDEST DUP1 PUSH4 0x906CBF57 EQ PUSH2 0x259 JUMPI DUP1 PUSH4 0x95A078E8 EQ PUSH2 0x296 JUMPI DUP1 PUSH4 0x9B0B0AE3 EQ PUSH2 0x2D3 JUMPI PUSH2 0xF2 JUMP JUMPDEST DUP1 PUSH4 0x2E8AAB9B GT PUSH2 0xBB JUMPI DUP1 PUSH4 0x2E8AAB9B EQ PUSH2 0x196 JUMPI DUP1 PUSH4 0x47734892 EQ PUSH2 0x1B2 JUMPI DUP1 PUSH4 0x556C9095 EQ PUSH2 0x1EF JUMPI DUP1 PUSH4 0x78A32E21 EQ PUSH2 0x21A JUMPI PUSH2 0xF2 JUMP JUMPDEST DUP1 PUSH4 0x173C05B EQ PUSH2 0xFE JUMPI DUP1 PUSH4 0xE50CEE5 EQ PUSH2 0x11A JUMPI DUP1 PUSH4 0x2A648C89 EQ PUSH2 0x159 JUMPI PUSH2 0xF2 JUMP JUMPDEST CALLDATASIZE PUSH2 0xF2 JUMPI PUSH2 0xF0 CALLER CALLVALUE PUSH2 0x3DE JUMP JUMPDEST STOP JUMPDEST PUSH2 0xFC CALLER CALLVALUE PUSH2 0x3DE JUMP JUMPDEST STOP JUMPDEST PUSH2 0x118 PUSH1 0x4 DUP1 CALLDATASIZE SUB DUP2 ADD SWAP1 PUSH2 0x113 SWAP2 SWAP1 PUSH2 0x19AF JUMP JUMPDEST PUSH2 0x4A1 JUMP JUMPDEST STOP JUMPDEST CALLVALUE DUP1 ISZERO PUSH2 0x126 JUMPI PUSH1 0x0 DUP1 REVERT JUMPDEST POP PUSH2 0x141 PUSH1 0x4 DUP1 CALLDATASIZE SUB DUP2 ADD SWAP1 PUSH2 0x13C SWAP2 SWAP1 PUSH2 0x1942 JUMP JUMPDEST PUSH2 0x751 JUMP JUMPDEST PUSH1 0x40 MLOAD PUSH2 0x150 SWAP4 SWAP3 SWAP2 SWAP1 PUSH2 0x1C6C JUMP JUMPDEST PUSH1 0x40 MLOAD DUP1 SWAP2 SUB SWAP1 RETURN JUMPDEST CALLVALUE DUP1 ISZERO PUSH2 0x165 JUMPI PUSH1 0x0 DUP1 REVERT JUMPDEST POP PUSH2 0x180 PUSH1 0x4 DUP1 CALLDATASIZE SUB DUP2 ADD SWAP1 PUSH2 0x17B SWAP2 SWAP1 PUSH2 0x196F JUMP JUMPDEST PUSH2 0x79B JUMP JUMPDEST PUSH1 0x40 MLOAD PUSH2 0x18D SWAP2 SWAP1 PUSH2 0x1B96 JUMP JUMPDEST PUSH1 0x40 MLOAD DUP1 SWAP2 SUB SWAP1 RETURN JUMPDEST PUSH2 0x1B0 PUSH1 0x4 DUP1 CALLDATASIZE SUB DUP2 ADD SWAP1 PUSH2 0x1AB SWAP2 SWAP1 PUSH2 0x19DC JUMP JUMPDEST PUSH2 0x7CA JUMP JUMPDEST STOP JUMPDEST CALLVALUE DUP1 ISZERO PUSH2 0x1BE JUMPI PUSH1 0x0 DUP1 REVERT JUMPDEST POP PUSH2 0x1D9 PUSH1 0x4 DUP1 CALLDATASIZE SUB DUP2 ADD SWAP1 PUSH2 0x1D4 SWAP2 SWAP1 PUSH2 0x1942 JUMP JUMPDEST PUSH2 0x874 JUMP JUMPDEST PUSH1 0x40 MLOAD PUSH2 0x1E6 SWAP2 SWAP1 PUSH2 0x1C51 JUMP JUMPDEST PUSH1 0x40 MLOAD DUP1 SWAP2 SUB SWAP1 RETURN JUMPDEST CALLVALUE DUP1 ISZERO PUSH2 0x1FB JUMPI PUSH1 0x0 DUP1 REVERT JUMPDEST POP PUSH2 0x204 PUSH2 0x895 JUMP JUMPDEST PUSH1 0x40 MLOAD PUSH2 0x211 SWAP2 SWAP1 PUSH2 0x1C51 JUMP JUMPDEST PUSH1 0x40 MLOAD DUP1 SWAP2 SUB SWAP1 RETURN JUMPDEST CALLVALUE DUP1 ISZERO PUSH2 0x226 JUMPI PUSH1 0x0 DUP1 REVERT JUMPDEST POP PUSH2 0x241 PUSH1 0x4 DUP1 CALLDATASIZE SUB DUP2 ADD SWAP1 PUSH2 0x23C SWAP2 SWAP1 PUSH2 0x1A09 JUMP JUMPDEST PUSH2 0x89B JUMP JUMPDEST PUSH1 0x40 MLOAD PUSH2 0x250 SWAP4 SWAP3 SWAP2 SWAP1 PUSH2 0x1C6C JUMP JUMPDEST PUSH1 0x40 MLOAD DUP1 SWAP2 SUB SWAP1 RETURN JUMPDEST CALLVALUE DUP1 ISZERO PUSH2 0x265 JUMPI PUSH1 0x0 DUP1 REVERT JUMPDEST POP PUSH2 0x280 PUSH1 0x4 DUP1 CALLDATASIZE SUB DUP2 ADD SWAP1 PUSH2 0x27B SWAP2 SWAP1 PUSH2 0x19DC JUMP JUMPDEST PUSH2 0x8F2 JUMP JUMPDEST PUSH1 0x40 MLOAD PUSH2 0x28D SWAP2 SWAP1 PUSH2 0x1C51 JUMP JUMPDEST PUSH1 0x40 MLOAD DUP1 SWAP2 SUB SWAP1 RETURN JUMPDEST CALLVALUE DUP1 ISZERO PUSH2 0x2A2 JUMPI PUSH1 0x0 DUP1 REVERT JUMPDEST POP PUSH2 0x2BD PUSH1 0x4 DUP1 CALLDATASIZE SUB DUP2 ADD SWAP1 PUSH2 0x2B8 SWAP2 SWAP1 PUSH2 0x1942 JUMP JUMPDEST PUSH2 0x910 JUMP JUMPDEST PUSH1 0x40 MLOAD PUSH2 0x2CA SWAP2 SWAP1 PUSH2 0x1B96 JUMP JUMPDEST PUSH1 0x40 MLOAD DUP1 SWAP2 SUB SWAP1 RETURN JUMPDEST CALLVALUE DUP1 ISZERO PUSH2 0x2DF JUMPI PUSH1 0x0 DUP1 REVERT JUMPDEST POP PUSH2 0x2FA PUSH1 0x4 DUP1 CALLDATASIZE SUB DUP2 ADD SWAP1 PUSH2 0x2F5 SWAP2 SWAP1 PUSH2 0x19DC JUMP JUMPDEST PUSH2 0x968 JUMP JUMPDEST PUSH1 0x40 MLOAD PUSH2 0x307 SWAP2 SWAP1 PUSH2 0x1C51 JUMP JUMPDEST PUSH1 0x40 MLOAD DUP1 SWAP2 SUB SWAP1 RETURN JUMPDEST CALLVALUE DUP1 ISZERO PUSH2 0x31C JUMPI PUSH1 0x0 DUP1 REVERT JUMPDEST POP PUSH2 0x325 PUSH2 0x980 JUMP JUMPDEST PUSH1 0x40 MLOAD PUSH2 0x332 SWAP2 SWAP1 PUSH2 0x1D1F JUMP JUMPDEST PUSH1 0x40 MLOAD DUP1 SWAP2 SUB SWAP1 RETURN JUMPDEST CALLVALUE DUP1 ISZERO PUSH2 0x347 JUMPI PUSH1 0x0 DUP1 REVERT JUMPDEST POP PUSH2 0x362 PUSH1 0x4 DUP1 CALLDATASIZE SUB DUP2 ADD SWAP1 PUSH2 0x35D SWAP2 SWAP1 PUSH2 0x19AF JUMP JUMPDEST PUSH2 0x993 JUMP JUMPDEST STOP JUMPDEST CALLVALUE DUP1 ISZERO PUSH2 0x370 JUMPI PUSH1 0x0 DUP1 REVERT JUMPDEST POP PUSH2 0x38B PUSH1 0x4 DUP1 CALLDATASIZE SUB DUP2 ADD SWAP1 PUSH2 0x386 SWAP2 SWAP1 PUSH2 0x19AF JUMP JUMPDEST PUSH2 0xA84 JUMP JUMPDEST PUSH1 0x40 MLOAD PUSH2 0x398 SWAP2 SWAP1 PUSH2 0x1B7B JUMP JUMPDEST PUSH1 0x40 MLOAD DUP1 SWAP2 SUB SWAP1 RETURN JUMPDEST CALLVALUE DUP1 ISZERO PUSH2 0x3AD JUMPI PUSH1 0x0 DUP1 REVERT JUMPDEST POP PUSH2 0x3C8 PUSH1 0x4 DUP1 CALLDATASIZE SUB DUP2 ADD SWAP1 PUSH2 0x3C3 SWAP2 SWAP1 PUSH2 0x196F JUMP JUMPDEST PUSH2 0xAB7 JUMP JUMPDEST PUSH1 0x40 MLOAD PUSH2 0x3D5 SWAP2 SWAP1 PUSH2 0x1C51 JUMP JUMPDEST PUSH1 0x40 MLOAD DUP1 SWAP2 SUB SWAP1 RETURN JUMPDEST PUSH1 0x0 DUP1 PUSH1 0x0 JUMPDEST PUSH1 0x1 DUP1 PUSH1 0x0 SWAP1 SLOAD SWAP1 PUSH2 0x100 EXP SWAP1 DIV PUSH1 0xFF AND PUSH2 0x3FF SWAP2 SWAP1 PUSH2 0x1DAC JUMP JUMPDEST PUSH1 0xFF AND DUP2 PUSH1 0xFF AND LT ISZERO PUSH2 0x44F JUMPI CALLVALUE PUSH1 0x2 PUSH1 0x0 DUP4 PUSH1 0xFF AND PUSH1 0xFF AND DUP2 MSTORE PUSH1 0x20 ADD SWAP1 DUP2 MSTORE PUSH1 0x20 ADD PUSH1 0x0 KECCAK256 PUSH1 0x0 ADD SLOAD EQ ISZERO PUSH2 0x43C JUMPI PUSH1 0x1 SWAP3 POP DUP1 SWAP2 POP PUSH2 0x44F JUMP JUMPDEST DUP1 DUP1 PUSH2 0x447 SWAP1 PUSH2 0x1ED5 JUMP JUMPDEST SWAP2 POP POP PUSH2 0x3E4 JUMP JUMPDEST POP DUP2 PUSH2 0x490 JUMPI PUSH1 0x40 MLOAD PUSH32 0x8C379A000000000000000000000000000000000000000000000000000000000 DUP2 MSTORE PUSH1 0x4 ADD PUSH2 0x487 SWAP1 PUSH2 0x1BB1 JUMP JUMPDEST PUSH1 0x40 MLOAD DUP1 SWAP2 SUB SWAP1 REVERT JUMPDEST PUSH2 0x49B DUP2 DUP6 DUP6 PUSH2 0xADC JUMP JUMPDEST POP POP POP POP JUMP JUMPDEST PUSH1 0x0 DUP1 CALLER SWAP1 POP DUP1 EXTCODESIZE SWAP2 POP PUSH1 0x0 DUP3 PUSH4 0xFFFFFFFF AND GT ISZERO PUSH2 0x4F5 JUMPI PUSH1 0x40 MLOAD PUSH32 0x8C379A000000000000000000000000000000000000000000000000000000000 DUP2 MSTORE PUSH1 0x4 ADD PUSH2 0x4EC SWAP1 PUSH2 0x1C31 JUMP JUMPDEST PUSH1 0x40 MLOAD DUP1 SWAP2 SUB SWAP1 REVERT JUMPDEST PUSH1 0x0 PUSH20 0xFFFFFFFFFFFFFFFFFFFFFFFFFFFFFFFFFFFFFFFF AND PUSH1 0x4 PUSH1 0x0 CALLER PUSH20 0xFFFFFFFFFFFFFFFFFFFFFFFFFFFFFFFFFFFFFFFF AND PUSH20 0xFFFFFFFFFFFFFFFFFFFFFFFFFFFFFFFFFFFFFFFF AND DUP2 MSTORE PUSH1 0x20 ADD SWAP1 DUP2 MSTORE PUSH1 0x20 ADD PUSH1 0x0 KECCAK256 PUSH1 0x1 ADD PUSH1 0x0 SWAP1 SLOAD SWAP1 PUSH2 0x100 EXP SWAP1 DIV PUSH20 0xFFFFFFFFFFFFFFFFFFFFFFFFFFFFFFFFFFFFFFFF AND PUSH20 0xFFFFFFFFFFFFFFFFFFFFFFFFFFFFFFFFFFFFFFFF AND EQ PUSH2 0x5C6 JUMPI PUSH1 0x40 MLOAD PUSH32 0x8C379A000000000000000000000000000000000000000000000000000000000 DUP2 MSTORE PUSH1 0x4 ADD PUSH2 0x5BD SWAP1 PUSH2 0x1BD1 JUMP JUMPDEST PUSH1 0x40 MLOAD DUP1 SWAP2 SUB SWAP1 REVERT JUMPDEST PUSH8 0xDE0B6B3A7640000 CALLVALUE EQ PUSH2 0x610 JUMPI PUSH1 0x40 MLOAD PUSH32 0x8C379A000000000000000000000000000000000000000000000000000000000 DUP2 MSTORE PUSH1 0x4 ADD PUSH2 0x607 SWAP1 PUSH2 0x1C11 JUMP JUMPDEST PUSH1 0x40 MLOAD DUP1 SWAP2 SUB SWAP1 REVERT JUMPDEST PUSH1 0x40 MLOAD DUP1 PUSH1 0x60 ADD PUSH1 0x40 MSTORE DUP1 PUSH1 0x0 SLOAD DUP2 MSTORE PUSH1 0x20 ADD CALLER PUSH20 0xFFFFFFFFFFFFFFFFFFFFFFFFFFFFFFFFFFFFFFFF AND DUP2 MSTORE PUSH1 0x20 ADD DUP5 DUP2 MSTORE POP PUSH1 0x4 PUSH1 0x0 CALLER PUSH20 0xFFFFFFFFFFFFFFFFFFFFFFFFFFFFFFFFFFFFFFFF AND PUSH20 0xFFFFFFFFFFFFFFFFFFFFFFFFFFFFFFFFFFFFFFFF AND DUP2 MSTORE PUSH1 0x20 ADD SWAP1 DUP2 MSTORE PUSH1 0x20 ADD PUSH1 0x0 KECCAK256 PUSH1 0x0 DUP3 ADD MLOAD DUP2 PUSH1 0x0 ADD SSTORE PUSH1 0x20 DUP3 ADD MLOAD DUP2 PUSH1 0x1 ADD PUSH1 0x0 PUSH2 0x100 EXP DUP2 SLOAD DUP2 PUSH20 0xFFFFFFFFFFFFFFFFFFFFFFFFFFFFFFFFFFFFFFFF MUL NOT AND SWAP1 DUP4 PUSH20 0xFFFFFFFFFFFFFFFFFFFFFFFFFFFFFFFFFFFFFFFF AND MUL OR SWAP1 SSTORE POP PUSH1 0x40 DUP3 ADD MLOAD DUP2 PUSH1 0x2 ADD SSTORE SWAP1 POP POP CALLER PUSH1 0x3 PUSH1 0x0 DUP1 SLOAD DUP2 MSTORE PUSH1 0x20 ADD SWAP1 DUP2 MSTORE PUSH1 0x20 ADD PUSH1 0x0 KECCAK256 PUSH1 0x0 PUSH2 0x100 EXP DUP2 SLOAD DUP2 PUSH20 0xFFFFFFFFFFFFFFFFFFFFFFFFFFFFFFFFFFFFFFFF MUL NOT AND SWAP1 DUP4 PUSH20 0xFFFFFFFFFFFFFFFFFFFFFFFFFFFFFFFFFFFFFFFF AND MUL OR SWAP1 SSTORE POP PUSH1 0x1 PUSH1 0x0 DUP1 DUP3 DUP3 SLOAD PUSH2 0x745 SWAP2 SWAP1 PUSH2 0x1D56 JUMP JUMPDEST SWAP3 POP POP DUP2 SWAP1 SSTORE POP POP POP POP JUMP JUMPDEST PUSH1 0x4 PUSH1 0x20 MSTORE DUP1 PUSH1 0x0 MSTORE PUSH1 0x40 PUSH1 0x0 KECCAK256 PUSH1 0x0 SWAP2 POP SWAP1 POP DUP1 PUSH1 0x0 ADD SLOAD SWAP1 DUP1 PUSH1 0x1 ADD PUSH1 0x0 SWAP1 SLOAD SWAP1 PUSH2 0x100 EXP SWAP1 DIV PUSH20 0xFFFFFFFFFFFFFFFFFFFFFFFFFFFFFFFFFFFFFFFF AND SWAP1 DUP1 PUSH1 0x2 ADD SLOAD SWAP1 POP DUP4 JUMP JUMPDEST PUSH1 0x8 PUSH1 0x20 MSTORE DUP2 PUSH1 0x0 MSTORE PUSH1 0x40 PUSH1 0x0 KECCAK256 PUSH1 0x20 MSTORE DUP1 PUSH1 0x0 MSTORE PUSH1 0x40 PUSH1 0x0 KECCAK256 PUSH1 0x0 SWAP2 POP SWAP2 POP SWAP1 SLOAD SWAP1 PUSH2 0x100 EXP SWAP1 DIV PUSH1 0xFF AND DUP2 JUMP JUMPDEST PUSH1 0x0 PUSH20 0xFFFFFFFFFFFFFFFFFFFFFFFFFFFFFFFFFFFFFFFF AND PUSH1 0x4 PUSH1 0x0 CALLER PUSH20 0xFFFFFFFFFFFFFFFFFFFFFFFFFFFFFFFFFFFFFFFF AND PUSH20 0xFFFFFFFFFFFFFFFFFFFFFFFFFFFFFFFFFFFFFFFF AND DUP2 MSTORE PUSH1 0x20 ADD SWAP1 DUP2 MSTORE PUSH1 0x20 ADD PUSH1 0x0 KECCAK256 PUSH1 0x1 ADD PUSH1 0x0 SWAP1 SLOAD SWAP1 PUSH2 0x100 EXP SWAP1 DIV PUSH20 0xFFFFFFFFFFFFFFFFFFFFFFFFFFFFFFFFFFFFFFFF AND PUSH20 0xFFFFFFFFFFFFFFFFFFFFFFFFFFFFFFFFFFFFFFFF AND EQ ISZERO PUSH2 0x866 JUMPI PUSH1 0x0 DUP1 REVERT JUMPDEST PUSH2 0x871 DUP2 CALLER CALLVALUE PUSH2 0xADC JUMP JUMPDEST POP JUMP JUMPDEST PUSH1 0x0 DUP2 PUSH20 0xFFFFFFFFFFFFFFFFFFFFFFFFFFFFFFFFFFFFFFFF AND BALANCE SWAP1 POP SWAP2 SWAP1 POP JUMP JUMPDEST PUSH1 0x0 SLOAD DUP2 JUMP JUMPDEST PUSH1 0x6 PUSH1 0x20 MSTORE DUP2 PUSH1 0x0 MSTORE PUSH1 0x40 PUSH1 0x0 KECCAK256 PUSH1 0x20 MSTORE DUP1 PUSH1 0x0 MSTORE PUSH1 0x40 PUSH1 0x0 KECCAK256 PUSH1 0x0 SWAP2 POP SWAP2 POP POP DUP1 PUSH1 0x0 ADD SLOAD SWAP1 DUP1 PUSH1 0x1 ADD PUSH1 0x0 SWAP1 SLOAD SWAP1 PUSH2 0x100 EXP SWAP1 DIV PUSH20 0xFFFFFFFFFFFFFFFFFFFFFFFFFFFFFFFFFFFFFFFF AND SWAP1 DUP1 PUSH1 0x2 ADD SLOAD SWAP1 POP DUP4 JUMP JUMPDEST PUSH1 0x2 PUSH1 0x20 MSTORE DUP1 PUSH1 0x0 MSTORE PUSH1 0x40 PUSH1 0x0 KECCAK256 PUSH1 0x0 SWAP2 POP SWAP1 POP DUP1 PUSH1 0x0 ADD SLOAD SWAP1 POP DUP2 JUMP JUMPDEST PUSH1 0x0 PUSH1 0x1 DUP1 SLOAD SWAP1 PUSH2 0x100 EXP SWAP1 DIV PUSH20 0xFFFFFFFFFFFFFFFFFFFFFFFFFFFFFFFFFFFFFFFF AND PUSH20 0xFFFFFFFFFFFFFFFFFFFFFFFFFFFFFFFFFFFFFFFF AND DUP3 PUSH20 0xFFFFFFFFFFFFFFFFFFFFFFFFFFFFFFFFFFFFFFFF AND EQ SWAP1 POP SWAP2 SWAP1 POP JUMP JUMPDEST PUSH1 0x5 PUSH1 0x20 MSTORE DUP1 PUSH1 0x0 MSTORE PUSH1 0x40 PUSH1 0x0 KECCAK256 PUSH1 0x0 SWAP2 POP SWAP1 POP SLOAD DUP2 JUMP JUMPDEST PUSH1 0x1 PUSH1 0x0 SWAP1 SLOAD SWAP1 PUSH2 0x100 EXP SWAP1 DIV PUSH1 0xFF AND DUP2 JUMP JUMPDEST PUSH2 0x99C CALLER PUSH2 0x910 JUMP JUMPDEST PUSH2 0x9A5 JUMPI PUSH1 0x0 DUP1 REVERT JUMPDEST PUSH1 0x40 MLOAD DUP1 PUSH1 0x20 ADD PUSH1 0x40 MSTORE DUP1 DUP3 DUP2 MSTORE POP PUSH1 0x2 PUSH1 0x0 PUSH1 0x1 PUSH1 0x0 SWAP1 SLOAD SWAP1 PUSH2 0x100 EXP SWAP1 DIV PUSH1 0xFF AND PUSH1 0xFF AND PUSH1 0xFF AND DUP2 MSTORE PUSH1 0x20 ADD SWAP1 DUP2 MSTORE PUSH1 0x20 ADD PUSH1 0x0 KECCAK256 PUSH1 0x0 DUP3 ADD MLOAD DUP2 PUSH1 0x0 ADD SSTORE SWAP1 POP POP PUSH1 0x1 DUP1 PUSH1 0x0 DUP3 DUP3 DUP3 SWAP1 SLOAD SWAP1 PUSH2 0x100 EXP SWAP1 DIV PUSH1 0xFF AND PUSH2 0xA07 SWAP2 SWAP1 PUSH2 0x1DAC JUMP JUMPDEST SWAP3 POP PUSH2 0x100 EXP DUP2 SLOAD DUP2 PUSH1 0xFF MUL NOT AND SWAP1 DUP4 PUSH1 0xFF AND MUL OR SWAP1 SSTORE POP PUSH32 0xA0B7F6F22BB4F69ADC52DD16FFE2A964AB8B577BE274247FA9A1547B03CE3E55 PUSH1 0x2 PUSH1 0x0 PUSH1 0x1 PUSH1 0x0 SWAP1 SLOAD SWAP1 PUSH2 0x100 EXP SWAP1 DIV PUSH1 0xFF AND PUSH1 0xFF AND PUSH1 0xFF AND DUP2 MSTORE PUSH1 0x20 ADD SWAP1 DUP2 MSTORE PUSH1 0x20 ADD PUSH1 0x0 KECCAK256 PUSH1 0x0 ADD SLOAD PUSH1 0x40 MLOAD PUSH2 0xA79 SWAP2 SWAP1 PUSH2 0x1C51 JUMP JUMPDEST PUSH1 0x40 MLOAD DUP1 SWAP2 SUB SWAP1 LOG1 POP JUMP JUMPDEST PUSH1 0x3 PUSH1 0x20 MSTORE DUP1 PUSH1 0x0 MSTORE PUSH1 0x40 PUSH1 0x0 KECCAK256 PUSH1 0x0 SWAP2 POP SLOAD SWAP1 PUSH2 0x100 EXP SWAP1 DIV PUSH20 0xFFFFFFFFFFFFFFFFFFFFFFFFFFFFFFFFFFFFFFFF AND DUP2 JUMP JUMPDEST PUSH1 0x7 PUSH1 0x20 MSTORE DUP2 PUSH1 0x0 MSTORE PUSH1 0x40 PUSH1 0x0 KECCAK256 PUSH1 0x20 MSTORE DUP1 PUSH1 0x0 MSTORE PUSH1 0x40 PUSH1 0x0 KECCAK256 PUSH1 0x0 SWAP2 POP SWAP2 POP POP SLOAD DUP2 JUMP JUMPDEST PUSH1 0x2 PUSH1 0x0 DUP5 PUSH1 0xFF AND PUSH1 0xFF AND DUP2 MSTORE PUSH1 0x20 ADD SWAP1 DUP2 MSTORE PUSH1 0x20 ADD PUSH1 0x0 KECCAK256 PUSH1 0x0 ADD SLOAD DUP2 LT ISZERO PUSH2 0xB3B JUMPI PUSH1 0x40 MLOAD PUSH32 0x8C379A000000000000000000000000000000000000000000000000000000000 DUP2 MSTORE PUSH1 0x4 ADD PUSH2 0xB32 SWAP1 PUSH2 0x1BF1 JUMP JUMPDEST PUSH1 0x40 MLOAD DUP1 SWAP2 SUB SWAP1 REVERT JUMPDEST PUSH1 0x4 PUSH1 0x0 DUP4 PUSH20 0xFFFFFFFFFFFFFFFFFFFFFFFFFFFFFFFFFFFFFFFF AND PUSH20 0xFFFFFFFFFFFFFFFFFFFFFFFFFFFFFFFFFFFFFFFF AND DUP2 MSTORE PUSH1 0x20 ADD SWAP1 DUP2 MSTORE PUSH1 0x20 ADD PUSH1 0x0 KECCAK256 PUSH1 0x6 PUSH1 0x0 DUP6 PUSH1 0xFF AND PUSH1 0xFF AND DUP2 MSTORE PUSH1 0x20 ADD SWAP1 DUP2 MSTORE PUSH1 0x20 ADD PUSH1 0x0 KECCAK256 PUSH1 0x0 PUSH1 0x5 PUSH1 0x0 DUP8 PUSH1 0xFF AND PUSH1 0xFF AND DUP2 MSTORE PUSH1 0x20 ADD SWAP1 DUP2 MSTORE PUSH1 0x20 ADD PUSH1 0x0 KECCAK256 SLOAD DUP2 MSTORE PUSH1 0x20 ADD SWAP1 DUP2 MSTORE PUSH1 0x20 ADD PUSH1 0x0 KECCAK256 PUSH1 0x0 DUP3 ADD SLOAD DUP2 PUSH1 0x0 ADD SSTORE PUSH1 0x1 DUP3 ADD PUSH1 0x0 SWAP1 SLOAD SWAP1 PUSH2 0x100 EXP SWAP1 DIV PUSH20 0xFFFFFFFFFFFFFFFFFFFFFFFFFFFFFFFFFFFFFFFF AND DUP2 PUSH1 0x1 ADD PUSH1 0x0 PUSH2 0x100 EXP DUP2 SLOAD DUP2 PUSH20 0xFFFFFFFFFFFFFFFFFFFFFFFFFFFFFFFFFFFFFFFF MUL NOT AND SWAP1 DUP4 PUSH20 0xFFFFFFFFFFFFFFFFFFFFFFFFFFFFFFFFFFFFFFFF AND MUL OR SWAP1 SSTORE POP PUSH1 0x2 DUP3 ADD SLOAD DUP2 PUSH1 0x2 ADD SSTORE SWAP1 POP POP PUSH1 0x1 PUSH1 0x8 PUSH1 0x0 DUP5 PUSH20 0xFFFFFFFFFFFFFFFFFFFFFFFFFFFFFFFFFFFFFFFF AND PUSH20 0xFFFFFFFFFFFFFFFFFFFFFFFFFFFFFFFFFFFFFFFF AND DUP2 MSTORE PUSH1 0x20 ADD SWAP1 DUP2 MSTORE PUSH1 0x20 ADD PUSH1 0x0 KECCAK256 PUSH1 0x0 DUP6 PUSH1 0xFF AND PUSH1 0xFF AND DUP2 MSTORE PUSH1 0x20 ADD SWAP1 DUP2 MSTORE PUSH1 0x20 ADD PUSH1 0x0 KECCAK256 PUSH1 0x0 PUSH2 0x100 EXP DUP2 SLOAD DUP2 PUSH1 0xFF MUL NOT AND SWAP1 DUP4 ISZERO ISZERO MUL OR SWAP1 SSTORE POP PUSH1 0x3 PUSH1 0x5 PUSH1 0x0 DUP6 PUSH1 0xFF AND PUSH1 0xFF AND DUP2 MSTORE PUSH1 0x20 ADD SWAP1 DUP2 MSTORE PUSH1 0x20 ADD PUSH1 0x0 KECCAK256 SLOAD LT PUSH2 0x189C JUMPI PUSH1 0x0 PUSH2 0xCEF PUSH1 0x5 PUSH1 0x0 DUP7 PUSH1 0xFF AND PUSH1 0xFF AND DUP2 MSTORE PUSH1 0x20 ADD SWAP1 DUP2 MSTORE PUSH1 0x20 ADD PUSH1 0x0 KECCAK256 SLOAD PUSH2 0x18D2 JUMP JUMPDEST SWAP1 POP JUMPDEST PUSH1 0x0 DUP2 EQ PUSH2 0x189A JUMPI PUSH1 0x0 PUSH1 0x6 PUSH1 0x0 DUP7 PUSH1 0xFF AND PUSH1 0xFF AND DUP2 MSTORE PUSH1 0x20 ADD SWAP1 DUP2 MSTORE PUSH1 0x20 ADD PUSH1 0x0 KECCAK256 PUSH1 0x0 DUP4 DUP2 MSTORE PUSH1 0x20 ADD SWAP1 DUP2 MSTORE PUSH1 0x20 ADD PUSH1 0x0 KECCAK256 PUSH1 0x1 ADD PUSH1 0x0 SWAP1 SLOAD SWAP1 PUSH2 0x100 EXP SWAP1 DIV PUSH20 0xFFFFFFFFFFFFFFFFFFFFFFFFFFFFFFFFFFFFFFFF AND SWAP1 POP PUSH1 0x1 PUSH1 0x7 PUSH1 0x0 DUP4 PUSH20 0xFFFFFFFFFFFFFFFFFFFFFFFFFFFFFFFFFFFFFFFF AND PUSH20 0xFFFFFFFFFFFFFFFFFFFFFFFFFFFFFFFFFFFFFFFF AND DUP2 MSTORE PUSH1 0x20 ADD SWAP1 DUP2 MSTORE PUSH1 0x20 ADD PUSH1 0x0 KECCAK256 PUSH1 0x0 DUP8 PUSH1 0xFF AND PUSH1 0xFF AND DUP2 MSTORE PUSH1 0x20 ADD SWAP1 DUP2 MSTORE PUSH1 0x20 ADD PUSH1 0x0 KECCAK256 SLOAD GT ISZERO DUP1 PUSH2 0xE1E JUMPI POP PUSH1 0x8 PUSH1 0x0 DUP3 PUSH20 0xFFFFFFFFFFFFFFFFFFFFFFFFFFFFFFFFFFFFFFFF AND PUSH20 0xFFFFFFFFFFFFFFFFFFFFFFFFFFFFFFFFFFFFFFFF AND DUP2 MSTORE PUSH1 0x20 ADD SWAP1 DUP2 MSTORE PUSH1 0x20 ADD PUSH1 0x0 KECCAK256 PUSH1 0x0 PUSH1 0x1 DUP8 PUSH2 0xDFB SWAP2 SWAP1 PUSH2 0x1DAC JUMP JUMPDEST PUSH1 0xFF AND PUSH1 0xFF AND DUP2 MSTORE PUSH1 0x20 ADD SWAP1 DUP2 MSTORE PUSH1 0x20 ADD PUSH1 0x0 KECCAK256 PUSH1 0x0 SWAP1 SLOAD SWAP1 PUSH2 0x100 EXP SWAP1 DIV PUSH1 0xFF AND JUMPDEST ISZERO PUSH2 0x1894 JUMPI PUSH1 0x0 DUP2 PUSH20 0xFFFFFFFFFFFFFFFFFFFFFFFFFFFFFFFFFFFFFFFF AND PUSH1 0x64 PUSH1 0x4A PUSH1 0x2 PUSH1 0x0 DUP11 PUSH1 0xFF AND PUSH1 0xFF AND DUP2 MSTORE PUSH1 0x20 ADD SWAP1 DUP2 MSTORE PUSH1 0x20 ADD PUSH1 0x0 KECCAK256 PUSH1 0x0 ADD SLOAD PUSH2 0xE67 SWAP2 SWAP1 PUSH2 0x1E14 JUMP JUMPDEST PUSH2 0xE71 SWAP2 SWAP1 PUSH2 0x1DE3 JUMP JUMPDEST PUSH1 0x40 MLOAD PUSH2 0xE7D SWAP1 PUSH2 0x1B66 JUMP JUMPDEST PUSH1 0x0 PUSH1 0x40 MLOAD DUP1 DUP4 SUB DUP2 DUP6 DUP8 GAS CALL SWAP3 POP POP POP RETURNDATASIZE DUP1 PUSH1 0x0 DUP2 EQ PUSH2 0xEBA JUMPI PUSH1 0x40 MLOAD SWAP2 POP PUSH1 0x1F NOT PUSH1 0x3F RETURNDATASIZE ADD AND DUP3 ADD PUSH1 0x40 MSTORE RETURNDATASIZE DUP3 MSTORE RETURNDATASIZE PUSH1 0x0 PUSH1 0x20 DUP5 ADD RETURNDATACOPY PUSH2 0xEBF JUMP JUMPDEST PUSH1 0x60 SWAP2 POP JUMPDEST POP POP SWAP1 POP PUSH1 0x1 PUSH1 0x7 PUSH1 0x0 DUP5 PUSH20 0xFFFFFFFFFFFFFFFFFFFFFFFFFFFFFFFFFFFFFFFF AND PUSH20 0xFFFFFFFFFFFFFFFFFFFFFFFFFFFFFFFFFFFFFFFF AND DUP2 MSTORE PUSH1 0x20 ADD SWAP1 DUP2 MSTORE PUSH1 0x20 ADD PUSH1 0x0 KECCAK256 PUSH1 0x0 DUP9 PUSH1 0xFF AND PUSH1 0xFF AND DUP2 MSTORE PUSH1 0x20 ADD SWAP1 DUP2 MSTORE PUSH1 0x20 ADD PUSH1 0x0 KECCAK256 PUSH1 0x0 DUP3 DUP3 SLOAD PUSH2 0xF2A SWAP2 SWAP1 PUSH2 0x1D56 JUMP JUMPDEST SWAP3 POP POP DUP2 SWAP1 SSTORE POP PUSH32 0x99AF5599BF20C9414934FF2EB4264F5AC1A42FE0E5EC331366CF59ED0641C1BD PUSH1 0x2 PUSH1 0x0 DUP9 PUSH1 0xFF AND PUSH1 0xFF AND DUP2 MSTORE PUSH1 0x20 ADD SWAP1 DUP2 MSTORE PUSH1 0x20 ADD PUSH1 0x0 KECCAK256 PUSH1 0x0 ADD SLOAD DUP4 DUP4 PUSH1 0x40 MLOAD PUSH2 0xF80 SWAP4 SWAP3 SWAP2 SWAP1 PUSH2 0x1CA3 JUMP JUMPDEST PUSH1 0x40 MLOAD DUP1 SWAP2 SUB SWAP1 LOG1 PUSH1 0x0 PUSH1 0x6 PUSH1 0x0 DUP9 PUSH1 0xFF AND PUSH1 0xFF AND DUP2 MSTORE PUSH1 0x20 ADD SWAP1 DUP2 MSTORE PUSH1 0x20 ADD PUSH1 0x0 KECCAK256 PUSH1 0x0 DUP6 DUP2 MSTORE PUSH1 0x20 ADD SWAP1 DUP2 MSTORE PUSH1 0x20 ADD PUSH1 0x0 KECCAK256 PUSH1 0x0 ADD SLOAD SWAP1 POP PUSH1 0x0 PUSH1 0x6 PUSH1 0x0 DUP10 PUSH1 0xFF AND PUSH1 0xFF AND DUP2 MSTORE PUSH1 0x20 ADD SWAP1 DUP2 MSTORE PUSH1 0x20 ADD PUSH1 0x0 KECCAK256 PUSH1 0x0 DUP7 DUP2 MSTORE PUSH1 0x20 ADD SWAP1 DUP2 MSTORE PUSH1 0x20 ADD PUSH1 0x0 KECCAK256 PUSH1 0x2 ADD SLOAD SWAP1 POP PUSH1 0x0 PUSH1 0x64 PUSH1 0xA PUSH1 0x2 PUSH1 0x0 DUP13 PUSH1 0xFF AND PUSH1 0xFF AND DUP2 MSTORE PUSH1 0x20 ADD SWAP1 DUP2 MSTORE PUSH1 0x20 ADD PUSH1 0x0 KECCAK256 PUSH1 0x0 ADD SLOAD PUSH2 0x1019 SWAP2 SWAP1 PUSH2 0x1E14 JUMP JUMPDEST PUSH2 0x1023 SWAP2 SWAP1 PUSH2 0x1DE3 JUMP JUMPDEST SWAP1 POP PUSH1 0x3 PUSH1 0x0 DUP4 DUP2 MSTORE PUSH1 0x20 ADD SWAP1 DUP2 MSTORE PUSH1 0x20 ADD PUSH1 0x0 KECCAK256 PUSH1 0x0 SWAP1 SLOAD SWAP1 PUSH2 0x100 EXP SWAP1 DIV PUSH20 0xFFFFFFFFFFFFFFFFFFFFFFFFFFFFFFFFFFFFFFFF AND PUSH20 0xFFFFFFFFFFFFFFFFFFFFFFFFFFFFFFFFFFFFFFFF AND DUP2 PUSH1 0x40 MLOAD PUSH2 0x107C SWAP1 PUSH2 0x1B66 JUMP JUMPDEST PUSH1 0x0 PUSH1 0x40 MLOAD DUP1 DUP4 SUB DUP2 DUP6 DUP8 GAS CALL SWAP3 POP POP POP RETURNDATASIZE DUP1 PUSH1 0x0 DUP2 EQ PUSH2 0x10B9 JUMPI PUSH1 0x40 MLOAD SWAP2 POP PUSH1 0x1F NOT PUSH1 0x3F RETURNDATASIZE ADD AND DUP3 ADD PUSH1 0x40 MSTORE RETURNDATASIZE DUP3 MSTORE RETURNDATASIZE PUSH1 0x0 PUSH1 0x20 DUP5 ADD RETURNDATACOPY PUSH2 0x10BE JUMP JUMPDEST PUSH1 0x60 SWAP2 POP JUMPDEST POP POP DUP1 SWAP5 POP POP DUP4 ISZERO PUSH2 0x1124 JUMPI PUSH32 0x394D81FC6D726F376AC7E03CFB1BF07F04A993EC0A3FE7F4782E2EF8E5416145 PUSH1 0x2 PUSH1 0x0 DUP12 PUSH1 0xFF AND PUSH1 0xFF AND DUP2 MSTORE PUSH1 0x20 ADD SWAP1 DUP2 MSTORE PUSH1 0x20 ADD PUSH1 0x0 KECCAK256 PUSH1 0x0 ADD SLOAD DUP5 DUP5 DUP5 PUSH1 0x40 MLOAD PUSH2 0x111B SWAP5 SWAP4 SWAP3 SWAP2 SWAP1 PUSH2 0x1CDA JUMP JUMPDEST PUSH1 0x40 MLOAD DUP1 SWAP2 SUB SWAP1 LOG1 JUMPDEST PUSH1 0x64 PUSH1 0x6 PUSH1 0x2 PUSH1 0x0 DUP13 PUSH1 0xFF AND PUSH1 0xFF AND DUP2 MSTORE PUSH1 0x20 ADD SWAP1 DUP2 MSTORE PUSH1 0x20 ADD PUSH1 0x0 KECCAK256 PUSH1 0x0 ADD SLOAD PUSH2 0x114F SWAP2 SWAP1 PUSH2 0x1E14 JUMP JUMPDEST PUSH2 0x1159 SWAP2 SWAP1 PUSH2 0x1DE3 JUMP JUMPDEST SWAP1 POP PUSH1 0x4 PUSH1 0x0 PUSH1 0x3 PUSH1 0x0 DUP6 DUP2 MSTORE PUSH1 0x20 ADD SWAP1 DUP2 MSTORE PUSH1 0x20 ADD PUSH1 0x0 KECCAK256 PUSH1 0x0 SWAP1 SLOAD SWAP1 PUSH2 0x100 EXP SWAP1 DIV PUSH20 0xFFFFFFFFFFFFFFFFFFFFFFFFFFFFFFFFFFFFFFFF AND PUSH20 0xFFFFFFFFFFFFFFFFFFFFFFFFFFFFFFFFFFFFFFFF AND PUSH20 0xFFFFFFFFFFFFFFFFFFFFFFFFFFFFFFFFFFFFFFFF AND DUP2 MSTORE PUSH1 0x20 ADD SWAP1 DUP2 MSTORE PUSH1 0x20 ADD PUSH1 0x0 KECCAK256 PUSH1 0x1 ADD PUSH1 0x0 SWAP1 SLOAD SWAP1 PUSH2 0x100 EXP SWAP1 DIV PUSH20 0xFFFFFFFFFFFFFFFFFFFFFFFFFFFFFFFFFFFFFFFF AND PUSH20 0xFFFFFFFFFFFFFFFFFFFFFFFFFFFFFFFFFFFFFFFF AND DUP2 PUSH1 0x40 MLOAD PUSH2 0x1214 SWAP1 PUSH2 0x1B66 JUMP JUMPDEST PUSH1 0x0 PUSH1 0x40 MLOAD DUP1 DUP4 SUB DUP2 DUP6 DUP8 GAS CALL SWAP3 POP POP POP RETURNDATASIZE DUP1 PUSH1 0x0 DUP2 EQ PUSH2 0x1251 JUMPI PUSH1 0x40 MLOAD SWAP2 POP PUSH1 0x1F NOT PUSH1 0x3F RETURNDATASIZE ADD AND DUP3 ADD PUSH1 0x40 MSTORE RETURNDATASIZE DUP3 MSTORE RETURNDATASIZE PUSH1 0x0 PUSH1 0x20 DUP5 ADD RETURNDATACOPY PUSH2 0x1256 JUMP JUMPDEST PUSH1 0x60 SWAP2 POP JUMPDEST POP POP DUP1 SWAP5 POP POP DUP4 ISZERO PUSH2 0x1331 JUMPI PUSH32 0x394D81FC6D726F376AC7E03CFB1BF07F04A993EC0A3FE7F4782E2EF8E5416145 PUSH1 0x2 PUSH1 0x0 DUP12 PUSH1 0xFF AND PUSH1 0xFF AND DUP2 MSTORE PUSH1 0x20 ADD SWAP1 DUP2 MSTORE PUSH1 0x20 ADD PUSH1 0x0 KECCAK256 PUSH1 0x0 ADD SLOAD DUP4 PUSH1 0x4 PUSH1 0x0 PUSH1 0x3 PUSH1 0x0 DUP9 DUP2 MSTORE PUSH1 0x20 ADD SWAP1 DUP2 MSTORE PUSH1 0x20 ADD PUSH1 0x0 KECCAK256 PUSH1 0x0 SWAP1 SLOAD SWAP1 PUSH2 0x100 EXP SWAP1 DIV PUSH20 0xFFFFFFFFFFFFFFFFFFFFFFFFFFFFFFFFFFFFFFFF AND PUSH20 0xFFFFFFFFFFFFFFFFFFFFFFFFFFFFFFFFFFFFFFFF AND PUSH20 0xFFFFFFFFFFFFFFFFFFFFFFFFFFFFFFFFFFFFFFFF AND DUP2 MSTORE PUSH1 0x20 ADD SWAP1 DUP2 MSTORE PUSH1 0x20 ADD PUSH1 0x0 KECCAK256 PUSH1 0x0 ADD SLOAD DUP5 PUSH1 0x40 MLOAD PUSH2 0x1328 SWAP5 SWAP4 SWAP3 SWAP2 SWAP1 PUSH2 0x1CDA JUMP JUMPDEST PUSH1 0x40 MLOAD DUP1 SWAP2 SUB SWAP1 LOG1 JUMPDEST PUSH1 0x64 PUSH1 0x4 PUSH1 0x2 PUSH1 0x0 DUP13 PUSH1 0xFF AND PUSH1 0xFF AND DUP2 MSTORE PUSH1 0x20 ADD SWAP1 DUP2 MSTORE PUSH1 0x20 ADD PUSH1 0x0 KECCAK256 PUSH1 0x0 ADD SLOAD PUSH2 0x135C SWAP2 SWAP1 PUSH2 0x1E14 JUMP JUMPDEST PUSH2 0x1366 SWAP2 SWAP1 PUSH2 0x1DE3 JUMP JUMPDEST SWAP1 POP PUSH1 0x4 PUSH1 0x0 PUSH1 0x3 PUSH1 0x0 PUSH1 0x4 PUSH1 0x0 PUSH1 0x3 PUSH1 0x0 DUP10 DUP2 MSTORE PUSH1 0x20 ADD SWAP1 DUP2 MSTORE PUSH1 0x20 ADD PUSH1 0x0 KECCAK256 PUSH1 0x0 SWAP1 SLOAD SWAP1 PUSH2 0x100 EXP SWAP1 DIV PUSH20 0xFFFFFFFFFFFFFFFFFFFFFFFFFFFFFFFFFFFFFFFF AND PUSH20 0xFFFFFFFFFFFFFFFFFFFFFFFFFFFFFFFFFFFFFFFF AND PUSH20 0xFFFFFFFFFFFFFFFFFFFFFFFFFFFFFFFFFFFFFFFF AND DUP2 MSTORE PUSH1 0x20 ADD SWAP1 DUP2 MSTORE PUSH1 0x20 ADD PUSH1 0x0 KECCAK256 PUSH1 0x0 ADD SLOAD DUP2 MSTORE PUSH1 0x20 ADD SWAP1 DUP2 MSTORE PUSH1 0x20 ADD PUSH1 0x0 KECCAK256 PUSH1 0x0 SWAP1 SLOAD SWAP1 PUSH2 0x100 EXP SWAP1 DIV PUSH20 0xFFFFFFFFFFFFFFFFFFFFFFFFFFFFFFFFFFFFFFFF AND PUSH20 0xFFFFFFFFFFFFFFFFFFFFFFFFFFFFFFFFFFFFFFFF AND PUSH20 0xFFFFFFFFFFFFFFFFFFFFFFFFFFFFFFFFFFFFFFFF AND DUP2 MSTORE PUSH1 0x20 ADD SWAP1 DUP2 MSTORE PUSH1 0x20 ADD PUSH1 0x0 KECCAK256 PUSH1 0x1 ADD PUSH1 0x0 SWAP1 SLOAD SWAP1 PUSH2 0x100 EXP SWAP1 DIV PUSH20 0xFFFFFFFFFFFFFFFFFFFFFFFFFFFFFFFFFFFFFFFF AND PUSH20 0xFFFFFFFFFFFFFFFFFFFFFFFFFFFFFFFFFFFFFFFF AND DUP2 PUSH1 0x40 MLOAD PUSH2 0x1496 SWAP1 PUSH2 0x1B66 JUMP JUMPDEST PUSH1 0x0 PUSH1 0x40 MLOAD DUP1 DUP4 SUB DUP2 DUP6 DUP8 GAS CALL SWAP3 POP POP POP RETURNDATASIZE DUP1 PUSH1 0x0 DUP2 EQ PUSH2 0x14D3 JUMPI PUSH1 0x40 MLOAD SWAP2 POP PUSH1 0x1F NOT PUSH1 0x3F RETURNDATASIZE ADD AND DUP3 ADD PUSH1 0x40 MSTORE RETURNDATASIZE DUP3 MSTORE RETURNDATASIZE PUSH1 0x0 PUSH1 0x20 DUP5 ADD RETURNDATACOPY PUSH2 0x14D8 JUMP JUMPDEST PUSH1 0x60 SWAP2 POP JUMPDEST POP POP DUP1 SWAP5 POP POP DUP4 ISZERO PUSH2 0x169D JUMPI PUSH32 0x394D81FC6D726F376AC7E03CFB1BF07F04A993EC0A3FE7F4782E2EF8E5416145 PUSH1 0x2 PUSH1 0x0 DUP12 PUSH1 0xFF AND PUSH1 0xFF AND DUP2 MSTORE PUSH1 0x20 ADD SWAP1 DUP2 MSTORE PUSH1 0x20 ADD PUSH1 0x0 KECCAK256 PUSH1 0x0 ADD SLOAD PUSH1 0x4 PUSH1 0x0 PUSH1 0x3 PUSH1 0x0 DUP8 DUP2 MSTORE PUSH1 0x20 ADD SWAP1 DUP2 MSTORE PUSH1 0x20 ADD PUSH1 0x0 KECCAK256 PUSH1 0x0 SWAP1 SLOAD SWAP1 PUSH2 0x100 EXP SWAP1 DIV PUSH20 0xFFFFFFFFFFFFFFFFFFFFFFFFFFFFFFFFFFFFFFFF AND PUSH20 0xFFFFFFFFFFFFFFFFFFFFFFFFFFFFFFFFFFFFFFFF AND PUSH20 0xFFFFFFFFFFFFFFFFFFFFFFFFFFFFFFFFFFFFFFFF AND DUP2 MSTORE PUSH1 0x20 ADD SWAP1 DUP2 MSTORE PUSH1 0x20 ADD PUSH1 0x0 KECCAK256 PUSH1 0x0 ADD SLOAD PUSH1 0x4 PUSH1 0x0 PUSH1 0x3 PUSH1 0x0 PUSH1 0x4 PUSH1 0x0 PUSH1 0x3 PUSH1 0x0 DUP13 DUP2 MSTORE PUSH1 0x20 ADD SWAP1 DUP2 MSTORE PUSH1 0x20 ADD PUSH1 0x0 KECCAK256 PUSH1 0x0 SWAP1 SLOAD SWAP1 PUSH2 0x100 EXP SWAP1 DIV PUSH20 0xFFFFFFFFFFFFFFFFFFFFFFFFFFFFFFFFFFFFFFFF AND PUSH20 0xFFFFFFFFFFFFFFFFFFFFFFFFFFFFFFFFFFFFFFFF AND PUSH20 0xFFFFFFFFFFFFFFFFFFFFFFFFFFFFFFFFFFFFFFFF AND DUP2 MSTORE PUSH1 0x20 ADD SWAP1 DUP2 MSTORE PUSH1 0x20 ADD PUSH1 0x0 KECCAK256 PUSH1 0x0 ADD SLOAD DUP2 MSTORE PUSH1 0x20 ADD SWAP1 DUP2 MSTORE PUSH1 0x20 ADD PUSH1 0x0 KECCAK256 PUSH1 0x0 SWAP1 SLOAD SWAP1 PUSH2 0x100 EXP SWAP1 DIV PUSH20 0xFFFFFFFFFFFFFFFFFFFFFFFFFFFFFFFFFFFFFFFF AND PUSH20 0xFFFFFFFFFFFFFFFFFFFFFFFFFFFFFFFFFFFFFFFF AND PUSH20 0xFFFFFFFFFFFFFFFFFFFFFFFFFFFFFFFFFFFFFFFF AND DUP2 MSTORE PUSH1 0x20 ADD SWAP1 DUP2 MSTORE PUSH1 0x20 ADD PUSH1 0x0 KECCAK256 PUSH1 0x0 ADD SLOAD DUP5 PUSH1 0x40 MLOAD PUSH2 0x1694 SWAP5 SWAP4 SWAP3 SWAP2 SWAP1 PUSH2 0x1CDA JUMP JUMPDEST PUSH1 0x40 MLOAD DUP1 SWAP2 SUB SWAP1 LOG1 JUMPDEST PUSH1 0x64 PUSH1 0x6 PUSH1 0x2 PUSH1 0x0 DUP13 PUSH1 0xFF AND PUSH1 0xFF AND DUP2 MSTORE PUSH1 0x20 ADD SWAP1 DUP2 MSTORE PUSH1 0x20 ADD PUSH1 0x0 KECCAK256 PUSH1 0x0 ADD SLOAD PUSH2 0x16C8 SWAP2 SWAP1 PUSH2 0x1E14 JUMP JUMPDEST PUSH2 0x16D2 SWAP2 SWAP1 PUSH2 0x1DE3 JUMP JUMPDEST SWAP1 POP PUSH1 0x4 PUSH1 0x0 PUSH1 0x1 DUP1 SLOAD SWAP1 PUSH2 0x100 EXP SWAP1 DIV PUSH20 0xFFFFFFFFFFFFFFFFFFFFFFFFFFFFFFFFFFFFFFFF AND PUSH20 0xFFFFFFFFFFFFFFFFFFFFFFFFFFFFFFFFFFFFFFFF AND PUSH20 0xFFFFFFFFFFFFFFFFFFFFFFFFFFFFFFFFFFFFFFFF AND DUP2 MSTORE PUSH1 0x20 ADD SWAP1 DUP2 MSTORE PUSH1 0x20 ADD PUSH1 0x0 KECCAK256 PUSH1 0x1 ADD PUSH1 0x0 SWAP1 SLOAD SWAP1 PUSH2 0x100 EXP SWAP1 DIV PUSH20 0xFFFFFFFFFFFFFFFFFFFFFFFFFFFFFFFFFFFFFFFF AND PUSH20 0xFFFFFFFFFFFFFFFFFFFFFFFFFFFFFFFFFFFFFFFF AND DUP2 PUSH1 0x40 MLOAD PUSH2 0x177A SWAP1 PUSH2 0x1B66 JUMP JUMPDEST PUSH1 0x0 PUSH1 0x40 MLOAD DUP1 DUP4 SUB DUP2 DUP6 DUP8 GAS CALL SWAP3 POP POP POP RETURNDATASIZE DUP1 PUSH1 0x0 DUP2 EQ PUSH2 0x17B7 JUMPI PUSH1 0x40 MLOAD SWAP2 POP PUSH1 0x1F NOT PUSH1 0x3F RETURNDATASIZE ADD AND DUP3 ADD PUSH1 0x40 MSTORE RETURNDATASIZE DUP3 MSTORE RETURNDATASIZE PUSH1 0x0 PUSH1 0x20 DUP5 ADD RETURNDATACOPY PUSH2 0x17BC JUMP JUMPDEST PUSH1 0x60 SWAP2 POP JUMPDEST POP POP DUP1 SWAP5 POP POP DUP4 ISZERO PUSH2 0x1884 JUMPI PUSH32 0x394D81FC6D726F376AC7E03CFB1BF07F04A993EC0A3FE7F4782E2EF8E5416145 PUSH1 0x2 PUSH1 0x0 DUP12 PUSH1 0xFF AND PUSH1 0xFF AND DUP2 MSTORE PUSH1 0x20 ADD SWAP1 DUP2 MSTORE PUSH1 0x20 ADD PUSH1 0x0 KECCAK256 PUSH1 0x0 ADD SLOAD DUP5 PUSH1 0x4 PUSH1 0x0 PUSH1 0x1 DUP1 SLOAD SWAP1 PUSH2 0x100 EXP SWAP1 DIV PUSH20 0xFFFFFFFFFFFFFFFFFFFFFFFFFFFFFFFFFFFFFFFF AND PUSH20 0xFFFFFFFFFFFFFFFFFFFFFFFFFFFFFFFFFFFFFFFF AND PUSH20 0xFFFFFFFFFFFFFFFFFFFFFFFFFFFFFFFFFFFFFFFF AND DUP2 MSTORE PUSH1 0x20 ADD SWAP1 DUP2 MSTORE PUSH1 0x20 ADD PUSH1 0x0 KECCAK256 PUSH1 0x0 ADD SLOAD DUP5 PUSH1 0x40 MLOAD PUSH2 0x187B SWAP5 SWAP4 SWAP3 SWAP2 SWAP1 PUSH2 0x1CDA JUMP JUMPDEST PUSH1 0x40 MLOAD DUP1 SWAP2 SUB SWAP1 LOG1 JUMPDEST PUSH2 0x188D DUP7 PUSH2 0x18D2 JUMP JUMPDEST SWAP6 POP POP POP POP POP JUMPDEST POP PUSH2 0xCF2 JUMP JUMPDEST POP JUMPDEST PUSH1 0x1 PUSH1 0x5 PUSH1 0x0 DUP6 PUSH1 0xFF AND PUSH1 0xFF AND DUP2 MSTORE PUSH1 0x20 ADD SWAP1 DUP2 MSTORE PUSH1 0x20 ADD PUSH1 0x0 KECCAK256 PUSH1 0x0 DUP3 DUP3 SLOAD PUSH2 0x18C6 SWAP2 SWAP1 PUSH2 0x1D56 JUMP JUMPDEST SWAP3 POP POP DUP2 SWAP1 SSTORE POP POP POP POP JUMP JUMPDEST PUSH1 0x0 DUP1 PUSH1 0x2 DUP4 PUSH2 0x18E2 SWAP2 SWAP1 PUSH2 0x1EFF JUMP JUMPDEST EQ PUSH2 0x18F9 JUMPI PUSH1 0x2 DUP3 PUSH2 0x18F4 SWAP2 SWAP1 PUSH2 0x1DE3 JUMP JUMPDEST PUSH2 0x18FC JUMP JUMPDEST PUSH1 0x0 JUMPDEST SWAP1 POP SWAP2 SWAP1 POP JUMP JUMPDEST PUSH1 0x0 DUP2 CALLDATALOAD SWAP1 POP PUSH2 0x1912 DUP2 PUSH2 0x20AF JUMP JUMPDEST SWAP3 SWAP2 POP POP JUMP JUMPDEST PUSH1 0x0 DUP2 CALLDATALOAD SWAP1 POP PUSH2 0x1927 DUP2 PUSH2 0x20C6 JUMP JUMPDEST SWAP3 SWAP2 POP POP JUMP JUMPDEST PUSH1 0x0 DUP2 CALLDATALOAD SWAP1 POP PUSH2 0x193C DUP2 PUSH2 0x20DD JUMP JUMPDEST SWAP3 SWAP2 POP POP JUMP JUMPDEST PUSH1 0x0 PUSH1 0x20 DUP3 DUP5 SUB SLT ISZERO PUSH2 0x1958 JUMPI PUSH2 0x1957 PUSH2 0x1F8E JUMP JUMPDEST JUMPDEST PUSH1 0x0 PUSH2 0x1966 DUP5 DUP3 DUP6 ADD PUSH2 0x1903 JUMP JUMPDEST SWAP2 POP POP SWAP3 SWAP2 POP POP JUMP JUMPDEST PUSH1 0x0 DUP1 PUSH1 0x40 DUP4 DUP6 SUB SLT ISZERO PUSH2 0x1986 JUMPI PUSH2 0x1985 PUSH2 0x1F8E JUMP JUMPDEST JUMPDEST PUSH1 0x0 PUSH2 0x1994 DUP6 DUP3 DUP7 ADD PUSH2 0x1903 JUMP JUMPDEST SWAP3 POP POP PUSH1 0x20 PUSH2 0x19A5 DUP6 DUP3 DUP7 ADD PUSH2 0x192D JUMP JUMPDEST SWAP2 POP POP SWAP3 POP SWAP3 SWAP1 POP JUMP JUMPDEST PUSH1 0x0 PUSH1 0x20 DUP3 DUP5 SUB SLT ISZERO PUSH2 0x19C5 JUMPI PUSH2 0x19C4 PUSH2 0x1F8E JUMP JUMPDEST JUMPDEST PUSH1 0x0 PUSH2 0x19D3 DUP5 DUP3 DUP6 ADD PUSH2 0x1918 JUMP JUMPDEST SWAP2 POP POP SWAP3 SWAP2 POP POP JUMP JUMPDEST PUSH1 0x0 PUSH1 0x20 DUP3 DUP5 SUB SLT ISZERO PUSH2 0x19F2 JUMPI PUSH2 0x19F1 PUSH2 0x1F8E JUMP JUMPDEST JUMPDEST PUSH1 0x0 PUSH2 0x1A00 DUP5 DUP3 DUP6 ADD PUSH2 0x192D JUMP JUMPDEST SWAP2 POP POP SWAP3 SWAP2 POP POP JUMP JUMPDEST PUSH1 0x0 DUP1 PUSH1 0x40 DUP4 DUP6 SUB SLT ISZERO PUSH2 0x1A20 JUMPI PUSH2 0x1A1F PUSH2 0x1F8E JUMP JUMPDEST JUMPDEST PUSH1 0x0 PUSH2 0x1A2E DUP6 DUP3 DUP7 ADD PUSH2 0x192D JUMP JUMPDEST SWAP3 POP POP PUSH1 0x20 PUSH2 0x1A3F DUP6 DUP3 DUP7 ADD PUSH2 0x1918 JUMP JUMPDEST SWAP2 POP POP SWAP3 POP SWAP3 SWAP1 POP JUMP JUMPDEST PUSH2 0x1A52 DUP2 PUSH2 0x1E80 JUMP JUMPDEST DUP3 MSTORE POP POP JUMP JUMPDEST PUSH2 0x1A61 DUP2 PUSH2 0x1E6E JUMP JUMPDEST DUP3 MSTORE POP POP JUMP JUMPDEST PUSH2 0x1A70 DUP2 PUSH2 0x1E92 JUMP JUMPDEST DUP3 MSTORE POP POP JUMP JUMPDEST PUSH1 0x0 PUSH2 0x1A83 PUSH1 0xE DUP4 PUSH2 0x1D45 JUMP JUMPDEST SWAP2 POP PUSH2 0x1A8E DUP3 PUSH2 0x1F93 JUMP JUMPDEST PUSH1 0x20 DUP3 ADD SWAP1 POP SWAP2 SWAP1 POP JUMP JUMPDEST PUSH1 0x0 PUSH2 0x1AA6 PUSH1 0x1A DUP4 PUSH2 0x1D45 JUMP JUMPDEST SWAP2 POP PUSH2 0x1AB1 DUP3 PUSH2 0x1FBC JUMP JUMPDEST PUSH1 0x20 DUP3 ADD SWAP1 POP SWAP2 SWAP1 POP JUMP JUMPDEST PUSH1 0x0 PUSH2 0x1AC9 PUSH1 0x0 DUP4 PUSH2 0x1D3A JUMP JUMPDEST SWAP2 POP PUSH2 0x1AD4 DUP3 PUSH2 0x1FE5 JUMP JUMPDEST PUSH1 0x0 DUP3 ADD SWAP1 POP SWAP2 SWAP1 POP JUMP JUMPDEST PUSH1 0x0 PUSH2 0x1AEC PUSH1 0x23 DUP4 PUSH2 0x1D45 JUMP JUMPDEST SWAP2 POP PUSH2 0x1AF7 DUP3 PUSH2 0x1FE8 JUMP JUMPDEST PUSH1 0x40 DUP3 ADD SWAP1 POP SWAP2 SWAP1 POP JUMP JUMPDEST PUSH1 0x0 PUSH2 0x1B0F PUSH1 0x28 DUP4 PUSH2 0x1D45 JUMP JUMPDEST SWAP2 POP PUSH2 0x1B1A DUP3 PUSH2 0x2037 JUMP JUMPDEST PUSH1 0x40 DUP3 ADD SWAP1 POP SWAP2 SWAP1 POP JUMP JUMPDEST PUSH1 0x0 PUSH2 0x1B32 PUSH1 0xC DUP4 PUSH2 0x1D45 JUMP JUMPDEST SWAP2 POP PUSH2 0x1B3D DUP3 PUSH2 0x2086 JUMP JUMPDEST PUSH1 0x20 DUP3 ADD SWAP1 POP SWAP2 SWAP1 POP JUMP JUMPDEST PUSH2 0x1B51 DUP2 PUSH2 0x1EBE JUMP JUMPDEST DUP3 MSTORE POP POP JUMP JUMPDEST PUSH2 0x1B60 DUP2 PUSH2 0x1EC8 JUMP JUMPDEST DUP3 MSTORE POP POP JUMP JUMPDEST PUSH1 0x0 PUSH2 0x1B71 DUP3 PUSH2 0x1ABC JUMP JUMPDEST SWAP2 POP DUP2 SWAP1 POP SWAP2 SWAP1 POP JUMP JUMPDEST PUSH1 0x0 PUSH1 0x20 DUP3 ADD SWAP1 POP PUSH2 0x1B90 PUSH1 0x0 DUP4 ADD DUP5 PUSH2 0x1A58 JUMP JUMPDEST SWAP3 SWAP2 POP POP JUMP JUMPDEST PUSH1 0x0 PUSH1 0x20 DUP3 ADD SWAP1 POP PUSH2 0x1BAB PUSH1 0x0 DUP4 ADD DUP5 PUSH2 0x1A67 JUMP JUMPDEST SWAP3 SWAP2 POP POP JUMP JUMPDEST PUSH1 0x0 PUSH1 0x20 DUP3 ADD SWAP1 POP DUP2 DUP2 SUB PUSH1 0x0 DUP4 ADD MSTORE PUSH2 0x1BCA DUP2 PUSH2 0x1A76 JUMP JUMPDEST SWAP1 POP SWAP2 SWAP1 POP JUMP JUMPDEST PUSH1 0x0 PUSH1 0x20 DUP3 ADD SWAP1 POP DUP2 DUP2 SUB PUSH1 0x0 DUP4 ADD MSTORE PUSH2 0x1BEA DUP2 PUSH2 0x1A99 JUMP JUMPDEST SWAP1 POP SWAP2 SWAP1 POP JUMP JUMPDEST PUSH1 0x0 PUSH1 0x20 DUP3 ADD SWAP1 POP DUP2 DUP2 SUB PUSH1 0x0 DUP4 ADD MSTORE PUSH2 0x1C0A DUP2 PUSH2 0x1ADF JUMP JUMPDEST SWAP1 POP SWAP2 SWAP1 POP JUMP JUMPDEST PUSH1 0x0 PUSH1 0x20 DUP3 ADD SWAP1 POP DUP2 DUP2 SUB PUSH1 0x0 DUP4 ADD MSTORE PUSH2 0x1C2A DUP2 PUSH2 0x1B02 JUMP JUMPDEST SWAP1 POP SWAP2 SWAP1 POP JUMP JUMPDEST PUSH1 0x0 PUSH1 0x20 DUP3 ADD SWAP1 POP DUP2 DUP2 SUB PUSH1 0x0 DUP4 ADD MSTORE PUSH2 0x1C4A DUP2 PUSH2 0x1B25 JUMP JUMPDEST SWAP1 POP SWAP2 SWAP1 POP JUMP JUMPDEST PUSH1 0x0 PUSH1 0x20 DUP3 ADD SWAP1 POP PUSH2 0x1C66 PUSH1 0x0 DUP4 ADD DUP5 PUSH2 0x1B48 JUMP JUMPDEST SWAP3 SWAP2 POP POP JUMP JUMPDEST PUSH1 0x0 PUSH1 0x60 DUP3 ADD SWAP1 POP PUSH2 0x1C81 PUSH1 0x0 DUP4 ADD DUP7 PUSH2 0x1B48 JUMP JUMPDEST PUSH2 0x1C8E PUSH1 0x20 DUP4 ADD DUP6 PUSH2 0x1A49 JUMP JUMPDEST PUSH2 0x1C9B PUSH1 0x40 DUP4 ADD DUP5 PUSH2 0x1B48 JUMP JUMPDEST SWAP5 SWAP4 POP POP POP POP JUMP JUMPDEST PUSH1 0x0 PUSH1 0x60 DUP3 ADD SWAP1 POP PUSH2 0x1CB8 PUSH1 0x0 DUP4 ADD DUP7 PUSH2 0x1B48 JUMP JUMPDEST PUSH2 0x1CC5 PUSH1 0x20 DUP4 ADD DUP6 PUSH2 0x1A58 JUMP JUMPDEST PUSH2 0x1CD2 PUSH1 0x40 DUP4 ADD DUP5 PUSH2 0x1A67 JUMP JUMPDEST SWAP5 SWAP4 POP POP POP POP JUMP JUMPDEST PUSH1 0x0 PUSH1 0x80 DUP3 ADD SWAP1 POP PUSH2 0x1CEF PUSH1 0x0 DUP4 ADD DUP8 PUSH2 0x1B48 JUMP JUMPDEST PUSH2 0x1CFC PUSH1 0x20 DUP4 ADD DUP7 PUSH2 0x1B48 JUMP JUMPDEST PUSH2 0x1D09 PUSH1 0x40 DUP4 ADD DUP6 PUSH2 0x1B48 JUMP JUMPDEST PUSH2 0x1D16 PUSH1 0x60 DUP4 ADD DUP5 PUSH2 0x1B48 JUMP JUMPDEST SWAP6 SWAP5 POP POP POP POP POP JUMP JUMPDEST PUSH1 0x0 PUSH1 0x20 DUP3 ADD SWAP1 POP PUSH2 0x1D34 PUSH1 0x0 DUP4 ADD DUP5 PUSH2 0x1B57 JUMP JUMPDEST SWAP3 SWAP2 POP POP JUMP JUMPDEST PUSH1 0x0 DUP2 SWAP1 POP SWAP3 SWAP2 POP POP JUMP JUMPDEST PUSH1 0x0 DUP3 DUP3 MSTORE PUSH1 0x20 DUP3 ADD SWAP1 POP SWAP3 SWAP2 POP POP JUMP JUMPDEST PUSH1 0x0 PUSH2 0x1D61 DUP3 PUSH2 0x1EBE JUMP JUMPDEST SWAP2 POP PUSH2 0x1D6C DUP4 PUSH2 0x1EBE JUMP JUMPDEST SWAP3 POP DUP3 PUSH32 0xFFFFFFFFFFFFFFFFFFFFFFFFFFFFFFFFFFFFFFFFFFFFFFFFFFFFFFFFFFFFFFFF SUB DUP3 GT ISZERO PUSH2 0x1DA1 JUMPI PUSH2 0x1DA0 PUSH2 0x1F30 JUMP JUMPDEST JUMPDEST DUP3 DUP3 ADD SWAP1 POP SWAP3 SWAP2 POP POP JUMP JUMPDEST PUSH1 0x0 PUSH2 0x1DB7 DUP3 PUSH2 0x1EC8 JUMP JUMPDEST SWAP2 POP PUSH2 0x1DC2 DUP4 PUSH2 0x1EC8 JUMP JUMPDEST SWAP3 POP DUP3 PUSH1 0xFF SUB DUP3 GT ISZERO PUSH2 0x1DD8 JUMPI PUSH2 0x1DD7 PUSH2 0x1F30 JUMP JUMPDEST JUMPDEST DUP3 DUP3 ADD SWAP1 POP SWAP3 SWAP2 POP POP JUMP JUMPDEST PUSH1 0x0 PUSH2 0x1DEE DUP3 PUSH2 0x1EBE JUMP JUMPDEST SWAP2 POP PUSH2 0x1DF9 DUP4 PUSH2 0x1EBE JUMP JUMPDEST SWAP3 POP DUP3 PUSH2 0x1E09 JUMPI PUSH2 0x1E08 PUSH2 0x1F5F JUMP JUMPDEST JUMPDEST DUP3 DUP3 DIV SWAP1 POP SWAP3 SWAP2 POP POP JUMP JUMPDEST PUSH1 0x0 PUSH2 0x1E1F DUP3 PUSH2 0x1EBE JUMP JUMPDEST SWAP2 POP PUSH2 0x1E2A DUP4 PUSH2 0x1EBE JUMP JUMPDEST SWAP3 POP DUP2 PUSH32 0xFFFFFFFFFFFFFFFFFFFFFFFFFFFFFFFFFFFFFFFFFFFFFFFFFFFFFFFFFFFFFFFF DIV DUP4 GT DUP3 ISZERO ISZERO AND ISZERO PUSH2 0x1E63 JUMPI PUSH2 0x1E62 PUSH2 0x1F30 JUMP JUMPDEST JUMPDEST DUP3 DUP3 MUL SWAP1 POP SWAP3 SWAP2 POP POP JUMP JUMPDEST PUSH1 0x0 PUSH2 0x1E79 DUP3 PUSH2 0x1E9E JUMP JUMPDEST SWAP1 POP SWAP2 SWAP1 POP JUMP JUMPDEST PUSH1 0x0 PUSH2 0x1E8B DUP3 PUSH2 0x1E9E JUMP JUMPDEST SWAP1 POP SWAP2 SWAP1 POP JUMP JUMPDEST PUSH1 0x0 DUP2 ISZERO ISZERO SWAP1 POP SWAP2 SWAP1 POP JUMP JUMPDEST PUSH1 0x0 PUSH20 0xFFFFFFFFFFFFFFFFFFFFFFFFFFFFFFFFFFFFFFFF DUP3 AND SWAP1 POP SWAP2 SWAP1 POP JUMP JUMPDEST PUSH1 0x0 DUP2 SWAP1 POP SWAP2 SWAP1 POP JUMP JUMPDEST PUSH1 0x0 PUSH1 0xFF DUP3 AND SWAP1 POP SWAP2 SWAP1 POP JUMP JUMPDEST PUSH1 0x0 PUSH2 0x1EE0 DUP3 PUSH2 0x1EC8 JUMP JUMPDEST SWAP2 POP PUSH1 0xFF DUP3 EQ ISZERO PUSH2 0x1EF4 JUMPI PUSH2 0x1EF3 PUSH2 0x1F30 JUMP JUMPDEST JUMPDEST PUSH1 0x1 DUP3 ADD SWAP1 POP SWAP2 SWAP1 POP JUMP JUMPDEST PUSH1 0x0 PUSH2 0x1F0A DUP3 PUSH2 0x1EBE JUMP JUMPDEST SWAP2 POP PUSH2 0x1F15 DUP4 PUSH2 0x1EBE JUMP JUMPDEST SWAP3 POP DUP3 PUSH2 0x1F25 JUMPI PUSH2 0x1F24 PUSH2 0x1F5F JUMP JUMPDEST JUMPDEST DUP3 DUP3 MOD SWAP1 POP SWAP3 SWAP2 POP POP JUMP JUMPDEST PUSH32 0x4E487B7100000000000000000000000000000000000000000000000000000000 PUSH1 0x0 MSTORE PUSH1 0x11 PUSH1 0x4 MSTORE PUSH1 0x24 PUSH1 0x0 REVERT JUMPDEST PUSH32 0x4E487B7100000000000000000000000000000000000000000000000000000000 PUSH1 0x0 MSTORE PUSH1 0x12 PUSH1 0x4 MSTORE PUSH1 0x24 PUSH1 0x0 REVERT JUMPDEST PUSH1 0x0 DUP1 REVERT JUMPDEST PUSH32 0x47616D65206E6F7420666F756E64000000000000000000000000000000000000 PUSH1 0x0 DUP3 ADD MSTORE POP JUMP JUMPDEST PUSH32 0x596F752061726520616C72656164792072656769737465726564000000000000 PUSH1 0x0 DUP3 ADD MSTORE POP JUMP JUMPDEST POP JUMP JUMPDEST PUSH32 0x496E73756666696369656E7420616D6F756E74206F6620636F6E747269627574 PUSH1 0x0 DUP3 ADD MSTORE PUSH32 0x696F6E0000000000000000000000000000000000000000000000000000000000 PUSH1 0x20 DUP3 ADD MSTORE POP JUMP JUMPDEST PUSH32 0x466F72207265676974657220696E2067616D6520796F75206E65656420706179 PUSH1 0x0 DUP3 ADD MSTORE PUSH32 0x2031206574686572000000000000000000000000000000000000000000000000 PUSH1 0x20 DUP3 ADD MSTORE POP JUMP JUMPDEST PUSH32 0x4E6F20636F6E7472616374730000000000000000000000000000000000000000 PUSH1 0x0 DUP3 ADD MSTORE POP JUMP JUMPDEST PUSH2 0x20B8 DUP2 PUSH2 0x1E6E JUMP JUMPDEST DUP2 EQ PUSH2 0x20C3 JUMPI PUSH1 0x0 DUP1 REVERT JUMPDEST POP JUMP JUMPDEST PUSH2 0x20CF DUP2 PUSH2 0x1EBE JUMP JUMPDEST DUP2 EQ PUSH2 0x20DA JUMPI PUSH1 0x0 DUP1 REVERT JUMPDEST POP JUMP JUMPDEST PUSH2 0x20E6 DUP2 PUSH2 0x1EC8 JUMP JUMPDEST DUP2 EQ PUSH2 0x20F1 JUMPI PUSH1 0x0 DUP1 REVERT JUMPDEST POP JUMP INVALID LOG2 PUSH5 0x6970667358 0x22 SLT KECCAK256 0x27 0xFB PUSH19 0xD75F67E7FC7CD1C652BBA5FEFF5D174E4E4A4E PUSH2 0x2E21 0x25 AND AND 0xDE 0x27 0xEC ORIGIN PUSH5 0x736F6C6343 STOP ADDMOD SMOD STOP CALLER "
				},
				"gasEstimates": {
					"creation": {
						"codeDepositCost": "1698000",
						"executionCost": "infinite",
						"totalCost": "infinite"
					},
					"external": {
						"": "infinite",
						"addGameLevel(uint256)": "infinite",
						"currentGameIdIndex()": "2493",
						"currentUserIdIndex()": "2496",
						"currentUserIndex(uint8)": "2838",
						"getUserBalance(address)": "3302",
						"hasAccess(address)": "2903",
						"joinToGame(uint8)": "infinite",
						"levels(uint8)": "2808",
						"pools(uint8,uint256)": "infinite",
						"registerUserToGame(uint256)": "infinite",
						"registeredUsers(address)": "infinite",
						"userGames(address,uint8)": "3161",
						"userPayments(address,uint8)": "3144",
						"usersId(uint256)": "2905"
					},
					"internal": {
						"_fallback(address,uint256)": "infinite",
						"_joinToGame(uint8,address,uint256)": "infinite",
						"culcNextWinnerIndex(uint256)": "infinite"
					}
				},
				"methodIdentifiers": {
					"addGameLevel(uint256)": "ae9283b5",
					"currentGameIdIndex()": "ad39f0a3",
					"currentUserIdIndex()": "556c9095",
					"currentUserIndex(uint8)": "9b0b0ae3",
					"getUserBalance(address)": "47734892",
					"hasAccess(address)": "95a078e8",
					"joinToGame(uint8)": "2e8aab9b",
					"levels(uint8)": "906cbf57",
					"pools(uint8,uint256)": "78a32e21",
					"registerUserToGame(uint256)": "0173c05b",
					"registeredUsers(address)": "0e50cee5",
					"userGames(address,uint8)": "2a648c89",
					"userPayments(address,uint8)": "f1060006",
					"usersId(uint256)": "bd233b91"
				}
			},
			"storageLayout": {
				"storage": [
					{
						"astId": 3,
						"contract": "cobraBot/Contract.sol:Pyramid",
						"label": "currentUserIdIndex",
						"offset": 0,
						"slot": "0",
						"type": "t_uint256"
					},
					{
						"astId": 5,
						"contract": "cobraBot/Contract.sol:Pyramid",
						"label": "currentGameIdIndex",
						"offset": 0,
						"slot": "1",
						"type": "t_uint8"
					},
					{
						"astId": 7,
						"contract": "cobraBot/Contract.sol:Pyramid",
						"label": "contractOwner",
						"offset": 1,
						"slot": "1",
						"type": "t_address"
					},
					{
						"astId": 37,
						"contract": "cobraBot/Contract.sol:Pyramid",
						"label": "levels",
						"offset": 0,
						"slot": "2",
						"type": "t_mapping(t_uint8,t_struct(Game)32_storage)"
					},
					{
						"astId": 41,
						"contract": "cobraBot/Contract.sol:Pyramid",
						"label": "usersId",
						"offset": 0,
						"slot": "3",
						"type": "t_mapping(t_uint256,t_address)"
					},
					{
						"astId": 46,
						"contract": "cobraBot/Contract.sol:Pyramid",
						"label": "registeredUsers",
						"offset": 0,
						"slot": "4",
						"type": "t_mapping(t_address,t_struct(User)29_storage)"
					},
					{
						"astId": 50,
						"contract": "cobraBot/Contract.sol:Pyramid",
						"label": "currentUserIndex",
						"offset": 0,
						"slot": "5",
						"type": "t_mapping(t_uint8,t_uint256)"
					},
					{
						"astId": 57,
						"contract": "cobraBot/Contract.sol:Pyramid",
						"label": "pools",
						"offset": 0,
						"slot": "6",
						"type": "t_mapping(t_uint8,t_mapping(t_uint256,t_struct(User)29_storage))"
					},
					{
						"astId": 63,
						"contract": "cobraBot/Contract.sol:Pyramid",
						"label": "userPayments",
						"offset": 0,
						"slot": "7",
						"type": "t_mapping(t_address,t_mapping(t_uint8,t_uint256))"
					},
					{
						"astId": 69,
						"contract": "cobraBot/Contract.sol:Pyramid",
						"label": "userGames",
						"offset": 0,
						"slot": "8",
						"type": "t_mapping(t_address,t_mapping(t_uint8,t_bool))"
					}
				],
				"types": {
					"t_address": {
						"encoding": "inplace",
						"label": "address",
						"numberOfBytes": "20"
					},
					"t_address_payable": {
						"encoding": "inplace",
						"label": "address payable",
						"numberOfBytes": "20"
					},
					"t_bool": {
						"encoding": "inplace",
						"label": "bool",
						"numberOfBytes": "1"
					},
					"t_mapping(t_address,t_mapping(t_uint8,t_bool))": {
						"encoding": "mapping",
						"key": "t_address",
						"label": "mapping(address => mapping(uint8 => bool))",
						"numberOfBytes": "32",
						"value": "t_mapping(t_uint8,t_bool)"
					},
					"t_mapping(t_address,t_mapping(t_uint8,t_uint256))": {
						"encoding": "mapping",
						"key": "t_address",
						"label": "mapping(address => mapping(uint8 => uint256))",
						"numberOfBytes": "32",
						"value": "t_mapping(t_uint8,t_uint256)"
					},
					"t_mapping(t_address,t_struct(User)29_storage)": {
						"encoding": "mapping",
						"key": "t_address",
						"label": "mapping(address => struct Pyramid.User)",
						"numberOfBytes": "32",
						"value": "t_struct(User)29_storage"
					},
					"t_mapping(t_uint256,t_address)": {
						"encoding": "mapping",
						"key": "t_uint256",
						"label": "mapping(uint256 => address)",
						"numberOfBytes": "32",
						"value": "t_address"
					},
					"t_mapping(t_uint256,t_struct(User)29_storage)": {
						"encoding": "mapping",
						"key": "t_uint256",
						"label": "mapping(uint256 => struct Pyramid.User)",
						"numberOfBytes": "32",
						"value": "t_struct(User)29_storage"
					},
					"t_mapping(t_uint8,t_bool)": {
						"encoding": "mapping",
						"key": "t_uint8",
						"label": "mapping(uint8 => bool)",
						"numberOfBytes": "32",
						"value": "t_bool"
					},
					"t_mapping(t_uint8,t_mapping(t_uint256,t_struct(User)29_storage))": {
						"encoding": "mapping",
						"key": "t_uint8",
						"label": "mapping(uint8 => mapping(uint256 => struct Pyramid.User))",
						"numberOfBytes": "32",
						"value": "t_mapping(t_uint256,t_struct(User)29_storage)"
					},
					"t_mapping(t_uint8,t_struct(Game)32_storage)": {
						"encoding": "mapping",
						"key": "t_uint8",
						"label": "mapping(uint8 => struct Pyramid.Game)",
						"numberOfBytes": "32",
						"value": "t_struct(Game)32_storage"
					},
					"t_mapping(t_uint8,t_uint256)": {
						"encoding": "mapping",
						"key": "t_uint8",
						"label": "mapping(uint8 => uint256)",
						"numberOfBytes": "32",
						"value": "t_uint256"
					},
					"t_struct(Game)32_storage": {
						"encoding": "inplace",
						"label": "struct Pyramid.Game",
						"members": [
							{
								"astId": 31,
								"contract": "cobraBot/Contract.sol:Pyramid",
								"label": "amountToPay",
								"offset": 0,
								"slot": "0",
								"type": "t_uint256"
							}
						],
						"numberOfBytes": "32"
					},
					"t_struct(User)29_storage": {
						"encoding": "inplace",
						"label": "struct Pyramid.User",
						"members": [
							{
								"astId": 24,
								"contract": "cobraBot/Contract.sol:Pyramid",
								"label": "userId",
								"offset": 0,
								"slot": "0",
								"type": "t_uint256"
							},
							{
								"astId": 26,
								"contract": "cobraBot/Contract.sol:Pyramid",
								"label": "userAddress",
								"offset": 0,
								"slot": "1",
								"type": "t_address_payable"
							},
							{
								"astId": 28,
								"contract": "cobraBot/Contract.sol:Pyramid",
								"label": "invitedId",
								"offset": 0,
								"slot": "2",
								"type": "t_uint256"
							}
						],
						"numberOfBytes": "96"
					},
					"t_uint256": {
						"encoding": "inplace",
						"label": "uint256",
						"numberOfBytes": "32"
					},
					"t_uint8": {
						"encoding": "inplace",
						"label": "uint8",
						"numberOfBytes": "1"
					}
				}
			},
			"userdoc": {
				"kind": "user",
				"methods": {},
				"version": 1
			}
		}
	}
}