{
	"Contract2v.sol": {
		"Pyramid": {
			"abi": [
				{
					"inputs": [],
					"stateMutability": "nonpayable",
					"type": "constructor"
				},
				{
					"anonymous": false,
					"inputs": [
						{
							"indexed": false,
							"internalType": "uint256",
							"name": "amountToPay",
							"type": "uint256"
						},
						{
							"indexed": false,
							"internalType": "address",
							"name": "account",
							"type": "address"
						},
						{
							"indexed": false,
							"internalType": "bool",
							"name": "success",
							"type": "bool"
						}
					],
					"name": "GamePaymentEvent",
					"type": "event"
				},
				{
					"anonymous": false,
					"inputs": [
						{
							"indexed": false,
							"internalType": "uint256",
							"name": "amountToPay",
							"type": "uint256"
						}
					],
					"name": "NewGame",
					"type": "event"
				},
				{
					"anonymous": false,
					"inputs": [
						{
							"indexed": false,
							"internalType": "uint256",
							"name": "amountToPay",
							"type": "uint256"
						},
						{
							"indexed": false,
							"internalType": "uint256",
							"name": "from",
							"type": "uint256"
						},
						{
							"indexed": false,
							"internalType": "uint256",
							"name": "to",
							"type": "uint256"
						},
						{
							"indexed": false,
							"internalType": "uint256",
							"name": "amount",
							"type": "uint256"
						}
					],
					"name": "ReferalPaymentEvent",
					"type": "event"
				},
				{
					"stateMutability": "payable",
					"type": "fallback"
				},
				{
					"inputs": [
						{
							"internalType": "uint256",
							"name": "amountToPay",
							"type": "uint256"
						}
					],
					"name": "addGameLevel",
					"outputs": [],
					"stateMutability": "nonpayable",
					"type": "function"
				},
				{
					"inputs": [],
					"name": "currentGameIdIndex",
					"outputs": [
						{
							"internalType": "uint8",
							"name": "",
							"type": "uint8"
						}
					],
					"stateMutability": "view",
					"type": "function"
				},
				{
					"inputs": [],
					"name": "currentUserIdIndex",
					"outputs": [
						{
							"internalType": "uint256",
							"name": "",
							"type": "uint256"
						}
					],
					"stateMutability": "view",
					"type": "function"
				},
				{
					"inputs": [
						{
							"internalType": "uint8",
							"name": "",
							"type": "uint8"
						}
					],
					"name": "currentUserIndex",
					"outputs": [
						{
							"internalType": "uint256",
							"name": "",
							"type": "uint256"
						}
					],
					"stateMutability": "view",
					"type": "function"
				},
				{
					"inputs": [
						{
							"internalType": "address",
							"name": "userAddress",
							"type": "address"
						}
					],
					"name": "geUserGameBalance",
					"outputs": [
						{
							"internalType": "uint256",
							"name": "",
							"type": "uint256"
						}
					],
					"stateMutability": "view",
					"type": "function"
				},
				{
					"inputs": [
						{
							"internalType": "address",
							"name": "userAdress",
							"type": "address"
						}
					],
					"name": "hasAccess",
					"outputs": [
						{
							"internalType": "bool",
							"name": "",
							"type": "bool"
						}
					],
					"stateMutability": "view",
					"type": "function"
				},
				{
					"inputs": [
						{
							"internalType": "uint8",
							"name": "gameId",
							"type": "uint8"
						}
					],
					"name": "joinToGame",
					"outputs": [],
					"stateMutability": "payable",
					"type": "function"
				},
				{
					"inputs": [
						{
							"internalType": "uint8",
							"name": "",
							"type": "uint8"
						}
					],
					"name": "levels",
					"outputs": [
						{
							"internalType": "uint256",
							"name": "amountToPay",
							"type": "uint256"
						}
					],
					"stateMutability": "view",
					"type": "function"
				},
				{
					"inputs": [
						{
							"internalType": "uint8",
							"name": "",
							"type": "uint8"
						},
						{
							"internalType": "uint256",
							"name": "",
							"type": "uint256"
						}
					],
					"name": "pools",
					"outputs": [
						{
							"internalType": "uint256",
							"name": "userId",
							"type": "uint256"
						},
						{
							"internalType": "address payable",
							"name": "userAddress",
							"type": "address"
						},
						{
							"internalType": "uint256",
							"name": "invitedId",
							"type": "uint256"
						}
					],
					"stateMutability": "view",
					"type": "function"
				},
				{
					"inputs": [
						{
							"internalType": "uint256",
							"name": "inviterId",
							"type": "uint256"
						}
					],
					"name": "registerUserToGame",
					"outputs": [],
					"stateMutability": "payable",
					"type": "function"
				},
				{
					"inputs": [
						{
							"internalType": "address",
							"name": "",
							"type": "address"
						}
					],
					"name": "registeredUsers",
					"outputs": [
						{
							"internalType": "uint256",
							"name": "userId",
							"type": "uint256"
						},
						{
							"internalType": "address payable",
							"name": "userAddress",
							"type": "address"
						},
						{
							"internalType": "uint256",
							"name": "invitedId",
							"type": "uint256"
						}
					],
					"stateMutability": "view",
					"type": "function"
				},
				{
					"inputs": [
						{
							"internalType": "address",
							"name": "",
							"type": "address"
						},
						{
							"internalType": "uint8",
							"name": "",
							"type": "uint8"
						}
					],
					"name": "userGames",
					"outputs": [
						{
							"internalType": "bool",
							"name": "",
							"type": "bool"
						}
					],
					"stateMutability": "view",
					"type": "function"
				},
				{
					"inputs": [
						{
							"internalType": "address",
							"name": "",
							"type": "address"
						},
						{
							"internalType": "uint8",
							"name": "",
							"type": "uint8"
						}
					],
					"name": "userPayments",
					"outputs": [
						{
							"internalType": "uint256",
							"name": "",
							"type": "uint256"
						}
					],
					"stateMutability": "view",
					"type": "function"
				},
				{
					"inputs": [
						{
							"internalType": "uint256",
							"name": "",
							"type": "uint256"
						}
					],
					"name": "usersId",
					"outputs": [
						{
							"internalType": "address",
							"name": "",
							"type": "address"
						}
					],
					"stateMutability": "view",
					"type": "function"
				},
				{
					"inputs": [],
					"name": "withdrawGameBalance",
					"outputs": [],
					"stateMutability": "nonpayable",
					"type": "function"
				},
				{
					"stateMutability": "payable",
					"type": "receive"
				}
			],
			"devdoc": {
				"kind": "dev",
				"methods": {},
				"version": 1
			},
			"evm": {
				"assembly": "    /* \"Contract2v.sol\":62:9603  contract Pyramid {\r... */\n  mstore(0x40, 0x80)\n    /* \"Contract2v.sol\":2490:2749  constructor () {\r... */\n  callvalue\n  dup1\n  iszero\n  tag_1\n  jumpi\n  0x00\n  dup1\n  revert\ntag_1:\n  pop\n    /* \"Contract2v.sol\":2532:2542  msg.sender */\n  caller\n    /* \"Contract2v.sol\":2516:2529  contractOwner */\n  0x01\n  dup1\n    /* \"Contract2v.sol\":2516:2542  contractOwner = msg.sender */\n  0x0100\n  exp\n  dup2\n  sload\n  dup2\n  0xffffffffffffffffffffffffffffffffffffffff\n  mul\n  not\n  and\n  swap1\n  dup4\n  0xffffffffffffffffffffffffffffffffffffffff\n  and\n  mul\n  or\n  swap1\n  sstore\n  pop\n    /* \"Contract2v.sol\":2566:2579  contractOwner */\n  0x01\n  dup1\n  sload\n  swap1\n  0x0100\n  exp\n  swap1\n  div\n  0xffffffffffffffffffffffffffffffffffffffff\n  and\n    /* \"Contract2v.sol\":2553:2560  usersId */\n  0x04\n    /* \"Contract2v.sol\":2553:2563  usersId[0] */\n  0x00\n    /* \"Contract2v.sol\":2561:2562  0 */\n  dup1\n    /* \"Contract2v.sol\":2553:2563  usersId[0] */\n  dup2\n  mstore\n  0x20\n  add\n  swap1\n  dup2\n  mstore\n  0x20\n  add\n  0x00\n  keccak256\n  0x00\n    /* \"Contract2v.sol\":2553:2579  usersId[0] = contractOwner */\n  0x0100\n  exp\n  dup2\n  sload\n  dup2\n  0xffffffffffffffffffffffffffffffffffffffff\n  mul\n  not\n  and\n  swap1\n  dup4\n  0xffffffffffffffffffffffffffffffffffffffff\n  and\n  mul\n  or\n  swap1\n  sstore\n  pop\n    /* \"Contract2v.sol\":2623:2657  User(0, payable(contractOwner), 0) */\n  mload(0x40)\n  dup1\n  0x60\n  add\n  0x40\n  mstore\n  dup1\n    /* \"Contract2v.sol\":2628:2629  0 */\n  0x00\n    /* \"Contract2v.sol\":2623:2657  User(0, payable(contractOwner), 0) */\n  dup2\n  mstore\n  0x20\n  add\n    /* \"Contract2v.sol\":2639:2652  contractOwner */\n  0x01\n  dup1\n  sload\n  swap1\n  0x0100\n  exp\n  swap1\n  div\n  0xffffffffffffffffffffffffffffffffffffffff\n  and\n    /* \"Contract2v.sol\":2623:2657  User(0, payable(contractOwner), 0) */\n  0xffffffffffffffffffffffffffffffffffffffff\n  and\n  dup2\n  mstore\n  0x20\n  add\n    /* \"Contract2v.sol\":2655:2656  0 */\n  0x00\n    /* \"Contract2v.sol\":2623:2657  User(0, payable(contractOwner), 0) */\n  dup2\n  mstore\n  pop\n    /* \"Contract2v.sol\":2590:2605  registeredUsers */\n  0x05\n    /* \"Contract2v.sol\":2590:2620  registeredUsers[contractOwner] */\n  0x00\n    /* \"Contract2v.sol\":2606:2619  contractOwner */\n  0x01\n  dup1\n  sload\n  swap1\n  0x0100\n  exp\n  swap1\n  div\n  0xffffffffffffffffffffffffffffffffffffffff\n  and\n    /* \"Contract2v.sol\":2590:2620  registeredUsers[contractOwner] */\n  0xffffffffffffffffffffffffffffffffffffffff\n  and\n  0xffffffffffffffffffffffffffffffffffffffff\n  and\n  dup2\n  mstore\n  0x20\n  add\n  swap1\n  dup2\n  mstore\n  0x20\n  add\n  0x00\n  keccak256\n    /* \"Contract2v.sol\":2590:2657  registeredUsers[contractOwner] = User(0, payable(contractOwner), 0) */\n  0x00\n  dup3\n  add\n  mload\n  dup2\n  0x00\n  add\n  sstore\n  0x20\n  dup3\n  add\n  mload\n  dup2\n  0x01\n  add\n  exp(0x0100, 0x00)\n  dup2\n  sload\n  dup2\n  0xffffffffffffffffffffffffffffffffffffffff\n  mul\n  not\n  and\n  swap1\n  dup4\n  0xffffffffffffffffffffffffffffffffffffffff\n  and\n  mul\n  or\n  swap1\n  sstore\n  pop\n  0x40\n  dup3\n  add\n  mload\n  dup2\n  0x02\n  add\n  sstore\n  swap1\n  pop\n  pop\n    /* \"Contract2v.sol\":2689:2690  1 */\n  0x01\n    /* \"Contract2v.sol\":2668:2686  currentUserIdIndex */\n  0x00\n    /* \"Contract2v.sol\":2668:2690  currentUserIdIndex = 1 */\n  dup2\n  swap1\n  sstore\n  pop\n    /* \"Contract2v.sol\":2703:2741  addGameLevel({ amountToPay: 1 ether }) */\n  tag_4\n    /* \"Contract2v.sol\":2731:2738  1 ether */\n  0x0de0b6b3a7640000\n    /* \"Contract2v.sol\":2703:2715  addGameLevel */\n  shl(0x20, tag_5)\n    /* \"Contract2v.sol\":2703:2741  addGameLevel({ amountToPay: 1 ether }) */\n  0x20\n  shr\n  jump\t// in\ntag_4:\n    /* \"Contract2v.sol\":62:9603  contract Pyramid {\r... */\n  jump(tag_6)\n    /* \"Contract2v.sol\":4479:4823  function addGameLevel(uint256 amountToPay) public onlyOwner {\r... */\ntag_5:\n    /* \"Contract2v.sol\":2440:2461  hasAccess(msg.sender) */\n  tag_8\n    /* \"Contract2v.sol\":2450:2460  msg.sender */\n  caller\n    /* \"Contract2v.sol\":2440:2449  hasAccess */\n  shl(0x20, tag_9)\n    /* \"Contract2v.sol\":2440:2461  hasAccess(msg.sender) */\n  0x20\n  shr\n  jump\t// in\ntag_8:\n    /* \"Contract2v.sol\":2432:2462  require(hasAccess(msg.sender)) */\n  tag_10\n  jumpi\n  0x00\n  dup1\n  revert\ntag_10:\n    /* \"Contract2v.sol\":4684:4718  Game({ amountToPay: amountToPay }) */\n  mload(0x40)\n  dup1\n  0x20\n  add\n  0x40\n  mstore\n  dup1\n    /* \"Contract2v.sol\":4704:4715  amountToPay */\n  dup3\n    /* \"Contract2v.sol\":4684:4718  Game({ amountToPay: amountToPay }) */\n  dup2\n  mstore\n  pop\n    /* \"Contract2v.sol\":4655:4661  levels */\n  0x03\n    /* \"Contract2v.sol\":4655:4681  levels[currentGameIdIndex] */\n  0x00\n    /* \"Contract2v.sol\":4662:4680  currentGameIdIndex */\n  0x01\n  0x00\n  swap1\n  sload\n  swap1\n  0x0100\n  exp\n  swap1\n  div\n  0xff\n  and\n    /* \"Contract2v.sol\":4655:4681  levels[currentGameIdIndex] */\n  0xff\n  and\n  0xff\n  and\n  dup2\n  mstore\n  0x20\n  add\n  swap1\n  dup2\n  mstore\n  0x20\n  add\n  0x00\n  keccak256\n    /* \"Contract2v.sol\":4655:4718  levels[currentGameIdIndex] = Game({ amountToPay: amountToPay }) */\n  0x00\n  dup3\n  add\n  mload\n  dup2\n  0x00\n  add\n  sstore\n  swap1\n  pop\n  pop\n    /* \"Contract2v.sol\":4751:4752  1 */\n  0x01\n    /* \"Contract2v.sol\":4729:4747  currentGameIdIndex */\n  dup1\n  0x00\n    /* \"Contract2v.sol\":4729:4752  currentGameIdIndex += 1 */\n  dup3\n  dup3\n  dup3\n  swap1\n  sload\n  swap1\n  0x0100\n  exp\n  swap1\n  div\n  0xff\n  and\n  tag_12\n  swap2\n  swap1\n  tag_13\n  jump\t// in\ntag_12:\n  swap3\n  pop\n  0x0100\n  exp\n  dup2\n  sload\n  dup2\n  0xff\n  mul\n  not\n  and\n  swap1\n  dup4\n  0xff\n  and\n  mul\n  or\n  swap1\n  sstore\n  pop\n    /* \"Contract2v.sol\":4768:4815  NewGame(levels[currentGameIdIndex].amountToPay) */\n  0xa0b7f6f22bb4f69adc52dd16ffe2a964ab8b577be274247fa9a1547b03ce3e55\n    /* \"Contract2v.sol\":4776:4782  levels */\n  0x03\n    /* \"Contract2v.sol\":4776:4802  levels[currentGameIdIndex] */\n  0x00\n    /* \"Contract2v.sol\":4783:4801  currentGameIdIndex */\n  0x01\n  0x00\n  swap1\n  sload\n  swap1\n  0x0100\n  exp\n  swap1\n  div\n  0xff\n  and\n    /* \"Contract2v.sol\":4776:4802  levels[currentGameIdIndex] */\n  0xff\n  and\n  0xff\n  and\n  dup2\n  mstore\n  0x20\n  add\n  swap1\n  dup2\n  mstore\n  0x20\n  add\n  0x00\n  keccak256\n    /* \"Contract2v.sol\":4776:4814  levels[currentGameIdIndex].amountToPay */\n  0x00\n  add\n  sload\n    /* \"Contract2v.sol\":4768:4815  NewGame(levels[currentGameIdIndex].amountToPay) */\n  mload(0x40)\n  tag_14\n  swap2\n  swap1\n  tag_15\n  jump\t// in\ntag_14:\n  mload(0x40)\n  dup1\n  swap2\n  sub\n  swap1\n  log1\n    /* \"Contract2v.sol\":4479:4823  function addGameLevel(uint256 amountToPay) public onlyOwner {\r... */\n  pop\n  jump\t// out\n    /* \"Contract2v.sol\":4110:4339  function hasAccess(address userAdress) public view returns(bool) {\r... */\ntag_9:\n    /* \"Contract2v.sol\":4169:4173  bool */\n  0x00\n    /* \"Contract2v.sol\":4318:4331  contractOwner */\n  0x01\n  dup1\n  sload\n  swap1\n  0x0100\n  exp\n  swap1\n  div\n  0xffffffffffffffffffffffffffffffffffffffff\n  and\n    /* \"Contract2v.sol\":4304:4331  userAdress == contractOwner */\n  0xffffffffffffffffffffffffffffffffffffffff\n  and\n    /* \"Contract2v.sol\":4304:4314  userAdress */\n  dup3\n    /* \"Contract2v.sol\":4304:4331  userAdress == contractOwner */\n  0xffffffffffffffffffffffffffffffffffffffff\n  and\n  eq\n    /* \"Contract2v.sol\":4297:4331  return userAdress == contractOwner */\n  swap1\n  pop\n    /* \"Contract2v.sol\":4110:4339  function hasAccess(address userAdress) public view returns(bool) {\r... */\n  swap2\n  swap1\n  pop\n  jump\t// out\n    /* \"#utility.yul\":7:125   */\ntag_18:\n    /* \"#utility.yul\":94:118   */\n  tag_20\n    /* \"#utility.yul\":112:117   */\n  dup2\n    /* \"#utility.yul\":94:118   */\n  tag_21\n  jump\t// in\ntag_20:\n    /* \"#utility.yul\":89:92   */\n  dup3\n    /* \"#utility.yul\":82:119   */\n  mstore\n    /* \"#utility.yul\":7:125   */\n  pop\n  pop\n  jump\t// out\n    /* \"#utility.yul\":131:353   */\ntag_15:\n    /* \"#utility.yul\":224:228   */\n  0x00\n    /* \"#utility.yul\":262:264   */\n  0x20\n    /* \"#utility.yul\":251:260   */\n  dup3\n    /* \"#utility.yul\":247:265   */\n  add\n    /* \"#utility.yul\":239:265   */\n  swap1\n  pop\n    /* \"#utility.yul\":275:346   */\n  tag_23\n    /* \"#utility.yul\":343:344   */\n  0x00\n    /* \"#utility.yul\":332:341   */\n  dup4\n    /* \"#utility.yul\":328:345   */\n  add\n    /* \"#utility.yul\":319:325   */\n  dup5\n    /* \"#utility.yul\":275:346   */\n  tag_18\n  jump\t// in\ntag_23:\n    /* \"#utility.yul\":131:353   */\n  swap3\n  swap2\n  pop\n  pop\n  jump\t// out\n    /* \"#utility.yul\":359:596   */\ntag_13:\n    /* \"#utility.yul\":397:400   */\n  0x00\n    /* \"#utility.yul\":416:434   */\n  tag_25\n    /* \"#utility.yul\":432:433   */\n  dup3\n    /* \"#utility.yul\":416:434   */\n  tag_26\n  jump\t// in\ntag_25:\n    /* \"#utility.yul\":411:434   */\n  swap2\n  pop\n    /* \"#utility.yul\":448:466   */\n  tag_27\n    /* \"#utility.yul\":464:465   */\n  dup4\n    /* \"#utility.yul\":448:466   */\n  tag_26\n  jump\t// in\ntag_27:\n    /* \"#utility.yul\":443:466   */\n  swap3\n  pop\n    /* \"#utility.yul\":538:539   */\n  dup3\n    /* \"#utility.yul\":532:536   */\n  0xff\n    /* \"#utility.yul\":528:540   */\n  sub\n    /* \"#utility.yul\":525:526   */\n  dup3\n    /* \"#utility.yul\":522:541   */\n  gt\n    /* \"#utility.yul\":519:564   */\n  iszero\n  tag_28\n  jumpi\n    /* \"#utility.yul\":544:562   */\n  tag_29\n  tag_30\n  jump\t// in\ntag_29:\n    /* \"#utility.yul\":519:564   */\ntag_28:\n    /* \"#utility.yul\":588:589   */\n  dup3\n    /* \"#utility.yul\":585:586   */\n  dup3\n    /* \"#utility.yul\":581:590   */\n  add\n    /* \"#utility.yul\":574:590   */\n  swap1\n  pop\n    /* \"#utility.yul\":359:596   */\n  swap3\n  swap2\n  pop\n  pop\n  jump\t// out\n    /* \"#utility.yul\":602:679   */\ntag_21:\n    /* \"#utility.yul\":639:646   */\n  0x00\n    /* \"#utility.yul\":668:673   */\n  dup2\n    /* \"#utility.yul\":657:673   */\n  swap1\n  pop\n    /* \"#utility.yul\":602:679   */\n  swap2\n  swap1\n  pop\n  jump\t// out\n    /* \"#utility.yul\":685:771   */\ntag_26:\n    /* \"#utility.yul\":720:727   */\n  0x00\n    /* \"#utility.yul\":760:764   */\n  0xff\n    /* \"#utility.yul\":753:758   */\n  dup3\n    /* \"#utility.yul\":749:765   */\n  and\n    /* \"#utility.yul\":738:765   */\n  swap1\n  pop\n    /* \"#utility.yul\":685:771   */\n  swap2\n  swap1\n  pop\n  jump\t// out\n    /* \"#utility.yul\":777:957   */\ntag_30:\n    /* \"#utility.yul\":825:902   */\n  0x4e487b7100000000000000000000000000000000000000000000000000000000\n    /* \"#utility.yul\":822:823   */\n  0x00\n    /* \"#utility.yul\":815:903   */\n  mstore\n    /* \"#utility.yul\":922:926   */\n  0x11\n    /* \"#utility.yul\":919:920   */\n  0x04\n    /* \"#utility.yul\":912:927   */\n  mstore\n    /* \"#utility.yul\":946:950   */\n  0x24\n    /* \"#utility.yul\":943:944   */\n  0x00\n    /* \"#utility.yul\":936:951   */\n  revert\n    /* \"Contract2v.sol\":62:9603  contract Pyramid {\r... */\ntag_6:\n  dataSize(sub_0)\n  dup1\n  dataOffset(sub_0)\n  0x00\n  codecopy\n  0x00\n  return\nstop\n\nsub_0: assembly {\n        /* \"Contract2v.sol\":62:9603  contract Pyramid {\r... */\n      mstore(0x40, 0x80)\n      jumpi(tag_1, lt(calldatasize, 0x04))\n      shr(0xe0, calldataload(0x00))\n      dup1\n      0x78a32e21\n      gt\n      tag_18\n      jumpi\n      dup1\n      0xad39f0a3\n      gt\n      tag_19\n      jumpi\n      dup1\n      0xad39f0a3\n      eq\n      tag_14\n      jumpi\n      dup1\n      0xae9283b5\n      eq\n      tag_15\n      jumpi\n      dup1\n      0xbd233b91\n      eq\n      tag_16\n      jumpi\n      dup1\n      0xf1060006\n      eq\n      tag_17\n      jumpi\n      jump(tag_2)\n    tag_19:\n      dup1\n      0x78a32e21\n      eq\n      tag_10\n      jumpi\n      dup1\n      0x906cbf57\n      eq\n      tag_11\n      jumpi\n      dup1\n      0x95a078e8\n      eq\n      tag_12\n      jumpi\n      dup1\n      0x9b0b0ae3\n      eq\n      tag_13\n      jumpi\n      jump(tag_2)\n    tag_18:\n      dup1\n      0x2e8aab9b\n      gt\n      tag_20\n      jumpi\n      dup1\n      0x2e8aab9b\n      eq\n      tag_6\n      jumpi\n      dup1\n      0x33fb9ad8\n      eq\n      tag_7\n      jumpi\n      dup1\n      0x556c9095\n      eq\n      tag_8\n      jumpi\n      dup1\n      0x55cc42b3\n      eq\n      tag_9\n      jumpi\n      jump(tag_2)\n    tag_20:\n      dup1\n      0x0173c05b\n      eq\n      tag_3\n      jumpi\n      dup1\n      0x0e50cee5\n      eq\n      tag_4\n      jumpi\n      dup1\n      0x2a648c89\n      eq\n      tag_5\n      jumpi\n      jump(tag_2)\n    tag_1:\n      jumpi(tag_2, calldatasize)\n        /* \"Contract2v.sol\":2796:2828  _fallback(msg.sender, msg.value) */\n      tag_23\n        /* \"Contract2v.sol\":2806:2816  msg.sender */\n      caller\n        /* \"Contract2v.sol\":2818:2827  msg.value */\n      callvalue\n        /* \"Contract2v.sol\":2796:2805  _fallback */\n      tag_24\n        /* \"Contract2v.sol\":2796:2828  _fallback(msg.sender, msg.value) */\n      jump\t// in\n    tag_23:\n        /* \"Contract2v.sol\":62:9603  contract Pyramid {\r... */\n      stop\n    tag_2:\n        /* \"Contract2v.sol\":2884:2916  _fallback(msg.sender, msg.value) */\n      tag_27\n        /* \"Contract2v.sol\":2894:2904  msg.sender */\n      caller\n        /* \"Contract2v.sol\":2906:2915  msg.value */\n      callvalue\n        /* \"Contract2v.sol\":2884:2893  _fallback */\n      tag_24\n        /* \"Contract2v.sol\":2884:2916  _fallback(msg.sender, msg.value) */\n      jump\t// in\n    tag_27:\n        /* \"Contract2v.sol\":62:9603  contract Pyramid {\r... */\n      stop\n        /* \"Contract2v.sol\":5266:5853  function registerUserToGame(uint256 inviterId) external payable noContractAccess {\r... */\n    tag_3:\n      tag_28\n      0x04\n      dup1\n      calldatasize\n      sub\n      dup2\n      add\n      swap1\n      tag_29\n      swap2\n      swap1\n      tag_30\n      jump\t// in\n    tag_29:\n      tag_31\n      jump\t// in\n    tag_28:\n      stop\n        /* \"Contract2v.sol\":1063:1111  mapping (address => User) public registeredUsers */\n    tag_4:\n      callvalue\n      dup1\n      iszero\n      tag_32\n      jumpi\n      0x00\n      dup1\n      revert\n    tag_32:\n      pop\n      tag_33\n      0x04\n      dup1\n      calldatasize\n      sub\n      dup2\n      add\n      swap1\n      tag_34\n      swap2\n      swap1\n      tag_35\n      jump\t// in\n    tag_34:\n      tag_36\n      jump\t// in\n    tag_33:\n      mload(0x40)\n      tag_37\n      swap4\n      swap3\n      swap2\n      swap1\n      tag_38\n      jump\t// in\n    tag_37:\n      mload(0x40)\n      dup1\n      swap2\n      sub\n      swap1\n      return\n        /* \"Contract2v.sol\":1467:1528  mapping (address => mapping (uint8 => bool)) public userGames */\n    tag_5:\n      callvalue\n      dup1\n      iszero\n      tag_39\n      jumpi\n      0x00\n      dup1\n      revert\n    tag_39:\n      pop\n      tag_40\n      0x04\n      dup1\n      calldatasize\n      sub\n      dup2\n      add\n      swap1\n      tag_41\n      swap2\n      swap1\n      tag_42\n      jump\t// in\n    tag_41:\n      tag_43\n      jump\t// in\n    tag_40:\n      mload(0x40)\n      tag_44\n      swap2\n      swap1\n      tag_45\n      jump\t// in\n    tag_44:\n      mload(0x40)\n      dup1\n      swap2\n      sub\n      swap1\n      return\n        /* \"Contract2v.sol\":5861:6078  function joinToGame(uint8 gameId) public payable onlyRegistered {\r... */\n    tag_6:\n      tag_46\n      0x04\n      dup1\n      calldatasize\n      sub\n      dup2\n      add\n      swap1\n      tag_47\n      swap2\n      swap1\n      tag_48\n      jump\t// in\n    tag_47:\n      tag_49\n      jump\t// in\n    tag_46:\n      stop\n        /* \"Contract2v.sol\":4347:4471  function geUserGameBalance(address userAddress) public view returns(uint256) {\r... */\n    tag_7:\n      callvalue\n      dup1\n      iszero\n      tag_50\n      jumpi\n      0x00\n      dup1\n      revert\n    tag_50:\n      pop\n      tag_51\n      0x04\n      dup1\n      calldatasize\n      sub\n      dup2\n      add\n      swap1\n      tag_52\n      swap2\n      swap1\n      tag_35\n      jump\t// in\n    tag_52:\n      tag_53\n      jump\t// in\n    tag_51:\n      mload(0x40)\n      tag_54\n      swap2\n      swap1\n      tag_55\n      jump\t// in\n    tag_54:\n      mload(0x40)\n      dup1\n      swap2\n      sub\n      swap1\n      return\n        /* \"Contract2v.sol\":86:119  uint256 public currentUserIdIndex */\n    tag_8:\n      callvalue\n      dup1\n      iszero\n      tag_56\n      jumpi\n      0x00\n      dup1\n      revert\n    tag_56:\n      pop\n      tag_57\n      tag_58\n      jump\t// in\n    tag_57:\n      mload(0x40)\n      tag_59\n      swap2\n      swap1\n      tag_55\n      jump\t// in\n    tag_59:\n      mload(0x40)\n      dup1\n      swap2\n      sub\n      swap1\n      return\n        /* \"Contract2v.sol\":4831:5258  function withdrawGameBalance() external onlyRegistered {\r... */\n    tag_9:\n      callvalue\n      dup1\n      iszero\n      tag_60\n      jumpi\n      0x00\n      dup1\n      revert\n    tag_60:\n      pop\n      tag_61\n      tag_62\n      jump\t// in\n    tag_61:\n      stop\n        /* \"Contract2v.sol\":1255:1312  mapping (uint8 => mapping (uint256 => User)) public pools */\n    tag_10:\n      callvalue\n      dup1\n      iszero\n      tag_63\n      jumpi\n      0x00\n      dup1\n      revert\n    tag_63:\n      pop\n      tag_64\n      0x04\n      dup1\n      calldatasize\n      sub\n      dup2\n      add\n      swap1\n      tag_65\n      swap2\n      swap1\n      tag_66\n      jump\t// in\n    tag_65:\n      tag_67\n      jump\t// in\n    tag_64:\n      mload(0x40)\n      tag_68\n      swap4\n      swap3\n      swap2\n      swap1\n      tag_38\n      jump\t// in\n    tag_68:\n      mload(0x40)\n      dup1\n      swap2\n      sub\n      swap1\n      return\n        /* \"Contract2v.sol\":915:952  mapping (uint8 => Game) public levels */\n    tag_11:\n      callvalue\n      dup1\n      iszero\n      tag_69\n      jumpi\n      0x00\n      dup1\n      revert\n    tag_69:\n      pop\n      tag_70\n      0x04\n      dup1\n      calldatasize\n      sub\n      dup2\n      add\n      swap1\n      tag_71\n      swap2\n      swap1\n      tag_48\n      jump\t// in\n    tag_71:\n      tag_72\n      jump\t// in\n    tag_70:\n      mload(0x40)\n      tag_73\n      swap2\n      swap1\n      tag_55\n      jump\t// in\n    tag_73:\n      mload(0x40)\n      dup1\n      swap2\n      sub\n      swap1\n      return\n        /* \"Contract2v.sol\":4110:4339  function hasAccess(address userAdress) public view returns(bool) {\r... */\n    tag_12:\n      callvalue\n      dup1\n      iszero\n      tag_74\n      jumpi\n      0x00\n      dup1\n      revert\n    tag_74:\n      pop\n      tag_75\n      0x04\n      dup1\n      calldatasize\n      sub\n      dup2\n      add\n      swap1\n      tag_76\n      swap2\n      swap1\n      tag_35\n      jump\t// in\n    tag_76:\n      tag_77\n      jump\t// in\n    tag_75:\n      mload(0x40)\n      tag_78\n      swap2\n      swap1\n      tag_45\n      jump\t// in\n    tag_78:\n      mload(0x40)\n      dup1\n      swap2\n      sub\n      swap1\n      return\n        /* \"Contract2v.sol\":1166:1216  mapping (uint8 => uint256) public currentUserIndex */\n    tag_13:\n      callvalue\n      dup1\n      iszero\n      tag_79\n      jumpi\n      0x00\n      dup1\n      revert\n    tag_79:\n      pop\n      tag_80\n      0x04\n      dup1\n      calldatasize\n      sub\n      dup2\n      add\n      swap1\n      tag_81\n      swap2\n      swap1\n      tag_48\n      jump\t// in\n    tag_81:\n      tag_82\n      jump\t// in\n    tag_80:\n      mload(0x40)\n      tag_83\n      swap2\n      swap1\n      tag_55\n      jump\t// in\n    tag_83:\n      mload(0x40)\n      dup1\n      swap2\n      sub\n      swap1\n      return\n        /* \"Contract2v.sol\":155:186  uint8 public currentGameIdIndex */\n    tag_14:\n      callvalue\n      dup1\n      iszero\n      tag_84\n      jumpi\n      0x00\n      dup1\n      revert\n    tag_84:\n      pop\n      tag_85\n      tag_86\n      jump\t// in\n    tag_85:\n      mload(0x40)\n      tag_87\n      swap2\n      swap1\n      tag_88\n      jump\t// in\n    tag_87:\n      mload(0x40)\n      dup1\n      swap2\n      sub\n      swap1\n      return\n        /* \"Contract2v.sol\":4479:4823  function addGameLevel(uint256 amountToPay) public onlyOwner {\r... */\n    tag_15:\n      callvalue\n      dup1\n      iszero\n      tag_89\n      jumpi\n      0x00\n      dup1\n      revert\n    tag_89:\n      pop\n      tag_90\n      0x04\n      dup1\n      calldatasize\n      sub\n      dup2\n      add\n      swap1\n      tag_91\n      swap2\n      swap1\n      tag_30\n      jump\t// in\n    tag_91:\n      tag_92\n      jump\t// in\n    tag_90:\n      stop\n        /* \"Contract2v.sol\":976:1019  mapping (uint256 => address) public usersId */\n    tag_16:\n      callvalue\n      dup1\n      iszero\n      tag_93\n      jumpi\n      0x00\n      dup1\n      revert\n    tag_93:\n      pop\n      tag_94\n      0x04\n      dup1\n      calldatasize\n      sub\n      dup2\n      add\n      swap1\n      tag_95\n      swap2\n      swap1\n      tag_30\n      jump\t// in\n    tag_95:\n      tag_96\n      jump\t// in\n    tag_94:\n      mload(0x40)\n      tag_97\n      swap2\n      swap1\n      tag_98\n      jump\t// in\n    tag_97:\n      mload(0x40)\n      dup1\n      swap2\n      sub\n      swap1\n      return\n        /* \"Contract2v.sol\":1354:1421  mapping (address => mapping (uint8 => uint256)) public userPayments */\n    tag_17:\n      callvalue\n      dup1\n      iszero\n      tag_99\n      jumpi\n      0x00\n      dup1\n      revert\n    tag_99:\n      pop\n      tag_100\n      0x04\n      dup1\n      calldatasize\n      sub\n      dup2\n      add\n      swap1\n      tag_101\n      swap2\n      swap1\n      tag_42\n      jump\t// in\n    tag_101:\n      tag_102\n      jump\t// in\n    tag_100:\n      mload(0x40)\n      tag_103\n      swap2\n      swap1\n      tag_55\n      jump\t// in\n    tag_103:\n      mload(0x40)\n      dup1\n      swap2\n      sub\n      swap1\n      return\n        /* \"Contract2v.sol\":2932:3531  function _fallback(address sender, uint256 value) internal {\r... */\n    tag_24:\n        /* \"Contract2v.sol\":3143:3155  bool success */\n      0x00\n        /* \"Contract2v.sol\":3166:3178  uint8 gameId */\n      dup1\n        /* \"Contract2v.sol\":3196:3207  uint8 index */\n      0x00\n        /* \"Contract2v.sol\":3191:3424  for (uint8 index; index < currentGameIdIndex+1; index++) {\r... */\n    tag_105:\n        /* \"Contract2v.sol\":3236:3237  1 */\n      0x01\n        /* \"Contract2v.sol\":3217:3235  currentGameIdIndex */\n      dup1\n      0x00\n      swap1\n      sload\n      swap1\n      0x0100\n      exp\n      swap1\n      div\n      0xff\n      and\n        /* \"Contract2v.sol\":3217:3237  currentGameIdIndex+1 */\n      tag_108\n      swap2\n      swap1\n      tag_109\n      jump\t// in\n    tag_108:\n        /* \"Contract2v.sol\":3209:3237  index < currentGameIdIndex+1 */\n      0xff\n      and\n        /* \"Contract2v.sol\":3209:3214  index */\n      dup2\n        /* \"Contract2v.sol\":3209:3237  index < currentGameIdIndex+1 */\n      0xff\n      and\n      lt\n        /* \"Contract2v.sol\":3191:3424  for (uint8 index; index < currentGameIdIndex+1; index++) {\r... */\n      iszero\n      tag_106\n      jumpi\n        /* \"Contract2v.sol\":3296:3305  msg.value */\n      callvalue\n        /* \"Contract2v.sol\":3267:3273  levels */\n      0x03\n        /* \"Contract2v.sol\":3267:3280  levels[index] */\n      0x00\n        /* \"Contract2v.sol\":3274:3279  index */\n      dup4\n        /* \"Contract2v.sol\":3267:3280  levels[index] */\n      0xff\n      and\n      0xff\n      and\n      dup2\n      mstore\n      0x20\n      add\n      swap1\n      dup2\n      mstore\n      0x20\n      add\n      0x00\n      keccak256\n        /* \"Contract2v.sol\":3267:3292  levels[index].amountToPay */\n      0x00\n      add\n      sload\n        /* \"Contract2v.sol\":3267:3305  levels[index].amountToPay == msg.value */\n      eq\n        /* \"Contract2v.sol\":3263:3413  if (levels[index].amountToPay == msg.value) {\r... */\n      iszero\n      tag_110\n      jumpi\n        /* \"Contract2v.sol\":3336:3340  true */\n      0x01\n        /* \"Contract2v.sol\":3326:3340  success = true */\n      swap3\n      pop\n        /* \"Contract2v.sol\":3368:3373  index */\n      dup1\n        /* \"Contract2v.sol\":3359:3373  gameId = index */\n      swap2\n      pop\n        /* \"Contract2v.sol\":3392:3397  break */\n      jump(tag_106)\n        /* \"Contract2v.sol\":3263:3413  if (levels[index].amountToPay == msg.value) {\r... */\n    tag_110:\n        /* \"Contract2v.sol\":3239:3246  index++ */\n      dup1\n      dup1\n      tag_111\n      swap1\n      tag_112\n      jump\t// in\n    tag_111:\n      swap2\n      pop\n      pop\n        /* \"Contract2v.sol\":3191:3424  for (uint8 index; index < currentGameIdIndex+1; index++) {\r... */\n      jump(tag_105)\n    tag_106:\n      pop\n        /* \"Contract2v.sol\":3452:3459  success */\n      dup2\n        /* \"Contract2v.sol\":3444:3478  require(success, \"Game not found\") */\n      tag_113\n      jumpi\n      mload(0x40)\n      0x08c379a000000000000000000000000000000000000000000000000000000000\n      dup2\n      mstore\n      0x04\n      add\n      tag_114\n      swap1\n      tag_115\n      jump\t// in\n    tag_114:\n      mload(0x40)\n      dup1\n      swap2\n      sub\n      swap1\n      revert\n    tag_113:\n        /* \"Contract2v.sol\":3489:3523  _joinToGame(gameId, sender, value) */\n      tag_116\n        /* \"Contract2v.sol\":3501:3507  gameId */\n      dup2\n        /* \"Contract2v.sol\":3509:3515  sender */\n      dup6\n        /* \"Contract2v.sol\":3517:3522  value */\n      dup6\n        /* \"Contract2v.sol\":3489:3500  _joinToGame */\n      tag_117\n        /* \"Contract2v.sol\":3489:3523  _joinToGame(gameId, sender, value) */\n      jump\t// in\n    tag_116:\n        /* \"Contract2v.sol\":2991:3531  {\r... */\n      pop\n      pop\n        /* \"Contract2v.sol\":2932:3531  function _fallback(address sender, uint256 value) internal {\r... */\n      pop\n      pop\n      jump\t// out\n        /* \"Contract2v.sol\":5266:5853  function registerUserToGame(uint256 inviterId) external payable noContractAccess {\r... */\n    tag_31:\n        /* \"Contract2v.sol\":2166:2177  uint32 size */\n      0x00\n        /* \"Contract2v.sol\":2188:2202  address sender */\n      dup1\n        /* \"Contract2v.sol\":2205:2215  msg.sender */\n      caller\n        /* \"Contract2v.sol\":2188:2215  address sender = msg.sender */\n      swap1\n      pop\n        /* \"Contract2v.sol\":2257:2263  sender */\n      dup1\n        /* \"Contract2v.sol\":2245:2264  extcodesize(sender) */\n      extcodesize\n        /* \"Contract2v.sol\":2237:2264  size := extcodesize(sender) */\n      swap2\n      pop\n        /* \"Contract2v.sol\":2295:2296  0 */\n      0x00\n        /* \"Contract2v.sol\":2288:2292  size */\n      dup3\n        /* \"Contract2v.sol\":2288:2296  size > 0 */\n      0xffffffff\n      and\n      gt\n        /* \"Contract2v.sol\":2286:2297  !(size > 0) */\n      iszero\n        /* \"Contract2v.sol\":2278:2314  require(!(size > 0), \"No contracts\") */\n      tag_119\n      jumpi\n      mload(0x40)\n      0x08c379a000000000000000000000000000000000000000000000000000000000\n      dup2\n      mstore\n      0x04\n      add\n      tag_120\n      swap1\n      tag_121\n      jump\t// in\n    tag_120:\n      mload(0x40)\n      dup1\n      swap2\n      sub\n      swap1\n      revert\n    tag_119:\n        /* \"Contract2v.sol\":5543:5544  0 */\n      0x00\n        /* \"Contract2v.sol\":5492:5545  registeredUsers[msg.sender].userAddress == address(0) */\n      0xffffffffffffffffffffffffffffffffffffffff\n      and\n        /* \"Contract2v.sol\":5492:5507  registeredUsers */\n      0x05\n        /* \"Contract2v.sol\":5492:5519  registeredUsers[msg.sender] */\n      0x00\n        /* \"Contract2v.sol\":5508:5518  msg.sender */\n      caller\n        /* \"Contract2v.sol\":5492:5519  registeredUsers[msg.sender] */\n      0xffffffffffffffffffffffffffffffffffffffff\n      and\n      0xffffffffffffffffffffffffffffffffffffffff\n      and\n      dup2\n      mstore\n      0x20\n      add\n      swap1\n      dup2\n      mstore\n      0x20\n      add\n      0x00\n      keccak256\n        /* \"Contract2v.sol\":5492:5531  registeredUsers[msg.sender].userAddress */\n      0x01\n      add\n      0x00\n      swap1\n      sload\n      swap1\n      0x0100\n      exp\n      swap1\n      div\n      0xffffffffffffffffffffffffffffffffffffffff\n      and\n        /* \"Contract2v.sol\":5492:5545  registeredUsers[msg.sender].userAddress == address(0) */\n      0xffffffffffffffffffffffffffffffffffffffff\n      and\n      eq\n        /* \"Contract2v.sol\":5484:5576  require(registeredUsers[msg.sender].userAddress == address(0), \"You are already registered\") */\n      tag_123\n      jumpi\n      mload(0x40)\n      0x08c379a000000000000000000000000000000000000000000000000000000000\n      dup2\n      mstore\n      0x04\n      add\n      tag_124\n      swap1\n      tag_125\n      jump\t// in\n    tag_124:\n      mload(0x40)\n      dup1\n      swap2\n      sub\n      swap1\n      revert\n    tag_123:\n        /* \"Contract2v.sol\":5609:5616  1 ether */\n      0x0de0b6b3a7640000\n        /* \"Contract2v.sol\":5596:5605  msg.value */\n      callvalue\n        /* \"Contract2v.sol\":5596:5616  msg.value == 1 ether */\n      eq\n        /* \"Contract2v.sol\":5587:5661  require (msg.value == 1 ether, \"For regiter in game you need pay 1 ether\") */\n      tag_126\n      jumpi\n      mload(0x40)\n      0x08c379a000000000000000000000000000000000000000000000000000000000\n      dup2\n      mstore\n      0x04\n      add\n      tag_127\n      swap1\n      tag_128\n      jump\t// in\n    tag_127:\n      mload(0x40)\n      dup1\n      swap2\n      sub\n      swap1\n      revert\n    tag_126:\n        /* \"Contract2v.sol\":5704:5760  User(currentUserIdIndex, payable(msg.sender), inviterId) */\n      mload(0x40)\n      dup1\n      0x60\n      add\n      0x40\n      mstore\n      dup1\n        /* \"Contract2v.sol\":5709:5727  currentUserIdIndex */\n      sload(0x00)\n        /* \"Contract2v.sol\":5704:5760  User(currentUserIdIndex, payable(msg.sender), inviterId) */\n      dup2\n      mstore\n      0x20\n      add\n        /* \"Contract2v.sol\":5737:5747  msg.sender */\n      caller\n        /* \"Contract2v.sol\":5704:5760  User(currentUserIdIndex, payable(msg.sender), inviterId) */\n      0xffffffffffffffffffffffffffffffffffffffff\n      and\n      dup2\n      mstore\n      0x20\n      add\n        /* \"Contract2v.sol\":5750:5759  inviterId */\n      dup5\n        /* \"Contract2v.sol\":5704:5760  User(currentUserIdIndex, payable(msg.sender), inviterId) */\n      dup2\n      mstore\n      pop\n        /* \"Contract2v.sol\":5674:5689  registeredUsers */\n      0x05\n        /* \"Contract2v.sol\":5674:5701  registeredUsers[msg.sender] */\n      0x00\n        /* \"Contract2v.sol\":5690:5700  msg.sender */\n      caller\n        /* \"Contract2v.sol\":5674:5701  registeredUsers[msg.sender] */\n      0xffffffffffffffffffffffffffffffffffffffff\n      and\n      0xffffffffffffffffffffffffffffffffffffffff\n      and\n      dup2\n      mstore\n      0x20\n      add\n      swap1\n      dup2\n      mstore\n      0x20\n      add\n      0x00\n      keccak256\n        /* \"Contract2v.sol\":5674:5760  registeredUsers[msg.sender] = User(currentUserIdIndex, payable(msg.sender), inviterId) */\n      0x00\n      dup3\n      add\n      mload\n      dup2\n      0x00\n      add\n      sstore\n      0x20\n      dup3\n      add\n      mload\n      dup2\n      0x01\n      add\n      exp(0x0100, 0x00)\n      dup2\n      sload\n      dup2\n      0xffffffffffffffffffffffffffffffffffffffff\n      mul\n      not\n      and\n      swap1\n      dup4\n      0xffffffffffffffffffffffffffffffffffffffff\n      and\n      mul\n      or\n      swap1\n      sstore\n      pop\n      0x40\n      dup3\n      add\n      mload\n      dup2\n      0x02\n      add\n      sstore\n      swap1\n      pop\n      pop\n        /* \"Contract2v.sol\":5801:5811  msg.sender */\n      caller\n        /* \"Contract2v.sol\":5771:5778  usersId */\n      0x04\n        /* \"Contract2v.sol\":5771:5798  usersId[currentUserIdIndex] */\n      0x00\n        /* \"Contract2v.sol\":5779:5797  currentUserIdIndex */\n      dup1\n      sload\n        /* \"Contract2v.sol\":5771:5798  usersId[currentUserIdIndex] */\n      dup2\n      mstore\n      0x20\n      add\n      swap1\n      dup2\n      mstore\n      0x20\n      add\n      0x00\n      keccak256\n      0x00\n        /* \"Contract2v.sol\":5771:5811  usersId[currentUserIdIndex] = msg.sender */\n      0x0100\n      exp\n      dup2\n      sload\n      dup2\n      0xffffffffffffffffffffffffffffffffffffffff\n      mul\n      not\n      and\n      swap1\n      dup4\n      0xffffffffffffffffffffffffffffffffffffffff\n      and\n      mul\n      or\n      swap1\n      sstore\n      pop\n        /* \"Contract2v.sol\":5844:5845  1 */\n      0x01\n        /* \"Contract2v.sol\":5822:5840  currentUserIdIndex */\n      0x00\n      dup1\n        /* \"Contract2v.sol\":5822:5845  currentUserIdIndex += 1 */\n      dup3\n      dup3\n      sload\n      tag_129\n      swap2\n      swap1\n      tag_130\n      jump\t// in\n    tag_129:\n      swap3\n      pop\n      pop\n      dup2\n      swap1\n      sstore\n      pop\n        /* \"Contract2v.sol\":2088:2334  {\r... */\n      pop\n      pop\n        /* \"Contract2v.sol\":5266:5853  function registerUserToGame(uint256 inviterId) external payable noContractAccess {\r... */\n      pop\n      jump\t// out\n        /* \"Contract2v.sol\":1063:1111  mapping (address => User) public registeredUsers */\n    tag_36:\n      mstore(0x20, 0x05)\n      dup1\n      0x00\n      mstore\n      keccak256(0x00, 0x40)\n      0x00\n      swap2\n      pop\n      swap1\n      pop\n      dup1\n      0x00\n      add\n      sload\n      swap1\n      dup1\n      0x01\n      add\n      0x00\n      swap1\n      sload\n      swap1\n      0x0100\n      exp\n      swap1\n      div\n      0xffffffffffffffffffffffffffffffffffffffff\n      and\n      swap1\n      dup1\n      0x02\n      add\n      sload\n      swap1\n      pop\n      dup4\n      jump\t// out\n        /* \"Contract2v.sol\":1467:1528  mapping (address => mapping (uint8 => bool)) public userGames */\n    tag_43:\n      mstore(0x20, 0x09)\n      dup2\n      0x00\n      mstore\n      mstore(0x20, keccak256(0x00, 0x40))\n      dup1\n      0x00\n      mstore\n      keccak256(0x00, 0x40)\n      0x00\n      swap2\n      pop\n      swap2\n      pop\n      swap1\n      sload\n      swap1\n      0x0100\n      exp\n      swap1\n      div\n      0xff\n      and\n      dup2\n      jump\t// out\n        /* \"Contract2v.sol\":5861:6078  function joinToGame(uint8 gameId) public payable onlyRegistered {\r... */\n    tag_49:\n        /* \"Contract2v.sol\":2031:2032  0 */\n      0x00\n        /* \"Contract2v.sol\":1980:2033  registeredUsers[msg.sender].userAddress != address(0) */\n      0xffffffffffffffffffffffffffffffffffffffff\n      and\n        /* \"Contract2v.sol\":1980:1995  registeredUsers */\n      0x05\n        /* \"Contract2v.sol\":1980:2007  registeredUsers[msg.sender] */\n      0x00\n        /* \"Contract2v.sol\":1996:2006  msg.sender */\n      caller\n        /* \"Contract2v.sol\":1980:2007  registeredUsers[msg.sender] */\n      0xffffffffffffffffffffffffffffffffffffffff\n      and\n      0xffffffffffffffffffffffffffffffffffffffff\n      and\n      dup2\n      mstore\n      0x20\n      add\n      swap1\n      dup2\n      mstore\n      0x20\n      add\n      0x00\n      keccak256\n        /* \"Contract2v.sol\":1980:2019  registeredUsers[msg.sender].userAddress */\n      0x01\n      add\n      0x00\n      swap1\n      sload\n      swap1\n      0x0100\n      exp\n      swap1\n      div\n      0xffffffffffffffffffffffffffffffffffffffff\n      and\n        /* \"Contract2v.sol\":1980:2033  registeredUsers[msg.sender].userAddress != address(0) */\n      0xffffffffffffffffffffffffffffffffffffffff\n      and\n      eq\n      iszero\n        /* \"Contract2v.sol\":1972:2034  require(registeredUsers[msg.sender].userAddress != address(0)) */\n      tag_132\n      jumpi\n      0x00\n      dup1\n      revert\n    tag_132:\n        /* \"Contract2v.sol\":6028:6070  _joinToGame(gameId, msg.sender, msg.value) */\n      tag_134\n        /* \"Contract2v.sol\":6040:6046  gameId */\n      dup2\n        /* \"Contract2v.sol\":6048:6058  msg.sender */\n      caller\n        /* \"Contract2v.sol\":6060:6069  msg.value */\n      callvalue\n        /* \"Contract2v.sol\":6028:6039  _joinToGame */\n      tag_117\n        /* \"Contract2v.sol\":6028:6070  _joinToGame(gameId, msg.sender, msg.value) */\n      jump\t// in\n    tag_134:\n        /* \"Contract2v.sol\":5861:6078  function joinToGame(uint8 gameId) public payable onlyRegistered {\r... */\n      pop\n      jump\t// out\n        /* \"Contract2v.sol\":4347:4471  function geUserGameBalance(address userAddress) public view returns(uint256) {\r... */\n    tag_53:\n        /* \"Contract2v.sol\":4415:4422  uint256 */\n      0x00\n        /* \"Contract2v.sol\":4442:4450  balances */\n      0x02\n        /* \"Contract2v.sol\":4442:4463  balances[userAddress] */\n      0x00\n        /* \"Contract2v.sol\":4451:4462  userAddress */\n      dup4\n        /* \"Contract2v.sol\":4442:4463  balances[userAddress] */\n      0xffffffffffffffffffffffffffffffffffffffff\n      and\n      0xffffffffffffffffffffffffffffffffffffffff\n      and\n      dup2\n      mstore\n      0x20\n      add\n      swap1\n      dup2\n      mstore\n      0x20\n      add\n      0x00\n      keccak256\n      sload\n        /* \"Contract2v.sol\":4435:4463  return balances[userAddress] */\n      swap1\n      pop\n        /* \"Contract2v.sol\":4347:4471  function geUserGameBalance(address userAddress) public view returns(uint256) {\r... */\n      swap2\n      swap1\n      pop\n      jump\t// out\n        /* \"Contract2v.sol\":86:119  uint256 public currentUserIdIndex */\n    tag_58:\n      sload(0x00)\n      dup2\n      jump\t// out\n        /* \"Contract2v.sol\":4831:5258  function withdrawGameBalance() external onlyRegistered {\r... */\n    tag_62:\n        /* \"Contract2v.sol\":2031:2032  0 */\n      0x00\n        /* \"Contract2v.sol\":1980:2033  registeredUsers[msg.sender].userAddress != address(0) */\n      0xffffffffffffffffffffffffffffffffffffffff\n      and\n        /* \"Contract2v.sol\":1980:1995  registeredUsers */\n      0x05\n        /* \"Contract2v.sol\":1980:2007  registeredUsers[msg.sender] */\n      0x00\n        /* \"Contract2v.sol\":1996:2006  msg.sender */\n      caller\n        /* \"Contract2v.sol\":1980:2007  registeredUsers[msg.sender] */\n      0xffffffffffffffffffffffffffffffffffffffff\n      and\n      0xffffffffffffffffffffffffffffffffffffffff\n      and\n      dup2\n      mstore\n      0x20\n      add\n      swap1\n      dup2\n      mstore\n      0x20\n      add\n      0x00\n      keccak256\n        /* \"Contract2v.sol\":1980:2019  registeredUsers[msg.sender].userAddress */\n      0x01\n      add\n      0x00\n      swap1\n      sload\n      swap1\n      0x0100\n      exp\n      swap1\n      div\n      0xffffffffffffffffffffffffffffffffffffffff\n      and\n        /* \"Contract2v.sol\":1980:2033  registeredUsers[msg.sender].userAddress != address(0) */\n      0xffffffffffffffffffffffffffffffffffffffff\n      and\n      eq\n      iszero\n        /* \"Contract2v.sol\":1972:2034  require(registeredUsers[msg.sender].userAddress != address(0)) */\n      tag_137\n      jumpi\n      0x00\n      dup1\n      revert\n    tag_137:\n        /* \"Contract2v.sol\":5085:5086  0 */\n      0x00\n        /* \"Contract2v.sol\":5062:5070  balances */\n      0x02\n        /* \"Contract2v.sol\":5062:5082  balances[msg.sender] */\n      0x00\n        /* \"Contract2v.sol\":5071:5081  msg.sender */\n      caller\n        /* \"Contract2v.sol\":5062:5082  balances[msg.sender] */\n      0xffffffffffffffffffffffffffffffffffffffff\n      and\n      0xffffffffffffffffffffffffffffffffffffffff\n      and\n      dup2\n      mstore\n      0x20\n      add\n      swap1\n      dup2\n      mstore\n      0x20\n      add\n      0x00\n      keccak256\n      sload\n        /* \"Contract2v.sol\":5062:5086  balances[msg.sender] > 0 */\n      gt\n        /* \"Contract2v.sol\":5054:5110  require(balances[msg.sender] > 0, \"Nothing to withdraw\") */\n      tag_139\n      jumpi\n      mload(0x40)\n      0x08c379a000000000000000000000000000000000000000000000000000000000\n      dup2\n      mstore\n      0x04\n      add\n      tag_140\n      swap1\n      tag_141\n      jump\t// in\n    tag_140:\n      mload(0x40)\n      dup1\n      swap2\n      sub\n      swap1\n      revert\n    tag_139:\n        /* \"Contract2v.sol\":5122:5134  bool success */\n      0x00\n        /* \"Contract2v.sol\":5140:5150  msg.sender */\n      caller\n        /* \"Contract2v.sol\":5140:5155  msg.sender.call */\n      0xffffffffffffffffffffffffffffffffffffffff\n      and\n        /* \"Contract2v.sol\":5163:5171  balances */\n      0x02\n        /* \"Contract2v.sol\":5163:5183  balances[msg.sender] */\n      0x00\n        /* \"Contract2v.sol\":5172:5182  msg.sender */\n      caller\n        /* \"Contract2v.sol\":5163:5183  balances[msg.sender] */\n      0xffffffffffffffffffffffffffffffffffffffff\n      and\n      0xffffffffffffffffffffffffffffffffffffffff\n      and\n      dup2\n      mstore\n      0x20\n      add\n      swap1\n      dup2\n      mstore\n      0x20\n      add\n      0x00\n      keccak256\n      sload\n        /* \"Contract2v.sol\":5140:5188  msg.sender.call{value: balances[msg.sender]}(\"\") */\n      mload(0x40)\n      tag_142\n      swap1\n      tag_143\n      jump\t// in\n    tag_142:\n      0x00\n      mload(0x40)\n      dup1\n      dup4\n      sub\n      dup2\n      dup6\n      dup8\n      gas\n      call\n      swap3\n      pop\n      pop\n      pop\n      returndatasize\n      dup1\n      0x00\n      dup2\n      eq\n      tag_146\n      jumpi\n      mload(0x40)\n      swap2\n      pop\n      and(add(returndatasize, 0x3f), not(0x1f))\n      dup3\n      add\n      0x40\n      mstore\n      returndatasize\n      dup3\n      mstore\n      returndatasize\n      0x00\n      0x20\n      dup5\n      add\n      returndatacopy\n      jump(tag_145)\n    tag_146:\n      0x60\n      swap2\n      pop\n    tag_145:\n      pop\n        /* \"Contract2v.sol\":5121:5188  (bool success, ) = msg.sender.call{value: balances[msg.sender]}(\"\") */\n      pop\n      swap1\n      pop\n        /* \"Contract2v.sol\":5207:5214  success */\n      dup1\n        /* \"Contract2v.sol\":5199:5215  require(success) */\n      tag_147\n      jumpi\n      0x00\n      dup1\n      revert\n    tag_147:\n        /* \"Contract2v.sol\":5249:5250  0 */\n      0x00\n        /* \"Contract2v.sol\":5226:5234  balances */\n      0x02\n        /* \"Contract2v.sol\":5226:5246  balances[msg.sender] */\n      0x00\n        /* \"Contract2v.sol\":5235:5245  msg.sender */\n      caller\n        /* \"Contract2v.sol\":5226:5246  balances[msg.sender] */\n      0xffffffffffffffffffffffffffffffffffffffff\n      and\n      0xffffffffffffffffffffffffffffffffffffffff\n      and\n      dup2\n      mstore\n      0x20\n      add\n      swap1\n      dup2\n      mstore\n      0x20\n      add\n      0x00\n      keccak256\n        /* \"Contract2v.sol\":5226:5250  balances[msg.sender] = 0 */\n      dup2\n      swap1\n      sstore\n      pop\n        /* \"Contract2v.sol\":4886:5258  {\r... */\n      pop\n        /* \"Contract2v.sol\":4831:5258  function withdrawGameBalance() external onlyRegistered {\r... */\n      jump\t// out\n        /* \"Contract2v.sol\":1255:1312  mapping (uint8 => mapping (uint256 => User)) public pools */\n    tag_67:\n      mstore(0x20, 0x07)\n      dup2\n      0x00\n      mstore\n      mstore(0x20, keccak256(0x00, 0x40))\n      dup1\n      0x00\n      mstore\n      keccak256(0x00, 0x40)\n      0x00\n      swap2\n      pop\n      swap2\n      pop\n      pop\n      dup1\n      0x00\n      add\n      sload\n      swap1\n      dup1\n      0x01\n      add\n      0x00\n      swap1\n      sload\n      swap1\n      0x0100\n      exp\n      swap1\n      div\n      0xffffffffffffffffffffffffffffffffffffffff\n      and\n      swap1\n      dup1\n      0x02\n      add\n      sload\n      swap1\n      pop\n      dup4\n      jump\t// out\n        /* \"Contract2v.sol\":915:952  mapping (uint8 => Game) public levels */\n    tag_72:\n      mstore(0x20, 0x03)\n      dup1\n      0x00\n      mstore\n      keccak256(0x00, 0x40)\n      0x00\n      swap2\n      pop\n      swap1\n      pop\n      dup1\n      0x00\n      add\n      sload\n      swap1\n      pop\n      dup2\n      jump\t// out\n        /* \"Contract2v.sol\":4110:4339  function hasAccess(address userAdress) public view returns(bool) {\r... */\n    tag_77:\n        /* \"Contract2v.sol\":4169:4173  bool */\n      0x00\n        /* \"Contract2v.sol\":4318:4331  contractOwner */\n      0x01\n      dup1\n      sload\n      swap1\n      0x0100\n      exp\n      swap1\n      div\n      0xffffffffffffffffffffffffffffffffffffffff\n      and\n        /* \"Contract2v.sol\":4304:4331  userAdress == contractOwner */\n      0xffffffffffffffffffffffffffffffffffffffff\n      and\n        /* \"Contract2v.sol\":4304:4314  userAdress */\n      dup3\n        /* \"Contract2v.sol\":4304:4331  userAdress == contractOwner */\n      0xffffffffffffffffffffffffffffffffffffffff\n      and\n      eq\n        /* \"Contract2v.sol\":4297:4331  return userAdress == contractOwner */\n      swap1\n      pop\n        /* \"Contract2v.sol\":4110:4339  function hasAccess(address userAdress) public view returns(bool) {\r... */\n      swap2\n      swap1\n      pop\n      jump\t// out\n        /* \"Contract2v.sol\":1166:1216  mapping (uint8 => uint256) public currentUserIndex */\n    tag_82:\n      mstore(0x20, 0x06)\n      dup1\n      0x00\n      mstore\n      keccak256(0x00, 0x40)\n      0x00\n      swap2\n      pop\n      swap1\n      pop\n      sload\n      dup2\n      jump\t// out\n        /* \"Contract2v.sol\":155:186  uint8 public currentGameIdIndex */\n    tag_86:\n      0x01\n      0x00\n      swap1\n      sload\n      swap1\n      0x0100\n      exp\n      swap1\n      div\n      0xff\n      and\n      dup2\n      jump\t// out\n        /* \"Contract2v.sol\":4479:4823  function addGameLevel(uint256 amountToPay) public onlyOwner {\r... */\n    tag_92:\n        /* \"Contract2v.sol\":2440:2461  hasAccess(msg.sender) */\n      tag_150\n        /* \"Contract2v.sol\":2450:2460  msg.sender */\n      caller\n        /* \"Contract2v.sol\":2440:2449  hasAccess */\n      tag_77\n        /* \"Contract2v.sol\":2440:2461  hasAccess(msg.sender) */\n      jump\t// in\n    tag_150:\n        /* \"Contract2v.sol\":2432:2462  require(hasAccess(msg.sender)) */\n      tag_151\n      jumpi\n      0x00\n      dup1\n      revert\n    tag_151:\n        /* \"Contract2v.sol\":4684:4718  Game({ amountToPay: amountToPay }) */\n      mload(0x40)\n      dup1\n      0x20\n      add\n      0x40\n      mstore\n      dup1\n        /* \"Contract2v.sol\":4704:4715  amountToPay */\n      dup3\n        /* \"Contract2v.sol\":4684:4718  Game({ amountToPay: amountToPay }) */\n      dup2\n      mstore\n      pop\n        /* \"Contract2v.sol\":4655:4661  levels */\n      0x03\n        /* \"Contract2v.sol\":4655:4681  levels[currentGameIdIndex] */\n      0x00\n        /* \"Contract2v.sol\":4662:4680  currentGameIdIndex */\n      0x01\n      0x00\n      swap1\n      sload\n      swap1\n      0x0100\n      exp\n      swap1\n      div\n      0xff\n      and\n        /* \"Contract2v.sol\":4655:4681  levels[currentGameIdIndex] */\n      0xff\n      and\n      0xff\n      and\n      dup2\n      mstore\n      0x20\n      add\n      swap1\n      dup2\n      mstore\n      0x20\n      add\n      0x00\n      keccak256\n        /* \"Contract2v.sol\":4655:4718  levels[currentGameIdIndex] = Game({ amountToPay: amountToPay }) */\n      0x00\n      dup3\n      add\n      mload\n      dup2\n      0x00\n      add\n      sstore\n      swap1\n      pop\n      pop\n        /* \"Contract2v.sol\":4751:4752  1 */\n      0x01\n        /* \"Contract2v.sol\":4729:4747  currentGameIdIndex */\n      dup1\n      0x00\n        /* \"Contract2v.sol\":4729:4752  currentGameIdIndex += 1 */\n      dup3\n      dup3\n      dup3\n      swap1\n      sload\n      swap1\n      0x0100\n      exp\n      swap1\n      div\n      0xff\n      and\n      tag_153\n      swap2\n      swap1\n      tag_109\n      jump\t// in\n    tag_153:\n      swap3\n      pop\n      0x0100\n      exp\n      dup2\n      sload\n      dup2\n      0xff\n      mul\n      not\n      and\n      swap1\n      dup4\n      0xff\n      and\n      mul\n      or\n      swap1\n      sstore\n      pop\n        /* \"Contract2v.sol\":4768:4815  NewGame(levels[currentGameIdIndex].amountToPay) */\n      0xa0b7f6f22bb4f69adc52dd16ffe2a964ab8b577be274247fa9a1547b03ce3e55\n        /* \"Contract2v.sol\":4776:4782  levels */\n      0x03\n        /* \"Contract2v.sol\":4776:4802  levels[currentGameIdIndex] */\n      0x00\n        /* \"Contract2v.sol\":4783:4801  currentGameIdIndex */\n      0x01\n      0x00\n      swap1\n      sload\n      swap1\n      0x0100\n      exp\n      swap1\n      div\n      0xff\n      and\n        /* \"Contract2v.sol\":4776:4802  levels[currentGameIdIndex] */\n      0xff\n      and\n      0xff\n      and\n      dup2\n      mstore\n      0x20\n      add\n      swap1\n      dup2\n      mstore\n      0x20\n      add\n      0x00\n      keccak256\n        /* \"Contract2v.sol\":4776:4814  levels[currentGameIdIndex].amountToPay */\n      0x00\n      add\n      sload\n        /* \"Contract2v.sol\":4768:4815  NewGame(levels[currentGameIdIndex].amountToPay) */\n      mload(0x40)\n      tag_154\n      swap2\n      swap1\n      tag_55\n      jump\t// in\n    tag_154:\n      mload(0x40)\n      dup1\n      swap2\n      sub\n      swap1\n      log1\n        /* \"Contract2v.sol\":4479:4823  function addGameLevel(uint256 amountToPay) public onlyOwner {\r... */\n      pop\n      jump\t// out\n        /* \"Contract2v.sol\":976:1019  mapping (uint256 => address) public usersId */\n    tag_96:\n      mstore(0x20, 0x04)\n      dup1\n      0x00\n      mstore\n      keccak256(0x00, 0x40)\n      0x00\n      swap2\n      pop\n      sload\n      swap1\n      0x0100\n      exp\n      swap1\n      div\n      0xffffffffffffffffffffffffffffffffffffffff\n      and\n      dup2\n      jump\t// out\n        /* \"Contract2v.sol\":1354:1421  mapping (address => mapping (uint8 => uint256)) public userPayments */\n    tag_102:\n      mstore(0x20, 0x08)\n      dup2\n      0x00\n      mstore\n      mstore(0x20, keccak256(0x00, 0x40))\n      dup1\n      0x00\n      mstore\n      keccak256(0x00, 0x40)\n      0x00\n      swap2\n      pop\n      swap2\n      pop\n      pop\n      sload\n      dup2\n      jump\t// out\n        /* \"Contract2v.sol\":6086:9600  function _joinToGame(uint8 gameId, address sender, uint256 value) internal {\r... */\n    tag_117:\n        /* \"Contract2v.sol\":6190:6196  levels */\n      0x03\n        /* \"Contract2v.sol\":6190:6204  levels[gameId] */\n      0x00\n        /* \"Contract2v.sol\":6197:6203  gameId */\n      dup5\n        /* \"Contract2v.sol\":6190:6204  levels[gameId] */\n      0xff\n      and\n      0xff\n      and\n      dup2\n      mstore\n      0x20\n      add\n      swap1\n      dup2\n      mstore\n      0x20\n      add\n      0x00\n      keccak256\n        /* \"Contract2v.sol\":6190:6216  levels[gameId].amountToPay */\n      0x00\n      add\n      sload\n        /* \"Contract2v.sol\":6181:6186  value */\n      dup2\n        /* \"Contract2v.sol\":6181:6216  value >= levels[gameId].amountToPay */\n      lt\n      iszero\n        /* \"Contract2v.sol\":6172:6256  require (value >= levels[gameId].amountToPay, \"Insufficient amount of contribution\") */\n      tag_156\n      jumpi\n      mload(0x40)\n      0x08c379a000000000000000000000000000000000000000000000000000000000\n      dup2\n      mstore\n      0x04\n      add\n      tag_157\n      swap1\n      tag_158\n      jump\t// in\n    tag_157:\n      mload(0x40)\n      dup1\n      swap2\n      sub\n      swap1\n      revert\n    tag_156:\n        /* \"Contract2v.sol\":6431:6446  registeredUsers */\n      0x05\n        /* \"Contract2v.sol\":6431:6454  registeredUsers[sender] */\n      0x00\n        /* \"Contract2v.sol\":6447:6453  sender */\n      dup4\n        /* \"Contract2v.sol\":6431:6454  registeredUsers[sender] */\n      0xffffffffffffffffffffffffffffffffffffffff\n      and\n      0xffffffffffffffffffffffffffffffffffffffff\n      and\n      dup2\n      mstore\n      0x20\n      add\n      swap1\n      dup2\n      mstore\n      0x20\n      add\n      0x00\n      keccak256\n        /* \"Contract2v.sol\":6389:6394  pools */\n      0x07\n        /* \"Contract2v.sol\":6389:6402  pools[gameId] */\n      0x00\n        /* \"Contract2v.sol\":6395:6401  gameId */\n      dup6\n        /* \"Contract2v.sol\":6389:6402  pools[gameId] */\n      0xff\n      and\n      0xff\n      and\n      dup2\n      mstore\n      0x20\n      add\n      swap1\n      dup2\n      mstore\n      0x20\n      add\n      0x00\n      keccak256\n        /* \"Contract2v.sol\":6389:6428  pools[gameId][currentUserIndex[gameId]] */\n      0x00\n        /* \"Contract2v.sol\":6403:6419  currentUserIndex */\n      0x06\n        /* \"Contract2v.sol\":6403:6427  currentUserIndex[gameId] */\n      0x00\n        /* \"Contract2v.sol\":6420:6426  gameId */\n      dup8\n        /* \"Contract2v.sol\":6403:6427  currentUserIndex[gameId] */\n      0xff\n      and\n      0xff\n      and\n      dup2\n      mstore\n      0x20\n      add\n      swap1\n      dup2\n      mstore\n      0x20\n      add\n      0x00\n      keccak256\n      sload\n        /* \"Contract2v.sol\":6389:6428  pools[gameId][currentUserIndex[gameId]] */\n      dup2\n      mstore\n      0x20\n      add\n      swap1\n      dup2\n      mstore\n      0x20\n      add\n      0x00\n      keccak256\n        /* \"Contract2v.sol\":6389:6454  pools[gameId][currentUserIndex[gameId]] = registeredUsers[sender] */\n      0x00\n      dup3\n      add\n      sload\n      dup2\n      0x00\n      add\n      sstore\n      0x01\n      dup3\n      add\n      0x00\n      swap1\n      sload\n      swap1\n      0x0100\n      exp\n      swap1\n      div\n      0xffffffffffffffffffffffffffffffffffffffff\n      and\n      dup2\n      0x01\n      add\n      exp(0x0100, 0x00)\n      dup2\n      sload\n      dup2\n      0xffffffffffffffffffffffffffffffffffffffff\n      mul\n      not\n      and\n      swap1\n      dup4\n      0xffffffffffffffffffffffffffffffffffffffff\n      and\n      mul\n      or\n      swap1\n      sstore\n      pop\n      0x02\n      dup3\n      add\n      sload\n      dup2\n      0x02\n      add\n      sstore\n      swap1\n      pop\n      pop\n        /* \"Contract2v.sol\":6493:6497  true */\n      0x01\n        /* \"Contract2v.sol\":6465:6474  userGames */\n      0x09\n        /* \"Contract2v.sol\":6465:6482  userGames[sender] */\n      0x00\n        /* \"Contract2v.sol\":6475:6481  sender */\n      dup5\n        /* \"Contract2v.sol\":6465:6482  userGames[sender] */\n      0xffffffffffffffffffffffffffffffffffffffff\n      and\n      0xffffffffffffffffffffffffffffffffffffffff\n      and\n      dup2\n      mstore\n      0x20\n      add\n      swap1\n      dup2\n      mstore\n      0x20\n      add\n      0x00\n      keccak256\n        /* \"Contract2v.sol\":6465:6490  userGames[sender][gameId] */\n      0x00\n        /* \"Contract2v.sol\":6483:6489  gameId */\n      dup6\n        /* \"Contract2v.sol\":6465:6490  userGames[sender][gameId] */\n      0xff\n      and\n      0xff\n      and\n      dup2\n      mstore\n      0x20\n      add\n      swap1\n      dup2\n      mstore\n      0x20\n      add\n      0x00\n      keccak256\n      0x00\n        /* \"Contract2v.sol\":6465:6497  userGames[sender][gameId] = true */\n      0x0100\n      exp\n      dup2\n      sload\n      dup2\n      0xff\n      mul\n      not\n      and\n      swap1\n      dup4\n      iszero\n      iszero\n      mul\n      or\n      swap1\n      sstore\n      pop\n        /* \"Contract2v.sol\":6536:6537  1 */\n      0x01\n        /* \"Contract2v.sol\":6508:6524  currentUserIndex */\n      0x06\n        /* \"Contract2v.sol\":6508:6532  currentUserIndex[gameId] */\n      0x00\n        /* \"Contract2v.sol\":6525:6531  gameId */\n      dup6\n        /* \"Contract2v.sol\":6508:6532  currentUserIndex[gameId] */\n      0xff\n      and\n      0xff\n      and\n      dup2\n      mstore\n      0x20\n      add\n      swap1\n      dup2\n      mstore\n      0x20\n      add\n      0x00\n      keccak256\n      0x00\n        /* \"Contract2v.sol\":6508:6537  currentUserIndex[gameId] += 1 */\n      dup3\n      dup3\n      sload\n      tag_159\n      swap2\n      swap1\n      tag_130\n      jump\t// in\n    tag_159:\n      swap3\n      pop\n      pop\n      dup2\n      swap1\n      sstore\n      pop\n        /* \"Contract2v.sol\":6681:6682  3 */\n      0x03\n        /* \"Contract2v.sol\":6653:6669  currentUserIndex */\n      0x06\n        /* \"Contract2v.sol\":6653:6677  currentUserIndex[gameId] */\n      0x00\n        /* \"Contract2v.sol\":6670:6676  gameId */\n      dup6\n        /* \"Contract2v.sol\":6653:6677  currentUserIndex[gameId] */\n      0xff\n      and\n      0xff\n      and\n      dup2\n      mstore\n      0x20\n      add\n      swap1\n      dup2\n      mstore\n      0x20\n      add\n      0x00\n      keccak256\n      sload\n        /* \"Contract2v.sol\":6653:6682  currentUserIndex[gameId] >= 3 */\n      lt\n        /* \"Contract2v.sol\":6649:9593  if (currentUserIndex[gameId] >= 3) {\r... */\n      tag_160\n      jumpi\n        /* \"Contract2v.sol\":6699:6716  uint256 userIndex */\n      0x00\n        /* \"Contract2v.sol\":6719:6764  culcNextWinnerIndex(currentUserIndex[gameId]) */\n      tag_161\n        /* \"Contract2v.sol\":6739:6755  currentUserIndex */\n      0x06\n        /* \"Contract2v.sol\":6739:6763  currentUserIndex[gameId] */\n      0x00\n        /* \"Contract2v.sol\":6756:6762  gameId */\n      dup7\n        /* \"Contract2v.sol\":6739:6763  currentUserIndex[gameId] */\n      0xff\n      and\n      0xff\n      and\n      dup2\n      mstore\n      0x20\n      add\n      swap1\n      dup2\n      mstore\n      0x20\n      add\n      0x00\n      keccak256\n      sload\n        /* \"Contract2v.sol\":6719:6738  culcNextWinnerIndex */\n      tag_162\n        /* \"Contract2v.sol\":6719:6764  culcNextWinnerIndex(currentUserIndex[gameId]) */\n      jump\t// in\n    tag_161:\n        /* \"Contract2v.sol\":6699:6764  uint256 userIndex = culcNextWinnerIndex(currentUserIndex[gameId]) */\n      swap1\n      pop\n        /* \"Contract2v.sol\":6905:9582  while (userIndex != 0) {\r... */\n    tag_163:\n        /* \"Contract2v.sol\":6925:6926  0 */\n      0x00\n        /* \"Contract2v.sol\":6912:6921  userIndex */\n      dup2\n        /* \"Contract2v.sol\":6912:6926  userIndex != 0 */\n      eq\n        /* \"Contract2v.sol\":6905:9582  while (userIndex != 0) {\r... */\n      tag_164\n      jumpi\n        /* \"Contract2v.sol\":6947:6970  address selectedAddress */\n      0x00\n        /* \"Contract2v.sol\":6973:6978  pools */\n      0x07\n        /* \"Contract2v.sol\":6973:6986  pools[gameId] */\n      0x00\n        /* \"Contract2v.sol\":6979:6985  gameId */\n      dup7\n        /* \"Contract2v.sol\":6973:6986  pools[gameId] */\n      0xff\n      and\n      0xff\n      and\n      dup2\n      mstore\n      0x20\n      add\n      swap1\n      dup2\n      mstore\n      0x20\n      add\n      0x00\n      keccak256\n        /* \"Contract2v.sol\":6973:7001  pools[gameId][userIndex - 1] */\n      0x00\n        /* \"Contract2v.sol\":6999:7000  1 */\n      0x01\n        /* \"Contract2v.sol\":6987:6996  userIndex */\n      dup5\n        /* \"Contract2v.sol\":6987:7000  userIndex - 1 */\n      tag_165\n      swap2\n      swap1\n      tag_166\n      jump\t// in\n    tag_165:\n        /* \"Contract2v.sol\":6973:7001  pools[gameId][userIndex - 1] */\n      dup2\n      mstore\n      0x20\n      add\n      swap1\n      dup2\n      mstore\n      0x20\n      add\n      0x00\n      keccak256\n        /* \"Contract2v.sol\":6973:7013  pools[gameId][userIndex - 1].userAddress */\n      0x01\n      add\n      0x00\n      swap1\n      sload\n      swap1\n      0x0100\n      exp\n      swap1\n      div\n      0xffffffffffffffffffffffffffffffffffffffff\n      and\n        /* \"Contract2v.sol\":6947:7013  address selectedAddress = pools[gameId][userIndex - 1].userAddress */\n      swap1\n      pop\n        /* \"Contract2v.sol\":7219:7220  1 */\n      0x01\n        /* \"Contract2v.sol\":7178:7190  userPayments */\n      0x08\n        /* \"Contract2v.sol\":7178:7207  userPayments[selectedAddress] */\n      0x00\n        /* \"Contract2v.sol\":7191:7206  selectedAddress */\n      dup4\n        /* \"Contract2v.sol\":7178:7207  userPayments[selectedAddress] */\n      0xffffffffffffffffffffffffffffffffffffffff\n      and\n      0xffffffffffffffffffffffffffffffffffffffff\n      and\n      dup2\n      mstore\n      0x20\n      add\n      swap1\n      dup2\n      mstore\n      0x20\n      add\n      0x00\n      keccak256\n        /* \"Contract2v.sol\":7178:7215  userPayments[selectedAddress][gameId] */\n      0x00\n        /* \"Contract2v.sol\":7208:7214  gameId */\n      dup8\n        /* \"Contract2v.sol\":7178:7215  userPayments[selectedAddress][gameId] */\n      0xff\n      and\n      0xff\n      and\n      dup2\n      mstore\n      0x20\n      add\n      swap1\n      dup2\n      mstore\n      0x20\n      add\n      0x00\n      keccak256\n      sload\n        /* \"Contract2v.sol\":7178:7220  userPayments[selectedAddress][gameId] <= 1 */\n      gt\n      iszero\n        /* \"Contract2v.sol\":7178:7260  userPayments[selectedAddress][gameId] <= 1 || userGames[selectedAddress][gameId+1] */\n      dup1\n      tag_167\n      jumpi\n      pop\n        /* \"Contract2v.sol\":7224:7233  userGames */\n      0x09\n        /* \"Contract2v.sol\":7224:7250  userGames[selectedAddress] */\n      0x00\n        /* \"Contract2v.sol\":7234:7249  selectedAddress */\n      dup3\n        /* \"Contract2v.sol\":7224:7250  userGames[selectedAddress] */\n      0xffffffffffffffffffffffffffffffffffffffff\n      and\n      0xffffffffffffffffffffffffffffffffffffffff\n      and\n      dup2\n      mstore\n      0x20\n      add\n      swap1\n      dup2\n      mstore\n      0x20\n      add\n      0x00\n      keccak256\n        /* \"Contract2v.sol\":7224:7260  userGames[selectedAddress][gameId+1] */\n      0x00\n        /* \"Contract2v.sol\":7258:7259  1 */\n      0x01\n        /* \"Contract2v.sol\":7251:7257  gameId */\n      dup8\n        /* \"Contract2v.sol\":7251:7259  gameId+1 */\n      tag_168\n      swap2\n      swap1\n      tag_109\n      jump\t// in\n    tag_168:\n        /* \"Contract2v.sol\":7224:7260  userGames[selectedAddress][gameId+1] */\n      0xff\n      and\n      0xff\n      and\n      dup2\n      mstore\n      0x20\n      add\n      swap1\n      dup2\n      mstore\n      0x20\n      add\n      0x00\n      keccak256\n      0x00\n      swap1\n      sload\n      swap1\n      0x0100\n      exp\n      swap1\n      div\n      0xff\n      and\n        /* \"Contract2v.sol\":7178:7260  userPayments[selectedAddress][gameId] <= 1 || userGames[selectedAddress][gameId+1] */\n    tag_167:\n        /* \"Contract2v.sol\":7174:9567  if (userPayments[selectedAddress][gameId] <= 1 || userGames[selectedAddress][gameId+1]) {\r... */\n      iszero\n      tag_169\n      jumpi\n        /* \"Contract2v.sol\":7531:7534  100 */\n      0x64\n        /* \"Contract2v.sol\":275:277  74 */\n      0x4a\n        /* \"Contract2v.sol\":7490:7496  levels */\n      0x03\n        /* \"Contract2v.sol\":7490:7504  levels[gameId] */\n      0x00\n        /* \"Contract2v.sol\":7497:7503  gameId */\n      dup9\n        /* \"Contract2v.sol\":7490:7504  levels[gameId] */\n      0xff\n      and\n      0xff\n      and\n      dup2\n      mstore\n      0x20\n      add\n      swap1\n      dup2\n      mstore\n      0x20\n      add\n      0x00\n      keccak256\n        /* \"Contract2v.sol\":7490:7516  levels[gameId].amountToPay */\n      0x00\n      add\n      sload\n        /* \"Contract2v.sol\":7490:7528  levels[gameId].amountToPay * baseAward */\n      tag_170\n      swap2\n      swap1\n      tag_171\n      jump\t// in\n    tag_170:\n        /* \"Contract2v.sol\":7490:7534  levels[gameId].amountToPay * baseAward / 100 */\n      tag_172\n      swap2\n      swap1\n      tag_173\n      jump\t// in\n    tag_172:\n        /* \"Contract2v.sol\":7461:7469  balances */\n      0x02\n        /* \"Contract2v.sol\":7461:7486  balances[selectedAddress] */\n      0x00\n        /* \"Contract2v.sol\":7470:7485  selectedAddress */\n      dup4\n        /* \"Contract2v.sol\":7461:7486  balances[selectedAddress] */\n      0xffffffffffffffffffffffffffffffffffffffff\n      and\n      0xffffffffffffffffffffffffffffffffffffffff\n      and\n      dup2\n      mstore\n      0x20\n      add\n      swap1\n      dup2\n      mstore\n      0x20\n      add\n      0x00\n      keccak256\n      0x00\n        /* \"Contract2v.sol\":7461:7534  balances[selectedAddress] += levels[gameId].amountToPay * baseAward / 100 */\n      dup3\n      dup3\n      sload\n      tag_174\n      swap2\n      swap1\n      tag_130\n      jump\t// in\n    tag_174:\n      swap3\n      pop\n      pop\n      dup2\n      swap1\n      sstore\n      pop\n        /* \"Contract2v.sol\":7598:7599  1 */\n      0x01\n        /* \"Contract2v.sol\":7557:7569  userPayments */\n      0x08\n        /* \"Contract2v.sol\":7557:7586  userPayments[selectedAddress] */\n      0x00\n        /* \"Contract2v.sol\":7570:7585  selectedAddress */\n      dup4\n        /* \"Contract2v.sol\":7557:7586  userPayments[selectedAddress] */\n      0xffffffffffffffffffffffffffffffffffffffff\n      and\n      0xffffffffffffffffffffffffffffffffffffffff\n      and\n      dup2\n      mstore\n      0x20\n      add\n      swap1\n      dup2\n      mstore\n      0x20\n      add\n      0x00\n      keccak256\n        /* \"Contract2v.sol\":7557:7594  userPayments[selectedAddress][gameId] */\n      0x00\n        /* \"Contract2v.sol\":7587:7593  gameId */\n      dup8\n        /* \"Contract2v.sol\":7557:7594  userPayments[selectedAddress][gameId] */\n      0xff\n      and\n      0xff\n      and\n      dup2\n      mstore\n      0x20\n      add\n      swap1\n      dup2\n      mstore\n      0x20\n      add\n      0x00\n      keccak256\n      0x00\n        /* \"Contract2v.sol\":7557:7599  userPayments[selectedAddress][gameId] += 1 */\n      dup3\n      dup3\n      sload\n      tag_175\n      swap2\n      swap1\n      tag_130\n      jump\t// in\n    tag_175:\n      swap3\n      pop\n      pop\n      dup2\n      swap1\n      sstore\n      pop\n        /* \"Contract2v.sol\":7681:7748  GamePaymentEvent(levels[gameId].amountToPay, selectedAddress, true) */\n      0x99af5599bf20c9414934ff2eb4264f5ac1a42fe0e5ec331366cf59ed0641c1bd\n        /* \"Contract2v.sol\":7698:7704  levels */\n      0x03\n        /* \"Contract2v.sol\":7698:7712  levels[gameId] */\n      0x00\n        /* \"Contract2v.sol\":7705:7711  gameId */\n      dup8\n        /* \"Contract2v.sol\":7698:7712  levels[gameId] */\n      0xff\n      and\n      0xff\n      and\n      dup2\n      mstore\n      0x20\n      add\n      swap1\n      dup2\n      mstore\n      0x20\n      add\n      0x00\n      keccak256\n        /* \"Contract2v.sol\":7698:7724  levels[gameId].amountToPay */\n      0x00\n      add\n      sload\n        /* \"Contract2v.sol\":7726:7741  selectedAddress */\n      dup3\n        /* \"Contract2v.sol\":7743:7747  true */\n      0x01\n        /* \"Contract2v.sol\":7681:7748  GamePaymentEvent(levels[gameId].amountToPay, selectedAddress, true) */\n      mload(0x40)\n      tag_176\n      swap4\n      swap3\n      swap2\n      swap1\n      tag_177\n      jump\t// in\n    tag_176:\n      mload(0x40)\n      dup1\n      swap2\n      sub\n      swap1\n      log1\n        /* \"Contract2v.sol\":7773:7787  uint256 userId */\n      0x00\n        /* \"Contract2v.sol\":7790:7795  pools */\n      0x07\n        /* \"Contract2v.sol\":7790:7803  pools[gameId] */\n      0x00\n        /* \"Contract2v.sol\":7796:7802  gameId */\n      dup8\n        /* \"Contract2v.sol\":7790:7803  pools[gameId] */\n      0xff\n      and\n      0xff\n      and\n      dup2\n      mstore\n      0x20\n      add\n      swap1\n      dup2\n      mstore\n      0x20\n      add\n      0x00\n      keccak256\n        /* \"Contract2v.sol\":7790:7818  pools[gameId][userIndex - 1] */\n      0x00\n        /* \"Contract2v.sol\":7816:7817  1 */\n      0x01\n        /* \"Contract2v.sol\":7804:7813  userIndex */\n      dup6\n        /* \"Contract2v.sol\":7804:7817  userIndex - 1 */\n      tag_178\n      swap2\n      swap1\n      tag_166\n      jump\t// in\n    tag_178:\n        /* \"Contract2v.sol\":7790:7818  pools[gameId][userIndex - 1] */\n      dup2\n      mstore\n      0x20\n      add\n      swap1\n      dup2\n      mstore\n      0x20\n      add\n      0x00\n      keccak256\n        /* \"Contract2v.sol\":7790:7825  pools[gameId][userIndex - 1].userId */\n      0x00\n      add\n      sload\n        /* \"Contract2v.sol\":7773:7825  uint256 userId = pools[gameId][userIndex - 1].userId */\n      swap1\n      pop\n        /* \"Contract2v.sol\":7877:7894  uint256 invitedId */\n      0x00\n        /* \"Contract2v.sol\":7897:7902  pools */\n      0x07\n        /* \"Contract2v.sol\":7897:7910  pools[gameId] */\n      0x00\n        /* \"Contract2v.sol\":7903:7909  gameId */\n      dup9\n        /* \"Contract2v.sol\":7897:7910  pools[gameId] */\n      0xff\n      and\n      0xff\n      and\n      dup2\n      mstore\n      0x20\n      add\n      swap1\n      dup2\n      mstore\n      0x20\n      add\n      0x00\n      keccak256\n        /* \"Contract2v.sol\":7897:7925  pools[gameId][userIndex - 1] */\n      0x00\n        /* \"Contract2v.sol\":7923:7924  1 */\n      0x01\n        /* \"Contract2v.sol\":7911:7920  userIndex */\n      dup7\n        /* \"Contract2v.sol\":7911:7924  userIndex - 1 */\n      tag_179\n      swap2\n      swap1\n      tag_166\n      jump\t// in\n    tag_179:\n        /* \"Contract2v.sol\":7897:7925  pools[gameId][userIndex - 1] */\n      dup2\n      mstore\n      0x20\n      add\n      swap1\n      dup2\n      mstore\n      0x20\n      add\n      0x00\n      keccak256\n        /* \"Contract2v.sol\":7897:7935  pools[gameId][userIndex - 1].invitedId */\n      0x02\n      add\n      sload\n        /* \"Contract2v.sol\":7877:7935  uint256 invitedId = pools[gameId][userIndex - 1].invitedId */\n      swap1\n      pop\n        /* \"Contract2v.sol\":7995:8008  uint refValue */\n      0x00\n        /* \"Contract2v.sol\":8060:8063  100 */\n      0x64\n        /* \"Contract2v.sol\":338:340  10 */\n      0x0a\n        /* \"Contract2v.sol\":8011:8017  levels */\n      0x03\n        /* \"Contract2v.sol\":8011:8025  levels[gameId] */\n      0x00\n        /* \"Contract2v.sol\":8018:8024  gameId */\n      dup12\n        /* \"Contract2v.sol\":8011:8025  levels[gameId] */\n      0xff\n      and\n      0xff\n      and\n      dup2\n      mstore\n      0x20\n      add\n      swap1\n      dup2\n      mstore\n      0x20\n      add\n      0x00\n      keccak256\n        /* \"Contract2v.sol\":8011:8037  levels[gameId].amountToPay */\n      0x00\n      add\n      sload\n        /* \"Contract2v.sol\":8011:8057  levels[gameId].amountToPay * firstLevelReferal */\n      tag_180\n      swap2\n      swap1\n      tag_171\n      jump\t// in\n    tag_180:\n        /* \"Contract2v.sol\":8011:8063  levels[gameId].amountToPay * firstLevelReferal / 100 */\n      tag_181\n      swap2\n      swap1\n      tag_173\n      jump\t// in\n    tag_181:\n        /* \"Contract2v.sol\":7995:8063  uint refValue = levels[gameId].amountToPay * firstLevelReferal / 100 */\n      swap1\n      pop\n        /* \"Contract2v.sol\":8143:8151  refValue */\n      dup1\n        /* \"Contract2v.sol\":8111:8119  balances */\n      0x02\n        /* \"Contract2v.sol\":8111:8139  balances[usersId[invitedId]] */\n      0x00\n        /* \"Contract2v.sol\":8120:8127  usersId */\n      0x04\n        /* \"Contract2v.sol\":8120:8138  usersId[invitedId] */\n      0x00\n        /* \"Contract2v.sol\":8128:8137  invitedId */\n      dup7\n        /* \"Contract2v.sol\":8120:8138  usersId[invitedId] */\n      dup2\n      mstore\n      0x20\n      add\n      swap1\n      dup2\n      mstore\n      0x20\n      add\n      0x00\n      keccak256\n      0x00\n      swap1\n      sload\n      swap1\n      0x0100\n      exp\n      swap1\n      div\n      0xffffffffffffffffffffffffffffffffffffffff\n      and\n        /* \"Contract2v.sol\":8111:8139  balances[usersId[invitedId]] */\n      0xffffffffffffffffffffffffffffffffffffffff\n      and\n      0xffffffffffffffffffffffffffffffffffffffff\n      and\n      dup2\n      mstore\n      0x20\n      add\n      swap1\n      dup2\n      mstore\n      0x20\n      add\n      0x00\n      keccak256\n      0x00\n        /* \"Contract2v.sol\":8111:8151  balances[usersId[invitedId]] += refValue */\n      dup3\n      dup3\n      sload\n      tag_182\n      swap2\n      swap1\n      tag_130\n      jump\t// in\n    tag_182:\n      swap3\n      pop\n      pop\n      dup2\n      swap1\n      sstore\n      pop\n        /* \"Contract2v.sol\":8181:8257  ReferalPaymentEvent(levels[gameId].amountToPay, userId, invitedId, refValue) */\n      0x394d81fc6d726f376ac7e03cfb1bf07f04a993ec0a3fe7f4782e2ef8e5416145\n        /* \"Contract2v.sol\":8201:8207  levels */\n      0x03\n        /* \"Contract2v.sol\":8201:8215  levels[gameId] */\n      0x00\n        /* \"Contract2v.sol\":8208:8214  gameId */\n      dup11\n        /* \"Contract2v.sol\":8201:8215  levels[gameId] */\n      0xff\n      and\n      0xff\n      and\n      dup2\n      mstore\n      0x20\n      add\n      swap1\n      dup2\n      mstore\n      0x20\n      add\n      0x00\n      keccak256\n        /* \"Contract2v.sol\":8201:8227  levels[gameId].amountToPay */\n      0x00\n      add\n      sload\n        /* \"Contract2v.sol\":8229:8235  userId */\n      dup5\n        /* \"Contract2v.sol\":8237:8246  invitedId */\n      dup5\n        /* \"Contract2v.sol\":8248:8256  refValue */\n      dup5\n        /* \"Contract2v.sol\":8181:8257  ReferalPaymentEvent(levels[gameId].amountToPay, userId, invitedId, refValue) */\n      mload(0x40)\n      tag_183\n      swap5\n      swap4\n      swap3\n      swap2\n      swap1\n      tag_184\n      jump\t// in\n    tag_183:\n      mload(0x40)\n      dup1\n      swap2\n      sub\n      swap1\n      log1\n        /* \"Contract2v.sol\":8343:8346  100 */\n      0x64\n        /* \"Contract2v.sol\":415:416  6 */\n      0x06\n        /* \"Contract2v.sol\":8293:8299  levels */\n      0x03\n        /* \"Contract2v.sol\":8293:8307  levels[gameId] */\n      0x00\n        /* \"Contract2v.sol\":8300:8306  gameId */\n      dup12\n        /* \"Contract2v.sol\":8293:8307  levels[gameId] */\n      0xff\n      and\n      0xff\n      and\n      dup2\n      mstore\n      0x20\n      add\n      swap1\n      dup2\n      mstore\n      0x20\n      add\n      0x00\n      keccak256\n        /* \"Contract2v.sol\":8293:8319  levels[gameId].amountToPay */\n      0x00\n      add\n      sload\n        /* \"Contract2v.sol\":8293:8340  levels[gameId].amountToPay * secondLevelReferal */\n      tag_185\n      swap2\n      swap1\n      tag_171\n      jump\t// in\n    tag_185:\n        /* \"Contract2v.sol\":8293:8346  levels[gameId].amountToPay * secondLevelReferal / 100 */\n      tag_186\n      swap2\n      swap1\n      tag_173\n      jump\t// in\n    tag_186:\n        /* \"Contract2v.sol\":8282:8346  refValue = levels[gameId].amountToPay * secondLevelReferal / 100 */\n      swap1\n      pop\n        /* \"Contract2v.sol\":8454:8462  refValue */\n      dup1\n        /* \"Contract2v.sol\":8393:8401  balances */\n      0x02\n        /* \"Contract2v.sol\":8393:8450  balances[registeredUsers[usersId[invitedId]].userAddress] */\n      0x00\n        /* \"Contract2v.sol\":8402:8417  registeredUsers */\n      0x05\n        /* \"Contract2v.sol\":8402:8437  registeredUsers[usersId[invitedId]] */\n      0x00\n        /* \"Contract2v.sol\":8418:8425  usersId */\n      0x04\n        /* \"Contract2v.sol\":8418:8436  usersId[invitedId] */\n      0x00\n        /* \"Contract2v.sol\":8426:8435  invitedId */\n      dup9\n        /* \"Contract2v.sol\":8418:8436  usersId[invitedId] */\n      dup2\n      mstore\n      0x20\n      add\n      swap1\n      dup2\n      mstore\n      0x20\n      add\n      0x00\n      keccak256\n      0x00\n      swap1\n      sload\n      swap1\n      0x0100\n      exp\n      swap1\n      div\n      0xffffffffffffffffffffffffffffffffffffffff\n      and\n        /* \"Contract2v.sol\":8402:8437  registeredUsers[usersId[invitedId]] */\n      0xffffffffffffffffffffffffffffffffffffffff\n      and\n      0xffffffffffffffffffffffffffffffffffffffff\n      and\n      dup2\n      mstore\n      0x20\n      add\n      swap1\n      dup2\n      mstore\n      0x20\n      add\n      0x00\n      keccak256\n        /* \"Contract2v.sol\":8402:8449  registeredUsers[usersId[invitedId]].userAddress */\n      0x01\n      add\n      0x00\n      swap1\n      sload\n      swap1\n      0x0100\n      exp\n      swap1\n      div\n      0xffffffffffffffffffffffffffffffffffffffff\n      and\n        /* \"Contract2v.sol\":8393:8450  balances[registeredUsers[usersId[invitedId]].userAddress] */\n      0xffffffffffffffffffffffffffffffffffffffff\n      and\n      0xffffffffffffffffffffffffffffffffffffffff\n      and\n      dup2\n      mstore\n      0x20\n      add\n      swap1\n      dup2\n      mstore\n      0x20\n      add\n      0x00\n      keccak256\n      0x00\n        /* \"Contract2v.sol\":8393:8462  balances[registeredUsers[usersId[invitedId]].userAddress] += refValue */\n      dup3\n      dup3\n      sload\n      tag_187\n      swap2\n      swap1\n      tag_130\n      jump\t// in\n    tag_187:\n      swap3\n      pop\n      pop\n      dup2\n      swap1\n      sstore\n      pop\n        /* \"Contract2v.sol\":8512:8624  ReferalPaymentEvent(levels[gameId].amountToPay, invitedId, registeredUsers[usersId[invitedId]].userId, refValue) */\n      0x394d81fc6d726f376ac7e03cfb1bf07f04a993ec0a3fe7f4782e2ef8e5416145\n        /* \"Contract2v.sol\":8532:8538  levels */\n      0x03\n        /* \"Contract2v.sol\":8532:8546  levels[gameId] */\n      0x00\n        /* \"Contract2v.sol\":8539:8545  gameId */\n      dup11\n        /* \"Contract2v.sol\":8532:8546  levels[gameId] */\n      0xff\n      and\n      0xff\n      and\n      dup2\n      mstore\n      0x20\n      add\n      swap1\n      dup2\n      mstore\n      0x20\n      add\n      0x00\n      keccak256\n        /* \"Contract2v.sol\":8532:8558  levels[gameId].amountToPay */\n      0x00\n      add\n      sload\n        /* \"Contract2v.sol\":8560:8569  invitedId */\n      dup4\n        /* \"Contract2v.sol\":8571:8586  registeredUsers */\n      0x05\n        /* \"Contract2v.sol\":8571:8606  registeredUsers[usersId[invitedId]] */\n      0x00\n        /* \"Contract2v.sol\":8587:8594  usersId */\n      0x04\n        /* \"Contract2v.sol\":8587:8605  usersId[invitedId] */\n      0x00\n        /* \"Contract2v.sol\":8595:8604  invitedId */\n      dup9\n        /* \"Contract2v.sol\":8587:8605  usersId[invitedId] */\n      dup2\n      mstore\n      0x20\n      add\n      swap1\n      dup2\n      mstore\n      0x20\n      add\n      0x00\n      keccak256\n      0x00\n      swap1\n      sload\n      swap1\n      0x0100\n      exp\n      swap1\n      div\n      0xffffffffffffffffffffffffffffffffffffffff\n      and\n        /* \"Contract2v.sol\":8571:8606  registeredUsers[usersId[invitedId]] */\n      0xffffffffffffffffffffffffffffffffffffffff\n      and\n      0xffffffffffffffffffffffffffffffffffffffff\n      and\n      dup2\n      mstore\n      0x20\n      add\n      swap1\n      dup2\n      mstore\n      0x20\n      add\n      0x00\n      keccak256\n        /* \"Contract2v.sol\":8571:8613  registeredUsers[usersId[invitedId]].userId */\n      0x00\n      add\n      sload\n        /* \"Contract2v.sol\":8615:8623  refValue */\n      dup5\n        /* \"Contract2v.sol\":8512:8624  ReferalPaymentEvent(levels[gameId].amountToPay, invitedId, registeredUsers[usersId[invitedId]].userId, refValue) */\n      mload(0x40)\n      tag_188\n      swap5\n      swap4\n      swap3\n      swap2\n      swap1\n      tag_184\n      jump\t// in\n    tag_188:\n      mload(0x40)\n      dup1\n      swap2\n      sub\n      swap1\n      log1\n        /* \"Contract2v.sol\":8709:8712  100 */\n      0x64\n        /* \"Contract2v.sol\":490:491  4 */\n      0x04\n        /* \"Contract2v.sol\":8660:8666  levels */\n      0x03\n        /* \"Contract2v.sol\":8660:8674  levels[gameId] */\n      0x00\n        /* \"Contract2v.sol\":8667:8673  gameId */\n      dup12\n        /* \"Contract2v.sol\":8660:8674  levels[gameId] */\n      0xff\n      and\n      0xff\n      and\n      dup2\n      mstore\n      0x20\n      add\n      swap1\n      dup2\n      mstore\n      0x20\n      add\n      0x00\n      keccak256\n        /* \"Contract2v.sol\":8660:8686  levels[gameId].amountToPay */\n      0x00\n      add\n      sload\n        /* \"Contract2v.sol\":8660:8706  levels[gameId].amountToPay * thirdLevelReferal */\n      tag_189\n      swap2\n      swap1\n      tag_171\n      jump\t// in\n    tag_189:\n        /* \"Contract2v.sol\":8660:8712  levels[gameId].amountToPay * thirdLevelReferal / 100 */\n      tag_190\n      swap2\n      swap1\n      tag_173\n      jump\t// in\n    tag_190:\n        /* \"Contract2v.sol\":8649:8712  refValue = levels[gameId].amountToPay * thirdLevelReferal / 100 */\n      swap1\n      pop\n        /* \"Contract2v.sol\":8852:8860  refValue */\n      dup1\n        /* \"Contract2v.sol\":8758:8766  balances */\n      0x02\n        /* \"Contract2v.sol\":8758:8848  balances[registeredUsers[usersId[registeredUsers[usersId[invitedId]].userId]].userAddress] */\n      0x00\n        /* \"Contract2v.sol\":8767:8782  registeredUsers */\n      0x05\n        /* \"Contract2v.sol\":8767:8835  registeredUsers[usersId[registeredUsers[usersId[invitedId]].userId]] */\n      0x00\n        /* \"Contract2v.sol\":8783:8790  usersId */\n      0x04\n        /* \"Contract2v.sol\":8783:8834  usersId[registeredUsers[usersId[invitedId]].userId] */\n      0x00\n        /* \"Contract2v.sol\":8791:8806  registeredUsers */\n      0x05\n        /* \"Contract2v.sol\":8791:8826  registeredUsers[usersId[invitedId]] */\n      0x00\n        /* \"Contract2v.sol\":8807:8814  usersId */\n      0x04\n        /* \"Contract2v.sol\":8807:8825  usersId[invitedId] */\n      0x00\n        /* \"Contract2v.sol\":8815:8824  invitedId */\n      dup13\n        /* \"Contract2v.sol\":8807:8825  usersId[invitedId] */\n      dup2\n      mstore\n      0x20\n      add\n      swap1\n      dup2\n      mstore\n      0x20\n      add\n      0x00\n      keccak256\n      0x00\n      swap1\n      sload\n      swap1\n      0x0100\n      exp\n      swap1\n      div\n      0xffffffffffffffffffffffffffffffffffffffff\n      and\n        /* \"Contract2v.sol\":8791:8826  registeredUsers[usersId[invitedId]] */\n      0xffffffffffffffffffffffffffffffffffffffff\n      and\n      0xffffffffffffffffffffffffffffffffffffffff\n      and\n      dup2\n      mstore\n      0x20\n      add\n      swap1\n      dup2\n      mstore\n      0x20\n      add\n      0x00\n      keccak256\n        /* \"Contract2v.sol\":8791:8833  registeredUsers[usersId[invitedId]].userId */\n      0x00\n      add\n      sload\n        /* \"Contract2v.sol\":8783:8834  usersId[registeredUsers[usersId[invitedId]].userId] */\n      dup2\n      mstore\n      0x20\n      add\n      swap1\n      dup2\n      mstore\n      0x20\n      add\n      0x00\n      keccak256\n      0x00\n      swap1\n      sload\n      swap1\n      0x0100\n      exp\n      swap1\n      div\n      0xffffffffffffffffffffffffffffffffffffffff\n      and\n        /* \"Contract2v.sol\":8767:8835  registeredUsers[usersId[registeredUsers[usersId[invitedId]].userId]] */\n      0xffffffffffffffffffffffffffffffffffffffff\n      and\n      0xffffffffffffffffffffffffffffffffffffffff\n      and\n      dup2\n      mstore\n      0x20\n      add\n      swap1\n      dup2\n      mstore\n      0x20\n      add\n      0x00\n      keccak256\n        /* \"Contract2v.sol\":8767:8847  registeredUsers[usersId[registeredUsers[usersId[invitedId]].userId]].userAddress */\n      0x01\n      add\n      0x00\n      swap1\n      sload\n      swap1\n      0x0100\n      exp\n      swap1\n      div\n      0xffffffffffffffffffffffffffffffffffffffff\n      and\n        /* \"Contract2v.sol\":8758:8848  balances[registeredUsers[usersId[registeredUsers[usersId[invitedId]].userId]].userAddress] */\n      0xffffffffffffffffffffffffffffffffffffffff\n      and\n      0xffffffffffffffffffffffffffffffffffffffff\n      and\n      dup2\n      mstore\n      0x20\n      add\n      swap1\n      dup2\n      mstore\n      0x20\n      add\n      0x00\n      keccak256\n      0x00\n        /* \"Contract2v.sol\":8758:8860  balances[registeredUsers[usersId[registeredUsers[usersId[invitedId]].userId]].userAddress] += refValue */\n      dup3\n      dup3\n      sload\n      tag_191\n      swap2\n      swap1\n      tag_130\n      jump\t// in\n    tag_191:\n      swap3\n      pop\n      pop\n      dup2\n      swap1\n      sstore\n      pop\n        /* \"Contract2v.sol\":8890:9068  ReferalPaymentEvent(levels[gameId].amountToPay, registeredUsers[usersId[invitedId]].userId, registeredUsers[usersId[registeredUsers[usersId[invitedId]].userId]].userId, refValue) */\n      0x394d81fc6d726f376ac7e03cfb1bf07f04a993ec0a3fe7f4782e2ef8e5416145\n        /* \"Contract2v.sol\":8910:8916  levels */\n      0x03\n        /* \"Contract2v.sol\":8910:8924  levels[gameId] */\n      0x00\n        /* \"Contract2v.sol\":8917:8923  gameId */\n      dup11\n        /* \"Contract2v.sol\":8910:8924  levels[gameId] */\n      0xff\n      and\n      0xff\n      and\n      dup2\n      mstore\n      0x20\n      add\n      swap1\n      dup2\n      mstore\n      0x20\n      add\n      0x00\n      keccak256\n        /* \"Contract2v.sol\":8910:8936  levels[gameId].amountToPay */\n      0x00\n      add\n      sload\n        /* \"Contract2v.sol\":8938:8953  registeredUsers */\n      0x05\n        /* \"Contract2v.sol\":8938:8973  registeredUsers[usersId[invitedId]] */\n      0x00\n        /* \"Contract2v.sol\":8954:8961  usersId */\n      0x04\n        /* \"Contract2v.sol\":8954:8972  usersId[invitedId] */\n      0x00\n        /* \"Contract2v.sol\":8962:8971  invitedId */\n      dup8\n        /* \"Contract2v.sol\":8954:8972  usersId[invitedId] */\n      dup2\n      mstore\n      0x20\n      add\n      swap1\n      dup2\n      mstore\n      0x20\n      add\n      0x00\n      keccak256\n      0x00\n      swap1\n      sload\n      swap1\n      0x0100\n      exp\n      swap1\n      div\n      0xffffffffffffffffffffffffffffffffffffffff\n      and\n        /* \"Contract2v.sol\":8938:8973  registeredUsers[usersId[invitedId]] */\n      0xffffffffffffffffffffffffffffffffffffffff\n      and\n      0xffffffffffffffffffffffffffffffffffffffff\n      and\n      dup2\n      mstore\n      0x20\n      add\n      swap1\n      dup2\n      mstore\n      0x20\n      add\n      0x00\n      keccak256\n        /* \"Contract2v.sol\":8938:8980  registeredUsers[usersId[invitedId]].userId */\n      0x00\n      add\n      sload\n        /* \"Contract2v.sol\":8982:8997  registeredUsers */\n      0x05\n        /* \"Contract2v.sol\":8982:9050  registeredUsers[usersId[registeredUsers[usersId[invitedId]].userId]] */\n      0x00\n        /* \"Contract2v.sol\":8998:9005  usersId */\n      0x04\n        /* \"Contract2v.sol\":8998:9049  usersId[registeredUsers[usersId[invitedId]].userId] */\n      0x00\n        /* \"Contract2v.sol\":9006:9021  registeredUsers */\n      0x05\n        /* \"Contract2v.sol\":9006:9041  registeredUsers[usersId[invitedId]] */\n      0x00\n        /* \"Contract2v.sol\":9022:9029  usersId */\n      0x04\n        /* \"Contract2v.sol\":9022:9040  usersId[invitedId] */\n      0x00\n        /* \"Contract2v.sol\":9030:9039  invitedId */\n      dup13\n        /* \"Contract2v.sol\":9022:9040  usersId[invitedId] */\n      dup2\n      mstore\n      0x20\n      add\n      swap1\n      dup2\n      mstore\n      0x20\n      add\n      0x00\n      keccak256\n      0x00\n      swap1\n      sload\n      swap1\n      0x0100\n      exp\n      swap1\n      div\n      0xffffffffffffffffffffffffffffffffffffffff\n      and\n        /* \"Contract2v.sol\":9006:9041  registeredUsers[usersId[invitedId]] */\n      0xffffffffffffffffffffffffffffffffffffffff\n      and\n      0xffffffffffffffffffffffffffffffffffffffff\n      and\n      dup2\n      mstore\n      0x20\n      add\n      swap1\n      dup2\n      mstore\n      0x20\n      add\n      0x00\n      keccak256\n        /* \"Contract2v.sol\":9006:9048  registeredUsers[usersId[invitedId]].userId */\n      0x00\n      add\n      sload\n        /* \"Contract2v.sol\":8998:9049  usersId[registeredUsers[usersId[invitedId]].userId] */\n      dup2\n      mstore\n      0x20\n      add\n      swap1\n      dup2\n      mstore\n      0x20\n      add\n      0x00\n      keccak256\n      0x00\n      swap1\n      sload\n      swap1\n      0x0100\n      exp\n      swap1\n      div\n      0xffffffffffffffffffffffffffffffffffffffff\n      and\n        /* \"Contract2v.sol\":8982:9050  registeredUsers[usersId[registeredUsers[usersId[invitedId]].userId]] */\n      0xffffffffffffffffffffffffffffffffffffffff\n      and\n      0xffffffffffffffffffffffffffffffffffffffff\n      and\n      dup2\n      mstore\n      0x20\n      add\n      swap1\n      dup2\n      mstore\n      0x20\n      add\n      0x00\n      keccak256\n        /* \"Contract2v.sol\":8982:9057  registeredUsers[usersId[registeredUsers[usersId[invitedId]].userId]].userId */\n      0x00\n      add\n      sload\n        /* \"Contract2v.sol\":9059:9067  refValue */\n      dup5\n        /* \"Contract2v.sol\":8890:9068  ReferalPaymentEvent(levels[gameId].amountToPay, registeredUsers[usersId[invitedId]].userId, registeredUsers[usersId[registeredUsers[usersId[invitedId]].userId]].userId, refValue) */\n      mload(0x40)\n      tag_192\n      swap5\n      swap4\n      swap3\n      swap2\n      swap1\n      tag_184\n      jump\t// in\n    tag_192:\n      mload(0x40)\n      dup1\n      swap2\n      sub\n      swap1\n      log1\n        /* \"Contract2v.sol\":9268:9271  100 */\n      0x64\n        /* \"Contract2v.sol\":559:560  6 */\n      0x06\n        /* \"Contract2v.sol\":9224:9230  levels */\n      0x03\n        /* \"Contract2v.sol\":9224:9238  levels[gameId] */\n      0x00\n        /* \"Contract2v.sol\":9231:9237  gameId */\n      dup12\n        /* \"Contract2v.sol\":9224:9238  levels[gameId] */\n      0xff\n      and\n      0xff\n      and\n      dup2\n      mstore\n      0x20\n      add\n      swap1\n      dup2\n      mstore\n      0x20\n      add\n      0x00\n      keccak256\n        /* \"Contract2v.sol\":9224:9250  levels[gameId].amountToPay */\n      0x00\n      add\n      sload\n        /* \"Contract2v.sol\":9224:9265  levels[gameId].amountToPay * ownerReferal */\n      tag_193\n      swap2\n      swap1\n      tag_171\n      jump\t// in\n    tag_193:\n        /* \"Contract2v.sol\":9224:9271  levels[gameId].amountToPay * ownerReferal / 100 */\n      tag_194\n      swap2\n      swap1\n      tag_173\n      jump\t// in\n    tag_194:\n        /* \"Contract2v.sol\":9213:9271  refValue = levels[gameId].amountToPay * ownerReferal / 100 */\n      swap1\n      pop\n        /* \"Contract2v.sol\":9338:9346  refValue */\n      dup1\n        /* \"Contract2v.sol\":9311:9319  balances */\n      0x02\n        /* \"Contract2v.sol\":9311:9334  balances[contractOwner] */\n      0x00\n        /* \"Contract2v.sol\":9320:9333  contractOwner */\n      0x01\n      dup1\n      sload\n      swap1\n      0x0100\n      exp\n      swap1\n      div\n      0xffffffffffffffffffffffffffffffffffffffff\n      and\n        /* \"Contract2v.sol\":9311:9334  balances[contractOwner] */\n      0xffffffffffffffffffffffffffffffffffffffff\n      and\n      0xffffffffffffffffffffffffffffffffffffffff\n      and\n      dup2\n      mstore\n      0x20\n      add\n      swap1\n      dup2\n      mstore\n      0x20\n      add\n      0x00\n      keccak256\n      0x00\n        /* \"Contract2v.sol\":9311:9346  balances[contractOwner] += refValue */\n      dup3\n      dup3\n      sload\n      tag_195\n      swap2\n      swap1\n      tag_130\n      jump\t// in\n    tag_195:\n      swap3\n      pop\n      pop\n      dup2\n      swap1\n      sstore\n      pop\n        /* \"Contract2v.sol\":9376:9480  ReferalPaymentEvent(levels[gameId].amountToPay, userId, registeredUsers[contractOwner].userId, refValue) */\n      0x394d81fc6d726f376ac7e03cfb1bf07f04a993ec0a3fe7f4782e2ef8e5416145\n        /* \"Contract2v.sol\":9396:9402  levels */\n      0x03\n        /* \"Contract2v.sol\":9396:9410  levels[gameId] */\n      0x00\n        /* \"Contract2v.sol\":9403:9409  gameId */\n      dup11\n        /* \"Contract2v.sol\":9396:9410  levels[gameId] */\n      0xff\n      and\n      0xff\n      and\n      dup2\n      mstore\n      0x20\n      add\n      swap1\n      dup2\n      mstore\n      0x20\n      add\n      0x00\n      keccak256\n        /* \"Contract2v.sol\":9396:9422  levels[gameId].amountToPay */\n      0x00\n      add\n      sload\n        /* \"Contract2v.sol\":9424:9430  userId */\n      dup5\n        /* \"Contract2v.sol\":9432:9447  registeredUsers */\n      0x05\n        /* \"Contract2v.sol\":9432:9462  registeredUsers[contractOwner] */\n      0x00\n        /* \"Contract2v.sol\":9448:9461  contractOwner */\n      0x01\n      dup1\n      sload\n      swap1\n      0x0100\n      exp\n      swap1\n      div\n      0xffffffffffffffffffffffffffffffffffffffff\n      and\n        /* \"Contract2v.sol\":9432:9462  registeredUsers[contractOwner] */\n      0xffffffffffffffffffffffffffffffffffffffff\n      and\n      0xffffffffffffffffffffffffffffffffffffffff\n      and\n      dup2\n      mstore\n      0x20\n      add\n      swap1\n      dup2\n      mstore\n      0x20\n      add\n      0x00\n      keccak256\n        /* \"Contract2v.sol\":9432:9469  registeredUsers[contractOwner].userId */\n      0x00\n      add\n      sload\n        /* \"Contract2v.sol\":9471:9479  refValue */\n      dup5\n        /* \"Contract2v.sol\":9376:9480  ReferalPaymentEvent(levels[gameId].amountToPay, userId, registeredUsers[contractOwner].userId, refValue) */\n      mload(0x40)\n      tag_196\n      swap5\n      swap4\n      swap3\n      swap2\n      swap1\n      tag_184\n      jump\t// in\n    tag_196:\n      mload(0x40)\n      dup1\n      swap2\n      sub\n      swap1\n      log1\n        /* \"Contract2v.sol\":9517:9547  culcNextWinnerIndex(userIndex) */\n      tag_197\n        /* \"Contract2v.sol\":9537:9546  userIndex */\n      dup6\n        /* \"Contract2v.sol\":9517:9536  culcNextWinnerIndex */\n      tag_162\n        /* \"Contract2v.sol\":9517:9547  culcNextWinnerIndex(userIndex) */\n      jump\t// in\n    tag_197:\n        /* \"Contract2v.sol\":9505:9547  userIndex = culcNextWinnerIndex(userIndex) */\n      swap5\n      pop\n        /* \"Contract2v.sol\":7262:9567  {\r... */\n      pop\n      pop\n      pop\n        /* \"Contract2v.sol\":7174:9567  if (userPayments[selectedAddress][gameId] <= 1 || userGames[selectedAddress][gameId+1]) {\r... */\n    tag_169:\n        /* \"Contract2v.sol\":6928:9582  {\r... */\n      pop\n        /* \"Contract2v.sol\":6905:9582  while (userIndex != 0) {\r... */\n      jump(tag_163)\n    tag_164:\n        /* \"Contract2v.sol\":6684:9593  {\r... */\n      pop\n        /* \"Contract2v.sol\":6649:9593  if (currentUserIndex[gameId] >= 3) {\r... */\n    tag_160:\n        /* \"Contract2v.sol\":6086:9600  function _joinToGame(uint8 gameId, address sender, uint256 value) internal {\r... */\n      pop\n      pop\n      pop\n      jump\t// out\n        /* \"Contract2v.sol\":3539:4102  function culcNextWinnerIndex(uint256 index) internal pure returns(uint256) {\r... */\n    tag_162:\n        /* \"Contract2v.sol\":3605:3612  uint256 */\n      0x00\n        /* \"Contract2v.sol\":4077:4078  0 */\n      dup1\n        /* \"Contract2v.sol\":4072:4073  2 */\n      0x02\n        /* \"Contract2v.sol\":4064:4069  index */\n      dup4\n        /* \"Contract2v.sol\":4064:4073  index % 2 */\n      tag_199\n      swap2\n      swap1\n      tag_200\n      jump\t// in\n    tag_199:\n        /* \"Contract2v.sol\":4064:4078  index % 2 == 0 */\n      eq\n        /* \"Contract2v.sol\":4064:4094  index % 2 == 0 ? 0 : index / 2 */\n      tag_201\n      jumpi\n        /* \"Contract2v.sol\":4093:4094  2 */\n      0x02\n        /* \"Contract2v.sol\":4085:4090  index */\n      dup3\n        /* \"Contract2v.sol\":4085:4094  index / 2 */\n      tag_202\n      swap2\n      swap1\n      tag_173\n      jump\t// in\n    tag_202:\n        /* \"Contract2v.sol\":4064:4094  index % 2 == 0 ? 0 : index / 2 */\n      jump(tag_203)\n    tag_201:\n        /* \"Contract2v.sol\":4081:4082  0 */\n      0x00\n        /* \"Contract2v.sol\":4064:4094  index % 2 == 0 ? 0 : index / 2 */\n    tag_203:\n        /* \"Contract2v.sol\":4057:4094  return index % 2 == 0 ? 0 : index / 2 */\n      swap1\n      pop\n        /* \"Contract2v.sol\":3539:4102  function culcNextWinnerIndex(uint256 index) internal pure returns(uint256) {\r... */\n      swap2\n      swap1\n      pop\n      jump\t// out\n        /* \"#utility.yul\":7:146   */\n    tag_205:\n        /* \"#utility.yul\":53:58   */\n      0x00\n        /* \"#utility.yul\":91:97   */\n      dup2\n        /* \"#utility.yul\":78:98   */\n      calldataload\n        /* \"#utility.yul\":69:98   */\n      swap1\n      pop\n        /* \"#utility.yul\":107:140   */\n      tag_207\n        /* \"#utility.yul\":134:139   */\n      dup2\n        /* \"#utility.yul\":107:140   */\n      tag_208\n      jump\t// in\n    tag_207:\n        /* \"#utility.yul\":7:146   */\n      swap3\n      swap2\n      pop\n      pop\n      jump\t// out\n        /* \"#utility.yul\":152:291   */\n    tag_209:\n        /* \"#utility.yul\":198:203   */\n      0x00\n        /* \"#utility.yul\":236:242   */\n      dup2\n        /* \"#utility.yul\":223:243   */\n      calldataload\n        /* \"#utility.yul\":214:243   */\n      swap1\n      pop\n        /* \"#utility.yul\":252:285   */\n      tag_211\n        /* \"#utility.yul\":279:284   */\n      dup2\n        /* \"#utility.yul\":252:285   */\n      tag_212\n      jump\t// in\n    tag_211:\n        /* \"#utility.yul\":152:291   */\n      swap3\n      swap2\n      pop\n      pop\n      jump\t// out\n        /* \"#utility.yul\":297:432   */\n    tag_213:\n        /* \"#utility.yul\":341:346   */\n      0x00\n        /* \"#utility.yul\":379:385   */\n      dup2\n        /* \"#utility.yul\":366:386   */\n      calldataload\n        /* \"#utility.yul\":357:386   */\n      swap1\n      pop\n        /* \"#utility.yul\":395:426   */\n      tag_215\n        /* \"#utility.yul\":420:425   */\n      dup2\n        /* \"#utility.yul\":395:426   */\n      tag_216\n      jump\t// in\n    tag_215:\n        /* \"#utility.yul\":297:432   */\n      swap3\n      swap2\n      pop\n      pop\n      jump\t// out\n        /* \"#utility.yul\":438:767   */\n    tag_35:\n        /* \"#utility.yul\":497:503   */\n      0x00\n        /* \"#utility.yul\":546:548   */\n      0x20\n        /* \"#utility.yul\":534:543   */\n      dup3\n        /* \"#utility.yul\":525:532   */\n      dup5\n        /* \"#utility.yul\":521:544   */\n      sub\n        /* \"#utility.yul\":517:549   */\n      slt\n        /* \"#utility.yul\":514:633   */\n      iszero\n      tag_218\n      jumpi\n        /* \"#utility.yul\":552:631   */\n      tag_219\n      tag_220\n      jump\t// in\n    tag_219:\n        /* \"#utility.yul\":514:633   */\n    tag_218:\n        /* \"#utility.yul\":672:673   */\n      0x00\n        /* \"#utility.yul\":697:750   */\n      tag_221\n        /* \"#utility.yul\":742:749   */\n      dup5\n        /* \"#utility.yul\":733:739   */\n      dup3\n        /* \"#utility.yul\":722:731   */\n      dup6\n        /* \"#utility.yul\":718:740   */\n      add\n        /* \"#utility.yul\":697:750   */\n      tag_205\n      jump\t// in\n    tag_221:\n        /* \"#utility.yul\":687:750   */\n      swap2\n      pop\n        /* \"#utility.yul\":643:760   */\n      pop\n        /* \"#utility.yul\":438:767   */\n      swap3\n      swap2\n      pop\n      pop\n      jump\t// out\n        /* \"#utility.yul\":773:1243   */\n    tag_42:\n        /* \"#utility.yul\":839:845   */\n      0x00\n        /* \"#utility.yul\":847:853   */\n      dup1\n        /* \"#utility.yul\":896:898   */\n      0x40\n        /* \"#utility.yul\":884:893   */\n      dup4\n        /* \"#utility.yul\":875:882   */\n      dup6\n        /* \"#utility.yul\":871:894   */\n      sub\n        /* \"#utility.yul\":867:899   */\n      slt\n        /* \"#utility.yul\":864:983   */\n      iszero\n      tag_223\n      jumpi\n        /* \"#utility.yul\":902:981   */\n      tag_224\n      tag_220\n      jump\t// in\n    tag_224:\n        /* \"#utility.yul\":864:983   */\n    tag_223:\n        /* \"#utility.yul\":1022:1023   */\n      0x00\n        /* \"#utility.yul\":1047:1100   */\n      tag_225\n        /* \"#utility.yul\":1092:1099   */\n      dup6\n        /* \"#utility.yul\":1083:1089   */\n      dup3\n        /* \"#utility.yul\":1072:1081   */\n      dup7\n        /* \"#utility.yul\":1068:1090   */\n      add\n        /* \"#utility.yul\":1047:1100   */\n      tag_205\n      jump\t// in\n    tag_225:\n        /* \"#utility.yul\":1037:1100   */\n      swap3\n      pop\n        /* \"#utility.yul\":993:1110   */\n      pop\n        /* \"#utility.yul\":1149:1151   */\n      0x20\n        /* \"#utility.yul\":1175:1226   */\n      tag_226\n        /* \"#utility.yul\":1218:1225   */\n      dup6\n        /* \"#utility.yul\":1209:1215   */\n      dup3\n        /* \"#utility.yul\":1198:1207   */\n      dup7\n        /* \"#utility.yul\":1194:1216   */\n      add\n        /* \"#utility.yul\":1175:1226   */\n      tag_213\n      jump\t// in\n    tag_226:\n        /* \"#utility.yul\":1165:1226   */\n      swap2\n      pop\n        /* \"#utility.yul\":1120:1236   */\n      pop\n        /* \"#utility.yul\":773:1243   */\n      swap3\n      pop\n      swap3\n      swap1\n      pop\n      jump\t// out\n        /* \"#utility.yul\":1249:1578   */\n    tag_30:\n        /* \"#utility.yul\":1308:1314   */\n      0x00\n        /* \"#utility.yul\":1357:1359   */\n      0x20\n        /* \"#utility.yul\":1345:1354   */\n      dup3\n        /* \"#utility.yul\":1336:1343   */\n      dup5\n        /* \"#utility.yul\":1332:1355   */\n      sub\n        /* \"#utility.yul\":1328:1360   */\n      slt\n        /* \"#utility.yul\":1325:1444   */\n      iszero\n      tag_228\n      jumpi\n        /* \"#utility.yul\":1363:1442   */\n      tag_229\n      tag_220\n      jump\t// in\n    tag_229:\n        /* \"#utility.yul\":1325:1444   */\n    tag_228:\n        /* \"#utility.yul\":1483:1484   */\n      0x00\n        /* \"#utility.yul\":1508:1561   */\n      tag_230\n        /* \"#utility.yul\":1553:1560   */\n      dup5\n        /* \"#utility.yul\":1544:1550   */\n      dup3\n        /* \"#utility.yul\":1533:1542   */\n      dup6\n        /* \"#utility.yul\":1529:1551   */\n      add\n        /* \"#utility.yul\":1508:1561   */\n      tag_209\n      jump\t// in\n    tag_230:\n        /* \"#utility.yul\":1498:1561   */\n      swap2\n      pop\n        /* \"#utility.yul\":1454:1571   */\n      pop\n        /* \"#utility.yul\":1249:1578   */\n      swap3\n      swap2\n      pop\n      pop\n      jump\t// out\n        /* \"#utility.yul\":1584:1909   */\n    tag_48:\n        /* \"#utility.yul\":1641:1647   */\n      0x00\n        /* \"#utility.yul\":1690:1692   */\n      0x20\n        /* \"#utility.yul\":1678:1687   */\n      dup3\n        /* \"#utility.yul\":1669:1676   */\n      dup5\n        /* \"#utility.yul\":1665:1688   */\n      sub\n        /* \"#utility.yul\":1661:1693   */\n      slt\n        /* \"#utility.yul\":1658:1777   */\n      iszero\n      tag_232\n      jumpi\n        /* \"#utility.yul\":1696:1775   */\n      tag_233\n      tag_220\n      jump\t// in\n    tag_233:\n        /* \"#utility.yul\":1658:1777   */\n    tag_232:\n        /* \"#utility.yul\":1816:1817   */\n      0x00\n        /* \"#utility.yul\":1841:1892   */\n      tag_234\n        /* \"#utility.yul\":1884:1891   */\n      dup5\n        /* \"#utility.yul\":1875:1881   */\n      dup3\n        /* \"#utility.yul\":1864:1873   */\n      dup6\n        /* \"#utility.yul\":1860:1882   */\n      add\n        /* \"#utility.yul\":1841:1892   */\n      tag_213\n      jump\t// in\n    tag_234:\n        /* \"#utility.yul\":1831:1892   */\n      swap2\n      pop\n        /* \"#utility.yul\":1787:1902   */\n      pop\n        /* \"#utility.yul\":1584:1909   */\n      swap3\n      swap2\n      pop\n      pop\n      jump\t// out\n        /* \"#utility.yul\":1915:2385   */\n    tag_66:\n        /* \"#utility.yul\":1981:1987   */\n      0x00\n        /* \"#utility.yul\":1989:1995   */\n      dup1\n        /* \"#utility.yul\":2038:2040   */\n      0x40\n        /* \"#utility.yul\":2026:2035   */\n      dup4\n        /* \"#utility.yul\":2017:2024   */\n      dup6\n        /* \"#utility.yul\":2013:2036   */\n      sub\n        /* \"#utility.yul\":2009:2041   */\n      slt\n        /* \"#utility.yul\":2006:2125   */\n      iszero\n      tag_236\n      jumpi\n        /* \"#utility.yul\":2044:2123   */\n      tag_237\n      tag_220\n      jump\t// in\n    tag_237:\n        /* \"#utility.yul\":2006:2125   */\n    tag_236:\n        /* \"#utility.yul\":2164:2165   */\n      0x00\n        /* \"#utility.yul\":2189:2240   */\n      tag_238\n        /* \"#utility.yul\":2232:2239   */\n      dup6\n        /* \"#utility.yul\":2223:2229   */\n      dup3\n        /* \"#utility.yul\":2212:2221   */\n      dup7\n        /* \"#utility.yul\":2208:2230   */\n      add\n        /* \"#utility.yul\":2189:2240   */\n      tag_213\n      jump\t// in\n    tag_238:\n        /* \"#utility.yul\":2179:2240   */\n      swap3\n      pop\n        /* \"#utility.yul\":2135:2250   */\n      pop\n        /* \"#utility.yul\":2289:2291   */\n      0x20\n        /* \"#utility.yul\":2315:2368   */\n      tag_239\n        /* \"#utility.yul\":2360:2367   */\n      dup6\n        /* \"#utility.yul\":2351:2357   */\n      dup3\n        /* \"#utility.yul\":2340:2349   */\n      dup7\n        /* \"#utility.yul\":2336:2358   */\n      add\n        /* \"#utility.yul\":2315:2368   */\n      tag_209\n      jump\t// in\n    tag_239:\n        /* \"#utility.yul\":2305:2368   */\n      swap2\n      pop\n        /* \"#utility.yul\":2260:2378   */\n      pop\n        /* \"#utility.yul\":1915:2385   */\n      swap3\n      pop\n      swap3\n      swap1\n      pop\n      jump\t// out\n        /* \"#utility.yul\":2391:2533   */\n    tag_240:\n        /* \"#utility.yul\":2494:2526   */\n      tag_242\n        /* \"#utility.yul\":2520:2525   */\n      dup2\n        /* \"#utility.yul\":2494:2526   */\n      tag_243\n      jump\t// in\n    tag_242:\n        /* \"#utility.yul\":2489:2492   */\n      dup3\n        /* \"#utility.yul\":2482:2527   */\n      mstore\n        /* \"#utility.yul\":2391:2533   */\n      pop\n      pop\n      jump\t// out\n        /* \"#utility.yul\":2539:2657   */\n    tag_244:\n        /* \"#utility.yul\":2626:2650   */\n      tag_246\n        /* \"#utility.yul\":2644:2649   */\n      dup2\n        /* \"#utility.yul\":2626:2650   */\n      tag_247\n      jump\t// in\n    tag_246:\n        /* \"#utility.yul\":2621:2624   */\n      dup3\n        /* \"#utility.yul\":2614:2651   */\n      mstore\n        /* \"#utility.yul\":2539:2657   */\n      pop\n      pop\n      jump\t// out\n        /* \"#utility.yul\":2663:2772   */\n    tag_248:\n        /* \"#utility.yul\":2744:2765   */\n      tag_250\n        /* \"#utility.yul\":2759:2764   */\n      dup2\n        /* \"#utility.yul\":2744:2765   */\n      tag_251\n      jump\t// in\n    tag_250:\n        /* \"#utility.yul\":2739:2742   */\n      dup3\n        /* \"#utility.yul\":2732:2766   */\n      mstore\n        /* \"#utility.yul\":2663:2772   */\n      pop\n      pop\n      jump\t// out\n        /* \"#utility.yul\":2778:3144   */\n    tag_252:\n        /* \"#utility.yul\":2920:2923   */\n      0x00\n        /* \"#utility.yul\":2941:3008   */\n      tag_254\n        /* \"#utility.yul\":3005:3007   */\n      0x13\n        /* \"#utility.yul\":3000:3003   */\n      dup4\n        /* \"#utility.yul\":2941:3008   */\n      tag_255\n      jump\t// in\n    tag_254:\n        /* \"#utility.yul\":2934:3008   */\n      swap2\n      pop\n        /* \"#utility.yul\":3017:3110   */\n      tag_256\n        /* \"#utility.yul\":3106:3109   */\n      dup3\n        /* \"#utility.yul\":3017:3110   */\n      tag_257\n      jump\t// in\n    tag_256:\n        /* \"#utility.yul\":3135:3137   */\n      0x20\n        /* \"#utility.yul\":3130:3133   */\n      dup3\n        /* \"#utility.yul\":3126:3138   */\n      add\n        /* \"#utility.yul\":3119:3138   */\n      swap1\n      pop\n        /* \"#utility.yul\":2778:3144   */\n      swap2\n      swap1\n      pop\n      jump\t// out\n        /* \"#utility.yul\":3150:3516   */\n    tag_258:\n        /* \"#utility.yul\":3292:3295   */\n      0x00\n        /* \"#utility.yul\":3313:3380   */\n      tag_260\n        /* \"#utility.yul\":3377:3379   */\n      0x0e\n        /* \"#utility.yul\":3372:3375   */\n      dup4\n        /* \"#utility.yul\":3313:3380   */\n      tag_255\n      jump\t// in\n    tag_260:\n        /* \"#utility.yul\":3306:3380   */\n      swap2\n      pop\n        /* \"#utility.yul\":3389:3482   */\n      tag_261\n        /* \"#utility.yul\":3478:3481   */\n      dup3\n        /* \"#utility.yul\":3389:3482   */\n      tag_262\n      jump\t// in\n    tag_261:\n        /* \"#utility.yul\":3507:3509   */\n      0x20\n        /* \"#utility.yul\":3502:3505   */\n      dup3\n        /* \"#utility.yul\":3498:3510   */\n      add\n        /* \"#utility.yul\":3491:3510   */\n      swap1\n      pop\n        /* \"#utility.yul\":3150:3516   */\n      swap2\n      swap1\n      pop\n      jump\t// out\n        /* \"#utility.yul\":3522:3888   */\n    tag_263:\n        /* \"#utility.yul\":3664:3667   */\n      0x00\n        /* \"#utility.yul\":3685:3752   */\n      tag_265\n        /* \"#utility.yul\":3749:3751   */\n      0x1a\n        /* \"#utility.yul\":3744:3747   */\n      dup4\n        /* \"#utility.yul\":3685:3752   */\n      tag_255\n      jump\t// in\n    tag_265:\n        /* \"#utility.yul\":3678:3752   */\n      swap2\n      pop\n        /* \"#utility.yul\":3761:3854   */\n      tag_266\n        /* \"#utility.yul\":3850:3853   */\n      dup3\n        /* \"#utility.yul\":3761:3854   */\n      tag_267\n      jump\t// in\n    tag_266:\n        /* \"#utility.yul\":3879:3881   */\n      0x20\n        /* \"#utility.yul\":3874:3877   */\n      dup3\n        /* \"#utility.yul\":3870:3882   */\n      add\n        /* \"#utility.yul\":3863:3882   */\n      swap1\n      pop\n        /* \"#utility.yul\":3522:3888   */\n      swap2\n      swap1\n      pop\n      jump\t// out\n        /* \"#utility.yul\":3894:4292   */\n    tag_268:\n        /* \"#utility.yul\":4053:4056   */\n      0x00\n        /* \"#utility.yul\":4074:4157   */\n      tag_270\n        /* \"#utility.yul\":4155:4156   */\n      0x00\n        /* \"#utility.yul\":4150:4153   */\n      dup4\n        /* \"#utility.yul\":4074:4157   */\n      tag_271\n      jump\t// in\n    tag_270:\n        /* \"#utility.yul\":4067:4157   */\n      swap2\n      pop\n        /* \"#utility.yul\":4166:4259   */\n      tag_272\n        /* \"#utility.yul\":4255:4258   */\n      dup3\n        /* \"#utility.yul\":4166:4259   */\n      tag_273\n      jump\t// in\n    tag_272:\n        /* \"#utility.yul\":4284:4285   */\n      0x00\n        /* \"#utility.yul\":4279:4282   */\n      dup3\n        /* \"#utility.yul\":4275:4286   */\n      add\n        /* \"#utility.yul\":4268:4286   */\n      swap1\n      pop\n        /* \"#utility.yul\":3894:4292   */\n      swap2\n      swap1\n      pop\n      jump\t// out\n        /* \"#utility.yul\":4298:4664   */\n    tag_274:\n        /* \"#utility.yul\":4440:4443   */\n      0x00\n        /* \"#utility.yul\":4461:4528   */\n      tag_276\n        /* \"#utility.yul\":4525:4527   */\n      0x23\n        /* \"#utility.yul\":4520:4523   */\n      dup4\n        /* \"#utility.yul\":4461:4528   */\n      tag_255\n      jump\t// in\n    tag_276:\n        /* \"#utility.yul\":4454:4528   */\n      swap2\n      pop\n        /* \"#utility.yul\":4537:4630   */\n      tag_277\n        /* \"#utility.yul\":4626:4629   */\n      dup3\n        /* \"#utility.yul\":4537:4630   */\n      tag_278\n      jump\t// in\n    tag_277:\n        /* \"#utility.yul\":4655:4657   */\n      0x40\n        /* \"#utility.yul\":4650:4653   */\n      dup3\n        /* \"#utility.yul\":4646:4658   */\n      add\n        /* \"#utility.yul\":4639:4658   */\n      swap1\n      pop\n        /* \"#utility.yul\":4298:4664   */\n      swap2\n      swap1\n      pop\n      jump\t// out\n        /* \"#utility.yul\":4670:5036   */\n    tag_279:\n        /* \"#utility.yul\":4812:4815   */\n      0x00\n        /* \"#utility.yul\":4833:4900   */\n      tag_281\n        /* \"#utility.yul\":4897:4899   */\n      0x28\n        /* \"#utility.yul\":4892:4895   */\n      dup4\n        /* \"#utility.yul\":4833:4900   */\n      tag_255\n      jump\t// in\n    tag_281:\n        /* \"#utility.yul\":4826:4900   */\n      swap2\n      pop\n        /* \"#utility.yul\":4909:5002   */\n      tag_282\n        /* \"#utility.yul\":4998:5001   */\n      dup3\n        /* \"#utility.yul\":4909:5002   */\n      tag_283\n      jump\t// in\n    tag_282:\n        /* \"#utility.yul\":5027:5029   */\n      0x40\n        /* \"#utility.yul\":5022:5025   */\n      dup3\n        /* \"#utility.yul\":5018:5030   */\n      add\n        /* \"#utility.yul\":5011:5030   */\n      swap1\n      pop\n        /* \"#utility.yul\":4670:5036   */\n      swap2\n      swap1\n      pop\n      jump\t// out\n        /* \"#utility.yul\":5042:5408   */\n    tag_284:\n        /* \"#utility.yul\":5184:5187   */\n      0x00\n        /* \"#utility.yul\":5205:5272   */\n      tag_286\n        /* \"#utility.yul\":5269:5271   */\n      0x0c\n        /* \"#utility.yul\":5264:5267   */\n      dup4\n        /* \"#utility.yul\":5205:5272   */\n      tag_255\n      jump\t// in\n    tag_286:\n        /* \"#utility.yul\":5198:5272   */\n      swap2\n      pop\n        /* \"#utility.yul\":5281:5374   */\n      tag_287\n        /* \"#utility.yul\":5370:5373   */\n      dup3\n        /* \"#utility.yul\":5281:5374   */\n      tag_288\n      jump\t// in\n    tag_287:\n        /* \"#utility.yul\":5399:5401   */\n      0x20\n        /* \"#utility.yul\":5394:5397   */\n      dup3\n        /* \"#utility.yul\":5390:5402   */\n      add\n        /* \"#utility.yul\":5383:5402   */\n      swap1\n      pop\n        /* \"#utility.yul\":5042:5408   */\n      swap2\n      swap1\n      pop\n      jump\t// out\n        /* \"#utility.yul\":5414:5532   */\n    tag_289:\n        /* \"#utility.yul\":5501:5525   */\n      tag_291\n        /* \"#utility.yul\":5519:5524   */\n      dup2\n        /* \"#utility.yul\":5501:5525   */\n      tag_292\n      jump\t// in\n    tag_291:\n        /* \"#utility.yul\":5496:5499   */\n      dup3\n        /* \"#utility.yul\":5489:5526   */\n      mstore\n        /* \"#utility.yul\":5414:5532   */\n      pop\n      pop\n      jump\t// out\n        /* \"#utility.yul\":5538:5650   */\n    tag_293:\n        /* \"#utility.yul\":5621:5643   */\n      tag_295\n        /* \"#utility.yul\":5637:5642   */\n      dup2\n        /* \"#utility.yul\":5621:5643   */\n      tag_296\n      jump\t// in\n    tag_295:\n        /* \"#utility.yul\":5616:5619   */\n      dup3\n        /* \"#utility.yul\":5609:5644   */\n      mstore\n        /* \"#utility.yul\":5538:5650   */\n      pop\n      pop\n      jump\t// out\n        /* \"#utility.yul\":5656:6035   */\n    tag_143:\n        /* \"#utility.yul\":5840:5843   */\n      0x00\n        /* \"#utility.yul\":5862:6009   */\n      tag_298\n        /* \"#utility.yul\":6005:6008   */\n      dup3\n        /* \"#utility.yul\":5862:6009   */\n      tag_268\n      jump\t// in\n    tag_298:\n        /* \"#utility.yul\":5855:6009   */\n      swap2\n      pop\n        /* \"#utility.yul\":6026:6029   */\n      dup2\n        /* \"#utility.yul\":6019:6029   */\n      swap1\n      pop\n        /* \"#utility.yul\":5656:6035   */\n      swap2\n      swap1\n      pop\n      jump\t// out\n        /* \"#utility.yul\":6041:6263   */\n    tag_98:\n        /* \"#utility.yul\":6134:6138   */\n      0x00\n        /* \"#utility.yul\":6172:6174   */\n      0x20\n        /* \"#utility.yul\":6161:6170   */\n      dup3\n        /* \"#utility.yul\":6157:6175   */\n      add\n        /* \"#utility.yul\":6149:6175   */\n      swap1\n      pop\n        /* \"#utility.yul\":6185:6256   */\n      tag_300\n        /* \"#utility.yul\":6253:6254   */\n      0x00\n        /* \"#utility.yul\":6242:6251   */\n      dup4\n        /* \"#utility.yul\":6238:6255   */\n      add\n        /* \"#utility.yul\":6229:6235   */\n      dup5\n        /* \"#utility.yul\":6185:6256   */\n      tag_244\n      jump\t// in\n    tag_300:\n        /* \"#utility.yul\":6041:6263   */\n      swap3\n      swap2\n      pop\n      pop\n      jump\t// out\n        /* \"#utility.yul\":6269:6479   */\n    tag_45:\n        /* \"#utility.yul\":6356:6360   */\n      0x00\n        /* \"#utility.yul\":6394:6396   */\n      0x20\n        /* \"#utility.yul\":6383:6392   */\n      dup3\n        /* \"#utility.yul\":6379:6397   */\n      add\n        /* \"#utility.yul\":6371:6397   */\n      swap1\n      pop\n        /* \"#utility.yul\":6407:6472   */\n      tag_302\n        /* \"#utility.yul\":6469:6470   */\n      0x00\n        /* \"#utility.yul\":6458:6467   */\n      dup4\n        /* \"#utility.yul\":6454:6471   */\n      add\n        /* \"#utility.yul\":6445:6451   */\n      dup5\n        /* \"#utility.yul\":6407:6472   */\n      tag_248\n      jump\t// in\n    tag_302:\n        /* \"#utility.yul\":6269:6479   */\n      swap3\n      swap2\n      pop\n      pop\n      jump\t// out\n        /* \"#utility.yul\":6485:6904   */\n    tag_141:\n        /* \"#utility.yul\":6651:6655   */\n      0x00\n        /* \"#utility.yul\":6689:6691   */\n      0x20\n        /* \"#utility.yul\":6678:6687   */\n      dup3\n        /* \"#utility.yul\":6674:6692   */\n      add\n        /* \"#utility.yul\":6666:6692   */\n      swap1\n      pop\n        /* \"#utility.yul\":6738:6747   */\n      dup2\n        /* \"#utility.yul\":6732:6736   */\n      dup2\n        /* \"#utility.yul\":6728:6748   */\n      sub\n        /* \"#utility.yul\":6724:6725   */\n      0x00\n        /* \"#utility.yul\":6713:6722   */\n      dup4\n        /* \"#utility.yul\":6709:6726   */\n      add\n        /* \"#utility.yul\":6702:6749   */\n      mstore\n        /* \"#utility.yul\":6766:6897   */\n      tag_304\n        /* \"#utility.yul\":6892:6896   */\n      dup2\n        /* \"#utility.yul\":6766:6897   */\n      tag_252\n      jump\t// in\n    tag_304:\n        /* \"#utility.yul\":6758:6897   */\n      swap1\n      pop\n        /* \"#utility.yul\":6485:6904   */\n      swap2\n      swap1\n      pop\n      jump\t// out\n        /* \"#utility.yul\":6910:7329   */\n    tag_115:\n        /* \"#utility.yul\":7076:7080   */\n      0x00\n        /* \"#utility.yul\":7114:7116   */\n      0x20\n        /* \"#utility.yul\":7103:7112   */\n      dup3\n        /* \"#utility.yul\":7099:7117   */\n      add\n        /* \"#utility.yul\":7091:7117   */\n      swap1\n      pop\n        /* \"#utility.yul\":7163:7172   */\n      dup2\n        /* \"#utility.yul\":7157:7161   */\n      dup2\n        /* \"#utility.yul\":7153:7173   */\n      sub\n        /* \"#utility.yul\":7149:7150   */\n      0x00\n        /* \"#utility.yul\":7138:7147   */\n      dup4\n        /* \"#utility.yul\":7134:7151   */\n      add\n        /* \"#utility.yul\":7127:7174   */\n      mstore\n        /* \"#utility.yul\":7191:7322   */\n      tag_306\n        /* \"#utility.yul\":7317:7321   */\n      dup2\n        /* \"#utility.yul\":7191:7322   */\n      tag_258\n      jump\t// in\n    tag_306:\n        /* \"#utility.yul\":7183:7322   */\n      swap1\n      pop\n        /* \"#utility.yul\":6910:7329   */\n      swap2\n      swap1\n      pop\n      jump\t// out\n        /* \"#utility.yul\":7335:7754   */\n    tag_125:\n        /* \"#utility.yul\":7501:7505   */\n      0x00\n        /* \"#utility.yul\":7539:7541   */\n      0x20\n        /* \"#utility.yul\":7528:7537   */\n      dup3\n        /* \"#utility.yul\":7524:7542   */\n      add\n        /* \"#utility.yul\":7516:7542   */\n      swap1\n      pop\n        /* \"#utility.yul\":7588:7597   */\n      dup2\n        /* \"#utility.yul\":7582:7586   */\n      dup2\n        /* \"#utility.yul\":7578:7598   */\n      sub\n        /* \"#utility.yul\":7574:7575   */\n      0x00\n        /* \"#utility.yul\":7563:7572   */\n      dup4\n        /* \"#utility.yul\":7559:7576   */\n      add\n        /* \"#utility.yul\":7552:7599   */\n      mstore\n        /* \"#utility.yul\":7616:7747   */\n      tag_308\n        /* \"#utility.yul\":7742:7746   */\n      dup2\n        /* \"#utility.yul\":7616:7747   */\n      tag_263\n      jump\t// in\n    tag_308:\n        /* \"#utility.yul\":7608:7747   */\n      swap1\n      pop\n        /* \"#utility.yul\":7335:7754   */\n      swap2\n      swap1\n      pop\n      jump\t// out\n        /* \"#utility.yul\":7760:8179   */\n    tag_158:\n        /* \"#utility.yul\":7926:7930   */\n      0x00\n        /* \"#utility.yul\":7964:7966   */\n      0x20\n        /* \"#utility.yul\":7953:7962   */\n      dup3\n        /* \"#utility.yul\":7949:7967   */\n      add\n        /* \"#utility.yul\":7941:7967   */\n      swap1\n      pop\n        /* \"#utility.yul\":8013:8022   */\n      dup2\n        /* \"#utility.yul\":8007:8011   */\n      dup2\n        /* \"#utility.yul\":8003:8023   */\n      sub\n        /* \"#utility.yul\":7999:8000   */\n      0x00\n        /* \"#utility.yul\":7988:7997   */\n      dup4\n        /* \"#utility.yul\":7984:8001   */\n      add\n        /* \"#utility.yul\":7977:8024   */\n      mstore\n        /* \"#utility.yul\":8041:8172   */\n      tag_310\n        /* \"#utility.yul\":8167:8171   */\n      dup2\n        /* \"#utility.yul\":8041:8172   */\n      tag_274\n      jump\t// in\n    tag_310:\n        /* \"#utility.yul\":8033:8172   */\n      swap1\n      pop\n        /* \"#utility.yul\":7760:8179   */\n      swap2\n      swap1\n      pop\n      jump\t// out\n        /* \"#utility.yul\":8185:8604   */\n    tag_128:\n        /* \"#utility.yul\":8351:8355   */\n      0x00\n        /* \"#utility.yul\":8389:8391   */\n      0x20\n        /* \"#utility.yul\":8378:8387   */\n      dup3\n        /* \"#utility.yul\":8374:8392   */\n      add\n        /* \"#utility.yul\":8366:8392   */\n      swap1\n      pop\n        /* \"#utility.yul\":8438:8447   */\n      dup2\n        /* \"#utility.yul\":8432:8436   */\n      dup2\n        /* \"#utility.yul\":8428:8448   */\n      sub\n        /* \"#utility.yul\":8424:8425   */\n      0x00\n        /* \"#utility.yul\":8413:8422   */\n      dup4\n        /* \"#utility.yul\":8409:8426   */\n      add\n        /* \"#utility.yul\":8402:8449   */\n      mstore\n        /* \"#utility.yul\":8466:8597   */\n      tag_312\n        /* \"#utility.yul\":8592:8596   */\n      dup2\n        /* \"#utility.yul\":8466:8597   */\n      tag_279\n      jump\t// in\n    tag_312:\n        /* \"#utility.yul\":8458:8597   */\n      swap1\n      pop\n        /* \"#utility.yul\":8185:8604   */\n      swap2\n      swap1\n      pop\n      jump\t// out\n        /* \"#utility.yul\":8610:9029   */\n    tag_121:\n        /* \"#utility.yul\":8776:8780   */\n      0x00\n        /* \"#utility.yul\":8814:8816   */\n      0x20\n        /* \"#utility.yul\":8803:8812   */\n      dup3\n        /* \"#utility.yul\":8799:8817   */\n      add\n        /* \"#utility.yul\":8791:8817   */\n      swap1\n      pop\n        /* \"#utility.yul\":8863:8872   */\n      dup2\n        /* \"#utility.yul\":8857:8861   */\n      dup2\n        /* \"#utility.yul\":8853:8873   */\n      sub\n        /* \"#utility.yul\":8849:8850   */\n      0x00\n        /* \"#utility.yul\":8838:8847   */\n      dup4\n        /* \"#utility.yul\":8834:8851   */\n      add\n        /* \"#utility.yul\":8827:8874   */\n      mstore\n        /* \"#utility.yul\":8891:9022   */\n      tag_314\n        /* \"#utility.yul\":9017:9021   */\n      dup2\n        /* \"#utility.yul\":8891:9022   */\n      tag_284\n      jump\t// in\n    tag_314:\n        /* \"#utility.yul\":8883:9022   */\n      swap1\n      pop\n        /* \"#utility.yul\":8610:9029   */\n      swap2\n      swap1\n      pop\n      jump\t// out\n        /* \"#utility.yul\":9035:9257   */\n    tag_55:\n        /* \"#utility.yul\":9128:9132   */\n      0x00\n        /* \"#utility.yul\":9166:9168   */\n      0x20\n        /* \"#utility.yul\":9155:9164   */\n      dup3\n        /* \"#utility.yul\":9151:9169   */\n      add\n        /* \"#utility.yul\":9143:9169   */\n      swap1\n      pop\n        /* \"#utility.yul\":9179:9250   */\n      tag_316\n        /* \"#utility.yul\":9247:9248   */\n      0x00\n        /* \"#utility.yul\":9236:9245   */\n      dup4\n        /* \"#utility.yul\":9232:9249   */\n      add\n        /* \"#utility.yul\":9223:9229   */\n      dup5\n        /* \"#utility.yul\":9179:9250   */\n      tag_289\n      jump\t// in\n    tag_316:\n        /* \"#utility.yul\":9035:9257   */\n      swap3\n      swap2\n      pop\n      pop\n      jump\t// out\n        /* \"#utility.yul\":9263:9737   */\n    tag_38:\n        /* \"#utility.yul\":9428:9432   */\n      0x00\n        /* \"#utility.yul\":9466:9468   */\n      0x60\n        /* \"#utility.yul\":9455:9464   */\n      dup3\n        /* \"#utility.yul\":9451:9469   */\n      add\n        /* \"#utility.yul\":9443:9469   */\n      swap1\n      pop\n        /* \"#utility.yul\":9479:9550   */\n      tag_318\n        /* \"#utility.yul\":9547:9548   */\n      0x00\n        /* \"#utility.yul\":9536:9545   */\n      dup4\n        /* \"#utility.yul\":9532:9549   */\n      add\n        /* \"#utility.yul\":9523:9529   */\n      dup7\n        /* \"#utility.yul\":9479:9550   */\n      tag_289\n      jump\t// in\n    tag_318:\n        /* \"#utility.yul\":9560:9648   */\n      tag_319\n        /* \"#utility.yul\":9644:9646   */\n      0x20\n        /* \"#utility.yul\":9633:9642   */\n      dup4\n        /* \"#utility.yul\":9629:9647   */\n      add\n        /* \"#utility.yul\":9620:9626   */\n      dup6\n        /* \"#utility.yul\":9560:9648   */\n      tag_240\n      jump\t// in\n    tag_319:\n        /* \"#utility.yul\":9658:9730   */\n      tag_320\n        /* \"#utility.yul\":9726:9728   */\n      0x40\n        /* \"#utility.yul\":9715:9724   */\n      dup4\n        /* \"#utility.yul\":9711:9729   */\n      add\n        /* \"#utility.yul\":9702:9708   */\n      dup5\n        /* \"#utility.yul\":9658:9730   */\n      tag_289\n      jump\t// in\n    tag_320:\n        /* \"#utility.yul\":9263:9737   */\n      swap5\n      swap4\n      pop\n      pop\n      pop\n      pop\n      jump\t// out\n        /* \"#utility.yul\":9743:10173   */\n    tag_177:\n        /* \"#utility.yul\":9886:9890   */\n      0x00\n        /* \"#utility.yul\":9924:9926   */\n      0x60\n        /* \"#utility.yul\":9913:9922   */\n      dup3\n        /* \"#utility.yul\":9909:9927   */\n      add\n        /* \"#utility.yul\":9901:9927   */\n      swap1\n      pop\n        /* \"#utility.yul\":9937:10008   */\n      tag_322\n        /* \"#utility.yul\":10005:10006   */\n      0x00\n        /* \"#utility.yul\":9994:10003   */\n      dup4\n        /* \"#utility.yul\":9990:10007   */\n      add\n        /* \"#utility.yul\":9981:9987   */\n      dup7\n        /* \"#utility.yul\":9937:10008   */\n      tag_289\n      jump\t// in\n    tag_322:\n        /* \"#utility.yul\":10018:10090   */\n      tag_323\n        /* \"#utility.yul\":10086:10088   */\n      0x20\n        /* \"#utility.yul\":10075:10084   */\n      dup4\n        /* \"#utility.yul\":10071:10089   */\n      add\n        /* \"#utility.yul\":10062:10068   */\n      dup6\n        /* \"#utility.yul\":10018:10090   */\n      tag_244\n      jump\t// in\n    tag_323:\n        /* \"#utility.yul\":10100:10166   */\n      tag_324\n        /* \"#utility.yul\":10162:10164   */\n      0x40\n        /* \"#utility.yul\":10151:10160   */\n      dup4\n        /* \"#utility.yul\":10147:10165   */\n      add\n        /* \"#utility.yul\":10138:10144   */\n      dup5\n        /* \"#utility.yul\":10100:10166   */\n      tag_248\n      jump\t// in\n    tag_324:\n        /* \"#utility.yul\":9743:10173   */\n      swap5\n      swap4\n      pop\n      pop\n      pop\n      pop\n      jump\t// out\n        /* \"#utility.yul\":10179:10732   */\n    tag_184:\n        /* \"#utility.yul\":10356:10360   */\n      0x00\n        /* \"#utility.yul\":10394:10397   */\n      0x80\n        /* \"#utility.yul\":10383:10392   */\n      dup3\n        /* \"#utility.yul\":10379:10398   */\n      add\n        /* \"#utility.yul\":10371:10398   */\n      swap1\n      pop\n        /* \"#utility.yul\":10408:10479   */\n      tag_326\n        /* \"#utility.yul\":10476:10477   */\n      0x00\n        /* \"#utility.yul\":10465:10474   */\n      dup4\n        /* \"#utility.yul\":10461:10478   */\n      add\n        /* \"#utility.yul\":10452:10458   */\n      dup8\n        /* \"#utility.yul\":10408:10479   */\n      tag_289\n      jump\t// in\n    tag_326:\n        /* \"#utility.yul\":10489:10561   */\n      tag_327\n        /* \"#utility.yul\":10557:10559   */\n      0x20\n        /* \"#utility.yul\":10546:10555   */\n      dup4\n        /* \"#utility.yul\":10542:10560   */\n      add\n        /* \"#utility.yul\":10533:10539   */\n      dup7\n        /* \"#utility.yul\":10489:10561   */\n      tag_289\n      jump\t// in\n    tag_327:\n        /* \"#utility.yul\":10571:10643   */\n      tag_328\n        /* \"#utility.yul\":10639:10641   */\n      0x40\n        /* \"#utility.yul\":10628:10637   */\n      dup4\n        /* \"#utility.yul\":10624:10642   */\n      add\n        /* \"#utility.yul\":10615:10621   */\n      dup6\n        /* \"#utility.yul\":10571:10643   */\n      tag_289\n      jump\t// in\n    tag_328:\n        /* \"#utility.yul\":10653:10725   */\n      tag_329\n        /* \"#utility.yul\":10721:10723   */\n      0x60\n        /* \"#utility.yul\":10710:10719   */\n      dup4\n        /* \"#utility.yul\":10706:10724   */\n      add\n        /* \"#utility.yul\":10697:10703   */\n      dup5\n        /* \"#utility.yul\":10653:10725   */\n      tag_289\n      jump\t// in\n    tag_329:\n        /* \"#utility.yul\":10179:10732   */\n      swap6\n      swap5\n      pop\n      pop\n      pop\n      pop\n      pop\n      jump\t// out\n        /* \"#utility.yul\":10738:10952   */\n    tag_88:\n        /* \"#utility.yul\":10827:10831   */\n      0x00\n        /* \"#utility.yul\":10865:10867   */\n      0x20\n        /* \"#utility.yul\":10854:10863   */\n      dup3\n        /* \"#utility.yul\":10850:10868   */\n      add\n        /* \"#utility.yul\":10842:10868   */\n      swap1\n      pop\n        /* \"#utility.yul\":10878:10945   */\n      tag_331\n        /* \"#utility.yul\":10942:10943   */\n      0x00\n        /* \"#utility.yul\":10931:10940   */\n      dup4\n        /* \"#utility.yul\":10927:10944   */\n      add\n        /* \"#utility.yul\":10918:10924   */\n      dup5\n        /* \"#utility.yul\":10878:10945   */\n      tag_293\n      jump\t// in\n    tag_331:\n        /* \"#utility.yul\":10738:10952   */\n      swap3\n      swap2\n      pop\n      pop\n      jump\t// out\n        /* \"#utility.yul\":11039:11186   */\n    tag_271:\n        /* \"#utility.yul\":11140:11151   */\n      0x00\n        /* \"#utility.yul\":11177:11180   */\n      dup2\n        /* \"#utility.yul\":11162:11180   */\n      swap1\n      pop\n        /* \"#utility.yul\":11039:11186   */\n      swap3\n      swap2\n      pop\n      pop\n      jump\t// out\n        /* \"#utility.yul\":11192:11361   */\n    tag_255:\n        /* \"#utility.yul\":11276:11287   */\n      0x00\n        /* \"#utility.yul\":11310:11316   */\n      dup3\n        /* \"#utility.yul\":11305:11308   */\n      dup3\n        /* \"#utility.yul\":11298:11317   */\n      mstore\n        /* \"#utility.yul\":11350:11354   */\n      0x20\n        /* \"#utility.yul\":11345:11348   */\n      dup3\n        /* \"#utility.yul\":11341:11355   */\n      add\n        /* \"#utility.yul\":11326:11355   */\n      swap1\n      pop\n        /* \"#utility.yul\":11192:11361   */\n      swap3\n      swap2\n      pop\n      pop\n      jump\t// out\n        /* \"#utility.yul\":11367:11672   */\n    tag_130:\n        /* \"#utility.yul\":11407:11410   */\n      0x00\n        /* \"#utility.yul\":11426:11446   */\n      tag_337\n        /* \"#utility.yul\":11444:11445   */\n      dup3\n        /* \"#utility.yul\":11426:11446   */\n      tag_292\n      jump\t// in\n    tag_337:\n        /* \"#utility.yul\":11421:11446   */\n      swap2\n      pop\n        /* \"#utility.yul\":11460:11480   */\n      tag_338\n        /* \"#utility.yul\":11478:11479   */\n      dup4\n        /* \"#utility.yul\":11460:11480   */\n      tag_292\n      jump\t// in\n    tag_338:\n        /* \"#utility.yul\":11455:11480   */\n      swap3\n      pop\n        /* \"#utility.yul\":11614:11615   */\n      dup3\n        /* \"#utility.yul\":11546:11612   */\n      0xffffffffffffffffffffffffffffffffffffffffffffffffffffffffffffffff\n        /* \"#utility.yul\":11542:11616   */\n      sub\n        /* \"#utility.yul\":11539:11540   */\n      dup3\n        /* \"#utility.yul\":11536:11617   */\n      gt\n        /* \"#utility.yul\":11533:11640   */\n      iszero\n      tag_339\n      jumpi\n        /* \"#utility.yul\":11620:11638   */\n      tag_340\n      tag_341\n      jump\t// in\n    tag_340:\n        /* \"#utility.yul\":11533:11640   */\n    tag_339:\n        /* \"#utility.yul\":11664:11665   */\n      dup3\n        /* \"#utility.yul\":11661:11662   */\n      dup3\n        /* \"#utility.yul\":11657:11666   */\n      add\n        /* \"#utility.yul\":11650:11666   */\n      swap1\n      pop\n        /* \"#utility.yul\":11367:11672   */\n      swap3\n      swap2\n      pop\n      pop\n      jump\t// out\n        /* \"#utility.yul\":11678:11915   */\n    tag_109:\n        /* \"#utility.yul\":11716:11719   */\n      0x00\n        /* \"#utility.yul\":11735:11753   */\n      tag_343\n        /* \"#utility.yul\":11751:11752   */\n      dup3\n        /* \"#utility.yul\":11735:11753   */\n      tag_296\n      jump\t// in\n    tag_343:\n        /* \"#utility.yul\":11730:11753   */\n      swap2\n      pop\n        /* \"#utility.yul\":11767:11785   */\n      tag_344\n        /* \"#utility.yul\":11783:11784   */\n      dup4\n        /* \"#utility.yul\":11767:11785   */\n      tag_296\n      jump\t// in\n    tag_344:\n        /* \"#utility.yul\":11762:11785   */\n      swap3\n      pop\n        /* \"#utility.yul\":11857:11858   */\n      dup3\n        /* \"#utility.yul\":11851:11855   */\n      0xff\n        /* \"#utility.yul\":11847:11859   */\n      sub\n        /* \"#utility.yul\":11844:11845   */\n      dup3\n        /* \"#utility.yul\":11841:11860   */\n      gt\n        /* \"#utility.yul\":11838:11883   */\n      iszero\n      tag_345\n      jumpi\n        /* \"#utility.yul\":11863:11881   */\n      tag_346\n      tag_341\n      jump\t// in\n    tag_346:\n        /* \"#utility.yul\":11838:11883   */\n    tag_345:\n        /* \"#utility.yul\":11907:11908   */\n      dup3\n        /* \"#utility.yul\":11904:11905   */\n      dup3\n        /* \"#utility.yul\":11900:11909   */\n      add\n        /* \"#utility.yul\":11893:11909   */\n      swap1\n      pop\n        /* \"#utility.yul\":11678:11915   */\n      swap3\n      swap2\n      pop\n      pop\n      jump\t// out\n        /* \"#utility.yul\":11921:12106   */\n    tag_173:\n        /* \"#utility.yul\":11961:11962   */\n      0x00\n        /* \"#utility.yul\":11978:11998   */\n      tag_348\n        /* \"#utility.yul\":11996:11997   */\n      dup3\n        /* \"#utility.yul\":11978:11998   */\n      tag_292\n      jump\t// in\n    tag_348:\n        /* \"#utility.yul\":11973:11998   */\n      swap2\n      pop\n        /* \"#utility.yul\":12012:12032   */\n      tag_349\n        /* \"#utility.yul\":12030:12031   */\n      dup4\n        /* \"#utility.yul\":12012:12032   */\n      tag_292\n      jump\t// in\n    tag_349:\n        /* \"#utility.yul\":12007:12032   */\n      swap3\n      pop\n        /* \"#utility.yul\":12051:12052   */\n      dup3\n        /* \"#utility.yul\":12041:12076   */\n      tag_350\n      jumpi\n        /* \"#utility.yul\":12056:12074   */\n      tag_351\n      tag_352\n      jump\t// in\n    tag_351:\n        /* \"#utility.yul\":12041:12076   */\n    tag_350:\n        /* \"#utility.yul\":12098:12099   */\n      dup3\n        /* \"#utility.yul\":12095:12096   */\n      dup3\n        /* \"#utility.yul\":12091:12100   */\n      div\n        /* \"#utility.yul\":12086:12100   */\n      swap1\n      pop\n        /* \"#utility.yul\":11921:12106   */\n      swap3\n      swap2\n      pop\n      pop\n      jump\t// out\n        /* \"#utility.yul\":12112:12460   */\n    tag_171:\n        /* \"#utility.yul\":12152:12159   */\n      0x00\n        /* \"#utility.yul\":12175:12195   */\n      tag_354\n        /* \"#utility.yul\":12193:12194   */\n      dup3\n        /* \"#utility.yul\":12175:12195   */\n      tag_292\n      jump\t// in\n    tag_354:\n        /* \"#utility.yul\":12170:12195   */\n      swap2\n      pop\n        /* \"#utility.yul\":12209:12229   */\n      tag_355\n        /* \"#utility.yul\":12227:12228   */\n      dup4\n        /* \"#utility.yul\":12209:12229   */\n      tag_292\n      jump\t// in\n    tag_355:\n        /* \"#utility.yul\":12204:12229   */\n      swap3\n      pop\n        /* \"#utility.yul\":12397:12398   */\n      dup2\n        /* \"#utility.yul\":12329:12395   */\n      0xffffffffffffffffffffffffffffffffffffffffffffffffffffffffffffffff\n        /* \"#utility.yul\":12325:12399   */\n      div\n        /* \"#utility.yul\":12322:12323   */\n      dup4\n        /* \"#utility.yul\":12319:12400   */\n      gt\n        /* \"#utility.yul\":12314:12315   */\n      dup3\n        /* \"#utility.yul\":12307:12316   */\n      iszero\n        /* \"#utility.yul\":12300:12317   */\n      iszero\n        /* \"#utility.yul\":12296:12401   */\n      and\n        /* \"#utility.yul\":12293:12424   */\n      iszero\n      tag_356\n      jumpi\n        /* \"#utility.yul\":12404:12422   */\n      tag_357\n      tag_341\n      jump\t// in\n    tag_357:\n        /* \"#utility.yul\":12293:12424   */\n    tag_356:\n        /* \"#utility.yul\":12452:12453   */\n      dup3\n        /* \"#utility.yul\":12449:12450   */\n      dup3\n        /* \"#utility.yul\":12445:12454   */\n      mul\n        /* \"#utility.yul\":12434:12454   */\n      swap1\n      pop\n        /* \"#utility.yul\":12112:12460   */\n      swap3\n      swap2\n      pop\n      pop\n      jump\t// out\n        /* \"#utility.yul\":12466:12657   */\n    tag_166:\n        /* \"#utility.yul\":12506:12510   */\n      0x00\n        /* \"#utility.yul\":12526:12546   */\n      tag_359\n        /* \"#utility.yul\":12544:12545   */\n      dup3\n        /* \"#utility.yul\":12526:12546   */\n      tag_292\n      jump\t// in\n    tag_359:\n        /* \"#utility.yul\":12521:12546   */\n      swap2\n      pop\n        /* \"#utility.yul\":12560:12580   */\n      tag_360\n        /* \"#utility.yul\":12578:12579   */\n      dup4\n        /* \"#utility.yul\":12560:12580   */\n      tag_292\n      jump\t// in\n    tag_360:\n        /* \"#utility.yul\":12555:12580   */\n      swap3\n      pop\n        /* \"#utility.yul\":12599:12600   */\n      dup3\n        /* \"#utility.yul\":12596:12597   */\n      dup3\n        /* \"#utility.yul\":12593:12601   */\n      lt\n        /* \"#utility.yul\":12590:12624   */\n      iszero\n      tag_361\n      jumpi\n        /* \"#utility.yul\":12604:12622   */\n      tag_362\n      tag_341\n      jump\t// in\n    tag_362:\n        /* \"#utility.yul\":12590:12624   */\n    tag_361:\n        /* \"#utility.yul\":12649:12650   */\n      dup3\n        /* \"#utility.yul\":12646:12647   */\n      dup3\n        /* \"#utility.yul\":12642:12651   */\n      sub\n        /* \"#utility.yul\":12634:12651   */\n      swap1\n      pop\n        /* \"#utility.yul\":12466:12657   */\n      swap3\n      swap2\n      pop\n      pop\n      jump\t// out\n        /* \"#utility.yul\":12663:12759   */\n    tag_247:\n        /* \"#utility.yul\":12700:12707   */\n      0x00\n        /* \"#utility.yul\":12729:12753   */\n      tag_364\n        /* \"#utility.yul\":12747:12752   */\n      dup3\n        /* \"#utility.yul\":12729:12753   */\n      tag_365\n      jump\t// in\n    tag_364:\n        /* \"#utility.yul\":12718:12753   */\n      swap1\n      pop\n        /* \"#utility.yul\":12663:12759   */\n      swap2\n      swap1\n      pop\n      jump\t// out\n        /* \"#utility.yul\":12765:12869   */\n    tag_243:\n        /* \"#utility.yul\":12810:12817   */\n      0x00\n        /* \"#utility.yul\":12839:12863   */\n      tag_367\n        /* \"#utility.yul\":12857:12862   */\n      dup3\n        /* \"#utility.yul\":12839:12863   */\n      tag_365\n      jump\t// in\n    tag_367:\n        /* \"#utility.yul\":12828:12863   */\n      swap1\n      pop\n        /* \"#utility.yul\":12765:12869   */\n      swap2\n      swap1\n      pop\n      jump\t// out\n        /* \"#utility.yul\":12875:12965   */\n    tag_251:\n        /* \"#utility.yul\":12909:12916   */\n      0x00\n        /* \"#utility.yul\":12952:12957   */\n      dup2\n        /* \"#utility.yul\":12945:12958   */\n      iszero\n        /* \"#utility.yul\":12938:12959   */\n      iszero\n        /* \"#utility.yul\":12927:12959   */\n      swap1\n      pop\n        /* \"#utility.yul\":12875:12965   */\n      swap2\n      swap1\n      pop\n      jump\t// out\n        /* \"#utility.yul\":12971:13097   */\n    tag_365:\n        /* \"#utility.yul\":13008:13015   */\n      0x00\n        /* \"#utility.yul\":13048:13090   */\n      0xffffffffffffffffffffffffffffffffffffffff\n        /* \"#utility.yul\":13041:13046   */\n      dup3\n        /* \"#utility.yul\":13037:13091   */\n      and\n        /* \"#utility.yul\":13026:13091   */\n      swap1\n      pop\n        /* \"#utility.yul\":12971:13097   */\n      swap2\n      swap1\n      pop\n      jump\t// out\n        /* \"#utility.yul\":13103:13180   */\n    tag_292:\n        /* \"#utility.yul\":13140:13147   */\n      0x00\n        /* \"#utility.yul\":13169:13174   */\n      dup2\n        /* \"#utility.yul\":13158:13174   */\n      swap1\n      pop\n        /* \"#utility.yul\":13103:13180   */\n      swap2\n      swap1\n      pop\n      jump\t// out\n        /* \"#utility.yul\":13186:13272   */\n    tag_296:\n        /* \"#utility.yul\":13221:13228   */\n      0x00\n        /* \"#utility.yul\":13261:13265   */\n      0xff\n        /* \"#utility.yul\":13254:13259   */\n      dup3\n        /* \"#utility.yul\":13250:13266   */\n      and\n        /* \"#utility.yul\":13239:13266   */\n      swap1\n      pop\n        /* \"#utility.yul\":13186:13272   */\n      swap2\n      swap1\n      pop\n      jump\t// out\n        /* \"#utility.yul\":13278:13445   */\n    tag_112:\n        /* \"#utility.yul\":13315:13318   */\n      0x00\n        /* \"#utility.yul\":13338:13360   */\n      tag_373\n        /* \"#utility.yul\":13354:13359   */\n      dup3\n        /* \"#utility.yul\":13338:13360   */\n      tag_296\n      jump\t// in\n    tag_373:\n        /* \"#utility.yul\":13329:13360   */\n      swap2\n      pop\n        /* \"#utility.yul\":13382:13386   */\n      0xff\n        /* \"#utility.yul\":13375:13380   */\n      dup3\n        /* \"#utility.yul\":13372:13387   */\n      eq\n        /* \"#utility.yul\":13369:13410   */\n      iszero\n      tag_374\n      jumpi\n        /* \"#utility.yul\":13390:13408   */\n      tag_375\n      tag_341\n      jump\t// in\n    tag_375:\n        /* \"#utility.yul\":13369:13410   */\n    tag_374:\n        /* \"#utility.yul\":13437:13438   */\n      0x01\n        /* \"#utility.yul\":13430:13435   */\n      dup3\n        /* \"#utility.yul\":13426:13439   */\n      add\n        /* \"#utility.yul\":13419:13439   */\n      swap1\n      pop\n        /* \"#utility.yul\":13278:13445   */\n      swap2\n      swap1\n      pop\n      jump\t// out\n        /* \"#utility.yul\":13451:13627   */\n    tag_200:\n        /* \"#utility.yul\":13483:13484   */\n      0x00\n        /* \"#utility.yul\":13500:13520   */\n      tag_377\n        /* \"#utility.yul\":13518:13519   */\n      dup3\n        /* \"#utility.yul\":13500:13520   */\n      tag_292\n      jump\t// in\n    tag_377:\n        /* \"#utility.yul\":13495:13520   */\n      swap2\n      pop\n        /* \"#utility.yul\":13534:13554   */\n      tag_378\n        /* \"#utility.yul\":13552:13553   */\n      dup4\n        /* \"#utility.yul\":13534:13554   */\n      tag_292\n      jump\t// in\n    tag_378:\n        /* \"#utility.yul\":13529:13554   */\n      swap3\n      pop\n        /* \"#utility.yul\":13573:13574   */\n      dup3\n        /* \"#utility.yul\":13563:13598   */\n      tag_379\n      jumpi\n        /* \"#utility.yul\":13578:13596   */\n      tag_380\n      tag_352\n      jump\t// in\n    tag_380:\n        /* \"#utility.yul\":13563:13598   */\n    tag_379:\n        /* \"#utility.yul\":13619:13620   */\n      dup3\n        /* \"#utility.yul\":13616:13617   */\n      dup3\n        /* \"#utility.yul\":13612:13621   */\n      mod\n        /* \"#utility.yul\":13607:13621   */\n      swap1\n      pop\n        /* \"#utility.yul\":13451:13627   */\n      swap3\n      swap2\n      pop\n      pop\n      jump\t// out\n        /* \"#utility.yul\":13633:13813   */\n    tag_341:\n        /* \"#utility.yul\":13681:13758   */\n      0x4e487b7100000000000000000000000000000000000000000000000000000000\n        /* \"#utility.yul\":13678:13679   */\n      0x00\n        /* \"#utility.yul\":13671:13759   */\n      mstore\n        /* \"#utility.yul\":13778:13782   */\n      0x11\n        /* \"#utility.yul\":13775:13776   */\n      0x04\n        /* \"#utility.yul\":13768:13783   */\n      mstore\n        /* \"#utility.yul\":13802:13806   */\n      0x24\n        /* \"#utility.yul\":13799:13800   */\n      0x00\n        /* \"#utility.yul\":13792:13807   */\n      revert\n        /* \"#utility.yul\":13819:13999   */\n    tag_352:\n        /* \"#utility.yul\":13867:13944   */\n      0x4e487b7100000000000000000000000000000000000000000000000000000000\n        /* \"#utility.yul\":13864:13865   */\n      0x00\n        /* \"#utility.yul\":13857:13945   */\n      mstore\n        /* \"#utility.yul\":13964:13968   */\n      0x12\n        /* \"#utility.yul\":13961:13962   */\n      0x04\n        /* \"#utility.yul\":13954:13969   */\n      mstore\n        /* \"#utility.yul\":13988:13992   */\n      0x24\n        /* \"#utility.yul\":13985:13986   */\n      0x00\n        /* \"#utility.yul\":13978:13993   */\n      revert\n        /* \"#utility.yul\":14128:14245   */\n    tag_220:\n        /* \"#utility.yul\":14237:14238   */\n      0x00\n        /* \"#utility.yul\":14234:14235   */\n      dup1\n        /* \"#utility.yul\":14227:14239   */\n      revert\n        /* \"#utility.yul\":14251:14420   */\n    tag_257:\n        /* \"#utility.yul\":14391:14412   */\n      0x4e6f7468696e6720746f20776974686472617700000000000000000000000000\n        /* \"#utility.yul\":14387:14388   */\n      0x00\n        /* \"#utility.yul\":14379:14385   */\n      dup3\n        /* \"#utility.yul\":14375:14389   */\n      add\n        /* \"#utility.yul\":14368:14413   */\n      mstore\n        /* \"#utility.yul\":14251:14420   */\n      pop\n      jump\t// out\n        /* \"#utility.yul\":14426:14590   */\n    tag_262:\n        /* \"#utility.yul\":14566:14582   */\n      0x47616d65206e6f7420666f756e64000000000000000000000000000000000000\n        /* \"#utility.yul\":14562:14563   */\n      0x00\n        /* \"#utility.yul\":14554:14560   */\n      dup3\n        /* \"#utility.yul\":14550:14564   */\n      add\n        /* \"#utility.yul\":14543:14583   */\n      mstore\n        /* \"#utility.yul\":14426:14590   */\n      pop\n      jump\t// out\n        /* \"#utility.yul\":14596:14772   */\n    tag_267:\n        /* \"#utility.yul\":14736:14764   */\n      0x596f752061726520616c72656164792072656769737465726564000000000000\n        /* \"#utility.yul\":14732:14733   */\n      0x00\n        /* \"#utility.yul\":14724:14730   */\n      dup3\n        /* \"#utility.yul\":14720:14734   */\n      add\n        /* \"#utility.yul\":14713:14765   */\n      mstore\n        /* \"#utility.yul\":14596:14772   */\n      pop\n      jump\t// out\n        /* \"#utility.yul\":14778:14892   */\n    tag_273:\n      pop\n      jump\t// out\n        /* \"#utility.yul\":14898:15120   */\n    tag_278:\n        /* \"#utility.yul\":15038:15072   */\n      0x496e73756666696369656e7420616d6f756e74206f6620636f6e747269627574\n        /* \"#utility.yul\":15034:15035   */\n      0x00\n        /* \"#utility.yul\":15026:15032   */\n      dup3\n        /* \"#utility.yul\":15022:15036   */\n      add\n        /* \"#utility.yul\":15015:15073   */\n      mstore\n        /* \"#utility.yul\":15107:15112   */\n      0x696f6e0000000000000000000000000000000000000000000000000000000000\n        /* \"#utility.yul\":15102:15104   */\n      0x20\n        /* \"#utility.yul\":15094:15100   */\n      dup3\n        /* \"#utility.yul\":15090:15105   */\n      add\n        /* \"#utility.yul\":15083:15113   */\n      mstore\n        /* \"#utility.yul\":14898:15120   */\n      pop\n      jump\t// out\n        /* \"#utility.yul\":15126:15353   */\n    tag_283:\n        /* \"#utility.yul\":15266:15300   */\n      0x466f72207265676974657220696e2067616d6520796f75206e65656420706179\n        /* \"#utility.yul\":15262:15263   */\n      0x00\n        /* \"#utility.yul\":15254:15260   */\n      dup3\n        /* \"#utility.yul\":15250:15264   */\n      add\n        /* \"#utility.yul\":15243:15301   */\n      mstore\n        /* \"#utility.yul\":15335:15345   */\n      0x2031206574686572000000000000000000000000000000000000000000000000\n        /* \"#utility.yul\":15330:15332   */\n      0x20\n        /* \"#utility.yul\":15322:15328   */\n      dup3\n        /* \"#utility.yul\":15318:15333   */\n      add\n        /* \"#utility.yul\":15311:15346   */\n      mstore\n        /* \"#utility.yul\":15126:15353   */\n      pop\n      jump\t// out\n        /* \"#utility.yul\":15359:15521   */\n    tag_288:\n        /* \"#utility.yul\":15499:15513   */\n      0x4e6f20636f6e7472616374730000000000000000000000000000000000000000\n        /* \"#utility.yul\":15495:15496   */\n      0x00\n        /* \"#utility.yul\":15487:15493   */\n      dup3\n        /* \"#utility.yul\":15483:15497   */\n      add\n        /* \"#utility.yul\":15476:15514   */\n      mstore\n        /* \"#utility.yul\":15359:15521   */\n      pop\n      jump\t// out\n        /* \"#utility.yul\":15527:15649   */\n    tag_208:\n        /* \"#utility.yul\":15600:15624   */\n      tag_394\n        /* \"#utility.yul\":15618:15623   */\n      dup2\n        /* \"#utility.yul\":15600:15624   */\n      tag_247\n      jump\t// in\n    tag_394:\n        /* \"#utility.yul\":15593:15598   */\n      dup2\n        /* \"#utility.yul\":15590:15625   */\n      eq\n        /* \"#utility.yul\":15580:15643   */\n      tag_395\n      jumpi\n        /* \"#utility.yul\":15639:15640   */\n      0x00\n        /* \"#utility.yul\":15636:15637   */\n      dup1\n        /* \"#utility.yul\":15629:15641   */\n      revert\n        /* \"#utility.yul\":15580:15643   */\n    tag_395:\n        /* \"#utility.yul\":15527:15649   */\n      pop\n      jump\t// out\n        /* \"#utility.yul\":15655:15777   */\n    tag_212:\n        /* \"#utility.yul\":15728:15752   */\n      tag_397\n        /* \"#utility.yul\":15746:15751   */\n      dup2\n        /* \"#utility.yul\":15728:15752   */\n      tag_292\n      jump\t// in\n    tag_397:\n        /* \"#utility.yul\":15721:15726   */\n      dup2\n        /* \"#utility.yul\":15718:15753   */\n      eq\n        /* \"#utility.yul\":15708:15771   */\n      tag_398\n      jumpi\n        /* \"#utility.yul\":15767:15768   */\n      0x00\n        /* \"#utility.yul\":15764:15765   */\n      dup1\n        /* \"#utility.yul\":15757:15769   */\n      revert\n        /* \"#utility.yul\":15708:15771   */\n    tag_398:\n        /* \"#utility.yul\":15655:15777   */\n      pop\n      jump\t// out\n        /* \"#utility.yul\":15783:15901   */\n    tag_216:\n        /* \"#utility.yul\":15854:15876   */\n      tag_400\n        /* \"#utility.yul\":15870:15875   */\n      dup2\n        /* \"#utility.yul\":15854:15876   */\n      tag_296\n      jump\t// in\n    tag_400:\n        /* \"#utility.yul\":15847:15852   */\n      dup2\n        /* \"#utility.yul\":15844:15877   */\n      eq\n        /* \"#utility.yul\":15834:15895   */\n      tag_401\n      jumpi\n        /* \"#utility.yul\":15891:15892   */\n      0x00\n        /* \"#utility.yul\":15888:15889   */\n      dup1\n        /* \"#utility.yul\":15881:15893   */\n      revert\n        /* \"#utility.yul\":15834:15895   */\n    tag_401:\n        /* \"#utility.yul\":15783:15901   */\n      pop\n      jump\t// out\n\n    auxdata: 0xa2646970667358221220487695938daeee6fa717521bcbb560e901c72da6fbc16263c7b93622052bc95864736f6c63430008070033\n}\n",
				"bytecode": {
					"linkReferences": {},
					"object": "60806040523480156200001157600080fd5b50336001806101000a81548173ffffffffffffffffffffffffffffffffffffffff021916908373ffffffffffffffffffffffffffffffffffffffff16021790555060018054906101000a900473ffffffffffffffffffffffffffffffffffffffff166004600080815260200190815260200160002060006101000a81548173ffffffffffffffffffffffffffffffffffffffff021916908373ffffffffffffffffffffffffffffffffffffffff16021790555060405180606001604052806000815260200160018054906101000a900473ffffffffffffffffffffffffffffffffffffffff1673ffffffffffffffffffffffffffffffffffffffff16815260200160008152506005600060018054906101000a900473ffffffffffffffffffffffffffffffffffffffff1673ffffffffffffffffffffffffffffffffffffffff1673ffffffffffffffffffffffffffffffffffffffff1681526020019081526020016000206000820151816000015560208201518160010160006101000a81548173ffffffffffffffffffffffffffffffffffffffff021916908373ffffffffffffffffffffffffffffffffffffffff160217905550604082015181600201559050506001600081905550620001f5670de0b6b3a7640000620001fb60201b60201c565b62000403565b6200020c33620002f960201b60201c565b6200021657600080fd5b60405180602001604052808281525060036000600160009054906101000a900460ff1660ff1660ff1681526020019081526020016000206000820151816000015590505060018060008282829054906101000a900460ff166200027a91906200037f565b92506101000a81548160ff021916908360ff1602179055507fa0b7f6f22bb4f69adc52dd16ffe2a964ab8b577be274247fa9a1547b03ce3e5560036000600160009054906101000a900460ff1660ff1660ff16815260200190815260200160002060000154604051620002ee919062000362565b60405180910390a150565b600060018054906101000a900473ffffffffffffffffffffffffffffffffffffffff1673ffffffffffffffffffffffffffffffffffffffff168273ffffffffffffffffffffffffffffffffffffffff16149050919050565b6200035c81620003bd565b82525050565b600060208201905062000379600083018462000351565b92915050565b60006200038c82620003c7565b91506200039983620003c7565b92508260ff03821115620003b257620003b1620003d4565b5b828201905092915050565b6000819050919050565b600060ff82169050919050565b7f4e487b7100000000000000000000000000000000000000000000000000000000600052601160045260246000fd5b61236780620004136000396000f3fe6080604052600436106100ec5760003560e01c806378a32e211161008a578063ad39f0a311610059578063ad39f0a314610332578063ae9283b51461035d578063bd233b9114610386578063f1060006146103c3576100fd565b806378a32e211461023c578063906cbf571461027b57806395a078e8146102b85780639b0b0ae3146102f5576100fd565b80632e8aab9b116100c65780632e8aab9b146101a157806333fb9ad8146101bd578063556c9095146101fa57806355cc42b314610225576100fd565b80630173c05b146101095780630e50cee5146101255780632a648c8914610164576100fd565b366100fd576100fb3334610400565b005b6101073334610400565b005b610123600480360381019061011e9190611b4c565b6104c3565b005b34801561013157600080fd5b5061014c60048036038101906101479190611adf565b610773565b60405161015b93929190611e4c565b60405180910390f35b34801561017057600080fd5b5061018b60048036038101906101869190611b0c565b6107bd565b6040516101989190611d56565b60405180910390f35b6101bb60048036038101906101b69190611b79565b6107ec565b005b3480156101c957600080fd5b506101e460048036038101906101df9190611adf565b610896565b6040516101f19190611e31565b60405180910390f35b34801561020657600080fd5b5061020f6108df565b60405161021c9190611e31565b60405180910390f35b34801561023157600080fd5b5061023a6108e5565b005b34801561024857600080fd5b50610263600480360381019061025e9190611ba6565b610b00565b60405161027293929190611e4c565b60405180910390f35b34801561028757600080fd5b506102a2600480360381019061029d9190611b79565b610b57565b6040516102af9190611e31565b60405180910390f35b3480156102c457600080fd5b506102df60048036038101906102da9190611adf565b610b75565b6040516102ec9190611d56565b60405180910390f35b34801561030157600080fd5b5061031c60048036038101906103179190611b79565b610bcd565b6040516103299190611e31565b60405180910390f35b34801561033e57600080fd5b50610347610be5565b6040516103549190611eff565b60405180910390f35b34801561036957600080fd5b50610384600480360381019061037f9190611b4c565b610bf8565b005b34801561039257600080fd5b506103ad60048036038101906103a89190611b4c565b610ce9565b6040516103ba9190611d3b565b60405180910390f35b3480156103cf57600080fd5b506103ea60048036038101906103e59190611b0c565b610d1c565b6040516103f79190611e31565b60405180910390f35b60008060005b60018060009054906101000a900460ff166104219190611f8c565b60ff168160ff1610156104715734600360008360ff1660ff16815260200190815260200160002060000154141561045e5760019250809150610471565b8080610469906120e9565b915050610406565b50816104b2576040517f08c379a00000000000000000000000000000000000000000000000000000000081526004016104a990611d91565b60405180910390fd5b6104bd818585610d41565b50505050565b600080339050803b915060008263ffffffff161115610517576040517f08c379a000000000000000000000000000000000000000000000000000000000815260040161050e90611e11565b60405180910390fd5b600073ffffffffffffffffffffffffffffffffffffffff16600560003373ffffffffffffffffffffffffffffffffffffffff1673ffffffffffffffffffffffffffffffffffffffff16815260200190815260200160002060010160009054906101000a900473ffffffffffffffffffffffffffffffffffffffff1673ffffffffffffffffffffffffffffffffffffffff16146105e8576040517f08c379a00000000000000000000000000000000000000000000000000000000081526004016105df90611db1565b60405180910390fd5b670de0b6b3a76400003414610632576040517f08c379a000000000000000000000000000000000000000000000000000000000815260040161062990611df1565b60405180910390fd5b604051806060016040528060005481526020013373ffffffffffffffffffffffffffffffffffffffff16815260200184815250600560003373ffffffffffffffffffffffffffffffffffffffff1673ffffffffffffffffffffffffffffffffffffffff1681526020019081526020016000206000820151816000015560208201518160010160006101000a81548173ffffffffffffffffffffffffffffffffffffffff021916908373ffffffffffffffffffffffffffffffffffffffff1602179055506040820151816002015590505033600460008054815260200190815260200160002060006101000a81548173ffffffffffffffffffffffffffffffffffffffff021916908373ffffffffffffffffffffffffffffffffffffffff16021790555060016000808282546107679190611f36565b92505081905550505050565b60056020528060005260406000206000915090508060000154908060010160009054906101000a900473ffffffffffffffffffffffffffffffffffffffff16908060020154905083565b60096020528160005260406000206020528060005260406000206000915091509054906101000a900460ff1681565b600073ffffffffffffffffffffffffffffffffffffffff16600560003373ffffffffffffffffffffffffffffffffffffffff1673ffffffffffffffffffffffffffffffffffffffff16815260200190815260200160002060010160009054906101000a900473ffffffffffffffffffffffffffffffffffffffff1673ffffffffffffffffffffffffffffffffffffffff16141561088857600080fd5b610893813334610d41565b50565b6000600260008373ffffffffffffffffffffffffffffffffffffffff1673ffffffffffffffffffffffffffffffffffffffff168152602001908152602001600020549050919050565b60005481565b600073ffffffffffffffffffffffffffffffffffffffff16600560003373ffffffffffffffffffffffffffffffffffffffff1673ffffffffffffffffffffffffffffffffffffffff16815260200190815260200160002060010160009054906101000a900473ffffffffffffffffffffffffffffffffffffffff1673ffffffffffffffffffffffffffffffffffffffff16141561098157600080fd5b6000600260003373ffffffffffffffffffffffffffffffffffffffff1673ffffffffffffffffffffffffffffffffffffffff1681526020019081526020016000205411610a03576040517f08c379a00000000000000000000000000000000000000000000000000000000081526004016109fa90611d71565b60405180910390fd5b60003373ffffffffffffffffffffffffffffffffffffffff16600260003373ffffffffffffffffffffffffffffffffffffffff1673ffffffffffffffffffffffffffffffffffffffff16815260200190815260200160002054604051610a6890611d26565b60006040518083038185875af1925050503d8060008114610aa5576040519150601f19603f3d011682016040523d82523d6000602084013e610aaa565b606091505b5050905080610ab857600080fd5b6000600260003373ffffffffffffffffffffffffffffffffffffffff1673ffffffffffffffffffffffffffffffffffffffff1681526020019081526020016000208190555050565b6007602052816000526040600020602052806000526040600020600091509150508060000154908060010160009054906101000a900473ffffffffffffffffffffffffffffffffffffffff16908060020154905083565b60036020528060005260406000206000915090508060000154905081565b600060018054906101000a900473ffffffffffffffffffffffffffffffffffffffff1673ffffffffffffffffffffffffffffffffffffffff168273ffffffffffffffffffffffffffffffffffffffff16149050919050565b60066020528060005260406000206000915090505481565b600160009054906101000a900460ff1681565b610c0133610b75565b610c0a57600080fd5b60405180602001604052808281525060036000600160009054906101000a900460ff1660ff1660ff1681526020019081526020016000206000820151816000015590505060018060008282829054906101000a900460ff16610c6c9190611f8c565b92506101000a81548160ff021916908360ff1602179055507fa0b7f6f22bb4f69adc52dd16ffe2a964ab8b577be274247fa9a1547b03ce3e5560036000600160009054906101000a900460ff1660ff1660ff16815260200190815260200160002060000154604051610cde9190611e31565b60405180910390a150565b60046020528060005260406000206000915054906101000a900473ffffffffffffffffffffffffffffffffffffffff1681565b6008602052816000526040600020602052806000526040600020600091509150505481565b600360008460ff1660ff16815260200190815260200160002060000154811015610da0576040517f08c379a0000000000000000000000000000000000000000000000000000000008152600401610d9790611dd1565b60405180910390fd5b600560008373ffffffffffffffffffffffffffffffffffffffff1673ffffffffffffffffffffffffffffffffffffffff168152602001908152602001600020600760008560ff1660ff1681526020019081526020016000206000600660008760ff1660ff168152602001908152602001600020548152602001908152602001600020600082015481600001556001820160009054906101000a900473ffffffffffffffffffffffffffffffffffffffff168160010160006101000a81548173ffffffffffffffffffffffffffffffffffffffff021916908373ffffffffffffffffffffffffffffffffffffffff160217905550600282015481600201559050506001600960008473ffffffffffffffffffffffffffffffffffffffff1673ffffffffffffffffffffffffffffffffffffffff16815260200190815260200160002060008560ff1660ff16815260200190815260200160002060006101000a81548160ff0219169083151502179055506001600660008560ff1660ff1681526020019081526020016000206000828254610f399190611f36565b925050819055506003600660008560ff1660ff1681526020019081526020016000205410611a6a576000610f85600660008660ff1660ff16815260200190815260200160002054611a6f565b90505b60008114611a68576000600760008660ff1660ff1681526020019081526020016000206000600184610fba919061204e565b815260200190815260200160002060010160009054906101000a900473ffffffffffffffffffffffffffffffffffffffff1690506001600860008373ffffffffffffffffffffffffffffffffffffffff1673ffffffffffffffffffffffffffffffffffffffff16815260200190815260200160002060008760ff1660ff168152602001908152602001600020541115806110c05750600960008273ffffffffffffffffffffffffffffffffffffffff1673ffffffffffffffffffffffffffffffffffffffff168152602001908152602001600020600060018761109d9190611f8c565b60ff1660ff16815260200190815260200160002060009054906101000a900460ff165b15611a62576064604a600360008860ff1660ff168152602001908152602001600020600001546110f09190611ff4565b6110fa9190611fc3565b600260008373ffffffffffffffffffffffffffffffffffffffff1673ffffffffffffffffffffffffffffffffffffffff16815260200190815260200160002060008282546111489190611f36565b925050819055506001600860008373ffffffffffffffffffffffffffffffffffffffff1673ffffffffffffffffffffffffffffffffffffffff16815260200190815260200160002060008760ff1660ff16815260200190815260200160002060008282546111b69190611f36565b925050819055507f99af5599bf20c9414934ff2eb4264f5ac1a42fe0e5ec331366cf59ed0641c1bd600360008760ff1660ff1681526020019081526020016000206000015482600160405161120d93929190611e83565b60405180910390a16000600760008760ff1660ff168152602001908152602001600020600060018561123f919061204e565b81526020019081526020016000206000015490506000600760008860ff1660ff168152602001908152602001600020600060018661127d919061204e565b815260200190815260200160002060020154905060006064600a600360008b60ff1660ff168152602001908152602001600020600001546112be9190611ff4565b6112c89190611fc3565b905080600260006004600086815260200190815260200160002060009054906101000a900473ffffffffffffffffffffffffffffffffffffffff1673ffffffffffffffffffffffffffffffffffffffff1673ffffffffffffffffffffffffffffffffffffffff168152602001908152602001600020600082825461134c9190611f36565b925050819055507f394d81fc6d726f376ac7e03cfb1bf07f04a993ec0a3fe7f4782e2ef8e5416145600360008a60ff1660ff168152602001908152602001600020600001548484846040516113a49493929190611eba565b60405180910390a160646006600360008b60ff1660ff168152602001908152602001600020600001546113d79190611ff4565b6113e19190611fc3565b90508060026000600560006004600088815260200190815260200160002060009054906101000a900473ffffffffffffffffffffffffffffffffffffffff1673ffffffffffffffffffffffffffffffffffffffff1673ffffffffffffffffffffffffffffffffffffffff16815260200190815260200160002060010160009054906101000a900473ffffffffffffffffffffffffffffffffffffffff1673ffffffffffffffffffffffffffffffffffffffff1673ffffffffffffffffffffffffffffffffffffffff16815260200190815260200160002060008282546114c79190611f36565b925050819055507f394d81fc6d726f376ac7e03cfb1bf07f04a993ec0a3fe7f4782e2ef8e5416145600360008a60ff1660ff1681526020019081526020016000206000015483600560006004600088815260200190815260200160002060009054906101000a900473ffffffffffffffffffffffffffffffffffffffff1673ffffffffffffffffffffffffffffffffffffffff1673ffffffffffffffffffffffffffffffffffffffff16815260200190815260200160002060000154846040516115949493929190611eba565b60405180910390a160646004600360008b60ff1660ff168152602001908152602001600020600001546115c79190611ff4565b6115d19190611fc3565b90508060026000600560006004600060056000600460008c815260200190815260200160002060009054906101000a900473ffffffffffffffffffffffffffffffffffffffff1673ffffffffffffffffffffffffffffffffffffffff1673ffffffffffffffffffffffffffffffffffffffff16815260200190815260200160002060000154815260200190815260200160002060009054906101000a900473ffffffffffffffffffffffffffffffffffffffff1673ffffffffffffffffffffffffffffffffffffffff1673ffffffffffffffffffffffffffffffffffffffff16815260200190815260200160002060010160009054906101000a900473ffffffffffffffffffffffffffffffffffffffff1673ffffffffffffffffffffffffffffffffffffffff1673ffffffffffffffffffffffffffffffffffffffff168152602001908152602001600020600082825461172c9190611f36565b925050819055507f394d81fc6d726f376ac7e03cfb1bf07f04a993ec0a3fe7f4782e2ef8e5416145600360008a60ff1660ff16815260200190815260200160002060000154600560006004600087815260200190815260200160002060009054906101000a900473ffffffffffffffffffffffffffffffffffffffff1673ffffffffffffffffffffffffffffffffffffffff1673ffffffffffffffffffffffffffffffffffffffff16815260200190815260200160002060000154600560006004600060056000600460008c815260200190815260200160002060009054906101000a900473ffffffffffffffffffffffffffffffffffffffff1673ffffffffffffffffffffffffffffffffffffffff1673ffffffffffffffffffffffffffffffffffffffff16815260200190815260200160002060000154815260200190815260200160002060009054906101000a900473ffffffffffffffffffffffffffffffffffffffff1673ffffffffffffffffffffffffffffffffffffffff1673ffffffffffffffffffffffffffffffffffffffff16815260200190815260200160002060000154846040516118e39493929190611eba565b60405180910390a160646006600360008b60ff1660ff168152602001908152602001600020600001546119169190611ff4565b6119209190611fc3565b9050806002600060018054906101000a900473ffffffffffffffffffffffffffffffffffffffff1673ffffffffffffffffffffffffffffffffffffffff1673ffffffffffffffffffffffffffffffffffffffff16815260200190815260200160002060008282546119919190611f36565b925050819055507f394d81fc6d726f376ac7e03cfb1bf07f04a993ec0a3fe7f4782e2ef8e5416145600360008a60ff1660ff16815260200190815260200160002060000154846005600060018054906101000a900473ffffffffffffffffffffffffffffffffffffffff1673ffffffffffffffffffffffffffffffffffffffff1673ffffffffffffffffffffffffffffffffffffffff1681526020019081526020016000206000015484604051611a4b9493929190611eba565b60405180910390a1611a5c85611a6f565b94505050505b50610f88565b505b505050565b600080600283611a7f9190612113565b14611a9657600282611a919190611fc3565b611a99565b60005b9050919050565b600081359050611aaf816122ec565b92915050565b600081359050611ac481612303565b92915050565b600081359050611ad98161231a565b92915050565b600060208284031215611af557611af46121a2565b5b6000611b0384828501611aa0565b91505092915050565b60008060408385031215611b2357611b226121a2565b5b6000611b3185828601611aa0565b9250506020611b4285828601611aca565b9150509250929050565b600060208284031215611b6257611b616121a2565b5b6000611b7084828501611ab5565b91505092915050565b600060208284031215611b8f57611b8e6121a2565b5b6000611b9d84828501611aca565b91505092915050565b60008060408385031215611bbd57611bbc6121a2565b5b6000611bcb85828601611aca565b9250506020611bdc85828601611ab5565b9150509250929050565b611bef81612094565b82525050565b611bfe81612082565b82525050565b611c0d816120a6565b82525050565b6000611c20601383611f25565b9150611c2b826121a7565b602082019050919050565b6000611c43600e83611f25565b9150611c4e826121d0565b602082019050919050565b6000611c66601a83611f25565b9150611c71826121f9565b602082019050919050565b6000611c89600083611f1a565b9150611c9482612222565b600082019050919050565b6000611cac602383611f25565b9150611cb782612225565b604082019050919050565b6000611ccf602883611f25565b9150611cda82612274565b604082019050919050565b6000611cf2600c83611f25565b9150611cfd826122c3565b602082019050919050565b611d11816120d2565b82525050565b611d20816120dc565b82525050565b6000611d3182611c7c565b9150819050919050565b6000602082019050611d506000830184611bf5565b92915050565b6000602082019050611d6b6000830184611c04565b92915050565b60006020820190508181036000830152611d8a81611c13565b9050919050565b60006020820190508181036000830152611daa81611c36565b9050919050565b60006020820190508181036000830152611dca81611c59565b9050919050565b60006020820190508181036000830152611dea81611c9f565b9050919050565b60006020820190508181036000830152611e0a81611cc2565b9050919050565b60006020820190508181036000830152611e2a81611ce5565b9050919050565b6000602082019050611e466000830184611d08565b92915050565b6000606082019050611e616000830186611d08565b611e6e6020830185611be6565b611e7b6040830184611d08565b949350505050565b6000606082019050611e986000830186611d08565b611ea56020830185611bf5565b611eb26040830184611c04565b949350505050565b6000608082019050611ecf6000830187611d08565b611edc6020830186611d08565b611ee96040830185611d08565b611ef66060830184611d08565b95945050505050565b6000602082019050611f146000830184611d17565b92915050565b600081905092915050565b600082825260208201905092915050565b6000611f41826120d2565b9150611f4c836120d2565b9250827fffffffffffffffffffffffffffffffffffffffffffffffffffffffffffffffff03821115611f8157611f80612144565b5b828201905092915050565b6000611f97826120dc565b9150611fa2836120dc565b92508260ff03821115611fb857611fb7612144565b5b828201905092915050565b6000611fce826120d2565b9150611fd9836120d2565b925082611fe957611fe8612173565b5b828204905092915050565b6000611fff826120d2565b915061200a836120d2565b9250817fffffffffffffffffffffffffffffffffffffffffffffffffffffffffffffffff048311821515161561204357612042612144565b5b828202905092915050565b6000612059826120d2565b9150612064836120d2565b92508282101561207757612076612144565b5b828203905092915050565b600061208d826120b2565b9050919050565b600061209f826120b2565b9050919050565b60008115159050919050565b600073ffffffffffffffffffffffffffffffffffffffff82169050919050565b6000819050919050565b600060ff82169050919050565b60006120f4826120dc565b915060ff82141561210857612107612144565b5b600182019050919050565b600061211e826120d2565b9150612129836120d2565b92508261213957612138612173565b5b828206905092915050565b7f4e487b7100000000000000000000000000000000000000000000000000000000600052601160045260246000fd5b7f4e487b7100000000000000000000000000000000000000000000000000000000600052601260045260246000fd5b600080fd5b7f4e6f7468696e6720746f20776974686472617700000000000000000000000000600082015250565b7f47616d65206e6f7420666f756e64000000000000000000000000000000000000600082015250565b7f596f752061726520616c72656164792072656769737465726564000000000000600082015250565b50565b7f496e73756666696369656e7420616d6f756e74206f6620636f6e74726962757460008201527f696f6e0000000000000000000000000000000000000000000000000000000000602082015250565b7f466f72207265676974657220696e2067616d6520796f75206e6565642070617960008201527f2031206574686572000000000000000000000000000000000000000000000000602082015250565b7f4e6f20636f6e7472616374730000000000000000000000000000000000000000600082015250565b6122f581612082565b811461230057600080fd5b50565b61230c816120d2565b811461231757600080fd5b50565b612323816120dc565b811461232e57600080fd5b5056fea2646970667358221220487695938daeee6fa717521bcbb560e901c72da6fbc16263c7b93622052bc95864736f6c63430008070033",
					"opcodes": "PUSH1 0x80 PUSH1 0x40 MSTORE CALLVALUE DUP1 ISZERO PUSH3 0x11 JUMPI PUSH1 0x0 DUP1 REVERT JUMPDEST POP CALLER PUSH1 0x1 DUP1 PUSH2 0x100 EXP DUP2 SLOAD DUP2 PUSH20 0xFFFFFFFFFFFFFFFFFFFFFFFFFFFFFFFFFFFFFFFF MUL NOT AND SWAP1 DUP4 PUSH20 0xFFFFFFFFFFFFFFFFFFFFFFFFFFFFFFFFFFFFFFFF AND MUL OR SWAP1 SSTORE POP PUSH1 0x1 DUP1 SLOAD SWAP1 PUSH2 0x100 EXP SWAP1 DIV PUSH20 0xFFFFFFFFFFFFFFFFFFFFFFFFFFFFFFFFFFFFFFFF AND PUSH1 0x4 PUSH1 0x0 DUP1 DUP2 MSTORE PUSH1 0x20 ADD SWAP1 DUP2 MSTORE PUSH1 0x20 ADD PUSH1 0x0 KECCAK256 PUSH1 0x0 PUSH2 0x100 EXP DUP2 SLOAD DUP2 PUSH20 0xFFFFFFFFFFFFFFFFFFFFFFFFFFFFFFFFFFFFFFFF MUL NOT AND SWAP1 DUP4 PUSH20 0xFFFFFFFFFFFFFFFFFFFFFFFFFFFFFFFFFFFFFFFF AND MUL OR SWAP1 SSTORE POP PUSH1 0x40 MLOAD DUP1 PUSH1 0x60 ADD PUSH1 0x40 MSTORE DUP1 PUSH1 0x0 DUP2 MSTORE PUSH1 0x20 ADD PUSH1 0x1 DUP1 SLOAD SWAP1 PUSH2 0x100 EXP SWAP1 DIV PUSH20 0xFFFFFFFFFFFFFFFFFFFFFFFFFFFFFFFFFFFFFFFF AND PUSH20 0xFFFFFFFFFFFFFFFFFFFFFFFFFFFFFFFFFFFFFFFF AND DUP2 MSTORE PUSH1 0x20 ADD PUSH1 0x0 DUP2 MSTORE POP PUSH1 0x5 PUSH1 0x0 PUSH1 0x1 DUP1 SLOAD SWAP1 PUSH2 0x100 EXP SWAP1 DIV PUSH20 0xFFFFFFFFFFFFFFFFFFFFFFFFFFFFFFFFFFFFFFFF AND PUSH20 0xFFFFFFFFFFFFFFFFFFFFFFFFFFFFFFFFFFFFFFFF AND PUSH20 0xFFFFFFFFFFFFFFFFFFFFFFFFFFFFFFFFFFFFFFFF AND DUP2 MSTORE PUSH1 0x20 ADD SWAP1 DUP2 MSTORE PUSH1 0x20 ADD PUSH1 0x0 KECCAK256 PUSH1 0x0 DUP3 ADD MLOAD DUP2 PUSH1 0x0 ADD SSTORE PUSH1 0x20 DUP3 ADD MLOAD DUP2 PUSH1 0x1 ADD PUSH1 0x0 PUSH2 0x100 EXP DUP2 SLOAD DUP2 PUSH20 0xFFFFFFFFFFFFFFFFFFFFFFFFFFFFFFFFFFFFFFFF MUL NOT AND SWAP1 DUP4 PUSH20 0xFFFFFFFFFFFFFFFFFFFFFFFFFFFFFFFFFFFFFFFF AND MUL OR SWAP1 SSTORE POP PUSH1 0x40 DUP3 ADD MLOAD DUP2 PUSH1 0x2 ADD SSTORE SWAP1 POP POP PUSH1 0x1 PUSH1 0x0 DUP2 SWAP1 SSTORE POP PUSH3 0x1F5 PUSH8 0xDE0B6B3A7640000 PUSH3 0x1FB PUSH1 0x20 SHL PUSH1 0x20 SHR JUMP JUMPDEST PUSH3 0x403 JUMP JUMPDEST PUSH3 0x20C CALLER PUSH3 0x2F9 PUSH1 0x20 SHL PUSH1 0x20 SHR JUMP JUMPDEST PUSH3 0x216 JUMPI PUSH1 0x0 DUP1 REVERT JUMPDEST PUSH1 0x40 MLOAD DUP1 PUSH1 0x20 ADD PUSH1 0x40 MSTORE DUP1 DUP3 DUP2 MSTORE POP PUSH1 0x3 PUSH1 0x0 PUSH1 0x1 PUSH1 0x0 SWAP1 SLOAD SWAP1 PUSH2 0x100 EXP SWAP1 DIV PUSH1 0xFF AND PUSH1 0xFF AND PUSH1 0xFF AND DUP2 MSTORE PUSH1 0x20 ADD SWAP1 DUP2 MSTORE PUSH1 0x20 ADD PUSH1 0x0 KECCAK256 PUSH1 0x0 DUP3 ADD MLOAD DUP2 PUSH1 0x0 ADD SSTORE SWAP1 POP POP PUSH1 0x1 DUP1 PUSH1 0x0 DUP3 DUP3 DUP3 SWAP1 SLOAD SWAP1 PUSH2 0x100 EXP SWAP1 DIV PUSH1 0xFF AND PUSH3 0x27A SWAP2 SWAP1 PUSH3 0x37F JUMP JUMPDEST SWAP3 POP PUSH2 0x100 EXP DUP2 SLOAD DUP2 PUSH1 0xFF MUL NOT AND SWAP1 DUP4 PUSH1 0xFF AND MUL OR SWAP1 SSTORE POP PUSH32 0xA0B7F6F22BB4F69ADC52DD16FFE2A964AB8B577BE274247FA9A1547B03CE3E55 PUSH1 0x3 PUSH1 0x0 PUSH1 0x1 PUSH1 0x0 SWAP1 SLOAD SWAP1 PUSH2 0x100 EXP SWAP1 DIV PUSH1 0xFF AND PUSH1 0xFF AND PUSH1 0xFF AND DUP2 MSTORE PUSH1 0x20 ADD SWAP1 DUP2 MSTORE PUSH1 0x20 ADD PUSH1 0x0 KECCAK256 PUSH1 0x0 ADD SLOAD PUSH1 0x40 MLOAD PUSH3 0x2EE SWAP2 SWAP1 PUSH3 0x362 JUMP JUMPDEST PUSH1 0x40 MLOAD DUP1 SWAP2 SUB SWAP1 LOG1 POP JUMP JUMPDEST PUSH1 0x0 PUSH1 0x1 DUP1 SLOAD SWAP1 PUSH2 0x100 EXP SWAP1 DIV PUSH20 0xFFFFFFFFFFFFFFFFFFFFFFFFFFFFFFFFFFFFFFFF AND PUSH20 0xFFFFFFFFFFFFFFFFFFFFFFFFFFFFFFFFFFFFFFFF AND DUP3 PUSH20 0xFFFFFFFFFFFFFFFFFFFFFFFFFFFFFFFFFFFFFFFF AND EQ SWAP1 POP SWAP2 SWAP1 POP JUMP JUMPDEST PUSH3 0x35C DUP2 PUSH3 0x3BD JUMP JUMPDEST DUP3 MSTORE POP POP JUMP JUMPDEST PUSH1 0x0 PUSH1 0x20 DUP3 ADD SWAP1 POP PUSH3 0x379 PUSH1 0x0 DUP4 ADD DUP5 PUSH3 0x351 JUMP JUMPDEST SWAP3 SWAP2 POP POP JUMP JUMPDEST PUSH1 0x0 PUSH3 0x38C DUP3 PUSH3 0x3C7 JUMP JUMPDEST SWAP2 POP PUSH3 0x399 DUP4 PUSH3 0x3C7 JUMP JUMPDEST SWAP3 POP DUP3 PUSH1 0xFF SUB DUP3 GT ISZERO PUSH3 0x3B2 JUMPI PUSH3 0x3B1 PUSH3 0x3D4 JUMP JUMPDEST JUMPDEST DUP3 DUP3 ADD SWAP1 POP SWAP3 SWAP2 POP POP JUMP JUMPDEST PUSH1 0x0 DUP2 SWAP1 POP SWAP2 SWAP1 POP JUMP JUMPDEST PUSH1 0x0 PUSH1 0xFF DUP3 AND SWAP1 POP SWAP2 SWAP1 POP JUMP JUMPDEST PUSH32 0x4E487B7100000000000000000000000000000000000000000000000000000000 PUSH1 0x0 MSTORE PUSH1 0x11 PUSH1 0x4 MSTORE PUSH1 0x24 PUSH1 0x0 REVERT JUMPDEST PUSH2 0x2367 DUP1 PUSH3 0x413 PUSH1 0x0 CODECOPY PUSH1 0x0 RETURN INVALID PUSH1 0x80 PUSH1 0x40 MSTORE PUSH1 0x4 CALLDATASIZE LT PUSH2 0xEC JUMPI PUSH1 0x0 CALLDATALOAD PUSH1 0xE0 SHR DUP1 PUSH4 0x78A32E21 GT PUSH2 0x8A JUMPI DUP1 PUSH4 0xAD39F0A3 GT PUSH2 0x59 JUMPI DUP1 PUSH4 0xAD39F0A3 EQ PUSH2 0x332 JUMPI DUP1 PUSH4 0xAE9283B5 EQ PUSH2 0x35D JUMPI DUP1 PUSH4 0xBD233B91 EQ PUSH2 0x386 JUMPI DUP1 PUSH4 0xF1060006 EQ PUSH2 0x3C3 JUMPI PUSH2 0xFD JUMP JUMPDEST DUP1 PUSH4 0x78A32E21 EQ PUSH2 0x23C JUMPI DUP1 PUSH4 0x906CBF57 EQ PUSH2 0x27B JUMPI DUP1 PUSH4 0x95A078E8 EQ PUSH2 0x2B8 JUMPI DUP1 PUSH4 0x9B0B0AE3 EQ PUSH2 0x2F5 JUMPI PUSH2 0xFD JUMP JUMPDEST DUP1 PUSH4 0x2E8AAB9B GT PUSH2 0xC6 JUMPI DUP1 PUSH4 0x2E8AAB9B EQ PUSH2 0x1A1 JUMPI DUP1 PUSH4 0x33FB9AD8 EQ PUSH2 0x1BD JUMPI DUP1 PUSH4 0x556C9095 EQ PUSH2 0x1FA JUMPI DUP1 PUSH4 0x55CC42B3 EQ PUSH2 0x225 JUMPI PUSH2 0xFD JUMP JUMPDEST DUP1 PUSH4 0x173C05B EQ PUSH2 0x109 JUMPI DUP1 PUSH4 0xE50CEE5 EQ PUSH2 0x125 JUMPI DUP1 PUSH4 0x2A648C89 EQ PUSH2 0x164 JUMPI PUSH2 0xFD JUMP JUMPDEST CALLDATASIZE PUSH2 0xFD JUMPI PUSH2 0xFB CALLER CALLVALUE PUSH2 0x400 JUMP JUMPDEST STOP JUMPDEST PUSH2 0x107 CALLER CALLVALUE PUSH2 0x400 JUMP JUMPDEST STOP JUMPDEST PUSH2 0x123 PUSH1 0x4 DUP1 CALLDATASIZE SUB DUP2 ADD SWAP1 PUSH2 0x11E SWAP2 SWAP1 PUSH2 0x1B4C JUMP JUMPDEST PUSH2 0x4C3 JUMP JUMPDEST STOP JUMPDEST CALLVALUE DUP1 ISZERO PUSH2 0x131 JUMPI PUSH1 0x0 DUP1 REVERT JUMPDEST POP PUSH2 0x14C PUSH1 0x4 DUP1 CALLDATASIZE SUB DUP2 ADD SWAP1 PUSH2 0x147 SWAP2 SWAP1 PUSH2 0x1ADF JUMP JUMPDEST PUSH2 0x773 JUMP JUMPDEST PUSH1 0x40 MLOAD PUSH2 0x15B SWAP4 SWAP3 SWAP2 SWAP1 PUSH2 0x1E4C JUMP JUMPDEST PUSH1 0x40 MLOAD DUP1 SWAP2 SUB SWAP1 RETURN JUMPDEST CALLVALUE DUP1 ISZERO PUSH2 0x170 JUMPI PUSH1 0x0 DUP1 REVERT JUMPDEST POP PUSH2 0x18B PUSH1 0x4 DUP1 CALLDATASIZE SUB DUP2 ADD SWAP1 PUSH2 0x186 SWAP2 SWAP1 PUSH2 0x1B0C JUMP JUMPDEST PUSH2 0x7BD JUMP JUMPDEST PUSH1 0x40 MLOAD PUSH2 0x198 SWAP2 SWAP1 PUSH2 0x1D56 JUMP JUMPDEST PUSH1 0x40 MLOAD DUP1 SWAP2 SUB SWAP1 RETURN JUMPDEST PUSH2 0x1BB PUSH1 0x4 DUP1 CALLDATASIZE SUB DUP2 ADD SWAP1 PUSH2 0x1B6 SWAP2 SWAP1 PUSH2 0x1B79 JUMP JUMPDEST PUSH2 0x7EC JUMP JUMPDEST STOP JUMPDEST CALLVALUE DUP1 ISZERO PUSH2 0x1C9 JUMPI PUSH1 0x0 DUP1 REVERT JUMPDEST POP PUSH2 0x1E4 PUSH1 0x4 DUP1 CALLDATASIZE SUB DUP2 ADD SWAP1 PUSH2 0x1DF SWAP2 SWAP1 PUSH2 0x1ADF JUMP JUMPDEST PUSH2 0x896 JUMP JUMPDEST PUSH1 0x40 MLOAD PUSH2 0x1F1 SWAP2 SWAP1 PUSH2 0x1E31 JUMP JUMPDEST PUSH1 0x40 MLOAD DUP1 SWAP2 SUB SWAP1 RETURN JUMPDEST CALLVALUE DUP1 ISZERO PUSH2 0x206 JUMPI PUSH1 0x0 DUP1 REVERT JUMPDEST POP PUSH2 0x20F PUSH2 0x8DF JUMP JUMPDEST PUSH1 0x40 MLOAD PUSH2 0x21C SWAP2 SWAP1 PUSH2 0x1E31 JUMP JUMPDEST PUSH1 0x40 MLOAD DUP1 SWAP2 SUB SWAP1 RETURN JUMPDEST CALLVALUE DUP1 ISZERO PUSH2 0x231 JUMPI PUSH1 0x0 DUP1 REVERT JUMPDEST POP PUSH2 0x23A PUSH2 0x8E5 JUMP JUMPDEST STOP JUMPDEST CALLVALUE DUP1 ISZERO PUSH2 0x248 JUMPI PUSH1 0x0 DUP1 REVERT JUMPDEST POP PUSH2 0x263 PUSH1 0x4 DUP1 CALLDATASIZE SUB DUP2 ADD SWAP1 PUSH2 0x25E SWAP2 SWAP1 PUSH2 0x1BA6 JUMP JUMPDEST PUSH2 0xB00 JUMP JUMPDEST PUSH1 0x40 MLOAD PUSH2 0x272 SWAP4 SWAP3 SWAP2 SWAP1 PUSH2 0x1E4C JUMP JUMPDEST PUSH1 0x40 MLOAD DUP1 SWAP2 SUB SWAP1 RETURN JUMPDEST CALLVALUE DUP1 ISZERO PUSH2 0x287 JUMPI PUSH1 0x0 DUP1 REVERT JUMPDEST POP PUSH2 0x2A2 PUSH1 0x4 DUP1 CALLDATASIZE SUB DUP2 ADD SWAP1 PUSH2 0x29D SWAP2 SWAP1 PUSH2 0x1B79 JUMP JUMPDEST PUSH2 0xB57 JUMP JUMPDEST PUSH1 0x40 MLOAD PUSH2 0x2AF SWAP2 SWAP1 PUSH2 0x1E31 JUMP JUMPDEST PUSH1 0x40 MLOAD DUP1 SWAP2 SUB SWAP1 RETURN JUMPDEST CALLVALUE DUP1 ISZERO PUSH2 0x2C4 JUMPI PUSH1 0x0 DUP1 REVERT JUMPDEST POP PUSH2 0x2DF PUSH1 0x4 DUP1 CALLDATASIZE SUB DUP2 ADD SWAP1 PUSH2 0x2DA SWAP2 SWAP1 PUSH2 0x1ADF JUMP JUMPDEST PUSH2 0xB75 JUMP JUMPDEST PUSH1 0x40 MLOAD PUSH2 0x2EC SWAP2 SWAP1 PUSH2 0x1D56 JUMP JUMPDEST PUSH1 0x40 MLOAD DUP1 SWAP2 SUB SWAP1 RETURN JUMPDEST CALLVALUE DUP1 ISZERO PUSH2 0x301 JUMPI PUSH1 0x0 DUP1 REVERT JUMPDEST POP PUSH2 0x31C PUSH1 0x4 DUP1 CALLDATASIZE SUB DUP2 ADD SWAP1 PUSH2 0x317 SWAP2 SWAP1 PUSH2 0x1B79 JUMP JUMPDEST PUSH2 0xBCD JUMP JUMPDEST PUSH1 0x40 MLOAD PUSH2 0x329 SWAP2 SWAP1 PUSH2 0x1E31 JUMP JUMPDEST PUSH1 0x40 MLOAD DUP1 SWAP2 SUB SWAP1 RETURN JUMPDEST CALLVALUE DUP1 ISZERO PUSH2 0x33E JUMPI PUSH1 0x0 DUP1 REVERT JUMPDEST POP PUSH2 0x347 PUSH2 0xBE5 JUMP JUMPDEST PUSH1 0x40 MLOAD PUSH2 0x354 SWAP2 SWAP1 PUSH2 0x1EFF JUMP JUMPDEST PUSH1 0x40 MLOAD DUP1 SWAP2 SUB SWAP1 RETURN JUMPDEST CALLVALUE DUP1 ISZERO PUSH2 0x369 JUMPI PUSH1 0x0 DUP1 REVERT JUMPDEST POP PUSH2 0x384 PUSH1 0x4 DUP1 CALLDATASIZE SUB DUP2 ADD SWAP1 PUSH2 0x37F SWAP2 SWAP1 PUSH2 0x1B4C JUMP JUMPDEST PUSH2 0xBF8 JUMP JUMPDEST STOP JUMPDEST CALLVALUE DUP1 ISZERO PUSH2 0x392 JUMPI PUSH1 0x0 DUP1 REVERT JUMPDEST POP PUSH2 0x3AD PUSH1 0x4 DUP1 CALLDATASIZE SUB DUP2 ADD SWAP1 PUSH2 0x3A8 SWAP2 SWAP1 PUSH2 0x1B4C JUMP JUMPDEST PUSH2 0xCE9 JUMP JUMPDEST PUSH1 0x40 MLOAD PUSH2 0x3BA SWAP2 SWAP1 PUSH2 0x1D3B JUMP JUMPDEST PUSH1 0x40 MLOAD DUP1 SWAP2 SUB SWAP1 RETURN JUMPDEST CALLVALUE DUP1 ISZERO PUSH2 0x3CF JUMPI PUSH1 0x0 DUP1 REVERT JUMPDEST POP PUSH2 0x3EA PUSH1 0x4 DUP1 CALLDATASIZE SUB DUP2 ADD SWAP1 PUSH2 0x3E5 SWAP2 SWAP1 PUSH2 0x1B0C JUMP JUMPDEST PUSH2 0xD1C JUMP JUMPDEST PUSH1 0x40 MLOAD PUSH2 0x3F7 SWAP2 SWAP1 PUSH2 0x1E31 JUMP JUMPDEST PUSH1 0x40 MLOAD DUP1 SWAP2 SUB SWAP1 RETURN JUMPDEST PUSH1 0x0 DUP1 PUSH1 0x0 JUMPDEST PUSH1 0x1 DUP1 PUSH1 0x0 SWAP1 SLOAD SWAP1 PUSH2 0x100 EXP SWAP1 DIV PUSH1 0xFF AND PUSH2 0x421 SWAP2 SWAP1 PUSH2 0x1F8C JUMP JUMPDEST PUSH1 0xFF AND DUP2 PUSH1 0xFF AND LT ISZERO PUSH2 0x471 JUMPI CALLVALUE PUSH1 0x3 PUSH1 0x0 DUP4 PUSH1 0xFF AND PUSH1 0xFF AND DUP2 MSTORE PUSH1 0x20 ADD SWAP1 DUP2 MSTORE PUSH1 0x20 ADD PUSH1 0x0 KECCAK256 PUSH1 0x0 ADD SLOAD EQ ISZERO PUSH2 0x45E JUMPI PUSH1 0x1 SWAP3 POP DUP1 SWAP2 POP PUSH2 0x471 JUMP JUMPDEST DUP1 DUP1 PUSH2 0x469 SWAP1 PUSH2 0x20E9 JUMP JUMPDEST SWAP2 POP POP PUSH2 0x406 JUMP JUMPDEST POP DUP2 PUSH2 0x4B2 JUMPI PUSH1 0x40 MLOAD PUSH32 0x8C379A000000000000000000000000000000000000000000000000000000000 DUP2 MSTORE PUSH1 0x4 ADD PUSH2 0x4A9 SWAP1 PUSH2 0x1D91 JUMP JUMPDEST PUSH1 0x40 MLOAD DUP1 SWAP2 SUB SWAP1 REVERT JUMPDEST PUSH2 0x4BD DUP2 DUP6 DUP6 PUSH2 0xD41 JUMP JUMPDEST POP POP POP POP JUMP JUMPDEST PUSH1 0x0 DUP1 CALLER SWAP1 POP DUP1 EXTCODESIZE SWAP2 POP PUSH1 0x0 DUP3 PUSH4 0xFFFFFFFF AND GT ISZERO PUSH2 0x517 JUMPI PUSH1 0x40 MLOAD PUSH32 0x8C379A000000000000000000000000000000000000000000000000000000000 DUP2 MSTORE PUSH1 0x4 ADD PUSH2 0x50E SWAP1 PUSH2 0x1E11 JUMP JUMPDEST PUSH1 0x40 MLOAD DUP1 SWAP2 SUB SWAP1 REVERT JUMPDEST PUSH1 0x0 PUSH20 0xFFFFFFFFFFFFFFFFFFFFFFFFFFFFFFFFFFFFFFFF AND PUSH1 0x5 PUSH1 0x0 CALLER PUSH20 0xFFFFFFFFFFFFFFFFFFFFFFFFFFFFFFFFFFFFFFFF AND PUSH20 0xFFFFFFFFFFFFFFFFFFFFFFFFFFFFFFFFFFFFFFFF AND DUP2 MSTORE PUSH1 0x20 ADD SWAP1 DUP2 MSTORE PUSH1 0x20 ADD PUSH1 0x0 KECCAK256 PUSH1 0x1 ADD PUSH1 0x0 SWAP1 SLOAD SWAP1 PUSH2 0x100 EXP SWAP1 DIV PUSH20 0xFFFFFFFFFFFFFFFFFFFFFFFFFFFFFFFFFFFFFFFF AND PUSH20 0xFFFFFFFFFFFFFFFFFFFFFFFFFFFFFFFFFFFFFFFF AND EQ PUSH2 0x5E8 JUMPI PUSH1 0x40 MLOAD PUSH32 0x8C379A000000000000000000000000000000000000000000000000000000000 DUP2 MSTORE PUSH1 0x4 ADD PUSH2 0x5DF SWAP1 PUSH2 0x1DB1 JUMP JUMPDEST PUSH1 0x40 MLOAD DUP1 SWAP2 SUB SWAP1 REVERT JUMPDEST PUSH8 0xDE0B6B3A7640000 CALLVALUE EQ PUSH2 0x632 JUMPI PUSH1 0x40 MLOAD PUSH32 0x8C379A000000000000000000000000000000000000000000000000000000000 DUP2 MSTORE PUSH1 0x4 ADD PUSH2 0x629 SWAP1 PUSH2 0x1DF1 JUMP JUMPDEST PUSH1 0x40 MLOAD DUP1 SWAP2 SUB SWAP1 REVERT JUMPDEST PUSH1 0x40 MLOAD DUP1 PUSH1 0x60 ADD PUSH1 0x40 MSTORE DUP1 PUSH1 0x0 SLOAD DUP2 MSTORE PUSH1 0x20 ADD CALLER PUSH20 0xFFFFFFFFFFFFFFFFFFFFFFFFFFFFFFFFFFFFFFFF AND DUP2 MSTORE PUSH1 0x20 ADD DUP5 DUP2 MSTORE POP PUSH1 0x5 PUSH1 0x0 CALLER PUSH20 0xFFFFFFFFFFFFFFFFFFFFFFFFFFFFFFFFFFFFFFFF AND PUSH20 0xFFFFFFFFFFFFFFFFFFFFFFFFFFFFFFFFFFFFFFFF AND DUP2 MSTORE PUSH1 0x20 ADD SWAP1 DUP2 MSTORE PUSH1 0x20 ADD PUSH1 0x0 KECCAK256 PUSH1 0x0 DUP3 ADD MLOAD DUP2 PUSH1 0x0 ADD SSTORE PUSH1 0x20 DUP3 ADD MLOAD DUP2 PUSH1 0x1 ADD PUSH1 0x0 PUSH2 0x100 EXP DUP2 SLOAD DUP2 PUSH20 0xFFFFFFFFFFFFFFFFFFFFFFFFFFFFFFFFFFFFFFFF MUL NOT AND SWAP1 DUP4 PUSH20 0xFFFFFFFFFFFFFFFFFFFFFFFFFFFFFFFFFFFFFFFF AND MUL OR SWAP1 SSTORE POP PUSH1 0x40 DUP3 ADD MLOAD DUP2 PUSH1 0x2 ADD SSTORE SWAP1 POP POP CALLER PUSH1 0x4 PUSH1 0x0 DUP1 SLOAD DUP2 MSTORE PUSH1 0x20 ADD SWAP1 DUP2 MSTORE PUSH1 0x20 ADD PUSH1 0x0 KECCAK256 PUSH1 0x0 PUSH2 0x100 EXP DUP2 SLOAD DUP2 PUSH20 0xFFFFFFFFFFFFFFFFFFFFFFFFFFFFFFFFFFFFFFFF MUL NOT AND SWAP1 DUP4 PUSH20 0xFFFFFFFFFFFFFFFFFFFFFFFFFFFFFFFFFFFFFFFF AND MUL OR SWAP1 SSTORE POP PUSH1 0x1 PUSH1 0x0 DUP1 DUP3 DUP3 SLOAD PUSH2 0x767 SWAP2 SWAP1 PUSH2 0x1F36 JUMP JUMPDEST SWAP3 POP POP DUP2 SWAP1 SSTORE POP POP POP POP JUMP JUMPDEST PUSH1 0x5 PUSH1 0x20 MSTORE DUP1 PUSH1 0x0 MSTORE PUSH1 0x40 PUSH1 0x0 KECCAK256 PUSH1 0x0 SWAP2 POP SWAP1 POP DUP1 PUSH1 0x0 ADD SLOAD SWAP1 DUP1 PUSH1 0x1 ADD PUSH1 0x0 SWAP1 SLOAD SWAP1 PUSH2 0x100 EXP SWAP1 DIV PUSH20 0xFFFFFFFFFFFFFFFFFFFFFFFFFFFFFFFFFFFFFFFF AND SWAP1 DUP1 PUSH1 0x2 ADD SLOAD SWAP1 POP DUP4 JUMP JUMPDEST PUSH1 0x9 PUSH1 0x20 MSTORE DUP2 PUSH1 0x0 MSTORE PUSH1 0x40 PUSH1 0x0 KECCAK256 PUSH1 0x20 MSTORE DUP1 PUSH1 0x0 MSTORE PUSH1 0x40 PUSH1 0x0 KECCAK256 PUSH1 0x0 SWAP2 POP SWAP2 POP SWAP1 SLOAD SWAP1 PUSH2 0x100 EXP SWAP1 DIV PUSH1 0xFF AND DUP2 JUMP JUMPDEST PUSH1 0x0 PUSH20 0xFFFFFFFFFFFFFFFFFFFFFFFFFFFFFFFFFFFFFFFF AND PUSH1 0x5 PUSH1 0x0 CALLER PUSH20 0xFFFFFFFFFFFFFFFFFFFFFFFFFFFFFFFFFFFFFFFF AND PUSH20 0xFFFFFFFFFFFFFFFFFFFFFFFFFFFFFFFFFFFFFFFF AND DUP2 MSTORE PUSH1 0x20 ADD SWAP1 DUP2 MSTORE PUSH1 0x20 ADD PUSH1 0x0 KECCAK256 PUSH1 0x1 ADD PUSH1 0x0 SWAP1 SLOAD SWAP1 PUSH2 0x100 EXP SWAP1 DIV PUSH20 0xFFFFFFFFFFFFFFFFFFFFFFFFFFFFFFFFFFFFFFFF AND PUSH20 0xFFFFFFFFFFFFFFFFFFFFFFFFFFFFFFFFFFFFFFFF AND EQ ISZERO PUSH2 0x888 JUMPI PUSH1 0x0 DUP1 REVERT JUMPDEST PUSH2 0x893 DUP2 CALLER CALLVALUE PUSH2 0xD41 JUMP JUMPDEST POP JUMP JUMPDEST PUSH1 0x0 PUSH1 0x2 PUSH1 0x0 DUP4 PUSH20 0xFFFFFFFFFFFFFFFFFFFFFFFFFFFFFFFFFFFFFFFF AND PUSH20 0xFFFFFFFFFFFFFFFFFFFFFFFFFFFFFFFFFFFFFFFF AND DUP2 MSTORE PUSH1 0x20 ADD SWAP1 DUP2 MSTORE PUSH1 0x20 ADD PUSH1 0x0 KECCAK256 SLOAD SWAP1 POP SWAP2 SWAP1 POP JUMP JUMPDEST PUSH1 0x0 SLOAD DUP2 JUMP JUMPDEST PUSH1 0x0 PUSH20 0xFFFFFFFFFFFFFFFFFFFFFFFFFFFFFFFFFFFFFFFF AND PUSH1 0x5 PUSH1 0x0 CALLER PUSH20 0xFFFFFFFFFFFFFFFFFFFFFFFFFFFFFFFFFFFFFFFF AND PUSH20 0xFFFFFFFFFFFFFFFFFFFFFFFFFFFFFFFFFFFFFFFF AND DUP2 MSTORE PUSH1 0x20 ADD SWAP1 DUP2 MSTORE PUSH1 0x20 ADD PUSH1 0x0 KECCAK256 PUSH1 0x1 ADD PUSH1 0x0 SWAP1 SLOAD SWAP1 PUSH2 0x100 EXP SWAP1 DIV PUSH20 0xFFFFFFFFFFFFFFFFFFFFFFFFFFFFFFFFFFFFFFFF AND PUSH20 0xFFFFFFFFFFFFFFFFFFFFFFFFFFFFFFFFFFFFFFFF AND EQ ISZERO PUSH2 0x981 JUMPI PUSH1 0x0 DUP1 REVERT JUMPDEST PUSH1 0x0 PUSH1 0x2 PUSH1 0x0 CALLER PUSH20 0xFFFFFFFFFFFFFFFFFFFFFFFFFFFFFFFFFFFFFFFF AND PUSH20 0xFFFFFFFFFFFFFFFFFFFFFFFFFFFFFFFFFFFFFFFF AND DUP2 MSTORE PUSH1 0x20 ADD SWAP1 DUP2 MSTORE PUSH1 0x20 ADD PUSH1 0x0 KECCAK256 SLOAD GT PUSH2 0xA03 JUMPI PUSH1 0x40 MLOAD PUSH32 0x8C379A000000000000000000000000000000000000000000000000000000000 DUP2 MSTORE PUSH1 0x4 ADD PUSH2 0x9FA SWAP1 PUSH2 0x1D71 JUMP JUMPDEST PUSH1 0x40 MLOAD DUP1 SWAP2 SUB SWAP1 REVERT JUMPDEST PUSH1 0x0 CALLER PUSH20 0xFFFFFFFFFFFFFFFFFFFFFFFFFFFFFFFFFFFFFFFF AND PUSH1 0x2 PUSH1 0x0 CALLER PUSH20 0xFFFFFFFFFFFFFFFFFFFFFFFFFFFFFFFFFFFFFFFF AND PUSH20 0xFFFFFFFFFFFFFFFFFFFFFFFFFFFFFFFFFFFFFFFF AND DUP2 MSTORE PUSH1 0x20 ADD SWAP1 DUP2 MSTORE PUSH1 0x20 ADD PUSH1 0x0 KECCAK256 SLOAD PUSH1 0x40 MLOAD PUSH2 0xA68 SWAP1 PUSH2 0x1D26 JUMP JUMPDEST PUSH1 0x0 PUSH1 0x40 MLOAD DUP1 DUP4 SUB DUP2 DUP6 DUP8 GAS CALL SWAP3 POP POP POP RETURNDATASIZE DUP1 PUSH1 0x0 DUP2 EQ PUSH2 0xAA5 JUMPI PUSH1 0x40 MLOAD SWAP2 POP PUSH1 0x1F NOT PUSH1 0x3F RETURNDATASIZE ADD AND DUP3 ADD PUSH1 0x40 MSTORE RETURNDATASIZE DUP3 MSTORE RETURNDATASIZE PUSH1 0x0 PUSH1 0x20 DUP5 ADD RETURNDATACOPY PUSH2 0xAAA JUMP JUMPDEST PUSH1 0x60 SWAP2 POP JUMPDEST POP POP SWAP1 POP DUP1 PUSH2 0xAB8 JUMPI PUSH1 0x0 DUP1 REVERT JUMPDEST PUSH1 0x0 PUSH1 0x2 PUSH1 0x0 CALLER PUSH20 0xFFFFFFFFFFFFFFFFFFFFFFFFFFFFFFFFFFFFFFFF AND PUSH20 0xFFFFFFFFFFFFFFFFFFFFFFFFFFFFFFFFFFFFFFFF AND DUP2 MSTORE PUSH1 0x20 ADD SWAP1 DUP2 MSTORE PUSH1 0x20 ADD PUSH1 0x0 KECCAK256 DUP2 SWAP1 SSTORE POP POP JUMP JUMPDEST PUSH1 0x7 PUSH1 0x20 MSTORE DUP2 PUSH1 0x0 MSTORE PUSH1 0x40 PUSH1 0x0 KECCAK256 PUSH1 0x20 MSTORE DUP1 PUSH1 0x0 MSTORE PUSH1 0x40 PUSH1 0x0 KECCAK256 PUSH1 0x0 SWAP2 POP SWAP2 POP POP DUP1 PUSH1 0x0 ADD SLOAD SWAP1 DUP1 PUSH1 0x1 ADD PUSH1 0x0 SWAP1 SLOAD SWAP1 PUSH2 0x100 EXP SWAP1 DIV PUSH20 0xFFFFFFFFFFFFFFFFFFFFFFFFFFFFFFFFFFFFFFFF AND SWAP1 DUP1 PUSH1 0x2 ADD SLOAD SWAP1 POP DUP4 JUMP JUMPDEST PUSH1 0x3 PUSH1 0x20 MSTORE DUP1 PUSH1 0x0 MSTORE PUSH1 0x40 PUSH1 0x0 KECCAK256 PUSH1 0x0 SWAP2 POP SWAP1 POP DUP1 PUSH1 0x0 ADD SLOAD SWAP1 POP DUP2 JUMP JUMPDEST PUSH1 0x0 PUSH1 0x1 DUP1 SLOAD SWAP1 PUSH2 0x100 EXP SWAP1 DIV PUSH20 0xFFFFFFFFFFFFFFFFFFFFFFFFFFFFFFFFFFFFFFFF AND PUSH20 0xFFFFFFFFFFFFFFFFFFFFFFFFFFFFFFFFFFFFFFFF AND DUP3 PUSH20 0xFFFFFFFFFFFFFFFFFFFFFFFFFFFFFFFFFFFFFFFF AND EQ SWAP1 POP SWAP2 SWAP1 POP JUMP JUMPDEST PUSH1 0x6 PUSH1 0x20 MSTORE DUP1 PUSH1 0x0 MSTORE PUSH1 0x40 PUSH1 0x0 KECCAK256 PUSH1 0x0 SWAP2 POP SWAP1 POP SLOAD DUP2 JUMP JUMPDEST PUSH1 0x1 PUSH1 0x0 SWAP1 SLOAD SWAP1 PUSH2 0x100 EXP SWAP1 DIV PUSH1 0xFF AND DUP2 JUMP JUMPDEST PUSH2 0xC01 CALLER PUSH2 0xB75 JUMP JUMPDEST PUSH2 0xC0A JUMPI PUSH1 0x0 DUP1 REVERT JUMPDEST PUSH1 0x40 MLOAD DUP1 PUSH1 0x20 ADD PUSH1 0x40 MSTORE DUP1 DUP3 DUP2 MSTORE POP PUSH1 0x3 PUSH1 0x0 PUSH1 0x1 PUSH1 0x0 SWAP1 SLOAD SWAP1 PUSH2 0x100 EXP SWAP1 DIV PUSH1 0xFF AND PUSH1 0xFF AND PUSH1 0xFF AND DUP2 MSTORE PUSH1 0x20 ADD SWAP1 DUP2 MSTORE PUSH1 0x20 ADD PUSH1 0x0 KECCAK256 PUSH1 0x0 DUP3 ADD MLOAD DUP2 PUSH1 0x0 ADD SSTORE SWAP1 POP POP PUSH1 0x1 DUP1 PUSH1 0x0 DUP3 DUP3 DUP3 SWAP1 SLOAD SWAP1 PUSH2 0x100 EXP SWAP1 DIV PUSH1 0xFF AND PUSH2 0xC6C SWAP2 SWAP1 PUSH2 0x1F8C JUMP JUMPDEST SWAP3 POP PUSH2 0x100 EXP DUP2 SLOAD DUP2 PUSH1 0xFF MUL NOT AND SWAP1 DUP4 PUSH1 0xFF AND MUL OR SWAP1 SSTORE POP PUSH32 0xA0B7F6F22BB4F69ADC52DD16FFE2A964AB8B577BE274247FA9A1547B03CE3E55 PUSH1 0x3 PUSH1 0x0 PUSH1 0x1 PUSH1 0x0 SWAP1 SLOAD SWAP1 PUSH2 0x100 EXP SWAP1 DIV PUSH1 0xFF AND PUSH1 0xFF AND PUSH1 0xFF AND DUP2 MSTORE PUSH1 0x20 ADD SWAP1 DUP2 MSTORE PUSH1 0x20 ADD PUSH1 0x0 KECCAK256 PUSH1 0x0 ADD SLOAD PUSH1 0x40 MLOAD PUSH2 0xCDE SWAP2 SWAP1 PUSH2 0x1E31 JUMP JUMPDEST PUSH1 0x40 MLOAD DUP1 SWAP2 SUB SWAP1 LOG1 POP JUMP JUMPDEST PUSH1 0x4 PUSH1 0x20 MSTORE DUP1 PUSH1 0x0 MSTORE PUSH1 0x40 PUSH1 0x0 KECCAK256 PUSH1 0x0 SWAP2 POP SLOAD SWAP1 PUSH2 0x100 EXP SWAP1 DIV PUSH20 0xFFFFFFFFFFFFFFFFFFFFFFFFFFFFFFFFFFFFFFFF AND DUP2 JUMP JUMPDEST PUSH1 0x8 PUSH1 0x20 MSTORE DUP2 PUSH1 0x0 MSTORE PUSH1 0x40 PUSH1 0x0 KECCAK256 PUSH1 0x20 MSTORE DUP1 PUSH1 0x0 MSTORE PUSH1 0x40 PUSH1 0x0 KECCAK256 PUSH1 0x0 SWAP2 POP SWAP2 POP POP SLOAD DUP2 JUMP JUMPDEST PUSH1 0x3 PUSH1 0x0 DUP5 PUSH1 0xFF AND PUSH1 0xFF AND DUP2 MSTORE PUSH1 0x20 ADD SWAP1 DUP2 MSTORE PUSH1 0x20 ADD PUSH1 0x0 KECCAK256 PUSH1 0x0 ADD SLOAD DUP2 LT ISZERO PUSH2 0xDA0 JUMPI PUSH1 0x40 MLOAD PUSH32 0x8C379A000000000000000000000000000000000000000000000000000000000 DUP2 MSTORE PUSH1 0x4 ADD PUSH2 0xD97 SWAP1 PUSH2 0x1DD1 JUMP JUMPDEST PUSH1 0x40 MLOAD DUP1 SWAP2 SUB SWAP1 REVERT JUMPDEST PUSH1 0x5 PUSH1 0x0 DUP4 PUSH20 0xFFFFFFFFFFFFFFFFFFFFFFFFFFFFFFFFFFFFFFFF AND PUSH20 0xFFFFFFFFFFFFFFFFFFFFFFFFFFFFFFFFFFFFFFFF AND DUP2 MSTORE PUSH1 0x20 ADD SWAP1 DUP2 MSTORE PUSH1 0x20 ADD PUSH1 0x0 KECCAK256 PUSH1 0x7 PUSH1 0x0 DUP6 PUSH1 0xFF AND PUSH1 0xFF AND DUP2 MSTORE PUSH1 0x20 ADD SWAP1 DUP2 MSTORE PUSH1 0x20 ADD PUSH1 0x0 KECCAK256 PUSH1 0x0 PUSH1 0x6 PUSH1 0x0 DUP8 PUSH1 0xFF AND PUSH1 0xFF AND DUP2 MSTORE PUSH1 0x20 ADD SWAP1 DUP2 MSTORE PUSH1 0x20 ADD PUSH1 0x0 KECCAK256 SLOAD DUP2 MSTORE PUSH1 0x20 ADD SWAP1 DUP2 MSTORE PUSH1 0x20 ADD PUSH1 0x0 KECCAK256 PUSH1 0x0 DUP3 ADD SLOAD DUP2 PUSH1 0x0 ADD SSTORE PUSH1 0x1 DUP3 ADD PUSH1 0x0 SWAP1 SLOAD SWAP1 PUSH2 0x100 EXP SWAP1 DIV PUSH20 0xFFFFFFFFFFFFFFFFFFFFFFFFFFFFFFFFFFFFFFFF AND DUP2 PUSH1 0x1 ADD PUSH1 0x0 PUSH2 0x100 EXP DUP2 SLOAD DUP2 PUSH20 0xFFFFFFFFFFFFFFFFFFFFFFFFFFFFFFFFFFFFFFFF MUL NOT AND SWAP1 DUP4 PUSH20 0xFFFFFFFFFFFFFFFFFFFFFFFFFFFFFFFFFFFFFFFF AND MUL OR SWAP1 SSTORE POP PUSH1 0x2 DUP3 ADD SLOAD DUP2 PUSH1 0x2 ADD SSTORE SWAP1 POP POP PUSH1 0x1 PUSH1 0x9 PUSH1 0x0 DUP5 PUSH20 0xFFFFFFFFFFFFFFFFFFFFFFFFFFFFFFFFFFFFFFFF AND PUSH20 0xFFFFFFFFFFFFFFFFFFFFFFFFFFFFFFFFFFFFFFFF AND DUP2 MSTORE PUSH1 0x20 ADD SWAP1 DUP2 MSTORE PUSH1 0x20 ADD PUSH1 0x0 KECCAK256 PUSH1 0x0 DUP6 PUSH1 0xFF AND PUSH1 0xFF AND DUP2 MSTORE PUSH1 0x20 ADD SWAP1 DUP2 MSTORE PUSH1 0x20 ADD PUSH1 0x0 KECCAK256 PUSH1 0x0 PUSH2 0x100 EXP DUP2 SLOAD DUP2 PUSH1 0xFF MUL NOT AND SWAP1 DUP4 ISZERO ISZERO MUL OR SWAP1 SSTORE POP PUSH1 0x1 PUSH1 0x6 PUSH1 0x0 DUP6 PUSH1 0xFF AND PUSH1 0xFF AND DUP2 MSTORE PUSH1 0x20 ADD SWAP1 DUP2 MSTORE PUSH1 0x20 ADD PUSH1 0x0 KECCAK256 PUSH1 0x0 DUP3 DUP3 SLOAD PUSH2 0xF39 SWAP2 SWAP1 PUSH2 0x1F36 JUMP JUMPDEST SWAP3 POP POP DUP2 SWAP1 SSTORE POP PUSH1 0x3 PUSH1 0x6 PUSH1 0x0 DUP6 PUSH1 0xFF AND PUSH1 0xFF AND DUP2 MSTORE PUSH1 0x20 ADD SWAP1 DUP2 MSTORE PUSH1 0x20 ADD PUSH1 0x0 KECCAK256 SLOAD LT PUSH2 0x1A6A JUMPI PUSH1 0x0 PUSH2 0xF85 PUSH1 0x6 PUSH1 0x0 DUP7 PUSH1 0xFF AND PUSH1 0xFF AND DUP2 MSTORE PUSH1 0x20 ADD SWAP1 DUP2 MSTORE PUSH1 0x20 ADD PUSH1 0x0 KECCAK256 SLOAD PUSH2 0x1A6F JUMP JUMPDEST SWAP1 POP JUMPDEST PUSH1 0x0 DUP2 EQ PUSH2 0x1A68 JUMPI PUSH1 0x0 PUSH1 0x7 PUSH1 0x0 DUP7 PUSH1 0xFF AND PUSH1 0xFF AND DUP2 MSTORE PUSH1 0x20 ADD SWAP1 DUP2 MSTORE PUSH1 0x20 ADD PUSH1 0x0 KECCAK256 PUSH1 0x0 PUSH1 0x1 DUP5 PUSH2 0xFBA SWAP2 SWAP1 PUSH2 0x204E JUMP JUMPDEST DUP2 MSTORE PUSH1 0x20 ADD SWAP1 DUP2 MSTORE PUSH1 0x20 ADD PUSH1 0x0 KECCAK256 PUSH1 0x1 ADD PUSH1 0x0 SWAP1 SLOAD SWAP1 PUSH2 0x100 EXP SWAP1 DIV PUSH20 0xFFFFFFFFFFFFFFFFFFFFFFFFFFFFFFFFFFFFFFFF AND SWAP1 POP PUSH1 0x1 PUSH1 0x8 PUSH1 0x0 DUP4 PUSH20 0xFFFFFFFFFFFFFFFFFFFFFFFFFFFFFFFFFFFFFFFF AND PUSH20 0xFFFFFFFFFFFFFFFFFFFFFFFFFFFFFFFFFFFFFFFF AND DUP2 MSTORE PUSH1 0x20 ADD SWAP1 DUP2 MSTORE PUSH1 0x20 ADD PUSH1 0x0 KECCAK256 PUSH1 0x0 DUP8 PUSH1 0xFF AND PUSH1 0xFF AND DUP2 MSTORE PUSH1 0x20 ADD SWAP1 DUP2 MSTORE PUSH1 0x20 ADD PUSH1 0x0 KECCAK256 SLOAD GT ISZERO DUP1 PUSH2 0x10C0 JUMPI POP PUSH1 0x9 PUSH1 0x0 DUP3 PUSH20 0xFFFFFFFFFFFFFFFFFFFFFFFFFFFFFFFFFFFFFFFF AND PUSH20 0xFFFFFFFFFFFFFFFFFFFFFFFFFFFFFFFFFFFFFFFF AND DUP2 MSTORE PUSH1 0x20 ADD SWAP1 DUP2 MSTORE PUSH1 0x20 ADD PUSH1 0x0 KECCAK256 PUSH1 0x0 PUSH1 0x1 DUP8 PUSH2 0x109D SWAP2 SWAP1 PUSH2 0x1F8C JUMP JUMPDEST PUSH1 0xFF AND PUSH1 0xFF AND DUP2 MSTORE PUSH1 0x20 ADD SWAP1 DUP2 MSTORE PUSH1 0x20 ADD PUSH1 0x0 KECCAK256 PUSH1 0x0 SWAP1 SLOAD SWAP1 PUSH2 0x100 EXP SWAP1 DIV PUSH1 0xFF AND JUMPDEST ISZERO PUSH2 0x1A62 JUMPI PUSH1 0x64 PUSH1 0x4A PUSH1 0x3 PUSH1 0x0 DUP9 PUSH1 0xFF AND PUSH1 0xFF AND DUP2 MSTORE PUSH1 0x20 ADD SWAP1 DUP2 MSTORE PUSH1 0x20 ADD PUSH1 0x0 KECCAK256 PUSH1 0x0 ADD SLOAD PUSH2 0x10F0 SWAP2 SWAP1 PUSH2 0x1FF4 JUMP JUMPDEST PUSH2 0x10FA SWAP2 SWAP1 PUSH2 0x1FC3 JUMP JUMPDEST PUSH1 0x2 PUSH1 0x0 DUP4 PUSH20 0xFFFFFFFFFFFFFFFFFFFFFFFFFFFFFFFFFFFFFFFF AND PUSH20 0xFFFFFFFFFFFFFFFFFFFFFFFFFFFFFFFFFFFFFFFF AND DUP2 MSTORE PUSH1 0x20 ADD SWAP1 DUP2 MSTORE PUSH1 0x20 ADD PUSH1 0x0 KECCAK256 PUSH1 0x0 DUP3 DUP3 SLOAD PUSH2 0x1148 SWAP2 SWAP1 PUSH2 0x1F36 JUMP JUMPDEST SWAP3 POP POP DUP2 SWAP1 SSTORE POP PUSH1 0x1 PUSH1 0x8 PUSH1 0x0 DUP4 PUSH20 0xFFFFFFFFFFFFFFFFFFFFFFFFFFFFFFFFFFFFFFFF AND PUSH20 0xFFFFFFFFFFFFFFFFFFFFFFFFFFFFFFFFFFFFFFFF AND DUP2 MSTORE PUSH1 0x20 ADD SWAP1 DUP2 MSTORE PUSH1 0x20 ADD PUSH1 0x0 KECCAK256 PUSH1 0x0 DUP8 PUSH1 0xFF AND PUSH1 0xFF AND DUP2 MSTORE PUSH1 0x20 ADD SWAP1 DUP2 MSTORE PUSH1 0x20 ADD PUSH1 0x0 KECCAK256 PUSH1 0x0 DUP3 DUP3 SLOAD PUSH2 0x11B6 SWAP2 SWAP1 PUSH2 0x1F36 JUMP JUMPDEST SWAP3 POP POP DUP2 SWAP1 SSTORE POP PUSH32 0x99AF5599BF20C9414934FF2EB4264F5AC1A42FE0E5EC331366CF59ED0641C1BD PUSH1 0x3 PUSH1 0x0 DUP8 PUSH1 0xFF AND PUSH1 0xFF AND DUP2 MSTORE PUSH1 0x20 ADD SWAP1 DUP2 MSTORE PUSH1 0x20 ADD PUSH1 0x0 KECCAK256 PUSH1 0x0 ADD SLOAD DUP3 PUSH1 0x1 PUSH1 0x40 MLOAD PUSH2 0x120D SWAP4 SWAP3 SWAP2 SWAP1 PUSH2 0x1E83 JUMP JUMPDEST PUSH1 0x40 MLOAD DUP1 SWAP2 SUB SWAP1 LOG1 PUSH1 0x0 PUSH1 0x7 PUSH1 0x0 DUP8 PUSH1 0xFF AND PUSH1 0xFF AND DUP2 MSTORE PUSH1 0x20 ADD SWAP1 DUP2 MSTORE PUSH1 0x20 ADD PUSH1 0x0 KECCAK256 PUSH1 0x0 PUSH1 0x1 DUP6 PUSH2 0x123F SWAP2 SWAP1 PUSH2 0x204E JUMP JUMPDEST DUP2 MSTORE PUSH1 0x20 ADD SWAP1 DUP2 MSTORE PUSH1 0x20 ADD PUSH1 0x0 KECCAK256 PUSH1 0x0 ADD SLOAD SWAP1 POP PUSH1 0x0 PUSH1 0x7 PUSH1 0x0 DUP9 PUSH1 0xFF AND PUSH1 0xFF AND DUP2 MSTORE PUSH1 0x20 ADD SWAP1 DUP2 MSTORE PUSH1 0x20 ADD PUSH1 0x0 KECCAK256 PUSH1 0x0 PUSH1 0x1 DUP7 PUSH2 0x127D SWAP2 SWAP1 PUSH2 0x204E JUMP JUMPDEST DUP2 MSTORE PUSH1 0x20 ADD SWAP1 DUP2 MSTORE PUSH1 0x20 ADD PUSH1 0x0 KECCAK256 PUSH1 0x2 ADD SLOAD SWAP1 POP PUSH1 0x0 PUSH1 0x64 PUSH1 0xA PUSH1 0x3 PUSH1 0x0 DUP12 PUSH1 0xFF AND PUSH1 0xFF AND DUP2 MSTORE PUSH1 0x20 ADD SWAP1 DUP2 MSTORE PUSH1 0x20 ADD PUSH1 0x0 KECCAK256 PUSH1 0x0 ADD SLOAD PUSH2 0x12BE SWAP2 SWAP1 PUSH2 0x1FF4 JUMP JUMPDEST PUSH2 0x12C8 SWAP2 SWAP1 PUSH2 0x1FC3 JUMP JUMPDEST SWAP1 POP DUP1 PUSH1 0x2 PUSH1 0x0 PUSH1 0x4 PUSH1 0x0 DUP7 DUP2 MSTORE PUSH1 0x20 ADD SWAP1 DUP2 MSTORE PUSH1 0x20 ADD PUSH1 0x0 KECCAK256 PUSH1 0x0 SWAP1 SLOAD SWAP1 PUSH2 0x100 EXP SWAP1 DIV PUSH20 0xFFFFFFFFFFFFFFFFFFFFFFFFFFFFFFFFFFFFFFFF AND PUSH20 0xFFFFFFFFFFFFFFFFFFFFFFFFFFFFFFFFFFFFFFFF AND PUSH20 0xFFFFFFFFFFFFFFFFFFFFFFFFFFFFFFFFFFFFFFFF AND DUP2 MSTORE PUSH1 0x20 ADD SWAP1 DUP2 MSTORE PUSH1 0x20 ADD PUSH1 0x0 KECCAK256 PUSH1 0x0 DUP3 DUP3 SLOAD PUSH2 0x134C SWAP2 SWAP1 PUSH2 0x1F36 JUMP JUMPDEST SWAP3 POP POP DUP2 SWAP1 SSTORE POP PUSH32 0x394D81FC6D726F376AC7E03CFB1BF07F04A993EC0A3FE7F4782E2EF8E5416145 PUSH1 0x3 PUSH1 0x0 DUP11 PUSH1 0xFF AND PUSH1 0xFF AND DUP2 MSTORE PUSH1 0x20 ADD SWAP1 DUP2 MSTORE PUSH1 0x20 ADD PUSH1 0x0 KECCAK256 PUSH1 0x0 ADD SLOAD DUP5 DUP5 DUP5 PUSH1 0x40 MLOAD PUSH2 0x13A4 SWAP5 SWAP4 SWAP3 SWAP2 SWAP1 PUSH2 0x1EBA JUMP JUMPDEST PUSH1 0x40 MLOAD DUP1 SWAP2 SUB SWAP1 LOG1 PUSH1 0x64 PUSH1 0x6 PUSH1 0x3 PUSH1 0x0 DUP12 PUSH1 0xFF AND PUSH1 0xFF AND DUP2 MSTORE PUSH1 0x20 ADD SWAP1 DUP2 MSTORE PUSH1 0x20 ADD PUSH1 0x0 KECCAK256 PUSH1 0x0 ADD SLOAD PUSH2 0x13D7 SWAP2 SWAP1 PUSH2 0x1FF4 JUMP JUMPDEST PUSH2 0x13E1 SWAP2 SWAP1 PUSH2 0x1FC3 JUMP JUMPDEST SWAP1 POP DUP1 PUSH1 0x2 PUSH1 0x0 PUSH1 0x5 PUSH1 0x0 PUSH1 0x4 PUSH1 0x0 DUP9 DUP2 MSTORE PUSH1 0x20 ADD SWAP1 DUP2 MSTORE PUSH1 0x20 ADD PUSH1 0x0 KECCAK256 PUSH1 0x0 SWAP1 SLOAD SWAP1 PUSH2 0x100 EXP SWAP1 DIV PUSH20 0xFFFFFFFFFFFFFFFFFFFFFFFFFFFFFFFFFFFFFFFF AND PUSH20 0xFFFFFFFFFFFFFFFFFFFFFFFFFFFFFFFFFFFFFFFF AND PUSH20 0xFFFFFFFFFFFFFFFFFFFFFFFFFFFFFFFFFFFFFFFF AND DUP2 MSTORE PUSH1 0x20 ADD SWAP1 DUP2 MSTORE PUSH1 0x20 ADD PUSH1 0x0 KECCAK256 PUSH1 0x1 ADD PUSH1 0x0 SWAP1 SLOAD SWAP1 PUSH2 0x100 EXP SWAP1 DIV PUSH20 0xFFFFFFFFFFFFFFFFFFFFFFFFFFFFFFFFFFFFFFFF AND PUSH20 0xFFFFFFFFFFFFFFFFFFFFFFFFFFFFFFFFFFFFFFFF AND PUSH20 0xFFFFFFFFFFFFFFFFFFFFFFFFFFFFFFFFFFFFFFFF AND DUP2 MSTORE PUSH1 0x20 ADD SWAP1 DUP2 MSTORE PUSH1 0x20 ADD PUSH1 0x0 KECCAK256 PUSH1 0x0 DUP3 DUP3 SLOAD PUSH2 0x14C7 SWAP2 SWAP1 PUSH2 0x1F36 JUMP JUMPDEST SWAP3 POP POP DUP2 SWAP1 SSTORE POP PUSH32 0x394D81FC6D726F376AC7E03CFB1BF07F04A993EC0A3FE7F4782E2EF8E5416145 PUSH1 0x3 PUSH1 0x0 DUP11 PUSH1 0xFF AND PUSH1 0xFF AND DUP2 MSTORE PUSH1 0x20 ADD SWAP1 DUP2 MSTORE PUSH1 0x20 ADD PUSH1 0x0 KECCAK256 PUSH1 0x0 ADD SLOAD DUP4 PUSH1 0x5 PUSH1 0x0 PUSH1 0x4 PUSH1 0x0 DUP9 DUP2 MSTORE PUSH1 0x20 ADD SWAP1 DUP2 MSTORE PUSH1 0x20 ADD PUSH1 0x0 KECCAK256 PUSH1 0x0 SWAP1 SLOAD SWAP1 PUSH2 0x100 EXP SWAP1 DIV PUSH20 0xFFFFFFFFFFFFFFFFFFFFFFFFFFFFFFFFFFFFFFFF AND PUSH20 0xFFFFFFFFFFFFFFFFFFFFFFFFFFFFFFFFFFFFFFFF AND PUSH20 0xFFFFFFFFFFFFFFFFFFFFFFFFFFFFFFFFFFFFFFFF AND DUP2 MSTORE PUSH1 0x20 ADD SWAP1 DUP2 MSTORE PUSH1 0x20 ADD PUSH1 0x0 KECCAK256 PUSH1 0x0 ADD SLOAD DUP5 PUSH1 0x40 MLOAD PUSH2 0x1594 SWAP5 SWAP4 SWAP3 SWAP2 SWAP1 PUSH2 0x1EBA JUMP JUMPDEST PUSH1 0x40 MLOAD DUP1 SWAP2 SUB SWAP1 LOG1 PUSH1 0x64 PUSH1 0x4 PUSH1 0x3 PUSH1 0x0 DUP12 PUSH1 0xFF AND PUSH1 0xFF AND DUP2 MSTORE PUSH1 0x20 ADD SWAP1 DUP2 MSTORE PUSH1 0x20 ADD PUSH1 0x0 KECCAK256 PUSH1 0x0 ADD SLOAD PUSH2 0x15C7 SWAP2 SWAP1 PUSH2 0x1FF4 JUMP JUMPDEST PUSH2 0x15D1 SWAP2 SWAP1 PUSH2 0x1FC3 JUMP JUMPDEST SWAP1 POP DUP1 PUSH1 0x2 PUSH1 0x0 PUSH1 0x5 PUSH1 0x0 PUSH1 0x4 PUSH1 0x0 PUSH1 0x5 PUSH1 0x0 PUSH1 0x4 PUSH1 0x0 DUP13 DUP2 MSTORE PUSH1 0x20 ADD SWAP1 DUP2 MSTORE PUSH1 0x20 ADD PUSH1 0x0 KECCAK256 PUSH1 0x0 SWAP1 SLOAD SWAP1 PUSH2 0x100 EXP SWAP1 DIV PUSH20 0xFFFFFFFFFFFFFFFFFFFFFFFFFFFFFFFFFFFFFFFF AND PUSH20 0xFFFFFFFFFFFFFFFFFFFFFFFFFFFFFFFFFFFFFFFF AND PUSH20 0xFFFFFFFFFFFFFFFFFFFFFFFFFFFFFFFFFFFFFFFF AND DUP2 MSTORE PUSH1 0x20 ADD SWAP1 DUP2 MSTORE PUSH1 0x20 ADD PUSH1 0x0 KECCAK256 PUSH1 0x0 ADD SLOAD DUP2 MSTORE PUSH1 0x20 ADD SWAP1 DUP2 MSTORE PUSH1 0x20 ADD PUSH1 0x0 KECCAK256 PUSH1 0x0 SWAP1 SLOAD SWAP1 PUSH2 0x100 EXP SWAP1 DIV PUSH20 0xFFFFFFFFFFFFFFFFFFFFFFFFFFFFFFFFFFFFFFFF AND PUSH20 0xFFFFFFFFFFFFFFFFFFFFFFFFFFFFFFFFFFFFFFFF AND PUSH20 0xFFFFFFFFFFFFFFFFFFFFFFFFFFFFFFFFFFFFFFFF AND DUP2 MSTORE PUSH1 0x20 ADD SWAP1 DUP2 MSTORE PUSH1 0x20 ADD PUSH1 0x0 KECCAK256 PUSH1 0x1 ADD PUSH1 0x0 SWAP1 SLOAD SWAP1 PUSH2 0x100 EXP SWAP1 DIV PUSH20 0xFFFFFFFFFFFFFFFFFFFFFFFFFFFFFFFFFFFFFFFF AND PUSH20 0xFFFFFFFFFFFFFFFFFFFFFFFFFFFFFFFFFFFFFFFF AND PUSH20 0xFFFFFFFFFFFFFFFFFFFFFFFFFFFFFFFFFFFFFFFF AND DUP2 MSTORE PUSH1 0x20 ADD SWAP1 DUP2 MSTORE PUSH1 0x20 ADD PUSH1 0x0 KECCAK256 PUSH1 0x0 DUP3 DUP3 SLOAD PUSH2 0x172C SWAP2 SWAP1 PUSH2 0x1F36 JUMP JUMPDEST SWAP3 POP POP DUP2 SWAP1 SSTORE POP PUSH32 0x394D81FC6D726F376AC7E03CFB1BF07F04A993EC0A3FE7F4782E2EF8E5416145 PUSH1 0x3 PUSH1 0x0 DUP11 PUSH1 0xFF AND PUSH1 0xFF AND DUP2 MSTORE PUSH1 0x20 ADD SWAP1 DUP2 MSTORE PUSH1 0x20 ADD PUSH1 0x0 KECCAK256 PUSH1 0x0 ADD SLOAD PUSH1 0x5 PUSH1 0x0 PUSH1 0x4 PUSH1 0x0 DUP8 DUP2 MSTORE PUSH1 0x20 ADD SWAP1 DUP2 MSTORE PUSH1 0x20 ADD PUSH1 0x0 KECCAK256 PUSH1 0x0 SWAP1 SLOAD SWAP1 PUSH2 0x100 EXP SWAP1 DIV PUSH20 0xFFFFFFFFFFFFFFFFFFFFFFFFFFFFFFFFFFFFFFFF AND PUSH20 0xFFFFFFFFFFFFFFFFFFFFFFFFFFFFFFFFFFFFFFFF AND PUSH20 0xFFFFFFFFFFFFFFFFFFFFFFFFFFFFFFFFFFFFFFFF AND DUP2 MSTORE PUSH1 0x20 ADD SWAP1 DUP2 MSTORE PUSH1 0x20 ADD PUSH1 0x0 KECCAK256 PUSH1 0x0 ADD SLOAD PUSH1 0x5 PUSH1 0x0 PUSH1 0x4 PUSH1 0x0 PUSH1 0x5 PUSH1 0x0 PUSH1 0x4 PUSH1 0x0 DUP13 DUP2 MSTORE PUSH1 0x20 ADD SWAP1 DUP2 MSTORE PUSH1 0x20 ADD PUSH1 0x0 KECCAK256 PUSH1 0x0 SWAP1 SLOAD SWAP1 PUSH2 0x100 EXP SWAP1 DIV PUSH20 0xFFFFFFFFFFFFFFFFFFFFFFFFFFFFFFFFFFFFFFFF AND PUSH20 0xFFFFFFFFFFFFFFFFFFFFFFFFFFFFFFFFFFFFFFFF AND PUSH20 0xFFFFFFFFFFFFFFFFFFFFFFFFFFFFFFFFFFFFFFFF AND DUP2 MSTORE PUSH1 0x20 ADD SWAP1 DUP2 MSTORE PUSH1 0x20 ADD PUSH1 0x0 KECCAK256 PUSH1 0x0 ADD SLOAD DUP2 MSTORE PUSH1 0x20 ADD SWAP1 DUP2 MSTORE PUSH1 0x20 ADD PUSH1 0x0 KECCAK256 PUSH1 0x0 SWAP1 SLOAD SWAP1 PUSH2 0x100 EXP SWAP1 DIV PUSH20 0xFFFFFFFFFFFFFFFFFFFFFFFFFFFFFFFFFFFFFFFF AND PUSH20 0xFFFFFFFFFFFFFFFFFFFFFFFFFFFFFFFFFFFFFFFF AND PUSH20 0xFFFFFFFFFFFFFFFFFFFFFFFFFFFFFFFFFFFFFFFF AND DUP2 MSTORE PUSH1 0x20 ADD SWAP1 DUP2 MSTORE PUSH1 0x20 ADD PUSH1 0x0 KECCAK256 PUSH1 0x0 ADD SLOAD DUP5 PUSH1 0x40 MLOAD PUSH2 0x18E3 SWAP5 SWAP4 SWAP3 SWAP2 SWAP1 PUSH2 0x1EBA JUMP JUMPDEST PUSH1 0x40 MLOAD DUP1 SWAP2 SUB SWAP1 LOG1 PUSH1 0x64 PUSH1 0x6 PUSH1 0x3 PUSH1 0x0 DUP12 PUSH1 0xFF AND PUSH1 0xFF AND DUP2 MSTORE PUSH1 0x20 ADD SWAP1 DUP2 MSTORE PUSH1 0x20 ADD PUSH1 0x0 KECCAK256 PUSH1 0x0 ADD SLOAD PUSH2 0x1916 SWAP2 SWAP1 PUSH2 0x1FF4 JUMP JUMPDEST PUSH2 0x1920 SWAP2 SWAP1 PUSH2 0x1FC3 JUMP JUMPDEST SWAP1 POP DUP1 PUSH1 0x2 PUSH1 0x0 PUSH1 0x1 DUP1 SLOAD SWAP1 PUSH2 0x100 EXP SWAP1 DIV PUSH20 0xFFFFFFFFFFFFFFFFFFFFFFFFFFFFFFFFFFFFFFFF AND PUSH20 0xFFFFFFFFFFFFFFFFFFFFFFFFFFFFFFFFFFFFFFFF AND PUSH20 0xFFFFFFFFFFFFFFFFFFFFFFFFFFFFFFFFFFFFFFFF AND DUP2 MSTORE PUSH1 0x20 ADD SWAP1 DUP2 MSTORE PUSH1 0x20 ADD PUSH1 0x0 KECCAK256 PUSH1 0x0 DUP3 DUP3 SLOAD PUSH2 0x1991 SWAP2 SWAP1 PUSH2 0x1F36 JUMP JUMPDEST SWAP3 POP POP DUP2 SWAP1 SSTORE POP PUSH32 0x394D81FC6D726F376AC7E03CFB1BF07F04A993EC0A3FE7F4782E2EF8E5416145 PUSH1 0x3 PUSH1 0x0 DUP11 PUSH1 0xFF AND PUSH1 0xFF AND DUP2 MSTORE PUSH1 0x20 ADD SWAP1 DUP2 MSTORE PUSH1 0x20 ADD PUSH1 0x0 KECCAK256 PUSH1 0x0 ADD SLOAD DUP5 PUSH1 0x5 PUSH1 0x0 PUSH1 0x1 DUP1 SLOAD SWAP1 PUSH2 0x100 EXP SWAP1 DIV PUSH20 0xFFFFFFFFFFFFFFFFFFFFFFFFFFFFFFFFFFFFFFFF AND PUSH20 0xFFFFFFFFFFFFFFFFFFFFFFFFFFFFFFFFFFFFFFFF AND PUSH20 0xFFFFFFFFFFFFFFFFFFFFFFFFFFFFFFFFFFFFFFFF AND DUP2 MSTORE PUSH1 0x20 ADD SWAP1 DUP2 MSTORE PUSH1 0x20 ADD PUSH1 0x0 KECCAK256 PUSH1 0x0 ADD SLOAD DUP5 PUSH1 0x40 MLOAD PUSH2 0x1A4B SWAP5 SWAP4 SWAP3 SWAP2 SWAP1 PUSH2 0x1EBA JUMP JUMPDEST PUSH1 0x40 MLOAD DUP1 SWAP2 SUB SWAP1 LOG1 PUSH2 0x1A5C DUP6 PUSH2 0x1A6F JUMP JUMPDEST SWAP5 POP POP POP POP JUMPDEST POP PUSH2 0xF88 JUMP JUMPDEST POP JUMPDEST POP POP POP JUMP JUMPDEST PUSH1 0x0 DUP1 PUSH1 0x2 DUP4 PUSH2 0x1A7F SWAP2 SWAP1 PUSH2 0x2113 JUMP JUMPDEST EQ PUSH2 0x1A96 JUMPI PUSH1 0x2 DUP3 PUSH2 0x1A91 SWAP2 SWAP1 PUSH2 0x1FC3 JUMP JUMPDEST PUSH2 0x1A99 JUMP JUMPDEST PUSH1 0x0 JUMPDEST SWAP1 POP SWAP2 SWAP1 POP JUMP JUMPDEST PUSH1 0x0 DUP2 CALLDATALOAD SWAP1 POP PUSH2 0x1AAF DUP2 PUSH2 0x22EC JUMP JUMPDEST SWAP3 SWAP2 POP POP JUMP JUMPDEST PUSH1 0x0 DUP2 CALLDATALOAD SWAP1 POP PUSH2 0x1AC4 DUP2 PUSH2 0x2303 JUMP JUMPDEST SWAP3 SWAP2 POP POP JUMP JUMPDEST PUSH1 0x0 DUP2 CALLDATALOAD SWAP1 POP PUSH2 0x1AD9 DUP2 PUSH2 0x231A JUMP JUMPDEST SWAP3 SWAP2 POP POP JUMP JUMPDEST PUSH1 0x0 PUSH1 0x20 DUP3 DUP5 SUB SLT ISZERO PUSH2 0x1AF5 JUMPI PUSH2 0x1AF4 PUSH2 0x21A2 JUMP JUMPDEST JUMPDEST PUSH1 0x0 PUSH2 0x1B03 DUP5 DUP3 DUP6 ADD PUSH2 0x1AA0 JUMP JUMPDEST SWAP2 POP POP SWAP3 SWAP2 POP POP JUMP JUMPDEST PUSH1 0x0 DUP1 PUSH1 0x40 DUP4 DUP6 SUB SLT ISZERO PUSH2 0x1B23 JUMPI PUSH2 0x1B22 PUSH2 0x21A2 JUMP JUMPDEST JUMPDEST PUSH1 0x0 PUSH2 0x1B31 DUP6 DUP3 DUP7 ADD PUSH2 0x1AA0 JUMP JUMPDEST SWAP3 POP POP PUSH1 0x20 PUSH2 0x1B42 DUP6 DUP3 DUP7 ADD PUSH2 0x1ACA JUMP JUMPDEST SWAP2 POP POP SWAP3 POP SWAP3 SWAP1 POP JUMP JUMPDEST PUSH1 0x0 PUSH1 0x20 DUP3 DUP5 SUB SLT ISZERO PUSH2 0x1B62 JUMPI PUSH2 0x1B61 PUSH2 0x21A2 JUMP JUMPDEST JUMPDEST PUSH1 0x0 PUSH2 0x1B70 DUP5 DUP3 DUP6 ADD PUSH2 0x1AB5 JUMP JUMPDEST SWAP2 POP POP SWAP3 SWAP2 POP POP JUMP JUMPDEST PUSH1 0x0 PUSH1 0x20 DUP3 DUP5 SUB SLT ISZERO PUSH2 0x1B8F JUMPI PUSH2 0x1B8E PUSH2 0x21A2 JUMP JUMPDEST JUMPDEST PUSH1 0x0 PUSH2 0x1B9D DUP5 DUP3 DUP6 ADD PUSH2 0x1ACA JUMP JUMPDEST SWAP2 POP POP SWAP3 SWAP2 POP POP JUMP JUMPDEST PUSH1 0x0 DUP1 PUSH1 0x40 DUP4 DUP6 SUB SLT ISZERO PUSH2 0x1BBD JUMPI PUSH2 0x1BBC PUSH2 0x21A2 JUMP JUMPDEST JUMPDEST PUSH1 0x0 PUSH2 0x1BCB DUP6 DUP3 DUP7 ADD PUSH2 0x1ACA JUMP JUMPDEST SWAP3 POP POP PUSH1 0x20 PUSH2 0x1BDC DUP6 DUP3 DUP7 ADD PUSH2 0x1AB5 JUMP JUMPDEST SWAP2 POP POP SWAP3 POP SWAP3 SWAP1 POP JUMP JUMPDEST PUSH2 0x1BEF DUP2 PUSH2 0x2094 JUMP JUMPDEST DUP3 MSTORE POP POP JUMP JUMPDEST PUSH2 0x1BFE DUP2 PUSH2 0x2082 JUMP JUMPDEST DUP3 MSTORE POP POP JUMP JUMPDEST PUSH2 0x1C0D DUP2 PUSH2 0x20A6 JUMP JUMPDEST DUP3 MSTORE POP POP JUMP JUMPDEST PUSH1 0x0 PUSH2 0x1C20 PUSH1 0x13 DUP4 PUSH2 0x1F25 JUMP JUMPDEST SWAP2 POP PUSH2 0x1C2B DUP3 PUSH2 0x21A7 JUMP JUMPDEST PUSH1 0x20 DUP3 ADD SWAP1 POP SWAP2 SWAP1 POP JUMP JUMPDEST PUSH1 0x0 PUSH2 0x1C43 PUSH1 0xE DUP4 PUSH2 0x1F25 JUMP JUMPDEST SWAP2 POP PUSH2 0x1C4E DUP3 PUSH2 0x21D0 JUMP JUMPDEST PUSH1 0x20 DUP3 ADD SWAP1 POP SWAP2 SWAP1 POP JUMP JUMPDEST PUSH1 0x0 PUSH2 0x1C66 PUSH1 0x1A DUP4 PUSH2 0x1F25 JUMP JUMPDEST SWAP2 POP PUSH2 0x1C71 DUP3 PUSH2 0x21F9 JUMP JUMPDEST PUSH1 0x20 DUP3 ADD SWAP1 POP SWAP2 SWAP1 POP JUMP JUMPDEST PUSH1 0x0 PUSH2 0x1C89 PUSH1 0x0 DUP4 PUSH2 0x1F1A JUMP JUMPDEST SWAP2 POP PUSH2 0x1C94 DUP3 PUSH2 0x2222 JUMP JUMPDEST PUSH1 0x0 DUP3 ADD SWAP1 POP SWAP2 SWAP1 POP JUMP JUMPDEST PUSH1 0x0 PUSH2 0x1CAC PUSH1 0x23 DUP4 PUSH2 0x1F25 JUMP JUMPDEST SWAP2 POP PUSH2 0x1CB7 DUP3 PUSH2 0x2225 JUMP JUMPDEST PUSH1 0x40 DUP3 ADD SWAP1 POP SWAP2 SWAP1 POP JUMP JUMPDEST PUSH1 0x0 PUSH2 0x1CCF PUSH1 0x28 DUP4 PUSH2 0x1F25 JUMP JUMPDEST SWAP2 POP PUSH2 0x1CDA DUP3 PUSH2 0x2274 JUMP JUMPDEST PUSH1 0x40 DUP3 ADD SWAP1 POP SWAP2 SWAP1 POP JUMP JUMPDEST PUSH1 0x0 PUSH2 0x1CF2 PUSH1 0xC DUP4 PUSH2 0x1F25 JUMP JUMPDEST SWAP2 POP PUSH2 0x1CFD DUP3 PUSH2 0x22C3 JUMP JUMPDEST PUSH1 0x20 DUP3 ADD SWAP1 POP SWAP2 SWAP1 POP JUMP JUMPDEST PUSH2 0x1D11 DUP2 PUSH2 0x20D2 JUMP JUMPDEST DUP3 MSTORE POP POP JUMP JUMPDEST PUSH2 0x1D20 DUP2 PUSH2 0x20DC JUMP JUMPDEST DUP3 MSTORE POP POP JUMP JUMPDEST PUSH1 0x0 PUSH2 0x1D31 DUP3 PUSH2 0x1C7C JUMP JUMPDEST SWAP2 POP DUP2 SWAP1 POP SWAP2 SWAP1 POP JUMP JUMPDEST PUSH1 0x0 PUSH1 0x20 DUP3 ADD SWAP1 POP PUSH2 0x1D50 PUSH1 0x0 DUP4 ADD DUP5 PUSH2 0x1BF5 JUMP JUMPDEST SWAP3 SWAP2 POP POP JUMP JUMPDEST PUSH1 0x0 PUSH1 0x20 DUP3 ADD SWAP1 POP PUSH2 0x1D6B PUSH1 0x0 DUP4 ADD DUP5 PUSH2 0x1C04 JUMP JUMPDEST SWAP3 SWAP2 POP POP JUMP JUMPDEST PUSH1 0x0 PUSH1 0x20 DUP3 ADD SWAP1 POP DUP2 DUP2 SUB PUSH1 0x0 DUP4 ADD MSTORE PUSH2 0x1D8A DUP2 PUSH2 0x1C13 JUMP JUMPDEST SWAP1 POP SWAP2 SWAP1 POP JUMP JUMPDEST PUSH1 0x0 PUSH1 0x20 DUP3 ADD SWAP1 POP DUP2 DUP2 SUB PUSH1 0x0 DUP4 ADD MSTORE PUSH2 0x1DAA DUP2 PUSH2 0x1C36 JUMP JUMPDEST SWAP1 POP SWAP2 SWAP1 POP JUMP JUMPDEST PUSH1 0x0 PUSH1 0x20 DUP3 ADD SWAP1 POP DUP2 DUP2 SUB PUSH1 0x0 DUP4 ADD MSTORE PUSH2 0x1DCA DUP2 PUSH2 0x1C59 JUMP JUMPDEST SWAP1 POP SWAP2 SWAP1 POP JUMP JUMPDEST PUSH1 0x0 PUSH1 0x20 DUP3 ADD SWAP1 POP DUP2 DUP2 SUB PUSH1 0x0 DUP4 ADD MSTORE PUSH2 0x1DEA DUP2 PUSH2 0x1C9F JUMP JUMPDEST SWAP1 POP SWAP2 SWAP1 POP JUMP JUMPDEST PUSH1 0x0 PUSH1 0x20 DUP3 ADD SWAP1 POP DUP2 DUP2 SUB PUSH1 0x0 DUP4 ADD MSTORE PUSH2 0x1E0A DUP2 PUSH2 0x1CC2 JUMP JUMPDEST SWAP1 POP SWAP2 SWAP1 POP JUMP JUMPDEST PUSH1 0x0 PUSH1 0x20 DUP3 ADD SWAP1 POP DUP2 DUP2 SUB PUSH1 0x0 DUP4 ADD MSTORE PUSH2 0x1E2A DUP2 PUSH2 0x1CE5 JUMP JUMPDEST SWAP1 POP SWAP2 SWAP1 POP JUMP JUMPDEST PUSH1 0x0 PUSH1 0x20 DUP3 ADD SWAP1 POP PUSH2 0x1E46 PUSH1 0x0 DUP4 ADD DUP5 PUSH2 0x1D08 JUMP JUMPDEST SWAP3 SWAP2 POP POP JUMP JUMPDEST PUSH1 0x0 PUSH1 0x60 DUP3 ADD SWAP1 POP PUSH2 0x1E61 PUSH1 0x0 DUP4 ADD DUP7 PUSH2 0x1D08 JUMP JUMPDEST PUSH2 0x1E6E PUSH1 0x20 DUP4 ADD DUP6 PUSH2 0x1BE6 JUMP JUMPDEST PUSH2 0x1E7B PUSH1 0x40 DUP4 ADD DUP5 PUSH2 0x1D08 JUMP JUMPDEST SWAP5 SWAP4 POP POP POP POP JUMP JUMPDEST PUSH1 0x0 PUSH1 0x60 DUP3 ADD SWAP1 POP PUSH2 0x1E98 PUSH1 0x0 DUP4 ADD DUP7 PUSH2 0x1D08 JUMP JUMPDEST PUSH2 0x1EA5 PUSH1 0x20 DUP4 ADD DUP6 PUSH2 0x1BF5 JUMP JUMPDEST PUSH2 0x1EB2 PUSH1 0x40 DUP4 ADD DUP5 PUSH2 0x1C04 JUMP JUMPDEST SWAP5 SWAP4 POP POP POP POP JUMP JUMPDEST PUSH1 0x0 PUSH1 0x80 DUP3 ADD SWAP1 POP PUSH2 0x1ECF PUSH1 0x0 DUP4 ADD DUP8 PUSH2 0x1D08 JUMP JUMPDEST PUSH2 0x1EDC PUSH1 0x20 DUP4 ADD DUP7 PUSH2 0x1D08 JUMP JUMPDEST PUSH2 0x1EE9 PUSH1 0x40 DUP4 ADD DUP6 PUSH2 0x1D08 JUMP JUMPDEST PUSH2 0x1EF6 PUSH1 0x60 DUP4 ADD DUP5 PUSH2 0x1D08 JUMP JUMPDEST SWAP6 SWAP5 POP POP POP POP POP JUMP JUMPDEST PUSH1 0x0 PUSH1 0x20 DUP3 ADD SWAP1 POP PUSH2 0x1F14 PUSH1 0x0 DUP4 ADD DUP5 PUSH2 0x1D17 JUMP JUMPDEST SWAP3 SWAP2 POP POP JUMP JUMPDEST PUSH1 0x0 DUP2 SWAP1 POP SWAP3 SWAP2 POP POP JUMP JUMPDEST PUSH1 0x0 DUP3 DUP3 MSTORE PUSH1 0x20 DUP3 ADD SWAP1 POP SWAP3 SWAP2 POP POP JUMP JUMPDEST PUSH1 0x0 PUSH2 0x1F41 DUP3 PUSH2 0x20D2 JUMP JUMPDEST SWAP2 POP PUSH2 0x1F4C DUP4 PUSH2 0x20D2 JUMP JUMPDEST SWAP3 POP DUP3 PUSH32 0xFFFFFFFFFFFFFFFFFFFFFFFFFFFFFFFFFFFFFFFFFFFFFFFFFFFFFFFFFFFFFFFF SUB DUP3 GT ISZERO PUSH2 0x1F81 JUMPI PUSH2 0x1F80 PUSH2 0x2144 JUMP JUMPDEST JUMPDEST DUP3 DUP3 ADD SWAP1 POP SWAP3 SWAP2 POP POP JUMP JUMPDEST PUSH1 0x0 PUSH2 0x1F97 DUP3 PUSH2 0x20DC JUMP JUMPDEST SWAP2 POP PUSH2 0x1FA2 DUP4 PUSH2 0x20DC JUMP JUMPDEST SWAP3 POP DUP3 PUSH1 0xFF SUB DUP3 GT ISZERO PUSH2 0x1FB8 JUMPI PUSH2 0x1FB7 PUSH2 0x2144 JUMP JUMPDEST JUMPDEST DUP3 DUP3 ADD SWAP1 POP SWAP3 SWAP2 POP POP JUMP JUMPDEST PUSH1 0x0 PUSH2 0x1FCE DUP3 PUSH2 0x20D2 JUMP JUMPDEST SWAP2 POP PUSH2 0x1FD9 DUP4 PUSH2 0x20D2 JUMP JUMPDEST SWAP3 POP DUP3 PUSH2 0x1FE9 JUMPI PUSH2 0x1FE8 PUSH2 0x2173 JUMP JUMPDEST JUMPDEST DUP3 DUP3 DIV SWAP1 POP SWAP3 SWAP2 POP POP JUMP JUMPDEST PUSH1 0x0 PUSH2 0x1FFF DUP3 PUSH2 0x20D2 JUMP JUMPDEST SWAP2 POP PUSH2 0x200A DUP4 PUSH2 0x20D2 JUMP JUMPDEST SWAP3 POP DUP2 PUSH32 0xFFFFFFFFFFFFFFFFFFFFFFFFFFFFFFFFFFFFFFFFFFFFFFFFFFFFFFFFFFFFFFFF DIV DUP4 GT DUP3 ISZERO ISZERO AND ISZERO PUSH2 0x2043 JUMPI PUSH2 0x2042 PUSH2 0x2144 JUMP JUMPDEST JUMPDEST DUP3 DUP3 MUL SWAP1 POP SWAP3 SWAP2 POP POP JUMP JUMPDEST PUSH1 0x0 PUSH2 0x2059 DUP3 PUSH2 0x20D2 JUMP JUMPDEST SWAP2 POP PUSH2 0x2064 DUP4 PUSH2 0x20D2 JUMP JUMPDEST SWAP3 POP DUP3 DUP3 LT ISZERO PUSH2 0x2077 JUMPI PUSH2 0x2076 PUSH2 0x2144 JUMP JUMPDEST JUMPDEST DUP3 DUP3 SUB SWAP1 POP SWAP3 SWAP2 POP POP JUMP JUMPDEST PUSH1 0x0 PUSH2 0x208D DUP3 PUSH2 0x20B2 JUMP JUMPDEST SWAP1 POP SWAP2 SWAP1 POP JUMP JUMPDEST PUSH1 0x0 PUSH2 0x209F DUP3 PUSH2 0x20B2 JUMP JUMPDEST SWAP1 POP SWAP2 SWAP1 POP JUMP JUMPDEST PUSH1 0x0 DUP2 ISZERO ISZERO SWAP1 POP SWAP2 SWAP1 POP JUMP JUMPDEST PUSH1 0x0 PUSH20 0xFFFFFFFFFFFFFFFFFFFFFFFFFFFFFFFFFFFFFFFF DUP3 AND SWAP1 POP SWAP2 SWAP1 POP JUMP JUMPDEST PUSH1 0x0 DUP2 SWAP1 POP SWAP2 SWAP1 POP JUMP JUMPDEST PUSH1 0x0 PUSH1 0xFF DUP3 AND SWAP1 POP SWAP2 SWAP1 POP JUMP JUMPDEST PUSH1 0x0 PUSH2 0x20F4 DUP3 PUSH2 0x20DC JUMP JUMPDEST SWAP2 POP PUSH1 0xFF DUP3 EQ ISZERO PUSH2 0x2108 JUMPI PUSH2 0x2107 PUSH2 0x2144 JUMP JUMPDEST JUMPDEST PUSH1 0x1 DUP3 ADD SWAP1 POP SWAP2 SWAP1 POP JUMP JUMPDEST PUSH1 0x0 PUSH2 0x211E DUP3 PUSH2 0x20D2 JUMP JUMPDEST SWAP2 POP PUSH2 0x2129 DUP4 PUSH2 0x20D2 JUMP JUMPDEST SWAP3 POP DUP3 PUSH2 0x2139 JUMPI PUSH2 0x2138 PUSH2 0x2173 JUMP JUMPDEST JUMPDEST DUP3 DUP3 MOD SWAP1 POP SWAP3 SWAP2 POP POP JUMP JUMPDEST PUSH32 0x4E487B7100000000000000000000000000000000000000000000000000000000 PUSH1 0x0 MSTORE PUSH1 0x11 PUSH1 0x4 MSTORE PUSH1 0x24 PUSH1 0x0 REVERT JUMPDEST PUSH32 0x4E487B7100000000000000000000000000000000000000000000000000000000 PUSH1 0x0 MSTORE PUSH1 0x12 PUSH1 0x4 MSTORE PUSH1 0x24 PUSH1 0x0 REVERT JUMPDEST PUSH1 0x0 DUP1 REVERT JUMPDEST PUSH32 0x4E6F7468696E6720746F20776974686472617700000000000000000000000000 PUSH1 0x0 DUP3 ADD MSTORE POP JUMP JUMPDEST PUSH32 0x47616D65206E6F7420666F756E64000000000000000000000000000000000000 PUSH1 0x0 DUP3 ADD MSTORE POP JUMP JUMPDEST PUSH32 0x596F752061726520616C72656164792072656769737465726564000000000000 PUSH1 0x0 DUP3 ADD MSTORE POP JUMP JUMPDEST POP JUMP JUMPDEST PUSH32 0x496E73756666696369656E7420616D6F756E74206F6620636F6E747269627574 PUSH1 0x0 DUP3 ADD MSTORE PUSH32 0x696F6E0000000000000000000000000000000000000000000000000000000000 PUSH1 0x20 DUP3 ADD MSTORE POP JUMP JUMPDEST PUSH32 0x466F72207265676974657220696E2067616D6520796F75206E65656420706179 PUSH1 0x0 DUP3 ADD MSTORE PUSH32 0x2031206574686572000000000000000000000000000000000000000000000000 PUSH1 0x20 DUP3 ADD MSTORE POP JUMP JUMPDEST PUSH32 0x4E6F20636F6E7472616374730000000000000000000000000000000000000000 PUSH1 0x0 DUP3 ADD MSTORE POP JUMP JUMPDEST PUSH2 0x22F5 DUP2 PUSH2 0x2082 JUMP JUMPDEST DUP2 EQ PUSH2 0x2300 JUMPI PUSH1 0x0 DUP1 REVERT JUMPDEST POP JUMP JUMPDEST PUSH2 0x230C DUP2 PUSH2 0x20D2 JUMP JUMPDEST DUP2 EQ PUSH2 0x2317 JUMPI PUSH1 0x0 DUP1 REVERT JUMPDEST POP JUMP JUMPDEST PUSH2 0x2323 DUP2 PUSH2 0x20DC JUMP JUMPDEST DUP2 EQ PUSH2 0x232E JUMPI PUSH1 0x0 DUP1 REVERT JUMPDEST POP JUMP INVALID LOG2 PUSH5 0x6970667358 0x22 SLT KECCAK256 BASEFEE PUSH23 0x95938DAEEE6FA717521BCBB560E901C72DA6FBC16263C7 0xB9 CALLDATASIZE 0x22 SDIV 0x2B 0xC9 PC PUSH5 0x736F6C6343 STOP ADDMOD SMOD STOP CALLER "
				},
				"gasEstimates": {
					"creation": {
						"codeDepositCost": "1812600",
						"executionCost": "infinite",
						"totalCost": "infinite"
					},
					"external": {
						"": "infinite",
						"addGameLevel(uint256)": "infinite",
						"currentGameIdIndex()": "2493",
						"currentUserIdIndex()": "2496",
						"currentUserIndex(uint8)": "2860",
						"geUserGameBalance(address)": "2886",
						"hasAccess(address)": "2925",
						"joinToGame(uint8)": "infinite",
						"levels(uint8)": "2830",
						"pools(uint8,uint256)": "infinite",
						"registerUserToGame(uint256)": "infinite",
						"registeredUsers(address)": "infinite",
						"userGames(address,uint8)": "3161",
						"userPayments(address,uint8)": "3144",
						"usersId(uint256)": "2905",
						"withdrawGameBalance()": "infinite"
					},
					"internal": {
						"_fallback(address,uint256)": "infinite",
						"_joinToGame(uint8,address,uint256)": "infinite",
						"culcNextWinnerIndex(uint256)": "infinite"
					}
				},
				"methodIdentifiers": {
					"addGameLevel(uint256)": "ae9283b5",
					"currentGameIdIndex()": "ad39f0a3",
					"currentUserIdIndex()": "556c9095",
					"currentUserIndex(uint8)": "9b0b0ae3",
					"geUserGameBalance(address)": "33fb9ad8",
					"hasAccess(address)": "95a078e8",
					"joinToGame(uint8)": "2e8aab9b",
					"levels(uint8)": "906cbf57",
					"pools(uint8,uint256)": "78a32e21",
					"registerUserToGame(uint256)": "0173c05b",
					"registeredUsers(address)": "0e50cee5",
					"userGames(address,uint8)": "2a648c89",
					"userPayments(address,uint8)": "f1060006",
					"usersId(uint256)": "bd233b91",
					"withdrawGameBalance()": "55cc42b3"
				}
			},
			"storageLayout": {
				"storage": [
					{
						"astId": 3,
						"contract": "Contract2v.sol:Pyramid",
						"label": "currentUserIdIndex",
						"offset": 0,
						"slot": "0",
						"type": "t_uint256"
					},
					{
						"astId": 5,
						"contract": "Contract2v.sol:Pyramid",
						"label": "currentGameIdIndex",
						"offset": 0,
						"slot": "1",
						"type": "t_uint8"
					},
					{
						"astId": 7,
						"contract": "Contract2v.sol:Pyramid",
						"label": "contractOwner",
						"offset": 1,
						"slot": "1",
						"type": "t_address"
					},
					{
						"astId": 36,
						"contract": "Contract2v.sol:Pyramid",
						"label": "balances",
						"offset": 0,
						"slot": "2",
						"type": "t_mapping(t_address,t_uint256)"
					},
					{
						"astId": 41,
						"contract": "Contract2v.sol:Pyramid",
						"label": "levels",
						"offset": 0,
						"slot": "3",
						"type": "t_mapping(t_uint8,t_struct(Game)32_storage)"
					},
					{
						"astId": 45,
						"contract": "Contract2v.sol:Pyramid",
						"label": "usersId",
						"offset": 0,
						"slot": "4",
						"type": "t_mapping(t_uint256,t_address)"
					},
					{
						"astId": 50,
						"contract": "Contract2v.sol:Pyramid",
						"label": "registeredUsers",
						"offset": 0,
						"slot": "5",
						"type": "t_mapping(t_address,t_struct(User)29_storage)"
					},
					{
						"astId": 54,
						"contract": "Contract2v.sol:Pyramid",
						"label": "currentUserIndex",
						"offset": 0,
						"slot": "6",
						"type": "t_mapping(t_uint8,t_uint256)"
					},
					{
						"astId": 61,
						"contract": "Contract2v.sol:Pyramid",
						"label": "pools",
						"offset": 0,
						"slot": "7",
						"type": "t_mapping(t_uint8,t_mapping(t_uint256,t_struct(User)29_storage))"
					},
					{
						"astId": 67,
						"contract": "Contract2v.sol:Pyramid",
						"label": "userPayments",
						"offset": 0,
						"slot": "8",
						"type": "t_mapping(t_address,t_mapping(t_uint8,t_uint256))"
					},
					{
						"astId": 73,
						"contract": "Contract2v.sol:Pyramid",
						"label": "userGames",
						"offset": 0,
						"slot": "9",
						"type": "t_mapping(t_address,t_mapping(t_uint8,t_bool))"
					}
				],
				"types": {
					"t_address": {
						"encoding": "inplace",
						"label": "address",
						"numberOfBytes": "20"
					},
					"t_address_payable": {
						"encoding": "inplace",
						"label": "address payable",
						"numberOfBytes": "20"
					},
					"t_bool": {
						"encoding": "inplace",
						"label": "bool",
						"numberOfBytes": "1"
					},
					"t_mapping(t_address,t_mapping(t_uint8,t_bool))": {
						"encoding": "mapping",
						"key": "t_address",
						"label": "mapping(address => mapping(uint8 => bool))",
						"numberOfBytes": "32",
						"value": "t_mapping(t_uint8,t_bool)"
					},
					"t_mapping(t_address,t_mapping(t_uint8,t_uint256))": {
						"encoding": "mapping",
						"key": "t_address",
						"label": "mapping(address => mapping(uint8 => uint256))",
						"numberOfBytes": "32",
						"value": "t_mapping(t_uint8,t_uint256)"
					},
					"t_mapping(t_address,t_struct(User)29_storage)": {
						"encoding": "mapping",
						"key": "t_address",
						"label": "mapping(address => struct Pyramid.User)",
						"numberOfBytes": "32",
						"value": "t_struct(User)29_storage"
					},
					"t_mapping(t_address,t_uint256)": {
						"encoding": "mapping",
						"key": "t_address",
						"label": "mapping(address => uint256)",
						"numberOfBytes": "32",
						"value": "t_uint256"
					},
					"t_mapping(t_uint256,t_address)": {
						"encoding": "mapping",
						"key": "t_uint256",
						"label": "mapping(uint256 => address)",
						"numberOfBytes": "32",
						"value": "t_address"
					},
					"t_mapping(t_uint256,t_struct(User)29_storage)": {
						"encoding": "mapping",
						"key": "t_uint256",
						"label": "mapping(uint256 => struct Pyramid.User)",
						"numberOfBytes": "32",
						"value": "t_struct(User)29_storage"
					},
					"t_mapping(t_uint8,t_bool)": {
						"encoding": "mapping",
						"key": "t_uint8",
						"label": "mapping(uint8 => bool)",
						"numberOfBytes": "32",
						"value": "t_bool"
					},
					"t_mapping(t_uint8,t_mapping(t_uint256,t_struct(User)29_storage))": {
						"encoding": "mapping",
						"key": "t_uint8",
						"label": "mapping(uint8 => mapping(uint256 => struct Pyramid.User))",
						"numberOfBytes": "32",
						"value": "t_mapping(t_uint256,t_struct(User)29_storage)"
					},
					"t_mapping(t_uint8,t_struct(Game)32_storage)": {
						"encoding": "mapping",
						"key": "t_uint8",
						"label": "mapping(uint8 => struct Pyramid.Game)",
						"numberOfBytes": "32",
						"value": "t_struct(Game)32_storage"
					},
					"t_mapping(t_uint8,t_uint256)": {
						"encoding": "mapping",
						"key": "t_uint8",
						"label": "mapping(uint8 => uint256)",
						"numberOfBytes": "32",
						"value": "t_uint256"
					},
					"t_struct(Game)32_storage": {
						"encoding": "inplace",
						"label": "struct Pyramid.Game",
						"members": [
							{
								"astId": 31,
								"contract": "Contract2v.sol:Pyramid",
								"label": "amountToPay",
								"offset": 0,
								"slot": "0",
								"type": "t_uint256"
							}
						],
						"numberOfBytes": "32"
					},
					"t_struct(User)29_storage": {
						"encoding": "inplace",
						"label": "struct Pyramid.User",
						"members": [
							{
								"astId": 24,
								"contract": "Contract2v.sol:Pyramid",
								"label": "userId",
								"offset": 0,
								"slot": "0",
								"type": "t_uint256"
							},
							{
								"astId": 26,
								"contract": "Contract2v.sol:Pyramid",
								"label": "userAddress",
								"offset": 0,
								"slot": "1",
								"type": "t_address_payable"
							},
							{
								"astId": 28,
								"contract": "Contract2v.sol:Pyramid",
								"label": "invitedId",
								"offset": 0,
								"slot": "2",
								"type": "t_uint256"
							}
						],
						"numberOfBytes": "96"
					},
					"t_uint256": {
						"encoding": "inplace",
						"label": "uint256",
						"numberOfBytes": "32"
					},
					"t_uint8": {
						"encoding": "inplace",
						"label": "uint8",
						"numberOfBytes": "1"
					}
				}
			},
			"userdoc": {
				"kind": "user",
				"methods": {},
				"version": 1
			}
		}
	}
}