{
	"Contract.sol": {
		"Pyramid": {
			"abi": [
				{
					"inputs": [],
					"stateMutability": "nonpayable",
					"type": "constructor"
				},
				{
					"anonymous": false,
					"inputs": [
						{
							"indexed": false,
							"internalType": "uint8",
							"name": "gameId",
							"type": "uint8"
						},
						{
							"indexed": false,
							"internalType": "address",
							"name": "account",
							"type": "address"
						},
						{
							"indexed": false,
							"internalType": "bool",
							"name": "success",
							"type": "bool"
						}
					],
					"name": "GamePaymentEvent",
					"type": "event"
				},
				{
					"anonymous": false,
					"inputs": [
						{
							"indexed": false,
							"internalType": "uint8",
							"name": "gameId",
							"type": "uint8"
						},
						{
							"indexed": false,
							"internalType": "uint256",
							"name": "amount",
							"type": "uint256"
						}
					],
					"name": "NewGame",
					"type": "event"
				},
				{
					"anonymous": false,
					"inputs": [
						{
							"indexed": false,
							"internalType": "uint256",
							"name": "userId",
							"type": "uint256"
						},
						{
							"indexed": false,
							"internalType": "uint256",
							"name": "inviterId",
							"type": "uint256"
						},
						{
							"indexed": false,
							"internalType": "uint256",
							"name": "partnersCount",
							"type": "uint256"
						}
					],
					"name": "NewUserRegisteredEvent",
					"type": "event"
				},
				{
					"anonymous": false,
					"inputs": [
						{
							"indexed": false,
							"internalType": "uint8",
							"name": "gameId",
							"type": "uint8"
						},
						{
							"indexed": false,
							"internalType": "uint256",
							"name": "from",
							"type": "uint256"
						},
						{
							"indexed": false,
							"internalType": "uint256",
							"name": "to",
							"type": "uint256"
						},
						{
							"indexed": false,
							"internalType": "uint256",
							"name": "amount",
							"type": "uint256"
						}
					],
					"name": "ReferalPaymentEvent",
					"type": "event"
				},
				{
					"stateMutability": "payable",
					"type": "fallback"
				},
				{
					"inputs": [
						{
							"internalType": "uint256",
							"name": "amountToPay",
							"type": "uint256"
						}
					],
					"name": "addGameLevel",
					"outputs": [],
					"stateMutability": "nonpayable",
					"type": "function"
				},
				{
					"inputs": [],
					"name": "currentGameIdIndex",
					"outputs": [
						{
							"internalType": "uint8",
							"name": "",
							"type": "uint8"
						}
					],
					"stateMutability": "view",
					"type": "function"
				},
				{
					"inputs": [],
					"name": "currentUserIdIndex",
					"outputs": [
						{
							"internalType": "uint256",
							"name": "",
							"type": "uint256"
						}
					],
					"stateMutability": "view",
					"type": "function"
				},
				{
					"inputs": [
						{
							"internalType": "uint8",
							"name": "",
							"type": "uint8"
						}
					],
					"name": "currentUserIndex",
					"outputs": [
						{
							"internalType": "uint256",
							"name": "",
							"type": "uint256"
						}
					],
					"stateMutability": "view",
					"type": "function"
				},
				{
					"inputs": [
						{
							"internalType": "address",
							"name": "userAdress",
							"type": "address"
						}
					],
					"name": "hasAccess",
					"outputs": [
						{
							"internalType": "bool",
							"name": "",
							"type": "bool"
						}
					],
					"stateMutability": "view",
					"type": "function"
				},
				{
					"inputs": [
						{
							"internalType": "uint8",
							"name": "gameId",
							"type": "uint8"
						}
					],
					"name": "joinToGame",
					"outputs": [],
					"stateMutability": "payable",
					"type": "function"
				},
				{
					"inputs": [
						{
							"internalType": "uint8",
							"name": "",
							"type": "uint8"
						}
					],
					"name": "levels",
					"outputs": [
						{
							"internalType": "uint8",
							"name": "gameId",
							"type": "uint8"
						},
						{
							"internalType": "uint256",
							"name": "amountToPay",
							"type": "uint256"
						}
					],
					"stateMutability": "view",
					"type": "function"
				},
				{
					"inputs": [
						{
							"internalType": "uint8",
							"name": "",
							"type": "uint8"
						},
						{
							"internalType": "uint256",
							"name": "",
							"type": "uint256"
						}
					],
					"name": "pools",
					"outputs": [
						{
							"internalType": "uint256",
							"name": "userId",
							"type": "uint256"
						},
						{
							"internalType": "address payable",
							"name": "userAddress",
							"type": "address"
						},
						{
							"internalType": "uint256",
							"name": "invitedId",
							"type": "uint256"
						}
					],
					"stateMutability": "view",
					"type": "function"
				},
				{
					"inputs": [
						{
							"internalType": "uint256",
							"name": "inviterId",
							"type": "uint256"
						}
					],
					"name": "registerUserToGame",
					"outputs": [],
					"stateMutability": "payable",
					"type": "function"
				},
				{
					"inputs": [
						{
							"internalType": "address",
							"name": "",
							"type": "address"
						}
					],
					"name": "registeredUsers",
					"outputs": [
						{
							"internalType": "uint256",
							"name": "userId",
							"type": "uint256"
						},
						{
							"internalType": "address payable",
							"name": "userAddress",
							"type": "address"
						},
						{
							"internalType": "uint256",
							"name": "invitedId",
							"type": "uint256"
						}
					],
					"stateMutability": "view",
					"type": "function"
				},
				{
					"inputs": [
						{
							"internalType": "address",
							"name": "",
							"type": "address"
						},
						{
							"internalType": "uint8",
							"name": "",
							"type": "uint8"
						}
					],
					"name": "userGames",
					"outputs": [
						{
							"internalType": "bool",
							"name": "",
							"type": "bool"
						}
					],
					"stateMutability": "view",
					"type": "function"
				},
				{
					"inputs": [
						{
							"internalType": "address",
							"name": "",
							"type": "address"
						},
						{
							"internalType": "uint8",
							"name": "",
							"type": "uint8"
						}
					],
					"name": "userPayments",
					"outputs": [
						{
							"internalType": "uint256",
							"name": "",
							"type": "uint256"
						}
					],
					"stateMutability": "view",
					"type": "function"
				},
				{
					"inputs": [
						{
							"internalType": "uint256",
							"name": "",
							"type": "uint256"
						}
					],
					"name": "usersId",
					"outputs": [
						{
							"internalType": "address",
							"name": "",
							"type": "address"
						}
					],
					"stateMutability": "view",
					"type": "function"
				},
				{
					"stateMutability": "payable",
					"type": "receive"
				}
			],
			"devdoc": {
				"kind": "dev",
				"methods": {},
				"version": 1
			},
			"evm": {
				"assembly": "    /* \"Contract.sol\":6575:16097  contract Pyramid {\r... */\n  mstore(0x40, 0x80)\n    /* \"Contract.sol\":9232:9491  constructor () {\r... */\n  callvalue\n  dup1\n  iszero\n  tag_1\n  jumpi\n  0x00\n  dup1\n  revert\ntag_1:\n  pop\n    /* \"Contract.sol\":9274:9284  msg.sender */\n  caller\n    /* \"Contract.sol\":9258:9271  contractOwner */\n  0x01\n  dup1\n    /* \"Contract.sol\":9258:9284  contractOwner = msg.sender */\n  0x0100\n  exp\n  dup2\n  sload\n  dup2\n  0xffffffffffffffffffffffffffffffffffffffff\n  mul\n  not\n  and\n  swap1\n  dup4\n  0xffffffffffffffffffffffffffffffffffffffff\n  and\n  mul\n  or\n  swap1\n  sstore\n  pop\n    /* \"Contract.sol\":9308:9321  contractOwner */\n  0x01\n  dup1\n  sload\n  swap1\n  0x0100\n  exp\n  swap1\n  div\n  0xffffffffffffffffffffffffffffffffffffffff\n  and\n    /* \"Contract.sol\":9295:9302  usersId */\n  0x03\n    /* \"Contract.sol\":9295:9305  usersId[0] */\n  0x00\n    /* \"Contract.sol\":9303:9304  0 */\n  dup1\n    /* \"Contract.sol\":9295:9305  usersId[0] */\n  dup2\n  mstore\n  0x20\n  add\n  swap1\n  dup2\n  mstore\n  0x20\n  add\n  0x00\n  keccak256\n  0x00\n    /* \"Contract.sol\":9295:9321  usersId[0] = contractOwner */\n  0x0100\n  exp\n  dup2\n  sload\n  dup2\n  0xffffffffffffffffffffffffffffffffffffffff\n  mul\n  not\n  and\n  swap1\n  dup4\n  0xffffffffffffffffffffffffffffffffffffffff\n  and\n  mul\n  or\n  swap1\n  sstore\n  pop\n    /* \"Contract.sol\":9365:9399  User(0, payable(contractOwner), 0) */\n  mload(0x40)\n  dup1\n  0x60\n  add\n  0x40\n  mstore\n  dup1\n    /* \"Contract.sol\":9370:9371  0 */\n  0x00\n    /* \"Contract.sol\":9365:9399  User(0, payable(contractOwner), 0) */\n  dup2\n  mstore\n  0x20\n  add\n    /* \"Contract.sol\":9381:9394  contractOwner */\n  0x01\n  dup1\n  sload\n  swap1\n  0x0100\n  exp\n  swap1\n  div\n  0xffffffffffffffffffffffffffffffffffffffff\n  and\n    /* \"Contract.sol\":9365:9399  User(0, payable(contractOwner), 0) */\n  0xffffffffffffffffffffffffffffffffffffffff\n  and\n  dup2\n  mstore\n  0x20\n  add\n    /* \"Contract.sol\":9397:9398  0 */\n  0x00\n    /* \"Contract.sol\":9365:9399  User(0, payable(contractOwner), 0) */\n  dup2\n  mstore\n  pop\n    /* \"Contract.sol\":9332:9347  registeredUsers */\n  0x05\n    /* \"Contract.sol\":9332:9362  registeredUsers[contractOwner] */\n  0x00\n    /* \"Contract.sol\":9348:9361  contractOwner */\n  0x01\n  dup1\n  sload\n  swap1\n  0x0100\n  exp\n  swap1\n  div\n  0xffffffffffffffffffffffffffffffffffffffff\n  and\n    /* \"Contract.sol\":9332:9362  registeredUsers[contractOwner] */\n  0xffffffffffffffffffffffffffffffffffffffff\n  and\n  0xffffffffffffffffffffffffffffffffffffffff\n  and\n  dup2\n  mstore\n  0x20\n  add\n  swap1\n  dup2\n  mstore\n  0x20\n  add\n  0x00\n  keccak256\n    /* \"Contract.sol\":9332:9399  registeredUsers[contractOwner] = User(0, payable(contractOwner), 0) */\n  0x00\n  dup3\n  add\n  mload\n  dup2\n  0x00\n  add\n  sstore\n  0x20\n  dup3\n  add\n  mload\n  dup2\n  0x01\n  add\n  exp(0x0100, 0x00)\n  dup2\n  sload\n  dup2\n  0xffffffffffffffffffffffffffffffffffffffff\n  mul\n  not\n  and\n  swap1\n  dup4\n  0xffffffffffffffffffffffffffffffffffffffff\n  and\n  mul\n  or\n  swap1\n  sstore\n  pop\n  0x40\n  dup3\n  add\n  mload\n  dup2\n  0x02\n  add\n  sstore\n  swap1\n  pop\n  pop\n    /* \"Contract.sol\":9431:9432  1 */\n  0x01\n    /* \"Contract.sol\":9410:9428  currentUserIdIndex */\n  0x00\n    /* \"Contract.sol\":9410:9432  currentUserIdIndex = 1 */\n  dup2\n  swap1\n  sstore\n  pop\n    /* \"Contract.sol\":9445:9483  addGameLevel({ amountToPay: 1 ether }) */\n  tag_4\n    /* \"Contract.sol\":9473:9480  1 ether */\n  0x0de0b6b3a7640000\n    /* \"Contract.sol\":9445:9457  addGameLevel */\n  shl(0x20, tag_5)\n    /* \"Contract.sol\":9445:9483  addGameLevel({ amountToPay: 1 ether }) */\n  0x20\n  shr\n  jump\t// in\ntag_4:\n    /* \"Contract.sol\":6575:16097  contract Pyramid {\r... */\n  jump(tag_6)\n    /* \"Contract.sol\":11095:11464  function addGameLevel(uint256 amountToPay) public onlyOwner {\r... */\ntag_5:\n    /* \"Contract.sol\":9161:9182  hasAccess(msg.sender) */\n  tag_8\n    /* \"Contract.sol\":9171:9181  msg.sender */\n  caller\n    /* \"Contract.sol\":9161:9170  hasAccess */\n  shl(0x20, tag_9)\n    /* \"Contract.sol\":9161:9182  hasAccess(msg.sender) */\n  0x20\n  shr\n  jump\t// in\ntag_8:\n    /* \"Contract.sol\":9153:9204  require(hasAccess(msg.sender), \"You are not owner\") */\n  tag_10\n  jumpi\n  mload(0x40)\n  0x08c379a000000000000000000000000000000000000000000000000000000000\n  dup2\n  mstore\n  0x04\n  add\n  tag_11\n  swap1\n  tag_12\n  jump\t// in\ntag_11:\n  mload(0x40)\n  dup1\n  swap2\n  sub\n  swap1\n  revert\ntag_10:\n    /* \"Contract.sol\":11300:11362  Game({ gameId: currentGameIdIndex, amountToPay: amountToPay }) */\n  mload(0x40)\n  dup1\n  0x40\n  add\n  0x40\n  mstore\n  dup1\n    /* \"Contract.sol\":11315:11333  currentGameIdIndex */\n  0x01\n  0x00\n  swap1\n  sload\n  swap1\n  0x0100\n  exp\n  swap1\n  div\n  0xff\n  and\n    /* \"Contract.sol\":11300:11362  Game({ gameId: currentGameIdIndex, amountToPay: amountToPay }) */\n  0xff\n  and\n  dup2\n  mstore\n  0x20\n  add\n    /* \"Contract.sol\":11348:11359  amountToPay */\n  dup3\n    /* \"Contract.sol\":11300:11362  Game({ gameId: currentGameIdIndex, amountToPay: amountToPay }) */\n  dup2\n  mstore\n  pop\n    /* \"Contract.sol\":11271:11277  levels */\n  0x02\n    /* \"Contract.sol\":11271:11297  levels[currentGameIdIndex] */\n  0x00\n    /* \"Contract.sol\":11278:11296  currentGameIdIndex */\n  0x01\n  0x00\n  swap1\n  sload\n  swap1\n  0x0100\n  exp\n  swap1\n  div\n  0xff\n  and\n    /* \"Contract.sol\":11271:11297  levels[currentGameIdIndex] */\n  0xff\n  and\n  0xff\n  and\n  dup2\n  mstore\n  0x20\n  add\n  swap1\n  dup2\n  mstore\n  0x20\n  add\n  0x00\n  keccak256\n    /* \"Contract.sol\":11271:11362  levels[currentGameIdIndex] = Game({ gameId: currentGameIdIndex, amountToPay: amountToPay }) */\n  0x00\n  dup3\n  add\n  mload\n  dup2\n  0x00\n  add\n  exp(0x0100, 0x00)\n  dup2\n  sload\n  dup2\n  0xff\n  mul\n  not\n  and\n  swap1\n  dup4\n  0xff\n  and\n  mul\n  or\n  swap1\n  sstore\n  pop\n  0x20\n  dup3\n  add\n  mload\n  dup2\n  0x01\n  add\n  sstore\n  swap1\n  pop\n  pop\n    /* \"Contract.sol\":11395:11396  1 */\n  0x01\n    /* \"Contract.sol\":11373:11391  currentGameIdIndex */\n  dup1\n  0x00\n    /* \"Contract.sol\":11373:11396  currentGameIdIndex += 1 */\n  dup3\n  dup3\n  dup3\n  swap1\n  sload\n  swap1\n  0x0100\n  exp\n  swap1\n  div\n  0xff\n  and\n  tag_14\n  swap2\n  swap1\n  tag_15\n  jump\t// in\ntag_14:\n  swap3\n  pop\n  0x0100\n  exp\n  dup2\n  sload\n  dup2\n  0xff\n  mul\n  not\n  and\n  swap1\n  dup4\n  0xff\n  and\n  mul\n  or\n  swap1\n  sstore\n  pop\n    /* \"Contract.sol\":11412:11456  NewGame( currentGameIdIndex-1, amountToPay ) */\n  0xcf1ed532d6b83b4290f2f407b156b17826f49752e7a8ff360f502c307e055663\n    /* \"Contract.sol\":11440:11441  1 */\n  0x01\n    /* \"Contract.sol\":11421:11439  currentGameIdIndex */\n  dup1\n  0x00\n  swap1\n  sload\n  swap1\n  0x0100\n  exp\n  swap1\n  div\n  0xff\n  and\n    /* \"Contract.sol\":11421:11441  currentGameIdIndex-1 */\n  tag_16\n  swap2\n  swap1\n  tag_17\n  jump\t// in\ntag_16:\n    /* \"Contract.sol\":11443:11454  amountToPay */\n  dup3\n    /* \"Contract.sol\":11412:11456  NewGame( currentGameIdIndex-1, amountToPay ) */\n  mload(0x40)\n  tag_18\n  swap3\n  swap2\n  swap1\n  tag_19\n  jump\t// in\ntag_18:\n  mload(0x40)\n  dup1\n  swap2\n  sub\n  swap1\n  log1\n    /* \"Contract.sol\":11095:11464  function addGameLevel(uint256 amountToPay) public onlyOwner {\r... */\n  pop\n  jump\t// out\n    /* \"Contract.sol\":10858:11087  function hasAccess(address userAdress) public view returns(bool) {\r... */\ntag_9:\n    /* \"Contract.sol\":10917:10921  bool */\n  0x00\n    /* \"Contract.sol\":11066:11079  contractOwner */\n  0x01\n  dup1\n  sload\n  swap1\n  0x0100\n  exp\n  swap1\n  div\n  0xffffffffffffffffffffffffffffffffffffffff\n  and\n    /* \"Contract.sol\":11052:11079  userAdress == contractOwner */\n  0xffffffffffffffffffffffffffffffffffffffff\n  and\n    /* \"Contract.sol\":11052:11062  userAdress */\n  dup3\n    /* \"Contract.sol\":11052:11079  userAdress == contractOwner */\n  0xffffffffffffffffffffffffffffffffffffffff\n  and\n  eq\n    /* \"Contract.sol\":11045:11079  return userAdress == contractOwner */\n  swap1\n  pop\n    /* \"Contract.sol\":10858:11087  function hasAccess(address userAdress) public view returns(bool) {\r... */\n  swap2\n  swap1\n  pop\n  jump\t// out\n    /* \"#utility.yul\":7:373   */\ntag_22:\n    /* \"#utility.yul\":149:152   */\n  0x00\n    /* \"#utility.yul\":170:237   */\n  tag_24\n    /* \"#utility.yul\":234:236   */\n  0x11\n    /* \"#utility.yul\":229:232   */\n  dup4\n    /* \"#utility.yul\":170:237   */\n  tag_25\n  jump\t// in\ntag_24:\n    /* \"#utility.yul\":163:237   */\n  swap2\n  pop\n    /* \"#utility.yul\":246:339   */\n  tag_26\n    /* \"#utility.yul\":335:338   */\n  dup3\n    /* \"#utility.yul\":246:339   */\n  tag_27\n  jump\t// in\ntag_26:\n    /* \"#utility.yul\":364:366   */\n  0x20\n    /* \"#utility.yul\":359:362   */\n  dup3\n    /* \"#utility.yul\":355:367   */\n  add\n    /* \"#utility.yul\":348:367   */\n  swap1\n  pop\n    /* \"#utility.yul\":7:373   */\n  swap2\n  swap1\n  pop\n  jump\t// out\n    /* \"#utility.yul\":379:497   */\ntag_28:\n    /* \"#utility.yul\":466:490   */\n  tag_30\n    /* \"#utility.yul\":484:489   */\n  dup2\n    /* \"#utility.yul\":466:490   */\n  tag_31\n  jump\t// in\ntag_30:\n    /* \"#utility.yul\":461:464   */\n  dup3\n    /* \"#utility.yul\":454:491   */\n  mstore\n    /* \"#utility.yul\":379:497   */\n  pop\n  pop\n  jump\t// out\n    /* \"#utility.yul\":503:615   */\ntag_32:\n    /* \"#utility.yul\":586:608   */\n  tag_34\n    /* \"#utility.yul\":602:607   */\n  dup2\n    /* \"#utility.yul\":586:608   */\n  tag_35\n  jump\t// in\ntag_34:\n    /* \"#utility.yul\":581:584   */\n  dup3\n    /* \"#utility.yul\":574:609   */\n  mstore\n    /* \"#utility.yul\":503:615   */\n  pop\n  pop\n  jump\t// out\n    /* \"#utility.yul\":621:1040   */\ntag_12:\n    /* \"#utility.yul\":787:791   */\n  0x00\n    /* \"#utility.yul\":825:827   */\n  0x20\n    /* \"#utility.yul\":814:823   */\n  dup3\n    /* \"#utility.yul\":810:828   */\n  add\n    /* \"#utility.yul\":802:828   */\n  swap1\n  pop\n    /* \"#utility.yul\":874:883   */\n  dup2\n    /* \"#utility.yul\":868:872   */\n  dup2\n    /* \"#utility.yul\":864:884   */\n  sub\n    /* \"#utility.yul\":860:861   */\n  0x00\n    /* \"#utility.yul\":849:858   */\n  dup4\n    /* \"#utility.yul\":845:862   */\n  add\n    /* \"#utility.yul\":838:885   */\n  mstore\n    /* \"#utility.yul\":902:1033   */\n  tag_37\n    /* \"#utility.yul\":1028:1032   */\n  dup2\n    /* \"#utility.yul\":902:1033   */\n  tag_22\n  jump\t// in\ntag_37:\n    /* \"#utility.yul\":894:1033   */\n  swap1\n  pop\n    /* \"#utility.yul\":621:1040   */\n  swap2\n  swap1\n  pop\n  jump\t// out\n    /* \"#utility.yul\":1046:1370   */\ntag_19:\n    /* \"#utility.yul\":1163:1167   */\n  0x00\n    /* \"#utility.yul\":1201:1203   */\n  0x40\n    /* \"#utility.yul\":1190:1199   */\n  dup3\n    /* \"#utility.yul\":1186:1204   */\n  add\n    /* \"#utility.yul\":1178:1204   */\n  swap1\n  pop\n    /* \"#utility.yul\":1214:1281   */\n  tag_39\n    /* \"#utility.yul\":1278:1279   */\n  0x00\n    /* \"#utility.yul\":1267:1276   */\n  dup4\n    /* \"#utility.yul\":1263:1280   */\n  add\n    /* \"#utility.yul\":1254:1260   */\n  dup6\n    /* \"#utility.yul\":1214:1281   */\n  tag_32\n  jump\t// in\ntag_39:\n    /* \"#utility.yul\":1291:1363   */\n  tag_40\n    /* \"#utility.yul\":1359:1361   */\n  0x20\n    /* \"#utility.yul\":1348:1357   */\n  dup4\n    /* \"#utility.yul\":1344:1362   */\n  add\n    /* \"#utility.yul\":1335:1341   */\n  dup5\n    /* \"#utility.yul\":1291:1363   */\n  tag_28\n  jump\t// in\ntag_40:\n    /* \"#utility.yul\":1046:1370   */\n  swap4\n  swap3\n  pop\n  pop\n  pop\n  jump\t// out\n    /* \"#utility.yul\":1376:1545   */\ntag_25:\n    /* \"#utility.yul\":1460:1471   */\n  0x00\n    /* \"#utility.yul\":1494:1500   */\n  dup3\n    /* \"#utility.yul\":1489:1492   */\n  dup3\n    /* \"#utility.yul\":1482:1501   */\n  mstore\n    /* \"#utility.yul\":1534:1538   */\n  0x20\n    /* \"#utility.yul\":1529:1532   */\n  dup3\n    /* \"#utility.yul\":1525:1539   */\n  add\n    /* \"#utility.yul\":1510:1539   */\n  swap1\n  pop\n    /* \"#utility.yul\":1376:1545   */\n  swap3\n  swap2\n  pop\n  pop\n  jump\t// out\n    /* \"#utility.yul\":1551:1788   */\ntag_15:\n    /* \"#utility.yul\":1589:1592   */\n  0x00\n    /* \"#utility.yul\":1608:1626   */\n  tag_43\n    /* \"#utility.yul\":1624:1625   */\n  dup3\n    /* \"#utility.yul\":1608:1626   */\n  tag_35\n  jump\t// in\ntag_43:\n    /* \"#utility.yul\":1603:1626   */\n  swap2\n  pop\n    /* \"#utility.yul\":1640:1658   */\n  tag_44\n    /* \"#utility.yul\":1656:1657   */\n  dup4\n    /* \"#utility.yul\":1640:1658   */\n  tag_35\n  jump\t// in\ntag_44:\n    /* \"#utility.yul\":1635:1658   */\n  swap3\n  pop\n    /* \"#utility.yul\":1730:1731   */\n  dup3\n    /* \"#utility.yul\":1724:1728   */\n  0xff\n    /* \"#utility.yul\":1720:1732   */\n  sub\n    /* \"#utility.yul\":1717:1718   */\n  dup3\n    /* \"#utility.yul\":1714:1733   */\n  gt\n    /* \"#utility.yul\":1711:1756   */\n  iszero\n  tag_45\n  jumpi\n    /* \"#utility.yul\":1736:1754   */\n  tag_46\n  tag_47\n  jump\t// in\ntag_46:\n    /* \"#utility.yul\":1711:1756   */\ntag_45:\n    /* \"#utility.yul\":1780:1781   */\n  dup3\n    /* \"#utility.yul\":1777:1778   */\n  dup3\n    /* \"#utility.yul\":1773:1782   */\n  add\n    /* \"#utility.yul\":1766:1782   */\n  swap1\n  pop\n    /* \"#utility.yul\":1551:1788   */\n  swap3\n  swap2\n  pop\n  pop\n  jump\t// out\n    /* \"#utility.yul\":1794:1979   */\ntag_17:\n    /* \"#utility.yul\":1832:1836   */\n  0x00\n    /* \"#utility.yul\":1852:1870   */\n  tag_49\n    /* \"#utility.yul\":1868:1869   */\n  dup3\n    /* \"#utility.yul\":1852:1870   */\n  tag_35\n  jump\t// in\ntag_49:\n    /* \"#utility.yul\":1847:1870   */\n  swap2\n  pop\n    /* \"#utility.yul\":1884:1902   */\n  tag_50\n    /* \"#utility.yul\":1900:1901   */\n  dup4\n    /* \"#utility.yul\":1884:1902   */\n  tag_35\n  jump\t// in\ntag_50:\n    /* \"#utility.yul\":1879:1902   */\n  swap3\n  pop\n    /* \"#utility.yul\":1921:1922   */\n  dup3\n    /* \"#utility.yul\":1918:1919   */\n  dup3\n    /* \"#utility.yul\":1915:1923   */\n  lt\n    /* \"#utility.yul\":1912:1946   */\n  iszero\n  tag_51\n  jumpi\n    /* \"#utility.yul\":1926:1944   */\n  tag_52\n  tag_47\n  jump\t// in\ntag_52:\n    /* \"#utility.yul\":1912:1946   */\ntag_51:\n    /* \"#utility.yul\":1971:1972   */\n  dup3\n    /* \"#utility.yul\":1968:1969   */\n  dup3\n    /* \"#utility.yul\":1964:1973   */\n  sub\n    /* \"#utility.yul\":1956:1973   */\n  swap1\n  pop\n    /* \"#utility.yul\":1794:1979   */\n  swap3\n  swap2\n  pop\n  pop\n  jump\t// out\n    /* \"#utility.yul\":1985:2062   */\ntag_31:\n    /* \"#utility.yul\":2022:2029   */\n  0x00\n    /* \"#utility.yul\":2051:2056   */\n  dup2\n    /* \"#utility.yul\":2040:2056   */\n  swap1\n  pop\n    /* \"#utility.yul\":1985:2062   */\n  swap2\n  swap1\n  pop\n  jump\t// out\n    /* \"#utility.yul\":2068:2154   */\ntag_35:\n    /* \"#utility.yul\":2103:2110   */\n  0x00\n    /* \"#utility.yul\":2143:2147   */\n  0xff\n    /* \"#utility.yul\":2136:2141   */\n  dup3\n    /* \"#utility.yul\":2132:2148   */\n  and\n    /* \"#utility.yul\":2121:2148   */\n  swap1\n  pop\n    /* \"#utility.yul\":2068:2154   */\n  swap2\n  swap1\n  pop\n  jump\t// out\n    /* \"#utility.yul\":2160:2340   */\ntag_47:\n    /* \"#utility.yul\":2208:2285   */\n  0x4e487b7100000000000000000000000000000000000000000000000000000000\n    /* \"#utility.yul\":2205:2206   */\n  0x00\n    /* \"#utility.yul\":2198:2286   */\n  mstore\n    /* \"#utility.yul\":2305:2309   */\n  0x11\n    /* \"#utility.yul\":2302:2303   */\n  0x04\n    /* \"#utility.yul\":2295:2310   */\n  mstore\n    /* \"#utility.yul\":2329:2333   */\n  0x24\n    /* \"#utility.yul\":2326:2327   */\n  0x00\n    /* \"#utility.yul\":2319:2334   */\n  revert\n    /* \"#utility.yul\":2346:2513   */\ntag_27:\n    /* \"#utility.yul\":2486:2505   */\n  0x596f7520617265206e6f74206f776e6572000000000000000000000000000000\n    /* \"#utility.yul\":2482:2483   */\n  0x00\n    /* \"#utility.yul\":2474:2480   */\n  dup3\n    /* \"#utility.yul\":2470:2484   */\n  add\n    /* \"#utility.yul\":2463:2506   */\n  mstore\n    /* \"#utility.yul\":2346:2513   */\n  pop\n  jump\t// out\n    /* \"Contract.sol\":6575:16097  contract Pyramid {\r... */\ntag_6:\n  dataSize(sub_0)\n  dup1\n  dataOffset(sub_0)\n  0x00\n  codecopy\n  0x00\n  return\nstop\n\nsub_0: assembly {\n        /* \"Contract.sol\":6575:16097  contract Pyramid {\r... */\n      mstore(0x40, 0x80)\n      jumpi(tag_1, lt(calldatasize, 0x04))\n      shr(0xe0, calldataload(0x00))\n      dup1\n      0x906cbf57\n      gt\n      tag_16\n      jumpi\n      dup1\n      0xad39f0a3\n      gt\n      tag_17\n      jumpi\n      dup1\n      0xad39f0a3\n      eq\n      tag_12\n      jumpi\n      dup1\n      0xae9283b5\n      eq\n      tag_13\n      jumpi\n      dup1\n      0xbd233b91\n      eq\n      tag_14\n      jumpi\n      dup1\n      0xf1060006\n      eq\n      tag_15\n      jumpi\n      jump(tag_2)\n    tag_17:\n      dup1\n      0x906cbf57\n      eq\n      tag_9\n      jumpi\n      dup1\n      0x95a078e8\n      eq\n      tag_10\n      jumpi\n      dup1\n      0x9b0b0ae3\n      eq\n      tag_11\n      jumpi\n      jump(tag_2)\n    tag_16:\n      dup1\n      0x0173c05b\n      eq\n      tag_3\n      jumpi\n      dup1\n      0x0e50cee5\n      eq\n      tag_4\n      jumpi\n      dup1\n      0x2a648c89\n      eq\n      tag_5\n      jumpi\n      dup1\n      0x2e8aab9b\n      eq\n      tag_6\n      jumpi\n      dup1\n      0x556c9095\n      eq\n      tag_7\n      jumpi\n      dup1\n      0x78a32e21\n      eq\n      tag_8\n      jumpi\n      jump(tag_2)\n    tag_1:\n      jumpi(tag_2, calldatasize)\n        /* \"Contract.sol\":9538:9570  _fallback(msg.sender, msg.value) */\n      tag_20\n        /* \"Contract.sol\":9548:9558  msg.sender */\n      caller\n        /* \"Contract.sol\":9560:9569  msg.value */\n      callvalue\n        /* \"Contract.sol\":9538:9547  _fallback */\n      tag_21\n        /* \"Contract.sol\":9538:9570  _fallback(msg.sender, msg.value) */\n      jump\t// in\n    tag_20:\n        /* \"Contract.sol\":6575:16097  contract Pyramid {\r... */\n      stop\n    tag_2:\n        /* \"Contract.sol\":9626:9658  _fallback(msg.sender, msg.value) */\n      tag_24\n        /* \"Contract.sol\":9636:9646  msg.sender */\n      caller\n        /* \"Contract.sol\":9648:9657  msg.value */\n      callvalue\n        /* \"Contract.sol\":9626:9635  _fallback */\n      tag_21\n        /* \"Contract.sol\":9626:9658  _fallback(msg.sender, msg.value) */\n      jump\t// in\n    tag_24:\n        /* \"Contract.sol\":6575:16097  contract Pyramid {\r... */\n      stop\n        /* \"Contract.sol\":11472:12161  function registerUserToGame(uint256 inviterId) external payable noContractAccess {\r... */\n    tag_3:\n      tag_25\n      0x04\n      dup1\n      calldatasize\n      sub\n      dup2\n      add\n      swap1\n      tag_26\n      swap2\n      swap1\n      tag_27\n      jump\t// in\n    tag_26:\n      tag_28\n      jump\t// in\n    tag_25:\n      stop\n        /* \"Contract.sol\":7656:7704  mapping (address => User) public registeredUsers */\n    tag_4:\n      callvalue\n      dup1\n      iszero\n      tag_29\n      jumpi\n      0x00\n      dup1\n      revert\n    tag_29:\n      pop\n      tag_30\n      0x04\n      dup1\n      calldatasize\n      sub\n      dup2\n      add\n      swap1\n      tag_31\n      swap2\n      swap1\n      tag_32\n      jump\t// in\n    tag_31:\n      tag_33\n      jump\t// in\n    tag_30:\n      mload(0x40)\n      tag_34\n      swap4\n      swap3\n      swap2\n      swap1\n      tag_35\n      jump\t// in\n    tag_34:\n      mload(0x40)\n      dup1\n      swap2\n      sub\n      swap1\n      return\n        /* \"Contract.sol\":8060:8121  mapping (address => mapping (uint8 => bool)) public userGames */\n    tag_5:\n      callvalue\n      dup1\n      iszero\n      tag_36\n      jumpi\n      0x00\n      dup1\n      revert\n    tag_36:\n      pop\n      tag_37\n      0x04\n      dup1\n      calldatasize\n      sub\n      dup2\n      add\n      swap1\n      tag_38\n      swap2\n      swap1\n      tag_39\n      jump\t// in\n    tag_38:\n      tag_40\n      jump\t// in\n    tag_37:\n      mload(0x40)\n      tag_41\n      swap2\n      swap1\n      tag_42\n      jump\t// in\n    tag_41:\n      mload(0x40)\n      dup1\n      swap2\n      sub\n      swap1\n      return\n        /* \"Contract.sol\":12169:12388  function joinToGame(uint8 gameId) external payable onlyRegistered {\r... */\n    tag_6:\n      tag_43\n      0x04\n      dup1\n      calldatasize\n      sub\n      dup2\n      add\n      swap1\n      tag_44\n      swap2\n      swap1\n      tag_45\n      jump\t// in\n    tag_44:\n      tag_46\n      jump\t// in\n    tag_43:\n      stop\n        /* \"Contract.sol\":6633:6666  uint256 public currentUserIdIndex */\n    tag_7:\n      callvalue\n      dup1\n      iszero\n      tag_47\n      jumpi\n      0x00\n      dup1\n      revert\n    tag_47:\n      pop\n      tag_48\n      tag_49\n      jump\t// in\n    tag_48:\n      mload(0x40)\n      tag_50\n      swap2\n      swap1\n      tag_51\n      jump\t// in\n    tag_50:\n      mload(0x40)\n      dup1\n      swap2\n      sub\n      swap1\n      return\n        /* \"Contract.sol\":7848:7905  mapping (uint8 => mapping (uint256 => User)) public pools */\n    tag_8:\n      callvalue\n      dup1\n      iszero\n      tag_52\n      jumpi\n      0x00\n      dup1\n      revert\n    tag_52:\n      pop\n      tag_53\n      0x04\n      dup1\n      calldatasize\n      sub\n      dup2\n      add\n      swap1\n      tag_54\n      swap2\n      swap1\n      tag_55\n      jump\t// in\n    tag_54:\n      tag_56\n      jump\t// in\n    tag_53:\n      mload(0x40)\n      tag_57\n      swap4\n      swap3\n      swap2\n      swap1\n      tag_35\n      jump\t// in\n    tag_57:\n      mload(0x40)\n      dup1\n      swap2\n      sub\n      swap1\n      return\n        /* \"Contract.sol\":7409:7446  mapping (uint8 => Game) public levels */\n    tag_9:\n      callvalue\n      dup1\n      iszero\n      tag_58\n      jumpi\n      0x00\n      dup1\n      revert\n    tag_58:\n      pop\n      tag_59\n      0x04\n      dup1\n      calldatasize\n      sub\n      dup2\n      add\n      swap1\n      tag_60\n      swap2\n      swap1\n      tag_45\n      jump\t// in\n    tag_60:\n      tag_61\n      jump\t// in\n    tag_59:\n      mload(0x40)\n      tag_62\n      swap3\n      swap2\n      swap1\n      tag_63\n      jump\t// in\n    tag_62:\n      mload(0x40)\n      dup1\n      swap2\n      sub\n      swap1\n      return\n        /* \"Contract.sol\":10858:11087  function hasAccess(address userAdress) public view returns(bool) {\r... */\n    tag_10:\n      callvalue\n      dup1\n      iszero\n      tag_64\n      jumpi\n      0x00\n      dup1\n      revert\n    tag_64:\n      pop\n      tag_65\n      0x04\n      dup1\n      calldatasize\n      sub\n      dup2\n      add\n      swap1\n      tag_66\n      swap2\n      swap1\n      tag_32\n      jump\t// in\n    tag_66:\n      tag_67\n      jump\t// in\n    tag_65:\n      mload(0x40)\n      tag_68\n      swap2\n      swap1\n      tag_42\n      jump\t// in\n    tag_68:\n      mload(0x40)\n      dup1\n      swap2\n      sub\n      swap1\n      return\n        /* \"Contract.sol\":7759:7809  mapping (uint8 => uint256) public currentUserIndex */\n    tag_11:\n      callvalue\n      dup1\n      iszero\n      tag_69\n      jumpi\n      0x00\n      dup1\n      revert\n    tag_69:\n      pop\n      tag_70\n      0x04\n      dup1\n      calldatasize\n      sub\n      dup2\n      add\n      swap1\n      tag_71\n      swap2\n      swap1\n      tag_45\n      jump\t// in\n    tag_71:\n      tag_72\n      jump\t// in\n    tag_70:\n      mload(0x40)\n      tag_73\n      swap2\n      swap1\n      tag_51\n      jump\t// in\n    tag_73:\n      mload(0x40)\n      dup1\n      swap2\n      sub\n      swap1\n      return\n        /* \"Contract.sol\":6702:6733  uint8 public currentGameIdIndex */\n    tag_12:\n      callvalue\n      dup1\n      iszero\n      tag_74\n      jumpi\n      0x00\n      dup1\n      revert\n    tag_74:\n      pop\n      tag_75\n      tag_76\n      jump\t// in\n    tag_75:\n      mload(0x40)\n      tag_77\n      swap2\n      swap1\n      tag_78\n      jump\t// in\n    tag_77:\n      mload(0x40)\n      dup1\n      swap2\n      sub\n      swap1\n      return\n        /* \"Contract.sol\":11095:11464  function addGameLevel(uint256 amountToPay) public onlyOwner {\r... */\n    tag_13:\n      callvalue\n      dup1\n      iszero\n      tag_79\n      jumpi\n      0x00\n      dup1\n      revert\n    tag_79:\n      pop\n      tag_80\n      0x04\n      dup1\n      calldatasize\n      sub\n      dup2\n      add\n      swap1\n      tag_81\n      swap2\n      swap1\n      tag_27\n      jump\t// in\n    tag_81:\n      tag_82\n      jump\t// in\n    tag_80:\n      stop\n        /* \"Contract.sol\":7470:7513  mapping (uint256 => address) public usersId */\n    tag_14:\n      callvalue\n      dup1\n      iszero\n      tag_83\n      jumpi\n      0x00\n      dup1\n      revert\n    tag_83:\n      pop\n      tag_84\n      0x04\n      dup1\n      calldatasize\n      sub\n      dup2\n      add\n      swap1\n      tag_85\n      swap2\n      swap1\n      tag_27\n      jump\t// in\n    tag_85:\n      tag_86\n      jump\t// in\n    tag_84:\n      mload(0x40)\n      tag_87\n      swap2\n      swap1\n      tag_88\n      jump\t// in\n    tag_87:\n      mload(0x40)\n      dup1\n      swap2\n      sub\n      swap1\n      return\n        /* \"Contract.sol\":7947:8014  mapping (address => mapping (uint8 => uint256)) public userPayments */\n    tag_15:\n      callvalue\n      dup1\n      iszero\n      tag_89\n      jumpi\n      0x00\n      dup1\n      revert\n    tag_89:\n      pop\n      tag_90\n      0x04\n      dup1\n      calldatasize\n      sub\n      dup2\n      add\n      swap1\n      tag_91\n      swap2\n      swap1\n      tag_39\n      jump\t// in\n    tag_91:\n      tag_92\n      jump\t// in\n    tag_90:\n      mload(0x40)\n      tag_93\n      swap2\n      swap1\n      tag_51\n      jump\t// in\n    tag_93:\n      mload(0x40)\n      dup1\n      swap2\n      sub\n      swap1\n      return\n        /* \"Contract.sol\":9674:10273  function _fallback(address sender, uint256 value) internal {\r... */\n    tag_21:\n        /* \"Contract.sol\":9885:9897  bool success */\n      0x00\n        /* \"Contract.sol\":9908:9920  uint8 gameId */\n      dup1\n        /* \"Contract.sol\":9938:9949  uint8 index */\n      0x00\n        /* \"Contract.sol\":9933:10166  for (uint8 index; index < currentGameIdIndex+1; index++) {\r... */\n    tag_95:\n        /* \"Contract.sol\":9978:9979  1 */\n      0x01\n        /* \"Contract.sol\":9959:9977  currentGameIdIndex */\n      dup1\n      0x00\n      swap1\n      sload\n      swap1\n      0x0100\n      exp\n      swap1\n      div\n      0xff\n      and\n        /* \"Contract.sol\":9959:9979  currentGameIdIndex+1 */\n      tag_98\n      swap2\n      swap1\n      tag_99\n      jump\t// in\n    tag_98:\n        /* \"Contract.sol\":9951:9979  index < currentGameIdIndex+1 */\n      0xff\n      and\n        /* \"Contract.sol\":9951:9956  index */\n      dup2\n        /* \"Contract.sol\":9951:9979  index < currentGameIdIndex+1 */\n      0xff\n      and\n      lt\n        /* \"Contract.sol\":9933:10166  for (uint8 index; index < currentGameIdIndex+1; index++) {\r... */\n      iszero\n      tag_96\n      jumpi\n        /* \"Contract.sol\":10038:10047  msg.value */\n      callvalue\n        /* \"Contract.sol\":10009:10015  levels */\n      0x02\n        /* \"Contract.sol\":10009:10022  levels[index] */\n      0x00\n        /* \"Contract.sol\":10016:10021  index */\n      dup4\n        /* \"Contract.sol\":10009:10022  levels[index] */\n      0xff\n      and\n      0xff\n      and\n      dup2\n      mstore\n      0x20\n      add\n      swap1\n      dup2\n      mstore\n      0x20\n      add\n      0x00\n      keccak256\n        /* \"Contract.sol\":10009:10034  levels[index].amountToPay */\n      0x01\n      add\n      sload\n        /* \"Contract.sol\":10009:10047  levels[index].amountToPay == msg.value */\n      eq\n        /* \"Contract.sol\":10005:10155  if (levels[index].amountToPay == msg.value) {\r... */\n      iszero\n      tag_100\n      jumpi\n        /* \"Contract.sol\":10078:10082  true */\n      0x01\n        /* \"Contract.sol\":10068:10082  success = true */\n      swap3\n      pop\n        /* \"Contract.sol\":10110:10115  index */\n      dup1\n        /* \"Contract.sol\":10101:10115  gameId = index */\n      swap2\n      pop\n        /* \"Contract.sol\":10134:10139  break */\n      jump(tag_96)\n        /* \"Contract.sol\":10005:10155  if (levels[index].amountToPay == msg.value) {\r... */\n    tag_100:\n        /* \"Contract.sol\":9981:9988  index++ */\n      dup1\n      dup1\n      tag_101\n      swap1\n      tag_102\n      jump\t// in\n    tag_101:\n      swap2\n      pop\n      pop\n        /* \"Contract.sol\":9933:10166  for (uint8 index; index < currentGameIdIndex+1; index++) {\r... */\n      jump(tag_95)\n    tag_96:\n      pop\n        /* \"Contract.sol\":10194:10201  success */\n      dup2\n        /* \"Contract.sol\":10186:10220  require(success, \"Game not found\") */\n      tag_103\n      jumpi\n      mload(0x40)\n      0x08c379a000000000000000000000000000000000000000000000000000000000\n      dup2\n      mstore\n      0x04\n      add\n      tag_104\n      swap1\n      tag_105\n      jump\t// in\n    tag_104:\n      mload(0x40)\n      dup1\n      swap2\n      sub\n      swap1\n      revert\n    tag_103:\n        /* \"Contract.sol\":10231:10265  _joinToGame(gameId, sender, value) */\n      tag_106\n        /* \"Contract.sol\":10243:10249  gameId */\n      dup2\n        /* \"Contract.sol\":10251:10257  sender */\n      dup6\n        /* \"Contract.sol\":10259:10264  value */\n      dup6\n        /* \"Contract.sol\":10231:10242  _joinToGame */\n      tag_107\n        /* \"Contract.sol\":10231:10265  _joinToGame(gameId, sender, value) */\n      jump\t// in\n    tag_106:\n        /* \"Contract.sol\":9733:10273  {\r... */\n      pop\n      pop\n        /* \"Contract.sol\":9674:10273  function _fallback(address sender, uint256 value) internal {\r... */\n      pop\n      pop\n      jump\t// out\n        /* \"Contract.sol\":11472:12161  function registerUserToGame(uint256 inviterId) external payable noContractAccess {\r... */\n    tag_28:\n        /* \"Contract.sol\":8887:8898  uint32 size */\n      0x00\n        /* \"Contract.sol\":8909:8923  address sender */\n      dup1\n        /* \"Contract.sol\":8926:8936  msg.sender */\n      caller\n        /* \"Contract.sol\":8909:8936  address sender = msg.sender */\n      swap1\n      pop\n        /* \"Contract.sol\":8978:8984  sender */\n      dup1\n        /* \"Contract.sol\":8966:8985  extcodesize(sender) */\n      extcodesize\n        /* \"Contract.sol\":8958:8985  size := extcodesize(sender) */\n      swap2\n      pop\n        /* \"Contract.sol\":9016:9017  0 */\n      0x00\n        /* \"Contract.sol\":9009:9013  size */\n      dup3\n        /* \"Contract.sol\":9009:9017  size > 0 */\n      0xffffffff\n      and\n      gt\n        /* \"Contract.sol\":9007:9018  !(size > 0) */\n      iszero\n        /* \"Contract.sol\":8999:9035  require(!(size > 0), \"No contracts\") */\n      tag_109\n      jumpi\n      mload(0x40)\n      0x08c379a000000000000000000000000000000000000000000000000000000000\n      dup2\n      mstore\n      0x04\n      add\n      tag_110\n      swap1\n      tag_111\n      jump\t// in\n    tag_110:\n      mload(0x40)\n      dup1\n      swap2\n      sub\n      swap1\n      revert\n    tag_109:\n        /* \"Contract.sol\":11702:11703  0 */\n      0x00\n        /* \"Contract.sol\":11651:11704  registeredUsers[msg.sender].userAddress == address(0) */\n      0xffffffffffffffffffffffffffffffffffffffff\n      and\n        /* \"Contract.sol\":11651:11666  registeredUsers */\n      0x05\n        /* \"Contract.sol\":11651:11678  registeredUsers[msg.sender] */\n      0x00\n        /* \"Contract.sol\":11667:11677  msg.sender */\n      caller\n        /* \"Contract.sol\":11651:11678  registeredUsers[msg.sender] */\n      0xffffffffffffffffffffffffffffffffffffffff\n      and\n      0xffffffffffffffffffffffffffffffffffffffff\n      and\n      dup2\n      mstore\n      0x20\n      add\n      swap1\n      dup2\n      mstore\n      0x20\n      add\n      0x00\n      keccak256\n        /* \"Contract.sol\":11651:11690  registeredUsers[msg.sender].userAddress */\n      0x01\n      add\n      0x00\n      swap1\n      sload\n      swap1\n      0x0100\n      exp\n      swap1\n      div\n      0xffffffffffffffffffffffffffffffffffffffff\n      and\n        /* \"Contract.sol\":11651:11704  registeredUsers[msg.sender].userAddress == address(0) */\n      0xffffffffffffffffffffffffffffffffffffffff\n      and\n      eq\n        /* \"Contract.sol\":11643:11735  require(registeredUsers[msg.sender].userAddress == address(0), \"You are already registered\") */\n      tag_113\n      jumpi\n      mload(0x40)\n      0x08c379a000000000000000000000000000000000000000000000000000000000\n      dup2\n      mstore\n      0x04\n      add\n      tag_114\n      swap1\n      tag_115\n      jump\t// in\n    tag_114:\n      mload(0x40)\n      dup1\n      swap2\n      sub\n      swap1\n      revert\n    tag_113:\n        /* \"Contract.sol\":11768:11775  1 ether */\n      0x0de0b6b3a7640000\n        /* \"Contract.sol\":11755:11764  msg.value */\n      callvalue\n        /* \"Contract.sol\":11755:11775  msg.value == 1 ether */\n      eq\n        /* \"Contract.sol\":11746:11820  require (msg.value == 1 ether, \"For regiter in game you need pay 1 ether\") */\n      tag_116\n      jumpi\n      mload(0x40)\n      0x08c379a000000000000000000000000000000000000000000000000000000000\n      dup2\n      mstore\n      0x04\n      add\n      tag_117\n      swap1\n      tag_118\n      jump\t// in\n    tag_117:\n      mload(0x40)\n      dup1\n      swap2\n      sub\n      swap1\n      revert\n    tag_116:\n        /* \"Contract.sol\":11863:11919  User(currentUserIdIndex, payable(msg.sender), inviterId) */\n      mload(0x40)\n      dup1\n      0x60\n      add\n      0x40\n      mstore\n      dup1\n        /* \"Contract.sol\":11868:11886  currentUserIdIndex */\n      sload(0x00)\n        /* \"Contract.sol\":11863:11919  User(currentUserIdIndex, payable(msg.sender), inviterId) */\n      dup2\n      mstore\n      0x20\n      add\n        /* \"Contract.sol\":11896:11906  msg.sender */\n      caller\n        /* \"Contract.sol\":11863:11919  User(currentUserIdIndex, payable(msg.sender), inviterId) */\n      0xffffffffffffffffffffffffffffffffffffffff\n      and\n      dup2\n      mstore\n      0x20\n      add\n        /* \"Contract.sol\":11909:11918  inviterId */\n      dup5\n        /* \"Contract.sol\":11863:11919  User(currentUserIdIndex, payable(msg.sender), inviterId) */\n      dup2\n      mstore\n      pop\n        /* \"Contract.sol\":11833:11848  registeredUsers */\n      0x05\n        /* \"Contract.sol\":11833:11860  registeredUsers[msg.sender] */\n      0x00\n        /* \"Contract.sol\":11849:11859  msg.sender */\n      caller\n        /* \"Contract.sol\":11833:11860  registeredUsers[msg.sender] */\n      0xffffffffffffffffffffffffffffffffffffffff\n      and\n      0xffffffffffffffffffffffffffffffffffffffff\n      and\n      dup2\n      mstore\n      0x20\n      add\n      swap1\n      dup2\n      mstore\n      0x20\n      add\n      0x00\n      keccak256\n        /* \"Contract.sol\":11833:11919  registeredUsers[msg.sender] = User(currentUserIdIndex, payable(msg.sender), inviterId) */\n      0x00\n      dup3\n      add\n      mload\n      dup2\n      0x00\n      add\n      sstore\n      0x20\n      dup3\n      add\n      mload\n      dup2\n      0x01\n      add\n      exp(0x0100, 0x00)\n      dup2\n      sload\n      dup2\n      0xffffffffffffffffffffffffffffffffffffffff\n      mul\n      not\n      and\n      swap1\n      dup4\n      0xffffffffffffffffffffffffffffffffffffffff\n      and\n      mul\n      or\n      swap1\n      sstore\n      pop\n      0x40\n      dup3\n      add\n      mload\n      dup2\n      0x02\n      add\n      sstore\n      swap1\n      pop\n      pop\n        /* \"Contract.sol\":11960:11970  msg.sender */\n      caller\n        /* \"Contract.sol\":11930:11937  usersId */\n      0x03\n        /* \"Contract.sol\":11930:11957  usersId[currentUserIdIndex] */\n      0x00\n        /* \"Contract.sol\":11938:11956  currentUserIdIndex */\n      dup1\n      sload\n        /* \"Contract.sol\":11930:11957  usersId[currentUserIdIndex] */\n      dup2\n      mstore\n      0x20\n      add\n      swap1\n      dup2\n      mstore\n      0x20\n      add\n      0x00\n      keccak256\n      0x00\n        /* \"Contract.sol\":11930:11970  usersId[currentUserIdIndex] = msg.sender */\n      0x0100\n      exp\n      dup2\n      sload\n      dup2\n      0xffffffffffffffffffffffffffffffffffffffff\n      mul\n      not\n      and\n      swap1\n      dup4\n      0xffffffffffffffffffffffffffffffffffffffff\n      and\n      mul\n      or\n      swap1\n      sstore\n      pop\n        /* \"Contract.sol\":12003:12004  1 */\n      0x01\n        /* \"Contract.sol\":11981:11999  currentUserIdIndex */\n      0x00\n      dup1\n        /* \"Contract.sol\":11981:12004  currentUserIdIndex += 1 */\n      dup3\n      dup3\n      sload\n      tag_119\n      swap2\n      swap1\n      tag_120\n      jump\t// in\n    tag_119:\n      swap3\n      pop\n      pop\n      dup2\n      swap1\n      sstore\n      pop\n        /* \"Contract.sol\":12047:12048  1 */\n      0x01\n        /* \"Contract.sol\":12015:12032  userPartnersCount */\n      0x04\n        /* \"Contract.sol\":12015:12043  userPartnersCount[inviterId] */\n      0x00\n        /* \"Contract.sol\":12033:12042  inviterId */\n      dup6\n        /* \"Contract.sol\":12015:12043  userPartnersCount[inviterId] */\n      dup2\n      mstore\n      0x20\n      add\n      swap1\n      dup2\n      mstore\n      0x20\n      add\n      0x00\n      keccak256\n      0x00\n        /* \"Contract.sol\":12015:12048  userPartnersCount[inviterId] += 1 */\n      dup3\n      dup3\n      sload\n      tag_121\n      swap2\n      swap1\n      tag_120\n      jump\t// in\n    tag_121:\n      swap3\n      pop\n      pop\n      dup2\n      swap1\n      sstore\n      pop\n        /* \"Contract.sol\":12066:12153  NewUserRegisteredEvent(currentUserIdIndex - 1, inviterId, userPartnersCount[inviterId]) */\n      0x12888a3214fa3b6d599e2a7d3ff41e8aa7ef1295fe3ba5d428825df6da086885\n        /* \"Contract.sol\":12110:12111  1 */\n      0x01\n        /* \"Contract.sol\":12089:12107  currentUserIdIndex */\n      sload(0x00)\n        /* \"Contract.sol\":12089:12111  currentUserIdIndex - 1 */\n      tag_122\n      swap2\n      swap1\n      tag_123\n      jump\t// in\n    tag_122:\n        /* \"Contract.sol\":12113:12122  inviterId */\n      dup5\n        /* \"Contract.sol\":12124:12141  userPartnersCount */\n      0x04\n        /* \"Contract.sol\":12124:12152  userPartnersCount[inviterId] */\n      0x00\n        /* \"Contract.sol\":12142:12151  inviterId */\n      dup8\n        /* \"Contract.sol\":12124:12152  userPartnersCount[inviterId] */\n      dup2\n      mstore\n      0x20\n      add\n      swap1\n      dup2\n      mstore\n      0x20\n      add\n      0x00\n      keccak256\n      sload\n        /* \"Contract.sol\":12066:12153  NewUserRegisteredEvent(currentUserIdIndex - 1, inviterId, userPartnersCount[inviterId]) */\n      mload(0x40)\n      tag_124\n      swap4\n      swap3\n      swap2\n      swap1\n      tag_125\n      jump\t// in\n    tag_124:\n      mload(0x40)\n      dup1\n      swap2\n      sub\n      swap1\n      log1\n        /* \"Contract.sol\":8809:9055  {\r... */\n      pop\n      pop\n        /* \"Contract.sol\":11472:12161  function registerUserToGame(uint256 inviterId) external payable noContractAccess {\r... */\n      pop\n      jump\t// out\n        /* \"Contract.sol\":7656:7704  mapping (address => User) public registeredUsers */\n    tag_33:\n      mstore(0x20, 0x05)\n      dup1\n      0x00\n      mstore\n      keccak256(0x00, 0x40)\n      0x00\n      swap2\n      pop\n      swap1\n      pop\n      dup1\n      0x00\n      add\n      sload\n      swap1\n      dup1\n      0x01\n      add\n      0x00\n      swap1\n      sload\n      swap1\n      0x0100\n      exp\n      swap1\n      div\n      0xffffffffffffffffffffffffffffffffffffffff\n      and\n      swap1\n      dup1\n      0x02\n      add\n      sload\n      swap1\n      pop\n      dup4\n      jump\t// out\n        /* \"Contract.sol\":8060:8121  mapping (address => mapping (uint8 => bool)) public userGames */\n    tag_40:\n      mstore(0x20, 0x09)\n      dup2\n      0x00\n      mstore\n      mstore(0x20, keccak256(0x00, 0x40))\n      dup1\n      0x00\n      mstore\n      keccak256(0x00, 0x40)\n      0x00\n      swap2\n      pop\n      swap2\n      pop\n      swap1\n      sload\n      swap1\n      0x0100\n      exp\n      swap1\n      div\n      0xff\n      and\n      dup2\n      jump\t// out\n        /* \"Contract.sol\":12169:12388  function joinToGame(uint8 gameId) external payable onlyRegistered {\r... */\n    tag_46:\n        /* \"Contract.sol\":8752:8753  0 */\n      0x00\n        /* \"Contract.sol\":8701:8754  registeredUsers[msg.sender].userAddress != address(0) */\n      0xffffffffffffffffffffffffffffffffffffffff\n      and\n        /* \"Contract.sol\":8701:8716  registeredUsers */\n      0x05\n        /* \"Contract.sol\":8701:8728  registeredUsers[msg.sender] */\n      0x00\n        /* \"Contract.sol\":8717:8727  msg.sender */\n      caller\n        /* \"Contract.sol\":8701:8728  registeredUsers[msg.sender] */\n      0xffffffffffffffffffffffffffffffffffffffff\n      and\n      0xffffffffffffffffffffffffffffffffffffffff\n      and\n      dup2\n      mstore\n      0x20\n      add\n      swap1\n      dup2\n      mstore\n      0x20\n      add\n      0x00\n      keccak256\n        /* \"Contract.sol\":8701:8740  registeredUsers[msg.sender].userAddress */\n      0x01\n      add\n      0x00\n      swap1\n      sload\n      swap1\n      0x0100\n      exp\n      swap1\n      div\n      0xffffffffffffffffffffffffffffffffffffffff\n      and\n        /* \"Contract.sol\":8701:8754  registeredUsers[msg.sender].userAddress != address(0) */\n      0xffffffffffffffffffffffffffffffffffffffff\n      and\n      eq\n      iszero\n        /* \"Contract.sol\":8693:8755  require(registeredUsers[msg.sender].userAddress != address(0)) */\n      tag_127\n      jumpi\n      0x00\n      dup1\n      revert\n    tag_127:\n        /* \"Contract.sol\":12338:12380  _joinToGame(gameId, msg.sender, msg.value) */\n      tag_129\n        /* \"Contract.sol\":12350:12356  gameId */\n      dup2\n        /* \"Contract.sol\":12358:12368  msg.sender */\n      caller\n        /* \"Contract.sol\":12370:12379  msg.value */\n      callvalue\n        /* \"Contract.sol\":12338:12349  _joinToGame */\n      tag_107\n        /* \"Contract.sol\":12338:12380  _joinToGame(gameId, msg.sender, msg.value) */\n      jump\t// in\n    tag_129:\n        /* \"Contract.sol\":12169:12388  function joinToGame(uint8 gameId) external payable onlyRegistered {\r... */\n      pop\n      jump\t// out\n        /* \"Contract.sol\":6633:6666  uint256 public currentUserIdIndex */\n    tag_49:\n      sload(0x00)\n      dup2\n      jump\t// out\n        /* \"Contract.sol\":7848:7905  mapping (uint8 => mapping (uint256 => User)) public pools */\n    tag_56:\n      mstore(0x20, 0x07)\n      dup2\n      0x00\n      mstore\n      mstore(0x20, keccak256(0x00, 0x40))\n      dup1\n      0x00\n      mstore\n      keccak256(0x00, 0x40)\n      0x00\n      swap2\n      pop\n      swap2\n      pop\n      pop\n      dup1\n      0x00\n      add\n      sload\n      swap1\n      dup1\n      0x01\n      add\n      0x00\n      swap1\n      sload\n      swap1\n      0x0100\n      exp\n      swap1\n      div\n      0xffffffffffffffffffffffffffffffffffffffff\n      and\n      swap1\n      dup1\n      0x02\n      add\n      sload\n      swap1\n      pop\n      dup4\n      jump\t// out\n        /* \"Contract.sol\":7409:7446  mapping (uint8 => Game) public levels */\n    tag_61:\n      mstore(0x20, 0x02)\n      dup1\n      0x00\n      mstore\n      keccak256(0x00, 0x40)\n      0x00\n      swap2\n      pop\n      swap1\n      pop\n      dup1\n      0x00\n      add\n      0x00\n      swap1\n      sload\n      swap1\n      0x0100\n      exp\n      swap1\n      div\n      0xff\n      and\n      swap1\n      dup1\n      0x01\n      add\n      sload\n      swap1\n      pop\n      dup3\n      jump\t// out\n        /* \"Contract.sol\":10858:11087  function hasAccess(address userAdress) public view returns(bool) {\r... */\n    tag_67:\n        /* \"Contract.sol\":10917:10921  bool */\n      0x00\n        /* \"Contract.sol\":11066:11079  contractOwner */\n      0x01\n      dup1\n      sload\n      swap1\n      0x0100\n      exp\n      swap1\n      div\n      0xffffffffffffffffffffffffffffffffffffffff\n      and\n        /* \"Contract.sol\":11052:11079  userAdress == contractOwner */\n      0xffffffffffffffffffffffffffffffffffffffff\n      and\n        /* \"Contract.sol\":11052:11062  userAdress */\n      dup3\n        /* \"Contract.sol\":11052:11079  userAdress == contractOwner */\n      0xffffffffffffffffffffffffffffffffffffffff\n      and\n      eq\n        /* \"Contract.sol\":11045:11079  return userAdress == contractOwner */\n      swap1\n      pop\n        /* \"Contract.sol\":10858:11087  function hasAccess(address userAdress) public view returns(bool) {\r... */\n      swap2\n      swap1\n      pop\n      jump\t// out\n        /* \"Contract.sol\":7759:7809  mapping (uint8 => uint256) public currentUserIndex */\n    tag_72:\n      mstore(0x20, 0x06)\n      dup1\n      0x00\n      mstore\n      keccak256(0x00, 0x40)\n      0x00\n      swap2\n      pop\n      swap1\n      pop\n      sload\n      dup2\n      jump\t// out\n        /* \"Contract.sol\":6702:6733  uint8 public currentGameIdIndex */\n    tag_76:\n      0x01\n      0x00\n      swap1\n      sload\n      swap1\n      0x0100\n      exp\n      swap1\n      div\n      0xff\n      and\n      dup2\n      jump\t// out\n        /* \"Contract.sol\":11095:11464  function addGameLevel(uint256 amountToPay) public onlyOwner {\r... */\n    tag_82:\n        /* \"Contract.sol\":9161:9182  hasAccess(msg.sender) */\n      tag_132\n        /* \"Contract.sol\":9171:9181  msg.sender */\n      caller\n        /* \"Contract.sol\":9161:9170  hasAccess */\n      tag_67\n        /* \"Contract.sol\":9161:9182  hasAccess(msg.sender) */\n      jump\t// in\n    tag_132:\n        /* \"Contract.sol\":9153:9204  require(hasAccess(msg.sender), \"You are not owner\") */\n      tag_133\n      jumpi\n      mload(0x40)\n      0x08c379a000000000000000000000000000000000000000000000000000000000\n      dup2\n      mstore\n      0x04\n      add\n      tag_134\n      swap1\n      tag_135\n      jump\t// in\n    tag_134:\n      mload(0x40)\n      dup1\n      swap2\n      sub\n      swap1\n      revert\n    tag_133:\n        /* \"Contract.sol\":11300:11362  Game({ gameId: currentGameIdIndex, amountToPay: amountToPay }) */\n      mload(0x40)\n      dup1\n      0x40\n      add\n      0x40\n      mstore\n      dup1\n        /* \"Contract.sol\":11315:11333  currentGameIdIndex */\n      0x01\n      0x00\n      swap1\n      sload\n      swap1\n      0x0100\n      exp\n      swap1\n      div\n      0xff\n      and\n        /* \"Contract.sol\":11300:11362  Game({ gameId: currentGameIdIndex, amountToPay: amountToPay }) */\n      0xff\n      and\n      dup2\n      mstore\n      0x20\n      add\n        /* \"Contract.sol\":11348:11359  amountToPay */\n      dup3\n        /* \"Contract.sol\":11300:11362  Game({ gameId: currentGameIdIndex, amountToPay: amountToPay }) */\n      dup2\n      mstore\n      pop\n        /* \"Contract.sol\":11271:11277  levels */\n      0x02\n        /* \"Contract.sol\":11271:11297  levels[currentGameIdIndex] */\n      0x00\n        /* \"Contract.sol\":11278:11296  currentGameIdIndex */\n      0x01\n      0x00\n      swap1\n      sload\n      swap1\n      0x0100\n      exp\n      swap1\n      div\n      0xff\n      and\n        /* \"Contract.sol\":11271:11297  levels[currentGameIdIndex] */\n      0xff\n      and\n      0xff\n      and\n      dup2\n      mstore\n      0x20\n      add\n      swap1\n      dup2\n      mstore\n      0x20\n      add\n      0x00\n      keccak256\n        /* \"Contract.sol\":11271:11362  levels[currentGameIdIndex] = Game({ gameId: currentGameIdIndex, amountToPay: amountToPay }) */\n      0x00\n      dup3\n      add\n      mload\n      dup2\n      0x00\n      add\n      exp(0x0100, 0x00)\n      dup2\n      sload\n      dup2\n      0xff\n      mul\n      not\n      and\n      swap1\n      dup4\n      0xff\n      and\n      mul\n      or\n      swap1\n      sstore\n      pop\n      0x20\n      dup3\n      add\n      mload\n      dup2\n      0x01\n      add\n      sstore\n      swap1\n      pop\n      pop\n        /* \"Contract.sol\":11395:11396  1 */\n      0x01\n        /* \"Contract.sol\":11373:11391  currentGameIdIndex */\n      dup1\n      0x00\n        /* \"Contract.sol\":11373:11396  currentGameIdIndex += 1 */\n      dup3\n      dup3\n      dup3\n      swap1\n      sload\n      swap1\n      0x0100\n      exp\n      swap1\n      div\n      0xff\n      and\n      tag_137\n      swap2\n      swap1\n      tag_99\n      jump\t// in\n    tag_137:\n      swap3\n      pop\n      0x0100\n      exp\n      dup2\n      sload\n      dup2\n      0xff\n      mul\n      not\n      and\n      swap1\n      dup4\n      0xff\n      and\n      mul\n      or\n      swap1\n      sstore\n      pop\n        /* \"Contract.sol\":11412:11456  NewGame( currentGameIdIndex-1, amountToPay ) */\n      0xcf1ed532d6b83b4290f2f407b156b17826f49752e7a8ff360f502c307e055663\n        /* \"Contract.sol\":11440:11441  1 */\n      0x01\n        /* \"Contract.sol\":11421:11439  currentGameIdIndex */\n      dup1\n      0x00\n      swap1\n      sload\n      swap1\n      0x0100\n      exp\n      swap1\n      div\n      0xff\n      and\n        /* \"Contract.sol\":11421:11441  currentGameIdIndex-1 */\n      tag_138\n      swap2\n      swap1\n      tag_139\n      jump\t// in\n    tag_138:\n        /* \"Contract.sol\":11443:11454  amountToPay */\n      dup3\n        /* \"Contract.sol\":11412:11456  NewGame( currentGameIdIndex-1, amountToPay ) */\n      mload(0x40)\n      tag_140\n      swap3\n      swap2\n      swap1\n      tag_63\n      jump\t// in\n    tag_140:\n      mload(0x40)\n      dup1\n      swap2\n      sub\n      swap1\n      log1\n        /* \"Contract.sol\":11095:11464  function addGameLevel(uint256 amountToPay) public onlyOwner {\r... */\n      pop\n      jump\t// out\n        /* \"Contract.sol\":7470:7513  mapping (uint256 => address) public usersId */\n    tag_86:\n      mstore(0x20, 0x03)\n      dup1\n      0x00\n      mstore\n      keccak256(0x00, 0x40)\n      0x00\n      swap2\n      pop\n      sload\n      swap1\n      0x0100\n      exp\n      swap1\n      div\n      0xffffffffffffffffffffffffffffffffffffffff\n      and\n      dup2\n      jump\t// out\n        /* \"Contract.sol\":7947:8014  mapping (address => mapping (uint8 => uint256)) public userPayments */\n    tag_92:\n      mstore(0x20, 0x08)\n      dup2\n      0x00\n      mstore\n      mstore(0x20, keccak256(0x00, 0x40))\n      dup1\n      0x00\n      mstore\n      keccak256(0x00, 0x40)\n      0x00\n      swap2\n      pop\n      swap2\n      pop\n      pop\n      sload\n      dup2\n      jump\t// out\n        /* \"Contract.sol\":12396:16094  function _joinToGame(uint8 gameId, address sender, uint256 value) internal {\r... */\n    tag_107:\n        /* \"Contract.sol\":12500:12506  levels */\n      0x02\n        /* \"Contract.sol\":12500:12514  levels[gameId] */\n      0x00\n        /* \"Contract.sol\":12507:12513  gameId */\n      dup5\n        /* \"Contract.sol\":12500:12514  levels[gameId] */\n      0xff\n      and\n      0xff\n      and\n      dup2\n      mstore\n      0x20\n      add\n      swap1\n      dup2\n      mstore\n      0x20\n      add\n      0x00\n      keccak256\n        /* \"Contract.sol\":12500:12526  levels[gameId].amountToPay */\n      0x01\n      add\n      sload\n        /* \"Contract.sol\":12491:12496  value */\n      dup2\n        /* \"Contract.sol\":12491:12526  value >= levels[gameId].amountToPay */\n      lt\n      iszero\n        /* \"Contract.sol\":12482:12566  require (value >= levels[gameId].amountToPay, \"Insufficient amount of contribution\") */\n      tag_142\n      jumpi\n      mload(0x40)\n      0x08c379a000000000000000000000000000000000000000000000000000000000\n      dup2\n      mstore\n      0x04\n      add\n      tag_143\n      swap1\n      tag_144\n      jump\t// in\n    tag_143:\n      mload(0x40)\n      dup1\n      swap2\n      sub\n      swap1\n      revert\n    tag_142:\n        /* \"Contract.sol\":12741:12756  registeredUsers */\n      0x05\n        /* \"Contract.sol\":12741:12764  registeredUsers[sender] */\n      0x00\n        /* \"Contract.sol\":12757:12763  sender */\n      dup4\n        /* \"Contract.sol\":12741:12764  registeredUsers[sender] */\n      0xffffffffffffffffffffffffffffffffffffffff\n      and\n      0xffffffffffffffffffffffffffffffffffffffff\n      and\n      dup2\n      mstore\n      0x20\n      add\n      swap1\n      dup2\n      mstore\n      0x20\n      add\n      0x00\n      keccak256\n        /* \"Contract.sol\":12699:12704  pools */\n      0x07\n        /* \"Contract.sol\":12699:12712  pools[gameId] */\n      0x00\n        /* \"Contract.sol\":12705:12711  gameId */\n      dup6\n        /* \"Contract.sol\":12699:12712  pools[gameId] */\n      0xff\n      and\n      0xff\n      and\n      dup2\n      mstore\n      0x20\n      add\n      swap1\n      dup2\n      mstore\n      0x20\n      add\n      0x00\n      keccak256\n        /* \"Contract.sol\":12699:12738  pools[gameId][currentUserIndex[gameId]] */\n      0x00\n        /* \"Contract.sol\":12713:12729  currentUserIndex */\n      0x06\n        /* \"Contract.sol\":12713:12737  currentUserIndex[gameId] */\n      0x00\n        /* \"Contract.sol\":12730:12736  gameId */\n      dup8\n        /* \"Contract.sol\":12713:12737  currentUserIndex[gameId] */\n      0xff\n      and\n      0xff\n      and\n      dup2\n      mstore\n      0x20\n      add\n      swap1\n      dup2\n      mstore\n      0x20\n      add\n      0x00\n      keccak256\n      sload\n        /* \"Contract.sol\":12699:12738  pools[gameId][currentUserIndex[gameId]] */\n      dup2\n      mstore\n      0x20\n      add\n      swap1\n      dup2\n      mstore\n      0x20\n      add\n      0x00\n      keccak256\n        /* \"Contract.sol\":12699:12764  pools[gameId][currentUserIndex[gameId]] = registeredUsers[sender] */\n      0x00\n      dup3\n      add\n      sload\n      dup2\n      0x00\n      add\n      sstore\n      0x01\n      dup3\n      add\n      0x00\n      swap1\n      sload\n      swap1\n      0x0100\n      exp\n      swap1\n      div\n      0xffffffffffffffffffffffffffffffffffffffff\n      and\n      dup2\n      0x01\n      add\n      exp(0x0100, 0x00)\n      dup2\n      sload\n      dup2\n      0xffffffffffffffffffffffffffffffffffffffff\n      mul\n      not\n      and\n      swap1\n      dup4\n      0xffffffffffffffffffffffffffffffffffffffff\n      and\n      mul\n      or\n      swap1\n      sstore\n      pop\n      0x02\n      dup3\n      add\n      sload\n      dup2\n      0x02\n      add\n      sstore\n      swap1\n      pop\n      pop\n        /* \"Contract.sol\":12803:12807  true */\n      0x01\n        /* \"Contract.sol\":12775:12784  userGames */\n      0x09\n        /* \"Contract.sol\":12775:12792  userGames[sender] */\n      0x00\n        /* \"Contract.sol\":12785:12791  sender */\n      dup5\n        /* \"Contract.sol\":12775:12792  userGames[sender] */\n      0xffffffffffffffffffffffffffffffffffffffff\n      and\n      0xffffffffffffffffffffffffffffffffffffffff\n      and\n      dup2\n      mstore\n      0x20\n      add\n      swap1\n      dup2\n      mstore\n      0x20\n      add\n      0x00\n      keccak256\n        /* \"Contract.sol\":12775:12800  userGames[sender][gameId] */\n      0x00\n        /* \"Contract.sol\":12793:12799  gameId */\n      dup6\n        /* \"Contract.sol\":12775:12800  userGames[sender][gameId] */\n      0xff\n      and\n      0xff\n      and\n      dup2\n      mstore\n      0x20\n      add\n      swap1\n      dup2\n      mstore\n      0x20\n      add\n      0x00\n      keccak256\n      0x00\n        /* \"Contract.sol\":12775:12807  userGames[sender][gameId] = true */\n      0x0100\n      exp\n      dup2\n      sload\n      dup2\n      0xff\n      mul\n      not\n      and\n      swap1\n      dup4\n      iszero\n      iszero\n      mul\n      or\n      swap1\n      sstore\n      pop\n        /* \"Contract.sol\":12846:12847  1 */\n      0x01\n        /* \"Contract.sol\":12818:12834  currentUserIndex */\n      0x06\n        /* \"Contract.sol\":12818:12842  currentUserIndex[gameId] */\n      0x00\n        /* \"Contract.sol\":12835:12841  gameId */\n      dup6\n        /* \"Contract.sol\":12818:12842  currentUserIndex[gameId] */\n      0xff\n      and\n      0xff\n      and\n      dup2\n      mstore\n      0x20\n      add\n      swap1\n      dup2\n      mstore\n      0x20\n      add\n      0x00\n      keccak256\n      0x00\n        /* \"Contract.sol\":12818:12847  currentUserIndex[gameId] += 1 */\n      dup3\n      dup3\n      sload\n      tag_145\n      swap2\n      swap1\n      tag_120\n      jump\t// in\n    tag_145:\n      swap3\n      pop\n      pop\n      dup2\n      swap1\n      sstore\n      pop\n        /* \"Contract.sol\":12991:12992  3 */\n      0x03\n        /* \"Contract.sol\":12963:12979  currentUserIndex */\n      0x06\n        /* \"Contract.sol\":12963:12987  currentUserIndex[gameId] */\n      0x00\n        /* \"Contract.sol\":12980:12986  gameId */\n      dup6\n        /* \"Contract.sol\":12963:12987  currentUserIndex[gameId] */\n      0xff\n      and\n      0xff\n      and\n      dup2\n      mstore\n      0x20\n      add\n      swap1\n      dup2\n      mstore\n      0x20\n      add\n      0x00\n      keccak256\n      sload\n        /* \"Contract.sol\":12963:12992  currentUserIndex[gameId] >= 3 */\n      lt\n        /* \"Contract.sol\":12959:16087  if (currentUserIndex[gameId] >= 3) {\r... */\n      tag_146\n      jumpi\n        /* \"Contract.sol\":13009:13026  uint256 userIndex */\n      0x00\n        /* \"Contract.sol\":13029:13074  culcNextWinnerIndex(currentUserIndex[gameId]) */\n      tag_147\n        /* \"Contract.sol\":13049:13065  currentUserIndex */\n      0x06\n        /* \"Contract.sol\":13049:13073  currentUserIndex[gameId] */\n      0x00\n        /* \"Contract.sol\":13066:13072  gameId */\n      dup7\n        /* \"Contract.sol\":13049:13073  currentUserIndex[gameId] */\n      0xff\n      and\n      0xff\n      and\n      dup2\n      mstore\n      0x20\n      add\n      swap1\n      dup2\n      mstore\n      0x20\n      add\n      0x00\n      keccak256\n      sload\n        /* \"Contract.sol\":13029:13048  culcNextWinnerIndex */\n      tag_148\n        /* \"Contract.sol\":13029:13074  culcNextWinnerIndex(currentUserIndex[gameId]) */\n      jump\t// in\n    tag_147:\n        /* \"Contract.sol\":13009:13074  uint256 userIndex = culcNextWinnerIndex(currentUserIndex[gameId]) */\n      swap1\n      pop\n        /* \"Contract.sol\":13215:16076  while (userIndex != 0) {\r... */\n    tag_149:\n        /* \"Contract.sol\":13235:13236  0 */\n      0x00\n        /* \"Contract.sol\":13222:13231  userIndex */\n      dup2\n        /* \"Contract.sol\":13222:13236  userIndex != 0 */\n      eq\n        /* \"Contract.sol\":13215:16076  while (userIndex != 0) {\r... */\n      tag_150\n      jumpi\n        /* \"Contract.sol\":13257:13280  address selectedAddress */\n      0x00\n        /* \"Contract.sol\":13283:13288  pools */\n      0x07\n        /* \"Contract.sol\":13283:13296  pools[gameId] */\n      0x00\n        /* \"Contract.sol\":13289:13295  gameId */\n      dup7\n        /* \"Contract.sol\":13283:13296  pools[gameId] */\n      0xff\n      and\n      0xff\n      and\n      dup2\n      mstore\n      0x20\n      add\n      swap1\n      dup2\n      mstore\n      0x20\n      add\n      0x00\n      keccak256\n        /* \"Contract.sol\":13283:13311  pools[gameId][userIndex - 1] */\n      0x00\n        /* \"Contract.sol\":13309:13310  1 */\n      0x01\n        /* \"Contract.sol\":13297:13306  userIndex */\n      dup5\n        /* \"Contract.sol\":13297:13310  userIndex - 1 */\n      tag_151\n      swap2\n      swap1\n      tag_123\n      jump\t// in\n    tag_151:\n        /* \"Contract.sol\":13283:13311  pools[gameId][userIndex - 1] */\n      dup2\n      mstore\n      0x20\n      add\n      swap1\n      dup2\n      mstore\n      0x20\n      add\n      0x00\n      keccak256\n        /* \"Contract.sol\":13283:13323  pools[gameId][userIndex - 1].userAddress */\n      0x01\n      add\n      0x00\n      swap1\n      sload\n      swap1\n      0x0100\n      exp\n      swap1\n      div\n      0xffffffffffffffffffffffffffffffffffffffff\n      and\n        /* \"Contract.sol\":13257:13323  address selectedAddress = pools[gameId][userIndex - 1].userAddress */\n      swap1\n      pop\n        /* \"Contract.sol\":13529:13530  1 */\n      0x01\n        /* \"Contract.sol\":13488:13500  userPayments */\n      0x08\n        /* \"Contract.sol\":13488:13517  userPayments[selectedAddress] */\n      0x00\n        /* \"Contract.sol\":13501:13516  selectedAddress */\n      dup4\n        /* \"Contract.sol\":13488:13517  userPayments[selectedAddress] */\n      0xffffffffffffffffffffffffffffffffffffffff\n      and\n      0xffffffffffffffffffffffffffffffffffffffff\n      and\n      dup2\n      mstore\n      0x20\n      add\n      swap1\n      dup2\n      mstore\n      0x20\n      add\n      0x00\n      keccak256\n        /* \"Contract.sol\":13488:13525  userPayments[selectedAddress][gameId] */\n      0x00\n        /* \"Contract.sol\":13518:13524  gameId */\n      dup8\n        /* \"Contract.sol\":13488:13525  userPayments[selectedAddress][gameId] */\n      0xff\n      and\n      0xff\n      and\n      dup2\n      mstore\n      0x20\n      add\n      swap1\n      dup2\n      mstore\n      0x20\n      add\n      0x00\n      keccak256\n      sload\n        /* \"Contract.sol\":13488:13530  userPayments[selectedAddress][gameId] <= 1 */\n      gt\n      iszero\n        /* \"Contract.sol\":13488:13570  userPayments[selectedAddress][gameId] <= 1 || userGames[selectedAddress][gameId+1] */\n      dup1\n      tag_152\n      jumpi\n      pop\n        /* \"Contract.sol\":13534:13543  userGames */\n      0x09\n        /* \"Contract.sol\":13534:13560  userGames[selectedAddress] */\n      0x00\n        /* \"Contract.sol\":13544:13559  selectedAddress */\n      dup3\n        /* \"Contract.sol\":13534:13560  userGames[selectedAddress] */\n      0xffffffffffffffffffffffffffffffffffffffff\n      and\n      0xffffffffffffffffffffffffffffffffffffffff\n      and\n      dup2\n      mstore\n      0x20\n      add\n      swap1\n      dup2\n      mstore\n      0x20\n      add\n      0x00\n      keccak256\n        /* \"Contract.sol\":13534:13570  userGames[selectedAddress][gameId+1] */\n      0x00\n        /* \"Contract.sol\":13568:13569  1 */\n      0x01\n        /* \"Contract.sol\":13561:13567  gameId */\n      dup8\n        /* \"Contract.sol\":13561:13569  gameId+1 */\n      tag_153\n      swap2\n      swap1\n      tag_99\n      jump\t// in\n    tag_153:\n        /* \"Contract.sol\":13534:13570  userGames[selectedAddress][gameId+1] */\n      0xff\n      and\n      0xff\n      and\n      dup2\n      mstore\n      0x20\n      add\n      swap1\n      dup2\n      mstore\n      0x20\n      add\n      0x00\n      keccak256\n      0x00\n      swap1\n      sload\n      swap1\n      0x0100\n      exp\n      swap1\n      div\n      0xff\n      and\n        /* \"Contract.sol\":13488:13570  userPayments[selectedAddress][gameId] <= 1 || userGames[selectedAddress][gameId+1] */\n    tag_152:\n        /* \"Contract.sol\":13484:16000  if (userPayments[selectedAddress][gameId] <= 1 || userGames[selectedAddress][gameId+1]) {\r... */\n      iszero\n      tag_154\n      jumpi\n        /* \"Contract.sol\":13772:13784  bool success */\n      0x00\n        /* \"Contract.sol\":13790:13805  selectedAddress */\n      dup2\n        /* \"Contract.sol\":13790:13810  selectedAddress.call */\n      0xffffffffffffffffffffffffffffffffffffffff\n      and\n        /* \"Contract.sol\":13818:13868  levels[gameId].amountToPay.mul(baseAward).div(100) */\n      tag_155\n        /* \"Contract.sol\":13864:13867  100 */\n      0x64\n        /* \"Contract.sol\":13818:13859  levels[gameId].amountToPay.mul(baseAward) */\n      tag_156\n        /* \"Contract.sol\":6822:6824  74 */\n      0x4a\n        /* \"Contract.sol\":13818:13824  levels */\n      0x02\n        /* \"Contract.sol\":13818:13832  levels[gameId] */\n      0x00\n        /* \"Contract.sol\":13825:13831  gameId */\n      dup13\n        /* \"Contract.sol\":13818:13832  levels[gameId] */\n      0xff\n      and\n      0xff\n      and\n      dup2\n      mstore\n      0x20\n      add\n      swap1\n      dup2\n      mstore\n      0x20\n      add\n      0x00\n      keccak256\n        /* \"Contract.sol\":13818:13844  levels[gameId].amountToPay */\n      0x01\n      add\n      sload\n        /* \"Contract.sol\":13818:13848  levels[gameId].amountToPay.mul */\n      tag_157\n      swap1\n        /* \"Contract.sol\":13818:13859  levels[gameId].amountToPay.mul(baseAward) */\n      swap2\n      swap1\n      0xffffffff\n      and\n      jump\t// in\n    tag_156:\n        /* \"Contract.sol\":13818:13863  levels[gameId].amountToPay.mul(baseAward).div */\n      tag_158\n      swap1\n        /* \"Contract.sol\":13818:13868  levels[gameId].amountToPay.mul(baseAward).div(100) */\n      swap2\n      swap1\n      0xffffffff\n      and\n      jump\t// in\n    tag_155:\n        /* \"Contract.sol\":13790:13873  selectedAddress.call{value: levels[gameId].amountToPay.mul(baseAward).div(100)}(\"\") */\n      mload(0x40)\n      tag_159\n      swap1\n      tag_160\n      jump\t// in\n    tag_159:\n      0x00\n      mload(0x40)\n      dup1\n      dup4\n      sub\n      dup2\n      dup6\n      dup8\n      gas\n      call\n      swap3\n      pop\n      pop\n      pop\n      returndatasize\n      dup1\n      0x00\n      dup2\n      eq\n      tag_163\n      jumpi\n      mload(0x40)\n      swap2\n      pop\n      and(add(returndatasize, 0x3f), not(0x1f))\n      dup3\n      add\n      0x40\n      mstore\n      returndatasize\n      dup3\n      mstore\n      returndatasize\n      0x00\n      0x20\n      dup5\n      add\n      returndatacopy\n      jump(tag_162)\n    tag_163:\n      0x60\n      swap2\n      pop\n    tag_162:\n      pop\n        /* \"Contract.sol\":13771:13873  (bool success, ) = selectedAddress.call{value: levels[gameId].amountToPay.mul(baseAward).div(100)}(\"\") */\n      pop\n      swap1\n      pop\n        /* \"Contract.sol\":13937:13938  1 */\n      0x01\n        /* \"Contract.sol\":13896:13908  userPayments */\n      0x08\n        /* \"Contract.sol\":13896:13925  userPayments[selectedAddress] */\n      0x00\n        /* \"Contract.sol\":13909:13924  selectedAddress */\n      dup5\n        /* \"Contract.sol\":13896:13925  userPayments[selectedAddress] */\n      0xffffffffffffffffffffffffffffffffffffffff\n      and\n      0xffffffffffffffffffffffffffffffffffffffff\n      and\n      dup2\n      mstore\n      0x20\n      add\n      swap1\n      dup2\n      mstore\n      0x20\n      add\n      0x00\n      keccak256\n        /* \"Contract.sol\":13896:13933  userPayments[selectedAddress][gameId] */\n      0x00\n        /* \"Contract.sol\":13926:13932  gameId */\n      dup9\n        /* \"Contract.sol\":13896:13933  userPayments[selectedAddress][gameId] */\n      0xff\n      and\n      0xff\n      and\n      dup2\n      mstore\n      0x20\n      add\n      swap1\n      dup2\n      mstore\n      0x20\n      add\n      0x00\n      keccak256\n      0x00\n        /* \"Contract.sol\":13896:13938  userPayments[selectedAddress][gameId] += 1 */\n      dup3\n      dup3\n      sload\n      tag_164\n      swap2\n      swap1\n      tag_120\n      jump\t// in\n    tag_164:\n      swap3\n      pop\n      pop\n      dup2\n      swap1\n      sstore\n      pop\n        /* \"Contract.sol\":14020:14085  GamePaymentEvent(levels[gameId].gameId, selectedAddress, success) */\n      0xd9ff1d189bd8473f87a70327222795b92238d06f3edf14fa23403ac2153c10a9\n        /* \"Contract.sol\":14037:14043  levels */\n      0x02\n        /* \"Contract.sol\":14037:14051  levels[gameId] */\n      0x00\n        /* \"Contract.sol\":14044:14050  gameId */\n      dup9\n        /* \"Contract.sol\":14037:14051  levels[gameId] */\n      0xff\n      and\n      0xff\n      and\n      dup2\n      mstore\n      0x20\n      add\n      swap1\n      dup2\n      mstore\n      0x20\n      add\n      0x00\n      keccak256\n        /* \"Contract.sol\":14037:14058  levels[gameId].gameId */\n      0x00\n      add\n      0x00\n      swap1\n      sload\n      swap1\n      0x0100\n      exp\n      swap1\n      div\n      0xff\n      and\n        /* \"Contract.sol\":14060:14075  selectedAddress */\n      dup4\n        /* \"Contract.sol\":14077:14084  success */\n      dup4\n        /* \"Contract.sol\":14020:14085  GamePaymentEvent(levels[gameId].gameId, selectedAddress, success) */\n      mload(0x40)\n      tag_165\n      swap4\n      swap3\n      swap2\n      swap1\n      tag_166\n      jump\t// in\n    tag_165:\n      mload(0x40)\n      dup1\n      swap2\n      sub\n      swap1\n      log1\n        /* \"Contract.sol\":14110:14124  uint256 userId */\n      0x00\n        /* \"Contract.sol\":14127:14132  pools */\n      0x07\n        /* \"Contract.sol\":14127:14140  pools[gameId] */\n      0x00\n        /* \"Contract.sol\":14133:14139  gameId */\n      dup9\n        /* \"Contract.sol\":14127:14140  pools[gameId] */\n      0xff\n      and\n      0xff\n      and\n      dup2\n      mstore\n      0x20\n      add\n      swap1\n      dup2\n      mstore\n      0x20\n      add\n      0x00\n      keccak256\n        /* \"Contract.sol\":14127:14155  pools[gameId][userIndex - 1] */\n      0x00\n        /* \"Contract.sol\":14153:14154  1 */\n      0x01\n        /* \"Contract.sol\":14141:14150  userIndex */\n      dup7\n        /* \"Contract.sol\":14141:14154  userIndex - 1 */\n      tag_167\n      swap2\n      swap1\n      tag_123\n      jump\t// in\n    tag_167:\n        /* \"Contract.sol\":14127:14155  pools[gameId][userIndex - 1] */\n      dup2\n      mstore\n      0x20\n      add\n      swap1\n      dup2\n      mstore\n      0x20\n      add\n      0x00\n      keccak256\n        /* \"Contract.sol\":14127:14162  pools[gameId][userIndex - 1].userId */\n      0x00\n      add\n      sload\n        /* \"Contract.sol\":14110:14162  uint256 userId = pools[gameId][userIndex - 1].userId */\n      swap1\n      pop\n        /* \"Contract.sol\":14214:14231  uint256 invitedId */\n      0x00\n        /* \"Contract.sol\":14234:14239  pools */\n      0x07\n        /* \"Contract.sol\":14234:14247  pools[gameId] */\n      0x00\n        /* \"Contract.sol\":14240:14246  gameId */\n      dup10\n        /* \"Contract.sol\":14234:14247  pools[gameId] */\n      0xff\n      and\n      0xff\n      and\n      dup2\n      mstore\n      0x20\n      add\n      swap1\n      dup2\n      mstore\n      0x20\n      add\n      0x00\n      keccak256\n        /* \"Contract.sol\":14234:14262  pools[gameId][userIndex - 1] */\n      0x00\n        /* \"Contract.sol\":14260:14261  1 */\n      0x01\n        /* \"Contract.sol\":14248:14257  userIndex */\n      dup8\n        /* \"Contract.sol\":14248:14261  userIndex - 1 */\n      tag_168\n      swap2\n      swap1\n      tag_123\n      jump\t// in\n    tag_168:\n        /* \"Contract.sol\":14234:14262  pools[gameId][userIndex - 1] */\n      dup2\n      mstore\n      0x20\n      add\n      swap1\n      dup2\n      mstore\n      0x20\n      add\n      0x00\n      keccak256\n        /* \"Contract.sol\":14234:14272  pools[gameId][userIndex - 1].invitedId */\n      0x02\n      add\n      sload\n        /* \"Contract.sol\":14214:14272  uint256 invitedId = pools[gameId][userIndex - 1].invitedId */\n      swap1\n      pop\n        /* \"Contract.sol\":14332:14345  uint refValue */\n      0x00\n        /* \"Contract.sol\":14348:14406  levels[gameId].amountToPay.mul(firstLevelReferal).div(100) */\n      tag_169\n        /* \"Contract.sol\":14402:14405  100 */\n      0x64\n        /* \"Contract.sol\":14348:14397  levels[gameId].amountToPay.mul(firstLevelReferal) */\n      tag_170\n        /* \"Contract.sol\":6885:6887  10 */\n      0x0a\n        /* \"Contract.sol\":14348:14354  levels */\n      0x02\n        /* \"Contract.sol\":14348:14362  levels[gameId] */\n      0x00\n        /* \"Contract.sol\":14355:14361  gameId */\n      dup15\n        /* \"Contract.sol\":14348:14362  levels[gameId] */\n      0xff\n      and\n      0xff\n      and\n      dup2\n      mstore\n      0x20\n      add\n      swap1\n      dup2\n      mstore\n      0x20\n      add\n      0x00\n      keccak256\n        /* \"Contract.sol\":14348:14374  levels[gameId].amountToPay */\n      0x01\n      add\n      sload\n        /* \"Contract.sol\":14348:14378  levels[gameId].amountToPay.mul */\n      tag_157\n      swap1\n        /* \"Contract.sol\":14348:14397  levels[gameId].amountToPay.mul(firstLevelReferal) */\n      swap2\n      swap1\n      0xffffffff\n      and\n      jump\t// in\n    tag_170:\n        /* \"Contract.sol\":14348:14401  levels[gameId].amountToPay.mul(firstLevelReferal).div */\n      tag_158\n      swap1\n        /* \"Contract.sol\":14348:14406  levels[gameId].amountToPay.mul(firstLevelReferal).div(100) */\n      swap2\n      swap1\n      0xffffffff\n      and\n      jump\t// in\n    tag_169:\n        /* \"Contract.sol\":14332:14406  uint refValue = levels[gameId].amountToPay.mul(firstLevelReferal).div(100) */\n      swap1\n      pop\n        /* \"Contract.sol\":14468:14475  usersId */\n      0x03\n        /* \"Contract.sol\":14468:14486  usersId[invitedId] */\n      0x00\n        /* \"Contract.sol\":14476:14485  invitedId */\n      dup4\n        /* \"Contract.sol\":14468:14486  usersId[invitedId] */\n      dup2\n      mstore\n      0x20\n      add\n      swap1\n      dup2\n      mstore\n      0x20\n      add\n      0x00\n      keccak256\n      0x00\n      swap1\n      sload\n      swap1\n      0x0100\n      exp\n      swap1\n      div\n      0xffffffffffffffffffffffffffffffffffffffff\n      and\n        /* \"Contract.sol\":14468:14491  usersId[invitedId].call */\n      0xffffffffffffffffffffffffffffffffffffffff\n      and\n        /* \"Contract.sol\":14499:14507  refValue */\n      dup2\n        /* \"Contract.sol\":14468:14512  usersId[invitedId].call{value: refValue}(\"\") */\n      mload(0x40)\n      tag_171\n      swap1\n      tag_160\n      jump\t// in\n    tag_171:\n      0x00\n      mload(0x40)\n      dup1\n      dup4\n      sub\n      dup2\n      dup6\n      dup8\n      gas\n      call\n      swap3\n      pop\n      pop\n      pop\n      returndatasize\n      dup1\n      0x00\n      dup2\n      eq\n      tag_174\n      jumpi\n      mload(0x40)\n      swap2\n      pop\n      and(add(returndatasize, 0x3f), not(0x1f))\n      dup3\n      add\n      0x40\n      mstore\n      returndatasize\n      dup3\n      mstore\n      returndatasize\n      0x00\n      0x20\n      dup5\n      add\n      returndatacopy\n      jump(tag_173)\n    tag_174:\n      0x60\n      swap2\n      pop\n    tag_173:\n      pop\n        /* \"Contract.sol\":14454:14512  (success, ) = usersId[invitedId].call{value: refValue}(\"\") */\n      pop\n      dup1\n      swap5\n      pop\n      pop\n        /* \"Contract.sol\":14541:14548  success */\n      dup4\n        /* \"Contract.sol\":14537:14626  if (success) emit ReferalPaymentEvent(levels[gameId].gameId, userId, invitedId, refValue) */\n      iszero\n      tag_175\n      jumpi\n        /* \"Contract.sol\":14555:14626  ReferalPaymentEvent(levels[gameId].gameId, userId, invitedId, refValue) */\n      0xafe90bc52fc3dd02b2550b825fc68e93b4bfbcb8165bbacda6cd14b2bad5bc02\n        /* \"Contract.sol\":14575:14581  levels */\n      0x02\n        /* \"Contract.sol\":14575:14589  levels[gameId] */\n      0x00\n        /* \"Contract.sol\":14582:14588  gameId */\n      dup12\n        /* \"Contract.sol\":14575:14589  levels[gameId] */\n      0xff\n      and\n      0xff\n      and\n      dup2\n      mstore\n      0x20\n      add\n      swap1\n      dup2\n      mstore\n      0x20\n      add\n      0x00\n      keccak256\n        /* \"Contract.sol\":14575:14596  levels[gameId].gameId */\n      0x00\n      add\n      0x00\n      swap1\n      sload\n      swap1\n      0x0100\n      exp\n      swap1\n      div\n      0xff\n      and\n        /* \"Contract.sol\":14598:14604  userId */\n      dup5\n        /* \"Contract.sol\":14606:14615  invitedId */\n      dup5\n        /* \"Contract.sol\":14617:14625  refValue */\n      dup5\n        /* \"Contract.sol\":14555:14626  ReferalPaymentEvent(levels[gameId].gameId, userId, invitedId, refValue) */\n      mload(0x40)\n      tag_176\n      swap5\n      swap4\n      swap3\n      swap2\n      swap1\n      tag_177\n      jump\t// in\n    tag_176:\n      mload(0x40)\n      dup1\n      swap2\n      sub\n      swap1\n      log1\n        /* \"Contract.sol\":14537:14626  if (success) emit ReferalPaymentEvent(levels[gameId].gameId, userId, invitedId, refValue) */\n    tag_175:\n        /* \"Contract.sol\":14662:14721  levels[gameId].amountToPay.mul(secondLevelReferal).div(100) */\n      tag_178\n        /* \"Contract.sol\":14717:14720  100 */\n      0x64\n        /* \"Contract.sol\":14662:14712  levels[gameId].amountToPay.mul(secondLevelReferal) */\n      tag_179\n        /* \"Contract.sol\":6962:6963  6 */\n      0x06\n        /* \"Contract.sol\":14662:14668  levels */\n      0x02\n        /* \"Contract.sol\":14662:14676  levels[gameId] */\n      0x00\n        /* \"Contract.sol\":14669:14675  gameId */\n      dup15\n        /* \"Contract.sol\":14662:14676  levels[gameId] */\n      0xff\n      and\n      0xff\n      and\n      dup2\n      mstore\n      0x20\n      add\n      swap1\n      dup2\n      mstore\n      0x20\n      add\n      0x00\n      keccak256\n        /* \"Contract.sol\":14662:14688  levels[gameId].amountToPay */\n      0x01\n      add\n      sload\n        /* \"Contract.sol\":14662:14692  levels[gameId].amountToPay.mul */\n      tag_157\n      swap1\n        /* \"Contract.sol\":14662:14712  levels[gameId].amountToPay.mul(secondLevelReferal) */\n      swap2\n      swap1\n      0xffffffff\n      and\n      jump\t// in\n    tag_179:\n        /* \"Contract.sol\":14662:14716  levels[gameId].amountToPay.mul(secondLevelReferal).div */\n      tag_158\n      swap1\n        /* \"Contract.sol\":14662:14721  levels[gameId].amountToPay.mul(secondLevelReferal).div(100) */\n      swap2\n      swap1\n      0xffffffff\n      and\n      jump\t// in\n    tag_178:\n        /* \"Contract.sol\":14651:14721  refValue = levels[gameId].amountToPay.mul(secondLevelReferal).div(100) */\n      swap1\n      pop\n        /* \"Contract.sol\":14782:14797  registeredUsers */\n      0x05\n        /* \"Contract.sol\":14782:14817  registeredUsers[usersId[invitedId]] */\n      0x00\n        /* \"Contract.sol\":14798:14805  usersId */\n      0x03\n        /* \"Contract.sol\":14798:14816  usersId[invitedId] */\n      0x00\n        /* \"Contract.sol\":14806:14815  invitedId */\n      dup6\n        /* \"Contract.sol\":14798:14816  usersId[invitedId] */\n      dup2\n      mstore\n      0x20\n      add\n      swap1\n      dup2\n      mstore\n      0x20\n      add\n      0x00\n      keccak256\n      0x00\n      swap1\n      sload\n      swap1\n      0x0100\n      exp\n      swap1\n      div\n      0xffffffffffffffffffffffffffffffffffffffff\n      and\n        /* \"Contract.sol\":14782:14817  registeredUsers[usersId[invitedId]] */\n      0xffffffffffffffffffffffffffffffffffffffff\n      and\n      0xffffffffffffffffffffffffffffffffffffffff\n      and\n      dup2\n      mstore\n      0x20\n      add\n      swap1\n      dup2\n      mstore\n      0x20\n      add\n      0x00\n      keccak256\n        /* \"Contract.sol\":14782:14829  registeredUsers[usersId[invitedId]].userAddress */\n      0x01\n      add\n      0x00\n      swap1\n      sload\n      swap1\n      0x0100\n      exp\n      swap1\n      div\n      0xffffffffffffffffffffffffffffffffffffffff\n      and\n        /* \"Contract.sol\":14782:14834  registeredUsers[usersId[invitedId]].userAddress.call */\n      0xffffffffffffffffffffffffffffffffffffffff\n      and\n        /* \"Contract.sol\":14842:14850  refValue */\n      dup2\n        /* \"Contract.sol\":14782:14855  registeredUsers[usersId[invitedId]].userAddress.call{value: refValue}(\"\") */\n      mload(0x40)\n      tag_180\n      swap1\n      tag_160\n      jump\t// in\n    tag_180:\n      0x00\n      mload(0x40)\n      dup1\n      dup4\n      sub\n      dup2\n      dup6\n      dup8\n      gas\n      call\n      swap3\n      pop\n      pop\n      pop\n      returndatasize\n      dup1\n      0x00\n      dup2\n      eq\n      tag_183\n      jumpi\n      mload(0x40)\n      swap2\n      pop\n      and(add(returndatasize, 0x3f), not(0x1f))\n      dup3\n      add\n      0x40\n      mstore\n      returndatasize\n      dup3\n      mstore\n      returndatasize\n      0x00\n      0x20\n      dup5\n      add\n      returndatacopy\n      jump(tag_182)\n    tag_183:\n      0x60\n      swap2\n      pop\n    tag_182:\n      pop\n        /* \"Contract.sol\":14768:14855  (success, ) = registeredUsers[usersId[invitedId]].userAddress.call{value: refValue}(\"\") */\n      pop\n      dup1\n      swap5\n      pop\n      pop\n        /* \"Contract.sol\":14910:14917  success */\n      dup4\n        /* \"Contract.sol\":14906:15031  if (success) emit ReferalPaymentEvent(levels[gameId].gameId, invitedId, registeredUsers[usersId[invitedId]].userId, refValue) */\n      iszero\n      tag_184\n      jumpi\n        /* \"Contract.sol\":14924:15031  ReferalPaymentEvent(levels[gameId].gameId, invitedId, registeredUsers[usersId[invitedId]].userId, refValue) */\n      0xafe90bc52fc3dd02b2550b825fc68e93b4bfbcb8165bbacda6cd14b2bad5bc02\n        /* \"Contract.sol\":14944:14950  levels */\n      0x02\n        /* \"Contract.sol\":14944:14958  levels[gameId] */\n      0x00\n        /* \"Contract.sol\":14951:14957  gameId */\n      dup12\n        /* \"Contract.sol\":14944:14958  levels[gameId] */\n      0xff\n      and\n      0xff\n      and\n      dup2\n      mstore\n      0x20\n      add\n      swap1\n      dup2\n      mstore\n      0x20\n      add\n      0x00\n      keccak256\n        /* \"Contract.sol\":14944:14965  levels[gameId].gameId */\n      0x00\n      add\n      0x00\n      swap1\n      sload\n      swap1\n      0x0100\n      exp\n      swap1\n      div\n      0xff\n      and\n        /* \"Contract.sol\":14967:14976  invitedId */\n      dup4\n        /* \"Contract.sol\":14978:14993  registeredUsers */\n      0x05\n        /* \"Contract.sol\":14978:15013  registeredUsers[usersId[invitedId]] */\n      0x00\n        /* \"Contract.sol\":14994:15001  usersId */\n      0x03\n        /* \"Contract.sol\":14994:15012  usersId[invitedId] */\n      0x00\n        /* \"Contract.sol\":15002:15011  invitedId */\n      dup9\n        /* \"Contract.sol\":14994:15012  usersId[invitedId] */\n      dup2\n      mstore\n      0x20\n      add\n      swap1\n      dup2\n      mstore\n      0x20\n      add\n      0x00\n      keccak256\n      0x00\n      swap1\n      sload\n      swap1\n      0x0100\n      exp\n      swap1\n      div\n      0xffffffffffffffffffffffffffffffffffffffff\n      and\n        /* \"Contract.sol\":14978:15013  registeredUsers[usersId[invitedId]] */\n      0xffffffffffffffffffffffffffffffffffffffff\n      and\n      0xffffffffffffffffffffffffffffffffffffffff\n      and\n      dup2\n      mstore\n      0x20\n      add\n      swap1\n      dup2\n      mstore\n      0x20\n      add\n      0x00\n      keccak256\n        /* \"Contract.sol\":14978:15020  registeredUsers[usersId[invitedId]].userId */\n      0x00\n      add\n      sload\n        /* \"Contract.sol\":15022:15030  refValue */\n      dup5\n        /* \"Contract.sol\":14924:15031  ReferalPaymentEvent(levels[gameId].gameId, invitedId, registeredUsers[usersId[invitedId]].userId, refValue) */\n      mload(0x40)\n      tag_185\n      swap5\n      swap4\n      swap3\n      swap2\n      swap1\n      tag_177\n      jump\t// in\n    tag_185:\n      mload(0x40)\n      dup1\n      swap2\n      sub\n      swap1\n      log1\n        /* \"Contract.sol\":14906:15031  if (success) emit ReferalPaymentEvent(levels[gameId].gameId, invitedId, registeredUsers[usersId[invitedId]].userId, refValue) */\n    tag_184:\n        /* \"Contract.sol\":15067:15125  levels[gameId].amountToPay.mul(thirdLevelReferal).div(100) */\n      tag_186\n        /* \"Contract.sol\":15121:15124  100 */\n      0x64\n        /* \"Contract.sol\":15067:15116  levels[gameId].amountToPay.mul(thirdLevelReferal) */\n      tag_187\n        /* \"Contract.sol\":7037:7038  4 */\n      0x04\n        /* \"Contract.sol\":15067:15073  levels */\n      0x02\n        /* \"Contract.sol\":15067:15081  levels[gameId] */\n      0x00\n        /* \"Contract.sol\":15074:15080  gameId */\n      dup15\n        /* \"Contract.sol\":15067:15081  levels[gameId] */\n      0xff\n      and\n      0xff\n      and\n      dup2\n      mstore\n      0x20\n      add\n      swap1\n      dup2\n      mstore\n      0x20\n      add\n      0x00\n      keccak256\n        /* \"Contract.sol\":15067:15093  levels[gameId].amountToPay */\n      0x01\n      add\n      sload\n        /* \"Contract.sol\":15067:15097  levels[gameId].amountToPay.mul */\n      tag_157\n      swap1\n        /* \"Contract.sol\":15067:15116  levels[gameId].amountToPay.mul(thirdLevelReferal) */\n      swap2\n      swap1\n      0xffffffff\n      and\n      jump\t// in\n    tag_187:\n        /* \"Contract.sol\":15067:15120  levels[gameId].amountToPay.mul(thirdLevelReferal).div */\n      tag_158\n      swap1\n        /* \"Contract.sol\":15067:15125  levels[gameId].amountToPay.mul(thirdLevelReferal).div(100) */\n      swap2\n      swap1\n      0xffffffff\n      and\n      jump\t// in\n    tag_186:\n        /* \"Contract.sol\":15056:15125  refValue = levels[gameId].amountToPay.mul(thirdLevelReferal).div(100) */\n      swap1\n      pop\n        /* \"Contract.sol\":15185:15200  registeredUsers */\n      0x05\n        /* \"Contract.sol\":15185:15253  registeredUsers[usersId[registeredUsers[usersId[invitedId]].userId]] */\n      0x00\n        /* \"Contract.sol\":15201:15208  usersId */\n      0x03\n        /* \"Contract.sol\":15201:15252  usersId[registeredUsers[usersId[invitedId]].userId] */\n      0x00\n        /* \"Contract.sol\":15209:15224  registeredUsers */\n      0x05\n        /* \"Contract.sol\":15209:15244  registeredUsers[usersId[invitedId]] */\n      0x00\n        /* \"Contract.sol\":15225:15232  usersId */\n      0x03\n        /* \"Contract.sol\":15225:15243  usersId[invitedId] */\n      0x00\n        /* \"Contract.sol\":15233:15242  invitedId */\n      dup10\n        /* \"Contract.sol\":15225:15243  usersId[invitedId] */\n      dup2\n      mstore\n      0x20\n      add\n      swap1\n      dup2\n      mstore\n      0x20\n      add\n      0x00\n      keccak256\n      0x00\n      swap1\n      sload\n      swap1\n      0x0100\n      exp\n      swap1\n      div\n      0xffffffffffffffffffffffffffffffffffffffff\n      and\n        /* \"Contract.sol\":15209:15244  registeredUsers[usersId[invitedId]] */\n      0xffffffffffffffffffffffffffffffffffffffff\n      and\n      0xffffffffffffffffffffffffffffffffffffffff\n      and\n      dup2\n      mstore\n      0x20\n      add\n      swap1\n      dup2\n      mstore\n      0x20\n      add\n      0x00\n      keccak256\n        /* \"Contract.sol\":15209:15251  registeredUsers[usersId[invitedId]].userId */\n      0x00\n      add\n      sload\n        /* \"Contract.sol\":15201:15252  usersId[registeredUsers[usersId[invitedId]].userId] */\n      dup2\n      mstore\n      0x20\n      add\n      swap1\n      dup2\n      mstore\n      0x20\n      add\n      0x00\n      keccak256\n      0x00\n      swap1\n      sload\n      swap1\n      0x0100\n      exp\n      swap1\n      div\n      0xffffffffffffffffffffffffffffffffffffffff\n      and\n        /* \"Contract.sol\":15185:15253  registeredUsers[usersId[registeredUsers[usersId[invitedId]].userId]] */\n      0xffffffffffffffffffffffffffffffffffffffff\n      and\n      0xffffffffffffffffffffffffffffffffffffffff\n      and\n      dup2\n      mstore\n      0x20\n      add\n      swap1\n      dup2\n      mstore\n      0x20\n      add\n      0x00\n      keccak256\n        /* \"Contract.sol\":15185:15265  registeredUsers[usersId[registeredUsers[usersId[invitedId]].userId]].userAddress */\n      0x01\n      add\n      0x00\n      swap1\n      sload\n      swap1\n      0x0100\n      exp\n      swap1\n      div\n      0xffffffffffffffffffffffffffffffffffffffff\n      and\n        /* \"Contract.sol\":15185:15270  registeredUsers[usersId[registeredUsers[usersId[invitedId]].userId]].userAddress.call */\n      0xffffffffffffffffffffffffffffffffffffffff\n      and\n        /* \"Contract.sol\":15278:15286  refValue */\n      dup2\n        /* \"Contract.sol\":15185:15291  registeredUsers[usersId[registeredUsers[usersId[invitedId]].userId]].userAddress.call{value: refValue}(\"\") */\n      mload(0x40)\n      tag_188\n      swap1\n      tag_160\n      jump\t// in\n    tag_188:\n      0x00\n      mload(0x40)\n      dup1\n      dup4\n      sub\n      dup2\n      dup6\n      dup8\n      gas\n      call\n      swap3\n      pop\n      pop\n      pop\n      returndatasize\n      dup1\n      0x00\n      dup2\n      eq\n      tag_191\n      jumpi\n      mload(0x40)\n      swap2\n      pop\n      and(add(returndatasize, 0x3f), not(0x1f))\n      dup3\n      add\n      0x40\n      mstore\n      returndatasize\n      dup3\n      mstore\n      returndatasize\n      0x00\n      0x20\n      dup5\n      add\n      returndatacopy\n      jump(tag_190)\n    tag_191:\n      0x60\n      swap2\n      pop\n    tag_190:\n      pop\n        /* \"Contract.sol\":15171:15291  (success, ) = registeredUsers[usersId[registeredUsers[usersId[invitedId]].userId]].userAddress.call{value: refValue}(\"\") */\n      pop\n      dup1\n      swap5\n      pop\n      pop\n        /* \"Contract.sol\":15320:15327  success */\n      dup4\n        /* \"Contract.sol\":15316:15507  if (success) emit ReferalPaymentEvent(levels[gameId].gameId, registeredUsers[usersId[invitedId]].userId, registeredUsers[usersId[registeredUsers[usersId[invitedId]].userId]].userId, refValue) */\n      iszero\n      tag_192\n      jumpi\n        /* \"Contract.sol\":15334:15507  ReferalPaymentEvent(levels[gameId].gameId, registeredUsers[usersId[invitedId]].userId, registeredUsers[usersId[registeredUsers[usersId[invitedId]].userId]].userId, refValue) */\n      0xafe90bc52fc3dd02b2550b825fc68e93b4bfbcb8165bbacda6cd14b2bad5bc02\n        /* \"Contract.sol\":15354:15360  levels */\n      0x02\n        /* \"Contract.sol\":15354:15368  levels[gameId] */\n      0x00\n        /* \"Contract.sol\":15361:15367  gameId */\n      dup12\n        /* \"Contract.sol\":15354:15368  levels[gameId] */\n      0xff\n      and\n      0xff\n      and\n      dup2\n      mstore\n      0x20\n      add\n      swap1\n      dup2\n      mstore\n      0x20\n      add\n      0x00\n      keccak256\n        /* \"Contract.sol\":15354:15375  levels[gameId].gameId */\n      0x00\n      add\n      0x00\n      swap1\n      sload\n      swap1\n      0x0100\n      exp\n      swap1\n      div\n      0xff\n      and\n        /* \"Contract.sol\":15377:15392  registeredUsers */\n      0x05\n        /* \"Contract.sol\":15377:15412  registeredUsers[usersId[invitedId]] */\n      0x00\n        /* \"Contract.sol\":15393:15400  usersId */\n      0x03\n        /* \"Contract.sol\":15393:15411  usersId[invitedId] */\n      0x00\n        /* \"Contract.sol\":15401:15410  invitedId */\n      dup8\n        /* \"Contract.sol\":15393:15411  usersId[invitedId] */\n      dup2\n      mstore\n      0x20\n      add\n      swap1\n      dup2\n      mstore\n      0x20\n      add\n      0x00\n      keccak256\n      0x00\n      swap1\n      sload\n      swap1\n      0x0100\n      exp\n      swap1\n      div\n      0xffffffffffffffffffffffffffffffffffffffff\n      and\n        /* \"Contract.sol\":15377:15412  registeredUsers[usersId[invitedId]] */\n      0xffffffffffffffffffffffffffffffffffffffff\n      and\n      0xffffffffffffffffffffffffffffffffffffffff\n      and\n      dup2\n      mstore\n      0x20\n      add\n      swap1\n      dup2\n      mstore\n      0x20\n      add\n      0x00\n      keccak256\n        /* \"Contract.sol\":15377:15419  registeredUsers[usersId[invitedId]].userId */\n      0x00\n      add\n      sload\n        /* \"Contract.sol\":15421:15436  registeredUsers */\n      0x05\n        /* \"Contract.sol\":15421:15489  registeredUsers[usersId[registeredUsers[usersId[invitedId]].userId]] */\n      0x00\n        /* \"Contract.sol\":15437:15444  usersId */\n      0x03\n        /* \"Contract.sol\":15437:15488  usersId[registeredUsers[usersId[invitedId]].userId] */\n      0x00\n        /* \"Contract.sol\":15445:15460  registeredUsers */\n      0x05\n        /* \"Contract.sol\":15445:15480  registeredUsers[usersId[invitedId]] */\n      0x00\n        /* \"Contract.sol\":15461:15468  usersId */\n      0x03\n        /* \"Contract.sol\":15461:15479  usersId[invitedId] */\n      0x00\n        /* \"Contract.sol\":15469:15478  invitedId */\n      dup13\n        /* \"Contract.sol\":15461:15479  usersId[invitedId] */\n      dup2\n      mstore\n      0x20\n      add\n      swap1\n      dup2\n      mstore\n      0x20\n      add\n      0x00\n      keccak256\n      0x00\n      swap1\n      sload\n      swap1\n      0x0100\n      exp\n      swap1\n      div\n      0xffffffffffffffffffffffffffffffffffffffff\n      and\n        /* \"Contract.sol\":15445:15480  registeredUsers[usersId[invitedId]] */\n      0xffffffffffffffffffffffffffffffffffffffff\n      and\n      0xffffffffffffffffffffffffffffffffffffffff\n      and\n      dup2\n      mstore\n      0x20\n      add\n      swap1\n      dup2\n      mstore\n      0x20\n      add\n      0x00\n      keccak256\n        /* \"Contract.sol\":15445:15487  registeredUsers[usersId[invitedId]].userId */\n      0x00\n      add\n      sload\n        /* \"Contract.sol\":15437:15488  usersId[registeredUsers[usersId[invitedId]].userId] */\n      dup2\n      mstore\n      0x20\n      add\n      swap1\n      dup2\n      mstore\n      0x20\n      add\n      0x00\n      keccak256\n      0x00\n      swap1\n      sload\n      swap1\n      0x0100\n      exp\n      swap1\n      div\n      0xffffffffffffffffffffffffffffffffffffffff\n      and\n        /* \"Contract.sol\":15421:15489  registeredUsers[usersId[registeredUsers[usersId[invitedId]].userId]] */\n      0xffffffffffffffffffffffffffffffffffffffff\n      and\n      0xffffffffffffffffffffffffffffffffffffffff\n      and\n      dup2\n      mstore\n      0x20\n      add\n      swap1\n      dup2\n      mstore\n      0x20\n      add\n      0x00\n      keccak256\n        /* \"Contract.sol\":15421:15496  registeredUsers[usersId[registeredUsers[usersId[invitedId]].userId]].userId */\n      0x00\n      add\n      sload\n        /* \"Contract.sol\":15498:15506  refValue */\n      dup5\n        /* \"Contract.sol\":15334:15507  ReferalPaymentEvent(levels[gameId].gameId, registeredUsers[usersId[invitedId]].userId, registeredUsers[usersId[registeredUsers[usersId[invitedId]].userId]].userId, refValue) */\n      mload(0x40)\n      tag_193\n      swap5\n      swap4\n      swap3\n      swap2\n      swap1\n      tag_177\n      jump\t// in\n    tag_193:\n      mload(0x40)\n      dup1\n      swap2\n      sub\n      swap1\n      log1\n        /* \"Contract.sol\":15316:15507  if (success) emit ReferalPaymentEvent(levels[gameId].gameId, registeredUsers[usersId[invitedId]].userId, registeredUsers[usersId[registeredUsers[usersId[invitedId]].userId]].userId, refValue) */\n    tag_192:\n        /* \"Contract.sol\":15663:15716  levels[gameId].amountToPay.mul(ownerReferal).div(100) */\n      tag_194\n        /* \"Contract.sol\":15712:15715  100 */\n      0x64\n        /* \"Contract.sol\":15663:15707  levels[gameId].amountToPay.mul(ownerReferal) */\n      tag_195\n        /* \"Contract.sol\":7106:7107  6 */\n      0x06\n        /* \"Contract.sol\":15663:15669  levels */\n      0x02\n        /* \"Contract.sol\":15663:15677  levels[gameId] */\n      0x00\n        /* \"Contract.sol\":15670:15676  gameId */\n      dup15\n        /* \"Contract.sol\":15663:15677  levels[gameId] */\n      0xff\n      and\n      0xff\n      and\n      dup2\n      mstore\n      0x20\n      add\n      swap1\n      dup2\n      mstore\n      0x20\n      add\n      0x00\n      keccak256\n        /* \"Contract.sol\":15663:15689  levels[gameId].amountToPay */\n      0x01\n      add\n      sload\n        /* \"Contract.sol\":15663:15693  levels[gameId].amountToPay.mul */\n      tag_157\n      swap1\n        /* \"Contract.sol\":15663:15707  levels[gameId].amountToPay.mul(ownerReferal) */\n      swap2\n      swap1\n      0xffffffff\n      and\n      jump\t// in\n    tag_195:\n        /* \"Contract.sol\":15663:15711  levels[gameId].amountToPay.mul(ownerReferal).div */\n      tag_158\n      swap1\n        /* \"Contract.sol\":15663:15716  levels[gameId].amountToPay.mul(ownerReferal).div(100) */\n      swap2\n      swap1\n      0xffffffff\n      and\n      jump\t// in\n    tag_194:\n        /* \"Contract.sol\":15652:15716  refValue = levels[gameId].amountToPay.mul(ownerReferal).div(100) */\n      swap1\n      pop\n        /* \"Contract.sol\":15770:15785  registeredUsers */\n      0x05\n        /* \"Contract.sol\":15770:15800  registeredUsers[contractOwner] */\n      0x00\n        /* \"Contract.sol\":15786:15799  contractOwner */\n      0x01\n      dup1\n      sload\n      swap1\n      0x0100\n      exp\n      swap1\n      div\n      0xffffffffffffffffffffffffffffffffffffffff\n      and\n        /* \"Contract.sol\":15770:15800  registeredUsers[contractOwner] */\n      0xffffffffffffffffffffffffffffffffffffffff\n      and\n      0xffffffffffffffffffffffffffffffffffffffff\n      and\n      dup2\n      mstore\n      0x20\n      add\n      swap1\n      dup2\n      mstore\n      0x20\n      add\n      0x00\n      keccak256\n        /* \"Contract.sol\":15770:15812  registeredUsers[contractOwner].userAddress */\n      0x01\n      add\n      0x00\n      swap1\n      sload\n      swap1\n      0x0100\n      exp\n      swap1\n      div\n      0xffffffffffffffffffffffffffffffffffffffff\n      and\n        /* \"Contract.sol\":15770:15817  registeredUsers[contractOwner].userAddress.call */\n      0xffffffffffffffffffffffffffffffffffffffff\n      and\n        /* \"Contract.sol\":15825:15833  refValue */\n      dup2\n        /* \"Contract.sol\":15770:15838  registeredUsers[contractOwner].userAddress.call{value: refValue}(\"\") */\n      mload(0x40)\n      tag_196\n      swap1\n      tag_160\n      jump\t// in\n    tag_196:\n      0x00\n      mload(0x40)\n      dup1\n      dup4\n      sub\n      dup2\n      dup6\n      dup8\n      gas\n      call\n      swap3\n      pop\n      pop\n      pop\n      returndatasize\n      dup1\n      0x00\n      dup2\n      eq\n      tag_199\n      jumpi\n      mload(0x40)\n      swap2\n      pop\n      and(add(returndatasize, 0x3f), not(0x1f))\n      dup3\n      add\n      0x40\n      mstore\n      returndatasize\n      dup3\n      mstore\n      returndatasize\n      0x00\n      0x20\n      dup5\n      add\n      returndatacopy\n      jump(tag_198)\n    tag_199:\n      0x60\n      swap2\n      pop\n    tag_198:\n      pop\n        /* \"Contract.sol\":15756:15838  (success, ) = registeredUsers[contractOwner].userAddress.call{value: refValue}(\"\") */\n      pop\n      dup1\n      swap5\n      pop\n      pop\n        /* \"Contract.sol\":15867:15874  success */\n      dup4\n        /* \"Contract.sol\":15863:15980  if (success) emit ReferalPaymentEvent(levels[gameId].gameId, userId, registeredUsers[contractOwner].userId, refValue) */\n      iszero\n      tag_200\n      jumpi\n        /* \"Contract.sol\":15881:15980  ReferalPaymentEvent(levels[gameId].gameId, userId, registeredUsers[contractOwner].userId, refValue) */\n      0xafe90bc52fc3dd02b2550b825fc68e93b4bfbcb8165bbacda6cd14b2bad5bc02\n        /* \"Contract.sol\":15901:15907  levels */\n      0x02\n        /* \"Contract.sol\":15901:15915  levels[gameId] */\n      0x00\n        /* \"Contract.sol\":15908:15914  gameId */\n      dup12\n        /* \"Contract.sol\":15901:15915  levels[gameId] */\n      0xff\n      and\n      0xff\n      and\n      dup2\n      mstore\n      0x20\n      add\n      swap1\n      dup2\n      mstore\n      0x20\n      add\n      0x00\n      keccak256\n        /* \"Contract.sol\":15901:15922  levels[gameId].gameId */\n      0x00\n      add\n      0x00\n      swap1\n      sload\n      swap1\n      0x0100\n      exp\n      swap1\n      div\n      0xff\n      and\n        /* \"Contract.sol\":15924:15930  userId */\n      dup5\n        /* \"Contract.sol\":15932:15947  registeredUsers */\n      0x05\n        /* \"Contract.sol\":15932:15962  registeredUsers[contractOwner] */\n      0x00\n        /* \"Contract.sol\":15948:15961  contractOwner */\n      0x01\n      dup1\n      sload\n      swap1\n      0x0100\n      exp\n      swap1\n      div\n      0xffffffffffffffffffffffffffffffffffffffff\n      and\n        /* \"Contract.sol\":15932:15962  registeredUsers[contractOwner] */\n      0xffffffffffffffffffffffffffffffffffffffff\n      and\n      0xffffffffffffffffffffffffffffffffffffffff\n      and\n      dup2\n      mstore\n      0x20\n      add\n      swap1\n      dup2\n      mstore\n      0x20\n      add\n      0x00\n      keccak256\n        /* \"Contract.sol\":15932:15969  registeredUsers[contractOwner].userId */\n      0x00\n      add\n      sload\n        /* \"Contract.sol\":15971:15979  refValue */\n      dup5\n        /* \"Contract.sol\":15881:15980  ReferalPaymentEvent(levels[gameId].gameId, userId, registeredUsers[contractOwner].userId, refValue) */\n      mload(0x40)\n      tag_201\n      swap5\n      swap4\n      swap3\n      swap2\n      swap1\n      tag_177\n      jump\t// in\n    tag_201:\n      mload(0x40)\n      dup1\n      swap2\n      sub\n      swap1\n      log1\n        /* \"Contract.sol\":15863:15980  if (success) emit ReferalPaymentEvent(levels[gameId].gameId, userId, registeredUsers[contractOwner].userId, refValue) */\n    tag_200:\n        /* \"Contract.sol\":13572:16000  {\r... */\n      pop\n      pop\n      pop\n      pop\n        /* \"Contract.sol\":13484:16000  if (userPayments[selectedAddress][gameId] <= 1 || userGames[selectedAddress][gameId+1]) {\r... */\n    tag_154:\n        /* \"Contract.sol\":16030:16060  culcNextWinnerIndex(userIndex) */\n      tag_202\n        /* \"Contract.sol\":16050:16059  userIndex */\n      dup3\n        /* \"Contract.sol\":16030:16049  culcNextWinnerIndex */\n      tag_148\n        /* \"Contract.sol\":16030:16060  culcNextWinnerIndex(userIndex) */\n      jump\t// in\n    tag_202:\n        /* \"Contract.sol\":16018:16060  userIndex = culcNextWinnerIndex(userIndex) */\n      swap2\n      pop\n        /* \"Contract.sol\":13238:16076  {\r... */\n      pop\n        /* \"Contract.sol\":13215:16076  while (userIndex != 0) {\r... */\n      jump(tag_149)\n    tag_150:\n        /* \"Contract.sol\":12994:16087  {\r... */\n      pop\n        /* \"Contract.sol\":12959:16087  if (currentUserIndex[gameId] >= 3) {\r... */\n    tag_146:\n        /* \"Contract.sol\":12396:16094  function _joinToGame(uint8 gameId, address sender, uint256 value) internal {\r... */\n      pop\n      pop\n      pop\n      jump\t// out\n        /* \"Contract.sol\":10281:10850  function culcNextWinnerIndex(uint256 index) internal pure returns(uint256) {\r... */\n    tag_148:\n        /* \"Contract.sol\":10347:10354  uint256 */\n      0x00\n        /* \"Contract.sol\":10822:10823  0 */\n      dup1\n        /* \"Contract.sol\":10806:10818  index.mod(2) */\n      tag_204\n        /* \"Contract.sol\":10816:10817  2 */\n      0x02\n        /* \"Contract.sol\":10806:10811  index */\n      dup5\n        /* \"Contract.sol\":10806:10815  index.mod */\n      tag_205\n      swap1\n        /* \"Contract.sol\":10806:10818  index.mod(2) */\n      swap2\n      swap1\n      0xffffffff\n      and\n      jump\t// in\n    tag_204:\n        /* \"Contract.sol\":10806:10823  index.mod(2) == 0 */\n      eq\n        /* \"Contract.sol\":10806:10842  index.mod(2) == 0 ? 0 : index.div(2) */\n      tag_206\n      jumpi\n        /* \"Contract.sol\":10830:10842  index.div(2) */\n      tag_207\n        /* \"Contract.sol\":10840:10841  2 */\n      0x02\n        /* \"Contract.sol\":10830:10835  index */\n      dup4\n        /* \"Contract.sol\":10830:10839  index.div */\n      tag_158\n      swap1\n        /* \"Contract.sol\":10830:10842  index.div(2) */\n      swap2\n      swap1\n      0xffffffff\n      and\n      jump\t// in\n    tag_207:\n        /* \"Contract.sol\":10806:10842  index.mod(2) == 0 ? 0 : index.div(2) */\n      jump(tag_208)\n    tag_206:\n        /* \"Contract.sol\":10826:10827  0 */\n      0x00\n        /* \"Contract.sol\":10806:10842  index.mod(2) == 0 ? 0 : index.div(2) */\n    tag_208:\n        /* \"Contract.sol\":10799:10842  return index.mod(2) == 0 ? 0 : index.div(2) */\n      swap1\n      pop\n        /* \"Contract.sol\":10281:10850  function culcNextWinnerIndex(uint256 index) internal pure returns(uint256) {\r... */\n      swap2\n      swap1\n      pop\n      jump\t// out\n        /* \"Contract.sol\":3148:3246  function mul(uint256 a, uint256 b) internal pure returns (uint256) {\r... */\n    tag_157:\n        /* \"Contract.sol\":3206:3213  uint256 */\n      0x00\n        /* \"Contract.sol\":3237:3238  b */\n      dup2\n        /* \"Contract.sol\":3233:3234  a */\n      dup4\n        /* \"Contract.sol\":3233:3238  a * b */\n      tag_210\n      swap2\n      swap1\n      tag_211\n      jump\t// in\n    tag_210:\n        /* \"Contract.sol\":3226:3238  return a * b */\n      swap1\n      pop\n        /* \"Contract.sol\":3148:3246  function mul(uint256 a, uint256 b) internal pure returns (uint256) {\r... */\n      swap3\n      swap2\n      pop\n      pop\n      jump\t// out\n        /* \"Contract.sol\":3547:3645  function div(uint256 a, uint256 b) internal pure returns (uint256) {\r... */\n    tag_158:\n        /* \"Contract.sol\":3605:3612  uint256 */\n      0x00\n        /* \"Contract.sol\":3636:3637  b */\n      dup2\n        /* \"Contract.sol\":3632:3633  a */\n      dup4\n        /* \"Contract.sol\":3632:3637  a / b */\n      tag_213\n      swap2\n      swap1\n      tag_214\n      jump\t// in\n    tag_213:\n        /* \"Contract.sol\":3625:3637  return a / b */\n      swap1\n      pop\n        /* \"Contract.sol\":3547:3645  function div(uint256 a, uint256 b) internal pure returns (uint256) {\r... */\n      swap3\n      swap2\n      pop\n      pop\n      jump\t// out\n        /* \"Contract.sol\":4112:4210  function mod(uint256 a, uint256 b) internal pure returns (uint256) {\r... */\n    tag_205:\n        /* \"Contract.sol\":4170:4177  uint256 */\n      0x00\n        /* \"Contract.sol\":4201:4202  b */\n      dup2\n        /* \"Contract.sol\":4197:4198  a */\n      dup4\n        /* \"Contract.sol\":4197:4202  a % b */\n      tag_216\n      swap2\n      swap1\n      tag_217\n      jump\t// in\n    tag_216:\n        /* \"Contract.sol\":4190:4202  return a % b */\n      swap1\n      pop\n        /* \"Contract.sol\":4112:4210  function mod(uint256 a, uint256 b) internal pure returns (uint256) {\r... */\n      swap3\n      swap2\n      pop\n      pop\n      jump\t// out\n        /* \"#utility.yul\":7:146   */\n    tag_219:\n        /* \"#utility.yul\":53:58   */\n      0x00\n        /* \"#utility.yul\":91:97   */\n      dup2\n        /* \"#utility.yul\":78:98   */\n      calldataload\n        /* \"#utility.yul\":69:98   */\n      swap1\n      pop\n        /* \"#utility.yul\":107:140   */\n      tag_221\n        /* \"#utility.yul\":134:139   */\n      dup2\n        /* \"#utility.yul\":107:140   */\n      tag_222\n      jump\t// in\n    tag_221:\n        /* \"#utility.yul\":7:146   */\n      swap3\n      swap2\n      pop\n      pop\n      jump\t// out\n        /* \"#utility.yul\":152:291   */\n    tag_223:\n        /* \"#utility.yul\":198:203   */\n      0x00\n        /* \"#utility.yul\":236:242   */\n      dup2\n        /* \"#utility.yul\":223:243   */\n      calldataload\n        /* \"#utility.yul\":214:243   */\n      swap1\n      pop\n        /* \"#utility.yul\":252:285   */\n      tag_225\n        /* \"#utility.yul\":279:284   */\n      dup2\n        /* \"#utility.yul\":252:285   */\n      tag_226\n      jump\t// in\n    tag_225:\n        /* \"#utility.yul\":152:291   */\n      swap3\n      swap2\n      pop\n      pop\n      jump\t// out\n        /* \"#utility.yul\":297:432   */\n    tag_227:\n        /* \"#utility.yul\":341:346   */\n      0x00\n        /* \"#utility.yul\":379:385   */\n      dup2\n        /* \"#utility.yul\":366:386   */\n      calldataload\n        /* \"#utility.yul\":357:386   */\n      swap1\n      pop\n        /* \"#utility.yul\":395:426   */\n      tag_229\n        /* \"#utility.yul\":420:425   */\n      dup2\n        /* \"#utility.yul\":395:426   */\n      tag_230\n      jump\t// in\n    tag_229:\n        /* \"#utility.yul\":297:432   */\n      swap3\n      swap2\n      pop\n      pop\n      jump\t// out\n        /* \"#utility.yul\":438:767   */\n    tag_32:\n        /* \"#utility.yul\":497:503   */\n      0x00\n        /* \"#utility.yul\":546:548   */\n      0x20\n        /* \"#utility.yul\":534:543   */\n      dup3\n        /* \"#utility.yul\":525:532   */\n      dup5\n        /* \"#utility.yul\":521:544   */\n      sub\n        /* \"#utility.yul\":517:549   */\n      slt\n        /* \"#utility.yul\":514:633   */\n      iszero\n      tag_232\n      jumpi\n        /* \"#utility.yul\":552:631   */\n      tag_233\n      tag_234\n      jump\t// in\n    tag_233:\n        /* \"#utility.yul\":514:633   */\n    tag_232:\n        /* \"#utility.yul\":672:673   */\n      0x00\n        /* \"#utility.yul\":697:750   */\n      tag_235\n        /* \"#utility.yul\":742:749   */\n      dup5\n        /* \"#utility.yul\":733:739   */\n      dup3\n        /* \"#utility.yul\":722:731   */\n      dup6\n        /* \"#utility.yul\":718:740   */\n      add\n        /* \"#utility.yul\":697:750   */\n      tag_219\n      jump\t// in\n    tag_235:\n        /* \"#utility.yul\":687:750   */\n      swap2\n      pop\n        /* \"#utility.yul\":643:760   */\n      pop\n        /* \"#utility.yul\":438:767   */\n      swap3\n      swap2\n      pop\n      pop\n      jump\t// out\n        /* \"#utility.yul\":773:1243   */\n    tag_39:\n        /* \"#utility.yul\":839:845   */\n      0x00\n        /* \"#utility.yul\":847:853   */\n      dup1\n        /* \"#utility.yul\":896:898   */\n      0x40\n        /* \"#utility.yul\":884:893   */\n      dup4\n        /* \"#utility.yul\":875:882   */\n      dup6\n        /* \"#utility.yul\":871:894   */\n      sub\n        /* \"#utility.yul\":867:899   */\n      slt\n        /* \"#utility.yul\":864:983   */\n      iszero\n      tag_237\n      jumpi\n        /* \"#utility.yul\":902:981   */\n      tag_238\n      tag_234\n      jump\t// in\n    tag_238:\n        /* \"#utility.yul\":864:983   */\n    tag_237:\n        /* \"#utility.yul\":1022:1023   */\n      0x00\n        /* \"#utility.yul\":1047:1100   */\n      tag_239\n        /* \"#utility.yul\":1092:1099   */\n      dup6\n        /* \"#utility.yul\":1083:1089   */\n      dup3\n        /* \"#utility.yul\":1072:1081   */\n      dup7\n        /* \"#utility.yul\":1068:1090   */\n      add\n        /* \"#utility.yul\":1047:1100   */\n      tag_219\n      jump\t// in\n    tag_239:\n        /* \"#utility.yul\":1037:1100   */\n      swap3\n      pop\n        /* \"#utility.yul\":993:1110   */\n      pop\n        /* \"#utility.yul\":1149:1151   */\n      0x20\n        /* \"#utility.yul\":1175:1226   */\n      tag_240\n        /* \"#utility.yul\":1218:1225   */\n      dup6\n        /* \"#utility.yul\":1209:1215   */\n      dup3\n        /* \"#utility.yul\":1198:1207   */\n      dup7\n        /* \"#utility.yul\":1194:1216   */\n      add\n        /* \"#utility.yul\":1175:1226   */\n      tag_227\n      jump\t// in\n    tag_240:\n        /* \"#utility.yul\":1165:1226   */\n      swap2\n      pop\n        /* \"#utility.yul\":1120:1236   */\n      pop\n        /* \"#utility.yul\":773:1243   */\n      swap3\n      pop\n      swap3\n      swap1\n      pop\n      jump\t// out\n        /* \"#utility.yul\":1249:1578   */\n    tag_27:\n        /* \"#utility.yul\":1308:1314   */\n      0x00\n        /* \"#utility.yul\":1357:1359   */\n      0x20\n        /* \"#utility.yul\":1345:1354   */\n      dup3\n        /* \"#utility.yul\":1336:1343   */\n      dup5\n        /* \"#utility.yul\":1332:1355   */\n      sub\n        /* \"#utility.yul\":1328:1360   */\n      slt\n        /* \"#utility.yul\":1325:1444   */\n      iszero\n      tag_242\n      jumpi\n        /* \"#utility.yul\":1363:1442   */\n      tag_243\n      tag_234\n      jump\t// in\n    tag_243:\n        /* \"#utility.yul\":1325:1444   */\n    tag_242:\n        /* \"#utility.yul\":1483:1484   */\n      0x00\n        /* \"#utility.yul\":1508:1561   */\n      tag_244\n        /* \"#utility.yul\":1553:1560   */\n      dup5\n        /* \"#utility.yul\":1544:1550   */\n      dup3\n        /* \"#utility.yul\":1533:1542   */\n      dup6\n        /* \"#utility.yul\":1529:1551   */\n      add\n        /* \"#utility.yul\":1508:1561   */\n      tag_223\n      jump\t// in\n    tag_244:\n        /* \"#utility.yul\":1498:1561   */\n      swap2\n      pop\n        /* \"#utility.yul\":1454:1571   */\n      pop\n        /* \"#utility.yul\":1249:1578   */\n      swap3\n      swap2\n      pop\n      pop\n      jump\t// out\n        /* \"#utility.yul\":1584:1909   */\n    tag_45:\n        /* \"#utility.yul\":1641:1647   */\n      0x00\n        /* \"#utility.yul\":1690:1692   */\n      0x20\n        /* \"#utility.yul\":1678:1687   */\n      dup3\n        /* \"#utility.yul\":1669:1676   */\n      dup5\n        /* \"#utility.yul\":1665:1688   */\n      sub\n        /* \"#utility.yul\":1661:1693   */\n      slt\n        /* \"#utility.yul\":1658:1777   */\n      iszero\n      tag_246\n      jumpi\n        /* \"#utility.yul\":1696:1775   */\n      tag_247\n      tag_234\n      jump\t// in\n    tag_247:\n        /* \"#utility.yul\":1658:1777   */\n    tag_246:\n        /* \"#utility.yul\":1816:1817   */\n      0x00\n        /* \"#utility.yul\":1841:1892   */\n      tag_248\n        /* \"#utility.yul\":1884:1891   */\n      dup5\n        /* \"#utility.yul\":1875:1881   */\n      dup3\n        /* \"#utility.yul\":1864:1873   */\n      dup6\n        /* \"#utility.yul\":1860:1882   */\n      add\n        /* \"#utility.yul\":1841:1892   */\n      tag_227\n      jump\t// in\n    tag_248:\n        /* \"#utility.yul\":1831:1892   */\n      swap2\n      pop\n        /* \"#utility.yul\":1787:1902   */\n      pop\n        /* \"#utility.yul\":1584:1909   */\n      swap3\n      swap2\n      pop\n      pop\n      jump\t// out\n        /* \"#utility.yul\":1915:2385   */\n    tag_55:\n        /* \"#utility.yul\":1981:1987   */\n      0x00\n        /* \"#utility.yul\":1989:1995   */\n      dup1\n        /* \"#utility.yul\":2038:2040   */\n      0x40\n        /* \"#utility.yul\":2026:2035   */\n      dup4\n        /* \"#utility.yul\":2017:2024   */\n      dup6\n        /* \"#utility.yul\":2013:2036   */\n      sub\n        /* \"#utility.yul\":2009:2041   */\n      slt\n        /* \"#utility.yul\":2006:2125   */\n      iszero\n      tag_250\n      jumpi\n        /* \"#utility.yul\":2044:2123   */\n      tag_251\n      tag_234\n      jump\t// in\n    tag_251:\n        /* \"#utility.yul\":2006:2125   */\n    tag_250:\n        /* \"#utility.yul\":2164:2165   */\n      0x00\n        /* \"#utility.yul\":2189:2240   */\n      tag_252\n        /* \"#utility.yul\":2232:2239   */\n      dup6\n        /* \"#utility.yul\":2223:2229   */\n      dup3\n        /* \"#utility.yul\":2212:2221   */\n      dup7\n        /* \"#utility.yul\":2208:2230   */\n      add\n        /* \"#utility.yul\":2189:2240   */\n      tag_227\n      jump\t// in\n    tag_252:\n        /* \"#utility.yul\":2179:2240   */\n      swap3\n      pop\n        /* \"#utility.yul\":2135:2250   */\n      pop\n        /* \"#utility.yul\":2289:2291   */\n      0x20\n        /* \"#utility.yul\":2315:2368   */\n      tag_253\n        /* \"#utility.yul\":2360:2367   */\n      dup6\n        /* \"#utility.yul\":2351:2357   */\n      dup3\n        /* \"#utility.yul\":2340:2349   */\n      dup7\n        /* \"#utility.yul\":2336:2358   */\n      add\n        /* \"#utility.yul\":2315:2368   */\n      tag_223\n      jump\t// in\n    tag_253:\n        /* \"#utility.yul\":2305:2368   */\n      swap2\n      pop\n        /* \"#utility.yul\":2260:2378   */\n      pop\n        /* \"#utility.yul\":1915:2385   */\n      swap3\n      pop\n      swap3\n      swap1\n      pop\n      jump\t// out\n        /* \"#utility.yul\":2391:2533   */\n    tag_254:\n        /* \"#utility.yul\":2494:2526   */\n      tag_256\n        /* \"#utility.yul\":2520:2525   */\n      dup2\n        /* \"#utility.yul\":2494:2526   */\n      tag_257\n      jump\t// in\n    tag_256:\n        /* \"#utility.yul\":2489:2492   */\n      dup3\n        /* \"#utility.yul\":2482:2527   */\n      mstore\n        /* \"#utility.yul\":2391:2533   */\n      pop\n      pop\n      jump\t// out\n        /* \"#utility.yul\":2539:2657   */\n    tag_258:\n        /* \"#utility.yul\":2626:2650   */\n      tag_260\n        /* \"#utility.yul\":2644:2649   */\n      dup2\n        /* \"#utility.yul\":2626:2650   */\n      tag_261\n      jump\t// in\n    tag_260:\n        /* \"#utility.yul\":2621:2624   */\n      dup3\n        /* \"#utility.yul\":2614:2651   */\n      mstore\n        /* \"#utility.yul\":2539:2657   */\n      pop\n      pop\n      jump\t// out\n        /* \"#utility.yul\":2663:2772   */\n    tag_262:\n        /* \"#utility.yul\":2744:2765   */\n      tag_264\n        /* \"#utility.yul\":2759:2764   */\n      dup2\n        /* \"#utility.yul\":2744:2765   */\n      tag_265\n      jump\t// in\n    tag_264:\n        /* \"#utility.yul\":2739:2742   */\n      dup3\n        /* \"#utility.yul\":2732:2766   */\n      mstore\n        /* \"#utility.yul\":2663:2772   */\n      pop\n      pop\n      jump\t// out\n        /* \"#utility.yul\":2778:3144   */\n    tag_266:\n        /* \"#utility.yul\":2920:2923   */\n      0x00\n        /* \"#utility.yul\":2941:3008   */\n      tag_268\n        /* \"#utility.yul\":3005:3007   */\n      0x0e\n        /* \"#utility.yul\":3000:3003   */\n      dup4\n        /* \"#utility.yul\":2941:3008   */\n      tag_269\n      jump\t// in\n    tag_268:\n        /* \"#utility.yul\":2934:3008   */\n      swap2\n      pop\n        /* \"#utility.yul\":3017:3110   */\n      tag_270\n        /* \"#utility.yul\":3106:3109   */\n      dup3\n        /* \"#utility.yul\":3017:3110   */\n      tag_271\n      jump\t// in\n    tag_270:\n        /* \"#utility.yul\":3135:3137   */\n      0x20\n        /* \"#utility.yul\":3130:3133   */\n      dup3\n        /* \"#utility.yul\":3126:3138   */\n      add\n        /* \"#utility.yul\":3119:3138   */\n      swap1\n      pop\n        /* \"#utility.yul\":2778:3144   */\n      swap2\n      swap1\n      pop\n      jump\t// out\n        /* \"#utility.yul\":3150:3516   */\n    tag_272:\n        /* \"#utility.yul\":3292:3295   */\n      0x00\n        /* \"#utility.yul\":3313:3380   */\n      tag_274\n        /* \"#utility.yul\":3377:3379   */\n      0x1a\n        /* \"#utility.yul\":3372:3375   */\n      dup4\n        /* \"#utility.yul\":3313:3380   */\n      tag_269\n      jump\t// in\n    tag_274:\n        /* \"#utility.yul\":3306:3380   */\n      swap2\n      pop\n        /* \"#utility.yul\":3389:3482   */\n      tag_275\n        /* \"#utility.yul\":3478:3481   */\n      dup3\n        /* \"#utility.yul\":3389:3482   */\n      tag_276\n      jump\t// in\n    tag_275:\n        /* \"#utility.yul\":3507:3509   */\n      0x20\n        /* \"#utility.yul\":3502:3505   */\n      dup3\n        /* \"#utility.yul\":3498:3510   */\n      add\n        /* \"#utility.yul\":3491:3510   */\n      swap1\n      pop\n        /* \"#utility.yul\":3150:3516   */\n      swap2\n      swap1\n      pop\n      jump\t// out\n        /* \"#utility.yul\":3522:3920   */\n    tag_277:\n        /* \"#utility.yul\":3681:3684   */\n      0x00\n        /* \"#utility.yul\":3702:3785   */\n      tag_279\n        /* \"#utility.yul\":3783:3784   */\n      0x00\n        /* \"#utility.yul\":3778:3781   */\n      dup4\n        /* \"#utility.yul\":3702:3785   */\n      tag_280\n      jump\t// in\n    tag_279:\n        /* \"#utility.yul\":3695:3785   */\n      swap2\n      pop\n        /* \"#utility.yul\":3794:3887   */\n      tag_281\n        /* \"#utility.yul\":3883:3886   */\n      dup3\n        /* \"#utility.yul\":3794:3887   */\n      tag_282\n      jump\t// in\n    tag_281:\n        /* \"#utility.yul\":3912:3913   */\n      0x00\n        /* \"#utility.yul\":3907:3910   */\n      dup3\n        /* \"#utility.yul\":3903:3914   */\n      add\n        /* \"#utility.yul\":3896:3914   */\n      swap1\n      pop\n        /* \"#utility.yul\":3522:3920   */\n      swap2\n      swap1\n      pop\n      jump\t// out\n        /* \"#utility.yul\":3926:4292   */\n    tag_283:\n        /* \"#utility.yul\":4068:4071   */\n      0x00\n        /* \"#utility.yul\":4089:4156   */\n      tag_285\n        /* \"#utility.yul\":4153:4155   */\n      0x23\n        /* \"#utility.yul\":4148:4151   */\n      dup4\n        /* \"#utility.yul\":4089:4156   */\n      tag_269\n      jump\t// in\n    tag_285:\n        /* \"#utility.yul\":4082:4156   */\n      swap2\n      pop\n        /* \"#utility.yul\":4165:4258   */\n      tag_286\n        /* \"#utility.yul\":4254:4257   */\n      dup3\n        /* \"#utility.yul\":4165:4258   */\n      tag_287\n      jump\t// in\n    tag_286:\n        /* \"#utility.yul\":4283:4285   */\n      0x40\n        /* \"#utility.yul\":4278:4281   */\n      dup3\n        /* \"#utility.yul\":4274:4286   */\n      add\n        /* \"#utility.yul\":4267:4286   */\n      swap1\n      pop\n        /* \"#utility.yul\":3926:4292   */\n      swap2\n      swap1\n      pop\n      jump\t// out\n        /* \"#utility.yul\":4298:4664   */\n    tag_288:\n        /* \"#utility.yul\":4440:4443   */\n      0x00\n        /* \"#utility.yul\":4461:4528   */\n      tag_290\n        /* \"#utility.yul\":4525:4527   */\n      0x28\n        /* \"#utility.yul\":4520:4523   */\n      dup4\n        /* \"#utility.yul\":4461:4528   */\n      tag_269\n      jump\t// in\n    tag_290:\n        /* \"#utility.yul\":4454:4528   */\n      swap2\n      pop\n        /* \"#utility.yul\":4537:4630   */\n      tag_291\n        /* \"#utility.yul\":4626:4629   */\n      dup3\n        /* \"#utility.yul\":4537:4630   */\n      tag_292\n      jump\t// in\n    tag_291:\n        /* \"#utility.yul\":4655:4657   */\n      0x40\n        /* \"#utility.yul\":4650:4653   */\n      dup3\n        /* \"#utility.yul\":4646:4658   */\n      add\n        /* \"#utility.yul\":4639:4658   */\n      swap1\n      pop\n        /* \"#utility.yul\":4298:4664   */\n      swap2\n      swap1\n      pop\n      jump\t// out\n        /* \"#utility.yul\":4670:5036   */\n    tag_293:\n        /* \"#utility.yul\":4812:4815   */\n      0x00\n        /* \"#utility.yul\":4833:4900   */\n      tag_295\n        /* \"#utility.yul\":4897:4899   */\n      0x0c\n        /* \"#utility.yul\":4892:4895   */\n      dup4\n        /* \"#utility.yul\":4833:4900   */\n      tag_269\n      jump\t// in\n    tag_295:\n        /* \"#utility.yul\":4826:4900   */\n      swap2\n      pop\n        /* \"#utility.yul\":4909:5002   */\n      tag_296\n        /* \"#utility.yul\":4998:5001   */\n      dup3\n        /* \"#utility.yul\":4909:5002   */\n      tag_297\n      jump\t// in\n    tag_296:\n        /* \"#utility.yul\":5027:5029   */\n      0x20\n        /* \"#utility.yul\":5022:5025   */\n      dup3\n        /* \"#utility.yul\":5018:5030   */\n      add\n        /* \"#utility.yul\":5011:5030   */\n      swap1\n      pop\n        /* \"#utility.yul\":4670:5036   */\n      swap2\n      swap1\n      pop\n      jump\t// out\n        /* \"#utility.yul\":5042:5408   */\n    tag_298:\n        /* \"#utility.yul\":5184:5187   */\n      0x00\n        /* \"#utility.yul\":5205:5272   */\n      tag_300\n        /* \"#utility.yul\":5269:5271   */\n      0x11\n        /* \"#utility.yul\":5264:5267   */\n      dup4\n        /* \"#utility.yul\":5205:5272   */\n      tag_269\n      jump\t// in\n    tag_300:\n        /* \"#utility.yul\":5198:5272   */\n      swap2\n      pop\n        /* \"#utility.yul\":5281:5374   */\n      tag_301\n        /* \"#utility.yul\":5370:5373   */\n      dup3\n        /* \"#utility.yul\":5281:5374   */\n      tag_302\n      jump\t// in\n    tag_301:\n        /* \"#utility.yul\":5399:5401   */\n      0x20\n        /* \"#utility.yul\":5394:5397   */\n      dup3\n        /* \"#utility.yul\":5390:5402   */\n      add\n        /* \"#utility.yul\":5383:5402   */\n      swap1\n      pop\n        /* \"#utility.yul\":5042:5408   */\n      swap2\n      swap1\n      pop\n      jump\t// out\n        /* \"#utility.yul\":5414:5532   */\n    tag_303:\n        /* \"#utility.yul\":5501:5525   */\n      tag_305\n        /* \"#utility.yul\":5519:5524   */\n      dup2\n        /* \"#utility.yul\":5501:5525   */\n      tag_306\n      jump\t// in\n    tag_305:\n        /* \"#utility.yul\":5496:5499   */\n      dup3\n        /* \"#utility.yul\":5489:5526   */\n      mstore\n        /* \"#utility.yul\":5414:5532   */\n      pop\n      pop\n      jump\t// out\n        /* \"#utility.yul\":5538:5650   */\n    tag_307:\n        /* \"#utility.yul\":5621:5643   */\n      tag_309\n        /* \"#utility.yul\":5637:5642   */\n      dup2\n        /* \"#utility.yul\":5621:5643   */\n      tag_310\n      jump\t// in\n    tag_309:\n        /* \"#utility.yul\":5616:5619   */\n      dup3\n        /* \"#utility.yul\":5609:5644   */\n      mstore\n        /* \"#utility.yul\":5538:5650   */\n      pop\n      pop\n      jump\t// out\n        /* \"#utility.yul\":5656:6035   */\n    tag_160:\n        /* \"#utility.yul\":5840:5843   */\n      0x00\n        /* \"#utility.yul\":5862:6009   */\n      tag_312\n        /* \"#utility.yul\":6005:6008   */\n      dup3\n        /* \"#utility.yul\":5862:6009   */\n      tag_277\n      jump\t// in\n    tag_312:\n        /* \"#utility.yul\":5855:6009   */\n      swap2\n      pop\n        /* \"#utility.yul\":6026:6029   */\n      dup2\n        /* \"#utility.yul\":6019:6029   */\n      swap1\n      pop\n        /* \"#utility.yul\":5656:6035   */\n      swap2\n      swap1\n      pop\n      jump\t// out\n        /* \"#utility.yul\":6041:6263   */\n    tag_88:\n        /* \"#utility.yul\":6134:6138   */\n      0x00\n        /* \"#utility.yul\":6172:6174   */\n      0x20\n        /* \"#utility.yul\":6161:6170   */\n      dup3\n        /* \"#utility.yul\":6157:6175   */\n      add\n        /* \"#utility.yul\":6149:6175   */\n      swap1\n      pop\n        /* \"#utility.yul\":6185:6256   */\n      tag_314\n        /* \"#utility.yul\":6253:6254   */\n      0x00\n        /* \"#utility.yul\":6242:6251   */\n      dup4\n        /* \"#utility.yul\":6238:6255   */\n      add\n        /* \"#utility.yul\":6229:6235   */\n      dup5\n        /* \"#utility.yul\":6185:6256   */\n      tag_258\n      jump\t// in\n    tag_314:\n        /* \"#utility.yul\":6041:6263   */\n      swap3\n      swap2\n      pop\n      pop\n      jump\t// out\n        /* \"#utility.yul\":6269:6479   */\n    tag_42:\n        /* \"#utility.yul\":6356:6360   */\n      0x00\n        /* \"#utility.yul\":6394:6396   */\n      0x20\n        /* \"#utility.yul\":6383:6392   */\n      dup3\n        /* \"#utility.yul\":6379:6397   */\n      add\n        /* \"#utility.yul\":6371:6397   */\n      swap1\n      pop\n        /* \"#utility.yul\":6407:6472   */\n      tag_316\n        /* \"#utility.yul\":6469:6470   */\n      0x00\n        /* \"#utility.yul\":6458:6467   */\n      dup4\n        /* \"#utility.yul\":6454:6471   */\n      add\n        /* \"#utility.yul\":6445:6451   */\n      dup5\n        /* \"#utility.yul\":6407:6472   */\n      tag_262\n      jump\t// in\n    tag_316:\n        /* \"#utility.yul\":6269:6479   */\n      swap3\n      swap2\n      pop\n      pop\n      jump\t// out\n        /* \"#utility.yul\":6485:6904   */\n    tag_105:\n        /* \"#utility.yul\":6651:6655   */\n      0x00\n        /* \"#utility.yul\":6689:6691   */\n      0x20\n        /* \"#utility.yul\":6678:6687   */\n      dup3\n        /* \"#utility.yul\":6674:6692   */\n      add\n        /* \"#utility.yul\":6666:6692   */\n      swap1\n      pop\n        /* \"#utility.yul\":6738:6747   */\n      dup2\n        /* \"#utility.yul\":6732:6736   */\n      dup2\n        /* \"#utility.yul\":6728:6748   */\n      sub\n        /* \"#utility.yul\":6724:6725   */\n      0x00\n        /* \"#utility.yul\":6713:6722   */\n      dup4\n        /* \"#utility.yul\":6709:6726   */\n      add\n        /* \"#utility.yul\":6702:6749   */\n      mstore\n        /* \"#utility.yul\":6766:6897   */\n      tag_318\n        /* \"#utility.yul\":6892:6896   */\n      dup2\n        /* \"#utility.yul\":6766:6897   */\n      tag_266\n      jump\t// in\n    tag_318:\n        /* \"#utility.yul\":6758:6897   */\n      swap1\n      pop\n        /* \"#utility.yul\":6485:6904   */\n      swap2\n      swap1\n      pop\n      jump\t// out\n        /* \"#utility.yul\":6910:7329   */\n    tag_115:\n        /* \"#utility.yul\":7076:7080   */\n      0x00\n        /* \"#utility.yul\":7114:7116   */\n      0x20\n        /* \"#utility.yul\":7103:7112   */\n      dup3\n        /* \"#utility.yul\":7099:7117   */\n      add\n        /* \"#utility.yul\":7091:7117   */\n      swap1\n      pop\n        /* \"#utility.yul\":7163:7172   */\n      dup2\n        /* \"#utility.yul\":7157:7161   */\n      dup2\n        /* \"#utility.yul\":7153:7173   */\n      sub\n        /* \"#utility.yul\":7149:7150   */\n      0x00\n        /* \"#utility.yul\":7138:7147   */\n      dup4\n        /* \"#utility.yul\":7134:7151   */\n      add\n        /* \"#utility.yul\":7127:7174   */\n      mstore\n        /* \"#utility.yul\":7191:7322   */\n      tag_320\n        /* \"#utility.yul\":7317:7321   */\n      dup2\n        /* \"#utility.yul\":7191:7322   */\n      tag_272\n      jump\t// in\n    tag_320:\n        /* \"#utility.yul\":7183:7322   */\n      swap1\n      pop\n        /* \"#utility.yul\":6910:7329   */\n      swap2\n      swap1\n      pop\n      jump\t// out\n        /* \"#utility.yul\":7335:7754   */\n    tag_144:\n        /* \"#utility.yul\":7501:7505   */\n      0x00\n        /* \"#utility.yul\":7539:7541   */\n      0x20\n        /* \"#utility.yul\":7528:7537   */\n      dup3\n        /* \"#utility.yul\":7524:7542   */\n      add\n        /* \"#utility.yul\":7516:7542   */\n      swap1\n      pop\n        /* \"#utility.yul\":7588:7597   */\n      dup2\n        /* \"#utility.yul\":7582:7586   */\n      dup2\n        /* \"#utility.yul\":7578:7598   */\n      sub\n        /* \"#utility.yul\":7574:7575   */\n      0x00\n        /* \"#utility.yul\":7563:7572   */\n      dup4\n        /* \"#utility.yul\":7559:7576   */\n      add\n        /* \"#utility.yul\":7552:7599   */\n      mstore\n        /* \"#utility.yul\":7616:7747   */\n      tag_322\n        /* \"#utility.yul\":7742:7746   */\n      dup2\n        /* \"#utility.yul\":7616:7747   */\n      tag_283\n      jump\t// in\n    tag_322:\n        /* \"#utility.yul\":7608:7747   */\n      swap1\n      pop\n        /* \"#utility.yul\":7335:7754   */\n      swap2\n      swap1\n      pop\n      jump\t// out\n        /* \"#utility.yul\":7760:8179   */\n    tag_118:\n        /* \"#utility.yul\":7926:7930   */\n      0x00\n        /* \"#utility.yul\":7964:7966   */\n      0x20\n        /* \"#utility.yul\":7953:7962   */\n      dup3\n        /* \"#utility.yul\":7949:7967   */\n      add\n        /* \"#utility.yul\":7941:7967   */\n      swap1\n      pop\n        /* \"#utility.yul\":8013:8022   */\n      dup2\n        /* \"#utility.yul\":8007:8011   */\n      dup2\n        /* \"#utility.yul\":8003:8023   */\n      sub\n        /* \"#utility.yul\":7999:8000   */\n      0x00\n        /* \"#utility.yul\":7988:7997   */\n      dup4\n        /* \"#utility.yul\":7984:8001   */\n      add\n        /* \"#utility.yul\":7977:8024   */\n      mstore\n        /* \"#utility.yul\":8041:8172   */\n      tag_324\n        /* \"#utility.yul\":8167:8171   */\n      dup2\n        /* \"#utility.yul\":8041:8172   */\n      tag_288\n      jump\t// in\n    tag_324:\n        /* \"#utility.yul\":8033:8172   */\n      swap1\n      pop\n        /* \"#utility.yul\":7760:8179   */\n      swap2\n      swap1\n      pop\n      jump\t// out\n        /* \"#utility.yul\":8185:8604   */\n    tag_111:\n        /* \"#utility.yul\":8351:8355   */\n      0x00\n        /* \"#utility.yul\":8389:8391   */\n      0x20\n        /* \"#utility.yul\":8378:8387   */\n      dup3\n        /* \"#utility.yul\":8374:8392   */\n      add\n        /* \"#utility.yul\":8366:8392   */\n      swap1\n      pop\n        /* \"#utility.yul\":8438:8447   */\n      dup2\n        /* \"#utility.yul\":8432:8436   */\n      dup2\n        /* \"#utility.yul\":8428:8448   */\n      sub\n        /* \"#utility.yul\":8424:8425   */\n      0x00\n        /* \"#utility.yul\":8413:8422   */\n      dup4\n        /* \"#utility.yul\":8409:8426   */\n      add\n        /* \"#utility.yul\":8402:8449   */\n      mstore\n        /* \"#utility.yul\":8466:8597   */\n      tag_326\n        /* \"#utility.yul\":8592:8596   */\n      dup2\n        /* \"#utility.yul\":8466:8597   */\n      tag_293\n      jump\t// in\n    tag_326:\n        /* \"#utility.yul\":8458:8597   */\n      swap1\n      pop\n        /* \"#utility.yul\":8185:8604   */\n      swap2\n      swap1\n      pop\n      jump\t// out\n        /* \"#utility.yul\":8610:9029   */\n    tag_135:\n        /* \"#utility.yul\":8776:8780   */\n      0x00\n        /* \"#utility.yul\":8814:8816   */\n      0x20\n        /* \"#utility.yul\":8803:8812   */\n      dup3\n        /* \"#utility.yul\":8799:8817   */\n      add\n        /* \"#utility.yul\":8791:8817   */\n      swap1\n      pop\n        /* \"#utility.yul\":8863:8872   */\n      dup2\n        /* \"#utility.yul\":8857:8861   */\n      dup2\n        /* \"#utility.yul\":8853:8873   */\n      sub\n        /* \"#utility.yul\":8849:8850   */\n      0x00\n        /* \"#utility.yul\":8838:8847   */\n      dup4\n        /* \"#utility.yul\":8834:8851   */\n      add\n        /* \"#utility.yul\":8827:8874   */\n      mstore\n        /* \"#utility.yul\":8891:9022   */\n      tag_328\n        /* \"#utility.yul\":9017:9021   */\n      dup2\n        /* \"#utility.yul\":8891:9022   */\n      tag_298\n      jump\t// in\n    tag_328:\n        /* \"#utility.yul\":8883:9022   */\n      swap1\n      pop\n        /* \"#utility.yul\":8610:9029   */\n      swap2\n      swap1\n      pop\n      jump\t// out\n        /* \"#utility.yul\":9035:9257   */\n    tag_51:\n        /* \"#utility.yul\":9128:9132   */\n      0x00\n        /* \"#utility.yul\":9166:9168   */\n      0x20\n        /* \"#utility.yul\":9155:9164   */\n      dup3\n        /* \"#utility.yul\":9151:9169   */\n      add\n        /* \"#utility.yul\":9143:9169   */\n      swap1\n      pop\n        /* \"#utility.yul\":9179:9250   */\n      tag_330\n        /* \"#utility.yul\":9247:9248   */\n      0x00\n        /* \"#utility.yul\":9236:9245   */\n      dup4\n        /* \"#utility.yul\":9232:9249   */\n      add\n        /* \"#utility.yul\":9223:9229   */\n      dup5\n        /* \"#utility.yul\":9179:9250   */\n      tag_303\n      jump\t// in\n    tag_330:\n        /* \"#utility.yul\":9035:9257   */\n      swap3\n      swap2\n      pop\n      pop\n      jump\t// out\n        /* \"#utility.yul\":9263:9737   */\n    tag_35:\n        /* \"#utility.yul\":9428:9432   */\n      0x00\n        /* \"#utility.yul\":9466:9468   */\n      0x60\n        /* \"#utility.yul\":9455:9464   */\n      dup3\n        /* \"#utility.yul\":9451:9469   */\n      add\n        /* \"#utility.yul\":9443:9469   */\n      swap1\n      pop\n        /* \"#utility.yul\":9479:9550   */\n      tag_332\n        /* \"#utility.yul\":9547:9548   */\n      0x00\n        /* \"#utility.yul\":9536:9545   */\n      dup4\n        /* \"#utility.yul\":9532:9549   */\n      add\n        /* \"#utility.yul\":9523:9529   */\n      dup7\n        /* \"#utility.yul\":9479:9550   */\n      tag_303\n      jump\t// in\n    tag_332:\n        /* \"#utility.yul\":9560:9648   */\n      tag_333\n        /* \"#utility.yul\":9644:9646   */\n      0x20\n        /* \"#utility.yul\":9633:9642   */\n      dup4\n        /* \"#utility.yul\":9629:9647   */\n      add\n        /* \"#utility.yul\":9620:9626   */\n      dup6\n        /* \"#utility.yul\":9560:9648   */\n      tag_254\n      jump\t// in\n    tag_333:\n        /* \"#utility.yul\":9658:9730   */\n      tag_334\n        /* \"#utility.yul\":9726:9728   */\n      0x40\n        /* \"#utility.yul\":9715:9724   */\n      dup4\n        /* \"#utility.yul\":9711:9729   */\n      add\n        /* \"#utility.yul\":9702:9708   */\n      dup5\n        /* \"#utility.yul\":9658:9730   */\n      tag_303\n      jump\t// in\n    tag_334:\n        /* \"#utility.yul\":9263:9737   */\n      swap5\n      swap4\n      pop\n      pop\n      pop\n      pop\n      jump\t// out\n        /* \"#utility.yul\":9743:10185   */\n    tag_125:\n        /* \"#utility.yul\":9892:9896   */\n      0x00\n        /* \"#utility.yul\":9930:9932   */\n      0x60\n        /* \"#utility.yul\":9919:9928   */\n      dup3\n        /* \"#utility.yul\":9915:9933   */\n      add\n        /* \"#utility.yul\":9907:9933   */\n      swap1\n      pop\n        /* \"#utility.yul\":9943:10014   */\n      tag_336\n        /* \"#utility.yul\":10011:10012   */\n      0x00\n        /* \"#utility.yul\":10000:10009   */\n      dup4\n        /* \"#utility.yul\":9996:10013   */\n      add\n        /* \"#utility.yul\":9987:9993   */\n      dup7\n        /* \"#utility.yul\":9943:10014   */\n      tag_303\n      jump\t// in\n    tag_336:\n        /* \"#utility.yul\":10024:10096   */\n      tag_337\n        /* \"#utility.yul\":10092:10094   */\n      0x20\n        /* \"#utility.yul\":10081:10090   */\n      dup4\n        /* \"#utility.yul\":10077:10095   */\n      add\n        /* \"#utility.yul\":10068:10074   */\n      dup6\n        /* \"#utility.yul\":10024:10096   */\n      tag_303\n      jump\t// in\n    tag_337:\n        /* \"#utility.yul\":10106:10178   */\n      tag_338\n        /* \"#utility.yul\":10174:10176   */\n      0x40\n        /* \"#utility.yul\":10163:10172   */\n      dup4\n        /* \"#utility.yul\":10159:10177   */\n      add\n        /* \"#utility.yul\":10150:10156   */\n      dup5\n        /* \"#utility.yul\":10106:10178   */\n      tag_303\n      jump\t// in\n    tag_338:\n        /* \"#utility.yul\":9743:10185   */\n      swap5\n      swap4\n      pop\n      pop\n      pop\n      pop\n      jump\t// out\n        /* \"#utility.yul\":10191:10405   */\n    tag_78:\n        /* \"#utility.yul\":10280:10284   */\n      0x00\n        /* \"#utility.yul\":10318:10320   */\n      0x20\n        /* \"#utility.yul\":10307:10316   */\n      dup3\n        /* \"#utility.yul\":10303:10321   */\n      add\n        /* \"#utility.yul\":10295:10321   */\n      swap1\n      pop\n        /* \"#utility.yul\":10331:10398   */\n      tag_340\n        /* \"#utility.yul\":10395:10396   */\n      0x00\n        /* \"#utility.yul\":10384:10393   */\n      dup4\n        /* \"#utility.yul\":10380:10397   */\n      add\n        /* \"#utility.yul\":10371:10377   */\n      dup5\n        /* \"#utility.yul\":10331:10398   */\n      tag_307\n      jump\t// in\n    tag_340:\n        /* \"#utility.yul\":10191:10405   */\n      swap3\n      swap2\n      pop\n      pop\n      jump\t// out\n        /* \"#utility.yul\":10411:10833   */\n    tag_166:\n        /* \"#utility.yul\":10550:10554   */\n      0x00\n        /* \"#utility.yul\":10588:10590   */\n      0x60\n        /* \"#utility.yul\":10577:10586   */\n      dup3\n        /* \"#utility.yul\":10573:10591   */\n      add\n        /* \"#utility.yul\":10565:10591   */\n      swap1\n      pop\n        /* \"#utility.yul\":10601:10668   */\n      tag_342\n        /* \"#utility.yul\":10665:10666   */\n      0x00\n        /* \"#utility.yul\":10654:10663   */\n      dup4\n        /* \"#utility.yul\":10650:10667   */\n      add\n        /* \"#utility.yul\":10641:10647   */\n      dup7\n        /* \"#utility.yul\":10601:10668   */\n      tag_307\n      jump\t// in\n    tag_342:\n        /* \"#utility.yul\":10678:10750   */\n      tag_343\n        /* \"#utility.yul\":10746:10748   */\n      0x20\n        /* \"#utility.yul\":10735:10744   */\n      dup4\n        /* \"#utility.yul\":10731:10749   */\n      add\n        /* \"#utility.yul\":10722:10728   */\n      dup6\n        /* \"#utility.yul\":10678:10750   */\n      tag_258\n      jump\t// in\n    tag_343:\n        /* \"#utility.yul\":10760:10826   */\n      tag_344\n        /* \"#utility.yul\":10822:10824   */\n      0x40\n        /* \"#utility.yul\":10811:10820   */\n      dup4\n        /* \"#utility.yul\":10807:10825   */\n      add\n        /* \"#utility.yul\":10798:10804   */\n      dup5\n        /* \"#utility.yul\":10760:10826   */\n      tag_262\n      jump\t// in\n    tag_344:\n        /* \"#utility.yul\":10411:10833   */\n      swap5\n      swap4\n      pop\n      pop\n      pop\n      pop\n      jump\t// out\n        /* \"#utility.yul\":10839:11163   */\n    tag_63:\n        /* \"#utility.yul\":10956:10960   */\n      0x00\n        /* \"#utility.yul\":10994:10996   */\n      0x40\n        /* \"#utility.yul\":10983:10992   */\n      dup3\n        /* \"#utility.yul\":10979:10997   */\n      add\n        /* \"#utility.yul\":10971:10997   */\n      swap1\n      pop\n        /* \"#utility.yul\":11007:11074   */\n      tag_346\n        /* \"#utility.yul\":11071:11072   */\n      0x00\n        /* \"#utility.yul\":11060:11069   */\n      dup4\n        /* \"#utility.yul\":11056:11073   */\n      add\n        /* \"#utility.yul\":11047:11053   */\n      dup6\n        /* \"#utility.yul\":11007:11074   */\n      tag_307\n      jump\t// in\n    tag_346:\n        /* \"#utility.yul\":11084:11156   */\n      tag_347\n        /* \"#utility.yul\":11152:11154   */\n      0x20\n        /* \"#utility.yul\":11141:11150   */\n      dup4\n        /* \"#utility.yul\":11137:11155   */\n      add\n        /* \"#utility.yul\":11128:11134   */\n      dup5\n        /* \"#utility.yul\":11084:11156   */\n      tag_303\n      jump\t// in\n    tag_347:\n        /* \"#utility.yul\":10839:11163   */\n      swap4\n      swap3\n      pop\n      pop\n      pop\n      jump\t// out\n        /* \"#utility.yul\":11169:11714   */\n    tag_177:\n        /* \"#utility.yul\":11342:11346   */\n      0x00\n        /* \"#utility.yul\":11380:11383   */\n      0x80\n        /* \"#utility.yul\":11369:11378   */\n      dup3\n        /* \"#utility.yul\":11365:11384   */\n      add\n        /* \"#utility.yul\":11357:11384   */\n      swap1\n      pop\n        /* \"#utility.yul\":11394:11461   */\n      tag_349\n        /* \"#utility.yul\":11458:11459   */\n      0x00\n        /* \"#utility.yul\":11447:11456   */\n      dup4\n        /* \"#utility.yul\":11443:11460   */\n      add\n        /* \"#utility.yul\":11434:11440   */\n      dup8\n        /* \"#utility.yul\":11394:11461   */\n      tag_307\n      jump\t// in\n    tag_349:\n        /* \"#utility.yul\":11471:11543   */\n      tag_350\n        /* \"#utility.yul\":11539:11541   */\n      0x20\n        /* \"#utility.yul\":11528:11537   */\n      dup4\n        /* \"#utility.yul\":11524:11542   */\n      add\n        /* \"#utility.yul\":11515:11521   */\n      dup7\n        /* \"#utility.yul\":11471:11543   */\n      tag_303\n      jump\t// in\n    tag_350:\n        /* \"#utility.yul\":11553:11625   */\n      tag_351\n        /* \"#utility.yul\":11621:11623   */\n      0x40\n        /* \"#utility.yul\":11610:11619   */\n      dup4\n        /* \"#utility.yul\":11606:11624   */\n      add\n        /* \"#utility.yul\":11597:11603   */\n      dup6\n        /* \"#utility.yul\":11553:11625   */\n      tag_303\n      jump\t// in\n    tag_351:\n        /* \"#utility.yul\":11635:11707   */\n      tag_352\n        /* \"#utility.yul\":11703:11705   */\n      0x60\n        /* \"#utility.yul\":11692:11701   */\n      dup4\n        /* \"#utility.yul\":11688:11706   */\n      add\n        /* \"#utility.yul\":11679:11685   */\n      dup5\n        /* \"#utility.yul\":11635:11707   */\n      tag_303\n      jump\t// in\n    tag_352:\n        /* \"#utility.yul\":11169:11714   */\n      swap6\n      swap5\n      pop\n      pop\n      pop\n      pop\n      pop\n      jump\t// out\n        /* \"#utility.yul\":11801:11948   */\n    tag_280:\n        /* \"#utility.yul\":11902:11913   */\n      0x00\n        /* \"#utility.yul\":11939:11942   */\n      dup2\n        /* \"#utility.yul\":11924:11942   */\n      swap1\n      pop\n        /* \"#utility.yul\":11801:11948   */\n      swap3\n      swap2\n      pop\n      pop\n      jump\t// out\n        /* \"#utility.yul\":11954:12123   */\n    tag_269:\n        /* \"#utility.yul\":12038:12049   */\n      0x00\n        /* \"#utility.yul\":12072:12078   */\n      dup3\n        /* \"#utility.yul\":12067:12070   */\n      dup3\n        /* \"#utility.yul\":12060:12079   */\n      mstore\n        /* \"#utility.yul\":12112:12116   */\n      0x20\n        /* \"#utility.yul\":12107:12110   */\n      dup3\n        /* \"#utility.yul\":12103:12117   */\n      add\n        /* \"#utility.yul\":12088:12117   */\n      swap1\n      pop\n        /* \"#utility.yul\":11954:12123   */\n      swap3\n      swap2\n      pop\n      pop\n      jump\t// out\n        /* \"#utility.yul\":12129:12434   */\n    tag_120:\n        /* \"#utility.yul\":12169:12172   */\n      0x00\n        /* \"#utility.yul\":12188:12208   */\n      tag_358\n        /* \"#utility.yul\":12206:12207   */\n      dup3\n        /* \"#utility.yul\":12188:12208   */\n      tag_306\n      jump\t// in\n    tag_358:\n        /* \"#utility.yul\":12183:12208   */\n      swap2\n      pop\n        /* \"#utility.yul\":12222:12242   */\n      tag_359\n        /* \"#utility.yul\":12240:12241   */\n      dup4\n        /* \"#utility.yul\":12222:12242   */\n      tag_306\n      jump\t// in\n    tag_359:\n        /* \"#utility.yul\":12217:12242   */\n      swap3\n      pop\n        /* \"#utility.yul\":12376:12377   */\n      dup3\n        /* \"#utility.yul\":12308:12374   */\n      0xffffffffffffffffffffffffffffffffffffffffffffffffffffffffffffffff\n        /* \"#utility.yul\":12304:12378   */\n      sub\n        /* \"#utility.yul\":12301:12302   */\n      dup3\n        /* \"#utility.yul\":12298:12379   */\n      gt\n        /* \"#utility.yul\":12295:12402   */\n      iszero\n      tag_360\n      jumpi\n        /* \"#utility.yul\":12382:12400   */\n      tag_361\n      tag_362\n      jump\t// in\n    tag_361:\n        /* \"#utility.yul\":12295:12402   */\n    tag_360:\n        /* \"#utility.yul\":12426:12427   */\n      dup3\n        /* \"#utility.yul\":12423:12424   */\n      dup3\n        /* \"#utility.yul\":12419:12428   */\n      add\n        /* \"#utility.yul\":12412:12428   */\n      swap1\n      pop\n        /* \"#utility.yul\":12129:12434   */\n      swap3\n      swap2\n      pop\n      pop\n      jump\t// out\n        /* \"#utility.yul\":12440:12677   */\n    tag_99:\n        /* \"#utility.yul\":12478:12481   */\n      0x00\n        /* \"#utility.yul\":12497:12515   */\n      tag_364\n        /* \"#utility.yul\":12513:12514   */\n      dup3\n        /* \"#utility.yul\":12497:12515   */\n      tag_310\n      jump\t// in\n    tag_364:\n        /* \"#utility.yul\":12492:12515   */\n      swap2\n      pop\n        /* \"#utility.yul\":12529:12547   */\n      tag_365\n        /* \"#utility.yul\":12545:12546   */\n      dup4\n        /* \"#utility.yul\":12529:12547   */\n      tag_310\n      jump\t// in\n    tag_365:\n        /* \"#utility.yul\":12524:12547   */\n      swap3\n      pop\n        /* \"#utility.yul\":12619:12620   */\n      dup3\n        /* \"#utility.yul\":12613:12617   */\n      0xff\n        /* \"#utility.yul\":12609:12621   */\n      sub\n        /* \"#utility.yul\":12606:12607   */\n      dup3\n        /* \"#utility.yul\":12603:12622   */\n      gt\n        /* \"#utility.yul\":12600:12645   */\n      iszero\n      tag_366\n      jumpi\n        /* \"#utility.yul\":12625:12643   */\n      tag_367\n      tag_362\n      jump\t// in\n    tag_367:\n        /* \"#utility.yul\":12600:12645   */\n    tag_366:\n        /* \"#utility.yul\":12669:12670   */\n      dup3\n        /* \"#utility.yul\":12666:12667   */\n      dup3\n        /* \"#utility.yul\":12662:12671   */\n      add\n        /* \"#utility.yul\":12655:12671   */\n      swap1\n      pop\n        /* \"#utility.yul\":12440:12677   */\n      swap3\n      swap2\n      pop\n      pop\n      jump\t// out\n        /* \"#utility.yul\":12683:12868   */\n    tag_214:\n        /* \"#utility.yul\":12723:12724   */\n      0x00\n        /* \"#utility.yul\":12740:12760   */\n      tag_369\n        /* \"#utility.yul\":12758:12759   */\n      dup3\n        /* \"#utility.yul\":12740:12760   */\n      tag_306\n      jump\t// in\n    tag_369:\n        /* \"#utility.yul\":12735:12760   */\n      swap2\n      pop\n        /* \"#utility.yul\":12774:12794   */\n      tag_370\n        /* \"#utility.yul\":12792:12793   */\n      dup4\n        /* \"#utility.yul\":12774:12794   */\n      tag_306\n      jump\t// in\n    tag_370:\n        /* \"#utility.yul\":12769:12794   */\n      swap3\n      pop\n        /* \"#utility.yul\":12813:12814   */\n      dup3\n        /* \"#utility.yul\":12803:12838   */\n      tag_371\n      jumpi\n        /* \"#utility.yul\":12818:12836   */\n      tag_372\n      tag_373\n      jump\t// in\n    tag_372:\n        /* \"#utility.yul\":12803:12838   */\n    tag_371:\n        /* \"#utility.yul\":12860:12861   */\n      dup3\n        /* \"#utility.yul\":12857:12858   */\n      dup3\n        /* \"#utility.yul\":12853:12862   */\n      div\n        /* \"#utility.yul\":12848:12862   */\n      swap1\n      pop\n        /* \"#utility.yul\":12683:12868   */\n      swap3\n      swap2\n      pop\n      pop\n      jump\t// out\n        /* \"#utility.yul\":12874:13222   */\n    tag_211:\n        /* \"#utility.yul\":12914:12921   */\n      0x00\n        /* \"#utility.yul\":12937:12957   */\n      tag_375\n        /* \"#utility.yul\":12955:12956   */\n      dup3\n        /* \"#utility.yul\":12937:12957   */\n      tag_306\n      jump\t// in\n    tag_375:\n        /* \"#utility.yul\":12932:12957   */\n      swap2\n      pop\n        /* \"#utility.yul\":12971:12991   */\n      tag_376\n        /* \"#utility.yul\":12989:12990   */\n      dup4\n        /* \"#utility.yul\":12971:12991   */\n      tag_306\n      jump\t// in\n    tag_376:\n        /* \"#utility.yul\":12966:12991   */\n      swap3\n      pop\n        /* \"#utility.yul\":13159:13160   */\n      dup2\n        /* \"#utility.yul\":13091:13157   */\n      0xffffffffffffffffffffffffffffffffffffffffffffffffffffffffffffffff\n        /* \"#utility.yul\":13087:13161   */\n      div\n        /* \"#utility.yul\":13084:13085   */\n      dup4\n        /* \"#utility.yul\":13081:13162   */\n      gt\n        /* \"#utility.yul\":13076:13077   */\n      dup3\n        /* \"#utility.yul\":13069:13078   */\n      iszero\n        /* \"#utility.yul\":13062:13079   */\n      iszero\n        /* \"#utility.yul\":13058:13163   */\n      and\n        /* \"#utility.yul\":13055:13186   */\n      iszero\n      tag_377\n      jumpi\n        /* \"#utility.yul\":13166:13184   */\n      tag_378\n      tag_362\n      jump\t// in\n    tag_378:\n        /* \"#utility.yul\":13055:13186   */\n    tag_377:\n        /* \"#utility.yul\":13214:13215   */\n      dup3\n        /* \"#utility.yul\":13211:13212   */\n      dup3\n        /* \"#utility.yul\":13207:13216   */\n      mul\n        /* \"#utility.yul\":13196:13216   */\n      swap1\n      pop\n        /* \"#utility.yul\":12874:13222   */\n      swap3\n      swap2\n      pop\n      pop\n      jump\t// out\n        /* \"#utility.yul\":13228:13419   */\n    tag_123:\n        /* \"#utility.yul\":13268:13272   */\n      0x00\n        /* \"#utility.yul\":13288:13308   */\n      tag_380\n        /* \"#utility.yul\":13306:13307   */\n      dup3\n        /* \"#utility.yul\":13288:13308   */\n      tag_306\n      jump\t// in\n    tag_380:\n        /* \"#utility.yul\":13283:13308   */\n      swap2\n      pop\n        /* \"#utility.yul\":13322:13342   */\n      tag_381\n        /* \"#utility.yul\":13340:13341   */\n      dup4\n        /* \"#utility.yul\":13322:13342   */\n      tag_306\n      jump\t// in\n    tag_381:\n        /* \"#utility.yul\":13317:13342   */\n      swap3\n      pop\n        /* \"#utility.yul\":13361:13362   */\n      dup3\n        /* \"#utility.yul\":13358:13359   */\n      dup3\n        /* \"#utility.yul\":13355:13363   */\n      lt\n        /* \"#utility.yul\":13352:13386   */\n      iszero\n      tag_382\n      jumpi\n        /* \"#utility.yul\":13366:13384   */\n      tag_383\n      tag_362\n      jump\t// in\n    tag_383:\n        /* \"#utility.yul\":13352:13386   */\n    tag_382:\n        /* \"#utility.yul\":13411:13412   */\n      dup3\n        /* \"#utility.yul\":13408:13409   */\n      dup3\n        /* \"#utility.yul\":13404:13413   */\n      sub\n        /* \"#utility.yul\":13396:13413   */\n      swap1\n      pop\n        /* \"#utility.yul\":13228:13419   */\n      swap3\n      swap2\n      pop\n      pop\n      jump\t// out\n        /* \"#utility.yul\":13425:13610   */\n    tag_139:\n        /* \"#utility.yul\":13463:13467   */\n      0x00\n        /* \"#utility.yul\":13483:13501   */\n      tag_385\n        /* \"#utility.yul\":13499:13500   */\n      dup3\n        /* \"#utility.yul\":13483:13501   */\n      tag_310\n      jump\t// in\n    tag_385:\n        /* \"#utility.yul\":13478:13501   */\n      swap2\n      pop\n        /* \"#utility.yul\":13515:13533   */\n      tag_386\n        /* \"#utility.yul\":13531:13532   */\n      dup4\n        /* \"#utility.yul\":13515:13533   */\n      tag_310\n      jump\t// in\n    tag_386:\n        /* \"#utility.yul\":13510:13533   */\n      swap3\n      pop\n        /* \"#utility.yul\":13552:13553   */\n      dup3\n        /* \"#utility.yul\":13549:13550   */\n      dup3\n        /* \"#utility.yul\":13546:13554   */\n      lt\n        /* \"#utility.yul\":13543:13577   */\n      iszero\n      tag_387\n      jumpi\n        /* \"#utility.yul\":13557:13575   */\n      tag_388\n      tag_362\n      jump\t// in\n    tag_388:\n        /* \"#utility.yul\":13543:13577   */\n    tag_387:\n        /* \"#utility.yul\":13602:13603   */\n      dup3\n        /* \"#utility.yul\":13599:13600   */\n      dup3\n        /* \"#utility.yul\":13595:13604   */\n      sub\n        /* \"#utility.yul\":13587:13604   */\n      swap1\n      pop\n        /* \"#utility.yul\":13425:13610   */\n      swap3\n      swap2\n      pop\n      pop\n      jump\t// out\n        /* \"#utility.yul\":13616:13712   */\n    tag_261:\n        /* \"#utility.yul\":13653:13660   */\n      0x00\n        /* \"#utility.yul\":13682:13706   */\n      tag_390\n        /* \"#utility.yul\":13700:13705   */\n      dup3\n        /* \"#utility.yul\":13682:13706   */\n      tag_391\n      jump\t// in\n    tag_390:\n        /* \"#utility.yul\":13671:13706   */\n      swap1\n      pop\n        /* \"#utility.yul\":13616:13712   */\n      swap2\n      swap1\n      pop\n      jump\t// out\n        /* \"#utility.yul\":13718:13822   */\n    tag_257:\n        /* \"#utility.yul\":13763:13770   */\n      0x00\n        /* \"#utility.yul\":13792:13816   */\n      tag_393\n        /* \"#utility.yul\":13810:13815   */\n      dup3\n        /* \"#utility.yul\":13792:13816   */\n      tag_391\n      jump\t// in\n    tag_393:\n        /* \"#utility.yul\":13781:13816   */\n      swap1\n      pop\n        /* \"#utility.yul\":13718:13822   */\n      swap2\n      swap1\n      pop\n      jump\t// out\n        /* \"#utility.yul\":13828:13918   */\n    tag_265:\n        /* \"#utility.yul\":13862:13869   */\n      0x00\n        /* \"#utility.yul\":13905:13910   */\n      dup2\n        /* \"#utility.yul\":13898:13911   */\n      iszero\n        /* \"#utility.yul\":13891:13912   */\n      iszero\n        /* \"#utility.yul\":13880:13912   */\n      swap1\n      pop\n        /* \"#utility.yul\":13828:13918   */\n      swap2\n      swap1\n      pop\n      jump\t// out\n        /* \"#utility.yul\":13924:14050   */\n    tag_391:\n        /* \"#utility.yul\":13961:13968   */\n      0x00\n        /* \"#utility.yul\":14001:14043   */\n      0xffffffffffffffffffffffffffffffffffffffff\n        /* \"#utility.yul\":13994:13999   */\n      dup3\n        /* \"#utility.yul\":13990:14044   */\n      and\n        /* \"#utility.yul\":13979:14044   */\n      swap1\n      pop\n        /* \"#utility.yul\":13924:14050   */\n      swap2\n      swap1\n      pop\n      jump\t// out\n        /* \"#utility.yul\":14056:14133   */\n    tag_306:\n        /* \"#utility.yul\":14093:14100   */\n      0x00\n        /* \"#utility.yul\":14122:14127   */\n      dup2\n        /* \"#utility.yul\":14111:14127   */\n      swap1\n      pop\n        /* \"#utility.yul\":14056:14133   */\n      swap2\n      swap1\n      pop\n      jump\t// out\n        /* \"#utility.yul\":14139:14225   */\n    tag_310:\n        /* \"#utility.yul\":14174:14181   */\n      0x00\n        /* \"#utility.yul\":14214:14218   */\n      0xff\n        /* \"#utility.yul\":14207:14212   */\n      dup3\n        /* \"#utility.yul\":14203:14219   */\n      and\n        /* \"#utility.yul\":14192:14219   */\n      swap1\n      pop\n        /* \"#utility.yul\":14139:14225   */\n      swap2\n      swap1\n      pop\n      jump\t// out\n        /* \"#utility.yul\":14231:14398   */\n    tag_102:\n        /* \"#utility.yul\":14268:14271   */\n      0x00\n        /* \"#utility.yul\":14291:14313   */\n      tag_399\n        /* \"#utility.yul\":14307:14312   */\n      dup3\n        /* \"#utility.yul\":14291:14313   */\n      tag_310\n      jump\t// in\n    tag_399:\n        /* \"#utility.yul\":14282:14313   */\n      swap2\n      pop\n        /* \"#utility.yul\":14335:14339   */\n      0xff\n        /* \"#utility.yul\":14328:14333   */\n      dup3\n        /* \"#utility.yul\":14325:14340   */\n      eq\n        /* \"#utility.yul\":14322:14363   */\n      iszero\n      tag_400\n      jumpi\n        /* \"#utility.yul\":14343:14361   */\n      tag_401\n      tag_362\n      jump\t// in\n    tag_401:\n        /* \"#utility.yul\":14322:14363   */\n    tag_400:\n        /* \"#utility.yul\":14390:14391   */\n      0x01\n        /* \"#utility.yul\":14383:14388   */\n      dup3\n        /* \"#utility.yul\":14379:14392   */\n      add\n        /* \"#utility.yul\":14372:14392   */\n      swap1\n      pop\n        /* \"#utility.yul\":14231:14398   */\n      swap2\n      swap1\n      pop\n      jump\t// out\n        /* \"#utility.yul\":14404:14580   */\n    tag_217:\n        /* \"#utility.yul\":14436:14437   */\n      0x00\n        /* \"#utility.yul\":14453:14473   */\n      tag_403\n        /* \"#utility.yul\":14471:14472   */\n      dup3\n        /* \"#utility.yul\":14453:14473   */\n      tag_306\n      jump\t// in\n    tag_403:\n        /* \"#utility.yul\":14448:14473   */\n      swap2\n      pop\n        /* \"#utility.yul\":14487:14507   */\n      tag_404\n        /* \"#utility.yul\":14505:14506   */\n      dup4\n        /* \"#utility.yul\":14487:14507   */\n      tag_306\n      jump\t// in\n    tag_404:\n        /* \"#utility.yul\":14482:14507   */\n      swap3\n      pop\n        /* \"#utility.yul\":14526:14527   */\n      dup3\n        /* \"#utility.yul\":14516:14551   */\n      tag_405\n      jumpi\n        /* \"#utility.yul\":14531:14549   */\n      tag_406\n      tag_373\n      jump\t// in\n    tag_406:\n        /* \"#utility.yul\":14516:14551   */\n    tag_405:\n        /* \"#utility.yul\":14572:14573   */\n      dup3\n        /* \"#utility.yul\":14569:14570   */\n      dup3\n        /* \"#utility.yul\":14565:14574   */\n      mod\n        /* \"#utility.yul\":14560:14574   */\n      swap1\n      pop\n        /* \"#utility.yul\":14404:14580   */\n      swap3\n      swap2\n      pop\n      pop\n      jump\t// out\n        /* \"#utility.yul\":14586:14766   */\n    tag_362:\n        /* \"#utility.yul\":14634:14711   */\n      0x4e487b7100000000000000000000000000000000000000000000000000000000\n        /* \"#utility.yul\":14631:14632   */\n      0x00\n        /* \"#utility.yul\":14624:14712   */\n      mstore\n        /* \"#utility.yul\":14731:14735   */\n      0x11\n        /* \"#utility.yul\":14728:14729   */\n      0x04\n        /* \"#utility.yul\":14721:14736   */\n      mstore\n        /* \"#utility.yul\":14755:14759   */\n      0x24\n        /* \"#utility.yul\":14752:14753   */\n      0x00\n        /* \"#utility.yul\":14745:14760   */\n      revert\n        /* \"#utility.yul\":14772:14952   */\n    tag_373:\n        /* \"#utility.yul\":14820:14897   */\n      0x4e487b7100000000000000000000000000000000000000000000000000000000\n        /* \"#utility.yul\":14817:14818   */\n      0x00\n        /* \"#utility.yul\":14810:14898   */\n      mstore\n        /* \"#utility.yul\":14917:14921   */\n      0x12\n        /* \"#utility.yul\":14914:14915   */\n      0x04\n        /* \"#utility.yul\":14907:14922   */\n      mstore\n        /* \"#utility.yul\":14941:14945   */\n      0x24\n        /* \"#utility.yul\":14938:14939   */\n      0x00\n        /* \"#utility.yul\":14931:14946   */\n      revert\n        /* \"#utility.yul\":15081:15198   */\n    tag_234:\n        /* \"#utility.yul\":15190:15191   */\n      0x00\n        /* \"#utility.yul\":15187:15188   */\n      dup1\n        /* \"#utility.yul\":15180:15192   */\n      revert\n        /* \"#utility.yul\":15204:15368   */\n    tag_271:\n        /* \"#utility.yul\":15344:15360   */\n      0x47616d65206e6f7420666f756e64000000000000000000000000000000000000\n        /* \"#utility.yul\":15340:15341   */\n      0x00\n        /* \"#utility.yul\":15332:15338   */\n      dup3\n        /* \"#utility.yul\":15328:15342   */\n      add\n        /* \"#utility.yul\":15321:15361   */\n      mstore\n        /* \"#utility.yul\":15204:15368   */\n      pop\n      jump\t// out\n        /* \"#utility.yul\":15374:15550   */\n    tag_276:\n        /* \"#utility.yul\":15514:15542   */\n      0x596f752061726520616c72656164792072656769737465726564000000000000\n        /* \"#utility.yul\":15510:15511   */\n      0x00\n        /* \"#utility.yul\":15502:15508   */\n      dup3\n        /* \"#utility.yul\":15498:15512   */\n      add\n        /* \"#utility.yul\":15491:15543   */\n      mstore\n        /* \"#utility.yul\":15374:15550   */\n      pop\n      jump\t// out\n        /* \"#utility.yul\":15556:15670   */\n    tag_282:\n      pop\n      jump\t// out\n        /* \"#utility.yul\":15676:15898   */\n    tag_287:\n        /* \"#utility.yul\":15816:15850   */\n      0x496e73756666696369656e7420616d6f756e74206f6620636f6e747269627574\n        /* \"#utility.yul\":15812:15813   */\n      0x00\n        /* \"#utility.yul\":15804:15810   */\n      dup3\n        /* \"#utility.yul\":15800:15814   */\n      add\n        /* \"#utility.yul\":15793:15851   */\n      mstore\n        /* \"#utility.yul\":15885:15890   */\n      0x696f6e0000000000000000000000000000000000000000000000000000000000\n        /* \"#utility.yul\":15880:15882   */\n      0x20\n        /* \"#utility.yul\":15872:15878   */\n      dup3\n        /* \"#utility.yul\":15868:15883   */\n      add\n        /* \"#utility.yul\":15861:15891   */\n      mstore\n        /* \"#utility.yul\":15676:15898   */\n      pop\n      jump\t// out\n        /* \"#utility.yul\":15904:16131   */\n    tag_292:\n        /* \"#utility.yul\":16044:16078   */\n      0x466f72207265676974657220696e2067616d6520796f75206e65656420706179\n        /* \"#utility.yul\":16040:16041   */\n      0x00\n        /* \"#utility.yul\":16032:16038   */\n      dup3\n        /* \"#utility.yul\":16028:16042   */\n      add\n        /* \"#utility.yul\":16021:16079   */\n      mstore\n        /* \"#utility.yul\":16113:16123   */\n      0x2031206574686572000000000000000000000000000000000000000000000000\n        /* \"#utility.yul\":16108:16110   */\n      0x20\n        /* \"#utility.yul\":16100:16106   */\n      dup3\n        /* \"#utility.yul\":16096:16111   */\n      add\n        /* \"#utility.yul\":16089:16124   */\n      mstore\n        /* \"#utility.yul\":15904:16131   */\n      pop\n      jump\t// out\n        /* \"#utility.yul\":16137:16299   */\n    tag_297:\n        /* \"#utility.yul\":16277:16291   */\n      0x4e6f20636f6e7472616374730000000000000000000000000000000000000000\n        /* \"#utility.yul\":16273:16274   */\n      0x00\n        /* \"#utility.yul\":16265:16271   */\n      dup3\n        /* \"#utility.yul\":16261:16275   */\n      add\n        /* \"#utility.yul\":16254:16292   */\n      mstore\n        /* \"#utility.yul\":16137:16299   */\n      pop\n      jump\t// out\n        /* \"#utility.yul\":16305:16472   */\n    tag_302:\n        /* \"#utility.yul\":16445:16464   */\n      0x596f7520617265206e6f74206f776e6572000000000000000000000000000000\n        /* \"#utility.yul\":16441:16442   */\n      0x00\n        /* \"#utility.yul\":16433:16439   */\n      dup3\n        /* \"#utility.yul\":16429:16443   */\n      add\n        /* \"#utility.yul\":16422:16465   */\n      mstore\n        /* \"#utility.yul\":16305:16472   */\n      pop\n      jump\t// out\n        /* \"#utility.yul\":16478:16600   */\n    tag_222:\n        /* \"#utility.yul\":16551:16575   */\n      tag_420\n        /* \"#utility.yul\":16569:16574   */\n      dup2\n        /* \"#utility.yul\":16551:16575   */\n      tag_261\n      jump\t// in\n    tag_420:\n        /* \"#utility.yul\":16544:16549   */\n      dup2\n        /* \"#utility.yul\":16541:16576   */\n      eq\n        /* \"#utility.yul\":16531:16594   */\n      tag_421\n      jumpi\n        /* \"#utility.yul\":16590:16591   */\n      0x00\n        /* \"#utility.yul\":16587:16588   */\n      dup1\n        /* \"#utility.yul\":16580:16592   */\n      revert\n        /* \"#utility.yul\":16531:16594   */\n    tag_421:\n        /* \"#utility.yul\":16478:16600   */\n      pop\n      jump\t// out\n        /* \"#utility.yul\":16606:16728   */\n    tag_226:\n        /* \"#utility.yul\":16679:16703   */\n      tag_423\n        /* \"#utility.yul\":16697:16702   */\n      dup2\n        /* \"#utility.yul\":16679:16703   */\n      tag_306\n      jump\t// in\n    tag_423:\n        /* \"#utility.yul\":16672:16677   */\n      dup2\n        /* \"#utility.yul\":16669:16704   */\n      eq\n        /* \"#utility.yul\":16659:16722   */\n      tag_424\n      jumpi\n        /* \"#utility.yul\":16718:16719   */\n      0x00\n        /* \"#utility.yul\":16715:16716   */\n      dup1\n        /* \"#utility.yul\":16708:16720   */\n      revert\n        /* \"#utility.yul\":16659:16722   */\n    tag_424:\n        /* \"#utility.yul\":16606:16728   */\n      pop\n      jump\t// out\n        /* \"#utility.yul\":16734:16852   */\n    tag_230:\n        /* \"#utility.yul\":16805:16827   */\n      tag_426\n        /* \"#utility.yul\":16821:16826   */\n      dup2\n        /* \"#utility.yul\":16805:16827   */\n      tag_310\n      jump\t// in\n    tag_426:\n        /* \"#utility.yul\":16798:16803   */\n      dup2\n        /* \"#utility.yul\":16795:16828   */\n      eq\n        /* \"#utility.yul\":16785:16846   */\n      tag_427\n      jumpi\n        /* \"#utility.yul\":16842:16843   */\n      0x00\n        /* \"#utility.yul\":16839:16840   */\n      dup1\n        /* \"#utility.yul\":16832:16844   */\n      revert\n        /* \"#utility.yul\":16785:16846   */\n    tag_427:\n        /* \"#utility.yul\":16734:16852   */\n      pop\n      jump\t// out\n\n    auxdata: 0xa26469706673582212203acd22e6e8ab162ed1c374303b24a24f25f186bdae83cb83f68f0fbe7584f3cc64736f6c63430008070033\n}\n",
				"bytecode": {
					"linkReferences": {},
					"object": "60806040523480156200001157600080fd5b50336001806101000a81548173ffffffffffffffffffffffffffffffffffffffff021916908373ffffffffffffffffffffffffffffffffffffffff16021790555060018054906101000a900473ffffffffffffffffffffffffffffffffffffffff166003600080815260200190815260200160002060006101000a81548173ffffffffffffffffffffffffffffffffffffffff021916908373ffffffffffffffffffffffffffffffffffffffff16021790555060405180606001604052806000815260200160018054906101000a900473ffffffffffffffffffffffffffffffffffffffff1673ffffffffffffffffffffffffffffffffffffffff16815260200160008152506005600060018054906101000a900473ffffffffffffffffffffffffffffffffffffffff1673ffffffffffffffffffffffffffffffffffffffff1673ffffffffffffffffffffffffffffffffffffffff1681526020019081526020016000206000820151816000015560208201518160010160006101000a81548173ffffffffffffffffffffffffffffffffffffffff021916908373ffffffffffffffffffffffffffffffffffffffff160217905550604082015181600201559050506001600081905550620001f5670de0b6b3a7640000620001fb60201b60201c565b62000546565b6200020c336200035d60201b60201c565b6200024e576040517f08c379a00000000000000000000000000000000000000000000000000000000081526004016200024590620003fe565b60405180910390fd5b6040518060400160405280600160009054906101000a900460ff1660ff1681526020018281525060026000600160009054906101000a900460ff1660ff1660ff16815260200190815260200160002060008201518160000160006101000a81548160ff021916908360ff1602179055506020820151816001015590505060018060008282829054906101000a900460ff16620002eb91906200045e565b92506101000a81548160ff021916908360ff1602179055507fcf1ed532d6b83b4290f2f407b156b17826f49752e7a8ff360f502c307e05566360018060009054906101000a900460ff166200034191906200049c565b826040516200035292919062000420565b60405180910390a150565b600060018054906101000a900473ffffffffffffffffffffffffffffffffffffffff1673ffffffffffffffffffffffffffffffffffffffff168273ffffffffffffffffffffffffffffffffffffffff16149050919050565b6000620003c46011836200044d565b9150620003d1826200051d565b602082019050919050565b620003e781620004d7565b82525050565b620003f881620004e1565b82525050565b600060208201905081810360008301526200041981620003b5565b9050919050565b6000604082019050620004376000830185620003ed565b620004466020830184620003dc565b9392505050565b600082825260208201905092915050565b60006200046b82620004e1565b91506200047883620004e1565b92508260ff03821115620004915762000490620004ee565b5b828201905092915050565b6000620004a982620004e1565b9150620004b683620004e1565b925082821015620004cc57620004cb620004ee565b5b828203905092915050565b6000819050919050565b600060ff82169050919050565b7f4e487b7100000000000000000000000000000000000000000000000000000000600052601160045260246000fd5b7f596f7520617265206e6f74206f776e6572000000000000000000000000000000600082015250565b6123db80620005566000396000f3fe6080604052600436106100c65760003560e01c8063906cbf571161007f578063ad39f0a311610059578063ad39f0a3146102b9578063ae9283b5146102e4578063bd233b911461030d578063f10600061461034a576100d7565b8063906cbf571461020157806395a078e81461023f5780639b0b0ae31461027c576100d7565b80630173c05b146100e35780630e50cee5146100ff5780632a648c891461013e5780632e8aab9b1461017b578063556c90951461019757806378a32e21146101c2576100d7565b366100d7576100d53334610387565b005b6100e13334610387565b005b6100fd60048036038101906100f89190611b2c565b61044a565b005b34801561010b57600080fd5b5061012660048036038101906101219190611abf565b610781565b60405161013593929190611e2c565b60405180910390f35b34801561014a57600080fd5b5061016560048036038101906101609190611aec565b6107cb565b6040516101729190611d36565b60405180910390f35b61019560048036038101906101909190611b59565b6107fa565b005b3480156101a357600080fd5b506101ac6108a4565b6040516101b99190611e11565b60405180910390f35b3480156101ce57600080fd5b506101e960048036038101906101e49190611b86565b6108aa565b6040516101f893929190611e2c565b60405180910390f35b34801561020d57600080fd5b5061022860048036038101906102239190611b59565b610901565b604051610236929190611eec565b60405180910390f35b34801561024b57600080fd5b5061026660048036038101906102619190611abf565b610932565b6040516102739190611d36565b60405180910390f35b34801561028857600080fd5b506102a3600480360381019061029e9190611b59565b61098a565b6040516102b09190611e11565b60405180910390f35b3480156102c557600080fd5b506102ce6109a2565b6040516102db9190611e9a565b60405180910390f35b3480156102f057600080fd5b5061030b60048036038101906103069190611b2c565b6109b5565b005b34801561031957600080fd5b50610334600480360381019061032f9190611b2c565b610b06565b6040516103419190611d1b565b60405180910390f35b34801561035657600080fd5b50610371600480360381019061036c9190611aec565b610b39565b60405161037e9190611e11565b60405180910390f35b60008060005b60018060009054906101000a900460ff166103a89190611fcc565b60ff168160ff1610156103f85734600260008360ff1660ff1681526020019081526020016000206001015414156103e557600192508091506103f8565b80806103f09061215d565b91505061038d565b5081610439576040517f08c379a000000000000000000000000000000000000000000000000000000000815260040161043090611d51565b60405180910390fd5b610444818585610b5e565b50505050565b600080339050803b915060008263ffffffff16111561049e576040517f08c379a000000000000000000000000000000000000000000000000000000000815260040161049590611dd1565b60405180910390fd5b600073ffffffffffffffffffffffffffffffffffffffff16600560003373ffffffffffffffffffffffffffffffffffffffff1673ffffffffffffffffffffffffffffffffffffffff16815260200190815260200160002060010160009054906101000a900473ffffffffffffffffffffffffffffffffffffffff1673ffffffffffffffffffffffffffffffffffffffff161461056f576040517f08c379a000000000000000000000000000000000000000000000000000000000815260040161056690611d71565b60405180910390fd5b670de0b6b3a764000034146105b9576040517f08c379a00000000000000000000000000000000000000000000000000000000081526004016105b090611db1565b60405180910390fd5b604051806060016040528060005481526020013373ffffffffffffffffffffffffffffffffffffffff16815260200184815250600560003373ffffffffffffffffffffffffffffffffffffffff1673ffffffffffffffffffffffffffffffffffffffff1681526020019081526020016000206000820151816000015560208201518160010160006101000a81548173ffffffffffffffffffffffffffffffffffffffff021916908373ffffffffffffffffffffffffffffffffffffffff1602179055506040820151816002015590505033600360008054815260200190815260200160002060006101000a81548173ffffffffffffffffffffffffffffffffffffffff021916908373ffffffffffffffffffffffffffffffffffffffff16021790555060016000808282546106ee9190611f76565b9250508190555060016004600085815260200190815260200160002060008282546107199190611f76565b925050819055507f12888a3214fa3b6d599e2a7d3ff41e8aa7ef1295fe3ba5d428825df6da0868856001600054610750919061208e565b84600460008781526020019081526020016000205460405161077493929190611e63565b60405180910390a1505050565b60056020528060005260406000206000915090508060000154908060010160009054906101000a900473ffffffffffffffffffffffffffffffffffffffff16908060020154905083565b60096020528160005260406000206020528060005260406000206000915091509054906101000a900460ff1681565b600073ffffffffffffffffffffffffffffffffffffffff16600560003373ffffffffffffffffffffffffffffffffffffffff1673ffffffffffffffffffffffffffffffffffffffff16815260200190815260200160002060010160009054906101000a900473ffffffffffffffffffffffffffffffffffffffff1673ffffffffffffffffffffffffffffffffffffffff16141561089657600080fd5b6108a1813334610b5e565b50565b60005481565b6007602052816000526040600020602052806000526040600020600091509150508060000154908060010160009054906101000a900473ffffffffffffffffffffffffffffffffffffffff16908060020154905083565b60026020528060005260406000206000915090508060000160009054906101000a900460ff16908060010154905082565b600060018054906101000a900473ffffffffffffffffffffffffffffffffffffffff1673ffffffffffffffffffffffffffffffffffffffff168273ffffffffffffffffffffffffffffffffffffffff16149050919050565b60066020528060005260406000206000915090505481565b600160009054906101000a900460ff1681565b6109be33610932565b6109fd576040517f08c379a00000000000000000000000000000000000000000000000000000000081526004016109f490611df1565b60405180910390fd5b6040518060400160405280600160009054906101000a900460ff1660ff1681526020018281525060026000600160009054906101000a900460ff1660ff1660ff16815260200190815260200160002060008201518160000160006101000a81548160ff021916908360ff1602179055506020820151816001015590505060018060008282829054906101000a900460ff16610a989190611fcc565b92506101000a81548160ff021916908360ff1602179055507fcf1ed532d6b83b4290f2f407b156b17826f49752e7a8ff360f502c307e05566360018060009054906101000a900460ff16610aec91906120c2565b82604051610afb929190611eec565b60405180910390a150565b60036020528060005260406000206000915054906101000a900473ffffffffffffffffffffffffffffffffffffffff1681565b6008602052816000526040600020602052806000526040600020600091509150505481565b600260008460ff1660ff16815260200190815260200160002060010154811015610bbd576040517f08c379a0000000000000000000000000000000000000000000000000000000008152600401610bb490611d91565b60405180910390fd5b600560008373ffffffffffffffffffffffffffffffffffffffff1673ffffffffffffffffffffffffffffffffffffffff168152602001908152602001600020600760008560ff1660ff1681526020019081526020016000206000600660008760ff1660ff168152602001908152602001600020548152602001908152602001600020600082015481600001556001820160009054906101000a900473ffffffffffffffffffffffffffffffffffffffff168160010160006101000a81548173ffffffffffffffffffffffffffffffffffffffff021916908373ffffffffffffffffffffffffffffffffffffffff160217905550600282015481600201559050506001600960008473ffffffffffffffffffffffffffffffffffffffff1673ffffffffffffffffffffffffffffffffffffffff16815260200190815260200160002060008560ff1660ff16815260200190815260200160002060006101000a81548160ff0219169083151502179055506001600660008560ff1660ff1681526020019081526020016000206000828254610d569190611f76565b925050819055506003600660008560ff1660ff16815260200190815260200160002054106119fa576000610da2600660008660ff1660ff168152602001908152602001600020546119ff565b90505b600081146119f8576000600760008660ff1660ff1681526020019081526020016000206000600184610dd7919061208e565b815260200190815260200160002060010160009054906101000a900473ffffffffffffffffffffffffffffffffffffffff1690506001600860008373ffffffffffffffffffffffffffffffffffffffff1673ffffffffffffffffffffffffffffffffffffffff16815260200190815260200160002060008760ff1660ff16815260200190815260200160002054111580610edd5750600960008273ffffffffffffffffffffffffffffffffffffffff1673ffffffffffffffffffffffffffffffffffffffff1681526020019081526020016000206000600187610eba9190611fcc565b60ff1660ff16815260200190815260200160002060009054906101000a900460ff165b156119e75760008173ffffffffffffffffffffffffffffffffffffffff16610f3e6064610f30604a600260008c60ff1660ff16815260200190815260200160002060010154611a3e90919063ffffffff16565b611a5490919063ffffffff16565b604051610f4a90611d06565b60006040518083038185875af1925050503d8060008114610f87576040519150601f19603f3d011682016040523d82523d6000602084013e610f8c565b606091505b505090506001600860008473ffffffffffffffffffffffffffffffffffffffff1673ffffffffffffffffffffffffffffffffffffffff16815260200190815260200160002060008860ff1660ff1681526020019081526020016000206000828254610ff79190611f76565b925050819055507fd9ff1d189bd8473f87a70327222795b92238d06f3edf14fa23403ac2153c10a9600260008860ff1660ff16815260200190815260200160002060000160009054906101000a900460ff16838360405161105a93929190611eb5565b60405180910390a16000600760008860ff1660ff168152602001908152602001600020600060018661108c919061208e565b81526020019081526020016000206000015490506000600760008960ff1660ff16815260200190815260200160002060006001876110ca919061208e565b815260200190815260200160002060020154905060006111236064611115600a600260008e60ff1660ff16815260200190815260200160002060010154611a3e90919063ffffffff16565b611a5490919063ffffffff16565b90506003600083815260200190815260200160002060009054906101000a900473ffffffffffffffffffffffffffffffffffffffff1673ffffffffffffffffffffffffffffffffffffffff168160405161117c90611d06565b60006040518083038185875af1925050503d80600081146111b9576040519150601f19603f3d011682016040523d82523d6000602084013e6111be565b606091505b5050809450508315611231577fafe90bc52fc3dd02b2550b825fc68e93b4bfbcb8165bbacda6cd14b2bad5bc02600260008b60ff1660ff16815260200190815260200160002060000160009054906101000a900460ff168484846040516112289493929190611f15565b60405180910390a15b61127460646112666006600260008e60ff1660ff16815260200190815260200160002060010154611a3e90919063ffffffff16565b611a5490919063ffffffff16565b9050600560006003600085815260200190815260200160002060009054906101000a900473ffffffffffffffffffffffffffffffffffffffff1673ffffffffffffffffffffffffffffffffffffffff1673ffffffffffffffffffffffffffffffffffffffff16815260200190815260200160002060010160009054906101000a900473ffffffffffffffffffffffffffffffffffffffff1673ffffffffffffffffffffffffffffffffffffffff168160405161132f90611d06565b60006040518083038185875af1925050503d806000811461136c576040519150601f19603f3d011682016040523d82523d6000602084013e611371565b606091505b5050809450508315611459577fafe90bc52fc3dd02b2550b825fc68e93b4bfbcb8165bbacda6cd14b2bad5bc02600260008b60ff1660ff16815260200190815260200160002060000160009054906101000a900460ff1683600560006003600088815260200190815260200160002060009054906101000a900473ffffffffffffffffffffffffffffffffffffffff1673ffffffffffffffffffffffffffffffffffffffff1673ffffffffffffffffffffffffffffffffffffffff16815260200190815260200160002060000154846040516114509493929190611f15565b60405180910390a15b61149c606461148e6004600260008e60ff1660ff16815260200190815260200160002060010154611a3e90919063ffffffff16565b611a5490919063ffffffff16565b90506005600060036000600560006003600089815260200190815260200160002060009054906101000a900473ffffffffffffffffffffffffffffffffffffffff1673ffffffffffffffffffffffffffffffffffffffff1673ffffffffffffffffffffffffffffffffffffffff16815260200190815260200160002060000154815260200190815260200160002060009054906101000a900473ffffffffffffffffffffffffffffffffffffffff1673ffffffffffffffffffffffffffffffffffffffff1673ffffffffffffffffffffffffffffffffffffffff16815260200190815260200160002060010160009054906101000a900473ffffffffffffffffffffffffffffffffffffffff1673ffffffffffffffffffffffffffffffffffffffff16816040516115cc90611d06565b60006040518083038185875af1925050503d8060008114611609576040519150601f19603f3d011682016040523d82523d6000602084013e61160e565b606091505b50508094505083156117e0577fafe90bc52fc3dd02b2550b825fc68e93b4bfbcb8165bbacda6cd14b2bad5bc02600260008b60ff1660ff16815260200190815260200160002060000160009054906101000a900460ff16600560006003600087815260200190815260200160002060009054906101000a900473ffffffffffffffffffffffffffffffffffffffff1673ffffffffffffffffffffffffffffffffffffffff1673ffffffffffffffffffffffffffffffffffffffff16815260200190815260200160002060000154600560006003600060056000600360008c815260200190815260200160002060009054906101000a900473ffffffffffffffffffffffffffffffffffffffff1673ffffffffffffffffffffffffffffffffffffffff1673ffffffffffffffffffffffffffffffffffffffff16815260200190815260200160002060000154815260200190815260200160002060009054906101000a900473ffffffffffffffffffffffffffffffffffffffff1673ffffffffffffffffffffffffffffffffffffffff1673ffffffffffffffffffffffffffffffffffffffff16815260200190815260200160002060000154846040516117d79493929190611f15565b60405180910390a15b61182360646118156006600260008e60ff1660ff16815260200190815260200160002060010154611a3e90919063ffffffff16565b611a5490919063ffffffff16565b90506005600060018054906101000a900473ffffffffffffffffffffffffffffffffffffffff1673ffffffffffffffffffffffffffffffffffffffff1673ffffffffffffffffffffffffffffffffffffffff16815260200190815260200160002060010160009054906101000a900473ffffffffffffffffffffffffffffffffffffffff1673ffffffffffffffffffffffffffffffffffffffff16816040516118cb90611d06565b60006040518083038185875af1925050503d8060008114611908576040519150601f19603f3d011682016040523d82523d6000602084013e61190d565b606091505b50508094505083156119e2577fafe90bc52fc3dd02b2550b825fc68e93b4bfbcb8165bbacda6cd14b2bad5bc02600260008b60ff1660ff16815260200190815260200160002060000160009054906101000a900460ff16846005600060018054906101000a900473ffffffffffffffffffffffffffffffffffffffff1673ffffffffffffffffffffffffffffffffffffffff1673ffffffffffffffffffffffffffffffffffffffff16815260200190815260200160002060000154846040516119d99493929190611f15565b60405180910390a15b505050505b6119f0826119ff565b915050610da5565b505b505050565b600080611a16600284611a6a90919063ffffffff16565b14611a3457611a2f600283611a5490919063ffffffff16565b611a37565b60005b9050919050565b60008183611a4c9190612034565b905092915050565b60008183611a629190612003565b905092915050565b60008183611a789190612187565b905092915050565b600081359050611a8f81612360565b92915050565b600081359050611aa481612377565b92915050565b600081359050611ab98161238e565b92915050565b600060208284031215611ad557611ad4612216565b5b6000611ae384828501611a80565b91505092915050565b60008060408385031215611b0357611b02612216565b5b6000611b1185828601611a80565b9250506020611b2285828601611aaa565b9150509250929050565b600060208284031215611b4257611b41612216565b5b6000611b5084828501611a95565b91505092915050565b600060208284031215611b6f57611b6e612216565b5b6000611b7d84828501611aaa565b91505092915050565b60008060408385031215611b9d57611b9c612216565b5b6000611bab85828601611aaa565b9250506020611bbc85828601611a95565b9150509250929050565b611bcf81612108565b82525050565b611bde816120f6565b82525050565b611bed8161211a565b82525050565b6000611c00600e83611f65565b9150611c0b8261221b565b602082019050919050565b6000611c23601a83611f65565b9150611c2e82612244565b602082019050919050565b6000611c46600083611f5a565b9150611c518261226d565b600082019050919050565b6000611c69602383611f65565b9150611c7482612270565b604082019050919050565b6000611c8c602883611f65565b9150611c97826122bf565b604082019050919050565b6000611caf600c83611f65565b9150611cba8261230e565b602082019050919050565b6000611cd2601183611f65565b9150611cdd82612337565b602082019050919050565b611cf181612146565b82525050565b611d0081612150565b82525050565b6000611d1182611c39565b9150819050919050565b6000602082019050611d306000830184611bd5565b92915050565b6000602082019050611d4b6000830184611be4565b92915050565b60006020820190508181036000830152611d6a81611bf3565b9050919050565b60006020820190508181036000830152611d8a81611c16565b9050919050565b60006020820190508181036000830152611daa81611c5c565b9050919050565b60006020820190508181036000830152611dca81611c7f565b9050919050565b60006020820190508181036000830152611dea81611ca2565b9050919050565b60006020820190508181036000830152611e0a81611cc5565b9050919050565b6000602082019050611e266000830184611ce8565b92915050565b6000606082019050611e416000830186611ce8565b611e4e6020830185611bc6565b611e5b6040830184611ce8565b949350505050565b6000606082019050611e786000830186611ce8565b611e856020830185611ce8565b611e926040830184611ce8565b949350505050565b6000602082019050611eaf6000830184611cf7565b92915050565b6000606082019050611eca6000830186611cf7565b611ed76020830185611bd5565b611ee46040830184611be4565b949350505050565b6000604082019050611f016000830185611cf7565b611f0e6020830184611ce8565b9392505050565b6000608082019050611f2a6000830187611cf7565b611f376020830186611ce8565b611f446040830185611ce8565b611f516060830184611ce8565b95945050505050565b600081905092915050565b600082825260208201905092915050565b6000611f8182612146565b9150611f8c83612146565b9250827fffffffffffffffffffffffffffffffffffffffffffffffffffffffffffffffff03821115611fc157611fc06121b8565b5b828201905092915050565b6000611fd782612150565b9150611fe283612150565b92508260ff03821115611ff857611ff76121b8565b5b828201905092915050565b600061200e82612146565b915061201983612146565b925082612029576120286121e7565b5b828204905092915050565b600061203f82612146565b915061204a83612146565b9250817fffffffffffffffffffffffffffffffffffffffffffffffffffffffffffffffff0483118215151615612083576120826121b8565b5b828202905092915050565b600061209982612146565b91506120a483612146565b9250828210156120b7576120b66121b8565b5b828203905092915050565b60006120cd82612150565b91506120d883612150565b9250828210156120eb576120ea6121b8565b5b828203905092915050565b600061210182612126565b9050919050565b600061211382612126565b9050919050565b60008115159050919050565b600073ffffffffffffffffffffffffffffffffffffffff82169050919050565b6000819050919050565b600060ff82169050919050565b600061216882612150565b915060ff82141561217c5761217b6121b8565b5b600182019050919050565b600061219282612146565b915061219d83612146565b9250826121ad576121ac6121e7565b5b828206905092915050565b7f4e487b7100000000000000000000000000000000000000000000000000000000600052601160045260246000fd5b7f4e487b7100000000000000000000000000000000000000000000000000000000600052601260045260246000fd5b600080fd5b7f47616d65206e6f7420666f756e64000000000000000000000000000000000000600082015250565b7f596f752061726520616c72656164792072656769737465726564000000000000600082015250565b50565b7f496e73756666696369656e7420616d6f756e74206f6620636f6e74726962757460008201527f696f6e0000000000000000000000000000000000000000000000000000000000602082015250565b7f466f72207265676974657220696e2067616d6520796f75206e6565642070617960008201527f2031206574686572000000000000000000000000000000000000000000000000602082015250565b7f4e6f20636f6e7472616374730000000000000000000000000000000000000000600082015250565b7f596f7520617265206e6f74206f776e6572000000000000000000000000000000600082015250565b612369816120f6565b811461237457600080fd5b50565b61238081612146565b811461238b57600080fd5b50565b61239781612150565b81146123a257600080fd5b5056fea26469706673582212203acd22e6e8ab162ed1c374303b24a24f25f186bdae83cb83f68f0fbe7584f3cc64736f6c63430008070033",
					"opcodes": "PUSH1 0x80 PUSH1 0x40 MSTORE CALLVALUE DUP1 ISZERO PUSH3 0x11 JUMPI PUSH1 0x0 DUP1 REVERT JUMPDEST POP CALLER PUSH1 0x1 DUP1 PUSH2 0x100 EXP DUP2 SLOAD DUP2 PUSH20 0xFFFFFFFFFFFFFFFFFFFFFFFFFFFFFFFFFFFFFFFF MUL NOT AND SWAP1 DUP4 PUSH20 0xFFFFFFFFFFFFFFFFFFFFFFFFFFFFFFFFFFFFFFFF AND MUL OR SWAP1 SSTORE POP PUSH1 0x1 DUP1 SLOAD SWAP1 PUSH2 0x100 EXP SWAP1 DIV PUSH20 0xFFFFFFFFFFFFFFFFFFFFFFFFFFFFFFFFFFFFFFFF AND PUSH1 0x3 PUSH1 0x0 DUP1 DUP2 MSTORE PUSH1 0x20 ADD SWAP1 DUP2 MSTORE PUSH1 0x20 ADD PUSH1 0x0 KECCAK256 PUSH1 0x0 PUSH2 0x100 EXP DUP2 SLOAD DUP2 PUSH20 0xFFFFFFFFFFFFFFFFFFFFFFFFFFFFFFFFFFFFFFFF MUL NOT AND SWAP1 DUP4 PUSH20 0xFFFFFFFFFFFFFFFFFFFFFFFFFFFFFFFFFFFFFFFF AND MUL OR SWAP1 SSTORE POP PUSH1 0x40 MLOAD DUP1 PUSH1 0x60 ADD PUSH1 0x40 MSTORE DUP1 PUSH1 0x0 DUP2 MSTORE PUSH1 0x20 ADD PUSH1 0x1 DUP1 SLOAD SWAP1 PUSH2 0x100 EXP SWAP1 DIV PUSH20 0xFFFFFFFFFFFFFFFFFFFFFFFFFFFFFFFFFFFFFFFF AND PUSH20 0xFFFFFFFFFFFFFFFFFFFFFFFFFFFFFFFFFFFFFFFF AND DUP2 MSTORE PUSH1 0x20 ADD PUSH1 0x0 DUP2 MSTORE POP PUSH1 0x5 PUSH1 0x0 PUSH1 0x1 DUP1 SLOAD SWAP1 PUSH2 0x100 EXP SWAP1 DIV PUSH20 0xFFFFFFFFFFFFFFFFFFFFFFFFFFFFFFFFFFFFFFFF AND PUSH20 0xFFFFFFFFFFFFFFFFFFFFFFFFFFFFFFFFFFFFFFFF AND PUSH20 0xFFFFFFFFFFFFFFFFFFFFFFFFFFFFFFFFFFFFFFFF AND DUP2 MSTORE PUSH1 0x20 ADD SWAP1 DUP2 MSTORE PUSH1 0x20 ADD PUSH1 0x0 KECCAK256 PUSH1 0x0 DUP3 ADD MLOAD DUP2 PUSH1 0x0 ADD SSTORE PUSH1 0x20 DUP3 ADD MLOAD DUP2 PUSH1 0x1 ADD PUSH1 0x0 PUSH2 0x100 EXP DUP2 SLOAD DUP2 PUSH20 0xFFFFFFFFFFFFFFFFFFFFFFFFFFFFFFFFFFFFFFFF MUL NOT AND SWAP1 DUP4 PUSH20 0xFFFFFFFFFFFFFFFFFFFFFFFFFFFFFFFFFFFFFFFF AND MUL OR SWAP1 SSTORE POP PUSH1 0x40 DUP3 ADD MLOAD DUP2 PUSH1 0x2 ADD SSTORE SWAP1 POP POP PUSH1 0x1 PUSH1 0x0 DUP2 SWAP1 SSTORE POP PUSH3 0x1F5 PUSH8 0xDE0B6B3A7640000 PUSH3 0x1FB PUSH1 0x20 SHL PUSH1 0x20 SHR JUMP JUMPDEST PUSH3 0x546 JUMP JUMPDEST PUSH3 0x20C CALLER PUSH3 0x35D PUSH1 0x20 SHL PUSH1 0x20 SHR JUMP JUMPDEST PUSH3 0x24E JUMPI PUSH1 0x40 MLOAD PUSH32 0x8C379A000000000000000000000000000000000000000000000000000000000 DUP2 MSTORE PUSH1 0x4 ADD PUSH3 0x245 SWAP1 PUSH3 0x3FE JUMP JUMPDEST PUSH1 0x40 MLOAD DUP1 SWAP2 SUB SWAP1 REVERT JUMPDEST PUSH1 0x40 MLOAD DUP1 PUSH1 0x40 ADD PUSH1 0x40 MSTORE DUP1 PUSH1 0x1 PUSH1 0x0 SWAP1 SLOAD SWAP1 PUSH2 0x100 EXP SWAP1 DIV PUSH1 0xFF AND PUSH1 0xFF AND DUP2 MSTORE PUSH1 0x20 ADD DUP3 DUP2 MSTORE POP PUSH1 0x2 PUSH1 0x0 PUSH1 0x1 PUSH1 0x0 SWAP1 SLOAD SWAP1 PUSH2 0x100 EXP SWAP1 DIV PUSH1 0xFF AND PUSH1 0xFF AND PUSH1 0xFF AND DUP2 MSTORE PUSH1 0x20 ADD SWAP1 DUP2 MSTORE PUSH1 0x20 ADD PUSH1 0x0 KECCAK256 PUSH1 0x0 DUP3 ADD MLOAD DUP2 PUSH1 0x0 ADD PUSH1 0x0 PUSH2 0x100 EXP DUP2 SLOAD DUP2 PUSH1 0xFF MUL NOT AND SWAP1 DUP4 PUSH1 0xFF AND MUL OR SWAP1 SSTORE POP PUSH1 0x20 DUP3 ADD MLOAD DUP2 PUSH1 0x1 ADD SSTORE SWAP1 POP POP PUSH1 0x1 DUP1 PUSH1 0x0 DUP3 DUP3 DUP3 SWAP1 SLOAD SWAP1 PUSH2 0x100 EXP SWAP1 DIV PUSH1 0xFF AND PUSH3 0x2EB SWAP2 SWAP1 PUSH3 0x45E JUMP JUMPDEST SWAP3 POP PUSH2 0x100 EXP DUP2 SLOAD DUP2 PUSH1 0xFF MUL NOT AND SWAP1 DUP4 PUSH1 0xFF AND MUL OR SWAP1 SSTORE POP PUSH32 0xCF1ED532D6B83B4290F2F407B156B17826F49752E7A8FF360F502C307E055663 PUSH1 0x1 DUP1 PUSH1 0x0 SWAP1 SLOAD SWAP1 PUSH2 0x100 EXP SWAP1 DIV PUSH1 0xFF AND PUSH3 0x341 SWAP2 SWAP1 PUSH3 0x49C JUMP JUMPDEST DUP3 PUSH1 0x40 MLOAD PUSH3 0x352 SWAP3 SWAP2 SWAP1 PUSH3 0x420 JUMP JUMPDEST PUSH1 0x40 MLOAD DUP1 SWAP2 SUB SWAP1 LOG1 POP JUMP JUMPDEST PUSH1 0x0 PUSH1 0x1 DUP1 SLOAD SWAP1 PUSH2 0x100 EXP SWAP1 DIV PUSH20 0xFFFFFFFFFFFFFFFFFFFFFFFFFFFFFFFFFFFFFFFF AND PUSH20 0xFFFFFFFFFFFFFFFFFFFFFFFFFFFFFFFFFFFFFFFF AND DUP3 PUSH20 0xFFFFFFFFFFFFFFFFFFFFFFFFFFFFFFFFFFFFFFFF AND EQ SWAP1 POP SWAP2 SWAP1 POP JUMP JUMPDEST PUSH1 0x0 PUSH3 0x3C4 PUSH1 0x11 DUP4 PUSH3 0x44D JUMP JUMPDEST SWAP2 POP PUSH3 0x3D1 DUP3 PUSH3 0x51D JUMP JUMPDEST PUSH1 0x20 DUP3 ADD SWAP1 POP SWAP2 SWAP1 POP JUMP JUMPDEST PUSH3 0x3E7 DUP2 PUSH3 0x4D7 JUMP JUMPDEST DUP3 MSTORE POP POP JUMP JUMPDEST PUSH3 0x3F8 DUP2 PUSH3 0x4E1 JUMP JUMPDEST DUP3 MSTORE POP POP JUMP JUMPDEST PUSH1 0x0 PUSH1 0x20 DUP3 ADD SWAP1 POP DUP2 DUP2 SUB PUSH1 0x0 DUP4 ADD MSTORE PUSH3 0x419 DUP2 PUSH3 0x3B5 JUMP JUMPDEST SWAP1 POP SWAP2 SWAP1 POP JUMP JUMPDEST PUSH1 0x0 PUSH1 0x40 DUP3 ADD SWAP1 POP PUSH3 0x437 PUSH1 0x0 DUP4 ADD DUP6 PUSH3 0x3ED JUMP JUMPDEST PUSH3 0x446 PUSH1 0x20 DUP4 ADD DUP5 PUSH3 0x3DC JUMP JUMPDEST SWAP4 SWAP3 POP POP POP JUMP JUMPDEST PUSH1 0x0 DUP3 DUP3 MSTORE PUSH1 0x20 DUP3 ADD SWAP1 POP SWAP3 SWAP2 POP POP JUMP JUMPDEST PUSH1 0x0 PUSH3 0x46B DUP3 PUSH3 0x4E1 JUMP JUMPDEST SWAP2 POP PUSH3 0x478 DUP4 PUSH3 0x4E1 JUMP JUMPDEST SWAP3 POP DUP3 PUSH1 0xFF SUB DUP3 GT ISZERO PUSH3 0x491 JUMPI PUSH3 0x490 PUSH3 0x4EE JUMP JUMPDEST JUMPDEST DUP3 DUP3 ADD SWAP1 POP SWAP3 SWAP2 POP POP JUMP JUMPDEST PUSH1 0x0 PUSH3 0x4A9 DUP3 PUSH3 0x4E1 JUMP JUMPDEST SWAP2 POP PUSH3 0x4B6 DUP4 PUSH3 0x4E1 JUMP JUMPDEST SWAP3 POP DUP3 DUP3 LT ISZERO PUSH3 0x4CC JUMPI PUSH3 0x4CB PUSH3 0x4EE JUMP JUMPDEST JUMPDEST DUP3 DUP3 SUB SWAP1 POP SWAP3 SWAP2 POP POP JUMP JUMPDEST PUSH1 0x0 DUP2 SWAP1 POP SWAP2 SWAP1 POP JUMP JUMPDEST PUSH1 0x0 PUSH1 0xFF DUP3 AND SWAP1 POP SWAP2 SWAP1 POP JUMP JUMPDEST PUSH32 0x4E487B7100000000000000000000000000000000000000000000000000000000 PUSH1 0x0 MSTORE PUSH1 0x11 PUSH1 0x4 MSTORE PUSH1 0x24 PUSH1 0x0 REVERT JUMPDEST PUSH32 0x596F7520617265206E6F74206F776E6572000000000000000000000000000000 PUSH1 0x0 DUP3 ADD MSTORE POP JUMP JUMPDEST PUSH2 0x23DB DUP1 PUSH3 0x556 PUSH1 0x0 CODECOPY PUSH1 0x0 RETURN INVALID PUSH1 0x80 PUSH1 0x40 MSTORE PUSH1 0x4 CALLDATASIZE LT PUSH2 0xC6 JUMPI PUSH1 0x0 CALLDATALOAD PUSH1 0xE0 SHR DUP1 PUSH4 0x906CBF57 GT PUSH2 0x7F JUMPI DUP1 PUSH4 0xAD39F0A3 GT PUSH2 0x59 JUMPI DUP1 PUSH4 0xAD39F0A3 EQ PUSH2 0x2B9 JUMPI DUP1 PUSH4 0xAE9283B5 EQ PUSH2 0x2E4 JUMPI DUP1 PUSH4 0xBD233B91 EQ PUSH2 0x30D JUMPI DUP1 PUSH4 0xF1060006 EQ PUSH2 0x34A JUMPI PUSH2 0xD7 JUMP JUMPDEST DUP1 PUSH4 0x906CBF57 EQ PUSH2 0x201 JUMPI DUP1 PUSH4 0x95A078E8 EQ PUSH2 0x23F JUMPI DUP1 PUSH4 0x9B0B0AE3 EQ PUSH2 0x27C JUMPI PUSH2 0xD7 JUMP JUMPDEST DUP1 PUSH4 0x173C05B EQ PUSH2 0xE3 JUMPI DUP1 PUSH4 0xE50CEE5 EQ PUSH2 0xFF JUMPI DUP1 PUSH4 0x2A648C89 EQ PUSH2 0x13E JUMPI DUP1 PUSH4 0x2E8AAB9B EQ PUSH2 0x17B JUMPI DUP1 PUSH4 0x556C9095 EQ PUSH2 0x197 JUMPI DUP1 PUSH4 0x78A32E21 EQ PUSH2 0x1C2 JUMPI PUSH2 0xD7 JUMP JUMPDEST CALLDATASIZE PUSH2 0xD7 JUMPI PUSH2 0xD5 CALLER CALLVALUE PUSH2 0x387 JUMP JUMPDEST STOP JUMPDEST PUSH2 0xE1 CALLER CALLVALUE PUSH2 0x387 JUMP JUMPDEST STOP JUMPDEST PUSH2 0xFD PUSH1 0x4 DUP1 CALLDATASIZE SUB DUP2 ADD SWAP1 PUSH2 0xF8 SWAP2 SWAP1 PUSH2 0x1B2C JUMP JUMPDEST PUSH2 0x44A JUMP JUMPDEST STOP JUMPDEST CALLVALUE DUP1 ISZERO PUSH2 0x10B JUMPI PUSH1 0x0 DUP1 REVERT JUMPDEST POP PUSH2 0x126 PUSH1 0x4 DUP1 CALLDATASIZE SUB DUP2 ADD SWAP1 PUSH2 0x121 SWAP2 SWAP1 PUSH2 0x1ABF JUMP JUMPDEST PUSH2 0x781 JUMP JUMPDEST PUSH1 0x40 MLOAD PUSH2 0x135 SWAP4 SWAP3 SWAP2 SWAP1 PUSH2 0x1E2C JUMP JUMPDEST PUSH1 0x40 MLOAD DUP1 SWAP2 SUB SWAP1 RETURN JUMPDEST CALLVALUE DUP1 ISZERO PUSH2 0x14A JUMPI PUSH1 0x0 DUP1 REVERT JUMPDEST POP PUSH2 0x165 PUSH1 0x4 DUP1 CALLDATASIZE SUB DUP2 ADD SWAP1 PUSH2 0x160 SWAP2 SWAP1 PUSH2 0x1AEC JUMP JUMPDEST PUSH2 0x7CB JUMP JUMPDEST PUSH1 0x40 MLOAD PUSH2 0x172 SWAP2 SWAP1 PUSH2 0x1D36 JUMP JUMPDEST PUSH1 0x40 MLOAD DUP1 SWAP2 SUB SWAP1 RETURN JUMPDEST PUSH2 0x195 PUSH1 0x4 DUP1 CALLDATASIZE SUB DUP2 ADD SWAP1 PUSH2 0x190 SWAP2 SWAP1 PUSH2 0x1B59 JUMP JUMPDEST PUSH2 0x7FA JUMP JUMPDEST STOP JUMPDEST CALLVALUE DUP1 ISZERO PUSH2 0x1A3 JUMPI PUSH1 0x0 DUP1 REVERT JUMPDEST POP PUSH2 0x1AC PUSH2 0x8A4 JUMP JUMPDEST PUSH1 0x40 MLOAD PUSH2 0x1B9 SWAP2 SWAP1 PUSH2 0x1E11 JUMP JUMPDEST PUSH1 0x40 MLOAD DUP1 SWAP2 SUB SWAP1 RETURN JUMPDEST CALLVALUE DUP1 ISZERO PUSH2 0x1CE JUMPI PUSH1 0x0 DUP1 REVERT JUMPDEST POP PUSH2 0x1E9 PUSH1 0x4 DUP1 CALLDATASIZE SUB DUP2 ADD SWAP1 PUSH2 0x1E4 SWAP2 SWAP1 PUSH2 0x1B86 JUMP JUMPDEST PUSH2 0x8AA JUMP JUMPDEST PUSH1 0x40 MLOAD PUSH2 0x1F8 SWAP4 SWAP3 SWAP2 SWAP1 PUSH2 0x1E2C JUMP JUMPDEST PUSH1 0x40 MLOAD DUP1 SWAP2 SUB SWAP1 RETURN JUMPDEST CALLVALUE DUP1 ISZERO PUSH2 0x20D JUMPI PUSH1 0x0 DUP1 REVERT JUMPDEST POP PUSH2 0x228 PUSH1 0x4 DUP1 CALLDATASIZE SUB DUP2 ADD SWAP1 PUSH2 0x223 SWAP2 SWAP1 PUSH2 0x1B59 JUMP JUMPDEST PUSH2 0x901 JUMP JUMPDEST PUSH1 0x40 MLOAD PUSH2 0x236 SWAP3 SWAP2 SWAP1 PUSH2 0x1EEC JUMP JUMPDEST PUSH1 0x40 MLOAD DUP1 SWAP2 SUB SWAP1 RETURN JUMPDEST CALLVALUE DUP1 ISZERO PUSH2 0x24B JUMPI PUSH1 0x0 DUP1 REVERT JUMPDEST POP PUSH2 0x266 PUSH1 0x4 DUP1 CALLDATASIZE SUB DUP2 ADD SWAP1 PUSH2 0x261 SWAP2 SWAP1 PUSH2 0x1ABF JUMP JUMPDEST PUSH2 0x932 JUMP JUMPDEST PUSH1 0x40 MLOAD PUSH2 0x273 SWAP2 SWAP1 PUSH2 0x1D36 JUMP JUMPDEST PUSH1 0x40 MLOAD DUP1 SWAP2 SUB SWAP1 RETURN JUMPDEST CALLVALUE DUP1 ISZERO PUSH2 0x288 JUMPI PUSH1 0x0 DUP1 REVERT JUMPDEST POP PUSH2 0x2A3 PUSH1 0x4 DUP1 CALLDATASIZE SUB DUP2 ADD SWAP1 PUSH2 0x29E SWAP2 SWAP1 PUSH2 0x1B59 JUMP JUMPDEST PUSH2 0x98A JUMP JUMPDEST PUSH1 0x40 MLOAD PUSH2 0x2B0 SWAP2 SWAP1 PUSH2 0x1E11 JUMP JUMPDEST PUSH1 0x40 MLOAD DUP1 SWAP2 SUB SWAP1 RETURN JUMPDEST CALLVALUE DUP1 ISZERO PUSH2 0x2C5 JUMPI PUSH1 0x0 DUP1 REVERT JUMPDEST POP PUSH2 0x2CE PUSH2 0x9A2 JUMP JUMPDEST PUSH1 0x40 MLOAD PUSH2 0x2DB SWAP2 SWAP1 PUSH2 0x1E9A JUMP JUMPDEST PUSH1 0x40 MLOAD DUP1 SWAP2 SUB SWAP1 RETURN JUMPDEST CALLVALUE DUP1 ISZERO PUSH2 0x2F0 JUMPI PUSH1 0x0 DUP1 REVERT JUMPDEST POP PUSH2 0x30B PUSH1 0x4 DUP1 CALLDATASIZE SUB DUP2 ADD SWAP1 PUSH2 0x306 SWAP2 SWAP1 PUSH2 0x1B2C JUMP JUMPDEST PUSH2 0x9B5 JUMP JUMPDEST STOP JUMPDEST CALLVALUE DUP1 ISZERO PUSH2 0x319 JUMPI PUSH1 0x0 DUP1 REVERT JUMPDEST POP PUSH2 0x334 PUSH1 0x4 DUP1 CALLDATASIZE SUB DUP2 ADD SWAP1 PUSH2 0x32F SWAP2 SWAP1 PUSH2 0x1B2C JUMP JUMPDEST PUSH2 0xB06 JUMP JUMPDEST PUSH1 0x40 MLOAD PUSH2 0x341 SWAP2 SWAP1 PUSH2 0x1D1B JUMP JUMPDEST PUSH1 0x40 MLOAD DUP1 SWAP2 SUB SWAP1 RETURN JUMPDEST CALLVALUE DUP1 ISZERO PUSH2 0x356 JUMPI PUSH1 0x0 DUP1 REVERT JUMPDEST POP PUSH2 0x371 PUSH1 0x4 DUP1 CALLDATASIZE SUB DUP2 ADD SWAP1 PUSH2 0x36C SWAP2 SWAP1 PUSH2 0x1AEC JUMP JUMPDEST PUSH2 0xB39 JUMP JUMPDEST PUSH1 0x40 MLOAD PUSH2 0x37E SWAP2 SWAP1 PUSH2 0x1E11 JUMP JUMPDEST PUSH1 0x40 MLOAD DUP1 SWAP2 SUB SWAP1 RETURN JUMPDEST PUSH1 0x0 DUP1 PUSH1 0x0 JUMPDEST PUSH1 0x1 DUP1 PUSH1 0x0 SWAP1 SLOAD SWAP1 PUSH2 0x100 EXP SWAP1 DIV PUSH1 0xFF AND PUSH2 0x3A8 SWAP2 SWAP1 PUSH2 0x1FCC JUMP JUMPDEST PUSH1 0xFF AND DUP2 PUSH1 0xFF AND LT ISZERO PUSH2 0x3F8 JUMPI CALLVALUE PUSH1 0x2 PUSH1 0x0 DUP4 PUSH1 0xFF AND PUSH1 0xFF AND DUP2 MSTORE PUSH1 0x20 ADD SWAP1 DUP2 MSTORE PUSH1 0x20 ADD PUSH1 0x0 KECCAK256 PUSH1 0x1 ADD SLOAD EQ ISZERO PUSH2 0x3E5 JUMPI PUSH1 0x1 SWAP3 POP DUP1 SWAP2 POP PUSH2 0x3F8 JUMP JUMPDEST DUP1 DUP1 PUSH2 0x3F0 SWAP1 PUSH2 0x215D JUMP JUMPDEST SWAP2 POP POP PUSH2 0x38D JUMP JUMPDEST POP DUP2 PUSH2 0x439 JUMPI PUSH1 0x40 MLOAD PUSH32 0x8C379A000000000000000000000000000000000000000000000000000000000 DUP2 MSTORE PUSH1 0x4 ADD PUSH2 0x430 SWAP1 PUSH2 0x1D51 JUMP JUMPDEST PUSH1 0x40 MLOAD DUP1 SWAP2 SUB SWAP1 REVERT JUMPDEST PUSH2 0x444 DUP2 DUP6 DUP6 PUSH2 0xB5E JUMP JUMPDEST POP POP POP POP JUMP JUMPDEST PUSH1 0x0 DUP1 CALLER SWAP1 POP DUP1 EXTCODESIZE SWAP2 POP PUSH1 0x0 DUP3 PUSH4 0xFFFFFFFF AND GT ISZERO PUSH2 0x49E JUMPI PUSH1 0x40 MLOAD PUSH32 0x8C379A000000000000000000000000000000000000000000000000000000000 DUP2 MSTORE PUSH1 0x4 ADD PUSH2 0x495 SWAP1 PUSH2 0x1DD1 JUMP JUMPDEST PUSH1 0x40 MLOAD DUP1 SWAP2 SUB SWAP1 REVERT JUMPDEST PUSH1 0x0 PUSH20 0xFFFFFFFFFFFFFFFFFFFFFFFFFFFFFFFFFFFFFFFF AND PUSH1 0x5 PUSH1 0x0 CALLER PUSH20 0xFFFFFFFFFFFFFFFFFFFFFFFFFFFFFFFFFFFFFFFF AND PUSH20 0xFFFFFFFFFFFFFFFFFFFFFFFFFFFFFFFFFFFFFFFF AND DUP2 MSTORE PUSH1 0x20 ADD SWAP1 DUP2 MSTORE PUSH1 0x20 ADD PUSH1 0x0 KECCAK256 PUSH1 0x1 ADD PUSH1 0x0 SWAP1 SLOAD SWAP1 PUSH2 0x100 EXP SWAP1 DIV PUSH20 0xFFFFFFFFFFFFFFFFFFFFFFFFFFFFFFFFFFFFFFFF AND PUSH20 0xFFFFFFFFFFFFFFFFFFFFFFFFFFFFFFFFFFFFFFFF AND EQ PUSH2 0x56F JUMPI PUSH1 0x40 MLOAD PUSH32 0x8C379A000000000000000000000000000000000000000000000000000000000 DUP2 MSTORE PUSH1 0x4 ADD PUSH2 0x566 SWAP1 PUSH2 0x1D71 JUMP JUMPDEST PUSH1 0x40 MLOAD DUP1 SWAP2 SUB SWAP1 REVERT JUMPDEST PUSH8 0xDE0B6B3A7640000 CALLVALUE EQ PUSH2 0x5B9 JUMPI PUSH1 0x40 MLOAD PUSH32 0x8C379A000000000000000000000000000000000000000000000000000000000 DUP2 MSTORE PUSH1 0x4 ADD PUSH2 0x5B0 SWAP1 PUSH2 0x1DB1 JUMP JUMPDEST PUSH1 0x40 MLOAD DUP1 SWAP2 SUB SWAP1 REVERT JUMPDEST PUSH1 0x40 MLOAD DUP1 PUSH1 0x60 ADD PUSH1 0x40 MSTORE DUP1 PUSH1 0x0 SLOAD DUP2 MSTORE PUSH1 0x20 ADD CALLER PUSH20 0xFFFFFFFFFFFFFFFFFFFFFFFFFFFFFFFFFFFFFFFF AND DUP2 MSTORE PUSH1 0x20 ADD DUP5 DUP2 MSTORE POP PUSH1 0x5 PUSH1 0x0 CALLER PUSH20 0xFFFFFFFFFFFFFFFFFFFFFFFFFFFFFFFFFFFFFFFF AND PUSH20 0xFFFFFFFFFFFFFFFFFFFFFFFFFFFFFFFFFFFFFFFF AND DUP2 MSTORE PUSH1 0x20 ADD SWAP1 DUP2 MSTORE PUSH1 0x20 ADD PUSH1 0x0 KECCAK256 PUSH1 0x0 DUP3 ADD MLOAD DUP2 PUSH1 0x0 ADD SSTORE PUSH1 0x20 DUP3 ADD MLOAD DUP2 PUSH1 0x1 ADD PUSH1 0x0 PUSH2 0x100 EXP DUP2 SLOAD DUP2 PUSH20 0xFFFFFFFFFFFFFFFFFFFFFFFFFFFFFFFFFFFFFFFF MUL NOT AND SWAP1 DUP4 PUSH20 0xFFFFFFFFFFFFFFFFFFFFFFFFFFFFFFFFFFFFFFFF AND MUL OR SWAP1 SSTORE POP PUSH1 0x40 DUP3 ADD MLOAD DUP2 PUSH1 0x2 ADD SSTORE SWAP1 POP POP CALLER PUSH1 0x3 PUSH1 0x0 DUP1 SLOAD DUP2 MSTORE PUSH1 0x20 ADD SWAP1 DUP2 MSTORE PUSH1 0x20 ADD PUSH1 0x0 KECCAK256 PUSH1 0x0 PUSH2 0x100 EXP DUP2 SLOAD DUP2 PUSH20 0xFFFFFFFFFFFFFFFFFFFFFFFFFFFFFFFFFFFFFFFF MUL NOT AND SWAP1 DUP4 PUSH20 0xFFFFFFFFFFFFFFFFFFFFFFFFFFFFFFFFFFFFFFFF AND MUL OR SWAP1 SSTORE POP PUSH1 0x1 PUSH1 0x0 DUP1 DUP3 DUP3 SLOAD PUSH2 0x6EE SWAP2 SWAP1 PUSH2 0x1F76 JUMP JUMPDEST SWAP3 POP POP DUP2 SWAP1 SSTORE POP PUSH1 0x1 PUSH1 0x4 PUSH1 0x0 DUP6 DUP2 MSTORE PUSH1 0x20 ADD SWAP1 DUP2 MSTORE PUSH1 0x20 ADD PUSH1 0x0 KECCAK256 PUSH1 0x0 DUP3 DUP3 SLOAD PUSH2 0x719 SWAP2 SWAP1 PUSH2 0x1F76 JUMP JUMPDEST SWAP3 POP POP DUP2 SWAP1 SSTORE POP PUSH32 0x12888A3214FA3B6D599E2A7D3FF41E8AA7EF1295FE3BA5D428825DF6DA086885 PUSH1 0x1 PUSH1 0x0 SLOAD PUSH2 0x750 SWAP2 SWAP1 PUSH2 0x208E JUMP JUMPDEST DUP5 PUSH1 0x4 PUSH1 0x0 DUP8 DUP2 MSTORE PUSH1 0x20 ADD SWAP1 DUP2 MSTORE PUSH1 0x20 ADD PUSH1 0x0 KECCAK256 SLOAD PUSH1 0x40 MLOAD PUSH2 0x774 SWAP4 SWAP3 SWAP2 SWAP1 PUSH2 0x1E63 JUMP JUMPDEST PUSH1 0x40 MLOAD DUP1 SWAP2 SUB SWAP1 LOG1 POP POP POP JUMP JUMPDEST PUSH1 0x5 PUSH1 0x20 MSTORE DUP1 PUSH1 0x0 MSTORE PUSH1 0x40 PUSH1 0x0 KECCAK256 PUSH1 0x0 SWAP2 POP SWAP1 POP DUP1 PUSH1 0x0 ADD SLOAD SWAP1 DUP1 PUSH1 0x1 ADD PUSH1 0x0 SWAP1 SLOAD SWAP1 PUSH2 0x100 EXP SWAP1 DIV PUSH20 0xFFFFFFFFFFFFFFFFFFFFFFFFFFFFFFFFFFFFFFFF AND SWAP1 DUP1 PUSH1 0x2 ADD SLOAD SWAP1 POP DUP4 JUMP JUMPDEST PUSH1 0x9 PUSH1 0x20 MSTORE DUP2 PUSH1 0x0 MSTORE PUSH1 0x40 PUSH1 0x0 KECCAK256 PUSH1 0x20 MSTORE DUP1 PUSH1 0x0 MSTORE PUSH1 0x40 PUSH1 0x0 KECCAK256 PUSH1 0x0 SWAP2 POP SWAP2 POP SWAP1 SLOAD SWAP1 PUSH2 0x100 EXP SWAP1 DIV PUSH1 0xFF AND DUP2 JUMP JUMPDEST PUSH1 0x0 PUSH20 0xFFFFFFFFFFFFFFFFFFFFFFFFFFFFFFFFFFFFFFFF AND PUSH1 0x5 PUSH1 0x0 CALLER PUSH20 0xFFFFFFFFFFFFFFFFFFFFFFFFFFFFFFFFFFFFFFFF AND PUSH20 0xFFFFFFFFFFFFFFFFFFFFFFFFFFFFFFFFFFFFFFFF AND DUP2 MSTORE PUSH1 0x20 ADD SWAP1 DUP2 MSTORE PUSH1 0x20 ADD PUSH1 0x0 KECCAK256 PUSH1 0x1 ADD PUSH1 0x0 SWAP1 SLOAD SWAP1 PUSH2 0x100 EXP SWAP1 DIV PUSH20 0xFFFFFFFFFFFFFFFFFFFFFFFFFFFFFFFFFFFFFFFF AND PUSH20 0xFFFFFFFFFFFFFFFFFFFFFFFFFFFFFFFFFFFFFFFF AND EQ ISZERO PUSH2 0x896 JUMPI PUSH1 0x0 DUP1 REVERT JUMPDEST PUSH2 0x8A1 DUP2 CALLER CALLVALUE PUSH2 0xB5E JUMP JUMPDEST POP JUMP JUMPDEST PUSH1 0x0 SLOAD DUP2 JUMP JUMPDEST PUSH1 0x7 PUSH1 0x20 MSTORE DUP2 PUSH1 0x0 MSTORE PUSH1 0x40 PUSH1 0x0 KECCAK256 PUSH1 0x20 MSTORE DUP1 PUSH1 0x0 MSTORE PUSH1 0x40 PUSH1 0x0 KECCAK256 PUSH1 0x0 SWAP2 POP SWAP2 POP POP DUP1 PUSH1 0x0 ADD SLOAD SWAP1 DUP1 PUSH1 0x1 ADD PUSH1 0x0 SWAP1 SLOAD SWAP1 PUSH2 0x100 EXP SWAP1 DIV PUSH20 0xFFFFFFFFFFFFFFFFFFFFFFFFFFFFFFFFFFFFFFFF AND SWAP1 DUP1 PUSH1 0x2 ADD SLOAD SWAP1 POP DUP4 JUMP JUMPDEST PUSH1 0x2 PUSH1 0x20 MSTORE DUP1 PUSH1 0x0 MSTORE PUSH1 0x40 PUSH1 0x0 KECCAK256 PUSH1 0x0 SWAP2 POP SWAP1 POP DUP1 PUSH1 0x0 ADD PUSH1 0x0 SWAP1 SLOAD SWAP1 PUSH2 0x100 EXP SWAP1 DIV PUSH1 0xFF AND SWAP1 DUP1 PUSH1 0x1 ADD SLOAD SWAP1 POP DUP3 JUMP JUMPDEST PUSH1 0x0 PUSH1 0x1 DUP1 SLOAD SWAP1 PUSH2 0x100 EXP SWAP1 DIV PUSH20 0xFFFFFFFFFFFFFFFFFFFFFFFFFFFFFFFFFFFFFFFF AND PUSH20 0xFFFFFFFFFFFFFFFFFFFFFFFFFFFFFFFFFFFFFFFF AND DUP3 PUSH20 0xFFFFFFFFFFFFFFFFFFFFFFFFFFFFFFFFFFFFFFFF AND EQ SWAP1 POP SWAP2 SWAP1 POP JUMP JUMPDEST PUSH1 0x6 PUSH1 0x20 MSTORE DUP1 PUSH1 0x0 MSTORE PUSH1 0x40 PUSH1 0x0 KECCAK256 PUSH1 0x0 SWAP2 POP SWAP1 POP SLOAD DUP2 JUMP JUMPDEST PUSH1 0x1 PUSH1 0x0 SWAP1 SLOAD SWAP1 PUSH2 0x100 EXP SWAP1 DIV PUSH1 0xFF AND DUP2 JUMP JUMPDEST PUSH2 0x9BE CALLER PUSH2 0x932 JUMP JUMPDEST PUSH2 0x9FD JUMPI PUSH1 0x40 MLOAD PUSH32 0x8C379A000000000000000000000000000000000000000000000000000000000 DUP2 MSTORE PUSH1 0x4 ADD PUSH2 0x9F4 SWAP1 PUSH2 0x1DF1 JUMP JUMPDEST PUSH1 0x40 MLOAD DUP1 SWAP2 SUB SWAP1 REVERT JUMPDEST PUSH1 0x40 MLOAD DUP1 PUSH1 0x40 ADD PUSH1 0x40 MSTORE DUP1 PUSH1 0x1 PUSH1 0x0 SWAP1 SLOAD SWAP1 PUSH2 0x100 EXP SWAP1 DIV PUSH1 0xFF AND PUSH1 0xFF AND DUP2 MSTORE PUSH1 0x20 ADD DUP3 DUP2 MSTORE POP PUSH1 0x2 PUSH1 0x0 PUSH1 0x1 PUSH1 0x0 SWAP1 SLOAD SWAP1 PUSH2 0x100 EXP SWAP1 DIV PUSH1 0xFF AND PUSH1 0xFF AND PUSH1 0xFF AND DUP2 MSTORE PUSH1 0x20 ADD SWAP1 DUP2 MSTORE PUSH1 0x20 ADD PUSH1 0x0 KECCAK256 PUSH1 0x0 DUP3 ADD MLOAD DUP2 PUSH1 0x0 ADD PUSH1 0x0 PUSH2 0x100 EXP DUP2 SLOAD DUP2 PUSH1 0xFF MUL NOT AND SWAP1 DUP4 PUSH1 0xFF AND MUL OR SWAP1 SSTORE POP PUSH1 0x20 DUP3 ADD MLOAD DUP2 PUSH1 0x1 ADD SSTORE SWAP1 POP POP PUSH1 0x1 DUP1 PUSH1 0x0 DUP3 DUP3 DUP3 SWAP1 SLOAD SWAP1 PUSH2 0x100 EXP SWAP1 DIV PUSH1 0xFF AND PUSH2 0xA98 SWAP2 SWAP1 PUSH2 0x1FCC JUMP JUMPDEST SWAP3 POP PUSH2 0x100 EXP DUP2 SLOAD DUP2 PUSH1 0xFF MUL NOT AND SWAP1 DUP4 PUSH1 0xFF AND MUL OR SWAP1 SSTORE POP PUSH32 0xCF1ED532D6B83B4290F2F407B156B17826F49752E7A8FF360F502C307E055663 PUSH1 0x1 DUP1 PUSH1 0x0 SWAP1 SLOAD SWAP1 PUSH2 0x100 EXP SWAP1 DIV PUSH1 0xFF AND PUSH2 0xAEC SWAP2 SWAP1 PUSH2 0x20C2 JUMP JUMPDEST DUP3 PUSH1 0x40 MLOAD PUSH2 0xAFB SWAP3 SWAP2 SWAP1 PUSH2 0x1EEC JUMP JUMPDEST PUSH1 0x40 MLOAD DUP1 SWAP2 SUB SWAP1 LOG1 POP JUMP JUMPDEST PUSH1 0x3 PUSH1 0x20 MSTORE DUP1 PUSH1 0x0 MSTORE PUSH1 0x40 PUSH1 0x0 KECCAK256 PUSH1 0x0 SWAP2 POP SLOAD SWAP1 PUSH2 0x100 EXP SWAP1 DIV PUSH20 0xFFFFFFFFFFFFFFFFFFFFFFFFFFFFFFFFFFFFFFFF AND DUP2 JUMP JUMPDEST PUSH1 0x8 PUSH1 0x20 MSTORE DUP2 PUSH1 0x0 MSTORE PUSH1 0x40 PUSH1 0x0 KECCAK256 PUSH1 0x20 MSTORE DUP1 PUSH1 0x0 MSTORE PUSH1 0x40 PUSH1 0x0 KECCAK256 PUSH1 0x0 SWAP2 POP SWAP2 POP POP SLOAD DUP2 JUMP JUMPDEST PUSH1 0x2 PUSH1 0x0 DUP5 PUSH1 0xFF AND PUSH1 0xFF AND DUP2 MSTORE PUSH1 0x20 ADD SWAP1 DUP2 MSTORE PUSH1 0x20 ADD PUSH1 0x0 KECCAK256 PUSH1 0x1 ADD SLOAD DUP2 LT ISZERO PUSH2 0xBBD JUMPI PUSH1 0x40 MLOAD PUSH32 0x8C379A000000000000000000000000000000000000000000000000000000000 DUP2 MSTORE PUSH1 0x4 ADD PUSH2 0xBB4 SWAP1 PUSH2 0x1D91 JUMP JUMPDEST PUSH1 0x40 MLOAD DUP1 SWAP2 SUB SWAP1 REVERT JUMPDEST PUSH1 0x5 PUSH1 0x0 DUP4 PUSH20 0xFFFFFFFFFFFFFFFFFFFFFFFFFFFFFFFFFFFFFFFF AND PUSH20 0xFFFFFFFFFFFFFFFFFFFFFFFFFFFFFFFFFFFFFFFF AND DUP2 MSTORE PUSH1 0x20 ADD SWAP1 DUP2 MSTORE PUSH1 0x20 ADD PUSH1 0x0 KECCAK256 PUSH1 0x7 PUSH1 0x0 DUP6 PUSH1 0xFF AND PUSH1 0xFF AND DUP2 MSTORE PUSH1 0x20 ADD SWAP1 DUP2 MSTORE PUSH1 0x20 ADD PUSH1 0x0 KECCAK256 PUSH1 0x0 PUSH1 0x6 PUSH1 0x0 DUP8 PUSH1 0xFF AND PUSH1 0xFF AND DUP2 MSTORE PUSH1 0x20 ADD SWAP1 DUP2 MSTORE PUSH1 0x20 ADD PUSH1 0x0 KECCAK256 SLOAD DUP2 MSTORE PUSH1 0x20 ADD SWAP1 DUP2 MSTORE PUSH1 0x20 ADD PUSH1 0x0 KECCAK256 PUSH1 0x0 DUP3 ADD SLOAD DUP2 PUSH1 0x0 ADD SSTORE PUSH1 0x1 DUP3 ADD PUSH1 0x0 SWAP1 SLOAD SWAP1 PUSH2 0x100 EXP SWAP1 DIV PUSH20 0xFFFFFFFFFFFFFFFFFFFFFFFFFFFFFFFFFFFFFFFF AND DUP2 PUSH1 0x1 ADD PUSH1 0x0 PUSH2 0x100 EXP DUP2 SLOAD DUP2 PUSH20 0xFFFFFFFFFFFFFFFFFFFFFFFFFFFFFFFFFFFFFFFF MUL NOT AND SWAP1 DUP4 PUSH20 0xFFFFFFFFFFFFFFFFFFFFFFFFFFFFFFFFFFFFFFFF AND MUL OR SWAP1 SSTORE POP PUSH1 0x2 DUP3 ADD SLOAD DUP2 PUSH1 0x2 ADD SSTORE SWAP1 POP POP PUSH1 0x1 PUSH1 0x9 PUSH1 0x0 DUP5 PUSH20 0xFFFFFFFFFFFFFFFFFFFFFFFFFFFFFFFFFFFFFFFF AND PUSH20 0xFFFFFFFFFFFFFFFFFFFFFFFFFFFFFFFFFFFFFFFF AND DUP2 MSTORE PUSH1 0x20 ADD SWAP1 DUP2 MSTORE PUSH1 0x20 ADD PUSH1 0x0 KECCAK256 PUSH1 0x0 DUP6 PUSH1 0xFF AND PUSH1 0xFF AND DUP2 MSTORE PUSH1 0x20 ADD SWAP1 DUP2 MSTORE PUSH1 0x20 ADD PUSH1 0x0 KECCAK256 PUSH1 0x0 PUSH2 0x100 EXP DUP2 SLOAD DUP2 PUSH1 0xFF MUL NOT AND SWAP1 DUP4 ISZERO ISZERO MUL OR SWAP1 SSTORE POP PUSH1 0x1 PUSH1 0x6 PUSH1 0x0 DUP6 PUSH1 0xFF AND PUSH1 0xFF AND DUP2 MSTORE PUSH1 0x20 ADD SWAP1 DUP2 MSTORE PUSH1 0x20 ADD PUSH1 0x0 KECCAK256 PUSH1 0x0 DUP3 DUP3 SLOAD PUSH2 0xD56 SWAP2 SWAP1 PUSH2 0x1F76 JUMP JUMPDEST SWAP3 POP POP DUP2 SWAP1 SSTORE POP PUSH1 0x3 PUSH1 0x6 PUSH1 0x0 DUP6 PUSH1 0xFF AND PUSH1 0xFF AND DUP2 MSTORE PUSH1 0x20 ADD SWAP1 DUP2 MSTORE PUSH1 0x20 ADD PUSH1 0x0 KECCAK256 SLOAD LT PUSH2 0x19FA JUMPI PUSH1 0x0 PUSH2 0xDA2 PUSH1 0x6 PUSH1 0x0 DUP7 PUSH1 0xFF AND PUSH1 0xFF AND DUP2 MSTORE PUSH1 0x20 ADD SWAP1 DUP2 MSTORE PUSH1 0x20 ADD PUSH1 0x0 KECCAK256 SLOAD PUSH2 0x19FF JUMP JUMPDEST SWAP1 POP JUMPDEST PUSH1 0x0 DUP2 EQ PUSH2 0x19F8 JUMPI PUSH1 0x0 PUSH1 0x7 PUSH1 0x0 DUP7 PUSH1 0xFF AND PUSH1 0xFF AND DUP2 MSTORE PUSH1 0x20 ADD SWAP1 DUP2 MSTORE PUSH1 0x20 ADD PUSH1 0x0 KECCAK256 PUSH1 0x0 PUSH1 0x1 DUP5 PUSH2 0xDD7 SWAP2 SWAP1 PUSH2 0x208E JUMP JUMPDEST DUP2 MSTORE PUSH1 0x20 ADD SWAP1 DUP2 MSTORE PUSH1 0x20 ADD PUSH1 0x0 KECCAK256 PUSH1 0x1 ADD PUSH1 0x0 SWAP1 SLOAD SWAP1 PUSH2 0x100 EXP SWAP1 DIV PUSH20 0xFFFFFFFFFFFFFFFFFFFFFFFFFFFFFFFFFFFFFFFF AND SWAP1 POP PUSH1 0x1 PUSH1 0x8 PUSH1 0x0 DUP4 PUSH20 0xFFFFFFFFFFFFFFFFFFFFFFFFFFFFFFFFFFFFFFFF AND PUSH20 0xFFFFFFFFFFFFFFFFFFFFFFFFFFFFFFFFFFFFFFFF AND DUP2 MSTORE PUSH1 0x20 ADD SWAP1 DUP2 MSTORE PUSH1 0x20 ADD PUSH1 0x0 KECCAK256 PUSH1 0x0 DUP8 PUSH1 0xFF AND PUSH1 0xFF AND DUP2 MSTORE PUSH1 0x20 ADD SWAP1 DUP2 MSTORE PUSH1 0x20 ADD PUSH1 0x0 KECCAK256 SLOAD GT ISZERO DUP1 PUSH2 0xEDD JUMPI POP PUSH1 0x9 PUSH1 0x0 DUP3 PUSH20 0xFFFFFFFFFFFFFFFFFFFFFFFFFFFFFFFFFFFFFFFF AND PUSH20 0xFFFFFFFFFFFFFFFFFFFFFFFFFFFFFFFFFFFFFFFF AND DUP2 MSTORE PUSH1 0x20 ADD SWAP1 DUP2 MSTORE PUSH1 0x20 ADD PUSH1 0x0 KECCAK256 PUSH1 0x0 PUSH1 0x1 DUP8 PUSH2 0xEBA SWAP2 SWAP1 PUSH2 0x1FCC JUMP JUMPDEST PUSH1 0xFF AND PUSH1 0xFF AND DUP2 MSTORE PUSH1 0x20 ADD SWAP1 DUP2 MSTORE PUSH1 0x20 ADD PUSH1 0x0 KECCAK256 PUSH1 0x0 SWAP1 SLOAD SWAP1 PUSH2 0x100 EXP SWAP1 DIV PUSH1 0xFF AND JUMPDEST ISZERO PUSH2 0x19E7 JUMPI PUSH1 0x0 DUP2 PUSH20 0xFFFFFFFFFFFFFFFFFFFFFFFFFFFFFFFFFFFFFFFF AND PUSH2 0xF3E PUSH1 0x64 PUSH2 0xF30 PUSH1 0x4A PUSH1 0x2 PUSH1 0x0 DUP13 PUSH1 0xFF AND PUSH1 0xFF AND DUP2 MSTORE PUSH1 0x20 ADD SWAP1 DUP2 MSTORE PUSH1 0x20 ADD PUSH1 0x0 KECCAK256 PUSH1 0x1 ADD SLOAD PUSH2 0x1A3E SWAP1 SWAP2 SWAP1 PUSH4 0xFFFFFFFF AND JUMP JUMPDEST PUSH2 0x1A54 SWAP1 SWAP2 SWAP1 PUSH4 0xFFFFFFFF AND JUMP JUMPDEST PUSH1 0x40 MLOAD PUSH2 0xF4A SWAP1 PUSH2 0x1D06 JUMP JUMPDEST PUSH1 0x0 PUSH1 0x40 MLOAD DUP1 DUP4 SUB DUP2 DUP6 DUP8 GAS CALL SWAP3 POP POP POP RETURNDATASIZE DUP1 PUSH1 0x0 DUP2 EQ PUSH2 0xF87 JUMPI PUSH1 0x40 MLOAD SWAP2 POP PUSH1 0x1F NOT PUSH1 0x3F RETURNDATASIZE ADD AND DUP3 ADD PUSH1 0x40 MSTORE RETURNDATASIZE DUP3 MSTORE RETURNDATASIZE PUSH1 0x0 PUSH1 0x20 DUP5 ADD RETURNDATACOPY PUSH2 0xF8C JUMP JUMPDEST PUSH1 0x60 SWAP2 POP JUMPDEST POP POP SWAP1 POP PUSH1 0x1 PUSH1 0x8 PUSH1 0x0 DUP5 PUSH20 0xFFFFFFFFFFFFFFFFFFFFFFFFFFFFFFFFFFFFFFFF AND PUSH20 0xFFFFFFFFFFFFFFFFFFFFFFFFFFFFFFFFFFFFFFFF AND DUP2 MSTORE PUSH1 0x20 ADD SWAP1 DUP2 MSTORE PUSH1 0x20 ADD PUSH1 0x0 KECCAK256 PUSH1 0x0 DUP9 PUSH1 0xFF AND PUSH1 0xFF AND DUP2 MSTORE PUSH1 0x20 ADD SWAP1 DUP2 MSTORE PUSH1 0x20 ADD PUSH1 0x0 KECCAK256 PUSH1 0x0 DUP3 DUP3 SLOAD PUSH2 0xFF7 SWAP2 SWAP1 PUSH2 0x1F76 JUMP JUMPDEST SWAP3 POP POP DUP2 SWAP1 SSTORE POP PUSH32 0xD9FF1D189BD8473F87A70327222795B92238D06F3EDF14FA23403AC2153C10A9 PUSH1 0x2 PUSH1 0x0 DUP9 PUSH1 0xFF AND PUSH1 0xFF AND DUP2 MSTORE PUSH1 0x20 ADD SWAP1 DUP2 MSTORE PUSH1 0x20 ADD PUSH1 0x0 KECCAK256 PUSH1 0x0 ADD PUSH1 0x0 SWAP1 SLOAD SWAP1 PUSH2 0x100 EXP SWAP1 DIV PUSH1 0xFF AND DUP4 DUP4 PUSH1 0x40 MLOAD PUSH2 0x105A SWAP4 SWAP3 SWAP2 SWAP1 PUSH2 0x1EB5 JUMP JUMPDEST PUSH1 0x40 MLOAD DUP1 SWAP2 SUB SWAP1 LOG1 PUSH1 0x0 PUSH1 0x7 PUSH1 0x0 DUP9 PUSH1 0xFF AND PUSH1 0xFF AND DUP2 MSTORE PUSH1 0x20 ADD SWAP1 DUP2 MSTORE PUSH1 0x20 ADD PUSH1 0x0 KECCAK256 PUSH1 0x0 PUSH1 0x1 DUP7 PUSH2 0x108C SWAP2 SWAP1 PUSH2 0x208E JUMP JUMPDEST DUP2 MSTORE PUSH1 0x20 ADD SWAP1 DUP2 MSTORE PUSH1 0x20 ADD PUSH1 0x0 KECCAK256 PUSH1 0x0 ADD SLOAD SWAP1 POP PUSH1 0x0 PUSH1 0x7 PUSH1 0x0 DUP10 PUSH1 0xFF AND PUSH1 0xFF AND DUP2 MSTORE PUSH1 0x20 ADD SWAP1 DUP2 MSTORE PUSH1 0x20 ADD PUSH1 0x0 KECCAK256 PUSH1 0x0 PUSH1 0x1 DUP8 PUSH2 0x10CA SWAP2 SWAP1 PUSH2 0x208E JUMP JUMPDEST DUP2 MSTORE PUSH1 0x20 ADD SWAP1 DUP2 MSTORE PUSH1 0x20 ADD PUSH1 0x0 KECCAK256 PUSH1 0x2 ADD SLOAD SWAP1 POP PUSH1 0x0 PUSH2 0x1123 PUSH1 0x64 PUSH2 0x1115 PUSH1 0xA PUSH1 0x2 PUSH1 0x0 DUP15 PUSH1 0xFF AND PUSH1 0xFF AND DUP2 MSTORE PUSH1 0x20 ADD SWAP1 DUP2 MSTORE PUSH1 0x20 ADD PUSH1 0x0 KECCAK256 PUSH1 0x1 ADD SLOAD PUSH2 0x1A3E SWAP1 SWAP2 SWAP1 PUSH4 0xFFFFFFFF AND JUMP JUMPDEST PUSH2 0x1A54 SWAP1 SWAP2 SWAP1 PUSH4 0xFFFFFFFF AND JUMP JUMPDEST SWAP1 POP PUSH1 0x3 PUSH1 0x0 DUP4 DUP2 MSTORE PUSH1 0x20 ADD SWAP1 DUP2 MSTORE PUSH1 0x20 ADD PUSH1 0x0 KECCAK256 PUSH1 0x0 SWAP1 SLOAD SWAP1 PUSH2 0x100 EXP SWAP1 DIV PUSH20 0xFFFFFFFFFFFFFFFFFFFFFFFFFFFFFFFFFFFFFFFF AND PUSH20 0xFFFFFFFFFFFFFFFFFFFFFFFFFFFFFFFFFFFFFFFF AND DUP2 PUSH1 0x40 MLOAD PUSH2 0x117C SWAP1 PUSH2 0x1D06 JUMP JUMPDEST PUSH1 0x0 PUSH1 0x40 MLOAD DUP1 DUP4 SUB DUP2 DUP6 DUP8 GAS CALL SWAP3 POP POP POP RETURNDATASIZE DUP1 PUSH1 0x0 DUP2 EQ PUSH2 0x11B9 JUMPI PUSH1 0x40 MLOAD SWAP2 POP PUSH1 0x1F NOT PUSH1 0x3F RETURNDATASIZE ADD AND DUP3 ADD PUSH1 0x40 MSTORE RETURNDATASIZE DUP3 MSTORE RETURNDATASIZE PUSH1 0x0 PUSH1 0x20 DUP5 ADD RETURNDATACOPY PUSH2 0x11BE JUMP JUMPDEST PUSH1 0x60 SWAP2 POP JUMPDEST POP POP DUP1 SWAP5 POP POP DUP4 ISZERO PUSH2 0x1231 JUMPI PUSH32 0xAFE90BC52FC3DD02B2550B825FC68E93B4BFBCB8165BBACDA6CD14B2BAD5BC02 PUSH1 0x2 PUSH1 0x0 DUP12 PUSH1 0xFF AND PUSH1 0xFF AND DUP2 MSTORE PUSH1 0x20 ADD SWAP1 DUP2 MSTORE PUSH1 0x20 ADD PUSH1 0x0 KECCAK256 PUSH1 0x0 ADD PUSH1 0x0 SWAP1 SLOAD SWAP1 PUSH2 0x100 EXP SWAP1 DIV PUSH1 0xFF AND DUP5 DUP5 DUP5 PUSH1 0x40 MLOAD PUSH2 0x1228 SWAP5 SWAP4 SWAP3 SWAP2 SWAP1 PUSH2 0x1F15 JUMP JUMPDEST PUSH1 0x40 MLOAD DUP1 SWAP2 SUB SWAP1 LOG1 JUMPDEST PUSH2 0x1274 PUSH1 0x64 PUSH2 0x1266 PUSH1 0x6 PUSH1 0x2 PUSH1 0x0 DUP15 PUSH1 0xFF AND PUSH1 0xFF AND DUP2 MSTORE PUSH1 0x20 ADD SWAP1 DUP2 MSTORE PUSH1 0x20 ADD PUSH1 0x0 KECCAK256 PUSH1 0x1 ADD SLOAD PUSH2 0x1A3E SWAP1 SWAP2 SWAP1 PUSH4 0xFFFFFFFF AND JUMP JUMPDEST PUSH2 0x1A54 SWAP1 SWAP2 SWAP1 PUSH4 0xFFFFFFFF AND JUMP JUMPDEST SWAP1 POP PUSH1 0x5 PUSH1 0x0 PUSH1 0x3 PUSH1 0x0 DUP6 DUP2 MSTORE PUSH1 0x20 ADD SWAP1 DUP2 MSTORE PUSH1 0x20 ADD PUSH1 0x0 KECCAK256 PUSH1 0x0 SWAP1 SLOAD SWAP1 PUSH2 0x100 EXP SWAP1 DIV PUSH20 0xFFFFFFFFFFFFFFFFFFFFFFFFFFFFFFFFFFFFFFFF AND PUSH20 0xFFFFFFFFFFFFFFFFFFFFFFFFFFFFFFFFFFFFFFFF AND PUSH20 0xFFFFFFFFFFFFFFFFFFFFFFFFFFFFFFFFFFFFFFFF AND DUP2 MSTORE PUSH1 0x20 ADD SWAP1 DUP2 MSTORE PUSH1 0x20 ADD PUSH1 0x0 KECCAK256 PUSH1 0x1 ADD PUSH1 0x0 SWAP1 SLOAD SWAP1 PUSH2 0x100 EXP SWAP1 DIV PUSH20 0xFFFFFFFFFFFFFFFFFFFFFFFFFFFFFFFFFFFFFFFF AND PUSH20 0xFFFFFFFFFFFFFFFFFFFFFFFFFFFFFFFFFFFFFFFF AND DUP2 PUSH1 0x40 MLOAD PUSH2 0x132F SWAP1 PUSH2 0x1D06 JUMP JUMPDEST PUSH1 0x0 PUSH1 0x40 MLOAD DUP1 DUP4 SUB DUP2 DUP6 DUP8 GAS CALL SWAP3 POP POP POP RETURNDATASIZE DUP1 PUSH1 0x0 DUP2 EQ PUSH2 0x136C JUMPI PUSH1 0x40 MLOAD SWAP2 POP PUSH1 0x1F NOT PUSH1 0x3F RETURNDATASIZE ADD AND DUP3 ADD PUSH1 0x40 MSTORE RETURNDATASIZE DUP3 MSTORE RETURNDATASIZE PUSH1 0x0 PUSH1 0x20 DUP5 ADD RETURNDATACOPY PUSH2 0x1371 JUMP JUMPDEST PUSH1 0x60 SWAP2 POP JUMPDEST POP POP DUP1 SWAP5 POP POP DUP4 ISZERO PUSH2 0x1459 JUMPI PUSH32 0xAFE90BC52FC3DD02B2550B825FC68E93B4BFBCB8165BBACDA6CD14B2BAD5BC02 PUSH1 0x2 PUSH1 0x0 DUP12 PUSH1 0xFF AND PUSH1 0xFF AND DUP2 MSTORE PUSH1 0x20 ADD SWAP1 DUP2 MSTORE PUSH1 0x20 ADD PUSH1 0x0 KECCAK256 PUSH1 0x0 ADD PUSH1 0x0 SWAP1 SLOAD SWAP1 PUSH2 0x100 EXP SWAP1 DIV PUSH1 0xFF AND DUP4 PUSH1 0x5 PUSH1 0x0 PUSH1 0x3 PUSH1 0x0 DUP9 DUP2 MSTORE PUSH1 0x20 ADD SWAP1 DUP2 MSTORE PUSH1 0x20 ADD PUSH1 0x0 KECCAK256 PUSH1 0x0 SWAP1 SLOAD SWAP1 PUSH2 0x100 EXP SWAP1 DIV PUSH20 0xFFFFFFFFFFFFFFFFFFFFFFFFFFFFFFFFFFFFFFFF AND PUSH20 0xFFFFFFFFFFFFFFFFFFFFFFFFFFFFFFFFFFFFFFFF AND PUSH20 0xFFFFFFFFFFFFFFFFFFFFFFFFFFFFFFFFFFFFFFFF AND DUP2 MSTORE PUSH1 0x20 ADD SWAP1 DUP2 MSTORE PUSH1 0x20 ADD PUSH1 0x0 KECCAK256 PUSH1 0x0 ADD SLOAD DUP5 PUSH1 0x40 MLOAD PUSH2 0x1450 SWAP5 SWAP4 SWAP3 SWAP2 SWAP1 PUSH2 0x1F15 JUMP JUMPDEST PUSH1 0x40 MLOAD DUP1 SWAP2 SUB SWAP1 LOG1 JUMPDEST PUSH2 0x149C PUSH1 0x64 PUSH2 0x148E PUSH1 0x4 PUSH1 0x2 PUSH1 0x0 DUP15 PUSH1 0xFF AND PUSH1 0xFF AND DUP2 MSTORE PUSH1 0x20 ADD SWAP1 DUP2 MSTORE PUSH1 0x20 ADD PUSH1 0x0 KECCAK256 PUSH1 0x1 ADD SLOAD PUSH2 0x1A3E SWAP1 SWAP2 SWAP1 PUSH4 0xFFFFFFFF AND JUMP JUMPDEST PUSH2 0x1A54 SWAP1 SWAP2 SWAP1 PUSH4 0xFFFFFFFF AND JUMP JUMPDEST SWAP1 POP PUSH1 0x5 PUSH1 0x0 PUSH1 0x3 PUSH1 0x0 PUSH1 0x5 PUSH1 0x0 PUSH1 0x3 PUSH1 0x0 DUP10 DUP2 MSTORE PUSH1 0x20 ADD SWAP1 DUP2 MSTORE PUSH1 0x20 ADD PUSH1 0x0 KECCAK256 PUSH1 0x0 SWAP1 SLOAD SWAP1 PUSH2 0x100 EXP SWAP1 DIV PUSH20 0xFFFFFFFFFFFFFFFFFFFFFFFFFFFFFFFFFFFFFFFF AND PUSH20 0xFFFFFFFFFFFFFFFFFFFFFFFFFFFFFFFFFFFFFFFF AND PUSH20 0xFFFFFFFFFFFFFFFFFFFFFFFFFFFFFFFFFFFFFFFF AND DUP2 MSTORE PUSH1 0x20 ADD SWAP1 DUP2 MSTORE PUSH1 0x20 ADD PUSH1 0x0 KECCAK256 PUSH1 0x0 ADD SLOAD DUP2 MSTORE PUSH1 0x20 ADD SWAP1 DUP2 MSTORE PUSH1 0x20 ADD PUSH1 0x0 KECCAK256 PUSH1 0x0 SWAP1 SLOAD SWAP1 PUSH2 0x100 EXP SWAP1 DIV PUSH20 0xFFFFFFFFFFFFFFFFFFFFFFFFFFFFFFFFFFFFFFFF AND PUSH20 0xFFFFFFFFFFFFFFFFFFFFFFFFFFFFFFFFFFFFFFFF AND PUSH20 0xFFFFFFFFFFFFFFFFFFFFFFFFFFFFFFFFFFFFFFFF AND DUP2 MSTORE PUSH1 0x20 ADD SWAP1 DUP2 MSTORE PUSH1 0x20 ADD PUSH1 0x0 KECCAK256 PUSH1 0x1 ADD PUSH1 0x0 SWAP1 SLOAD SWAP1 PUSH2 0x100 EXP SWAP1 DIV PUSH20 0xFFFFFFFFFFFFFFFFFFFFFFFFFFFFFFFFFFFFFFFF AND PUSH20 0xFFFFFFFFFFFFFFFFFFFFFFFFFFFFFFFFFFFFFFFF AND DUP2 PUSH1 0x40 MLOAD PUSH2 0x15CC SWAP1 PUSH2 0x1D06 JUMP JUMPDEST PUSH1 0x0 PUSH1 0x40 MLOAD DUP1 DUP4 SUB DUP2 DUP6 DUP8 GAS CALL SWAP3 POP POP POP RETURNDATASIZE DUP1 PUSH1 0x0 DUP2 EQ PUSH2 0x1609 JUMPI PUSH1 0x40 MLOAD SWAP2 POP PUSH1 0x1F NOT PUSH1 0x3F RETURNDATASIZE ADD AND DUP3 ADD PUSH1 0x40 MSTORE RETURNDATASIZE DUP3 MSTORE RETURNDATASIZE PUSH1 0x0 PUSH1 0x20 DUP5 ADD RETURNDATACOPY PUSH2 0x160E JUMP JUMPDEST PUSH1 0x60 SWAP2 POP JUMPDEST POP POP DUP1 SWAP5 POP POP DUP4 ISZERO PUSH2 0x17E0 JUMPI PUSH32 0xAFE90BC52FC3DD02B2550B825FC68E93B4BFBCB8165BBACDA6CD14B2BAD5BC02 PUSH1 0x2 PUSH1 0x0 DUP12 PUSH1 0xFF AND PUSH1 0xFF AND DUP2 MSTORE PUSH1 0x20 ADD SWAP1 DUP2 MSTORE PUSH1 0x20 ADD PUSH1 0x0 KECCAK256 PUSH1 0x0 ADD PUSH1 0x0 SWAP1 SLOAD SWAP1 PUSH2 0x100 EXP SWAP1 DIV PUSH1 0xFF AND PUSH1 0x5 PUSH1 0x0 PUSH1 0x3 PUSH1 0x0 DUP8 DUP2 MSTORE PUSH1 0x20 ADD SWAP1 DUP2 MSTORE PUSH1 0x20 ADD PUSH1 0x0 KECCAK256 PUSH1 0x0 SWAP1 SLOAD SWAP1 PUSH2 0x100 EXP SWAP1 DIV PUSH20 0xFFFFFFFFFFFFFFFFFFFFFFFFFFFFFFFFFFFFFFFF AND PUSH20 0xFFFFFFFFFFFFFFFFFFFFFFFFFFFFFFFFFFFFFFFF AND PUSH20 0xFFFFFFFFFFFFFFFFFFFFFFFFFFFFFFFFFFFFFFFF AND DUP2 MSTORE PUSH1 0x20 ADD SWAP1 DUP2 MSTORE PUSH1 0x20 ADD PUSH1 0x0 KECCAK256 PUSH1 0x0 ADD SLOAD PUSH1 0x5 PUSH1 0x0 PUSH1 0x3 PUSH1 0x0 PUSH1 0x5 PUSH1 0x0 PUSH1 0x3 PUSH1 0x0 DUP13 DUP2 MSTORE PUSH1 0x20 ADD SWAP1 DUP2 MSTORE PUSH1 0x20 ADD PUSH1 0x0 KECCAK256 PUSH1 0x0 SWAP1 SLOAD SWAP1 PUSH2 0x100 EXP SWAP1 DIV PUSH20 0xFFFFFFFFFFFFFFFFFFFFFFFFFFFFFFFFFFFFFFFF AND PUSH20 0xFFFFFFFFFFFFFFFFFFFFFFFFFFFFFFFFFFFFFFFF AND PUSH20 0xFFFFFFFFFFFFFFFFFFFFFFFFFFFFFFFFFFFFFFFF AND DUP2 MSTORE PUSH1 0x20 ADD SWAP1 DUP2 MSTORE PUSH1 0x20 ADD PUSH1 0x0 KECCAK256 PUSH1 0x0 ADD SLOAD DUP2 MSTORE PUSH1 0x20 ADD SWAP1 DUP2 MSTORE PUSH1 0x20 ADD PUSH1 0x0 KECCAK256 PUSH1 0x0 SWAP1 SLOAD SWAP1 PUSH2 0x100 EXP SWAP1 DIV PUSH20 0xFFFFFFFFFFFFFFFFFFFFFFFFFFFFFFFFFFFFFFFF AND PUSH20 0xFFFFFFFFFFFFFFFFFFFFFFFFFFFFFFFFFFFFFFFF AND PUSH20 0xFFFFFFFFFFFFFFFFFFFFFFFFFFFFFFFFFFFFFFFF AND DUP2 MSTORE PUSH1 0x20 ADD SWAP1 DUP2 MSTORE PUSH1 0x20 ADD PUSH1 0x0 KECCAK256 PUSH1 0x0 ADD SLOAD DUP5 PUSH1 0x40 MLOAD PUSH2 0x17D7 SWAP5 SWAP4 SWAP3 SWAP2 SWAP1 PUSH2 0x1F15 JUMP JUMPDEST PUSH1 0x40 MLOAD DUP1 SWAP2 SUB SWAP1 LOG1 JUMPDEST PUSH2 0x1823 PUSH1 0x64 PUSH2 0x1815 PUSH1 0x6 PUSH1 0x2 PUSH1 0x0 DUP15 PUSH1 0xFF AND PUSH1 0xFF AND DUP2 MSTORE PUSH1 0x20 ADD SWAP1 DUP2 MSTORE PUSH1 0x20 ADD PUSH1 0x0 KECCAK256 PUSH1 0x1 ADD SLOAD PUSH2 0x1A3E SWAP1 SWAP2 SWAP1 PUSH4 0xFFFFFFFF AND JUMP JUMPDEST PUSH2 0x1A54 SWAP1 SWAP2 SWAP1 PUSH4 0xFFFFFFFF AND JUMP JUMPDEST SWAP1 POP PUSH1 0x5 PUSH1 0x0 PUSH1 0x1 DUP1 SLOAD SWAP1 PUSH2 0x100 EXP SWAP1 DIV PUSH20 0xFFFFFFFFFFFFFFFFFFFFFFFFFFFFFFFFFFFFFFFF AND PUSH20 0xFFFFFFFFFFFFFFFFFFFFFFFFFFFFFFFFFFFFFFFF AND PUSH20 0xFFFFFFFFFFFFFFFFFFFFFFFFFFFFFFFFFFFFFFFF AND DUP2 MSTORE PUSH1 0x20 ADD SWAP1 DUP2 MSTORE PUSH1 0x20 ADD PUSH1 0x0 KECCAK256 PUSH1 0x1 ADD PUSH1 0x0 SWAP1 SLOAD SWAP1 PUSH2 0x100 EXP SWAP1 DIV PUSH20 0xFFFFFFFFFFFFFFFFFFFFFFFFFFFFFFFFFFFFFFFF AND PUSH20 0xFFFFFFFFFFFFFFFFFFFFFFFFFFFFFFFFFFFFFFFF AND DUP2 PUSH1 0x40 MLOAD PUSH2 0x18CB SWAP1 PUSH2 0x1D06 JUMP JUMPDEST PUSH1 0x0 PUSH1 0x40 MLOAD DUP1 DUP4 SUB DUP2 DUP6 DUP8 GAS CALL SWAP3 POP POP POP RETURNDATASIZE DUP1 PUSH1 0x0 DUP2 EQ PUSH2 0x1908 JUMPI PUSH1 0x40 MLOAD SWAP2 POP PUSH1 0x1F NOT PUSH1 0x3F RETURNDATASIZE ADD AND DUP3 ADD PUSH1 0x40 MSTORE RETURNDATASIZE DUP3 MSTORE RETURNDATASIZE PUSH1 0x0 PUSH1 0x20 DUP5 ADD RETURNDATACOPY PUSH2 0x190D JUMP JUMPDEST PUSH1 0x60 SWAP2 POP JUMPDEST POP POP DUP1 SWAP5 POP POP DUP4 ISZERO PUSH2 0x19E2 JUMPI PUSH32 0xAFE90BC52FC3DD02B2550B825FC68E93B4BFBCB8165BBACDA6CD14B2BAD5BC02 PUSH1 0x2 PUSH1 0x0 DUP12 PUSH1 0xFF AND PUSH1 0xFF AND DUP2 MSTORE PUSH1 0x20 ADD SWAP1 DUP2 MSTORE PUSH1 0x20 ADD PUSH1 0x0 KECCAK256 PUSH1 0x0 ADD PUSH1 0x0 SWAP1 SLOAD SWAP1 PUSH2 0x100 EXP SWAP1 DIV PUSH1 0xFF AND DUP5 PUSH1 0x5 PUSH1 0x0 PUSH1 0x1 DUP1 SLOAD SWAP1 PUSH2 0x100 EXP SWAP1 DIV PUSH20 0xFFFFFFFFFFFFFFFFFFFFFFFFFFFFFFFFFFFFFFFF AND PUSH20 0xFFFFFFFFFFFFFFFFFFFFFFFFFFFFFFFFFFFFFFFF AND PUSH20 0xFFFFFFFFFFFFFFFFFFFFFFFFFFFFFFFFFFFFFFFF AND DUP2 MSTORE PUSH1 0x20 ADD SWAP1 DUP2 MSTORE PUSH1 0x20 ADD PUSH1 0x0 KECCAK256 PUSH1 0x0 ADD SLOAD DUP5 PUSH1 0x40 MLOAD PUSH2 0x19D9 SWAP5 SWAP4 SWAP3 SWAP2 SWAP1 PUSH2 0x1F15 JUMP JUMPDEST PUSH1 0x40 MLOAD DUP1 SWAP2 SUB SWAP1 LOG1 JUMPDEST POP POP POP POP JUMPDEST PUSH2 0x19F0 DUP3 PUSH2 0x19FF JUMP JUMPDEST SWAP2 POP POP PUSH2 0xDA5 JUMP JUMPDEST POP JUMPDEST POP POP POP JUMP JUMPDEST PUSH1 0x0 DUP1 PUSH2 0x1A16 PUSH1 0x2 DUP5 PUSH2 0x1A6A SWAP1 SWAP2 SWAP1 PUSH4 0xFFFFFFFF AND JUMP JUMPDEST EQ PUSH2 0x1A34 JUMPI PUSH2 0x1A2F PUSH1 0x2 DUP4 PUSH2 0x1A54 SWAP1 SWAP2 SWAP1 PUSH4 0xFFFFFFFF AND JUMP JUMPDEST PUSH2 0x1A37 JUMP JUMPDEST PUSH1 0x0 JUMPDEST SWAP1 POP SWAP2 SWAP1 POP JUMP JUMPDEST PUSH1 0x0 DUP2 DUP4 PUSH2 0x1A4C SWAP2 SWAP1 PUSH2 0x2034 JUMP JUMPDEST SWAP1 POP SWAP3 SWAP2 POP POP JUMP JUMPDEST PUSH1 0x0 DUP2 DUP4 PUSH2 0x1A62 SWAP2 SWAP1 PUSH2 0x2003 JUMP JUMPDEST SWAP1 POP SWAP3 SWAP2 POP POP JUMP JUMPDEST PUSH1 0x0 DUP2 DUP4 PUSH2 0x1A78 SWAP2 SWAP1 PUSH2 0x2187 JUMP JUMPDEST SWAP1 POP SWAP3 SWAP2 POP POP JUMP JUMPDEST PUSH1 0x0 DUP2 CALLDATALOAD SWAP1 POP PUSH2 0x1A8F DUP2 PUSH2 0x2360 JUMP JUMPDEST SWAP3 SWAP2 POP POP JUMP JUMPDEST PUSH1 0x0 DUP2 CALLDATALOAD SWAP1 POP PUSH2 0x1AA4 DUP2 PUSH2 0x2377 JUMP JUMPDEST SWAP3 SWAP2 POP POP JUMP JUMPDEST PUSH1 0x0 DUP2 CALLDATALOAD SWAP1 POP PUSH2 0x1AB9 DUP2 PUSH2 0x238E JUMP JUMPDEST SWAP3 SWAP2 POP POP JUMP JUMPDEST PUSH1 0x0 PUSH1 0x20 DUP3 DUP5 SUB SLT ISZERO PUSH2 0x1AD5 JUMPI PUSH2 0x1AD4 PUSH2 0x2216 JUMP JUMPDEST JUMPDEST PUSH1 0x0 PUSH2 0x1AE3 DUP5 DUP3 DUP6 ADD PUSH2 0x1A80 JUMP JUMPDEST SWAP2 POP POP SWAP3 SWAP2 POP POP JUMP JUMPDEST PUSH1 0x0 DUP1 PUSH1 0x40 DUP4 DUP6 SUB SLT ISZERO PUSH2 0x1B03 JUMPI PUSH2 0x1B02 PUSH2 0x2216 JUMP JUMPDEST JUMPDEST PUSH1 0x0 PUSH2 0x1B11 DUP6 DUP3 DUP7 ADD PUSH2 0x1A80 JUMP JUMPDEST SWAP3 POP POP PUSH1 0x20 PUSH2 0x1B22 DUP6 DUP3 DUP7 ADD PUSH2 0x1AAA JUMP JUMPDEST SWAP2 POP POP SWAP3 POP SWAP3 SWAP1 POP JUMP JUMPDEST PUSH1 0x0 PUSH1 0x20 DUP3 DUP5 SUB SLT ISZERO PUSH2 0x1B42 JUMPI PUSH2 0x1B41 PUSH2 0x2216 JUMP JUMPDEST JUMPDEST PUSH1 0x0 PUSH2 0x1B50 DUP5 DUP3 DUP6 ADD PUSH2 0x1A95 JUMP JUMPDEST SWAP2 POP POP SWAP3 SWAP2 POP POP JUMP JUMPDEST PUSH1 0x0 PUSH1 0x20 DUP3 DUP5 SUB SLT ISZERO PUSH2 0x1B6F JUMPI PUSH2 0x1B6E PUSH2 0x2216 JUMP JUMPDEST JUMPDEST PUSH1 0x0 PUSH2 0x1B7D DUP5 DUP3 DUP6 ADD PUSH2 0x1AAA JUMP JUMPDEST SWAP2 POP POP SWAP3 SWAP2 POP POP JUMP JUMPDEST PUSH1 0x0 DUP1 PUSH1 0x40 DUP4 DUP6 SUB SLT ISZERO PUSH2 0x1B9D JUMPI PUSH2 0x1B9C PUSH2 0x2216 JUMP JUMPDEST JUMPDEST PUSH1 0x0 PUSH2 0x1BAB DUP6 DUP3 DUP7 ADD PUSH2 0x1AAA JUMP JUMPDEST SWAP3 POP POP PUSH1 0x20 PUSH2 0x1BBC DUP6 DUP3 DUP7 ADD PUSH2 0x1A95 JUMP JUMPDEST SWAP2 POP POP SWAP3 POP SWAP3 SWAP1 POP JUMP JUMPDEST PUSH2 0x1BCF DUP2 PUSH2 0x2108 JUMP JUMPDEST DUP3 MSTORE POP POP JUMP JUMPDEST PUSH2 0x1BDE DUP2 PUSH2 0x20F6 JUMP JUMPDEST DUP3 MSTORE POP POP JUMP JUMPDEST PUSH2 0x1BED DUP2 PUSH2 0x211A JUMP JUMPDEST DUP3 MSTORE POP POP JUMP JUMPDEST PUSH1 0x0 PUSH2 0x1C00 PUSH1 0xE DUP4 PUSH2 0x1F65 JUMP JUMPDEST SWAP2 POP PUSH2 0x1C0B DUP3 PUSH2 0x221B JUMP JUMPDEST PUSH1 0x20 DUP3 ADD SWAP1 POP SWAP2 SWAP1 POP JUMP JUMPDEST PUSH1 0x0 PUSH2 0x1C23 PUSH1 0x1A DUP4 PUSH2 0x1F65 JUMP JUMPDEST SWAP2 POP PUSH2 0x1C2E DUP3 PUSH2 0x2244 JUMP JUMPDEST PUSH1 0x20 DUP3 ADD SWAP1 POP SWAP2 SWAP1 POP JUMP JUMPDEST PUSH1 0x0 PUSH2 0x1C46 PUSH1 0x0 DUP4 PUSH2 0x1F5A JUMP JUMPDEST SWAP2 POP PUSH2 0x1C51 DUP3 PUSH2 0x226D JUMP JUMPDEST PUSH1 0x0 DUP3 ADD SWAP1 POP SWAP2 SWAP1 POP JUMP JUMPDEST PUSH1 0x0 PUSH2 0x1C69 PUSH1 0x23 DUP4 PUSH2 0x1F65 JUMP JUMPDEST SWAP2 POP PUSH2 0x1C74 DUP3 PUSH2 0x2270 JUMP JUMPDEST PUSH1 0x40 DUP3 ADD SWAP1 POP SWAP2 SWAP1 POP JUMP JUMPDEST PUSH1 0x0 PUSH2 0x1C8C PUSH1 0x28 DUP4 PUSH2 0x1F65 JUMP JUMPDEST SWAP2 POP PUSH2 0x1C97 DUP3 PUSH2 0x22BF JUMP JUMPDEST PUSH1 0x40 DUP3 ADD SWAP1 POP SWAP2 SWAP1 POP JUMP JUMPDEST PUSH1 0x0 PUSH2 0x1CAF PUSH1 0xC DUP4 PUSH2 0x1F65 JUMP JUMPDEST SWAP2 POP PUSH2 0x1CBA DUP3 PUSH2 0x230E JUMP JUMPDEST PUSH1 0x20 DUP3 ADD SWAP1 POP SWAP2 SWAP1 POP JUMP JUMPDEST PUSH1 0x0 PUSH2 0x1CD2 PUSH1 0x11 DUP4 PUSH2 0x1F65 JUMP JUMPDEST SWAP2 POP PUSH2 0x1CDD DUP3 PUSH2 0x2337 JUMP JUMPDEST PUSH1 0x20 DUP3 ADD SWAP1 POP SWAP2 SWAP1 POP JUMP JUMPDEST PUSH2 0x1CF1 DUP2 PUSH2 0x2146 JUMP JUMPDEST DUP3 MSTORE POP POP JUMP JUMPDEST PUSH2 0x1D00 DUP2 PUSH2 0x2150 JUMP JUMPDEST DUP3 MSTORE POP POP JUMP JUMPDEST PUSH1 0x0 PUSH2 0x1D11 DUP3 PUSH2 0x1C39 JUMP JUMPDEST SWAP2 POP DUP2 SWAP1 POP SWAP2 SWAP1 POP JUMP JUMPDEST PUSH1 0x0 PUSH1 0x20 DUP3 ADD SWAP1 POP PUSH2 0x1D30 PUSH1 0x0 DUP4 ADD DUP5 PUSH2 0x1BD5 JUMP JUMPDEST SWAP3 SWAP2 POP POP JUMP JUMPDEST PUSH1 0x0 PUSH1 0x20 DUP3 ADD SWAP1 POP PUSH2 0x1D4B PUSH1 0x0 DUP4 ADD DUP5 PUSH2 0x1BE4 JUMP JUMPDEST SWAP3 SWAP2 POP POP JUMP JUMPDEST PUSH1 0x0 PUSH1 0x20 DUP3 ADD SWAP1 POP DUP2 DUP2 SUB PUSH1 0x0 DUP4 ADD MSTORE PUSH2 0x1D6A DUP2 PUSH2 0x1BF3 JUMP JUMPDEST SWAP1 POP SWAP2 SWAP1 POP JUMP JUMPDEST PUSH1 0x0 PUSH1 0x20 DUP3 ADD SWAP1 POP DUP2 DUP2 SUB PUSH1 0x0 DUP4 ADD MSTORE PUSH2 0x1D8A DUP2 PUSH2 0x1C16 JUMP JUMPDEST SWAP1 POP SWAP2 SWAP1 POP JUMP JUMPDEST PUSH1 0x0 PUSH1 0x20 DUP3 ADD SWAP1 POP DUP2 DUP2 SUB PUSH1 0x0 DUP4 ADD MSTORE PUSH2 0x1DAA DUP2 PUSH2 0x1C5C JUMP JUMPDEST SWAP1 POP SWAP2 SWAP1 POP JUMP JUMPDEST PUSH1 0x0 PUSH1 0x20 DUP3 ADD SWAP1 POP DUP2 DUP2 SUB PUSH1 0x0 DUP4 ADD MSTORE PUSH2 0x1DCA DUP2 PUSH2 0x1C7F JUMP JUMPDEST SWAP1 POP SWAP2 SWAP1 POP JUMP JUMPDEST PUSH1 0x0 PUSH1 0x20 DUP3 ADD SWAP1 POP DUP2 DUP2 SUB PUSH1 0x0 DUP4 ADD MSTORE PUSH2 0x1DEA DUP2 PUSH2 0x1CA2 JUMP JUMPDEST SWAP1 POP SWAP2 SWAP1 POP JUMP JUMPDEST PUSH1 0x0 PUSH1 0x20 DUP3 ADD SWAP1 POP DUP2 DUP2 SUB PUSH1 0x0 DUP4 ADD MSTORE PUSH2 0x1E0A DUP2 PUSH2 0x1CC5 JUMP JUMPDEST SWAP1 POP SWAP2 SWAP1 POP JUMP JUMPDEST PUSH1 0x0 PUSH1 0x20 DUP3 ADD SWAP1 POP PUSH2 0x1E26 PUSH1 0x0 DUP4 ADD DUP5 PUSH2 0x1CE8 JUMP JUMPDEST SWAP3 SWAP2 POP POP JUMP JUMPDEST PUSH1 0x0 PUSH1 0x60 DUP3 ADD SWAP1 POP PUSH2 0x1E41 PUSH1 0x0 DUP4 ADD DUP7 PUSH2 0x1CE8 JUMP JUMPDEST PUSH2 0x1E4E PUSH1 0x20 DUP4 ADD DUP6 PUSH2 0x1BC6 JUMP JUMPDEST PUSH2 0x1E5B PUSH1 0x40 DUP4 ADD DUP5 PUSH2 0x1CE8 JUMP JUMPDEST SWAP5 SWAP4 POP POP POP POP JUMP JUMPDEST PUSH1 0x0 PUSH1 0x60 DUP3 ADD SWAP1 POP PUSH2 0x1E78 PUSH1 0x0 DUP4 ADD DUP7 PUSH2 0x1CE8 JUMP JUMPDEST PUSH2 0x1E85 PUSH1 0x20 DUP4 ADD DUP6 PUSH2 0x1CE8 JUMP JUMPDEST PUSH2 0x1E92 PUSH1 0x40 DUP4 ADD DUP5 PUSH2 0x1CE8 JUMP JUMPDEST SWAP5 SWAP4 POP POP POP POP JUMP JUMPDEST PUSH1 0x0 PUSH1 0x20 DUP3 ADD SWAP1 POP PUSH2 0x1EAF PUSH1 0x0 DUP4 ADD DUP5 PUSH2 0x1CF7 JUMP JUMPDEST SWAP3 SWAP2 POP POP JUMP JUMPDEST PUSH1 0x0 PUSH1 0x60 DUP3 ADD SWAP1 POP PUSH2 0x1ECA PUSH1 0x0 DUP4 ADD DUP7 PUSH2 0x1CF7 JUMP JUMPDEST PUSH2 0x1ED7 PUSH1 0x20 DUP4 ADD DUP6 PUSH2 0x1BD5 JUMP JUMPDEST PUSH2 0x1EE4 PUSH1 0x40 DUP4 ADD DUP5 PUSH2 0x1BE4 JUMP JUMPDEST SWAP5 SWAP4 POP POP POP POP JUMP JUMPDEST PUSH1 0x0 PUSH1 0x40 DUP3 ADD SWAP1 POP PUSH2 0x1F01 PUSH1 0x0 DUP4 ADD DUP6 PUSH2 0x1CF7 JUMP JUMPDEST PUSH2 0x1F0E PUSH1 0x20 DUP4 ADD DUP5 PUSH2 0x1CE8 JUMP JUMPDEST SWAP4 SWAP3 POP POP POP JUMP JUMPDEST PUSH1 0x0 PUSH1 0x80 DUP3 ADD SWAP1 POP PUSH2 0x1F2A PUSH1 0x0 DUP4 ADD DUP8 PUSH2 0x1CF7 JUMP JUMPDEST PUSH2 0x1F37 PUSH1 0x20 DUP4 ADD DUP7 PUSH2 0x1CE8 JUMP JUMPDEST PUSH2 0x1F44 PUSH1 0x40 DUP4 ADD DUP6 PUSH2 0x1CE8 JUMP JUMPDEST PUSH2 0x1F51 PUSH1 0x60 DUP4 ADD DUP5 PUSH2 0x1CE8 JUMP JUMPDEST SWAP6 SWAP5 POP POP POP POP POP JUMP JUMPDEST PUSH1 0x0 DUP2 SWAP1 POP SWAP3 SWAP2 POP POP JUMP JUMPDEST PUSH1 0x0 DUP3 DUP3 MSTORE PUSH1 0x20 DUP3 ADD SWAP1 POP SWAP3 SWAP2 POP POP JUMP JUMPDEST PUSH1 0x0 PUSH2 0x1F81 DUP3 PUSH2 0x2146 JUMP JUMPDEST SWAP2 POP PUSH2 0x1F8C DUP4 PUSH2 0x2146 JUMP JUMPDEST SWAP3 POP DUP3 PUSH32 0xFFFFFFFFFFFFFFFFFFFFFFFFFFFFFFFFFFFFFFFFFFFFFFFFFFFFFFFFFFFFFFFF SUB DUP3 GT ISZERO PUSH2 0x1FC1 JUMPI PUSH2 0x1FC0 PUSH2 0x21B8 JUMP JUMPDEST JUMPDEST DUP3 DUP3 ADD SWAP1 POP SWAP3 SWAP2 POP POP JUMP JUMPDEST PUSH1 0x0 PUSH2 0x1FD7 DUP3 PUSH2 0x2150 JUMP JUMPDEST SWAP2 POP PUSH2 0x1FE2 DUP4 PUSH2 0x2150 JUMP JUMPDEST SWAP3 POP DUP3 PUSH1 0xFF SUB DUP3 GT ISZERO PUSH2 0x1FF8 JUMPI PUSH2 0x1FF7 PUSH2 0x21B8 JUMP JUMPDEST JUMPDEST DUP3 DUP3 ADD SWAP1 POP SWAP3 SWAP2 POP POP JUMP JUMPDEST PUSH1 0x0 PUSH2 0x200E DUP3 PUSH2 0x2146 JUMP JUMPDEST SWAP2 POP PUSH2 0x2019 DUP4 PUSH2 0x2146 JUMP JUMPDEST SWAP3 POP DUP3 PUSH2 0x2029 JUMPI PUSH2 0x2028 PUSH2 0x21E7 JUMP JUMPDEST JUMPDEST DUP3 DUP3 DIV SWAP1 POP SWAP3 SWAP2 POP POP JUMP JUMPDEST PUSH1 0x0 PUSH2 0x203F DUP3 PUSH2 0x2146 JUMP JUMPDEST SWAP2 POP PUSH2 0x204A DUP4 PUSH2 0x2146 JUMP JUMPDEST SWAP3 POP DUP2 PUSH32 0xFFFFFFFFFFFFFFFFFFFFFFFFFFFFFFFFFFFFFFFFFFFFFFFFFFFFFFFFFFFFFFFF DIV DUP4 GT DUP3 ISZERO ISZERO AND ISZERO PUSH2 0x2083 JUMPI PUSH2 0x2082 PUSH2 0x21B8 JUMP JUMPDEST JUMPDEST DUP3 DUP3 MUL SWAP1 POP SWAP3 SWAP2 POP POP JUMP JUMPDEST PUSH1 0x0 PUSH2 0x2099 DUP3 PUSH2 0x2146 JUMP JUMPDEST SWAP2 POP PUSH2 0x20A4 DUP4 PUSH2 0x2146 JUMP JUMPDEST SWAP3 POP DUP3 DUP3 LT ISZERO PUSH2 0x20B7 JUMPI PUSH2 0x20B6 PUSH2 0x21B8 JUMP JUMPDEST JUMPDEST DUP3 DUP3 SUB SWAP1 POP SWAP3 SWAP2 POP POP JUMP JUMPDEST PUSH1 0x0 PUSH2 0x20CD DUP3 PUSH2 0x2150 JUMP JUMPDEST SWAP2 POP PUSH2 0x20D8 DUP4 PUSH2 0x2150 JUMP JUMPDEST SWAP3 POP DUP3 DUP3 LT ISZERO PUSH2 0x20EB JUMPI PUSH2 0x20EA PUSH2 0x21B8 JUMP JUMPDEST JUMPDEST DUP3 DUP3 SUB SWAP1 POP SWAP3 SWAP2 POP POP JUMP JUMPDEST PUSH1 0x0 PUSH2 0x2101 DUP3 PUSH2 0x2126 JUMP JUMPDEST SWAP1 POP SWAP2 SWAP1 POP JUMP JUMPDEST PUSH1 0x0 PUSH2 0x2113 DUP3 PUSH2 0x2126 JUMP JUMPDEST SWAP1 POP SWAP2 SWAP1 POP JUMP JUMPDEST PUSH1 0x0 DUP2 ISZERO ISZERO SWAP1 POP SWAP2 SWAP1 POP JUMP JUMPDEST PUSH1 0x0 PUSH20 0xFFFFFFFFFFFFFFFFFFFFFFFFFFFFFFFFFFFFFFFF DUP3 AND SWAP1 POP SWAP2 SWAP1 POP JUMP JUMPDEST PUSH1 0x0 DUP2 SWAP1 POP SWAP2 SWAP1 POP JUMP JUMPDEST PUSH1 0x0 PUSH1 0xFF DUP3 AND SWAP1 POP SWAP2 SWAP1 POP JUMP JUMPDEST PUSH1 0x0 PUSH2 0x2168 DUP3 PUSH2 0x2150 JUMP JUMPDEST SWAP2 POP PUSH1 0xFF DUP3 EQ ISZERO PUSH2 0x217C JUMPI PUSH2 0x217B PUSH2 0x21B8 JUMP JUMPDEST JUMPDEST PUSH1 0x1 DUP3 ADD SWAP1 POP SWAP2 SWAP1 POP JUMP JUMPDEST PUSH1 0x0 PUSH2 0x2192 DUP3 PUSH2 0x2146 JUMP JUMPDEST SWAP2 POP PUSH2 0x219D DUP4 PUSH2 0x2146 JUMP JUMPDEST SWAP3 POP DUP3 PUSH2 0x21AD JUMPI PUSH2 0x21AC PUSH2 0x21E7 JUMP JUMPDEST JUMPDEST DUP3 DUP3 MOD SWAP1 POP SWAP3 SWAP2 POP POP JUMP JUMPDEST PUSH32 0x4E487B7100000000000000000000000000000000000000000000000000000000 PUSH1 0x0 MSTORE PUSH1 0x11 PUSH1 0x4 MSTORE PUSH1 0x24 PUSH1 0x0 REVERT JUMPDEST PUSH32 0x4E487B7100000000000000000000000000000000000000000000000000000000 PUSH1 0x0 MSTORE PUSH1 0x12 PUSH1 0x4 MSTORE PUSH1 0x24 PUSH1 0x0 REVERT JUMPDEST PUSH1 0x0 DUP1 REVERT JUMPDEST PUSH32 0x47616D65206E6F7420666F756E64000000000000000000000000000000000000 PUSH1 0x0 DUP3 ADD MSTORE POP JUMP JUMPDEST PUSH32 0x596F752061726520616C72656164792072656769737465726564000000000000 PUSH1 0x0 DUP3 ADD MSTORE POP JUMP JUMPDEST POP JUMP JUMPDEST PUSH32 0x496E73756666696369656E7420616D6F756E74206F6620636F6E747269627574 PUSH1 0x0 DUP3 ADD MSTORE PUSH32 0x696F6E0000000000000000000000000000000000000000000000000000000000 PUSH1 0x20 DUP3 ADD MSTORE POP JUMP JUMPDEST PUSH32 0x466F72207265676974657220696E2067616D6520796F75206E65656420706179 PUSH1 0x0 DUP3 ADD MSTORE PUSH32 0x2031206574686572000000000000000000000000000000000000000000000000 PUSH1 0x20 DUP3 ADD MSTORE POP JUMP JUMPDEST PUSH32 0x4E6F20636F6E7472616374730000000000000000000000000000000000000000 PUSH1 0x0 DUP3 ADD MSTORE POP JUMP JUMPDEST PUSH32 0x596F7520617265206E6F74206F776E6572000000000000000000000000000000 PUSH1 0x0 DUP3 ADD MSTORE POP JUMP JUMPDEST PUSH2 0x2369 DUP2 PUSH2 0x20F6 JUMP JUMPDEST DUP2 EQ PUSH2 0x2374 JUMPI PUSH1 0x0 DUP1 REVERT JUMPDEST POP JUMP JUMPDEST PUSH2 0x2380 DUP2 PUSH2 0x2146 JUMP JUMPDEST DUP2 EQ PUSH2 0x238B JUMPI PUSH1 0x0 DUP1 REVERT JUMPDEST POP JUMP JUMPDEST PUSH2 0x2397 DUP2 PUSH2 0x2150 JUMP JUMPDEST DUP2 EQ PUSH2 0x23A2 JUMPI PUSH1 0x0 DUP1 REVERT JUMPDEST POP JUMP INVALID LOG2 PUSH5 0x6970667358 0x22 SLT KECCAK256 GASPRICE 0xCD 0x22 0xE6 0xE8 0xAB AND 0x2E 0xD1 0xC3 PUSH21 0x303B24A24F25F186BDAE83CB83F68F0FBE7584F3CC PUSH5 0x736F6C6343 STOP ADDMOD SMOD STOP CALLER "
				},
				"gasEstimates": {
					"creation": {
						"codeDepositCost": "1835800",
						"executionCost": "infinite",
						"totalCost": "infinite"
					},
					"external": {
						"": "infinite",
						"addGameLevel(uint256)": "infinite",
						"currentGameIdIndex()": "2493",
						"currentUserIdIndex()": "2518",
						"currentUserIndex(uint8)": "2838",
						"hasAccess(address)": "2903",
						"joinToGame(uint8)": "infinite",
						"levels(uint8)": "infinite",
						"pools(uint8,uint256)": "infinite",
						"registerUserToGame(uint256)": "infinite",
						"registeredUsers(address)": "infinite",
						"userGames(address,uint8)": "3138",
						"userPayments(address,uint8)": "3144",
						"usersId(uint256)": "2905"
					},
					"internal": {
						"_fallback(address,uint256)": "infinite",
						"_joinToGame(uint8,address,uint256)": "infinite",
						"culcNextWinnerIndex(uint256)": "infinite"
					}
				},
				"methodIdentifiers": {
					"addGameLevel(uint256)": "ae9283b5",
					"currentGameIdIndex()": "ad39f0a3",
					"currentUserIdIndex()": "556c9095",
					"currentUserIndex(uint8)": "9b0b0ae3",
					"hasAccess(address)": "95a078e8",
					"joinToGame(uint8)": "2e8aab9b",
					"levels(uint8)": "906cbf57",
					"pools(uint8,uint256)": "78a32e21",
					"registerUserToGame(uint256)": "0173c05b",
					"registeredUsers(address)": "0e50cee5",
					"userGames(address,uint8)": "2a648c89",
					"userPayments(address,uint8)": "f1060006",
					"usersId(uint256)": "bd233b91"
				}
			},
			"storageLayout": {
				"storage": [
					{
						"astId": 315,
						"contract": "Contract.sol:Pyramid",
						"label": "currentUserIdIndex",
						"offset": 0,
						"slot": "0",
						"type": "t_uint256"
					},
					{
						"astId": 317,
						"contract": "Contract.sol:Pyramid",
						"label": "currentGameIdIndex",
						"offset": 0,
						"slot": "1",
						"type": "t_uint8"
					},
					{
						"astId": 319,
						"contract": "Contract.sol:Pyramid",
						"label": "contractOwner",
						"offset": 1,
						"slot": "1",
						"type": "t_address"
					},
					{
						"astId": 351,
						"contract": "Contract.sol:Pyramid",
						"label": "levels",
						"offset": 0,
						"slot": "2",
						"type": "t_mapping(t_uint8,t_struct(Game)346_storage)"
					},
					{
						"astId": 355,
						"contract": "Contract.sol:Pyramid",
						"label": "usersId",
						"offset": 0,
						"slot": "3",
						"type": "t_mapping(t_uint256,t_address)"
					},
					{
						"astId": 359,
						"contract": "Contract.sol:Pyramid",
						"label": "userPartnersCount",
						"offset": 0,
						"slot": "4",
						"type": "t_mapping(t_uint256,t_uint256)"
					},
					{
						"astId": 364,
						"contract": "Contract.sol:Pyramid",
						"label": "registeredUsers",
						"offset": 0,
						"slot": "5",
						"type": "t_mapping(t_address,t_struct(User)341_storage)"
					},
					{
						"astId": 368,
						"contract": "Contract.sol:Pyramid",
						"label": "currentUserIndex",
						"offset": 0,
						"slot": "6",
						"type": "t_mapping(t_uint8,t_uint256)"
					},
					{
						"astId": 375,
						"contract": "Contract.sol:Pyramid",
						"label": "pools",
						"offset": 0,
						"slot": "7",
						"type": "t_mapping(t_uint8,t_mapping(t_uint256,t_struct(User)341_storage))"
					},
					{
						"astId": 381,
						"contract": "Contract.sol:Pyramid",
						"label": "userPayments",
						"offset": 0,
						"slot": "8",
						"type": "t_mapping(t_address,t_mapping(t_uint8,t_uint256))"
					},
					{
						"astId": 387,
						"contract": "Contract.sol:Pyramid",
						"label": "userGames",
						"offset": 0,
						"slot": "9",
						"type": "t_mapping(t_address,t_mapping(t_uint8,t_bool))"
					}
				],
				"types": {
					"t_address": {
						"encoding": "inplace",
						"label": "address",
						"numberOfBytes": "20"
					},
					"t_address_payable": {
						"encoding": "inplace",
						"label": "address payable",
						"numberOfBytes": "20"
					},
					"t_bool": {
						"encoding": "inplace",
						"label": "bool",
						"numberOfBytes": "1"
					},
					"t_mapping(t_address,t_mapping(t_uint8,t_bool))": {
						"encoding": "mapping",
						"key": "t_address",
						"label": "mapping(address => mapping(uint8 => bool))",
						"numberOfBytes": "32",
						"value": "t_mapping(t_uint8,t_bool)"
					},
					"t_mapping(t_address,t_mapping(t_uint8,t_uint256))": {
						"encoding": "mapping",
						"key": "t_address",
						"label": "mapping(address => mapping(uint8 => uint256))",
						"numberOfBytes": "32",
						"value": "t_mapping(t_uint8,t_uint256)"
					},
					"t_mapping(t_address,t_struct(User)341_storage)": {
						"encoding": "mapping",
						"key": "t_address",
						"label": "mapping(address => struct Pyramid.User)",
						"numberOfBytes": "32",
						"value": "t_struct(User)341_storage"
					},
					"t_mapping(t_uint256,t_address)": {
						"encoding": "mapping",
						"key": "t_uint256",
						"label": "mapping(uint256 => address)",
						"numberOfBytes": "32",
						"value": "t_address"
					},
					"t_mapping(t_uint256,t_struct(User)341_storage)": {
						"encoding": "mapping",
						"key": "t_uint256",
						"label": "mapping(uint256 => struct Pyramid.User)",
						"numberOfBytes": "32",
						"value": "t_struct(User)341_storage"
					},
					"t_mapping(t_uint256,t_uint256)": {
						"encoding": "mapping",
						"key": "t_uint256",
						"label": "mapping(uint256 => uint256)",
						"numberOfBytes": "32",
						"value": "t_uint256"
					},
					"t_mapping(t_uint8,t_bool)": {
						"encoding": "mapping",
						"key": "t_uint8",
						"label": "mapping(uint8 => bool)",
						"numberOfBytes": "32",
						"value": "t_bool"
					},
					"t_mapping(t_uint8,t_mapping(t_uint256,t_struct(User)341_storage))": {
						"encoding": "mapping",
						"key": "t_uint8",
						"label": "mapping(uint8 => mapping(uint256 => struct Pyramid.User))",
						"numberOfBytes": "32",
						"value": "t_mapping(t_uint256,t_struct(User)341_storage)"
					},
					"t_mapping(t_uint8,t_struct(Game)346_storage)": {
						"encoding": "mapping",
						"key": "t_uint8",
						"label": "mapping(uint8 => struct Pyramid.Game)",
						"numberOfBytes": "32",
						"value": "t_struct(Game)346_storage"
					},
					"t_mapping(t_uint8,t_uint256)": {
						"encoding": "mapping",
						"key": "t_uint8",
						"label": "mapping(uint8 => uint256)",
						"numberOfBytes": "32",
						"value": "t_uint256"
					},
					"t_struct(Game)346_storage": {
						"encoding": "inplace",
						"label": "struct Pyramid.Game",
						"members": [
							{
								"astId": 343,
								"contract": "Contract.sol:Pyramid",
								"label": "gameId",
								"offset": 0,
								"slot": "0",
								"type": "t_uint8"
							},
							{
								"astId": 345,
								"contract": "Contract.sol:Pyramid",
								"label": "amountToPay",
								"offset": 0,
								"slot": "1",
								"type": "t_uint256"
							}
						],
						"numberOfBytes": "64"
					},
					"t_struct(User)341_storage": {
						"encoding": "inplace",
						"label": "struct Pyramid.User",
						"members": [
							{
								"astId": 336,
								"contract": "Contract.sol:Pyramid",
								"label": "userId",
								"offset": 0,
								"slot": "0",
								"type": "t_uint256"
							},
							{
								"astId": 338,
								"contract": "Contract.sol:Pyramid",
								"label": "userAddress",
								"offset": 0,
								"slot": "1",
								"type": "t_address_payable"
							},
							{
								"astId": 340,
								"contract": "Contract.sol:Pyramid",
								"label": "invitedId",
								"offset": 0,
								"slot": "2",
								"type": "t_uint256"
							}
						],
						"numberOfBytes": "96"
					},
					"t_uint256": {
						"encoding": "inplace",
						"label": "uint256",
						"numberOfBytes": "32"
					},
					"t_uint8": {
						"encoding": "inplace",
						"label": "uint8",
						"numberOfBytes": "1"
					}
				}
			},
			"userdoc": {
				"kind": "user",
				"methods": {},
				"version": 1
			}
		}
	}
}