{
	"cobraBot/Contract.sol": {
		"Pyramid": {
			"abi": [
				{
					"inputs": [],
					"stateMutability": "nonpayable",
					"type": "constructor"
				},
				{
					"anonymous": false,
					"inputs": [
						{
							"components": [
								{
									"internalType": "uint256",
									"name": "circleCount",
									"type": "uint256"
								},
								{
									"internalType": "uint256",
									"name": "amountToPay",
									"type": "uint256"
								}
							],
							"indexed": false,
							"internalType": "struct Pyramid.Game",
							"name": "game",
							"type": "tuple"
						},
						{
							"indexed": false,
							"internalType": "address",
							"name": "account",
							"type": "address"
						},
						{
							"indexed": false,
							"internalType": "bool",
							"name": "success",
							"type": "bool"
						}
					],
					"name": "GamePaymentEvent",
					"type": "event"
				},
				{
					"anonymous": false,
					"inputs": [
						{
							"components": [
								{
									"internalType": "uint256",
									"name": "circleCount",
									"type": "uint256"
								},
								{
									"internalType": "uint256",
									"name": "amountToPay",
									"type": "uint256"
								}
							],
							"indexed": false,
							"internalType": "struct Pyramid.Game",
							"name": "game",
							"type": "tuple"
						}
					],
					"name": "NewGame",
					"type": "event"
				},
				{
					"anonymous": false,
					"inputs": [
						{
							"components": [
								{
									"internalType": "uint256",
									"name": "circleCount",
									"type": "uint256"
								},
								{
									"internalType": "uint256",
									"name": "amountToPay",
									"type": "uint256"
								}
							],
							"indexed": false,
							"internalType": "struct Pyramid.Game",
							"name": "game",
							"type": "tuple"
						},
						{
							"indexed": false,
							"internalType": "uint256",
							"name": "from",
							"type": "uint256"
						},
						{
							"indexed": false,
							"internalType": "uint256",
							"name": "to",
							"type": "uint256"
						},
						{
							"indexed": false,
							"internalType": "uint256",
							"name": "amount",
							"type": "uint256"
						}
					],
					"name": "ReferalPaymentEvent",
					"type": "event"
				},
				{
					"stateMutability": "payable",
					"type": "fallback"
				},
				{
					"inputs": [
						{
							"internalType": "uint256",
							"name": "circleCount",
							"type": "uint256"
						},
						{
							"internalType": "uint256",
							"name": "amountToPay",
							"type": "uint256"
						}
					],
					"name": "addGameLevel",
					"outputs": [],
					"stateMutability": "nonpayable",
					"type": "function"
				},
				{
					"inputs": [],
					"name": "currentGameIdIndex",
					"outputs": [
						{
							"internalType": "uint8",
							"name": "",
							"type": "uint8"
						}
					],
					"stateMutability": "view",
					"type": "function"
				},
				{
					"inputs": [
						{
							"internalType": "uint8",
							"name": "",
							"type": "uint8"
						}
					],
					"name": "currentUserIndex",
					"outputs": [
						{
							"internalType": "uint256",
							"name": "",
							"type": "uint256"
						}
					],
					"stateMutability": "view",
					"type": "function"
				},
				{
					"inputs": [
						{
							"internalType": "address",
							"name": "userAddress",
							"type": "address"
						}
					],
					"name": "getUserBalance",
					"outputs": [
						{
							"internalType": "uint256",
							"name": "",
							"type": "uint256"
						}
					],
					"stateMutability": "view",
					"type": "function"
				},
				{
					"inputs": [
						{
							"internalType": "address",
							"name": "userAdress",
							"type": "address"
						}
					],
					"name": "hasAccess",
					"outputs": [
						{
							"internalType": "bool",
							"name": "",
							"type": "bool"
						}
					],
					"stateMutability": "view",
					"type": "function"
				},
				{
					"inputs": [
						{
							"internalType": "uint8",
							"name": "gameId",
							"type": "uint8"
						}
					],
					"name": "joinToGame",
					"outputs": [],
					"stateMutability": "payable",
					"type": "function"
				},
				{
					"inputs": [
						{
							"internalType": "uint8",
							"name": "",
							"type": "uint8"
						}
					],
					"name": "levels",
					"outputs": [
						{
							"internalType": "uint256",
							"name": "circleCount",
							"type": "uint256"
						},
						{
							"internalType": "uint256",
							"name": "amountToPay",
							"type": "uint256"
						}
					],
					"stateMutability": "view",
					"type": "function"
				},
				{
					"inputs": [
						{
							"internalType": "uint8",
							"name": "",
							"type": "uint8"
						},
						{
							"internalType": "uint256",
							"name": "",
							"type": "uint256"
						}
					],
					"name": "pools",
					"outputs": [
						{
							"internalType": "uint256",
							"name": "userId",
							"type": "uint256"
						},
						{
							"internalType": "address payable",
							"name": "userAddress",
							"type": "address"
						},
						{
							"internalType": "uint256",
							"name": "invitedId",
							"type": "uint256"
						}
					],
					"stateMutability": "view",
					"type": "function"
				},
				{
					"inputs": [
						{
							"internalType": "uint256",
							"name": "inviterId",
							"type": "uint256"
						}
					],
					"name": "registerUserToGame",
					"outputs": [],
					"stateMutability": "payable",
					"type": "function"
				},
				{
					"inputs": [
						{
							"internalType": "address",
							"name": "",
							"type": "address"
						}
					],
					"name": "registeredUsers",
					"outputs": [
						{
							"internalType": "uint256",
							"name": "userId",
							"type": "uint256"
						},
						{
							"internalType": "address payable",
							"name": "userAddress",
							"type": "address"
						},
						{
							"internalType": "uint256",
							"name": "invitedId",
							"type": "uint256"
						}
					],
					"stateMutability": "view",
					"type": "function"
				},
				{
					"inputs": [
						{
							"internalType": "address",
							"name": "",
							"type": "address"
						},
						{
							"internalType": "uint8",
							"name": "",
							"type": "uint8"
						}
					],
					"name": "userGames",
					"outputs": [
						{
							"internalType": "bool",
							"name": "",
							"type": "bool"
						}
					],
					"stateMutability": "view",
					"type": "function"
				},
				{
					"inputs": [
						{
							"internalType": "address",
							"name": "",
							"type": "address"
						},
						{
							"internalType": "uint8",
							"name": "",
							"type": "uint8"
						}
					],
					"name": "userPayments",
					"outputs": [
						{
							"internalType": "uint256",
							"name": "",
							"type": "uint256"
						}
					],
					"stateMutability": "view",
					"type": "function"
				},
				{
					"inputs": [
						{
							"internalType": "uint256",
							"name": "",
							"type": "uint256"
						}
					],
					"name": "usersId",
					"outputs": [
						{
							"internalType": "address",
							"name": "",
							"type": "address"
						}
					],
					"stateMutability": "view",
					"type": "function"
				},
				{
					"stateMutability": "payable",
					"type": "receive"
				}
			],
			"devdoc": {
				"kind": "dev",
				"methods": {},
				"version": 1
			},
			"evm": {
				"assembly": "    /* \"cobraBot/Contract.sol\":64:8206  contract Pyramid {\r... */\n  mstore(0x40, 0x80)\n    /* \"cobraBot/Contract.sol\":2247:2522  constructor () {\r... */\n  callvalue\n  dup1\n  iszero\n  tag_1\n  jumpi\n  0x00\n  dup1\n  revert\ntag_1:\n  pop\n    /* \"cobraBot/Contract.sol\":2289:2299  msg.sender */\n  caller\n    /* \"cobraBot/Contract.sol\":2273:2286  contractOwner */\n  0x01\n  dup1\n    /* \"cobraBot/Contract.sol\":2273:2299  contractOwner = msg.sender */\n  0x0100\n  exp\n  dup2\n  sload\n  dup2\n  0xffffffffffffffffffffffffffffffffffffffff\n  mul\n  not\n  and\n  swap1\n  dup4\n  0xffffffffffffffffffffffffffffffffffffffff\n  and\n  mul\n  or\n  swap1\n  sstore\n  pop\n    /* \"cobraBot/Contract.sol\":2323:2336  contractOwner */\n  0x01\n  dup1\n  sload\n  swap1\n  0x0100\n  exp\n  swap1\n  div\n  0xffffffffffffffffffffffffffffffffffffffff\n  and\n    /* \"cobraBot/Contract.sol\":2310:2317  usersId */\n  0x03\n    /* \"cobraBot/Contract.sol\":2310:2320  usersId[0] */\n  0x00\n    /* \"cobraBot/Contract.sol\":2318:2319  0 */\n  dup1\n    /* \"cobraBot/Contract.sol\":2310:2320  usersId[0] */\n  dup2\n  mstore\n  0x20\n  add\n  swap1\n  dup2\n  mstore\n  0x20\n  add\n  0x00\n  keccak256\n  0x00\n    /* \"cobraBot/Contract.sol\":2310:2336  usersId[0] = contractOwner */\n  0x0100\n  exp\n  dup2\n  sload\n  dup2\n  0xffffffffffffffffffffffffffffffffffffffff\n  mul\n  not\n  and\n  swap1\n  dup4\n  0xffffffffffffffffffffffffffffffffffffffff\n  and\n  mul\n  or\n  swap1\n  sstore\n  pop\n    /* \"cobraBot/Contract.sol\":2380:2414  User(0, payable(contractOwner), 0) */\n  mload(0x40)\n  dup1\n  0x60\n  add\n  0x40\n  mstore\n  dup1\n    /* \"cobraBot/Contract.sol\":2385:2386  0 */\n  0x00\n    /* \"cobraBot/Contract.sol\":2380:2414  User(0, payable(contractOwner), 0) */\n  dup2\n  mstore\n  0x20\n  add\n    /* \"cobraBot/Contract.sol\":2396:2409  contractOwner */\n  0x01\n  dup1\n  sload\n  swap1\n  0x0100\n  exp\n  swap1\n  div\n  0xffffffffffffffffffffffffffffffffffffffff\n  and\n    /* \"cobraBot/Contract.sol\":2380:2414  User(0, payable(contractOwner), 0) */\n  0xffffffffffffffffffffffffffffffffffffffff\n  and\n  dup2\n  mstore\n  0x20\n  add\n    /* \"cobraBot/Contract.sol\":2412:2413  0 */\n  0x00\n    /* \"cobraBot/Contract.sol\":2380:2414  User(0, payable(contractOwner), 0) */\n  dup2\n  mstore\n  pop\n    /* \"cobraBot/Contract.sol\":2347:2362  registeredUsers */\n  0x04\n    /* \"cobraBot/Contract.sol\":2347:2377  registeredUsers[contractOwner] */\n  0x00\n    /* \"cobraBot/Contract.sol\":2363:2376  contractOwner */\n  0x01\n  dup1\n  sload\n  swap1\n  0x0100\n  exp\n  swap1\n  div\n  0xffffffffffffffffffffffffffffffffffffffff\n  and\n    /* \"cobraBot/Contract.sol\":2347:2377  registeredUsers[contractOwner] */\n  0xffffffffffffffffffffffffffffffffffffffff\n  and\n  0xffffffffffffffffffffffffffffffffffffffff\n  and\n  dup2\n  mstore\n  0x20\n  add\n  swap1\n  dup2\n  mstore\n  0x20\n  add\n  0x00\n  keccak256\n    /* \"cobraBot/Contract.sol\":2347:2414  registeredUsers[contractOwner] = User(0, payable(contractOwner), 0) */\n  0x00\n  dup3\n  add\n  mload\n  dup2\n  0x00\n  add\n  sstore\n  0x20\n  dup3\n  add\n  mload\n  dup2\n  0x01\n  add\n  exp(0x0100, 0x00)\n  dup2\n  sload\n  dup2\n  0xffffffffffffffffffffffffffffffffffffffff\n  mul\n  not\n  and\n  swap1\n  dup4\n  0xffffffffffffffffffffffffffffffffffffffff\n  and\n  mul\n  or\n  swap1\n  sstore\n  pop\n  0x40\n  dup3\n  add\n  mload\n  dup2\n  0x02\n  add\n  sstore\n  swap1\n  pop\n  pop\n    /* \"cobraBot/Contract.sol\":2446:2447  1 */\n  0x01\n    /* \"cobraBot/Contract.sol\":2425:2443  currentUserIdIndex */\n  0x00\n    /* \"cobraBot/Contract.sol\":2425:2447  currentUserIdIndex = 1 */\n  dup2\n  swap1\n  sstore\n  pop\n    /* \"cobraBot/Contract.sol\":2460:2514  addGameLevel({ circleCount: 3, amountToPay: 1 ether }) */\n  tag_4\n    /* \"cobraBot/Contract.sol\":2488:2489  3 */\n  0x03\n    /* \"cobraBot/Contract.sol\":2504:2511  1 ether */\n  0x0de0b6b3a7640000\n    /* \"cobraBot/Contract.sol\":2460:2472  addGameLevel */\n  shl(0x20, tag_5)\n    /* \"cobraBot/Contract.sol\":2460:2514  addGameLevel({ circleCount: 3, amountToPay: 1 ether }) */\n  0x20\n  shr\n  jump\t// in\ntag_4:\n    /* \"cobraBot/Contract.sol\":64:8206  contract Pyramid {\r... */\n  jump(tag_6)\n    /* \"cobraBot/Contract.sol\":3676:4055  function addGameLevel(uint256 circleCount, uint256 amountToPay) public onlyOwner {\r... */\ntag_5:\n    /* \"cobraBot/Contract.sol\":2197:2218  hasAccess(msg.sender) */\n  tag_8\n    /* \"cobraBot/Contract.sol\":2207:2217  msg.sender */\n  caller\n    /* \"cobraBot/Contract.sol\":2197:2206  hasAccess */\n  shl(0x20, tag_9)\n    /* \"cobraBot/Contract.sol\":2197:2218  hasAccess(msg.sender) */\n  0x20\n  shr\n  jump\t// in\ntag_8:\n    /* \"cobraBot/Contract.sol\":2189:2219  require(hasAccess(msg.sender)) */\n  tag_10\n  jumpi\n  0x00\n  dup1\n  revert\ntag_10:\n    /* \"cobraBot/Contract.sol\":3902:3962  Game({ circleCount: circleCount, amountToPay: amountToPay }) */\n  mload(0x40)\n  dup1\n  0x40\n  add\n  0x40\n  mstore\n  dup1\n    /* \"cobraBot/Contract.sol\":3922:3933  circleCount */\n  dup4\n    /* \"cobraBot/Contract.sol\":3902:3962  Game({ circleCount: circleCount, amountToPay: amountToPay }) */\n  dup2\n  mstore\n  0x20\n  add\n    /* \"cobraBot/Contract.sol\":3948:3959  amountToPay */\n  dup3\n    /* \"cobraBot/Contract.sol\":3902:3962  Game({ circleCount: circleCount, amountToPay: amountToPay }) */\n  dup2\n  mstore\n  pop\n    /* \"cobraBot/Contract.sol\":3873:3879  levels */\n  0x02\n    /* \"cobraBot/Contract.sol\":3873:3899  levels[currentGameIdIndex] */\n  0x00\n    /* \"cobraBot/Contract.sol\":3880:3898  currentGameIdIndex */\n  0x01\n  0x00\n  swap1\n  sload\n  swap1\n  0x0100\n  exp\n  swap1\n  div\n  0xff\n  and\n    /* \"cobraBot/Contract.sol\":3873:3899  levels[currentGameIdIndex] */\n  0xff\n  and\n  0xff\n  and\n  dup2\n  mstore\n  0x20\n  add\n  swap1\n  dup2\n  mstore\n  0x20\n  add\n  0x00\n  keccak256\n    /* \"cobraBot/Contract.sol\":3873:3962  levels[currentGameIdIndex] = Game({ circleCount: circleCount, amountToPay: amountToPay }) */\n  0x00\n  dup3\n  add\n  mload\n  dup2\n  0x00\n  add\n  sstore\n  0x20\n  dup3\n  add\n  mload\n  dup2\n  0x01\n  add\n  sstore\n  swap1\n  pop\n  pop\n    /* \"cobraBot/Contract.sol\":3978:4013  NewGame(levels[currentGameIdIndex]) */\n  0x954900f0fb49268c265d1bafbfbf6c060c8b41cdb6b0bcaa575389d650b5e374\n    /* \"cobraBot/Contract.sol\":3986:3992  levels */\n  0x02\n    /* \"cobraBot/Contract.sol\":3986:4012  levels[currentGameIdIndex] */\n  0x00\n    /* \"cobraBot/Contract.sol\":3993:4011  currentGameIdIndex */\n  0x01\n  0x00\n  swap1\n  sload\n  swap1\n  0x0100\n  exp\n  swap1\n  div\n  0xff\n  and\n    /* \"cobraBot/Contract.sol\":3986:4012  levels[currentGameIdIndex] */\n  0xff\n  and\n  0xff\n  and\n  dup2\n  mstore\n  0x20\n  add\n  swap1\n  dup2\n  mstore\n  0x20\n  add\n  0x00\n  keccak256\n    /* \"cobraBot/Contract.sol\":3978:4013  NewGame(levels[currentGameIdIndex]) */\n  mload(0x40)\n  tag_12\n  swap2\n  swap1\n  tag_13\n  jump\t// in\ntag_12:\n  mload(0x40)\n  dup1\n  swap2\n  sub\n  swap1\n  log1\n    /* \"cobraBot/Contract.sol\":4046:4047  1 */\n  0x01\n    /* \"cobraBot/Contract.sol\":4024:4042  currentGameIdIndex */\n  dup1\n  0x00\n    /* \"cobraBot/Contract.sol\":4024:4047  currentGameIdIndex += 1 */\n  dup3\n  dup3\n  dup3\n  swap1\n  sload\n  swap1\n  0x0100\n  exp\n  swap1\n  div\n  0xff\n  and\n  tag_14\n  swap2\n  swap1\n  tag_15\n  jump\t// in\ntag_14:\n  swap3\n  pop\n  0x0100\n  exp\n  dup2\n  sload\n  dup2\n  0xff\n  mul\n  not\n  and\n  swap1\n  dup4\n  0xff\n  and\n  mul\n  or\n  swap1\n  sstore\n  pop\n    /* \"cobraBot/Contract.sol\":3676:4055  function addGameLevel(uint256 circleCount, uint256 amountToPay) public onlyOwner {\r... */\n  pop\n  pop\n  jump\t// out\n    /* \"cobraBot/Contract.sol\":3312:3541  function hasAccess(address userAdress) public view returns(bool) {\r... */\ntag_9:\n    /* \"cobraBot/Contract.sol\":3371:3375  bool */\n  0x00\n    /* \"cobraBot/Contract.sol\":3520:3533  contractOwner */\n  0x01\n  dup1\n  sload\n  swap1\n  0x0100\n  exp\n  swap1\n  div\n  0xffffffffffffffffffffffffffffffffffffffff\n  and\n    /* \"cobraBot/Contract.sol\":3506:3533  userAdress == contractOwner */\n  0xffffffffffffffffffffffffffffffffffffffff\n  and\n    /* \"cobraBot/Contract.sol\":3506:3516  userAdress */\n  dup3\n    /* \"cobraBot/Contract.sol\":3506:3533  userAdress == contractOwner */\n  0xffffffffffffffffffffffffffffffffffffffff\n  and\n  eq\n    /* \"cobraBot/Contract.sol\":3499:3533  return userAdress == contractOwner */\n  swap1\n  pop\n    /* \"cobraBot/Contract.sol\":3312:3541  function hasAccess(address userAdress) public view returns(bool) {\r... */\n  swap2\n  swap1\n  pop\n  jump\t// out\n    /* \"#utility.yul\":57:752   */\ntag_18:\n    /* \"#utility.yul\":191:195   */\n  0x40\n    /* \"#utility.yul\":186:189   */\n  dup3\n    /* \"#utility.yul\":182:196   */\n  add\n    /* \"#utility.yul\":222:223   */\n  0x00\n    /* \"#utility.yul\":304:308   */\n  dup1\n    /* \"#utility.yul\":297:302   */\n  dup4\n    /* \"#utility.yul\":293:309   */\n  add\n    /* \"#utility.yul\":287:310   */\n  sload\n    /* \"#utility.yul\":274:310   */\n  swap1\n  pop\n    /* \"#utility.yul\":343:398   */\n  tag_20\n    /* \"#utility.yul\":388:397   */\n  dup2\n    /* \"#utility.yul\":343:398   */\n  tag_21\n  jump\t// in\ntag_20:\n    /* \"#utility.yul\":411:474   */\n  tag_22\n    /* \"#utility.yul\":468:472   */\n  0x00\n    /* \"#utility.yul\":463:466   */\n  dup7\n    /* \"#utility.yul\":459:473   */\n  add\n    /* \"#utility.yul\":445:457   */\n  dup3\n    /* \"#utility.yul\":411:474   */\n  tag_23\n  jump\t// in\ntag_22:\n    /* \"#utility.yul\":233:484   */\n  pop\n    /* \"#utility.yul\":565:569   */\n  0x01\n    /* \"#utility.yul\":558:563   */\n  dup4\n    /* \"#utility.yul\":554:570   */\n  add\n    /* \"#utility.yul\":548:571   */\n  sload\n    /* \"#utility.yul\":535:571   */\n  swap1\n  pop\n    /* \"#utility.yul\":604:659   */\n  tag_24\n    /* \"#utility.yul\":649:658   */\n  dup2\n    /* \"#utility.yul\":604:659   */\n  tag_21\n  jump\t// in\ntag_24:\n    /* \"#utility.yul\":672:735   */\n  tag_25\n    /* \"#utility.yul\":729:733   */\n  0x20\n    /* \"#utility.yul\":724:727   */\n  dup7\n    /* \"#utility.yul\":720:734   */\n  add\n    /* \"#utility.yul\":706:718   */\n  dup3\n    /* \"#utility.yul\":672:735   */\n  tag_23\n  jump\t// in\ntag_25:\n    /* \"#utility.yul\":494:745   */\n  pop\n    /* \"#utility.yul\":160:752   */\n  pop\n  pop\n    /* \"#utility.yul\":57:752   */\n  pop\n  pop\n  jump\t// out\n    /* \"#utility.yul\":758:866   */\ntag_23:\n    /* \"#utility.yul\":835:859   */\n  tag_27\n    /* \"#utility.yul\":853:858   */\n  dup2\n    /* \"#utility.yul\":835:859   */\n  tag_28\n  jump\t// in\ntag_27:\n    /* \"#utility.yul\":830:833   */\n  dup3\n    /* \"#utility.yul\":823:860   */\n  mstore\n    /* \"#utility.yul\":758:866   */\n  pop\n  pop\n  jump\t// out\n    /* \"#utility.yul\":872:1168   */\ntag_13:\n    /* \"#utility.yul\":1002:1006   */\n  0x00\n    /* \"#utility.yul\":1040:1042   */\n  0x40\n    /* \"#utility.yul\":1029:1038   */\n  dup3\n    /* \"#utility.yul\":1025:1043   */\n  add\n    /* \"#utility.yul\":1017:1043   */\n  swap1\n  pop\n    /* \"#utility.yul\":1053:1161   */\n  tag_30\n    /* \"#utility.yul\":1158:1159   */\n  0x00\n    /* \"#utility.yul\":1147:1156   */\n  dup4\n    /* \"#utility.yul\":1143:1160   */\n  add\n    /* \"#utility.yul\":1134:1140   */\n  dup5\n    /* \"#utility.yul\":1053:1161   */\n  tag_18\n  jump\t// in\ntag_30:\n    /* \"#utility.yul\":872:1168   */\n  swap3\n  swap2\n  pop\n  pop\n  jump\t// out\n    /* \"#utility.yul\":1174:1411   */\ntag_15:\n    /* \"#utility.yul\":1212:1215   */\n  0x00\n    /* \"#utility.yul\":1231:1249   */\n  tag_32\n    /* \"#utility.yul\":1247:1248   */\n  dup3\n    /* \"#utility.yul\":1231:1249   */\n  tag_33\n  jump\t// in\ntag_32:\n    /* \"#utility.yul\":1226:1249   */\n  swap2\n  pop\n    /* \"#utility.yul\":1263:1281   */\n  tag_34\n    /* \"#utility.yul\":1279:1280   */\n  dup4\n    /* \"#utility.yul\":1263:1281   */\n  tag_33\n  jump\t// in\ntag_34:\n    /* \"#utility.yul\":1258:1281   */\n  swap3\n  pop\n    /* \"#utility.yul\":1353:1354   */\n  dup3\n    /* \"#utility.yul\":1347:1351   */\n  0xff\n    /* \"#utility.yul\":1343:1355   */\n  sub\n    /* \"#utility.yul\":1340:1341   */\n  dup3\n    /* \"#utility.yul\":1337:1356   */\n  gt\n    /* \"#utility.yul\":1334:1379   */\n  iszero\n  tag_35\n  jumpi\n    /* \"#utility.yul\":1359:1377   */\n  tag_36\n  tag_37\n  jump\t// in\ntag_36:\n    /* \"#utility.yul\":1334:1379   */\ntag_35:\n    /* \"#utility.yul\":1403:1404   */\n  dup3\n    /* \"#utility.yul\":1400:1401   */\n  dup3\n    /* \"#utility.yul\":1396:1405   */\n  add\n    /* \"#utility.yul\":1389:1405   */\n  swap1\n  pop\n    /* \"#utility.yul\":1174:1411   */\n  swap3\n  swap2\n  pop\n  pop\n  jump\t// out\n    /* \"#utility.yul\":1417:1507   */\ntag_38:\n    /* \"#utility.yul\":1467:1474   */\n  0x00\n    /* \"#utility.yul\":1496:1501   */\n  dup2\n    /* \"#utility.yul\":1485:1501   */\n  swap1\n  pop\n    /* \"#utility.yul\":1417:1507   */\n  swap2\n  swap1\n  pop\n  jump\t// out\n    /* \"#utility.yul\":1513:1590   */\ntag_28:\n    /* \"#utility.yul\":1550:1557   */\n  0x00\n    /* \"#utility.yul\":1579:1584   */\n  dup2\n    /* \"#utility.yul\":1568:1584   */\n  swap1\n  pop\n    /* \"#utility.yul\":1513:1590   */\n  swap2\n  swap1\n  pop\n  jump\t// out\n    /* \"#utility.yul\":1596:1682   */\ntag_33:\n    /* \"#utility.yul\":1631:1638   */\n  0x00\n    /* \"#utility.yul\":1671:1675   */\n  0xff\n    /* \"#utility.yul\":1664:1669   */\n  dup3\n    /* \"#utility.yul\":1660:1676   */\n  and\n    /* \"#utility.yul\":1649:1676   */\n  swap1\n  pop\n    /* \"#utility.yul\":1596:1682   */\n  swap2\n  swap1\n  pop\n  jump\t// out\n    /* \"#utility.yul\":1688:1854   */\ntag_21:\n    /* \"#utility.yul\":1757:1762   */\n  0x00\n    /* \"#utility.yul\":1782:1848   */\n  tag_43\n    /* \"#utility.yul\":1813:1847   */\n  tag_44\n    /* \"#utility.yul\":1836:1846   */\n  dup4\n    /* \"#utility.yul\":1813:1847   */\n  tag_45\n  jump\t// in\ntag_44:\n    /* \"#utility.yul\":1782:1848   */\n  tag_38\n  jump\t// in\ntag_43:\n    /* \"#utility.yul\":1773:1848   */\n  swap1\n  pop\n    /* \"#utility.yul\":1688:1854   */\n  swap2\n  swap1\n  pop\n  jump\t// out\n    /* \"#utility.yul\":1860:2040   */\ntag_37:\n    /* \"#utility.yul\":1908:1985   */\n  0x4e487b7100000000000000000000000000000000000000000000000000000000\n    /* \"#utility.yul\":1905:1906   */\n  0x00\n    /* \"#utility.yul\":1898:1986   */\n  mstore\n    /* \"#utility.yul\":2005:2009   */\n  0x11\n    /* \"#utility.yul\":2002:2003   */\n  0x04\n    /* \"#utility.yul\":1995:2010   */\n  mstore\n    /* \"#utility.yul\":2029:2033   */\n  0x24\n    /* \"#utility.yul\":2026:2027   */\n  0x00\n    /* \"#utility.yul\":2019:2034   */\n  revert\n    /* \"#utility.yul\":2046:2148   */\ntag_45:\n    /* \"#utility.yul\":2088:2096   */\n  0x00\n    /* \"#utility.yul\":2135:2140   */\n  dup2\n    /* \"#utility.yul\":2132:2133   */\n  0x00\n    /* \"#utility.yul\":2128:2141   */\n  shr\n    /* \"#utility.yul\":2107:2141   */\n  swap1\n  pop\n    /* \"#utility.yul\":2046:2148   */\n  swap2\n  swap1\n  pop\n  jump\t// out\n    /* \"cobraBot/Contract.sol\":64:8206  contract Pyramid {\r... */\ntag_6:\n  dataSize(sub_0)\n  dup1\n  dataOffset(sub_0)\n  0x00\n  codecopy\n  0x00\n  return\nstop\n\nsub_0: assembly {\n        /* \"cobraBot/Contract.sol\":64:8206  contract Pyramid {\r... */\n      mstore(0x40, 0x80)\n      jumpi(tag_1, lt(calldatasize, 0x04))\n      shr(0xe0, calldataload(0x00))\n      dup1\n      0x7b0d5efa\n      gt\n      tag_16\n      jumpi\n      dup1\n      0x9b0b0ae3\n      gt\n      tag_17\n      jumpi\n      dup1\n      0x9b0b0ae3\n      eq\n      tag_12\n      jumpi\n      dup1\n      0xad39f0a3\n      eq\n      tag_13\n      jumpi\n      dup1\n      0xbd233b91\n      eq\n      tag_14\n      jumpi\n      dup1\n      0xf1060006\n      eq\n      tag_15\n      jumpi\n      jump(tag_2)\n    tag_17:\n      dup1\n      0x7b0d5efa\n      eq\n      tag_9\n      jumpi\n      dup1\n      0x906cbf57\n      eq\n      tag_10\n      jumpi\n      dup1\n      0x95a078e8\n      eq\n      tag_11\n      jumpi\n      jump(tag_2)\n    tag_16:\n      dup1\n      0x0173c05b\n      eq\n      tag_3\n      jumpi\n      dup1\n      0x0e50cee5\n      eq\n      tag_4\n      jumpi\n      dup1\n      0x2a648c89\n      eq\n      tag_5\n      jumpi\n      dup1\n      0x2e8aab9b\n      eq\n      tag_6\n      jumpi\n      dup1\n      0x47734892\n      eq\n      tag_7\n      jumpi\n      dup1\n      0x78a32e21\n      eq\n      tag_8\n      jumpi\n      jump(tag_2)\n    tag_1:\n      jumpi(tag_2, calldatasize)\n        /* \"cobraBot/Contract.sol\":2569:2601  _fallback(msg.sender, msg.value) */\n      tag_20\n        /* \"cobraBot/Contract.sol\":2579:2589  msg.sender */\n      caller\n        /* \"cobraBot/Contract.sol\":2591:2600  msg.value */\n      callvalue\n        /* \"cobraBot/Contract.sol\":2569:2578  _fallback */\n      tag_21\n        /* \"cobraBot/Contract.sol\":2569:2601  _fallback(msg.sender, msg.value) */\n      jump\t// in\n    tag_20:\n        /* \"cobraBot/Contract.sol\":64:8206  contract Pyramid {\r... */\n      stop\n    tag_2:\n        /* \"cobraBot/Contract.sol\":2657:2689  _fallback(msg.sender, msg.value) */\n      tag_24\n        /* \"cobraBot/Contract.sol\":2667:2677  msg.sender */\n      caller\n        /* \"cobraBot/Contract.sol\":2679:2688  msg.value */\n      callvalue\n        /* \"cobraBot/Contract.sol\":2657:2666  _fallback */\n      tag_21\n        /* \"cobraBot/Contract.sol\":2657:2689  _fallback(msg.sender, msg.value) */\n      jump\t// in\n    tag_24:\n        /* \"cobraBot/Contract.sol\":64:8206  contract Pyramid {\r... */\n      stop\n        /* \"cobraBot/Contract.sol\":4063:4500  function registerUserToGame(uint256 inviterId) external payable noContractAccess {\r... */\n    tag_3:\n      tag_25\n      0x04\n      dup1\n      calldatasize\n      sub\n      dup2\n      add\n      swap1\n      tag_26\n      swap2\n      swap1\n      tag_27\n      jump\t// in\n    tag_26:\n      tag_28\n      jump\t// in\n    tag_25:\n      stop\n        /* \"cobraBot/Contract.sol\":943:991  mapping (address => User) public registeredUsers */\n    tag_4:\n      callvalue\n      dup1\n      iszero\n      tag_29\n      jumpi\n      0x00\n      dup1\n      revert\n    tag_29:\n      pop\n      tag_30\n      0x04\n      dup1\n      calldatasize\n      sub\n      dup2\n      add\n      swap1\n      tag_31\n      swap2\n      swap1\n      tag_32\n      jump\t// in\n    tag_31:\n      tag_33\n      jump\t// in\n    tag_30:\n      mload(0x40)\n      tag_34\n      swap4\n      swap3\n      swap2\n      swap1\n      tag_35\n      jump\t// in\n    tag_34:\n      mload(0x40)\n      dup1\n      swap2\n      sub\n      swap1\n      return\n        /* \"cobraBot/Contract.sol\":1347:1408  mapping (address => mapping (uint8 => bool)) public userGames */\n    tag_5:\n      callvalue\n      dup1\n      iszero\n      tag_36\n      jumpi\n      0x00\n      dup1\n      revert\n    tag_36:\n      pop\n      tag_37\n      0x04\n      dup1\n      calldatasize\n      sub\n      dup2\n      add\n      swap1\n      tag_38\n      swap2\n      swap1\n      tag_39\n      jump\t// in\n    tag_38:\n      tag_40\n      jump\t// in\n    tag_37:\n      mload(0x40)\n      tag_41\n      swap2\n      swap1\n      tag_42\n      jump\t// in\n    tag_41:\n      mload(0x40)\n      dup1\n      swap2\n      sub\n      swap1\n      return\n        /* \"cobraBot/Contract.sol\":4508:4725  function joinToGame(uint8 gameId) public payable onlyRegistered {\r... */\n    tag_6:\n      tag_43\n      0x04\n      dup1\n      calldatasize\n      sub\n      dup2\n      add\n      swap1\n      tag_44\n      swap2\n      swap1\n      tag_45\n      jump\t// in\n    tag_44:\n      tag_46\n      jump\t// in\n    tag_43:\n      stop\n        /* \"cobraBot/Contract.sol\":3549:3668  function getUserBalance(address userAddress) public view returns(uint256) {\r... */\n    tag_7:\n      callvalue\n      dup1\n      iszero\n      tag_47\n      jumpi\n      0x00\n      dup1\n      revert\n    tag_47:\n      pop\n      tag_48\n      0x04\n      dup1\n      calldatasize\n      sub\n      dup2\n      add\n      swap1\n      tag_49\n      swap2\n      swap1\n      tag_32\n      jump\t// in\n    tag_49:\n      tag_50\n      jump\t// in\n    tag_48:\n      mload(0x40)\n      tag_51\n      swap2\n      swap1\n      tag_52\n      jump\t// in\n    tag_51:\n      mload(0x40)\n      dup1\n      swap2\n      sub\n      swap1\n      return\n        /* \"cobraBot/Contract.sol\":1135:1192  mapping (uint8 => mapping (uint256 => User)) public pools */\n    tag_8:\n      callvalue\n      dup1\n      iszero\n      tag_53\n      jumpi\n      0x00\n      dup1\n      revert\n    tag_53:\n      pop\n      tag_54\n      0x04\n      dup1\n      calldatasize\n      sub\n      dup2\n      add\n      swap1\n      tag_55\n      swap2\n      swap1\n      tag_56\n      jump\t// in\n    tag_55:\n      tag_57\n      jump\t// in\n    tag_54:\n      mload(0x40)\n      tag_58\n      swap4\n      swap3\n      swap2\n      swap1\n      tag_35\n      jump\t// in\n    tag_58:\n      mload(0x40)\n      dup1\n      swap2\n      sub\n      swap1\n      return\n        /* \"cobraBot/Contract.sol\":3676:4055  function addGameLevel(uint256 circleCount, uint256 amountToPay) public onlyOwner {\r... */\n    tag_9:\n      callvalue\n      dup1\n      iszero\n      tag_59\n      jumpi\n      0x00\n      dup1\n      revert\n    tag_59:\n      pop\n      tag_60\n      0x04\n      dup1\n      calldatasize\n      sub\n      dup2\n      add\n      swap1\n      tag_61\n      swap2\n      swap1\n      tag_62\n      jump\t// in\n    tag_61:\n      tag_63\n      jump\t// in\n    tag_60:\n      stop\n        /* \"cobraBot/Contract.sol\":795:832  mapping (uint8 => Game) public levels */\n    tag_10:\n      callvalue\n      dup1\n      iszero\n      tag_64\n      jumpi\n      0x00\n      dup1\n      revert\n    tag_64:\n      pop\n      tag_65\n      0x04\n      dup1\n      calldatasize\n      sub\n      dup2\n      add\n      swap1\n      tag_66\n      swap2\n      swap1\n      tag_45\n      jump\t// in\n    tag_66:\n      tag_67\n      jump\t// in\n    tag_65:\n      mload(0x40)\n      tag_68\n      swap3\n      swap2\n      swap1\n      tag_69\n      jump\t// in\n    tag_68:\n      mload(0x40)\n      dup1\n      swap2\n      sub\n      swap1\n      return\n        /* \"cobraBot/Contract.sol\":3312:3541  function hasAccess(address userAdress) public view returns(bool) {\r... */\n    tag_11:\n      callvalue\n      dup1\n      iszero\n      tag_70\n      jumpi\n      0x00\n      dup1\n      revert\n    tag_70:\n      pop\n      tag_71\n      0x04\n      dup1\n      calldatasize\n      sub\n      dup2\n      add\n      swap1\n      tag_72\n      swap2\n      swap1\n      tag_32\n      jump\t// in\n    tag_72:\n      tag_73\n      jump\t// in\n    tag_71:\n      mload(0x40)\n      tag_74\n      swap2\n      swap1\n      tag_42\n      jump\t// in\n    tag_74:\n      mload(0x40)\n      dup1\n      swap2\n      sub\n      swap1\n      return\n        /* \"cobraBot/Contract.sol\":1046:1096  mapping (uint8 => uint256) public currentUserIndex */\n    tag_12:\n      callvalue\n      dup1\n      iszero\n      tag_75\n      jumpi\n      0x00\n      dup1\n      revert\n    tag_75:\n      pop\n      tag_76\n      0x04\n      dup1\n      calldatasize\n      sub\n      dup2\n      add\n      swap1\n      tag_77\n      swap2\n      swap1\n      tag_45\n      jump\t// in\n    tag_77:\n      tag_78\n      jump\t// in\n    tag_76:\n      mload(0x40)\n      tag_79\n      swap2\n      swap1\n      tag_52\n      jump\t// in\n    tag_79:\n      mload(0x40)\n      dup1\n      swap2\n      sub\n      swap1\n      return\n        /* \"cobraBot/Contract.sol\":150:181  uint8 public currentGameIdIndex */\n    tag_13:\n      callvalue\n      dup1\n      iszero\n      tag_80\n      jumpi\n      0x00\n      dup1\n      revert\n    tag_80:\n      pop\n      tag_81\n      tag_82\n      jump\t// in\n    tag_81:\n      mload(0x40)\n      tag_83\n      swap2\n      swap1\n      tag_84\n      jump\t// in\n    tag_83:\n      mload(0x40)\n      dup1\n      swap2\n      sub\n      swap1\n      return\n        /* \"cobraBot/Contract.sol\":856:899  mapping (uint256 => address) public usersId */\n    tag_14:\n      callvalue\n      dup1\n      iszero\n      tag_85\n      jumpi\n      0x00\n      dup1\n      revert\n    tag_85:\n      pop\n      tag_86\n      0x04\n      dup1\n      calldatasize\n      sub\n      dup2\n      add\n      swap1\n      tag_87\n      swap2\n      swap1\n      tag_27\n      jump\t// in\n    tag_87:\n      tag_88\n      jump\t// in\n    tag_86:\n      mload(0x40)\n      tag_89\n      swap2\n      swap1\n      tag_90\n      jump\t// in\n    tag_89:\n      mload(0x40)\n      dup1\n      swap2\n      sub\n      swap1\n      return\n        /* \"cobraBot/Contract.sol\":1234:1301  mapping (address => mapping (uint8 => uint256)) public userPayments */\n    tag_15:\n      callvalue\n      dup1\n      iszero\n      tag_91\n      jumpi\n      0x00\n      dup1\n      revert\n    tag_91:\n      pop\n      tag_92\n      0x04\n      dup1\n      calldatasize\n      sub\n      dup2\n      add\n      swap1\n      tag_93\n      swap2\n      swap1\n      tag_39\n      jump\t// in\n    tag_93:\n      tag_94\n      jump\t// in\n    tag_92:\n      mload(0x40)\n      tag_95\n      swap2\n      swap1\n      tag_52\n      jump\t// in\n    tag_95:\n      mload(0x40)\n      dup1\n      swap2\n      sub\n      swap1\n      return\n        /* \"cobraBot/Contract.sol\":2705:3304  function _fallback(address sender, uint256 value) internal {\r... */\n    tag_21:\n        /* \"cobraBot/Contract.sol\":2916:2928  bool success */\n      0x00\n        /* \"cobraBot/Contract.sol\":2939:2951  uint8 gameId */\n      dup1\n        /* \"cobraBot/Contract.sol\":2969:2980  uint8 index */\n      0x00\n        /* \"cobraBot/Contract.sol\":2964:3197  for (uint8 index; index < currentGameIdIndex+1; index++) {\r... */\n    tag_97:\n        /* \"cobraBot/Contract.sol\":3009:3010  1 */\n      0x01\n        /* \"cobraBot/Contract.sol\":2990:3008  currentGameIdIndex */\n      dup1\n      0x00\n      swap1\n      sload\n      swap1\n      0x0100\n      exp\n      swap1\n      div\n      0xff\n      and\n        /* \"cobraBot/Contract.sol\":2990:3010  currentGameIdIndex+1 */\n      tag_100\n      swap2\n      swap1\n      tag_101\n      jump\t// in\n    tag_100:\n        /* \"cobraBot/Contract.sol\":2982:3010  index < currentGameIdIndex+1 */\n      0xff\n      and\n        /* \"cobraBot/Contract.sol\":2982:2987  index */\n      dup2\n        /* \"cobraBot/Contract.sol\":2982:3010  index < currentGameIdIndex+1 */\n      0xff\n      and\n      lt\n        /* \"cobraBot/Contract.sol\":2964:3197  for (uint8 index; index < currentGameIdIndex+1; index++) {\r... */\n      iszero\n      tag_98\n      jumpi\n        /* \"cobraBot/Contract.sol\":3069:3078  msg.value */\n      callvalue\n        /* \"cobraBot/Contract.sol\":3040:3046  levels */\n      0x02\n        /* \"cobraBot/Contract.sol\":3040:3053  levels[index] */\n      0x00\n        /* \"cobraBot/Contract.sol\":3047:3052  index */\n      dup4\n        /* \"cobraBot/Contract.sol\":3040:3053  levels[index] */\n      0xff\n      and\n      0xff\n      and\n      dup2\n      mstore\n      0x20\n      add\n      swap1\n      dup2\n      mstore\n      0x20\n      add\n      0x00\n      keccak256\n        /* \"cobraBot/Contract.sol\":3040:3065  levels[index].amountToPay */\n      0x01\n      add\n      sload\n        /* \"cobraBot/Contract.sol\":3040:3078  levels[index].amountToPay == msg.value */\n      eq\n        /* \"cobraBot/Contract.sol\":3036:3186  if (levels[index].amountToPay == msg.value) {\r... */\n      iszero\n      tag_102\n      jumpi\n        /* \"cobraBot/Contract.sol\":3109:3113  true */\n      0x01\n        /* \"cobraBot/Contract.sol\":3099:3113  success = true */\n      swap3\n      pop\n        /* \"cobraBot/Contract.sol\":3141:3146  index */\n      dup1\n        /* \"cobraBot/Contract.sol\":3132:3146  gameId = index */\n      swap2\n      pop\n        /* \"cobraBot/Contract.sol\":3165:3170  break */\n      jump(tag_98)\n        /* \"cobraBot/Contract.sol\":3036:3186  if (levels[index].amountToPay == msg.value) {\r... */\n    tag_102:\n        /* \"cobraBot/Contract.sol\":3012:3019  index++ */\n      dup1\n      dup1\n      tag_103\n      swap1\n      tag_104\n      jump\t// in\n    tag_103:\n      swap2\n      pop\n      pop\n        /* \"cobraBot/Contract.sol\":2964:3197  for (uint8 index; index < currentGameIdIndex+1; index++) {\r... */\n      jump(tag_97)\n    tag_98:\n      pop\n        /* \"cobraBot/Contract.sol\":3225:3232  success */\n      dup2\n        /* \"cobraBot/Contract.sol\":3217:3251  require(success, \"Game not found\") */\n      tag_105\n      jumpi\n      mload(0x40)\n      0x08c379a000000000000000000000000000000000000000000000000000000000\n      dup2\n      mstore\n      0x04\n      add\n      tag_106\n      swap1\n      tag_107\n      jump\t// in\n    tag_106:\n      mload(0x40)\n      dup1\n      swap2\n      sub\n      swap1\n      revert\n    tag_105:\n        /* \"cobraBot/Contract.sol\":3262:3296  _joinToGame(gameId, sender, value) */\n      tag_108\n        /* \"cobraBot/Contract.sol\":3274:3280  gameId */\n      dup2\n        /* \"cobraBot/Contract.sol\":3282:3288  sender */\n      dup6\n        /* \"cobraBot/Contract.sol\":3290:3295  value */\n      dup6\n        /* \"cobraBot/Contract.sol\":3262:3273  _joinToGame */\n      tag_109\n        /* \"cobraBot/Contract.sol\":3262:3296  _joinToGame(gameId, sender, value) */\n      jump\t// in\n    tag_108:\n        /* \"cobraBot/Contract.sol\":2764:3304  {\r... */\n      pop\n      pop\n        /* \"cobraBot/Contract.sol\":2705:3304  function _fallback(address sender, uint256 value) internal {\r... */\n      pop\n      pop\n      jump\t// out\n        /* \"cobraBot/Contract.sol\":4063:4500  function registerUserToGame(uint256 inviterId) external payable noContractAccess {\r... */\n    tag_28:\n        /* \"cobraBot/Contract.sol\":1954:1965  uint32 size */\n      0x00\n        /* \"cobraBot/Contract.sol\":1976:1990  address sender */\n      dup1\n        /* \"cobraBot/Contract.sol\":1993:2003  msg.sender */\n      caller\n        /* \"cobraBot/Contract.sol\":1976:2003  address sender = msg.sender */\n      swap1\n      pop\n        /* \"cobraBot/Contract.sol\":2045:2051  sender */\n      dup1\n        /* \"cobraBot/Contract.sol\":2033:2052  extcodesize(sender) */\n      extcodesize\n        /* \"cobraBot/Contract.sol\":2025:2052  size := extcodesize(sender) */\n      swap2\n      pop\n        /* \"cobraBot/Contract.sol\":2083:2084  0 */\n      0x00\n        /* \"cobraBot/Contract.sol\":2076:2080  size */\n      dup3\n        /* \"cobraBot/Contract.sol\":2076:2084  size > 0 */\n      0xffffffff\n      and\n      gt\n        /* \"cobraBot/Contract.sol\":2074:2085  !(size > 0) */\n      iszero\n        /* \"cobraBot/Contract.sol\":2066:2102  require(!(size > 0), \"No contracts\") */\n      tag_111\n      jumpi\n      mload(0x40)\n      0x08c379a000000000000000000000000000000000000000000000000000000000\n      dup2\n      mstore\n      0x04\n      add\n      tag_112\n      swap1\n      tag_113\n      jump\t// in\n    tag_112:\n      mload(0x40)\n      dup1\n      swap2\n      sub\n      swap1\n      revert\n    tag_111:\n        /* \"cobraBot/Contract.sol\":4256:4263  1 ether */\n      0x0de0b6b3a7640000\n        /* \"cobraBot/Contract.sol\":4243:4252  msg.value */\n      callvalue\n        /* \"cobraBot/Contract.sol\":4243:4263  msg.value == 1 ether */\n      eq\n        /* \"cobraBot/Contract.sol\":4234:4308  require (msg.value == 1 ether, \"For regiter in game you need pay 1 ether\") */\n      tag_115\n      jumpi\n      mload(0x40)\n      0x08c379a000000000000000000000000000000000000000000000000000000000\n      dup2\n      mstore\n      0x04\n      add\n      tag_116\n      swap1\n      tag_117\n      jump\t// in\n    tag_116:\n      mload(0x40)\n      dup1\n      swap2\n      sub\n      swap1\n      revert\n    tag_115:\n        /* \"cobraBot/Contract.sol\":4351:4407  User(currentUserIdIndex, payable(msg.sender), inviterId) */\n      mload(0x40)\n      dup1\n      0x60\n      add\n      0x40\n      mstore\n      dup1\n        /* \"cobraBot/Contract.sol\":4356:4374  currentUserIdIndex */\n      sload(0x00)\n        /* \"cobraBot/Contract.sol\":4351:4407  User(currentUserIdIndex, payable(msg.sender), inviterId) */\n      dup2\n      mstore\n      0x20\n      add\n        /* \"cobraBot/Contract.sol\":4384:4394  msg.sender */\n      caller\n        /* \"cobraBot/Contract.sol\":4351:4407  User(currentUserIdIndex, payable(msg.sender), inviterId) */\n      0xffffffffffffffffffffffffffffffffffffffff\n      and\n      dup2\n      mstore\n      0x20\n      add\n        /* \"cobraBot/Contract.sol\":4397:4406  inviterId */\n      dup5\n        /* \"cobraBot/Contract.sol\":4351:4407  User(currentUserIdIndex, payable(msg.sender), inviterId) */\n      dup2\n      mstore\n      pop\n        /* \"cobraBot/Contract.sol\":4321:4336  registeredUsers */\n      0x04\n        /* \"cobraBot/Contract.sol\":4321:4348  registeredUsers[msg.sender] */\n      0x00\n        /* \"cobraBot/Contract.sol\":4337:4347  msg.sender */\n      caller\n        /* \"cobraBot/Contract.sol\":4321:4348  registeredUsers[msg.sender] */\n      0xffffffffffffffffffffffffffffffffffffffff\n      and\n      0xffffffffffffffffffffffffffffffffffffffff\n      and\n      dup2\n      mstore\n      0x20\n      add\n      swap1\n      dup2\n      mstore\n      0x20\n      add\n      0x00\n      keccak256\n        /* \"cobraBot/Contract.sol\":4321:4407  registeredUsers[msg.sender] = User(currentUserIdIndex, payable(msg.sender), inviterId) */\n      0x00\n      dup3\n      add\n      mload\n      dup2\n      0x00\n      add\n      sstore\n      0x20\n      dup3\n      add\n      mload\n      dup2\n      0x01\n      add\n      exp(0x0100, 0x00)\n      dup2\n      sload\n      dup2\n      0xffffffffffffffffffffffffffffffffffffffff\n      mul\n      not\n      and\n      swap1\n      dup4\n      0xffffffffffffffffffffffffffffffffffffffff\n      and\n      mul\n      or\n      swap1\n      sstore\n      pop\n      0x40\n      dup3\n      add\n      mload\n      dup2\n      0x02\n      add\n      sstore\n      swap1\n      pop\n      pop\n        /* \"cobraBot/Contract.sol\":4448:4458  msg.sender */\n      caller\n        /* \"cobraBot/Contract.sol\":4418:4425  usersId */\n      0x03\n        /* \"cobraBot/Contract.sol\":4418:4445  usersId[currentUserIdIndex] */\n      0x00\n        /* \"cobraBot/Contract.sol\":4426:4444  currentUserIdIndex */\n      dup1\n      sload\n        /* \"cobraBot/Contract.sol\":4418:4445  usersId[currentUserIdIndex] */\n      dup2\n      mstore\n      0x20\n      add\n      swap1\n      dup2\n      mstore\n      0x20\n      add\n      0x00\n      keccak256\n      0x00\n        /* \"cobraBot/Contract.sol\":4418:4458  usersId[currentUserIdIndex] = msg.sender */\n      0x0100\n      exp\n      dup2\n      sload\n      dup2\n      0xffffffffffffffffffffffffffffffffffffffff\n      mul\n      not\n      and\n      swap1\n      dup4\n      0xffffffffffffffffffffffffffffffffffffffff\n      and\n      mul\n      or\n      swap1\n      sstore\n      pop\n        /* \"cobraBot/Contract.sol\":4491:4492  1 */\n      0x01\n        /* \"cobraBot/Contract.sol\":4469:4487  currentUserIdIndex */\n      0x00\n      dup1\n        /* \"cobraBot/Contract.sol\":4469:4492  currentUserIdIndex += 1 */\n      dup3\n      dup3\n      sload\n      tag_118\n      swap2\n      swap1\n      tag_119\n      jump\t// in\n    tag_118:\n      swap3\n      pop\n      pop\n      dup2\n      swap1\n      sstore\n      pop\n        /* \"cobraBot/Contract.sol\":1907:2122  {\r... */\n      pop\n      pop\n        /* \"cobraBot/Contract.sol\":4063:4500  function registerUserToGame(uint256 inviterId) external payable noContractAccess {\r... */\n      pop\n      jump\t// out\n        /* \"cobraBot/Contract.sol\":943:991  mapping (address => User) public registeredUsers */\n    tag_33:\n      mstore(0x20, 0x04)\n      dup1\n      0x00\n      mstore\n      keccak256(0x00, 0x40)\n      0x00\n      swap2\n      pop\n      swap1\n      pop\n      dup1\n      0x00\n      add\n      sload\n      swap1\n      dup1\n      0x01\n      add\n      0x00\n      swap1\n      sload\n      swap1\n      0x0100\n      exp\n      swap1\n      div\n      0xffffffffffffffffffffffffffffffffffffffff\n      and\n      swap1\n      dup1\n      0x02\n      add\n      sload\n      swap1\n      pop\n      dup4\n      jump\t// out\n        /* \"cobraBot/Contract.sol\":1347:1408  mapping (address => mapping (uint8 => bool)) public userGames */\n    tag_40:\n      mstore(0x20, 0x08)\n      dup2\n      0x00\n      mstore\n      mstore(0x20, keccak256(0x00, 0x40))\n      dup1\n      0x00\n      mstore\n      keccak256(0x00, 0x40)\n      0x00\n      swap2\n      pop\n      swap2\n      pop\n      swap1\n      sload\n      swap1\n      0x0100\n      exp\n      swap1\n      div\n      0xff\n      and\n      dup2\n      jump\t// out\n        /* \"cobraBot/Contract.sol\":4508:4725  function joinToGame(uint8 gameId) public payable onlyRegistered {\r... */\n    tag_46:\n        /* \"cobraBot/Contract.sol\":1850:1851  0 */\n      0x00\n        /* \"cobraBot/Contract.sol\":1799:1852  registeredUsers[msg.sender].userAddress != address(0) */\n      0xffffffffffffffffffffffffffffffffffffffff\n      and\n        /* \"cobraBot/Contract.sol\":1799:1814  registeredUsers */\n      0x04\n        /* \"cobraBot/Contract.sol\":1799:1826  registeredUsers[msg.sender] */\n      0x00\n        /* \"cobraBot/Contract.sol\":1815:1825  msg.sender */\n      caller\n        /* \"cobraBot/Contract.sol\":1799:1826  registeredUsers[msg.sender] */\n      0xffffffffffffffffffffffffffffffffffffffff\n      and\n      0xffffffffffffffffffffffffffffffffffffffff\n      and\n      dup2\n      mstore\n      0x20\n      add\n      swap1\n      dup2\n      mstore\n      0x20\n      add\n      0x00\n      keccak256\n        /* \"cobraBot/Contract.sol\":1799:1838  registeredUsers[msg.sender].userAddress */\n      0x01\n      add\n      0x00\n      swap1\n      sload\n      swap1\n      0x0100\n      exp\n      swap1\n      div\n      0xffffffffffffffffffffffffffffffffffffffff\n      and\n        /* \"cobraBot/Contract.sol\":1799:1852  registeredUsers[msg.sender].userAddress != address(0) */\n      0xffffffffffffffffffffffffffffffffffffffff\n      and\n      eq\n      iszero\n        /* \"cobraBot/Contract.sol\":1791:1853  require(registeredUsers[msg.sender].userAddress != address(0)) */\n      tag_121\n      jumpi\n      0x00\n      dup1\n      revert\n    tag_121:\n        /* \"cobraBot/Contract.sol\":4675:4717  _joinToGame(gameId, msg.sender, msg.value) */\n      tag_123\n        /* \"cobraBot/Contract.sol\":4687:4693  gameId */\n      dup2\n        /* \"cobraBot/Contract.sol\":4695:4705  msg.sender */\n      caller\n        /* \"cobraBot/Contract.sol\":4707:4716  msg.value */\n      callvalue\n        /* \"cobraBot/Contract.sol\":4675:4686  _joinToGame */\n      tag_109\n        /* \"cobraBot/Contract.sol\":4675:4717  _joinToGame(gameId, msg.sender, msg.value) */\n      jump\t// in\n    tag_123:\n        /* \"cobraBot/Contract.sol\":4508:4725  function joinToGame(uint8 gameId) public payable onlyRegistered {\r... */\n      pop\n      jump\t// out\n        /* \"cobraBot/Contract.sol\":3549:3668  function getUserBalance(address userAddress) public view returns(uint256) {\r... */\n    tag_50:\n        /* \"cobraBot/Contract.sol\":3614:3621  uint256 */\n      0x00\n        /* \"cobraBot/Contract.sol\":3641:3652  userAddress */\n      dup2\n        /* \"cobraBot/Contract.sol\":3641:3660  userAddress.balance */\n      0xffffffffffffffffffffffffffffffffffffffff\n      and\n      balance\n        /* \"cobraBot/Contract.sol\":3634:3660  return userAddress.balance */\n      swap1\n      pop\n        /* \"cobraBot/Contract.sol\":3549:3668  function getUserBalance(address userAddress) public view returns(uint256) {\r... */\n      swap2\n      swap1\n      pop\n      jump\t// out\n        /* \"cobraBot/Contract.sol\":1135:1192  mapping (uint8 => mapping (uint256 => User)) public pools */\n    tag_57:\n      mstore(0x20, 0x06)\n      dup2\n      0x00\n      mstore\n      mstore(0x20, keccak256(0x00, 0x40))\n      dup1\n      0x00\n      mstore\n      keccak256(0x00, 0x40)\n      0x00\n      swap2\n      pop\n      swap2\n      pop\n      pop\n      dup1\n      0x00\n      add\n      sload\n      swap1\n      dup1\n      0x01\n      add\n      0x00\n      swap1\n      sload\n      swap1\n      0x0100\n      exp\n      swap1\n      div\n      0xffffffffffffffffffffffffffffffffffffffff\n      and\n      swap1\n      dup1\n      0x02\n      add\n      sload\n      swap1\n      pop\n      dup4\n      jump\t// out\n        /* \"cobraBot/Contract.sol\":3676:4055  function addGameLevel(uint256 circleCount, uint256 amountToPay) public onlyOwner {\r... */\n    tag_63:\n        /* \"cobraBot/Contract.sol\":2197:2218  hasAccess(msg.sender) */\n      tag_126\n        /* \"cobraBot/Contract.sol\":2207:2217  msg.sender */\n      caller\n        /* \"cobraBot/Contract.sol\":2197:2206  hasAccess */\n      tag_73\n        /* \"cobraBot/Contract.sol\":2197:2218  hasAccess(msg.sender) */\n      jump\t// in\n    tag_126:\n        /* \"cobraBot/Contract.sol\":2189:2219  require(hasAccess(msg.sender)) */\n      tag_127\n      jumpi\n      0x00\n      dup1\n      revert\n    tag_127:\n        /* \"cobraBot/Contract.sol\":3902:3962  Game({ circleCount: circleCount, amountToPay: amountToPay }) */\n      mload(0x40)\n      dup1\n      0x40\n      add\n      0x40\n      mstore\n      dup1\n        /* \"cobraBot/Contract.sol\":3922:3933  circleCount */\n      dup4\n        /* \"cobraBot/Contract.sol\":3902:3962  Game({ circleCount: circleCount, amountToPay: amountToPay }) */\n      dup2\n      mstore\n      0x20\n      add\n        /* \"cobraBot/Contract.sol\":3948:3959  amountToPay */\n      dup3\n        /* \"cobraBot/Contract.sol\":3902:3962  Game({ circleCount: circleCount, amountToPay: amountToPay }) */\n      dup2\n      mstore\n      pop\n        /* \"cobraBot/Contract.sol\":3873:3879  levels */\n      0x02\n        /* \"cobraBot/Contract.sol\":3873:3899  levels[currentGameIdIndex] */\n      0x00\n        /* \"cobraBot/Contract.sol\":3880:3898  currentGameIdIndex */\n      0x01\n      0x00\n      swap1\n      sload\n      swap1\n      0x0100\n      exp\n      swap1\n      div\n      0xff\n      and\n        /* \"cobraBot/Contract.sol\":3873:3899  levels[currentGameIdIndex] */\n      0xff\n      and\n      0xff\n      and\n      dup2\n      mstore\n      0x20\n      add\n      swap1\n      dup2\n      mstore\n      0x20\n      add\n      0x00\n      keccak256\n        /* \"cobraBot/Contract.sol\":3873:3962  levels[currentGameIdIndex] = Game({ circleCount: circleCount, amountToPay: amountToPay }) */\n      0x00\n      dup3\n      add\n      mload\n      dup2\n      0x00\n      add\n      sstore\n      0x20\n      dup3\n      add\n      mload\n      dup2\n      0x01\n      add\n      sstore\n      swap1\n      pop\n      pop\n        /* \"cobraBot/Contract.sol\":3978:4013  NewGame(levels[currentGameIdIndex]) */\n      0x954900f0fb49268c265d1bafbfbf6c060c8b41cdb6b0bcaa575389d650b5e374\n        /* \"cobraBot/Contract.sol\":3986:3992  levels */\n      0x02\n        /* \"cobraBot/Contract.sol\":3986:4012  levels[currentGameIdIndex] */\n      0x00\n        /* \"cobraBot/Contract.sol\":3993:4011  currentGameIdIndex */\n      0x01\n      0x00\n      swap1\n      sload\n      swap1\n      0x0100\n      exp\n      swap1\n      div\n      0xff\n      and\n        /* \"cobraBot/Contract.sol\":3986:4012  levels[currentGameIdIndex] */\n      0xff\n      and\n      0xff\n      and\n      dup2\n      mstore\n      0x20\n      add\n      swap1\n      dup2\n      mstore\n      0x20\n      add\n      0x00\n      keccak256\n        /* \"cobraBot/Contract.sol\":3978:4013  NewGame(levels[currentGameIdIndex]) */\n      mload(0x40)\n      tag_129\n      swap2\n      swap1\n      tag_130\n      jump\t// in\n    tag_129:\n      mload(0x40)\n      dup1\n      swap2\n      sub\n      swap1\n      log1\n        /* \"cobraBot/Contract.sol\":4046:4047  1 */\n      0x01\n        /* \"cobraBot/Contract.sol\":4024:4042  currentGameIdIndex */\n      dup1\n      0x00\n        /* \"cobraBot/Contract.sol\":4024:4047  currentGameIdIndex += 1 */\n      dup3\n      dup3\n      dup3\n      swap1\n      sload\n      swap1\n      0x0100\n      exp\n      swap1\n      div\n      0xff\n      and\n      tag_131\n      swap2\n      swap1\n      tag_101\n      jump\t// in\n    tag_131:\n      swap3\n      pop\n      0x0100\n      exp\n      dup2\n      sload\n      dup2\n      0xff\n      mul\n      not\n      and\n      swap1\n      dup4\n      0xff\n      and\n      mul\n      or\n      swap1\n      sstore\n      pop\n        /* \"cobraBot/Contract.sol\":3676:4055  function addGameLevel(uint256 circleCount, uint256 amountToPay) public onlyOwner {\r... */\n      pop\n      pop\n      jump\t// out\n        /* \"cobraBot/Contract.sol\":795:832  mapping (uint8 => Game) public levels */\n    tag_67:\n      mstore(0x20, 0x02)\n      dup1\n      0x00\n      mstore\n      keccak256(0x00, 0x40)\n      0x00\n      swap2\n      pop\n      swap1\n      pop\n      dup1\n      0x00\n      add\n      sload\n      swap1\n      dup1\n      0x01\n      add\n      sload\n      swap1\n      pop\n      dup3\n      jump\t// out\n        /* \"cobraBot/Contract.sol\":3312:3541  function hasAccess(address userAdress) public view returns(bool) {\r... */\n    tag_73:\n        /* \"cobraBot/Contract.sol\":3371:3375  bool */\n      0x00\n        /* \"cobraBot/Contract.sol\":3520:3533  contractOwner */\n      0x01\n      dup1\n      sload\n      swap1\n      0x0100\n      exp\n      swap1\n      div\n      0xffffffffffffffffffffffffffffffffffffffff\n      and\n        /* \"cobraBot/Contract.sol\":3506:3533  userAdress == contractOwner */\n      0xffffffffffffffffffffffffffffffffffffffff\n      and\n        /* \"cobraBot/Contract.sol\":3506:3516  userAdress */\n      dup3\n        /* \"cobraBot/Contract.sol\":3506:3533  userAdress == contractOwner */\n      0xffffffffffffffffffffffffffffffffffffffff\n      and\n      eq\n        /* \"cobraBot/Contract.sol\":3499:3533  return userAdress == contractOwner */\n      swap1\n      pop\n        /* \"cobraBot/Contract.sol\":3312:3541  function hasAccess(address userAdress) public view returns(bool) {\r... */\n      swap2\n      swap1\n      pop\n      jump\t// out\n        /* \"cobraBot/Contract.sol\":1046:1096  mapping (uint8 => uint256) public currentUserIndex */\n    tag_78:\n      mstore(0x20, 0x05)\n      dup1\n      0x00\n      mstore\n      keccak256(0x00, 0x40)\n      0x00\n      swap2\n      pop\n      swap1\n      pop\n      sload\n      dup2\n      jump\t// out\n        /* \"cobraBot/Contract.sol\":150:181  uint8 public currentGameIdIndex */\n    tag_82:\n      0x01\n      0x00\n      swap1\n      sload\n      swap1\n      0x0100\n      exp\n      swap1\n      div\n      0xff\n      and\n      dup2\n      jump\t// out\n        /* \"cobraBot/Contract.sol\":856:899  mapping (uint256 => address) public usersId */\n    tag_88:\n      mstore(0x20, 0x03)\n      dup1\n      0x00\n      mstore\n      keccak256(0x00, 0x40)\n      0x00\n      swap2\n      pop\n      sload\n      swap1\n      0x0100\n      exp\n      swap1\n      div\n      0xffffffffffffffffffffffffffffffffffffffff\n      and\n      dup2\n      jump\t// out\n        /* \"cobraBot/Contract.sol\":1234:1301  mapping (address => mapping (uint8 => uint256)) public userPayments */\n    tag_94:\n      mstore(0x20, 0x07)\n      dup2\n      0x00\n      mstore\n      mstore(0x20, keccak256(0x00, 0x40))\n      dup1\n      0x00\n      mstore\n      keccak256(0x00, 0x40)\n      0x00\n      swap2\n      pop\n      swap2\n      pop\n      pop\n      sload\n      dup2\n      jump\t// out\n        /* \"cobraBot/Contract.sol\":4733:8203  function _joinToGame(uint8 gameId, address sender, uint256 value) internal {\r... */\n    tag_109:\n        /* \"cobraBot/Contract.sol\":4837:4843  levels */\n      0x02\n        /* \"cobraBot/Contract.sol\":4837:4851  levels[gameId] */\n      0x00\n        /* \"cobraBot/Contract.sol\":4844:4850  gameId */\n      dup5\n        /* \"cobraBot/Contract.sol\":4837:4851  levels[gameId] */\n      0xff\n      and\n      0xff\n      and\n      dup2\n      mstore\n      0x20\n      add\n      swap1\n      dup2\n      mstore\n      0x20\n      add\n      0x00\n      keccak256\n        /* \"cobraBot/Contract.sol\":4837:4863  levels[gameId].amountToPay */\n      0x01\n      add\n      sload\n        /* \"cobraBot/Contract.sol\":4828:4833  value */\n      dup2\n        /* \"cobraBot/Contract.sol\":4828:4863  value >= levels[gameId].amountToPay */\n      lt\n      iszero\n        /* \"cobraBot/Contract.sol\":4819:4903  require (value >= levels[gameId].amountToPay, \"Insufficient amount of contribution\") */\n      tag_134\n      jumpi\n      mload(0x40)\n      0x08c379a000000000000000000000000000000000000000000000000000000000\n      dup2\n      mstore\n      0x04\n      add\n      tag_135\n      swap1\n      tag_136\n      jump\t// in\n    tag_135:\n      mload(0x40)\n      dup1\n      swap2\n      sub\n      swap1\n      revert\n    tag_134:\n        /* \"cobraBot/Contract.sol\":5080:5095  registeredUsers */\n      0x04\n        /* \"cobraBot/Contract.sol\":5080:5103  registeredUsers[sender] */\n      0x00\n        /* \"cobraBot/Contract.sol\":5096:5102  sender */\n      dup4\n        /* \"cobraBot/Contract.sol\":5080:5103  registeredUsers[sender] */\n      0xffffffffffffffffffffffffffffffffffffffff\n      and\n      0xffffffffffffffffffffffffffffffffffffffff\n      and\n      dup2\n      mstore\n      0x20\n      add\n      swap1\n      dup2\n      mstore\n      0x20\n      add\n      0x00\n      keccak256\n        /* \"cobraBot/Contract.sol\":5038:5043  pools */\n      0x06\n        /* \"cobraBot/Contract.sol\":5038:5051  pools[gameId] */\n      0x00\n        /* \"cobraBot/Contract.sol\":5044:5050  gameId */\n      dup6\n        /* \"cobraBot/Contract.sol\":5038:5051  pools[gameId] */\n      0xff\n      and\n      0xff\n      and\n      dup2\n      mstore\n      0x20\n      add\n      swap1\n      dup2\n      mstore\n      0x20\n      add\n      0x00\n      keccak256\n        /* \"cobraBot/Contract.sol\":5038:5077  pools[gameId][currentUserIndex[gameId]] */\n      0x00\n        /* \"cobraBot/Contract.sol\":5052:5068  currentUserIndex */\n      0x05\n        /* \"cobraBot/Contract.sol\":5052:5076  currentUserIndex[gameId] */\n      0x00\n        /* \"cobraBot/Contract.sol\":5069:5075  gameId */\n      dup8\n        /* \"cobraBot/Contract.sol\":5052:5076  currentUserIndex[gameId] */\n      0xff\n      and\n      0xff\n      and\n      dup2\n      mstore\n      0x20\n      add\n      swap1\n      dup2\n      mstore\n      0x20\n      add\n      0x00\n      keccak256\n      sload\n        /* \"cobraBot/Contract.sol\":5038:5077  pools[gameId][currentUserIndex[gameId]] */\n      dup2\n      mstore\n      0x20\n      add\n      swap1\n      dup2\n      mstore\n      0x20\n      add\n      0x00\n      keccak256\n        /* \"cobraBot/Contract.sol\":5038:5103  pools[gameId][currentUserIndex[gameId]] = registeredUsers[sender] */\n      0x00\n      dup3\n      add\n      sload\n      dup2\n      0x00\n      add\n      sstore\n      0x01\n      dup3\n      add\n      0x00\n      swap1\n      sload\n      swap1\n      0x0100\n      exp\n      swap1\n      div\n      0xffffffffffffffffffffffffffffffffffffffff\n      and\n      dup2\n      0x01\n      add\n      exp(0x0100, 0x00)\n      dup2\n      sload\n      dup2\n      0xffffffffffffffffffffffffffffffffffffffff\n      mul\n      not\n      and\n      swap1\n      dup4\n      0xffffffffffffffffffffffffffffffffffffffff\n      and\n      mul\n      or\n      swap1\n      sstore\n      pop\n      0x02\n      dup3\n      add\n      sload\n      dup2\n      0x02\n      add\n      sstore\n      swap1\n      pop\n      pop\n        /* \"cobraBot/Contract.sol\":5142:5143  1 */\n      0x01\n        /* \"cobraBot/Contract.sol\":5114:5130  currentUserIndex */\n      0x05\n        /* \"cobraBot/Contract.sol\":5114:5138  currentUserIndex[gameId] */\n      0x00\n        /* \"cobraBot/Contract.sol\":5131:5137  gameId */\n      dup6\n        /* \"cobraBot/Contract.sol\":5114:5138  currentUserIndex[gameId] */\n      0xff\n      and\n      0xff\n      and\n      dup2\n      mstore\n      0x20\n      add\n      swap1\n      dup2\n      mstore\n      0x20\n      add\n      0x00\n      keccak256\n      0x00\n        /* \"cobraBot/Contract.sol\":5114:5143  currentUserIndex[gameId] += 1 */\n      dup3\n      dup3\n      sload\n      tag_137\n      swap2\n      swap1\n      tag_119\n      jump\t// in\n    tag_137:\n      swap3\n      pop\n      pop\n      dup2\n      swap1\n      sstore\n      pop\n        /* \"cobraBot/Contract.sol\":5182:5186  true */\n      0x01\n        /* \"cobraBot/Contract.sol\":5154:5163  userGames */\n      0x08\n        /* \"cobraBot/Contract.sol\":5154:5171  userGames[sender] */\n      0x00\n        /* \"cobraBot/Contract.sol\":5164:5170  sender */\n      dup5\n        /* \"cobraBot/Contract.sol\":5154:5171  userGames[sender] */\n      0xffffffffffffffffffffffffffffffffffffffff\n      and\n      0xffffffffffffffffffffffffffffffffffffffff\n      and\n      dup2\n      mstore\n      0x20\n      add\n      swap1\n      dup2\n      mstore\n      0x20\n      add\n      0x00\n      keccak256\n        /* \"cobraBot/Contract.sol\":5154:5179  userGames[sender][gameId] */\n      0x00\n        /* \"cobraBot/Contract.sol\":5172:5178  gameId */\n      dup6\n        /* \"cobraBot/Contract.sol\":5154:5179  userGames[sender][gameId] */\n      0xff\n      and\n      0xff\n      and\n      dup2\n      mstore\n      0x20\n      add\n      swap1\n      dup2\n      mstore\n      0x20\n      add\n      0x00\n      keccak256\n      0x00\n        /* \"cobraBot/Contract.sol\":5154:5186  userGames[sender][gameId] = true */\n      0x0100\n      exp\n      dup2\n      sload\n      dup2\n      0xff\n      mul\n      not\n      and\n      swap1\n      dup4\n      iszero\n      iszero\n      mul\n      or\n      swap1\n      sstore\n      pop\n        /* \"cobraBot/Contract.sol\":5332:5333  3 */\n      0x03\n        /* \"cobraBot/Contract.sol\":5327:5328  1 */\n      0x01\n        /* \"cobraBot/Contract.sol\":5302:5318  currentUserIndex */\n      0x05\n        /* \"cobraBot/Contract.sol\":5302:5326  currentUserIndex[gameId] */\n      0x00\n        /* \"cobraBot/Contract.sol\":5319:5325  gameId */\n      dup7\n        /* \"cobraBot/Contract.sol\":5302:5326  currentUserIndex[gameId] */\n      0xff\n      and\n      0xff\n      and\n      dup2\n      mstore\n      0x20\n      add\n      swap1\n      dup2\n      mstore\n      0x20\n      add\n      0x00\n      keccak256\n      sload\n        /* \"cobraBot/Contract.sol\":5302:5328  currentUserIndex[gameId]-1 */\n      tag_138\n      swap2\n      swap1\n      tag_139\n      jump\t// in\n    tag_138:\n        /* \"cobraBot/Contract.sol\":5302:5333  currentUserIndex[gameId]-1 >= 3 */\n      lt\n        /* \"cobraBot/Contract.sol\":5298:8196  if (currentUserIndex[gameId]-1 >= 3) {\r... */\n      tag_140\n      jumpi\n        /* \"cobraBot/Contract.sol\":5350:5367  uint256 userIndex */\n      0x00\n        /* \"cobraBot/Contract.sol\":5401:5402  2 */\n      0x02\n        /* \"cobraBot/Contract.sol\":5396:5397  1 */\n      0x01\n        /* \"cobraBot/Contract.sol\":5371:5387  currentUserIndex */\n      0x05\n        /* \"cobraBot/Contract.sol\":5371:5395  currentUserIndex[gameId] */\n      0x00\n        /* \"cobraBot/Contract.sol\":5388:5394  gameId */\n      dup8\n        /* \"cobraBot/Contract.sol\":5371:5395  currentUserIndex[gameId] */\n      0xff\n      and\n      0xff\n      and\n      dup2\n      mstore\n      0x20\n      add\n      swap1\n      dup2\n      mstore\n      0x20\n      add\n      0x00\n      keccak256\n      sload\n        /* \"cobraBot/Contract.sol\":5371:5397  currentUserIndex[gameId]-1 */\n      tag_141\n      swap2\n      swap1\n      tag_139\n      jump\t// in\n    tag_141:\n        /* \"cobraBot/Contract.sol\":5370:5402  (currentUserIndex[gameId]-1) / 2 */\n      tag_142\n      swap2\n      swap1\n      tag_143\n      jump\t// in\n    tag_142:\n        /* \"cobraBot/Contract.sol\":5350:5402  uint256 userIndex = (currentUserIndex[gameId]-1) / 2 */\n      swap1\n      pop\n        /* \"cobraBot/Contract.sol\":5419:8185  do {\r... */\n    tag_144:\n        /* \"cobraBot/Contract.sol\":5441:5464  address selectedAddress */\n      0x00\n        /* \"cobraBot/Contract.sol\":5467:5472  pools */\n      0x06\n        /* \"cobraBot/Contract.sol\":5467:5480  pools[gameId] */\n      0x00\n        /* \"cobraBot/Contract.sol\":5473:5479  gameId */\n      dup7\n        /* \"cobraBot/Contract.sol\":5467:5480  pools[gameId] */\n      0xff\n      and\n      0xff\n      and\n      dup2\n      mstore\n      0x20\n      add\n      swap1\n      dup2\n      mstore\n      0x20\n      add\n      0x00\n      keccak256\n        /* \"cobraBot/Contract.sol\":5467:5491  pools[gameId][userIndex] */\n      0x00\n        /* \"cobraBot/Contract.sol\":5481:5490  userIndex */\n      dup4\n        /* \"cobraBot/Contract.sol\":5467:5491  pools[gameId][userIndex] */\n      dup2\n      mstore\n      0x20\n      add\n      swap1\n      dup2\n      mstore\n      0x20\n      add\n      0x00\n      keccak256\n        /* \"cobraBot/Contract.sol\":5467:5503  pools[gameId][userIndex].userAddress */\n      0x01\n      add\n      0x00\n      swap1\n      sload\n      swap1\n      0x0100\n      exp\n      swap1\n      div\n      0xffffffffffffffffffffffffffffffffffffffff\n      and\n        /* \"cobraBot/Contract.sol\":5441:5503  address selectedAddress = pools[gameId][userIndex].userAddress */\n      swap1\n      pop\n        /* \"cobraBot/Contract.sol\":5709:5710  1 */\n      0x01\n        /* \"cobraBot/Contract.sol\":5668:5680  userPayments */\n      0x07\n        /* \"cobraBot/Contract.sol\":5668:5697  userPayments[selectedAddress] */\n      0x00\n        /* \"cobraBot/Contract.sol\":5681:5696  selectedAddress */\n      dup4\n        /* \"cobraBot/Contract.sol\":5668:5697  userPayments[selectedAddress] */\n      0xffffffffffffffffffffffffffffffffffffffff\n      and\n      0xffffffffffffffffffffffffffffffffffffffff\n      and\n      dup2\n      mstore\n      0x20\n      add\n      swap1\n      dup2\n      mstore\n      0x20\n      add\n      0x00\n      keccak256\n        /* \"cobraBot/Contract.sol\":5668:5705  userPayments[selectedAddress][gameId] */\n      0x00\n        /* \"cobraBot/Contract.sol\":5698:5704  gameId */\n      dup8\n        /* \"cobraBot/Contract.sol\":5668:5705  userPayments[selectedAddress][gameId] */\n      0xff\n      and\n      0xff\n      and\n      dup2\n      mstore\n      0x20\n      add\n      swap1\n      dup2\n      mstore\n      0x20\n      add\n      0x00\n      keccak256\n      sload\n        /* \"cobraBot/Contract.sol\":5668:5710  userPayments[selectedAddress][gameId] <= 1 */\n      gt\n      iszero\n        /* \"cobraBot/Contract.sol\":5668:5750  userPayments[selectedAddress][gameId] <= 1 || userGames[selectedAddress][gameId+1] */\n      dup1\n      tag_147\n      jumpi\n      pop\n        /* \"cobraBot/Contract.sol\":5714:5723  userGames */\n      0x08\n        /* \"cobraBot/Contract.sol\":5714:5740  userGames[selectedAddress] */\n      0x00\n        /* \"cobraBot/Contract.sol\":5724:5739  selectedAddress */\n      dup3\n        /* \"cobraBot/Contract.sol\":5714:5740  userGames[selectedAddress] */\n      0xffffffffffffffffffffffffffffffffffffffff\n      and\n      0xffffffffffffffffffffffffffffffffffffffff\n      and\n      dup2\n      mstore\n      0x20\n      add\n      swap1\n      dup2\n      mstore\n      0x20\n      add\n      0x00\n      keccak256\n        /* \"cobraBot/Contract.sol\":5714:5750  userGames[selectedAddress][gameId+1] */\n      0x00\n        /* \"cobraBot/Contract.sol\":5748:5749  1 */\n      0x01\n        /* \"cobraBot/Contract.sol\":5741:5747  gameId */\n      dup8\n        /* \"cobraBot/Contract.sol\":5741:5749  gameId+1 */\n      tag_148\n      swap2\n      swap1\n      tag_101\n      jump\t// in\n    tag_148:\n        /* \"cobraBot/Contract.sol\":5714:5750  userGames[selectedAddress][gameId+1] */\n      0xff\n      and\n      0xff\n      and\n      dup2\n      mstore\n      0x20\n      add\n      swap1\n      dup2\n      mstore\n      0x20\n      add\n      0x00\n      keccak256\n      0x00\n      swap1\n      sload\n      swap1\n      0x0100\n      exp\n      swap1\n      div\n      0xff\n      and\n        /* \"cobraBot/Contract.sol\":5668:5750  userPayments[selectedAddress][gameId] <= 1 || userGames[selectedAddress][gameId+1] */\n    tag_147:\n        /* \"cobraBot/Contract.sol\":5664:8146  if (userPayments[selectedAddress][gameId] <= 1 || userGames[selectedAddress][gameId+1]) {\r... */\n      iszero\n      tag_149\n      jumpi\n        /* \"cobraBot/Contract.sol\":5952:5964  bool success */\n      0x00\n        /* \"cobraBot/Contract.sol\":5970:5985  selectedAddress */\n      dup2\n        /* \"cobraBot/Contract.sol\":5970:5990  selectedAddress.call */\n      0xffffffffffffffffffffffffffffffffffffffff\n      and\n        /* \"cobraBot/Contract.sol\":6039:6042  100 */\n      0x64\n        /* \"cobraBot/Contract.sol\":270:272  74 */\n      0x4a\n        /* \"cobraBot/Contract.sol\":5998:6004  levels */\n      0x02\n        /* \"cobraBot/Contract.sol\":5998:6012  levels[gameId] */\n      0x00\n        /* \"cobraBot/Contract.sol\":6005:6011  gameId */\n      dup11\n        /* \"cobraBot/Contract.sol\":5998:6012  levels[gameId] */\n      0xff\n      and\n      0xff\n      and\n      dup2\n      mstore\n      0x20\n      add\n      swap1\n      dup2\n      mstore\n      0x20\n      add\n      0x00\n      keccak256\n        /* \"cobraBot/Contract.sol\":5998:6024  levels[gameId].amountToPay */\n      0x01\n      add\n      sload\n        /* \"cobraBot/Contract.sol\":5998:6036  levels[gameId].amountToPay * baseAward */\n      tag_150\n      swap2\n      swap1\n      tag_151\n      jump\t// in\n    tag_150:\n        /* \"cobraBot/Contract.sol\":5998:6042  levels[gameId].amountToPay * baseAward / 100 */\n      tag_152\n      swap2\n      swap1\n      tag_143\n      jump\t// in\n    tag_152:\n        /* \"cobraBot/Contract.sol\":5970:6047  selectedAddress.call{value: levels[gameId].amountToPay * baseAward / 100}(\"\") */\n      mload(0x40)\n      tag_153\n      swap1\n      tag_154\n      jump\t// in\n    tag_153:\n      0x00\n      mload(0x40)\n      dup1\n      dup4\n      sub\n      dup2\n      dup6\n      dup8\n      gas\n      call\n      swap3\n      pop\n      pop\n      pop\n      returndatasize\n      dup1\n      0x00\n      dup2\n      eq\n      tag_157\n      jumpi\n      mload(0x40)\n      swap2\n      pop\n      and(add(returndatasize, 0x3f), not(0x1f))\n      dup3\n      add\n      0x40\n      mstore\n      returndatasize\n      dup3\n      mstore\n      returndatasize\n      0x00\n      0x20\n      dup5\n      add\n      returndatacopy\n      jump(tag_156)\n    tag_157:\n      0x60\n      swap2\n      pop\n    tag_156:\n      pop\n        /* \"cobraBot/Contract.sol\":5951:6047  (bool success, ) = selectedAddress.call{value: levels[gameId].amountToPay * baseAward / 100}(\"\") */\n      pop\n      swap1\n      pop\n        /* \"cobraBot/Contract.sol\":6111:6112  1 */\n      0x01\n        /* \"cobraBot/Contract.sol\":6070:6082  userPayments */\n      0x07\n        /* \"cobraBot/Contract.sol\":6070:6099  userPayments[selectedAddress] */\n      0x00\n        /* \"cobraBot/Contract.sol\":6083:6098  selectedAddress */\n      dup5\n        /* \"cobraBot/Contract.sol\":6070:6099  userPayments[selectedAddress] */\n      0xffffffffffffffffffffffffffffffffffffffff\n      and\n      0xffffffffffffffffffffffffffffffffffffffff\n      and\n      dup2\n      mstore\n      0x20\n      add\n      swap1\n      dup2\n      mstore\n      0x20\n      add\n      0x00\n      keccak256\n        /* \"cobraBot/Contract.sol\":6070:6107  userPayments[selectedAddress][gameId] */\n      0x00\n        /* \"cobraBot/Contract.sol\":6100:6106  gameId */\n      dup9\n        /* \"cobraBot/Contract.sol\":6070:6107  userPayments[selectedAddress][gameId] */\n      0xff\n      and\n      0xff\n      and\n      dup2\n      mstore\n      0x20\n      add\n      swap1\n      dup2\n      mstore\n      0x20\n      add\n      0x00\n      keccak256\n      0x00\n        /* \"cobraBot/Contract.sol\":6070:6112  userPayments[selectedAddress][gameId] += 1 */\n      dup3\n      dup3\n      sload\n      tag_158\n      swap2\n      swap1\n      tag_119\n      jump\t// in\n    tag_158:\n      swap3\n      pop\n      pop\n      dup2\n      swap1\n      sstore\n      pop\n        /* \"cobraBot/Contract.sol\":6194:6252  GamePaymentEvent(levels[gameId], selectedAddress, success) */\n      0x48926dbe5ddf41609856a5a4f394bd85410dfcedaa2cfefb48bbb3bbab8b6be7\n        /* \"cobraBot/Contract.sol\":6211:6217  levels */\n      0x02\n        /* \"cobraBot/Contract.sol\":6211:6225  levels[gameId] */\n      0x00\n        /* \"cobraBot/Contract.sol\":6218:6224  gameId */\n      dup9\n        /* \"cobraBot/Contract.sol\":6211:6225  levels[gameId] */\n      0xff\n      and\n      0xff\n      and\n      dup2\n      mstore\n      0x20\n      add\n      swap1\n      dup2\n      mstore\n      0x20\n      add\n      0x00\n      keccak256\n        /* \"cobraBot/Contract.sol\":6227:6242  selectedAddress */\n      dup4\n        /* \"cobraBot/Contract.sol\":6244:6251  success */\n      dup4\n        /* \"cobraBot/Contract.sol\":6194:6252  GamePaymentEvent(levels[gameId], selectedAddress, success) */\n      mload(0x40)\n      tag_159\n      swap4\n      swap3\n      swap2\n      swap1\n      tag_160\n      jump\t// in\n    tag_159:\n      mload(0x40)\n      dup1\n      swap2\n      sub\n      swap1\n      log1\n        /* \"cobraBot/Contract.sol\":6277:6291  uint256 userId */\n      0x00\n        /* \"cobraBot/Contract.sol\":6294:6299  pools */\n      0x06\n        /* \"cobraBot/Contract.sol\":6294:6307  pools[gameId] */\n      0x00\n        /* \"cobraBot/Contract.sol\":6300:6306  gameId */\n      dup9\n        /* \"cobraBot/Contract.sol\":6294:6307  pools[gameId] */\n      0xff\n      and\n      0xff\n      and\n      dup2\n      mstore\n      0x20\n      add\n      swap1\n      dup2\n      mstore\n      0x20\n      add\n      0x00\n      keccak256\n        /* \"cobraBot/Contract.sol\":6294:6318  pools[gameId][userIndex] */\n      0x00\n        /* \"cobraBot/Contract.sol\":6308:6317  userIndex */\n      dup6\n        /* \"cobraBot/Contract.sol\":6294:6318  pools[gameId][userIndex] */\n      dup2\n      mstore\n      0x20\n      add\n      swap1\n      dup2\n      mstore\n      0x20\n      add\n      0x00\n      keccak256\n        /* \"cobraBot/Contract.sol\":6294:6325  pools[gameId][userIndex].userId */\n      0x00\n      add\n      sload\n        /* \"cobraBot/Contract.sol\":6277:6325  uint256 userId = pools[gameId][userIndex].userId */\n      swap1\n      pop\n        /* \"cobraBot/Contract.sol\":6377:6394  uint256 invitedId */\n      0x00\n        /* \"cobraBot/Contract.sol\":6397:6402  pools */\n      0x06\n        /* \"cobraBot/Contract.sol\":6397:6410  pools[gameId] */\n      0x00\n        /* \"cobraBot/Contract.sol\":6403:6409  gameId */\n      dup10\n        /* \"cobraBot/Contract.sol\":6397:6410  pools[gameId] */\n      0xff\n      and\n      0xff\n      and\n      dup2\n      mstore\n      0x20\n      add\n      swap1\n      dup2\n      mstore\n      0x20\n      add\n      0x00\n      keccak256\n        /* \"cobraBot/Contract.sol\":6397:6421  pools[gameId][userIndex] */\n      0x00\n        /* \"cobraBot/Contract.sol\":6411:6420  userIndex */\n      dup7\n        /* \"cobraBot/Contract.sol\":6397:6421  pools[gameId][userIndex] */\n      dup2\n      mstore\n      0x20\n      add\n      swap1\n      dup2\n      mstore\n      0x20\n      add\n      0x00\n      keccak256\n        /* \"cobraBot/Contract.sol\":6397:6431  pools[gameId][userIndex].invitedId */\n      0x02\n      add\n      sload\n        /* \"cobraBot/Contract.sol\":6377:6431  uint256 invitedId = pools[gameId][userIndex].invitedId */\n      swap1\n      pop\n        /* \"cobraBot/Contract.sol\":6491:6504  uint refValue */\n      0x00\n        /* \"cobraBot/Contract.sol\":6556:6559  100 */\n      0x64\n        /* \"cobraBot/Contract.sol\":333:335  10 */\n      0x0a\n        /* \"cobraBot/Contract.sol\":6507:6513  levels */\n      0x02\n        /* \"cobraBot/Contract.sol\":6507:6521  levels[gameId] */\n      0x00\n        /* \"cobraBot/Contract.sol\":6514:6520  gameId */\n      dup13\n        /* \"cobraBot/Contract.sol\":6507:6521  levels[gameId] */\n      0xff\n      and\n      0xff\n      and\n      dup2\n      mstore\n      0x20\n      add\n      swap1\n      dup2\n      mstore\n      0x20\n      add\n      0x00\n      keccak256\n        /* \"cobraBot/Contract.sol\":6507:6533  levels[gameId].amountToPay */\n      0x01\n      add\n      sload\n        /* \"cobraBot/Contract.sol\":6507:6553  levels[gameId].amountToPay * firstLevelReferal */\n      tag_161\n      swap2\n      swap1\n      tag_151\n      jump\t// in\n    tag_161:\n        /* \"cobraBot/Contract.sol\":6507:6559  levels[gameId].amountToPay * firstLevelReferal / 100 */\n      tag_162\n      swap2\n      swap1\n      tag_143\n      jump\t// in\n    tag_162:\n        /* \"cobraBot/Contract.sol\":6491:6559  uint refValue = levels[gameId].amountToPay * firstLevelReferal / 100 */\n      swap1\n      pop\n        /* \"cobraBot/Contract.sol\":6621:6628  usersId */\n      0x03\n        /* \"cobraBot/Contract.sol\":6621:6639  usersId[invitedId] */\n      0x00\n        /* \"cobraBot/Contract.sol\":6629:6638  invitedId */\n      dup4\n        /* \"cobraBot/Contract.sol\":6621:6639  usersId[invitedId] */\n      dup2\n      mstore\n      0x20\n      add\n      swap1\n      dup2\n      mstore\n      0x20\n      add\n      0x00\n      keccak256\n      0x00\n      swap1\n      sload\n      swap1\n      0x0100\n      exp\n      swap1\n      div\n      0xffffffffffffffffffffffffffffffffffffffff\n      and\n        /* \"cobraBot/Contract.sol\":6621:6644  usersId[invitedId].call */\n      0xffffffffffffffffffffffffffffffffffffffff\n      and\n        /* \"cobraBot/Contract.sol\":6652:6660  refValue */\n      dup2\n        /* \"cobraBot/Contract.sol\":6621:6665  usersId[invitedId].call{value: refValue}(\"\") */\n      mload(0x40)\n      tag_163\n      swap1\n      tag_154\n      jump\t// in\n    tag_163:\n      0x00\n      mload(0x40)\n      dup1\n      dup4\n      sub\n      dup2\n      dup6\n      dup8\n      gas\n      call\n      swap3\n      pop\n      pop\n      pop\n      returndatasize\n      dup1\n      0x00\n      dup2\n      eq\n      tag_166\n      jumpi\n      mload(0x40)\n      swap2\n      pop\n      and(add(returndatasize, 0x3f), not(0x1f))\n      dup3\n      add\n      0x40\n      mstore\n      returndatasize\n      dup3\n      mstore\n      returndatasize\n      0x00\n      0x20\n      dup5\n      add\n      returndatacopy\n      jump(tag_165)\n    tag_166:\n      0x60\n      swap2\n      pop\n    tag_165:\n      pop\n        /* \"cobraBot/Contract.sol\":6607:6665  (success, ) = usersId[invitedId].call{value: refValue}(\"\") */\n      pop\n      dup1\n      swap5\n      pop\n      pop\n        /* \"cobraBot/Contract.sol\":6694:6701  success */\n      dup4\n        /* \"cobraBot/Contract.sol\":6690:6772  if (success) emit ReferalPaymentEvent(levels[gameId], userId, invitedId, refValue) */\n      iszero\n      tag_167\n      jumpi\n        /* \"cobraBot/Contract.sol\":6708:6772  ReferalPaymentEvent(levels[gameId], userId, invitedId, refValue) */\n      0x99a41df4773da34d9d98cc939025289e5db562f8fb5df346a9e7a1672bd288e3\n        /* \"cobraBot/Contract.sol\":6728:6734  levels */\n      0x02\n        /* \"cobraBot/Contract.sol\":6728:6742  levels[gameId] */\n      0x00\n        /* \"cobraBot/Contract.sol\":6735:6741  gameId */\n      dup12\n        /* \"cobraBot/Contract.sol\":6728:6742  levels[gameId] */\n      0xff\n      and\n      0xff\n      and\n      dup2\n      mstore\n      0x20\n      add\n      swap1\n      dup2\n      mstore\n      0x20\n      add\n      0x00\n      keccak256\n        /* \"cobraBot/Contract.sol\":6744:6750  userId */\n      dup5\n        /* \"cobraBot/Contract.sol\":6752:6761  invitedId */\n      dup5\n        /* \"cobraBot/Contract.sol\":6763:6771  refValue */\n      dup5\n        /* \"cobraBot/Contract.sol\":6708:6772  ReferalPaymentEvent(levels[gameId], userId, invitedId, refValue) */\n      mload(0x40)\n      tag_168\n      swap5\n      swap4\n      swap3\n      swap2\n      swap1\n      tag_169\n      jump\t// in\n    tag_168:\n      mload(0x40)\n      dup1\n      swap2\n      sub\n      swap1\n      log1\n        /* \"cobraBot/Contract.sol\":6690:6772  if (success) emit ReferalPaymentEvent(levels[gameId], userId, invitedId, refValue) */\n    tag_167:\n        /* \"cobraBot/Contract.sol\":6858:6861  100 */\n      0x64\n        /* \"cobraBot/Contract.sol\":410:411  6 */\n      0x06\n        /* \"cobraBot/Contract.sol\":6808:6814  levels */\n      0x02\n        /* \"cobraBot/Contract.sol\":6808:6822  levels[gameId] */\n      0x00\n        /* \"cobraBot/Contract.sol\":6815:6821  gameId */\n      dup13\n        /* \"cobraBot/Contract.sol\":6808:6822  levels[gameId] */\n      0xff\n      and\n      0xff\n      and\n      dup2\n      mstore\n      0x20\n      add\n      swap1\n      dup2\n      mstore\n      0x20\n      add\n      0x00\n      keccak256\n        /* \"cobraBot/Contract.sol\":6808:6834  levels[gameId].amountToPay */\n      0x01\n      add\n      sload\n        /* \"cobraBot/Contract.sol\":6808:6855  levels[gameId].amountToPay * secondLevelReferal */\n      tag_170\n      swap2\n      swap1\n      tag_151\n      jump\t// in\n    tag_170:\n        /* \"cobraBot/Contract.sol\":6808:6861  levels[gameId].amountToPay * secondLevelReferal / 100 */\n      tag_171\n      swap2\n      swap1\n      tag_143\n      jump\t// in\n    tag_171:\n        /* \"cobraBot/Contract.sol\":6797:6861  refValue = levels[gameId].amountToPay * secondLevelReferal / 100 */\n      swap1\n      pop\n        /* \"cobraBot/Contract.sol\":6922:6937  registeredUsers */\n      0x04\n        /* \"cobraBot/Contract.sol\":6922:6957  registeredUsers[usersId[invitedId]] */\n      0x00\n        /* \"cobraBot/Contract.sol\":6938:6945  usersId */\n      0x03\n        /* \"cobraBot/Contract.sol\":6938:6956  usersId[invitedId] */\n      0x00\n        /* \"cobraBot/Contract.sol\":6946:6955  invitedId */\n      dup6\n        /* \"cobraBot/Contract.sol\":6938:6956  usersId[invitedId] */\n      dup2\n      mstore\n      0x20\n      add\n      swap1\n      dup2\n      mstore\n      0x20\n      add\n      0x00\n      keccak256\n      0x00\n      swap1\n      sload\n      swap1\n      0x0100\n      exp\n      swap1\n      div\n      0xffffffffffffffffffffffffffffffffffffffff\n      and\n        /* \"cobraBot/Contract.sol\":6922:6957  registeredUsers[usersId[invitedId]] */\n      0xffffffffffffffffffffffffffffffffffffffff\n      and\n      0xffffffffffffffffffffffffffffffffffffffff\n      and\n      dup2\n      mstore\n      0x20\n      add\n      swap1\n      dup2\n      mstore\n      0x20\n      add\n      0x00\n      keccak256\n        /* \"cobraBot/Contract.sol\":6922:6969  registeredUsers[usersId[invitedId]].userAddress */\n      0x01\n      add\n      0x00\n      swap1\n      sload\n      swap1\n      0x0100\n      exp\n      swap1\n      div\n      0xffffffffffffffffffffffffffffffffffffffff\n      and\n        /* \"cobraBot/Contract.sol\":6922:6974  registeredUsers[usersId[invitedId]].userAddress.call */\n      0xffffffffffffffffffffffffffffffffffffffff\n      and\n        /* \"cobraBot/Contract.sol\":6982:6990  refValue */\n      dup2\n        /* \"cobraBot/Contract.sol\":6922:6995  registeredUsers[usersId[invitedId]].userAddress.call{value: refValue}(\"\") */\n      mload(0x40)\n      tag_172\n      swap1\n      tag_154\n      jump\t// in\n    tag_172:\n      0x00\n      mload(0x40)\n      dup1\n      dup4\n      sub\n      dup2\n      dup6\n      dup8\n      gas\n      call\n      swap3\n      pop\n      pop\n      pop\n      returndatasize\n      dup1\n      0x00\n      dup2\n      eq\n      tag_175\n      jumpi\n      mload(0x40)\n      swap2\n      pop\n      and(add(returndatasize, 0x3f), not(0x1f))\n      dup3\n      add\n      0x40\n      mstore\n      returndatasize\n      dup3\n      mstore\n      returndatasize\n      0x00\n      0x20\n      dup5\n      add\n      returndatacopy\n      jump(tag_174)\n    tag_175:\n      0x60\n      swap2\n      pop\n    tag_174:\n      pop\n        /* \"cobraBot/Contract.sol\":6908:6995  (success, ) = registeredUsers[usersId[invitedId]].userAddress.call{value: refValue}(\"\") */\n      pop\n      dup1\n      swap5\n      pop\n      pop\n        /* \"cobraBot/Contract.sol\":7050:7057  success */\n      dup4\n        /* \"cobraBot/Contract.sol\":7046:7164  if (success) emit ReferalPaymentEvent(levels[gameId], invitedId, registeredUsers[usersId[invitedId]].userId, refValue) */\n      iszero\n      tag_176\n      jumpi\n        /* \"cobraBot/Contract.sol\":7064:7164  ReferalPaymentEvent(levels[gameId], invitedId, registeredUsers[usersId[invitedId]].userId, refValue) */\n      0x99a41df4773da34d9d98cc939025289e5db562f8fb5df346a9e7a1672bd288e3\n        /* \"cobraBot/Contract.sol\":7084:7090  levels */\n      0x02\n        /* \"cobraBot/Contract.sol\":7084:7098  levels[gameId] */\n      0x00\n        /* \"cobraBot/Contract.sol\":7091:7097  gameId */\n      dup12\n        /* \"cobraBot/Contract.sol\":7084:7098  levels[gameId] */\n      0xff\n      and\n      0xff\n      and\n      dup2\n      mstore\n      0x20\n      add\n      swap1\n      dup2\n      mstore\n      0x20\n      add\n      0x00\n      keccak256\n        /* \"cobraBot/Contract.sol\":7100:7109  invitedId */\n      dup4\n        /* \"cobraBot/Contract.sol\":7111:7126  registeredUsers */\n      0x04\n        /* \"cobraBot/Contract.sol\":7111:7146  registeredUsers[usersId[invitedId]] */\n      0x00\n        /* \"cobraBot/Contract.sol\":7127:7134  usersId */\n      0x03\n        /* \"cobraBot/Contract.sol\":7127:7145  usersId[invitedId] */\n      0x00\n        /* \"cobraBot/Contract.sol\":7135:7144  invitedId */\n      dup9\n        /* \"cobraBot/Contract.sol\":7127:7145  usersId[invitedId] */\n      dup2\n      mstore\n      0x20\n      add\n      swap1\n      dup2\n      mstore\n      0x20\n      add\n      0x00\n      keccak256\n      0x00\n      swap1\n      sload\n      swap1\n      0x0100\n      exp\n      swap1\n      div\n      0xffffffffffffffffffffffffffffffffffffffff\n      and\n        /* \"cobraBot/Contract.sol\":7111:7146  registeredUsers[usersId[invitedId]] */\n      0xffffffffffffffffffffffffffffffffffffffff\n      and\n      0xffffffffffffffffffffffffffffffffffffffff\n      and\n      dup2\n      mstore\n      0x20\n      add\n      swap1\n      dup2\n      mstore\n      0x20\n      add\n      0x00\n      keccak256\n        /* \"cobraBot/Contract.sol\":7111:7153  registeredUsers[usersId[invitedId]].userId */\n      0x00\n      add\n      sload\n        /* \"cobraBot/Contract.sol\":7155:7163  refValue */\n      dup5\n        /* \"cobraBot/Contract.sol\":7064:7164  ReferalPaymentEvent(levels[gameId], invitedId, registeredUsers[usersId[invitedId]].userId, refValue) */\n      mload(0x40)\n      tag_177\n      swap5\n      swap4\n      swap3\n      swap2\n      swap1\n      tag_169\n      jump\t// in\n    tag_177:\n      mload(0x40)\n      dup1\n      swap2\n      sub\n      swap1\n      log1\n        /* \"cobraBot/Contract.sol\":7046:7164  if (success) emit ReferalPaymentEvent(levels[gameId], invitedId, registeredUsers[usersId[invitedId]].userId, refValue) */\n    tag_176:\n        /* \"cobraBot/Contract.sol\":7249:7252  100 */\n      0x64\n        /* \"cobraBot/Contract.sol\":485:486  4 */\n      0x04\n        /* \"cobraBot/Contract.sol\":7200:7206  levels */\n      0x02\n        /* \"cobraBot/Contract.sol\":7200:7214  levels[gameId] */\n      0x00\n        /* \"cobraBot/Contract.sol\":7207:7213  gameId */\n      dup13\n        /* \"cobraBot/Contract.sol\":7200:7214  levels[gameId] */\n      0xff\n      and\n      0xff\n      and\n      dup2\n      mstore\n      0x20\n      add\n      swap1\n      dup2\n      mstore\n      0x20\n      add\n      0x00\n      keccak256\n        /* \"cobraBot/Contract.sol\":7200:7226  levels[gameId].amountToPay */\n      0x01\n      add\n      sload\n        /* \"cobraBot/Contract.sol\":7200:7246  levels[gameId].amountToPay * thirdLevelReferal */\n      tag_178\n      swap2\n      swap1\n      tag_151\n      jump\t// in\n    tag_178:\n        /* \"cobraBot/Contract.sol\":7200:7252  levels[gameId].amountToPay * thirdLevelReferal / 100 */\n      tag_179\n      swap2\n      swap1\n      tag_143\n      jump\t// in\n    tag_179:\n        /* \"cobraBot/Contract.sol\":7189:7252  refValue = levels[gameId].amountToPay * thirdLevelReferal / 100 */\n      swap1\n      pop\n        /* \"cobraBot/Contract.sol\":7312:7327  registeredUsers */\n      0x04\n        /* \"cobraBot/Contract.sol\":7312:7380  registeredUsers[usersId[registeredUsers[usersId[invitedId]].userId]] */\n      0x00\n        /* \"cobraBot/Contract.sol\":7328:7335  usersId */\n      0x03\n        /* \"cobraBot/Contract.sol\":7328:7379  usersId[registeredUsers[usersId[invitedId]].userId] */\n      0x00\n        /* \"cobraBot/Contract.sol\":7336:7351  registeredUsers */\n      0x04\n        /* \"cobraBot/Contract.sol\":7336:7371  registeredUsers[usersId[invitedId]] */\n      0x00\n        /* \"cobraBot/Contract.sol\":7352:7359  usersId */\n      0x03\n        /* \"cobraBot/Contract.sol\":7352:7370  usersId[invitedId] */\n      0x00\n        /* \"cobraBot/Contract.sol\":7360:7369  invitedId */\n      dup10\n        /* \"cobraBot/Contract.sol\":7352:7370  usersId[invitedId] */\n      dup2\n      mstore\n      0x20\n      add\n      swap1\n      dup2\n      mstore\n      0x20\n      add\n      0x00\n      keccak256\n      0x00\n      swap1\n      sload\n      swap1\n      0x0100\n      exp\n      swap1\n      div\n      0xffffffffffffffffffffffffffffffffffffffff\n      and\n        /* \"cobraBot/Contract.sol\":7336:7371  registeredUsers[usersId[invitedId]] */\n      0xffffffffffffffffffffffffffffffffffffffff\n      and\n      0xffffffffffffffffffffffffffffffffffffffff\n      and\n      dup2\n      mstore\n      0x20\n      add\n      swap1\n      dup2\n      mstore\n      0x20\n      add\n      0x00\n      keccak256\n        /* \"cobraBot/Contract.sol\":7336:7378  registeredUsers[usersId[invitedId]].userId */\n      0x00\n      add\n      sload\n        /* \"cobraBot/Contract.sol\":7328:7379  usersId[registeredUsers[usersId[invitedId]].userId] */\n      dup2\n      mstore\n      0x20\n      add\n      swap1\n      dup2\n      mstore\n      0x20\n      add\n      0x00\n      keccak256\n      0x00\n      swap1\n      sload\n      swap1\n      0x0100\n      exp\n      swap1\n      div\n      0xffffffffffffffffffffffffffffffffffffffff\n      and\n        /* \"cobraBot/Contract.sol\":7312:7380  registeredUsers[usersId[registeredUsers[usersId[invitedId]].userId]] */\n      0xffffffffffffffffffffffffffffffffffffffff\n      and\n      0xffffffffffffffffffffffffffffffffffffffff\n      and\n      dup2\n      mstore\n      0x20\n      add\n      swap1\n      dup2\n      mstore\n      0x20\n      add\n      0x00\n      keccak256\n        /* \"cobraBot/Contract.sol\":7312:7392  registeredUsers[usersId[registeredUsers[usersId[invitedId]].userId]].userAddress */\n      0x01\n      add\n      0x00\n      swap1\n      sload\n      swap1\n      0x0100\n      exp\n      swap1\n      div\n      0xffffffffffffffffffffffffffffffffffffffff\n      and\n        /* \"cobraBot/Contract.sol\":7312:7397  registeredUsers[usersId[registeredUsers[usersId[invitedId]].userId]].userAddress.call */\n      0xffffffffffffffffffffffffffffffffffffffff\n      and\n        /* \"cobraBot/Contract.sol\":7405:7413  refValue */\n      dup2\n        /* \"cobraBot/Contract.sol\":7312:7418  registeredUsers[usersId[registeredUsers[usersId[invitedId]].userId]].userAddress.call{value: refValue}(\"\") */\n      mload(0x40)\n      tag_180\n      swap1\n      tag_154\n      jump\t// in\n    tag_180:\n      0x00\n      mload(0x40)\n      dup1\n      dup4\n      sub\n      dup2\n      dup6\n      dup8\n      gas\n      call\n      swap3\n      pop\n      pop\n      pop\n      returndatasize\n      dup1\n      0x00\n      dup2\n      eq\n      tag_183\n      jumpi\n      mload(0x40)\n      swap2\n      pop\n      and(add(returndatasize, 0x3f), not(0x1f))\n      dup3\n      add\n      0x40\n      mstore\n      returndatasize\n      dup3\n      mstore\n      returndatasize\n      0x00\n      0x20\n      dup5\n      add\n      returndatacopy\n      jump(tag_182)\n    tag_183:\n      0x60\n      swap2\n      pop\n    tag_182:\n      pop\n        /* \"cobraBot/Contract.sol\":7298:7418  (success, ) = registeredUsers[usersId[registeredUsers[usersId[invitedId]].userId]].userAddress.call{value: refValue}(\"\") */\n      pop\n      dup1\n      swap5\n      pop\n      pop\n        /* \"cobraBot/Contract.sol\":7447:7454  success */\n      dup4\n        /* \"cobraBot/Contract.sol\":7443:7627  if (success) emit ReferalPaymentEvent(levels[gameId], registeredUsers[usersId[invitedId]].userId, registeredUsers[usersId[registeredUsers[usersId[invitedId]].userId]].userId, refValue) */\n      iszero\n      tag_184\n      jumpi\n        /* \"cobraBot/Contract.sol\":7461:7627  ReferalPaymentEvent(levels[gameId], registeredUsers[usersId[invitedId]].userId, registeredUsers[usersId[registeredUsers[usersId[invitedId]].userId]].userId, refValue) */\n      0x99a41df4773da34d9d98cc939025289e5db562f8fb5df346a9e7a1672bd288e3\n        /* \"cobraBot/Contract.sol\":7481:7487  levels */\n      0x02\n        /* \"cobraBot/Contract.sol\":7481:7495  levels[gameId] */\n      0x00\n        /* \"cobraBot/Contract.sol\":7488:7494  gameId */\n      dup12\n        /* \"cobraBot/Contract.sol\":7481:7495  levels[gameId] */\n      0xff\n      and\n      0xff\n      and\n      dup2\n      mstore\n      0x20\n      add\n      swap1\n      dup2\n      mstore\n      0x20\n      add\n      0x00\n      keccak256\n        /* \"cobraBot/Contract.sol\":7497:7512  registeredUsers */\n      0x04\n        /* \"cobraBot/Contract.sol\":7497:7532  registeredUsers[usersId[invitedId]] */\n      0x00\n        /* \"cobraBot/Contract.sol\":7513:7520  usersId */\n      0x03\n        /* \"cobraBot/Contract.sol\":7513:7531  usersId[invitedId] */\n      0x00\n        /* \"cobraBot/Contract.sol\":7521:7530  invitedId */\n      dup8\n        /* \"cobraBot/Contract.sol\":7513:7531  usersId[invitedId] */\n      dup2\n      mstore\n      0x20\n      add\n      swap1\n      dup2\n      mstore\n      0x20\n      add\n      0x00\n      keccak256\n      0x00\n      swap1\n      sload\n      swap1\n      0x0100\n      exp\n      swap1\n      div\n      0xffffffffffffffffffffffffffffffffffffffff\n      and\n        /* \"cobraBot/Contract.sol\":7497:7532  registeredUsers[usersId[invitedId]] */\n      0xffffffffffffffffffffffffffffffffffffffff\n      and\n      0xffffffffffffffffffffffffffffffffffffffff\n      and\n      dup2\n      mstore\n      0x20\n      add\n      swap1\n      dup2\n      mstore\n      0x20\n      add\n      0x00\n      keccak256\n        /* \"cobraBot/Contract.sol\":7497:7539  registeredUsers[usersId[invitedId]].userId */\n      0x00\n      add\n      sload\n        /* \"cobraBot/Contract.sol\":7541:7556  registeredUsers */\n      0x04\n        /* \"cobraBot/Contract.sol\":7541:7609  registeredUsers[usersId[registeredUsers[usersId[invitedId]].userId]] */\n      0x00\n        /* \"cobraBot/Contract.sol\":7557:7564  usersId */\n      0x03\n        /* \"cobraBot/Contract.sol\":7557:7608  usersId[registeredUsers[usersId[invitedId]].userId] */\n      0x00\n        /* \"cobraBot/Contract.sol\":7565:7580  registeredUsers */\n      0x04\n        /* \"cobraBot/Contract.sol\":7565:7600  registeredUsers[usersId[invitedId]] */\n      0x00\n        /* \"cobraBot/Contract.sol\":7581:7588  usersId */\n      0x03\n        /* \"cobraBot/Contract.sol\":7581:7599  usersId[invitedId] */\n      0x00\n        /* \"cobraBot/Contract.sol\":7589:7598  invitedId */\n      dup13\n        /* \"cobraBot/Contract.sol\":7581:7599  usersId[invitedId] */\n      dup2\n      mstore\n      0x20\n      add\n      swap1\n      dup2\n      mstore\n      0x20\n      add\n      0x00\n      keccak256\n      0x00\n      swap1\n      sload\n      swap1\n      0x0100\n      exp\n      swap1\n      div\n      0xffffffffffffffffffffffffffffffffffffffff\n      and\n        /* \"cobraBot/Contract.sol\":7565:7600  registeredUsers[usersId[invitedId]] */\n      0xffffffffffffffffffffffffffffffffffffffff\n      and\n      0xffffffffffffffffffffffffffffffffffffffff\n      and\n      dup2\n      mstore\n      0x20\n      add\n      swap1\n      dup2\n      mstore\n      0x20\n      add\n      0x00\n      keccak256\n        /* \"cobraBot/Contract.sol\":7565:7607  registeredUsers[usersId[invitedId]].userId */\n      0x00\n      add\n      sload\n        /* \"cobraBot/Contract.sol\":7557:7608  usersId[registeredUsers[usersId[invitedId]].userId] */\n      dup2\n      mstore\n      0x20\n      add\n      swap1\n      dup2\n      mstore\n      0x20\n      add\n      0x00\n      keccak256\n      0x00\n      swap1\n      sload\n      swap1\n      0x0100\n      exp\n      swap1\n      div\n      0xffffffffffffffffffffffffffffffffffffffff\n      and\n        /* \"cobraBot/Contract.sol\":7541:7609  registeredUsers[usersId[registeredUsers[usersId[invitedId]].userId]] */\n      0xffffffffffffffffffffffffffffffffffffffff\n      and\n      0xffffffffffffffffffffffffffffffffffffffff\n      and\n      dup2\n      mstore\n      0x20\n      add\n      swap1\n      dup2\n      mstore\n      0x20\n      add\n      0x00\n      keccak256\n        /* \"cobraBot/Contract.sol\":7541:7616  registeredUsers[usersId[registeredUsers[usersId[invitedId]].userId]].userId */\n      0x00\n      add\n      sload\n        /* \"cobraBot/Contract.sol\":7618:7626  refValue */\n      dup5\n        /* \"cobraBot/Contract.sol\":7461:7627  ReferalPaymentEvent(levels[gameId], registeredUsers[usersId[invitedId]].userId, registeredUsers[usersId[registeredUsers[usersId[invitedId]].userId]].userId, refValue) */\n      mload(0x40)\n      tag_185\n      swap5\n      swap4\n      swap3\n      swap2\n      swap1\n      tag_169\n      jump\t// in\n    tag_185:\n      mload(0x40)\n      dup1\n      swap2\n      sub\n      swap1\n      log1\n        /* \"cobraBot/Contract.sol\":7443:7627  if (success) emit ReferalPaymentEvent(levels[gameId], registeredUsers[usersId[invitedId]].userId, registeredUsers[usersId[registeredUsers[usersId[invitedId]].userId]].userId, refValue) */\n    tag_184:\n        /* \"cobraBot/Contract.sol\":7827:7830  100 */\n      0x64\n        /* \"cobraBot/Contract.sol\":554:555  6 */\n      0x06\n        /* \"cobraBot/Contract.sol\":7783:7789  levels */\n      0x02\n        /* \"cobraBot/Contract.sol\":7783:7797  levels[gameId] */\n      0x00\n        /* \"cobraBot/Contract.sol\":7790:7796  gameId */\n      dup13\n        /* \"cobraBot/Contract.sol\":7783:7797  levels[gameId] */\n      0xff\n      and\n      0xff\n      and\n      dup2\n      mstore\n      0x20\n      add\n      swap1\n      dup2\n      mstore\n      0x20\n      add\n      0x00\n      keccak256\n        /* \"cobraBot/Contract.sol\":7783:7809  levels[gameId].amountToPay */\n      0x01\n      add\n      sload\n        /* \"cobraBot/Contract.sol\":7783:7824  levels[gameId].amountToPay * ownerReferal */\n      tag_186\n      swap2\n      swap1\n      tag_151\n      jump\t// in\n    tag_186:\n        /* \"cobraBot/Contract.sol\":7783:7830  levels[gameId].amountToPay * ownerReferal / 100 */\n      tag_187\n      swap2\n      swap1\n      tag_143\n      jump\t// in\n    tag_187:\n        /* \"cobraBot/Contract.sol\":7772:7830  refValue = levels[gameId].amountToPay * ownerReferal / 100 */\n      swap1\n      pop\n        /* \"cobraBot/Contract.sol\":7884:7899  registeredUsers */\n      0x04\n        /* \"cobraBot/Contract.sol\":7884:7914  registeredUsers[contractOwner] */\n      0x00\n        /* \"cobraBot/Contract.sol\":7900:7913  contractOwner */\n      0x01\n      dup1\n      sload\n      swap1\n      0x0100\n      exp\n      swap1\n      div\n      0xffffffffffffffffffffffffffffffffffffffff\n      and\n        /* \"cobraBot/Contract.sol\":7884:7914  registeredUsers[contractOwner] */\n      0xffffffffffffffffffffffffffffffffffffffff\n      and\n      0xffffffffffffffffffffffffffffffffffffffff\n      and\n      dup2\n      mstore\n      0x20\n      add\n      swap1\n      dup2\n      mstore\n      0x20\n      add\n      0x00\n      keccak256\n        /* \"cobraBot/Contract.sol\":7884:7926  registeredUsers[contractOwner].userAddress */\n      0x01\n      add\n      0x00\n      swap1\n      sload\n      swap1\n      0x0100\n      exp\n      swap1\n      div\n      0xffffffffffffffffffffffffffffffffffffffff\n      and\n        /* \"cobraBot/Contract.sol\":7884:7931  registeredUsers[contractOwner].userAddress.call */\n      0xffffffffffffffffffffffffffffffffffffffff\n      and\n        /* \"cobraBot/Contract.sol\":7939:7947  refValue */\n      dup2\n        /* \"cobraBot/Contract.sol\":7884:7952  registeredUsers[contractOwner].userAddress.call{value: refValue}(\"\") */\n      mload(0x40)\n      tag_188\n      swap1\n      tag_154\n      jump\t// in\n    tag_188:\n      0x00\n      mload(0x40)\n      dup1\n      dup4\n      sub\n      dup2\n      dup6\n      dup8\n      gas\n      call\n      swap3\n      pop\n      pop\n      pop\n      returndatasize\n      dup1\n      0x00\n      dup2\n      eq\n      tag_191\n      jumpi\n      mload(0x40)\n      swap2\n      pop\n      and(add(returndatasize, 0x3f), not(0x1f))\n      dup3\n      add\n      0x40\n      mstore\n      returndatasize\n      dup3\n      mstore\n      returndatasize\n      0x00\n      0x20\n      dup5\n      add\n      returndatacopy\n      jump(tag_190)\n    tag_191:\n      0x60\n      swap2\n      pop\n    tag_190:\n      pop\n        /* \"cobraBot/Contract.sol\":7870:7952  (success, ) = registeredUsers[contractOwner].userAddress.call{value: refValue}(\"\") */\n      pop\n      dup1\n      swap5\n      pop\n      pop\n        /* \"cobraBot/Contract.sol\":7981:7988  success */\n      dup4\n        /* \"cobraBot/Contract.sol\":7977:8087  if (success) emit ReferalPaymentEvent(levels[gameId], userId, registeredUsers[contractOwner].userId, refValue) */\n      iszero\n      tag_192\n      jumpi\n        /* \"cobraBot/Contract.sol\":7995:8087  ReferalPaymentEvent(levels[gameId], userId, registeredUsers[contractOwner].userId, refValue) */\n      0x99a41df4773da34d9d98cc939025289e5db562f8fb5df346a9e7a1672bd288e3\n        /* \"cobraBot/Contract.sol\":8015:8021  levels */\n      0x02\n        /* \"cobraBot/Contract.sol\":8015:8029  levels[gameId] */\n      0x00\n        /* \"cobraBot/Contract.sol\":8022:8028  gameId */\n      dup12\n        /* \"cobraBot/Contract.sol\":8015:8029  levels[gameId] */\n      0xff\n      and\n      0xff\n      and\n      dup2\n      mstore\n      0x20\n      add\n      swap1\n      dup2\n      mstore\n      0x20\n      add\n      0x00\n      keccak256\n        /* \"cobraBot/Contract.sol\":8031:8037  userId */\n      dup5\n        /* \"cobraBot/Contract.sol\":8039:8054  registeredUsers */\n      0x04\n        /* \"cobraBot/Contract.sol\":8039:8069  registeredUsers[contractOwner] */\n      0x00\n        /* \"cobraBot/Contract.sol\":8055:8068  contractOwner */\n      0x01\n      dup1\n      sload\n      swap1\n      0x0100\n      exp\n      swap1\n      div\n      0xffffffffffffffffffffffffffffffffffffffff\n      and\n        /* \"cobraBot/Contract.sol\":8039:8069  registeredUsers[contractOwner] */\n      0xffffffffffffffffffffffffffffffffffffffff\n      and\n      0xffffffffffffffffffffffffffffffffffffffff\n      and\n      dup2\n      mstore\n      0x20\n      add\n      swap1\n      dup2\n      mstore\n      0x20\n      add\n      0x00\n      keccak256\n        /* \"cobraBot/Contract.sol\":8039:8076  registeredUsers[contractOwner].userId */\n      0x00\n      add\n      sload\n        /* \"cobraBot/Contract.sol\":8078:8086  refValue */\n      dup5\n        /* \"cobraBot/Contract.sol\":7995:8087  ReferalPaymentEvent(levels[gameId], userId, registeredUsers[contractOwner].userId, refValue) */\n      mload(0x40)\n      tag_193\n      swap5\n      swap4\n      swap3\n      swap2\n      swap1\n      tag_169\n      jump\t// in\n    tag_193:\n      mload(0x40)\n      dup1\n      swap2\n      sub\n      swap1\n      log1\n        /* \"cobraBot/Contract.sol\":7977:8087  if (success) emit ReferalPaymentEvent(levels[gameId], userId, registeredUsers[contractOwner].userId, refValue) */\n    tag_192:\n        /* \"cobraBot/Contract.sol\":8125:8126  2 */\n      0x02\n        /* \"cobraBot/Contract.sol\":8112:8126  userIndex /= 2 */\n      dup7\n      tag_194\n      swap2\n      swap1\n      tag_143\n      jump\t// in\n    tag_194:\n      swap6\n      pop\n        /* \"cobraBot/Contract.sol\":5752:8146  {\r... */\n      pop\n      pop\n      pop\n      pop\n        /* \"cobraBot/Contract.sol\":5664:8146  if (userPayments[selectedAddress][gameId] <= 1 || userGames[selectedAddress][gameId+1]) {\r... */\n    tag_149:\n        /* \"cobraBot/Contract.sol\":5422:8161  {\r... */\n      pop\n        /* \"cobraBot/Contract.sol\":8182:8183  0 */\n      0x00\n        /* \"cobraBot/Contract.sol\":8169:8178  userIndex */\n      dup2\n        /* \"cobraBot/Contract.sol\":8169:8183  userIndex != 0 */\n      eq\n      iszero\n        /* \"cobraBot/Contract.sol\":5419:8185  do {\r... */\n      tag_144\n      jumpi\n        /* \"cobraBot/Contract.sol\":5335:8196  {\r... */\n      pop\n        /* \"cobraBot/Contract.sol\":5298:8196  if (currentUserIndex[gameId]-1 >= 3) {\r... */\n    tag_140:\n        /* \"cobraBot/Contract.sol\":4733:8203  function _joinToGame(uint8 gameId, address sender, uint256 value) internal {\r... */\n      pop\n      pop\n      pop\n      jump\t// out\n        /* \"#utility.yul\":7:146   */\n    tag_196:\n        /* \"#utility.yul\":53:58   */\n      0x00\n        /* \"#utility.yul\":91:97   */\n      dup2\n        /* \"#utility.yul\":78:98   */\n      calldataload\n        /* \"#utility.yul\":69:98   */\n      swap1\n      pop\n        /* \"#utility.yul\":107:140   */\n      tag_198\n        /* \"#utility.yul\":134:139   */\n      dup2\n        /* \"#utility.yul\":107:140   */\n      tag_199\n      jump\t// in\n    tag_198:\n        /* \"#utility.yul\":7:146   */\n      swap3\n      swap2\n      pop\n      pop\n      jump\t// out\n        /* \"#utility.yul\":152:291   */\n    tag_200:\n        /* \"#utility.yul\":198:203   */\n      0x00\n        /* \"#utility.yul\":236:242   */\n      dup2\n        /* \"#utility.yul\":223:243   */\n      calldataload\n        /* \"#utility.yul\":214:243   */\n      swap1\n      pop\n        /* \"#utility.yul\":252:285   */\n      tag_202\n        /* \"#utility.yul\":279:284   */\n      dup2\n        /* \"#utility.yul\":252:285   */\n      tag_203\n      jump\t// in\n    tag_202:\n        /* \"#utility.yul\":152:291   */\n      swap3\n      swap2\n      pop\n      pop\n      jump\t// out\n        /* \"#utility.yul\":297:432   */\n    tag_204:\n        /* \"#utility.yul\":341:346   */\n      0x00\n        /* \"#utility.yul\":379:385   */\n      dup2\n        /* \"#utility.yul\":366:386   */\n      calldataload\n        /* \"#utility.yul\":357:386   */\n      swap1\n      pop\n        /* \"#utility.yul\":395:426   */\n      tag_206\n        /* \"#utility.yul\":420:425   */\n      dup2\n        /* \"#utility.yul\":395:426   */\n      tag_207\n      jump\t// in\n    tag_206:\n        /* \"#utility.yul\":297:432   */\n      swap3\n      swap2\n      pop\n      pop\n      jump\t// out\n        /* \"#utility.yul\":438:767   */\n    tag_32:\n        /* \"#utility.yul\":497:503   */\n      0x00\n        /* \"#utility.yul\":546:548   */\n      0x20\n        /* \"#utility.yul\":534:543   */\n      dup3\n        /* \"#utility.yul\":525:532   */\n      dup5\n        /* \"#utility.yul\":521:544   */\n      sub\n        /* \"#utility.yul\":517:549   */\n      slt\n        /* \"#utility.yul\":514:633   */\n      iszero\n      tag_209\n      jumpi\n        /* \"#utility.yul\":552:631   */\n      tag_210\n      tag_211\n      jump\t// in\n    tag_210:\n        /* \"#utility.yul\":514:633   */\n    tag_209:\n        /* \"#utility.yul\":672:673   */\n      0x00\n        /* \"#utility.yul\":697:750   */\n      tag_212\n        /* \"#utility.yul\":742:749   */\n      dup5\n        /* \"#utility.yul\":733:739   */\n      dup3\n        /* \"#utility.yul\":722:731   */\n      dup6\n        /* \"#utility.yul\":718:740   */\n      add\n        /* \"#utility.yul\":697:750   */\n      tag_196\n      jump\t// in\n    tag_212:\n        /* \"#utility.yul\":687:750   */\n      swap2\n      pop\n        /* \"#utility.yul\":643:760   */\n      pop\n        /* \"#utility.yul\":438:767   */\n      swap3\n      swap2\n      pop\n      pop\n      jump\t// out\n        /* \"#utility.yul\":773:1243   */\n    tag_39:\n        /* \"#utility.yul\":839:845   */\n      0x00\n        /* \"#utility.yul\":847:853   */\n      dup1\n        /* \"#utility.yul\":896:898   */\n      0x40\n        /* \"#utility.yul\":884:893   */\n      dup4\n        /* \"#utility.yul\":875:882   */\n      dup6\n        /* \"#utility.yul\":871:894   */\n      sub\n        /* \"#utility.yul\":867:899   */\n      slt\n        /* \"#utility.yul\":864:983   */\n      iszero\n      tag_214\n      jumpi\n        /* \"#utility.yul\":902:981   */\n      tag_215\n      tag_211\n      jump\t// in\n    tag_215:\n        /* \"#utility.yul\":864:983   */\n    tag_214:\n        /* \"#utility.yul\":1022:1023   */\n      0x00\n        /* \"#utility.yul\":1047:1100   */\n      tag_216\n        /* \"#utility.yul\":1092:1099   */\n      dup6\n        /* \"#utility.yul\":1083:1089   */\n      dup3\n        /* \"#utility.yul\":1072:1081   */\n      dup7\n        /* \"#utility.yul\":1068:1090   */\n      add\n        /* \"#utility.yul\":1047:1100   */\n      tag_196\n      jump\t// in\n    tag_216:\n        /* \"#utility.yul\":1037:1100   */\n      swap3\n      pop\n        /* \"#utility.yul\":993:1110   */\n      pop\n        /* \"#utility.yul\":1149:1151   */\n      0x20\n        /* \"#utility.yul\":1175:1226   */\n      tag_217\n        /* \"#utility.yul\":1218:1225   */\n      dup6\n        /* \"#utility.yul\":1209:1215   */\n      dup3\n        /* \"#utility.yul\":1198:1207   */\n      dup7\n        /* \"#utility.yul\":1194:1216   */\n      add\n        /* \"#utility.yul\":1175:1226   */\n      tag_204\n      jump\t// in\n    tag_217:\n        /* \"#utility.yul\":1165:1226   */\n      swap2\n      pop\n        /* \"#utility.yul\":1120:1236   */\n      pop\n        /* \"#utility.yul\":773:1243   */\n      swap3\n      pop\n      swap3\n      swap1\n      pop\n      jump\t// out\n        /* \"#utility.yul\":1249:1578   */\n    tag_27:\n        /* \"#utility.yul\":1308:1314   */\n      0x00\n        /* \"#utility.yul\":1357:1359   */\n      0x20\n        /* \"#utility.yul\":1345:1354   */\n      dup3\n        /* \"#utility.yul\":1336:1343   */\n      dup5\n        /* \"#utility.yul\":1332:1355   */\n      sub\n        /* \"#utility.yul\":1328:1360   */\n      slt\n        /* \"#utility.yul\":1325:1444   */\n      iszero\n      tag_219\n      jumpi\n        /* \"#utility.yul\":1363:1442   */\n      tag_220\n      tag_211\n      jump\t// in\n    tag_220:\n        /* \"#utility.yul\":1325:1444   */\n    tag_219:\n        /* \"#utility.yul\":1483:1484   */\n      0x00\n        /* \"#utility.yul\":1508:1561   */\n      tag_221\n        /* \"#utility.yul\":1553:1560   */\n      dup5\n        /* \"#utility.yul\":1544:1550   */\n      dup3\n        /* \"#utility.yul\":1533:1542   */\n      dup6\n        /* \"#utility.yul\":1529:1551   */\n      add\n        /* \"#utility.yul\":1508:1561   */\n      tag_200\n      jump\t// in\n    tag_221:\n        /* \"#utility.yul\":1498:1561   */\n      swap2\n      pop\n        /* \"#utility.yul\":1454:1571   */\n      pop\n        /* \"#utility.yul\":1249:1578   */\n      swap3\n      swap2\n      pop\n      pop\n      jump\t// out\n        /* \"#utility.yul\":1584:2058   */\n    tag_62:\n        /* \"#utility.yul\":1652:1658   */\n      0x00\n        /* \"#utility.yul\":1660:1666   */\n      dup1\n        /* \"#utility.yul\":1709:1711   */\n      0x40\n        /* \"#utility.yul\":1697:1706   */\n      dup4\n        /* \"#utility.yul\":1688:1695   */\n      dup6\n        /* \"#utility.yul\":1684:1707   */\n      sub\n        /* \"#utility.yul\":1680:1712   */\n      slt\n        /* \"#utility.yul\":1677:1796   */\n      iszero\n      tag_223\n      jumpi\n        /* \"#utility.yul\":1715:1794   */\n      tag_224\n      tag_211\n      jump\t// in\n    tag_224:\n        /* \"#utility.yul\":1677:1796   */\n    tag_223:\n        /* \"#utility.yul\":1835:1836   */\n      0x00\n        /* \"#utility.yul\":1860:1913   */\n      tag_225\n        /* \"#utility.yul\":1905:1912   */\n      dup6\n        /* \"#utility.yul\":1896:1902   */\n      dup3\n        /* \"#utility.yul\":1885:1894   */\n      dup7\n        /* \"#utility.yul\":1881:1903   */\n      add\n        /* \"#utility.yul\":1860:1913   */\n      tag_200\n      jump\t// in\n    tag_225:\n        /* \"#utility.yul\":1850:1913   */\n      swap3\n      pop\n        /* \"#utility.yul\":1806:1923   */\n      pop\n        /* \"#utility.yul\":1962:1964   */\n      0x20\n        /* \"#utility.yul\":1988:2041   */\n      tag_226\n        /* \"#utility.yul\":2033:2040   */\n      dup6\n        /* \"#utility.yul\":2024:2030   */\n      dup3\n        /* \"#utility.yul\":2013:2022   */\n      dup7\n        /* \"#utility.yul\":2009:2031   */\n      add\n        /* \"#utility.yul\":1988:2041   */\n      tag_200\n      jump\t// in\n    tag_226:\n        /* \"#utility.yul\":1978:2041   */\n      swap2\n      pop\n        /* \"#utility.yul\":1933:2051   */\n      pop\n        /* \"#utility.yul\":1584:2058   */\n      swap3\n      pop\n      swap3\n      swap1\n      pop\n      jump\t// out\n        /* \"#utility.yul\":2064:2389   */\n    tag_45:\n        /* \"#utility.yul\":2121:2127   */\n      0x00\n        /* \"#utility.yul\":2170:2172   */\n      0x20\n        /* \"#utility.yul\":2158:2167   */\n      dup3\n        /* \"#utility.yul\":2149:2156   */\n      dup5\n        /* \"#utility.yul\":2145:2168   */\n      sub\n        /* \"#utility.yul\":2141:2173   */\n      slt\n        /* \"#utility.yul\":2138:2257   */\n      iszero\n      tag_228\n      jumpi\n        /* \"#utility.yul\":2176:2255   */\n      tag_229\n      tag_211\n      jump\t// in\n    tag_229:\n        /* \"#utility.yul\":2138:2257   */\n    tag_228:\n        /* \"#utility.yul\":2296:2297   */\n      0x00\n        /* \"#utility.yul\":2321:2372   */\n      tag_230\n        /* \"#utility.yul\":2364:2371   */\n      dup5\n        /* \"#utility.yul\":2355:2361   */\n      dup3\n        /* \"#utility.yul\":2344:2353   */\n      dup6\n        /* \"#utility.yul\":2340:2362   */\n      add\n        /* \"#utility.yul\":2321:2372   */\n      tag_204\n      jump\t// in\n    tag_230:\n        /* \"#utility.yul\":2311:2372   */\n      swap2\n      pop\n        /* \"#utility.yul\":2267:2382   */\n      pop\n        /* \"#utility.yul\":2064:2389   */\n      swap3\n      swap2\n      pop\n      pop\n      jump\t// out\n        /* \"#utility.yul\":2395:2865   */\n    tag_56:\n        /* \"#utility.yul\":2461:2467   */\n      0x00\n        /* \"#utility.yul\":2469:2475   */\n      dup1\n        /* \"#utility.yul\":2518:2520   */\n      0x40\n        /* \"#utility.yul\":2506:2515   */\n      dup4\n        /* \"#utility.yul\":2497:2504   */\n      dup6\n        /* \"#utility.yul\":2493:2516   */\n      sub\n        /* \"#utility.yul\":2489:2521   */\n      slt\n        /* \"#utility.yul\":2486:2605   */\n      iszero\n      tag_232\n      jumpi\n        /* \"#utility.yul\":2524:2603   */\n      tag_233\n      tag_211\n      jump\t// in\n    tag_233:\n        /* \"#utility.yul\":2486:2605   */\n    tag_232:\n        /* \"#utility.yul\":2644:2645   */\n      0x00\n        /* \"#utility.yul\":2669:2720   */\n      tag_234\n        /* \"#utility.yul\":2712:2719   */\n      dup6\n        /* \"#utility.yul\":2703:2709   */\n      dup3\n        /* \"#utility.yul\":2692:2701   */\n      dup7\n        /* \"#utility.yul\":2688:2710   */\n      add\n        /* \"#utility.yul\":2669:2720   */\n      tag_204\n      jump\t// in\n    tag_234:\n        /* \"#utility.yul\":2659:2720   */\n      swap3\n      pop\n        /* \"#utility.yul\":2615:2730   */\n      pop\n        /* \"#utility.yul\":2769:2771   */\n      0x20\n        /* \"#utility.yul\":2795:2848   */\n      tag_235\n        /* \"#utility.yul\":2840:2847   */\n      dup6\n        /* \"#utility.yul\":2831:2837   */\n      dup3\n        /* \"#utility.yul\":2820:2829   */\n      dup7\n        /* \"#utility.yul\":2816:2838   */\n      add\n        /* \"#utility.yul\":2795:2848   */\n      tag_200\n      jump\t// in\n    tag_235:\n        /* \"#utility.yul\":2785:2848   */\n      swap2\n      pop\n        /* \"#utility.yul\":2740:2858   */\n      pop\n        /* \"#utility.yul\":2395:2865   */\n      swap3\n      pop\n      swap3\n      swap1\n      pop\n      jump\t// out\n        /* \"#utility.yul\":2871:3013   */\n    tag_236:\n        /* \"#utility.yul\":2974:3006   */\n      tag_238\n        /* \"#utility.yul\":3000:3005   */\n      dup2\n        /* \"#utility.yul\":2974:3006   */\n      tag_239\n      jump\t// in\n    tag_238:\n        /* \"#utility.yul\":2969:2972   */\n      dup3\n        /* \"#utility.yul\":2962:3007   */\n      mstore\n        /* \"#utility.yul\":2871:3013   */\n      pop\n      pop\n      jump\t// out\n        /* \"#utility.yul\":3019:3137   */\n    tag_240:\n        /* \"#utility.yul\":3106:3130   */\n      tag_242\n        /* \"#utility.yul\":3124:3129   */\n      dup2\n        /* \"#utility.yul\":3106:3130   */\n      tag_243\n      jump\t// in\n    tag_242:\n        /* \"#utility.yul\":3101:3104   */\n      dup3\n        /* \"#utility.yul\":3094:3131   */\n      mstore\n        /* \"#utility.yul\":3019:3137   */\n      pop\n      pop\n      jump\t// out\n        /* \"#utility.yul\":3143:3252   */\n    tag_244:\n        /* \"#utility.yul\":3224:3245   */\n      tag_246\n        /* \"#utility.yul\":3239:3244   */\n      dup2\n        /* \"#utility.yul\":3224:3245   */\n      tag_247\n      jump\t// in\n    tag_246:\n        /* \"#utility.yul\":3219:3222   */\n      dup3\n        /* \"#utility.yul\":3212:3246   */\n      mstore\n        /* \"#utility.yul\":3143:3252   */\n      pop\n      pop\n      jump\t// out\n        /* \"#utility.yul\":3258:3624   */\n    tag_248:\n        /* \"#utility.yul\":3400:3403   */\n      0x00\n        /* \"#utility.yul\":3421:3488   */\n      tag_250\n        /* \"#utility.yul\":3485:3487   */\n      0x0e\n        /* \"#utility.yul\":3480:3483   */\n      dup4\n        /* \"#utility.yul\":3421:3488   */\n      tag_251\n      jump\t// in\n    tag_250:\n        /* \"#utility.yul\":3414:3488   */\n      swap2\n      pop\n        /* \"#utility.yul\":3497:3590   */\n      tag_252\n        /* \"#utility.yul\":3586:3589   */\n      dup3\n        /* \"#utility.yul\":3497:3590   */\n      tag_253\n      jump\t// in\n    tag_252:\n        /* \"#utility.yul\":3615:3617   */\n      0x20\n        /* \"#utility.yul\":3610:3613   */\n      dup3\n        /* \"#utility.yul\":3606:3618   */\n      add\n        /* \"#utility.yul\":3599:3618   */\n      swap1\n      pop\n        /* \"#utility.yul\":3258:3624   */\n      swap2\n      swap1\n      pop\n      jump\t// out\n        /* \"#utility.yul\":3630:4028   */\n    tag_254:\n        /* \"#utility.yul\":3789:3792   */\n      0x00\n        /* \"#utility.yul\":3810:3893   */\n      tag_256\n        /* \"#utility.yul\":3891:3892   */\n      0x00\n        /* \"#utility.yul\":3886:3889   */\n      dup4\n        /* \"#utility.yul\":3810:3893   */\n      tag_257\n      jump\t// in\n    tag_256:\n        /* \"#utility.yul\":3803:3893   */\n      swap2\n      pop\n        /* \"#utility.yul\":3902:3995   */\n      tag_258\n        /* \"#utility.yul\":3991:3994   */\n      dup3\n        /* \"#utility.yul\":3902:3995   */\n      tag_259\n      jump\t// in\n    tag_258:\n        /* \"#utility.yul\":4020:4021   */\n      0x00\n        /* \"#utility.yul\":4015:4018   */\n      dup3\n        /* \"#utility.yul\":4011:4022   */\n      add\n        /* \"#utility.yul\":4004:4022   */\n      swap1\n      pop\n        /* \"#utility.yul\":3630:4028   */\n      swap2\n      swap1\n      pop\n      jump\t// out\n        /* \"#utility.yul\":4034:4400   */\n    tag_260:\n        /* \"#utility.yul\":4176:4179   */\n      0x00\n        /* \"#utility.yul\":4197:4264   */\n      tag_262\n        /* \"#utility.yul\":4261:4263   */\n      0x23\n        /* \"#utility.yul\":4256:4259   */\n      dup4\n        /* \"#utility.yul\":4197:4264   */\n      tag_251\n      jump\t// in\n    tag_262:\n        /* \"#utility.yul\":4190:4264   */\n      swap2\n      pop\n        /* \"#utility.yul\":4273:4366   */\n      tag_263\n        /* \"#utility.yul\":4362:4365   */\n      dup3\n        /* \"#utility.yul\":4273:4366   */\n      tag_264\n      jump\t// in\n    tag_263:\n        /* \"#utility.yul\":4391:4393   */\n      0x40\n        /* \"#utility.yul\":4386:4389   */\n      dup3\n        /* \"#utility.yul\":4382:4394   */\n      add\n        /* \"#utility.yul\":4375:4394   */\n      swap1\n      pop\n        /* \"#utility.yul\":4034:4400   */\n      swap2\n      swap1\n      pop\n      jump\t// out\n        /* \"#utility.yul\":4406:4772   */\n    tag_265:\n        /* \"#utility.yul\":4548:4551   */\n      0x00\n        /* \"#utility.yul\":4569:4636   */\n      tag_267\n        /* \"#utility.yul\":4633:4635   */\n      0x28\n        /* \"#utility.yul\":4628:4631   */\n      dup4\n        /* \"#utility.yul\":4569:4636   */\n      tag_251\n      jump\t// in\n    tag_267:\n        /* \"#utility.yul\":4562:4636   */\n      swap2\n      pop\n        /* \"#utility.yul\":4645:4738   */\n      tag_268\n        /* \"#utility.yul\":4734:4737   */\n      dup3\n        /* \"#utility.yul\":4645:4738   */\n      tag_269\n      jump\t// in\n    tag_268:\n        /* \"#utility.yul\":4763:4765   */\n      0x40\n        /* \"#utility.yul\":4758:4761   */\n      dup3\n        /* \"#utility.yul\":4754:4766   */\n      add\n        /* \"#utility.yul\":4747:4766   */\n      swap1\n      pop\n        /* \"#utility.yul\":4406:4772   */\n      swap2\n      swap1\n      pop\n      jump\t// out\n        /* \"#utility.yul\":4778:5144   */\n    tag_270:\n        /* \"#utility.yul\":4920:4923   */\n      0x00\n        /* \"#utility.yul\":4941:5008   */\n      tag_272\n        /* \"#utility.yul\":5005:5007   */\n      0x0c\n        /* \"#utility.yul\":5000:5003   */\n      dup4\n        /* \"#utility.yul\":4941:5008   */\n      tag_251\n      jump\t// in\n    tag_272:\n        /* \"#utility.yul\":4934:5008   */\n      swap2\n      pop\n        /* \"#utility.yul\":5017:5110   */\n      tag_273\n        /* \"#utility.yul\":5106:5109   */\n      dup3\n        /* \"#utility.yul\":5017:5110   */\n      tag_274\n      jump\t// in\n    tag_273:\n        /* \"#utility.yul\":5135:5137   */\n      0x20\n        /* \"#utility.yul\":5130:5133   */\n      dup3\n        /* \"#utility.yul\":5126:5138   */\n      add\n        /* \"#utility.yul\":5119:5138   */\n      swap1\n      pop\n        /* \"#utility.yul\":4778:5144   */\n      swap2\n      swap1\n      pop\n      jump\t// out\n        /* \"#utility.yul\":5200:5895   */\n    tag_275:\n        /* \"#utility.yul\":5334:5338   */\n      0x40\n        /* \"#utility.yul\":5329:5332   */\n      dup3\n        /* \"#utility.yul\":5325:5339   */\n      add\n        /* \"#utility.yul\":5365:5366   */\n      0x00\n        /* \"#utility.yul\":5447:5451   */\n      dup1\n        /* \"#utility.yul\":5440:5445   */\n      dup4\n        /* \"#utility.yul\":5436:5452   */\n      add\n        /* \"#utility.yul\":5430:5453   */\n      sload\n        /* \"#utility.yul\":5417:5453   */\n      swap1\n      pop\n        /* \"#utility.yul\":5486:5541   */\n      tag_277\n        /* \"#utility.yul\":5531:5540   */\n      dup2\n        /* \"#utility.yul\":5486:5541   */\n      tag_278\n      jump\t// in\n    tag_277:\n        /* \"#utility.yul\":5554:5617   */\n      tag_279\n        /* \"#utility.yul\":5611:5615   */\n      0x00\n        /* \"#utility.yul\":5606:5609   */\n      dup7\n        /* \"#utility.yul\":5602:5616   */\n      add\n        /* \"#utility.yul\":5588:5600   */\n      dup3\n        /* \"#utility.yul\":5554:5617   */\n      tag_280\n      jump\t// in\n    tag_279:\n        /* \"#utility.yul\":5376:5627   */\n      pop\n        /* \"#utility.yul\":5708:5712   */\n      0x01\n        /* \"#utility.yul\":5701:5706   */\n      dup4\n        /* \"#utility.yul\":5697:5713   */\n      add\n        /* \"#utility.yul\":5691:5714   */\n      sload\n        /* \"#utility.yul\":5678:5714   */\n      swap1\n      pop\n        /* \"#utility.yul\":5747:5802   */\n      tag_281\n        /* \"#utility.yul\":5792:5801   */\n      dup2\n        /* \"#utility.yul\":5747:5802   */\n      tag_278\n      jump\t// in\n    tag_281:\n        /* \"#utility.yul\":5815:5878   */\n      tag_282\n        /* \"#utility.yul\":5872:5876   */\n      0x20\n        /* \"#utility.yul\":5867:5870   */\n      dup7\n        /* \"#utility.yul\":5863:5877   */\n      add\n        /* \"#utility.yul\":5849:5861   */\n      dup3\n        /* \"#utility.yul\":5815:5878   */\n      tag_280\n      jump\t// in\n    tag_282:\n        /* \"#utility.yul\":5637:5888   */\n      pop\n        /* \"#utility.yul\":5303:5895   */\n      pop\n      pop\n        /* \"#utility.yul\":5200:5895   */\n      pop\n      pop\n      jump\t// out\n        /* \"#utility.yul\":5901:6009   */\n    tag_280:\n        /* \"#utility.yul\":5978:6002   */\n      tag_284\n        /* \"#utility.yul\":5996:6001   */\n      dup2\n        /* \"#utility.yul\":5978:6002   */\n      tag_285\n      jump\t// in\n    tag_284:\n        /* \"#utility.yul\":5973:5976   */\n      dup3\n        /* \"#utility.yul\":5966:6003   */\n      mstore\n        /* \"#utility.yul\":5901:6009   */\n      pop\n      pop\n      jump\t// out\n        /* \"#utility.yul\":6015:6133   */\n    tag_286:\n        /* \"#utility.yul\":6102:6126   */\n      tag_288\n        /* \"#utility.yul\":6120:6125   */\n      dup2\n        /* \"#utility.yul\":6102:6126   */\n      tag_285\n      jump\t// in\n    tag_288:\n        /* \"#utility.yul\":6097:6100   */\n      dup3\n        /* \"#utility.yul\":6090:6127   */\n      mstore\n        /* \"#utility.yul\":6015:6133   */\n      pop\n      pop\n      jump\t// out\n        /* \"#utility.yul\":6139:6251   */\n    tag_289:\n        /* \"#utility.yul\":6222:6244   */\n      tag_291\n        /* \"#utility.yul\":6238:6243   */\n      dup2\n        /* \"#utility.yul\":6222:6244   */\n      tag_292\n      jump\t// in\n    tag_291:\n        /* \"#utility.yul\":6217:6220   */\n      dup3\n        /* \"#utility.yul\":6210:6245   */\n      mstore\n        /* \"#utility.yul\":6139:6251   */\n      pop\n      pop\n      jump\t// out\n        /* \"#utility.yul\":6257:6636   */\n    tag_154:\n        /* \"#utility.yul\":6441:6444   */\n      0x00\n        /* \"#utility.yul\":6463:6610   */\n      tag_294\n        /* \"#utility.yul\":6606:6609   */\n      dup3\n        /* \"#utility.yul\":6463:6610   */\n      tag_254\n      jump\t// in\n    tag_294:\n        /* \"#utility.yul\":6456:6610   */\n      swap2\n      pop\n        /* \"#utility.yul\":6627:6630   */\n      dup2\n        /* \"#utility.yul\":6620:6630   */\n      swap1\n      pop\n        /* \"#utility.yul\":6257:6636   */\n      swap2\n      swap1\n      pop\n      jump\t// out\n        /* \"#utility.yul\":6642:6864   */\n    tag_90:\n        /* \"#utility.yul\":6735:6739   */\n      0x00\n        /* \"#utility.yul\":6773:6775   */\n      0x20\n        /* \"#utility.yul\":6762:6771   */\n      dup3\n        /* \"#utility.yul\":6758:6776   */\n      add\n        /* \"#utility.yul\":6750:6776   */\n      swap1\n      pop\n        /* \"#utility.yul\":6786:6857   */\n      tag_296\n        /* \"#utility.yul\":6854:6855   */\n      0x00\n        /* \"#utility.yul\":6843:6852   */\n      dup4\n        /* \"#utility.yul\":6839:6856   */\n      add\n        /* \"#utility.yul\":6830:6836   */\n      dup5\n        /* \"#utility.yul\":6786:6857   */\n      tag_240\n      jump\t// in\n    tag_296:\n        /* \"#utility.yul\":6642:6864   */\n      swap3\n      swap2\n      pop\n      pop\n      jump\t// out\n        /* \"#utility.yul\":6870:7080   */\n    tag_42:\n        /* \"#utility.yul\":6957:6961   */\n      0x00\n        /* \"#utility.yul\":6995:6997   */\n      0x20\n        /* \"#utility.yul\":6984:6993   */\n      dup3\n        /* \"#utility.yul\":6980:6998   */\n      add\n        /* \"#utility.yul\":6972:6998   */\n      swap1\n      pop\n        /* \"#utility.yul\":7008:7073   */\n      tag_298\n        /* \"#utility.yul\":7070:7071   */\n      0x00\n        /* \"#utility.yul\":7059:7068   */\n      dup4\n        /* \"#utility.yul\":7055:7072   */\n      add\n        /* \"#utility.yul\":7046:7052   */\n      dup5\n        /* \"#utility.yul\":7008:7073   */\n      tag_244\n      jump\t// in\n    tag_298:\n        /* \"#utility.yul\":6870:7080   */\n      swap3\n      swap2\n      pop\n      pop\n      jump\t// out\n        /* \"#utility.yul\":7086:7505   */\n    tag_107:\n        /* \"#utility.yul\":7252:7256   */\n      0x00\n        /* \"#utility.yul\":7290:7292   */\n      0x20\n        /* \"#utility.yul\":7279:7288   */\n      dup3\n        /* \"#utility.yul\":7275:7293   */\n      add\n        /* \"#utility.yul\":7267:7293   */\n      swap1\n      pop\n        /* \"#utility.yul\":7339:7348   */\n      dup2\n        /* \"#utility.yul\":7333:7337   */\n      dup2\n        /* \"#utility.yul\":7329:7349   */\n      sub\n        /* \"#utility.yul\":7325:7326   */\n      0x00\n        /* \"#utility.yul\":7314:7323   */\n      dup4\n        /* \"#utility.yul\":7310:7327   */\n      add\n        /* \"#utility.yul\":7303:7350   */\n      mstore\n        /* \"#utility.yul\":7367:7498   */\n      tag_300\n        /* \"#utility.yul\":7493:7497   */\n      dup2\n        /* \"#utility.yul\":7367:7498   */\n      tag_248\n      jump\t// in\n    tag_300:\n        /* \"#utility.yul\":7359:7498   */\n      swap1\n      pop\n        /* \"#utility.yul\":7086:7505   */\n      swap2\n      swap1\n      pop\n      jump\t// out\n        /* \"#utility.yul\":7511:7930   */\n    tag_136:\n        /* \"#utility.yul\":7677:7681   */\n      0x00\n        /* \"#utility.yul\":7715:7717   */\n      0x20\n        /* \"#utility.yul\":7704:7713   */\n      dup3\n        /* \"#utility.yul\":7700:7718   */\n      add\n        /* \"#utility.yul\":7692:7718   */\n      swap1\n      pop\n        /* \"#utility.yul\":7764:7773   */\n      dup2\n        /* \"#utility.yul\":7758:7762   */\n      dup2\n        /* \"#utility.yul\":7754:7774   */\n      sub\n        /* \"#utility.yul\":7750:7751   */\n      0x00\n        /* \"#utility.yul\":7739:7748   */\n      dup4\n        /* \"#utility.yul\":7735:7752   */\n      add\n        /* \"#utility.yul\":7728:7775   */\n      mstore\n        /* \"#utility.yul\":7792:7923   */\n      tag_302\n        /* \"#utility.yul\":7918:7922   */\n      dup2\n        /* \"#utility.yul\":7792:7923   */\n      tag_260\n      jump\t// in\n    tag_302:\n        /* \"#utility.yul\":7784:7923   */\n      swap1\n      pop\n        /* \"#utility.yul\":7511:7930   */\n      swap2\n      swap1\n      pop\n      jump\t// out\n        /* \"#utility.yul\":7936:8355   */\n    tag_117:\n        /* \"#utility.yul\":8102:8106   */\n      0x00\n        /* \"#utility.yul\":8140:8142   */\n      0x20\n        /* \"#utility.yul\":8129:8138   */\n      dup3\n        /* \"#utility.yul\":8125:8143   */\n      add\n        /* \"#utility.yul\":8117:8143   */\n      swap1\n      pop\n        /* \"#utility.yul\":8189:8198   */\n      dup2\n        /* \"#utility.yul\":8183:8187   */\n      dup2\n        /* \"#utility.yul\":8179:8199   */\n      sub\n        /* \"#utility.yul\":8175:8176   */\n      0x00\n        /* \"#utility.yul\":8164:8173   */\n      dup4\n        /* \"#utility.yul\":8160:8177   */\n      add\n        /* \"#utility.yul\":8153:8200   */\n      mstore\n        /* \"#utility.yul\":8217:8348   */\n      tag_304\n        /* \"#utility.yul\":8343:8347   */\n      dup2\n        /* \"#utility.yul\":8217:8348   */\n      tag_265\n      jump\t// in\n    tag_304:\n        /* \"#utility.yul\":8209:8348   */\n      swap1\n      pop\n        /* \"#utility.yul\":7936:8355   */\n      swap2\n      swap1\n      pop\n      jump\t// out\n        /* \"#utility.yul\":8361:8780   */\n    tag_113:\n        /* \"#utility.yul\":8527:8531   */\n      0x00\n        /* \"#utility.yul\":8565:8567   */\n      0x20\n        /* \"#utility.yul\":8554:8563   */\n      dup3\n        /* \"#utility.yul\":8550:8568   */\n      add\n        /* \"#utility.yul\":8542:8568   */\n      swap1\n      pop\n        /* \"#utility.yul\":8614:8623   */\n      dup2\n        /* \"#utility.yul\":8608:8612   */\n      dup2\n        /* \"#utility.yul\":8604:8624   */\n      sub\n        /* \"#utility.yul\":8600:8601   */\n      0x00\n        /* \"#utility.yul\":8589:8598   */\n      dup4\n        /* \"#utility.yul\":8585:8602   */\n      add\n        /* \"#utility.yul\":8578:8625   */\n      mstore\n        /* \"#utility.yul\":8642:8773   */\n      tag_306\n        /* \"#utility.yul\":8768:8772   */\n      dup2\n        /* \"#utility.yul\":8642:8773   */\n      tag_270\n      jump\t// in\n    tag_306:\n        /* \"#utility.yul\":8634:8773   */\n      swap1\n      pop\n        /* \"#utility.yul\":8361:8780   */\n      swap2\n      swap1\n      pop\n      jump\t// out\n        /* \"#utility.yul\":8786:9082   */\n    tag_130:\n        /* \"#utility.yul\":8916:8920   */\n      0x00\n        /* \"#utility.yul\":8954:8956   */\n      0x40\n        /* \"#utility.yul\":8943:8952   */\n      dup3\n        /* \"#utility.yul\":8939:8957   */\n      add\n        /* \"#utility.yul\":8931:8957   */\n      swap1\n      pop\n        /* \"#utility.yul\":8967:9075   */\n      tag_308\n        /* \"#utility.yul\":9072:9073   */\n      0x00\n        /* \"#utility.yul\":9061:9070   */\n      dup4\n        /* \"#utility.yul\":9057:9074   */\n      add\n        /* \"#utility.yul\":9048:9054   */\n      dup5\n        /* \"#utility.yul\":8967:9075   */\n      tag_275\n      jump\t// in\n    tag_308:\n        /* \"#utility.yul\":8786:9082   */\n      swap3\n      swap2\n      pop\n      pop\n      jump\t// out\n        /* \"#utility.yul\":9088:9593   */\n    tag_160:\n        /* \"#utility.yul\":9268:9272   */\n      0x00\n        /* \"#utility.yul\":9306:9309   */\n      0x80\n        /* \"#utility.yul\":9295:9304   */\n      dup3\n        /* \"#utility.yul\":9291:9310   */\n      add\n        /* \"#utility.yul\":9283:9310   */\n      swap1\n      pop\n        /* \"#utility.yul\":9320:9428   */\n      tag_310\n        /* \"#utility.yul\":9425:9426   */\n      0x00\n        /* \"#utility.yul\":9414:9423   */\n      dup4\n        /* \"#utility.yul\":9410:9427   */\n      add\n        /* \"#utility.yul\":9401:9407   */\n      dup7\n        /* \"#utility.yul\":9320:9428   */\n      tag_275\n      jump\t// in\n    tag_310:\n        /* \"#utility.yul\":9438:9510   */\n      tag_311\n        /* \"#utility.yul\":9506:9508   */\n      0x40\n        /* \"#utility.yul\":9495:9504   */\n      dup4\n        /* \"#utility.yul\":9491:9509   */\n      add\n        /* \"#utility.yul\":9482:9488   */\n      dup6\n        /* \"#utility.yul\":9438:9510   */\n      tag_240\n      jump\t// in\n    tag_311:\n        /* \"#utility.yul\":9520:9586   */\n      tag_312\n        /* \"#utility.yul\":9582:9584   */\n      0x60\n        /* \"#utility.yul\":9571:9580   */\n      dup4\n        /* \"#utility.yul\":9567:9585   */\n      add\n        /* \"#utility.yul\":9558:9564   */\n      dup5\n        /* \"#utility.yul\":9520:9586   */\n      tag_244\n      jump\t// in\n    tag_312:\n        /* \"#utility.yul\":9088:9593   */\n      swap5\n      swap4\n      pop\n      pop\n      pop\n      pop\n      jump\t// out\n        /* \"#utility.yul\":9599:10227   */\n    tag_169:\n        /* \"#utility.yul\":9813:9817   */\n      0x00\n        /* \"#utility.yul\":9851:9854   */\n      0xa0\n        /* \"#utility.yul\":9840:9849   */\n      dup3\n        /* \"#utility.yul\":9836:9855   */\n      add\n        /* \"#utility.yul\":9828:9855   */\n      swap1\n      pop\n        /* \"#utility.yul\":9865:9973   */\n      tag_314\n        /* \"#utility.yul\":9970:9971   */\n      0x00\n        /* \"#utility.yul\":9959:9968   */\n      dup4\n        /* \"#utility.yul\":9955:9972   */\n      add\n        /* \"#utility.yul\":9946:9952   */\n      dup8\n        /* \"#utility.yul\":9865:9973   */\n      tag_275\n      jump\t// in\n    tag_314:\n        /* \"#utility.yul\":9983:10055   */\n      tag_315\n        /* \"#utility.yul\":10051:10053   */\n      0x40\n        /* \"#utility.yul\":10040:10049   */\n      dup4\n        /* \"#utility.yul\":10036:10054   */\n      add\n        /* \"#utility.yul\":10027:10033   */\n      dup7\n        /* \"#utility.yul\":9983:10055   */\n      tag_286\n      jump\t// in\n    tag_315:\n        /* \"#utility.yul\":10065:10137   */\n      tag_316\n        /* \"#utility.yul\":10133:10135   */\n      0x60\n        /* \"#utility.yul\":10122:10131   */\n      dup4\n        /* \"#utility.yul\":10118:10136   */\n      add\n        /* \"#utility.yul\":10109:10115   */\n      dup6\n        /* \"#utility.yul\":10065:10137   */\n      tag_286\n      jump\t// in\n    tag_316:\n        /* \"#utility.yul\":10147:10220   */\n      tag_317\n        /* \"#utility.yul\":10215:10218   */\n      0x80\n        /* \"#utility.yul\":10204:10213   */\n      dup4\n        /* \"#utility.yul\":10200:10219   */\n      add\n        /* \"#utility.yul\":10191:10197   */\n      dup5\n        /* \"#utility.yul\":10147:10220   */\n      tag_286\n      jump\t// in\n    tag_317:\n        /* \"#utility.yul\":9599:10227   */\n      swap6\n      swap5\n      pop\n      pop\n      pop\n      pop\n      pop\n      jump\t// out\n        /* \"#utility.yul\":10233:10455   */\n    tag_52:\n        /* \"#utility.yul\":10326:10330   */\n      0x00\n        /* \"#utility.yul\":10364:10366   */\n      0x20\n        /* \"#utility.yul\":10353:10362   */\n      dup3\n        /* \"#utility.yul\":10349:10367   */\n      add\n        /* \"#utility.yul\":10341:10367   */\n      swap1\n      pop\n        /* \"#utility.yul\":10377:10448   */\n      tag_319\n        /* \"#utility.yul\":10445:10446   */\n      0x00\n        /* \"#utility.yul\":10434:10443   */\n      dup4\n        /* \"#utility.yul\":10430:10447   */\n      add\n        /* \"#utility.yul\":10421:10427   */\n      dup5\n        /* \"#utility.yul\":10377:10448   */\n      tag_286\n      jump\t// in\n    tag_319:\n        /* \"#utility.yul\":10233:10455   */\n      swap3\n      swap2\n      pop\n      pop\n      jump\t// out\n        /* \"#utility.yul\":10461:10935   */\n    tag_35:\n        /* \"#utility.yul\":10626:10630   */\n      0x00\n        /* \"#utility.yul\":10664:10666   */\n      0x60\n        /* \"#utility.yul\":10653:10662   */\n      dup3\n        /* \"#utility.yul\":10649:10667   */\n      add\n        /* \"#utility.yul\":10641:10667   */\n      swap1\n      pop\n        /* \"#utility.yul\":10677:10748   */\n      tag_321\n        /* \"#utility.yul\":10745:10746   */\n      0x00\n        /* \"#utility.yul\":10734:10743   */\n      dup4\n        /* \"#utility.yul\":10730:10747   */\n      add\n        /* \"#utility.yul\":10721:10727   */\n      dup7\n        /* \"#utility.yul\":10677:10748   */\n      tag_286\n      jump\t// in\n    tag_321:\n        /* \"#utility.yul\":10758:10846   */\n      tag_322\n        /* \"#utility.yul\":10842:10844   */\n      0x20\n        /* \"#utility.yul\":10831:10840   */\n      dup4\n        /* \"#utility.yul\":10827:10845   */\n      add\n        /* \"#utility.yul\":10818:10824   */\n      dup6\n        /* \"#utility.yul\":10758:10846   */\n      tag_236\n      jump\t// in\n    tag_322:\n        /* \"#utility.yul\":10856:10928   */\n      tag_323\n        /* \"#utility.yul\":10924:10926   */\n      0x40\n        /* \"#utility.yul\":10913:10922   */\n      dup4\n        /* \"#utility.yul\":10909:10927   */\n      add\n        /* \"#utility.yul\":10900:10906   */\n      dup5\n        /* \"#utility.yul\":10856:10928   */\n      tag_286\n      jump\t// in\n    tag_323:\n        /* \"#utility.yul\":10461:10935   */\n      swap5\n      swap4\n      pop\n      pop\n      pop\n      pop\n      jump\t// out\n        /* \"#utility.yul\":10941:11273   */\n    tag_69:\n        /* \"#utility.yul\":11062:11066   */\n      0x00\n        /* \"#utility.yul\":11100:11102   */\n      0x40\n        /* \"#utility.yul\":11089:11098   */\n      dup3\n        /* \"#utility.yul\":11085:11103   */\n      add\n        /* \"#utility.yul\":11077:11103   */\n      swap1\n      pop\n        /* \"#utility.yul\":11113:11184   */\n      tag_325\n        /* \"#utility.yul\":11181:11182   */\n      0x00\n        /* \"#utility.yul\":11170:11179   */\n      dup4\n        /* \"#utility.yul\":11166:11183   */\n      add\n        /* \"#utility.yul\":11157:11163   */\n      dup6\n        /* \"#utility.yul\":11113:11184   */\n      tag_286\n      jump\t// in\n    tag_325:\n        /* \"#utility.yul\":11194:11266   */\n      tag_326\n        /* \"#utility.yul\":11262:11264   */\n      0x20\n        /* \"#utility.yul\":11251:11260   */\n      dup4\n        /* \"#utility.yul\":11247:11265   */\n      add\n        /* \"#utility.yul\":11238:11244   */\n      dup5\n        /* \"#utility.yul\":11194:11266   */\n      tag_286\n      jump\t// in\n    tag_326:\n        /* \"#utility.yul\":10941:11273   */\n      swap4\n      swap3\n      pop\n      pop\n      pop\n      jump\t// out\n        /* \"#utility.yul\":11279:11493   */\n    tag_84:\n        /* \"#utility.yul\":11368:11372   */\n      0x00\n        /* \"#utility.yul\":11406:11408   */\n      0x20\n        /* \"#utility.yul\":11395:11404   */\n      dup3\n        /* \"#utility.yul\":11391:11409   */\n      add\n        /* \"#utility.yul\":11383:11409   */\n      swap1\n      pop\n        /* \"#utility.yul\":11419:11486   */\n      tag_328\n        /* \"#utility.yul\":11483:11484   */\n      0x00\n        /* \"#utility.yul\":11472:11481   */\n      dup4\n        /* \"#utility.yul\":11468:11485   */\n      add\n        /* \"#utility.yul\":11459:11465   */\n      dup5\n        /* \"#utility.yul\":11419:11486   */\n      tag_289\n      jump\t// in\n    tag_328:\n        /* \"#utility.yul\":11279:11493   */\n      swap3\n      swap2\n      pop\n      pop\n      jump\t// out\n        /* \"#utility.yul\":11580:11727   */\n    tag_257:\n        /* \"#utility.yul\":11681:11692   */\n      0x00\n        /* \"#utility.yul\":11718:11721   */\n      dup2\n        /* \"#utility.yul\":11703:11721   */\n      swap1\n      pop\n        /* \"#utility.yul\":11580:11727   */\n      swap3\n      swap2\n      pop\n      pop\n      jump\t// out\n        /* \"#utility.yul\":11733:11902   */\n    tag_251:\n        /* \"#utility.yul\":11817:11828   */\n      0x00\n        /* \"#utility.yul\":11851:11857   */\n      dup3\n        /* \"#utility.yul\":11846:11849   */\n      dup3\n        /* \"#utility.yul\":11839:11858   */\n      mstore\n        /* \"#utility.yul\":11891:11895   */\n      0x20\n        /* \"#utility.yul\":11886:11889   */\n      dup3\n        /* \"#utility.yul\":11882:11896   */\n      add\n        /* \"#utility.yul\":11867:11896   */\n      swap1\n      pop\n        /* \"#utility.yul\":11733:11902   */\n      swap3\n      swap2\n      pop\n      pop\n      jump\t// out\n        /* \"#utility.yul\":11908:12213   */\n    tag_119:\n        /* \"#utility.yul\":11948:11951   */\n      0x00\n        /* \"#utility.yul\":11967:11987   */\n      tag_334\n        /* \"#utility.yul\":11985:11986   */\n      dup3\n        /* \"#utility.yul\":11967:11987   */\n      tag_285\n      jump\t// in\n    tag_334:\n        /* \"#utility.yul\":11962:11987   */\n      swap2\n      pop\n        /* \"#utility.yul\":12001:12021   */\n      tag_335\n        /* \"#utility.yul\":12019:12020   */\n      dup4\n        /* \"#utility.yul\":12001:12021   */\n      tag_285\n      jump\t// in\n    tag_335:\n        /* \"#utility.yul\":11996:12021   */\n      swap3\n      pop\n        /* \"#utility.yul\":12155:12156   */\n      dup3\n        /* \"#utility.yul\":12087:12153   */\n      0xffffffffffffffffffffffffffffffffffffffffffffffffffffffffffffffff\n        /* \"#utility.yul\":12083:12157   */\n      sub\n        /* \"#utility.yul\":12080:12081   */\n      dup3\n        /* \"#utility.yul\":12077:12158   */\n      gt\n        /* \"#utility.yul\":12074:12181   */\n      iszero\n      tag_336\n      jumpi\n        /* \"#utility.yul\":12161:12179   */\n      tag_337\n      tag_338\n      jump\t// in\n    tag_337:\n        /* \"#utility.yul\":12074:12181   */\n    tag_336:\n        /* \"#utility.yul\":12205:12206   */\n      dup3\n        /* \"#utility.yul\":12202:12203   */\n      dup3\n        /* \"#utility.yul\":12198:12207   */\n      add\n        /* \"#utility.yul\":12191:12207   */\n      swap1\n      pop\n        /* \"#utility.yul\":11908:12213   */\n      swap3\n      swap2\n      pop\n      pop\n      jump\t// out\n        /* \"#utility.yul\":12219:12456   */\n    tag_101:\n        /* \"#utility.yul\":12257:12260   */\n      0x00\n        /* \"#utility.yul\":12276:12294   */\n      tag_340\n        /* \"#utility.yul\":12292:12293   */\n      dup3\n        /* \"#utility.yul\":12276:12294   */\n      tag_292\n      jump\t// in\n    tag_340:\n        /* \"#utility.yul\":12271:12294   */\n      swap2\n      pop\n        /* \"#utility.yul\":12308:12326   */\n      tag_341\n        /* \"#utility.yul\":12324:12325   */\n      dup4\n        /* \"#utility.yul\":12308:12326   */\n      tag_292\n      jump\t// in\n    tag_341:\n        /* \"#utility.yul\":12303:12326   */\n      swap3\n      pop\n        /* \"#utility.yul\":12398:12399   */\n      dup3\n        /* \"#utility.yul\":12392:12396   */\n      0xff\n        /* \"#utility.yul\":12388:12400   */\n      sub\n        /* \"#utility.yul\":12385:12386   */\n      dup3\n        /* \"#utility.yul\":12382:12401   */\n      gt\n        /* \"#utility.yul\":12379:12424   */\n      iszero\n      tag_342\n      jumpi\n        /* \"#utility.yul\":12404:12422   */\n      tag_343\n      tag_338\n      jump\t// in\n    tag_343:\n        /* \"#utility.yul\":12379:12424   */\n    tag_342:\n        /* \"#utility.yul\":12448:12449   */\n      dup3\n        /* \"#utility.yul\":12445:12446   */\n      dup3\n        /* \"#utility.yul\":12441:12450   */\n      add\n        /* \"#utility.yul\":12434:12450   */\n      swap1\n      pop\n        /* \"#utility.yul\":12219:12456   */\n      swap3\n      swap2\n      pop\n      pop\n      jump\t// out\n        /* \"#utility.yul\":12462:12647   */\n    tag_143:\n        /* \"#utility.yul\":12502:12503   */\n      0x00\n        /* \"#utility.yul\":12519:12539   */\n      tag_345\n        /* \"#utility.yul\":12537:12538   */\n      dup3\n        /* \"#utility.yul\":12519:12539   */\n      tag_285\n      jump\t// in\n    tag_345:\n        /* \"#utility.yul\":12514:12539   */\n      swap2\n      pop\n        /* \"#utility.yul\":12553:12573   */\n      tag_346\n        /* \"#utility.yul\":12571:12572   */\n      dup4\n        /* \"#utility.yul\":12553:12573   */\n      tag_285\n      jump\t// in\n    tag_346:\n        /* \"#utility.yul\":12548:12573   */\n      swap3\n      pop\n        /* \"#utility.yul\":12592:12593   */\n      dup3\n        /* \"#utility.yul\":12582:12617   */\n      tag_347\n      jumpi\n        /* \"#utility.yul\":12597:12615   */\n      tag_348\n      tag_349\n      jump\t// in\n    tag_348:\n        /* \"#utility.yul\":12582:12617   */\n    tag_347:\n        /* \"#utility.yul\":12639:12640   */\n      dup3\n        /* \"#utility.yul\":12636:12637   */\n      dup3\n        /* \"#utility.yul\":12632:12641   */\n      div\n        /* \"#utility.yul\":12627:12641   */\n      swap1\n      pop\n        /* \"#utility.yul\":12462:12647   */\n      swap3\n      swap2\n      pop\n      pop\n      jump\t// out\n        /* \"#utility.yul\":12653:13001   */\n    tag_151:\n        /* \"#utility.yul\":12693:12700   */\n      0x00\n        /* \"#utility.yul\":12716:12736   */\n      tag_351\n        /* \"#utility.yul\":12734:12735   */\n      dup3\n        /* \"#utility.yul\":12716:12736   */\n      tag_285\n      jump\t// in\n    tag_351:\n        /* \"#utility.yul\":12711:12736   */\n      swap2\n      pop\n        /* \"#utility.yul\":12750:12770   */\n      tag_352\n        /* \"#utility.yul\":12768:12769   */\n      dup4\n        /* \"#utility.yul\":12750:12770   */\n      tag_285\n      jump\t// in\n    tag_352:\n        /* \"#utility.yul\":12745:12770   */\n      swap3\n      pop\n        /* \"#utility.yul\":12938:12939   */\n      dup2\n        /* \"#utility.yul\":12870:12936   */\n      0xffffffffffffffffffffffffffffffffffffffffffffffffffffffffffffffff\n        /* \"#utility.yul\":12866:12940   */\n      div\n        /* \"#utility.yul\":12863:12864   */\n      dup4\n        /* \"#utility.yul\":12860:12941   */\n      gt\n        /* \"#utility.yul\":12855:12856   */\n      dup3\n        /* \"#utility.yul\":12848:12857   */\n      iszero\n        /* \"#utility.yul\":12841:12858   */\n      iszero\n        /* \"#utility.yul\":12837:12942   */\n      and\n        /* \"#utility.yul\":12834:12965   */\n      iszero\n      tag_353\n      jumpi\n        /* \"#utility.yul\":12945:12963   */\n      tag_354\n      tag_338\n      jump\t// in\n    tag_354:\n        /* \"#utility.yul\":12834:12965   */\n    tag_353:\n        /* \"#utility.yul\":12993:12994   */\n      dup3\n        /* \"#utility.yul\":12990:12991   */\n      dup3\n        /* \"#utility.yul\":12986:12995   */\n      mul\n        /* \"#utility.yul\":12975:12995   */\n      swap1\n      pop\n        /* \"#utility.yul\":12653:13001   */\n      swap3\n      swap2\n      pop\n      pop\n      jump\t// out\n        /* \"#utility.yul\":13007:13198   */\n    tag_139:\n        /* \"#utility.yul\":13047:13051   */\n      0x00\n        /* \"#utility.yul\":13067:13087   */\n      tag_356\n        /* \"#utility.yul\":13085:13086   */\n      dup3\n        /* \"#utility.yul\":13067:13087   */\n      tag_285\n      jump\t// in\n    tag_356:\n        /* \"#utility.yul\":13062:13087   */\n      swap2\n      pop\n        /* \"#utility.yul\":13101:13121   */\n      tag_357\n        /* \"#utility.yul\":13119:13120   */\n      dup4\n        /* \"#utility.yul\":13101:13121   */\n      tag_285\n      jump\t// in\n    tag_357:\n        /* \"#utility.yul\":13096:13121   */\n      swap3\n      pop\n        /* \"#utility.yul\":13140:13141   */\n      dup3\n        /* \"#utility.yul\":13137:13138   */\n      dup3\n        /* \"#utility.yul\":13134:13142   */\n      lt\n        /* \"#utility.yul\":13131:13165   */\n      iszero\n      tag_358\n      jumpi\n        /* \"#utility.yul\":13145:13163   */\n      tag_359\n      tag_338\n      jump\t// in\n    tag_359:\n        /* \"#utility.yul\":13131:13165   */\n    tag_358:\n        /* \"#utility.yul\":13190:13191   */\n      dup3\n        /* \"#utility.yul\":13187:13188   */\n      dup3\n        /* \"#utility.yul\":13183:13192   */\n      sub\n        /* \"#utility.yul\":13175:13192   */\n      swap1\n      pop\n        /* \"#utility.yul\":13007:13198   */\n      swap3\n      swap2\n      pop\n      pop\n      jump\t// out\n        /* \"#utility.yul\":13204:13294   */\n    tag_360:\n        /* \"#utility.yul\":13254:13261   */\n      0x00\n        /* \"#utility.yul\":13283:13288   */\n      dup2\n        /* \"#utility.yul\":13272:13288   */\n      swap1\n      pop\n        /* \"#utility.yul\":13204:13294   */\n      swap2\n      swap1\n      pop\n      jump\t// out\n        /* \"#utility.yul\":13300:13396   */\n    tag_243:\n        /* \"#utility.yul\":13337:13344   */\n      0x00\n        /* \"#utility.yul\":13366:13390   */\n      tag_363\n        /* \"#utility.yul\":13384:13389   */\n      dup3\n        /* \"#utility.yul\":13366:13390   */\n      tag_364\n      jump\t// in\n    tag_363:\n        /* \"#utility.yul\":13355:13390   */\n      swap1\n      pop\n        /* \"#utility.yul\":13300:13396   */\n      swap2\n      swap1\n      pop\n      jump\t// out\n        /* \"#utility.yul\":13402:13506   */\n    tag_239:\n        /* \"#utility.yul\":13447:13454   */\n      0x00\n        /* \"#utility.yul\":13476:13500   */\n      tag_366\n        /* \"#utility.yul\":13494:13499   */\n      dup3\n        /* \"#utility.yul\":13476:13500   */\n      tag_364\n      jump\t// in\n    tag_366:\n        /* \"#utility.yul\":13465:13500   */\n      swap1\n      pop\n        /* \"#utility.yul\":13402:13506   */\n      swap2\n      swap1\n      pop\n      jump\t// out\n        /* \"#utility.yul\":13512:13602   */\n    tag_247:\n        /* \"#utility.yul\":13546:13553   */\n      0x00\n        /* \"#utility.yul\":13589:13594   */\n      dup2\n        /* \"#utility.yul\":13582:13595   */\n      iszero\n        /* \"#utility.yul\":13575:13596   */\n      iszero\n        /* \"#utility.yul\":13564:13596   */\n      swap1\n      pop\n        /* \"#utility.yul\":13512:13602   */\n      swap2\n      swap1\n      pop\n      jump\t// out\n        /* \"#utility.yul\":13608:13734   */\n    tag_364:\n        /* \"#utility.yul\":13645:13652   */\n      0x00\n        /* \"#utility.yul\":13685:13727   */\n      0xffffffffffffffffffffffffffffffffffffffff\n        /* \"#utility.yul\":13678:13683   */\n      dup3\n        /* \"#utility.yul\":13674:13728   */\n      and\n        /* \"#utility.yul\":13663:13728   */\n      swap1\n      pop\n        /* \"#utility.yul\":13608:13734   */\n      swap2\n      swap1\n      pop\n      jump\t// out\n        /* \"#utility.yul\":13740:13817   */\n    tag_285:\n        /* \"#utility.yul\":13777:13784   */\n      0x00\n        /* \"#utility.yul\":13806:13811   */\n      dup2\n        /* \"#utility.yul\":13795:13811   */\n      swap1\n      pop\n        /* \"#utility.yul\":13740:13817   */\n      swap2\n      swap1\n      pop\n      jump\t// out\n        /* \"#utility.yul\":13823:13909   */\n    tag_292:\n        /* \"#utility.yul\":13858:13865   */\n      0x00\n        /* \"#utility.yul\":13898:13902   */\n      0xff\n        /* \"#utility.yul\":13891:13896   */\n      dup3\n        /* \"#utility.yul\":13887:13903   */\n      and\n        /* \"#utility.yul\":13876:13903   */\n      swap1\n      pop\n        /* \"#utility.yul\":13823:13909   */\n      swap2\n      swap1\n      pop\n      jump\t// out\n        /* \"#utility.yul\":13915:14081   */\n    tag_278:\n        /* \"#utility.yul\":13984:13989   */\n      0x00\n        /* \"#utility.yul\":14009:14075   */\n      tag_372\n        /* \"#utility.yul\":14040:14074   */\n      tag_373\n        /* \"#utility.yul\":14063:14073   */\n      dup4\n        /* \"#utility.yul\":14040:14074   */\n      tag_374\n      jump\t// in\n    tag_373:\n        /* \"#utility.yul\":14009:14075   */\n      tag_360\n      jump\t// in\n    tag_372:\n        /* \"#utility.yul\":14000:14075   */\n      swap1\n      pop\n        /* \"#utility.yul\":13915:14081   */\n      swap2\n      swap1\n      pop\n      jump\t// out\n        /* \"#utility.yul\":14087:14254   */\n    tag_104:\n        /* \"#utility.yul\":14124:14127   */\n      0x00\n        /* \"#utility.yul\":14147:14169   */\n      tag_376\n        /* \"#utility.yul\":14163:14168   */\n      dup3\n        /* \"#utility.yul\":14147:14169   */\n      tag_292\n      jump\t// in\n    tag_376:\n        /* \"#utility.yul\":14138:14169   */\n      swap2\n      pop\n        /* \"#utility.yul\":14191:14195   */\n      0xff\n        /* \"#utility.yul\":14184:14189   */\n      dup3\n        /* \"#utility.yul\":14181:14196   */\n      eq\n        /* \"#utility.yul\":14178:14219   */\n      iszero\n      tag_377\n      jumpi\n        /* \"#utility.yul\":14199:14217   */\n      tag_378\n      tag_338\n      jump\t// in\n    tag_378:\n        /* \"#utility.yul\":14178:14219   */\n    tag_377:\n        /* \"#utility.yul\":14246:14247   */\n      0x01\n        /* \"#utility.yul\":14239:14244   */\n      dup3\n        /* \"#utility.yul\":14235:14248   */\n      add\n        /* \"#utility.yul\":14228:14248   */\n      swap1\n      pop\n        /* \"#utility.yul\":14087:14254   */\n      swap2\n      swap1\n      pop\n      jump\t// out\n        /* \"#utility.yul\":14260:14440   */\n    tag_338:\n        /* \"#utility.yul\":14308:14385   */\n      0x4e487b7100000000000000000000000000000000000000000000000000000000\n        /* \"#utility.yul\":14305:14306   */\n      0x00\n        /* \"#utility.yul\":14298:14386   */\n      mstore\n        /* \"#utility.yul\":14405:14409   */\n      0x11\n        /* \"#utility.yul\":14402:14403   */\n      0x04\n        /* \"#utility.yul\":14395:14410   */\n      mstore\n        /* \"#utility.yul\":14429:14433   */\n      0x24\n        /* \"#utility.yul\":14426:14427   */\n      0x00\n        /* \"#utility.yul\":14419:14434   */\n      revert\n        /* \"#utility.yul\":14446:14626   */\n    tag_349:\n        /* \"#utility.yul\":14494:14571   */\n      0x4e487b7100000000000000000000000000000000000000000000000000000000\n        /* \"#utility.yul\":14491:14492   */\n      0x00\n        /* \"#utility.yul\":14484:14572   */\n      mstore\n        /* \"#utility.yul\":14591:14595   */\n      0x12\n        /* \"#utility.yul\":14588:14589   */\n      0x04\n        /* \"#utility.yul\":14581:14596   */\n      mstore\n        /* \"#utility.yul\":14615:14619   */\n      0x24\n        /* \"#utility.yul\":14612:14613   */\n      0x00\n        /* \"#utility.yul\":14605:14620   */\n      revert\n        /* \"#utility.yul\":14755:14872   */\n    tag_211:\n        /* \"#utility.yul\":14864:14865   */\n      0x00\n        /* \"#utility.yul\":14861:14862   */\n      dup1\n        /* \"#utility.yul\":14854:14866   */\n      revert\n        /* \"#utility.yul\":14878:14980   */\n    tag_374:\n        /* \"#utility.yul\":14920:14928   */\n      0x00\n        /* \"#utility.yul\":14967:14972   */\n      dup2\n        /* \"#utility.yul\":14964:14965   */\n      0x00\n        /* \"#utility.yul\":14960:14973   */\n      shr\n        /* \"#utility.yul\":14939:14973   */\n      swap1\n      pop\n        /* \"#utility.yul\":14878:14980   */\n      swap2\n      swap1\n      pop\n      jump\t// out\n        /* \"#utility.yul\":14986:15150   */\n    tag_253:\n        /* \"#utility.yul\":15126:15142   */\n      0x47616d65206e6f7420666f756e64000000000000000000000000000000000000\n        /* \"#utility.yul\":15122:15123   */\n      0x00\n        /* \"#utility.yul\":15114:15120   */\n      dup3\n        /* \"#utility.yul\":15110:15124   */\n      add\n        /* \"#utility.yul\":15103:15143   */\n      mstore\n        /* \"#utility.yul\":14986:15150   */\n      pop\n      jump\t// out\n        /* \"#utility.yul\":15156:15270   */\n    tag_259:\n      pop\n      jump\t// out\n        /* \"#utility.yul\":15276:15498   */\n    tag_264:\n        /* \"#utility.yul\":15416:15450   */\n      0x496e73756666696369656e7420616d6f756e74206f6620636f6e747269627574\n        /* \"#utility.yul\":15412:15413   */\n      0x00\n        /* \"#utility.yul\":15404:15410   */\n      dup3\n        /* \"#utility.yul\":15400:15414   */\n      add\n        /* \"#utility.yul\":15393:15451   */\n      mstore\n        /* \"#utility.yul\":15485:15490   */\n      0x696f6e0000000000000000000000000000000000000000000000000000000000\n        /* \"#utility.yul\":15480:15482   */\n      0x20\n        /* \"#utility.yul\":15472:15478   */\n      dup3\n        /* \"#utility.yul\":15468:15483   */\n      add\n        /* \"#utility.yul\":15461:15491   */\n      mstore\n        /* \"#utility.yul\":15276:15498   */\n      pop\n      jump\t// out\n        /* \"#utility.yul\":15504:15731   */\n    tag_269:\n        /* \"#utility.yul\":15644:15678   */\n      0x466f72207265676974657220696e2067616d6520796f75206e65656420706179\n        /* \"#utility.yul\":15640:15641   */\n      0x00\n        /* \"#utility.yul\":15632:15638   */\n      dup3\n        /* \"#utility.yul\":15628:15642   */\n      add\n        /* \"#utility.yul\":15621:15679   */\n      mstore\n        /* \"#utility.yul\":15713:15723   */\n      0x2031206574686572000000000000000000000000000000000000000000000000\n        /* \"#utility.yul\":15708:15710   */\n      0x20\n        /* \"#utility.yul\":15700:15706   */\n      dup3\n        /* \"#utility.yul\":15696:15711   */\n      add\n        /* \"#utility.yul\":15689:15724   */\n      mstore\n        /* \"#utility.yul\":15504:15731   */\n      pop\n      jump\t// out\n        /* \"#utility.yul\":15737:15899   */\n    tag_274:\n        /* \"#utility.yul\":15877:15891   */\n      0x4e6f20636f6e7472616374730000000000000000000000000000000000000000\n        /* \"#utility.yul\":15873:15874   */\n      0x00\n        /* \"#utility.yul\":15865:15871   */\n      dup3\n        /* \"#utility.yul\":15861:15875   */\n      add\n        /* \"#utility.yul\":15854:15892   */\n      mstore\n        /* \"#utility.yul\":15737:15899   */\n      pop\n      jump\t// out\n        /* \"#utility.yul\":15905:16027   */\n    tag_199:\n        /* \"#utility.yul\":15978:16002   */\n      tag_391\n        /* \"#utility.yul\":15996:16001   */\n      dup2\n        /* \"#utility.yul\":15978:16002   */\n      tag_243\n      jump\t// in\n    tag_391:\n        /* \"#utility.yul\":15971:15976   */\n      dup2\n        /* \"#utility.yul\":15968:16003   */\n      eq\n        /* \"#utility.yul\":15958:16021   */\n      tag_392\n      jumpi\n        /* \"#utility.yul\":16017:16018   */\n      0x00\n        /* \"#utility.yul\":16014:16015   */\n      dup1\n        /* \"#utility.yul\":16007:16019   */\n      revert\n        /* \"#utility.yul\":15958:16021   */\n    tag_392:\n        /* \"#utility.yul\":15905:16027   */\n      pop\n      jump\t// out\n        /* \"#utility.yul\":16033:16155   */\n    tag_203:\n        /* \"#utility.yul\":16106:16130   */\n      tag_394\n        /* \"#utility.yul\":16124:16129   */\n      dup2\n        /* \"#utility.yul\":16106:16130   */\n      tag_285\n      jump\t// in\n    tag_394:\n        /* \"#utility.yul\":16099:16104   */\n      dup2\n        /* \"#utility.yul\":16096:16131   */\n      eq\n        /* \"#utility.yul\":16086:16149   */\n      tag_395\n      jumpi\n        /* \"#utility.yul\":16145:16146   */\n      0x00\n        /* \"#utility.yul\":16142:16143   */\n      dup1\n        /* \"#utility.yul\":16135:16147   */\n      revert\n        /* \"#utility.yul\":16086:16149   */\n    tag_395:\n        /* \"#utility.yul\":16033:16155   */\n      pop\n      jump\t// out\n        /* \"#utility.yul\":16161:16279   */\n    tag_207:\n        /* \"#utility.yul\":16232:16254   */\n      tag_397\n        /* \"#utility.yul\":16248:16253   */\n      dup2\n        /* \"#utility.yul\":16232:16254   */\n      tag_292\n      jump\t// in\n    tag_397:\n        /* \"#utility.yul\":16225:16230   */\n      dup2\n        /* \"#utility.yul\":16222:16255   */\n      eq\n        /* \"#utility.yul\":16212:16273   */\n      tag_398\n      jumpi\n        /* \"#utility.yul\":16269:16270   */\n      0x00\n        /* \"#utility.yul\":16266:16267   */\n      dup1\n        /* \"#utility.yul\":16259:16271   */\n      revert\n        /* \"#utility.yul\":16212:16273   */\n    tag_398:\n        /* \"#utility.yul\":16161:16279   */\n      pop\n      jump\t// out\n\n    auxdata: 0xa26469706673582212201d425822a987acd767322717f6c20633263bcc3158194debbcee65f66dc928f864736f6c63430008070033\n}\n",
				"bytecode": {
					"linkReferences": {},
					"object": "60806040523480156200001157600080fd5b50336001806101000a81548173ffffffffffffffffffffffffffffffffffffffff021916908373ffffffffffffffffffffffffffffffffffffffff16021790555060018054906101000a900473ffffffffffffffffffffffffffffffffffffffff166003600080815260200190815260200160002060006101000a81548173ffffffffffffffffffffffffffffffffffffffff021916908373ffffffffffffffffffffffffffffffffffffffff16021790555060405180606001604052806000815260200160018054906101000a900473ffffffffffffffffffffffffffffffffffffffff1673ffffffffffffffffffffffffffffffffffffffff16815260200160008152506004600060018054906101000a900473ffffffffffffffffffffffffffffffffffffffff1673ffffffffffffffffffffffffffffffffffffffff1673ffffffffffffffffffffffffffffffffffffffff1681526020019081526020016000206000820151816000015560208201518160010160006101000a81548173ffffffffffffffffffffffffffffffffffffffff021916908373ffffffffffffffffffffffffffffffffffffffff160217905550604082015181600201559050506001600081905550620001f76003670de0b6b3a7640000620001fd60201b60201c565b62000496565b6200020e336200030860201b60201c565b6200021857600080fd5b60405180604001604052808381526020018281525060026000600160009054906101000a900460ff1660ff1660ff16815260200190815260200160002060008201518160000155602082015181600101559050507f954900f0fb49268c265d1bafbfbf6c060c8b41cdb6b0bcaa575389d650b5e37460026000600160009054906101000a900460ff1660ff1660ff168152602001908152602001600020604051620002c49190620003c0565b60405180910390a160018060008282829054906101000a900460ff16620002ec9190620003dd565b92506101000a81548160ff021916908360ff1602179055505050565b600060018054906101000a900473ffffffffffffffffffffffffffffffffffffffff1673ffffffffffffffffffffffffffffffffffffffff168273ffffffffffffffffffffffffffffffffffffffff16149050919050565b60408201600080830154905062000377816200043c565b620003866000860182620003af565b506001830154905062000399816200043c565b620003a86020860182620003af565b5050505050565b620003ba8162000425565b82525050565b6000604082019050620003d7600083018462000360565b92915050565b6000620003ea826200042f565b9150620003f7836200042f565b92508260ff0382111562000410576200040f6200045a565b5b828201905092915050565b6000819050919050565b6000819050919050565b600060ff82169050919050565b6000620004536200044d8362000489565b6200041b565b9050919050565b7f4e487b7100000000000000000000000000000000000000000000000000000000600052601160045260246000fd5b60008160001c9050919050565b61209a80620004a66000396000f3fe6080604052600436106100c65760003560e01c80637b0d5efa1161007f5780639b0b0ae3116100595780639b0b0ae3146102b7578063ad39f0a3146102f4578063bd233b911461031f578063f10600061461035c576100d7565b80637b0d5efa14610213578063906cbf571461023c57806395a078e81461027a576100d7565b80630173c05b146100e35780630e50cee5146100ff5780632a648c891461013e5780632e8aab9b1461017b578063477348921461019757806378a32e21146101d4576100d7565b366100d7576100d53334610399565b005b6100e13334610399565b005b6100fd60048036038101906100f8919061187d565b61045c565b005b34801561010b57600080fd5b5061012660048036038101906101219190611810565b61063b565b60405161013593929190611c24565b60405180910390f35b34801561014a57600080fd5b506101656004803603810190610160919061183d565b610685565b6040516101729190611ad7565b60405180910390f35b610195600480360381019061019091906118ea565b6106b4565b005b3480156101a357600080fd5b506101be60048036038101906101b99190611810565b61075e565b6040516101cb9190611c09565b60405180910390f35b3480156101e057600080fd5b506101fb60048036038101906101f69190611917565b61077f565b60405161020a93929190611c24565b60405180910390f35b34801561021f57600080fd5b5061023a600480360381019061023591906118aa565b6107d6565b005b34801561024857600080fd5b50610263600480360381019061025e91906118ea565b6108d4565b604051610271929190611c5b565b60405180910390f35b34801561028657600080fd5b506102a1600480360381019061029c9190611810565b6108f8565b6040516102ae9190611ad7565b60405180910390f35b3480156102c357600080fd5b506102de60048036038101906102d991906118ea565b610950565b6040516102eb9190611c09565b60405180910390f35b34801561030057600080fd5b50610309610968565b6040516103169190611c84565b60405180910390f35b34801561032b57600080fd5b506103466004803603810190610341919061187d565b61097b565b6040516103539190611abc565b60405180910390f35b34801561036857600080fd5b50610383600480360381019061037e919061183d565b6109ae565b6040516103909190611c09565b60405180910390f35b60008060005b60018060009054906101000a900460ff166103ba9190611d11565b60ff168160ff16101561040a5734600260008360ff1660ff1681526020019081526020016000206001015414156103f7576001925080915061040a565b808061040290611e92565b91505061039f565b508161044b576040517f08c379a000000000000000000000000000000000000000000000000000000000815260040161044290611af2565b60405180910390fd5b6104568185856109d3565b50505050565b600080339050803b915060008263ffffffff1611156104b0576040517f08c379a00000000000000000000000000000000000000000000000000000000081526004016104a790611b52565b60405180910390fd5b670de0b6b3a764000034146104fa576040517f08c379a00000000000000000000000000000000000000000000000000000000081526004016104f190611b32565b60405180910390fd5b604051806060016040528060005481526020013373ffffffffffffffffffffffffffffffffffffffff16815260200184815250600460003373ffffffffffffffffffffffffffffffffffffffff1673ffffffffffffffffffffffffffffffffffffffff1681526020019081526020016000206000820151816000015560208201518160010160006101000a81548173ffffffffffffffffffffffffffffffffffffffff021916908373ffffffffffffffffffffffffffffffffffffffff1602179055506040820151816002015590505033600360008054815260200190815260200160002060006101000a81548173ffffffffffffffffffffffffffffffffffffffff021916908373ffffffffffffffffffffffffffffffffffffffff160217905550600160008082825461062f9190611cbb565b92505081905550505050565b60046020528060005260406000206000915090508060000154908060010160009054906101000a900473ffffffffffffffffffffffffffffffffffffffff16908060020154905083565b60086020528160005260406000206020528060005260406000206000915091509054906101000a900460ff1681565b600073ffffffffffffffffffffffffffffffffffffffff16600460003373ffffffffffffffffffffffffffffffffffffffff1673ffffffffffffffffffffffffffffffffffffffff16815260200190815260200160002060010160009054906101000a900473ffffffffffffffffffffffffffffffffffffffff1673ffffffffffffffffffffffffffffffffffffffff16141561075057600080fd5b61075b8133346109d3565b50565b60008173ffffffffffffffffffffffffffffffffffffffff16319050919050565b6006602052816000526040600020602052806000526040600020600091509150508060000154908060010160009054906101000a900473ffffffffffffffffffffffffffffffffffffffff16908060020154905083565b6107df336108f8565b6107e857600080fd5b60405180604001604052808381526020018281525060026000600160009054906101000a900460ff1660ff1660ff16815260200190815260200160002060008201518160000155602082015181600101559050507f954900f0fb49268c265d1bafbfbf6c060c8b41cdb6b0bcaa575389d650b5e37460026000600160009054906101000a900460ff1660ff1660ff1681526020019081526020016000206040516108929190611b72565b60405180910390a160018060008282829054906101000a900460ff166108b89190611d11565b92506101000a81548160ff021916908360ff1602179055505050565b60026020528060005260406000206000915090508060000154908060010154905082565b600060018054906101000a900473ffffffffffffffffffffffffffffffffffffffff1673ffffffffffffffffffffffffffffffffffffffff168273ffffffffffffffffffffffffffffffffffffffff16149050919050565b60056020528060005260406000206000915090505481565b600160009054906101000a900460ff1681565b60036020528060005260406000206000915054906101000a900473ffffffffffffffffffffffffffffffffffffffff1681565b6007602052816000526040600020602052806000526040600020600091509150505481565b600260008460ff1660ff16815260200190815260200160002060010154811015610a32576040517f08c379a0000000000000000000000000000000000000000000000000000000008152600401610a2990611b12565b60405180910390fd5b600460008373ffffffffffffffffffffffffffffffffffffffff1673ffffffffffffffffffffffffffffffffffffffff168152602001908152602001600020600660008560ff1660ff1681526020019081526020016000206000600560008760ff1660ff168152602001908152602001600020548152602001908152602001600020600082015481600001556001820160009054906101000a900473ffffffffffffffffffffffffffffffffffffffff168160010160006101000a81548173ffffffffffffffffffffffffffffffffffffffff021916908373ffffffffffffffffffffffffffffffffffffffff160217905550600282015481600201559050506001600560008560ff1660ff1681526020019081526020016000206000828254610b5c9190611cbb565b925050819055506001600860008473ffffffffffffffffffffffffffffffffffffffff1673ffffffffffffffffffffffffffffffffffffffff16815260200190815260200160002060008560ff1660ff16815260200190815260200160002060006101000a81548160ff02191690831515021790555060036001600560008660ff1660ff16815260200190815260200160002054610bfa9190611dd3565b106117cc57600060026001600560008760ff1660ff16815260200190815260200160002054610c299190611dd3565b610c339190611d48565b90505b6000600660008660ff1660ff168152602001908152602001600020600083815260200190815260200160002060010160009054906101000a900473ffffffffffffffffffffffffffffffffffffffff1690506001600760008373ffffffffffffffffffffffffffffffffffffffff1673ffffffffffffffffffffffffffffffffffffffff16815260200190815260200160002060008760ff1660ff16815260200190815260200160002054111580610d5a5750600860008273ffffffffffffffffffffffffffffffffffffffff1673ffffffffffffffffffffffffffffffffffffffff1681526020019081526020016000206000600187610d379190611d11565b60ff1660ff16815260200190815260200160002060009054906101000a900460ff165b156117c05760008173ffffffffffffffffffffffffffffffffffffffff166064604a600260008a60ff1660ff16815260200190815260200160002060010154610da39190611d79565b610dad9190611d48565b604051610db990611aa7565b60006040518083038185875af1925050503d8060008114610df6576040519150601f19603f3d011682016040523d82523d6000602084013e610dfb565b606091505b505090506001600760008473ffffffffffffffffffffffffffffffffffffffff1673ffffffffffffffffffffffffffffffffffffffff16815260200190815260200160002060008860ff1660ff1681526020019081526020016000206000828254610e669190611cbb565b925050819055507f48926dbe5ddf41609856a5a4f394bd85410dfcedaa2cfefb48bbb3bbab8b6be7600260008860ff1660ff1681526020019081526020016000208383604051610eb893929190611b8d565b60405180910390a16000600660008860ff1660ff16815260200190815260200160002060008581526020019081526020016000206000015490506000600660008960ff1660ff168152602001908152602001600020600086815260200190815260200160002060020154905060006064600a600260008c60ff1660ff16815260200190815260200160002060010154610f519190611d79565b610f5b9190611d48565b90506003600083815260200190815260200160002060009054906101000a900473ffffffffffffffffffffffffffffffffffffffff1673ffffffffffffffffffffffffffffffffffffffff1681604051610fb490611aa7565b60006040518083038185875af1925050503d8060008114610ff1576040519150601f19603f3d011682016040523d82523d6000602084013e610ff6565b606091505b5050809450508315611058577f99a41df4773da34d9d98cc939025289e5db562f8fb5df346a9e7a1672bd288e3600260008b60ff1660ff16815260200190815260200160002084848460405161104f9493929190611bc4565b60405180910390a15b60646006600260008c60ff1660ff168152602001908152602001600020600101546110839190611d79565b61108d9190611d48565b9050600460006003600085815260200190815260200160002060009054906101000a900473ffffffffffffffffffffffffffffffffffffffff1673ffffffffffffffffffffffffffffffffffffffff1673ffffffffffffffffffffffffffffffffffffffff16815260200190815260200160002060010160009054906101000a900473ffffffffffffffffffffffffffffffffffffffff1673ffffffffffffffffffffffffffffffffffffffff168160405161114890611aa7565b60006040518083038185875af1925050503d8060008114611185576040519150601f19603f3d011682016040523d82523d6000602084013e61118a565b606091505b5050809450508315611261577f99a41df4773da34d9d98cc939025289e5db562f8fb5df346a9e7a1672bd288e3600260008b60ff1660ff16815260200190815260200160002083600460006003600088815260200190815260200160002060009054906101000a900473ffffffffffffffffffffffffffffffffffffffff1673ffffffffffffffffffffffffffffffffffffffff1673ffffffffffffffffffffffffffffffffffffffff16815260200190815260200160002060000154846040516112589493929190611bc4565b60405180910390a15b60646004600260008c60ff1660ff1681526020019081526020016000206001015461128c9190611d79565b6112969190611d48565b90506004600060036000600460006003600089815260200190815260200160002060009054906101000a900473ffffffffffffffffffffffffffffffffffffffff1673ffffffffffffffffffffffffffffffffffffffff1673ffffffffffffffffffffffffffffffffffffffff16815260200190815260200160002060000154815260200190815260200160002060009054906101000a900473ffffffffffffffffffffffffffffffffffffffff1673ffffffffffffffffffffffffffffffffffffffff1673ffffffffffffffffffffffffffffffffffffffff16815260200190815260200160002060010160009054906101000a900473ffffffffffffffffffffffffffffffffffffffff1673ffffffffffffffffffffffffffffffffffffffff16816040516113c690611aa7565b60006040518083038185875af1925050503d8060008114611403576040519150601f19603f3d011682016040523d82523d6000602084013e611408565b606091505b50508094505083156115c9577f99a41df4773da34d9d98cc939025289e5db562f8fb5df346a9e7a1672bd288e3600260008b60ff1660ff168152602001908152602001600020600460006003600087815260200190815260200160002060009054906101000a900473ffffffffffffffffffffffffffffffffffffffff1673ffffffffffffffffffffffffffffffffffffffff1673ffffffffffffffffffffffffffffffffffffffff16815260200190815260200160002060000154600460006003600060046000600360008c815260200190815260200160002060009054906101000a900473ffffffffffffffffffffffffffffffffffffffff1673ffffffffffffffffffffffffffffffffffffffff1673ffffffffffffffffffffffffffffffffffffffff16815260200190815260200160002060000154815260200190815260200160002060009054906101000a900473ffffffffffffffffffffffffffffffffffffffff1673ffffffffffffffffffffffffffffffffffffffff1673ffffffffffffffffffffffffffffffffffffffff16815260200190815260200160002060000154846040516115c09493929190611bc4565b60405180910390a15b60646006600260008c60ff1660ff168152602001908152602001600020600101546115f49190611d79565b6115fe9190611d48565b90506004600060018054906101000a900473ffffffffffffffffffffffffffffffffffffffff1673ffffffffffffffffffffffffffffffffffffffff1673ffffffffffffffffffffffffffffffffffffffff16815260200190815260200160002060010160009054906101000a900473ffffffffffffffffffffffffffffffffffffffff1673ffffffffffffffffffffffffffffffffffffffff16816040516116a690611aa7565b60006040518083038185875af1925050503d80600081146116e3576040519150601f19603f3d011682016040523d82523d6000602084013e6116e8565b606091505b50508094505083156117ac577f99a41df4773da34d9d98cc939025289e5db562f8fb5df346a9e7a1672bd288e3600260008b60ff1660ff168152602001908152602001600020846004600060018054906101000a900473ffffffffffffffffffffffffffffffffffffffff1673ffffffffffffffffffffffffffffffffffffffff1673ffffffffffffffffffffffffffffffffffffffff16815260200190815260200160002060000154846040516117a39493929190611bc4565b60405180910390a15b6002866117b99190611d48565b9550505050505b506000811415610c3657505b505050565b6000813590506117e08161201f565b92915050565b6000813590506117f581612036565b92915050565b60008135905061180a8161204d565b92915050565b60006020828403121561182657611825611f1a565b5b6000611834848285016117d1565b91505092915050565b6000806040838503121561185457611853611f1a565b5b6000611862858286016117d1565b9250506020611873858286016117fb565b9150509250929050565b60006020828403121561189357611892611f1a565b5b60006118a1848285016117e6565b91505092915050565b600080604083850312156118c1576118c0611f1a565b5b60006118cf858286016117e6565b92505060206118e0858286016117e6565b9150509250929050565b600060208284031215611900576118ff611f1a565b5b600061190e848285016117fb565b91505092915050565b6000806040838503121561192e5761192d611f1a565b5b600061193c858286016117fb565b925050602061194d858286016117e6565b9150509250929050565b61196081611e23565b82525050565b61196f81611e11565b82525050565b61197e81611e35565b82525050565b6000611991600e83611caa565b915061199c82611f2c565b602082019050919050565b60006119b4600083611c9f565b91506119bf82611f55565b600082019050919050565b60006119d7602383611caa565b91506119e282611f58565b604082019050919050565b60006119fa602883611caa565b9150611a0582611fa7565b604082019050919050565b6000611a1d600c83611caa565b9150611a2882611ff6565b602082019050919050565b604082016000808301549050611a4881611e78565b611a556000860182611a7a565b5060018301549050611a6681611e78565b611a736020860182611a7a565b5050505050565b611a8381611e61565b82525050565b611a9281611e61565b82525050565b611aa181611e6b565b82525050565b6000611ab2826119a7565b9150819050919050565b6000602082019050611ad16000830184611966565b92915050565b6000602082019050611aec6000830184611975565b92915050565b60006020820190508181036000830152611b0b81611984565b9050919050565b60006020820190508181036000830152611b2b816119ca565b9050919050565b60006020820190508181036000830152611b4b816119ed565b9050919050565b60006020820190508181036000830152611b6b81611a10565b9050919050565b6000604082019050611b876000830184611a33565b92915050565b6000608082019050611ba26000830186611a33565b611baf6040830185611966565b611bbc6060830184611975565b949350505050565b600060a082019050611bd96000830187611a33565b611be66040830186611a89565b611bf36060830185611a89565b611c006080830184611a89565b95945050505050565b6000602082019050611c1e6000830184611a89565b92915050565b6000606082019050611c396000830186611a89565b611c466020830185611957565b611c536040830184611a89565b949350505050565b6000604082019050611c706000830185611a89565b611c7d6020830184611a89565b9392505050565b6000602082019050611c996000830184611a98565b92915050565b600081905092915050565b600082825260208201905092915050565b6000611cc682611e61565b9150611cd183611e61565b9250827fffffffffffffffffffffffffffffffffffffffffffffffffffffffffffffffff03821115611d0657611d05611ebc565b5b828201905092915050565b6000611d1c82611e6b565b9150611d2783611e6b565b92508260ff03821115611d3d57611d3c611ebc565b5b828201905092915050565b6000611d5382611e61565b9150611d5e83611e61565b925082611d6e57611d6d611eeb565b5b828204905092915050565b6000611d8482611e61565b9150611d8f83611e61565b9250817fffffffffffffffffffffffffffffffffffffffffffffffffffffffffffffffff0483118215151615611dc857611dc7611ebc565b5b828202905092915050565b6000611dde82611e61565b9150611de983611e61565b925082821015611dfc57611dfb611ebc565b5b828203905092915050565b6000819050919050565b6000611e1c82611e41565b9050919050565b6000611e2e82611e41565b9050919050565b60008115159050919050565b600073ffffffffffffffffffffffffffffffffffffffff82169050919050565b6000819050919050565b600060ff82169050919050565b6000611e8b611e8683611f1f565b611e07565b9050919050565b6000611e9d82611e6b565b915060ff821415611eb157611eb0611ebc565b5b600182019050919050565b7f4e487b7100000000000000000000000000000000000000000000000000000000600052601160045260246000fd5b7f4e487b7100000000000000000000000000000000000000000000000000000000600052601260045260246000fd5b600080fd5b60008160001c9050919050565b7f47616d65206e6f7420666f756e64000000000000000000000000000000000000600082015250565b50565b7f496e73756666696369656e7420616d6f756e74206f6620636f6e74726962757460008201527f696f6e0000000000000000000000000000000000000000000000000000000000602082015250565b7f466f72207265676974657220696e2067616d6520796f75206e6565642070617960008201527f2031206574686572000000000000000000000000000000000000000000000000602082015250565b7f4e6f20636f6e7472616374730000000000000000000000000000000000000000600082015250565b61202881611e11565b811461203357600080fd5b50565b61203f81611e61565b811461204a57600080fd5b50565b61205681611e6b565b811461206157600080fd5b5056fea26469706673582212201d425822a987acd767322717f6c20633263bcc3158194debbcee65f66dc928f864736f6c63430008070033",
					"opcodes": "PUSH1 0x80 PUSH1 0x40 MSTORE CALLVALUE DUP1 ISZERO PUSH3 0x11 JUMPI PUSH1 0x0 DUP1 REVERT JUMPDEST POP CALLER PUSH1 0x1 DUP1 PUSH2 0x100 EXP DUP2 SLOAD DUP2 PUSH20 0xFFFFFFFFFFFFFFFFFFFFFFFFFFFFFFFFFFFFFFFF MUL NOT AND SWAP1 DUP4 PUSH20 0xFFFFFFFFFFFFFFFFFFFFFFFFFFFFFFFFFFFFFFFF AND MUL OR SWAP1 SSTORE POP PUSH1 0x1 DUP1 SLOAD SWAP1 PUSH2 0x100 EXP SWAP1 DIV PUSH20 0xFFFFFFFFFFFFFFFFFFFFFFFFFFFFFFFFFFFFFFFF AND PUSH1 0x3 PUSH1 0x0 DUP1 DUP2 MSTORE PUSH1 0x20 ADD SWAP1 DUP2 MSTORE PUSH1 0x20 ADD PUSH1 0x0 KECCAK256 PUSH1 0x0 PUSH2 0x100 EXP DUP2 SLOAD DUP2 PUSH20 0xFFFFFFFFFFFFFFFFFFFFFFFFFFFFFFFFFFFFFFFF MUL NOT AND SWAP1 DUP4 PUSH20 0xFFFFFFFFFFFFFFFFFFFFFFFFFFFFFFFFFFFFFFFF AND MUL OR SWAP1 SSTORE POP PUSH1 0x40 MLOAD DUP1 PUSH1 0x60 ADD PUSH1 0x40 MSTORE DUP1 PUSH1 0x0 DUP2 MSTORE PUSH1 0x20 ADD PUSH1 0x1 DUP1 SLOAD SWAP1 PUSH2 0x100 EXP SWAP1 DIV PUSH20 0xFFFFFFFFFFFFFFFFFFFFFFFFFFFFFFFFFFFFFFFF AND PUSH20 0xFFFFFFFFFFFFFFFFFFFFFFFFFFFFFFFFFFFFFFFF AND DUP2 MSTORE PUSH1 0x20 ADD PUSH1 0x0 DUP2 MSTORE POP PUSH1 0x4 PUSH1 0x0 PUSH1 0x1 DUP1 SLOAD SWAP1 PUSH2 0x100 EXP SWAP1 DIV PUSH20 0xFFFFFFFFFFFFFFFFFFFFFFFFFFFFFFFFFFFFFFFF AND PUSH20 0xFFFFFFFFFFFFFFFFFFFFFFFFFFFFFFFFFFFFFFFF AND PUSH20 0xFFFFFFFFFFFFFFFFFFFFFFFFFFFFFFFFFFFFFFFF AND DUP2 MSTORE PUSH1 0x20 ADD SWAP1 DUP2 MSTORE PUSH1 0x20 ADD PUSH1 0x0 KECCAK256 PUSH1 0x0 DUP3 ADD MLOAD DUP2 PUSH1 0x0 ADD SSTORE PUSH1 0x20 DUP3 ADD MLOAD DUP2 PUSH1 0x1 ADD PUSH1 0x0 PUSH2 0x100 EXP DUP2 SLOAD DUP2 PUSH20 0xFFFFFFFFFFFFFFFFFFFFFFFFFFFFFFFFFFFFFFFF MUL NOT AND SWAP1 DUP4 PUSH20 0xFFFFFFFFFFFFFFFFFFFFFFFFFFFFFFFFFFFFFFFF AND MUL OR SWAP1 SSTORE POP PUSH1 0x40 DUP3 ADD MLOAD DUP2 PUSH1 0x2 ADD SSTORE SWAP1 POP POP PUSH1 0x1 PUSH1 0x0 DUP2 SWAP1 SSTORE POP PUSH3 0x1F7 PUSH1 0x3 PUSH8 0xDE0B6B3A7640000 PUSH3 0x1FD PUSH1 0x20 SHL PUSH1 0x20 SHR JUMP JUMPDEST PUSH3 0x496 JUMP JUMPDEST PUSH3 0x20E CALLER PUSH3 0x308 PUSH1 0x20 SHL PUSH1 0x20 SHR JUMP JUMPDEST PUSH3 0x218 JUMPI PUSH1 0x0 DUP1 REVERT JUMPDEST PUSH1 0x40 MLOAD DUP1 PUSH1 0x40 ADD PUSH1 0x40 MSTORE DUP1 DUP4 DUP2 MSTORE PUSH1 0x20 ADD DUP3 DUP2 MSTORE POP PUSH1 0x2 PUSH1 0x0 PUSH1 0x1 PUSH1 0x0 SWAP1 SLOAD SWAP1 PUSH2 0x100 EXP SWAP1 DIV PUSH1 0xFF AND PUSH1 0xFF AND PUSH1 0xFF AND DUP2 MSTORE PUSH1 0x20 ADD SWAP1 DUP2 MSTORE PUSH1 0x20 ADD PUSH1 0x0 KECCAK256 PUSH1 0x0 DUP3 ADD MLOAD DUP2 PUSH1 0x0 ADD SSTORE PUSH1 0x20 DUP3 ADD MLOAD DUP2 PUSH1 0x1 ADD SSTORE SWAP1 POP POP PUSH32 0x954900F0FB49268C265D1BAFBFBF6C060C8B41CDB6B0BCAA575389D650B5E374 PUSH1 0x2 PUSH1 0x0 PUSH1 0x1 PUSH1 0x0 SWAP1 SLOAD SWAP1 PUSH2 0x100 EXP SWAP1 DIV PUSH1 0xFF AND PUSH1 0xFF AND PUSH1 0xFF AND DUP2 MSTORE PUSH1 0x20 ADD SWAP1 DUP2 MSTORE PUSH1 0x20 ADD PUSH1 0x0 KECCAK256 PUSH1 0x40 MLOAD PUSH3 0x2C4 SWAP2 SWAP1 PUSH3 0x3C0 JUMP JUMPDEST PUSH1 0x40 MLOAD DUP1 SWAP2 SUB SWAP1 LOG1 PUSH1 0x1 DUP1 PUSH1 0x0 DUP3 DUP3 DUP3 SWAP1 SLOAD SWAP1 PUSH2 0x100 EXP SWAP1 DIV PUSH1 0xFF AND PUSH3 0x2EC SWAP2 SWAP1 PUSH3 0x3DD JUMP JUMPDEST SWAP3 POP PUSH2 0x100 EXP DUP2 SLOAD DUP2 PUSH1 0xFF MUL NOT AND SWAP1 DUP4 PUSH1 0xFF AND MUL OR SWAP1 SSTORE POP POP POP JUMP JUMPDEST PUSH1 0x0 PUSH1 0x1 DUP1 SLOAD SWAP1 PUSH2 0x100 EXP SWAP1 DIV PUSH20 0xFFFFFFFFFFFFFFFFFFFFFFFFFFFFFFFFFFFFFFFF AND PUSH20 0xFFFFFFFFFFFFFFFFFFFFFFFFFFFFFFFFFFFFFFFF AND DUP3 PUSH20 0xFFFFFFFFFFFFFFFFFFFFFFFFFFFFFFFFFFFFFFFF AND EQ SWAP1 POP SWAP2 SWAP1 POP JUMP JUMPDEST PUSH1 0x40 DUP3 ADD PUSH1 0x0 DUP1 DUP4 ADD SLOAD SWAP1 POP PUSH3 0x377 DUP2 PUSH3 0x43C JUMP JUMPDEST PUSH3 0x386 PUSH1 0x0 DUP7 ADD DUP3 PUSH3 0x3AF JUMP JUMPDEST POP PUSH1 0x1 DUP4 ADD SLOAD SWAP1 POP PUSH3 0x399 DUP2 PUSH3 0x43C JUMP JUMPDEST PUSH3 0x3A8 PUSH1 0x20 DUP7 ADD DUP3 PUSH3 0x3AF JUMP JUMPDEST POP POP POP POP POP JUMP JUMPDEST PUSH3 0x3BA DUP2 PUSH3 0x425 JUMP JUMPDEST DUP3 MSTORE POP POP JUMP JUMPDEST PUSH1 0x0 PUSH1 0x40 DUP3 ADD SWAP1 POP PUSH3 0x3D7 PUSH1 0x0 DUP4 ADD DUP5 PUSH3 0x360 JUMP JUMPDEST SWAP3 SWAP2 POP POP JUMP JUMPDEST PUSH1 0x0 PUSH3 0x3EA DUP3 PUSH3 0x42F JUMP JUMPDEST SWAP2 POP PUSH3 0x3F7 DUP4 PUSH3 0x42F JUMP JUMPDEST SWAP3 POP DUP3 PUSH1 0xFF SUB DUP3 GT ISZERO PUSH3 0x410 JUMPI PUSH3 0x40F PUSH3 0x45A JUMP JUMPDEST JUMPDEST DUP3 DUP3 ADD SWAP1 POP SWAP3 SWAP2 POP POP JUMP JUMPDEST PUSH1 0x0 DUP2 SWAP1 POP SWAP2 SWAP1 POP JUMP JUMPDEST PUSH1 0x0 DUP2 SWAP1 POP SWAP2 SWAP1 POP JUMP JUMPDEST PUSH1 0x0 PUSH1 0xFF DUP3 AND SWAP1 POP SWAP2 SWAP1 POP JUMP JUMPDEST PUSH1 0x0 PUSH3 0x453 PUSH3 0x44D DUP4 PUSH3 0x489 JUMP JUMPDEST PUSH3 0x41B JUMP JUMPDEST SWAP1 POP SWAP2 SWAP1 POP JUMP JUMPDEST PUSH32 0x4E487B7100000000000000000000000000000000000000000000000000000000 PUSH1 0x0 MSTORE PUSH1 0x11 PUSH1 0x4 MSTORE PUSH1 0x24 PUSH1 0x0 REVERT JUMPDEST PUSH1 0x0 DUP2 PUSH1 0x0 SHR SWAP1 POP SWAP2 SWAP1 POP JUMP JUMPDEST PUSH2 0x209A DUP1 PUSH3 0x4A6 PUSH1 0x0 CODECOPY PUSH1 0x0 RETURN INVALID PUSH1 0x80 PUSH1 0x40 MSTORE PUSH1 0x4 CALLDATASIZE LT PUSH2 0xC6 JUMPI PUSH1 0x0 CALLDATALOAD PUSH1 0xE0 SHR DUP1 PUSH4 0x7B0D5EFA GT PUSH2 0x7F JUMPI DUP1 PUSH4 0x9B0B0AE3 GT PUSH2 0x59 JUMPI DUP1 PUSH4 0x9B0B0AE3 EQ PUSH2 0x2B7 JUMPI DUP1 PUSH4 0xAD39F0A3 EQ PUSH2 0x2F4 JUMPI DUP1 PUSH4 0xBD233B91 EQ PUSH2 0x31F JUMPI DUP1 PUSH4 0xF1060006 EQ PUSH2 0x35C JUMPI PUSH2 0xD7 JUMP JUMPDEST DUP1 PUSH4 0x7B0D5EFA EQ PUSH2 0x213 JUMPI DUP1 PUSH4 0x906CBF57 EQ PUSH2 0x23C JUMPI DUP1 PUSH4 0x95A078E8 EQ PUSH2 0x27A JUMPI PUSH2 0xD7 JUMP JUMPDEST DUP1 PUSH4 0x173C05B EQ PUSH2 0xE3 JUMPI DUP1 PUSH4 0xE50CEE5 EQ PUSH2 0xFF JUMPI DUP1 PUSH4 0x2A648C89 EQ PUSH2 0x13E JUMPI DUP1 PUSH4 0x2E8AAB9B EQ PUSH2 0x17B JUMPI DUP1 PUSH4 0x47734892 EQ PUSH2 0x197 JUMPI DUP1 PUSH4 0x78A32E21 EQ PUSH2 0x1D4 JUMPI PUSH2 0xD7 JUMP JUMPDEST CALLDATASIZE PUSH2 0xD7 JUMPI PUSH2 0xD5 CALLER CALLVALUE PUSH2 0x399 JUMP JUMPDEST STOP JUMPDEST PUSH2 0xE1 CALLER CALLVALUE PUSH2 0x399 JUMP JUMPDEST STOP JUMPDEST PUSH2 0xFD PUSH1 0x4 DUP1 CALLDATASIZE SUB DUP2 ADD SWAP1 PUSH2 0xF8 SWAP2 SWAP1 PUSH2 0x187D JUMP JUMPDEST PUSH2 0x45C JUMP JUMPDEST STOP JUMPDEST CALLVALUE DUP1 ISZERO PUSH2 0x10B JUMPI PUSH1 0x0 DUP1 REVERT JUMPDEST POP PUSH2 0x126 PUSH1 0x4 DUP1 CALLDATASIZE SUB DUP2 ADD SWAP1 PUSH2 0x121 SWAP2 SWAP1 PUSH2 0x1810 JUMP JUMPDEST PUSH2 0x63B JUMP JUMPDEST PUSH1 0x40 MLOAD PUSH2 0x135 SWAP4 SWAP3 SWAP2 SWAP1 PUSH2 0x1C24 JUMP JUMPDEST PUSH1 0x40 MLOAD DUP1 SWAP2 SUB SWAP1 RETURN JUMPDEST CALLVALUE DUP1 ISZERO PUSH2 0x14A JUMPI PUSH1 0x0 DUP1 REVERT JUMPDEST POP PUSH2 0x165 PUSH1 0x4 DUP1 CALLDATASIZE SUB DUP2 ADD SWAP1 PUSH2 0x160 SWAP2 SWAP1 PUSH2 0x183D JUMP JUMPDEST PUSH2 0x685 JUMP JUMPDEST PUSH1 0x40 MLOAD PUSH2 0x172 SWAP2 SWAP1 PUSH2 0x1AD7 JUMP JUMPDEST PUSH1 0x40 MLOAD DUP1 SWAP2 SUB SWAP1 RETURN JUMPDEST PUSH2 0x195 PUSH1 0x4 DUP1 CALLDATASIZE SUB DUP2 ADD SWAP1 PUSH2 0x190 SWAP2 SWAP1 PUSH2 0x18EA JUMP JUMPDEST PUSH2 0x6B4 JUMP JUMPDEST STOP JUMPDEST CALLVALUE DUP1 ISZERO PUSH2 0x1A3 JUMPI PUSH1 0x0 DUP1 REVERT JUMPDEST POP PUSH2 0x1BE PUSH1 0x4 DUP1 CALLDATASIZE SUB DUP2 ADD SWAP1 PUSH2 0x1B9 SWAP2 SWAP1 PUSH2 0x1810 JUMP JUMPDEST PUSH2 0x75E JUMP JUMPDEST PUSH1 0x40 MLOAD PUSH2 0x1CB SWAP2 SWAP1 PUSH2 0x1C09 JUMP JUMPDEST PUSH1 0x40 MLOAD DUP1 SWAP2 SUB SWAP1 RETURN JUMPDEST CALLVALUE DUP1 ISZERO PUSH2 0x1E0 JUMPI PUSH1 0x0 DUP1 REVERT JUMPDEST POP PUSH2 0x1FB PUSH1 0x4 DUP1 CALLDATASIZE SUB DUP2 ADD SWAP1 PUSH2 0x1F6 SWAP2 SWAP1 PUSH2 0x1917 JUMP JUMPDEST PUSH2 0x77F JUMP JUMPDEST PUSH1 0x40 MLOAD PUSH2 0x20A SWAP4 SWAP3 SWAP2 SWAP1 PUSH2 0x1C24 JUMP JUMPDEST PUSH1 0x40 MLOAD DUP1 SWAP2 SUB SWAP1 RETURN JUMPDEST CALLVALUE DUP1 ISZERO PUSH2 0x21F JUMPI PUSH1 0x0 DUP1 REVERT JUMPDEST POP PUSH2 0x23A PUSH1 0x4 DUP1 CALLDATASIZE SUB DUP2 ADD SWAP1 PUSH2 0x235 SWAP2 SWAP1 PUSH2 0x18AA JUMP JUMPDEST PUSH2 0x7D6 JUMP JUMPDEST STOP JUMPDEST CALLVALUE DUP1 ISZERO PUSH2 0x248 JUMPI PUSH1 0x0 DUP1 REVERT JUMPDEST POP PUSH2 0x263 PUSH1 0x4 DUP1 CALLDATASIZE SUB DUP2 ADD SWAP1 PUSH2 0x25E SWAP2 SWAP1 PUSH2 0x18EA JUMP JUMPDEST PUSH2 0x8D4 JUMP JUMPDEST PUSH1 0x40 MLOAD PUSH2 0x271 SWAP3 SWAP2 SWAP1 PUSH2 0x1C5B JUMP JUMPDEST PUSH1 0x40 MLOAD DUP1 SWAP2 SUB SWAP1 RETURN JUMPDEST CALLVALUE DUP1 ISZERO PUSH2 0x286 JUMPI PUSH1 0x0 DUP1 REVERT JUMPDEST POP PUSH2 0x2A1 PUSH1 0x4 DUP1 CALLDATASIZE SUB DUP2 ADD SWAP1 PUSH2 0x29C SWAP2 SWAP1 PUSH2 0x1810 JUMP JUMPDEST PUSH2 0x8F8 JUMP JUMPDEST PUSH1 0x40 MLOAD PUSH2 0x2AE SWAP2 SWAP1 PUSH2 0x1AD7 JUMP JUMPDEST PUSH1 0x40 MLOAD DUP1 SWAP2 SUB SWAP1 RETURN JUMPDEST CALLVALUE DUP1 ISZERO PUSH2 0x2C3 JUMPI PUSH1 0x0 DUP1 REVERT JUMPDEST POP PUSH2 0x2DE PUSH1 0x4 DUP1 CALLDATASIZE SUB DUP2 ADD SWAP1 PUSH2 0x2D9 SWAP2 SWAP1 PUSH2 0x18EA JUMP JUMPDEST PUSH2 0x950 JUMP JUMPDEST PUSH1 0x40 MLOAD PUSH2 0x2EB SWAP2 SWAP1 PUSH2 0x1C09 JUMP JUMPDEST PUSH1 0x40 MLOAD DUP1 SWAP2 SUB SWAP1 RETURN JUMPDEST CALLVALUE DUP1 ISZERO PUSH2 0x300 JUMPI PUSH1 0x0 DUP1 REVERT JUMPDEST POP PUSH2 0x309 PUSH2 0x968 JUMP JUMPDEST PUSH1 0x40 MLOAD PUSH2 0x316 SWAP2 SWAP1 PUSH2 0x1C84 JUMP JUMPDEST PUSH1 0x40 MLOAD DUP1 SWAP2 SUB SWAP1 RETURN JUMPDEST CALLVALUE DUP1 ISZERO PUSH2 0x32B JUMPI PUSH1 0x0 DUP1 REVERT JUMPDEST POP PUSH2 0x346 PUSH1 0x4 DUP1 CALLDATASIZE SUB DUP2 ADD SWAP1 PUSH2 0x341 SWAP2 SWAP1 PUSH2 0x187D JUMP JUMPDEST PUSH2 0x97B JUMP JUMPDEST PUSH1 0x40 MLOAD PUSH2 0x353 SWAP2 SWAP1 PUSH2 0x1ABC JUMP JUMPDEST PUSH1 0x40 MLOAD DUP1 SWAP2 SUB SWAP1 RETURN JUMPDEST CALLVALUE DUP1 ISZERO PUSH2 0x368 JUMPI PUSH1 0x0 DUP1 REVERT JUMPDEST POP PUSH2 0x383 PUSH1 0x4 DUP1 CALLDATASIZE SUB DUP2 ADD SWAP1 PUSH2 0x37E SWAP2 SWAP1 PUSH2 0x183D JUMP JUMPDEST PUSH2 0x9AE JUMP JUMPDEST PUSH1 0x40 MLOAD PUSH2 0x390 SWAP2 SWAP1 PUSH2 0x1C09 JUMP JUMPDEST PUSH1 0x40 MLOAD DUP1 SWAP2 SUB SWAP1 RETURN JUMPDEST PUSH1 0x0 DUP1 PUSH1 0x0 JUMPDEST PUSH1 0x1 DUP1 PUSH1 0x0 SWAP1 SLOAD SWAP1 PUSH2 0x100 EXP SWAP1 DIV PUSH1 0xFF AND PUSH2 0x3BA SWAP2 SWAP1 PUSH2 0x1D11 JUMP JUMPDEST PUSH1 0xFF AND DUP2 PUSH1 0xFF AND LT ISZERO PUSH2 0x40A JUMPI CALLVALUE PUSH1 0x2 PUSH1 0x0 DUP4 PUSH1 0xFF AND PUSH1 0xFF AND DUP2 MSTORE PUSH1 0x20 ADD SWAP1 DUP2 MSTORE PUSH1 0x20 ADD PUSH1 0x0 KECCAK256 PUSH1 0x1 ADD SLOAD EQ ISZERO PUSH2 0x3F7 JUMPI PUSH1 0x1 SWAP3 POP DUP1 SWAP2 POP PUSH2 0x40A JUMP JUMPDEST DUP1 DUP1 PUSH2 0x402 SWAP1 PUSH2 0x1E92 JUMP JUMPDEST SWAP2 POP POP PUSH2 0x39F JUMP JUMPDEST POP DUP2 PUSH2 0x44B JUMPI PUSH1 0x40 MLOAD PUSH32 0x8C379A000000000000000000000000000000000000000000000000000000000 DUP2 MSTORE PUSH1 0x4 ADD PUSH2 0x442 SWAP1 PUSH2 0x1AF2 JUMP JUMPDEST PUSH1 0x40 MLOAD DUP1 SWAP2 SUB SWAP1 REVERT JUMPDEST PUSH2 0x456 DUP2 DUP6 DUP6 PUSH2 0x9D3 JUMP JUMPDEST POP POP POP POP JUMP JUMPDEST PUSH1 0x0 DUP1 CALLER SWAP1 POP DUP1 EXTCODESIZE SWAP2 POP PUSH1 0x0 DUP3 PUSH4 0xFFFFFFFF AND GT ISZERO PUSH2 0x4B0 JUMPI PUSH1 0x40 MLOAD PUSH32 0x8C379A000000000000000000000000000000000000000000000000000000000 DUP2 MSTORE PUSH1 0x4 ADD PUSH2 0x4A7 SWAP1 PUSH2 0x1B52 JUMP JUMPDEST PUSH1 0x40 MLOAD DUP1 SWAP2 SUB SWAP1 REVERT JUMPDEST PUSH8 0xDE0B6B3A7640000 CALLVALUE EQ PUSH2 0x4FA JUMPI PUSH1 0x40 MLOAD PUSH32 0x8C379A000000000000000000000000000000000000000000000000000000000 DUP2 MSTORE PUSH1 0x4 ADD PUSH2 0x4F1 SWAP1 PUSH2 0x1B32 JUMP JUMPDEST PUSH1 0x40 MLOAD DUP1 SWAP2 SUB SWAP1 REVERT JUMPDEST PUSH1 0x40 MLOAD DUP1 PUSH1 0x60 ADD PUSH1 0x40 MSTORE DUP1 PUSH1 0x0 SLOAD DUP2 MSTORE PUSH1 0x20 ADD CALLER PUSH20 0xFFFFFFFFFFFFFFFFFFFFFFFFFFFFFFFFFFFFFFFF AND DUP2 MSTORE PUSH1 0x20 ADD DUP5 DUP2 MSTORE POP PUSH1 0x4 PUSH1 0x0 CALLER PUSH20 0xFFFFFFFFFFFFFFFFFFFFFFFFFFFFFFFFFFFFFFFF AND PUSH20 0xFFFFFFFFFFFFFFFFFFFFFFFFFFFFFFFFFFFFFFFF AND DUP2 MSTORE PUSH1 0x20 ADD SWAP1 DUP2 MSTORE PUSH1 0x20 ADD PUSH1 0x0 KECCAK256 PUSH1 0x0 DUP3 ADD MLOAD DUP2 PUSH1 0x0 ADD SSTORE PUSH1 0x20 DUP3 ADD MLOAD DUP2 PUSH1 0x1 ADD PUSH1 0x0 PUSH2 0x100 EXP DUP2 SLOAD DUP2 PUSH20 0xFFFFFFFFFFFFFFFFFFFFFFFFFFFFFFFFFFFFFFFF MUL NOT AND SWAP1 DUP4 PUSH20 0xFFFFFFFFFFFFFFFFFFFFFFFFFFFFFFFFFFFFFFFF AND MUL OR SWAP1 SSTORE POP PUSH1 0x40 DUP3 ADD MLOAD DUP2 PUSH1 0x2 ADD SSTORE SWAP1 POP POP CALLER PUSH1 0x3 PUSH1 0x0 DUP1 SLOAD DUP2 MSTORE PUSH1 0x20 ADD SWAP1 DUP2 MSTORE PUSH1 0x20 ADD PUSH1 0x0 KECCAK256 PUSH1 0x0 PUSH2 0x100 EXP DUP2 SLOAD DUP2 PUSH20 0xFFFFFFFFFFFFFFFFFFFFFFFFFFFFFFFFFFFFFFFF MUL NOT AND SWAP1 DUP4 PUSH20 0xFFFFFFFFFFFFFFFFFFFFFFFFFFFFFFFFFFFFFFFF AND MUL OR SWAP1 SSTORE POP PUSH1 0x1 PUSH1 0x0 DUP1 DUP3 DUP3 SLOAD PUSH2 0x62F SWAP2 SWAP1 PUSH2 0x1CBB JUMP JUMPDEST SWAP3 POP POP DUP2 SWAP1 SSTORE POP POP POP POP JUMP JUMPDEST PUSH1 0x4 PUSH1 0x20 MSTORE DUP1 PUSH1 0x0 MSTORE PUSH1 0x40 PUSH1 0x0 KECCAK256 PUSH1 0x0 SWAP2 POP SWAP1 POP DUP1 PUSH1 0x0 ADD SLOAD SWAP1 DUP1 PUSH1 0x1 ADD PUSH1 0x0 SWAP1 SLOAD SWAP1 PUSH2 0x100 EXP SWAP1 DIV PUSH20 0xFFFFFFFFFFFFFFFFFFFFFFFFFFFFFFFFFFFFFFFF AND SWAP1 DUP1 PUSH1 0x2 ADD SLOAD SWAP1 POP DUP4 JUMP JUMPDEST PUSH1 0x8 PUSH1 0x20 MSTORE DUP2 PUSH1 0x0 MSTORE PUSH1 0x40 PUSH1 0x0 KECCAK256 PUSH1 0x20 MSTORE DUP1 PUSH1 0x0 MSTORE PUSH1 0x40 PUSH1 0x0 KECCAK256 PUSH1 0x0 SWAP2 POP SWAP2 POP SWAP1 SLOAD SWAP1 PUSH2 0x100 EXP SWAP1 DIV PUSH1 0xFF AND DUP2 JUMP JUMPDEST PUSH1 0x0 PUSH20 0xFFFFFFFFFFFFFFFFFFFFFFFFFFFFFFFFFFFFFFFF AND PUSH1 0x4 PUSH1 0x0 CALLER PUSH20 0xFFFFFFFFFFFFFFFFFFFFFFFFFFFFFFFFFFFFFFFF AND PUSH20 0xFFFFFFFFFFFFFFFFFFFFFFFFFFFFFFFFFFFFFFFF AND DUP2 MSTORE PUSH1 0x20 ADD SWAP1 DUP2 MSTORE PUSH1 0x20 ADD PUSH1 0x0 KECCAK256 PUSH1 0x1 ADD PUSH1 0x0 SWAP1 SLOAD SWAP1 PUSH2 0x100 EXP SWAP1 DIV PUSH20 0xFFFFFFFFFFFFFFFFFFFFFFFFFFFFFFFFFFFFFFFF AND PUSH20 0xFFFFFFFFFFFFFFFFFFFFFFFFFFFFFFFFFFFFFFFF AND EQ ISZERO PUSH2 0x750 JUMPI PUSH1 0x0 DUP1 REVERT JUMPDEST PUSH2 0x75B DUP2 CALLER CALLVALUE PUSH2 0x9D3 JUMP JUMPDEST POP JUMP JUMPDEST PUSH1 0x0 DUP2 PUSH20 0xFFFFFFFFFFFFFFFFFFFFFFFFFFFFFFFFFFFFFFFF AND BALANCE SWAP1 POP SWAP2 SWAP1 POP JUMP JUMPDEST PUSH1 0x6 PUSH1 0x20 MSTORE DUP2 PUSH1 0x0 MSTORE PUSH1 0x40 PUSH1 0x0 KECCAK256 PUSH1 0x20 MSTORE DUP1 PUSH1 0x0 MSTORE PUSH1 0x40 PUSH1 0x0 KECCAK256 PUSH1 0x0 SWAP2 POP SWAP2 POP POP DUP1 PUSH1 0x0 ADD SLOAD SWAP1 DUP1 PUSH1 0x1 ADD PUSH1 0x0 SWAP1 SLOAD SWAP1 PUSH2 0x100 EXP SWAP1 DIV PUSH20 0xFFFFFFFFFFFFFFFFFFFFFFFFFFFFFFFFFFFFFFFF AND SWAP1 DUP1 PUSH1 0x2 ADD SLOAD SWAP1 POP DUP4 JUMP JUMPDEST PUSH2 0x7DF CALLER PUSH2 0x8F8 JUMP JUMPDEST PUSH2 0x7E8 JUMPI PUSH1 0x0 DUP1 REVERT JUMPDEST PUSH1 0x40 MLOAD DUP1 PUSH1 0x40 ADD PUSH1 0x40 MSTORE DUP1 DUP4 DUP2 MSTORE PUSH1 0x20 ADD DUP3 DUP2 MSTORE POP PUSH1 0x2 PUSH1 0x0 PUSH1 0x1 PUSH1 0x0 SWAP1 SLOAD SWAP1 PUSH2 0x100 EXP SWAP1 DIV PUSH1 0xFF AND PUSH1 0xFF AND PUSH1 0xFF AND DUP2 MSTORE PUSH1 0x20 ADD SWAP1 DUP2 MSTORE PUSH1 0x20 ADD PUSH1 0x0 KECCAK256 PUSH1 0x0 DUP3 ADD MLOAD DUP2 PUSH1 0x0 ADD SSTORE PUSH1 0x20 DUP3 ADD MLOAD DUP2 PUSH1 0x1 ADD SSTORE SWAP1 POP POP PUSH32 0x954900F0FB49268C265D1BAFBFBF6C060C8B41CDB6B0BCAA575389D650B5E374 PUSH1 0x2 PUSH1 0x0 PUSH1 0x1 PUSH1 0x0 SWAP1 SLOAD SWAP1 PUSH2 0x100 EXP SWAP1 DIV PUSH1 0xFF AND PUSH1 0xFF AND PUSH1 0xFF AND DUP2 MSTORE PUSH1 0x20 ADD SWAP1 DUP2 MSTORE PUSH1 0x20 ADD PUSH1 0x0 KECCAK256 PUSH1 0x40 MLOAD PUSH2 0x892 SWAP2 SWAP1 PUSH2 0x1B72 JUMP JUMPDEST PUSH1 0x40 MLOAD DUP1 SWAP2 SUB SWAP1 LOG1 PUSH1 0x1 DUP1 PUSH1 0x0 DUP3 DUP3 DUP3 SWAP1 SLOAD SWAP1 PUSH2 0x100 EXP SWAP1 DIV PUSH1 0xFF AND PUSH2 0x8B8 SWAP2 SWAP1 PUSH2 0x1D11 JUMP JUMPDEST SWAP3 POP PUSH2 0x100 EXP DUP2 SLOAD DUP2 PUSH1 0xFF MUL NOT AND SWAP1 DUP4 PUSH1 0xFF AND MUL OR SWAP1 SSTORE POP POP POP JUMP JUMPDEST PUSH1 0x2 PUSH1 0x20 MSTORE DUP1 PUSH1 0x0 MSTORE PUSH1 0x40 PUSH1 0x0 KECCAK256 PUSH1 0x0 SWAP2 POP SWAP1 POP DUP1 PUSH1 0x0 ADD SLOAD SWAP1 DUP1 PUSH1 0x1 ADD SLOAD SWAP1 POP DUP3 JUMP JUMPDEST PUSH1 0x0 PUSH1 0x1 DUP1 SLOAD SWAP1 PUSH2 0x100 EXP SWAP1 DIV PUSH20 0xFFFFFFFFFFFFFFFFFFFFFFFFFFFFFFFFFFFFFFFF AND PUSH20 0xFFFFFFFFFFFFFFFFFFFFFFFFFFFFFFFFFFFFFFFF AND DUP3 PUSH20 0xFFFFFFFFFFFFFFFFFFFFFFFFFFFFFFFFFFFFFFFF AND EQ SWAP1 POP SWAP2 SWAP1 POP JUMP JUMPDEST PUSH1 0x5 PUSH1 0x20 MSTORE DUP1 PUSH1 0x0 MSTORE PUSH1 0x40 PUSH1 0x0 KECCAK256 PUSH1 0x0 SWAP2 POP SWAP1 POP SLOAD DUP2 JUMP JUMPDEST PUSH1 0x1 PUSH1 0x0 SWAP1 SLOAD SWAP1 PUSH2 0x100 EXP SWAP1 DIV PUSH1 0xFF AND DUP2 JUMP JUMPDEST PUSH1 0x3 PUSH1 0x20 MSTORE DUP1 PUSH1 0x0 MSTORE PUSH1 0x40 PUSH1 0x0 KECCAK256 PUSH1 0x0 SWAP2 POP SLOAD SWAP1 PUSH2 0x100 EXP SWAP1 DIV PUSH20 0xFFFFFFFFFFFFFFFFFFFFFFFFFFFFFFFFFFFFFFFF AND DUP2 JUMP JUMPDEST PUSH1 0x7 PUSH1 0x20 MSTORE DUP2 PUSH1 0x0 MSTORE PUSH1 0x40 PUSH1 0x0 KECCAK256 PUSH1 0x20 MSTORE DUP1 PUSH1 0x0 MSTORE PUSH1 0x40 PUSH1 0x0 KECCAK256 PUSH1 0x0 SWAP2 POP SWAP2 POP POP SLOAD DUP2 JUMP JUMPDEST PUSH1 0x2 PUSH1 0x0 DUP5 PUSH1 0xFF AND PUSH1 0xFF AND DUP2 MSTORE PUSH1 0x20 ADD SWAP1 DUP2 MSTORE PUSH1 0x20 ADD PUSH1 0x0 KECCAK256 PUSH1 0x1 ADD SLOAD DUP2 LT ISZERO PUSH2 0xA32 JUMPI PUSH1 0x40 MLOAD PUSH32 0x8C379A000000000000000000000000000000000000000000000000000000000 DUP2 MSTORE PUSH1 0x4 ADD PUSH2 0xA29 SWAP1 PUSH2 0x1B12 JUMP JUMPDEST PUSH1 0x40 MLOAD DUP1 SWAP2 SUB SWAP1 REVERT JUMPDEST PUSH1 0x4 PUSH1 0x0 DUP4 PUSH20 0xFFFFFFFFFFFFFFFFFFFFFFFFFFFFFFFFFFFFFFFF AND PUSH20 0xFFFFFFFFFFFFFFFFFFFFFFFFFFFFFFFFFFFFFFFF AND DUP2 MSTORE PUSH1 0x20 ADD SWAP1 DUP2 MSTORE PUSH1 0x20 ADD PUSH1 0x0 KECCAK256 PUSH1 0x6 PUSH1 0x0 DUP6 PUSH1 0xFF AND PUSH1 0xFF AND DUP2 MSTORE PUSH1 0x20 ADD SWAP1 DUP2 MSTORE PUSH1 0x20 ADD PUSH1 0x0 KECCAK256 PUSH1 0x0 PUSH1 0x5 PUSH1 0x0 DUP8 PUSH1 0xFF AND PUSH1 0xFF AND DUP2 MSTORE PUSH1 0x20 ADD SWAP1 DUP2 MSTORE PUSH1 0x20 ADD PUSH1 0x0 KECCAK256 SLOAD DUP2 MSTORE PUSH1 0x20 ADD SWAP1 DUP2 MSTORE PUSH1 0x20 ADD PUSH1 0x0 KECCAK256 PUSH1 0x0 DUP3 ADD SLOAD DUP2 PUSH1 0x0 ADD SSTORE PUSH1 0x1 DUP3 ADD PUSH1 0x0 SWAP1 SLOAD SWAP1 PUSH2 0x100 EXP SWAP1 DIV PUSH20 0xFFFFFFFFFFFFFFFFFFFFFFFFFFFFFFFFFFFFFFFF AND DUP2 PUSH1 0x1 ADD PUSH1 0x0 PUSH2 0x100 EXP DUP2 SLOAD DUP2 PUSH20 0xFFFFFFFFFFFFFFFFFFFFFFFFFFFFFFFFFFFFFFFF MUL NOT AND SWAP1 DUP4 PUSH20 0xFFFFFFFFFFFFFFFFFFFFFFFFFFFFFFFFFFFFFFFF AND MUL OR SWAP1 SSTORE POP PUSH1 0x2 DUP3 ADD SLOAD DUP2 PUSH1 0x2 ADD SSTORE SWAP1 POP POP PUSH1 0x1 PUSH1 0x5 PUSH1 0x0 DUP6 PUSH1 0xFF AND PUSH1 0xFF AND DUP2 MSTORE PUSH1 0x20 ADD SWAP1 DUP2 MSTORE PUSH1 0x20 ADD PUSH1 0x0 KECCAK256 PUSH1 0x0 DUP3 DUP3 SLOAD PUSH2 0xB5C SWAP2 SWAP1 PUSH2 0x1CBB JUMP JUMPDEST SWAP3 POP POP DUP2 SWAP1 SSTORE POP PUSH1 0x1 PUSH1 0x8 PUSH1 0x0 DUP5 PUSH20 0xFFFFFFFFFFFFFFFFFFFFFFFFFFFFFFFFFFFFFFFF AND PUSH20 0xFFFFFFFFFFFFFFFFFFFFFFFFFFFFFFFFFFFFFFFF AND DUP2 MSTORE PUSH1 0x20 ADD SWAP1 DUP2 MSTORE PUSH1 0x20 ADD PUSH1 0x0 KECCAK256 PUSH1 0x0 DUP6 PUSH1 0xFF AND PUSH1 0xFF AND DUP2 MSTORE PUSH1 0x20 ADD SWAP1 DUP2 MSTORE PUSH1 0x20 ADD PUSH1 0x0 KECCAK256 PUSH1 0x0 PUSH2 0x100 EXP DUP2 SLOAD DUP2 PUSH1 0xFF MUL NOT AND SWAP1 DUP4 ISZERO ISZERO MUL OR SWAP1 SSTORE POP PUSH1 0x3 PUSH1 0x1 PUSH1 0x5 PUSH1 0x0 DUP7 PUSH1 0xFF AND PUSH1 0xFF AND DUP2 MSTORE PUSH1 0x20 ADD SWAP1 DUP2 MSTORE PUSH1 0x20 ADD PUSH1 0x0 KECCAK256 SLOAD PUSH2 0xBFA SWAP2 SWAP1 PUSH2 0x1DD3 JUMP JUMPDEST LT PUSH2 0x17CC JUMPI PUSH1 0x0 PUSH1 0x2 PUSH1 0x1 PUSH1 0x5 PUSH1 0x0 DUP8 PUSH1 0xFF AND PUSH1 0xFF AND DUP2 MSTORE PUSH1 0x20 ADD SWAP1 DUP2 MSTORE PUSH1 0x20 ADD PUSH1 0x0 KECCAK256 SLOAD PUSH2 0xC29 SWAP2 SWAP1 PUSH2 0x1DD3 JUMP JUMPDEST PUSH2 0xC33 SWAP2 SWAP1 PUSH2 0x1D48 JUMP JUMPDEST SWAP1 POP JUMPDEST PUSH1 0x0 PUSH1 0x6 PUSH1 0x0 DUP7 PUSH1 0xFF AND PUSH1 0xFF AND DUP2 MSTORE PUSH1 0x20 ADD SWAP1 DUP2 MSTORE PUSH1 0x20 ADD PUSH1 0x0 KECCAK256 PUSH1 0x0 DUP4 DUP2 MSTORE PUSH1 0x20 ADD SWAP1 DUP2 MSTORE PUSH1 0x20 ADD PUSH1 0x0 KECCAK256 PUSH1 0x1 ADD PUSH1 0x0 SWAP1 SLOAD SWAP1 PUSH2 0x100 EXP SWAP1 DIV PUSH20 0xFFFFFFFFFFFFFFFFFFFFFFFFFFFFFFFFFFFFFFFF AND SWAP1 POP PUSH1 0x1 PUSH1 0x7 PUSH1 0x0 DUP4 PUSH20 0xFFFFFFFFFFFFFFFFFFFFFFFFFFFFFFFFFFFFFFFF AND PUSH20 0xFFFFFFFFFFFFFFFFFFFFFFFFFFFFFFFFFFFFFFFF AND DUP2 MSTORE PUSH1 0x20 ADD SWAP1 DUP2 MSTORE PUSH1 0x20 ADD PUSH1 0x0 KECCAK256 PUSH1 0x0 DUP8 PUSH1 0xFF AND PUSH1 0xFF AND DUP2 MSTORE PUSH1 0x20 ADD SWAP1 DUP2 MSTORE PUSH1 0x20 ADD PUSH1 0x0 KECCAK256 SLOAD GT ISZERO DUP1 PUSH2 0xD5A JUMPI POP PUSH1 0x8 PUSH1 0x0 DUP3 PUSH20 0xFFFFFFFFFFFFFFFFFFFFFFFFFFFFFFFFFFFFFFFF AND PUSH20 0xFFFFFFFFFFFFFFFFFFFFFFFFFFFFFFFFFFFFFFFF AND DUP2 MSTORE PUSH1 0x20 ADD SWAP1 DUP2 MSTORE PUSH1 0x20 ADD PUSH1 0x0 KECCAK256 PUSH1 0x0 PUSH1 0x1 DUP8 PUSH2 0xD37 SWAP2 SWAP1 PUSH2 0x1D11 JUMP JUMPDEST PUSH1 0xFF AND PUSH1 0xFF AND DUP2 MSTORE PUSH1 0x20 ADD SWAP1 DUP2 MSTORE PUSH1 0x20 ADD PUSH1 0x0 KECCAK256 PUSH1 0x0 SWAP1 SLOAD SWAP1 PUSH2 0x100 EXP SWAP1 DIV PUSH1 0xFF AND JUMPDEST ISZERO PUSH2 0x17C0 JUMPI PUSH1 0x0 DUP2 PUSH20 0xFFFFFFFFFFFFFFFFFFFFFFFFFFFFFFFFFFFFFFFF AND PUSH1 0x64 PUSH1 0x4A PUSH1 0x2 PUSH1 0x0 DUP11 PUSH1 0xFF AND PUSH1 0xFF AND DUP2 MSTORE PUSH1 0x20 ADD SWAP1 DUP2 MSTORE PUSH1 0x20 ADD PUSH1 0x0 KECCAK256 PUSH1 0x1 ADD SLOAD PUSH2 0xDA3 SWAP2 SWAP1 PUSH2 0x1D79 JUMP JUMPDEST PUSH2 0xDAD SWAP2 SWAP1 PUSH2 0x1D48 JUMP JUMPDEST PUSH1 0x40 MLOAD PUSH2 0xDB9 SWAP1 PUSH2 0x1AA7 JUMP JUMPDEST PUSH1 0x0 PUSH1 0x40 MLOAD DUP1 DUP4 SUB DUP2 DUP6 DUP8 GAS CALL SWAP3 POP POP POP RETURNDATASIZE DUP1 PUSH1 0x0 DUP2 EQ PUSH2 0xDF6 JUMPI PUSH1 0x40 MLOAD SWAP2 POP PUSH1 0x1F NOT PUSH1 0x3F RETURNDATASIZE ADD AND DUP3 ADD PUSH1 0x40 MSTORE RETURNDATASIZE DUP3 MSTORE RETURNDATASIZE PUSH1 0x0 PUSH1 0x20 DUP5 ADD RETURNDATACOPY PUSH2 0xDFB JUMP JUMPDEST PUSH1 0x60 SWAP2 POP JUMPDEST POP POP SWAP1 POP PUSH1 0x1 PUSH1 0x7 PUSH1 0x0 DUP5 PUSH20 0xFFFFFFFFFFFFFFFFFFFFFFFFFFFFFFFFFFFFFFFF AND PUSH20 0xFFFFFFFFFFFFFFFFFFFFFFFFFFFFFFFFFFFFFFFF AND DUP2 MSTORE PUSH1 0x20 ADD SWAP1 DUP2 MSTORE PUSH1 0x20 ADD PUSH1 0x0 KECCAK256 PUSH1 0x0 DUP9 PUSH1 0xFF AND PUSH1 0xFF AND DUP2 MSTORE PUSH1 0x20 ADD SWAP1 DUP2 MSTORE PUSH1 0x20 ADD PUSH1 0x0 KECCAK256 PUSH1 0x0 DUP3 DUP3 SLOAD PUSH2 0xE66 SWAP2 SWAP1 PUSH2 0x1CBB JUMP JUMPDEST SWAP3 POP POP DUP2 SWAP1 SSTORE POP PUSH32 0x48926DBE5DDF41609856A5A4F394BD85410DFCEDAA2CFEFB48BBB3BBAB8B6BE7 PUSH1 0x2 PUSH1 0x0 DUP9 PUSH1 0xFF AND PUSH1 0xFF AND DUP2 MSTORE PUSH1 0x20 ADD SWAP1 DUP2 MSTORE PUSH1 0x20 ADD PUSH1 0x0 KECCAK256 DUP4 DUP4 PUSH1 0x40 MLOAD PUSH2 0xEB8 SWAP4 SWAP3 SWAP2 SWAP1 PUSH2 0x1B8D JUMP JUMPDEST PUSH1 0x40 MLOAD DUP1 SWAP2 SUB SWAP1 LOG1 PUSH1 0x0 PUSH1 0x6 PUSH1 0x0 DUP9 PUSH1 0xFF AND PUSH1 0xFF AND DUP2 MSTORE PUSH1 0x20 ADD SWAP1 DUP2 MSTORE PUSH1 0x20 ADD PUSH1 0x0 KECCAK256 PUSH1 0x0 DUP6 DUP2 MSTORE PUSH1 0x20 ADD SWAP1 DUP2 MSTORE PUSH1 0x20 ADD PUSH1 0x0 KECCAK256 PUSH1 0x0 ADD SLOAD SWAP1 POP PUSH1 0x0 PUSH1 0x6 PUSH1 0x0 DUP10 PUSH1 0xFF AND PUSH1 0xFF AND DUP2 MSTORE PUSH1 0x20 ADD SWAP1 DUP2 MSTORE PUSH1 0x20 ADD PUSH1 0x0 KECCAK256 PUSH1 0x0 DUP7 DUP2 MSTORE PUSH1 0x20 ADD SWAP1 DUP2 MSTORE PUSH1 0x20 ADD PUSH1 0x0 KECCAK256 PUSH1 0x2 ADD SLOAD SWAP1 POP PUSH1 0x0 PUSH1 0x64 PUSH1 0xA PUSH1 0x2 PUSH1 0x0 DUP13 PUSH1 0xFF AND PUSH1 0xFF AND DUP2 MSTORE PUSH1 0x20 ADD SWAP1 DUP2 MSTORE PUSH1 0x20 ADD PUSH1 0x0 KECCAK256 PUSH1 0x1 ADD SLOAD PUSH2 0xF51 SWAP2 SWAP1 PUSH2 0x1D79 JUMP JUMPDEST PUSH2 0xF5B SWAP2 SWAP1 PUSH2 0x1D48 JUMP JUMPDEST SWAP1 POP PUSH1 0x3 PUSH1 0x0 DUP4 DUP2 MSTORE PUSH1 0x20 ADD SWAP1 DUP2 MSTORE PUSH1 0x20 ADD PUSH1 0x0 KECCAK256 PUSH1 0x0 SWAP1 SLOAD SWAP1 PUSH2 0x100 EXP SWAP1 DIV PUSH20 0xFFFFFFFFFFFFFFFFFFFFFFFFFFFFFFFFFFFFFFFF AND PUSH20 0xFFFFFFFFFFFFFFFFFFFFFFFFFFFFFFFFFFFFFFFF AND DUP2 PUSH1 0x40 MLOAD PUSH2 0xFB4 SWAP1 PUSH2 0x1AA7 JUMP JUMPDEST PUSH1 0x0 PUSH1 0x40 MLOAD DUP1 DUP4 SUB DUP2 DUP6 DUP8 GAS CALL SWAP3 POP POP POP RETURNDATASIZE DUP1 PUSH1 0x0 DUP2 EQ PUSH2 0xFF1 JUMPI PUSH1 0x40 MLOAD SWAP2 POP PUSH1 0x1F NOT PUSH1 0x3F RETURNDATASIZE ADD AND DUP3 ADD PUSH1 0x40 MSTORE RETURNDATASIZE DUP3 MSTORE RETURNDATASIZE PUSH1 0x0 PUSH1 0x20 DUP5 ADD RETURNDATACOPY PUSH2 0xFF6 JUMP JUMPDEST PUSH1 0x60 SWAP2 POP JUMPDEST POP POP DUP1 SWAP5 POP POP DUP4 ISZERO PUSH2 0x1058 JUMPI PUSH32 0x99A41DF4773DA34D9D98CC939025289E5DB562F8FB5DF346A9E7A1672BD288E3 PUSH1 0x2 PUSH1 0x0 DUP12 PUSH1 0xFF AND PUSH1 0xFF AND DUP2 MSTORE PUSH1 0x20 ADD SWAP1 DUP2 MSTORE PUSH1 0x20 ADD PUSH1 0x0 KECCAK256 DUP5 DUP5 DUP5 PUSH1 0x40 MLOAD PUSH2 0x104F SWAP5 SWAP4 SWAP3 SWAP2 SWAP1 PUSH2 0x1BC4 JUMP JUMPDEST PUSH1 0x40 MLOAD DUP1 SWAP2 SUB SWAP1 LOG1 JUMPDEST PUSH1 0x64 PUSH1 0x6 PUSH1 0x2 PUSH1 0x0 DUP13 PUSH1 0xFF AND PUSH1 0xFF AND DUP2 MSTORE PUSH1 0x20 ADD SWAP1 DUP2 MSTORE PUSH1 0x20 ADD PUSH1 0x0 KECCAK256 PUSH1 0x1 ADD SLOAD PUSH2 0x1083 SWAP2 SWAP1 PUSH2 0x1D79 JUMP JUMPDEST PUSH2 0x108D SWAP2 SWAP1 PUSH2 0x1D48 JUMP JUMPDEST SWAP1 POP PUSH1 0x4 PUSH1 0x0 PUSH1 0x3 PUSH1 0x0 DUP6 DUP2 MSTORE PUSH1 0x20 ADD SWAP1 DUP2 MSTORE PUSH1 0x20 ADD PUSH1 0x0 KECCAK256 PUSH1 0x0 SWAP1 SLOAD SWAP1 PUSH2 0x100 EXP SWAP1 DIV PUSH20 0xFFFFFFFFFFFFFFFFFFFFFFFFFFFFFFFFFFFFFFFF AND PUSH20 0xFFFFFFFFFFFFFFFFFFFFFFFFFFFFFFFFFFFFFFFF AND PUSH20 0xFFFFFFFFFFFFFFFFFFFFFFFFFFFFFFFFFFFFFFFF AND DUP2 MSTORE PUSH1 0x20 ADD SWAP1 DUP2 MSTORE PUSH1 0x20 ADD PUSH1 0x0 KECCAK256 PUSH1 0x1 ADD PUSH1 0x0 SWAP1 SLOAD SWAP1 PUSH2 0x100 EXP SWAP1 DIV PUSH20 0xFFFFFFFFFFFFFFFFFFFFFFFFFFFFFFFFFFFFFFFF AND PUSH20 0xFFFFFFFFFFFFFFFFFFFFFFFFFFFFFFFFFFFFFFFF AND DUP2 PUSH1 0x40 MLOAD PUSH2 0x1148 SWAP1 PUSH2 0x1AA7 JUMP JUMPDEST PUSH1 0x0 PUSH1 0x40 MLOAD DUP1 DUP4 SUB DUP2 DUP6 DUP8 GAS CALL SWAP3 POP POP POP RETURNDATASIZE DUP1 PUSH1 0x0 DUP2 EQ PUSH2 0x1185 JUMPI PUSH1 0x40 MLOAD SWAP2 POP PUSH1 0x1F NOT PUSH1 0x3F RETURNDATASIZE ADD AND DUP3 ADD PUSH1 0x40 MSTORE RETURNDATASIZE DUP3 MSTORE RETURNDATASIZE PUSH1 0x0 PUSH1 0x20 DUP5 ADD RETURNDATACOPY PUSH2 0x118A JUMP JUMPDEST PUSH1 0x60 SWAP2 POP JUMPDEST POP POP DUP1 SWAP5 POP POP DUP4 ISZERO PUSH2 0x1261 JUMPI PUSH32 0x99A41DF4773DA34D9D98CC939025289E5DB562F8FB5DF346A9E7A1672BD288E3 PUSH1 0x2 PUSH1 0x0 DUP12 PUSH1 0xFF AND PUSH1 0xFF AND DUP2 MSTORE PUSH1 0x20 ADD SWAP1 DUP2 MSTORE PUSH1 0x20 ADD PUSH1 0x0 KECCAK256 DUP4 PUSH1 0x4 PUSH1 0x0 PUSH1 0x3 PUSH1 0x0 DUP9 DUP2 MSTORE PUSH1 0x20 ADD SWAP1 DUP2 MSTORE PUSH1 0x20 ADD PUSH1 0x0 KECCAK256 PUSH1 0x0 SWAP1 SLOAD SWAP1 PUSH2 0x100 EXP SWAP1 DIV PUSH20 0xFFFFFFFFFFFFFFFFFFFFFFFFFFFFFFFFFFFFFFFF AND PUSH20 0xFFFFFFFFFFFFFFFFFFFFFFFFFFFFFFFFFFFFFFFF AND PUSH20 0xFFFFFFFFFFFFFFFFFFFFFFFFFFFFFFFFFFFFFFFF AND DUP2 MSTORE PUSH1 0x20 ADD SWAP1 DUP2 MSTORE PUSH1 0x20 ADD PUSH1 0x0 KECCAK256 PUSH1 0x0 ADD SLOAD DUP5 PUSH1 0x40 MLOAD PUSH2 0x1258 SWAP5 SWAP4 SWAP3 SWAP2 SWAP1 PUSH2 0x1BC4 JUMP JUMPDEST PUSH1 0x40 MLOAD DUP1 SWAP2 SUB SWAP1 LOG1 JUMPDEST PUSH1 0x64 PUSH1 0x4 PUSH1 0x2 PUSH1 0x0 DUP13 PUSH1 0xFF AND PUSH1 0xFF AND DUP2 MSTORE PUSH1 0x20 ADD SWAP1 DUP2 MSTORE PUSH1 0x20 ADD PUSH1 0x0 KECCAK256 PUSH1 0x1 ADD SLOAD PUSH2 0x128C SWAP2 SWAP1 PUSH2 0x1D79 JUMP JUMPDEST PUSH2 0x1296 SWAP2 SWAP1 PUSH2 0x1D48 JUMP JUMPDEST SWAP1 POP PUSH1 0x4 PUSH1 0x0 PUSH1 0x3 PUSH1 0x0 PUSH1 0x4 PUSH1 0x0 PUSH1 0x3 PUSH1 0x0 DUP10 DUP2 MSTORE PUSH1 0x20 ADD SWAP1 DUP2 MSTORE PUSH1 0x20 ADD PUSH1 0x0 KECCAK256 PUSH1 0x0 SWAP1 SLOAD SWAP1 PUSH2 0x100 EXP SWAP1 DIV PUSH20 0xFFFFFFFFFFFFFFFFFFFFFFFFFFFFFFFFFFFFFFFF AND PUSH20 0xFFFFFFFFFFFFFFFFFFFFFFFFFFFFFFFFFFFFFFFF AND PUSH20 0xFFFFFFFFFFFFFFFFFFFFFFFFFFFFFFFFFFFFFFFF AND DUP2 MSTORE PUSH1 0x20 ADD SWAP1 DUP2 MSTORE PUSH1 0x20 ADD PUSH1 0x0 KECCAK256 PUSH1 0x0 ADD SLOAD DUP2 MSTORE PUSH1 0x20 ADD SWAP1 DUP2 MSTORE PUSH1 0x20 ADD PUSH1 0x0 KECCAK256 PUSH1 0x0 SWAP1 SLOAD SWAP1 PUSH2 0x100 EXP SWAP1 DIV PUSH20 0xFFFFFFFFFFFFFFFFFFFFFFFFFFFFFFFFFFFFFFFF AND PUSH20 0xFFFFFFFFFFFFFFFFFFFFFFFFFFFFFFFFFFFFFFFF AND PUSH20 0xFFFFFFFFFFFFFFFFFFFFFFFFFFFFFFFFFFFFFFFF AND DUP2 MSTORE PUSH1 0x20 ADD SWAP1 DUP2 MSTORE PUSH1 0x20 ADD PUSH1 0x0 KECCAK256 PUSH1 0x1 ADD PUSH1 0x0 SWAP1 SLOAD SWAP1 PUSH2 0x100 EXP SWAP1 DIV PUSH20 0xFFFFFFFFFFFFFFFFFFFFFFFFFFFFFFFFFFFFFFFF AND PUSH20 0xFFFFFFFFFFFFFFFFFFFFFFFFFFFFFFFFFFFFFFFF AND DUP2 PUSH1 0x40 MLOAD PUSH2 0x13C6 SWAP1 PUSH2 0x1AA7 JUMP JUMPDEST PUSH1 0x0 PUSH1 0x40 MLOAD DUP1 DUP4 SUB DUP2 DUP6 DUP8 GAS CALL SWAP3 POP POP POP RETURNDATASIZE DUP1 PUSH1 0x0 DUP2 EQ PUSH2 0x1403 JUMPI PUSH1 0x40 MLOAD SWAP2 POP PUSH1 0x1F NOT PUSH1 0x3F RETURNDATASIZE ADD AND DUP3 ADD PUSH1 0x40 MSTORE RETURNDATASIZE DUP3 MSTORE RETURNDATASIZE PUSH1 0x0 PUSH1 0x20 DUP5 ADD RETURNDATACOPY PUSH2 0x1408 JUMP JUMPDEST PUSH1 0x60 SWAP2 POP JUMPDEST POP POP DUP1 SWAP5 POP POP DUP4 ISZERO PUSH2 0x15C9 JUMPI PUSH32 0x99A41DF4773DA34D9D98CC939025289E5DB562F8FB5DF346A9E7A1672BD288E3 PUSH1 0x2 PUSH1 0x0 DUP12 PUSH1 0xFF AND PUSH1 0xFF AND DUP2 MSTORE PUSH1 0x20 ADD SWAP1 DUP2 MSTORE PUSH1 0x20 ADD PUSH1 0x0 KECCAK256 PUSH1 0x4 PUSH1 0x0 PUSH1 0x3 PUSH1 0x0 DUP8 DUP2 MSTORE PUSH1 0x20 ADD SWAP1 DUP2 MSTORE PUSH1 0x20 ADD PUSH1 0x0 KECCAK256 PUSH1 0x0 SWAP1 SLOAD SWAP1 PUSH2 0x100 EXP SWAP1 DIV PUSH20 0xFFFFFFFFFFFFFFFFFFFFFFFFFFFFFFFFFFFFFFFF AND PUSH20 0xFFFFFFFFFFFFFFFFFFFFFFFFFFFFFFFFFFFFFFFF AND PUSH20 0xFFFFFFFFFFFFFFFFFFFFFFFFFFFFFFFFFFFFFFFF AND DUP2 MSTORE PUSH1 0x20 ADD SWAP1 DUP2 MSTORE PUSH1 0x20 ADD PUSH1 0x0 KECCAK256 PUSH1 0x0 ADD SLOAD PUSH1 0x4 PUSH1 0x0 PUSH1 0x3 PUSH1 0x0 PUSH1 0x4 PUSH1 0x0 PUSH1 0x3 PUSH1 0x0 DUP13 DUP2 MSTORE PUSH1 0x20 ADD SWAP1 DUP2 MSTORE PUSH1 0x20 ADD PUSH1 0x0 KECCAK256 PUSH1 0x0 SWAP1 SLOAD SWAP1 PUSH2 0x100 EXP SWAP1 DIV PUSH20 0xFFFFFFFFFFFFFFFFFFFFFFFFFFFFFFFFFFFFFFFF AND PUSH20 0xFFFFFFFFFFFFFFFFFFFFFFFFFFFFFFFFFFFFFFFF AND PUSH20 0xFFFFFFFFFFFFFFFFFFFFFFFFFFFFFFFFFFFFFFFF AND DUP2 MSTORE PUSH1 0x20 ADD SWAP1 DUP2 MSTORE PUSH1 0x20 ADD PUSH1 0x0 KECCAK256 PUSH1 0x0 ADD SLOAD DUP2 MSTORE PUSH1 0x20 ADD SWAP1 DUP2 MSTORE PUSH1 0x20 ADD PUSH1 0x0 KECCAK256 PUSH1 0x0 SWAP1 SLOAD SWAP1 PUSH2 0x100 EXP SWAP1 DIV PUSH20 0xFFFFFFFFFFFFFFFFFFFFFFFFFFFFFFFFFFFFFFFF AND PUSH20 0xFFFFFFFFFFFFFFFFFFFFFFFFFFFFFFFFFFFFFFFF AND PUSH20 0xFFFFFFFFFFFFFFFFFFFFFFFFFFFFFFFFFFFFFFFF AND DUP2 MSTORE PUSH1 0x20 ADD SWAP1 DUP2 MSTORE PUSH1 0x20 ADD PUSH1 0x0 KECCAK256 PUSH1 0x0 ADD SLOAD DUP5 PUSH1 0x40 MLOAD PUSH2 0x15C0 SWAP5 SWAP4 SWAP3 SWAP2 SWAP1 PUSH2 0x1BC4 JUMP JUMPDEST PUSH1 0x40 MLOAD DUP1 SWAP2 SUB SWAP1 LOG1 JUMPDEST PUSH1 0x64 PUSH1 0x6 PUSH1 0x2 PUSH1 0x0 DUP13 PUSH1 0xFF AND PUSH1 0xFF AND DUP2 MSTORE PUSH1 0x20 ADD SWAP1 DUP2 MSTORE PUSH1 0x20 ADD PUSH1 0x0 KECCAK256 PUSH1 0x1 ADD SLOAD PUSH2 0x15F4 SWAP2 SWAP1 PUSH2 0x1D79 JUMP JUMPDEST PUSH2 0x15FE SWAP2 SWAP1 PUSH2 0x1D48 JUMP JUMPDEST SWAP1 POP PUSH1 0x4 PUSH1 0x0 PUSH1 0x1 DUP1 SLOAD SWAP1 PUSH2 0x100 EXP SWAP1 DIV PUSH20 0xFFFFFFFFFFFFFFFFFFFFFFFFFFFFFFFFFFFFFFFF AND PUSH20 0xFFFFFFFFFFFFFFFFFFFFFFFFFFFFFFFFFFFFFFFF AND PUSH20 0xFFFFFFFFFFFFFFFFFFFFFFFFFFFFFFFFFFFFFFFF AND DUP2 MSTORE PUSH1 0x20 ADD SWAP1 DUP2 MSTORE PUSH1 0x20 ADD PUSH1 0x0 KECCAK256 PUSH1 0x1 ADD PUSH1 0x0 SWAP1 SLOAD SWAP1 PUSH2 0x100 EXP SWAP1 DIV PUSH20 0xFFFFFFFFFFFFFFFFFFFFFFFFFFFFFFFFFFFFFFFF AND PUSH20 0xFFFFFFFFFFFFFFFFFFFFFFFFFFFFFFFFFFFFFFFF AND DUP2 PUSH1 0x40 MLOAD PUSH2 0x16A6 SWAP1 PUSH2 0x1AA7 JUMP JUMPDEST PUSH1 0x0 PUSH1 0x40 MLOAD DUP1 DUP4 SUB DUP2 DUP6 DUP8 GAS CALL SWAP3 POP POP POP RETURNDATASIZE DUP1 PUSH1 0x0 DUP2 EQ PUSH2 0x16E3 JUMPI PUSH1 0x40 MLOAD SWAP2 POP PUSH1 0x1F NOT PUSH1 0x3F RETURNDATASIZE ADD AND DUP3 ADD PUSH1 0x40 MSTORE RETURNDATASIZE DUP3 MSTORE RETURNDATASIZE PUSH1 0x0 PUSH1 0x20 DUP5 ADD RETURNDATACOPY PUSH2 0x16E8 JUMP JUMPDEST PUSH1 0x60 SWAP2 POP JUMPDEST POP POP DUP1 SWAP5 POP POP DUP4 ISZERO PUSH2 0x17AC JUMPI PUSH32 0x99A41DF4773DA34D9D98CC939025289E5DB562F8FB5DF346A9E7A1672BD288E3 PUSH1 0x2 PUSH1 0x0 DUP12 PUSH1 0xFF AND PUSH1 0xFF AND DUP2 MSTORE PUSH1 0x20 ADD SWAP1 DUP2 MSTORE PUSH1 0x20 ADD PUSH1 0x0 KECCAK256 DUP5 PUSH1 0x4 PUSH1 0x0 PUSH1 0x1 DUP1 SLOAD SWAP1 PUSH2 0x100 EXP SWAP1 DIV PUSH20 0xFFFFFFFFFFFFFFFFFFFFFFFFFFFFFFFFFFFFFFFF AND PUSH20 0xFFFFFFFFFFFFFFFFFFFFFFFFFFFFFFFFFFFFFFFF AND PUSH20 0xFFFFFFFFFFFFFFFFFFFFFFFFFFFFFFFFFFFFFFFF AND DUP2 MSTORE PUSH1 0x20 ADD SWAP1 DUP2 MSTORE PUSH1 0x20 ADD PUSH1 0x0 KECCAK256 PUSH1 0x0 ADD SLOAD DUP5 PUSH1 0x40 MLOAD PUSH2 0x17A3 SWAP5 SWAP4 SWAP3 SWAP2 SWAP1 PUSH2 0x1BC4 JUMP JUMPDEST PUSH1 0x40 MLOAD DUP1 SWAP2 SUB SWAP1 LOG1 JUMPDEST PUSH1 0x2 DUP7 PUSH2 0x17B9 SWAP2 SWAP1 PUSH2 0x1D48 JUMP JUMPDEST SWAP6 POP POP POP POP POP JUMPDEST POP PUSH1 0x0 DUP2 EQ ISZERO PUSH2 0xC36 JUMPI POP JUMPDEST POP POP POP JUMP JUMPDEST PUSH1 0x0 DUP2 CALLDATALOAD SWAP1 POP PUSH2 0x17E0 DUP2 PUSH2 0x201F JUMP JUMPDEST SWAP3 SWAP2 POP POP JUMP JUMPDEST PUSH1 0x0 DUP2 CALLDATALOAD SWAP1 POP PUSH2 0x17F5 DUP2 PUSH2 0x2036 JUMP JUMPDEST SWAP3 SWAP2 POP POP JUMP JUMPDEST PUSH1 0x0 DUP2 CALLDATALOAD SWAP1 POP PUSH2 0x180A DUP2 PUSH2 0x204D JUMP JUMPDEST SWAP3 SWAP2 POP POP JUMP JUMPDEST PUSH1 0x0 PUSH1 0x20 DUP3 DUP5 SUB SLT ISZERO PUSH2 0x1826 JUMPI PUSH2 0x1825 PUSH2 0x1F1A JUMP JUMPDEST JUMPDEST PUSH1 0x0 PUSH2 0x1834 DUP5 DUP3 DUP6 ADD PUSH2 0x17D1 JUMP JUMPDEST SWAP2 POP POP SWAP3 SWAP2 POP POP JUMP JUMPDEST PUSH1 0x0 DUP1 PUSH1 0x40 DUP4 DUP6 SUB SLT ISZERO PUSH2 0x1854 JUMPI PUSH2 0x1853 PUSH2 0x1F1A JUMP JUMPDEST JUMPDEST PUSH1 0x0 PUSH2 0x1862 DUP6 DUP3 DUP7 ADD PUSH2 0x17D1 JUMP JUMPDEST SWAP3 POP POP PUSH1 0x20 PUSH2 0x1873 DUP6 DUP3 DUP7 ADD PUSH2 0x17FB JUMP JUMPDEST SWAP2 POP POP SWAP3 POP SWAP3 SWAP1 POP JUMP JUMPDEST PUSH1 0x0 PUSH1 0x20 DUP3 DUP5 SUB SLT ISZERO PUSH2 0x1893 JUMPI PUSH2 0x1892 PUSH2 0x1F1A JUMP JUMPDEST JUMPDEST PUSH1 0x0 PUSH2 0x18A1 DUP5 DUP3 DUP6 ADD PUSH2 0x17E6 JUMP JUMPDEST SWAP2 POP POP SWAP3 SWAP2 POP POP JUMP JUMPDEST PUSH1 0x0 DUP1 PUSH1 0x40 DUP4 DUP6 SUB SLT ISZERO PUSH2 0x18C1 JUMPI PUSH2 0x18C0 PUSH2 0x1F1A JUMP JUMPDEST JUMPDEST PUSH1 0x0 PUSH2 0x18CF DUP6 DUP3 DUP7 ADD PUSH2 0x17E6 JUMP JUMPDEST SWAP3 POP POP PUSH1 0x20 PUSH2 0x18E0 DUP6 DUP3 DUP7 ADD PUSH2 0x17E6 JUMP JUMPDEST SWAP2 POP POP SWAP3 POP SWAP3 SWAP1 POP JUMP JUMPDEST PUSH1 0x0 PUSH1 0x20 DUP3 DUP5 SUB SLT ISZERO PUSH2 0x1900 JUMPI PUSH2 0x18FF PUSH2 0x1F1A JUMP JUMPDEST JUMPDEST PUSH1 0x0 PUSH2 0x190E DUP5 DUP3 DUP6 ADD PUSH2 0x17FB JUMP JUMPDEST SWAP2 POP POP SWAP3 SWAP2 POP POP JUMP JUMPDEST PUSH1 0x0 DUP1 PUSH1 0x40 DUP4 DUP6 SUB SLT ISZERO PUSH2 0x192E JUMPI PUSH2 0x192D PUSH2 0x1F1A JUMP JUMPDEST JUMPDEST PUSH1 0x0 PUSH2 0x193C DUP6 DUP3 DUP7 ADD PUSH2 0x17FB JUMP JUMPDEST SWAP3 POP POP PUSH1 0x20 PUSH2 0x194D DUP6 DUP3 DUP7 ADD PUSH2 0x17E6 JUMP JUMPDEST SWAP2 POP POP SWAP3 POP SWAP3 SWAP1 POP JUMP JUMPDEST PUSH2 0x1960 DUP2 PUSH2 0x1E23 JUMP JUMPDEST DUP3 MSTORE POP POP JUMP JUMPDEST PUSH2 0x196F DUP2 PUSH2 0x1E11 JUMP JUMPDEST DUP3 MSTORE POP POP JUMP JUMPDEST PUSH2 0x197E DUP2 PUSH2 0x1E35 JUMP JUMPDEST DUP3 MSTORE POP POP JUMP JUMPDEST PUSH1 0x0 PUSH2 0x1991 PUSH1 0xE DUP4 PUSH2 0x1CAA JUMP JUMPDEST SWAP2 POP PUSH2 0x199C DUP3 PUSH2 0x1F2C JUMP JUMPDEST PUSH1 0x20 DUP3 ADD SWAP1 POP SWAP2 SWAP1 POP JUMP JUMPDEST PUSH1 0x0 PUSH2 0x19B4 PUSH1 0x0 DUP4 PUSH2 0x1C9F JUMP JUMPDEST SWAP2 POP PUSH2 0x19BF DUP3 PUSH2 0x1F55 JUMP JUMPDEST PUSH1 0x0 DUP3 ADD SWAP1 POP SWAP2 SWAP1 POP JUMP JUMPDEST PUSH1 0x0 PUSH2 0x19D7 PUSH1 0x23 DUP4 PUSH2 0x1CAA JUMP JUMPDEST SWAP2 POP PUSH2 0x19E2 DUP3 PUSH2 0x1F58 JUMP JUMPDEST PUSH1 0x40 DUP3 ADD SWAP1 POP SWAP2 SWAP1 POP JUMP JUMPDEST PUSH1 0x0 PUSH2 0x19FA PUSH1 0x28 DUP4 PUSH2 0x1CAA JUMP JUMPDEST SWAP2 POP PUSH2 0x1A05 DUP3 PUSH2 0x1FA7 JUMP JUMPDEST PUSH1 0x40 DUP3 ADD SWAP1 POP SWAP2 SWAP1 POP JUMP JUMPDEST PUSH1 0x0 PUSH2 0x1A1D PUSH1 0xC DUP4 PUSH2 0x1CAA JUMP JUMPDEST SWAP2 POP PUSH2 0x1A28 DUP3 PUSH2 0x1FF6 JUMP JUMPDEST PUSH1 0x20 DUP3 ADD SWAP1 POP SWAP2 SWAP1 POP JUMP JUMPDEST PUSH1 0x40 DUP3 ADD PUSH1 0x0 DUP1 DUP4 ADD SLOAD SWAP1 POP PUSH2 0x1A48 DUP2 PUSH2 0x1E78 JUMP JUMPDEST PUSH2 0x1A55 PUSH1 0x0 DUP7 ADD DUP3 PUSH2 0x1A7A JUMP JUMPDEST POP PUSH1 0x1 DUP4 ADD SLOAD SWAP1 POP PUSH2 0x1A66 DUP2 PUSH2 0x1E78 JUMP JUMPDEST PUSH2 0x1A73 PUSH1 0x20 DUP7 ADD DUP3 PUSH2 0x1A7A JUMP JUMPDEST POP POP POP POP POP JUMP JUMPDEST PUSH2 0x1A83 DUP2 PUSH2 0x1E61 JUMP JUMPDEST DUP3 MSTORE POP POP JUMP JUMPDEST PUSH2 0x1A92 DUP2 PUSH2 0x1E61 JUMP JUMPDEST DUP3 MSTORE POP POP JUMP JUMPDEST PUSH2 0x1AA1 DUP2 PUSH2 0x1E6B JUMP JUMPDEST DUP3 MSTORE POP POP JUMP JUMPDEST PUSH1 0x0 PUSH2 0x1AB2 DUP3 PUSH2 0x19A7 JUMP JUMPDEST SWAP2 POP DUP2 SWAP1 POP SWAP2 SWAP1 POP JUMP JUMPDEST PUSH1 0x0 PUSH1 0x20 DUP3 ADD SWAP1 POP PUSH2 0x1AD1 PUSH1 0x0 DUP4 ADD DUP5 PUSH2 0x1966 JUMP JUMPDEST SWAP3 SWAP2 POP POP JUMP JUMPDEST PUSH1 0x0 PUSH1 0x20 DUP3 ADD SWAP1 POP PUSH2 0x1AEC PUSH1 0x0 DUP4 ADD DUP5 PUSH2 0x1975 JUMP JUMPDEST SWAP3 SWAP2 POP POP JUMP JUMPDEST PUSH1 0x0 PUSH1 0x20 DUP3 ADD SWAP1 POP DUP2 DUP2 SUB PUSH1 0x0 DUP4 ADD MSTORE PUSH2 0x1B0B DUP2 PUSH2 0x1984 JUMP JUMPDEST SWAP1 POP SWAP2 SWAP1 POP JUMP JUMPDEST PUSH1 0x0 PUSH1 0x20 DUP3 ADD SWAP1 POP DUP2 DUP2 SUB PUSH1 0x0 DUP4 ADD MSTORE PUSH2 0x1B2B DUP2 PUSH2 0x19CA JUMP JUMPDEST SWAP1 POP SWAP2 SWAP1 POP JUMP JUMPDEST PUSH1 0x0 PUSH1 0x20 DUP3 ADD SWAP1 POP DUP2 DUP2 SUB PUSH1 0x0 DUP4 ADD MSTORE PUSH2 0x1B4B DUP2 PUSH2 0x19ED JUMP JUMPDEST SWAP1 POP SWAP2 SWAP1 POP JUMP JUMPDEST PUSH1 0x0 PUSH1 0x20 DUP3 ADD SWAP1 POP DUP2 DUP2 SUB PUSH1 0x0 DUP4 ADD MSTORE PUSH2 0x1B6B DUP2 PUSH2 0x1A10 JUMP JUMPDEST SWAP1 POP SWAP2 SWAP1 POP JUMP JUMPDEST PUSH1 0x0 PUSH1 0x40 DUP3 ADD SWAP1 POP PUSH2 0x1B87 PUSH1 0x0 DUP4 ADD DUP5 PUSH2 0x1A33 JUMP JUMPDEST SWAP3 SWAP2 POP POP JUMP JUMPDEST PUSH1 0x0 PUSH1 0x80 DUP3 ADD SWAP1 POP PUSH2 0x1BA2 PUSH1 0x0 DUP4 ADD DUP7 PUSH2 0x1A33 JUMP JUMPDEST PUSH2 0x1BAF PUSH1 0x40 DUP4 ADD DUP6 PUSH2 0x1966 JUMP JUMPDEST PUSH2 0x1BBC PUSH1 0x60 DUP4 ADD DUP5 PUSH2 0x1975 JUMP JUMPDEST SWAP5 SWAP4 POP POP POP POP JUMP JUMPDEST PUSH1 0x0 PUSH1 0xA0 DUP3 ADD SWAP1 POP PUSH2 0x1BD9 PUSH1 0x0 DUP4 ADD DUP8 PUSH2 0x1A33 JUMP JUMPDEST PUSH2 0x1BE6 PUSH1 0x40 DUP4 ADD DUP7 PUSH2 0x1A89 JUMP JUMPDEST PUSH2 0x1BF3 PUSH1 0x60 DUP4 ADD DUP6 PUSH2 0x1A89 JUMP JUMPDEST PUSH2 0x1C00 PUSH1 0x80 DUP4 ADD DUP5 PUSH2 0x1A89 JUMP JUMPDEST SWAP6 SWAP5 POP POP POP POP POP JUMP JUMPDEST PUSH1 0x0 PUSH1 0x20 DUP3 ADD SWAP1 POP PUSH2 0x1C1E PUSH1 0x0 DUP4 ADD DUP5 PUSH2 0x1A89 JUMP JUMPDEST SWAP3 SWAP2 POP POP JUMP JUMPDEST PUSH1 0x0 PUSH1 0x60 DUP3 ADD SWAP1 POP PUSH2 0x1C39 PUSH1 0x0 DUP4 ADD DUP7 PUSH2 0x1A89 JUMP JUMPDEST PUSH2 0x1C46 PUSH1 0x20 DUP4 ADD DUP6 PUSH2 0x1957 JUMP JUMPDEST PUSH2 0x1C53 PUSH1 0x40 DUP4 ADD DUP5 PUSH2 0x1A89 JUMP JUMPDEST SWAP5 SWAP4 POP POP POP POP JUMP JUMPDEST PUSH1 0x0 PUSH1 0x40 DUP3 ADD SWAP1 POP PUSH2 0x1C70 PUSH1 0x0 DUP4 ADD DUP6 PUSH2 0x1A89 JUMP JUMPDEST PUSH2 0x1C7D PUSH1 0x20 DUP4 ADD DUP5 PUSH2 0x1A89 JUMP JUMPDEST SWAP4 SWAP3 POP POP POP JUMP JUMPDEST PUSH1 0x0 PUSH1 0x20 DUP3 ADD SWAP1 POP PUSH2 0x1C99 PUSH1 0x0 DUP4 ADD DUP5 PUSH2 0x1A98 JUMP JUMPDEST SWAP3 SWAP2 POP POP JUMP JUMPDEST PUSH1 0x0 DUP2 SWAP1 POP SWAP3 SWAP2 POP POP JUMP JUMPDEST PUSH1 0x0 DUP3 DUP3 MSTORE PUSH1 0x20 DUP3 ADD SWAP1 POP SWAP3 SWAP2 POP POP JUMP JUMPDEST PUSH1 0x0 PUSH2 0x1CC6 DUP3 PUSH2 0x1E61 JUMP JUMPDEST SWAP2 POP PUSH2 0x1CD1 DUP4 PUSH2 0x1E61 JUMP JUMPDEST SWAP3 POP DUP3 PUSH32 0xFFFFFFFFFFFFFFFFFFFFFFFFFFFFFFFFFFFFFFFFFFFFFFFFFFFFFFFFFFFFFFFF SUB DUP3 GT ISZERO PUSH2 0x1D06 JUMPI PUSH2 0x1D05 PUSH2 0x1EBC JUMP JUMPDEST JUMPDEST DUP3 DUP3 ADD SWAP1 POP SWAP3 SWAP2 POP POP JUMP JUMPDEST PUSH1 0x0 PUSH2 0x1D1C DUP3 PUSH2 0x1E6B JUMP JUMPDEST SWAP2 POP PUSH2 0x1D27 DUP4 PUSH2 0x1E6B JUMP JUMPDEST SWAP3 POP DUP3 PUSH1 0xFF SUB DUP3 GT ISZERO PUSH2 0x1D3D JUMPI PUSH2 0x1D3C PUSH2 0x1EBC JUMP JUMPDEST JUMPDEST DUP3 DUP3 ADD SWAP1 POP SWAP3 SWAP2 POP POP JUMP JUMPDEST PUSH1 0x0 PUSH2 0x1D53 DUP3 PUSH2 0x1E61 JUMP JUMPDEST SWAP2 POP PUSH2 0x1D5E DUP4 PUSH2 0x1E61 JUMP JUMPDEST SWAP3 POP DUP3 PUSH2 0x1D6E JUMPI PUSH2 0x1D6D PUSH2 0x1EEB JUMP JUMPDEST JUMPDEST DUP3 DUP3 DIV SWAP1 POP SWAP3 SWAP2 POP POP JUMP JUMPDEST PUSH1 0x0 PUSH2 0x1D84 DUP3 PUSH2 0x1E61 JUMP JUMPDEST SWAP2 POP PUSH2 0x1D8F DUP4 PUSH2 0x1E61 JUMP JUMPDEST SWAP3 POP DUP2 PUSH32 0xFFFFFFFFFFFFFFFFFFFFFFFFFFFFFFFFFFFFFFFFFFFFFFFFFFFFFFFFFFFFFFFF DIV DUP4 GT DUP3 ISZERO ISZERO AND ISZERO PUSH2 0x1DC8 JUMPI PUSH2 0x1DC7 PUSH2 0x1EBC JUMP JUMPDEST JUMPDEST DUP3 DUP3 MUL SWAP1 POP SWAP3 SWAP2 POP POP JUMP JUMPDEST PUSH1 0x0 PUSH2 0x1DDE DUP3 PUSH2 0x1E61 JUMP JUMPDEST SWAP2 POP PUSH2 0x1DE9 DUP4 PUSH2 0x1E61 JUMP JUMPDEST SWAP3 POP DUP3 DUP3 LT ISZERO PUSH2 0x1DFC JUMPI PUSH2 0x1DFB PUSH2 0x1EBC JUMP JUMPDEST JUMPDEST DUP3 DUP3 SUB SWAP1 POP SWAP3 SWAP2 POP POP JUMP JUMPDEST PUSH1 0x0 DUP2 SWAP1 POP SWAP2 SWAP1 POP JUMP JUMPDEST PUSH1 0x0 PUSH2 0x1E1C DUP3 PUSH2 0x1E41 JUMP JUMPDEST SWAP1 POP SWAP2 SWAP1 POP JUMP JUMPDEST PUSH1 0x0 PUSH2 0x1E2E DUP3 PUSH2 0x1E41 JUMP JUMPDEST SWAP1 POP SWAP2 SWAP1 POP JUMP JUMPDEST PUSH1 0x0 DUP2 ISZERO ISZERO SWAP1 POP SWAP2 SWAP1 POP JUMP JUMPDEST PUSH1 0x0 PUSH20 0xFFFFFFFFFFFFFFFFFFFFFFFFFFFFFFFFFFFFFFFF DUP3 AND SWAP1 POP SWAP2 SWAP1 POP JUMP JUMPDEST PUSH1 0x0 DUP2 SWAP1 POP SWAP2 SWAP1 POP JUMP JUMPDEST PUSH1 0x0 PUSH1 0xFF DUP3 AND SWAP1 POP SWAP2 SWAP1 POP JUMP JUMPDEST PUSH1 0x0 PUSH2 0x1E8B PUSH2 0x1E86 DUP4 PUSH2 0x1F1F JUMP JUMPDEST PUSH2 0x1E07 JUMP JUMPDEST SWAP1 POP SWAP2 SWAP1 POP JUMP JUMPDEST PUSH1 0x0 PUSH2 0x1E9D DUP3 PUSH2 0x1E6B JUMP JUMPDEST SWAP2 POP PUSH1 0xFF DUP3 EQ ISZERO PUSH2 0x1EB1 JUMPI PUSH2 0x1EB0 PUSH2 0x1EBC JUMP JUMPDEST JUMPDEST PUSH1 0x1 DUP3 ADD SWAP1 POP SWAP2 SWAP1 POP JUMP JUMPDEST PUSH32 0x4E487B7100000000000000000000000000000000000000000000000000000000 PUSH1 0x0 MSTORE PUSH1 0x11 PUSH1 0x4 MSTORE PUSH1 0x24 PUSH1 0x0 REVERT JUMPDEST PUSH32 0x4E487B7100000000000000000000000000000000000000000000000000000000 PUSH1 0x0 MSTORE PUSH1 0x12 PUSH1 0x4 MSTORE PUSH1 0x24 PUSH1 0x0 REVERT JUMPDEST PUSH1 0x0 DUP1 REVERT JUMPDEST PUSH1 0x0 DUP2 PUSH1 0x0 SHR SWAP1 POP SWAP2 SWAP1 POP JUMP JUMPDEST PUSH32 0x47616D65206E6F7420666F756E64000000000000000000000000000000000000 PUSH1 0x0 DUP3 ADD MSTORE POP JUMP JUMPDEST POP JUMP JUMPDEST PUSH32 0x496E73756666696369656E7420616D6F756E74206F6620636F6E747269627574 PUSH1 0x0 DUP3 ADD MSTORE PUSH32 0x696F6E0000000000000000000000000000000000000000000000000000000000 PUSH1 0x20 DUP3 ADD MSTORE POP JUMP JUMPDEST PUSH32 0x466F72207265676974657220696E2067616D6520796F75206E65656420706179 PUSH1 0x0 DUP3 ADD MSTORE PUSH32 0x2031206574686572000000000000000000000000000000000000000000000000 PUSH1 0x20 DUP3 ADD MSTORE POP JUMP JUMPDEST PUSH32 0x4E6F20636F6E7472616374730000000000000000000000000000000000000000 PUSH1 0x0 DUP3 ADD MSTORE POP JUMP JUMPDEST PUSH2 0x2028 DUP2 PUSH2 0x1E11 JUMP JUMPDEST DUP2 EQ PUSH2 0x2033 JUMPI PUSH1 0x0 DUP1 REVERT JUMPDEST POP JUMP JUMPDEST PUSH2 0x203F DUP2 PUSH2 0x1E61 JUMP JUMPDEST DUP2 EQ PUSH2 0x204A JUMPI PUSH1 0x0 DUP1 REVERT JUMPDEST POP JUMP JUMPDEST PUSH2 0x2056 DUP2 PUSH2 0x1E6B JUMP JUMPDEST DUP2 EQ PUSH2 0x2061 JUMPI PUSH1 0x0 DUP1 REVERT JUMPDEST POP JUMP INVALID LOG2 PUSH5 0x6970667358 0x22 SLT KECCAK256 SAR TIMESTAMP PC 0x22 0xA9 DUP8 0xAC 0xD7 PUSH8 0x322717F6C2063326 EXTCODESIZE 0xCC BALANCE PC NOT 0x4D 0xEB 0xBC 0xEE PUSH6 0xF66DC928F864 PUSH20 0x6F6C634300080700330000000000000000000000 "
				},
				"gasEstimates": {
					"creation": {
						"codeDepositCost": "1669200",
						"executionCost": "infinite",
						"totalCost": "infinite"
					},
					"external": {
						"": "infinite",
						"addGameLevel(uint256,uint256)": "infinite",
						"currentGameIdIndex()": "2515",
						"currentUserIndex(uint8)": "2793",
						"getUserBalance(address)": "3346",
						"hasAccess(address)": "2925",
						"joinToGame(uint8)": "infinite",
						"levels(uint8)": "infinite",
						"pools(uint8,uint256)": "infinite",
						"registerUserToGame(uint256)": "infinite",
						"registeredUsers(address)": "infinite",
						"userGames(address,uint8)": "3138",
						"userPayments(address,uint8)": "3144",
						"usersId(uint256)": "2905"
					},
					"internal": {
						"_fallback(address,uint256)": "infinite",
						"_joinToGame(uint8,address,uint256)": "infinite"
					}
				},
				"methodIdentifiers": {
					"addGameLevel(uint256,uint256)": "7b0d5efa",
					"currentGameIdIndex()": "ad39f0a3",
					"currentUserIndex(uint8)": "9b0b0ae3",
					"getUserBalance(address)": "47734892",
					"hasAccess(address)": "95a078e8",
					"joinToGame(uint8)": "2e8aab9b",
					"levels(uint8)": "906cbf57",
					"pools(uint8,uint256)": "78a32e21",
					"registerUserToGame(uint256)": "0173c05b",
					"registeredUsers(address)": "0e50cee5",
					"userGames(address,uint8)": "2a648c89",
					"userPayments(address,uint8)": "f1060006",
					"usersId(uint256)": "bd233b91"
				}
			},
			"storageLayout": {
				"storage": [
					{
						"astId": 3,
						"contract": "cobraBot/Contract.sol:Pyramid",
						"label": "currentUserIdIndex",
						"offset": 0,
						"slot": "0",
						"type": "t_uint256"
					},
					{
						"astId": 5,
						"contract": "cobraBot/Contract.sol:Pyramid",
						"label": "currentGameIdIndex",
						"offset": 0,
						"slot": "1",
						"type": "t_uint8"
					},
					{
						"astId": 7,
						"contract": "cobraBot/Contract.sol:Pyramid",
						"label": "contractOwner",
						"offset": 1,
						"slot": "1",
						"type": "t_address"
					},
					{
						"astId": 39,
						"contract": "cobraBot/Contract.sol:Pyramid",
						"label": "levels",
						"offset": 0,
						"slot": "2",
						"type": "t_mapping(t_uint8,t_struct(Game)34_storage)"
					},
					{
						"astId": 43,
						"contract": "cobraBot/Contract.sol:Pyramid",
						"label": "usersId",
						"offset": 0,
						"slot": "3",
						"type": "t_mapping(t_uint256,t_address)"
					},
					{
						"astId": 48,
						"contract": "cobraBot/Contract.sol:Pyramid",
						"label": "registeredUsers",
						"offset": 0,
						"slot": "4",
						"type": "t_mapping(t_address,t_struct(User)29_storage)"
					},
					{
						"astId": 52,
						"contract": "cobraBot/Contract.sol:Pyramid",
						"label": "currentUserIndex",
						"offset": 0,
						"slot": "5",
						"type": "t_mapping(t_uint8,t_uint256)"
					},
					{
						"astId": 59,
						"contract": "cobraBot/Contract.sol:Pyramid",
						"label": "pools",
						"offset": 0,
						"slot": "6",
						"type": "t_mapping(t_uint8,t_mapping(t_uint256,t_struct(User)29_storage))"
					},
					{
						"astId": 65,
						"contract": "cobraBot/Contract.sol:Pyramid",
						"label": "userPayments",
						"offset": 0,
						"slot": "7",
						"type": "t_mapping(t_address,t_mapping(t_uint8,t_uint256))"
					},
					{
						"astId": 71,
						"contract": "cobraBot/Contract.sol:Pyramid",
						"label": "userGames",
						"offset": 0,
						"slot": "8",
						"type": "t_mapping(t_address,t_mapping(t_uint8,t_bool))"
					}
				],
				"types": {
					"t_address": {
						"encoding": "inplace",
						"label": "address",
						"numberOfBytes": "20"
					},
					"t_address_payable": {
						"encoding": "inplace",
						"label": "address payable",
						"numberOfBytes": "20"
					},
					"t_bool": {
						"encoding": "inplace",
						"label": "bool",
						"numberOfBytes": "1"
					},
					"t_mapping(t_address,t_mapping(t_uint8,t_bool))": {
						"encoding": "mapping",
						"key": "t_address",
						"label": "mapping(address => mapping(uint8 => bool))",
						"numberOfBytes": "32",
						"value": "t_mapping(t_uint8,t_bool)"
					},
					"t_mapping(t_address,t_mapping(t_uint8,t_uint256))": {
						"encoding": "mapping",
						"key": "t_address",
						"label": "mapping(address => mapping(uint8 => uint256))",
						"numberOfBytes": "32",
						"value": "t_mapping(t_uint8,t_uint256)"
					},
					"t_mapping(t_address,t_struct(User)29_storage)": {
						"encoding": "mapping",
						"key": "t_address",
						"label": "mapping(address => struct Pyramid.User)",
						"numberOfBytes": "32",
						"value": "t_struct(User)29_storage"
					},
					"t_mapping(t_uint256,t_address)": {
						"encoding": "mapping",
						"key": "t_uint256",
						"label": "mapping(uint256 => address)",
						"numberOfBytes": "32",
						"value": "t_address"
					},
					"t_mapping(t_uint256,t_struct(User)29_storage)": {
						"encoding": "mapping",
						"key": "t_uint256",
						"label": "mapping(uint256 => struct Pyramid.User)",
						"numberOfBytes": "32",
						"value": "t_struct(User)29_storage"
					},
					"t_mapping(t_uint8,t_bool)": {
						"encoding": "mapping",
						"key": "t_uint8",
						"label": "mapping(uint8 => bool)",
						"numberOfBytes": "32",
						"value": "t_bool"
					},
					"t_mapping(t_uint8,t_mapping(t_uint256,t_struct(User)29_storage))": {
						"encoding": "mapping",
						"key": "t_uint8",
						"label": "mapping(uint8 => mapping(uint256 => struct Pyramid.User))",
						"numberOfBytes": "32",
						"value": "t_mapping(t_uint256,t_struct(User)29_storage)"
					},
					"t_mapping(t_uint8,t_struct(Game)34_storage)": {
						"encoding": "mapping",
						"key": "t_uint8",
						"label": "mapping(uint8 => struct Pyramid.Game)",
						"numberOfBytes": "32",
						"value": "t_struct(Game)34_storage"
					},
					"t_mapping(t_uint8,t_uint256)": {
						"encoding": "mapping",
						"key": "t_uint8",
						"label": "mapping(uint8 => uint256)",
						"numberOfBytes": "32",
						"value": "t_uint256"
					},
					"t_struct(Game)34_storage": {
						"encoding": "inplace",
						"label": "struct Pyramid.Game",
						"members": [
							{
								"astId": 31,
								"contract": "cobraBot/Contract.sol:Pyramid",
								"label": "circleCount",
								"offset": 0,
								"slot": "0",
								"type": "t_uint256"
							},
							{
								"astId": 33,
								"contract": "cobraBot/Contract.sol:Pyramid",
								"label": "amountToPay",
								"offset": 0,
								"slot": "1",
								"type": "t_uint256"
							}
						],
						"numberOfBytes": "64"
					},
					"t_struct(User)29_storage": {
						"encoding": "inplace",
						"label": "struct Pyramid.User",
						"members": [
							{
								"astId": 24,
								"contract": "cobraBot/Contract.sol:Pyramid",
								"label": "userId",
								"offset": 0,
								"slot": "0",
								"type": "t_uint256"
							},
							{
								"astId": 26,
								"contract": "cobraBot/Contract.sol:Pyramid",
								"label": "userAddress",
								"offset": 0,
								"slot": "1",
								"type": "t_address_payable"
							},
							{
								"astId": 28,
								"contract": "cobraBot/Contract.sol:Pyramid",
								"label": "invitedId",
								"offset": 0,
								"slot": "2",
								"type": "t_uint256"
							}
						],
						"numberOfBytes": "96"
					},
					"t_uint256": {
						"encoding": "inplace",
						"label": "uint256",
						"numberOfBytes": "32"
					},
					"t_uint8": {
						"encoding": "inplace",
						"label": "uint8",
						"numberOfBytes": "1"
					}
				}
			},
			"userdoc": {
				"kind": "user",
				"methods": {},
				"version": 1
			}
		}
	}
}