{
	"Contract.sol": {
		"Pyramid": {
			"abi": [
				{
					"inputs": [],
					"stateMutability": "nonpayable",
					"type": "constructor"
				},
				{
					"anonymous": false,
					"inputs": [
						{
							"indexed": false,
							"internalType": "uint8",
							"name": "gameId",
							"type": "uint8"
						},
						{
							"indexed": false,
							"internalType": "address",
							"name": "account",
							"type": "address"
						},
						{
							"indexed": false,
							"internalType": "bool",
							"name": "success",
							"type": "bool"
						}
					],
					"name": "GamePaymentEvent",
					"type": "event"
				},
				{
					"anonymous": false,
					"inputs": [
						{
							"indexed": false,
							"internalType": "uint8",
							"name": "gameId",
							"type": "uint8"
						},
						{
							"indexed": false,
							"internalType": "uint256",
							"name": "amount",
							"type": "uint256"
						}
					],
					"name": "NewGame",
					"type": "event"
				},
				{
					"anonymous": false,
					"inputs": [
						{
							"indexed": false,
							"internalType": "uint256",
							"name": "userId",
							"type": "uint256"
						},
						{
							"indexed": false,
							"internalType": "uint256",
							"name": "inviterId",
							"type": "uint256"
						},
						{
							"indexed": false,
							"internalType": "uint256",
							"name": "partnersCount",
							"type": "uint256"
						}
					],
					"name": "NewUserRegisteredEvent",
					"type": "event"
				},
				{
					"anonymous": false,
					"inputs": [
						{
							"indexed": false,
							"internalType": "uint8",
							"name": "gameId",
							"type": "uint8"
						},
						{
							"indexed": false,
							"internalType": "uint256",
							"name": "from",
							"type": "uint256"
						},
						{
							"indexed": false,
							"internalType": "uint256",
							"name": "to",
							"type": "uint256"
						},
						{
							"indexed": false,
							"internalType": "uint256",
							"name": "amount",
							"type": "uint256"
						}
					],
					"name": "ReferalPaymentEvent",
					"type": "event"
				},
				{
					"stateMutability": "payable",
					"type": "fallback"
				},
				{
					"inputs": [
						{
							"internalType": "uint256",
							"name": "amountToPay",
							"type": "uint256"
						}
					],
					"name": "addGameLevel",
					"outputs": [],
					"stateMutability": "nonpayable",
					"type": "function"
				},
				{
					"inputs": [
						{
							"internalType": "uint256",
							"name": "index",
							"type": "uint256"
						}
					],
					"name": "culcNextWinnerIndex",
					"outputs": [
						{
							"internalType": "uint256",
							"name": "",
							"type": "uint256"
						}
					],
					"stateMutability": "pure",
					"type": "function"
				},
				{
					"inputs": [],
					"name": "currentGameIdIndex",
					"outputs": [
						{
							"internalType": "uint8",
							"name": "",
							"type": "uint8"
						}
					],
					"stateMutability": "view",
					"type": "function"
				},
				{
					"inputs": [],
					"name": "currentUserIdIndex",
					"outputs": [
						{
							"internalType": "uint256",
							"name": "",
							"type": "uint256"
						}
					],
					"stateMutability": "view",
					"type": "function"
				},
				{
					"inputs": [
						{
							"internalType": "uint8",
							"name": "",
							"type": "uint8"
						}
					],
					"name": "currentUserIndex",
					"outputs": [
						{
							"internalType": "uint256",
							"name": "",
							"type": "uint256"
						}
					],
					"stateMutability": "view",
					"type": "function"
				},
				{
					"inputs": [
						{
							"internalType": "address",
							"name": "userAddress",
							"type": "address"
						}
					],
					"name": "getUserBalance",
					"outputs": [
						{
							"internalType": "uint256",
							"name": "",
							"type": "uint256"
						}
					],
					"stateMutability": "view",
					"type": "function"
				},
				{
					"inputs": [
						{
							"internalType": "address",
							"name": "userAdress",
							"type": "address"
						}
					],
					"name": "hasAccess",
					"outputs": [
						{
							"internalType": "bool",
							"name": "",
							"type": "bool"
						}
					],
					"stateMutability": "view",
					"type": "function"
				},
				{
					"inputs": [
						{
							"internalType": "uint8",
							"name": "gameId",
							"type": "uint8"
						}
					],
					"name": "joinToGame",
					"outputs": [],
					"stateMutability": "payable",
					"type": "function"
				},
				{
					"inputs": [
						{
							"internalType": "uint8",
							"name": "",
							"type": "uint8"
						}
					],
					"name": "levels",
					"outputs": [
						{
							"internalType": "uint8",
							"name": "gameId",
							"type": "uint8"
						},
						{
							"internalType": "uint256",
							"name": "amountToPay",
							"type": "uint256"
						}
					],
					"stateMutability": "view",
					"type": "function"
				},
				{
					"inputs": [
						{
							"internalType": "uint8",
							"name": "",
							"type": "uint8"
						},
						{
							"internalType": "uint256",
							"name": "",
							"type": "uint256"
						}
					],
					"name": "pools",
					"outputs": [
						{
							"internalType": "uint256",
							"name": "userId",
							"type": "uint256"
						},
						{
							"internalType": "address payable",
							"name": "userAddress",
							"type": "address"
						},
						{
							"internalType": "uint256",
							"name": "invitedId",
							"type": "uint256"
						}
					],
					"stateMutability": "view",
					"type": "function"
				},
				{
					"inputs": [
						{
							"internalType": "uint256",
							"name": "inviterId",
							"type": "uint256"
						}
					],
					"name": "registerUserToGame",
					"outputs": [],
					"stateMutability": "payable",
					"type": "function"
				},
				{
					"inputs": [
						{
							"internalType": "address",
							"name": "",
							"type": "address"
						}
					],
					"name": "registeredUsers",
					"outputs": [
						{
							"internalType": "uint256",
							"name": "userId",
							"type": "uint256"
						},
						{
							"internalType": "address payable",
							"name": "userAddress",
							"type": "address"
						},
						{
							"internalType": "uint256",
							"name": "invitedId",
							"type": "uint256"
						}
					],
					"stateMutability": "view",
					"type": "function"
				},
				{
					"inputs": [
						{
							"internalType": "address",
							"name": "",
							"type": "address"
						},
						{
							"internalType": "uint8",
							"name": "",
							"type": "uint8"
						}
					],
					"name": "userGames",
					"outputs": [
						{
							"internalType": "bool",
							"name": "",
							"type": "bool"
						}
					],
					"stateMutability": "view",
					"type": "function"
				},
				{
					"inputs": [
						{
							"internalType": "address",
							"name": "",
							"type": "address"
						},
						{
							"internalType": "uint8",
							"name": "",
							"type": "uint8"
						}
					],
					"name": "userPayments",
					"outputs": [
						{
							"internalType": "uint256",
							"name": "",
							"type": "uint256"
						}
					],
					"stateMutability": "view",
					"type": "function"
				},
				{
					"inputs": [
						{
							"internalType": "uint256",
							"name": "",
							"type": "uint256"
						}
					],
					"name": "usersId",
					"outputs": [
						{
							"internalType": "address",
							"name": "",
							"type": "address"
						}
					],
					"stateMutability": "view",
					"type": "function"
				},
				{
					"stateMutability": "payable",
					"type": "receive"
				}
			],
			"devdoc": {
				"kind": "dev",
				"methods": {},
				"version": 1
			},
			"evm": {
				"assembly": "    /* \"Contract.sol\":7039:16643  contract Pyramid {\r... */\n  mstore(0x40, 0x80)\n    /* \"Contract.sol\":9675:9934  constructor () {\r... */\n  callvalue\n  dup1\n  iszero\n  tag_1\n  jumpi\n  0x00\n  dup1\n  revert\ntag_1:\n  pop\n    /* \"Contract.sol\":9717:9727  msg.sender */\n  caller\n    /* \"Contract.sol\":9701:9714  contractOwner */\n  0x01\n  dup1\n    /* \"Contract.sol\":9701:9727  contractOwner = msg.sender */\n  0x0100\n  exp\n  dup2\n  sload\n  dup2\n  0xffffffffffffffffffffffffffffffffffffffff\n  mul\n  not\n  and\n  swap1\n  dup4\n  0xffffffffffffffffffffffffffffffffffffffff\n  and\n  mul\n  or\n  swap1\n  sstore\n  pop\n    /* \"Contract.sol\":9751:9764  contractOwner */\n  0x01\n  dup1\n  sload\n  swap1\n  0x0100\n  exp\n  swap1\n  div\n  0xffffffffffffffffffffffffffffffffffffffff\n  and\n    /* \"Contract.sol\":9738:9745  usersId */\n  0x03\n    /* \"Contract.sol\":9738:9748  usersId[0] */\n  0x00\n    /* \"Contract.sol\":9746:9747  0 */\n  dup1\n    /* \"Contract.sol\":9738:9748  usersId[0] */\n  dup2\n  mstore\n  0x20\n  add\n  swap1\n  dup2\n  mstore\n  0x20\n  add\n  0x00\n  keccak256\n  0x00\n    /* \"Contract.sol\":9738:9764  usersId[0] = contractOwner */\n  0x0100\n  exp\n  dup2\n  sload\n  dup2\n  0xffffffffffffffffffffffffffffffffffffffff\n  mul\n  not\n  and\n  swap1\n  dup4\n  0xffffffffffffffffffffffffffffffffffffffff\n  and\n  mul\n  or\n  swap1\n  sstore\n  pop\n    /* \"Contract.sol\":9808:9842  User(0, payable(contractOwner), 0) */\n  mload(0x40)\n  dup1\n  0x60\n  add\n  0x40\n  mstore\n  dup1\n    /* \"Contract.sol\":9813:9814  0 */\n  0x00\n    /* \"Contract.sol\":9808:9842  User(0, payable(contractOwner), 0) */\n  dup2\n  mstore\n  0x20\n  add\n    /* \"Contract.sol\":9824:9837  contractOwner */\n  0x01\n  dup1\n  sload\n  swap1\n  0x0100\n  exp\n  swap1\n  div\n  0xffffffffffffffffffffffffffffffffffffffff\n  and\n    /* \"Contract.sol\":9808:9842  User(0, payable(contractOwner), 0) */\n  0xffffffffffffffffffffffffffffffffffffffff\n  and\n  dup2\n  mstore\n  0x20\n  add\n    /* \"Contract.sol\":9840:9841  0 */\n  0x00\n    /* \"Contract.sol\":9808:9842  User(0, payable(contractOwner), 0) */\n  dup2\n  mstore\n  pop\n    /* \"Contract.sol\":9775:9790  registeredUsers */\n  0x05\n    /* \"Contract.sol\":9775:9805  registeredUsers[contractOwner] */\n  0x00\n    /* \"Contract.sol\":9791:9804  contractOwner */\n  0x01\n  dup1\n  sload\n  swap1\n  0x0100\n  exp\n  swap1\n  div\n  0xffffffffffffffffffffffffffffffffffffffff\n  and\n    /* \"Contract.sol\":9775:9805  registeredUsers[contractOwner] */\n  0xffffffffffffffffffffffffffffffffffffffff\n  and\n  0xffffffffffffffffffffffffffffffffffffffff\n  and\n  dup2\n  mstore\n  0x20\n  add\n  swap1\n  dup2\n  mstore\n  0x20\n  add\n  0x00\n  keccak256\n    /* \"Contract.sol\":9775:9842  registeredUsers[contractOwner] = User(0, payable(contractOwner), 0) */\n  0x00\n  dup3\n  add\n  mload\n  dup2\n  0x00\n  add\n  sstore\n  0x20\n  dup3\n  add\n  mload\n  dup2\n  0x01\n  add\n  exp(0x0100, 0x00)\n  dup2\n  sload\n  dup2\n  0xffffffffffffffffffffffffffffffffffffffff\n  mul\n  not\n  and\n  swap1\n  dup4\n  0xffffffffffffffffffffffffffffffffffffffff\n  and\n  mul\n  or\n  swap1\n  sstore\n  pop\n  0x40\n  dup3\n  add\n  mload\n  dup2\n  0x02\n  add\n  sstore\n  swap1\n  pop\n  pop\n    /* \"Contract.sol\":9874:9875  1 */\n  0x01\n    /* \"Contract.sol\":9853:9871  currentUserIdIndex */\n  0x00\n    /* \"Contract.sol\":9853:9875  currentUserIdIndex = 1 */\n  dup2\n  swap1\n  sstore\n  pop\n    /* \"Contract.sol\":9888:9926  addGameLevel({ amountToPay: 1 ether }) */\n  tag_4\n    /* \"Contract.sol\":9916:9923  1 ether */\n  0x0de0b6b3a7640000\n    /* \"Contract.sol\":9888:9900  addGameLevel */\n  shl(0x20, tag_5)\n    /* \"Contract.sol\":9888:9926  addGameLevel({ amountToPay: 1 ether }) */\n  0x20\n  shr\n  jump\t// in\ntag_4:\n    /* \"Contract.sol\":7039:16643  contract Pyramid {\r... */\n  jump(tag_6)\n    /* \"Contract.sol\":11663:12032  function addGameLevel(uint256 amountToPay) public onlyOwner {\r... */\ntag_5:\n    /* \"Contract.sol\":9625:9646  hasAccess(msg.sender) */\n  tag_8\n    /* \"Contract.sol\":9635:9645  msg.sender */\n  caller\n    /* \"Contract.sol\":9625:9634  hasAccess */\n  shl(0x20, tag_9)\n    /* \"Contract.sol\":9625:9646  hasAccess(msg.sender) */\n  0x20\n  shr\n  jump\t// in\ntag_8:\n    /* \"Contract.sol\":9617:9647  require(hasAccess(msg.sender)) */\n  tag_10\n  jumpi\n  0x00\n  dup1\n  revert\ntag_10:\n    /* \"Contract.sol\":11868:11930  Game({ gameId: currentGameIdIndex, amountToPay: amountToPay }) */\n  mload(0x40)\n  dup1\n  0x40\n  add\n  0x40\n  mstore\n  dup1\n    /* \"Contract.sol\":11883:11901  currentGameIdIndex */\n  0x01\n  0x00\n  swap1\n  sload\n  swap1\n  0x0100\n  exp\n  swap1\n  div\n  0xff\n  and\n    /* \"Contract.sol\":11868:11930  Game({ gameId: currentGameIdIndex, amountToPay: amountToPay }) */\n  0xff\n  and\n  dup2\n  mstore\n  0x20\n  add\n    /* \"Contract.sol\":11916:11927  amountToPay */\n  dup3\n    /* \"Contract.sol\":11868:11930  Game({ gameId: currentGameIdIndex, amountToPay: amountToPay }) */\n  dup2\n  mstore\n  pop\n    /* \"Contract.sol\":11839:11845  levels */\n  0x02\n    /* \"Contract.sol\":11839:11865  levels[currentGameIdIndex] */\n  0x00\n    /* \"Contract.sol\":11846:11864  currentGameIdIndex */\n  0x01\n  0x00\n  swap1\n  sload\n  swap1\n  0x0100\n  exp\n  swap1\n  div\n  0xff\n  and\n    /* \"Contract.sol\":11839:11865  levels[currentGameIdIndex] */\n  0xff\n  and\n  0xff\n  and\n  dup2\n  mstore\n  0x20\n  add\n  swap1\n  dup2\n  mstore\n  0x20\n  add\n  0x00\n  keccak256\n    /* \"Contract.sol\":11839:11930  levels[currentGameIdIndex] = Game({ gameId: currentGameIdIndex, amountToPay: amountToPay }) */\n  0x00\n  dup3\n  add\n  mload\n  dup2\n  0x00\n  add\n  exp(0x0100, 0x00)\n  dup2\n  sload\n  dup2\n  0xff\n  mul\n  not\n  and\n  swap1\n  dup4\n  0xff\n  and\n  mul\n  or\n  swap1\n  sstore\n  pop\n  0x20\n  dup3\n  add\n  mload\n  dup2\n  0x01\n  add\n  sstore\n  swap1\n  pop\n  pop\n    /* \"Contract.sol\":11963:11964  1 */\n  0x01\n    /* \"Contract.sol\":11941:11959  currentGameIdIndex */\n  dup1\n  0x00\n    /* \"Contract.sol\":11941:11964  currentGameIdIndex += 1 */\n  dup3\n  dup3\n  dup3\n  swap1\n  sload\n  swap1\n  0x0100\n  exp\n  swap1\n  div\n  0xff\n  and\n  tag_12\n  swap2\n  swap1\n  tag_13\n  jump\t// in\ntag_12:\n  swap3\n  pop\n  0x0100\n  exp\n  dup2\n  sload\n  dup2\n  0xff\n  mul\n  not\n  and\n  swap1\n  dup4\n  0xff\n  and\n  mul\n  or\n  swap1\n  sstore\n  pop\n    /* \"Contract.sol\":11980:12024  NewGame( currentGameIdIndex-1, amountToPay ) */\n  0xcf1ed532d6b83b4290f2f407b156b17826f49752e7a8ff360f502c307e055663\n    /* \"Contract.sol\":12008:12009  1 */\n  0x01\n    /* \"Contract.sol\":11989:12007  currentGameIdIndex */\n  dup1\n  0x00\n  swap1\n  sload\n  swap1\n  0x0100\n  exp\n  swap1\n  div\n  0xff\n  and\n    /* \"Contract.sol\":11989:12009  currentGameIdIndex-1 */\n  tag_14\n  swap2\n  swap1\n  tag_15\n  jump\t// in\ntag_14:\n    /* \"Contract.sol\":12011:12022  amountToPay */\n  dup3\n    /* \"Contract.sol\":11980:12024  NewGame( currentGameIdIndex-1, amountToPay ) */\n  mload(0x40)\n  tag_16\n  swap3\n  swap2\n  swap1\n  tag_17\n  jump\t// in\ntag_16:\n  mload(0x40)\n  dup1\n  swap2\n  sub\n  swap1\n  log1\n    /* \"Contract.sol\":11663:12032  function addGameLevel(uint256 amountToPay) public onlyOwner {\r... */\n  pop\n  jump\t// out\n    /* \"Contract.sol\":11299:11528  function hasAccess(address userAdress) public view returns(bool) {\r... */\ntag_9:\n    /* \"Contract.sol\":11358:11362  bool */\n  0x00\n    /* \"Contract.sol\":11507:11520  contractOwner */\n  0x01\n  dup1\n  sload\n  swap1\n  0x0100\n  exp\n  swap1\n  div\n  0xffffffffffffffffffffffffffffffffffffffff\n  and\n    /* \"Contract.sol\":11493:11520  userAdress == contractOwner */\n  0xffffffffffffffffffffffffffffffffffffffff\n  and\n    /* \"Contract.sol\":11493:11503  userAdress */\n  dup3\n    /* \"Contract.sol\":11493:11520  userAdress == contractOwner */\n  0xffffffffffffffffffffffffffffffffffffffff\n  and\n  eq\n    /* \"Contract.sol\":11486:11520  return userAdress == contractOwner */\n  swap1\n  pop\n    /* \"Contract.sol\":11299:11528  function hasAccess(address userAdress) public view returns(bool) {\r... */\n  swap2\n  swap1\n  pop\n  jump\t// out\n    /* \"#utility.yul\":7:125   */\ntag_20:\n    /* \"#utility.yul\":94:118   */\n  tag_22\n    /* \"#utility.yul\":112:117   */\n  dup2\n    /* \"#utility.yul\":94:118   */\n  tag_23\n  jump\t// in\ntag_22:\n    /* \"#utility.yul\":89:92   */\n  dup3\n    /* \"#utility.yul\":82:119   */\n  mstore\n    /* \"#utility.yul\":7:125   */\n  pop\n  pop\n  jump\t// out\n    /* \"#utility.yul\":131:243   */\ntag_24:\n    /* \"#utility.yul\":214:236   */\n  tag_26\n    /* \"#utility.yul\":230:235   */\n  dup2\n    /* \"#utility.yul\":214:236   */\n  tag_27\n  jump\t// in\ntag_26:\n    /* \"#utility.yul\":209:212   */\n  dup3\n    /* \"#utility.yul\":202:237   */\n  mstore\n    /* \"#utility.yul\":131:243   */\n  pop\n  pop\n  jump\t// out\n    /* \"#utility.yul\":249:573   */\ntag_17:\n    /* \"#utility.yul\":366:370   */\n  0x00\n    /* \"#utility.yul\":404:406   */\n  0x40\n    /* \"#utility.yul\":393:402   */\n  dup3\n    /* \"#utility.yul\":389:407   */\n  add\n    /* \"#utility.yul\":381:407   */\n  swap1\n  pop\n    /* \"#utility.yul\":417:484   */\n  tag_29\n    /* \"#utility.yul\":481:482   */\n  0x00\n    /* \"#utility.yul\":470:479   */\n  dup4\n    /* \"#utility.yul\":466:483   */\n  add\n    /* \"#utility.yul\":457:463   */\n  dup6\n    /* \"#utility.yul\":417:484   */\n  tag_24\n  jump\t// in\ntag_29:\n    /* \"#utility.yul\":494:566   */\n  tag_30\n    /* \"#utility.yul\":562:564   */\n  0x20\n    /* \"#utility.yul\":551:560   */\n  dup4\n    /* \"#utility.yul\":547:565   */\n  add\n    /* \"#utility.yul\":538:544   */\n  dup5\n    /* \"#utility.yul\":494:566   */\n  tag_20\n  jump\t// in\ntag_30:\n    /* \"#utility.yul\":249:573   */\n  swap4\n  swap3\n  pop\n  pop\n  pop\n  jump\t// out\n    /* \"#utility.yul\":579:816   */\ntag_13:\n    /* \"#utility.yul\":617:620   */\n  0x00\n    /* \"#utility.yul\":636:654   */\n  tag_32\n    /* \"#utility.yul\":652:653   */\n  dup3\n    /* \"#utility.yul\":636:654   */\n  tag_27\n  jump\t// in\ntag_32:\n    /* \"#utility.yul\":631:654   */\n  swap2\n  pop\n    /* \"#utility.yul\":668:686   */\n  tag_33\n    /* \"#utility.yul\":684:685   */\n  dup4\n    /* \"#utility.yul\":668:686   */\n  tag_27\n  jump\t// in\ntag_33:\n    /* \"#utility.yul\":663:686   */\n  swap3\n  pop\n    /* \"#utility.yul\":758:759   */\n  dup3\n    /* \"#utility.yul\":752:756   */\n  0xff\n    /* \"#utility.yul\":748:760   */\n  sub\n    /* \"#utility.yul\":745:746   */\n  dup3\n    /* \"#utility.yul\":742:761   */\n  gt\n    /* \"#utility.yul\":739:784   */\n  iszero\n  tag_34\n  jumpi\n    /* \"#utility.yul\":764:782   */\n  tag_35\n  tag_36\n  jump\t// in\ntag_35:\n    /* \"#utility.yul\":739:784   */\ntag_34:\n    /* \"#utility.yul\":808:809   */\n  dup3\n    /* \"#utility.yul\":805:806   */\n  dup3\n    /* \"#utility.yul\":801:810   */\n  add\n    /* \"#utility.yul\":794:810   */\n  swap1\n  pop\n    /* \"#utility.yul\":579:816   */\n  swap3\n  swap2\n  pop\n  pop\n  jump\t// out\n    /* \"#utility.yul\":822:1007   */\ntag_15:\n    /* \"#utility.yul\":860:864   */\n  0x00\n    /* \"#utility.yul\":880:898   */\n  tag_38\n    /* \"#utility.yul\":896:897   */\n  dup3\n    /* \"#utility.yul\":880:898   */\n  tag_27\n  jump\t// in\ntag_38:\n    /* \"#utility.yul\":875:898   */\n  swap2\n  pop\n    /* \"#utility.yul\":912:930   */\n  tag_39\n    /* \"#utility.yul\":928:929   */\n  dup4\n    /* \"#utility.yul\":912:930   */\n  tag_27\n  jump\t// in\ntag_39:\n    /* \"#utility.yul\":907:930   */\n  swap3\n  pop\n    /* \"#utility.yul\":949:950   */\n  dup3\n    /* \"#utility.yul\":946:947   */\n  dup3\n    /* \"#utility.yul\":943:951   */\n  lt\n    /* \"#utility.yul\":940:974   */\n  iszero\n  tag_40\n  jumpi\n    /* \"#utility.yul\":954:972   */\n  tag_41\n  tag_36\n  jump\t// in\ntag_41:\n    /* \"#utility.yul\":940:974   */\ntag_40:\n    /* \"#utility.yul\":999:1000   */\n  dup3\n    /* \"#utility.yul\":996:997   */\n  dup3\n    /* \"#utility.yul\":992:1001   */\n  sub\n    /* \"#utility.yul\":984:1001   */\n  swap1\n  pop\n    /* \"#utility.yul\":822:1007   */\n  swap3\n  swap2\n  pop\n  pop\n  jump\t// out\n    /* \"#utility.yul\":1013:1090   */\ntag_23:\n    /* \"#utility.yul\":1050:1057   */\n  0x00\n    /* \"#utility.yul\":1079:1084   */\n  dup2\n    /* \"#utility.yul\":1068:1084   */\n  swap1\n  pop\n    /* \"#utility.yul\":1013:1090   */\n  swap2\n  swap1\n  pop\n  jump\t// out\n    /* \"#utility.yul\":1096:1182   */\ntag_27:\n    /* \"#utility.yul\":1131:1138   */\n  0x00\n    /* \"#utility.yul\":1171:1175   */\n  0xff\n    /* \"#utility.yul\":1164:1169   */\n  dup3\n    /* \"#utility.yul\":1160:1176   */\n  and\n    /* \"#utility.yul\":1149:1176   */\n  swap1\n  pop\n    /* \"#utility.yul\":1096:1182   */\n  swap2\n  swap1\n  pop\n  jump\t// out\n    /* \"#utility.yul\":1188:1368   */\ntag_36:\n    /* \"#utility.yul\":1236:1313   */\n  0x4e487b7100000000000000000000000000000000000000000000000000000000\n    /* \"#utility.yul\":1233:1234   */\n  0x00\n    /* \"#utility.yul\":1226:1314   */\n  mstore\n    /* \"#utility.yul\":1333:1337   */\n  0x11\n    /* \"#utility.yul\":1330:1331   */\n  0x04\n    /* \"#utility.yul\":1323:1338   */\n  mstore\n    /* \"#utility.yul\":1357:1361   */\n  0x24\n    /* \"#utility.yul\":1354:1355   */\n  0x00\n    /* \"#utility.yul\":1347:1362   */\n  revert\n    /* \"Contract.sol\":7039:16643  contract Pyramid {\r... */\ntag_6:\n  dataSize(sub_0)\n  dup1\n  dataOffset(sub_0)\n  0x00\n  codecopy\n  0x00\n  return\nstop\n\nsub_0: assembly {\n        /* \"Contract.sol\":7039:16643  contract Pyramid {\r... */\n      mstore(0x40, 0x80)\n      jumpi(tag_1, lt(calldatasize, 0x04))\n      shr(0xe0, calldataload(0x00))\n      dup1\n      0x78a32e21\n      gt\n      tag_18\n      jumpi\n      dup1\n      0xad39f0a3\n      gt\n      tag_19\n      jumpi\n      dup1\n      0xad39f0a3\n      eq\n      tag_14\n      jumpi\n      dup1\n      0xae9283b5\n      eq\n      tag_15\n      jumpi\n      dup1\n      0xbd233b91\n      eq\n      tag_16\n      jumpi\n      dup1\n      0xf1060006\n      eq\n      tag_17\n      jumpi\n      jump(tag_2)\n    tag_19:\n      dup1\n      0x78a32e21\n      eq\n      tag_10\n      jumpi\n      dup1\n      0x906cbf57\n      eq\n      tag_11\n      jumpi\n      dup1\n      0x95a078e8\n      eq\n      tag_12\n      jumpi\n      dup1\n      0x9b0b0ae3\n      eq\n      tag_13\n      jumpi\n      jump(tag_2)\n    tag_18:\n      dup1\n      0x2e8aab9b\n      gt\n      tag_20\n      jumpi\n      dup1\n      0x2e8aab9b\n      eq\n      tag_6\n      jumpi\n      dup1\n      0x33afc80b\n      eq\n      tag_7\n      jumpi\n      dup1\n      0x47734892\n      eq\n      tag_8\n      jumpi\n      dup1\n      0x556c9095\n      eq\n      tag_9\n      jumpi\n      jump(tag_2)\n    tag_20:\n      dup1\n      0x0173c05b\n      eq\n      tag_3\n      jumpi\n      dup1\n      0x0e50cee5\n      eq\n      tag_4\n      jumpi\n      dup1\n      0x2a648c89\n      eq\n      tag_5\n      jumpi\n      jump(tag_2)\n    tag_1:\n      jumpi(tag_2, calldatasize)\n        /* \"Contract.sol\":9981:10013  _fallback(msg.sender, msg.value) */\n      tag_23\n        /* \"Contract.sol\":9991:10001  msg.sender */\n      caller\n        /* \"Contract.sol\":10003:10012  msg.value */\n      callvalue\n        /* \"Contract.sol\":9981:9990  _fallback */\n      tag_24\n        /* \"Contract.sol\":9981:10013  _fallback(msg.sender, msg.value) */\n      jump\t// in\n    tag_23:\n        /* \"Contract.sol\":7039:16643  contract Pyramid {\r... */\n      stop\n    tag_2:\n        /* \"Contract.sol\":10069:10101  _fallback(msg.sender, msg.value) */\n      tag_27\n        /* \"Contract.sol\":10079:10089  msg.sender */\n      caller\n        /* \"Contract.sol\":10091:10100  msg.value */\n      callvalue\n        /* \"Contract.sol\":10069:10078  _fallback */\n      tag_24\n        /* \"Contract.sol\":10069:10101  _fallback(msg.sender, msg.value) */\n      jump\t// in\n    tag_27:\n        /* \"Contract.sol\":7039:16643  contract Pyramid {\r... */\n      stop\n        /* \"Contract.sol\":12040:12733  function registerUserToGame(uint256 inviterId) external payable noContractAccess {\r... */\n    tag_3:\n      tag_28\n      0x04\n      dup1\n      calldatasize\n      sub\n      dup2\n      add\n      swap1\n      tag_29\n      swap2\n      swap1\n      tag_30\n      jump\t// in\n    tag_29:\n      tag_31\n      jump\t// in\n    tag_28:\n      stop\n        /* \"Contract.sol\":8120:8168  mapping (address => User) public registeredUsers */\n    tag_4:\n      callvalue\n      dup1\n      iszero\n      tag_32\n      jumpi\n      0x00\n      dup1\n      revert\n    tag_32:\n      pop\n      tag_33\n      0x04\n      dup1\n      calldatasize\n      sub\n      dup2\n      add\n      swap1\n      tag_34\n      swap2\n      swap1\n      tag_35\n      jump\t// in\n    tag_34:\n      tag_36\n      jump\t// in\n    tag_33:\n      mload(0x40)\n      tag_37\n      swap4\n      swap3\n      swap2\n      swap1\n      tag_38\n      jump\t// in\n    tag_37:\n      mload(0x40)\n      dup1\n      swap2\n      sub\n      swap1\n      return\n        /* \"Contract.sol\":8524:8585  mapping (address => mapping (uint8 => bool)) public userGames */\n    tag_5:\n      callvalue\n      dup1\n      iszero\n      tag_39\n      jumpi\n      0x00\n      dup1\n      revert\n    tag_39:\n      pop\n      tag_40\n      0x04\n      dup1\n      calldatasize\n      sub\n      dup2\n      add\n      swap1\n      tag_41\n      swap2\n      swap1\n      tag_42\n      jump\t// in\n    tag_41:\n      tag_43\n      jump\t// in\n    tag_40:\n      mload(0x40)\n      tag_44\n      swap2\n      swap1\n      tag_45\n      jump\t// in\n    tag_44:\n      mload(0x40)\n      dup1\n      swap2\n      sub\n      swap1\n      return\n        /* \"Contract.sol\":12741:12958  function joinToGame(uint8 gameId) public payable onlyRegistered {\r... */\n    tag_6:\n      tag_46\n      0x04\n      dup1\n      calldatasize\n      sub\n      dup2\n      add\n      swap1\n      tag_47\n      swap2\n      swap1\n      tag_48\n      jump\t// in\n    tag_47:\n      tag_49\n      jump\t// in\n    tag_46:\n      stop\n        /* \"Contract.sol\":10724:11291  function culcNextWinnerIndex(uint256 index) public pure returns(uint256) {\r... */\n    tag_7:\n      callvalue\n      dup1\n      iszero\n      tag_50\n      jumpi\n      0x00\n      dup1\n      revert\n    tag_50:\n      pop\n      tag_51\n      0x04\n      dup1\n      calldatasize\n      sub\n      dup2\n      add\n      swap1\n      tag_52\n      swap2\n      swap1\n      tag_30\n      jump\t// in\n    tag_52:\n      tag_53\n      jump\t// in\n    tag_51:\n      mload(0x40)\n      tag_54\n      swap2\n      swap1\n      tag_55\n      jump\t// in\n    tag_54:\n      mload(0x40)\n      dup1\n      swap2\n      sub\n      swap1\n      return\n        /* \"Contract.sol\":11536:11655  function getUserBalance(address userAddress) public view returns(uint256) {\r... */\n    tag_8:\n      callvalue\n      dup1\n      iszero\n      tag_56\n      jumpi\n      0x00\n      dup1\n      revert\n    tag_56:\n      pop\n      tag_57\n      0x04\n      dup1\n      calldatasize\n      sub\n      dup2\n      add\n      swap1\n      tag_58\n      swap2\n      swap1\n      tag_35\n      jump\t// in\n    tag_58:\n      tag_59\n      jump\t// in\n    tag_57:\n      mload(0x40)\n      tag_60\n      swap2\n      swap1\n      tag_55\n      jump\t// in\n    tag_60:\n      mload(0x40)\n      dup1\n      swap2\n      sub\n      swap1\n      return\n        /* \"Contract.sol\":7097:7130  uint256 public currentUserIdIndex */\n    tag_9:\n      callvalue\n      dup1\n      iszero\n      tag_61\n      jumpi\n      0x00\n      dup1\n      revert\n    tag_61:\n      pop\n      tag_62\n      tag_63\n      jump\t// in\n    tag_62:\n      mload(0x40)\n      tag_64\n      swap2\n      swap1\n      tag_55\n      jump\t// in\n    tag_64:\n      mload(0x40)\n      dup1\n      swap2\n      sub\n      swap1\n      return\n        /* \"Contract.sol\":8312:8369  mapping (uint8 => mapping (uint256 => User)) public pools */\n    tag_10:\n      callvalue\n      dup1\n      iszero\n      tag_65\n      jumpi\n      0x00\n      dup1\n      revert\n    tag_65:\n      pop\n      tag_66\n      0x04\n      dup1\n      calldatasize\n      sub\n      dup2\n      add\n      swap1\n      tag_67\n      swap2\n      swap1\n      tag_68\n      jump\t// in\n    tag_67:\n      tag_69\n      jump\t// in\n    tag_66:\n      mload(0x40)\n      tag_70\n      swap4\n      swap3\n      swap2\n      swap1\n      tag_38\n      jump\t// in\n    tag_70:\n      mload(0x40)\n      dup1\n      swap2\n      sub\n      swap1\n      return\n        /* \"Contract.sol\":7873:7910  mapping (uint8 => Game) public levels */\n    tag_11:\n      callvalue\n      dup1\n      iszero\n      tag_71\n      jumpi\n      0x00\n      dup1\n      revert\n    tag_71:\n      pop\n      tag_72\n      0x04\n      dup1\n      calldatasize\n      sub\n      dup2\n      add\n      swap1\n      tag_73\n      swap2\n      swap1\n      tag_48\n      jump\t// in\n    tag_73:\n      tag_74\n      jump\t// in\n    tag_72:\n      mload(0x40)\n      tag_75\n      swap3\n      swap2\n      swap1\n      tag_76\n      jump\t// in\n    tag_75:\n      mload(0x40)\n      dup1\n      swap2\n      sub\n      swap1\n      return\n        /* \"Contract.sol\":11299:11528  function hasAccess(address userAdress) public view returns(bool) {\r... */\n    tag_12:\n      callvalue\n      dup1\n      iszero\n      tag_77\n      jumpi\n      0x00\n      dup1\n      revert\n    tag_77:\n      pop\n      tag_78\n      0x04\n      dup1\n      calldatasize\n      sub\n      dup2\n      add\n      swap1\n      tag_79\n      swap2\n      swap1\n      tag_35\n      jump\t// in\n    tag_79:\n      tag_80\n      jump\t// in\n    tag_78:\n      mload(0x40)\n      tag_81\n      swap2\n      swap1\n      tag_45\n      jump\t// in\n    tag_81:\n      mload(0x40)\n      dup1\n      swap2\n      sub\n      swap1\n      return\n        /* \"Contract.sol\":8223:8273  mapping (uint8 => uint256) public currentUserIndex */\n    tag_13:\n      callvalue\n      dup1\n      iszero\n      tag_82\n      jumpi\n      0x00\n      dup1\n      revert\n    tag_82:\n      pop\n      tag_83\n      0x04\n      dup1\n      calldatasize\n      sub\n      dup2\n      add\n      swap1\n      tag_84\n      swap2\n      swap1\n      tag_48\n      jump\t// in\n    tag_84:\n      tag_85\n      jump\t// in\n    tag_83:\n      mload(0x40)\n      tag_86\n      swap2\n      swap1\n      tag_55\n      jump\t// in\n    tag_86:\n      mload(0x40)\n      dup1\n      swap2\n      sub\n      swap1\n      return\n        /* \"Contract.sol\":7166:7197  uint8 public currentGameIdIndex */\n    tag_14:\n      callvalue\n      dup1\n      iszero\n      tag_87\n      jumpi\n      0x00\n      dup1\n      revert\n    tag_87:\n      pop\n      tag_88\n      tag_89\n      jump\t// in\n    tag_88:\n      mload(0x40)\n      tag_90\n      swap2\n      swap1\n      tag_91\n      jump\t// in\n    tag_90:\n      mload(0x40)\n      dup1\n      swap2\n      sub\n      swap1\n      return\n        /* \"Contract.sol\":11663:12032  function addGameLevel(uint256 amountToPay) public onlyOwner {\r... */\n    tag_15:\n      callvalue\n      dup1\n      iszero\n      tag_92\n      jumpi\n      0x00\n      dup1\n      revert\n    tag_92:\n      pop\n      tag_93\n      0x04\n      dup1\n      calldatasize\n      sub\n      dup2\n      add\n      swap1\n      tag_94\n      swap2\n      swap1\n      tag_30\n      jump\t// in\n    tag_94:\n      tag_95\n      jump\t// in\n    tag_93:\n      stop\n        /* \"Contract.sol\":7934:7977  mapping (uint256 => address) public usersId */\n    tag_16:\n      callvalue\n      dup1\n      iszero\n      tag_96\n      jumpi\n      0x00\n      dup1\n      revert\n    tag_96:\n      pop\n      tag_97\n      0x04\n      dup1\n      calldatasize\n      sub\n      dup2\n      add\n      swap1\n      tag_98\n      swap2\n      swap1\n      tag_30\n      jump\t// in\n    tag_98:\n      tag_99\n      jump\t// in\n    tag_97:\n      mload(0x40)\n      tag_100\n      swap2\n      swap1\n      tag_101\n      jump\t// in\n    tag_100:\n      mload(0x40)\n      dup1\n      swap2\n      sub\n      swap1\n      return\n        /* \"Contract.sol\":8411:8478  mapping (address => mapping (uint8 => uint256)) public userPayments */\n    tag_17:\n      callvalue\n      dup1\n      iszero\n      tag_102\n      jumpi\n      0x00\n      dup1\n      revert\n    tag_102:\n      pop\n      tag_103\n      0x04\n      dup1\n      calldatasize\n      sub\n      dup2\n      add\n      swap1\n      tag_104\n      swap2\n      swap1\n      tag_42\n      jump\t// in\n    tag_104:\n      tag_105\n      jump\t// in\n    tag_103:\n      mload(0x40)\n      tag_106\n      swap2\n      swap1\n      tag_55\n      jump\t// in\n    tag_106:\n      mload(0x40)\n      dup1\n      swap2\n      sub\n      swap1\n      return\n        /* \"Contract.sol\":10117:10716  function _fallback(address sender, uint256 value) internal {\r... */\n    tag_24:\n        /* \"Contract.sol\":10328:10340  bool success */\n      0x00\n        /* \"Contract.sol\":10351:10363  uint8 gameId */\n      dup1\n        /* \"Contract.sol\":10381:10392  uint8 index */\n      0x00\n        /* \"Contract.sol\":10376:10609  for (uint8 index; index < currentGameIdIndex+1; index++) {\r... */\n    tag_108:\n        /* \"Contract.sol\":10421:10422  1 */\n      0x01\n        /* \"Contract.sol\":10402:10420  currentGameIdIndex */\n      dup1\n      0x00\n      swap1\n      sload\n      swap1\n      0x0100\n      exp\n      swap1\n      div\n      0xff\n      and\n        /* \"Contract.sol\":10402:10422  currentGameIdIndex+1 */\n      tag_111\n      swap2\n      swap1\n      tag_112\n      jump\t// in\n    tag_111:\n        /* \"Contract.sol\":10394:10422  index < currentGameIdIndex+1 */\n      0xff\n      and\n        /* \"Contract.sol\":10394:10399  index */\n      dup2\n        /* \"Contract.sol\":10394:10422  index < currentGameIdIndex+1 */\n      0xff\n      and\n      lt\n        /* \"Contract.sol\":10376:10609  for (uint8 index; index < currentGameIdIndex+1; index++) {\r... */\n      iszero\n      tag_109\n      jumpi\n        /* \"Contract.sol\":10481:10490  msg.value */\n      callvalue\n        /* \"Contract.sol\":10452:10458  levels */\n      0x02\n        /* \"Contract.sol\":10452:10465  levels[index] */\n      0x00\n        /* \"Contract.sol\":10459:10464  index */\n      dup4\n        /* \"Contract.sol\":10452:10465  levels[index] */\n      0xff\n      and\n      0xff\n      and\n      dup2\n      mstore\n      0x20\n      add\n      swap1\n      dup2\n      mstore\n      0x20\n      add\n      0x00\n      keccak256\n        /* \"Contract.sol\":10452:10477  levels[index].amountToPay */\n      0x01\n      add\n      sload\n        /* \"Contract.sol\":10452:10490  levels[index].amountToPay == msg.value */\n      eq\n        /* \"Contract.sol\":10448:10598  if (levels[index].amountToPay == msg.value) {\r... */\n      iszero\n      tag_113\n      jumpi\n        /* \"Contract.sol\":10521:10525  true */\n      0x01\n        /* \"Contract.sol\":10511:10525  success = true */\n      swap3\n      pop\n        /* \"Contract.sol\":10553:10558  index */\n      dup1\n        /* \"Contract.sol\":10544:10558  gameId = index */\n      swap2\n      pop\n        /* \"Contract.sol\":10577:10582  break */\n      jump(tag_109)\n        /* \"Contract.sol\":10448:10598  if (levels[index].amountToPay == msg.value) {\r... */\n    tag_113:\n        /* \"Contract.sol\":10424:10431  index++ */\n      dup1\n      dup1\n      tag_114\n      swap1\n      tag_115\n      jump\t// in\n    tag_114:\n      swap2\n      pop\n      pop\n        /* \"Contract.sol\":10376:10609  for (uint8 index; index < currentGameIdIndex+1; index++) {\r... */\n      jump(tag_108)\n    tag_109:\n      pop\n        /* \"Contract.sol\":10637:10644  success */\n      dup2\n        /* \"Contract.sol\":10629:10663  require(success, \"Game not found\") */\n      tag_116\n      jumpi\n      mload(0x40)\n      0x08c379a000000000000000000000000000000000000000000000000000000000\n      dup2\n      mstore\n      0x04\n      add\n      tag_117\n      swap1\n      tag_118\n      jump\t// in\n    tag_117:\n      mload(0x40)\n      dup1\n      swap2\n      sub\n      swap1\n      revert\n    tag_116:\n        /* \"Contract.sol\":10674:10708  _joinToGame(gameId, sender, value) */\n      tag_119\n        /* \"Contract.sol\":10686:10692  gameId */\n      dup2\n        /* \"Contract.sol\":10694:10700  sender */\n      dup6\n        /* \"Contract.sol\":10702:10707  value */\n      dup6\n        /* \"Contract.sol\":10674:10685  _joinToGame */\n      tag_120\n        /* \"Contract.sol\":10674:10708  _joinToGame(gameId, sender, value) */\n      jump\t// in\n    tag_119:\n        /* \"Contract.sol\":10176:10716  {\r... */\n      pop\n      pop\n        /* \"Contract.sol\":10117:10716  function _fallback(address sender, uint256 value) internal {\r... */\n      pop\n      pop\n      jump\t// out\n        /* \"Contract.sol\":12040:12733  function registerUserToGame(uint256 inviterId) external payable noContractAccess {\r... */\n    tag_31:\n        /* \"Contract.sol\":9351:9362  uint32 size */\n      0x00\n        /* \"Contract.sol\":9373:9387  address sender */\n      dup1\n        /* \"Contract.sol\":9390:9400  msg.sender */\n      caller\n        /* \"Contract.sol\":9373:9400  address sender = msg.sender */\n      swap1\n      pop\n        /* \"Contract.sol\":9442:9448  sender */\n      dup1\n        /* \"Contract.sol\":9430:9449  extcodesize(sender) */\n      extcodesize\n        /* \"Contract.sol\":9422:9449  size := extcodesize(sender) */\n      swap2\n      pop\n        /* \"Contract.sol\":9480:9481  0 */\n      0x00\n        /* \"Contract.sol\":9473:9477  size */\n      dup3\n        /* \"Contract.sol\":9473:9481  size > 0 */\n      0xffffffff\n      and\n      gt\n        /* \"Contract.sol\":9471:9482  !(size > 0) */\n      iszero\n        /* \"Contract.sol\":9463:9499  require(!(size > 0), \"No contracts\") */\n      tag_122\n      jumpi\n      mload(0x40)\n      0x08c379a000000000000000000000000000000000000000000000000000000000\n      dup2\n      mstore\n      0x04\n      add\n      tag_123\n      swap1\n      tag_124\n      jump\t// in\n    tag_123:\n      mload(0x40)\n      dup1\n      swap2\n      sub\n      swap1\n      revert\n    tag_122:\n        /* \"Contract.sol\":12270:12271  0 */\n      0x00\n        /* \"Contract.sol\":12219:12272  registeredUsers[msg.sender].userAddress == address(0) */\n      0xffffffffffffffffffffffffffffffffffffffff\n      and\n        /* \"Contract.sol\":12219:12234  registeredUsers */\n      0x05\n        /* \"Contract.sol\":12219:12246  registeredUsers[msg.sender] */\n      0x00\n        /* \"Contract.sol\":12235:12245  msg.sender */\n      caller\n        /* \"Contract.sol\":12219:12246  registeredUsers[msg.sender] */\n      0xffffffffffffffffffffffffffffffffffffffff\n      and\n      0xffffffffffffffffffffffffffffffffffffffff\n      and\n      dup2\n      mstore\n      0x20\n      add\n      swap1\n      dup2\n      mstore\n      0x20\n      add\n      0x00\n      keccak256\n        /* \"Contract.sol\":12219:12258  registeredUsers[msg.sender].userAddress */\n      0x01\n      add\n      0x00\n      swap1\n      sload\n      swap1\n      0x0100\n      exp\n      swap1\n      div\n      0xffffffffffffffffffffffffffffffffffffffff\n      and\n        /* \"Contract.sol\":12219:12272  registeredUsers[msg.sender].userAddress == address(0) */\n      0xffffffffffffffffffffffffffffffffffffffff\n      and\n      eq\n        /* \"Contract.sol\":12211:12303  require(registeredUsers[msg.sender].userAddress == address(0), \"You are already registered\") */\n      tag_126\n      jumpi\n      mload(0x40)\n      0x08c379a000000000000000000000000000000000000000000000000000000000\n      dup2\n      mstore\n      0x04\n      add\n      tag_127\n      swap1\n      tag_128\n      jump\t// in\n    tag_127:\n      mload(0x40)\n      dup1\n      swap2\n      sub\n      swap1\n      revert\n    tag_126:\n        /* \"Contract.sol\":12336:12343  1 ether */\n      0x0de0b6b3a7640000\n        /* \"Contract.sol\":12323:12332  msg.value */\n      callvalue\n        /* \"Contract.sol\":12323:12343  msg.value == 1 ether */\n      eq\n        /* \"Contract.sol\":12314:12388  require (msg.value == 1 ether, \"For regiter in game you need pay 1 ether\") */\n      tag_129\n      jumpi\n      mload(0x40)\n      0x08c379a000000000000000000000000000000000000000000000000000000000\n      dup2\n      mstore\n      0x04\n      add\n      tag_130\n      swap1\n      tag_131\n      jump\t// in\n    tag_130:\n      mload(0x40)\n      dup1\n      swap2\n      sub\n      swap1\n      revert\n    tag_129:\n        /* \"Contract.sol\":12431:12487  User(currentUserIdIndex, payable(msg.sender), inviterId) */\n      mload(0x40)\n      dup1\n      0x60\n      add\n      0x40\n      mstore\n      dup1\n        /* \"Contract.sol\":12436:12454  currentUserIdIndex */\n      sload(0x00)\n        /* \"Contract.sol\":12431:12487  User(currentUserIdIndex, payable(msg.sender), inviterId) */\n      dup2\n      mstore\n      0x20\n      add\n        /* \"Contract.sol\":12464:12474  msg.sender */\n      caller\n        /* \"Contract.sol\":12431:12487  User(currentUserIdIndex, payable(msg.sender), inviterId) */\n      0xffffffffffffffffffffffffffffffffffffffff\n      and\n      dup2\n      mstore\n      0x20\n      add\n        /* \"Contract.sol\":12477:12486  inviterId */\n      dup5\n        /* \"Contract.sol\":12431:12487  User(currentUserIdIndex, payable(msg.sender), inviterId) */\n      dup2\n      mstore\n      pop\n        /* \"Contract.sol\":12401:12416  registeredUsers */\n      0x05\n        /* \"Contract.sol\":12401:12428  registeredUsers[msg.sender] */\n      0x00\n        /* \"Contract.sol\":12417:12427  msg.sender */\n      caller\n        /* \"Contract.sol\":12401:12428  registeredUsers[msg.sender] */\n      0xffffffffffffffffffffffffffffffffffffffff\n      and\n      0xffffffffffffffffffffffffffffffffffffffff\n      and\n      dup2\n      mstore\n      0x20\n      add\n      swap1\n      dup2\n      mstore\n      0x20\n      add\n      0x00\n      keccak256\n        /* \"Contract.sol\":12401:12487  registeredUsers[msg.sender] = User(currentUserIdIndex, payable(msg.sender), inviterId) */\n      0x00\n      dup3\n      add\n      mload\n      dup2\n      0x00\n      add\n      sstore\n      0x20\n      dup3\n      add\n      mload\n      dup2\n      0x01\n      add\n      exp(0x0100, 0x00)\n      dup2\n      sload\n      dup2\n      0xffffffffffffffffffffffffffffffffffffffff\n      mul\n      not\n      and\n      swap1\n      dup4\n      0xffffffffffffffffffffffffffffffffffffffff\n      and\n      mul\n      or\n      swap1\n      sstore\n      pop\n      0x40\n      dup3\n      add\n      mload\n      dup2\n      0x02\n      add\n      sstore\n      swap1\n      pop\n      pop\n        /* \"Contract.sol\":12528:12538  msg.sender */\n      caller\n        /* \"Contract.sol\":12498:12505  usersId */\n      0x03\n        /* \"Contract.sol\":12498:12525  usersId[currentUserIdIndex] */\n      0x00\n        /* \"Contract.sol\":12506:12524  currentUserIdIndex */\n      dup1\n      sload\n        /* \"Contract.sol\":12498:12525  usersId[currentUserIdIndex] */\n      dup2\n      mstore\n      0x20\n      add\n      swap1\n      dup2\n      mstore\n      0x20\n      add\n      0x00\n      keccak256\n      0x00\n        /* \"Contract.sol\":12498:12538  usersId[currentUserIdIndex] = msg.sender */\n      0x0100\n      exp\n      dup2\n      sload\n      dup2\n      0xffffffffffffffffffffffffffffffffffffffff\n      mul\n      not\n      and\n      swap1\n      dup4\n      0xffffffffffffffffffffffffffffffffffffffff\n      and\n      mul\n      or\n      swap1\n      sstore\n      pop\n        /* \"Contract.sol\":12571:12572  1 */\n      0x01\n        /* \"Contract.sol\":12549:12567  currentUserIdIndex */\n      0x00\n      dup1\n        /* \"Contract.sol\":12549:12572  currentUserIdIndex += 1 */\n      dup3\n      dup3\n      sload\n      tag_132\n      swap2\n      swap1\n      tag_133\n      jump\t// in\n    tag_132:\n      swap3\n      pop\n      pop\n      dup2\n      swap1\n      sstore\n      pop\n        /* \"Contract.sol\":12615:12616  1 */\n      0x01\n        /* \"Contract.sol\":12583:12600  userPartnersCount */\n      0x04\n        /* \"Contract.sol\":12583:12611  userPartnersCount[inviterId] */\n      0x00\n        /* \"Contract.sol\":12601:12610  inviterId */\n      dup6\n        /* \"Contract.sol\":12583:12611  userPartnersCount[inviterId] */\n      dup2\n      mstore\n      0x20\n      add\n      swap1\n      dup2\n      mstore\n      0x20\n      add\n      0x00\n      keccak256\n      0x00\n        /* \"Contract.sol\":12583:12616  userPartnersCount[inviterId] += 1 */\n      dup3\n      dup3\n      sload\n      tag_134\n      swap2\n      swap1\n      tag_133\n      jump\t// in\n    tag_134:\n      swap3\n      pop\n      pop\n      dup2\n      swap1\n      sstore\n      pop\n        /* \"Contract.sol\":12634:12725  NewUserRegisteredEvent(currentUserIdIndex - 1, inviterId, userPartnersCount[inviterId] - 1) */\n      0x12888a3214fa3b6d599e2a7d3ff41e8aa7ef1295fe3ba5d428825df6da086885\n        /* \"Contract.sol\":12678:12679  1 */\n      0x01\n        /* \"Contract.sol\":12657:12675  currentUserIdIndex */\n      sload(0x00)\n        /* \"Contract.sol\":12657:12679  currentUserIdIndex - 1 */\n      tag_135\n      swap2\n      swap1\n      tag_136\n      jump\t// in\n    tag_135:\n        /* \"Contract.sol\":12681:12690  inviterId */\n      dup5\n        /* \"Contract.sol\":12723:12724  1 */\n      0x01\n        /* \"Contract.sol\":12692:12709  userPartnersCount */\n      0x04\n        /* \"Contract.sol\":12692:12720  userPartnersCount[inviterId] */\n      0x00\n        /* \"Contract.sol\":12710:12719  inviterId */\n      dup9\n        /* \"Contract.sol\":12692:12720  userPartnersCount[inviterId] */\n      dup2\n      mstore\n      0x20\n      add\n      swap1\n      dup2\n      mstore\n      0x20\n      add\n      0x00\n      keccak256\n      sload\n        /* \"Contract.sol\":12692:12724  userPartnersCount[inviterId] - 1 */\n      tag_137\n      swap2\n      swap1\n      tag_136\n      jump\t// in\n    tag_137:\n        /* \"Contract.sol\":12634:12725  NewUserRegisteredEvent(currentUserIdIndex - 1, inviterId, userPartnersCount[inviterId] - 1) */\n      mload(0x40)\n      tag_138\n      swap4\n      swap3\n      swap2\n      swap1\n      tag_139\n      jump\t// in\n    tag_138:\n      mload(0x40)\n      dup1\n      swap2\n      sub\n      swap1\n      log1\n        /* \"Contract.sol\":9273:9519  {\r... */\n      pop\n      pop\n        /* \"Contract.sol\":12040:12733  function registerUserToGame(uint256 inviterId) external payable noContractAccess {\r... */\n      pop\n      jump\t// out\n        /* \"Contract.sol\":8120:8168  mapping (address => User) public registeredUsers */\n    tag_36:\n      mstore(0x20, 0x05)\n      dup1\n      0x00\n      mstore\n      keccak256(0x00, 0x40)\n      0x00\n      swap2\n      pop\n      swap1\n      pop\n      dup1\n      0x00\n      add\n      sload\n      swap1\n      dup1\n      0x01\n      add\n      0x00\n      swap1\n      sload\n      swap1\n      0x0100\n      exp\n      swap1\n      div\n      0xffffffffffffffffffffffffffffffffffffffff\n      and\n      swap1\n      dup1\n      0x02\n      add\n      sload\n      swap1\n      pop\n      dup4\n      jump\t// out\n        /* \"Contract.sol\":8524:8585  mapping (address => mapping (uint8 => bool)) public userGames */\n    tag_43:\n      mstore(0x20, 0x09)\n      dup2\n      0x00\n      mstore\n      mstore(0x20, keccak256(0x00, 0x40))\n      dup1\n      0x00\n      mstore\n      keccak256(0x00, 0x40)\n      0x00\n      swap2\n      pop\n      swap2\n      pop\n      swap1\n      sload\n      swap1\n      0x0100\n      exp\n      swap1\n      div\n      0xff\n      and\n      dup2\n      jump\t// out\n        /* \"Contract.sol\":12741:12958  function joinToGame(uint8 gameId) public payable onlyRegistered {\r... */\n    tag_49:\n        /* \"Contract.sol\":9216:9217  0 */\n      0x00\n        /* \"Contract.sol\":9165:9218  registeredUsers[msg.sender].userAddress != address(0) */\n      0xffffffffffffffffffffffffffffffffffffffff\n      and\n        /* \"Contract.sol\":9165:9180  registeredUsers */\n      0x05\n        /* \"Contract.sol\":9165:9192  registeredUsers[msg.sender] */\n      0x00\n        /* \"Contract.sol\":9181:9191  msg.sender */\n      caller\n        /* \"Contract.sol\":9165:9192  registeredUsers[msg.sender] */\n      0xffffffffffffffffffffffffffffffffffffffff\n      and\n      0xffffffffffffffffffffffffffffffffffffffff\n      and\n      dup2\n      mstore\n      0x20\n      add\n      swap1\n      dup2\n      mstore\n      0x20\n      add\n      0x00\n      keccak256\n        /* \"Contract.sol\":9165:9204  registeredUsers[msg.sender].userAddress */\n      0x01\n      add\n      0x00\n      swap1\n      sload\n      swap1\n      0x0100\n      exp\n      swap1\n      div\n      0xffffffffffffffffffffffffffffffffffffffff\n      and\n        /* \"Contract.sol\":9165:9218  registeredUsers[msg.sender].userAddress != address(0) */\n      0xffffffffffffffffffffffffffffffffffffffff\n      and\n      eq\n      iszero\n        /* \"Contract.sol\":9157:9219  require(registeredUsers[msg.sender].userAddress != address(0)) */\n      tag_141\n      jumpi\n      0x00\n      dup1\n      revert\n    tag_141:\n        /* \"Contract.sol\":12908:12950  _joinToGame(gameId, msg.sender, msg.value) */\n      tag_143\n        /* \"Contract.sol\":12920:12926  gameId */\n      dup2\n        /* \"Contract.sol\":12928:12938  msg.sender */\n      caller\n        /* \"Contract.sol\":12940:12949  msg.value */\n      callvalue\n        /* \"Contract.sol\":12908:12919  _joinToGame */\n      tag_120\n        /* \"Contract.sol\":12908:12950  _joinToGame(gameId, msg.sender, msg.value) */\n      jump\t// in\n    tag_143:\n        /* \"Contract.sol\":12741:12958  function joinToGame(uint8 gameId) public payable onlyRegistered {\r... */\n      pop\n      jump\t// out\n        /* \"Contract.sol\":10724:11291  function culcNextWinnerIndex(uint256 index) public pure returns(uint256) {\r... */\n    tag_53:\n        /* \"Contract.sol\":10788:10795  uint256 */\n      0x00\n        /* \"Contract.sol\":11263:11264  0 */\n      dup1\n        /* \"Contract.sol\":11247:11259  index.mod(2) */\n      tag_145\n        /* \"Contract.sol\":11257:11258  2 */\n      0x02\n        /* \"Contract.sol\":11247:11252  index */\n      dup5\n        /* \"Contract.sol\":11247:11256  index.mod */\n      tag_146\n      swap1\n        /* \"Contract.sol\":11247:11259  index.mod(2) */\n      swap2\n      swap1\n      0xffffffff\n      and\n      jump\t// in\n    tag_145:\n        /* \"Contract.sol\":11247:11264  index.mod(2) == 0 */\n      eq\n        /* \"Contract.sol\":11247:11283  index.mod(2) == 0 ? 0 : index.div(2) */\n      tag_147\n      jumpi\n        /* \"Contract.sol\":11271:11283  index.div(2) */\n      tag_148\n        /* \"Contract.sol\":11281:11282  2 */\n      0x02\n        /* \"Contract.sol\":11271:11276  index */\n      dup4\n        /* \"Contract.sol\":11271:11280  index.div */\n      tag_149\n      swap1\n        /* \"Contract.sol\":11271:11283  index.div(2) */\n      swap2\n      swap1\n      0xffffffff\n      and\n      jump\t// in\n    tag_148:\n        /* \"Contract.sol\":11247:11283  index.mod(2) == 0 ? 0 : index.div(2) */\n      jump(tag_150)\n    tag_147:\n        /* \"Contract.sol\":11267:11268  0 */\n      0x00\n        /* \"Contract.sol\":11247:11283  index.mod(2) == 0 ? 0 : index.div(2) */\n    tag_150:\n        /* \"Contract.sol\":11240:11283  return index.mod(2) == 0 ? 0 : index.div(2) */\n      swap1\n      pop\n        /* \"Contract.sol\":10724:11291  function culcNextWinnerIndex(uint256 index) public pure returns(uint256) {\r... */\n      swap2\n      swap1\n      pop\n      jump\t// out\n        /* \"Contract.sol\":11536:11655  function getUserBalance(address userAddress) public view returns(uint256) {\r... */\n    tag_59:\n        /* \"Contract.sol\":11601:11608  uint256 */\n      0x00\n        /* \"Contract.sol\":11628:11639  userAddress */\n      dup2\n        /* \"Contract.sol\":11628:11647  userAddress.balance */\n      0xffffffffffffffffffffffffffffffffffffffff\n      and\n      balance\n        /* \"Contract.sol\":11621:11647  return userAddress.balance */\n      swap1\n      pop\n        /* \"Contract.sol\":11536:11655  function getUserBalance(address userAddress) public view returns(uint256) {\r... */\n      swap2\n      swap1\n      pop\n      jump\t// out\n        /* \"Contract.sol\":7097:7130  uint256 public currentUserIdIndex */\n    tag_63:\n      sload(0x00)\n      dup2\n      jump\t// out\n        /* \"Contract.sol\":8312:8369  mapping (uint8 => mapping (uint256 => User)) public pools */\n    tag_69:\n      mstore(0x20, 0x07)\n      dup2\n      0x00\n      mstore\n      mstore(0x20, keccak256(0x00, 0x40))\n      dup1\n      0x00\n      mstore\n      keccak256(0x00, 0x40)\n      0x00\n      swap2\n      pop\n      swap2\n      pop\n      pop\n      dup1\n      0x00\n      add\n      sload\n      swap1\n      dup1\n      0x01\n      add\n      0x00\n      swap1\n      sload\n      swap1\n      0x0100\n      exp\n      swap1\n      div\n      0xffffffffffffffffffffffffffffffffffffffff\n      and\n      swap1\n      dup1\n      0x02\n      add\n      sload\n      swap1\n      pop\n      dup4\n      jump\t// out\n        /* \"Contract.sol\":7873:7910  mapping (uint8 => Game) public levels */\n    tag_74:\n      mstore(0x20, 0x02)\n      dup1\n      0x00\n      mstore\n      keccak256(0x00, 0x40)\n      0x00\n      swap2\n      pop\n      swap1\n      pop\n      dup1\n      0x00\n      add\n      0x00\n      swap1\n      sload\n      swap1\n      0x0100\n      exp\n      swap1\n      div\n      0xff\n      and\n      swap1\n      dup1\n      0x01\n      add\n      sload\n      swap1\n      pop\n      dup3\n      jump\t// out\n        /* \"Contract.sol\":11299:11528  function hasAccess(address userAdress) public view returns(bool) {\r... */\n    tag_80:\n        /* \"Contract.sol\":11358:11362  bool */\n      0x00\n        /* \"Contract.sol\":11507:11520  contractOwner */\n      0x01\n      dup1\n      sload\n      swap1\n      0x0100\n      exp\n      swap1\n      div\n      0xffffffffffffffffffffffffffffffffffffffff\n      and\n        /* \"Contract.sol\":11493:11520  userAdress == contractOwner */\n      0xffffffffffffffffffffffffffffffffffffffff\n      and\n        /* \"Contract.sol\":11493:11503  userAdress */\n      dup3\n        /* \"Contract.sol\":11493:11520  userAdress == contractOwner */\n      0xffffffffffffffffffffffffffffffffffffffff\n      and\n      eq\n        /* \"Contract.sol\":11486:11520  return userAdress == contractOwner */\n      swap1\n      pop\n        /* \"Contract.sol\":11299:11528  function hasAccess(address userAdress) public view returns(bool) {\r... */\n      swap2\n      swap1\n      pop\n      jump\t// out\n        /* \"Contract.sol\":8223:8273  mapping (uint8 => uint256) public currentUserIndex */\n    tag_85:\n      mstore(0x20, 0x06)\n      dup1\n      0x00\n      mstore\n      keccak256(0x00, 0x40)\n      0x00\n      swap2\n      pop\n      swap1\n      pop\n      sload\n      dup2\n      jump\t// out\n        /* \"Contract.sol\":7166:7197  uint8 public currentGameIdIndex */\n    tag_89:\n      0x01\n      0x00\n      swap1\n      sload\n      swap1\n      0x0100\n      exp\n      swap1\n      div\n      0xff\n      and\n      dup2\n      jump\t// out\n        /* \"Contract.sol\":11663:12032  function addGameLevel(uint256 amountToPay) public onlyOwner {\r... */\n    tag_95:\n        /* \"Contract.sol\":9625:9646  hasAccess(msg.sender) */\n      tag_154\n        /* \"Contract.sol\":9635:9645  msg.sender */\n      caller\n        /* \"Contract.sol\":9625:9634  hasAccess */\n      tag_80\n        /* \"Contract.sol\":9625:9646  hasAccess(msg.sender) */\n      jump\t// in\n    tag_154:\n        /* \"Contract.sol\":9617:9647  require(hasAccess(msg.sender)) */\n      tag_155\n      jumpi\n      0x00\n      dup1\n      revert\n    tag_155:\n        /* \"Contract.sol\":11868:11930  Game({ gameId: currentGameIdIndex, amountToPay: amountToPay }) */\n      mload(0x40)\n      dup1\n      0x40\n      add\n      0x40\n      mstore\n      dup1\n        /* \"Contract.sol\":11883:11901  currentGameIdIndex */\n      0x01\n      0x00\n      swap1\n      sload\n      swap1\n      0x0100\n      exp\n      swap1\n      div\n      0xff\n      and\n        /* \"Contract.sol\":11868:11930  Game({ gameId: currentGameIdIndex, amountToPay: amountToPay }) */\n      0xff\n      and\n      dup2\n      mstore\n      0x20\n      add\n        /* \"Contract.sol\":11916:11927  amountToPay */\n      dup3\n        /* \"Contract.sol\":11868:11930  Game({ gameId: currentGameIdIndex, amountToPay: amountToPay }) */\n      dup2\n      mstore\n      pop\n        /* \"Contract.sol\":11839:11845  levels */\n      0x02\n        /* \"Contract.sol\":11839:11865  levels[currentGameIdIndex] */\n      0x00\n        /* \"Contract.sol\":11846:11864  currentGameIdIndex */\n      0x01\n      0x00\n      swap1\n      sload\n      swap1\n      0x0100\n      exp\n      swap1\n      div\n      0xff\n      and\n        /* \"Contract.sol\":11839:11865  levels[currentGameIdIndex] */\n      0xff\n      and\n      0xff\n      and\n      dup2\n      mstore\n      0x20\n      add\n      swap1\n      dup2\n      mstore\n      0x20\n      add\n      0x00\n      keccak256\n        /* \"Contract.sol\":11839:11930  levels[currentGameIdIndex] = Game({ gameId: currentGameIdIndex, amountToPay: amountToPay }) */\n      0x00\n      dup3\n      add\n      mload\n      dup2\n      0x00\n      add\n      exp(0x0100, 0x00)\n      dup2\n      sload\n      dup2\n      0xff\n      mul\n      not\n      and\n      swap1\n      dup4\n      0xff\n      and\n      mul\n      or\n      swap1\n      sstore\n      pop\n      0x20\n      dup3\n      add\n      mload\n      dup2\n      0x01\n      add\n      sstore\n      swap1\n      pop\n      pop\n        /* \"Contract.sol\":11963:11964  1 */\n      0x01\n        /* \"Contract.sol\":11941:11959  currentGameIdIndex */\n      dup1\n      0x00\n        /* \"Contract.sol\":11941:11964  currentGameIdIndex += 1 */\n      dup3\n      dup3\n      dup3\n      swap1\n      sload\n      swap1\n      0x0100\n      exp\n      swap1\n      div\n      0xff\n      and\n      tag_157\n      swap2\n      swap1\n      tag_112\n      jump\t// in\n    tag_157:\n      swap3\n      pop\n      0x0100\n      exp\n      dup2\n      sload\n      dup2\n      0xff\n      mul\n      not\n      and\n      swap1\n      dup4\n      0xff\n      and\n      mul\n      or\n      swap1\n      sstore\n      pop\n        /* \"Contract.sol\":11980:12024  NewGame( currentGameIdIndex-1, amountToPay ) */\n      0xcf1ed532d6b83b4290f2f407b156b17826f49752e7a8ff360f502c307e055663\n        /* \"Contract.sol\":12008:12009  1 */\n      0x01\n        /* \"Contract.sol\":11989:12007  currentGameIdIndex */\n      dup1\n      0x00\n      swap1\n      sload\n      swap1\n      0x0100\n      exp\n      swap1\n      div\n      0xff\n      and\n        /* \"Contract.sol\":11989:12009  currentGameIdIndex-1 */\n      tag_158\n      swap2\n      swap1\n      tag_159\n      jump\t// in\n    tag_158:\n        /* \"Contract.sol\":12011:12022  amountToPay */\n      dup3\n        /* \"Contract.sol\":11980:12024  NewGame( currentGameIdIndex-1, amountToPay ) */\n      mload(0x40)\n      tag_160\n      swap3\n      swap2\n      swap1\n      tag_76\n      jump\t// in\n    tag_160:\n      mload(0x40)\n      dup1\n      swap2\n      sub\n      swap1\n      log1\n        /* \"Contract.sol\":11663:12032  function addGameLevel(uint256 amountToPay) public onlyOwner {\r... */\n      pop\n      jump\t// out\n        /* \"Contract.sol\":7934:7977  mapping (uint256 => address) public usersId */\n    tag_99:\n      mstore(0x20, 0x03)\n      dup1\n      0x00\n      mstore\n      keccak256(0x00, 0x40)\n      0x00\n      swap2\n      pop\n      sload\n      swap1\n      0x0100\n      exp\n      swap1\n      div\n      0xffffffffffffffffffffffffffffffffffffffff\n      and\n      dup2\n      jump\t// out\n        /* \"Contract.sol\":8411:8478  mapping (address => mapping (uint8 => uint256)) public userPayments */\n    tag_105:\n      mstore(0x20, 0x08)\n      dup2\n      0x00\n      mstore\n      mstore(0x20, keccak256(0x00, 0x40))\n      dup1\n      0x00\n      mstore\n      keccak256(0x00, 0x40)\n      0x00\n      swap2\n      pop\n      swap2\n      pop\n      pop\n      sload\n      dup2\n      jump\t// out\n        /* \"Contract.sol\":12966:16640  function _joinToGame(uint8 gameId, address sender, uint256 value) internal {\r... */\n    tag_120:\n        /* \"Contract.sol\":13070:13076  levels */\n      0x02\n        /* \"Contract.sol\":13070:13084  levels[gameId] */\n      0x00\n        /* \"Contract.sol\":13077:13083  gameId */\n      dup5\n        /* \"Contract.sol\":13070:13084  levels[gameId] */\n      0xff\n      and\n      0xff\n      and\n      dup2\n      mstore\n      0x20\n      add\n      swap1\n      dup2\n      mstore\n      0x20\n      add\n      0x00\n      keccak256\n        /* \"Contract.sol\":13070:13096  levels[gameId].amountToPay */\n      0x01\n      add\n      sload\n        /* \"Contract.sol\":13061:13066  value */\n      dup2\n        /* \"Contract.sol\":13061:13096  value >= levels[gameId].amountToPay */\n      lt\n      iszero\n        /* \"Contract.sol\":13052:13136  require (value >= levels[gameId].amountToPay, \"Insufficient amount of contribution\") */\n      tag_162\n      jumpi\n      mload(0x40)\n      0x08c379a000000000000000000000000000000000000000000000000000000000\n      dup2\n      mstore\n      0x04\n      add\n      tag_163\n      swap1\n      tag_164\n      jump\t// in\n    tag_163:\n      mload(0x40)\n      dup1\n      swap2\n      sub\n      swap1\n      revert\n    tag_162:\n        /* \"Contract.sol\":13311:13326  registeredUsers */\n      0x05\n        /* \"Contract.sol\":13311:13334  registeredUsers[sender] */\n      0x00\n        /* \"Contract.sol\":13327:13333  sender */\n      dup4\n        /* \"Contract.sol\":13311:13334  registeredUsers[sender] */\n      0xffffffffffffffffffffffffffffffffffffffff\n      and\n      0xffffffffffffffffffffffffffffffffffffffff\n      and\n      dup2\n      mstore\n      0x20\n      add\n      swap1\n      dup2\n      mstore\n      0x20\n      add\n      0x00\n      keccak256\n        /* \"Contract.sol\":13269:13274  pools */\n      0x07\n        /* \"Contract.sol\":13269:13282  pools[gameId] */\n      0x00\n        /* \"Contract.sol\":13275:13281  gameId */\n      dup6\n        /* \"Contract.sol\":13269:13282  pools[gameId] */\n      0xff\n      and\n      0xff\n      and\n      dup2\n      mstore\n      0x20\n      add\n      swap1\n      dup2\n      mstore\n      0x20\n      add\n      0x00\n      keccak256\n        /* \"Contract.sol\":13269:13308  pools[gameId][currentUserIndex[gameId]] */\n      0x00\n        /* \"Contract.sol\":13283:13299  currentUserIndex */\n      0x06\n        /* \"Contract.sol\":13283:13307  currentUserIndex[gameId] */\n      0x00\n        /* \"Contract.sol\":13300:13306  gameId */\n      dup8\n        /* \"Contract.sol\":13283:13307  currentUserIndex[gameId] */\n      0xff\n      and\n      0xff\n      and\n      dup2\n      mstore\n      0x20\n      add\n      swap1\n      dup2\n      mstore\n      0x20\n      add\n      0x00\n      keccak256\n      sload\n        /* \"Contract.sol\":13269:13308  pools[gameId][currentUserIndex[gameId]] */\n      dup2\n      mstore\n      0x20\n      add\n      swap1\n      dup2\n      mstore\n      0x20\n      add\n      0x00\n      keccak256\n        /* \"Contract.sol\":13269:13334  pools[gameId][currentUserIndex[gameId]] = registeredUsers[sender] */\n      0x00\n      dup3\n      add\n      sload\n      dup2\n      0x00\n      add\n      sstore\n      0x01\n      dup3\n      add\n      0x00\n      swap1\n      sload\n      swap1\n      0x0100\n      exp\n      swap1\n      div\n      0xffffffffffffffffffffffffffffffffffffffff\n      and\n      dup2\n      0x01\n      add\n      exp(0x0100, 0x00)\n      dup2\n      sload\n      dup2\n      0xffffffffffffffffffffffffffffffffffffffff\n      mul\n      not\n      and\n      swap1\n      dup4\n      0xffffffffffffffffffffffffffffffffffffffff\n      and\n      mul\n      or\n      swap1\n      sstore\n      pop\n      0x02\n      dup3\n      add\n      sload\n      dup2\n      0x02\n      add\n      sstore\n      swap1\n      pop\n      pop\n        /* \"Contract.sol\":13373:13377  true */\n      0x01\n        /* \"Contract.sol\":13345:13354  userGames */\n      0x09\n        /* \"Contract.sol\":13345:13362  userGames[sender] */\n      0x00\n        /* \"Contract.sol\":13355:13361  sender */\n      dup5\n        /* \"Contract.sol\":13345:13362  userGames[sender] */\n      0xffffffffffffffffffffffffffffffffffffffff\n      and\n      0xffffffffffffffffffffffffffffffffffffffff\n      and\n      dup2\n      mstore\n      0x20\n      add\n      swap1\n      dup2\n      mstore\n      0x20\n      add\n      0x00\n      keccak256\n        /* \"Contract.sol\":13345:13370  userGames[sender][gameId] */\n      0x00\n        /* \"Contract.sol\":13363:13369  gameId */\n      dup6\n        /* \"Contract.sol\":13345:13370  userGames[sender][gameId] */\n      0xff\n      and\n      0xff\n      and\n      dup2\n      mstore\n      0x20\n      add\n      swap1\n      dup2\n      mstore\n      0x20\n      add\n      0x00\n      keccak256\n      0x00\n        /* \"Contract.sol\":13345:13377  userGames[sender][gameId] = true */\n      0x0100\n      exp\n      dup2\n      sload\n      dup2\n      0xff\n      mul\n      not\n      and\n      swap1\n      dup4\n      iszero\n      iszero\n      mul\n      or\n      swap1\n      sstore\n      pop\n        /* \"Contract.sol\":13416:13417  1 */\n      0x01\n        /* \"Contract.sol\":13388:13404  currentUserIndex */\n      0x06\n        /* \"Contract.sol\":13388:13412  currentUserIndex[gameId] */\n      0x00\n        /* \"Contract.sol\":13405:13411  gameId */\n      dup6\n        /* \"Contract.sol\":13388:13412  currentUserIndex[gameId] */\n      0xff\n      and\n      0xff\n      and\n      dup2\n      mstore\n      0x20\n      add\n      swap1\n      dup2\n      mstore\n      0x20\n      add\n      0x00\n      keccak256\n      0x00\n        /* \"Contract.sol\":13388:13417  currentUserIndex[gameId] += 1 */\n      dup3\n      dup3\n      sload\n      tag_165\n      swap2\n      swap1\n      tag_133\n      jump\t// in\n    tag_165:\n      swap3\n      pop\n      pop\n      dup2\n      swap1\n      sstore\n      pop\n        /* \"Contract.sol\":13561:13562  3 */\n      0x03\n        /* \"Contract.sol\":13533:13549  currentUserIndex */\n      0x06\n        /* \"Contract.sol\":13533:13557  currentUserIndex[gameId] */\n      0x00\n        /* \"Contract.sol\":13550:13556  gameId */\n      dup6\n        /* \"Contract.sol\":13533:13557  currentUserIndex[gameId] */\n      0xff\n      and\n      0xff\n      and\n      dup2\n      mstore\n      0x20\n      add\n      swap1\n      dup2\n      mstore\n      0x20\n      add\n      0x00\n      keccak256\n      sload\n        /* \"Contract.sol\":13533:13562  currentUserIndex[gameId] >= 3 */\n      lt\n        /* \"Contract.sol\":13529:16633  if (currentUserIndex[gameId] >= 3) {\r... */\n      tag_166\n      jumpi\n        /* \"Contract.sol\":13579:13596  uint256 userIndex */\n      0x00\n        /* \"Contract.sol\":13599:13644  culcNextWinnerIndex(currentUserIndex[gameId]) */\n      tag_167\n        /* \"Contract.sol\":13619:13635  currentUserIndex */\n      0x06\n        /* \"Contract.sol\":13619:13643  currentUserIndex[gameId] */\n      0x00\n        /* \"Contract.sol\":13636:13642  gameId */\n      dup7\n        /* \"Contract.sol\":13619:13643  currentUserIndex[gameId] */\n      0xff\n      and\n      0xff\n      and\n      dup2\n      mstore\n      0x20\n      add\n      swap1\n      dup2\n      mstore\n      0x20\n      add\n      0x00\n      keccak256\n      sload\n        /* \"Contract.sol\":13599:13618  culcNextWinnerIndex */\n      tag_53\n        /* \"Contract.sol\":13599:13644  culcNextWinnerIndex(currentUserIndex[gameId]) */\n      jump\t// in\n    tag_167:\n        /* \"Contract.sol\":13579:13644  uint256 userIndex = culcNextWinnerIndex(currentUserIndex[gameId]) */\n      swap1\n      pop\n        /* \"Contract.sol\":13785:16622  while (userIndex != 0) {\r... */\n    tag_168:\n        /* \"Contract.sol\":13805:13806  0 */\n      0x00\n        /* \"Contract.sol\":13792:13801  userIndex */\n      dup2\n        /* \"Contract.sol\":13792:13806  userIndex != 0 */\n      eq\n        /* \"Contract.sol\":13785:16622  while (userIndex != 0) {\r... */\n      tag_169\n      jumpi\n        /* \"Contract.sol\":13827:13850  address selectedAddress */\n      0x00\n        /* \"Contract.sol\":13853:13858  pools */\n      0x07\n        /* \"Contract.sol\":13853:13866  pools[gameId] */\n      0x00\n        /* \"Contract.sol\":13859:13865  gameId */\n      dup7\n        /* \"Contract.sol\":13853:13866  pools[gameId] */\n      0xff\n      and\n      0xff\n      and\n      dup2\n      mstore\n      0x20\n      add\n      swap1\n      dup2\n      mstore\n      0x20\n      add\n      0x00\n      keccak256\n        /* \"Contract.sol\":13853:13881  pools[gameId][userIndex - 1] */\n      0x00\n        /* \"Contract.sol\":13879:13880  1 */\n      0x01\n        /* \"Contract.sol\":13867:13876  userIndex */\n      dup5\n        /* \"Contract.sol\":13867:13880  userIndex - 1 */\n      tag_170\n      swap2\n      swap1\n      tag_136\n      jump\t// in\n    tag_170:\n        /* \"Contract.sol\":13853:13881  pools[gameId][userIndex - 1] */\n      dup2\n      mstore\n      0x20\n      add\n      swap1\n      dup2\n      mstore\n      0x20\n      add\n      0x00\n      keccak256\n        /* \"Contract.sol\":13853:13893  pools[gameId][userIndex - 1].userAddress */\n      0x01\n      add\n      0x00\n      swap1\n      sload\n      swap1\n      0x0100\n      exp\n      swap1\n      div\n      0xffffffffffffffffffffffffffffffffffffffff\n      and\n        /* \"Contract.sol\":13827:13893  address selectedAddress = pools[gameId][userIndex - 1].userAddress */\n      swap1\n      pop\n        /* \"Contract.sol\":14099:14100  1 */\n      0x01\n        /* \"Contract.sol\":14058:14070  userPayments */\n      0x08\n        /* \"Contract.sol\":14058:14087  userPayments[selectedAddress] */\n      0x00\n        /* \"Contract.sol\":14071:14086  selectedAddress */\n      dup4\n        /* \"Contract.sol\":14058:14087  userPayments[selectedAddress] */\n      0xffffffffffffffffffffffffffffffffffffffff\n      and\n      0xffffffffffffffffffffffffffffffffffffffff\n      and\n      dup2\n      mstore\n      0x20\n      add\n      swap1\n      dup2\n      mstore\n      0x20\n      add\n      0x00\n      keccak256\n        /* \"Contract.sol\":14058:14095  userPayments[selectedAddress][gameId] */\n      0x00\n        /* \"Contract.sol\":14088:14094  gameId */\n      dup8\n        /* \"Contract.sol\":14058:14095  userPayments[selectedAddress][gameId] */\n      0xff\n      and\n      0xff\n      and\n      dup2\n      mstore\n      0x20\n      add\n      swap1\n      dup2\n      mstore\n      0x20\n      add\n      0x00\n      keccak256\n      sload\n        /* \"Contract.sol\":14058:14100  userPayments[selectedAddress][gameId] <= 1 */\n      gt\n      iszero\n        /* \"Contract.sol\":14058:14140  userPayments[selectedAddress][gameId] <= 1 || userGames[selectedAddress][gameId+1] */\n      dup1\n      tag_171\n      jumpi\n      pop\n        /* \"Contract.sol\":14104:14113  userGames */\n      0x09\n        /* \"Contract.sol\":14104:14130  userGames[selectedAddress] */\n      0x00\n        /* \"Contract.sol\":14114:14129  selectedAddress */\n      dup3\n        /* \"Contract.sol\":14104:14130  userGames[selectedAddress] */\n      0xffffffffffffffffffffffffffffffffffffffff\n      and\n      0xffffffffffffffffffffffffffffffffffffffff\n      and\n      dup2\n      mstore\n      0x20\n      add\n      swap1\n      dup2\n      mstore\n      0x20\n      add\n      0x00\n      keccak256\n        /* \"Contract.sol\":14104:14140  userGames[selectedAddress][gameId+1] */\n      0x00\n        /* \"Contract.sol\":14138:14139  1 */\n      0x01\n        /* \"Contract.sol\":14131:14137  gameId */\n      dup8\n        /* \"Contract.sol\":14131:14139  gameId+1 */\n      tag_172\n      swap2\n      swap1\n      tag_112\n      jump\t// in\n    tag_172:\n        /* \"Contract.sol\":14104:14140  userGames[selectedAddress][gameId+1] */\n      0xff\n      and\n      0xff\n      and\n      dup2\n      mstore\n      0x20\n      add\n      swap1\n      dup2\n      mstore\n      0x20\n      add\n      0x00\n      keccak256\n      0x00\n      swap1\n      sload\n      swap1\n      0x0100\n      exp\n      swap1\n      div\n      0xff\n      and\n        /* \"Contract.sol\":14058:14140  userPayments[selectedAddress][gameId] <= 1 || userGames[selectedAddress][gameId+1] */\n    tag_171:\n        /* \"Contract.sol\":14054:16546  if (userPayments[selectedAddress][gameId] <= 1 || userGames[selectedAddress][gameId+1]) {\r... */\n      iszero\n      tag_173\n      jumpi\n        /* \"Contract.sol\":14342:14354  bool success */\n      0x00\n        /* \"Contract.sol\":14360:14375  selectedAddress */\n      dup2\n        /* \"Contract.sol\":14360:14380  selectedAddress.call */\n      0xffffffffffffffffffffffffffffffffffffffff\n      and\n        /* \"Contract.sol\":14388:14438  levels[gameId].amountToPay.mul(baseAward).div(100) */\n      tag_174\n        /* \"Contract.sol\":14434:14437  100 */\n      0x64\n        /* \"Contract.sol\":14388:14429  levels[gameId].amountToPay.mul(baseAward) */\n      tag_175\n        /* \"Contract.sol\":7286:7288  74 */\n      0x4a\n        /* \"Contract.sol\":14388:14394  levels */\n      0x02\n        /* \"Contract.sol\":14388:14402  levels[gameId] */\n      0x00\n        /* \"Contract.sol\":14395:14401  gameId */\n      dup13\n        /* \"Contract.sol\":14388:14402  levels[gameId] */\n      0xff\n      and\n      0xff\n      and\n      dup2\n      mstore\n      0x20\n      add\n      swap1\n      dup2\n      mstore\n      0x20\n      add\n      0x00\n      keccak256\n        /* \"Contract.sol\":14388:14414  levels[gameId].amountToPay */\n      0x01\n      add\n      sload\n        /* \"Contract.sol\":14388:14418  levels[gameId].amountToPay.mul */\n      tag_176\n      swap1\n        /* \"Contract.sol\":14388:14429  levels[gameId].amountToPay.mul(baseAward) */\n      swap2\n      swap1\n      0xffffffff\n      and\n      jump\t// in\n    tag_175:\n        /* \"Contract.sol\":14388:14433  levels[gameId].amountToPay.mul(baseAward).div */\n      tag_149\n      swap1\n        /* \"Contract.sol\":14388:14438  levels[gameId].amountToPay.mul(baseAward).div(100) */\n      swap2\n      swap1\n      0xffffffff\n      and\n      jump\t// in\n    tag_174:\n        /* \"Contract.sol\":14360:14443  selectedAddress.call{value: levels[gameId].amountToPay.mul(baseAward).div(100)}(\"\") */\n      mload(0x40)\n      tag_177\n      swap1\n      tag_178\n      jump\t// in\n    tag_177:\n      0x00\n      mload(0x40)\n      dup1\n      dup4\n      sub\n      dup2\n      dup6\n      dup8\n      gas\n      call\n      swap3\n      pop\n      pop\n      pop\n      returndatasize\n      dup1\n      0x00\n      dup2\n      eq\n      tag_181\n      jumpi\n      mload(0x40)\n      swap2\n      pop\n      and(add(returndatasize, 0x3f), not(0x1f))\n      dup3\n      add\n      0x40\n      mstore\n      returndatasize\n      dup3\n      mstore\n      returndatasize\n      0x00\n      0x20\n      dup5\n      add\n      returndatacopy\n      jump(tag_180)\n    tag_181:\n      0x60\n      swap2\n      pop\n    tag_180:\n      pop\n        /* \"Contract.sol\":14341:14443  (bool success, ) = selectedAddress.call{value: levels[gameId].amountToPay.mul(baseAward).div(100)}(\"\") */\n      pop\n      swap1\n      pop\n        /* \"Contract.sol\":14507:14508  1 */\n      0x01\n        /* \"Contract.sol\":14466:14478  userPayments */\n      0x08\n        /* \"Contract.sol\":14466:14495  userPayments[selectedAddress] */\n      0x00\n        /* \"Contract.sol\":14479:14494  selectedAddress */\n      dup5\n        /* \"Contract.sol\":14466:14495  userPayments[selectedAddress] */\n      0xffffffffffffffffffffffffffffffffffffffff\n      and\n      0xffffffffffffffffffffffffffffffffffffffff\n      and\n      dup2\n      mstore\n      0x20\n      add\n      swap1\n      dup2\n      mstore\n      0x20\n      add\n      0x00\n      keccak256\n        /* \"Contract.sol\":14466:14503  userPayments[selectedAddress][gameId] */\n      0x00\n        /* \"Contract.sol\":14496:14502  gameId */\n      dup9\n        /* \"Contract.sol\":14466:14503  userPayments[selectedAddress][gameId] */\n      0xff\n      and\n      0xff\n      and\n      dup2\n      mstore\n      0x20\n      add\n      swap1\n      dup2\n      mstore\n      0x20\n      add\n      0x00\n      keccak256\n      0x00\n        /* \"Contract.sol\":14466:14508  userPayments[selectedAddress][gameId] += 1 */\n      dup3\n      dup3\n      sload\n      tag_182\n      swap2\n      swap1\n      tag_133\n      jump\t// in\n    tag_182:\n      swap3\n      pop\n      pop\n      dup2\n      swap1\n      sstore\n      pop\n        /* \"Contract.sol\":14590:14655  GamePaymentEvent(levels[gameId].gameId, selectedAddress, success) */\n      0xd9ff1d189bd8473f87a70327222795b92238d06f3edf14fa23403ac2153c10a9\n        /* \"Contract.sol\":14607:14613  levels */\n      0x02\n        /* \"Contract.sol\":14607:14621  levels[gameId] */\n      0x00\n        /* \"Contract.sol\":14614:14620  gameId */\n      dup9\n        /* \"Contract.sol\":14607:14621  levels[gameId] */\n      0xff\n      and\n      0xff\n      and\n      dup2\n      mstore\n      0x20\n      add\n      swap1\n      dup2\n      mstore\n      0x20\n      add\n      0x00\n      keccak256\n        /* \"Contract.sol\":14607:14628  levels[gameId].gameId */\n      0x00\n      add\n      0x00\n      swap1\n      sload\n      swap1\n      0x0100\n      exp\n      swap1\n      div\n      0xff\n      and\n        /* \"Contract.sol\":14630:14645  selectedAddress */\n      dup4\n        /* \"Contract.sol\":14647:14654  success */\n      dup4\n        /* \"Contract.sol\":14590:14655  GamePaymentEvent(levels[gameId].gameId, selectedAddress, success) */\n      mload(0x40)\n      tag_183\n      swap4\n      swap3\n      swap2\n      swap1\n      tag_184\n      jump\t// in\n    tag_183:\n      mload(0x40)\n      dup1\n      swap2\n      sub\n      swap1\n      log1\n        /* \"Contract.sol\":14680:14694  uint256 userId */\n      0x00\n        /* \"Contract.sol\":14697:14702  pools */\n      0x07\n        /* \"Contract.sol\":14697:14710  pools[gameId] */\n      0x00\n        /* \"Contract.sol\":14703:14709  gameId */\n      dup9\n        /* \"Contract.sol\":14697:14710  pools[gameId] */\n      0xff\n      and\n      0xff\n      and\n      dup2\n      mstore\n      0x20\n      add\n      swap1\n      dup2\n      mstore\n      0x20\n      add\n      0x00\n      keccak256\n        /* \"Contract.sol\":14697:14725  pools[gameId][userIndex - 1] */\n      0x00\n        /* \"Contract.sol\":14723:14724  1 */\n      0x01\n        /* \"Contract.sol\":14711:14720  userIndex */\n      dup7\n        /* \"Contract.sol\":14711:14724  userIndex - 1 */\n      tag_185\n      swap2\n      swap1\n      tag_136\n      jump\t// in\n    tag_185:\n        /* \"Contract.sol\":14697:14725  pools[gameId][userIndex - 1] */\n      dup2\n      mstore\n      0x20\n      add\n      swap1\n      dup2\n      mstore\n      0x20\n      add\n      0x00\n      keccak256\n        /* \"Contract.sol\":14697:14732  pools[gameId][userIndex - 1].userId */\n      0x00\n      add\n      sload\n        /* \"Contract.sol\":14680:14732  uint256 userId = pools[gameId][userIndex - 1].userId */\n      swap1\n      pop\n        /* \"Contract.sol\":14784:14801  uint256 invitedId */\n      0x00\n        /* \"Contract.sol\":14804:14809  pools */\n      0x07\n        /* \"Contract.sol\":14804:14817  pools[gameId] */\n      0x00\n        /* \"Contract.sol\":14810:14816  gameId */\n      dup10\n        /* \"Contract.sol\":14804:14817  pools[gameId] */\n      0xff\n      and\n      0xff\n      and\n      dup2\n      mstore\n      0x20\n      add\n      swap1\n      dup2\n      mstore\n      0x20\n      add\n      0x00\n      keccak256\n        /* \"Contract.sol\":14804:14832  pools[gameId][userIndex - 1] */\n      0x00\n        /* \"Contract.sol\":14830:14831  1 */\n      0x01\n        /* \"Contract.sol\":14818:14827  userIndex */\n      dup8\n        /* \"Contract.sol\":14818:14831  userIndex - 1 */\n      tag_186\n      swap2\n      swap1\n      tag_136\n      jump\t// in\n    tag_186:\n        /* \"Contract.sol\":14804:14832  pools[gameId][userIndex - 1] */\n      dup2\n      mstore\n      0x20\n      add\n      swap1\n      dup2\n      mstore\n      0x20\n      add\n      0x00\n      keccak256\n        /* \"Contract.sol\":14804:14842  pools[gameId][userIndex - 1].invitedId */\n      0x02\n      add\n      sload\n        /* \"Contract.sol\":14784:14842  uint256 invitedId = pools[gameId][userIndex - 1].invitedId */\n      swap1\n      pop\n        /* \"Contract.sol\":14902:14915  uint refValue */\n      0x00\n        /* \"Contract.sol\":14967:14970  100 */\n      0x64\n        /* \"Contract.sol\":7349:7351  10 */\n      0x0a\n        /* \"Contract.sol\":14918:14924  levels */\n      0x02\n        /* \"Contract.sol\":14918:14932  levels[gameId] */\n      0x00\n        /* \"Contract.sol\":14925:14931  gameId */\n      dup13\n        /* \"Contract.sol\":14918:14932  levels[gameId] */\n      0xff\n      and\n      0xff\n      and\n      dup2\n      mstore\n      0x20\n      add\n      swap1\n      dup2\n      mstore\n      0x20\n      add\n      0x00\n      keccak256\n        /* \"Contract.sol\":14918:14944  levels[gameId].amountToPay */\n      0x01\n      add\n      sload\n        /* \"Contract.sol\":14918:14964  levels[gameId].amountToPay * firstLevelReferal */\n      tag_187\n      swap2\n      swap1\n      tag_188\n      jump\t// in\n    tag_187:\n        /* \"Contract.sol\":14918:14970  levels[gameId].amountToPay * firstLevelReferal / 100 */\n      tag_189\n      swap2\n      swap1\n      tag_190\n      jump\t// in\n    tag_189:\n        /* \"Contract.sol\":14902:14970  uint refValue = levels[gameId].amountToPay * firstLevelReferal / 100 */\n      swap1\n      pop\n        /* \"Contract.sol\":15032:15039  usersId */\n      0x03\n        /* \"Contract.sol\":15032:15050  usersId[invitedId] */\n      0x00\n        /* \"Contract.sol\":15040:15049  invitedId */\n      dup4\n        /* \"Contract.sol\":15032:15050  usersId[invitedId] */\n      dup2\n      mstore\n      0x20\n      add\n      swap1\n      dup2\n      mstore\n      0x20\n      add\n      0x00\n      keccak256\n      0x00\n      swap1\n      sload\n      swap1\n      0x0100\n      exp\n      swap1\n      div\n      0xffffffffffffffffffffffffffffffffffffffff\n      and\n        /* \"Contract.sol\":15032:15055  usersId[invitedId].call */\n      0xffffffffffffffffffffffffffffffffffffffff\n      and\n        /* \"Contract.sol\":15063:15071  refValue */\n      dup2\n        /* \"Contract.sol\":15032:15076  usersId[invitedId].call{value: refValue}(\"\") */\n      mload(0x40)\n      tag_191\n      swap1\n      tag_178\n      jump\t// in\n    tag_191:\n      0x00\n      mload(0x40)\n      dup1\n      dup4\n      sub\n      dup2\n      dup6\n      dup8\n      gas\n      call\n      swap3\n      pop\n      pop\n      pop\n      returndatasize\n      dup1\n      0x00\n      dup2\n      eq\n      tag_194\n      jumpi\n      mload(0x40)\n      swap2\n      pop\n      and(add(returndatasize, 0x3f), not(0x1f))\n      dup3\n      add\n      0x40\n      mstore\n      returndatasize\n      dup3\n      mstore\n      returndatasize\n      0x00\n      0x20\n      dup5\n      add\n      returndatacopy\n      jump(tag_193)\n    tag_194:\n      0x60\n      swap2\n      pop\n    tag_193:\n      pop\n        /* \"Contract.sol\":15018:15076  (success, ) = usersId[invitedId].call{value: refValue}(\"\") */\n      pop\n      dup1\n      swap5\n      pop\n      pop\n        /* \"Contract.sol\":15105:15112  success */\n      dup4\n        /* \"Contract.sol\":15101:15190  if (success) emit ReferalPaymentEvent(levels[gameId].gameId, userId, invitedId, refValue) */\n      iszero\n      tag_195\n      jumpi\n        /* \"Contract.sol\":15119:15190  ReferalPaymentEvent(levels[gameId].gameId, userId, invitedId, refValue) */\n      0xafe90bc52fc3dd02b2550b825fc68e93b4bfbcb8165bbacda6cd14b2bad5bc02\n        /* \"Contract.sol\":15139:15145  levels */\n      0x02\n        /* \"Contract.sol\":15139:15153  levels[gameId] */\n      0x00\n        /* \"Contract.sol\":15146:15152  gameId */\n      dup12\n        /* \"Contract.sol\":15139:15153  levels[gameId] */\n      0xff\n      and\n      0xff\n      and\n      dup2\n      mstore\n      0x20\n      add\n      swap1\n      dup2\n      mstore\n      0x20\n      add\n      0x00\n      keccak256\n        /* \"Contract.sol\":15139:15160  levels[gameId].gameId */\n      0x00\n      add\n      0x00\n      swap1\n      sload\n      swap1\n      0x0100\n      exp\n      swap1\n      div\n      0xff\n      and\n        /* \"Contract.sol\":15162:15168  userId */\n      dup5\n        /* \"Contract.sol\":15170:15179  invitedId */\n      dup5\n        /* \"Contract.sol\":15181:15189  refValue */\n      dup5\n        /* \"Contract.sol\":15119:15190  ReferalPaymentEvent(levels[gameId].gameId, userId, invitedId, refValue) */\n      mload(0x40)\n      tag_196\n      swap5\n      swap4\n      swap3\n      swap2\n      swap1\n      tag_197\n      jump\t// in\n    tag_196:\n      mload(0x40)\n      dup1\n      swap2\n      sub\n      swap1\n      log1\n        /* \"Contract.sol\":15101:15190  if (success) emit ReferalPaymentEvent(levels[gameId].gameId, userId, invitedId, refValue) */\n    tag_195:\n        /* \"Contract.sol\":15276:15279  100 */\n      0x64\n        /* \"Contract.sol\":7426:7427  6 */\n      0x06\n        /* \"Contract.sol\":15226:15232  levels */\n      0x02\n        /* \"Contract.sol\":15226:15240  levels[gameId] */\n      0x00\n        /* \"Contract.sol\":15233:15239  gameId */\n      dup13\n        /* \"Contract.sol\":15226:15240  levels[gameId] */\n      0xff\n      and\n      0xff\n      and\n      dup2\n      mstore\n      0x20\n      add\n      swap1\n      dup2\n      mstore\n      0x20\n      add\n      0x00\n      keccak256\n        /* \"Contract.sol\":15226:15252  levels[gameId].amountToPay */\n      0x01\n      add\n      sload\n        /* \"Contract.sol\":15226:15273  levels[gameId].amountToPay * secondLevelReferal */\n      tag_198\n      swap2\n      swap1\n      tag_188\n      jump\t// in\n    tag_198:\n        /* \"Contract.sol\":15226:15279  levels[gameId].amountToPay * secondLevelReferal / 100 */\n      tag_199\n      swap2\n      swap1\n      tag_190\n      jump\t// in\n    tag_199:\n        /* \"Contract.sol\":15215:15279  refValue = levels[gameId].amountToPay * secondLevelReferal / 100 */\n      swap1\n      pop\n        /* \"Contract.sol\":15340:15355  registeredUsers */\n      0x05\n        /* \"Contract.sol\":15340:15375  registeredUsers[usersId[invitedId]] */\n      0x00\n        /* \"Contract.sol\":15356:15363  usersId */\n      0x03\n        /* \"Contract.sol\":15356:15374  usersId[invitedId] */\n      0x00\n        /* \"Contract.sol\":15364:15373  invitedId */\n      dup6\n        /* \"Contract.sol\":15356:15374  usersId[invitedId] */\n      dup2\n      mstore\n      0x20\n      add\n      swap1\n      dup2\n      mstore\n      0x20\n      add\n      0x00\n      keccak256\n      0x00\n      swap1\n      sload\n      swap1\n      0x0100\n      exp\n      swap1\n      div\n      0xffffffffffffffffffffffffffffffffffffffff\n      and\n        /* \"Contract.sol\":15340:15375  registeredUsers[usersId[invitedId]] */\n      0xffffffffffffffffffffffffffffffffffffffff\n      and\n      0xffffffffffffffffffffffffffffffffffffffff\n      and\n      dup2\n      mstore\n      0x20\n      add\n      swap1\n      dup2\n      mstore\n      0x20\n      add\n      0x00\n      keccak256\n        /* \"Contract.sol\":15340:15387  registeredUsers[usersId[invitedId]].userAddress */\n      0x01\n      add\n      0x00\n      swap1\n      sload\n      swap1\n      0x0100\n      exp\n      swap1\n      div\n      0xffffffffffffffffffffffffffffffffffffffff\n      and\n        /* \"Contract.sol\":15340:15392  registeredUsers[usersId[invitedId]].userAddress.call */\n      0xffffffffffffffffffffffffffffffffffffffff\n      and\n        /* \"Contract.sol\":15400:15408  refValue */\n      dup2\n        /* \"Contract.sol\":15340:15413  registeredUsers[usersId[invitedId]].userAddress.call{value: refValue}(\"\") */\n      mload(0x40)\n      tag_200\n      swap1\n      tag_178\n      jump\t// in\n    tag_200:\n      0x00\n      mload(0x40)\n      dup1\n      dup4\n      sub\n      dup2\n      dup6\n      dup8\n      gas\n      call\n      swap3\n      pop\n      pop\n      pop\n      returndatasize\n      dup1\n      0x00\n      dup2\n      eq\n      tag_203\n      jumpi\n      mload(0x40)\n      swap2\n      pop\n      and(add(returndatasize, 0x3f), not(0x1f))\n      dup3\n      add\n      0x40\n      mstore\n      returndatasize\n      dup3\n      mstore\n      returndatasize\n      0x00\n      0x20\n      dup5\n      add\n      returndatacopy\n      jump(tag_202)\n    tag_203:\n      0x60\n      swap2\n      pop\n    tag_202:\n      pop\n        /* \"Contract.sol\":15326:15413  (success, ) = registeredUsers[usersId[invitedId]].userAddress.call{value: refValue}(\"\") */\n      pop\n      dup1\n      swap5\n      pop\n      pop\n        /* \"Contract.sol\":15468:15475  success */\n      dup4\n        /* \"Contract.sol\":15464:15589  if (success) emit ReferalPaymentEvent(levels[gameId].gameId, invitedId, registeredUsers[usersId[invitedId]].userId, refValue) */\n      iszero\n      tag_204\n      jumpi\n        /* \"Contract.sol\":15482:15589  ReferalPaymentEvent(levels[gameId].gameId, invitedId, registeredUsers[usersId[invitedId]].userId, refValue) */\n      0xafe90bc52fc3dd02b2550b825fc68e93b4bfbcb8165bbacda6cd14b2bad5bc02\n        /* \"Contract.sol\":15502:15508  levels */\n      0x02\n        /* \"Contract.sol\":15502:15516  levels[gameId] */\n      0x00\n        /* \"Contract.sol\":15509:15515  gameId */\n      dup12\n        /* \"Contract.sol\":15502:15516  levels[gameId] */\n      0xff\n      and\n      0xff\n      and\n      dup2\n      mstore\n      0x20\n      add\n      swap1\n      dup2\n      mstore\n      0x20\n      add\n      0x00\n      keccak256\n        /* \"Contract.sol\":15502:15523  levels[gameId].gameId */\n      0x00\n      add\n      0x00\n      swap1\n      sload\n      swap1\n      0x0100\n      exp\n      swap1\n      div\n      0xff\n      and\n        /* \"Contract.sol\":15525:15534  invitedId */\n      dup4\n        /* \"Contract.sol\":15536:15551  registeredUsers */\n      0x05\n        /* \"Contract.sol\":15536:15571  registeredUsers[usersId[invitedId]] */\n      0x00\n        /* \"Contract.sol\":15552:15559  usersId */\n      0x03\n        /* \"Contract.sol\":15552:15570  usersId[invitedId] */\n      0x00\n        /* \"Contract.sol\":15560:15569  invitedId */\n      dup9\n        /* \"Contract.sol\":15552:15570  usersId[invitedId] */\n      dup2\n      mstore\n      0x20\n      add\n      swap1\n      dup2\n      mstore\n      0x20\n      add\n      0x00\n      keccak256\n      0x00\n      swap1\n      sload\n      swap1\n      0x0100\n      exp\n      swap1\n      div\n      0xffffffffffffffffffffffffffffffffffffffff\n      and\n        /* \"Contract.sol\":15536:15571  registeredUsers[usersId[invitedId]] */\n      0xffffffffffffffffffffffffffffffffffffffff\n      and\n      0xffffffffffffffffffffffffffffffffffffffff\n      and\n      dup2\n      mstore\n      0x20\n      add\n      swap1\n      dup2\n      mstore\n      0x20\n      add\n      0x00\n      keccak256\n        /* \"Contract.sol\":15536:15578  registeredUsers[usersId[invitedId]].userId */\n      0x00\n      add\n      sload\n        /* \"Contract.sol\":15580:15588  refValue */\n      dup5\n        /* \"Contract.sol\":15482:15589  ReferalPaymentEvent(levels[gameId].gameId, invitedId, registeredUsers[usersId[invitedId]].userId, refValue) */\n      mload(0x40)\n      tag_205\n      swap5\n      swap4\n      swap3\n      swap2\n      swap1\n      tag_197\n      jump\t// in\n    tag_205:\n      mload(0x40)\n      dup1\n      swap2\n      sub\n      swap1\n      log1\n        /* \"Contract.sol\":15464:15589  if (success) emit ReferalPaymentEvent(levels[gameId].gameId, invitedId, registeredUsers[usersId[invitedId]].userId, refValue) */\n    tag_204:\n        /* \"Contract.sol\":15674:15677  100 */\n      0x64\n        /* \"Contract.sol\":7501:7502  4 */\n      0x04\n        /* \"Contract.sol\":15625:15631  levels */\n      0x02\n        /* \"Contract.sol\":15625:15639  levels[gameId] */\n      0x00\n        /* \"Contract.sol\":15632:15638  gameId */\n      dup13\n        /* \"Contract.sol\":15625:15639  levels[gameId] */\n      0xff\n      and\n      0xff\n      and\n      dup2\n      mstore\n      0x20\n      add\n      swap1\n      dup2\n      mstore\n      0x20\n      add\n      0x00\n      keccak256\n        /* \"Contract.sol\":15625:15651  levels[gameId].amountToPay */\n      0x01\n      add\n      sload\n        /* \"Contract.sol\":15625:15671  levels[gameId].amountToPay * thirdLevelReferal */\n      tag_206\n      swap2\n      swap1\n      tag_188\n      jump\t// in\n    tag_206:\n        /* \"Contract.sol\":15625:15677  levels[gameId].amountToPay * thirdLevelReferal / 100 */\n      tag_207\n      swap2\n      swap1\n      tag_190\n      jump\t// in\n    tag_207:\n        /* \"Contract.sol\":15614:15677  refValue = levels[gameId].amountToPay * thirdLevelReferal / 100 */\n      swap1\n      pop\n        /* \"Contract.sol\":15737:15752  registeredUsers */\n      0x05\n        /* \"Contract.sol\":15737:15805  registeredUsers[usersId[registeredUsers[usersId[invitedId]].userId]] */\n      0x00\n        /* \"Contract.sol\":15753:15760  usersId */\n      0x03\n        /* \"Contract.sol\":15753:15804  usersId[registeredUsers[usersId[invitedId]].userId] */\n      0x00\n        /* \"Contract.sol\":15761:15776  registeredUsers */\n      0x05\n        /* \"Contract.sol\":15761:15796  registeredUsers[usersId[invitedId]] */\n      0x00\n        /* \"Contract.sol\":15777:15784  usersId */\n      0x03\n        /* \"Contract.sol\":15777:15795  usersId[invitedId] */\n      0x00\n        /* \"Contract.sol\":15785:15794  invitedId */\n      dup10\n        /* \"Contract.sol\":15777:15795  usersId[invitedId] */\n      dup2\n      mstore\n      0x20\n      add\n      swap1\n      dup2\n      mstore\n      0x20\n      add\n      0x00\n      keccak256\n      0x00\n      swap1\n      sload\n      swap1\n      0x0100\n      exp\n      swap1\n      div\n      0xffffffffffffffffffffffffffffffffffffffff\n      and\n        /* \"Contract.sol\":15761:15796  registeredUsers[usersId[invitedId]] */\n      0xffffffffffffffffffffffffffffffffffffffff\n      and\n      0xffffffffffffffffffffffffffffffffffffffff\n      and\n      dup2\n      mstore\n      0x20\n      add\n      swap1\n      dup2\n      mstore\n      0x20\n      add\n      0x00\n      keccak256\n        /* \"Contract.sol\":15761:15803  registeredUsers[usersId[invitedId]].userId */\n      0x00\n      add\n      sload\n        /* \"Contract.sol\":15753:15804  usersId[registeredUsers[usersId[invitedId]].userId] */\n      dup2\n      mstore\n      0x20\n      add\n      swap1\n      dup2\n      mstore\n      0x20\n      add\n      0x00\n      keccak256\n      0x00\n      swap1\n      sload\n      swap1\n      0x0100\n      exp\n      swap1\n      div\n      0xffffffffffffffffffffffffffffffffffffffff\n      and\n        /* \"Contract.sol\":15737:15805  registeredUsers[usersId[registeredUsers[usersId[invitedId]].userId]] */\n      0xffffffffffffffffffffffffffffffffffffffff\n      and\n      0xffffffffffffffffffffffffffffffffffffffff\n      and\n      dup2\n      mstore\n      0x20\n      add\n      swap1\n      dup2\n      mstore\n      0x20\n      add\n      0x00\n      keccak256\n        /* \"Contract.sol\":15737:15817  registeredUsers[usersId[registeredUsers[usersId[invitedId]].userId]].userAddress */\n      0x01\n      add\n      0x00\n      swap1\n      sload\n      swap1\n      0x0100\n      exp\n      swap1\n      div\n      0xffffffffffffffffffffffffffffffffffffffff\n      and\n        /* \"Contract.sol\":15737:15822  registeredUsers[usersId[registeredUsers[usersId[invitedId]].userId]].userAddress.call */\n      0xffffffffffffffffffffffffffffffffffffffff\n      and\n        /* \"Contract.sol\":15830:15838  refValue */\n      dup2\n        /* \"Contract.sol\":15737:15843  registeredUsers[usersId[registeredUsers[usersId[invitedId]].userId]].userAddress.call{value: refValue}(\"\") */\n      mload(0x40)\n      tag_208\n      swap1\n      tag_178\n      jump\t// in\n    tag_208:\n      0x00\n      mload(0x40)\n      dup1\n      dup4\n      sub\n      dup2\n      dup6\n      dup8\n      gas\n      call\n      swap3\n      pop\n      pop\n      pop\n      returndatasize\n      dup1\n      0x00\n      dup2\n      eq\n      tag_211\n      jumpi\n      mload(0x40)\n      swap2\n      pop\n      and(add(returndatasize, 0x3f), not(0x1f))\n      dup3\n      add\n      0x40\n      mstore\n      returndatasize\n      dup3\n      mstore\n      returndatasize\n      0x00\n      0x20\n      dup5\n      add\n      returndatacopy\n      jump(tag_210)\n    tag_211:\n      0x60\n      swap2\n      pop\n    tag_210:\n      pop\n        /* \"Contract.sol\":15723:15843  (success, ) = registeredUsers[usersId[registeredUsers[usersId[invitedId]].userId]].userAddress.call{value: refValue}(\"\") */\n      pop\n      dup1\n      swap5\n      pop\n      pop\n        /* \"Contract.sol\":15872:15879  success */\n      dup4\n        /* \"Contract.sol\":15868:16059  if (success) emit ReferalPaymentEvent(levels[gameId].gameId, registeredUsers[usersId[invitedId]].userId, registeredUsers[usersId[registeredUsers[usersId[invitedId]].userId]].userId, refValue) */\n      iszero\n      tag_212\n      jumpi\n        /* \"Contract.sol\":15886:16059  ReferalPaymentEvent(levels[gameId].gameId, registeredUsers[usersId[invitedId]].userId, registeredUsers[usersId[registeredUsers[usersId[invitedId]].userId]].userId, refValue) */\n      0xafe90bc52fc3dd02b2550b825fc68e93b4bfbcb8165bbacda6cd14b2bad5bc02\n        /* \"Contract.sol\":15906:15912  levels */\n      0x02\n        /* \"Contract.sol\":15906:15920  levels[gameId] */\n      0x00\n        /* \"Contract.sol\":15913:15919  gameId */\n      dup12\n        /* \"Contract.sol\":15906:15920  levels[gameId] */\n      0xff\n      and\n      0xff\n      and\n      dup2\n      mstore\n      0x20\n      add\n      swap1\n      dup2\n      mstore\n      0x20\n      add\n      0x00\n      keccak256\n        /* \"Contract.sol\":15906:15927  levels[gameId].gameId */\n      0x00\n      add\n      0x00\n      swap1\n      sload\n      swap1\n      0x0100\n      exp\n      swap1\n      div\n      0xff\n      and\n        /* \"Contract.sol\":15929:15944  registeredUsers */\n      0x05\n        /* \"Contract.sol\":15929:15964  registeredUsers[usersId[invitedId]] */\n      0x00\n        /* \"Contract.sol\":15945:15952  usersId */\n      0x03\n        /* \"Contract.sol\":15945:15963  usersId[invitedId] */\n      0x00\n        /* \"Contract.sol\":15953:15962  invitedId */\n      dup8\n        /* \"Contract.sol\":15945:15963  usersId[invitedId] */\n      dup2\n      mstore\n      0x20\n      add\n      swap1\n      dup2\n      mstore\n      0x20\n      add\n      0x00\n      keccak256\n      0x00\n      swap1\n      sload\n      swap1\n      0x0100\n      exp\n      swap1\n      div\n      0xffffffffffffffffffffffffffffffffffffffff\n      and\n        /* \"Contract.sol\":15929:15964  registeredUsers[usersId[invitedId]] */\n      0xffffffffffffffffffffffffffffffffffffffff\n      and\n      0xffffffffffffffffffffffffffffffffffffffff\n      and\n      dup2\n      mstore\n      0x20\n      add\n      swap1\n      dup2\n      mstore\n      0x20\n      add\n      0x00\n      keccak256\n        /* \"Contract.sol\":15929:15971  registeredUsers[usersId[invitedId]].userId */\n      0x00\n      add\n      sload\n        /* \"Contract.sol\":15973:15988  registeredUsers */\n      0x05\n        /* \"Contract.sol\":15973:16041  registeredUsers[usersId[registeredUsers[usersId[invitedId]].userId]] */\n      0x00\n        /* \"Contract.sol\":15989:15996  usersId */\n      0x03\n        /* \"Contract.sol\":15989:16040  usersId[registeredUsers[usersId[invitedId]].userId] */\n      0x00\n        /* \"Contract.sol\":15997:16012  registeredUsers */\n      0x05\n        /* \"Contract.sol\":15997:16032  registeredUsers[usersId[invitedId]] */\n      0x00\n        /* \"Contract.sol\":16013:16020  usersId */\n      0x03\n        /* \"Contract.sol\":16013:16031  usersId[invitedId] */\n      0x00\n        /* \"Contract.sol\":16021:16030  invitedId */\n      dup13\n        /* \"Contract.sol\":16013:16031  usersId[invitedId] */\n      dup2\n      mstore\n      0x20\n      add\n      swap1\n      dup2\n      mstore\n      0x20\n      add\n      0x00\n      keccak256\n      0x00\n      swap1\n      sload\n      swap1\n      0x0100\n      exp\n      swap1\n      div\n      0xffffffffffffffffffffffffffffffffffffffff\n      and\n        /* \"Contract.sol\":15997:16032  registeredUsers[usersId[invitedId]] */\n      0xffffffffffffffffffffffffffffffffffffffff\n      and\n      0xffffffffffffffffffffffffffffffffffffffff\n      and\n      dup2\n      mstore\n      0x20\n      add\n      swap1\n      dup2\n      mstore\n      0x20\n      add\n      0x00\n      keccak256\n        /* \"Contract.sol\":15997:16039  registeredUsers[usersId[invitedId]].userId */\n      0x00\n      add\n      sload\n        /* \"Contract.sol\":15989:16040  usersId[registeredUsers[usersId[invitedId]].userId] */\n      dup2\n      mstore\n      0x20\n      add\n      swap1\n      dup2\n      mstore\n      0x20\n      add\n      0x00\n      keccak256\n      0x00\n      swap1\n      sload\n      swap1\n      0x0100\n      exp\n      swap1\n      div\n      0xffffffffffffffffffffffffffffffffffffffff\n      and\n        /* \"Contract.sol\":15973:16041  registeredUsers[usersId[registeredUsers[usersId[invitedId]].userId]] */\n      0xffffffffffffffffffffffffffffffffffffffff\n      and\n      0xffffffffffffffffffffffffffffffffffffffff\n      and\n      dup2\n      mstore\n      0x20\n      add\n      swap1\n      dup2\n      mstore\n      0x20\n      add\n      0x00\n      keccak256\n        /* \"Contract.sol\":15973:16048  registeredUsers[usersId[registeredUsers[usersId[invitedId]].userId]].userId */\n      0x00\n      add\n      sload\n        /* \"Contract.sol\":16050:16058  refValue */\n      dup5\n        /* \"Contract.sol\":15886:16059  ReferalPaymentEvent(levels[gameId].gameId, registeredUsers[usersId[invitedId]].userId, registeredUsers[usersId[registeredUsers[usersId[invitedId]].userId]].userId, refValue) */\n      mload(0x40)\n      tag_213\n      swap5\n      swap4\n      swap3\n      swap2\n      swap1\n      tag_197\n      jump\t// in\n    tag_213:\n      mload(0x40)\n      dup1\n      swap2\n      sub\n      swap1\n      log1\n        /* \"Contract.sol\":15868:16059  if (success) emit ReferalPaymentEvent(levels[gameId].gameId, registeredUsers[usersId[invitedId]].userId, registeredUsers[usersId[registeredUsers[usersId[invitedId]].userId]].userId, refValue) */\n    tag_212:\n        /* \"Contract.sol\":16259:16262  100 */\n      0x64\n        /* \"Contract.sol\":7570:7571  6 */\n      0x06\n        /* \"Contract.sol\":16215:16221  levels */\n      0x02\n        /* \"Contract.sol\":16215:16229  levels[gameId] */\n      0x00\n        /* \"Contract.sol\":16222:16228  gameId */\n      dup13\n        /* \"Contract.sol\":16215:16229  levels[gameId] */\n      0xff\n      and\n      0xff\n      and\n      dup2\n      mstore\n      0x20\n      add\n      swap1\n      dup2\n      mstore\n      0x20\n      add\n      0x00\n      keccak256\n        /* \"Contract.sol\":16215:16241  levels[gameId].amountToPay */\n      0x01\n      add\n      sload\n        /* \"Contract.sol\":16215:16256  levels[gameId].amountToPay * ownerReferal */\n      tag_214\n      swap2\n      swap1\n      tag_188\n      jump\t// in\n    tag_214:\n        /* \"Contract.sol\":16215:16262  levels[gameId].amountToPay * ownerReferal / 100 */\n      tag_215\n      swap2\n      swap1\n      tag_190\n      jump\t// in\n    tag_215:\n        /* \"Contract.sol\":16204:16262  refValue = levels[gameId].amountToPay * ownerReferal / 100 */\n      swap1\n      pop\n        /* \"Contract.sol\":16316:16331  registeredUsers */\n      0x05\n        /* \"Contract.sol\":16316:16346  registeredUsers[contractOwner] */\n      0x00\n        /* \"Contract.sol\":16332:16345  contractOwner */\n      0x01\n      dup1\n      sload\n      swap1\n      0x0100\n      exp\n      swap1\n      div\n      0xffffffffffffffffffffffffffffffffffffffff\n      and\n        /* \"Contract.sol\":16316:16346  registeredUsers[contractOwner] */\n      0xffffffffffffffffffffffffffffffffffffffff\n      and\n      0xffffffffffffffffffffffffffffffffffffffff\n      and\n      dup2\n      mstore\n      0x20\n      add\n      swap1\n      dup2\n      mstore\n      0x20\n      add\n      0x00\n      keccak256\n        /* \"Contract.sol\":16316:16358  registeredUsers[contractOwner].userAddress */\n      0x01\n      add\n      0x00\n      swap1\n      sload\n      swap1\n      0x0100\n      exp\n      swap1\n      div\n      0xffffffffffffffffffffffffffffffffffffffff\n      and\n        /* \"Contract.sol\":16316:16363  registeredUsers[contractOwner].userAddress.call */\n      0xffffffffffffffffffffffffffffffffffffffff\n      and\n        /* \"Contract.sol\":16371:16379  refValue */\n      dup2\n        /* \"Contract.sol\":16316:16384  registeredUsers[contractOwner].userAddress.call{value: refValue}(\"\") */\n      mload(0x40)\n      tag_216\n      swap1\n      tag_178\n      jump\t// in\n    tag_216:\n      0x00\n      mload(0x40)\n      dup1\n      dup4\n      sub\n      dup2\n      dup6\n      dup8\n      gas\n      call\n      swap3\n      pop\n      pop\n      pop\n      returndatasize\n      dup1\n      0x00\n      dup2\n      eq\n      tag_219\n      jumpi\n      mload(0x40)\n      swap2\n      pop\n      and(add(returndatasize, 0x3f), not(0x1f))\n      dup3\n      add\n      0x40\n      mstore\n      returndatasize\n      dup3\n      mstore\n      returndatasize\n      0x00\n      0x20\n      dup5\n      add\n      returndatacopy\n      jump(tag_218)\n    tag_219:\n      0x60\n      swap2\n      pop\n    tag_218:\n      pop\n        /* \"Contract.sol\":16302:16384  (success, ) = registeredUsers[contractOwner].userAddress.call{value: refValue}(\"\") */\n      pop\n      dup1\n      swap5\n      pop\n      pop\n        /* \"Contract.sol\":16413:16420  success */\n      dup4\n        /* \"Contract.sol\":16409:16526  if (success) emit ReferalPaymentEvent(levels[gameId].gameId, userId, registeredUsers[contractOwner].userId, refValue) */\n      iszero\n      tag_220\n      jumpi\n        /* \"Contract.sol\":16427:16526  ReferalPaymentEvent(levels[gameId].gameId, userId, registeredUsers[contractOwner].userId, refValue) */\n      0xafe90bc52fc3dd02b2550b825fc68e93b4bfbcb8165bbacda6cd14b2bad5bc02\n        /* \"Contract.sol\":16447:16453  levels */\n      0x02\n        /* \"Contract.sol\":16447:16461  levels[gameId] */\n      0x00\n        /* \"Contract.sol\":16454:16460  gameId */\n      dup12\n        /* \"Contract.sol\":16447:16461  levels[gameId] */\n      0xff\n      and\n      0xff\n      and\n      dup2\n      mstore\n      0x20\n      add\n      swap1\n      dup2\n      mstore\n      0x20\n      add\n      0x00\n      keccak256\n        /* \"Contract.sol\":16447:16468  levels[gameId].gameId */\n      0x00\n      add\n      0x00\n      swap1\n      sload\n      swap1\n      0x0100\n      exp\n      swap1\n      div\n      0xff\n      and\n        /* \"Contract.sol\":16470:16476  userId */\n      dup5\n        /* \"Contract.sol\":16478:16493  registeredUsers */\n      0x05\n        /* \"Contract.sol\":16478:16508  registeredUsers[contractOwner] */\n      0x00\n        /* \"Contract.sol\":16494:16507  contractOwner */\n      0x01\n      dup1\n      sload\n      swap1\n      0x0100\n      exp\n      swap1\n      div\n      0xffffffffffffffffffffffffffffffffffffffff\n      and\n        /* \"Contract.sol\":16478:16508  registeredUsers[contractOwner] */\n      0xffffffffffffffffffffffffffffffffffffffff\n      and\n      0xffffffffffffffffffffffffffffffffffffffff\n      and\n      dup2\n      mstore\n      0x20\n      add\n      swap1\n      dup2\n      mstore\n      0x20\n      add\n      0x00\n      keccak256\n        /* \"Contract.sol\":16478:16515  registeredUsers[contractOwner].userId */\n      0x00\n      add\n      sload\n        /* \"Contract.sol\":16517:16525  refValue */\n      dup5\n        /* \"Contract.sol\":16427:16526  ReferalPaymentEvent(levels[gameId].gameId, userId, registeredUsers[contractOwner].userId, refValue) */\n      mload(0x40)\n      tag_221\n      swap5\n      swap4\n      swap3\n      swap2\n      swap1\n      tag_197\n      jump\t// in\n    tag_221:\n      mload(0x40)\n      dup1\n      swap2\n      sub\n      swap1\n      log1\n        /* \"Contract.sol\":16409:16526  if (success) emit ReferalPaymentEvent(levels[gameId].gameId, userId, registeredUsers[contractOwner].userId, refValue) */\n    tag_220:\n        /* \"Contract.sol\":14142:16546  {\r... */\n      pop\n      pop\n      pop\n      pop\n        /* \"Contract.sol\":14054:16546  if (userPayments[selectedAddress][gameId] <= 1 || userGames[selectedAddress][gameId+1]) {\r... */\n    tag_173:\n        /* \"Contract.sol\":16576:16606  culcNextWinnerIndex(userIndex) */\n      tag_222\n        /* \"Contract.sol\":16596:16605  userIndex */\n      dup3\n        /* \"Contract.sol\":16576:16595  culcNextWinnerIndex */\n      tag_53\n        /* \"Contract.sol\":16576:16606  culcNextWinnerIndex(userIndex) */\n      jump\t// in\n    tag_222:\n        /* \"Contract.sol\":16564:16606  userIndex = culcNextWinnerIndex(userIndex) */\n      swap2\n      pop\n        /* \"Contract.sol\":13808:16622  {\r... */\n      pop\n        /* \"Contract.sol\":13785:16622  while (userIndex != 0) {\r... */\n      jump(tag_168)\n    tag_169:\n        /* \"Contract.sol\":13564:16633  {\r... */\n      pop\n        /* \"Contract.sol\":13529:16633  if (currentUserIndex[gameId] >= 3) {\r... */\n    tag_166:\n        /* \"Contract.sol\":12966:16640  function _joinToGame(uint8 gameId, address sender, uint256 value) internal {\r... */\n      pop\n      pop\n      pop\n      jump\t// out\n        /* \"Contract.sol\":4576:4674  function mod(uint256 a, uint256 b) internal pure returns (uint256) {\r... */\n    tag_146:\n        /* \"Contract.sol\":4634:4641  uint256 */\n      0x00\n        /* \"Contract.sol\":4665:4666  b */\n      dup2\n        /* \"Contract.sol\":4661:4662  a */\n      dup4\n        /* \"Contract.sol\":4661:4666  a % b */\n      tag_224\n      swap2\n      swap1\n      tag_225\n      jump\t// in\n    tag_224:\n        /* \"Contract.sol\":4654:4666  return a % b */\n      swap1\n      pop\n        /* \"Contract.sol\":4576:4674  function mod(uint256 a, uint256 b) internal pure returns (uint256) {\r... */\n      swap3\n      swap2\n      pop\n      pop\n      jump\t// out\n        /* \"Contract.sol\":4011:4109  function div(uint256 a, uint256 b) internal pure returns (uint256) {\r... */\n    tag_149:\n        /* \"Contract.sol\":4069:4076  uint256 */\n      0x00\n        /* \"Contract.sol\":4100:4101  b */\n      dup2\n        /* \"Contract.sol\":4096:4097  a */\n      dup4\n        /* \"Contract.sol\":4096:4101  a / b */\n      tag_227\n      swap2\n      swap1\n      tag_190\n      jump\t// in\n    tag_227:\n        /* \"Contract.sol\":4089:4101  return a / b */\n      swap1\n      pop\n        /* \"Contract.sol\":4011:4109  function div(uint256 a, uint256 b) internal pure returns (uint256) {\r... */\n      swap3\n      swap2\n      pop\n      pop\n      jump\t// out\n        /* \"Contract.sol\":3612:3710  function mul(uint256 a, uint256 b) internal pure returns (uint256) {\r... */\n    tag_176:\n        /* \"Contract.sol\":3670:3677  uint256 */\n      0x00\n        /* \"Contract.sol\":3701:3702  b */\n      dup2\n        /* \"Contract.sol\":3697:3698  a */\n      dup4\n        /* \"Contract.sol\":3697:3702  a * b */\n      tag_229\n      swap2\n      swap1\n      tag_188\n      jump\t// in\n    tag_229:\n        /* \"Contract.sol\":3690:3702  return a * b */\n      swap1\n      pop\n        /* \"Contract.sol\":3612:3710  function mul(uint256 a, uint256 b) internal pure returns (uint256) {\r... */\n      swap3\n      swap2\n      pop\n      pop\n      jump\t// out\n        /* \"#utility.yul\":7:146   */\n    tag_231:\n        /* \"#utility.yul\":53:58   */\n      0x00\n        /* \"#utility.yul\":91:97   */\n      dup2\n        /* \"#utility.yul\":78:98   */\n      calldataload\n        /* \"#utility.yul\":69:98   */\n      swap1\n      pop\n        /* \"#utility.yul\":107:140   */\n      tag_233\n        /* \"#utility.yul\":134:139   */\n      dup2\n        /* \"#utility.yul\":107:140   */\n      tag_234\n      jump\t// in\n    tag_233:\n        /* \"#utility.yul\":7:146   */\n      swap3\n      swap2\n      pop\n      pop\n      jump\t// out\n        /* \"#utility.yul\":152:291   */\n    tag_235:\n        /* \"#utility.yul\":198:203   */\n      0x00\n        /* \"#utility.yul\":236:242   */\n      dup2\n        /* \"#utility.yul\":223:243   */\n      calldataload\n        /* \"#utility.yul\":214:243   */\n      swap1\n      pop\n        /* \"#utility.yul\":252:285   */\n      tag_237\n        /* \"#utility.yul\":279:284   */\n      dup2\n        /* \"#utility.yul\":252:285   */\n      tag_238\n      jump\t// in\n    tag_237:\n        /* \"#utility.yul\":152:291   */\n      swap3\n      swap2\n      pop\n      pop\n      jump\t// out\n        /* \"#utility.yul\":297:432   */\n    tag_239:\n        /* \"#utility.yul\":341:346   */\n      0x00\n        /* \"#utility.yul\":379:385   */\n      dup2\n        /* \"#utility.yul\":366:386   */\n      calldataload\n        /* \"#utility.yul\":357:386   */\n      swap1\n      pop\n        /* \"#utility.yul\":395:426   */\n      tag_241\n        /* \"#utility.yul\":420:425   */\n      dup2\n        /* \"#utility.yul\":395:426   */\n      tag_242\n      jump\t// in\n    tag_241:\n        /* \"#utility.yul\":297:432   */\n      swap3\n      swap2\n      pop\n      pop\n      jump\t// out\n        /* \"#utility.yul\":438:767   */\n    tag_35:\n        /* \"#utility.yul\":497:503   */\n      0x00\n        /* \"#utility.yul\":546:548   */\n      0x20\n        /* \"#utility.yul\":534:543   */\n      dup3\n        /* \"#utility.yul\":525:532   */\n      dup5\n        /* \"#utility.yul\":521:544   */\n      sub\n        /* \"#utility.yul\":517:549   */\n      slt\n        /* \"#utility.yul\":514:633   */\n      iszero\n      tag_244\n      jumpi\n        /* \"#utility.yul\":552:631   */\n      tag_245\n      tag_246\n      jump\t// in\n    tag_245:\n        /* \"#utility.yul\":514:633   */\n    tag_244:\n        /* \"#utility.yul\":672:673   */\n      0x00\n        /* \"#utility.yul\":697:750   */\n      tag_247\n        /* \"#utility.yul\":742:749   */\n      dup5\n        /* \"#utility.yul\":733:739   */\n      dup3\n        /* \"#utility.yul\":722:731   */\n      dup6\n        /* \"#utility.yul\":718:740   */\n      add\n        /* \"#utility.yul\":697:750   */\n      tag_231\n      jump\t// in\n    tag_247:\n        /* \"#utility.yul\":687:750   */\n      swap2\n      pop\n        /* \"#utility.yul\":643:760   */\n      pop\n        /* \"#utility.yul\":438:767   */\n      swap3\n      swap2\n      pop\n      pop\n      jump\t// out\n        /* \"#utility.yul\":773:1243   */\n    tag_42:\n        /* \"#utility.yul\":839:845   */\n      0x00\n        /* \"#utility.yul\":847:853   */\n      dup1\n        /* \"#utility.yul\":896:898   */\n      0x40\n        /* \"#utility.yul\":884:893   */\n      dup4\n        /* \"#utility.yul\":875:882   */\n      dup6\n        /* \"#utility.yul\":871:894   */\n      sub\n        /* \"#utility.yul\":867:899   */\n      slt\n        /* \"#utility.yul\":864:983   */\n      iszero\n      tag_249\n      jumpi\n        /* \"#utility.yul\":902:981   */\n      tag_250\n      tag_246\n      jump\t// in\n    tag_250:\n        /* \"#utility.yul\":864:983   */\n    tag_249:\n        /* \"#utility.yul\":1022:1023   */\n      0x00\n        /* \"#utility.yul\":1047:1100   */\n      tag_251\n        /* \"#utility.yul\":1092:1099   */\n      dup6\n        /* \"#utility.yul\":1083:1089   */\n      dup3\n        /* \"#utility.yul\":1072:1081   */\n      dup7\n        /* \"#utility.yul\":1068:1090   */\n      add\n        /* \"#utility.yul\":1047:1100   */\n      tag_231\n      jump\t// in\n    tag_251:\n        /* \"#utility.yul\":1037:1100   */\n      swap3\n      pop\n        /* \"#utility.yul\":993:1110   */\n      pop\n        /* \"#utility.yul\":1149:1151   */\n      0x20\n        /* \"#utility.yul\":1175:1226   */\n      tag_252\n        /* \"#utility.yul\":1218:1225   */\n      dup6\n        /* \"#utility.yul\":1209:1215   */\n      dup3\n        /* \"#utility.yul\":1198:1207   */\n      dup7\n        /* \"#utility.yul\":1194:1216   */\n      add\n        /* \"#utility.yul\":1175:1226   */\n      tag_239\n      jump\t// in\n    tag_252:\n        /* \"#utility.yul\":1165:1226   */\n      swap2\n      pop\n        /* \"#utility.yul\":1120:1236   */\n      pop\n        /* \"#utility.yul\":773:1243   */\n      swap3\n      pop\n      swap3\n      swap1\n      pop\n      jump\t// out\n        /* \"#utility.yul\":1249:1578   */\n    tag_30:\n        /* \"#utility.yul\":1308:1314   */\n      0x00\n        /* \"#utility.yul\":1357:1359   */\n      0x20\n        /* \"#utility.yul\":1345:1354   */\n      dup3\n        /* \"#utility.yul\":1336:1343   */\n      dup5\n        /* \"#utility.yul\":1332:1355   */\n      sub\n        /* \"#utility.yul\":1328:1360   */\n      slt\n        /* \"#utility.yul\":1325:1444   */\n      iszero\n      tag_254\n      jumpi\n        /* \"#utility.yul\":1363:1442   */\n      tag_255\n      tag_246\n      jump\t// in\n    tag_255:\n        /* \"#utility.yul\":1325:1444   */\n    tag_254:\n        /* \"#utility.yul\":1483:1484   */\n      0x00\n        /* \"#utility.yul\":1508:1561   */\n      tag_256\n        /* \"#utility.yul\":1553:1560   */\n      dup5\n        /* \"#utility.yul\":1544:1550   */\n      dup3\n        /* \"#utility.yul\":1533:1542   */\n      dup6\n        /* \"#utility.yul\":1529:1551   */\n      add\n        /* \"#utility.yul\":1508:1561   */\n      tag_235\n      jump\t// in\n    tag_256:\n        /* \"#utility.yul\":1498:1561   */\n      swap2\n      pop\n        /* \"#utility.yul\":1454:1571   */\n      pop\n        /* \"#utility.yul\":1249:1578   */\n      swap3\n      swap2\n      pop\n      pop\n      jump\t// out\n        /* \"#utility.yul\":1584:1909   */\n    tag_48:\n        /* \"#utility.yul\":1641:1647   */\n      0x00\n        /* \"#utility.yul\":1690:1692   */\n      0x20\n        /* \"#utility.yul\":1678:1687   */\n      dup3\n        /* \"#utility.yul\":1669:1676   */\n      dup5\n        /* \"#utility.yul\":1665:1688   */\n      sub\n        /* \"#utility.yul\":1661:1693   */\n      slt\n        /* \"#utility.yul\":1658:1777   */\n      iszero\n      tag_258\n      jumpi\n        /* \"#utility.yul\":1696:1775   */\n      tag_259\n      tag_246\n      jump\t// in\n    tag_259:\n        /* \"#utility.yul\":1658:1777   */\n    tag_258:\n        /* \"#utility.yul\":1816:1817   */\n      0x00\n        /* \"#utility.yul\":1841:1892   */\n      tag_260\n        /* \"#utility.yul\":1884:1891   */\n      dup5\n        /* \"#utility.yul\":1875:1881   */\n      dup3\n        /* \"#utility.yul\":1864:1873   */\n      dup6\n        /* \"#utility.yul\":1860:1882   */\n      add\n        /* \"#utility.yul\":1841:1892   */\n      tag_239\n      jump\t// in\n    tag_260:\n        /* \"#utility.yul\":1831:1892   */\n      swap2\n      pop\n        /* \"#utility.yul\":1787:1902   */\n      pop\n        /* \"#utility.yul\":1584:1909   */\n      swap3\n      swap2\n      pop\n      pop\n      jump\t// out\n        /* \"#utility.yul\":1915:2385   */\n    tag_68:\n        /* \"#utility.yul\":1981:1987   */\n      0x00\n        /* \"#utility.yul\":1989:1995   */\n      dup1\n        /* \"#utility.yul\":2038:2040   */\n      0x40\n        /* \"#utility.yul\":2026:2035   */\n      dup4\n        /* \"#utility.yul\":2017:2024   */\n      dup6\n        /* \"#utility.yul\":2013:2036   */\n      sub\n        /* \"#utility.yul\":2009:2041   */\n      slt\n        /* \"#utility.yul\":2006:2125   */\n      iszero\n      tag_262\n      jumpi\n        /* \"#utility.yul\":2044:2123   */\n      tag_263\n      tag_246\n      jump\t// in\n    tag_263:\n        /* \"#utility.yul\":2006:2125   */\n    tag_262:\n        /* \"#utility.yul\":2164:2165   */\n      0x00\n        /* \"#utility.yul\":2189:2240   */\n      tag_264\n        /* \"#utility.yul\":2232:2239   */\n      dup6\n        /* \"#utility.yul\":2223:2229   */\n      dup3\n        /* \"#utility.yul\":2212:2221   */\n      dup7\n        /* \"#utility.yul\":2208:2230   */\n      add\n        /* \"#utility.yul\":2189:2240   */\n      tag_239\n      jump\t// in\n    tag_264:\n        /* \"#utility.yul\":2179:2240   */\n      swap3\n      pop\n        /* \"#utility.yul\":2135:2250   */\n      pop\n        /* \"#utility.yul\":2289:2291   */\n      0x20\n        /* \"#utility.yul\":2315:2368   */\n      tag_265\n        /* \"#utility.yul\":2360:2367   */\n      dup6\n        /* \"#utility.yul\":2351:2357   */\n      dup3\n        /* \"#utility.yul\":2340:2349   */\n      dup7\n        /* \"#utility.yul\":2336:2358   */\n      add\n        /* \"#utility.yul\":2315:2368   */\n      tag_235\n      jump\t// in\n    tag_265:\n        /* \"#utility.yul\":2305:2368   */\n      swap2\n      pop\n        /* \"#utility.yul\":2260:2378   */\n      pop\n        /* \"#utility.yul\":1915:2385   */\n      swap3\n      pop\n      swap3\n      swap1\n      pop\n      jump\t// out\n        /* \"#utility.yul\":2391:2533   */\n    tag_266:\n        /* \"#utility.yul\":2494:2526   */\n      tag_268\n        /* \"#utility.yul\":2520:2525   */\n      dup2\n        /* \"#utility.yul\":2494:2526   */\n      tag_269\n      jump\t// in\n    tag_268:\n        /* \"#utility.yul\":2489:2492   */\n      dup3\n        /* \"#utility.yul\":2482:2527   */\n      mstore\n        /* \"#utility.yul\":2391:2533   */\n      pop\n      pop\n      jump\t// out\n        /* \"#utility.yul\":2539:2657   */\n    tag_270:\n        /* \"#utility.yul\":2626:2650   */\n      tag_272\n        /* \"#utility.yul\":2644:2649   */\n      dup2\n        /* \"#utility.yul\":2626:2650   */\n      tag_273\n      jump\t// in\n    tag_272:\n        /* \"#utility.yul\":2621:2624   */\n      dup3\n        /* \"#utility.yul\":2614:2651   */\n      mstore\n        /* \"#utility.yul\":2539:2657   */\n      pop\n      pop\n      jump\t// out\n        /* \"#utility.yul\":2663:2772   */\n    tag_274:\n        /* \"#utility.yul\":2744:2765   */\n      tag_276\n        /* \"#utility.yul\":2759:2764   */\n      dup2\n        /* \"#utility.yul\":2744:2765   */\n      tag_277\n      jump\t// in\n    tag_276:\n        /* \"#utility.yul\":2739:2742   */\n      dup3\n        /* \"#utility.yul\":2732:2766   */\n      mstore\n        /* \"#utility.yul\":2663:2772   */\n      pop\n      pop\n      jump\t// out\n        /* \"#utility.yul\":2778:3144   */\n    tag_278:\n        /* \"#utility.yul\":2920:2923   */\n      0x00\n        /* \"#utility.yul\":2941:3008   */\n      tag_280\n        /* \"#utility.yul\":3005:3007   */\n      0x0e\n        /* \"#utility.yul\":3000:3003   */\n      dup4\n        /* \"#utility.yul\":2941:3008   */\n      tag_281\n      jump\t// in\n    tag_280:\n        /* \"#utility.yul\":2934:3008   */\n      swap2\n      pop\n        /* \"#utility.yul\":3017:3110   */\n      tag_282\n        /* \"#utility.yul\":3106:3109   */\n      dup3\n        /* \"#utility.yul\":3017:3110   */\n      tag_283\n      jump\t// in\n    tag_282:\n        /* \"#utility.yul\":3135:3137   */\n      0x20\n        /* \"#utility.yul\":3130:3133   */\n      dup3\n        /* \"#utility.yul\":3126:3138   */\n      add\n        /* \"#utility.yul\":3119:3138   */\n      swap1\n      pop\n        /* \"#utility.yul\":2778:3144   */\n      swap2\n      swap1\n      pop\n      jump\t// out\n        /* \"#utility.yul\":3150:3516   */\n    tag_284:\n        /* \"#utility.yul\":3292:3295   */\n      0x00\n        /* \"#utility.yul\":3313:3380   */\n      tag_286\n        /* \"#utility.yul\":3377:3379   */\n      0x1a\n        /* \"#utility.yul\":3372:3375   */\n      dup4\n        /* \"#utility.yul\":3313:3380   */\n      tag_281\n      jump\t// in\n    tag_286:\n        /* \"#utility.yul\":3306:3380   */\n      swap2\n      pop\n        /* \"#utility.yul\":3389:3482   */\n      tag_287\n        /* \"#utility.yul\":3478:3481   */\n      dup3\n        /* \"#utility.yul\":3389:3482   */\n      tag_288\n      jump\t// in\n    tag_287:\n        /* \"#utility.yul\":3507:3509   */\n      0x20\n        /* \"#utility.yul\":3502:3505   */\n      dup3\n        /* \"#utility.yul\":3498:3510   */\n      add\n        /* \"#utility.yul\":3491:3510   */\n      swap1\n      pop\n        /* \"#utility.yul\":3150:3516   */\n      swap2\n      swap1\n      pop\n      jump\t// out\n        /* \"#utility.yul\":3522:3920   */\n    tag_289:\n        /* \"#utility.yul\":3681:3684   */\n      0x00\n        /* \"#utility.yul\":3702:3785   */\n      tag_291\n        /* \"#utility.yul\":3783:3784   */\n      0x00\n        /* \"#utility.yul\":3778:3781   */\n      dup4\n        /* \"#utility.yul\":3702:3785   */\n      tag_292\n      jump\t// in\n    tag_291:\n        /* \"#utility.yul\":3695:3785   */\n      swap2\n      pop\n        /* \"#utility.yul\":3794:3887   */\n      tag_293\n        /* \"#utility.yul\":3883:3886   */\n      dup3\n        /* \"#utility.yul\":3794:3887   */\n      tag_294\n      jump\t// in\n    tag_293:\n        /* \"#utility.yul\":3912:3913   */\n      0x00\n        /* \"#utility.yul\":3907:3910   */\n      dup3\n        /* \"#utility.yul\":3903:3914   */\n      add\n        /* \"#utility.yul\":3896:3914   */\n      swap1\n      pop\n        /* \"#utility.yul\":3522:3920   */\n      swap2\n      swap1\n      pop\n      jump\t// out\n        /* \"#utility.yul\":3926:4292   */\n    tag_295:\n        /* \"#utility.yul\":4068:4071   */\n      0x00\n        /* \"#utility.yul\":4089:4156   */\n      tag_297\n        /* \"#utility.yul\":4153:4155   */\n      0x23\n        /* \"#utility.yul\":4148:4151   */\n      dup4\n        /* \"#utility.yul\":4089:4156   */\n      tag_281\n      jump\t// in\n    tag_297:\n        /* \"#utility.yul\":4082:4156   */\n      swap2\n      pop\n        /* \"#utility.yul\":4165:4258   */\n      tag_298\n        /* \"#utility.yul\":4254:4257   */\n      dup3\n        /* \"#utility.yul\":4165:4258   */\n      tag_299\n      jump\t// in\n    tag_298:\n        /* \"#utility.yul\":4283:4285   */\n      0x40\n        /* \"#utility.yul\":4278:4281   */\n      dup3\n        /* \"#utility.yul\":4274:4286   */\n      add\n        /* \"#utility.yul\":4267:4286   */\n      swap1\n      pop\n        /* \"#utility.yul\":3926:4292   */\n      swap2\n      swap1\n      pop\n      jump\t// out\n        /* \"#utility.yul\":4298:4664   */\n    tag_300:\n        /* \"#utility.yul\":4440:4443   */\n      0x00\n        /* \"#utility.yul\":4461:4528   */\n      tag_302\n        /* \"#utility.yul\":4525:4527   */\n      0x28\n        /* \"#utility.yul\":4520:4523   */\n      dup4\n        /* \"#utility.yul\":4461:4528   */\n      tag_281\n      jump\t// in\n    tag_302:\n        /* \"#utility.yul\":4454:4528   */\n      swap2\n      pop\n        /* \"#utility.yul\":4537:4630   */\n      tag_303\n        /* \"#utility.yul\":4626:4629   */\n      dup3\n        /* \"#utility.yul\":4537:4630   */\n      tag_304\n      jump\t// in\n    tag_303:\n        /* \"#utility.yul\":4655:4657   */\n      0x40\n        /* \"#utility.yul\":4650:4653   */\n      dup3\n        /* \"#utility.yul\":4646:4658   */\n      add\n        /* \"#utility.yul\":4639:4658   */\n      swap1\n      pop\n        /* \"#utility.yul\":4298:4664   */\n      swap2\n      swap1\n      pop\n      jump\t// out\n        /* \"#utility.yul\":4670:5036   */\n    tag_305:\n        /* \"#utility.yul\":4812:4815   */\n      0x00\n        /* \"#utility.yul\":4833:4900   */\n      tag_307\n        /* \"#utility.yul\":4897:4899   */\n      0x0c\n        /* \"#utility.yul\":4892:4895   */\n      dup4\n        /* \"#utility.yul\":4833:4900   */\n      tag_281\n      jump\t// in\n    tag_307:\n        /* \"#utility.yul\":4826:4900   */\n      swap2\n      pop\n        /* \"#utility.yul\":4909:5002   */\n      tag_308\n        /* \"#utility.yul\":4998:5001   */\n      dup3\n        /* \"#utility.yul\":4909:5002   */\n      tag_309\n      jump\t// in\n    tag_308:\n        /* \"#utility.yul\":5027:5029   */\n      0x20\n        /* \"#utility.yul\":5022:5025   */\n      dup3\n        /* \"#utility.yul\":5018:5030   */\n      add\n        /* \"#utility.yul\":5011:5030   */\n      swap1\n      pop\n        /* \"#utility.yul\":4670:5036   */\n      swap2\n      swap1\n      pop\n      jump\t// out\n        /* \"#utility.yul\":5042:5160   */\n    tag_310:\n        /* \"#utility.yul\":5129:5153   */\n      tag_312\n        /* \"#utility.yul\":5147:5152   */\n      dup2\n        /* \"#utility.yul\":5129:5153   */\n      tag_313\n      jump\t// in\n    tag_312:\n        /* \"#utility.yul\":5124:5127   */\n      dup3\n        /* \"#utility.yul\":5117:5154   */\n      mstore\n        /* \"#utility.yul\":5042:5160   */\n      pop\n      pop\n      jump\t// out\n        /* \"#utility.yul\":5166:5278   */\n    tag_314:\n        /* \"#utility.yul\":5249:5271   */\n      tag_316\n        /* \"#utility.yul\":5265:5270   */\n      dup2\n        /* \"#utility.yul\":5249:5271   */\n      tag_317\n      jump\t// in\n    tag_316:\n        /* \"#utility.yul\":5244:5247   */\n      dup3\n        /* \"#utility.yul\":5237:5272   */\n      mstore\n        /* \"#utility.yul\":5166:5278   */\n      pop\n      pop\n      jump\t// out\n        /* \"#utility.yul\":5284:5663   */\n    tag_178:\n        /* \"#utility.yul\":5468:5471   */\n      0x00\n        /* \"#utility.yul\":5490:5637   */\n      tag_319\n        /* \"#utility.yul\":5633:5636   */\n      dup3\n        /* \"#utility.yul\":5490:5637   */\n      tag_289\n      jump\t// in\n    tag_319:\n        /* \"#utility.yul\":5483:5637   */\n      swap2\n      pop\n        /* \"#utility.yul\":5654:5657   */\n      dup2\n        /* \"#utility.yul\":5647:5657   */\n      swap1\n      pop\n        /* \"#utility.yul\":5284:5663   */\n      swap2\n      swap1\n      pop\n      jump\t// out\n        /* \"#utility.yul\":5669:5891   */\n    tag_101:\n        /* \"#utility.yul\":5762:5766   */\n      0x00\n        /* \"#utility.yul\":5800:5802   */\n      0x20\n        /* \"#utility.yul\":5789:5798   */\n      dup3\n        /* \"#utility.yul\":5785:5803   */\n      add\n        /* \"#utility.yul\":5777:5803   */\n      swap1\n      pop\n        /* \"#utility.yul\":5813:5884   */\n      tag_321\n        /* \"#utility.yul\":5881:5882   */\n      0x00\n        /* \"#utility.yul\":5870:5879   */\n      dup4\n        /* \"#utility.yul\":5866:5883   */\n      add\n        /* \"#utility.yul\":5857:5863   */\n      dup5\n        /* \"#utility.yul\":5813:5884   */\n      tag_270\n      jump\t// in\n    tag_321:\n        /* \"#utility.yul\":5669:5891   */\n      swap3\n      swap2\n      pop\n      pop\n      jump\t// out\n        /* \"#utility.yul\":5897:6107   */\n    tag_45:\n        /* \"#utility.yul\":5984:5988   */\n      0x00\n        /* \"#utility.yul\":6022:6024   */\n      0x20\n        /* \"#utility.yul\":6011:6020   */\n      dup3\n        /* \"#utility.yul\":6007:6025   */\n      add\n        /* \"#utility.yul\":5999:6025   */\n      swap1\n      pop\n        /* \"#utility.yul\":6035:6100   */\n      tag_323\n        /* \"#utility.yul\":6097:6098   */\n      0x00\n        /* \"#utility.yul\":6086:6095   */\n      dup4\n        /* \"#utility.yul\":6082:6099   */\n      add\n        /* \"#utility.yul\":6073:6079   */\n      dup5\n        /* \"#utility.yul\":6035:6100   */\n      tag_274\n      jump\t// in\n    tag_323:\n        /* \"#utility.yul\":5897:6107   */\n      swap3\n      swap2\n      pop\n      pop\n      jump\t// out\n        /* \"#utility.yul\":6113:6532   */\n    tag_118:\n        /* \"#utility.yul\":6279:6283   */\n      0x00\n        /* \"#utility.yul\":6317:6319   */\n      0x20\n        /* \"#utility.yul\":6306:6315   */\n      dup3\n        /* \"#utility.yul\":6302:6320   */\n      add\n        /* \"#utility.yul\":6294:6320   */\n      swap1\n      pop\n        /* \"#utility.yul\":6366:6375   */\n      dup2\n        /* \"#utility.yul\":6360:6364   */\n      dup2\n        /* \"#utility.yul\":6356:6376   */\n      sub\n        /* \"#utility.yul\":6352:6353   */\n      0x00\n        /* \"#utility.yul\":6341:6350   */\n      dup4\n        /* \"#utility.yul\":6337:6354   */\n      add\n        /* \"#utility.yul\":6330:6377   */\n      mstore\n        /* \"#utility.yul\":6394:6525   */\n      tag_325\n        /* \"#utility.yul\":6520:6524   */\n      dup2\n        /* \"#utility.yul\":6394:6525   */\n      tag_278\n      jump\t// in\n    tag_325:\n        /* \"#utility.yul\":6386:6525   */\n      swap1\n      pop\n        /* \"#utility.yul\":6113:6532   */\n      swap2\n      swap1\n      pop\n      jump\t// out\n        /* \"#utility.yul\":6538:6957   */\n    tag_128:\n        /* \"#utility.yul\":6704:6708   */\n      0x00\n        /* \"#utility.yul\":6742:6744   */\n      0x20\n        /* \"#utility.yul\":6731:6740   */\n      dup3\n        /* \"#utility.yul\":6727:6745   */\n      add\n        /* \"#utility.yul\":6719:6745   */\n      swap1\n      pop\n        /* \"#utility.yul\":6791:6800   */\n      dup2\n        /* \"#utility.yul\":6785:6789   */\n      dup2\n        /* \"#utility.yul\":6781:6801   */\n      sub\n        /* \"#utility.yul\":6777:6778   */\n      0x00\n        /* \"#utility.yul\":6766:6775   */\n      dup4\n        /* \"#utility.yul\":6762:6779   */\n      add\n        /* \"#utility.yul\":6755:6802   */\n      mstore\n        /* \"#utility.yul\":6819:6950   */\n      tag_327\n        /* \"#utility.yul\":6945:6949   */\n      dup2\n        /* \"#utility.yul\":6819:6950   */\n      tag_284\n      jump\t// in\n    tag_327:\n        /* \"#utility.yul\":6811:6950   */\n      swap1\n      pop\n        /* \"#utility.yul\":6538:6957   */\n      swap2\n      swap1\n      pop\n      jump\t// out\n        /* \"#utility.yul\":6963:7382   */\n    tag_164:\n        /* \"#utility.yul\":7129:7133   */\n      0x00\n        /* \"#utility.yul\":7167:7169   */\n      0x20\n        /* \"#utility.yul\":7156:7165   */\n      dup3\n        /* \"#utility.yul\":7152:7170   */\n      add\n        /* \"#utility.yul\":7144:7170   */\n      swap1\n      pop\n        /* \"#utility.yul\":7216:7225   */\n      dup2\n        /* \"#utility.yul\":7210:7214   */\n      dup2\n        /* \"#utility.yul\":7206:7226   */\n      sub\n        /* \"#utility.yul\":7202:7203   */\n      0x00\n        /* \"#utility.yul\":7191:7200   */\n      dup4\n        /* \"#utility.yul\":7187:7204   */\n      add\n        /* \"#utility.yul\":7180:7227   */\n      mstore\n        /* \"#utility.yul\":7244:7375   */\n      tag_329\n        /* \"#utility.yul\":7370:7374   */\n      dup2\n        /* \"#utility.yul\":7244:7375   */\n      tag_295\n      jump\t// in\n    tag_329:\n        /* \"#utility.yul\":7236:7375   */\n      swap1\n      pop\n        /* \"#utility.yul\":6963:7382   */\n      swap2\n      swap1\n      pop\n      jump\t// out\n        /* \"#utility.yul\":7388:7807   */\n    tag_131:\n        /* \"#utility.yul\":7554:7558   */\n      0x00\n        /* \"#utility.yul\":7592:7594   */\n      0x20\n        /* \"#utility.yul\":7581:7590   */\n      dup3\n        /* \"#utility.yul\":7577:7595   */\n      add\n        /* \"#utility.yul\":7569:7595   */\n      swap1\n      pop\n        /* \"#utility.yul\":7641:7650   */\n      dup2\n        /* \"#utility.yul\":7635:7639   */\n      dup2\n        /* \"#utility.yul\":7631:7651   */\n      sub\n        /* \"#utility.yul\":7627:7628   */\n      0x00\n        /* \"#utility.yul\":7616:7625   */\n      dup4\n        /* \"#utility.yul\":7612:7629   */\n      add\n        /* \"#utility.yul\":7605:7652   */\n      mstore\n        /* \"#utility.yul\":7669:7800   */\n      tag_331\n        /* \"#utility.yul\":7795:7799   */\n      dup2\n        /* \"#utility.yul\":7669:7800   */\n      tag_300\n      jump\t// in\n    tag_331:\n        /* \"#utility.yul\":7661:7800   */\n      swap1\n      pop\n        /* \"#utility.yul\":7388:7807   */\n      swap2\n      swap1\n      pop\n      jump\t// out\n        /* \"#utility.yul\":7813:8232   */\n    tag_124:\n        /* \"#utility.yul\":7979:7983   */\n      0x00\n        /* \"#utility.yul\":8017:8019   */\n      0x20\n        /* \"#utility.yul\":8006:8015   */\n      dup3\n        /* \"#utility.yul\":8002:8020   */\n      add\n        /* \"#utility.yul\":7994:8020   */\n      swap1\n      pop\n        /* \"#utility.yul\":8066:8075   */\n      dup2\n        /* \"#utility.yul\":8060:8064   */\n      dup2\n        /* \"#utility.yul\":8056:8076   */\n      sub\n        /* \"#utility.yul\":8052:8053   */\n      0x00\n        /* \"#utility.yul\":8041:8050   */\n      dup4\n        /* \"#utility.yul\":8037:8054   */\n      add\n        /* \"#utility.yul\":8030:8077   */\n      mstore\n        /* \"#utility.yul\":8094:8225   */\n      tag_333\n        /* \"#utility.yul\":8220:8224   */\n      dup2\n        /* \"#utility.yul\":8094:8225   */\n      tag_305\n      jump\t// in\n    tag_333:\n        /* \"#utility.yul\":8086:8225   */\n      swap1\n      pop\n        /* \"#utility.yul\":7813:8232   */\n      swap2\n      swap1\n      pop\n      jump\t// out\n        /* \"#utility.yul\":8238:8460   */\n    tag_55:\n        /* \"#utility.yul\":8331:8335   */\n      0x00\n        /* \"#utility.yul\":8369:8371   */\n      0x20\n        /* \"#utility.yul\":8358:8367   */\n      dup3\n        /* \"#utility.yul\":8354:8372   */\n      add\n        /* \"#utility.yul\":8346:8372   */\n      swap1\n      pop\n        /* \"#utility.yul\":8382:8453   */\n      tag_335\n        /* \"#utility.yul\":8450:8451   */\n      0x00\n        /* \"#utility.yul\":8439:8448   */\n      dup4\n        /* \"#utility.yul\":8435:8452   */\n      add\n        /* \"#utility.yul\":8426:8432   */\n      dup5\n        /* \"#utility.yul\":8382:8453   */\n      tag_310\n      jump\t// in\n    tag_335:\n        /* \"#utility.yul\":8238:8460   */\n      swap3\n      swap2\n      pop\n      pop\n      jump\t// out\n        /* \"#utility.yul\":8466:8940   */\n    tag_38:\n        /* \"#utility.yul\":8631:8635   */\n      0x00\n        /* \"#utility.yul\":8669:8671   */\n      0x60\n        /* \"#utility.yul\":8658:8667   */\n      dup3\n        /* \"#utility.yul\":8654:8672   */\n      add\n        /* \"#utility.yul\":8646:8672   */\n      swap1\n      pop\n        /* \"#utility.yul\":8682:8753   */\n      tag_337\n        /* \"#utility.yul\":8750:8751   */\n      0x00\n        /* \"#utility.yul\":8739:8748   */\n      dup4\n        /* \"#utility.yul\":8735:8752   */\n      add\n        /* \"#utility.yul\":8726:8732   */\n      dup7\n        /* \"#utility.yul\":8682:8753   */\n      tag_310\n      jump\t// in\n    tag_337:\n        /* \"#utility.yul\":8763:8851   */\n      tag_338\n        /* \"#utility.yul\":8847:8849   */\n      0x20\n        /* \"#utility.yul\":8836:8845   */\n      dup4\n        /* \"#utility.yul\":8832:8850   */\n      add\n        /* \"#utility.yul\":8823:8829   */\n      dup6\n        /* \"#utility.yul\":8763:8851   */\n      tag_266\n      jump\t// in\n    tag_338:\n        /* \"#utility.yul\":8861:8933   */\n      tag_339\n        /* \"#utility.yul\":8929:8931   */\n      0x40\n        /* \"#utility.yul\":8918:8927   */\n      dup4\n        /* \"#utility.yul\":8914:8932   */\n      add\n        /* \"#utility.yul\":8905:8911   */\n      dup5\n        /* \"#utility.yul\":8861:8933   */\n      tag_310\n      jump\t// in\n    tag_339:\n        /* \"#utility.yul\":8466:8940   */\n      swap5\n      swap4\n      pop\n      pop\n      pop\n      pop\n      jump\t// out\n        /* \"#utility.yul\":8946:9388   */\n    tag_139:\n        /* \"#utility.yul\":9095:9099   */\n      0x00\n        /* \"#utility.yul\":9133:9135   */\n      0x60\n        /* \"#utility.yul\":9122:9131   */\n      dup3\n        /* \"#utility.yul\":9118:9136   */\n      add\n        /* \"#utility.yul\":9110:9136   */\n      swap1\n      pop\n        /* \"#utility.yul\":9146:9217   */\n      tag_341\n        /* \"#utility.yul\":9214:9215   */\n      0x00\n        /* \"#utility.yul\":9203:9212   */\n      dup4\n        /* \"#utility.yul\":9199:9216   */\n      add\n        /* \"#utility.yul\":9190:9196   */\n      dup7\n        /* \"#utility.yul\":9146:9217   */\n      tag_310\n      jump\t// in\n    tag_341:\n        /* \"#utility.yul\":9227:9299   */\n      tag_342\n        /* \"#utility.yul\":9295:9297   */\n      0x20\n        /* \"#utility.yul\":9284:9293   */\n      dup4\n        /* \"#utility.yul\":9280:9298   */\n      add\n        /* \"#utility.yul\":9271:9277   */\n      dup6\n        /* \"#utility.yul\":9227:9299   */\n      tag_310\n      jump\t// in\n    tag_342:\n        /* \"#utility.yul\":9309:9381   */\n      tag_343\n        /* \"#utility.yul\":9377:9379   */\n      0x40\n        /* \"#utility.yul\":9366:9375   */\n      dup4\n        /* \"#utility.yul\":9362:9380   */\n      add\n        /* \"#utility.yul\":9353:9359   */\n      dup5\n        /* \"#utility.yul\":9309:9381   */\n      tag_310\n      jump\t// in\n    tag_343:\n        /* \"#utility.yul\":8946:9388   */\n      swap5\n      swap4\n      pop\n      pop\n      pop\n      pop\n      jump\t// out\n        /* \"#utility.yul\":9394:9608   */\n    tag_91:\n        /* \"#utility.yul\":9483:9487   */\n      0x00\n        /* \"#utility.yul\":9521:9523   */\n      0x20\n        /* \"#utility.yul\":9510:9519   */\n      dup3\n        /* \"#utility.yul\":9506:9524   */\n      add\n        /* \"#utility.yul\":9498:9524   */\n      swap1\n      pop\n        /* \"#utility.yul\":9534:9601   */\n      tag_345\n        /* \"#utility.yul\":9598:9599   */\n      0x00\n        /* \"#utility.yul\":9587:9596   */\n      dup4\n        /* \"#utility.yul\":9583:9600   */\n      add\n        /* \"#utility.yul\":9574:9580   */\n      dup5\n        /* \"#utility.yul\":9534:9601   */\n      tag_314\n      jump\t// in\n    tag_345:\n        /* \"#utility.yul\":9394:9608   */\n      swap3\n      swap2\n      pop\n      pop\n      jump\t// out\n        /* \"#utility.yul\":9614:10036   */\n    tag_184:\n        /* \"#utility.yul\":9753:9757   */\n      0x00\n        /* \"#utility.yul\":9791:9793   */\n      0x60\n        /* \"#utility.yul\":9780:9789   */\n      dup3\n        /* \"#utility.yul\":9776:9794   */\n      add\n        /* \"#utility.yul\":9768:9794   */\n      swap1\n      pop\n        /* \"#utility.yul\":9804:9871   */\n      tag_347\n        /* \"#utility.yul\":9868:9869   */\n      0x00\n        /* \"#utility.yul\":9857:9866   */\n      dup4\n        /* \"#utility.yul\":9853:9870   */\n      add\n        /* \"#utility.yul\":9844:9850   */\n      dup7\n        /* \"#utility.yul\":9804:9871   */\n      tag_314\n      jump\t// in\n    tag_347:\n        /* \"#utility.yul\":9881:9953   */\n      tag_348\n        /* \"#utility.yul\":9949:9951   */\n      0x20\n        /* \"#utility.yul\":9938:9947   */\n      dup4\n        /* \"#utility.yul\":9934:9952   */\n      add\n        /* \"#utility.yul\":9925:9931   */\n      dup6\n        /* \"#utility.yul\":9881:9953   */\n      tag_270\n      jump\t// in\n    tag_348:\n        /* \"#utility.yul\":9963:10029   */\n      tag_349\n        /* \"#utility.yul\":10025:10027   */\n      0x40\n        /* \"#utility.yul\":10014:10023   */\n      dup4\n        /* \"#utility.yul\":10010:10028   */\n      add\n        /* \"#utility.yul\":10001:10007   */\n      dup5\n        /* \"#utility.yul\":9963:10029   */\n      tag_274\n      jump\t// in\n    tag_349:\n        /* \"#utility.yul\":9614:10036   */\n      swap5\n      swap4\n      pop\n      pop\n      pop\n      pop\n      jump\t// out\n        /* \"#utility.yul\":10042:10366   */\n    tag_76:\n        /* \"#utility.yul\":10159:10163   */\n      0x00\n        /* \"#utility.yul\":10197:10199   */\n      0x40\n        /* \"#utility.yul\":10186:10195   */\n      dup3\n        /* \"#utility.yul\":10182:10200   */\n      add\n        /* \"#utility.yul\":10174:10200   */\n      swap1\n      pop\n        /* \"#utility.yul\":10210:10277   */\n      tag_351\n        /* \"#utility.yul\":10274:10275   */\n      0x00\n        /* \"#utility.yul\":10263:10272   */\n      dup4\n        /* \"#utility.yul\":10259:10276   */\n      add\n        /* \"#utility.yul\":10250:10256   */\n      dup6\n        /* \"#utility.yul\":10210:10277   */\n      tag_314\n      jump\t// in\n    tag_351:\n        /* \"#utility.yul\":10287:10359   */\n      tag_352\n        /* \"#utility.yul\":10355:10357   */\n      0x20\n        /* \"#utility.yul\":10344:10353   */\n      dup4\n        /* \"#utility.yul\":10340:10358   */\n      add\n        /* \"#utility.yul\":10331:10337   */\n      dup5\n        /* \"#utility.yul\":10287:10359   */\n      tag_310\n      jump\t// in\n    tag_352:\n        /* \"#utility.yul\":10042:10366   */\n      swap4\n      swap3\n      pop\n      pop\n      pop\n      jump\t// out\n        /* \"#utility.yul\":10372:10917   */\n    tag_197:\n        /* \"#utility.yul\":10545:10549   */\n      0x00\n        /* \"#utility.yul\":10583:10586   */\n      0x80\n        /* \"#utility.yul\":10572:10581   */\n      dup3\n        /* \"#utility.yul\":10568:10587   */\n      add\n        /* \"#utility.yul\":10560:10587   */\n      swap1\n      pop\n        /* \"#utility.yul\":10597:10664   */\n      tag_354\n        /* \"#utility.yul\":10661:10662   */\n      0x00\n        /* \"#utility.yul\":10650:10659   */\n      dup4\n        /* \"#utility.yul\":10646:10663   */\n      add\n        /* \"#utility.yul\":10637:10643   */\n      dup8\n        /* \"#utility.yul\":10597:10664   */\n      tag_314\n      jump\t// in\n    tag_354:\n        /* \"#utility.yul\":10674:10746   */\n      tag_355\n        /* \"#utility.yul\":10742:10744   */\n      0x20\n        /* \"#utility.yul\":10731:10740   */\n      dup4\n        /* \"#utility.yul\":10727:10745   */\n      add\n        /* \"#utility.yul\":10718:10724   */\n      dup7\n        /* \"#utility.yul\":10674:10746   */\n      tag_310\n      jump\t// in\n    tag_355:\n        /* \"#utility.yul\":10756:10828   */\n      tag_356\n        /* \"#utility.yul\":10824:10826   */\n      0x40\n        /* \"#utility.yul\":10813:10822   */\n      dup4\n        /* \"#utility.yul\":10809:10827   */\n      add\n        /* \"#utility.yul\":10800:10806   */\n      dup6\n        /* \"#utility.yul\":10756:10828   */\n      tag_310\n      jump\t// in\n    tag_356:\n        /* \"#utility.yul\":10838:10910   */\n      tag_357\n        /* \"#utility.yul\":10906:10908   */\n      0x60\n        /* \"#utility.yul\":10895:10904   */\n      dup4\n        /* \"#utility.yul\":10891:10909   */\n      add\n        /* \"#utility.yul\":10882:10888   */\n      dup5\n        /* \"#utility.yul\":10838:10910   */\n      tag_310\n      jump\t// in\n    tag_357:\n        /* \"#utility.yul\":10372:10917   */\n      swap6\n      swap5\n      pop\n      pop\n      pop\n      pop\n      pop\n      jump\t// out\n        /* \"#utility.yul\":11004:11151   */\n    tag_292:\n        /* \"#utility.yul\":11105:11116   */\n      0x00\n        /* \"#utility.yul\":11142:11145   */\n      dup2\n        /* \"#utility.yul\":11127:11145   */\n      swap1\n      pop\n        /* \"#utility.yul\":11004:11151   */\n      swap3\n      swap2\n      pop\n      pop\n      jump\t// out\n        /* \"#utility.yul\":11157:11326   */\n    tag_281:\n        /* \"#utility.yul\":11241:11252   */\n      0x00\n        /* \"#utility.yul\":11275:11281   */\n      dup3\n        /* \"#utility.yul\":11270:11273   */\n      dup3\n        /* \"#utility.yul\":11263:11282   */\n      mstore\n        /* \"#utility.yul\":11315:11319   */\n      0x20\n        /* \"#utility.yul\":11310:11313   */\n      dup3\n        /* \"#utility.yul\":11306:11320   */\n      add\n        /* \"#utility.yul\":11291:11320   */\n      swap1\n      pop\n        /* \"#utility.yul\":11157:11326   */\n      swap3\n      swap2\n      pop\n      pop\n      jump\t// out\n        /* \"#utility.yul\":11332:11637   */\n    tag_133:\n        /* \"#utility.yul\":11372:11375   */\n      0x00\n        /* \"#utility.yul\":11391:11411   */\n      tag_363\n        /* \"#utility.yul\":11409:11410   */\n      dup3\n        /* \"#utility.yul\":11391:11411   */\n      tag_313\n      jump\t// in\n    tag_363:\n        /* \"#utility.yul\":11386:11411   */\n      swap2\n      pop\n        /* \"#utility.yul\":11425:11445   */\n      tag_364\n        /* \"#utility.yul\":11443:11444   */\n      dup4\n        /* \"#utility.yul\":11425:11445   */\n      tag_313\n      jump\t// in\n    tag_364:\n        /* \"#utility.yul\":11420:11445   */\n      swap3\n      pop\n        /* \"#utility.yul\":11579:11580   */\n      dup3\n        /* \"#utility.yul\":11511:11577   */\n      0xffffffffffffffffffffffffffffffffffffffffffffffffffffffffffffffff\n        /* \"#utility.yul\":11507:11581   */\n      sub\n        /* \"#utility.yul\":11504:11505   */\n      dup3\n        /* \"#utility.yul\":11501:11582   */\n      gt\n        /* \"#utility.yul\":11498:11605   */\n      iszero\n      tag_365\n      jumpi\n        /* \"#utility.yul\":11585:11603   */\n      tag_366\n      tag_367\n      jump\t// in\n    tag_366:\n        /* \"#utility.yul\":11498:11605   */\n    tag_365:\n        /* \"#utility.yul\":11629:11630   */\n      dup3\n        /* \"#utility.yul\":11626:11627   */\n      dup3\n        /* \"#utility.yul\":11622:11631   */\n      add\n        /* \"#utility.yul\":11615:11631   */\n      swap1\n      pop\n        /* \"#utility.yul\":11332:11637   */\n      swap3\n      swap2\n      pop\n      pop\n      jump\t// out\n        /* \"#utility.yul\":11643:11880   */\n    tag_112:\n        /* \"#utility.yul\":11681:11684   */\n      0x00\n        /* \"#utility.yul\":11700:11718   */\n      tag_369\n        /* \"#utility.yul\":11716:11717   */\n      dup3\n        /* \"#utility.yul\":11700:11718   */\n      tag_317\n      jump\t// in\n    tag_369:\n        /* \"#utility.yul\":11695:11718   */\n      swap2\n      pop\n        /* \"#utility.yul\":11732:11750   */\n      tag_370\n        /* \"#utility.yul\":11748:11749   */\n      dup4\n        /* \"#utility.yul\":11732:11750   */\n      tag_317\n      jump\t// in\n    tag_370:\n        /* \"#utility.yul\":11727:11750   */\n      swap3\n      pop\n        /* \"#utility.yul\":11822:11823   */\n      dup3\n        /* \"#utility.yul\":11816:11820   */\n      0xff\n        /* \"#utility.yul\":11812:11824   */\n      sub\n        /* \"#utility.yul\":11809:11810   */\n      dup3\n        /* \"#utility.yul\":11806:11825   */\n      gt\n        /* \"#utility.yul\":11803:11848   */\n      iszero\n      tag_371\n      jumpi\n        /* \"#utility.yul\":11828:11846   */\n      tag_372\n      tag_367\n      jump\t// in\n    tag_372:\n        /* \"#utility.yul\":11803:11848   */\n    tag_371:\n        /* \"#utility.yul\":11872:11873   */\n      dup3\n        /* \"#utility.yul\":11869:11870   */\n      dup3\n        /* \"#utility.yul\":11865:11874   */\n      add\n        /* \"#utility.yul\":11858:11874   */\n      swap1\n      pop\n        /* \"#utility.yul\":11643:11880   */\n      swap3\n      swap2\n      pop\n      pop\n      jump\t// out\n        /* \"#utility.yul\":11886:12071   */\n    tag_190:\n        /* \"#utility.yul\":11926:11927   */\n      0x00\n        /* \"#utility.yul\":11943:11963   */\n      tag_374\n        /* \"#utility.yul\":11961:11962   */\n      dup3\n        /* \"#utility.yul\":11943:11963   */\n      tag_313\n      jump\t// in\n    tag_374:\n        /* \"#utility.yul\":11938:11963   */\n      swap2\n      pop\n        /* \"#utility.yul\":11977:11997   */\n      tag_375\n        /* \"#utility.yul\":11995:11996   */\n      dup4\n        /* \"#utility.yul\":11977:11997   */\n      tag_313\n      jump\t// in\n    tag_375:\n        /* \"#utility.yul\":11972:11997   */\n      swap3\n      pop\n        /* \"#utility.yul\":12016:12017   */\n      dup3\n        /* \"#utility.yul\":12006:12041   */\n      tag_376\n      jumpi\n        /* \"#utility.yul\":12021:12039   */\n      tag_377\n      tag_378\n      jump\t// in\n    tag_377:\n        /* \"#utility.yul\":12006:12041   */\n    tag_376:\n        /* \"#utility.yul\":12063:12064   */\n      dup3\n        /* \"#utility.yul\":12060:12061   */\n      dup3\n        /* \"#utility.yul\":12056:12065   */\n      div\n        /* \"#utility.yul\":12051:12065   */\n      swap1\n      pop\n        /* \"#utility.yul\":11886:12071   */\n      swap3\n      swap2\n      pop\n      pop\n      jump\t// out\n        /* \"#utility.yul\":12077:12425   */\n    tag_188:\n        /* \"#utility.yul\":12117:12124   */\n      0x00\n        /* \"#utility.yul\":12140:12160   */\n      tag_380\n        /* \"#utility.yul\":12158:12159   */\n      dup3\n        /* \"#utility.yul\":12140:12160   */\n      tag_313\n      jump\t// in\n    tag_380:\n        /* \"#utility.yul\":12135:12160   */\n      swap2\n      pop\n        /* \"#utility.yul\":12174:12194   */\n      tag_381\n        /* \"#utility.yul\":12192:12193   */\n      dup4\n        /* \"#utility.yul\":12174:12194   */\n      tag_313\n      jump\t// in\n    tag_381:\n        /* \"#utility.yul\":12169:12194   */\n      swap3\n      pop\n        /* \"#utility.yul\":12362:12363   */\n      dup2\n        /* \"#utility.yul\":12294:12360   */\n      0xffffffffffffffffffffffffffffffffffffffffffffffffffffffffffffffff\n        /* \"#utility.yul\":12290:12364   */\n      div\n        /* \"#utility.yul\":12287:12288   */\n      dup4\n        /* \"#utility.yul\":12284:12365   */\n      gt\n        /* \"#utility.yul\":12279:12280   */\n      dup3\n        /* \"#utility.yul\":12272:12281   */\n      iszero\n        /* \"#utility.yul\":12265:12282   */\n      iszero\n        /* \"#utility.yul\":12261:12366   */\n      and\n        /* \"#utility.yul\":12258:12389   */\n      iszero\n      tag_382\n      jumpi\n        /* \"#utility.yul\":12369:12387   */\n      tag_383\n      tag_367\n      jump\t// in\n    tag_383:\n        /* \"#utility.yul\":12258:12389   */\n    tag_382:\n        /* \"#utility.yul\":12417:12418   */\n      dup3\n        /* \"#utility.yul\":12414:12415   */\n      dup3\n        /* \"#utility.yul\":12410:12419   */\n      mul\n        /* \"#utility.yul\":12399:12419   */\n      swap1\n      pop\n        /* \"#utility.yul\":12077:12425   */\n      swap3\n      swap2\n      pop\n      pop\n      jump\t// out\n        /* \"#utility.yul\":12431:12622   */\n    tag_136:\n        /* \"#utility.yul\":12471:12475   */\n      0x00\n        /* \"#utility.yul\":12491:12511   */\n      tag_385\n        /* \"#utility.yul\":12509:12510   */\n      dup3\n        /* \"#utility.yul\":12491:12511   */\n      tag_313\n      jump\t// in\n    tag_385:\n        /* \"#utility.yul\":12486:12511   */\n      swap2\n      pop\n        /* \"#utility.yul\":12525:12545   */\n      tag_386\n        /* \"#utility.yul\":12543:12544   */\n      dup4\n        /* \"#utility.yul\":12525:12545   */\n      tag_313\n      jump\t// in\n    tag_386:\n        /* \"#utility.yul\":12520:12545   */\n      swap3\n      pop\n        /* \"#utility.yul\":12564:12565   */\n      dup3\n        /* \"#utility.yul\":12561:12562   */\n      dup3\n        /* \"#utility.yul\":12558:12566   */\n      lt\n        /* \"#utility.yul\":12555:12589   */\n      iszero\n      tag_387\n      jumpi\n        /* \"#utility.yul\":12569:12587   */\n      tag_388\n      tag_367\n      jump\t// in\n    tag_388:\n        /* \"#utility.yul\":12555:12589   */\n    tag_387:\n        /* \"#utility.yul\":12614:12615   */\n      dup3\n        /* \"#utility.yul\":12611:12612   */\n      dup3\n        /* \"#utility.yul\":12607:12616   */\n      sub\n        /* \"#utility.yul\":12599:12616   */\n      swap1\n      pop\n        /* \"#utility.yul\":12431:12622   */\n      swap3\n      swap2\n      pop\n      pop\n      jump\t// out\n        /* \"#utility.yul\":12628:12813   */\n    tag_159:\n        /* \"#utility.yul\":12666:12670   */\n      0x00\n        /* \"#utility.yul\":12686:12704   */\n      tag_390\n        /* \"#utility.yul\":12702:12703   */\n      dup3\n        /* \"#utility.yul\":12686:12704   */\n      tag_317\n      jump\t// in\n    tag_390:\n        /* \"#utility.yul\":12681:12704   */\n      swap2\n      pop\n        /* \"#utility.yul\":12718:12736   */\n      tag_391\n        /* \"#utility.yul\":12734:12735   */\n      dup4\n        /* \"#utility.yul\":12718:12736   */\n      tag_317\n      jump\t// in\n    tag_391:\n        /* \"#utility.yul\":12713:12736   */\n      swap3\n      pop\n        /* \"#utility.yul\":12755:12756   */\n      dup3\n        /* \"#utility.yul\":12752:12753   */\n      dup3\n        /* \"#utility.yul\":12749:12757   */\n      lt\n        /* \"#utility.yul\":12746:12780   */\n      iszero\n      tag_392\n      jumpi\n        /* \"#utility.yul\":12760:12778   */\n      tag_393\n      tag_367\n      jump\t// in\n    tag_393:\n        /* \"#utility.yul\":12746:12780   */\n    tag_392:\n        /* \"#utility.yul\":12805:12806   */\n      dup3\n        /* \"#utility.yul\":12802:12803   */\n      dup3\n        /* \"#utility.yul\":12798:12807   */\n      sub\n        /* \"#utility.yul\":12790:12807   */\n      swap1\n      pop\n        /* \"#utility.yul\":12628:12813   */\n      swap3\n      swap2\n      pop\n      pop\n      jump\t// out\n        /* \"#utility.yul\":12819:12915   */\n    tag_273:\n        /* \"#utility.yul\":12856:12863   */\n      0x00\n        /* \"#utility.yul\":12885:12909   */\n      tag_395\n        /* \"#utility.yul\":12903:12908   */\n      dup3\n        /* \"#utility.yul\":12885:12909   */\n      tag_396\n      jump\t// in\n    tag_395:\n        /* \"#utility.yul\":12874:12909   */\n      swap1\n      pop\n        /* \"#utility.yul\":12819:12915   */\n      swap2\n      swap1\n      pop\n      jump\t// out\n        /* \"#utility.yul\":12921:13025   */\n    tag_269:\n        /* \"#utility.yul\":12966:12973   */\n      0x00\n        /* \"#utility.yul\":12995:13019   */\n      tag_398\n        /* \"#utility.yul\":13013:13018   */\n      dup3\n        /* \"#utility.yul\":12995:13019   */\n      tag_396\n      jump\t// in\n    tag_398:\n        /* \"#utility.yul\":12984:13019   */\n      swap1\n      pop\n        /* \"#utility.yul\":12921:13025   */\n      swap2\n      swap1\n      pop\n      jump\t// out\n        /* \"#utility.yul\":13031:13121   */\n    tag_277:\n        /* \"#utility.yul\":13065:13072   */\n      0x00\n        /* \"#utility.yul\":13108:13113   */\n      dup2\n        /* \"#utility.yul\":13101:13114   */\n      iszero\n        /* \"#utility.yul\":13094:13115   */\n      iszero\n        /* \"#utility.yul\":13083:13115   */\n      swap1\n      pop\n        /* \"#utility.yul\":13031:13121   */\n      swap2\n      swap1\n      pop\n      jump\t// out\n        /* \"#utility.yul\":13127:13253   */\n    tag_396:\n        /* \"#utility.yul\":13164:13171   */\n      0x00\n        /* \"#utility.yul\":13204:13246   */\n      0xffffffffffffffffffffffffffffffffffffffff\n        /* \"#utility.yul\":13197:13202   */\n      dup3\n        /* \"#utility.yul\":13193:13247   */\n      and\n        /* \"#utility.yul\":13182:13247   */\n      swap1\n      pop\n        /* \"#utility.yul\":13127:13253   */\n      swap2\n      swap1\n      pop\n      jump\t// out\n        /* \"#utility.yul\":13259:13336   */\n    tag_313:\n        /* \"#utility.yul\":13296:13303   */\n      0x00\n        /* \"#utility.yul\":13325:13330   */\n      dup2\n        /* \"#utility.yul\":13314:13330   */\n      swap1\n      pop\n        /* \"#utility.yul\":13259:13336   */\n      swap2\n      swap1\n      pop\n      jump\t// out\n        /* \"#utility.yul\":13342:13428   */\n    tag_317:\n        /* \"#utility.yul\":13377:13384   */\n      0x00\n        /* \"#utility.yul\":13417:13421   */\n      0xff\n        /* \"#utility.yul\":13410:13415   */\n      dup3\n        /* \"#utility.yul\":13406:13422   */\n      and\n        /* \"#utility.yul\":13395:13422   */\n      swap1\n      pop\n        /* \"#utility.yul\":13342:13428   */\n      swap2\n      swap1\n      pop\n      jump\t// out\n        /* \"#utility.yul\":13434:13601   */\n    tag_115:\n        /* \"#utility.yul\":13471:13474   */\n      0x00\n        /* \"#utility.yul\":13494:13516   */\n      tag_404\n        /* \"#utility.yul\":13510:13515   */\n      dup3\n        /* \"#utility.yul\":13494:13516   */\n      tag_317\n      jump\t// in\n    tag_404:\n        /* \"#utility.yul\":13485:13516   */\n      swap2\n      pop\n        /* \"#utility.yul\":13538:13542   */\n      0xff\n        /* \"#utility.yul\":13531:13536   */\n      dup3\n        /* \"#utility.yul\":13528:13543   */\n      eq\n        /* \"#utility.yul\":13525:13566   */\n      iszero\n      tag_405\n      jumpi\n        /* \"#utility.yul\":13546:13564   */\n      tag_406\n      tag_367\n      jump\t// in\n    tag_406:\n        /* \"#utility.yul\":13525:13566   */\n    tag_405:\n        /* \"#utility.yul\":13593:13594   */\n      0x01\n        /* \"#utility.yul\":13586:13591   */\n      dup3\n        /* \"#utility.yul\":13582:13595   */\n      add\n        /* \"#utility.yul\":13575:13595   */\n      swap1\n      pop\n        /* \"#utility.yul\":13434:13601   */\n      swap2\n      swap1\n      pop\n      jump\t// out\n        /* \"#utility.yul\":13607:13783   */\n    tag_225:\n        /* \"#utility.yul\":13639:13640   */\n      0x00\n        /* \"#utility.yul\":13656:13676   */\n      tag_408\n        /* \"#utility.yul\":13674:13675   */\n      dup3\n        /* \"#utility.yul\":13656:13676   */\n      tag_313\n      jump\t// in\n    tag_408:\n        /* \"#utility.yul\":13651:13676   */\n      swap2\n      pop\n        /* \"#utility.yul\":13690:13710   */\n      tag_409\n        /* \"#utility.yul\":13708:13709   */\n      dup4\n        /* \"#utility.yul\":13690:13710   */\n      tag_313\n      jump\t// in\n    tag_409:\n        /* \"#utility.yul\":13685:13710   */\n      swap3\n      pop\n        /* \"#utility.yul\":13729:13730   */\n      dup3\n        /* \"#utility.yul\":13719:13754   */\n      tag_410\n      jumpi\n        /* \"#utility.yul\":13734:13752   */\n      tag_411\n      tag_378\n      jump\t// in\n    tag_411:\n        /* \"#utility.yul\":13719:13754   */\n    tag_410:\n        /* \"#utility.yul\":13775:13776   */\n      dup3\n        /* \"#utility.yul\":13772:13773   */\n      dup3\n        /* \"#utility.yul\":13768:13777   */\n      mod\n        /* \"#utility.yul\":13763:13777   */\n      swap1\n      pop\n        /* \"#utility.yul\":13607:13783   */\n      swap3\n      swap2\n      pop\n      pop\n      jump\t// out\n        /* \"#utility.yul\":13789:13969   */\n    tag_367:\n        /* \"#utility.yul\":13837:13914   */\n      0x4e487b7100000000000000000000000000000000000000000000000000000000\n        /* \"#utility.yul\":13834:13835   */\n      0x00\n        /* \"#utility.yul\":13827:13915   */\n      mstore\n        /* \"#utility.yul\":13934:13938   */\n      0x11\n        /* \"#utility.yul\":13931:13932   */\n      0x04\n        /* \"#utility.yul\":13924:13939   */\n      mstore\n        /* \"#utility.yul\":13958:13962   */\n      0x24\n        /* \"#utility.yul\":13955:13956   */\n      0x00\n        /* \"#utility.yul\":13948:13963   */\n      revert\n        /* \"#utility.yul\":13975:14155   */\n    tag_378:\n        /* \"#utility.yul\":14023:14100   */\n      0x4e487b7100000000000000000000000000000000000000000000000000000000\n        /* \"#utility.yul\":14020:14021   */\n      0x00\n        /* \"#utility.yul\":14013:14101   */\n      mstore\n        /* \"#utility.yul\":14120:14124   */\n      0x12\n        /* \"#utility.yul\":14117:14118   */\n      0x04\n        /* \"#utility.yul\":14110:14125   */\n      mstore\n        /* \"#utility.yul\":14144:14148   */\n      0x24\n        /* \"#utility.yul\":14141:14142   */\n      0x00\n        /* \"#utility.yul\":14134:14149   */\n      revert\n        /* \"#utility.yul\":14284:14401   */\n    tag_246:\n        /* \"#utility.yul\":14393:14394   */\n      0x00\n        /* \"#utility.yul\":14390:14391   */\n      dup1\n        /* \"#utility.yul\":14383:14395   */\n      revert\n        /* \"#utility.yul\":14407:14571   */\n    tag_283:\n        /* \"#utility.yul\":14547:14563   */\n      0x47616d65206e6f7420666f756e64000000000000000000000000000000000000\n        /* \"#utility.yul\":14543:14544   */\n      0x00\n        /* \"#utility.yul\":14535:14541   */\n      dup3\n        /* \"#utility.yul\":14531:14545   */\n      add\n        /* \"#utility.yul\":14524:14564   */\n      mstore\n        /* \"#utility.yul\":14407:14571   */\n      pop\n      jump\t// out\n        /* \"#utility.yul\":14577:14753   */\n    tag_288:\n        /* \"#utility.yul\":14717:14745   */\n      0x596f752061726520616c72656164792072656769737465726564000000000000\n        /* \"#utility.yul\":14713:14714   */\n      0x00\n        /* \"#utility.yul\":14705:14711   */\n      dup3\n        /* \"#utility.yul\":14701:14715   */\n      add\n        /* \"#utility.yul\":14694:14746   */\n      mstore\n        /* \"#utility.yul\":14577:14753   */\n      pop\n      jump\t// out\n        /* \"#utility.yul\":14759:14873   */\n    tag_294:\n      pop\n      jump\t// out\n        /* \"#utility.yul\":14879:15101   */\n    tag_299:\n        /* \"#utility.yul\":15019:15053   */\n      0x496e73756666696369656e7420616d6f756e74206f6620636f6e747269627574\n        /* \"#utility.yul\":15015:15016   */\n      0x00\n        /* \"#utility.yul\":15007:15013   */\n      dup3\n        /* \"#utility.yul\":15003:15017   */\n      add\n        /* \"#utility.yul\":14996:15054   */\n      mstore\n        /* \"#utility.yul\":15088:15093   */\n      0x696f6e0000000000000000000000000000000000000000000000000000000000\n        /* \"#utility.yul\":15083:15085   */\n      0x20\n        /* \"#utility.yul\":15075:15081   */\n      dup3\n        /* \"#utility.yul\":15071:15086   */\n      add\n        /* \"#utility.yul\":15064:15094   */\n      mstore\n        /* \"#utility.yul\":14879:15101   */\n      pop\n      jump\t// out\n        /* \"#utility.yul\":15107:15334   */\n    tag_304:\n        /* \"#utility.yul\":15247:15281   */\n      0x466f72207265676974657220696e2067616d6520796f75206e65656420706179\n        /* \"#utility.yul\":15243:15244   */\n      0x00\n        /* \"#utility.yul\":15235:15241   */\n      dup3\n        /* \"#utility.yul\":15231:15245   */\n      add\n        /* \"#utility.yul\":15224:15282   */\n      mstore\n        /* \"#utility.yul\":15316:15326   */\n      0x2031206574686572000000000000000000000000000000000000000000000000\n        /* \"#utility.yul\":15311:15313   */\n      0x20\n        /* \"#utility.yul\":15303:15309   */\n      dup3\n        /* \"#utility.yul\":15299:15314   */\n      add\n        /* \"#utility.yul\":15292:15327   */\n      mstore\n        /* \"#utility.yul\":15107:15334   */\n      pop\n      jump\t// out\n        /* \"#utility.yul\":15340:15502   */\n    tag_309:\n        /* \"#utility.yul\":15480:15494   */\n      0x4e6f20636f6e7472616374730000000000000000000000000000000000000000\n        /* \"#utility.yul\":15476:15477   */\n      0x00\n        /* \"#utility.yul\":15468:15474   */\n      dup3\n        /* \"#utility.yul\":15464:15478   */\n      add\n        /* \"#utility.yul\":15457:15495   */\n      mstore\n        /* \"#utility.yul\":15340:15502   */\n      pop\n      jump\t// out\n        /* \"#utility.yul\":15508:15630   */\n    tag_234:\n        /* \"#utility.yul\":15581:15605   */\n      tag_424\n        /* \"#utility.yul\":15599:15604   */\n      dup2\n        /* \"#utility.yul\":15581:15605   */\n      tag_273\n      jump\t// in\n    tag_424:\n        /* \"#utility.yul\":15574:15579   */\n      dup2\n        /* \"#utility.yul\":15571:15606   */\n      eq\n        /* \"#utility.yul\":15561:15624   */\n      tag_425\n      jumpi\n        /* \"#utility.yul\":15620:15621   */\n      0x00\n        /* \"#utility.yul\":15617:15618   */\n      dup1\n        /* \"#utility.yul\":15610:15622   */\n      revert\n        /* \"#utility.yul\":15561:15624   */\n    tag_425:\n        /* \"#utility.yul\":15508:15630   */\n      pop\n      jump\t// out\n        /* \"#utility.yul\":15636:15758   */\n    tag_238:\n        /* \"#utility.yul\":15709:15733   */\n      tag_427\n        /* \"#utility.yul\":15727:15732   */\n      dup2\n        /* \"#utility.yul\":15709:15733   */\n      tag_313\n      jump\t// in\n    tag_427:\n        /* \"#utility.yul\":15702:15707   */\n      dup2\n        /* \"#utility.yul\":15699:15734   */\n      eq\n        /* \"#utility.yul\":15689:15752   */\n      tag_428\n      jumpi\n        /* \"#utility.yul\":15748:15749   */\n      0x00\n        /* \"#utility.yul\":15745:15746   */\n      dup1\n        /* \"#utility.yul\":15738:15750   */\n      revert\n        /* \"#utility.yul\":15689:15752   */\n    tag_428:\n        /* \"#utility.yul\":15636:15758   */\n      pop\n      jump\t// out\n        /* \"#utility.yul\":15764:15882   */\n    tag_242:\n        /* \"#utility.yul\":15835:15857   */\n      tag_430\n        /* \"#utility.yul\":15851:15856   */\n      dup2\n        /* \"#utility.yul\":15835:15857   */\n      tag_317\n      jump\t// in\n    tag_430:\n        /* \"#utility.yul\":15828:15833   */\n      dup2\n        /* \"#utility.yul\":15825:15858   */\n      eq\n        /* \"#utility.yul\":15815:15876   */\n      tag_431\n      jumpi\n        /* \"#utility.yul\":15872:15873   */\n      0x00\n        /* \"#utility.yul\":15869:15870   */\n      dup1\n        /* \"#utility.yul\":15862:15874   */\n      revert\n        /* \"#utility.yul\":15815:15876   */\n    tag_431:\n        /* \"#utility.yul\":15764:15882   */\n      pop\n      jump\t// out\n\n    auxdata: 0xa264697066735822122076b4f37e4cccc0bb1d5d39691f7e53e521b4813d5ac2070fb7c10d572b5f166964736f6c63430008070033\n}\n",
				"bytecode": {
					"linkReferences": {},
					"object": "60806040523480156200001157600080fd5b50336001806101000a81548173ffffffffffffffffffffffffffffffffffffffff021916908373ffffffffffffffffffffffffffffffffffffffff16021790555060018054906101000a900473ffffffffffffffffffffffffffffffffffffffff166003600080815260200190815260200160002060006101000a81548173ffffffffffffffffffffffffffffffffffffffff021916908373ffffffffffffffffffffffffffffffffffffffff16021790555060405180606001604052806000815260200160018054906101000a900473ffffffffffffffffffffffffffffffffffffffff1673ffffffffffffffffffffffffffffffffffffffff16815260200160008152506005600060018054906101000a900473ffffffffffffffffffffffffffffffffffffffff1673ffffffffffffffffffffffffffffffffffffffff1673ffffffffffffffffffffffffffffffffffffffff1681526020019081526020016000206000820151816000015560208201518160010160006101000a81548173ffffffffffffffffffffffffffffffffffffffff021916908373ffffffffffffffffffffffffffffffffffffffff160217905550604082015181600201559050506001600081905550620001f5670de0b6b3a7640000620001fb60201b60201c565b6200048b565b6200020c336200032560201b60201c565b6200021657600080fd5b6040518060400160405280600160009054906101000a900460ff1660ff1681526020018281525060026000600160009054906101000a900460ff1660ff1660ff16815260200190815260200160002060008201518160000160006101000a81548160ff021916908360ff1602179055506020820151816001015590505060018060008282829054906101000a900460ff16620002b39190620003cc565b92506101000a81548160ff021916908360ff1602179055507fcf1ed532d6b83b4290f2f407b156b17826f49752e7a8ff360f502c307e05566360018060009054906101000a900460ff166200030991906200040a565b826040516200031a9291906200039f565b60405180910390a150565b600060018054906101000a900473ffffffffffffffffffffffffffffffffffffffff1673ffffffffffffffffffffffffffffffffffffffff168273ffffffffffffffffffffffffffffffffffffffff16149050919050565b620003888162000445565b82525050565b62000399816200044f565b82525050565b6000604082019050620003b660008301856200038e565b620003c560208301846200037d565b9392505050565b6000620003d9826200044f565b9150620003e6836200044f565b92508260ff03821115620003ff57620003fe6200045c565b5b828201905092915050565b600062000417826200044f565b915062000424836200044f565b9250828210156200043a57620004396200045c565b5b828203905092915050565b6000819050919050565b600060ff82169050919050565b7f4e487b7100000000000000000000000000000000000000000000000000000000600052601160045260246000fd5b6123ce806200049b6000396000f3fe6080604052600436106100ec5760003560e01c806378a32e211161008a578063ad39f0a311610059578063ad39f0a314610359578063ae9283b514610384578063bd233b91146103ad578063f1060006146103ea576100fd565b806378a32e2114610262578063906cbf57146102a157806395a078e8146102df5780639b0b0ae31461031c576100fd565b80632e8aab9b116100c65780632e8aab9b146101a157806333afc80b146101bd57806347734892146101fa578063556c909514610237576100fd565b80630173c05b146101095780630e50cee5146101255780632a648c8914610164576100fd565b366100fd576100fb3334610427565b005b6101073334610427565b005b610123600480360381019061011e9190611b8b565b6104ea565b005b34801561013157600080fd5b5061014c60048036038101906101479190611b1e565b61082d565b60405161015b93929190611e48565b60405180910390f35b34801561017057600080fd5b5061018b60048036038101906101869190611b4b565b610877565b6040516101989190611d72565b60405180910390f35b6101bb60048036038101906101b69190611bb8565b6108a6565b005b3480156101c957600080fd5b506101e460048036038101906101df9190611b8b565b610950565b6040516101f19190611e2d565b60405180910390f35b34801561020657600080fd5b50610221600480360381019061021c9190611b1e565b61098f565b60405161022e9190611e2d565b60405180910390f35b34801561024357600080fd5b5061024c6109b0565b6040516102599190611e2d565b60405180910390f35b34801561026e57600080fd5b5061028960048036038101906102849190611be5565b6109b6565b60405161029893929190611e48565b60405180910390f35b3480156102ad57600080fd5b506102c860048036038101906102c39190611bb8565b610a0d565b6040516102d6929190611f08565b60405180910390f35b3480156102eb57600080fd5b5061030660048036038101906103019190611b1e565b610a3e565b6040516103139190611d72565b60405180910390f35b34801561032857600080fd5b50610343600480360381019061033e9190611bb8565b610a96565b6040516103509190611e2d565b60405180910390f35b34801561036557600080fd5b5061036e610aae565b60405161037b9190611eb6565b60405180910390f35b34801561039057600080fd5b506103ab60048036038101906103a69190611b8b565b610ac1565b005b3480156103b957600080fd5b506103d460048036038101906103cf9190611b8b565b610bdc565b6040516103e19190611d57565b60405180910390f35b3480156103f657600080fd5b50610411600480360381019061040c9190611b4b565b610c0f565b60405161041e9190611e2d565b60405180910390f35b60008060005b60018060009054906101000a900460ff166104489190611fe8565b60ff168160ff1610156104985734600260008360ff1660ff1681526020019081526020016000206001015414156104855760019250809150610498565b808061049090612179565b91505061042d565b50816104d9576040517f08c379a00000000000000000000000000000000000000000000000000000000081526004016104d090611d8d565b60405180910390fd5b6104e4818585610c34565b50505050565b600080339050803b915060008263ffffffff16111561053e576040517f08c379a000000000000000000000000000000000000000000000000000000000815260040161053590611e0d565b60405180910390fd5b600073ffffffffffffffffffffffffffffffffffffffff16600560003373ffffffffffffffffffffffffffffffffffffffff1673ffffffffffffffffffffffffffffffffffffffff16815260200190815260200160002060010160009054906101000a900473ffffffffffffffffffffffffffffffffffffffff1673ffffffffffffffffffffffffffffffffffffffff161461060f576040517f08c379a000000000000000000000000000000000000000000000000000000000815260040161060690611dad565b60405180910390fd5b670de0b6b3a76400003414610659576040517f08c379a000000000000000000000000000000000000000000000000000000000815260040161065090611ded565b60405180910390fd5b604051806060016040528060005481526020013373ffffffffffffffffffffffffffffffffffffffff16815260200184815250600560003373ffffffffffffffffffffffffffffffffffffffff1673ffffffffffffffffffffffffffffffffffffffff1681526020019081526020016000206000820151816000015560208201518160010160006101000a81548173ffffffffffffffffffffffffffffffffffffffff021916908373ffffffffffffffffffffffffffffffffffffffff1602179055506040820151816002015590505033600360008054815260200190815260200160002060006101000a81548173ffffffffffffffffffffffffffffffffffffffff021916908373ffffffffffffffffffffffffffffffffffffffff160217905550600160008082825461078e9190611f92565b9250508190555060016004600085815260200190815260200160002060008282546107b99190611f92565b925050819055507f12888a3214fa3b6d599e2a7d3ff41e8aa7ef1295fe3ba5d428825df6da08688560016000546107f091906120aa565b846001600460008881526020019081526020016000205461081191906120aa565b60405161082093929190611e7f565b60405180910390a1505050565b60056020528060005260406000206000915090508060000154908060010160009054906101000a900473ffffffffffffffffffffffffffffffffffffffff16908060020154905083565b60096020528160005260406000206020528060005260406000206000915091509054906101000a900460ff1681565b600073ffffffffffffffffffffffffffffffffffffffff16600560003373ffffffffffffffffffffffffffffffffffffffff1673ffffffffffffffffffffffffffffffffffffffff16815260200190815260200160002060010160009054906101000a900473ffffffffffffffffffffffffffffffffffffffff1673ffffffffffffffffffffffffffffffffffffffff16141561094257600080fd5b61094d813334610c34565b50565b600080610967600284611a9d90919063ffffffff16565b1461098557610980600283611ab390919063ffffffff16565b610988565b60005b9050919050565b60008173ffffffffffffffffffffffffffffffffffffffff16319050919050565b60005481565b6007602052816000526040600020602052806000526040600020600091509150508060000154908060010160009054906101000a900473ffffffffffffffffffffffffffffffffffffffff16908060020154905083565b60026020528060005260406000206000915090508060000160009054906101000a900460ff16908060010154905082565b600060018054906101000a900473ffffffffffffffffffffffffffffffffffffffff1673ffffffffffffffffffffffffffffffffffffffff168273ffffffffffffffffffffffffffffffffffffffff16149050919050565b60066020528060005260406000206000915090505481565b600160009054906101000a900460ff1681565b610aca33610a3e565b610ad357600080fd5b6040518060400160405280600160009054906101000a900460ff1660ff1681526020018281525060026000600160009054906101000a900460ff1660ff1660ff16815260200190815260200160002060008201518160000160006101000a81548160ff021916908360ff1602179055506020820151816001015590505060018060008282829054906101000a900460ff16610b6e9190611fe8565b92506101000a81548160ff021916908360ff1602179055507fcf1ed532d6b83b4290f2f407b156b17826f49752e7a8ff360f502c307e05566360018060009054906101000a900460ff16610bc291906120de565b82604051610bd1929190611f08565b60405180910390a150565b60036020528060005260406000206000915054906101000a900473ffffffffffffffffffffffffffffffffffffffff1681565b6008602052816000526040600020602052806000526040600020600091509150505481565b600260008460ff1660ff16815260200190815260200160002060010154811015610c93576040517f08c379a0000000000000000000000000000000000000000000000000000000008152600401610c8a90611dcd565b60405180910390fd5b600560008373ffffffffffffffffffffffffffffffffffffffff1673ffffffffffffffffffffffffffffffffffffffff168152602001908152602001600020600760008560ff1660ff1681526020019081526020016000206000600660008760ff1660ff168152602001908152602001600020548152602001908152602001600020600082015481600001556001820160009054906101000a900473ffffffffffffffffffffffffffffffffffffffff168160010160006101000a81548173ffffffffffffffffffffffffffffffffffffffff021916908373ffffffffffffffffffffffffffffffffffffffff160217905550600282015481600201559050506001600960008473ffffffffffffffffffffffffffffffffffffffff1673ffffffffffffffffffffffffffffffffffffffff16815260200190815260200160002060008560ff1660ff16815260200190815260200160002060006101000a81548160ff0219169083151502179055506001600660008560ff1660ff1681526020019081526020016000206000828254610e2c9190611f92565b925050819055506003600660008560ff1660ff1681526020019081526020016000205410611a98576000610e78600660008660ff1660ff16815260200190815260200160002054610950565b90505b60008114611a96576000600760008660ff1660ff1681526020019081526020016000206000600184610ead91906120aa565b815260200190815260200160002060010160009054906101000a900473ffffffffffffffffffffffffffffffffffffffff1690506001600860008373ffffffffffffffffffffffffffffffffffffffff1673ffffffffffffffffffffffffffffffffffffffff16815260200190815260200160002060008760ff1660ff16815260200190815260200160002054111580610fb35750600960008273ffffffffffffffffffffffffffffffffffffffff1673ffffffffffffffffffffffffffffffffffffffff1681526020019081526020016000206000600187610f909190611fe8565b60ff1660ff16815260200190815260200160002060009054906101000a900460ff165b15611a855760008173ffffffffffffffffffffffffffffffffffffffff166110146064611006604a600260008c60ff1660ff16815260200190815260200160002060010154611ac990919063ffffffff16565b611ab390919063ffffffff16565b60405161102090611d42565b60006040518083038185875af1925050503d806000811461105d576040519150601f19603f3d011682016040523d82523d6000602084013e611062565b606091505b505090506001600860008473ffffffffffffffffffffffffffffffffffffffff1673ffffffffffffffffffffffffffffffffffffffff16815260200190815260200160002060008860ff1660ff16815260200190815260200160002060008282546110cd9190611f92565b925050819055507fd9ff1d189bd8473f87a70327222795b92238d06f3edf14fa23403ac2153c10a9600260008860ff1660ff16815260200190815260200160002060000160009054906101000a900460ff16838360405161113093929190611ed1565b60405180910390a16000600760008860ff1660ff168152602001908152602001600020600060018661116291906120aa565b81526020019081526020016000206000015490506000600760008960ff1660ff16815260200190815260200160002060006001876111a091906120aa565b815260200190815260200160002060020154905060006064600a600260008c60ff1660ff168152602001908152602001600020600101546111e19190612050565b6111eb919061201f565b90506003600083815260200190815260200160002060009054906101000a900473ffffffffffffffffffffffffffffffffffffffff1673ffffffffffffffffffffffffffffffffffffffff168160405161124490611d42565b60006040518083038185875af1925050503d8060008114611281576040519150601f19603f3d011682016040523d82523d6000602084013e611286565b606091505b50508094505083156112f9577fafe90bc52fc3dd02b2550b825fc68e93b4bfbcb8165bbacda6cd14b2bad5bc02600260008b60ff1660ff16815260200190815260200160002060000160009054906101000a900460ff168484846040516112f09493929190611f31565b60405180910390a15b60646006600260008c60ff1660ff168152602001908152602001600020600101546113249190612050565b61132e919061201f565b9050600560006003600085815260200190815260200160002060009054906101000a900473ffffffffffffffffffffffffffffffffffffffff1673ffffffffffffffffffffffffffffffffffffffff1673ffffffffffffffffffffffffffffffffffffffff16815260200190815260200160002060010160009054906101000a900473ffffffffffffffffffffffffffffffffffffffff1673ffffffffffffffffffffffffffffffffffffffff16816040516113e990611d42565b60006040518083038185875af1925050503d8060008114611426576040519150601f19603f3d011682016040523d82523d6000602084013e61142b565b606091505b5050809450508315611513577fafe90bc52fc3dd02b2550b825fc68e93b4bfbcb8165bbacda6cd14b2bad5bc02600260008b60ff1660ff16815260200190815260200160002060000160009054906101000a900460ff1683600560006003600088815260200190815260200160002060009054906101000a900473ffffffffffffffffffffffffffffffffffffffff1673ffffffffffffffffffffffffffffffffffffffff1673ffffffffffffffffffffffffffffffffffffffff168152602001908152602001600020600001548460405161150a9493929190611f31565b60405180910390a15b60646004600260008c60ff1660ff1681526020019081526020016000206001015461153e9190612050565b611548919061201f565b90506005600060036000600560006003600089815260200190815260200160002060009054906101000a900473ffffffffffffffffffffffffffffffffffffffff1673ffffffffffffffffffffffffffffffffffffffff1673ffffffffffffffffffffffffffffffffffffffff16815260200190815260200160002060000154815260200190815260200160002060009054906101000a900473ffffffffffffffffffffffffffffffffffffffff1673ffffffffffffffffffffffffffffffffffffffff1673ffffffffffffffffffffffffffffffffffffffff16815260200190815260200160002060010160009054906101000a900473ffffffffffffffffffffffffffffffffffffffff1673ffffffffffffffffffffffffffffffffffffffff168160405161167890611d42565b60006040518083038185875af1925050503d80600081146116b5576040519150601f19603f3d011682016040523d82523d6000602084013e6116ba565b606091505b505080945050831561188c577fafe90bc52fc3dd02b2550b825fc68e93b4bfbcb8165bbacda6cd14b2bad5bc02600260008b60ff1660ff16815260200190815260200160002060000160009054906101000a900460ff16600560006003600087815260200190815260200160002060009054906101000a900473ffffffffffffffffffffffffffffffffffffffff1673ffffffffffffffffffffffffffffffffffffffff1673ffffffffffffffffffffffffffffffffffffffff16815260200190815260200160002060000154600560006003600060056000600360008c815260200190815260200160002060009054906101000a900473ffffffffffffffffffffffffffffffffffffffff1673ffffffffffffffffffffffffffffffffffffffff1673ffffffffffffffffffffffffffffffffffffffff16815260200190815260200160002060000154815260200190815260200160002060009054906101000a900473ffffffffffffffffffffffffffffffffffffffff1673ffffffffffffffffffffffffffffffffffffffff1673ffffffffffffffffffffffffffffffffffffffff16815260200190815260200160002060000154846040516118839493929190611f31565b60405180910390a15b60646006600260008c60ff1660ff168152602001908152602001600020600101546118b79190612050565b6118c1919061201f565b90506005600060018054906101000a900473ffffffffffffffffffffffffffffffffffffffff1673ffffffffffffffffffffffffffffffffffffffff1673ffffffffffffffffffffffffffffffffffffffff16815260200190815260200160002060010160009054906101000a900473ffffffffffffffffffffffffffffffffffffffff1673ffffffffffffffffffffffffffffffffffffffff168160405161196990611d42565b60006040518083038185875af1925050503d80600081146119a6576040519150601f19603f3d011682016040523d82523d6000602084013e6119ab565b606091505b5050809450508315611a80577fafe90bc52fc3dd02b2550b825fc68e93b4bfbcb8165bbacda6cd14b2bad5bc02600260008b60ff1660ff16815260200190815260200160002060000160009054906101000a900460ff16846005600060018054906101000a900473ffffffffffffffffffffffffffffffffffffffff1673ffffffffffffffffffffffffffffffffffffffff1673ffffffffffffffffffffffffffffffffffffffff1681526020019081526020016000206000015484604051611a779493929190611f31565b60405180910390a15b505050505b611a8e82610950565b915050610e7b565b505b505050565b60008183611aab91906121a3565b905092915050565b60008183611ac1919061201f565b905092915050565b60008183611ad79190612050565b905092915050565b600081359050611aee81612353565b92915050565b600081359050611b038161236a565b92915050565b600081359050611b1881612381565b92915050565b600060208284031215611b3457611b33612232565b5b6000611b4284828501611adf565b91505092915050565b60008060408385031215611b6257611b61612232565b5b6000611b7085828601611adf565b9250506020611b8185828601611b09565b9150509250929050565b600060208284031215611ba157611ba0612232565b5b6000611baf84828501611af4565b91505092915050565b600060208284031215611bce57611bcd612232565b5b6000611bdc84828501611b09565b91505092915050565b60008060408385031215611bfc57611bfb612232565b5b6000611c0a85828601611b09565b9250506020611c1b85828601611af4565b9150509250929050565b611c2e81612124565b82525050565b611c3d81612112565b82525050565b611c4c81612136565b82525050565b6000611c5f600e83611f81565b9150611c6a82612237565b602082019050919050565b6000611c82601a83611f81565b9150611c8d82612260565b602082019050919050565b6000611ca5600083611f76565b9150611cb082612289565b600082019050919050565b6000611cc8602383611f81565b9150611cd38261228c565b604082019050919050565b6000611ceb602883611f81565b9150611cf6826122db565b604082019050919050565b6000611d0e600c83611f81565b9150611d198261232a565b602082019050919050565b611d2d81612162565b82525050565b611d3c8161216c565b82525050565b6000611d4d82611c98565b9150819050919050565b6000602082019050611d6c6000830184611c34565b92915050565b6000602082019050611d876000830184611c43565b92915050565b60006020820190508181036000830152611da681611c52565b9050919050565b60006020820190508181036000830152611dc681611c75565b9050919050565b60006020820190508181036000830152611de681611cbb565b9050919050565b60006020820190508181036000830152611e0681611cde565b9050919050565b60006020820190508181036000830152611e2681611d01565b9050919050565b6000602082019050611e426000830184611d24565b92915050565b6000606082019050611e5d6000830186611d24565b611e6a6020830185611c25565b611e776040830184611d24565b949350505050565b6000606082019050611e946000830186611d24565b611ea16020830185611d24565b611eae6040830184611d24565b949350505050565b6000602082019050611ecb6000830184611d33565b92915050565b6000606082019050611ee66000830186611d33565b611ef36020830185611c34565b611f006040830184611c43565b949350505050565b6000604082019050611f1d6000830185611d33565b611f2a6020830184611d24565b9392505050565b6000608082019050611f466000830187611d33565b611f536020830186611d24565b611f606040830185611d24565b611f6d6060830184611d24565b95945050505050565b600081905092915050565b600082825260208201905092915050565b6000611f9d82612162565b9150611fa883612162565b9250827fffffffffffffffffffffffffffffffffffffffffffffffffffffffffffffffff03821115611fdd57611fdc6121d4565b5b828201905092915050565b6000611ff38261216c565b9150611ffe8361216c565b92508260ff03821115612014576120136121d4565b5b828201905092915050565b600061202a82612162565b915061203583612162565b92508261204557612044612203565b5b828204905092915050565b600061205b82612162565b915061206683612162565b9250817fffffffffffffffffffffffffffffffffffffffffffffffffffffffffffffffff048311821515161561209f5761209e6121d4565b5b828202905092915050565b60006120b582612162565b91506120c083612162565b9250828210156120d3576120d26121d4565b5b828203905092915050565b60006120e98261216c565b91506120f48361216c565b925082821015612107576121066121d4565b5b828203905092915050565b600061211d82612142565b9050919050565b600061212f82612142565b9050919050565b60008115159050919050565b600073ffffffffffffffffffffffffffffffffffffffff82169050919050565b6000819050919050565b600060ff82169050919050565b60006121848261216c565b915060ff821415612198576121976121d4565b5b600182019050919050565b60006121ae82612162565b91506121b983612162565b9250826121c9576121c8612203565b5b828206905092915050565b7f4e487b7100000000000000000000000000000000000000000000000000000000600052601160045260246000fd5b7f4e487b7100000000000000000000000000000000000000000000000000000000600052601260045260246000fd5b600080fd5b7f47616d65206e6f7420666f756e64000000000000000000000000000000000000600082015250565b7f596f752061726520616c72656164792072656769737465726564000000000000600082015250565b50565b7f496e73756666696369656e7420616d6f756e74206f6620636f6e74726962757460008201527f696f6e0000000000000000000000000000000000000000000000000000000000602082015250565b7f466f72207265676974657220696e2067616d6520796f75206e6565642070617960008201527f2031206574686572000000000000000000000000000000000000000000000000602082015250565b7f4e6f20636f6e7472616374730000000000000000000000000000000000000000600082015250565b61235c81612112565b811461236757600080fd5b50565b61237381612162565b811461237e57600080fd5b50565b61238a8161216c565b811461239557600080fd5b5056fea264697066735822122076b4f37e4cccc0bb1d5d39691f7e53e521b4813d5ac2070fb7c10d572b5f166964736f6c63430008070033",
					"opcodes": "PUSH1 0x80 PUSH1 0x40 MSTORE CALLVALUE DUP1 ISZERO PUSH3 0x11 JUMPI PUSH1 0x0 DUP1 REVERT JUMPDEST POP CALLER PUSH1 0x1 DUP1 PUSH2 0x100 EXP DUP2 SLOAD DUP2 PUSH20 0xFFFFFFFFFFFFFFFFFFFFFFFFFFFFFFFFFFFFFFFF MUL NOT AND SWAP1 DUP4 PUSH20 0xFFFFFFFFFFFFFFFFFFFFFFFFFFFFFFFFFFFFFFFF AND MUL OR SWAP1 SSTORE POP PUSH1 0x1 DUP1 SLOAD SWAP1 PUSH2 0x100 EXP SWAP1 DIV PUSH20 0xFFFFFFFFFFFFFFFFFFFFFFFFFFFFFFFFFFFFFFFF AND PUSH1 0x3 PUSH1 0x0 DUP1 DUP2 MSTORE PUSH1 0x20 ADD SWAP1 DUP2 MSTORE PUSH1 0x20 ADD PUSH1 0x0 KECCAK256 PUSH1 0x0 PUSH2 0x100 EXP DUP2 SLOAD DUP2 PUSH20 0xFFFFFFFFFFFFFFFFFFFFFFFFFFFFFFFFFFFFFFFF MUL NOT AND SWAP1 DUP4 PUSH20 0xFFFFFFFFFFFFFFFFFFFFFFFFFFFFFFFFFFFFFFFF AND MUL OR SWAP1 SSTORE POP PUSH1 0x40 MLOAD DUP1 PUSH1 0x60 ADD PUSH1 0x40 MSTORE DUP1 PUSH1 0x0 DUP2 MSTORE PUSH1 0x20 ADD PUSH1 0x1 DUP1 SLOAD SWAP1 PUSH2 0x100 EXP SWAP1 DIV PUSH20 0xFFFFFFFFFFFFFFFFFFFFFFFFFFFFFFFFFFFFFFFF AND PUSH20 0xFFFFFFFFFFFFFFFFFFFFFFFFFFFFFFFFFFFFFFFF AND DUP2 MSTORE PUSH1 0x20 ADD PUSH1 0x0 DUP2 MSTORE POP PUSH1 0x5 PUSH1 0x0 PUSH1 0x1 DUP1 SLOAD SWAP1 PUSH2 0x100 EXP SWAP1 DIV PUSH20 0xFFFFFFFFFFFFFFFFFFFFFFFFFFFFFFFFFFFFFFFF AND PUSH20 0xFFFFFFFFFFFFFFFFFFFFFFFFFFFFFFFFFFFFFFFF AND PUSH20 0xFFFFFFFFFFFFFFFFFFFFFFFFFFFFFFFFFFFFFFFF AND DUP2 MSTORE PUSH1 0x20 ADD SWAP1 DUP2 MSTORE PUSH1 0x20 ADD PUSH1 0x0 KECCAK256 PUSH1 0x0 DUP3 ADD MLOAD DUP2 PUSH1 0x0 ADD SSTORE PUSH1 0x20 DUP3 ADD MLOAD DUP2 PUSH1 0x1 ADD PUSH1 0x0 PUSH2 0x100 EXP DUP2 SLOAD DUP2 PUSH20 0xFFFFFFFFFFFFFFFFFFFFFFFFFFFFFFFFFFFFFFFF MUL NOT AND SWAP1 DUP4 PUSH20 0xFFFFFFFFFFFFFFFFFFFFFFFFFFFFFFFFFFFFFFFF AND MUL OR SWAP1 SSTORE POP PUSH1 0x40 DUP3 ADD MLOAD DUP2 PUSH1 0x2 ADD SSTORE SWAP1 POP POP PUSH1 0x1 PUSH1 0x0 DUP2 SWAP1 SSTORE POP PUSH3 0x1F5 PUSH8 0xDE0B6B3A7640000 PUSH3 0x1FB PUSH1 0x20 SHL PUSH1 0x20 SHR JUMP JUMPDEST PUSH3 0x48B JUMP JUMPDEST PUSH3 0x20C CALLER PUSH3 0x325 PUSH1 0x20 SHL PUSH1 0x20 SHR JUMP JUMPDEST PUSH3 0x216 JUMPI PUSH1 0x0 DUP1 REVERT JUMPDEST PUSH1 0x40 MLOAD DUP1 PUSH1 0x40 ADD PUSH1 0x40 MSTORE DUP1 PUSH1 0x1 PUSH1 0x0 SWAP1 SLOAD SWAP1 PUSH2 0x100 EXP SWAP1 DIV PUSH1 0xFF AND PUSH1 0xFF AND DUP2 MSTORE PUSH1 0x20 ADD DUP3 DUP2 MSTORE POP PUSH1 0x2 PUSH1 0x0 PUSH1 0x1 PUSH1 0x0 SWAP1 SLOAD SWAP1 PUSH2 0x100 EXP SWAP1 DIV PUSH1 0xFF AND PUSH1 0xFF AND PUSH1 0xFF AND DUP2 MSTORE PUSH1 0x20 ADD SWAP1 DUP2 MSTORE PUSH1 0x20 ADD PUSH1 0x0 KECCAK256 PUSH1 0x0 DUP3 ADD MLOAD DUP2 PUSH1 0x0 ADD PUSH1 0x0 PUSH2 0x100 EXP DUP2 SLOAD DUP2 PUSH1 0xFF MUL NOT AND SWAP1 DUP4 PUSH1 0xFF AND MUL OR SWAP1 SSTORE POP PUSH1 0x20 DUP3 ADD MLOAD DUP2 PUSH1 0x1 ADD SSTORE SWAP1 POP POP PUSH1 0x1 DUP1 PUSH1 0x0 DUP3 DUP3 DUP3 SWAP1 SLOAD SWAP1 PUSH2 0x100 EXP SWAP1 DIV PUSH1 0xFF AND PUSH3 0x2B3 SWAP2 SWAP1 PUSH3 0x3CC JUMP JUMPDEST SWAP3 POP PUSH2 0x100 EXP DUP2 SLOAD DUP2 PUSH1 0xFF MUL NOT AND SWAP1 DUP4 PUSH1 0xFF AND MUL OR SWAP1 SSTORE POP PUSH32 0xCF1ED532D6B83B4290F2F407B156B17826F49752E7A8FF360F502C307E055663 PUSH1 0x1 DUP1 PUSH1 0x0 SWAP1 SLOAD SWAP1 PUSH2 0x100 EXP SWAP1 DIV PUSH1 0xFF AND PUSH3 0x309 SWAP2 SWAP1 PUSH3 0x40A JUMP JUMPDEST DUP3 PUSH1 0x40 MLOAD PUSH3 0x31A SWAP3 SWAP2 SWAP1 PUSH3 0x39F JUMP JUMPDEST PUSH1 0x40 MLOAD DUP1 SWAP2 SUB SWAP1 LOG1 POP JUMP JUMPDEST PUSH1 0x0 PUSH1 0x1 DUP1 SLOAD SWAP1 PUSH2 0x100 EXP SWAP1 DIV PUSH20 0xFFFFFFFFFFFFFFFFFFFFFFFFFFFFFFFFFFFFFFFF AND PUSH20 0xFFFFFFFFFFFFFFFFFFFFFFFFFFFFFFFFFFFFFFFF AND DUP3 PUSH20 0xFFFFFFFFFFFFFFFFFFFFFFFFFFFFFFFFFFFFFFFF AND EQ SWAP1 POP SWAP2 SWAP1 POP JUMP JUMPDEST PUSH3 0x388 DUP2 PUSH3 0x445 JUMP JUMPDEST DUP3 MSTORE POP POP JUMP JUMPDEST PUSH3 0x399 DUP2 PUSH3 0x44F JUMP JUMPDEST DUP3 MSTORE POP POP JUMP JUMPDEST PUSH1 0x0 PUSH1 0x40 DUP3 ADD SWAP1 POP PUSH3 0x3B6 PUSH1 0x0 DUP4 ADD DUP6 PUSH3 0x38E JUMP JUMPDEST PUSH3 0x3C5 PUSH1 0x20 DUP4 ADD DUP5 PUSH3 0x37D JUMP JUMPDEST SWAP4 SWAP3 POP POP POP JUMP JUMPDEST PUSH1 0x0 PUSH3 0x3D9 DUP3 PUSH3 0x44F JUMP JUMPDEST SWAP2 POP PUSH3 0x3E6 DUP4 PUSH3 0x44F JUMP JUMPDEST SWAP3 POP DUP3 PUSH1 0xFF SUB DUP3 GT ISZERO PUSH3 0x3FF JUMPI PUSH3 0x3FE PUSH3 0x45C JUMP JUMPDEST JUMPDEST DUP3 DUP3 ADD SWAP1 POP SWAP3 SWAP2 POP POP JUMP JUMPDEST PUSH1 0x0 PUSH3 0x417 DUP3 PUSH3 0x44F JUMP JUMPDEST SWAP2 POP PUSH3 0x424 DUP4 PUSH3 0x44F JUMP JUMPDEST SWAP3 POP DUP3 DUP3 LT ISZERO PUSH3 0x43A JUMPI PUSH3 0x439 PUSH3 0x45C JUMP JUMPDEST JUMPDEST DUP3 DUP3 SUB SWAP1 POP SWAP3 SWAP2 POP POP JUMP JUMPDEST PUSH1 0x0 DUP2 SWAP1 POP SWAP2 SWAP1 POP JUMP JUMPDEST PUSH1 0x0 PUSH1 0xFF DUP3 AND SWAP1 POP SWAP2 SWAP1 POP JUMP JUMPDEST PUSH32 0x4E487B7100000000000000000000000000000000000000000000000000000000 PUSH1 0x0 MSTORE PUSH1 0x11 PUSH1 0x4 MSTORE PUSH1 0x24 PUSH1 0x0 REVERT JUMPDEST PUSH2 0x23CE DUP1 PUSH3 0x49B PUSH1 0x0 CODECOPY PUSH1 0x0 RETURN INVALID PUSH1 0x80 PUSH1 0x40 MSTORE PUSH1 0x4 CALLDATASIZE LT PUSH2 0xEC JUMPI PUSH1 0x0 CALLDATALOAD PUSH1 0xE0 SHR DUP1 PUSH4 0x78A32E21 GT PUSH2 0x8A JUMPI DUP1 PUSH4 0xAD39F0A3 GT PUSH2 0x59 JUMPI DUP1 PUSH4 0xAD39F0A3 EQ PUSH2 0x359 JUMPI DUP1 PUSH4 0xAE9283B5 EQ PUSH2 0x384 JUMPI DUP1 PUSH4 0xBD233B91 EQ PUSH2 0x3AD JUMPI DUP1 PUSH4 0xF1060006 EQ PUSH2 0x3EA JUMPI PUSH2 0xFD JUMP JUMPDEST DUP1 PUSH4 0x78A32E21 EQ PUSH2 0x262 JUMPI DUP1 PUSH4 0x906CBF57 EQ PUSH2 0x2A1 JUMPI DUP1 PUSH4 0x95A078E8 EQ PUSH2 0x2DF JUMPI DUP1 PUSH4 0x9B0B0AE3 EQ PUSH2 0x31C JUMPI PUSH2 0xFD JUMP JUMPDEST DUP1 PUSH4 0x2E8AAB9B GT PUSH2 0xC6 JUMPI DUP1 PUSH4 0x2E8AAB9B EQ PUSH2 0x1A1 JUMPI DUP1 PUSH4 0x33AFC80B EQ PUSH2 0x1BD JUMPI DUP1 PUSH4 0x47734892 EQ PUSH2 0x1FA JUMPI DUP1 PUSH4 0x556C9095 EQ PUSH2 0x237 JUMPI PUSH2 0xFD JUMP JUMPDEST DUP1 PUSH4 0x173C05B EQ PUSH2 0x109 JUMPI DUP1 PUSH4 0xE50CEE5 EQ PUSH2 0x125 JUMPI DUP1 PUSH4 0x2A648C89 EQ PUSH2 0x164 JUMPI PUSH2 0xFD JUMP JUMPDEST CALLDATASIZE PUSH2 0xFD JUMPI PUSH2 0xFB CALLER CALLVALUE PUSH2 0x427 JUMP JUMPDEST STOP JUMPDEST PUSH2 0x107 CALLER CALLVALUE PUSH2 0x427 JUMP JUMPDEST STOP JUMPDEST PUSH2 0x123 PUSH1 0x4 DUP1 CALLDATASIZE SUB DUP2 ADD SWAP1 PUSH2 0x11E SWAP2 SWAP1 PUSH2 0x1B8B JUMP JUMPDEST PUSH2 0x4EA JUMP JUMPDEST STOP JUMPDEST CALLVALUE DUP1 ISZERO PUSH2 0x131 JUMPI PUSH1 0x0 DUP1 REVERT JUMPDEST POP PUSH2 0x14C PUSH1 0x4 DUP1 CALLDATASIZE SUB DUP2 ADD SWAP1 PUSH2 0x147 SWAP2 SWAP1 PUSH2 0x1B1E JUMP JUMPDEST PUSH2 0x82D JUMP JUMPDEST PUSH1 0x40 MLOAD PUSH2 0x15B SWAP4 SWAP3 SWAP2 SWAP1 PUSH2 0x1E48 JUMP JUMPDEST PUSH1 0x40 MLOAD DUP1 SWAP2 SUB SWAP1 RETURN JUMPDEST CALLVALUE DUP1 ISZERO PUSH2 0x170 JUMPI PUSH1 0x0 DUP1 REVERT JUMPDEST POP PUSH2 0x18B PUSH1 0x4 DUP1 CALLDATASIZE SUB DUP2 ADD SWAP1 PUSH2 0x186 SWAP2 SWAP1 PUSH2 0x1B4B JUMP JUMPDEST PUSH2 0x877 JUMP JUMPDEST PUSH1 0x40 MLOAD PUSH2 0x198 SWAP2 SWAP1 PUSH2 0x1D72 JUMP JUMPDEST PUSH1 0x40 MLOAD DUP1 SWAP2 SUB SWAP1 RETURN JUMPDEST PUSH2 0x1BB PUSH1 0x4 DUP1 CALLDATASIZE SUB DUP2 ADD SWAP1 PUSH2 0x1B6 SWAP2 SWAP1 PUSH2 0x1BB8 JUMP JUMPDEST PUSH2 0x8A6 JUMP JUMPDEST STOP JUMPDEST CALLVALUE DUP1 ISZERO PUSH2 0x1C9 JUMPI PUSH1 0x0 DUP1 REVERT JUMPDEST POP PUSH2 0x1E4 PUSH1 0x4 DUP1 CALLDATASIZE SUB DUP2 ADD SWAP1 PUSH2 0x1DF SWAP2 SWAP1 PUSH2 0x1B8B JUMP JUMPDEST PUSH2 0x950 JUMP JUMPDEST PUSH1 0x40 MLOAD PUSH2 0x1F1 SWAP2 SWAP1 PUSH2 0x1E2D JUMP JUMPDEST PUSH1 0x40 MLOAD DUP1 SWAP2 SUB SWAP1 RETURN JUMPDEST CALLVALUE DUP1 ISZERO PUSH2 0x206 JUMPI PUSH1 0x0 DUP1 REVERT JUMPDEST POP PUSH2 0x221 PUSH1 0x4 DUP1 CALLDATASIZE SUB DUP2 ADD SWAP1 PUSH2 0x21C SWAP2 SWAP1 PUSH2 0x1B1E JUMP JUMPDEST PUSH2 0x98F JUMP JUMPDEST PUSH1 0x40 MLOAD PUSH2 0x22E SWAP2 SWAP1 PUSH2 0x1E2D JUMP JUMPDEST PUSH1 0x40 MLOAD DUP1 SWAP2 SUB SWAP1 RETURN JUMPDEST CALLVALUE DUP1 ISZERO PUSH2 0x243 JUMPI PUSH1 0x0 DUP1 REVERT JUMPDEST POP PUSH2 0x24C PUSH2 0x9B0 JUMP JUMPDEST PUSH1 0x40 MLOAD PUSH2 0x259 SWAP2 SWAP1 PUSH2 0x1E2D JUMP JUMPDEST PUSH1 0x40 MLOAD DUP1 SWAP2 SUB SWAP1 RETURN JUMPDEST CALLVALUE DUP1 ISZERO PUSH2 0x26E JUMPI PUSH1 0x0 DUP1 REVERT JUMPDEST POP PUSH2 0x289 PUSH1 0x4 DUP1 CALLDATASIZE SUB DUP2 ADD SWAP1 PUSH2 0x284 SWAP2 SWAP1 PUSH2 0x1BE5 JUMP JUMPDEST PUSH2 0x9B6 JUMP JUMPDEST PUSH1 0x40 MLOAD PUSH2 0x298 SWAP4 SWAP3 SWAP2 SWAP1 PUSH2 0x1E48 JUMP JUMPDEST PUSH1 0x40 MLOAD DUP1 SWAP2 SUB SWAP1 RETURN JUMPDEST CALLVALUE DUP1 ISZERO PUSH2 0x2AD JUMPI PUSH1 0x0 DUP1 REVERT JUMPDEST POP PUSH2 0x2C8 PUSH1 0x4 DUP1 CALLDATASIZE SUB DUP2 ADD SWAP1 PUSH2 0x2C3 SWAP2 SWAP1 PUSH2 0x1BB8 JUMP JUMPDEST PUSH2 0xA0D JUMP JUMPDEST PUSH1 0x40 MLOAD PUSH2 0x2D6 SWAP3 SWAP2 SWAP1 PUSH2 0x1F08 JUMP JUMPDEST PUSH1 0x40 MLOAD DUP1 SWAP2 SUB SWAP1 RETURN JUMPDEST CALLVALUE DUP1 ISZERO PUSH2 0x2EB JUMPI PUSH1 0x0 DUP1 REVERT JUMPDEST POP PUSH2 0x306 PUSH1 0x4 DUP1 CALLDATASIZE SUB DUP2 ADD SWAP1 PUSH2 0x301 SWAP2 SWAP1 PUSH2 0x1B1E JUMP JUMPDEST PUSH2 0xA3E JUMP JUMPDEST PUSH1 0x40 MLOAD PUSH2 0x313 SWAP2 SWAP1 PUSH2 0x1D72 JUMP JUMPDEST PUSH1 0x40 MLOAD DUP1 SWAP2 SUB SWAP1 RETURN JUMPDEST CALLVALUE DUP1 ISZERO PUSH2 0x328 JUMPI PUSH1 0x0 DUP1 REVERT JUMPDEST POP PUSH2 0x343 PUSH1 0x4 DUP1 CALLDATASIZE SUB DUP2 ADD SWAP1 PUSH2 0x33E SWAP2 SWAP1 PUSH2 0x1BB8 JUMP JUMPDEST PUSH2 0xA96 JUMP JUMPDEST PUSH1 0x40 MLOAD PUSH2 0x350 SWAP2 SWAP1 PUSH2 0x1E2D JUMP JUMPDEST PUSH1 0x40 MLOAD DUP1 SWAP2 SUB SWAP1 RETURN JUMPDEST CALLVALUE DUP1 ISZERO PUSH2 0x365 JUMPI PUSH1 0x0 DUP1 REVERT JUMPDEST POP PUSH2 0x36E PUSH2 0xAAE JUMP JUMPDEST PUSH1 0x40 MLOAD PUSH2 0x37B SWAP2 SWAP1 PUSH2 0x1EB6 JUMP JUMPDEST PUSH1 0x40 MLOAD DUP1 SWAP2 SUB SWAP1 RETURN JUMPDEST CALLVALUE DUP1 ISZERO PUSH2 0x390 JUMPI PUSH1 0x0 DUP1 REVERT JUMPDEST POP PUSH2 0x3AB PUSH1 0x4 DUP1 CALLDATASIZE SUB DUP2 ADD SWAP1 PUSH2 0x3A6 SWAP2 SWAP1 PUSH2 0x1B8B JUMP JUMPDEST PUSH2 0xAC1 JUMP JUMPDEST STOP JUMPDEST CALLVALUE DUP1 ISZERO PUSH2 0x3B9 JUMPI PUSH1 0x0 DUP1 REVERT JUMPDEST POP PUSH2 0x3D4 PUSH1 0x4 DUP1 CALLDATASIZE SUB DUP2 ADD SWAP1 PUSH2 0x3CF SWAP2 SWAP1 PUSH2 0x1B8B JUMP JUMPDEST PUSH2 0xBDC JUMP JUMPDEST PUSH1 0x40 MLOAD PUSH2 0x3E1 SWAP2 SWAP1 PUSH2 0x1D57 JUMP JUMPDEST PUSH1 0x40 MLOAD DUP1 SWAP2 SUB SWAP1 RETURN JUMPDEST CALLVALUE DUP1 ISZERO PUSH2 0x3F6 JUMPI PUSH1 0x0 DUP1 REVERT JUMPDEST POP PUSH2 0x411 PUSH1 0x4 DUP1 CALLDATASIZE SUB DUP2 ADD SWAP1 PUSH2 0x40C SWAP2 SWAP1 PUSH2 0x1B4B JUMP JUMPDEST PUSH2 0xC0F JUMP JUMPDEST PUSH1 0x40 MLOAD PUSH2 0x41E SWAP2 SWAP1 PUSH2 0x1E2D JUMP JUMPDEST PUSH1 0x40 MLOAD DUP1 SWAP2 SUB SWAP1 RETURN JUMPDEST PUSH1 0x0 DUP1 PUSH1 0x0 JUMPDEST PUSH1 0x1 DUP1 PUSH1 0x0 SWAP1 SLOAD SWAP1 PUSH2 0x100 EXP SWAP1 DIV PUSH1 0xFF AND PUSH2 0x448 SWAP2 SWAP1 PUSH2 0x1FE8 JUMP JUMPDEST PUSH1 0xFF AND DUP2 PUSH1 0xFF AND LT ISZERO PUSH2 0x498 JUMPI CALLVALUE PUSH1 0x2 PUSH1 0x0 DUP4 PUSH1 0xFF AND PUSH1 0xFF AND DUP2 MSTORE PUSH1 0x20 ADD SWAP1 DUP2 MSTORE PUSH1 0x20 ADD PUSH1 0x0 KECCAK256 PUSH1 0x1 ADD SLOAD EQ ISZERO PUSH2 0x485 JUMPI PUSH1 0x1 SWAP3 POP DUP1 SWAP2 POP PUSH2 0x498 JUMP JUMPDEST DUP1 DUP1 PUSH2 0x490 SWAP1 PUSH2 0x2179 JUMP JUMPDEST SWAP2 POP POP PUSH2 0x42D JUMP JUMPDEST POP DUP2 PUSH2 0x4D9 JUMPI PUSH1 0x40 MLOAD PUSH32 0x8C379A000000000000000000000000000000000000000000000000000000000 DUP2 MSTORE PUSH1 0x4 ADD PUSH2 0x4D0 SWAP1 PUSH2 0x1D8D JUMP JUMPDEST PUSH1 0x40 MLOAD DUP1 SWAP2 SUB SWAP1 REVERT JUMPDEST PUSH2 0x4E4 DUP2 DUP6 DUP6 PUSH2 0xC34 JUMP JUMPDEST POP POP POP POP JUMP JUMPDEST PUSH1 0x0 DUP1 CALLER SWAP1 POP DUP1 EXTCODESIZE SWAP2 POP PUSH1 0x0 DUP3 PUSH4 0xFFFFFFFF AND GT ISZERO PUSH2 0x53E JUMPI PUSH1 0x40 MLOAD PUSH32 0x8C379A000000000000000000000000000000000000000000000000000000000 DUP2 MSTORE PUSH1 0x4 ADD PUSH2 0x535 SWAP1 PUSH2 0x1E0D JUMP JUMPDEST PUSH1 0x40 MLOAD DUP1 SWAP2 SUB SWAP1 REVERT JUMPDEST PUSH1 0x0 PUSH20 0xFFFFFFFFFFFFFFFFFFFFFFFFFFFFFFFFFFFFFFFF AND PUSH1 0x5 PUSH1 0x0 CALLER PUSH20 0xFFFFFFFFFFFFFFFFFFFFFFFFFFFFFFFFFFFFFFFF AND PUSH20 0xFFFFFFFFFFFFFFFFFFFFFFFFFFFFFFFFFFFFFFFF AND DUP2 MSTORE PUSH1 0x20 ADD SWAP1 DUP2 MSTORE PUSH1 0x20 ADD PUSH1 0x0 KECCAK256 PUSH1 0x1 ADD PUSH1 0x0 SWAP1 SLOAD SWAP1 PUSH2 0x100 EXP SWAP1 DIV PUSH20 0xFFFFFFFFFFFFFFFFFFFFFFFFFFFFFFFFFFFFFFFF AND PUSH20 0xFFFFFFFFFFFFFFFFFFFFFFFFFFFFFFFFFFFFFFFF AND EQ PUSH2 0x60F JUMPI PUSH1 0x40 MLOAD PUSH32 0x8C379A000000000000000000000000000000000000000000000000000000000 DUP2 MSTORE PUSH1 0x4 ADD PUSH2 0x606 SWAP1 PUSH2 0x1DAD JUMP JUMPDEST PUSH1 0x40 MLOAD DUP1 SWAP2 SUB SWAP1 REVERT JUMPDEST PUSH8 0xDE0B6B3A7640000 CALLVALUE EQ PUSH2 0x659 JUMPI PUSH1 0x40 MLOAD PUSH32 0x8C379A000000000000000000000000000000000000000000000000000000000 DUP2 MSTORE PUSH1 0x4 ADD PUSH2 0x650 SWAP1 PUSH2 0x1DED JUMP JUMPDEST PUSH1 0x40 MLOAD DUP1 SWAP2 SUB SWAP1 REVERT JUMPDEST PUSH1 0x40 MLOAD DUP1 PUSH1 0x60 ADD PUSH1 0x40 MSTORE DUP1 PUSH1 0x0 SLOAD DUP2 MSTORE PUSH1 0x20 ADD CALLER PUSH20 0xFFFFFFFFFFFFFFFFFFFFFFFFFFFFFFFFFFFFFFFF AND DUP2 MSTORE PUSH1 0x20 ADD DUP5 DUP2 MSTORE POP PUSH1 0x5 PUSH1 0x0 CALLER PUSH20 0xFFFFFFFFFFFFFFFFFFFFFFFFFFFFFFFFFFFFFFFF AND PUSH20 0xFFFFFFFFFFFFFFFFFFFFFFFFFFFFFFFFFFFFFFFF AND DUP2 MSTORE PUSH1 0x20 ADD SWAP1 DUP2 MSTORE PUSH1 0x20 ADD PUSH1 0x0 KECCAK256 PUSH1 0x0 DUP3 ADD MLOAD DUP2 PUSH1 0x0 ADD SSTORE PUSH1 0x20 DUP3 ADD MLOAD DUP2 PUSH1 0x1 ADD PUSH1 0x0 PUSH2 0x100 EXP DUP2 SLOAD DUP2 PUSH20 0xFFFFFFFFFFFFFFFFFFFFFFFFFFFFFFFFFFFFFFFF MUL NOT AND SWAP1 DUP4 PUSH20 0xFFFFFFFFFFFFFFFFFFFFFFFFFFFFFFFFFFFFFFFF AND MUL OR SWAP1 SSTORE POP PUSH1 0x40 DUP3 ADD MLOAD DUP2 PUSH1 0x2 ADD SSTORE SWAP1 POP POP CALLER PUSH1 0x3 PUSH1 0x0 DUP1 SLOAD DUP2 MSTORE PUSH1 0x20 ADD SWAP1 DUP2 MSTORE PUSH1 0x20 ADD PUSH1 0x0 KECCAK256 PUSH1 0x0 PUSH2 0x100 EXP DUP2 SLOAD DUP2 PUSH20 0xFFFFFFFFFFFFFFFFFFFFFFFFFFFFFFFFFFFFFFFF MUL NOT AND SWAP1 DUP4 PUSH20 0xFFFFFFFFFFFFFFFFFFFFFFFFFFFFFFFFFFFFFFFF AND MUL OR SWAP1 SSTORE POP PUSH1 0x1 PUSH1 0x0 DUP1 DUP3 DUP3 SLOAD PUSH2 0x78E SWAP2 SWAP1 PUSH2 0x1F92 JUMP JUMPDEST SWAP3 POP POP DUP2 SWAP1 SSTORE POP PUSH1 0x1 PUSH1 0x4 PUSH1 0x0 DUP6 DUP2 MSTORE PUSH1 0x20 ADD SWAP1 DUP2 MSTORE PUSH1 0x20 ADD PUSH1 0x0 KECCAK256 PUSH1 0x0 DUP3 DUP3 SLOAD PUSH2 0x7B9 SWAP2 SWAP1 PUSH2 0x1F92 JUMP JUMPDEST SWAP3 POP POP DUP2 SWAP1 SSTORE POP PUSH32 0x12888A3214FA3B6D599E2A7D3FF41E8AA7EF1295FE3BA5D428825DF6DA086885 PUSH1 0x1 PUSH1 0x0 SLOAD PUSH2 0x7F0 SWAP2 SWAP1 PUSH2 0x20AA JUMP JUMPDEST DUP5 PUSH1 0x1 PUSH1 0x4 PUSH1 0x0 DUP9 DUP2 MSTORE PUSH1 0x20 ADD SWAP1 DUP2 MSTORE PUSH1 0x20 ADD PUSH1 0x0 KECCAK256 SLOAD PUSH2 0x811 SWAP2 SWAP1 PUSH2 0x20AA JUMP JUMPDEST PUSH1 0x40 MLOAD PUSH2 0x820 SWAP4 SWAP3 SWAP2 SWAP1 PUSH2 0x1E7F JUMP JUMPDEST PUSH1 0x40 MLOAD DUP1 SWAP2 SUB SWAP1 LOG1 POP POP POP JUMP JUMPDEST PUSH1 0x5 PUSH1 0x20 MSTORE DUP1 PUSH1 0x0 MSTORE PUSH1 0x40 PUSH1 0x0 KECCAK256 PUSH1 0x0 SWAP2 POP SWAP1 POP DUP1 PUSH1 0x0 ADD SLOAD SWAP1 DUP1 PUSH1 0x1 ADD PUSH1 0x0 SWAP1 SLOAD SWAP1 PUSH2 0x100 EXP SWAP1 DIV PUSH20 0xFFFFFFFFFFFFFFFFFFFFFFFFFFFFFFFFFFFFFFFF AND SWAP1 DUP1 PUSH1 0x2 ADD SLOAD SWAP1 POP DUP4 JUMP JUMPDEST PUSH1 0x9 PUSH1 0x20 MSTORE DUP2 PUSH1 0x0 MSTORE PUSH1 0x40 PUSH1 0x0 KECCAK256 PUSH1 0x20 MSTORE DUP1 PUSH1 0x0 MSTORE PUSH1 0x40 PUSH1 0x0 KECCAK256 PUSH1 0x0 SWAP2 POP SWAP2 POP SWAP1 SLOAD SWAP1 PUSH2 0x100 EXP SWAP1 DIV PUSH1 0xFF AND DUP2 JUMP JUMPDEST PUSH1 0x0 PUSH20 0xFFFFFFFFFFFFFFFFFFFFFFFFFFFFFFFFFFFFFFFF AND PUSH1 0x5 PUSH1 0x0 CALLER PUSH20 0xFFFFFFFFFFFFFFFFFFFFFFFFFFFFFFFFFFFFFFFF AND PUSH20 0xFFFFFFFFFFFFFFFFFFFFFFFFFFFFFFFFFFFFFFFF AND DUP2 MSTORE PUSH1 0x20 ADD SWAP1 DUP2 MSTORE PUSH1 0x20 ADD PUSH1 0x0 KECCAK256 PUSH1 0x1 ADD PUSH1 0x0 SWAP1 SLOAD SWAP1 PUSH2 0x100 EXP SWAP1 DIV PUSH20 0xFFFFFFFFFFFFFFFFFFFFFFFFFFFFFFFFFFFFFFFF AND PUSH20 0xFFFFFFFFFFFFFFFFFFFFFFFFFFFFFFFFFFFFFFFF AND EQ ISZERO PUSH2 0x942 JUMPI PUSH1 0x0 DUP1 REVERT JUMPDEST PUSH2 0x94D DUP2 CALLER CALLVALUE PUSH2 0xC34 JUMP JUMPDEST POP JUMP JUMPDEST PUSH1 0x0 DUP1 PUSH2 0x967 PUSH1 0x2 DUP5 PUSH2 0x1A9D SWAP1 SWAP2 SWAP1 PUSH4 0xFFFFFFFF AND JUMP JUMPDEST EQ PUSH2 0x985 JUMPI PUSH2 0x980 PUSH1 0x2 DUP4 PUSH2 0x1AB3 SWAP1 SWAP2 SWAP1 PUSH4 0xFFFFFFFF AND JUMP JUMPDEST PUSH2 0x988 JUMP JUMPDEST PUSH1 0x0 JUMPDEST SWAP1 POP SWAP2 SWAP1 POP JUMP JUMPDEST PUSH1 0x0 DUP2 PUSH20 0xFFFFFFFFFFFFFFFFFFFFFFFFFFFFFFFFFFFFFFFF AND BALANCE SWAP1 POP SWAP2 SWAP1 POP JUMP JUMPDEST PUSH1 0x0 SLOAD DUP2 JUMP JUMPDEST PUSH1 0x7 PUSH1 0x20 MSTORE DUP2 PUSH1 0x0 MSTORE PUSH1 0x40 PUSH1 0x0 KECCAK256 PUSH1 0x20 MSTORE DUP1 PUSH1 0x0 MSTORE PUSH1 0x40 PUSH1 0x0 KECCAK256 PUSH1 0x0 SWAP2 POP SWAP2 POP POP DUP1 PUSH1 0x0 ADD SLOAD SWAP1 DUP1 PUSH1 0x1 ADD PUSH1 0x0 SWAP1 SLOAD SWAP1 PUSH2 0x100 EXP SWAP1 DIV PUSH20 0xFFFFFFFFFFFFFFFFFFFFFFFFFFFFFFFFFFFFFFFF AND SWAP1 DUP1 PUSH1 0x2 ADD SLOAD SWAP1 POP DUP4 JUMP JUMPDEST PUSH1 0x2 PUSH1 0x20 MSTORE DUP1 PUSH1 0x0 MSTORE PUSH1 0x40 PUSH1 0x0 KECCAK256 PUSH1 0x0 SWAP2 POP SWAP1 POP DUP1 PUSH1 0x0 ADD PUSH1 0x0 SWAP1 SLOAD SWAP1 PUSH2 0x100 EXP SWAP1 DIV PUSH1 0xFF AND SWAP1 DUP1 PUSH1 0x1 ADD SLOAD SWAP1 POP DUP3 JUMP JUMPDEST PUSH1 0x0 PUSH1 0x1 DUP1 SLOAD SWAP1 PUSH2 0x100 EXP SWAP1 DIV PUSH20 0xFFFFFFFFFFFFFFFFFFFFFFFFFFFFFFFFFFFFFFFF AND PUSH20 0xFFFFFFFFFFFFFFFFFFFFFFFFFFFFFFFFFFFFFFFF AND DUP3 PUSH20 0xFFFFFFFFFFFFFFFFFFFFFFFFFFFFFFFFFFFFFFFF AND EQ SWAP1 POP SWAP2 SWAP1 POP JUMP JUMPDEST PUSH1 0x6 PUSH1 0x20 MSTORE DUP1 PUSH1 0x0 MSTORE PUSH1 0x40 PUSH1 0x0 KECCAK256 PUSH1 0x0 SWAP2 POP SWAP1 POP SLOAD DUP2 JUMP JUMPDEST PUSH1 0x1 PUSH1 0x0 SWAP1 SLOAD SWAP1 PUSH2 0x100 EXP SWAP1 DIV PUSH1 0xFF AND DUP2 JUMP JUMPDEST PUSH2 0xACA CALLER PUSH2 0xA3E JUMP JUMPDEST PUSH2 0xAD3 JUMPI PUSH1 0x0 DUP1 REVERT JUMPDEST PUSH1 0x40 MLOAD DUP1 PUSH1 0x40 ADD PUSH1 0x40 MSTORE DUP1 PUSH1 0x1 PUSH1 0x0 SWAP1 SLOAD SWAP1 PUSH2 0x100 EXP SWAP1 DIV PUSH1 0xFF AND PUSH1 0xFF AND DUP2 MSTORE PUSH1 0x20 ADD DUP3 DUP2 MSTORE POP PUSH1 0x2 PUSH1 0x0 PUSH1 0x1 PUSH1 0x0 SWAP1 SLOAD SWAP1 PUSH2 0x100 EXP SWAP1 DIV PUSH1 0xFF AND PUSH1 0xFF AND PUSH1 0xFF AND DUP2 MSTORE PUSH1 0x20 ADD SWAP1 DUP2 MSTORE PUSH1 0x20 ADD PUSH1 0x0 KECCAK256 PUSH1 0x0 DUP3 ADD MLOAD DUP2 PUSH1 0x0 ADD PUSH1 0x0 PUSH2 0x100 EXP DUP2 SLOAD DUP2 PUSH1 0xFF MUL NOT AND SWAP1 DUP4 PUSH1 0xFF AND MUL OR SWAP1 SSTORE POP PUSH1 0x20 DUP3 ADD MLOAD DUP2 PUSH1 0x1 ADD SSTORE SWAP1 POP POP PUSH1 0x1 DUP1 PUSH1 0x0 DUP3 DUP3 DUP3 SWAP1 SLOAD SWAP1 PUSH2 0x100 EXP SWAP1 DIV PUSH1 0xFF AND PUSH2 0xB6E SWAP2 SWAP1 PUSH2 0x1FE8 JUMP JUMPDEST SWAP3 POP PUSH2 0x100 EXP DUP2 SLOAD DUP2 PUSH1 0xFF MUL NOT AND SWAP1 DUP4 PUSH1 0xFF AND MUL OR SWAP1 SSTORE POP PUSH32 0xCF1ED532D6B83B4290F2F407B156B17826F49752E7A8FF360F502C307E055663 PUSH1 0x1 DUP1 PUSH1 0x0 SWAP1 SLOAD SWAP1 PUSH2 0x100 EXP SWAP1 DIV PUSH1 0xFF AND PUSH2 0xBC2 SWAP2 SWAP1 PUSH2 0x20DE JUMP JUMPDEST DUP3 PUSH1 0x40 MLOAD PUSH2 0xBD1 SWAP3 SWAP2 SWAP1 PUSH2 0x1F08 JUMP JUMPDEST PUSH1 0x40 MLOAD DUP1 SWAP2 SUB SWAP1 LOG1 POP JUMP JUMPDEST PUSH1 0x3 PUSH1 0x20 MSTORE DUP1 PUSH1 0x0 MSTORE PUSH1 0x40 PUSH1 0x0 KECCAK256 PUSH1 0x0 SWAP2 POP SLOAD SWAP1 PUSH2 0x100 EXP SWAP1 DIV PUSH20 0xFFFFFFFFFFFFFFFFFFFFFFFFFFFFFFFFFFFFFFFF AND DUP2 JUMP JUMPDEST PUSH1 0x8 PUSH1 0x20 MSTORE DUP2 PUSH1 0x0 MSTORE PUSH1 0x40 PUSH1 0x0 KECCAK256 PUSH1 0x20 MSTORE DUP1 PUSH1 0x0 MSTORE PUSH1 0x40 PUSH1 0x0 KECCAK256 PUSH1 0x0 SWAP2 POP SWAP2 POP POP SLOAD DUP2 JUMP JUMPDEST PUSH1 0x2 PUSH1 0x0 DUP5 PUSH1 0xFF AND PUSH1 0xFF AND DUP2 MSTORE PUSH1 0x20 ADD SWAP1 DUP2 MSTORE PUSH1 0x20 ADD PUSH1 0x0 KECCAK256 PUSH1 0x1 ADD SLOAD DUP2 LT ISZERO PUSH2 0xC93 JUMPI PUSH1 0x40 MLOAD PUSH32 0x8C379A000000000000000000000000000000000000000000000000000000000 DUP2 MSTORE PUSH1 0x4 ADD PUSH2 0xC8A SWAP1 PUSH2 0x1DCD JUMP JUMPDEST PUSH1 0x40 MLOAD DUP1 SWAP2 SUB SWAP1 REVERT JUMPDEST PUSH1 0x5 PUSH1 0x0 DUP4 PUSH20 0xFFFFFFFFFFFFFFFFFFFFFFFFFFFFFFFFFFFFFFFF AND PUSH20 0xFFFFFFFFFFFFFFFFFFFFFFFFFFFFFFFFFFFFFFFF AND DUP2 MSTORE PUSH1 0x20 ADD SWAP1 DUP2 MSTORE PUSH1 0x20 ADD PUSH1 0x0 KECCAK256 PUSH1 0x7 PUSH1 0x0 DUP6 PUSH1 0xFF AND PUSH1 0xFF AND DUP2 MSTORE PUSH1 0x20 ADD SWAP1 DUP2 MSTORE PUSH1 0x20 ADD PUSH1 0x0 KECCAK256 PUSH1 0x0 PUSH1 0x6 PUSH1 0x0 DUP8 PUSH1 0xFF AND PUSH1 0xFF AND DUP2 MSTORE PUSH1 0x20 ADD SWAP1 DUP2 MSTORE PUSH1 0x20 ADD PUSH1 0x0 KECCAK256 SLOAD DUP2 MSTORE PUSH1 0x20 ADD SWAP1 DUP2 MSTORE PUSH1 0x20 ADD PUSH1 0x0 KECCAK256 PUSH1 0x0 DUP3 ADD SLOAD DUP2 PUSH1 0x0 ADD SSTORE PUSH1 0x1 DUP3 ADD PUSH1 0x0 SWAP1 SLOAD SWAP1 PUSH2 0x100 EXP SWAP1 DIV PUSH20 0xFFFFFFFFFFFFFFFFFFFFFFFFFFFFFFFFFFFFFFFF AND DUP2 PUSH1 0x1 ADD PUSH1 0x0 PUSH2 0x100 EXP DUP2 SLOAD DUP2 PUSH20 0xFFFFFFFFFFFFFFFFFFFFFFFFFFFFFFFFFFFFFFFF MUL NOT AND SWAP1 DUP4 PUSH20 0xFFFFFFFFFFFFFFFFFFFFFFFFFFFFFFFFFFFFFFFF AND MUL OR SWAP1 SSTORE POP PUSH1 0x2 DUP3 ADD SLOAD DUP2 PUSH1 0x2 ADD SSTORE SWAP1 POP POP PUSH1 0x1 PUSH1 0x9 PUSH1 0x0 DUP5 PUSH20 0xFFFFFFFFFFFFFFFFFFFFFFFFFFFFFFFFFFFFFFFF AND PUSH20 0xFFFFFFFFFFFFFFFFFFFFFFFFFFFFFFFFFFFFFFFF AND DUP2 MSTORE PUSH1 0x20 ADD SWAP1 DUP2 MSTORE PUSH1 0x20 ADD PUSH1 0x0 KECCAK256 PUSH1 0x0 DUP6 PUSH1 0xFF AND PUSH1 0xFF AND DUP2 MSTORE PUSH1 0x20 ADD SWAP1 DUP2 MSTORE PUSH1 0x20 ADD PUSH1 0x0 KECCAK256 PUSH1 0x0 PUSH2 0x100 EXP DUP2 SLOAD DUP2 PUSH1 0xFF MUL NOT AND SWAP1 DUP4 ISZERO ISZERO MUL OR SWAP1 SSTORE POP PUSH1 0x1 PUSH1 0x6 PUSH1 0x0 DUP6 PUSH1 0xFF AND PUSH1 0xFF AND DUP2 MSTORE PUSH1 0x20 ADD SWAP1 DUP2 MSTORE PUSH1 0x20 ADD PUSH1 0x0 KECCAK256 PUSH1 0x0 DUP3 DUP3 SLOAD PUSH2 0xE2C SWAP2 SWAP1 PUSH2 0x1F92 JUMP JUMPDEST SWAP3 POP POP DUP2 SWAP1 SSTORE POP PUSH1 0x3 PUSH1 0x6 PUSH1 0x0 DUP6 PUSH1 0xFF AND PUSH1 0xFF AND DUP2 MSTORE PUSH1 0x20 ADD SWAP1 DUP2 MSTORE PUSH1 0x20 ADD PUSH1 0x0 KECCAK256 SLOAD LT PUSH2 0x1A98 JUMPI PUSH1 0x0 PUSH2 0xE78 PUSH1 0x6 PUSH1 0x0 DUP7 PUSH1 0xFF AND PUSH1 0xFF AND DUP2 MSTORE PUSH1 0x20 ADD SWAP1 DUP2 MSTORE PUSH1 0x20 ADD PUSH1 0x0 KECCAK256 SLOAD PUSH2 0x950 JUMP JUMPDEST SWAP1 POP JUMPDEST PUSH1 0x0 DUP2 EQ PUSH2 0x1A96 JUMPI PUSH1 0x0 PUSH1 0x7 PUSH1 0x0 DUP7 PUSH1 0xFF AND PUSH1 0xFF AND DUP2 MSTORE PUSH1 0x20 ADD SWAP1 DUP2 MSTORE PUSH1 0x20 ADD PUSH1 0x0 KECCAK256 PUSH1 0x0 PUSH1 0x1 DUP5 PUSH2 0xEAD SWAP2 SWAP1 PUSH2 0x20AA JUMP JUMPDEST DUP2 MSTORE PUSH1 0x20 ADD SWAP1 DUP2 MSTORE PUSH1 0x20 ADD PUSH1 0x0 KECCAK256 PUSH1 0x1 ADD PUSH1 0x0 SWAP1 SLOAD SWAP1 PUSH2 0x100 EXP SWAP1 DIV PUSH20 0xFFFFFFFFFFFFFFFFFFFFFFFFFFFFFFFFFFFFFFFF AND SWAP1 POP PUSH1 0x1 PUSH1 0x8 PUSH1 0x0 DUP4 PUSH20 0xFFFFFFFFFFFFFFFFFFFFFFFFFFFFFFFFFFFFFFFF AND PUSH20 0xFFFFFFFFFFFFFFFFFFFFFFFFFFFFFFFFFFFFFFFF AND DUP2 MSTORE PUSH1 0x20 ADD SWAP1 DUP2 MSTORE PUSH1 0x20 ADD PUSH1 0x0 KECCAK256 PUSH1 0x0 DUP8 PUSH1 0xFF AND PUSH1 0xFF AND DUP2 MSTORE PUSH1 0x20 ADD SWAP1 DUP2 MSTORE PUSH1 0x20 ADD PUSH1 0x0 KECCAK256 SLOAD GT ISZERO DUP1 PUSH2 0xFB3 JUMPI POP PUSH1 0x9 PUSH1 0x0 DUP3 PUSH20 0xFFFFFFFFFFFFFFFFFFFFFFFFFFFFFFFFFFFFFFFF AND PUSH20 0xFFFFFFFFFFFFFFFFFFFFFFFFFFFFFFFFFFFFFFFF AND DUP2 MSTORE PUSH1 0x20 ADD SWAP1 DUP2 MSTORE PUSH1 0x20 ADD PUSH1 0x0 KECCAK256 PUSH1 0x0 PUSH1 0x1 DUP8 PUSH2 0xF90 SWAP2 SWAP1 PUSH2 0x1FE8 JUMP JUMPDEST PUSH1 0xFF AND PUSH1 0xFF AND DUP2 MSTORE PUSH1 0x20 ADD SWAP1 DUP2 MSTORE PUSH1 0x20 ADD PUSH1 0x0 KECCAK256 PUSH1 0x0 SWAP1 SLOAD SWAP1 PUSH2 0x100 EXP SWAP1 DIV PUSH1 0xFF AND JUMPDEST ISZERO PUSH2 0x1A85 JUMPI PUSH1 0x0 DUP2 PUSH20 0xFFFFFFFFFFFFFFFFFFFFFFFFFFFFFFFFFFFFFFFF AND PUSH2 0x1014 PUSH1 0x64 PUSH2 0x1006 PUSH1 0x4A PUSH1 0x2 PUSH1 0x0 DUP13 PUSH1 0xFF AND PUSH1 0xFF AND DUP2 MSTORE PUSH1 0x20 ADD SWAP1 DUP2 MSTORE PUSH1 0x20 ADD PUSH1 0x0 KECCAK256 PUSH1 0x1 ADD SLOAD PUSH2 0x1AC9 SWAP1 SWAP2 SWAP1 PUSH4 0xFFFFFFFF AND JUMP JUMPDEST PUSH2 0x1AB3 SWAP1 SWAP2 SWAP1 PUSH4 0xFFFFFFFF AND JUMP JUMPDEST PUSH1 0x40 MLOAD PUSH2 0x1020 SWAP1 PUSH2 0x1D42 JUMP JUMPDEST PUSH1 0x0 PUSH1 0x40 MLOAD DUP1 DUP4 SUB DUP2 DUP6 DUP8 GAS CALL SWAP3 POP POP POP RETURNDATASIZE DUP1 PUSH1 0x0 DUP2 EQ PUSH2 0x105D JUMPI PUSH1 0x40 MLOAD SWAP2 POP PUSH1 0x1F NOT PUSH1 0x3F RETURNDATASIZE ADD AND DUP3 ADD PUSH1 0x40 MSTORE RETURNDATASIZE DUP3 MSTORE RETURNDATASIZE PUSH1 0x0 PUSH1 0x20 DUP5 ADD RETURNDATACOPY PUSH2 0x1062 JUMP JUMPDEST PUSH1 0x60 SWAP2 POP JUMPDEST POP POP SWAP1 POP PUSH1 0x1 PUSH1 0x8 PUSH1 0x0 DUP5 PUSH20 0xFFFFFFFFFFFFFFFFFFFFFFFFFFFFFFFFFFFFFFFF AND PUSH20 0xFFFFFFFFFFFFFFFFFFFFFFFFFFFFFFFFFFFFFFFF AND DUP2 MSTORE PUSH1 0x20 ADD SWAP1 DUP2 MSTORE PUSH1 0x20 ADD PUSH1 0x0 KECCAK256 PUSH1 0x0 DUP9 PUSH1 0xFF AND PUSH1 0xFF AND DUP2 MSTORE PUSH1 0x20 ADD SWAP1 DUP2 MSTORE PUSH1 0x20 ADD PUSH1 0x0 KECCAK256 PUSH1 0x0 DUP3 DUP3 SLOAD PUSH2 0x10CD SWAP2 SWAP1 PUSH2 0x1F92 JUMP JUMPDEST SWAP3 POP POP DUP2 SWAP1 SSTORE POP PUSH32 0xD9FF1D189BD8473F87A70327222795B92238D06F3EDF14FA23403AC2153C10A9 PUSH1 0x2 PUSH1 0x0 DUP9 PUSH1 0xFF AND PUSH1 0xFF AND DUP2 MSTORE PUSH1 0x20 ADD SWAP1 DUP2 MSTORE PUSH1 0x20 ADD PUSH1 0x0 KECCAK256 PUSH1 0x0 ADD PUSH1 0x0 SWAP1 SLOAD SWAP1 PUSH2 0x100 EXP SWAP1 DIV PUSH1 0xFF AND DUP4 DUP4 PUSH1 0x40 MLOAD PUSH2 0x1130 SWAP4 SWAP3 SWAP2 SWAP1 PUSH2 0x1ED1 JUMP JUMPDEST PUSH1 0x40 MLOAD DUP1 SWAP2 SUB SWAP1 LOG1 PUSH1 0x0 PUSH1 0x7 PUSH1 0x0 DUP9 PUSH1 0xFF AND PUSH1 0xFF AND DUP2 MSTORE PUSH1 0x20 ADD SWAP1 DUP2 MSTORE PUSH1 0x20 ADD PUSH1 0x0 KECCAK256 PUSH1 0x0 PUSH1 0x1 DUP7 PUSH2 0x1162 SWAP2 SWAP1 PUSH2 0x20AA JUMP JUMPDEST DUP2 MSTORE PUSH1 0x20 ADD SWAP1 DUP2 MSTORE PUSH1 0x20 ADD PUSH1 0x0 KECCAK256 PUSH1 0x0 ADD SLOAD SWAP1 POP PUSH1 0x0 PUSH1 0x7 PUSH1 0x0 DUP10 PUSH1 0xFF AND PUSH1 0xFF AND DUP2 MSTORE PUSH1 0x20 ADD SWAP1 DUP2 MSTORE PUSH1 0x20 ADD PUSH1 0x0 KECCAK256 PUSH1 0x0 PUSH1 0x1 DUP8 PUSH2 0x11A0 SWAP2 SWAP1 PUSH2 0x20AA JUMP JUMPDEST DUP2 MSTORE PUSH1 0x20 ADD SWAP1 DUP2 MSTORE PUSH1 0x20 ADD PUSH1 0x0 KECCAK256 PUSH1 0x2 ADD SLOAD SWAP1 POP PUSH1 0x0 PUSH1 0x64 PUSH1 0xA PUSH1 0x2 PUSH1 0x0 DUP13 PUSH1 0xFF AND PUSH1 0xFF AND DUP2 MSTORE PUSH1 0x20 ADD SWAP1 DUP2 MSTORE PUSH1 0x20 ADD PUSH1 0x0 KECCAK256 PUSH1 0x1 ADD SLOAD PUSH2 0x11E1 SWAP2 SWAP1 PUSH2 0x2050 JUMP JUMPDEST PUSH2 0x11EB SWAP2 SWAP1 PUSH2 0x201F JUMP JUMPDEST SWAP1 POP PUSH1 0x3 PUSH1 0x0 DUP4 DUP2 MSTORE PUSH1 0x20 ADD SWAP1 DUP2 MSTORE PUSH1 0x20 ADD PUSH1 0x0 KECCAK256 PUSH1 0x0 SWAP1 SLOAD SWAP1 PUSH2 0x100 EXP SWAP1 DIV PUSH20 0xFFFFFFFFFFFFFFFFFFFFFFFFFFFFFFFFFFFFFFFF AND PUSH20 0xFFFFFFFFFFFFFFFFFFFFFFFFFFFFFFFFFFFFFFFF AND DUP2 PUSH1 0x40 MLOAD PUSH2 0x1244 SWAP1 PUSH2 0x1D42 JUMP JUMPDEST PUSH1 0x0 PUSH1 0x40 MLOAD DUP1 DUP4 SUB DUP2 DUP6 DUP8 GAS CALL SWAP3 POP POP POP RETURNDATASIZE DUP1 PUSH1 0x0 DUP2 EQ PUSH2 0x1281 JUMPI PUSH1 0x40 MLOAD SWAP2 POP PUSH1 0x1F NOT PUSH1 0x3F RETURNDATASIZE ADD AND DUP3 ADD PUSH1 0x40 MSTORE RETURNDATASIZE DUP3 MSTORE RETURNDATASIZE PUSH1 0x0 PUSH1 0x20 DUP5 ADD RETURNDATACOPY PUSH2 0x1286 JUMP JUMPDEST PUSH1 0x60 SWAP2 POP JUMPDEST POP POP DUP1 SWAP5 POP POP DUP4 ISZERO PUSH2 0x12F9 JUMPI PUSH32 0xAFE90BC52FC3DD02B2550B825FC68E93B4BFBCB8165BBACDA6CD14B2BAD5BC02 PUSH1 0x2 PUSH1 0x0 DUP12 PUSH1 0xFF AND PUSH1 0xFF AND DUP2 MSTORE PUSH1 0x20 ADD SWAP1 DUP2 MSTORE PUSH1 0x20 ADD PUSH1 0x0 KECCAK256 PUSH1 0x0 ADD PUSH1 0x0 SWAP1 SLOAD SWAP1 PUSH2 0x100 EXP SWAP1 DIV PUSH1 0xFF AND DUP5 DUP5 DUP5 PUSH1 0x40 MLOAD PUSH2 0x12F0 SWAP5 SWAP4 SWAP3 SWAP2 SWAP1 PUSH2 0x1F31 JUMP JUMPDEST PUSH1 0x40 MLOAD DUP1 SWAP2 SUB SWAP1 LOG1 JUMPDEST PUSH1 0x64 PUSH1 0x6 PUSH1 0x2 PUSH1 0x0 DUP13 PUSH1 0xFF AND PUSH1 0xFF AND DUP2 MSTORE PUSH1 0x20 ADD SWAP1 DUP2 MSTORE PUSH1 0x20 ADD PUSH1 0x0 KECCAK256 PUSH1 0x1 ADD SLOAD PUSH2 0x1324 SWAP2 SWAP1 PUSH2 0x2050 JUMP JUMPDEST PUSH2 0x132E SWAP2 SWAP1 PUSH2 0x201F JUMP JUMPDEST SWAP1 POP PUSH1 0x5 PUSH1 0x0 PUSH1 0x3 PUSH1 0x0 DUP6 DUP2 MSTORE PUSH1 0x20 ADD SWAP1 DUP2 MSTORE PUSH1 0x20 ADD PUSH1 0x0 KECCAK256 PUSH1 0x0 SWAP1 SLOAD SWAP1 PUSH2 0x100 EXP SWAP1 DIV PUSH20 0xFFFFFFFFFFFFFFFFFFFFFFFFFFFFFFFFFFFFFFFF AND PUSH20 0xFFFFFFFFFFFFFFFFFFFFFFFFFFFFFFFFFFFFFFFF AND PUSH20 0xFFFFFFFFFFFFFFFFFFFFFFFFFFFFFFFFFFFFFFFF AND DUP2 MSTORE PUSH1 0x20 ADD SWAP1 DUP2 MSTORE PUSH1 0x20 ADD PUSH1 0x0 KECCAK256 PUSH1 0x1 ADD PUSH1 0x0 SWAP1 SLOAD SWAP1 PUSH2 0x100 EXP SWAP1 DIV PUSH20 0xFFFFFFFFFFFFFFFFFFFFFFFFFFFFFFFFFFFFFFFF AND PUSH20 0xFFFFFFFFFFFFFFFFFFFFFFFFFFFFFFFFFFFFFFFF AND DUP2 PUSH1 0x40 MLOAD PUSH2 0x13E9 SWAP1 PUSH2 0x1D42 JUMP JUMPDEST PUSH1 0x0 PUSH1 0x40 MLOAD DUP1 DUP4 SUB DUP2 DUP6 DUP8 GAS CALL SWAP3 POP POP POP RETURNDATASIZE DUP1 PUSH1 0x0 DUP2 EQ PUSH2 0x1426 JUMPI PUSH1 0x40 MLOAD SWAP2 POP PUSH1 0x1F NOT PUSH1 0x3F RETURNDATASIZE ADD AND DUP3 ADD PUSH1 0x40 MSTORE RETURNDATASIZE DUP3 MSTORE RETURNDATASIZE PUSH1 0x0 PUSH1 0x20 DUP5 ADD RETURNDATACOPY PUSH2 0x142B JUMP JUMPDEST PUSH1 0x60 SWAP2 POP JUMPDEST POP POP DUP1 SWAP5 POP POP DUP4 ISZERO PUSH2 0x1513 JUMPI PUSH32 0xAFE90BC52FC3DD02B2550B825FC68E93B4BFBCB8165BBACDA6CD14B2BAD5BC02 PUSH1 0x2 PUSH1 0x0 DUP12 PUSH1 0xFF AND PUSH1 0xFF AND DUP2 MSTORE PUSH1 0x20 ADD SWAP1 DUP2 MSTORE PUSH1 0x20 ADD PUSH1 0x0 KECCAK256 PUSH1 0x0 ADD PUSH1 0x0 SWAP1 SLOAD SWAP1 PUSH2 0x100 EXP SWAP1 DIV PUSH1 0xFF AND DUP4 PUSH1 0x5 PUSH1 0x0 PUSH1 0x3 PUSH1 0x0 DUP9 DUP2 MSTORE PUSH1 0x20 ADD SWAP1 DUP2 MSTORE PUSH1 0x20 ADD PUSH1 0x0 KECCAK256 PUSH1 0x0 SWAP1 SLOAD SWAP1 PUSH2 0x100 EXP SWAP1 DIV PUSH20 0xFFFFFFFFFFFFFFFFFFFFFFFFFFFFFFFFFFFFFFFF AND PUSH20 0xFFFFFFFFFFFFFFFFFFFFFFFFFFFFFFFFFFFFFFFF AND PUSH20 0xFFFFFFFFFFFFFFFFFFFFFFFFFFFFFFFFFFFFFFFF AND DUP2 MSTORE PUSH1 0x20 ADD SWAP1 DUP2 MSTORE PUSH1 0x20 ADD PUSH1 0x0 KECCAK256 PUSH1 0x0 ADD SLOAD DUP5 PUSH1 0x40 MLOAD PUSH2 0x150A SWAP5 SWAP4 SWAP3 SWAP2 SWAP1 PUSH2 0x1F31 JUMP JUMPDEST PUSH1 0x40 MLOAD DUP1 SWAP2 SUB SWAP1 LOG1 JUMPDEST PUSH1 0x64 PUSH1 0x4 PUSH1 0x2 PUSH1 0x0 DUP13 PUSH1 0xFF AND PUSH1 0xFF AND DUP2 MSTORE PUSH1 0x20 ADD SWAP1 DUP2 MSTORE PUSH1 0x20 ADD PUSH1 0x0 KECCAK256 PUSH1 0x1 ADD SLOAD PUSH2 0x153E SWAP2 SWAP1 PUSH2 0x2050 JUMP JUMPDEST PUSH2 0x1548 SWAP2 SWAP1 PUSH2 0x201F JUMP JUMPDEST SWAP1 POP PUSH1 0x5 PUSH1 0x0 PUSH1 0x3 PUSH1 0x0 PUSH1 0x5 PUSH1 0x0 PUSH1 0x3 PUSH1 0x0 DUP10 DUP2 MSTORE PUSH1 0x20 ADD SWAP1 DUP2 MSTORE PUSH1 0x20 ADD PUSH1 0x0 KECCAK256 PUSH1 0x0 SWAP1 SLOAD SWAP1 PUSH2 0x100 EXP SWAP1 DIV PUSH20 0xFFFFFFFFFFFFFFFFFFFFFFFFFFFFFFFFFFFFFFFF AND PUSH20 0xFFFFFFFFFFFFFFFFFFFFFFFFFFFFFFFFFFFFFFFF AND PUSH20 0xFFFFFFFFFFFFFFFFFFFFFFFFFFFFFFFFFFFFFFFF AND DUP2 MSTORE PUSH1 0x20 ADD SWAP1 DUP2 MSTORE PUSH1 0x20 ADD PUSH1 0x0 KECCAK256 PUSH1 0x0 ADD SLOAD DUP2 MSTORE PUSH1 0x20 ADD SWAP1 DUP2 MSTORE PUSH1 0x20 ADD PUSH1 0x0 KECCAK256 PUSH1 0x0 SWAP1 SLOAD SWAP1 PUSH2 0x100 EXP SWAP1 DIV PUSH20 0xFFFFFFFFFFFFFFFFFFFFFFFFFFFFFFFFFFFFFFFF AND PUSH20 0xFFFFFFFFFFFFFFFFFFFFFFFFFFFFFFFFFFFFFFFF AND PUSH20 0xFFFFFFFFFFFFFFFFFFFFFFFFFFFFFFFFFFFFFFFF AND DUP2 MSTORE PUSH1 0x20 ADD SWAP1 DUP2 MSTORE PUSH1 0x20 ADD PUSH1 0x0 KECCAK256 PUSH1 0x1 ADD PUSH1 0x0 SWAP1 SLOAD SWAP1 PUSH2 0x100 EXP SWAP1 DIV PUSH20 0xFFFFFFFFFFFFFFFFFFFFFFFFFFFFFFFFFFFFFFFF AND PUSH20 0xFFFFFFFFFFFFFFFFFFFFFFFFFFFFFFFFFFFFFFFF AND DUP2 PUSH1 0x40 MLOAD PUSH2 0x1678 SWAP1 PUSH2 0x1D42 JUMP JUMPDEST PUSH1 0x0 PUSH1 0x40 MLOAD DUP1 DUP4 SUB DUP2 DUP6 DUP8 GAS CALL SWAP3 POP POP POP RETURNDATASIZE DUP1 PUSH1 0x0 DUP2 EQ PUSH2 0x16B5 JUMPI PUSH1 0x40 MLOAD SWAP2 POP PUSH1 0x1F NOT PUSH1 0x3F RETURNDATASIZE ADD AND DUP3 ADD PUSH1 0x40 MSTORE RETURNDATASIZE DUP3 MSTORE RETURNDATASIZE PUSH1 0x0 PUSH1 0x20 DUP5 ADD RETURNDATACOPY PUSH2 0x16BA JUMP JUMPDEST PUSH1 0x60 SWAP2 POP JUMPDEST POP POP DUP1 SWAP5 POP POP DUP4 ISZERO PUSH2 0x188C JUMPI PUSH32 0xAFE90BC52FC3DD02B2550B825FC68E93B4BFBCB8165BBACDA6CD14B2BAD5BC02 PUSH1 0x2 PUSH1 0x0 DUP12 PUSH1 0xFF AND PUSH1 0xFF AND DUP2 MSTORE PUSH1 0x20 ADD SWAP1 DUP2 MSTORE PUSH1 0x20 ADD PUSH1 0x0 KECCAK256 PUSH1 0x0 ADD PUSH1 0x0 SWAP1 SLOAD SWAP1 PUSH2 0x100 EXP SWAP1 DIV PUSH1 0xFF AND PUSH1 0x5 PUSH1 0x0 PUSH1 0x3 PUSH1 0x0 DUP8 DUP2 MSTORE PUSH1 0x20 ADD SWAP1 DUP2 MSTORE PUSH1 0x20 ADD PUSH1 0x0 KECCAK256 PUSH1 0x0 SWAP1 SLOAD SWAP1 PUSH2 0x100 EXP SWAP1 DIV PUSH20 0xFFFFFFFFFFFFFFFFFFFFFFFFFFFFFFFFFFFFFFFF AND PUSH20 0xFFFFFFFFFFFFFFFFFFFFFFFFFFFFFFFFFFFFFFFF AND PUSH20 0xFFFFFFFFFFFFFFFFFFFFFFFFFFFFFFFFFFFFFFFF AND DUP2 MSTORE PUSH1 0x20 ADD SWAP1 DUP2 MSTORE PUSH1 0x20 ADD PUSH1 0x0 KECCAK256 PUSH1 0x0 ADD SLOAD PUSH1 0x5 PUSH1 0x0 PUSH1 0x3 PUSH1 0x0 PUSH1 0x5 PUSH1 0x0 PUSH1 0x3 PUSH1 0x0 DUP13 DUP2 MSTORE PUSH1 0x20 ADD SWAP1 DUP2 MSTORE PUSH1 0x20 ADD PUSH1 0x0 KECCAK256 PUSH1 0x0 SWAP1 SLOAD SWAP1 PUSH2 0x100 EXP SWAP1 DIV PUSH20 0xFFFFFFFFFFFFFFFFFFFFFFFFFFFFFFFFFFFFFFFF AND PUSH20 0xFFFFFFFFFFFFFFFFFFFFFFFFFFFFFFFFFFFFFFFF AND PUSH20 0xFFFFFFFFFFFFFFFFFFFFFFFFFFFFFFFFFFFFFFFF AND DUP2 MSTORE PUSH1 0x20 ADD SWAP1 DUP2 MSTORE PUSH1 0x20 ADD PUSH1 0x0 KECCAK256 PUSH1 0x0 ADD SLOAD DUP2 MSTORE PUSH1 0x20 ADD SWAP1 DUP2 MSTORE PUSH1 0x20 ADD PUSH1 0x0 KECCAK256 PUSH1 0x0 SWAP1 SLOAD SWAP1 PUSH2 0x100 EXP SWAP1 DIV PUSH20 0xFFFFFFFFFFFFFFFFFFFFFFFFFFFFFFFFFFFFFFFF AND PUSH20 0xFFFFFFFFFFFFFFFFFFFFFFFFFFFFFFFFFFFFFFFF AND PUSH20 0xFFFFFFFFFFFFFFFFFFFFFFFFFFFFFFFFFFFFFFFF AND DUP2 MSTORE PUSH1 0x20 ADD SWAP1 DUP2 MSTORE PUSH1 0x20 ADD PUSH1 0x0 KECCAK256 PUSH1 0x0 ADD SLOAD DUP5 PUSH1 0x40 MLOAD PUSH2 0x1883 SWAP5 SWAP4 SWAP3 SWAP2 SWAP1 PUSH2 0x1F31 JUMP JUMPDEST PUSH1 0x40 MLOAD DUP1 SWAP2 SUB SWAP1 LOG1 JUMPDEST PUSH1 0x64 PUSH1 0x6 PUSH1 0x2 PUSH1 0x0 DUP13 PUSH1 0xFF AND PUSH1 0xFF AND DUP2 MSTORE PUSH1 0x20 ADD SWAP1 DUP2 MSTORE PUSH1 0x20 ADD PUSH1 0x0 KECCAK256 PUSH1 0x1 ADD SLOAD PUSH2 0x18B7 SWAP2 SWAP1 PUSH2 0x2050 JUMP JUMPDEST PUSH2 0x18C1 SWAP2 SWAP1 PUSH2 0x201F JUMP JUMPDEST SWAP1 POP PUSH1 0x5 PUSH1 0x0 PUSH1 0x1 DUP1 SLOAD SWAP1 PUSH2 0x100 EXP SWAP1 DIV PUSH20 0xFFFFFFFFFFFFFFFFFFFFFFFFFFFFFFFFFFFFFFFF AND PUSH20 0xFFFFFFFFFFFFFFFFFFFFFFFFFFFFFFFFFFFFFFFF AND PUSH20 0xFFFFFFFFFFFFFFFFFFFFFFFFFFFFFFFFFFFFFFFF AND DUP2 MSTORE PUSH1 0x20 ADD SWAP1 DUP2 MSTORE PUSH1 0x20 ADD PUSH1 0x0 KECCAK256 PUSH1 0x1 ADD PUSH1 0x0 SWAP1 SLOAD SWAP1 PUSH2 0x100 EXP SWAP1 DIV PUSH20 0xFFFFFFFFFFFFFFFFFFFFFFFFFFFFFFFFFFFFFFFF AND PUSH20 0xFFFFFFFFFFFFFFFFFFFFFFFFFFFFFFFFFFFFFFFF AND DUP2 PUSH1 0x40 MLOAD PUSH2 0x1969 SWAP1 PUSH2 0x1D42 JUMP JUMPDEST PUSH1 0x0 PUSH1 0x40 MLOAD DUP1 DUP4 SUB DUP2 DUP6 DUP8 GAS CALL SWAP3 POP POP POP RETURNDATASIZE DUP1 PUSH1 0x0 DUP2 EQ PUSH2 0x19A6 JUMPI PUSH1 0x40 MLOAD SWAP2 POP PUSH1 0x1F NOT PUSH1 0x3F RETURNDATASIZE ADD AND DUP3 ADD PUSH1 0x40 MSTORE RETURNDATASIZE DUP3 MSTORE RETURNDATASIZE PUSH1 0x0 PUSH1 0x20 DUP5 ADD RETURNDATACOPY PUSH2 0x19AB JUMP JUMPDEST PUSH1 0x60 SWAP2 POP JUMPDEST POP POP DUP1 SWAP5 POP POP DUP4 ISZERO PUSH2 0x1A80 JUMPI PUSH32 0xAFE90BC52FC3DD02B2550B825FC68E93B4BFBCB8165BBACDA6CD14B2BAD5BC02 PUSH1 0x2 PUSH1 0x0 DUP12 PUSH1 0xFF AND PUSH1 0xFF AND DUP2 MSTORE PUSH1 0x20 ADD SWAP1 DUP2 MSTORE PUSH1 0x20 ADD PUSH1 0x0 KECCAK256 PUSH1 0x0 ADD PUSH1 0x0 SWAP1 SLOAD SWAP1 PUSH2 0x100 EXP SWAP1 DIV PUSH1 0xFF AND DUP5 PUSH1 0x5 PUSH1 0x0 PUSH1 0x1 DUP1 SLOAD SWAP1 PUSH2 0x100 EXP SWAP1 DIV PUSH20 0xFFFFFFFFFFFFFFFFFFFFFFFFFFFFFFFFFFFFFFFF AND PUSH20 0xFFFFFFFFFFFFFFFFFFFFFFFFFFFFFFFFFFFFFFFF AND PUSH20 0xFFFFFFFFFFFFFFFFFFFFFFFFFFFFFFFFFFFFFFFF AND DUP2 MSTORE PUSH1 0x20 ADD SWAP1 DUP2 MSTORE PUSH1 0x20 ADD PUSH1 0x0 KECCAK256 PUSH1 0x0 ADD SLOAD DUP5 PUSH1 0x40 MLOAD PUSH2 0x1A77 SWAP5 SWAP4 SWAP3 SWAP2 SWAP1 PUSH2 0x1F31 JUMP JUMPDEST PUSH1 0x40 MLOAD DUP1 SWAP2 SUB SWAP1 LOG1 JUMPDEST POP POP POP POP JUMPDEST PUSH2 0x1A8E DUP3 PUSH2 0x950 JUMP JUMPDEST SWAP2 POP POP PUSH2 0xE7B JUMP JUMPDEST POP JUMPDEST POP POP POP JUMP JUMPDEST PUSH1 0x0 DUP2 DUP4 PUSH2 0x1AAB SWAP2 SWAP1 PUSH2 0x21A3 JUMP JUMPDEST SWAP1 POP SWAP3 SWAP2 POP POP JUMP JUMPDEST PUSH1 0x0 DUP2 DUP4 PUSH2 0x1AC1 SWAP2 SWAP1 PUSH2 0x201F JUMP JUMPDEST SWAP1 POP SWAP3 SWAP2 POP POP JUMP JUMPDEST PUSH1 0x0 DUP2 DUP4 PUSH2 0x1AD7 SWAP2 SWAP1 PUSH2 0x2050 JUMP JUMPDEST SWAP1 POP SWAP3 SWAP2 POP POP JUMP JUMPDEST PUSH1 0x0 DUP2 CALLDATALOAD SWAP1 POP PUSH2 0x1AEE DUP2 PUSH2 0x2353 JUMP JUMPDEST SWAP3 SWAP2 POP POP JUMP JUMPDEST PUSH1 0x0 DUP2 CALLDATALOAD SWAP1 POP PUSH2 0x1B03 DUP2 PUSH2 0x236A JUMP JUMPDEST SWAP3 SWAP2 POP POP JUMP JUMPDEST PUSH1 0x0 DUP2 CALLDATALOAD SWAP1 POP PUSH2 0x1B18 DUP2 PUSH2 0x2381 JUMP JUMPDEST SWAP3 SWAP2 POP POP JUMP JUMPDEST PUSH1 0x0 PUSH1 0x20 DUP3 DUP5 SUB SLT ISZERO PUSH2 0x1B34 JUMPI PUSH2 0x1B33 PUSH2 0x2232 JUMP JUMPDEST JUMPDEST PUSH1 0x0 PUSH2 0x1B42 DUP5 DUP3 DUP6 ADD PUSH2 0x1ADF JUMP JUMPDEST SWAP2 POP POP SWAP3 SWAP2 POP POP JUMP JUMPDEST PUSH1 0x0 DUP1 PUSH1 0x40 DUP4 DUP6 SUB SLT ISZERO PUSH2 0x1B62 JUMPI PUSH2 0x1B61 PUSH2 0x2232 JUMP JUMPDEST JUMPDEST PUSH1 0x0 PUSH2 0x1B70 DUP6 DUP3 DUP7 ADD PUSH2 0x1ADF JUMP JUMPDEST SWAP3 POP POP PUSH1 0x20 PUSH2 0x1B81 DUP6 DUP3 DUP7 ADD PUSH2 0x1B09 JUMP JUMPDEST SWAP2 POP POP SWAP3 POP SWAP3 SWAP1 POP JUMP JUMPDEST PUSH1 0x0 PUSH1 0x20 DUP3 DUP5 SUB SLT ISZERO PUSH2 0x1BA1 JUMPI PUSH2 0x1BA0 PUSH2 0x2232 JUMP JUMPDEST JUMPDEST PUSH1 0x0 PUSH2 0x1BAF DUP5 DUP3 DUP6 ADD PUSH2 0x1AF4 JUMP JUMPDEST SWAP2 POP POP SWAP3 SWAP2 POP POP JUMP JUMPDEST PUSH1 0x0 PUSH1 0x20 DUP3 DUP5 SUB SLT ISZERO PUSH2 0x1BCE JUMPI PUSH2 0x1BCD PUSH2 0x2232 JUMP JUMPDEST JUMPDEST PUSH1 0x0 PUSH2 0x1BDC DUP5 DUP3 DUP6 ADD PUSH2 0x1B09 JUMP JUMPDEST SWAP2 POP POP SWAP3 SWAP2 POP POP JUMP JUMPDEST PUSH1 0x0 DUP1 PUSH1 0x40 DUP4 DUP6 SUB SLT ISZERO PUSH2 0x1BFC JUMPI PUSH2 0x1BFB PUSH2 0x2232 JUMP JUMPDEST JUMPDEST PUSH1 0x0 PUSH2 0x1C0A DUP6 DUP3 DUP7 ADD PUSH2 0x1B09 JUMP JUMPDEST SWAP3 POP POP PUSH1 0x20 PUSH2 0x1C1B DUP6 DUP3 DUP7 ADD PUSH2 0x1AF4 JUMP JUMPDEST SWAP2 POP POP SWAP3 POP SWAP3 SWAP1 POP JUMP JUMPDEST PUSH2 0x1C2E DUP2 PUSH2 0x2124 JUMP JUMPDEST DUP3 MSTORE POP POP JUMP JUMPDEST PUSH2 0x1C3D DUP2 PUSH2 0x2112 JUMP JUMPDEST DUP3 MSTORE POP POP JUMP JUMPDEST PUSH2 0x1C4C DUP2 PUSH2 0x2136 JUMP JUMPDEST DUP3 MSTORE POP POP JUMP JUMPDEST PUSH1 0x0 PUSH2 0x1C5F PUSH1 0xE DUP4 PUSH2 0x1F81 JUMP JUMPDEST SWAP2 POP PUSH2 0x1C6A DUP3 PUSH2 0x2237 JUMP JUMPDEST PUSH1 0x20 DUP3 ADD SWAP1 POP SWAP2 SWAP1 POP JUMP JUMPDEST PUSH1 0x0 PUSH2 0x1C82 PUSH1 0x1A DUP4 PUSH2 0x1F81 JUMP JUMPDEST SWAP2 POP PUSH2 0x1C8D DUP3 PUSH2 0x2260 JUMP JUMPDEST PUSH1 0x20 DUP3 ADD SWAP1 POP SWAP2 SWAP1 POP JUMP JUMPDEST PUSH1 0x0 PUSH2 0x1CA5 PUSH1 0x0 DUP4 PUSH2 0x1F76 JUMP JUMPDEST SWAP2 POP PUSH2 0x1CB0 DUP3 PUSH2 0x2289 JUMP JUMPDEST PUSH1 0x0 DUP3 ADD SWAP1 POP SWAP2 SWAP1 POP JUMP JUMPDEST PUSH1 0x0 PUSH2 0x1CC8 PUSH1 0x23 DUP4 PUSH2 0x1F81 JUMP JUMPDEST SWAP2 POP PUSH2 0x1CD3 DUP3 PUSH2 0x228C JUMP JUMPDEST PUSH1 0x40 DUP3 ADD SWAP1 POP SWAP2 SWAP1 POP JUMP JUMPDEST PUSH1 0x0 PUSH2 0x1CEB PUSH1 0x28 DUP4 PUSH2 0x1F81 JUMP JUMPDEST SWAP2 POP PUSH2 0x1CF6 DUP3 PUSH2 0x22DB JUMP JUMPDEST PUSH1 0x40 DUP3 ADD SWAP1 POP SWAP2 SWAP1 POP JUMP JUMPDEST PUSH1 0x0 PUSH2 0x1D0E PUSH1 0xC DUP4 PUSH2 0x1F81 JUMP JUMPDEST SWAP2 POP PUSH2 0x1D19 DUP3 PUSH2 0x232A JUMP JUMPDEST PUSH1 0x20 DUP3 ADD SWAP1 POP SWAP2 SWAP1 POP JUMP JUMPDEST PUSH2 0x1D2D DUP2 PUSH2 0x2162 JUMP JUMPDEST DUP3 MSTORE POP POP JUMP JUMPDEST PUSH2 0x1D3C DUP2 PUSH2 0x216C JUMP JUMPDEST DUP3 MSTORE POP POP JUMP JUMPDEST PUSH1 0x0 PUSH2 0x1D4D DUP3 PUSH2 0x1C98 JUMP JUMPDEST SWAP2 POP DUP2 SWAP1 POP SWAP2 SWAP1 POP JUMP JUMPDEST PUSH1 0x0 PUSH1 0x20 DUP3 ADD SWAP1 POP PUSH2 0x1D6C PUSH1 0x0 DUP4 ADD DUP5 PUSH2 0x1C34 JUMP JUMPDEST SWAP3 SWAP2 POP POP JUMP JUMPDEST PUSH1 0x0 PUSH1 0x20 DUP3 ADD SWAP1 POP PUSH2 0x1D87 PUSH1 0x0 DUP4 ADD DUP5 PUSH2 0x1C43 JUMP JUMPDEST SWAP3 SWAP2 POP POP JUMP JUMPDEST PUSH1 0x0 PUSH1 0x20 DUP3 ADD SWAP1 POP DUP2 DUP2 SUB PUSH1 0x0 DUP4 ADD MSTORE PUSH2 0x1DA6 DUP2 PUSH2 0x1C52 JUMP JUMPDEST SWAP1 POP SWAP2 SWAP1 POP JUMP JUMPDEST PUSH1 0x0 PUSH1 0x20 DUP3 ADD SWAP1 POP DUP2 DUP2 SUB PUSH1 0x0 DUP4 ADD MSTORE PUSH2 0x1DC6 DUP2 PUSH2 0x1C75 JUMP JUMPDEST SWAP1 POP SWAP2 SWAP1 POP JUMP JUMPDEST PUSH1 0x0 PUSH1 0x20 DUP3 ADD SWAP1 POP DUP2 DUP2 SUB PUSH1 0x0 DUP4 ADD MSTORE PUSH2 0x1DE6 DUP2 PUSH2 0x1CBB JUMP JUMPDEST SWAP1 POP SWAP2 SWAP1 POP JUMP JUMPDEST PUSH1 0x0 PUSH1 0x20 DUP3 ADD SWAP1 POP DUP2 DUP2 SUB PUSH1 0x0 DUP4 ADD MSTORE PUSH2 0x1E06 DUP2 PUSH2 0x1CDE JUMP JUMPDEST SWAP1 POP SWAP2 SWAP1 POP JUMP JUMPDEST PUSH1 0x0 PUSH1 0x20 DUP3 ADD SWAP1 POP DUP2 DUP2 SUB PUSH1 0x0 DUP4 ADD MSTORE PUSH2 0x1E26 DUP2 PUSH2 0x1D01 JUMP JUMPDEST SWAP1 POP SWAP2 SWAP1 POP JUMP JUMPDEST PUSH1 0x0 PUSH1 0x20 DUP3 ADD SWAP1 POP PUSH2 0x1E42 PUSH1 0x0 DUP4 ADD DUP5 PUSH2 0x1D24 JUMP JUMPDEST SWAP3 SWAP2 POP POP JUMP JUMPDEST PUSH1 0x0 PUSH1 0x60 DUP3 ADD SWAP1 POP PUSH2 0x1E5D PUSH1 0x0 DUP4 ADD DUP7 PUSH2 0x1D24 JUMP JUMPDEST PUSH2 0x1E6A PUSH1 0x20 DUP4 ADD DUP6 PUSH2 0x1C25 JUMP JUMPDEST PUSH2 0x1E77 PUSH1 0x40 DUP4 ADD DUP5 PUSH2 0x1D24 JUMP JUMPDEST SWAP5 SWAP4 POP POP POP POP JUMP JUMPDEST PUSH1 0x0 PUSH1 0x60 DUP3 ADD SWAP1 POP PUSH2 0x1E94 PUSH1 0x0 DUP4 ADD DUP7 PUSH2 0x1D24 JUMP JUMPDEST PUSH2 0x1EA1 PUSH1 0x20 DUP4 ADD DUP6 PUSH2 0x1D24 JUMP JUMPDEST PUSH2 0x1EAE PUSH1 0x40 DUP4 ADD DUP5 PUSH2 0x1D24 JUMP JUMPDEST SWAP5 SWAP4 POP POP POP POP JUMP JUMPDEST PUSH1 0x0 PUSH1 0x20 DUP3 ADD SWAP1 POP PUSH2 0x1ECB PUSH1 0x0 DUP4 ADD DUP5 PUSH2 0x1D33 JUMP JUMPDEST SWAP3 SWAP2 POP POP JUMP JUMPDEST PUSH1 0x0 PUSH1 0x60 DUP3 ADD SWAP1 POP PUSH2 0x1EE6 PUSH1 0x0 DUP4 ADD DUP7 PUSH2 0x1D33 JUMP JUMPDEST PUSH2 0x1EF3 PUSH1 0x20 DUP4 ADD DUP6 PUSH2 0x1C34 JUMP JUMPDEST PUSH2 0x1F00 PUSH1 0x40 DUP4 ADD DUP5 PUSH2 0x1C43 JUMP JUMPDEST SWAP5 SWAP4 POP POP POP POP JUMP JUMPDEST PUSH1 0x0 PUSH1 0x40 DUP3 ADD SWAP1 POP PUSH2 0x1F1D PUSH1 0x0 DUP4 ADD DUP6 PUSH2 0x1D33 JUMP JUMPDEST PUSH2 0x1F2A PUSH1 0x20 DUP4 ADD DUP5 PUSH2 0x1D24 JUMP JUMPDEST SWAP4 SWAP3 POP POP POP JUMP JUMPDEST PUSH1 0x0 PUSH1 0x80 DUP3 ADD SWAP1 POP PUSH2 0x1F46 PUSH1 0x0 DUP4 ADD DUP8 PUSH2 0x1D33 JUMP JUMPDEST PUSH2 0x1F53 PUSH1 0x20 DUP4 ADD DUP7 PUSH2 0x1D24 JUMP JUMPDEST PUSH2 0x1F60 PUSH1 0x40 DUP4 ADD DUP6 PUSH2 0x1D24 JUMP JUMPDEST PUSH2 0x1F6D PUSH1 0x60 DUP4 ADD DUP5 PUSH2 0x1D24 JUMP JUMPDEST SWAP6 SWAP5 POP POP POP POP POP JUMP JUMPDEST PUSH1 0x0 DUP2 SWAP1 POP SWAP3 SWAP2 POP POP JUMP JUMPDEST PUSH1 0x0 DUP3 DUP3 MSTORE PUSH1 0x20 DUP3 ADD SWAP1 POP SWAP3 SWAP2 POP POP JUMP JUMPDEST PUSH1 0x0 PUSH2 0x1F9D DUP3 PUSH2 0x2162 JUMP JUMPDEST SWAP2 POP PUSH2 0x1FA8 DUP4 PUSH2 0x2162 JUMP JUMPDEST SWAP3 POP DUP3 PUSH32 0xFFFFFFFFFFFFFFFFFFFFFFFFFFFFFFFFFFFFFFFFFFFFFFFFFFFFFFFFFFFFFFFF SUB DUP3 GT ISZERO PUSH2 0x1FDD JUMPI PUSH2 0x1FDC PUSH2 0x21D4 JUMP JUMPDEST JUMPDEST DUP3 DUP3 ADD SWAP1 POP SWAP3 SWAP2 POP POP JUMP JUMPDEST PUSH1 0x0 PUSH2 0x1FF3 DUP3 PUSH2 0x216C JUMP JUMPDEST SWAP2 POP PUSH2 0x1FFE DUP4 PUSH2 0x216C JUMP JUMPDEST SWAP3 POP DUP3 PUSH1 0xFF SUB DUP3 GT ISZERO PUSH2 0x2014 JUMPI PUSH2 0x2013 PUSH2 0x21D4 JUMP JUMPDEST JUMPDEST DUP3 DUP3 ADD SWAP1 POP SWAP3 SWAP2 POP POP JUMP JUMPDEST PUSH1 0x0 PUSH2 0x202A DUP3 PUSH2 0x2162 JUMP JUMPDEST SWAP2 POP PUSH2 0x2035 DUP4 PUSH2 0x2162 JUMP JUMPDEST SWAP3 POP DUP3 PUSH2 0x2045 JUMPI PUSH2 0x2044 PUSH2 0x2203 JUMP JUMPDEST JUMPDEST DUP3 DUP3 DIV SWAP1 POP SWAP3 SWAP2 POP POP JUMP JUMPDEST PUSH1 0x0 PUSH2 0x205B DUP3 PUSH2 0x2162 JUMP JUMPDEST SWAP2 POP PUSH2 0x2066 DUP4 PUSH2 0x2162 JUMP JUMPDEST SWAP3 POP DUP2 PUSH32 0xFFFFFFFFFFFFFFFFFFFFFFFFFFFFFFFFFFFFFFFFFFFFFFFFFFFFFFFFFFFFFFFF DIV DUP4 GT DUP3 ISZERO ISZERO AND ISZERO PUSH2 0x209F JUMPI PUSH2 0x209E PUSH2 0x21D4 JUMP JUMPDEST JUMPDEST DUP3 DUP3 MUL SWAP1 POP SWAP3 SWAP2 POP POP JUMP JUMPDEST PUSH1 0x0 PUSH2 0x20B5 DUP3 PUSH2 0x2162 JUMP JUMPDEST SWAP2 POP PUSH2 0x20C0 DUP4 PUSH2 0x2162 JUMP JUMPDEST SWAP3 POP DUP3 DUP3 LT ISZERO PUSH2 0x20D3 JUMPI PUSH2 0x20D2 PUSH2 0x21D4 JUMP JUMPDEST JUMPDEST DUP3 DUP3 SUB SWAP1 POP SWAP3 SWAP2 POP POP JUMP JUMPDEST PUSH1 0x0 PUSH2 0x20E9 DUP3 PUSH2 0x216C JUMP JUMPDEST SWAP2 POP PUSH2 0x20F4 DUP4 PUSH2 0x216C JUMP JUMPDEST SWAP3 POP DUP3 DUP3 LT ISZERO PUSH2 0x2107 JUMPI PUSH2 0x2106 PUSH2 0x21D4 JUMP JUMPDEST JUMPDEST DUP3 DUP3 SUB SWAP1 POP SWAP3 SWAP2 POP POP JUMP JUMPDEST PUSH1 0x0 PUSH2 0x211D DUP3 PUSH2 0x2142 JUMP JUMPDEST SWAP1 POP SWAP2 SWAP1 POP JUMP JUMPDEST PUSH1 0x0 PUSH2 0x212F DUP3 PUSH2 0x2142 JUMP JUMPDEST SWAP1 POP SWAP2 SWAP1 POP JUMP JUMPDEST PUSH1 0x0 DUP2 ISZERO ISZERO SWAP1 POP SWAP2 SWAP1 POP JUMP JUMPDEST PUSH1 0x0 PUSH20 0xFFFFFFFFFFFFFFFFFFFFFFFFFFFFFFFFFFFFFFFF DUP3 AND SWAP1 POP SWAP2 SWAP1 POP JUMP JUMPDEST PUSH1 0x0 DUP2 SWAP1 POP SWAP2 SWAP1 POP JUMP JUMPDEST PUSH1 0x0 PUSH1 0xFF DUP3 AND SWAP1 POP SWAP2 SWAP1 POP JUMP JUMPDEST PUSH1 0x0 PUSH2 0x2184 DUP3 PUSH2 0x216C JUMP JUMPDEST SWAP2 POP PUSH1 0xFF DUP3 EQ ISZERO PUSH2 0x2198 JUMPI PUSH2 0x2197 PUSH2 0x21D4 JUMP JUMPDEST JUMPDEST PUSH1 0x1 DUP3 ADD SWAP1 POP SWAP2 SWAP1 POP JUMP JUMPDEST PUSH1 0x0 PUSH2 0x21AE DUP3 PUSH2 0x2162 JUMP JUMPDEST SWAP2 POP PUSH2 0x21B9 DUP4 PUSH2 0x2162 JUMP JUMPDEST SWAP3 POP DUP3 PUSH2 0x21C9 JUMPI PUSH2 0x21C8 PUSH2 0x2203 JUMP JUMPDEST JUMPDEST DUP3 DUP3 MOD SWAP1 POP SWAP3 SWAP2 POP POP JUMP JUMPDEST PUSH32 0x4E487B7100000000000000000000000000000000000000000000000000000000 PUSH1 0x0 MSTORE PUSH1 0x11 PUSH1 0x4 MSTORE PUSH1 0x24 PUSH1 0x0 REVERT JUMPDEST PUSH32 0x4E487B7100000000000000000000000000000000000000000000000000000000 PUSH1 0x0 MSTORE PUSH1 0x12 PUSH1 0x4 MSTORE PUSH1 0x24 PUSH1 0x0 REVERT JUMPDEST PUSH1 0x0 DUP1 REVERT JUMPDEST PUSH32 0x47616D65206E6F7420666F756E64000000000000000000000000000000000000 PUSH1 0x0 DUP3 ADD MSTORE POP JUMP JUMPDEST PUSH32 0x596F752061726520616C72656164792072656769737465726564000000000000 PUSH1 0x0 DUP3 ADD MSTORE POP JUMP JUMPDEST POP JUMP JUMPDEST PUSH32 0x496E73756666696369656E7420616D6F756E74206F6620636F6E747269627574 PUSH1 0x0 DUP3 ADD MSTORE PUSH32 0x696F6E0000000000000000000000000000000000000000000000000000000000 PUSH1 0x20 DUP3 ADD MSTORE POP JUMP JUMPDEST PUSH32 0x466F72207265676974657220696E2067616D6520796F75206E65656420706179 PUSH1 0x0 DUP3 ADD MSTORE PUSH32 0x2031206574686572000000000000000000000000000000000000000000000000 PUSH1 0x20 DUP3 ADD MSTORE POP JUMP JUMPDEST PUSH32 0x4E6F20636F6E7472616374730000000000000000000000000000000000000000 PUSH1 0x0 DUP3 ADD MSTORE POP JUMP JUMPDEST PUSH2 0x235C DUP2 PUSH2 0x2112 JUMP JUMPDEST DUP2 EQ PUSH2 0x2367 JUMPI PUSH1 0x0 DUP1 REVERT JUMPDEST POP JUMP JUMPDEST PUSH2 0x2373 DUP2 PUSH2 0x2162 JUMP JUMPDEST DUP2 EQ PUSH2 0x237E JUMPI PUSH1 0x0 DUP1 REVERT JUMPDEST POP JUMP JUMPDEST PUSH2 0x238A DUP2 PUSH2 0x216C JUMP JUMPDEST DUP2 EQ PUSH2 0x2395 JUMPI PUSH1 0x0 DUP1 REVERT JUMPDEST POP JUMP INVALID LOG2 PUSH5 0x6970667358 0x22 SLT KECCAK256 PUSH23 0xB4F37E4CCCC0BB1D5D39691F7E53E521B4813D5AC2070F 0xB7 0xC1 0xD JUMPI 0x2B 0x5F AND PUSH10 0x64736F6C634300080700 CALLER "
				},
				"gasEstimates": {
					"creation": {
						"codeDepositCost": "1833200",
						"executionCost": "infinite",
						"totalCost": "infinite"
					},
					"external": {
						"": "infinite",
						"addGameLevel(uint256)": "infinite",
						"culcNextWinnerIndex(uint256)": "infinite",
						"currentGameIdIndex()": "2493",
						"currentUserIdIndex()": "2518",
						"currentUserIndex(uint8)": "2860",
						"getUserBalance(address)": "3324",
						"hasAccess(address)": "2925",
						"joinToGame(uint8)": "infinite",
						"levels(uint8)": "infinite",
						"pools(uint8,uint256)": "infinite",
						"registerUserToGame(uint256)": "infinite",
						"registeredUsers(address)": "infinite",
						"userGames(address,uint8)": "3161",
						"userPayments(address,uint8)": "3144",
						"usersId(uint256)": "2905"
					},
					"internal": {
						"_fallback(address,uint256)": "infinite",
						"_joinToGame(uint8,address,uint256)": "infinite"
					}
				},
				"methodIdentifiers": {
					"addGameLevel(uint256)": "ae9283b5",
					"culcNextWinnerIndex(uint256)": "33afc80b",
					"currentGameIdIndex()": "ad39f0a3",
					"currentUserIdIndex()": "556c9095",
					"currentUserIndex(uint8)": "9b0b0ae3",
					"getUserBalance(address)": "47734892",
					"hasAccess(address)": "95a078e8",
					"joinToGame(uint8)": "2e8aab9b",
					"levels(uint8)": "906cbf57",
					"pools(uint8,uint256)": "78a32e21",
					"registerUserToGame(uint256)": "0173c05b",
					"registeredUsers(address)": "0e50cee5",
					"userGames(address,uint8)": "2a648c89",
					"userPayments(address,uint8)": "f1060006",
					"usersId(uint256)": "bd233b91"
				}
			},
			"storageLayout": {
				"storage": [
					{
						"astId": 317,
						"contract": "Contract.sol:Pyramid",
						"label": "currentUserIdIndex",
						"offset": 0,
						"slot": "0",
						"type": "t_uint256"
					},
					{
						"astId": 319,
						"contract": "Contract.sol:Pyramid",
						"label": "currentGameIdIndex",
						"offset": 0,
						"slot": "1",
						"type": "t_uint8"
					},
					{
						"astId": 321,
						"contract": "Contract.sol:Pyramid",
						"label": "contractOwner",
						"offset": 1,
						"slot": "1",
						"type": "t_address"
					},
					{
						"astId": 353,
						"contract": "Contract.sol:Pyramid",
						"label": "levels",
						"offset": 0,
						"slot": "2",
						"type": "t_mapping(t_uint8,t_struct(Game)348_storage)"
					},
					{
						"astId": 357,
						"contract": "Contract.sol:Pyramid",
						"label": "usersId",
						"offset": 0,
						"slot": "3",
						"type": "t_mapping(t_uint256,t_address)"
					},
					{
						"astId": 361,
						"contract": "Contract.sol:Pyramid",
						"label": "userPartnersCount",
						"offset": 0,
						"slot": "4",
						"type": "t_mapping(t_uint256,t_uint256)"
					},
					{
						"astId": 366,
						"contract": "Contract.sol:Pyramid",
						"label": "registeredUsers",
						"offset": 0,
						"slot": "5",
						"type": "t_mapping(t_address,t_struct(User)343_storage)"
					},
					{
						"astId": 370,
						"contract": "Contract.sol:Pyramid",
						"label": "currentUserIndex",
						"offset": 0,
						"slot": "6",
						"type": "t_mapping(t_uint8,t_uint256)"
					},
					{
						"astId": 377,
						"contract": "Contract.sol:Pyramid",
						"label": "pools",
						"offset": 0,
						"slot": "7",
						"type": "t_mapping(t_uint8,t_mapping(t_uint256,t_struct(User)343_storage))"
					},
					{
						"astId": 383,
						"contract": "Contract.sol:Pyramid",
						"label": "userPayments",
						"offset": 0,
						"slot": "8",
						"type": "t_mapping(t_address,t_mapping(t_uint8,t_uint256))"
					},
					{
						"astId": 389,
						"contract": "Contract.sol:Pyramid",
						"label": "userGames",
						"offset": 0,
						"slot": "9",
						"type": "t_mapping(t_address,t_mapping(t_uint8,t_bool))"
					}
				],
				"types": {
					"t_address": {
						"encoding": "inplace",
						"label": "address",
						"numberOfBytes": "20"
					},
					"t_address_payable": {
						"encoding": "inplace",
						"label": "address payable",
						"numberOfBytes": "20"
					},
					"t_bool": {
						"encoding": "inplace",
						"label": "bool",
						"numberOfBytes": "1"
					},
					"t_mapping(t_address,t_mapping(t_uint8,t_bool))": {
						"encoding": "mapping",
						"key": "t_address",
						"label": "mapping(address => mapping(uint8 => bool))",
						"numberOfBytes": "32",
						"value": "t_mapping(t_uint8,t_bool)"
					},
					"t_mapping(t_address,t_mapping(t_uint8,t_uint256))": {
						"encoding": "mapping",
						"key": "t_address",
						"label": "mapping(address => mapping(uint8 => uint256))",
						"numberOfBytes": "32",
						"value": "t_mapping(t_uint8,t_uint256)"
					},
					"t_mapping(t_address,t_struct(User)343_storage)": {
						"encoding": "mapping",
						"key": "t_address",
						"label": "mapping(address => struct Pyramid.User)",
						"numberOfBytes": "32",
						"value": "t_struct(User)343_storage"
					},
					"t_mapping(t_uint256,t_address)": {
						"encoding": "mapping",
						"key": "t_uint256",
						"label": "mapping(uint256 => address)",
						"numberOfBytes": "32",
						"value": "t_address"
					},
					"t_mapping(t_uint256,t_struct(User)343_storage)": {
						"encoding": "mapping",
						"key": "t_uint256",
						"label": "mapping(uint256 => struct Pyramid.User)",
						"numberOfBytes": "32",
						"value": "t_struct(User)343_storage"
					},
					"t_mapping(t_uint256,t_uint256)": {
						"encoding": "mapping",
						"key": "t_uint256",
						"label": "mapping(uint256 => uint256)",
						"numberOfBytes": "32",
						"value": "t_uint256"
					},
					"t_mapping(t_uint8,t_bool)": {
						"encoding": "mapping",
						"key": "t_uint8",
						"label": "mapping(uint8 => bool)",
						"numberOfBytes": "32",
						"value": "t_bool"
					},
					"t_mapping(t_uint8,t_mapping(t_uint256,t_struct(User)343_storage))": {
						"encoding": "mapping",
						"key": "t_uint8",
						"label": "mapping(uint8 => mapping(uint256 => struct Pyramid.User))",
						"numberOfBytes": "32",
						"value": "t_mapping(t_uint256,t_struct(User)343_storage)"
					},
					"t_mapping(t_uint8,t_struct(Game)348_storage)": {
						"encoding": "mapping",
						"key": "t_uint8",
						"label": "mapping(uint8 => struct Pyramid.Game)",
						"numberOfBytes": "32",
						"value": "t_struct(Game)348_storage"
					},
					"t_mapping(t_uint8,t_uint256)": {
						"encoding": "mapping",
						"key": "t_uint8",
						"label": "mapping(uint8 => uint256)",
						"numberOfBytes": "32",
						"value": "t_uint256"
					},
					"t_struct(Game)348_storage": {
						"encoding": "inplace",
						"label": "struct Pyramid.Game",
						"members": [
							{
								"astId": 345,
								"contract": "Contract.sol:Pyramid",
								"label": "gameId",
								"offset": 0,
								"slot": "0",
								"type": "t_uint8"
							},
							{
								"astId": 347,
								"contract": "Contract.sol:Pyramid",
								"label": "amountToPay",
								"offset": 0,
								"slot": "1",
								"type": "t_uint256"
							}
						],
						"numberOfBytes": "64"
					},
					"t_struct(User)343_storage": {
						"encoding": "inplace",
						"label": "struct Pyramid.User",
						"members": [
							{
								"astId": 338,
								"contract": "Contract.sol:Pyramid",
								"label": "userId",
								"offset": 0,
								"slot": "0",
								"type": "t_uint256"
							},
							{
								"astId": 340,
								"contract": "Contract.sol:Pyramid",
								"label": "userAddress",
								"offset": 0,
								"slot": "1",
								"type": "t_address_payable"
							},
							{
								"astId": 342,
								"contract": "Contract.sol:Pyramid",
								"label": "invitedId",
								"offset": 0,
								"slot": "2",
								"type": "t_uint256"
							}
						],
						"numberOfBytes": "96"
					},
					"t_uint256": {
						"encoding": "inplace",
						"label": "uint256",
						"numberOfBytes": "32"
					},
					"t_uint8": {
						"encoding": "inplace",
						"label": "uint8",
						"numberOfBytes": "1"
					}
				}
			},
			"userdoc": {
				"kind": "user",
				"methods": {},
				"version": 1
			}
		}
	}
}