{
	"Contract.sol": {
		"Pyramid": {
			"abi": [
				{
					"inputs": [],
					"stateMutability": "nonpayable",
					"type": "constructor"
				},
				{
					"anonymous": false,
					"inputs": [
						{
							"indexed": false,
							"internalType": "uint8",
							"name": "gameId",
							"type": "uint8"
						},
						{
							"indexed": false,
							"internalType": "address",
							"name": "account",
							"type": "address"
						},
						{
							"indexed": false,
							"internalType": "bool",
							"name": "success",
							"type": "bool"
						}
					],
					"name": "GamePaymentEvent",
					"type": "event"
				},
				{
					"anonymous": false,
					"inputs": [
						{
							"indexed": false,
							"internalType": "uint8",
							"name": "gameId",
							"type": "uint8"
						},
						{
							"indexed": false,
							"internalType": "uint256",
							"name": "amount",
							"type": "uint256"
						}
					],
					"name": "NewGame",
					"type": "event"
				},
				{
					"anonymous": false,
					"inputs": [
						{
							"indexed": false,
							"internalType": "uint256",
							"name": "userId",
							"type": "uint256"
						},
						{
							"indexed": false,
							"internalType": "uint256",
							"name": "inviterId",
							"type": "uint256"
						},
						{
							"indexed": false,
							"internalType": "uint256",
							"name": "partnersCount",
							"type": "uint256"
						}
					],
					"name": "NewUserRegisteredEvent",
					"type": "event"
				},
				{
					"anonymous": false,
					"inputs": [
						{
							"indexed": false,
							"internalType": "uint8",
							"name": "gameId",
							"type": "uint8"
						},
						{
							"indexed": false,
							"internalType": "uint256",
							"name": "from",
							"type": "uint256"
						},
						{
							"indexed": false,
							"internalType": "uint256",
							"name": "to",
							"type": "uint256"
						},
						{
							"indexed": false,
							"internalType": "uint256",
							"name": "amount",
							"type": "uint256"
						}
					],
					"name": "ReferalPaymentEvent",
					"type": "event"
				},
				{
					"stateMutability": "payable",
					"type": "fallback"
				},
				{
					"inputs": [
						{
							"internalType": "uint256",
							"name": "amountToPay",
							"type": "uint256"
						}
					],
					"name": "addGameLevel",
					"outputs": [],
					"stateMutability": "nonpayable",
					"type": "function"
				},
				{
					"inputs": [
						{
							"internalType": "uint256",
							"name": "index",
							"type": "uint256"
						}
					],
					"name": "culcNextWinnerIndex",
					"outputs": [
						{
							"internalType": "uint256",
							"name": "",
							"type": "uint256"
						}
					],
					"stateMutability": "pure",
					"type": "function"
				},
				{
					"inputs": [],
					"name": "currentGameIdIndex",
					"outputs": [
						{
							"internalType": "uint8",
							"name": "",
							"type": "uint8"
						}
					],
					"stateMutability": "view",
					"type": "function"
				},
				{
					"inputs": [],
					"name": "currentUserIdIndex",
					"outputs": [
						{
							"internalType": "uint256",
							"name": "",
							"type": "uint256"
						}
					],
					"stateMutability": "view",
					"type": "function"
				},
				{
					"inputs": [
						{
							"internalType": "uint8",
							"name": "",
							"type": "uint8"
						}
					],
					"name": "currentUserIndex",
					"outputs": [
						{
							"internalType": "uint256",
							"name": "",
							"type": "uint256"
						}
					],
					"stateMutability": "view",
					"type": "function"
				},
				{
					"inputs": [
						{
							"internalType": "address",
							"name": "userAddress",
							"type": "address"
						}
					],
					"name": "getUserBalance",
					"outputs": [
						{
							"internalType": "uint256",
							"name": "",
							"type": "uint256"
						}
					],
					"stateMutability": "view",
					"type": "function"
				},
				{
					"inputs": [
						{
							"internalType": "address",
							"name": "userAdress",
							"type": "address"
						}
					],
					"name": "hasAccess",
					"outputs": [
						{
							"internalType": "bool",
							"name": "",
							"type": "bool"
						}
					],
					"stateMutability": "view",
					"type": "function"
				},
				{
					"inputs": [
						{
							"internalType": "uint8",
							"name": "gameId",
							"type": "uint8"
						}
					],
					"name": "joinToGame",
					"outputs": [],
					"stateMutability": "payable",
					"type": "function"
				},
				{
					"inputs": [
						{
							"internalType": "uint8",
							"name": "",
							"type": "uint8"
						}
					],
					"name": "levels",
					"outputs": [
						{
							"internalType": "uint8",
							"name": "gameId",
							"type": "uint8"
						},
						{
							"internalType": "uint256",
							"name": "amountToPay",
							"type": "uint256"
						}
					],
					"stateMutability": "view",
					"type": "function"
				},
				{
					"inputs": [
						{
							"internalType": "uint8",
							"name": "",
							"type": "uint8"
						},
						{
							"internalType": "uint256",
							"name": "",
							"type": "uint256"
						}
					],
					"name": "pools",
					"outputs": [
						{
							"internalType": "uint256",
							"name": "userId",
							"type": "uint256"
						},
						{
							"internalType": "address payable",
							"name": "userAddress",
							"type": "address"
						},
						{
							"internalType": "uint256",
							"name": "invitedId",
							"type": "uint256"
						}
					],
					"stateMutability": "view",
					"type": "function"
				},
				{
					"inputs": [
						{
							"internalType": "uint256",
							"name": "inviterId",
							"type": "uint256"
						}
					],
					"name": "registerUserToGame",
					"outputs": [],
					"stateMutability": "payable",
					"type": "function"
				},
				{
					"inputs": [
						{
							"internalType": "address",
							"name": "",
							"type": "address"
						}
					],
					"name": "registeredUsers",
					"outputs": [
						{
							"internalType": "uint256",
							"name": "userId",
							"type": "uint256"
						},
						{
							"internalType": "address payable",
							"name": "userAddress",
							"type": "address"
						},
						{
							"internalType": "uint256",
							"name": "invitedId",
							"type": "uint256"
						}
					],
					"stateMutability": "view",
					"type": "function"
				},
				{
					"inputs": [],
					"name": "transaction_hash",
					"outputs": [
						{
							"internalType": "bytes32",
							"name": "",
							"type": "bytes32"
						}
					],
					"stateMutability": "view",
					"type": "function"
				},
				{
					"inputs": [
						{
							"internalType": "address",
							"name": "",
							"type": "address"
						},
						{
							"internalType": "uint8",
							"name": "",
							"type": "uint8"
						}
					],
					"name": "userGames",
					"outputs": [
						{
							"internalType": "bool",
							"name": "",
							"type": "bool"
						}
					],
					"stateMutability": "view",
					"type": "function"
				},
				{
					"inputs": [
						{
							"internalType": "address",
							"name": "",
							"type": "address"
						},
						{
							"internalType": "uint8",
							"name": "",
							"type": "uint8"
						}
					],
					"name": "userPayments",
					"outputs": [
						{
							"internalType": "uint256",
							"name": "",
							"type": "uint256"
						}
					],
					"stateMutability": "view",
					"type": "function"
				},
				{
					"inputs": [
						{
							"internalType": "uint256",
							"name": "",
							"type": "uint256"
						}
					],
					"name": "usersId",
					"outputs": [
						{
							"internalType": "address",
							"name": "",
							"type": "address"
						}
					],
					"stateMutability": "view",
					"type": "function"
				},
				{
					"stateMutability": "payable",
					"type": "receive"
				}
			],
			"devdoc": {
				"kind": "dev",
				"methods": {},
				"version": 1
			},
			"evm": {
				"assembly": "    /* \"Contract.sol\":6575:16325  contract Pyramid {\r... */\n  mstore(0x40, 0x80)\n    /* \"Contract.sol\":9272:9531  constructor () {\r... */\n  callvalue\n  dup1\n  iszero\n  tag_1\n  jumpi\n  0x00\n  dup1\n  revert\ntag_1:\n  pop\n    /* \"Contract.sol\":9314:9324  msg.sender */\n  caller\n    /* \"Contract.sol\":9298:9311  contractOwner */\n  0x01\n  dup1\n    /* \"Contract.sol\":9298:9324  contractOwner = msg.sender */\n  0x0100\n  exp\n  dup2\n  sload\n  dup2\n  0xffffffffffffffffffffffffffffffffffffffff\n  mul\n  not\n  and\n  swap1\n  dup4\n  0xffffffffffffffffffffffffffffffffffffffff\n  and\n  mul\n  or\n  swap1\n  sstore\n  pop\n    /* \"Contract.sol\":9348:9361  contractOwner */\n  0x01\n  dup1\n  sload\n  swap1\n  0x0100\n  exp\n  swap1\n  div\n  0xffffffffffffffffffffffffffffffffffffffff\n  and\n    /* \"Contract.sol\":9335:9342  usersId */\n  0x04\n    /* \"Contract.sol\":9335:9345  usersId[0] */\n  0x00\n    /* \"Contract.sol\":9343:9344  0 */\n  dup1\n    /* \"Contract.sol\":9335:9345  usersId[0] */\n  dup2\n  mstore\n  0x20\n  add\n  swap1\n  dup2\n  mstore\n  0x20\n  add\n  0x00\n  keccak256\n  0x00\n    /* \"Contract.sol\":9335:9361  usersId[0] = contractOwner */\n  0x0100\n  exp\n  dup2\n  sload\n  dup2\n  0xffffffffffffffffffffffffffffffffffffffff\n  mul\n  not\n  and\n  swap1\n  dup4\n  0xffffffffffffffffffffffffffffffffffffffff\n  and\n  mul\n  or\n  swap1\n  sstore\n  pop\n    /* \"Contract.sol\":9405:9439  User(0, payable(contractOwner), 0) */\n  mload(0x40)\n  dup1\n  0x60\n  add\n  0x40\n  mstore\n  dup1\n    /* \"Contract.sol\":9410:9411  0 */\n  0x00\n    /* \"Contract.sol\":9405:9439  User(0, payable(contractOwner), 0) */\n  dup2\n  mstore\n  0x20\n  add\n    /* \"Contract.sol\":9421:9434  contractOwner */\n  0x01\n  dup1\n  sload\n  swap1\n  0x0100\n  exp\n  swap1\n  div\n  0xffffffffffffffffffffffffffffffffffffffff\n  and\n    /* \"Contract.sol\":9405:9439  User(0, payable(contractOwner), 0) */\n  0xffffffffffffffffffffffffffffffffffffffff\n  and\n  dup2\n  mstore\n  0x20\n  add\n    /* \"Contract.sol\":9437:9438  0 */\n  0x00\n    /* \"Contract.sol\":9405:9439  User(0, payable(contractOwner), 0) */\n  dup2\n  mstore\n  pop\n    /* \"Contract.sol\":9372:9387  registeredUsers */\n  0x06\n    /* \"Contract.sol\":9372:9402  registeredUsers[contractOwner] */\n  0x00\n    /* \"Contract.sol\":9388:9401  contractOwner */\n  0x01\n  dup1\n  sload\n  swap1\n  0x0100\n  exp\n  swap1\n  div\n  0xffffffffffffffffffffffffffffffffffffffff\n  and\n    /* \"Contract.sol\":9372:9402  registeredUsers[contractOwner] */\n  0xffffffffffffffffffffffffffffffffffffffff\n  and\n  0xffffffffffffffffffffffffffffffffffffffff\n  and\n  dup2\n  mstore\n  0x20\n  add\n  swap1\n  dup2\n  mstore\n  0x20\n  add\n  0x00\n  keccak256\n    /* \"Contract.sol\":9372:9439  registeredUsers[contractOwner] = User(0, payable(contractOwner), 0) */\n  0x00\n  dup3\n  add\n  mload\n  dup2\n  0x00\n  add\n  sstore\n  0x20\n  dup3\n  add\n  mload\n  dup2\n  0x01\n  add\n  exp(0x0100, 0x00)\n  dup2\n  sload\n  dup2\n  0xffffffffffffffffffffffffffffffffffffffff\n  mul\n  not\n  and\n  swap1\n  dup4\n  0xffffffffffffffffffffffffffffffffffffffff\n  and\n  mul\n  or\n  swap1\n  sstore\n  pop\n  0x40\n  dup3\n  add\n  mload\n  dup2\n  0x02\n  add\n  sstore\n  swap1\n  pop\n  pop\n    /* \"Contract.sol\":9471:9472  1 */\n  0x01\n    /* \"Contract.sol\":9450:9468  currentUserIdIndex */\n  0x00\n    /* \"Contract.sol\":9450:9472  currentUserIdIndex = 1 */\n  dup2\n  swap1\n  sstore\n  pop\n    /* \"Contract.sol\":9485:9523  addGameLevel({ amountToPay: 1 ether }) */\n  tag_4\n    /* \"Contract.sol\":9513:9520  1 ether */\n  0x0de0b6b3a7640000\n    /* \"Contract.sol\":9485:9497  addGameLevel */\n  shl(0x20, tag_5)\n    /* \"Contract.sol\":9485:9523  addGameLevel({ amountToPay: 1 ether }) */\n  0x20\n  shr\n  jump\t// in\ntag_4:\n    /* \"Contract.sol\":6575:16325  contract Pyramid {\r... */\n  jump(tag_6)\n    /* \"Contract.sol\":11260:11629  function addGameLevel(uint256 amountToPay) public onlyOwner {\r... */\ntag_5:\n    /* \"Contract.sol\":9201:9222  hasAccess(msg.sender) */\n  tag_8\n    /* \"Contract.sol\":9211:9221  msg.sender */\n  caller\n    /* \"Contract.sol\":9201:9210  hasAccess */\n  shl(0x20, tag_9)\n    /* \"Contract.sol\":9201:9222  hasAccess(msg.sender) */\n  0x20\n  shr\n  jump\t// in\ntag_8:\n    /* \"Contract.sol\":9193:9244  require(hasAccess(msg.sender), \"You are not owner\") */\n  tag_10\n  jumpi\n  mload(0x40)\n  0x08c379a000000000000000000000000000000000000000000000000000000000\n  dup2\n  mstore\n  0x04\n  add\n  tag_11\n  swap1\n  tag_12\n  jump\t// in\ntag_11:\n  mload(0x40)\n  dup1\n  swap2\n  sub\n  swap1\n  revert\ntag_10:\n    /* \"Contract.sol\":11465:11527  Game({ gameId: currentGameIdIndex, amountToPay: amountToPay }) */\n  mload(0x40)\n  dup1\n  0x40\n  add\n  0x40\n  mstore\n  dup1\n    /* \"Contract.sol\":11480:11498  currentGameIdIndex */\n  0x01\n  0x00\n  swap1\n  sload\n  swap1\n  0x0100\n  exp\n  swap1\n  div\n  0xff\n  and\n    /* \"Contract.sol\":11465:11527  Game({ gameId: currentGameIdIndex, amountToPay: amountToPay }) */\n  0xff\n  and\n  dup2\n  mstore\n  0x20\n  add\n    /* \"Contract.sol\":11513:11524  amountToPay */\n  dup3\n    /* \"Contract.sol\":11465:11527  Game({ gameId: currentGameIdIndex, amountToPay: amountToPay }) */\n  dup2\n  mstore\n  pop\n    /* \"Contract.sol\":11436:11442  levels */\n  0x03\n    /* \"Contract.sol\":11436:11462  levels[currentGameIdIndex] */\n  0x00\n    /* \"Contract.sol\":11443:11461  currentGameIdIndex */\n  0x01\n  0x00\n  swap1\n  sload\n  swap1\n  0x0100\n  exp\n  swap1\n  div\n  0xff\n  and\n    /* \"Contract.sol\":11436:11462  levels[currentGameIdIndex] */\n  0xff\n  and\n  0xff\n  and\n  dup2\n  mstore\n  0x20\n  add\n  swap1\n  dup2\n  mstore\n  0x20\n  add\n  0x00\n  keccak256\n    /* \"Contract.sol\":11436:11527  levels[currentGameIdIndex] = Game({ gameId: currentGameIdIndex, amountToPay: amountToPay }) */\n  0x00\n  dup3\n  add\n  mload\n  dup2\n  0x00\n  add\n  exp(0x0100, 0x00)\n  dup2\n  sload\n  dup2\n  0xff\n  mul\n  not\n  and\n  swap1\n  dup4\n  0xff\n  and\n  mul\n  or\n  swap1\n  sstore\n  pop\n  0x20\n  dup3\n  add\n  mload\n  dup2\n  0x01\n  add\n  sstore\n  swap1\n  pop\n  pop\n    /* \"Contract.sol\":11560:11561  1 */\n  0x01\n    /* \"Contract.sol\":11538:11556  currentGameIdIndex */\n  dup1\n  0x00\n    /* \"Contract.sol\":11538:11561  currentGameIdIndex += 1 */\n  dup3\n  dup3\n  dup3\n  swap1\n  sload\n  swap1\n  0x0100\n  exp\n  swap1\n  div\n  0xff\n  and\n  tag_14\n  swap2\n  swap1\n  tag_15\n  jump\t// in\ntag_14:\n  swap3\n  pop\n  0x0100\n  exp\n  dup2\n  sload\n  dup2\n  0xff\n  mul\n  not\n  and\n  swap1\n  dup4\n  0xff\n  and\n  mul\n  or\n  swap1\n  sstore\n  pop\n    /* \"Contract.sol\":11577:11621  NewGame( currentGameIdIndex-1, amountToPay ) */\n  0xcf1ed532d6b83b4290f2f407b156b17826f49752e7a8ff360f502c307e055663\n    /* \"Contract.sol\":11605:11606  1 */\n  0x01\n    /* \"Contract.sol\":11586:11604  currentGameIdIndex */\n  dup1\n  0x00\n  swap1\n  sload\n  swap1\n  0x0100\n  exp\n  swap1\n  div\n  0xff\n  and\n    /* \"Contract.sol\":11586:11606  currentGameIdIndex-1 */\n  tag_16\n  swap2\n  swap1\n  tag_17\n  jump\t// in\ntag_16:\n    /* \"Contract.sol\":11608:11619  amountToPay */\n  dup3\n    /* \"Contract.sol\":11577:11621  NewGame( currentGameIdIndex-1, amountToPay ) */\n  mload(0x40)\n  tag_18\n  swap3\n  swap2\n  swap1\n  tag_19\n  jump\t// in\ntag_18:\n  mload(0x40)\n  dup1\n  swap2\n  sub\n  swap1\n  log1\n    /* \"Contract.sol\":11260:11629  function addGameLevel(uint256 amountToPay) public onlyOwner {\r... */\n  pop\n  jump\t// out\n    /* \"Contract.sol\":10896:11125  function hasAccess(address userAdress) public view returns(bool) {\r... */\ntag_9:\n    /* \"Contract.sol\":10955:10959  bool */\n  0x00\n    /* \"Contract.sol\":11104:11117  contractOwner */\n  0x01\n  dup1\n  sload\n  swap1\n  0x0100\n  exp\n  swap1\n  div\n  0xffffffffffffffffffffffffffffffffffffffff\n  and\n    /* \"Contract.sol\":11090:11117  userAdress == contractOwner */\n  0xffffffffffffffffffffffffffffffffffffffff\n  and\n    /* \"Contract.sol\":11090:11100  userAdress */\n  dup3\n    /* \"Contract.sol\":11090:11117  userAdress == contractOwner */\n  0xffffffffffffffffffffffffffffffffffffffff\n  and\n  eq\n    /* \"Contract.sol\":11083:11117  return userAdress == contractOwner */\n  swap1\n  pop\n    /* \"Contract.sol\":10896:11125  function hasAccess(address userAdress) public view returns(bool) {\r... */\n  swap2\n  swap1\n  pop\n  jump\t// out\n    /* \"#utility.yul\":7:373   */\ntag_22:\n    /* \"#utility.yul\":149:152   */\n  0x00\n    /* \"#utility.yul\":170:237   */\n  tag_24\n    /* \"#utility.yul\":234:236   */\n  0x11\n    /* \"#utility.yul\":229:232   */\n  dup4\n    /* \"#utility.yul\":170:237   */\n  tag_25\n  jump\t// in\ntag_24:\n    /* \"#utility.yul\":163:237   */\n  swap2\n  pop\n    /* \"#utility.yul\":246:339   */\n  tag_26\n    /* \"#utility.yul\":335:338   */\n  dup3\n    /* \"#utility.yul\":246:339   */\n  tag_27\n  jump\t// in\ntag_26:\n    /* \"#utility.yul\":364:366   */\n  0x20\n    /* \"#utility.yul\":359:362   */\n  dup3\n    /* \"#utility.yul\":355:367   */\n  add\n    /* \"#utility.yul\":348:367   */\n  swap1\n  pop\n    /* \"#utility.yul\":7:373   */\n  swap2\n  swap1\n  pop\n  jump\t// out\n    /* \"#utility.yul\":379:497   */\ntag_28:\n    /* \"#utility.yul\":466:490   */\n  tag_30\n    /* \"#utility.yul\":484:489   */\n  dup2\n    /* \"#utility.yul\":466:490   */\n  tag_31\n  jump\t// in\ntag_30:\n    /* \"#utility.yul\":461:464   */\n  dup3\n    /* \"#utility.yul\":454:491   */\n  mstore\n    /* \"#utility.yul\":379:497   */\n  pop\n  pop\n  jump\t// out\n    /* \"#utility.yul\":503:615   */\ntag_32:\n    /* \"#utility.yul\":586:608   */\n  tag_34\n    /* \"#utility.yul\":602:607   */\n  dup2\n    /* \"#utility.yul\":586:608   */\n  tag_35\n  jump\t// in\ntag_34:\n    /* \"#utility.yul\":581:584   */\n  dup3\n    /* \"#utility.yul\":574:609   */\n  mstore\n    /* \"#utility.yul\":503:615   */\n  pop\n  pop\n  jump\t// out\n    /* \"#utility.yul\":621:1040   */\ntag_12:\n    /* \"#utility.yul\":787:791   */\n  0x00\n    /* \"#utility.yul\":825:827   */\n  0x20\n    /* \"#utility.yul\":814:823   */\n  dup3\n    /* \"#utility.yul\":810:828   */\n  add\n    /* \"#utility.yul\":802:828   */\n  swap1\n  pop\n    /* \"#utility.yul\":874:883   */\n  dup2\n    /* \"#utility.yul\":868:872   */\n  dup2\n    /* \"#utility.yul\":864:884   */\n  sub\n    /* \"#utility.yul\":860:861   */\n  0x00\n    /* \"#utility.yul\":849:858   */\n  dup4\n    /* \"#utility.yul\":845:862   */\n  add\n    /* \"#utility.yul\":838:885   */\n  mstore\n    /* \"#utility.yul\":902:1033   */\n  tag_37\n    /* \"#utility.yul\":1028:1032   */\n  dup2\n    /* \"#utility.yul\":902:1033   */\n  tag_22\n  jump\t// in\ntag_37:\n    /* \"#utility.yul\":894:1033   */\n  swap1\n  pop\n    /* \"#utility.yul\":621:1040   */\n  swap2\n  swap1\n  pop\n  jump\t// out\n    /* \"#utility.yul\":1046:1370   */\ntag_19:\n    /* \"#utility.yul\":1163:1167   */\n  0x00\n    /* \"#utility.yul\":1201:1203   */\n  0x40\n    /* \"#utility.yul\":1190:1199   */\n  dup3\n    /* \"#utility.yul\":1186:1204   */\n  add\n    /* \"#utility.yul\":1178:1204   */\n  swap1\n  pop\n    /* \"#utility.yul\":1214:1281   */\n  tag_39\n    /* \"#utility.yul\":1278:1279   */\n  0x00\n    /* \"#utility.yul\":1267:1276   */\n  dup4\n    /* \"#utility.yul\":1263:1280   */\n  add\n    /* \"#utility.yul\":1254:1260   */\n  dup6\n    /* \"#utility.yul\":1214:1281   */\n  tag_32\n  jump\t// in\ntag_39:\n    /* \"#utility.yul\":1291:1363   */\n  tag_40\n    /* \"#utility.yul\":1359:1361   */\n  0x20\n    /* \"#utility.yul\":1348:1357   */\n  dup4\n    /* \"#utility.yul\":1344:1362   */\n  add\n    /* \"#utility.yul\":1335:1341   */\n  dup5\n    /* \"#utility.yul\":1291:1363   */\n  tag_28\n  jump\t// in\ntag_40:\n    /* \"#utility.yul\":1046:1370   */\n  swap4\n  swap3\n  pop\n  pop\n  pop\n  jump\t// out\n    /* \"#utility.yul\":1376:1545   */\ntag_25:\n    /* \"#utility.yul\":1460:1471   */\n  0x00\n    /* \"#utility.yul\":1494:1500   */\n  dup3\n    /* \"#utility.yul\":1489:1492   */\n  dup3\n    /* \"#utility.yul\":1482:1501   */\n  mstore\n    /* \"#utility.yul\":1534:1538   */\n  0x20\n    /* \"#utility.yul\":1529:1532   */\n  dup3\n    /* \"#utility.yul\":1525:1539   */\n  add\n    /* \"#utility.yul\":1510:1539   */\n  swap1\n  pop\n    /* \"#utility.yul\":1376:1545   */\n  swap3\n  swap2\n  pop\n  pop\n  jump\t// out\n    /* \"#utility.yul\":1551:1788   */\ntag_15:\n    /* \"#utility.yul\":1589:1592   */\n  0x00\n    /* \"#utility.yul\":1608:1626   */\n  tag_43\n    /* \"#utility.yul\":1624:1625   */\n  dup3\n    /* \"#utility.yul\":1608:1626   */\n  tag_35\n  jump\t// in\ntag_43:\n    /* \"#utility.yul\":1603:1626   */\n  swap2\n  pop\n    /* \"#utility.yul\":1640:1658   */\n  tag_44\n    /* \"#utility.yul\":1656:1657   */\n  dup4\n    /* \"#utility.yul\":1640:1658   */\n  tag_35\n  jump\t// in\ntag_44:\n    /* \"#utility.yul\":1635:1658   */\n  swap3\n  pop\n    /* \"#utility.yul\":1730:1731   */\n  dup3\n    /* \"#utility.yul\":1724:1728   */\n  0xff\n    /* \"#utility.yul\":1720:1732   */\n  sub\n    /* \"#utility.yul\":1717:1718   */\n  dup3\n    /* \"#utility.yul\":1714:1733   */\n  gt\n    /* \"#utility.yul\":1711:1756   */\n  iszero\n  tag_45\n  jumpi\n    /* \"#utility.yul\":1736:1754   */\n  tag_46\n  tag_47\n  jump\t// in\ntag_46:\n    /* \"#utility.yul\":1711:1756   */\ntag_45:\n    /* \"#utility.yul\":1780:1781   */\n  dup3\n    /* \"#utility.yul\":1777:1778   */\n  dup3\n    /* \"#utility.yul\":1773:1782   */\n  add\n    /* \"#utility.yul\":1766:1782   */\n  swap1\n  pop\n    /* \"#utility.yul\":1551:1788   */\n  swap3\n  swap2\n  pop\n  pop\n  jump\t// out\n    /* \"#utility.yul\":1794:1979   */\ntag_17:\n    /* \"#utility.yul\":1832:1836   */\n  0x00\n    /* \"#utility.yul\":1852:1870   */\n  tag_49\n    /* \"#utility.yul\":1868:1869   */\n  dup3\n    /* \"#utility.yul\":1852:1870   */\n  tag_35\n  jump\t// in\ntag_49:\n    /* \"#utility.yul\":1847:1870   */\n  swap2\n  pop\n    /* \"#utility.yul\":1884:1902   */\n  tag_50\n    /* \"#utility.yul\":1900:1901   */\n  dup4\n    /* \"#utility.yul\":1884:1902   */\n  tag_35\n  jump\t// in\ntag_50:\n    /* \"#utility.yul\":1879:1902   */\n  swap3\n  pop\n    /* \"#utility.yul\":1921:1922   */\n  dup3\n    /* \"#utility.yul\":1918:1919   */\n  dup3\n    /* \"#utility.yul\":1915:1923   */\n  lt\n    /* \"#utility.yul\":1912:1946   */\n  iszero\n  tag_51\n  jumpi\n    /* \"#utility.yul\":1926:1944   */\n  tag_52\n  tag_47\n  jump\t// in\ntag_52:\n    /* \"#utility.yul\":1912:1946   */\ntag_51:\n    /* \"#utility.yul\":1971:1972   */\n  dup3\n    /* \"#utility.yul\":1968:1969   */\n  dup3\n    /* \"#utility.yul\":1964:1973   */\n  sub\n    /* \"#utility.yul\":1956:1973   */\n  swap1\n  pop\n    /* \"#utility.yul\":1794:1979   */\n  swap3\n  swap2\n  pop\n  pop\n  jump\t// out\n    /* \"#utility.yul\":1985:2062   */\ntag_31:\n    /* \"#utility.yul\":2022:2029   */\n  0x00\n    /* \"#utility.yul\":2051:2056   */\n  dup2\n    /* \"#utility.yul\":2040:2056   */\n  swap1\n  pop\n    /* \"#utility.yul\":1985:2062   */\n  swap2\n  swap1\n  pop\n  jump\t// out\n    /* \"#utility.yul\":2068:2154   */\ntag_35:\n    /* \"#utility.yul\":2103:2110   */\n  0x00\n    /* \"#utility.yul\":2143:2147   */\n  0xff\n    /* \"#utility.yul\":2136:2141   */\n  dup3\n    /* \"#utility.yul\":2132:2148   */\n  and\n    /* \"#utility.yul\":2121:2148   */\n  swap1\n  pop\n    /* \"#utility.yul\":2068:2154   */\n  swap2\n  swap1\n  pop\n  jump\t// out\n    /* \"#utility.yul\":2160:2340   */\ntag_47:\n    /* \"#utility.yul\":2208:2285   */\n  0x4e487b7100000000000000000000000000000000000000000000000000000000\n    /* \"#utility.yul\":2205:2206   */\n  0x00\n    /* \"#utility.yul\":2198:2286   */\n  mstore\n    /* \"#utility.yul\":2305:2309   */\n  0x11\n    /* \"#utility.yul\":2302:2303   */\n  0x04\n    /* \"#utility.yul\":2295:2310   */\n  mstore\n    /* \"#utility.yul\":2329:2333   */\n  0x24\n    /* \"#utility.yul\":2326:2327   */\n  0x00\n    /* \"#utility.yul\":2319:2334   */\n  revert\n    /* \"#utility.yul\":2346:2513   */\ntag_27:\n    /* \"#utility.yul\":2486:2505   */\n  0x596f7520617265206e6f74206f776e6572000000000000000000000000000000\n    /* \"#utility.yul\":2482:2483   */\n  0x00\n    /* \"#utility.yul\":2474:2480   */\n  dup3\n    /* \"#utility.yul\":2470:2484   */\n  add\n    /* \"#utility.yul\":2463:2506   */\n  mstore\n    /* \"#utility.yul\":2346:2513   */\n  pop\n  jump\t// out\n    /* \"Contract.sol\":6575:16325  contract Pyramid {\r... */\ntag_6:\n  dataSize(sub_0)\n  dup1\n  dataOffset(sub_0)\n  0x00\n  codecopy\n  0x00\n  return\nstop\n\nsub_0: assembly {\n        /* \"Contract.sol\":6575:16325  contract Pyramid {\r... */\n      mstore(0x40, 0x80)\n      jumpi(tag_1, lt(calldatasize, 0x04))\n      shr(0xe0, calldataload(0x00))\n      dup1\n      0x78a32e21\n      gt\n      tag_19\n      jumpi\n      dup1\n      0xad39f0a3\n      gt\n      tag_20\n      jumpi\n      dup1\n      0xad39f0a3\n      eq\n      tag_15\n      jumpi\n      dup1\n      0xae9283b5\n      eq\n      tag_16\n      jumpi\n      dup1\n      0xbd233b91\n      eq\n      tag_17\n      jumpi\n      dup1\n      0xf1060006\n      eq\n      tag_18\n      jumpi\n      jump(tag_2)\n    tag_20:\n      dup1\n      0x78a32e21\n      eq\n      tag_11\n      jumpi\n      dup1\n      0x906cbf57\n      eq\n      tag_12\n      jumpi\n      dup1\n      0x95a078e8\n      eq\n      tag_13\n      jumpi\n      dup1\n      0x9b0b0ae3\n      eq\n      tag_14\n      jumpi\n      jump(tag_2)\n    tag_19:\n      dup1\n      0x2e8aab9b\n      gt\n      tag_21\n      jumpi\n      dup1\n      0x2e8aab9b\n      eq\n      tag_7\n      jumpi\n      dup1\n      0x33afc80b\n      eq\n      tag_8\n      jumpi\n      dup1\n      0x47734892\n      eq\n      tag_9\n      jumpi\n      dup1\n      0x556c9095\n      eq\n      tag_10\n      jumpi\n      jump(tag_2)\n    tag_21:\n      dup1\n      0x0173c05b\n      eq\n      tag_3\n      jumpi\n      dup1\n      0x0c71c3a2\n      eq\n      tag_4\n      jumpi\n      dup1\n      0x0e50cee5\n      eq\n      tag_5\n      jumpi\n      dup1\n      0x2a648c89\n      eq\n      tag_6\n      jumpi\n      jump(tag_2)\n    tag_1:\n      jumpi(tag_2, calldatasize)\n        /* \"Contract.sol\":9578:9610  _fallback(msg.sender, msg.value) */\n      tag_24\n        /* \"Contract.sol\":9588:9598  msg.sender */\n      caller\n        /* \"Contract.sol\":9600:9609  msg.value */\n      callvalue\n        /* \"Contract.sol\":9578:9587  _fallback */\n      tag_25\n        /* \"Contract.sol\":9578:9610  _fallback(msg.sender, msg.value) */\n      jump\t// in\n    tag_24:\n        /* \"Contract.sol\":6575:16325  contract Pyramid {\r... */\n      stop\n    tag_2:\n        /* \"Contract.sol\":9666:9698  _fallback(msg.sender, msg.value) */\n      tag_28\n        /* \"Contract.sol\":9676:9686  msg.sender */\n      caller\n        /* \"Contract.sol\":9688:9697  msg.value */\n      callvalue\n        /* \"Contract.sol\":9666:9675  _fallback */\n      tag_25\n        /* \"Contract.sol\":9666:9698  _fallback(msg.sender, msg.value) */\n      jump\t// in\n    tag_28:\n        /* \"Contract.sol\":6575:16325  contract Pyramid {\r... */\n      stop\n        /* \"Contract.sol\":11637:12326  function registerUserToGame(uint256 inviterId) external payable noContractAccess {\r... */\n    tag_3:\n      tag_29\n      0x04\n      dup1\n      calldatasize\n      sub\n      dup2\n      add\n      swap1\n      tag_30\n      swap2\n      swap1\n      tag_31\n      jump\t// in\n    tag_30:\n      tag_32\n      jump\t// in\n    tag_29:\n      stop\n        /* \"Contract.sol\":6796:6827  bytes32 public transaction_hash */\n    tag_4:\n      callvalue\n      dup1\n      iszero\n      tag_33\n      jumpi\n      0x00\n      dup1\n      revert\n    tag_33:\n      pop\n      tag_34\n      tag_35\n      jump\t// in\n    tag_34:\n      mload(0x40)\n      tag_36\n      swap2\n      swap1\n      tag_37\n      jump\t// in\n    tag_36:\n      mload(0x40)\n      dup1\n      swap2\n      sub\n      swap1\n      return\n        /* \"Contract.sol\":7696:7744  mapping (address => User) public registeredUsers */\n    tag_5:\n      callvalue\n      dup1\n      iszero\n      tag_38\n      jumpi\n      0x00\n      dup1\n      revert\n    tag_38:\n      pop\n      tag_39\n      0x04\n      dup1\n      calldatasize\n      sub\n      dup2\n      add\n      swap1\n      tag_40\n      swap2\n      swap1\n      tag_41\n      jump\t// in\n    tag_40:\n      tag_42\n      jump\t// in\n    tag_39:\n      mload(0x40)\n      tag_43\n      swap4\n      swap3\n      swap2\n      swap1\n      tag_44\n      jump\t// in\n    tag_43:\n      mload(0x40)\n      dup1\n      swap2\n      sub\n      swap1\n      return\n        /* \"Contract.sol\":8100:8161  mapping (address => mapping (uint8 => bool)) public userGames */\n    tag_6:\n      callvalue\n      dup1\n      iszero\n      tag_45\n      jumpi\n      0x00\n      dup1\n      revert\n    tag_45:\n      pop\n      tag_46\n      0x04\n      dup1\n      calldatasize\n      sub\n      dup2\n      add\n      swap1\n      tag_47\n      swap2\n      swap1\n      tag_48\n      jump\t// in\n    tag_47:\n      tag_49\n      jump\t// in\n    tag_46:\n      mload(0x40)\n      tag_50\n      swap2\n      swap1\n      tag_51\n      jump\t// in\n    tag_50:\n      mload(0x40)\n      dup1\n      swap2\n      sub\n      swap1\n      return\n        /* \"Contract.sol\":12334:12551  function joinToGame(uint8 gameId) public payable onlyRegistered {\r... */\n    tag_7:\n      tag_52\n      0x04\n      dup1\n      calldatasize\n      sub\n      dup2\n      add\n      swap1\n      tag_53\n      swap2\n      swap1\n      tag_54\n      jump\t// in\n    tag_53:\n      tag_55\n      jump\t// in\n    tag_52:\n      stop\n        /* \"Contract.sol\":10321:10888  function culcNextWinnerIndex(uint256 index) public pure returns(uint256) {\r... */\n    tag_8:\n      callvalue\n      dup1\n      iszero\n      tag_56\n      jumpi\n      0x00\n      dup1\n      revert\n    tag_56:\n      pop\n      tag_57\n      0x04\n      dup1\n      calldatasize\n      sub\n      dup2\n      add\n      swap1\n      tag_58\n      swap2\n      swap1\n      tag_31\n      jump\t// in\n    tag_58:\n      tag_59\n      jump\t// in\n    tag_57:\n      mload(0x40)\n      tag_60\n      swap2\n      swap1\n      tag_61\n      jump\t// in\n    tag_60:\n      mload(0x40)\n      dup1\n      swap2\n      sub\n      swap1\n      return\n        /* \"Contract.sol\":11133:11252  function getUserBalance(address userAddress) public view returns(uint256) {\r... */\n    tag_9:\n      callvalue\n      dup1\n      iszero\n      tag_62\n      jumpi\n      0x00\n      dup1\n      revert\n    tag_62:\n      pop\n      tag_63\n      0x04\n      dup1\n      calldatasize\n      sub\n      dup2\n      add\n      swap1\n      tag_64\n      swap2\n      swap1\n      tag_41\n      jump\t// in\n    tag_64:\n      tag_65\n      jump\t// in\n    tag_63:\n      mload(0x40)\n      tag_66\n      swap2\n      swap1\n      tag_61\n      jump\t// in\n    tag_66:\n      mload(0x40)\n      dup1\n      swap2\n      sub\n      swap1\n      return\n        /* \"Contract.sol\":6633:6666  uint256 public currentUserIdIndex */\n    tag_10:\n      callvalue\n      dup1\n      iszero\n      tag_67\n      jumpi\n      0x00\n      dup1\n      revert\n    tag_67:\n      pop\n      tag_68\n      tag_69\n      jump\t// in\n    tag_68:\n      mload(0x40)\n      tag_70\n      swap2\n      swap1\n      tag_61\n      jump\t// in\n    tag_70:\n      mload(0x40)\n      dup1\n      swap2\n      sub\n      swap1\n      return\n        /* \"Contract.sol\":7888:7945  mapping (uint8 => mapping (uint256 => User)) public pools */\n    tag_11:\n      callvalue\n      dup1\n      iszero\n      tag_71\n      jumpi\n      0x00\n      dup1\n      revert\n    tag_71:\n      pop\n      tag_72\n      0x04\n      dup1\n      calldatasize\n      sub\n      dup2\n      add\n      swap1\n      tag_73\n      swap2\n      swap1\n      tag_74\n      jump\t// in\n    tag_73:\n      tag_75\n      jump\t// in\n    tag_72:\n      mload(0x40)\n      tag_76\n      swap4\n      swap3\n      swap2\n      swap1\n      tag_44\n      jump\t// in\n    tag_76:\n      mload(0x40)\n      dup1\n      swap2\n      sub\n      swap1\n      return\n        /* \"Contract.sol\":7449:7486  mapping (uint8 => Game) public levels */\n    tag_12:\n      callvalue\n      dup1\n      iszero\n      tag_77\n      jumpi\n      0x00\n      dup1\n      revert\n    tag_77:\n      pop\n      tag_78\n      0x04\n      dup1\n      calldatasize\n      sub\n      dup2\n      add\n      swap1\n      tag_79\n      swap2\n      swap1\n      tag_54\n      jump\t// in\n    tag_79:\n      tag_80\n      jump\t// in\n    tag_78:\n      mload(0x40)\n      tag_81\n      swap3\n      swap2\n      swap1\n      tag_82\n      jump\t// in\n    tag_81:\n      mload(0x40)\n      dup1\n      swap2\n      sub\n      swap1\n      return\n        /* \"Contract.sol\":10896:11125  function hasAccess(address userAdress) public view returns(bool) {\r... */\n    tag_13:\n      callvalue\n      dup1\n      iszero\n      tag_83\n      jumpi\n      0x00\n      dup1\n      revert\n    tag_83:\n      pop\n      tag_84\n      0x04\n      dup1\n      calldatasize\n      sub\n      dup2\n      add\n      swap1\n      tag_85\n      swap2\n      swap1\n      tag_41\n      jump\t// in\n    tag_85:\n      tag_86\n      jump\t// in\n    tag_84:\n      mload(0x40)\n      tag_87\n      swap2\n      swap1\n      tag_51\n      jump\t// in\n    tag_87:\n      mload(0x40)\n      dup1\n      swap2\n      sub\n      swap1\n      return\n        /* \"Contract.sol\":7799:7849  mapping (uint8 => uint256) public currentUserIndex */\n    tag_14:\n      callvalue\n      dup1\n      iszero\n      tag_88\n      jumpi\n      0x00\n      dup1\n      revert\n    tag_88:\n      pop\n      tag_89\n      0x04\n      dup1\n      calldatasize\n      sub\n      dup2\n      add\n      swap1\n      tag_90\n      swap2\n      swap1\n      tag_54\n      jump\t// in\n    tag_90:\n      tag_91\n      jump\t// in\n    tag_89:\n      mload(0x40)\n      tag_92\n      swap2\n      swap1\n      tag_61\n      jump\t// in\n    tag_92:\n      mload(0x40)\n      dup1\n      swap2\n      sub\n      swap1\n      return\n        /* \"Contract.sol\":6702:6733  uint8 public currentGameIdIndex */\n    tag_15:\n      callvalue\n      dup1\n      iszero\n      tag_93\n      jumpi\n      0x00\n      dup1\n      revert\n    tag_93:\n      pop\n      tag_94\n      tag_95\n      jump\t// in\n    tag_94:\n      mload(0x40)\n      tag_96\n      swap2\n      swap1\n      tag_97\n      jump\t// in\n    tag_96:\n      mload(0x40)\n      dup1\n      swap2\n      sub\n      swap1\n      return\n        /* \"Contract.sol\":11260:11629  function addGameLevel(uint256 amountToPay) public onlyOwner {\r... */\n    tag_16:\n      callvalue\n      dup1\n      iszero\n      tag_98\n      jumpi\n      0x00\n      dup1\n      revert\n    tag_98:\n      pop\n      tag_99\n      0x04\n      dup1\n      calldatasize\n      sub\n      dup2\n      add\n      swap1\n      tag_100\n      swap2\n      swap1\n      tag_31\n      jump\t// in\n    tag_100:\n      tag_101\n      jump\t// in\n    tag_99:\n      stop\n        /* \"Contract.sol\":7510:7553  mapping (uint256 => address) public usersId */\n    tag_17:\n      callvalue\n      dup1\n      iszero\n      tag_102\n      jumpi\n      0x00\n      dup1\n      revert\n    tag_102:\n      pop\n      tag_103\n      0x04\n      dup1\n      calldatasize\n      sub\n      dup2\n      add\n      swap1\n      tag_104\n      swap2\n      swap1\n      tag_31\n      jump\t// in\n    tag_104:\n      tag_105\n      jump\t// in\n    tag_103:\n      mload(0x40)\n      tag_106\n      swap2\n      swap1\n      tag_107\n      jump\t// in\n    tag_106:\n      mload(0x40)\n      dup1\n      swap2\n      sub\n      swap1\n      return\n        /* \"Contract.sol\":7987:8054  mapping (address => mapping (uint8 => uint256)) public userPayments */\n    tag_18:\n      callvalue\n      dup1\n      iszero\n      tag_108\n      jumpi\n      0x00\n      dup1\n      revert\n    tag_108:\n      pop\n      tag_109\n      0x04\n      dup1\n      calldatasize\n      sub\n      dup2\n      add\n      swap1\n      tag_110\n      swap2\n      swap1\n      tag_48\n      jump\t// in\n    tag_110:\n      tag_111\n      jump\t// in\n    tag_109:\n      mload(0x40)\n      tag_112\n      swap2\n      swap1\n      tag_61\n      jump\t// in\n    tag_112:\n      mload(0x40)\n      dup1\n      swap2\n      sub\n      swap1\n      return\n        /* \"Contract.sol\":9714:10313  function _fallback(address sender, uint256 value) internal {\r... */\n    tag_25:\n        /* \"Contract.sol\":9925:9937  bool success */\n      0x00\n        /* \"Contract.sol\":9948:9960  uint8 gameId */\n      dup1\n        /* \"Contract.sol\":9978:9989  uint8 index */\n      0x00\n        /* \"Contract.sol\":9973:10206  for (uint8 index; index < currentGameIdIndex+1; index++) {\r... */\n    tag_114:\n        /* \"Contract.sol\":10018:10019  1 */\n      0x01\n        /* \"Contract.sol\":9999:10017  currentGameIdIndex */\n      dup1\n      0x00\n      swap1\n      sload\n      swap1\n      0x0100\n      exp\n      swap1\n      div\n      0xff\n      and\n        /* \"Contract.sol\":9999:10019  currentGameIdIndex+1 */\n      tag_117\n      swap2\n      swap1\n      tag_118\n      jump\t// in\n    tag_117:\n        /* \"Contract.sol\":9991:10019  index < currentGameIdIndex+1 */\n      0xff\n      and\n        /* \"Contract.sol\":9991:9996  index */\n      dup2\n        /* \"Contract.sol\":9991:10019  index < currentGameIdIndex+1 */\n      0xff\n      and\n      lt\n        /* \"Contract.sol\":9973:10206  for (uint8 index; index < currentGameIdIndex+1; index++) {\r... */\n      iszero\n      tag_115\n      jumpi\n        /* \"Contract.sol\":10078:10087  msg.value */\n      callvalue\n        /* \"Contract.sol\":10049:10055  levels */\n      0x03\n        /* \"Contract.sol\":10049:10062  levels[index] */\n      0x00\n        /* \"Contract.sol\":10056:10061  index */\n      dup4\n        /* \"Contract.sol\":10049:10062  levels[index] */\n      0xff\n      and\n      0xff\n      and\n      dup2\n      mstore\n      0x20\n      add\n      swap1\n      dup2\n      mstore\n      0x20\n      add\n      0x00\n      keccak256\n        /* \"Contract.sol\":10049:10074  levels[index].amountToPay */\n      0x01\n      add\n      sload\n        /* \"Contract.sol\":10049:10087  levels[index].amountToPay == msg.value */\n      eq\n        /* \"Contract.sol\":10045:10195  if (levels[index].amountToPay == msg.value) {\r... */\n      iszero\n      tag_119\n      jumpi\n        /* \"Contract.sol\":10118:10122  true */\n      0x01\n        /* \"Contract.sol\":10108:10122  success = true */\n      swap3\n      pop\n        /* \"Contract.sol\":10150:10155  index */\n      dup1\n        /* \"Contract.sol\":10141:10155  gameId = index */\n      swap2\n      pop\n        /* \"Contract.sol\":10174:10179  break */\n      jump(tag_115)\n        /* \"Contract.sol\":10045:10195  if (levels[index].amountToPay == msg.value) {\r... */\n    tag_119:\n        /* \"Contract.sol\":10021:10028  index++ */\n      dup1\n      dup1\n      tag_120\n      swap1\n      tag_121\n      jump\t// in\n    tag_120:\n      swap2\n      pop\n      pop\n        /* \"Contract.sol\":9973:10206  for (uint8 index; index < currentGameIdIndex+1; index++) {\r... */\n      jump(tag_114)\n    tag_115:\n      pop\n        /* \"Contract.sol\":10234:10241  success */\n      dup2\n        /* \"Contract.sol\":10226:10260  require(success, \"Game not found\") */\n      tag_122\n      jumpi\n      mload(0x40)\n      0x08c379a000000000000000000000000000000000000000000000000000000000\n      dup2\n      mstore\n      0x04\n      add\n      tag_123\n      swap1\n      tag_124\n      jump\t// in\n    tag_123:\n      mload(0x40)\n      dup1\n      swap2\n      sub\n      swap1\n      revert\n    tag_122:\n        /* \"Contract.sol\":10271:10305  _joinToGame(gameId, sender, value) */\n      tag_125\n        /* \"Contract.sol\":10283:10289  gameId */\n      dup2\n        /* \"Contract.sol\":10291:10297  sender */\n      dup6\n        /* \"Contract.sol\":10299:10304  value */\n      dup6\n        /* \"Contract.sol\":10271:10282  _joinToGame */\n      tag_126\n        /* \"Contract.sol\":10271:10305  _joinToGame(gameId, sender, value) */\n      jump\t// in\n    tag_125:\n        /* \"Contract.sol\":9773:10313  {\r... */\n      pop\n      pop\n        /* \"Contract.sol\":9714:10313  function _fallback(address sender, uint256 value) internal {\r... */\n      pop\n      pop\n      jump\t// out\n        /* \"Contract.sol\":11637:12326  function registerUserToGame(uint256 inviterId) external payable noContractAccess {\r... */\n    tag_32:\n        /* \"Contract.sol\":8927:8938  uint32 size */\n      0x00\n        /* \"Contract.sol\":8949:8963  address sender */\n      dup1\n        /* \"Contract.sol\":8966:8976  msg.sender */\n      caller\n        /* \"Contract.sol\":8949:8976  address sender = msg.sender */\n      swap1\n      pop\n        /* \"Contract.sol\":9018:9024  sender */\n      dup1\n        /* \"Contract.sol\":9006:9025  extcodesize(sender) */\n      extcodesize\n        /* \"Contract.sol\":8998:9025  size := extcodesize(sender) */\n      swap2\n      pop\n        /* \"Contract.sol\":9056:9057  0 */\n      0x00\n        /* \"Contract.sol\":9049:9053  size */\n      dup3\n        /* \"Contract.sol\":9049:9057  size > 0 */\n      0xffffffff\n      and\n      gt\n        /* \"Contract.sol\":9047:9058  !(size > 0) */\n      iszero\n        /* \"Contract.sol\":9039:9075  require(!(size > 0), \"No contracts\") */\n      tag_128\n      jumpi\n      mload(0x40)\n      0x08c379a000000000000000000000000000000000000000000000000000000000\n      dup2\n      mstore\n      0x04\n      add\n      tag_129\n      swap1\n      tag_130\n      jump\t// in\n    tag_129:\n      mload(0x40)\n      dup1\n      swap2\n      sub\n      swap1\n      revert\n    tag_128:\n        /* \"Contract.sol\":11867:11868  0 */\n      0x00\n        /* \"Contract.sol\":11816:11869  registeredUsers[msg.sender].userAddress == address(0) */\n      0xffffffffffffffffffffffffffffffffffffffff\n      and\n        /* \"Contract.sol\":11816:11831  registeredUsers */\n      0x06\n        /* \"Contract.sol\":11816:11843  registeredUsers[msg.sender] */\n      0x00\n        /* \"Contract.sol\":11832:11842  msg.sender */\n      caller\n        /* \"Contract.sol\":11816:11843  registeredUsers[msg.sender] */\n      0xffffffffffffffffffffffffffffffffffffffff\n      and\n      0xffffffffffffffffffffffffffffffffffffffff\n      and\n      dup2\n      mstore\n      0x20\n      add\n      swap1\n      dup2\n      mstore\n      0x20\n      add\n      0x00\n      keccak256\n        /* \"Contract.sol\":11816:11855  registeredUsers[msg.sender].userAddress */\n      0x01\n      add\n      0x00\n      swap1\n      sload\n      swap1\n      0x0100\n      exp\n      swap1\n      div\n      0xffffffffffffffffffffffffffffffffffffffff\n      and\n        /* \"Contract.sol\":11816:11869  registeredUsers[msg.sender].userAddress == address(0) */\n      0xffffffffffffffffffffffffffffffffffffffff\n      and\n      eq\n        /* \"Contract.sol\":11808:11900  require(registeredUsers[msg.sender].userAddress == address(0), \"You are already registered\") */\n      tag_132\n      jumpi\n      mload(0x40)\n      0x08c379a000000000000000000000000000000000000000000000000000000000\n      dup2\n      mstore\n      0x04\n      add\n      tag_133\n      swap1\n      tag_134\n      jump\t// in\n    tag_133:\n      mload(0x40)\n      dup1\n      swap2\n      sub\n      swap1\n      revert\n    tag_132:\n        /* \"Contract.sol\":11933:11940  1 ether */\n      0x0de0b6b3a7640000\n        /* \"Contract.sol\":11920:11929  msg.value */\n      callvalue\n        /* \"Contract.sol\":11920:11940  msg.value == 1 ether */\n      eq\n        /* \"Contract.sol\":11911:11985  require (msg.value == 1 ether, \"For regiter in game you need pay 1 ether\") */\n      tag_135\n      jumpi\n      mload(0x40)\n      0x08c379a000000000000000000000000000000000000000000000000000000000\n      dup2\n      mstore\n      0x04\n      add\n      tag_136\n      swap1\n      tag_137\n      jump\t// in\n    tag_136:\n      mload(0x40)\n      dup1\n      swap2\n      sub\n      swap1\n      revert\n    tag_135:\n        /* \"Contract.sol\":12028:12084  User(currentUserIdIndex, payable(msg.sender), inviterId) */\n      mload(0x40)\n      dup1\n      0x60\n      add\n      0x40\n      mstore\n      dup1\n        /* \"Contract.sol\":12033:12051  currentUserIdIndex */\n      sload(0x00)\n        /* \"Contract.sol\":12028:12084  User(currentUserIdIndex, payable(msg.sender), inviterId) */\n      dup2\n      mstore\n      0x20\n      add\n        /* \"Contract.sol\":12061:12071  msg.sender */\n      caller\n        /* \"Contract.sol\":12028:12084  User(currentUserIdIndex, payable(msg.sender), inviterId) */\n      0xffffffffffffffffffffffffffffffffffffffff\n      and\n      dup2\n      mstore\n      0x20\n      add\n        /* \"Contract.sol\":12074:12083  inviterId */\n      dup5\n        /* \"Contract.sol\":12028:12084  User(currentUserIdIndex, payable(msg.sender), inviterId) */\n      dup2\n      mstore\n      pop\n        /* \"Contract.sol\":11998:12013  registeredUsers */\n      0x06\n        /* \"Contract.sol\":11998:12025  registeredUsers[msg.sender] */\n      0x00\n        /* \"Contract.sol\":12014:12024  msg.sender */\n      caller\n        /* \"Contract.sol\":11998:12025  registeredUsers[msg.sender] */\n      0xffffffffffffffffffffffffffffffffffffffff\n      and\n      0xffffffffffffffffffffffffffffffffffffffff\n      and\n      dup2\n      mstore\n      0x20\n      add\n      swap1\n      dup2\n      mstore\n      0x20\n      add\n      0x00\n      keccak256\n        /* \"Contract.sol\":11998:12084  registeredUsers[msg.sender] = User(currentUserIdIndex, payable(msg.sender), inviterId) */\n      0x00\n      dup3\n      add\n      mload\n      dup2\n      0x00\n      add\n      sstore\n      0x20\n      dup3\n      add\n      mload\n      dup2\n      0x01\n      add\n      exp(0x0100, 0x00)\n      dup2\n      sload\n      dup2\n      0xffffffffffffffffffffffffffffffffffffffff\n      mul\n      not\n      and\n      swap1\n      dup4\n      0xffffffffffffffffffffffffffffffffffffffff\n      and\n      mul\n      or\n      swap1\n      sstore\n      pop\n      0x40\n      dup3\n      add\n      mload\n      dup2\n      0x02\n      add\n      sstore\n      swap1\n      pop\n      pop\n        /* \"Contract.sol\":12125:12135  msg.sender */\n      caller\n        /* \"Contract.sol\":12095:12102  usersId */\n      0x04\n        /* \"Contract.sol\":12095:12122  usersId[currentUserIdIndex] */\n      0x00\n        /* \"Contract.sol\":12103:12121  currentUserIdIndex */\n      dup1\n      sload\n        /* \"Contract.sol\":12095:12122  usersId[currentUserIdIndex] */\n      dup2\n      mstore\n      0x20\n      add\n      swap1\n      dup2\n      mstore\n      0x20\n      add\n      0x00\n      keccak256\n      0x00\n        /* \"Contract.sol\":12095:12135  usersId[currentUserIdIndex] = msg.sender */\n      0x0100\n      exp\n      dup2\n      sload\n      dup2\n      0xffffffffffffffffffffffffffffffffffffffff\n      mul\n      not\n      and\n      swap1\n      dup4\n      0xffffffffffffffffffffffffffffffffffffffff\n      and\n      mul\n      or\n      swap1\n      sstore\n      pop\n        /* \"Contract.sol\":12168:12169  1 */\n      0x01\n        /* \"Contract.sol\":12146:12164  currentUserIdIndex */\n      0x00\n      dup1\n        /* \"Contract.sol\":12146:12169  currentUserIdIndex += 1 */\n      dup3\n      dup3\n      sload\n      tag_138\n      swap2\n      swap1\n      tag_139\n      jump\t// in\n    tag_138:\n      swap3\n      pop\n      pop\n      dup2\n      swap1\n      sstore\n      pop\n        /* \"Contract.sol\":12212:12213  1 */\n      0x01\n        /* \"Contract.sol\":12180:12197  userPartnersCount */\n      0x05\n        /* \"Contract.sol\":12180:12208  userPartnersCount[inviterId] */\n      0x00\n        /* \"Contract.sol\":12198:12207  inviterId */\n      dup6\n        /* \"Contract.sol\":12180:12208  userPartnersCount[inviterId] */\n      dup2\n      mstore\n      0x20\n      add\n      swap1\n      dup2\n      mstore\n      0x20\n      add\n      0x00\n      keccak256\n      0x00\n        /* \"Contract.sol\":12180:12213  userPartnersCount[inviterId] += 1 */\n      dup3\n      dup3\n      sload\n      tag_140\n      swap2\n      swap1\n      tag_139\n      jump\t// in\n    tag_140:\n      swap3\n      pop\n      pop\n      dup2\n      swap1\n      sstore\n      pop\n        /* \"Contract.sol\":12231:12318  NewUserRegisteredEvent(currentUserIdIndex - 1, inviterId, userPartnersCount[inviterId]) */\n      0x12888a3214fa3b6d599e2a7d3ff41e8aa7ef1295fe3ba5d428825df6da086885\n        /* \"Contract.sol\":12275:12276  1 */\n      0x01\n        /* \"Contract.sol\":12254:12272  currentUserIdIndex */\n      sload(0x00)\n        /* \"Contract.sol\":12254:12276  currentUserIdIndex - 1 */\n      tag_141\n      swap2\n      swap1\n      tag_142\n      jump\t// in\n    tag_141:\n        /* \"Contract.sol\":12278:12287  inviterId */\n      dup5\n        /* \"Contract.sol\":12289:12306  userPartnersCount */\n      0x05\n        /* \"Contract.sol\":12289:12317  userPartnersCount[inviterId] */\n      0x00\n        /* \"Contract.sol\":12307:12316  inviterId */\n      dup8\n        /* \"Contract.sol\":12289:12317  userPartnersCount[inviterId] */\n      dup2\n      mstore\n      0x20\n      add\n      swap1\n      dup2\n      mstore\n      0x20\n      add\n      0x00\n      keccak256\n      sload\n        /* \"Contract.sol\":12231:12318  NewUserRegisteredEvent(currentUserIdIndex - 1, inviterId, userPartnersCount[inviterId]) */\n      mload(0x40)\n      tag_143\n      swap4\n      swap3\n      swap2\n      swap1\n      tag_144\n      jump\t// in\n    tag_143:\n      mload(0x40)\n      dup1\n      swap2\n      sub\n      swap1\n      log1\n        /* \"Contract.sol\":8849:9095  {\r... */\n      pop\n      pop\n        /* \"Contract.sol\":11637:12326  function registerUserToGame(uint256 inviterId) external payable noContractAccess {\r... */\n      pop\n      jump\t// out\n        /* \"Contract.sol\":6796:6827  bytes32 public transaction_hash */\n    tag_35:\n      sload(0x02)\n      dup2\n      jump\t// out\n        /* \"Contract.sol\":7696:7744  mapping (address => User) public registeredUsers */\n    tag_42:\n      mstore(0x20, 0x06)\n      dup1\n      0x00\n      mstore\n      keccak256(0x00, 0x40)\n      0x00\n      swap2\n      pop\n      swap1\n      pop\n      dup1\n      0x00\n      add\n      sload\n      swap1\n      dup1\n      0x01\n      add\n      0x00\n      swap1\n      sload\n      swap1\n      0x0100\n      exp\n      swap1\n      div\n      0xffffffffffffffffffffffffffffffffffffffff\n      and\n      swap1\n      dup1\n      0x02\n      add\n      sload\n      swap1\n      pop\n      dup4\n      jump\t// out\n        /* \"Contract.sol\":8100:8161  mapping (address => mapping (uint8 => bool)) public userGames */\n    tag_49:\n      mstore(0x20, 0x0a)\n      dup2\n      0x00\n      mstore\n      mstore(0x20, keccak256(0x00, 0x40))\n      dup1\n      0x00\n      mstore\n      keccak256(0x00, 0x40)\n      0x00\n      swap2\n      pop\n      swap2\n      pop\n      swap1\n      sload\n      swap1\n      0x0100\n      exp\n      swap1\n      div\n      0xff\n      and\n      dup2\n      jump\t// out\n        /* \"Contract.sol\":12334:12551  function joinToGame(uint8 gameId) public payable onlyRegistered {\r... */\n    tag_55:\n        /* \"Contract.sol\":8792:8793  0 */\n      0x00\n        /* \"Contract.sol\":8741:8794  registeredUsers[msg.sender].userAddress != address(0) */\n      0xffffffffffffffffffffffffffffffffffffffff\n      and\n        /* \"Contract.sol\":8741:8756  registeredUsers */\n      0x06\n        /* \"Contract.sol\":8741:8768  registeredUsers[msg.sender] */\n      0x00\n        /* \"Contract.sol\":8757:8767  msg.sender */\n      caller\n        /* \"Contract.sol\":8741:8768  registeredUsers[msg.sender] */\n      0xffffffffffffffffffffffffffffffffffffffff\n      and\n      0xffffffffffffffffffffffffffffffffffffffff\n      and\n      dup2\n      mstore\n      0x20\n      add\n      swap1\n      dup2\n      mstore\n      0x20\n      add\n      0x00\n      keccak256\n        /* \"Contract.sol\":8741:8780  registeredUsers[msg.sender].userAddress */\n      0x01\n      add\n      0x00\n      swap1\n      sload\n      swap1\n      0x0100\n      exp\n      swap1\n      div\n      0xffffffffffffffffffffffffffffffffffffffff\n      and\n        /* \"Contract.sol\":8741:8794  registeredUsers[msg.sender].userAddress != address(0) */\n      0xffffffffffffffffffffffffffffffffffffffff\n      and\n      eq\n      iszero\n        /* \"Contract.sol\":8733:8795  require(registeredUsers[msg.sender].userAddress != address(0)) */\n      tag_146\n      jumpi\n      0x00\n      dup1\n      revert\n    tag_146:\n        /* \"Contract.sol\":12501:12543  _joinToGame(gameId, msg.sender, msg.value) */\n      tag_148\n        /* \"Contract.sol\":12513:12519  gameId */\n      dup2\n        /* \"Contract.sol\":12521:12531  msg.sender */\n      caller\n        /* \"Contract.sol\":12533:12542  msg.value */\n      callvalue\n        /* \"Contract.sol\":12501:12512  _joinToGame */\n      tag_126\n        /* \"Contract.sol\":12501:12543  _joinToGame(gameId, msg.sender, msg.value) */\n      jump\t// in\n    tag_148:\n        /* \"Contract.sol\":12334:12551  function joinToGame(uint8 gameId) public payable onlyRegistered {\r... */\n      pop\n      jump\t// out\n        /* \"Contract.sol\":10321:10888  function culcNextWinnerIndex(uint256 index) public pure returns(uint256) {\r... */\n    tag_59:\n        /* \"Contract.sol\":10385:10392  uint256 */\n      0x00\n        /* \"Contract.sol\":10860:10861  0 */\n      dup1\n        /* \"Contract.sol\":10844:10856  index.mod(2) */\n      tag_150\n        /* \"Contract.sol\":10854:10855  2 */\n      0x02\n        /* \"Contract.sol\":10844:10849  index */\n      dup5\n        /* \"Contract.sol\":10844:10853  index.mod */\n      tag_151\n      swap1\n        /* \"Contract.sol\":10844:10856  index.mod(2) */\n      swap2\n      swap1\n      0xffffffff\n      and\n      jump\t// in\n    tag_150:\n        /* \"Contract.sol\":10844:10861  index.mod(2) == 0 */\n      eq\n        /* \"Contract.sol\":10844:10880  index.mod(2) == 0 ? 0 : index.div(2) */\n      tag_152\n      jumpi\n        /* \"Contract.sol\":10868:10880  index.div(2) */\n      tag_153\n        /* \"Contract.sol\":10878:10879  2 */\n      0x02\n        /* \"Contract.sol\":10868:10873  index */\n      dup4\n        /* \"Contract.sol\":10868:10877  index.div */\n      tag_154\n      swap1\n        /* \"Contract.sol\":10868:10880  index.div(2) */\n      swap2\n      swap1\n      0xffffffff\n      and\n      jump\t// in\n    tag_153:\n        /* \"Contract.sol\":10844:10880  index.mod(2) == 0 ? 0 : index.div(2) */\n      jump(tag_155)\n    tag_152:\n        /* \"Contract.sol\":10864:10865  0 */\n      0x00\n        /* \"Contract.sol\":10844:10880  index.mod(2) == 0 ? 0 : index.div(2) */\n    tag_155:\n        /* \"Contract.sol\":10837:10880  return index.mod(2) == 0 ? 0 : index.div(2) */\n      swap1\n      pop\n        /* \"Contract.sol\":10321:10888  function culcNextWinnerIndex(uint256 index) public pure returns(uint256) {\r... */\n      swap2\n      swap1\n      pop\n      jump\t// out\n        /* \"Contract.sol\":11133:11252  function getUserBalance(address userAddress) public view returns(uint256) {\r... */\n    tag_65:\n        /* \"Contract.sol\":11198:11205  uint256 */\n      0x00\n        /* \"Contract.sol\":11225:11236  userAddress */\n      dup2\n        /* \"Contract.sol\":11225:11244  userAddress.balance */\n      0xffffffffffffffffffffffffffffffffffffffff\n      and\n      balance\n        /* \"Contract.sol\":11218:11244  return userAddress.balance */\n      swap1\n      pop\n        /* \"Contract.sol\":11133:11252  function getUserBalance(address userAddress) public view returns(uint256) {\r... */\n      swap2\n      swap1\n      pop\n      jump\t// out\n        /* \"Contract.sol\":6633:6666  uint256 public currentUserIdIndex */\n    tag_69:\n      sload(0x00)\n      dup2\n      jump\t// out\n        /* \"Contract.sol\":7888:7945  mapping (uint8 => mapping (uint256 => User)) public pools */\n    tag_75:\n      mstore(0x20, 0x08)\n      dup2\n      0x00\n      mstore\n      mstore(0x20, keccak256(0x00, 0x40))\n      dup1\n      0x00\n      mstore\n      keccak256(0x00, 0x40)\n      0x00\n      swap2\n      pop\n      swap2\n      pop\n      pop\n      dup1\n      0x00\n      add\n      sload\n      swap1\n      dup1\n      0x01\n      add\n      0x00\n      swap1\n      sload\n      swap1\n      0x0100\n      exp\n      swap1\n      div\n      0xffffffffffffffffffffffffffffffffffffffff\n      and\n      swap1\n      dup1\n      0x02\n      add\n      sload\n      swap1\n      pop\n      dup4\n      jump\t// out\n        /* \"Contract.sol\":7449:7486  mapping (uint8 => Game) public levels */\n    tag_80:\n      mstore(0x20, 0x03)\n      dup1\n      0x00\n      mstore\n      keccak256(0x00, 0x40)\n      0x00\n      swap2\n      pop\n      swap1\n      pop\n      dup1\n      0x00\n      add\n      0x00\n      swap1\n      sload\n      swap1\n      0x0100\n      exp\n      swap1\n      div\n      0xff\n      and\n      swap1\n      dup1\n      0x01\n      add\n      sload\n      swap1\n      pop\n      dup3\n      jump\t// out\n        /* \"Contract.sol\":10896:11125  function hasAccess(address userAdress) public view returns(bool) {\r... */\n    tag_86:\n        /* \"Contract.sol\":10955:10959  bool */\n      0x00\n        /* \"Contract.sol\":11104:11117  contractOwner */\n      0x01\n      dup1\n      sload\n      swap1\n      0x0100\n      exp\n      swap1\n      div\n      0xffffffffffffffffffffffffffffffffffffffff\n      and\n        /* \"Contract.sol\":11090:11117  userAdress == contractOwner */\n      0xffffffffffffffffffffffffffffffffffffffff\n      and\n        /* \"Contract.sol\":11090:11100  userAdress */\n      dup3\n        /* \"Contract.sol\":11090:11117  userAdress == contractOwner */\n      0xffffffffffffffffffffffffffffffffffffffff\n      and\n      eq\n        /* \"Contract.sol\":11083:11117  return userAdress == contractOwner */\n      swap1\n      pop\n        /* \"Contract.sol\":10896:11125  function hasAccess(address userAdress) public view returns(bool) {\r... */\n      swap2\n      swap1\n      pop\n      jump\t// out\n        /* \"Contract.sol\":7799:7849  mapping (uint8 => uint256) public currentUserIndex */\n    tag_91:\n      mstore(0x20, 0x07)\n      dup1\n      0x00\n      mstore\n      keccak256(0x00, 0x40)\n      0x00\n      swap2\n      pop\n      swap1\n      pop\n      sload\n      dup2\n      jump\t// out\n        /* \"Contract.sol\":6702:6733  uint8 public currentGameIdIndex */\n    tag_95:\n      0x01\n      0x00\n      swap1\n      sload\n      swap1\n      0x0100\n      exp\n      swap1\n      div\n      0xff\n      and\n      dup2\n      jump\t// out\n        /* \"Contract.sol\":11260:11629  function addGameLevel(uint256 amountToPay) public onlyOwner {\r... */\n    tag_101:\n        /* \"Contract.sol\":9201:9222  hasAccess(msg.sender) */\n      tag_159\n        /* \"Contract.sol\":9211:9221  msg.sender */\n      caller\n        /* \"Contract.sol\":9201:9210  hasAccess */\n      tag_86\n        /* \"Contract.sol\":9201:9222  hasAccess(msg.sender) */\n      jump\t// in\n    tag_159:\n        /* \"Contract.sol\":9193:9244  require(hasAccess(msg.sender), \"You are not owner\") */\n      tag_160\n      jumpi\n      mload(0x40)\n      0x08c379a000000000000000000000000000000000000000000000000000000000\n      dup2\n      mstore\n      0x04\n      add\n      tag_161\n      swap1\n      tag_162\n      jump\t// in\n    tag_161:\n      mload(0x40)\n      dup1\n      swap2\n      sub\n      swap1\n      revert\n    tag_160:\n        /* \"Contract.sol\":11465:11527  Game({ gameId: currentGameIdIndex, amountToPay: amountToPay }) */\n      mload(0x40)\n      dup1\n      0x40\n      add\n      0x40\n      mstore\n      dup1\n        /* \"Contract.sol\":11480:11498  currentGameIdIndex */\n      0x01\n      0x00\n      swap1\n      sload\n      swap1\n      0x0100\n      exp\n      swap1\n      div\n      0xff\n      and\n        /* \"Contract.sol\":11465:11527  Game({ gameId: currentGameIdIndex, amountToPay: amountToPay }) */\n      0xff\n      and\n      dup2\n      mstore\n      0x20\n      add\n        /* \"Contract.sol\":11513:11524  amountToPay */\n      dup3\n        /* \"Contract.sol\":11465:11527  Game({ gameId: currentGameIdIndex, amountToPay: amountToPay }) */\n      dup2\n      mstore\n      pop\n        /* \"Contract.sol\":11436:11442  levels */\n      0x03\n        /* \"Contract.sol\":11436:11462  levels[currentGameIdIndex] */\n      0x00\n        /* \"Contract.sol\":11443:11461  currentGameIdIndex */\n      0x01\n      0x00\n      swap1\n      sload\n      swap1\n      0x0100\n      exp\n      swap1\n      div\n      0xff\n      and\n        /* \"Contract.sol\":11436:11462  levels[currentGameIdIndex] */\n      0xff\n      and\n      0xff\n      and\n      dup2\n      mstore\n      0x20\n      add\n      swap1\n      dup2\n      mstore\n      0x20\n      add\n      0x00\n      keccak256\n        /* \"Contract.sol\":11436:11527  levels[currentGameIdIndex] = Game({ gameId: currentGameIdIndex, amountToPay: amountToPay }) */\n      0x00\n      dup3\n      add\n      mload\n      dup2\n      0x00\n      add\n      exp(0x0100, 0x00)\n      dup2\n      sload\n      dup2\n      0xff\n      mul\n      not\n      and\n      swap1\n      dup4\n      0xff\n      and\n      mul\n      or\n      swap1\n      sstore\n      pop\n      0x20\n      dup3\n      add\n      mload\n      dup2\n      0x01\n      add\n      sstore\n      swap1\n      pop\n      pop\n        /* \"Contract.sol\":11560:11561  1 */\n      0x01\n        /* \"Contract.sol\":11538:11556  currentGameIdIndex */\n      dup1\n      0x00\n        /* \"Contract.sol\":11538:11561  currentGameIdIndex += 1 */\n      dup3\n      dup3\n      dup3\n      swap1\n      sload\n      swap1\n      0x0100\n      exp\n      swap1\n      div\n      0xff\n      and\n      tag_164\n      swap2\n      swap1\n      tag_118\n      jump\t// in\n    tag_164:\n      swap3\n      pop\n      0x0100\n      exp\n      dup2\n      sload\n      dup2\n      0xff\n      mul\n      not\n      and\n      swap1\n      dup4\n      0xff\n      and\n      mul\n      or\n      swap1\n      sstore\n      pop\n        /* \"Contract.sol\":11577:11621  NewGame( currentGameIdIndex-1, amountToPay ) */\n      0xcf1ed532d6b83b4290f2f407b156b17826f49752e7a8ff360f502c307e055663\n        /* \"Contract.sol\":11605:11606  1 */\n      0x01\n        /* \"Contract.sol\":11586:11604  currentGameIdIndex */\n      dup1\n      0x00\n      swap1\n      sload\n      swap1\n      0x0100\n      exp\n      swap1\n      div\n      0xff\n      and\n        /* \"Contract.sol\":11586:11606  currentGameIdIndex-1 */\n      tag_165\n      swap2\n      swap1\n      tag_166\n      jump\t// in\n    tag_165:\n        /* \"Contract.sol\":11608:11619  amountToPay */\n      dup3\n        /* \"Contract.sol\":11577:11621  NewGame( currentGameIdIndex-1, amountToPay ) */\n      mload(0x40)\n      tag_167\n      swap3\n      swap2\n      swap1\n      tag_82\n      jump\t// in\n    tag_167:\n      mload(0x40)\n      dup1\n      swap2\n      sub\n      swap1\n      log1\n        /* \"Contract.sol\":11260:11629  function addGameLevel(uint256 amountToPay) public onlyOwner {\r... */\n      pop\n      jump\t// out\n        /* \"Contract.sol\":7510:7553  mapping (uint256 => address) public usersId */\n    tag_105:\n      mstore(0x20, 0x04)\n      dup1\n      0x00\n      mstore\n      keccak256(0x00, 0x40)\n      0x00\n      swap2\n      pop\n      sload\n      swap1\n      0x0100\n      exp\n      swap1\n      div\n      0xffffffffffffffffffffffffffffffffffffffff\n      and\n      dup2\n      jump\t// out\n        /* \"Contract.sol\":7987:8054  mapping (address => mapping (uint8 => uint256)) public userPayments */\n    tag_111:\n      mstore(0x20, 0x09)\n      dup2\n      0x00\n      mstore\n      mstore(0x20, keccak256(0x00, 0x40))\n      dup1\n      0x00\n      mstore\n      keccak256(0x00, 0x40)\n      0x00\n      swap2\n      pop\n      swap2\n      pop\n      pop\n      sload\n      dup2\n      jump\t// out\n        /* \"Contract.sol\":12559:16322  function _joinToGame(uint8 gameId, address sender, uint256 value) internal {\r... */\n    tag_126:\n        /* \"Contract.sol\":12663:12669  levels */\n      0x03\n        /* \"Contract.sol\":12663:12677  levels[gameId] */\n      0x00\n        /* \"Contract.sol\":12670:12676  gameId */\n      dup5\n        /* \"Contract.sol\":12663:12677  levels[gameId] */\n      0xff\n      and\n      0xff\n      and\n      dup2\n      mstore\n      0x20\n      add\n      swap1\n      dup2\n      mstore\n      0x20\n      add\n      0x00\n      keccak256\n        /* \"Contract.sol\":12663:12689  levels[gameId].amountToPay */\n      0x01\n      add\n      sload\n        /* \"Contract.sol\":12654:12659  value */\n      dup2\n        /* \"Contract.sol\":12654:12689  value >= levels[gameId].amountToPay */\n      lt\n      iszero\n        /* \"Contract.sol\":12645:12729  require (value >= levels[gameId].amountToPay, \"Insufficient amount of contribution\") */\n      tag_169\n      jumpi\n      mload(0x40)\n      0x08c379a000000000000000000000000000000000000000000000000000000000\n      dup2\n      mstore\n      0x04\n      add\n      tag_170\n      swap1\n      tag_171\n      jump\t// in\n    tag_170:\n      mload(0x40)\n      dup1\n      swap2\n      sub\n      swap1\n      revert\n    tag_169:\n        /* \"Contract.sol\":12904:12919  registeredUsers */\n      0x06\n        /* \"Contract.sol\":12904:12927  registeredUsers[sender] */\n      0x00\n        /* \"Contract.sol\":12920:12926  sender */\n      dup4\n        /* \"Contract.sol\":12904:12927  registeredUsers[sender] */\n      0xffffffffffffffffffffffffffffffffffffffff\n      and\n      0xffffffffffffffffffffffffffffffffffffffff\n      and\n      dup2\n      mstore\n      0x20\n      add\n      swap1\n      dup2\n      mstore\n      0x20\n      add\n      0x00\n      keccak256\n        /* \"Contract.sol\":12862:12867  pools */\n      0x08\n        /* \"Contract.sol\":12862:12875  pools[gameId] */\n      0x00\n        /* \"Contract.sol\":12868:12874  gameId */\n      dup6\n        /* \"Contract.sol\":12862:12875  pools[gameId] */\n      0xff\n      and\n      0xff\n      and\n      dup2\n      mstore\n      0x20\n      add\n      swap1\n      dup2\n      mstore\n      0x20\n      add\n      0x00\n      keccak256\n        /* \"Contract.sol\":12862:12901  pools[gameId][currentUserIndex[gameId]] */\n      0x00\n        /* \"Contract.sol\":12876:12892  currentUserIndex */\n      0x07\n        /* \"Contract.sol\":12876:12900  currentUserIndex[gameId] */\n      0x00\n        /* \"Contract.sol\":12893:12899  gameId */\n      dup8\n        /* \"Contract.sol\":12876:12900  currentUserIndex[gameId] */\n      0xff\n      and\n      0xff\n      and\n      dup2\n      mstore\n      0x20\n      add\n      swap1\n      dup2\n      mstore\n      0x20\n      add\n      0x00\n      keccak256\n      sload\n        /* \"Contract.sol\":12862:12901  pools[gameId][currentUserIndex[gameId]] */\n      dup2\n      mstore\n      0x20\n      add\n      swap1\n      dup2\n      mstore\n      0x20\n      add\n      0x00\n      keccak256\n        /* \"Contract.sol\":12862:12927  pools[gameId][currentUserIndex[gameId]] = registeredUsers[sender] */\n      0x00\n      dup3\n      add\n      sload\n      dup2\n      0x00\n      add\n      sstore\n      0x01\n      dup3\n      add\n      0x00\n      swap1\n      sload\n      swap1\n      0x0100\n      exp\n      swap1\n      div\n      0xffffffffffffffffffffffffffffffffffffffff\n      and\n      dup2\n      0x01\n      add\n      exp(0x0100, 0x00)\n      dup2\n      sload\n      dup2\n      0xffffffffffffffffffffffffffffffffffffffff\n      mul\n      not\n      and\n      swap1\n      dup4\n      0xffffffffffffffffffffffffffffffffffffffff\n      and\n      mul\n      or\n      swap1\n      sstore\n      pop\n      0x02\n      dup3\n      add\n      sload\n      dup2\n      0x02\n      add\n      sstore\n      swap1\n      pop\n      pop\n        /* \"Contract.sol\":12966:12970  true */\n      0x01\n        /* \"Contract.sol\":12938:12947  userGames */\n      0x0a\n        /* \"Contract.sol\":12938:12955  userGames[sender] */\n      0x00\n        /* \"Contract.sol\":12948:12954  sender */\n      dup5\n        /* \"Contract.sol\":12938:12955  userGames[sender] */\n      0xffffffffffffffffffffffffffffffffffffffff\n      and\n      0xffffffffffffffffffffffffffffffffffffffff\n      and\n      dup2\n      mstore\n      0x20\n      add\n      swap1\n      dup2\n      mstore\n      0x20\n      add\n      0x00\n      keccak256\n        /* \"Contract.sol\":12938:12963  userGames[sender][gameId] */\n      0x00\n        /* \"Contract.sol\":12956:12962  gameId */\n      dup6\n        /* \"Contract.sol\":12938:12963  userGames[sender][gameId] */\n      0xff\n      and\n      0xff\n      and\n      dup2\n      mstore\n      0x20\n      add\n      swap1\n      dup2\n      mstore\n      0x20\n      add\n      0x00\n      keccak256\n      0x00\n        /* \"Contract.sol\":12938:12970  userGames[sender][gameId] = true */\n      0x0100\n      exp\n      dup2\n      sload\n      dup2\n      0xff\n      mul\n      not\n      and\n      swap1\n      dup4\n      iszero\n      iszero\n      mul\n      or\n      swap1\n      sstore\n      pop\n        /* \"Contract.sol\":13009:13010  1 */\n      0x01\n        /* \"Contract.sol\":12981:12997  currentUserIndex */\n      0x07\n        /* \"Contract.sol\":12981:13005  currentUserIndex[gameId] */\n      0x00\n        /* \"Contract.sol\":12998:13004  gameId */\n      dup6\n        /* \"Contract.sol\":12981:13005  currentUserIndex[gameId] */\n      0xff\n      and\n      0xff\n      and\n      dup2\n      mstore\n      0x20\n      add\n      swap1\n      dup2\n      mstore\n      0x20\n      add\n      0x00\n      keccak256\n      0x00\n        /* \"Contract.sol\":12981:13010  currentUserIndex[gameId] += 1 */\n      dup3\n      dup3\n      sload\n      tag_172\n      swap2\n      swap1\n      tag_139\n      jump\t// in\n    tag_172:\n      swap3\n      pop\n      pop\n      dup2\n      swap1\n      sstore\n      pop\n        /* \"Contract.sol\":13154:13155  3 */\n      0x03\n        /* \"Contract.sol\":13126:13142  currentUserIndex */\n      0x07\n        /* \"Contract.sol\":13126:13150  currentUserIndex[gameId] */\n      0x00\n        /* \"Contract.sol\":13143:13149  gameId */\n      dup6\n        /* \"Contract.sol\":13126:13150  currentUserIndex[gameId] */\n      0xff\n      and\n      0xff\n      and\n      dup2\n      mstore\n      0x20\n      add\n      swap1\n      dup2\n      mstore\n      0x20\n      add\n      0x00\n      keccak256\n      sload\n        /* \"Contract.sol\":13126:13155  currentUserIndex[gameId] >= 3 */\n      lt\n        /* \"Contract.sol\":13122:16315  if (currentUserIndex[gameId] >= 3) {\r... */\n      tag_173\n      jumpi\n        /* \"Contract.sol\":13172:13189  uint256 userIndex */\n      0x00\n        /* \"Contract.sol\":13192:13237  culcNextWinnerIndex(currentUserIndex[gameId]) */\n      tag_174\n        /* \"Contract.sol\":13212:13228  currentUserIndex */\n      0x07\n        /* \"Contract.sol\":13212:13236  currentUserIndex[gameId] */\n      0x00\n        /* \"Contract.sol\":13229:13235  gameId */\n      dup7\n        /* \"Contract.sol\":13212:13236  currentUserIndex[gameId] */\n      0xff\n      and\n      0xff\n      and\n      dup2\n      mstore\n      0x20\n      add\n      swap1\n      dup2\n      mstore\n      0x20\n      add\n      0x00\n      keccak256\n      sload\n        /* \"Contract.sol\":13192:13211  culcNextWinnerIndex */\n      tag_59\n        /* \"Contract.sol\":13192:13237  culcNextWinnerIndex(currentUserIndex[gameId]) */\n      jump\t// in\n    tag_174:\n        /* \"Contract.sol\":13172:13237  uint256 userIndex = culcNextWinnerIndex(currentUserIndex[gameId]) */\n      swap1\n      pop\n        /* \"Contract.sol\":13378:16304  while (userIndex != 0) {\r... */\n    tag_175:\n        /* \"Contract.sol\":13398:13399  0 */\n      0x00\n        /* \"Contract.sol\":13385:13394  userIndex */\n      dup2\n        /* \"Contract.sol\":13385:13399  userIndex != 0 */\n      eq\n        /* \"Contract.sol\":13378:16304  while (userIndex != 0) {\r... */\n      tag_176\n      jumpi\n        /* \"Contract.sol\":13420:13443  address selectedAddress */\n      0x00\n        /* \"Contract.sol\":13446:13451  pools */\n      0x08\n        /* \"Contract.sol\":13446:13459  pools[gameId] */\n      0x00\n        /* \"Contract.sol\":13452:13458  gameId */\n      dup7\n        /* \"Contract.sol\":13446:13459  pools[gameId] */\n      0xff\n      and\n      0xff\n      and\n      dup2\n      mstore\n      0x20\n      add\n      swap1\n      dup2\n      mstore\n      0x20\n      add\n      0x00\n      keccak256\n        /* \"Contract.sol\":13446:13474  pools[gameId][userIndex - 1] */\n      0x00\n        /* \"Contract.sol\":13472:13473  1 */\n      0x01\n        /* \"Contract.sol\":13460:13469  userIndex */\n      dup5\n        /* \"Contract.sol\":13460:13473  userIndex - 1 */\n      tag_177\n      swap2\n      swap1\n      tag_142\n      jump\t// in\n    tag_177:\n        /* \"Contract.sol\":13446:13474  pools[gameId][userIndex - 1] */\n      dup2\n      mstore\n      0x20\n      add\n      swap1\n      dup2\n      mstore\n      0x20\n      add\n      0x00\n      keccak256\n        /* \"Contract.sol\":13446:13486  pools[gameId][userIndex - 1].userAddress */\n      0x01\n      add\n      0x00\n      swap1\n      sload\n      swap1\n      0x0100\n      exp\n      swap1\n      div\n      0xffffffffffffffffffffffffffffffffffffffff\n      and\n        /* \"Contract.sol\":13420:13486  address selectedAddress = pools[gameId][userIndex - 1].userAddress */\n      swap1\n      pop\n        /* \"Contract.sol\":13692:13693  1 */\n      0x01\n        /* \"Contract.sol\":13651:13663  userPayments */\n      0x09\n        /* \"Contract.sol\":13651:13680  userPayments[selectedAddress] */\n      0x00\n        /* \"Contract.sol\":13664:13679  selectedAddress */\n      dup4\n        /* \"Contract.sol\":13651:13680  userPayments[selectedAddress] */\n      0xffffffffffffffffffffffffffffffffffffffff\n      and\n      0xffffffffffffffffffffffffffffffffffffffff\n      and\n      dup2\n      mstore\n      0x20\n      add\n      swap1\n      dup2\n      mstore\n      0x20\n      add\n      0x00\n      keccak256\n        /* \"Contract.sol\":13651:13688  userPayments[selectedAddress][gameId] */\n      0x00\n        /* \"Contract.sol\":13681:13687  gameId */\n      dup8\n        /* \"Contract.sol\":13651:13688  userPayments[selectedAddress][gameId] */\n      0xff\n      and\n      0xff\n      and\n      dup2\n      mstore\n      0x20\n      add\n      swap1\n      dup2\n      mstore\n      0x20\n      add\n      0x00\n      keccak256\n      sload\n        /* \"Contract.sol\":13651:13693  userPayments[selectedAddress][gameId] <= 1 */\n      gt\n      iszero\n        /* \"Contract.sol\":13651:13733  userPayments[selectedAddress][gameId] <= 1 || userGames[selectedAddress][gameId+1] */\n      dup1\n      tag_178\n      jumpi\n      pop\n        /* \"Contract.sol\":13697:13706  userGames */\n      0x0a\n        /* \"Contract.sol\":13697:13723  userGames[selectedAddress] */\n      0x00\n        /* \"Contract.sol\":13707:13722  selectedAddress */\n      dup3\n        /* \"Contract.sol\":13697:13723  userGames[selectedAddress] */\n      0xffffffffffffffffffffffffffffffffffffffff\n      and\n      0xffffffffffffffffffffffffffffffffffffffff\n      and\n      dup2\n      mstore\n      0x20\n      add\n      swap1\n      dup2\n      mstore\n      0x20\n      add\n      0x00\n      keccak256\n        /* \"Contract.sol\":13697:13733  userGames[selectedAddress][gameId+1] */\n      0x00\n        /* \"Contract.sol\":13731:13732  1 */\n      0x01\n        /* \"Contract.sol\":13724:13730  gameId */\n      dup8\n        /* \"Contract.sol\":13724:13732  gameId+1 */\n      tag_179\n      swap2\n      swap1\n      tag_118\n      jump\t// in\n    tag_179:\n        /* \"Contract.sol\":13697:13733  userGames[selectedAddress][gameId+1] */\n      0xff\n      and\n      0xff\n      and\n      dup2\n      mstore\n      0x20\n      add\n      swap1\n      dup2\n      mstore\n      0x20\n      add\n      0x00\n      keccak256\n      0x00\n      swap1\n      sload\n      swap1\n      0x0100\n      exp\n      swap1\n      div\n      0xff\n      and\n        /* \"Contract.sol\":13651:13733  userPayments[selectedAddress][gameId] <= 1 || userGames[selectedAddress][gameId+1] */\n    tag_178:\n        /* \"Contract.sol\":13647:16228  if (userPayments[selectedAddress][gameId] <= 1 || userGames[selectedAddress][gameId+1]) {\r... */\n      iszero\n      tag_180\n      jumpi\n        /* \"Contract.sol\":13935:13947  bool success */\n      0x00\n        /* \"Contract.sol\":13953:13968  selectedAddress */\n      dup2\n        /* \"Contract.sol\":13953:13973  selectedAddress.call */\n      0xffffffffffffffffffffffffffffffffffffffff\n      and\n        /* \"Contract.sol\":13981:14031  levels[gameId].amountToPay.mul(baseAward).div(100) */\n      tag_181\n        /* \"Contract.sol\":14027:14030  100 */\n      0x64\n        /* \"Contract.sol\":13981:14022  levels[gameId].amountToPay.mul(baseAward) */\n      tag_182\n        /* \"Contract.sol\":6862:6864  74 */\n      0x4a\n        /* \"Contract.sol\":13981:13987  levels */\n      0x03\n        /* \"Contract.sol\":13981:13995  levels[gameId] */\n      0x00\n        /* \"Contract.sol\":13988:13994  gameId */\n      dup13\n        /* \"Contract.sol\":13981:13995  levels[gameId] */\n      0xff\n      and\n      0xff\n      and\n      dup2\n      mstore\n      0x20\n      add\n      swap1\n      dup2\n      mstore\n      0x20\n      add\n      0x00\n      keccak256\n        /* \"Contract.sol\":13981:14007  levels[gameId].amountToPay */\n      0x01\n      add\n      sload\n        /* \"Contract.sol\":13981:14011  levels[gameId].amountToPay.mul */\n      tag_183\n      swap1\n        /* \"Contract.sol\":13981:14022  levels[gameId].amountToPay.mul(baseAward) */\n      swap2\n      swap1\n      0xffffffff\n      and\n      jump\t// in\n    tag_182:\n        /* \"Contract.sol\":13981:14026  levels[gameId].amountToPay.mul(baseAward).div */\n      tag_154\n      swap1\n        /* \"Contract.sol\":13981:14031  levels[gameId].amountToPay.mul(baseAward).div(100) */\n      swap2\n      swap1\n      0xffffffff\n      and\n      jump\t// in\n    tag_181:\n        /* \"Contract.sol\":13953:14036  selectedAddress.call{value: levels[gameId].amountToPay.mul(baseAward).div(100)}(\"\") */\n      mload(0x40)\n      tag_184\n      swap1\n      tag_185\n      jump\t// in\n    tag_184:\n      0x00\n      mload(0x40)\n      dup1\n      dup4\n      sub\n      dup2\n      dup6\n      dup8\n      gas\n      call\n      swap3\n      pop\n      pop\n      pop\n      returndatasize\n      dup1\n      0x00\n      dup2\n      eq\n      tag_188\n      jumpi\n      mload(0x40)\n      swap2\n      pop\n      and(add(returndatasize, 0x3f), not(0x1f))\n      dup3\n      add\n      0x40\n      mstore\n      returndatasize\n      dup3\n      mstore\n      returndatasize\n      0x00\n      0x20\n      dup5\n      add\n      returndatacopy\n      jump(tag_187)\n    tag_188:\n      0x60\n      swap2\n      pop\n    tag_187:\n      pop\n        /* \"Contract.sol\":13934:14036  (bool success, ) = selectedAddress.call{value: levels[gameId].amountToPay.mul(baseAward).div(100)}(\"\") */\n      pop\n      swap1\n      pop\n        /* \"Contract.sol\":14100:14101  1 */\n      0x01\n        /* \"Contract.sol\":14059:14071  userPayments */\n      0x09\n        /* \"Contract.sol\":14059:14088  userPayments[selectedAddress] */\n      0x00\n        /* \"Contract.sol\":14072:14087  selectedAddress */\n      dup5\n        /* \"Contract.sol\":14059:14088  userPayments[selectedAddress] */\n      0xffffffffffffffffffffffffffffffffffffffff\n      and\n      0xffffffffffffffffffffffffffffffffffffffff\n      and\n      dup2\n      mstore\n      0x20\n      add\n      swap1\n      dup2\n      mstore\n      0x20\n      add\n      0x00\n      keccak256\n        /* \"Contract.sol\":14059:14096  userPayments[selectedAddress][gameId] */\n      0x00\n        /* \"Contract.sol\":14089:14095  gameId */\n      dup9\n        /* \"Contract.sol\":14059:14096  userPayments[selectedAddress][gameId] */\n      0xff\n      and\n      0xff\n      and\n      dup2\n      mstore\n      0x20\n      add\n      swap1\n      dup2\n      mstore\n      0x20\n      add\n      0x00\n      keccak256\n      0x00\n        /* \"Contract.sol\":14059:14101  userPayments[selectedAddress][gameId] += 1 */\n      dup3\n      dup3\n      sload\n      tag_189\n      swap2\n      swap1\n      tag_139\n      jump\t// in\n    tag_189:\n      swap3\n      pop\n      pop\n      dup2\n      swap1\n      sstore\n      pop\n        /* \"Contract.sol\":14183:14248  GamePaymentEvent(levels[gameId].gameId, selectedAddress, success) */\n      0xd9ff1d189bd8473f87a70327222795b92238d06f3edf14fa23403ac2153c10a9\n        /* \"Contract.sol\":14200:14206  levels */\n      0x03\n        /* \"Contract.sol\":14200:14214  levels[gameId] */\n      0x00\n        /* \"Contract.sol\":14207:14213  gameId */\n      dup9\n        /* \"Contract.sol\":14200:14214  levels[gameId] */\n      0xff\n      and\n      0xff\n      and\n      dup2\n      mstore\n      0x20\n      add\n      swap1\n      dup2\n      mstore\n      0x20\n      add\n      0x00\n      keccak256\n        /* \"Contract.sol\":14200:14221  levels[gameId].gameId */\n      0x00\n      add\n      0x00\n      swap1\n      sload\n      swap1\n      0x0100\n      exp\n      swap1\n      div\n      0xff\n      and\n        /* \"Contract.sol\":14223:14238  selectedAddress */\n      dup4\n        /* \"Contract.sol\":14240:14247  success */\n      dup4\n        /* \"Contract.sol\":14183:14248  GamePaymentEvent(levels[gameId].gameId, selectedAddress, success) */\n      mload(0x40)\n      tag_190\n      swap4\n      swap3\n      swap2\n      swap1\n      tag_191\n      jump\t// in\n    tag_190:\n      mload(0x40)\n      dup1\n      swap2\n      sub\n      swap1\n      log1\n        /* \"Contract.sol\":14273:14287  uint256 userId */\n      0x00\n        /* \"Contract.sol\":14290:14295  pools */\n      0x08\n        /* \"Contract.sol\":14290:14303  pools[gameId] */\n      0x00\n        /* \"Contract.sol\":14296:14302  gameId */\n      dup9\n        /* \"Contract.sol\":14290:14303  pools[gameId] */\n      0xff\n      and\n      0xff\n      and\n      dup2\n      mstore\n      0x20\n      add\n      swap1\n      dup2\n      mstore\n      0x20\n      add\n      0x00\n      keccak256\n        /* \"Contract.sol\":14290:14318  pools[gameId][userIndex - 1] */\n      0x00\n        /* \"Contract.sol\":14316:14317  1 */\n      0x01\n        /* \"Contract.sol\":14304:14313  userIndex */\n      dup7\n        /* \"Contract.sol\":14304:14317  userIndex - 1 */\n      tag_192\n      swap2\n      swap1\n      tag_142\n      jump\t// in\n    tag_192:\n        /* \"Contract.sol\":14290:14318  pools[gameId][userIndex - 1] */\n      dup2\n      mstore\n      0x20\n      add\n      swap1\n      dup2\n      mstore\n      0x20\n      add\n      0x00\n      keccak256\n        /* \"Contract.sol\":14290:14325  pools[gameId][userIndex - 1].userId */\n      0x00\n      add\n      sload\n        /* \"Contract.sol\":14273:14325  uint256 userId = pools[gameId][userIndex - 1].userId */\n      swap1\n      pop\n        /* \"Contract.sol\":14377:14394  uint256 invitedId */\n      0x00\n        /* \"Contract.sol\":14397:14402  pools */\n      0x08\n        /* \"Contract.sol\":14397:14410  pools[gameId] */\n      0x00\n        /* \"Contract.sol\":14403:14409  gameId */\n      dup10\n        /* \"Contract.sol\":14397:14410  pools[gameId] */\n      0xff\n      and\n      0xff\n      and\n      dup2\n      mstore\n      0x20\n      add\n      swap1\n      dup2\n      mstore\n      0x20\n      add\n      0x00\n      keccak256\n        /* \"Contract.sol\":14397:14425  pools[gameId][userIndex - 1] */\n      0x00\n        /* \"Contract.sol\":14423:14424  1 */\n      0x01\n        /* \"Contract.sol\":14411:14420  userIndex */\n      dup8\n        /* \"Contract.sol\":14411:14424  userIndex - 1 */\n      tag_193\n      swap2\n      swap1\n      tag_142\n      jump\t// in\n    tag_193:\n        /* \"Contract.sol\":14397:14425  pools[gameId][userIndex - 1] */\n      dup2\n      mstore\n      0x20\n      add\n      swap1\n      dup2\n      mstore\n      0x20\n      add\n      0x00\n      keccak256\n        /* \"Contract.sol\":14397:14435  pools[gameId][userIndex - 1].invitedId */\n      0x02\n      add\n      sload\n        /* \"Contract.sol\":14377:14435  uint256 invitedId = pools[gameId][userIndex - 1].invitedId */\n      swap1\n      pop\n        /* \"Contract.sol\":14495:14508  uint refValue */\n      0x00\n        /* \"Contract.sol\":14511:14569  levels[gameId].amountToPay.mul(firstLevelReferal).div(100) */\n      tag_194\n        /* \"Contract.sol\":14565:14568  100 */\n      0x64\n        /* \"Contract.sol\":14511:14560  levels[gameId].amountToPay.mul(firstLevelReferal) */\n      tag_195\n        /* \"Contract.sol\":6925:6927  10 */\n      0x0a\n        /* \"Contract.sol\":14511:14517  levels */\n      0x03\n        /* \"Contract.sol\":14511:14525  levels[gameId] */\n      0x00\n        /* \"Contract.sol\":14518:14524  gameId */\n      dup15\n        /* \"Contract.sol\":14511:14525  levels[gameId] */\n      0xff\n      and\n      0xff\n      and\n      dup2\n      mstore\n      0x20\n      add\n      swap1\n      dup2\n      mstore\n      0x20\n      add\n      0x00\n      keccak256\n        /* \"Contract.sol\":14511:14537  levels[gameId].amountToPay */\n      0x01\n      add\n      sload\n        /* \"Contract.sol\":14511:14541  levels[gameId].amountToPay.mul */\n      tag_183\n      swap1\n        /* \"Contract.sol\":14511:14560  levels[gameId].amountToPay.mul(firstLevelReferal) */\n      swap2\n      swap1\n      0xffffffff\n      and\n      jump\t// in\n    tag_195:\n        /* \"Contract.sol\":14511:14564  levels[gameId].amountToPay.mul(firstLevelReferal).div */\n      tag_154\n      swap1\n        /* \"Contract.sol\":14511:14569  levels[gameId].amountToPay.mul(firstLevelReferal).div(100) */\n      swap2\n      swap1\n      0xffffffff\n      and\n      jump\t// in\n    tag_194:\n        /* \"Contract.sol\":14495:14569  uint refValue = levels[gameId].amountToPay.mul(firstLevelReferal).div(100) */\n      swap1\n      pop\n        /* \"Contract.sol\":14631:14638  usersId */\n      0x04\n        /* \"Contract.sol\":14631:14649  usersId[invitedId] */\n      0x00\n        /* \"Contract.sol\":14639:14648  invitedId */\n      dup4\n        /* \"Contract.sol\":14631:14649  usersId[invitedId] */\n      dup2\n      mstore\n      0x20\n      add\n      swap1\n      dup2\n      mstore\n      0x20\n      add\n      0x00\n      keccak256\n      0x00\n      swap1\n      sload\n      swap1\n      0x0100\n      exp\n      swap1\n      div\n      0xffffffffffffffffffffffffffffffffffffffff\n      and\n        /* \"Contract.sol\":14631:14654  usersId[invitedId].call */\n      0xffffffffffffffffffffffffffffffffffffffff\n      and\n        /* \"Contract.sol\":14662:14670  refValue */\n      dup2\n        /* \"Contract.sol\":14631:14675  usersId[invitedId].call{value: refValue}(\"\") */\n      mload(0x40)\n      tag_196\n      swap1\n      tag_185\n      jump\t// in\n    tag_196:\n      0x00\n      mload(0x40)\n      dup1\n      dup4\n      sub\n      dup2\n      dup6\n      dup8\n      gas\n      call\n      swap3\n      pop\n      pop\n      pop\n      returndatasize\n      dup1\n      0x00\n      dup2\n      eq\n      tag_199\n      jumpi\n      mload(0x40)\n      swap2\n      pop\n      and(add(returndatasize, 0x3f), not(0x1f))\n      dup3\n      add\n      0x40\n      mstore\n      returndatasize\n      dup3\n      mstore\n      returndatasize\n      0x00\n      0x20\n      dup5\n      add\n      returndatacopy\n      jump(tag_198)\n    tag_199:\n      0x60\n      swap2\n      pop\n    tag_198:\n      pop\n        /* \"Contract.sol\":14617:14675  (success, ) = usersId[invitedId].call{value: refValue}(\"\") */\n      pop\n      dup1\n      swap5\n      pop\n      pop\n        /* \"Contract.sol\":14704:14711  success */\n      dup4\n        /* \"Contract.sol\":14700:14789  if (success) emit ReferalPaymentEvent(levels[gameId].gameId, userId, invitedId, refValue) */\n      iszero\n      tag_200\n      jumpi\n        /* \"Contract.sol\":14718:14789  ReferalPaymentEvent(levels[gameId].gameId, userId, invitedId, refValue) */\n      0xafe90bc52fc3dd02b2550b825fc68e93b4bfbcb8165bbacda6cd14b2bad5bc02\n        /* \"Contract.sol\":14738:14744  levels */\n      0x03\n        /* \"Contract.sol\":14738:14752  levels[gameId] */\n      0x00\n        /* \"Contract.sol\":14745:14751  gameId */\n      dup12\n        /* \"Contract.sol\":14738:14752  levels[gameId] */\n      0xff\n      and\n      0xff\n      and\n      dup2\n      mstore\n      0x20\n      add\n      swap1\n      dup2\n      mstore\n      0x20\n      add\n      0x00\n      keccak256\n        /* \"Contract.sol\":14738:14759  levels[gameId].gameId */\n      0x00\n      add\n      0x00\n      swap1\n      sload\n      swap1\n      0x0100\n      exp\n      swap1\n      div\n      0xff\n      and\n        /* \"Contract.sol\":14761:14767  userId */\n      dup5\n        /* \"Contract.sol\":14769:14778  invitedId */\n      dup5\n        /* \"Contract.sol\":14780:14788  refValue */\n      dup5\n        /* \"Contract.sol\":14718:14789  ReferalPaymentEvent(levels[gameId].gameId, userId, invitedId, refValue) */\n      mload(0x40)\n      tag_201\n      swap5\n      swap4\n      swap3\n      swap2\n      swap1\n      tag_202\n      jump\t// in\n    tag_201:\n      mload(0x40)\n      dup1\n      swap2\n      sub\n      swap1\n      log1\n        /* \"Contract.sol\":14700:14789  if (success) emit ReferalPaymentEvent(levels[gameId].gameId, userId, invitedId, refValue) */\n    tag_200:\n        /* \"Contract.sol\":14825:14884  levels[gameId].amountToPay.mul(secondLevelReferal).div(100) */\n      tag_203\n        /* \"Contract.sol\":14880:14883  100 */\n      0x64\n        /* \"Contract.sol\":14825:14875  levels[gameId].amountToPay.mul(secondLevelReferal) */\n      tag_204\n        /* \"Contract.sol\":7002:7003  6 */\n      0x06\n        /* \"Contract.sol\":14825:14831  levels */\n      0x03\n        /* \"Contract.sol\":14825:14839  levels[gameId] */\n      0x00\n        /* \"Contract.sol\":14832:14838  gameId */\n      dup15\n        /* \"Contract.sol\":14825:14839  levels[gameId] */\n      0xff\n      and\n      0xff\n      and\n      dup2\n      mstore\n      0x20\n      add\n      swap1\n      dup2\n      mstore\n      0x20\n      add\n      0x00\n      keccak256\n        /* \"Contract.sol\":14825:14851  levels[gameId].amountToPay */\n      0x01\n      add\n      sload\n        /* \"Contract.sol\":14825:14855  levels[gameId].amountToPay.mul */\n      tag_183\n      swap1\n        /* \"Contract.sol\":14825:14875  levels[gameId].amountToPay.mul(secondLevelReferal) */\n      swap2\n      swap1\n      0xffffffff\n      and\n      jump\t// in\n    tag_204:\n        /* \"Contract.sol\":14825:14879  levels[gameId].amountToPay.mul(secondLevelReferal).div */\n      tag_154\n      swap1\n        /* \"Contract.sol\":14825:14884  levels[gameId].amountToPay.mul(secondLevelReferal).div(100) */\n      swap2\n      swap1\n      0xffffffff\n      and\n      jump\t// in\n    tag_203:\n        /* \"Contract.sol\":14814:14884  refValue = levels[gameId].amountToPay.mul(secondLevelReferal).div(100) */\n      swap1\n      pop\n        /* \"Contract.sol\":14945:14960  registeredUsers */\n      0x06\n        /* \"Contract.sol\":14945:14980  registeredUsers[usersId[invitedId]] */\n      0x00\n        /* \"Contract.sol\":14961:14968  usersId */\n      0x04\n        /* \"Contract.sol\":14961:14979  usersId[invitedId] */\n      0x00\n        /* \"Contract.sol\":14969:14978  invitedId */\n      dup6\n        /* \"Contract.sol\":14961:14979  usersId[invitedId] */\n      dup2\n      mstore\n      0x20\n      add\n      swap1\n      dup2\n      mstore\n      0x20\n      add\n      0x00\n      keccak256\n      0x00\n      swap1\n      sload\n      swap1\n      0x0100\n      exp\n      swap1\n      div\n      0xffffffffffffffffffffffffffffffffffffffff\n      and\n        /* \"Contract.sol\":14945:14980  registeredUsers[usersId[invitedId]] */\n      0xffffffffffffffffffffffffffffffffffffffff\n      and\n      0xffffffffffffffffffffffffffffffffffffffff\n      and\n      dup2\n      mstore\n      0x20\n      add\n      swap1\n      dup2\n      mstore\n      0x20\n      add\n      0x00\n      keccak256\n        /* \"Contract.sol\":14945:14992  registeredUsers[usersId[invitedId]].userAddress */\n      0x01\n      add\n      0x00\n      swap1\n      sload\n      swap1\n      0x0100\n      exp\n      swap1\n      div\n      0xffffffffffffffffffffffffffffffffffffffff\n      and\n        /* \"Contract.sol\":14945:14997  registeredUsers[usersId[invitedId]].userAddress.call */\n      0xffffffffffffffffffffffffffffffffffffffff\n      and\n        /* \"Contract.sol\":15005:15013  refValue */\n      dup2\n        /* \"Contract.sol\":14945:15018  registeredUsers[usersId[invitedId]].userAddress.call{value: refValue}(\"\") */\n      mload(0x40)\n      tag_205\n      swap1\n      tag_185\n      jump\t// in\n    tag_205:\n      0x00\n      mload(0x40)\n      dup1\n      dup4\n      sub\n      dup2\n      dup6\n      dup8\n      gas\n      call\n      swap3\n      pop\n      pop\n      pop\n      returndatasize\n      dup1\n      0x00\n      dup2\n      eq\n      tag_208\n      jumpi\n      mload(0x40)\n      swap2\n      pop\n      and(add(returndatasize, 0x3f), not(0x1f))\n      dup3\n      add\n      0x40\n      mstore\n      returndatasize\n      dup3\n      mstore\n      returndatasize\n      0x00\n      0x20\n      dup5\n      add\n      returndatacopy\n      jump(tag_207)\n    tag_208:\n      0x60\n      swap2\n      pop\n    tag_207:\n      pop\n        /* \"Contract.sol\":14931:15018  (success, ) = registeredUsers[usersId[invitedId]].userAddress.call{value: refValue}(\"\") */\n      pop\n      dup1\n      swap5\n      pop\n      pop\n        /* \"Contract.sol\":15073:15080  success */\n      dup4\n        /* \"Contract.sol\":15069:15194  if (success) emit ReferalPaymentEvent(levels[gameId].gameId, invitedId, registeredUsers[usersId[invitedId]].userId, refValue) */\n      iszero\n      tag_209\n      jumpi\n        /* \"Contract.sol\":15087:15194  ReferalPaymentEvent(levels[gameId].gameId, invitedId, registeredUsers[usersId[invitedId]].userId, refValue) */\n      0xafe90bc52fc3dd02b2550b825fc68e93b4bfbcb8165bbacda6cd14b2bad5bc02\n        /* \"Contract.sol\":15107:15113  levels */\n      0x03\n        /* \"Contract.sol\":15107:15121  levels[gameId] */\n      0x00\n        /* \"Contract.sol\":15114:15120  gameId */\n      dup12\n        /* \"Contract.sol\":15107:15121  levels[gameId] */\n      0xff\n      and\n      0xff\n      and\n      dup2\n      mstore\n      0x20\n      add\n      swap1\n      dup2\n      mstore\n      0x20\n      add\n      0x00\n      keccak256\n        /* \"Contract.sol\":15107:15128  levels[gameId].gameId */\n      0x00\n      add\n      0x00\n      swap1\n      sload\n      swap1\n      0x0100\n      exp\n      swap1\n      div\n      0xff\n      and\n        /* \"Contract.sol\":15130:15139  invitedId */\n      dup4\n        /* \"Contract.sol\":15141:15156  registeredUsers */\n      0x06\n        /* \"Contract.sol\":15141:15176  registeredUsers[usersId[invitedId]] */\n      0x00\n        /* \"Contract.sol\":15157:15164  usersId */\n      0x04\n        /* \"Contract.sol\":15157:15175  usersId[invitedId] */\n      0x00\n        /* \"Contract.sol\":15165:15174  invitedId */\n      dup9\n        /* \"Contract.sol\":15157:15175  usersId[invitedId] */\n      dup2\n      mstore\n      0x20\n      add\n      swap1\n      dup2\n      mstore\n      0x20\n      add\n      0x00\n      keccak256\n      0x00\n      swap1\n      sload\n      swap1\n      0x0100\n      exp\n      swap1\n      div\n      0xffffffffffffffffffffffffffffffffffffffff\n      and\n        /* \"Contract.sol\":15141:15176  registeredUsers[usersId[invitedId]] */\n      0xffffffffffffffffffffffffffffffffffffffff\n      and\n      0xffffffffffffffffffffffffffffffffffffffff\n      and\n      dup2\n      mstore\n      0x20\n      add\n      swap1\n      dup2\n      mstore\n      0x20\n      add\n      0x00\n      keccak256\n        /* \"Contract.sol\":15141:15183  registeredUsers[usersId[invitedId]].userId */\n      0x00\n      add\n      sload\n        /* \"Contract.sol\":15185:15193  refValue */\n      dup5\n        /* \"Contract.sol\":15087:15194  ReferalPaymentEvent(levels[gameId].gameId, invitedId, registeredUsers[usersId[invitedId]].userId, refValue) */\n      mload(0x40)\n      tag_210\n      swap5\n      swap4\n      swap3\n      swap2\n      swap1\n      tag_202\n      jump\t// in\n    tag_210:\n      mload(0x40)\n      dup1\n      swap2\n      sub\n      swap1\n      log1\n        /* \"Contract.sol\":15069:15194  if (success) emit ReferalPaymentEvent(levels[gameId].gameId, invitedId, registeredUsers[usersId[invitedId]].userId, refValue) */\n    tag_209:\n        /* \"Contract.sol\":15230:15288  levels[gameId].amountToPay.mul(thirdLevelReferal).div(100) */\n      tag_211\n        /* \"Contract.sol\":15284:15287  100 */\n      0x64\n        /* \"Contract.sol\":15230:15279  levels[gameId].amountToPay.mul(thirdLevelReferal) */\n      tag_212\n        /* \"Contract.sol\":7077:7078  4 */\n      0x04\n        /* \"Contract.sol\":15230:15236  levels */\n      0x03\n        /* \"Contract.sol\":15230:15244  levels[gameId] */\n      0x00\n        /* \"Contract.sol\":15237:15243  gameId */\n      dup15\n        /* \"Contract.sol\":15230:15244  levels[gameId] */\n      0xff\n      and\n      0xff\n      and\n      dup2\n      mstore\n      0x20\n      add\n      swap1\n      dup2\n      mstore\n      0x20\n      add\n      0x00\n      keccak256\n        /* \"Contract.sol\":15230:15256  levels[gameId].amountToPay */\n      0x01\n      add\n      sload\n        /* \"Contract.sol\":15230:15260  levels[gameId].amountToPay.mul */\n      tag_183\n      swap1\n        /* \"Contract.sol\":15230:15279  levels[gameId].amountToPay.mul(thirdLevelReferal) */\n      swap2\n      swap1\n      0xffffffff\n      and\n      jump\t// in\n    tag_212:\n        /* \"Contract.sol\":15230:15283  levels[gameId].amountToPay.mul(thirdLevelReferal).div */\n      tag_154\n      swap1\n        /* \"Contract.sol\":15230:15288  levels[gameId].amountToPay.mul(thirdLevelReferal).div(100) */\n      swap2\n      swap1\n      0xffffffff\n      and\n      jump\t// in\n    tag_211:\n        /* \"Contract.sol\":15219:15288  refValue = levels[gameId].amountToPay.mul(thirdLevelReferal).div(100) */\n      swap1\n      pop\n        /* \"Contract.sol\":15348:15363  registeredUsers */\n      0x06\n        /* \"Contract.sol\":15348:15416  registeredUsers[usersId[registeredUsers[usersId[invitedId]].userId]] */\n      0x00\n        /* \"Contract.sol\":15364:15371  usersId */\n      0x04\n        /* \"Contract.sol\":15364:15415  usersId[registeredUsers[usersId[invitedId]].userId] */\n      0x00\n        /* \"Contract.sol\":15372:15387  registeredUsers */\n      0x06\n        /* \"Contract.sol\":15372:15407  registeredUsers[usersId[invitedId]] */\n      0x00\n        /* \"Contract.sol\":15388:15395  usersId */\n      0x04\n        /* \"Contract.sol\":15388:15406  usersId[invitedId] */\n      0x00\n        /* \"Contract.sol\":15396:15405  invitedId */\n      dup10\n        /* \"Contract.sol\":15388:15406  usersId[invitedId] */\n      dup2\n      mstore\n      0x20\n      add\n      swap1\n      dup2\n      mstore\n      0x20\n      add\n      0x00\n      keccak256\n      0x00\n      swap1\n      sload\n      swap1\n      0x0100\n      exp\n      swap1\n      div\n      0xffffffffffffffffffffffffffffffffffffffff\n      and\n        /* \"Contract.sol\":15372:15407  registeredUsers[usersId[invitedId]] */\n      0xffffffffffffffffffffffffffffffffffffffff\n      and\n      0xffffffffffffffffffffffffffffffffffffffff\n      and\n      dup2\n      mstore\n      0x20\n      add\n      swap1\n      dup2\n      mstore\n      0x20\n      add\n      0x00\n      keccak256\n        /* \"Contract.sol\":15372:15414  registeredUsers[usersId[invitedId]].userId */\n      0x00\n      add\n      sload\n        /* \"Contract.sol\":15364:15415  usersId[registeredUsers[usersId[invitedId]].userId] */\n      dup2\n      mstore\n      0x20\n      add\n      swap1\n      dup2\n      mstore\n      0x20\n      add\n      0x00\n      keccak256\n      0x00\n      swap1\n      sload\n      swap1\n      0x0100\n      exp\n      swap1\n      div\n      0xffffffffffffffffffffffffffffffffffffffff\n      and\n        /* \"Contract.sol\":15348:15416  registeredUsers[usersId[registeredUsers[usersId[invitedId]].userId]] */\n      0xffffffffffffffffffffffffffffffffffffffff\n      and\n      0xffffffffffffffffffffffffffffffffffffffff\n      and\n      dup2\n      mstore\n      0x20\n      add\n      swap1\n      dup2\n      mstore\n      0x20\n      add\n      0x00\n      keccak256\n        /* \"Contract.sol\":15348:15428  registeredUsers[usersId[registeredUsers[usersId[invitedId]].userId]].userAddress */\n      0x01\n      add\n      0x00\n      swap1\n      sload\n      swap1\n      0x0100\n      exp\n      swap1\n      div\n      0xffffffffffffffffffffffffffffffffffffffff\n      and\n        /* \"Contract.sol\":15348:15433  registeredUsers[usersId[registeredUsers[usersId[invitedId]].userId]].userAddress.call */\n      0xffffffffffffffffffffffffffffffffffffffff\n      and\n        /* \"Contract.sol\":15441:15449  refValue */\n      dup2\n        /* \"Contract.sol\":15348:15454  registeredUsers[usersId[registeredUsers[usersId[invitedId]].userId]].userAddress.call{value: refValue}(\"\") */\n      mload(0x40)\n      tag_213\n      swap1\n      tag_185\n      jump\t// in\n    tag_213:\n      0x00\n      mload(0x40)\n      dup1\n      dup4\n      sub\n      dup2\n      dup6\n      dup8\n      gas\n      call\n      swap3\n      pop\n      pop\n      pop\n      returndatasize\n      dup1\n      0x00\n      dup2\n      eq\n      tag_216\n      jumpi\n      mload(0x40)\n      swap2\n      pop\n      and(add(returndatasize, 0x3f), not(0x1f))\n      dup3\n      add\n      0x40\n      mstore\n      returndatasize\n      dup3\n      mstore\n      returndatasize\n      0x00\n      0x20\n      dup5\n      add\n      returndatacopy\n      jump(tag_215)\n    tag_216:\n      0x60\n      swap2\n      pop\n    tag_215:\n      pop\n        /* \"Contract.sol\":15334:15454  (success, ) = registeredUsers[usersId[registeredUsers[usersId[invitedId]].userId]].userAddress.call{value: refValue}(\"\") */\n      pop\n      dup1\n      swap5\n      pop\n      pop\n        /* \"Contract.sol\":15483:15490  success */\n      dup4\n        /* \"Contract.sol\":15479:15670  if (success) emit ReferalPaymentEvent(levels[gameId].gameId, registeredUsers[usersId[invitedId]].userId, registeredUsers[usersId[registeredUsers[usersId[invitedId]].userId]].userId, refValue) */\n      iszero\n      tag_217\n      jumpi\n        /* \"Contract.sol\":15497:15670  ReferalPaymentEvent(levels[gameId].gameId, registeredUsers[usersId[invitedId]].userId, registeredUsers[usersId[registeredUsers[usersId[invitedId]].userId]].userId, refValue) */\n      0xafe90bc52fc3dd02b2550b825fc68e93b4bfbcb8165bbacda6cd14b2bad5bc02\n        /* \"Contract.sol\":15517:15523  levels */\n      0x03\n        /* \"Contract.sol\":15517:15531  levels[gameId] */\n      0x00\n        /* \"Contract.sol\":15524:15530  gameId */\n      dup12\n        /* \"Contract.sol\":15517:15531  levels[gameId] */\n      0xff\n      and\n      0xff\n      and\n      dup2\n      mstore\n      0x20\n      add\n      swap1\n      dup2\n      mstore\n      0x20\n      add\n      0x00\n      keccak256\n        /* \"Contract.sol\":15517:15538  levels[gameId].gameId */\n      0x00\n      add\n      0x00\n      swap1\n      sload\n      swap1\n      0x0100\n      exp\n      swap1\n      div\n      0xff\n      and\n        /* \"Contract.sol\":15540:15555  registeredUsers */\n      0x06\n        /* \"Contract.sol\":15540:15575  registeredUsers[usersId[invitedId]] */\n      0x00\n        /* \"Contract.sol\":15556:15563  usersId */\n      0x04\n        /* \"Contract.sol\":15556:15574  usersId[invitedId] */\n      0x00\n        /* \"Contract.sol\":15564:15573  invitedId */\n      dup8\n        /* \"Contract.sol\":15556:15574  usersId[invitedId] */\n      dup2\n      mstore\n      0x20\n      add\n      swap1\n      dup2\n      mstore\n      0x20\n      add\n      0x00\n      keccak256\n      0x00\n      swap1\n      sload\n      swap1\n      0x0100\n      exp\n      swap1\n      div\n      0xffffffffffffffffffffffffffffffffffffffff\n      and\n        /* \"Contract.sol\":15540:15575  registeredUsers[usersId[invitedId]] */\n      0xffffffffffffffffffffffffffffffffffffffff\n      and\n      0xffffffffffffffffffffffffffffffffffffffff\n      and\n      dup2\n      mstore\n      0x20\n      add\n      swap1\n      dup2\n      mstore\n      0x20\n      add\n      0x00\n      keccak256\n        /* \"Contract.sol\":15540:15582  registeredUsers[usersId[invitedId]].userId */\n      0x00\n      add\n      sload\n        /* \"Contract.sol\":15584:15599  registeredUsers */\n      0x06\n        /* \"Contract.sol\":15584:15652  registeredUsers[usersId[registeredUsers[usersId[invitedId]].userId]] */\n      0x00\n        /* \"Contract.sol\":15600:15607  usersId */\n      0x04\n        /* \"Contract.sol\":15600:15651  usersId[registeredUsers[usersId[invitedId]].userId] */\n      0x00\n        /* \"Contract.sol\":15608:15623  registeredUsers */\n      0x06\n        /* \"Contract.sol\":15608:15643  registeredUsers[usersId[invitedId]] */\n      0x00\n        /* \"Contract.sol\":15624:15631  usersId */\n      0x04\n        /* \"Contract.sol\":15624:15642  usersId[invitedId] */\n      0x00\n        /* \"Contract.sol\":15632:15641  invitedId */\n      dup13\n        /* \"Contract.sol\":15624:15642  usersId[invitedId] */\n      dup2\n      mstore\n      0x20\n      add\n      swap1\n      dup2\n      mstore\n      0x20\n      add\n      0x00\n      keccak256\n      0x00\n      swap1\n      sload\n      swap1\n      0x0100\n      exp\n      swap1\n      div\n      0xffffffffffffffffffffffffffffffffffffffff\n      and\n        /* \"Contract.sol\":15608:15643  registeredUsers[usersId[invitedId]] */\n      0xffffffffffffffffffffffffffffffffffffffff\n      and\n      0xffffffffffffffffffffffffffffffffffffffff\n      and\n      dup2\n      mstore\n      0x20\n      add\n      swap1\n      dup2\n      mstore\n      0x20\n      add\n      0x00\n      keccak256\n        /* \"Contract.sol\":15608:15650  registeredUsers[usersId[invitedId]].userId */\n      0x00\n      add\n      sload\n        /* \"Contract.sol\":15600:15651  usersId[registeredUsers[usersId[invitedId]].userId] */\n      dup2\n      mstore\n      0x20\n      add\n      swap1\n      dup2\n      mstore\n      0x20\n      add\n      0x00\n      keccak256\n      0x00\n      swap1\n      sload\n      swap1\n      0x0100\n      exp\n      swap1\n      div\n      0xffffffffffffffffffffffffffffffffffffffff\n      and\n        /* \"Contract.sol\":15584:15652  registeredUsers[usersId[registeredUsers[usersId[invitedId]].userId]] */\n      0xffffffffffffffffffffffffffffffffffffffff\n      and\n      0xffffffffffffffffffffffffffffffffffffffff\n      and\n      dup2\n      mstore\n      0x20\n      add\n      swap1\n      dup2\n      mstore\n      0x20\n      add\n      0x00\n      keccak256\n        /* \"Contract.sol\":15584:15659  registeredUsers[usersId[registeredUsers[usersId[invitedId]].userId]].userId */\n      0x00\n      add\n      sload\n        /* \"Contract.sol\":15661:15669  refValue */\n      dup5\n        /* \"Contract.sol\":15497:15670  ReferalPaymentEvent(levels[gameId].gameId, registeredUsers[usersId[invitedId]].userId, registeredUsers[usersId[registeredUsers[usersId[invitedId]].userId]].userId, refValue) */\n      mload(0x40)\n      tag_218\n      swap5\n      swap4\n      swap3\n      swap2\n      swap1\n      tag_202\n      jump\t// in\n    tag_218:\n      mload(0x40)\n      dup1\n      swap2\n      sub\n      swap1\n      log1\n        /* \"Contract.sol\":15479:15670  if (success) emit ReferalPaymentEvent(levels[gameId].gameId, registeredUsers[usersId[invitedId]].userId, registeredUsers[usersId[registeredUsers[usersId[invitedId]].userId]].userId, refValue) */\n    tag_217:\n        /* \"Contract.sol\":15826:15879  levels[gameId].amountToPay.mul(ownerReferal).div(100) */\n      tag_219\n        /* \"Contract.sol\":15875:15878  100 */\n      0x64\n        /* \"Contract.sol\":15826:15870  levels[gameId].amountToPay.mul(ownerReferal) */\n      tag_220\n        /* \"Contract.sol\":7146:7147  6 */\n      0x06\n        /* \"Contract.sol\":15826:15832  levels */\n      0x03\n        /* \"Contract.sol\":15826:15840  levels[gameId] */\n      0x00\n        /* \"Contract.sol\":15833:15839  gameId */\n      dup15\n        /* \"Contract.sol\":15826:15840  levels[gameId] */\n      0xff\n      and\n      0xff\n      and\n      dup2\n      mstore\n      0x20\n      add\n      swap1\n      dup2\n      mstore\n      0x20\n      add\n      0x00\n      keccak256\n        /* \"Contract.sol\":15826:15852  levels[gameId].amountToPay */\n      0x01\n      add\n      sload\n        /* \"Contract.sol\":15826:15856  levels[gameId].amountToPay.mul */\n      tag_183\n      swap1\n        /* \"Contract.sol\":15826:15870  levels[gameId].amountToPay.mul(ownerReferal) */\n      swap2\n      swap1\n      0xffffffff\n      and\n      jump\t// in\n    tag_220:\n        /* \"Contract.sol\":15826:15874  levels[gameId].amountToPay.mul(ownerReferal).div */\n      tag_154\n      swap1\n        /* \"Contract.sol\":15826:15879  levels[gameId].amountToPay.mul(ownerReferal).div(100) */\n      swap2\n      swap1\n      0xffffffff\n      and\n      jump\t// in\n    tag_219:\n        /* \"Contract.sol\":15815:15879  refValue = levels[gameId].amountToPay.mul(ownerReferal).div(100) */\n      swap1\n      pop\n        /* \"Contract.sol\":15933:15948  registeredUsers */\n      0x06\n        /* \"Contract.sol\":15933:15963  registeredUsers[contractOwner] */\n      0x00\n        /* \"Contract.sol\":15949:15962  contractOwner */\n      0x01\n      dup1\n      sload\n      swap1\n      0x0100\n      exp\n      swap1\n      div\n      0xffffffffffffffffffffffffffffffffffffffff\n      and\n        /* \"Contract.sol\":15933:15963  registeredUsers[contractOwner] */\n      0xffffffffffffffffffffffffffffffffffffffff\n      and\n      0xffffffffffffffffffffffffffffffffffffffff\n      and\n      dup2\n      mstore\n      0x20\n      add\n      swap1\n      dup2\n      mstore\n      0x20\n      add\n      0x00\n      keccak256\n        /* \"Contract.sol\":15933:15975  registeredUsers[contractOwner].userAddress */\n      0x01\n      add\n      0x00\n      swap1\n      sload\n      swap1\n      0x0100\n      exp\n      swap1\n      div\n      0xffffffffffffffffffffffffffffffffffffffff\n      and\n        /* \"Contract.sol\":15933:15980  registeredUsers[contractOwner].userAddress.call */\n      0xffffffffffffffffffffffffffffffffffffffff\n      and\n        /* \"Contract.sol\":15988:15996  refValue */\n      dup2\n        /* \"Contract.sol\":15933:16001  registeredUsers[contractOwner].userAddress.call{value: refValue}(\"\") */\n      mload(0x40)\n      tag_221\n      swap1\n      tag_185\n      jump\t// in\n    tag_221:\n      0x00\n      mload(0x40)\n      dup1\n      dup4\n      sub\n      dup2\n      dup6\n      dup8\n      gas\n      call\n      swap3\n      pop\n      pop\n      pop\n      returndatasize\n      dup1\n      0x00\n      dup2\n      eq\n      tag_224\n      jumpi\n      mload(0x40)\n      swap2\n      pop\n      and(add(returndatasize, 0x3f), not(0x1f))\n      dup3\n      add\n      0x40\n      mstore\n      returndatasize\n      dup3\n      mstore\n      returndatasize\n      0x00\n      0x20\n      dup5\n      add\n      returndatacopy\n      jump(tag_223)\n    tag_224:\n      0x60\n      swap2\n      pop\n    tag_223:\n      pop\n        /* \"Contract.sol\":15919:16001  (success, ) = registeredUsers[contractOwner].userAddress.call{value: refValue}(\"\") */\n      pop\n      dup1\n      swap5\n      pop\n      pop\n        /* \"Contract.sol\":16030:16037  success */\n      dup4\n        /* \"Contract.sol\":16026:16143  if (success) emit ReferalPaymentEvent(levels[gameId].gameId, userId, registeredUsers[contractOwner].userId, refValue) */\n      iszero\n      tag_225\n      jumpi\n        /* \"Contract.sol\":16044:16143  ReferalPaymentEvent(levels[gameId].gameId, userId, registeredUsers[contractOwner].userId, refValue) */\n      0xafe90bc52fc3dd02b2550b825fc68e93b4bfbcb8165bbacda6cd14b2bad5bc02\n        /* \"Contract.sol\":16064:16070  levels */\n      0x03\n        /* \"Contract.sol\":16064:16078  levels[gameId] */\n      0x00\n        /* \"Contract.sol\":16071:16077  gameId */\n      dup12\n        /* \"Contract.sol\":16064:16078  levels[gameId] */\n      0xff\n      and\n      0xff\n      and\n      dup2\n      mstore\n      0x20\n      add\n      swap1\n      dup2\n      mstore\n      0x20\n      add\n      0x00\n      keccak256\n        /* \"Contract.sol\":16064:16085  levels[gameId].gameId */\n      0x00\n      add\n      0x00\n      swap1\n      sload\n      swap1\n      0x0100\n      exp\n      swap1\n      div\n      0xff\n      and\n        /* \"Contract.sol\":16087:16093  userId */\n      dup5\n        /* \"Contract.sol\":16095:16110  registeredUsers */\n      0x06\n        /* \"Contract.sol\":16095:16125  registeredUsers[contractOwner] */\n      0x00\n        /* \"Contract.sol\":16111:16124  contractOwner */\n      0x01\n      dup1\n      sload\n      swap1\n      0x0100\n      exp\n      swap1\n      div\n      0xffffffffffffffffffffffffffffffffffffffff\n      and\n        /* \"Contract.sol\":16095:16125  registeredUsers[contractOwner] */\n      0xffffffffffffffffffffffffffffffffffffffff\n      and\n      0xffffffffffffffffffffffffffffffffffffffff\n      and\n      dup2\n      mstore\n      0x20\n      add\n      swap1\n      dup2\n      mstore\n      0x20\n      add\n      0x00\n      keccak256\n        /* \"Contract.sol\":16095:16132  registeredUsers[contractOwner].userId */\n      0x00\n      add\n      sload\n        /* \"Contract.sol\":16134:16142  refValue */\n      dup5\n        /* \"Contract.sol\":16044:16143  ReferalPaymentEvent(levels[gameId].gameId, userId, registeredUsers[contractOwner].userId, refValue) */\n      mload(0x40)\n      tag_226\n      swap5\n      swap4\n      swap3\n      swap2\n      swap1\n      tag_202\n      jump\t// in\n    tag_226:\n      mload(0x40)\n      dup1\n      swap2\n      sub\n      swap1\n      log1\n        /* \"Contract.sol\":16026:16143  if (success) emit ReferalPaymentEvent(levels[gameId].gameId, userId, registeredUsers[contractOwner].userId, refValue) */\n    tag_225:\n        /* \"Contract.sol\":16195:16207  block.number */\n      number\n        /* \"Contract.sol\":16185:16208  blockhash(block.number) */\n      blockhash\n        /* \"Contract.sol\":16166:16182  transaction_hash */\n      0x02\n        /* \"Contract.sol\":16166:16208  transaction_hash = blockhash(block.number) */\n      dup2\n      swap1\n      sstore\n      pop\n        /* \"Contract.sol\":13735:16228  {\r... */\n      pop\n      pop\n      pop\n      pop\n        /* \"Contract.sol\":13647:16228  if (userPayments[selectedAddress][gameId] <= 1 || userGames[selectedAddress][gameId+1]) {\r... */\n    tag_180:\n        /* \"Contract.sol\":16258:16288  culcNextWinnerIndex(userIndex) */\n      tag_227\n        /* \"Contract.sol\":16278:16287  userIndex */\n      dup3\n        /* \"Contract.sol\":16258:16277  culcNextWinnerIndex */\n      tag_59\n        /* \"Contract.sol\":16258:16288  culcNextWinnerIndex(userIndex) */\n      jump\t// in\n    tag_227:\n        /* \"Contract.sol\":16246:16288  userIndex = culcNextWinnerIndex(userIndex) */\n      swap2\n      pop\n        /* \"Contract.sol\":13401:16304  {\r... */\n      pop\n        /* \"Contract.sol\":13378:16304  while (userIndex != 0) {\r... */\n      jump(tag_175)\n    tag_176:\n        /* \"Contract.sol\":13157:16315  {\r... */\n      pop\n        /* \"Contract.sol\":13122:16315  if (currentUserIndex[gameId] >= 3) {\r... */\n    tag_173:\n        /* \"Contract.sol\":12559:16322  function _joinToGame(uint8 gameId, address sender, uint256 value) internal {\r... */\n      pop\n      pop\n      pop\n      jump\t// out\n        /* \"Contract.sol\":4112:4210  function mod(uint256 a, uint256 b) internal pure returns (uint256) {\r... */\n    tag_151:\n        /* \"Contract.sol\":4170:4177  uint256 */\n      0x00\n        /* \"Contract.sol\":4201:4202  b */\n      dup2\n        /* \"Contract.sol\":4197:4198  a */\n      dup4\n        /* \"Contract.sol\":4197:4202  a % b */\n      tag_229\n      swap2\n      swap1\n      tag_230\n      jump\t// in\n    tag_229:\n        /* \"Contract.sol\":4190:4202  return a % b */\n      swap1\n      pop\n        /* \"Contract.sol\":4112:4210  function mod(uint256 a, uint256 b) internal pure returns (uint256) {\r... */\n      swap3\n      swap2\n      pop\n      pop\n      jump\t// out\n        /* \"Contract.sol\":3547:3645  function div(uint256 a, uint256 b) internal pure returns (uint256) {\r... */\n    tag_154:\n        /* \"Contract.sol\":3605:3612  uint256 */\n      0x00\n        /* \"Contract.sol\":3636:3637  b */\n      dup2\n        /* \"Contract.sol\":3632:3633  a */\n      dup4\n        /* \"Contract.sol\":3632:3637  a / b */\n      tag_232\n      swap2\n      swap1\n      tag_233\n      jump\t// in\n    tag_232:\n        /* \"Contract.sol\":3625:3637  return a / b */\n      swap1\n      pop\n        /* \"Contract.sol\":3547:3645  function div(uint256 a, uint256 b) internal pure returns (uint256) {\r... */\n      swap3\n      swap2\n      pop\n      pop\n      jump\t// out\n        /* \"Contract.sol\":3148:3246  function mul(uint256 a, uint256 b) internal pure returns (uint256) {\r... */\n    tag_183:\n        /* \"Contract.sol\":3206:3213  uint256 */\n      0x00\n        /* \"Contract.sol\":3237:3238  b */\n      dup2\n        /* \"Contract.sol\":3233:3234  a */\n      dup4\n        /* \"Contract.sol\":3233:3238  a * b */\n      tag_235\n      swap2\n      swap1\n      tag_236\n      jump\t// in\n    tag_235:\n        /* \"Contract.sol\":3226:3238  return a * b */\n      swap1\n      pop\n        /* \"Contract.sol\":3148:3246  function mul(uint256 a, uint256 b) internal pure returns (uint256) {\r... */\n      swap3\n      swap2\n      pop\n      pop\n      jump\t// out\n        /* \"#utility.yul\":7:146   */\n    tag_238:\n        /* \"#utility.yul\":53:58   */\n      0x00\n        /* \"#utility.yul\":91:97   */\n      dup2\n        /* \"#utility.yul\":78:98   */\n      calldataload\n        /* \"#utility.yul\":69:98   */\n      swap1\n      pop\n        /* \"#utility.yul\":107:140   */\n      tag_240\n        /* \"#utility.yul\":134:139   */\n      dup2\n        /* \"#utility.yul\":107:140   */\n      tag_241\n      jump\t// in\n    tag_240:\n        /* \"#utility.yul\":7:146   */\n      swap3\n      swap2\n      pop\n      pop\n      jump\t// out\n        /* \"#utility.yul\":152:291   */\n    tag_242:\n        /* \"#utility.yul\":198:203   */\n      0x00\n        /* \"#utility.yul\":236:242   */\n      dup2\n        /* \"#utility.yul\":223:243   */\n      calldataload\n        /* \"#utility.yul\":214:243   */\n      swap1\n      pop\n        /* \"#utility.yul\":252:285   */\n      tag_244\n        /* \"#utility.yul\":279:284   */\n      dup2\n        /* \"#utility.yul\":252:285   */\n      tag_245\n      jump\t// in\n    tag_244:\n        /* \"#utility.yul\":152:291   */\n      swap3\n      swap2\n      pop\n      pop\n      jump\t// out\n        /* \"#utility.yul\":297:432   */\n    tag_246:\n        /* \"#utility.yul\":341:346   */\n      0x00\n        /* \"#utility.yul\":379:385   */\n      dup2\n        /* \"#utility.yul\":366:386   */\n      calldataload\n        /* \"#utility.yul\":357:386   */\n      swap1\n      pop\n        /* \"#utility.yul\":395:426   */\n      tag_248\n        /* \"#utility.yul\":420:425   */\n      dup2\n        /* \"#utility.yul\":395:426   */\n      tag_249\n      jump\t// in\n    tag_248:\n        /* \"#utility.yul\":297:432   */\n      swap3\n      swap2\n      pop\n      pop\n      jump\t// out\n        /* \"#utility.yul\":438:767   */\n    tag_41:\n        /* \"#utility.yul\":497:503   */\n      0x00\n        /* \"#utility.yul\":546:548   */\n      0x20\n        /* \"#utility.yul\":534:543   */\n      dup3\n        /* \"#utility.yul\":525:532   */\n      dup5\n        /* \"#utility.yul\":521:544   */\n      sub\n        /* \"#utility.yul\":517:549   */\n      slt\n        /* \"#utility.yul\":514:633   */\n      iszero\n      tag_251\n      jumpi\n        /* \"#utility.yul\":552:631   */\n      tag_252\n      tag_253\n      jump\t// in\n    tag_252:\n        /* \"#utility.yul\":514:633   */\n    tag_251:\n        /* \"#utility.yul\":672:673   */\n      0x00\n        /* \"#utility.yul\":697:750   */\n      tag_254\n        /* \"#utility.yul\":742:749   */\n      dup5\n        /* \"#utility.yul\":733:739   */\n      dup3\n        /* \"#utility.yul\":722:731   */\n      dup6\n        /* \"#utility.yul\":718:740   */\n      add\n        /* \"#utility.yul\":697:750   */\n      tag_238\n      jump\t// in\n    tag_254:\n        /* \"#utility.yul\":687:750   */\n      swap2\n      pop\n        /* \"#utility.yul\":643:760   */\n      pop\n        /* \"#utility.yul\":438:767   */\n      swap3\n      swap2\n      pop\n      pop\n      jump\t// out\n        /* \"#utility.yul\":773:1243   */\n    tag_48:\n        /* \"#utility.yul\":839:845   */\n      0x00\n        /* \"#utility.yul\":847:853   */\n      dup1\n        /* \"#utility.yul\":896:898   */\n      0x40\n        /* \"#utility.yul\":884:893   */\n      dup4\n        /* \"#utility.yul\":875:882   */\n      dup6\n        /* \"#utility.yul\":871:894   */\n      sub\n        /* \"#utility.yul\":867:899   */\n      slt\n        /* \"#utility.yul\":864:983   */\n      iszero\n      tag_256\n      jumpi\n        /* \"#utility.yul\":902:981   */\n      tag_257\n      tag_253\n      jump\t// in\n    tag_257:\n        /* \"#utility.yul\":864:983   */\n    tag_256:\n        /* \"#utility.yul\":1022:1023   */\n      0x00\n        /* \"#utility.yul\":1047:1100   */\n      tag_258\n        /* \"#utility.yul\":1092:1099   */\n      dup6\n        /* \"#utility.yul\":1083:1089   */\n      dup3\n        /* \"#utility.yul\":1072:1081   */\n      dup7\n        /* \"#utility.yul\":1068:1090   */\n      add\n        /* \"#utility.yul\":1047:1100   */\n      tag_238\n      jump\t// in\n    tag_258:\n        /* \"#utility.yul\":1037:1100   */\n      swap3\n      pop\n        /* \"#utility.yul\":993:1110   */\n      pop\n        /* \"#utility.yul\":1149:1151   */\n      0x20\n        /* \"#utility.yul\":1175:1226   */\n      tag_259\n        /* \"#utility.yul\":1218:1225   */\n      dup6\n        /* \"#utility.yul\":1209:1215   */\n      dup3\n        /* \"#utility.yul\":1198:1207   */\n      dup7\n        /* \"#utility.yul\":1194:1216   */\n      add\n        /* \"#utility.yul\":1175:1226   */\n      tag_246\n      jump\t// in\n    tag_259:\n        /* \"#utility.yul\":1165:1226   */\n      swap2\n      pop\n        /* \"#utility.yul\":1120:1236   */\n      pop\n        /* \"#utility.yul\":773:1243   */\n      swap3\n      pop\n      swap3\n      swap1\n      pop\n      jump\t// out\n        /* \"#utility.yul\":1249:1578   */\n    tag_31:\n        /* \"#utility.yul\":1308:1314   */\n      0x00\n        /* \"#utility.yul\":1357:1359   */\n      0x20\n        /* \"#utility.yul\":1345:1354   */\n      dup3\n        /* \"#utility.yul\":1336:1343   */\n      dup5\n        /* \"#utility.yul\":1332:1355   */\n      sub\n        /* \"#utility.yul\":1328:1360   */\n      slt\n        /* \"#utility.yul\":1325:1444   */\n      iszero\n      tag_261\n      jumpi\n        /* \"#utility.yul\":1363:1442   */\n      tag_262\n      tag_253\n      jump\t// in\n    tag_262:\n        /* \"#utility.yul\":1325:1444   */\n    tag_261:\n        /* \"#utility.yul\":1483:1484   */\n      0x00\n        /* \"#utility.yul\":1508:1561   */\n      tag_263\n        /* \"#utility.yul\":1553:1560   */\n      dup5\n        /* \"#utility.yul\":1544:1550   */\n      dup3\n        /* \"#utility.yul\":1533:1542   */\n      dup6\n        /* \"#utility.yul\":1529:1551   */\n      add\n        /* \"#utility.yul\":1508:1561   */\n      tag_242\n      jump\t// in\n    tag_263:\n        /* \"#utility.yul\":1498:1561   */\n      swap2\n      pop\n        /* \"#utility.yul\":1454:1571   */\n      pop\n        /* \"#utility.yul\":1249:1578   */\n      swap3\n      swap2\n      pop\n      pop\n      jump\t// out\n        /* \"#utility.yul\":1584:1909   */\n    tag_54:\n        /* \"#utility.yul\":1641:1647   */\n      0x00\n        /* \"#utility.yul\":1690:1692   */\n      0x20\n        /* \"#utility.yul\":1678:1687   */\n      dup3\n        /* \"#utility.yul\":1669:1676   */\n      dup5\n        /* \"#utility.yul\":1665:1688   */\n      sub\n        /* \"#utility.yul\":1661:1693   */\n      slt\n        /* \"#utility.yul\":1658:1777   */\n      iszero\n      tag_265\n      jumpi\n        /* \"#utility.yul\":1696:1775   */\n      tag_266\n      tag_253\n      jump\t// in\n    tag_266:\n        /* \"#utility.yul\":1658:1777   */\n    tag_265:\n        /* \"#utility.yul\":1816:1817   */\n      0x00\n        /* \"#utility.yul\":1841:1892   */\n      tag_267\n        /* \"#utility.yul\":1884:1891   */\n      dup5\n        /* \"#utility.yul\":1875:1881   */\n      dup3\n        /* \"#utility.yul\":1864:1873   */\n      dup6\n        /* \"#utility.yul\":1860:1882   */\n      add\n        /* \"#utility.yul\":1841:1892   */\n      tag_246\n      jump\t// in\n    tag_267:\n        /* \"#utility.yul\":1831:1892   */\n      swap2\n      pop\n        /* \"#utility.yul\":1787:1902   */\n      pop\n        /* \"#utility.yul\":1584:1909   */\n      swap3\n      swap2\n      pop\n      pop\n      jump\t// out\n        /* \"#utility.yul\":1915:2385   */\n    tag_74:\n        /* \"#utility.yul\":1981:1987   */\n      0x00\n        /* \"#utility.yul\":1989:1995   */\n      dup1\n        /* \"#utility.yul\":2038:2040   */\n      0x40\n        /* \"#utility.yul\":2026:2035   */\n      dup4\n        /* \"#utility.yul\":2017:2024   */\n      dup6\n        /* \"#utility.yul\":2013:2036   */\n      sub\n        /* \"#utility.yul\":2009:2041   */\n      slt\n        /* \"#utility.yul\":2006:2125   */\n      iszero\n      tag_269\n      jumpi\n        /* \"#utility.yul\":2044:2123   */\n      tag_270\n      tag_253\n      jump\t// in\n    tag_270:\n        /* \"#utility.yul\":2006:2125   */\n    tag_269:\n        /* \"#utility.yul\":2164:2165   */\n      0x00\n        /* \"#utility.yul\":2189:2240   */\n      tag_271\n        /* \"#utility.yul\":2232:2239   */\n      dup6\n        /* \"#utility.yul\":2223:2229   */\n      dup3\n        /* \"#utility.yul\":2212:2221   */\n      dup7\n        /* \"#utility.yul\":2208:2230   */\n      add\n        /* \"#utility.yul\":2189:2240   */\n      tag_246\n      jump\t// in\n    tag_271:\n        /* \"#utility.yul\":2179:2240   */\n      swap3\n      pop\n        /* \"#utility.yul\":2135:2250   */\n      pop\n        /* \"#utility.yul\":2289:2291   */\n      0x20\n        /* \"#utility.yul\":2315:2368   */\n      tag_272\n        /* \"#utility.yul\":2360:2367   */\n      dup6\n        /* \"#utility.yul\":2351:2357   */\n      dup3\n        /* \"#utility.yul\":2340:2349   */\n      dup7\n        /* \"#utility.yul\":2336:2358   */\n      add\n        /* \"#utility.yul\":2315:2368   */\n      tag_242\n      jump\t// in\n    tag_272:\n        /* \"#utility.yul\":2305:2368   */\n      swap2\n      pop\n        /* \"#utility.yul\":2260:2378   */\n      pop\n        /* \"#utility.yul\":1915:2385   */\n      swap3\n      pop\n      swap3\n      swap1\n      pop\n      jump\t// out\n        /* \"#utility.yul\":2391:2533   */\n    tag_273:\n        /* \"#utility.yul\":2494:2526   */\n      tag_275\n        /* \"#utility.yul\":2520:2525   */\n      dup2\n        /* \"#utility.yul\":2494:2526   */\n      tag_276\n      jump\t// in\n    tag_275:\n        /* \"#utility.yul\":2489:2492   */\n      dup3\n        /* \"#utility.yul\":2482:2527   */\n      mstore\n        /* \"#utility.yul\":2391:2533   */\n      pop\n      pop\n      jump\t// out\n        /* \"#utility.yul\":2539:2657   */\n    tag_277:\n        /* \"#utility.yul\":2626:2650   */\n      tag_279\n        /* \"#utility.yul\":2644:2649   */\n      dup2\n        /* \"#utility.yul\":2626:2650   */\n      tag_280\n      jump\t// in\n    tag_279:\n        /* \"#utility.yul\":2621:2624   */\n      dup3\n        /* \"#utility.yul\":2614:2651   */\n      mstore\n        /* \"#utility.yul\":2539:2657   */\n      pop\n      pop\n      jump\t// out\n        /* \"#utility.yul\":2663:2772   */\n    tag_281:\n        /* \"#utility.yul\":2744:2765   */\n      tag_283\n        /* \"#utility.yul\":2759:2764   */\n      dup2\n        /* \"#utility.yul\":2744:2765   */\n      tag_284\n      jump\t// in\n    tag_283:\n        /* \"#utility.yul\":2739:2742   */\n      dup3\n        /* \"#utility.yul\":2732:2766   */\n      mstore\n        /* \"#utility.yul\":2663:2772   */\n      pop\n      pop\n      jump\t// out\n        /* \"#utility.yul\":2778:2896   */\n    tag_285:\n        /* \"#utility.yul\":2865:2889   */\n      tag_287\n        /* \"#utility.yul\":2883:2888   */\n      dup2\n        /* \"#utility.yul\":2865:2889   */\n      tag_288\n      jump\t// in\n    tag_287:\n        /* \"#utility.yul\":2860:2863   */\n      dup3\n        /* \"#utility.yul\":2853:2890   */\n      mstore\n        /* \"#utility.yul\":2778:2896   */\n      pop\n      pop\n      jump\t// out\n        /* \"#utility.yul\":2902:3268   */\n    tag_289:\n        /* \"#utility.yul\":3044:3047   */\n      0x00\n        /* \"#utility.yul\":3065:3132   */\n      tag_291\n        /* \"#utility.yul\":3129:3131   */\n      0x0e\n        /* \"#utility.yul\":3124:3127   */\n      dup4\n        /* \"#utility.yul\":3065:3132   */\n      tag_292\n      jump\t// in\n    tag_291:\n        /* \"#utility.yul\":3058:3132   */\n      swap2\n      pop\n        /* \"#utility.yul\":3141:3234   */\n      tag_293\n        /* \"#utility.yul\":3230:3233   */\n      dup3\n        /* \"#utility.yul\":3141:3234   */\n      tag_294\n      jump\t// in\n    tag_293:\n        /* \"#utility.yul\":3259:3261   */\n      0x20\n        /* \"#utility.yul\":3254:3257   */\n      dup3\n        /* \"#utility.yul\":3250:3262   */\n      add\n        /* \"#utility.yul\":3243:3262   */\n      swap1\n      pop\n        /* \"#utility.yul\":2902:3268   */\n      swap2\n      swap1\n      pop\n      jump\t// out\n        /* \"#utility.yul\":3274:3640   */\n    tag_295:\n        /* \"#utility.yul\":3416:3419   */\n      0x00\n        /* \"#utility.yul\":3437:3504   */\n      tag_297\n        /* \"#utility.yul\":3501:3503   */\n      0x1a\n        /* \"#utility.yul\":3496:3499   */\n      dup4\n        /* \"#utility.yul\":3437:3504   */\n      tag_292\n      jump\t// in\n    tag_297:\n        /* \"#utility.yul\":3430:3504   */\n      swap2\n      pop\n        /* \"#utility.yul\":3513:3606   */\n      tag_298\n        /* \"#utility.yul\":3602:3605   */\n      dup3\n        /* \"#utility.yul\":3513:3606   */\n      tag_299\n      jump\t// in\n    tag_298:\n        /* \"#utility.yul\":3631:3633   */\n      0x20\n        /* \"#utility.yul\":3626:3629   */\n      dup3\n        /* \"#utility.yul\":3622:3634   */\n      add\n        /* \"#utility.yul\":3615:3634   */\n      swap1\n      pop\n        /* \"#utility.yul\":3274:3640   */\n      swap2\n      swap1\n      pop\n      jump\t// out\n        /* \"#utility.yul\":3646:4044   */\n    tag_300:\n        /* \"#utility.yul\":3805:3808   */\n      0x00\n        /* \"#utility.yul\":3826:3909   */\n      tag_302\n        /* \"#utility.yul\":3907:3908   */\n      0x00\n        /* \"#utility.yul\":3902:3905   */\n      dup4\n        /* \"#utility.yul\":3826:3909   */\n      tag_303\n      jump\t// in\n    tag_302:\n        /* \"#utility.yul\":3819:3909   */\n      swap2\n      pop\n        /* \"#utility.yul\":3918:4011   */\n      tag_304\n        /* \"#utility.yul\":4007:4010   */\n      dup3\n        /* \"#utility.yul\":3918:4011   */\n      tag_305\n      jump\t// in\n    tag_304:\n        /* \"#utility.yul\":4036:4037   */\n      0x00\n        /* \"#utility.yul\":4031:4034   */\n      dup3\n        /* \"#utility.yul\":4027:4038   */\n      add\n        /* \"#utility.yul\":4020:4038   */\n      swap1\n      pop\n        /* \"#utility.yul\":3646:4044   */\n      swap2\n      swap1\n      pop\n      jump\t// out\n        /* \"#utility.yul\":4050:4416   */\n    tag_306:\n        /* \"#utility.yul\":4192:4195   */\n      0x00\n        /* \"#utility.yul\":4213:4280   */\n      tag_308\n        /* \"#utility.yul\":4277:4279   */\n      0x23\n        /* \"#utility.yul\":4272:4275   */\n      dup4\n        /* \"#utility.yul\":4213:4280   */\n      tag_292\n      jump\t// in\n    tag_308:\n        /* \"#utility.yul\":4206:4280   */\n      swap2\n      pop\n        /* \"#utility.yul\":4289:4382   */\n      tag_309\n        /* \"#utility.yul\":4378:4381   */\n      dup3\n        /* \"#utility.yul\":4289:4382   */\n      tag_310\n      jump\t// in\n    tag_309:\n        /* \"#utility.yul\":4407:4409   */\n      0x40\n        /* \"#utility.yul\":4402:4405   */\n      dup3\n        /* \"#utility.yul\":4398:4410   */\n      add\n        /* \"#utility.yul\":4391:4410   */\n      swap1\n      pop\n        /* \"#utility.yul\":4050:4416   */\n      swap2\n      swap1\n      pop\n      jump\t// out\n        /* \"#utility.yul\":4422:4788   */\n    tag_311:\n        /* \"#utility.yul\":4564:4567   */\n      0x00\n        /* \"#utility.yul\":4585:4652   */\n      tag_313\n        /* \"#utility.yul\":4649:4651   */\n      0x28\n        /* \"#utility.yul\":4644:4647   */\n      dup4\n        /* \"#utility.yul\":4585:4652   */\n      tag_292\n      jump\t// in\n    tag_313:\n        /* \"#utility.yul\":4578:4652   */\n      swap2\n      pop\n        /* \"#utility.yul\":4661:4754   */\n      tag_314\n        /* \"#utility.yul\":4750:4753   */\n      dup3\n        /* \"#utility.yul\":4661:4754   */\n      tag_315\n      jump\t// in\n    tag_314:\n        /* \"#utility.yul\":4779:4781   */\n      0x40\n        /* \"#utility.yul\":4774:4777   */\n      dup3\n        /* \"#utility.yul\":4770:4782   */\n      add\n        /* \"#utility.yul\":4763:4782   */\n      swap1\n      pop\n        /* \"#utility.yul\":4422:4788   */\n      swap2\n      swap1\n      pop\n      jump\t// out\n        /* \"#utility.yul\":4794:5160   */\n    tag_316:\n        /* \"#utility.yul\":4936:4939   */\n      0x00\n        /* \"#utility.yul\":4957:5024   */\n      tag_318\n        /* \"#utility.yul\":5021:5023   */\n      0x0c\n        /* \"#utility.yul\":5016:5019   */\n      dup4\n        /* \"#utility.yul\":4957:5024   */\n      tag_292\n      jump\t// in\n    tag_318:\n        /* \"#utility.yul\":4950:5024   */\n      swap2\n      pop\n        /* \"#utility.yul\":5033:5126   */\n      tag_319\n        /* \"#utility.yul\":5122:5125   */\n      dup3\n        /* \"#utility.yul\":5033:5126   */\n      tag_320\n      jump\t// in\n    tag_319:\n        /* \"#utility.yul\":5151:5153   */\n      0x20\n        /* \"#utility.yul\":5146:5149   */\n      dup3\n        /* \"#utility.yul\":5142:5154   */\n      add\n        /* \"#utility.yul\":5135:5154   */\n      swap1\n      pop\n        /* \"#utility.yul\":4794:5160   */\n      swap2\n      swap1\n      pop\n      jump\t// out\n        /* \"#utility.yul\":5166:5532   */\n    tag_321:\n        /* \"#utility.yul\":5308:5311   */\n      0x00\n        /* \"#utility.yul\":5329:5396   */\n      tag_323\n        /* \"#utility.yul\":5393:5395   */\n      0x11\n        /* \"#utility.yul\":5388:5391   */\n      dup4\n        /* \"#utility.yul\":5329:5396   */\n      tag_292\n      jump\t// in\n    tag_323:\n        /* \"#utility.yul\":5322:5396   */\n      swap2\n      pop\n        /* \"#utility.yul\":5405:5498   */\n      tag_324\n        /* \"#utility.yul\":5494:5497   */\n      dup3\n        /* \"#utility.yul\":5405:5498   */\n      tag_325\n      jump\t// in\n    tag_324:\n        /* \"#utility.yul\":5523:5525   */\n      0x20\n        /* \"#utility.yul\":5518:5521   */\n      dup3\n        /* \"#utility.yul\":5514:5526   */\n      add\n        /* \"#utility.yul\":5507:5526   */\n      swap1\n      pop\n        /* \"#utility.yul\":5166:5532   */\n      swap2\n      swap1\n      pop\n      jump\t// out\n        /* \"#utility.yul\":5538:5656   */\n    tag_326:\n        /* \"#utility.yul\":5625:5649   */\n      tag_328\n        /* \"#utility.yul\":5643:5648   */\n      dup2\n        /* \"#utility.yul\":5625:5649   */\n      tag_329\n      jump\t// in\n    tag_328:\n        /* \"#utility.yul\":5620:5623   */\n      dup3\n        /* \"#utility.yul\":5613:5650   */\n      mstore\n        /* \"#utility.yul\":5538:5656   */\n      pop\n      pop\n      jump\t// out\n        /* \"#utility.yul\":5662:5774   */\n    tag_330:\n        /* \"#utility.yul\":5745:5767   */\n      tag_332\n        /* \"#utility.yul\":5761:5766   */\n      dup2\n        /* \"#utility.yul\":5745:5767   */\n      tag_333\n      jump\t// in\n    tag_332:\n        /* \"#utility.yul\":5740:5743   */\n      dup3\n        /* \"#utility.yul\":5733:5768   */\n      mstore\n        /* \"#utility.yul\":5662:5774   */\n      pop\n      pop\n      jump\t// out\n        /* \"#utility.yul\":5780:6159   */\n    tag_185:\n        /* \"#utility.yul\":5964:5967   */\n      0x00\n        /* \"#utility.yul\":5986:6133   */\n      tag_335\n        /* \"#utility.yul\":6129:6132   */\n      dup3\n        /* \"#utility.yul\":5986:6133   */\n      tag_300\n      jump\t// in\n    tag_335:\n        /* \"#utility.yul\":5979:6133   */\n      swap2\n      pop\n        /* \"#utility.yul\":6150:6153   */\n      dup2\n        /* \"#utility.yul\":6143:6153   */\n      swap1\n      pop\n        /* \"#utility.yul\":5780:6159   */\n      swap2\n      swap1\n      pop\n      jump\t// out\n        /* \"#utility.yul\":6165:6387   */\n    tag_107:\n        /* \"#utility.yul\":6258:6262   */\n      0x00\n        /* \"#utility.yul\":6296:6298   */\n      0x20\n        /* \"#utility.yul\":6285:6294   */\n      dup3\n        /* \"#utility.yul\":6281:6299   */\n      add\n        /* \"#utility.yul\":6273:6299   */\n      swap1\n      pop\n        /* \"#utility.yul\":6309:6380   */\n      tag_337\n        /* \"#utility.yul\":6377:6378   */\n      0x00\n        /* \"#utility.yul\":6366:6375   */\n      dup4\n        /* \"#utility.yul\":6362:6379   */\n      add\n        /* \"#utility.yul\":6353:6359   */\n      dup5\n        /* \"#utility.yul\":6309:6380   */\n      tag_277\n      jump\t// in\n    tag_337:\n        /* \"#utility.yul\":6165:6387   */\n      swap3\n      swap2\n      pop\n      pop\n      jump\t// out\n        /* \"#utility.yul\":6393:6603   */\n    tag_51:\n        /* \"#utility.yul\":6480:6484   */\n      0x00\n        /* \"#utility.yul\":6518:6520   */\n      0x20\n        /* \"#utility.yul\":6507:6516   */\n      dup3\n        /* \"#utility.yul\":6503:6521   */\n      add\n        /* \"#utility.yul\":6495:6521   */\n      swap1\n      pop\n        /* \"#utility.yul\":6531:6596   */\n      tag_339\n        /* \"#utility.yul\":6593:6594   */\n      0x00\n        /* \"#utility.yul\":6582:6591   */\n      dup4\n        /* \"#utility.yul\":6578:6595   */\n      add\n        /* \"#utility.yul\":6569:6575   */\n      dup5\n        /* \"#utility.yul\":6531:6596   */\n      tag_281\n      jump\t// in\n    tag_339:\n        /* \"#utility.yul\":6393:6603   */\n      swap3\n      swap2\n      pop\n      pop\n      jump\t// out\n        /* \"#utility.yul\":6609:6831   */\n    tag_37:\n        /* \"#utility.yul\":6702:6706   */\n      0x00\n        /* \"#utility.yul\":6740:6742   */\n      0x20\n        /* \"#utility.yul\":6729:6738   */\n      dup3\n        /* \"#utility.yul\":6725:6743   */\n      add\n        /* \"#utility.yul\":6717:6743   */\n      swap1\n      pop\n        /* \"#utility.yul\":6753:6824   */\n      tag_341\n        /* \"#utility.yul\":6821:6822   */\n      0x00\n        /* \"#utility.yul\":6810:6819   */\n      dup4\n        /* \"#utility.yul\":6806:6823   */\n      add\n        /* \"#utility.yul\":6797:6803   */\n      dup5\n        /* \"#utility.yul\":6753:6824   */\n      tag_285\n      jump\t// in\n    tag_341:\n        /* \"#utility.yul\":6609:6831   */\n      swap3\n      swap2\n      pop\n      pop\n      jump\t// out\n        /* \"#utility.yul\":6837:7256   */\n    tag_124:\n        /* \"#utility.yul\":7003:7007   */\n      0x00\n        /* \"#utility.yul\":7041:7043   */\n      0x20\n        /* \"#utility.yul\":7030:7039   */\n      dup3\n        /* \"#utility.yul\":7026:7044   */\n      add\n        /* \"#utility.yul\":7018:7044   */\n      swap1\n      pop\n        /* \"#utility.yul\":7090:7099   */\n      dup2\n        /* \"#utility.yul\":7084:7088   */\n      dup2\n        /* \"#utility.yul\":7080:7100   */\n      sub\n        /* \"#utility.yul\":7076:7077   */\n      0x00\n        /* \"#utility.yul\":7065:7074   */\n      dup4\n        /* \"#utility.yul\":7061:7078   */\n      add\n        /* \"#utility.yul\":7054:7101   */\n      mstore\n        /* \"#utility.yul\":7118:7249   */\n      tag_343\n        /* \"#utility.yul\":7244:7248   */\n      dup2\n        /* \"#utility.yul\":7118:7249   */\n      tag_289\n      jump\t// in\n    tag_343:\n        /* \"#utility.yul\":7110:7249   */\n      swap1\n      pop\n        /* \"#utility.yul\":6837:7256   */\n      swap2\n      swap1\n      pop\n      jump\t// out\n        /* \"#utility.yul\":7262:7681   */\n    tag_134:\n        /* \"#utility.yul\":7428:7432   */\n      0x00\n        /* \"#utility.yul\":7466:7468   */\n      0x20\n        /* \"#utility.yul\":7455:7464   */\n      dup3\n        /* \"#utility.yul\":7451:7469   */\n      add\n        /* \"#utility.yul\":7443:7469   */\n      swap1\n      pop\n        /* \"#utility.yul\":7515:7524   */\n      dup2\n        /* \"#utility.yul\":7509:7513   */\n      dup2\n        /* \"#utility.yul\":7505:7525   */\n      sub\n        /* \"#utility.yul\":7501:7502   */\n      0x00\n        /* \"#utility.yul\":7490:7499   */\n      dup4\n        /* \"#utility.yul\":7486:7503   */\n      add\n        /* \"#utility.yul\":7479:7526   */\n      mstore\n        /* \"#utility.yul\":7543:7674   */\n      tag_345\n        /* \"#utility.yul\":7669:7673   */\n      dup2\n        /* \"#utility.yul\":7543:7674   */\n      tag_295\n      jump\t// in\n    tag_345:\n        /* \"#utility.yul\":7535:7674   */\n      swap1\n      pop\n        /* \"#utility.yul\":7262:7681   */\n      swap2\n      swap1\n      pop\n      jump\t// out\n        /* \"#utility.yul\":7687:8106   */\n    tag_171:\n        /* \"#utility.yul\":7853:7857   */\n      0x00\n        /* \"#utility.yul\":7891:7893   */\n      0x20\n        /* \"#utility.yul\":7880:7889   */\n      dup3\n        /* \"#utility.yul\":7876:7894   */\n      add\n        /* \"#utility.yul\":7868:7894   */\n      swap1\n      pop\n        /* \"#utility.yul\":7940:7949   */\n      dup2\n        /* \"#utility.yul\":7934:7938   */\n      dup2\n        /* \"#utility.yul\":7930:7950   */\n      sub\n        /* \"#utility.yul\":7926:7927   */\n      0x00\n        /* \"#utility.yul\":7915:7924   */\n      dup4\n        /* \"#utility.yul\":7911:7928   */\n      add\n        /* \"#utility.yul\":7904:7951   */\n      mstore\n        /* \"#utility.yul\":7968:8099   */\n      tag_347\n        /* \"#utility.yul\":8094:8098   */\n      dup2\n        /* \"#utility.yul\":7968:8099   */\n      tag_306\n      jump\t// in\n    tag_347:\n        /* \"#utility.yul\":7960:8099   */\n      swap1\n      pop\n        /* \"#utility.yul\":7687:8106   */\n      swap2\n      swap1\n      pop\n      jump\t// out\n        /* \"#utility.yul\":8112:8531   */\n    tag_137:\n        /* \"#utility.yul\":8278:8282   */\n      0x00\n        /* \"#utility.yul\":8316:8318   */\n      0x20\n        /* \"#utility.yul\":8305:8314   */\n      dup3\n        /* \"#utility.yul\":8301:8319   */\n      add\n        /* \"#utility.yul\":8293:8319   */\n      swap1\n      pop\n        /* \"#utility.yul\":8365:8374   */\n      dup2\n        /* \"#utility.yul\":8359:8363   */\n      dup2\n        /* \"#utility.yul\":8355:8375   */\n      sub\n        /* \"#utility.yul\":8351:8352   */\n      0x00\n        /* \"#utility.yul\":8340:8349   */\n      dup4\n        /* \"#utility.yul\":8336:8353   */\n      add\n        /* \"#utility.yul\":8329:8376   */\n      mstore\n        /* \"#utility.yul\":8393:8524   */\n      tag_349\n        /* \"#utility.yul\":8519:8523   */\n      dup2\n        /* \"#utility.yul\":8393:8524   */\n      tag_311\n      jump\t// in\n    tag_349:\n        /* \"#utility.yul\":8385:8524   */\n      swap1\n      pop\n        /* \"#utility.yul\":8112:8531   */\n      swap2\n      swap1\n      pop\n      jump\t// out\n        /* \"#utility.yul\":8537:8956   */\n    tag_130:\n        /* \"#utility.yul\":8703:8707   */\n      0x00\n        /* \"#utility.yul\":8741:8743   */\n      0x20\n        /* \"#utility.yul\":8730:8739   */\n      dup3\n        /* \"#utility.yul\":8726:8744   */\n      add\n        /* \"#utility.yul\":8718:8744   */\n      swap1\n      pop\n        /* \"#utility.yul\":8790:8799   */\n      dup2\n        /* \"#utility.yul\":8784:8788   */\n      dup2\n        /* \"#utility.yul\":8780:8800   */\n      sub\n        /* \"#utility.yul\":8776:8777   */\n      0x00\n        /* \"#utility.yul\":8765:8774   */\n      dup4\n        /* \"#utility.yul\":8761:8778   */\n      add\n        /* \"#utility.yul\":8754:8801   */\n      mstore\n        /* \"#utility.yul\":8818:8949   */\n      tag_351\n        /* \"#utility.yul\":8944:8948   */\n      dup2\n        /* \"#utility.yul\":8818:8949   */\n      tag_316\n      jump\t// in\n    tag_351:\n        /* \"#utility.yul\":8810:8949   */\n      swap1\n      pop\n        /* \"#utility.yul\":8537:8956   */\n      swap2\n      swap1\n      pop\n      jump\t// out\n        /* \"#utility.yul\":8962:9381   */\n    tag_162:\n        /* \"#utility.yul\":9128:9132   */\n      0x00\n        /* \"#utility.yul\":9166:9168   */\n      0x20\n        /* \"#utility.yul\":9155:9164   */\n      dup3\n        /* \"#utility.yul\":9151:9169   */\n      add\n        /* \"#utility.yul\":9143:9169   */\n      swap1\n      pop\n        /* \"#utility.yul\":9215:9224   */\n      dup2\n        /* \"#utility.yul\":9209:9213   */\n      dup2\n        /* \"#utility.yul\":9205:9225   */\n      sub\n        /* \"#utility.yul\":9201:9202   */\n      0x00\n        /* \"#utility.yul\":9190:9199   */\n      dup4\n        /* \"#utility.yul\":9186:9203   */\n      add\n        /* \"#utility.yul\":9179:9226   */\n      mstore\n        /* \"#utility.yul\":9243:9374   */\n      tag_353\n        /* \"#utility.yul\":9369:9373   */\n      dup2\n        /* \"#utility.yul\":9243:9374   */\n      tag_321\n      jump\t// in\n    tag_353:\n        /* \"#utility.yul\":9235:9374   */\n      swap1\n      pop\n        /* \"#utility.yul\":8962:9381   */\n      swap2\n      swap1\n      pop\n      jump\t// out\n        /* \"#utility.yul\":9387:9609   */\n    tag_61:\n        /* \"#utility.yul\":9480:9484   */\n      0x00\n        /* \"#utility.yul\":9518:9520   */\n      0x20\n        /* \"#utility.yul\":9507:9516   */\n      dup3\n        /* \"#utility.yul\":9503:9521   */\n      add\n        /* \"#utility.yul\":9495:9521   */\n      swap1\n      pop\n        /* \"#utility.yul\":9531:9602   */\n      tag_355\n        /* \"#utility.yul\":9599:9600   */\n      0x00\n        /* \"#utility.yul\":9588:9597   */\n      dup4\n        /* \"#utility.yul\":9584:9601   */\n      add\n        /* \"#utility.yul\":9575:9581   */\n      dup5\n        /* \"#utility.yul\":9531:9602   */\n      tag_326\n      jump\t// in\n    tag_355:\n        /* \"#utility.yul\":9387:9609   */\n      swap3\n      swap2\n      pop\n      pop\n      jump\t// out\n        /* \"#utility.yul\":9615:10089   */\n    tag_44:\n        /* \"#utility.yul\":9780:9784   */\n      0x00\n        /* \"#utility.yul\":9818:9820   */\n      0x60\n        /* \"#utility.yul\":9807:9816   */\n      dup3\n        /* \"#utility.yul\":9803:9821   */\n      add\n        /* \"#utility.yul\":9795:9821   */\n      swap1\n      pop\n        /* \"#utility.yul\":9831:9902   */\n      tag_357\n        /* \"#utility.yul\":9899:9900   */\n      0x00\n        /* \"#utility.yul\":9888:9897   */\n      dup4\n        /* \"#utility.yul\":9884:9901   */\n      add\n        /* \"#utility.yul\":9875:9881   */\n      dup7\n        /* \"#utility.yul\":9831:9902   */\n      tag_326\n      jump\t// in\n    tag_357:\n        /* \"#utility.yul\":9912:10000   */\n      tag_358\n        /* \"#utility.yul\":9996:9998   */\n      0x20\n        /* \"#utility.yul\":9985:9994   */\n      dup4\n        /* \"#utility.yul\":9981:9999   */\n      add\n        /* \"#utility.yul\":9972:9978   */\n      dup6\n        /* \"#utility.yul\":9912:10000   */\n      tag_273\n      jump\t// in\n    tag_358:\n        /* \"#utility.yul\":10010:10082   */\n      tag_359\n        /* \"#utility.yul\":10078:10080   */\n      0x40\n        /* \"#utility.yul\":10067:10076   */\n      dup4\n        /* \"#utility.yul\":10063:10081   */\n      add\n        /* \"#utility.yul\":10054:10060   */\n      dup5\n        /* \"#utility.yul\":10010:10082   */\n      tag_326\n      jump\t// in\n    tag_359:\n        /* \"#utility.yul\":9615:10089   */\n      swap5\n      swap4\n      pop\n      pop\n      pop\n      pop\n      jump\t// out\n        /* \"#utility.yul\":10095:10537   */\n    tag_144:\n        /* \"#utility.yul\":10244:10248   */\n      0x00\n        /* \"#utility.yul\":10282:10284   */\n      0x60\n        /* \"#utility.yul\":10271:10280   */\n      dup3\n        /* \"#utility.yul\":10267:10285   */\n      add\n        /* \"#utility.yul\":10259:10285   */\n      swap1\n      pop\n        /* \"#utility.yul\":10295:10366   */\n      tag_361\n        /* \"#utility.yul\":10363:10364   */\n      0x00\n        /* \"#utility.yul\":10352:10361   */\n      dup4\n        /* \"#utility.yul\":10348:10365   */\n      add\n        /* \"#utility.yul\":10339:10345   */\n      dup7\n        /* \"#utility.yul\":10295:10366   */\n      tag_326\n      jump\t// in\n    tag_361:\n        /* \"#utility.yul\":10376:10448   */\n      tag_362\n        /* \"#utility.yul\":10444:10446   */\n      0x20\n        /* \"#utility.yul\":10433:10442   */\n      dup4\n        /* \"#utility.yul\":10429:10447   */\n      add\n        /* \"#utility.yul\":10420:10426   */\n      dup6\n        /* \"#utility.yul\":10376:10448   */\n      tag_326\n      jump\t// in\n    tag_362:\n        /* \"#utility.yul\":10458:10530   */\n      tag_363\n        /* \"#utility.yul\":10526:10528   */\n      0x40\n        /* \"#utility.yul\":10515:10524   */\n      dup4\n        /* \"#utility.yul\":10511:10529   */\n      add\n        /* \"#utility.yul\":10502:10508   */\n      dup5\n        /* \"#utility.yul\":10458:10530   */\n      tag_326\n      jump\t// in\n    tag_363:\n        /* \"#utility.yul\":10095:10537   */\n      swap5\n      swap4\n      pop\n      pop\n      pop\n      pop\n      jump\t// out\n        /* \"#utility.yul\":10543:10757   */\n    tag_97:\n        /* \"#utility.yul\":10632:10636   */\n      0x00\n        /* \"#utility.yul\":10670:10672   */\n      0x20\n        /* \"#utility.yul\":10659:10668   */\n      dup3\n        /* \"#utility.yul\":10655:10673   */\n      add\n        /* \"#utility.yul\":10647:10673   */\n      swap1\n      pop\n        /* \"#utility.yul\":10683:10750   */\n      tag_365\n        /* \"#utility.yul\":10747:10748   */\n      0x00\n        /* \"#utility.yul\":10736:10745   */\n      dup4\n        /* \"#utility.yul\":10732:10749   */\n      add\n        /* \"#utility.yul\":10723:10729   */\n      dup5\n        /* \"#utility.yul\":10683:10750   */\n      tag_330\n      jump\t// in\n    tag_365:\n        /* \"#utility.yul\":10543:10757   */\n      swap3\n      swap2\n      pop\n      pop\n      jump\t// out\n        /* \"#utility.yul\":10763:11185   */\n    tag_191:\n        /* \"#utility.yul\":10902:10906   */\n      0x00\n        /* \"#utility.yul\":10940:10942   */\n      0x60\n        /* \"#utility.yul\":10929:10938   */\n      dup3\n        /* \"#utility.yul\":10925:10943   */\n      add\n        /* \"#utility.yul\":10917:10943   */\n      swap1\n      pop\n        /* \"#utility.yul\":10953:11020   */\n      tag_367\n        /* \"#utility.yul\":11017:11018   */\n      0x00\n        /* \"#utility.yul\":11006:11015   */\n      dup4\n        /* \"#utility.yul\":11002:11019   */\n      add\n        /* \"#utility.yul\":10993:10999   */\n      dup7\n        /* \"#utility.yul\":10953:11020   */\n      tag_330\n      jump\t// in\n    tag_367:\n        /* \"#utility.yul\":11030:11102   */\n      tag_368\n        /* \"#utility.yul\":11098:11100   */\n      0x20\n        /* \"#utility.yul\":11087:11096   */\n      dup4\n        /* \"#utility.yul\":11083:11101   */\n      add\n        /* \"#utility.yul\":11074:11080   */\n      dup6\n        /* \"#utility.yul\":11030:11102   */\n      tag_277\n      jump\t// in\n    tag_368:\n        /* \"#utility.yul\":11112:11178   */\n      tag_369\n        /* \"#utility.yul\":11174:11176   */\n      0x40\n        /* \"#utility.yul\":11163:11172   */\n      dup4\n        /* \"#utility.yul\":11159:11177   */\n      add\n        /* \"#utility.yul\":11150:11156   */\n      dup5\n        /* \"#utility.yul\":11112:11178   */\n      tag_281\n      jump\t// in\n    tag_369:\n        /* \"#utility.yul\":10763:11185   */\n      swap5\n      swap4\n      pop\n      pop\n      pop\n      pop\n      jump\t// out\n        /* \"#utility.yul\":11191:11515   */\n    tag_82:\n        /* \"#utility.yul\":11308:11312   */\n      0x00\n        /* \"#utility.yul\":11346:11348   */\n      0x40\n        /* \"#utility.yul\":11335:11344   */\n      dup3\n        /* \"#utility.yul\":11331:11349   */\n      add\n        /* \"#utility.yul\":11323:11349   */\n      swap1\n      pop\n        /* \"#utility.yul\":11359:11426   */\n      tag_371\n        /* \"#utility.yul\":11423:11424   */\n      0x00\n        /* \"#utility.yul\":11412:11421   */\n      dup4\n        /* \"#utility.yul\":11408:11425   */\n      add\n        /* \"#utility.yul\":11399:11405   */\n      dup6\n        /* \"#utility.yul\":11359:11426   */\n      tag_330\n      jump\t// in\n    tag_371:\n        /* \"#utility.yul\":11436:11508   */\n      tag_372\n        /* \"#utility.yul\":11504:11506   */\n      0x20\n        /* \"#utility.yul\":11493:11502   */\n      dup4\n        /* \"#utility.yul\":11489:11507   */\n      add\n        /* \"#utility.yul\":11480:11486   */\n      dup5\n        /* \"#utility.yul\":11436:11508   */\n      tag_326\n      jump\t// in\n    tag_372:\n        /* \"#utility.yul\":11191:11515   */\n      swap4\n      swap3\n      pop\n      pop\n      pop\n      jump\t// out\n        /* \"#utility.yul\":11521:12066   */\n    tag_202:\n        /* \"#utility.yul\":11694:11698   */\n      0x00\n        /* \"#utility.yul\":11732:11735   */\n      0x80\n        /* \"#utility.yul\":11721:11730   */\n      dup3\n        /* \"#utility.yul\":11717:11736   */\n      add\n        /* \"#utility.yul\":11709:11736   */\n      swap1\n      pop\n        /* \"#utility.yul\":11746:11813   */\n      tag_374\n        /* \"#utility.yul\":11810:11811   */\n      0x00\n        /* \"#utility.yul\":11799:11808   */\n      dup4\n        /* \"#utility.yul\":11795:11812   */\n      add\n        /* \"#utility.yul\":11786:11792   */\n      dup8\n        /* \"#utility.yul\":11746:11813   */\n      tag_330\n      jump\t// in\n    tag_374:\n        /* \"#utility.yul\":11823:11895   */\n      tag_375\n        /* \"#utility.yul\":11891:11893   */\n      0x20\n        /* \"#utility.yul\":11880:11889   */\n      dup4\n        /* \"#utility.yul\":11876:11894   */\n      add\n        /* \"#utility.yul\":11867:11873   */\n      dup7\n        /* \"#utility.yul\":11823:11895   */\n      tag_326\n      jump\t// in\n    tag_375:\n        /* \"#utility.yul\":11905:11977   */\n      tag_376\n        /* \"#utility.yul\":11973:11975   */\n      0x40\n        /* \"#utility.yul\":11962:11971   */\n      dup4\n        /* \"#utility.yul\":11958:11976   */\n      add\n        /* \"#utility.yul\":11949:11955   */\n      dup6\n        /* \"#utility.yul\":11905:11977   */\n      tag_326\n      jump\t// in\n    tag_376:\n        /* \"#utility.yul\":11987:12059   */\n      tag_377\n        /* \"#utility.yul\":12055:12057   */\n      0x60\n        /* \"#utility.yul\":12044:12053   */\n      dup4\n        /* \"#utility.yul\":12040:12058   */\n      add\n        /* \"#utility.yul\":12031:12037   */\n      dup5\n        /* \"#utility.yul\":11987:12059   */\n      tag_326\n      jump\t// in\n    tag_377:\n        /* \"#utility.yul\":11521:12066   */\n      swap6\n      swap5\n      pop\n      pop\n      pop\n      pop\n      pop\n      jump\t// out\n        /* \"#utility.yul\":12153:12300   */\n    tag_303:\n        /* \"#utility.yul\":12254:12265   */\n      0x00\n        /* \"#utility.yul\":12291:12294   */\n      dup2\n        /* \"#utility.yul\":12276:12294   */\n      swap1\n      pop\n        /* \"#utility.yul\":12153:12300   */\n      swap3\n      swap2\n      pop\n      pop\n      jump\t// out\n        /* \"#utility.yul\":12306:12475   */\n    tag_292:\n        /* \"#utility.yul\":12390:12401   */\n      0x00\n        /* \"#utility.yul\":12424:12430   */\n      dup3\n        /* \"#utility.yul\":12419:12422   */\n      dup3\n        /* \"#utility.yul\":12412:12431   */\n      mstore\n        /* \"#utility.yul\":12464:12468   */\n      0x20\n        /* \"#utility.yul\":12459:12462   */\n      dup3\n        /* \"#utility.yul\":12455:12469   */\n      add\n        /* \"#utility.yul\":12440:12469   */\n      swap1\n      pop\n        /* \"#utility.yul\":12306:12475   */\n      swap3\n      swap2\n      pop\n      pop\n      jump\t// out\n        /* \"#utility.yul\":12481:12786   */\n    tag_139:\n        /* \"#utility.yul\":12521:12524   */\n      0x00\n        /* \"#utility.yul\":12540:12560   */\n      tag_383\n        /* \"#utility.yul\":12558:12559   */\n      dup3\n        /* \"#utility.yul\":12540:12560   */\n      tag_329\n      jump\t// in\n    tag_383:\n        /* \"#utility.yul\":12535:12560   */\n      swap2\n      pop\n        /* \"#utility.yul\":12574:12594   */\n      tag_384\n        /* \"#utility.yul\":12592:12593   */\n      dup4\n        /* \"#utility.yul\":12574:12594   */\n      tag_329\n      jump\t// in\n    tag_384:\n        /* \"#utility.yul\":12569:12594   */\n      swap3\n      pop\n        /* \"#utility.yul\":12728:12729   */\n      dup3\n        /* \"#utility.yul\":12660:12726   */\n      0xffffffffffffffffffffffffffffffffffffffffffffffffffffffffffffffff\n        /* \"#utility.yul\":12656:12730   */\n      sub\n        /* \"#utility.yul\":12653:12654   */\n      dup3\n        /* \"#utility.yul\":12650:12731   */\n      gt\n        /* \"#utility.yul\":12647:12754   */\n      iszero\n      tag_385\n      jumpi\n        /* \"#utility.yul\":12734:12752   */\n      tag_386\n      tag_387\n      jump\t// in\n    tag_386:\n        /* \"#utility.yul\":12647:12754   */\n    tag_385:\n        /* \"#utility.yul\":12778:12779   */\n      dup3\n        /* \"#utility.yul\":12775:12776   */\n      dup3\n        /* \"#utility.yul\":12771:12780   */\n      add\n        /* \"#utility.yul\":12764:12780   */\n      swap1\n      pop\n        /* \"#utility.yul\":12481:12786   */\n      swap3\n      swap2\n      pop\n      pop\n      jump\t// out\n        /* \"#utility.yul\":12792:13029   */\n    tag_118:\n        /* \"#utility.yul\":12830:12833   */\n      0x00\n        /* \"#utility.yul\":12849:12867   */\n      tag_389\n        /* \"#utility.yul\":12865:12866   */\n      dup3\n        /* \"#utility.yul\":12849:12867   */\n      tag_333\n      jump\t// in\n    tag_389:\n        /* \"#utility.yul\":12844:12867   */\n      swap2\n      pop\n        /* \"#utility.yul\":12881:12899   */\n      tag_390\n        /* \"#utility.yul\":12897:12898   */\n      dup4\n        /* \"#utility.yul\":12881:12899   */\n      tag_333\n      jump\t// in\n    tag_390:\n        /* \"#utility.yul\":12876:12899   */\n      swap3\n      pop\n        /* \"#utility.yul\":12971:12972   */\n      dup3\n        /* \"#utility.yul\":12965:12969   */\n      0xff\n        /* \"#utility.yul\":12961:12973   */\n      sub\n        /* \"#utility.yul\":12958:12959   */\n      dup3\n        /* \"#utility.yul\":12955:12974   */\n      gt\n        /* \"#utility.yul\":12952:12997   */\n      iszero\n      tag_391\n      jumpi\n        /* \"#utility.yul\":12977:12995   */\n      tag_392\n      tag_387\n      jump\t// in\n    tag_392:\n        /* \"#utility.yul\":12952:12997   */\n    tag_391:\n        /* \"#utility.yul\":13021:13022   */\n      dup3\n        /* \"#utility.yul\":13018:13019   */\n      dup3\n        /* \"#utility.yul\":13014:13023   */\n      add\n        /* \"#utility.yul\":13007:13023   */\n      swap1\n      pop\n        /* \"#utility.yul\":12792:13029   */\n      swap3\n      swap2\n      pop\n      pop\n      jump\t// out\n        /* \"#utility.yul\":13035:13220   */\n    tag_233:\n        /* \"#utility.yul\":13075:13076   */\n      0x00\n        /* \"#utility.yul\":13092:13112   */\n      tag_394\n        /* \"#utility.yul\":13110:13111   */\n      dup3\n        /* \"#utility.yul\":13092:13112   */\n      tag_329\n      jump\t// in\n    tag_394:\n        /* \"#utility.yul\":13087:13112   */\n      swap2\n      pop\n        /* \"#utility.yul\":13126:13146   */\n      tag_395\n        /* \"#utility.yul\":13144:13145   */\n      dup4\n        /* \"#utility.yul\":13126:13146   */\n      tag_329\n      jump\t// in\n    tag_395:\n        /* \"#utility.yul\":13121:13146   */\n      swap3\n      pop\n        /* \"#utility.yul\":13165:13166   */\n      dup3\n        /* \"#utility.yul\":13155:13190   */\n      tag_396\n      jumpi\n        /* \"#utility.yul\":13170:13188   */\n      tag_397\n      tag_398\n      jump\t// in\n    tag_397:\n        /* \"#utility.yul\":13155:13190   */\n    tag_396:\n        /* \"#utility.yul\":13212:13213   */\n      dup3\n        /* \"#utility.yul\":13209:13210   */\n      dup3\n        /* \"#utility.yul\":13205:13214   */\n      div\n        /* \"#utility.yul\":13200:13214   */\n      swap1\n      pop\n        /* \"#utility.yul\":13035:13220   */\n      swap3\n      swap2\n      pop\n      pop\n      jump\t// out\n        /* \"#utility.yul\":13226:13574   */\n    tag_236:\n        /* \"#utility.yul\":13266:13273   */\n      0x00\n        /* \"#utility.yul\":13289:13309   */\n      tag_400\n        /* \"#utility.yul\":13307:13308   */\n      dup3\n        /* \"#utility.yul\":13289:13309   */\n      tag_329\n      jump\t// in\n    tag_400:\n        /* \"#utility.yul\":13284:13309   */\n      swap2\n      pop\n        /* \"#utility.yul\":13323:13343   */\n      tag_401\n        /* \"#utility.yul\":13341:13342   */\n      dup4\n        /* \"#utility.yul\":13323:13343   */\n      tag_329\n      jump\t// in\n    tag_401:\n        /* \"#utility.yul\":13318:13343   */\n      swap3\n      pop\n        /* \"#utility.yul\":13511:13512   */\n      dup2\n        /* \"#utility.yul\":13443:13509   */\n      0xffffffffffffffffffffffffffffffffffffffffffffffffffffffffffffffff\n        /* \"#utility.yul\":13439:13513   */\n      div\n        /* \"#utility.yul\":13436:13437   */\n      dup4\n        /* \"#utility.yul\":13433:13514   */\n      gt\n        /* \"#utility.yul\":13428:13429   */\n      dup3\n        /* \"#utility.yul\":13421:13430   */\n      iszero\n        /* \"#utility.yul\":13414:13431   */\n      iszero\n        /* \"#utility.yul\":13410:13515   */\n      and\n        /* \"#utility.yul\":13407:13538   */\n      iszero\n      tag_402\n      jumpi\n        /* \"#utility.yul\":13518:13536   */\n      tag_403\n      tag_387\n      jump\t// in\n    tag_403:\n        /* \"#utility.yul\":13407:13538   */\n    tag_402:\n        /* \"#utility.yul\":13566:13567   */\n      dup3\n        /* \"#utility.yul\":13563:13564   */\n      dup3\n        /* \"#utility.yul\":13559:13568   */\n      mul\n        /* \"#utility.yul\":13548:13568   */\n      swap1\n      pop\n        /* \"#utility.yul\":13226:13574   */\n      swap3\n      swap2\n      pop\n      pop\n      jump\t// out\n        /* \"#utility.yul\":13580:13771   */\n    tag_142:\n        /* \"#utility.yul\":13620:13624   */\n      0x00\n        /* \"#utility.yul\":13640:13660   */\n      tag_405\n        /* \"#utility.yul\":13658:13659   */\n      dup3\n        /* \"#utility.yul\":13640:13660   */\n      tag_329\n      jump\t// in\n    tag_405:\n        /* \"#utility.yul\":13635:13660   */\n      swap2\n      pop\n        /* \"#utility.yul\":13674:13694   */\n      tag_406\n        /* \"#utility.yul\":13692:13693   */\n      dup4\n        /* \"#utility.yul\":13674:13694   */\n      tag_329\n      jump\t// in\n    tag_406:\n        /* \"#utility.yul\":13669:13694   */\n      swap3\n      pop\n        /* \"#utility.yul\":13713:13714   */\n      dup3\n        /* \"#utility.yul\":13710:13711   */\n      dup3\n        /* \"#utility.yul\":13707:13715   */\n      lt\n        /* \"#utility.yul\":13704:13738   */\n      iszero\n      tag_407\n      jumpi\n        /* \"#utility.yul\":13718:13736   */\n      tag_408\n      tag_387\n      jump\t// in\n    tag_408:\n        /* \"#utility.yul\":13704:13738   */\n    tag_407:\n        /* \"#utility.yul\":13763:13764   */\n      dup3\n        /* \"#utility.yul\":13760:13761   */\n      dup3\n        /* \"#utility.yul\":13756:13765   */\n      sub\n        /* \"#utility.yul\":13748:13765   */\n      swap1\n      pop\n        /* \"#utility.yul\":13580:13771   */\n      swap3\n      swap2\n      pop\n      pop\n      jump\t// out\n        /* \"#utility.yul\":13777:13962   */\n    tag_166:\n        /* \"#utility.yul\":13815:13819   */\n      0x00\n        /* \"#utility.yul\":13835:13853   */\n      tag_410\n        /* \"#utility.yul\":13851:13852   */\n      dup3\n        /* \"#utility.yul\":13835:13853   */\n      tag_333\n      jump\t// in\n    tag_410:\n        /* \"#utility.yul\":13830:13853   */\n      swap2\n      pop\n        /* \"#utility.yul\":13867:13885   */\n      tag_411\n        /* \"#utility.yul\":13883:13884   */\n      dup4\n        /* \"#utility.yul\":13867:13885   */\n      tag_333\n      jump\t// in\n    tag_411:\n        /* \"#utility.yul\":13862:13885   */\n      swap3\n      pop\n        /* \"#utility.yul\":13904:13905   */\n      dup3\n        /* \"#utility.yul\":13901:13902   */\n      dup3\n        /* \"#utility.yul\":13898:13906   */\n      lt\n        /* \"#utility.yul\":13895:13929   */\n      iszero\n      tag_412\n      jumpi\n        /* \"#utility.yul\":13909:13927   */\n      tag_413\n      tag_387\n      jump\t// in\n    tag_413:\n        /* \"#utility.yul\":13895:13929   */\n    tag_412:\n        /* \"#utility.yul\":13954:13955   */\n      dup3\n        /* \"#utility.yul\":13951:13952   */\n      dup3\n        /* \"#utility.yul\":13947:13956   */\n      sub\n        /* \"#utility.yul\":13939:13956   */\n      swap1\n      pop\n        /* \"#utility.yul\":13777:13962   */\n      swap3\n      swap2\n      pop\n      pop\n      jump\t// out\n        /* \"#utility.yul\":13968:14064   */\n    tag_280:\n        /* \"#utility.yul\":14005:14012   */\n      0x00\n        /* \"#utility.yul\":14034:14058   */\n      tag_415\n        /* \"#utility.yul\":14052:14057   */\n      dup3\n        /* \"#utility.yul\":14034:14058   */\n      tag_416\n      jump\t// in\n    tag_415:\n        /* \"#utility.yul\":14023:14058   */\n      swap1\n      pop\n        /* \"#utility.yul\":13968:14064   */\n      swap2\n      swap1\n      pop\n      jump\t// out\n        /* \"#utility.yul\":14070:14174   */\n    tag_276:\n        /* \"#utility.yul\":14115:14122   */\n      0x00\n        /* \"#utility.yul\":14144:14168   */\n      tag_418\n        /* \"#utility.yul\":14162:14167   */\n      dup3\n        /* \"#utility.yul\":14144:14168   */\n      tag_416\n      jump\t// in\n    tag_418:\n        /* \"#utility.yul\":14133:14168   */\n      swap1\n      pop\n        /* \"#utility.yul\":14070:14174   */\n      swap2\n      swap1\n      pop\n      jump\t// out\n        /* \"#utility.yul\":14180:14270   */\n    tag_284:\n        /* \"#utility.yul\":14214:14221   */\n      0x00\n        /* \"#utility.yul\":14257:14262   */\n      dup2\n        /* \"#utility.yul\":14250:14263   */\n      iszero\n        /* \"#utility.yul\":14243:14264   */\n      iszero\n        /* \"#utility.yul\":14232:14264   */\n      swap1\n      pop\n        /* \"#utility.yul\":14180:14270   */\n      swap2\n      swap1\n      pop\n      jump\t// out\n        /* \"#utility.yul\":14276:14353   */\n    tag_288:\n        /* \"#utility.yul\":14313:14320   */\n      0x00\n        /* \"#utility.yul\":14342:14347   */\n      dup2\n        /* \"#utility.yul\":14331:14347   */\n      swap1\n      pop\n        /* \"#utility.yul\":14276:14353   */\n      swap2\n      swap1\n      pop\n      jump\t// out\n        /* \"#utility.yul\":14359:14485   */\n    tag_416:\n        /* \"#utility.yul\":14396:14403   */\n      0x00\n        /* \"#utility.yul\":14436:14478   */\n      0xffffffffffffffffffffffffffffffffffffffff\n        /* \"#utility.yul\":14429:14434   */\n      dup3\n        /* \"#utility.yul\":14425:14479   */\n      and\n        /* \"#utility.yul\":14414:14479   */\n      swap1\n      pop\n        /* \"#utility.yul\":14359:14485   */\n      swap2\n      swap1\n      pop\n      jump\t// out\n        /* \"#utility.yul\":14491:14568   */\n    tag_329:\n        /* \"#utility.yul\":14528:14535   */\n      0x00\n        /* \"#utility.yul\":14557:14562   */\n      dup2\n        /* \"#utility.yul\":14546:14562   */\n      swap1\n      pop\n        /* \"#utility.yul\":14491:14568   */\n      swap2\n      swap1\n      pop\n      jump\t// out\n        /* \"#utility.yul\":14574:14660   */\n    tag_333:\n        /* \"#utility.yul\":14609:14616   */\n      0x00\n        /* \"#utility.yul\":14649:14653   */\n      0xff\n        /* \"#utility.yul\":14642:14647   */\n      dup3\n        /* \"#utility.yul\":14638:14654   */\n      and\n        /* \"#utility.yul\":14627:14654   */\n      swap1\n      pop\n        /* \"#utility.yul\":14574:14660   */\n      swap2\n      swap1\n      pop\n      jump\t// out\n        /* \"#utility.yul\":14666:14833   */\n    tag_121:\n        /* \"#utility.yul\":14703:14706   */\n      0x00\n        /* \"#utility.yul\":14726:14748   */\n      tag_425\n        /* \"#utility.yul\":14742:14747   */\n      dup3\n        /* \"#utility.yul\":14726:14748   */\n      tag_333\n      jump\t// in\n    tag_425:\n        /* \"#utility.yul\":14717:14748   */\n      swap2\n      pop\n        /* \"#utility.yul\":14770:14774   */\n      0xff\n        /* \"#utility.yul\":14763:14768   */\n      dup3\n        /* \"#utility.yul\":14760:14775   */\n      eq\n        /* \"#utility.yul\":14757:14798   */\n      iszero\n      tag_426\n      jumpi\n        /* \"#utility.yul\":14778:14796   */\n      tag_427\n      tag_387\n      jump\t// in\n    tag_427:\n        /* \"#utility.yul\":14757:14798   */\n    tag_426:\n        /* \"#utility.yul\":14825:14826   */\n      0x01\n        /* \"#utility.yul\":14818:14823   */\n      dup3\n        /* \"#utility.yul\":14814:14827   */\n      add\n        /* \"#utility.yul\":14807:14827   */\n      swap1\n      pop\n        /* \"#utility.yul\":14666:14833   */\n      swap2\n      swap1\n      pop\n      jump\t// out\n        /* \"#utility.yul\":14839:15015   */\n    tag_230:\n        /* \"#utility.yul\":14871:14872   */\n      0x00\n        /* \"#utility.yul\":14888:14908   */\n      tag_429\n        /* \"#utility.yul\":14906:14907   */\n      dup3\n        /* \"#utility.yul\":14888:14908   */\n      tag_329\n      jump\t// in\n    tag_429:\n        /* \"#utility.yul\":14883:14908   */\n      swap2\n      pop\n        /* \"#utility.yul\":14922:14942   */\n      tag_430\n        /* \"#utility.yul\":14940:14941   */\n      dup4\n        /* \"#utility.yul\":14922:14942   */\n      tag_329\n      jump\t// in\n    tag_430:\n        /* \"#utility.yul\":14917:14942   */\n      swap3\n      pop\n        /* \"#utility.yul\":14961:14962   */\n      dup3\n        /* \"#utility.yul\":14951:14986   */\n      tag_431\n      jumpi\n        /* \"#utility.yul\":14966:14984   */\n      tag_432\n      tag_398\n      jump\t// in\n    tag_432:\n        /* \"#utility.yul\":14951:14986   */\n    tag_431:\n        /* \"#utility.yul\":15007:15008   */\n      dup3\n        /* \"#utility.yul\":15004:15005   */\n      dup3\n        /* \"#utility.yul\":15000:15009   */\n      mod\n        /* \"#utility.yul\":14995:15009   */\n      swap1\n      pop\n        /* \"#utility.yul\":14839:15015   */\n      swap3\n      swap2\n      pop\n      pop\n      jump\t// out\n        /* \"#utility.yul\":15021:15201   */\n    tag_387:\n        /* \"#utility.yul\":15069:15146   */\n      0x4e487b7100000000000000000000000000000000000000000000000000000000\n        /* \"#utility.yul\":15066:15067   */\n      0x00\n        /* \"#utility.yul\":15059:15147   */\n      mstore\n        /* \"#utility.yul\":15166:15170   */\n      0x11\n        /* \"#utility.yul\":15163:15164   */\n      0x04\n        /* \"#utility.yul\":15156:15171   */\n      mstore\n        /* \"#utility.yul\":15190:15194   */\n      0x24\n        /* \"#utility.yul\":15187:15188   */\n      0x00\n        /* \"#utility.yul\":15180:15195   */\n      revert\n        /* \"#utility.yul\":15207:15387   */\n    tag_398:\n        /* \"#utility.yul\":15255:15332   */\n      0x4e487b7100000000000000000000000000000000000000000000000000000000\n        /* \"#utility.yul\":15252:15253   */\n      0x00\n        /* \"#utility.yul\":15245:15333   */\n      mstore\n        /* \"#utility.yul\":15352:15356   */\n      0x12\n        /* \"#utility.yul\":15349:15350   */\n      0x04\n        /* \"#utility.yul\":15342:15357   */\n      mstore\n        /* \"#utility.yul\":15376:15380   */\n      0x24\n        /* \"#utility.yul\":15373:15374   */\n      0x00\n        /* \"#utility.yul\":15366:15381   */\n      revert\n        /* \"#utility.yul\":15516:15633   */\n    tag_253:\n        /* \"#utility.yul\":15625:15626   */\n      0x00\n        /* \"#utility.yul\":15622:15623   */\n      dup1\n        /* \"#utility.yul\":15615:15627   */\n      revert\n        /* \"#utility.yul\":15639:15803   */\n    tag_294:\n        /* \"#utility.yul\":15779:15795   */\n      0x47616d65206e6f7420666f756e64000000000000000000000000000000000000\n        /* \"#utility.yul\":15775:15776   */\n      0x00\n        /* \"#utility.yul\":15767:15773   */\n      dup3\n        /* \"#utility.yul\":15763:15777   */\n      add\n        /* \"#utility.yul\":15756:15796   */\n      mstore\n        /* \"#utility.yul\":15639:15803   */\n      pop\n      jump\t// out\n        /* \"#utility.yul\":15809:15985   */\n    tag_299:\n        /* \"#utility.yul\":15949:15977   */\n      0x596f752061726520616c72656164792072656769737465726564000000000000\n        /* \"#utility.yul\":15945:15946   */\n      0x00\n        /* \"#utility.yul\":15937:15943   */\n      dup3\n        /* \"#utility.yul\":15933:15947   */\n      add\n        /* \"#utility.yul\":15926:15978   */\n      mstore\n        /* \"#utility.yul\":15809:15985   */\n      pop\n      jump\t// out\n        /* \"#utility.yul\":15991:16105   */\n    tag_305:\n      pop\n      jump\t// out\n        /* \"#utility.yul\":16111:16333   */\n    tag_310:\n        /* \"#utility.yul\":16251:16285   */\n      0x496e73756666696369656e7420616d6f756e74206f6620636f6e747269627574\n        /* \"#utility.yul\":16247:16248   */\n      0x00\n        /* \"#utility.yul\":16239:16245   */\n      dup3\n        /* \"#utility.yul\":16235:16249   */\n      add\n        /* \"#utility.yul\":16228:16286   */\n      mstore\n        /* \"#utility.yul\":16320:16325   */\n      0x696f6e0000000000000000000000000000000000000000000000000000000000\n        /* \"#utility.yul\":16315:16317   */\n      0x20\n        /* \"#utility.yul\":16307:16313   */\n      dup3\n        /* \"#utility.yul\":16303:16318   */\n      add\n        /* \"#utility.yul\":16296:16326   */\n      mstore\n        /* \"#utility.yul\":16111:16333   */\n      pop\n      jump\t// out\n        /* \"#utility.yul\":16339:16566   */\n    tag_315:\n        /* \"#utility.yul\":16479:16513   */\n      0x466f72207265676974657220696e2067616d6520796f75206e65656420706179\n        /* \"#utility.yul\":16475:16476   */\n      0x00\n        /* \"#utility.yul\":16467:16473   */\n      dup3\n        /* \"#utility.yul\":16463:16477   */\n      add\n        /* \"#utility.yul\":16456:16514   */\n      mstore\n        /* \"#utility.yul\":16548:16558   */\n      0x2031206574686572000000000000000000000000000000000000000000000000\n        /* \"#utility.yul\":16543:16545   */\n      0x20\n        /* \"#utility.yul\":16535:16541   */\n      dup3\n        /* \"#utility.yul\":16531:16546   */\n      add\n        /* \"#utility.yul\":16524:16559   */\n      mstore\n        /* \"#utility.yul\":16339:16566   */\n      pop\n      jump\t// out\n        /* \"#utility.yul\":16572:16734   */\n    tag_320:\n        /* \"#utility.yul\":16712:16726   */\n      0x4e6f20636f6e7472616374730000000000000000000000000000000000000000\n        /* \"#utility.yul\":16708:16709   */\n      0x00\n        /* \"#utility.yul\":16700:16706   */\n      dup3\n        /* \"#utility.yul\":16696:16710   */\n      add\n        /* \"#utility.yul\":16689:16727   */\n      mstore\n        /* \"#utility.yul\":16572:16734   */\n      pop\n      jump\t// out\n        /* \"#utility.yul\":16740:16907   */\n    tag_325:\n        /* \"#utility.yul\":16880:16899   */\n      0x596f7520617265206e6f74206f776e6572000000000000000000000000000000\n        /* \"#utility.yul\":16876:16877   */\n      0x00\n        /* \"#utility.yul\":16868:16874   */\n      dup3\n        /* \"#utility.yul\":16864:16878   */\n      add\n        /* \"#utility.yul\":16857:16900   */\n      mstore\n        /* \"#utility.yul\":16740:16907   */\n      pop\n      jump\t// out\n        /* \"#utility.yul\":16913:17035   */\n    tag_241:\n        /* \"#utility.yul\":16986:17010   */\n      tag_446\n        /* \"#utility.yul\":17004:17009   */\n      dup2\n        /* \"#utility.yul\":16986:17010   */\n      tag_280\n      jump\t// in\n    tag_446:\n        /* \"#utility.yul\":16979:16984   */\n      dup2\n        /* \"#utility.yul\":16976:17011   */\n      eq\n        /* \"#utility.yul\":16966:17029   */\n      tag_447\n      jumpi\n        /* \"#utility.yul\":17025:17026   */\n      0x00\n        /* \"#utility.yul\":17022:17023   */\n      dup1\n        /* \"#utility.yul\":17015:17027   */\n      revert\n        /* \"#utility.yul\":16966:17029   */\n    tag_447:\n        /* \"#utility.yul\":16913:17035   */\n      pop\n      jump\t// out\n        /* \"#utility.yul\":17041:17163   */\n    tag_245:\n        /* \"#utility.yul\":17114:17138   */\n      tag_449\n        /* \"#utility.yul\":17132:17137   */\n      dup2\n        /* \"#utility.yul\":17114:17138   */\n      tag_329\n      jump\t// in\n    tag_449:\n        /* \"#utility.yul\":17107:17112   */\n      dup2\n        /* \"#utility.yul\":17104:17139   */\n      eq\n        /* \"#utility.yul\":17094:17157   */\n      tag_450\n      jumpi\n        /* \"#utility.yul\":17153:17154   */\n      0x00\n        /* \"#utility.yul\":17150:17151   */\n      dup1\n        /* \"#utility.yul\":17143:17155   */\n      revert\n        /* \"#utility.yul\":17094:17157   */\n    tag_450:\n        /* \"#utility.yul\":17041:17163   */\n      pop\n      jump\t// out\n        /* \"#utility.yul\":17169:17287   */\n    tag_249:\n        /* \"#utility.yul\":17240:17262   */\n      tag_452\n        /* \"#utility.yul\":17256:17261   */\n      dup2\n        /* \"#utility.yul\":17240:17262   */\n      tag_333\n      jump\t// in\n    tag_452:\n        /* \"#utility.yul\":17233:17238   */\n      dup2\n        /* \"#utility.yul\":17230:17263   */\n      eq\n        /* \"#utility.yul\":17220:17281   */\n      tag_453\n      jumpi\n        /* \"#utility.yul\":17277:17278   */\n      0x00\n        /* \"#utility.yul\":17274:17275   */\n      dup1\n        /* \"#utility.yul\":17267:17279   */\n      revert\n        /* \"#utility.yul\":17220:17281   */\n    tag_453:\n        /* \"#utility.yul\":17169:17287   */\n      pop\n      jump\t// out\n\n    auxdata: 0xa264697066735822122083847b180e52b82be713755f7c82bf09206e55d8767f13f9a56b7fcb80329c8864736f6c63430008070033\n}\n",
				"bytecode": {
					"linkReferences": {},
					"object": "60806040523480156200001157600080fd5b50336001806101000a81548173ffffffffffffffffffffffffffffffffffffffff021916908373ffffffffffffffffffffffffffffffffffffffff16021790555060018054906101000a900473ffffffffffffffffffffffffffffffffffffffff166004600080815260200190815260200160002060006101000a81548173ffffffffffffffffffffffffffffffffffffffff021916908373ffffffffffffffffffffffffffffffffffffffff16021790555060405180606001604052806000815260200160018054906101000a900473ffffffffffffffffffffffffffffffffffffffff1673ffffffffffffffffffffffffffffffffffffffff16815260200160008152506006600060018054906101000a900473ffffffffffffffffffffffffffffffffffffffff1673ffffffffffffffffffffffffffffffffffffffff1673ffffffffffffffffffffffffffffffffffffffff1681526020019081526020016000206000820151816000015560208201518160010160006101000a81548173ffffffffffffffffffffffffffffffffffffffff021916908373ffffffffffffffffffffffffffffffffffffffff160217905550604082015181600201559050506001600081905550620001f5670de0b6b3a7640000620001fb60201b60201c565b62000546565b6200020c336200035d60201b60201c565b6200024e576040517f08c379a00000000000000000000000000000000000000000000000000000000081526004016200024590620003fe565b60405180910390fd5b6040518060400160405280600160009054906101000a900460ff1660ff1681526020018281525060036000600160009054906101000a900460ff1660ff1660ff16815260200190815260200160002060008201518160000160006101000a81548160ff021916908360ff1602179055506020820151816001015590505060018060008282829054906101000a900460ff16620002eb91906200045e565b92506101000a81548160ff021916908360ff1602179055507fcf1ed532d6b83b4290f2f407b156b17826f49752e7a8ff360f502c307e05566360018060009054906101000a900460ff166200034191906200049c565b826040516200035292919062000420565b60405180910390a150565b600060018054906101000a900473ffffffffffffffffffffffffffffffffffffffff1673ffffffffffffffffffffffffffffffffffffffff168273ffffffffffffffffffffffffffffffffffffffff16149050919050565b6000620003c46011836200044d565b9150620003d1826200051d565b602082019050919050565b620003e781620004d7565b82525050565b620003f881620004e1565b82525050565b600060208201905081810360008301526200041981620003b5565b9050919050565b6000604082019050620004376000830185620003ed565b620004466020830184620003dc565b9392505050565b600082825260208201905092915050565b60006200046b82620004e1565b91506200047883620004e1565b92508260ff03821115620004915762000490620004ee565b5b828201905092915050565b6000620004a982620004e1565b9150620004b683620004e1565b925082821015620004cc57620004cb620004ee565b5b828203905092915050565b6000819050919050565b600060ff82169050919050565b7f4e487b7100000000000000000000000000000000000000000000000000000000600052601160045260246000fd5b7f596f7520617265206e6f74206f776e6572000000000000000000000000000000600082015250565b61251480620005566000396000f3fe6080604052600436106100f75760003560e01c806378a32e211161008a578063ad39f0a311610059578063ad39f0a31461038f578063ae9283b5146103ba578063bd233b91146103e3578063f10600061461042057610108565b806378a32e2114610298578063906cbf57146102d757806395a078e8146103155780639b0b0ae31461035257610108565b80632e8aab9b116100c65780632e8aab9b146101d757806333afc80b146101f35780634773489214610230578063556c90951461026d57610108565b80630173c05b146101145780630c71c3a2146101305780630e50cee51461015b5780632a648c891461019a57610108565b3661010857610106333461045d565b005b610112333461045d565b005b61012e60048036038101906101299190611c31565b610520565b005b34801561013c57600080fd5b50610145610857565b6040516101529190611e65565b60405180910390f35b34801561016757600080fd5b50610182600480360381019061017d9190611bc4565b61085d565b60405161019193929190611f5b565b60405180910390f35b3480156101a657600080fd5b506101c160048036038101906101bc9190611bf1565b6108a7565b6040516101ce9190611e4a565b60405180910390f35b6101f160048036038101906101ec9190611c5e565b6108d6565b005b3480156101ff57600080fd5b5061021a60048036038101906102159190611c31565b610980565b6040516102279190611f40565b60405180910390f35b34801561023c57600080fd5b5061025760048036038101906102529190611bc4565b6109bf565b6040516102649190611f40565b60405180910390f35b34801561027957600080fd5b506102826109e0565b60405161028f9190611f40565b60405180910390f35b3480156102a457600080fd5b506102bf60048036038101906102ba9190611c8b565b6109e6565b6040516102ce93929190611f5b565b60405180910390f35b3480156102e357600080fd5b506102fe60048036038101906102f99190611c5e565b610a3d565b60405161030c92919061201b565b60405180910390f35b34801561032157600080fd5b5061033c60048036038101906103379190611bc4565b610a6e565b6040516103499190611e4a565b60405180910390f35b34801561035e57600080fd5b5061037960048036038101906103749190611c5e565b610ac6565b6040516103869190611f40565b60405180910390f35b34801561039b57600080fd5b506103a4610ade565b6040516103b19190611fc9565b60405180910390f35b3480156103c657600080fd5b506103e160048036038101906103dc9190611c31565b610af1565b005b3480156103ef57600080fd5b5061040a60048036038101906104059190611c31565b610c42565b6040516104179190611e2f565b60405180910390f35b34801561042c57600080fd5b5061044760048036038101906104429190611bf1565b610c75565b6040516104549190611f40565b60405180910390f35b60008060005b60018060009054906101000a900460ff1661047e91906120fb565b60ff168160ff1610156104ce5734600360008360ff1660ff1681526020019081526020016000206001015414156104bb57600192508091506104ce565b80806104c690612296565b915050610463565b508161050f576040517f08c379a000000000000000000000000000000000000000000000000000000000815260040161050690611e80565b60405180910390fd5b61051a818585610c9a565b50505050565b600080339050803b915060008263ffffffff161115610574576040517f08c379a000000000000000000000000000000000000000000000000000000000815260040161056b90611f00565b60405180910390fd5b600073ffffffffffffffffffffffffffffffffffffffff16600660003373ffffffffffffffffffffffffffffffffffffffff1673ffffffffffffffffffffffffffffffffffffffff16815260200190815260200160002060010160009054906101000a900473ffffffffffffffffffffffffffffffffffffffff1673ffffffffffffffffffffffffffffffffffffffff1614610645576040517f08c379a000000000000000000000000000000000000000000000000000000000815260040161063c90611ea0565b60405180910390fd5b670de0b6b3a7640000341461068f576040517f08c379a000000000000000000000000000000000000000000000000000000000815260040161068690611ee0565b60405180910390fd5b604051806060016040528060005481526020013373ffffffffffffffffffffffffffffffffffffffff16815260200184815250600660003373ffffffffffffffffffffffffffffffffffffffff1673ffffffffffffffffffffffffffffffffffffffff1681526020019081526020016000206000820151816000015560208201518160010160006101000a81548173ffffffffffffffffffffffffffffffffffffffff021916908373ffffffffffffffffffffffffffffffffffffffff1602179055506040820151816002015590505033600460008054815260200190815260200160002060006101000a81548173ffffffffffffffffffffffffffffffffffffffff021916908373ffffffffffffffffffffffffffffffffffffffff16021790555060016000808282546107c491906120a5565b9250508190555060016005600085815260200190815260200160002060008282546107ef91906120a5565b925050819055507f12888a3214fa3b6d599e2a7d3ff41e8aa7ef1295fe3ba5d428825df6da086885600160005461082691906121bd565b84600560008781526020019081526020016000205460405161084a93929190611f92565b60405180910390a1505050565b60025481565b60066020528060005260406000206000915090508060000154908060010160009054906101000a900473ffffffffffffffffffffffffffffffffffffffff16908060020154905083565b600a6020528160005260406000206020528060005260406000206000915091509054906101000a900460ff1681565b600073ffffffffffffffffffffffffffffffffffffffff16600660003373ffffffffffffffffffffffffffffffffffffffff1673ffffffffffffffffffffffffffffffffffffffff16815260200190815260200160002060010160009054906101000a900473ffffffffffffffffffffffffffffffffffffffff1673ffffffffffffffffffffffffffffffffffffffff16141561097257600080fd5b61097d813334610c9a565b50565b600080610997600284611b4390919063ffffffff16565b146109b5576109b0600283611b5990919063ffffffff16565b6109b8565b60005b9050919050565b60008173ffffffffffffffffffffffffffffffffffffffff16319050919050565b60005481565b6008602052816000526040600020602052806000526040600020600091509150508060000154908060010160009054906101000a900473ffffffffffffffffffffffffffffffffffffffff16908060020154905083565b60036020528060005260406000206000915090508060000160009054906101000a900460ff16908060010154905082565b600060018054906101000a900473ffffffffffffffffffffffffffffffffffffffff1673ffffffffffffffffffffffffffffffffffffffff168273ffffffffffffffffffffffffffffffffffffffff16149050919050565b60076020528060005260406000206000915090505481565b600160009054906101000a900460ff1681565b610afa33610a6e565b610b39576040517f08c379a0000000000000000000000000000000000000000000000000000000008152600401610b3090611f20565b60405180910390fd5b6040518060400160405280600160009054906101000a900460ff1660ff1681526020018281525060036000600160009054906101000a900460ff1660ff1660ff16815260200190815260200160002060008201518160000160006101000a81548160ff021916908360ff1602179055506020820151816001015590505060018060008282829054906101000a900460ff16610bd491906120fb565b92506101000a81548160ff021916908360ff1602179055507fcf1ed532d6b83b4290f2f407b156b17826f49752e7a8ff360f502c307e05566360018060009054906101000a900460ff16610c2891906121f1565b82604051610c3792919061201b565b60405180910390a150565b60046020528060005260406000206000915054906101000a900473ffffffffffffffffffffffffffffffffffffffff1681565b6009602052816000526040600020602052806000526040600020600091509150505481565b600360008460ff1660ff16815260200190815260200160002060010154811015610cf9576040517f08c379a0000000000000000000000000000000000000000000000000000000008152600401610cf090611ec0565b60405180910390fd5b600660008373ffffffffffffffffffffffffffffffffffffffff1673ffffffffffffffffffffffffffffffffffffffff168152602001908152602001600020600860008560ff1660ff1681526020019081526020016000206000600760008760ff1660ff168152602001908152602001600020548152602001908152602001600020600082015481600001556001820160009054906101000a900473ffffffffffffffffffffffffffffffffffffffff168160010160006101000a81548173ffffffffffffffffffffffffffffffffffffffff021916908373ffffffffffffffffffffffffffffffffffffffff160217905550600282015481600201559050506001600a60008473ffffffffffffffffffffffffffffffffffffffff1673ffffffffffffffffffffffffffffffffffffffff16815260200190815260200160002060008560ff1660ff16815260200190815260200160002060006101000a81548160ff0219169083151502179055506001600760008560ff1660ff1681526020019081526020016000206000828254610e9291906120a5565b925050819055506003600760008560ff1660ff1681526020019081526020016000205410611b3e576000610ede600760008660ff1660ff16815260200190815260200160002054610980565b90505b60008114611b3c576000600860008660ff1660ff1681526020019081526020016000206000600184610f1391906121bd565b815260200190815260200160002060010160009054906101000a900473ffffffffffffffffffffffffffffffffffffffff1690506001600960008373ffffffffffffffffffffffffffffffffffffffff1673ffffffffffffffffffffffffffffffffffffffff16815260200190815260200160002060008760ff1660ff168152602001908152602001600020541115806110195750600a60008273ffffffffffffffffffffffffffffffffffffffff1673ffffffffffffffffffffffffffffffffffffffff1681526020019081526020016000206000600187610ff691906120fb565b60ff1660ff16815260200190815260200160002060009054906101000a900460ff165b15611b2b5760008173ffffffffffffffffffffffffffffffffffffffff1661107a606461106c604a600360008c60ff1660ff16815260200190815260200160002060010154611b6f90919063ffffffff16565b611b5990919063ffffffff16565b60405161108690611e1a565b60006040518083038185875af1925050503d80600081146110c3576040519150601f19603f3d011682016040523d82523d6000602084013e6110c8565b606091505b505090506001600960008473ffffffffffffffffffffffffffffffffffffffff1673ffffffffffffffffffffffffffffffffffffffff16815260200190815260200160002060008860ff1660ff168152602001908152602001600020600082825461113391906120a5565b925050819055507fd9ff1d189bd8473f87a70327222795b92238d06f3edf14fa23403ac2153c10a9600360008860ff1660ff16815260200190815260200160002060000160009054906101000a900460ff16838360405161119693929190611fe4565b60405180910390a16000600860008860ff1660ff16815260200190815260200160002060006001866111c891906121bd565b81526020019081526020016000206000015490506000600860008960ff1660ff168152602001908152602001600020600060018761120691906121bd565b8152602001908152602001600020600201549050600061125f6064611251600a600360008e60ff1660ff16815260200190815260200160002060010154611b6f90919063ffffffff16565b611b5990919063ffffffff16565b90506004600083815260200190815260200160002060009054906101000a900473ffffffffffffffffffffffffffffffffffffffff1673ffffffffffffffffffffffffffffffffffffffff16816040516112b890611e1a565b60006040518083038185875af1925050503d80600081146112f5576040519150601f19603f3d011682016040523d82523d6000602084013e6112fa565b606091505b505080945050831561136d577fafe90bc52fc3dd02b2550b825fc68e93b4bfbcb8165bbacda6cd14b2bad5bc02600360008b60ff1660ff16815260200190815260200160002060000160009054906101000a900460ff168484846040516113649493929190612044565b60405180910390a15b6113b060646113a26006600360008e60ff1660ff16815260200190815260200160002060010154611b6f90919063ffffffff16565b611b5990919063ffffffff16565b9050600660006004600085815260200190815260200160002060009054906101000a900473ffffffffffffffffffffffffffffffffffffffff1673ffffffffffffffffffffffffffffffffffffffff1673ffffffffffffffffffffffffffffffffffffffff16815260200190815260200160002060010160009054906101000a900473ffffffffffffffffffffffffffffffffffffffff1673ffffffffffffffffffffffffffffffffffffffff168160405161146b90611e1a565b60006040518083038185875af1925050503d80600081146114a8576040519150601f19603f3d011682016040523d82523d6000602084013e6114ad565b606091505b5050809450508315611595577fafe90bc52fc3dd02b2550b825fc68e93b4bfbcb8165bbacda6cd14b2bad5bc02600360008b60ff1660ff16815260200190815260200160002060000160009054906101000a900460ff1683600660006004600088815260200190815260200160002060009054906101000a900473ffffffffffffffffffffffffffffffffffffffff1673ffffffffffffffffffffffffffffffffffffffff1673ffffffffffffffffffffffffffffffffffffffff168152602001908152602001600020600001548460405161158c9493929190612044565b60405180910390a15b6115d860646115ca6004600360008e60ff1660ff16815260200190815260200160002060010154611b6f90919063ffffffff16565b611b5990919063ffffffff16565b90506006600060046000600660006004600089815260200190815260200160002060009054906101000a900473ffffffffffffffffffffffffffffffffffffffff1673ffffffffffffffffffffffffffffffffffffffff1673ffffffffffffffffffffffffffffffffffffffff16815260200190815260200160002060000154815260200190815260200160002060009054906101000a900473ffffffffffffffffffffffffffffffffffffffff1673ffffffffffffffffffffffffffffffffffffffff1673ffffffffffffffffffffffffffffffffffffffff16815260200190815260200160002060010160009054906101000a900473ffffffffffffffffffffffffffffffffffffffff1673ffffffffffffffffffffffffffffffffffffffff168160405161170890611e1a565b60006040518083038185875af1925050503d8060008114611745576040519150601f19603f3d011682016040523d82523d6000602084013e61174a565b606091505b505080945050831561191c577fafe90bc52fc3dd02b2550b825fc68e93b4bfbcb8165bbacda6cd14b2bad5bc02600360008b60ff1660ff16815260200190815260200160002060000160009054906101000a900460ff16600660006004600087815260200190815260200160002060009054906101000a900473ffffffffffffffffffffffffffffffffffffffff1673ffffffffffffffffffffffffffffffffffffffff1673ffffffffffffffffffffffffffffffffffffffff16815260200190815260200160002060000154600660006004600060066000600460008c815260200190815260200160002060009054906101000a900473ffffffffffffffffffffffffffffffffffffffff1673ffffffffffffffffffffffffffffffffffffffff1673ffffffffffffffffffffffffffffffffffffffff16815260200190815260200160002060000154815260200190815260200160002060009054906101000a900473ffffffffffffffffffffffffffffffffffffffff1673ffffffffffffffffffffffffffffffffffffffff1673ffffffffffffffffffffffffffffffffffffffff16815260200190815260200160002060000154846040516119139493929190612044565b60405180910390a15b61195f60646119516006600360008e60ff1660ff16815260200190815260200160002060010154611b6f90919063ffffffff16565b611b5990919063ffffffff16565b90506006600060018054906101000a900473ffffffffffffffffffffffffffffffffffffffff1673ffffffffffffffffffffffffffffffffffffffff1673ffffffffffffffffffffffffffffffffffffffff16815260200190815260200160002060010160009054906101000a900473ffffffffffffffffffffffffffffffffffffffff1673ffffffffffffffffffffffffffffffffffffffff1681604051611a0790611e1a565b60006040518083038185875af1925050503d8060008114611a44576040519150601f19603f3d011682016040523d82523d6000602084013e611a49565b606091505b5050809450508315611b1e577fafe90bc52fc3dd02b2550b825fc68e93b4bfbcb8165bbacda6cd14b2bad5bc02600360008b60ff1660ff16815260200190815260200160002060000160009054906101000a900460ff16846006600060018054906101000a900473ffffffffffffffffffffffffffffffffffffffff1673ffffffffffffffffffffffffffffffffffffffff1673ffffffffffffffffffffffffffffffffffffffff1681526020019081526020016000206000015484604051611b159493929190612044565b60405180910390a15b4340600281905550505050505b611b3482610980565b915050610ee1565b505b505050565b60008183611b5191906122c0565b905092915050565b60008183611b679190612132565b905092915050565b60008183611b7d9190612163565b905092915050565b600081359050611b9481612499565b92915050565b600081359050611ba9816124b0565b92915050565b600081359050611bbe816124c7565b92915050565b600060208284031215611bda57611bd961234f565b5b6000611be884828501611b85565b91505092915050565b60008060408385031215611c0857611c0761234f565b5b6000611c1685828601611b85565b9250506020611c2785828601611baf565b9150509250929050565b600060208284031215611c4757611c4661234f565b5b6000611c5584828501611b9a565b91505092915050565b600060208284031215611c7457611c7361234f565b5b6000611c8284828501611baf565b91505092915050565b60008060408385031215611ca257611ca161234f565b5b6000611cb085828601611baf565b9250506020611cc185828601611b9a565b9150509250929050565b611cd481612237565b82525050565b611ce381612225565b82525050565b611cf281612249565b82525050565b611d0181612255565b82525050565b6000611d14600e83612094565b9150611d1f82612354565b602082019050919050565b6000611d37601a83612094565b9150611d428261237d565b602082019050919050565b6000611d5a600083612089565b9150611d65826123a6565b600082019050919050565b6000611d7d602383612094565b9150611d88826123a9565b604082019050919050565b6000611da0602883612094565b9150611dab826123f8565b604082019050919050565b6000611dc3600c83612094565b9150611dce82612447565b602082019050919050565b6000611de6601183612094565b9150611df182612470565b602082019050919050565b611e058161227f565b82525050565b611e1481612289565b82525050565b6000611e2582611d4d565b9150819050919050565b6000602082019050611e446000830184611cda565b92915050565b6000602082019050611e5f6000830184611ce9565b92915050565b6000602082019050611e7a6000830184611cf8565b92915050565b60006020820190508181036000830152611e9981611d07565b9050919050565b60006020820190508181036000830152611eb981611d2a565b9050919050565b60006020820190508181036000830152611ed981611d70565b9050919050565b60006020820190508181036000830152611ef981611d93565b9050919050565b60006020820190508181036000830152611f1981611db6565b9050919050565b60006020820190508181036000830152611f3981611dd9565b9050919050565b6000602082019050611f556000830184611dfc565b92915050565b6000606082019050611f706000830186611dfc565b611f7d6020830185611ccb565b611f8a6040830184611dfc565b949350505050565b6000606082019050611fa76000830186611dfc565b611fb46020830185611dfc565b611fc16040830184611dfc565b949350505050565b6000602082019050611fde6000830184611e0b565b92915050565b6000606082019050611ff96000830186611e0b565b6120066020830185611cda565b6120136040830184611ce9565b949350505050565b60006040820190506120306000830185611e0b565b61203d6020830184611dfc565b9392505050565b60006080820190506120596000830187611e0b565b6120666020830186611dfc565b6120736040830185611dfc565b6120806060830184611dfc565b95945050505050565b600081905092915050565b600082825260208201905092915050565b60006120b08261227f565b91506120bb8361227f565b9250827fffffffffffffffffffffffffffffffffffffffffffffffffffffffffffffffff038211156120f0576120ef6122f1565b5b828201905092915050565b600061210682612289565b915061211183612289565b92508260ff03821115612127576121266122f1565b5b828201905092915050565b600061213d8261227f565b91506121488361227f565b92508261215857612157612320565b5b828204905092915050565b600061216e8261227f565b91506121798361227f565b9250817fffffffffffffffffffffffffffffffffffffffffffffffffffffffffffffffff04831182151516156121b2576121b16122f1565b5b828202905092915050565b60006121c88261227f565b91506121d38361227f565b9250828210156121e6576121e56122f1565b5b828203905092915050565b60006121fc82612289565b915061220783612289565b92508282101561221a576122196122f1565b5b828203905092915050565b60006122308261225f565b9050919050565b60006122428261225f565b9050919050565b60008115159050919050565b6000819050919050565b600073ffffffffffffffffffffffffffffffffffffffff82169050919050565b6000819050919050565b600060ff82169050919050565b60006122a182612289565b915060ff8214156122b5576122b46122f1565b5b600182019050919050565b60006122cb8261227f565b91506122d68361227f565b9250826122e6576122e5612320565b5b828206905092915050565b7f4e487b7100000000000000000000000000000000000000000000000000000000600052601160045260246000fd5b7f4e487b7100000000000000000000000000000000000000000000000000000000600052601260045260246000fd5b600080fd5b7f47616d65206e6f7420666f756e64000000000000000000000000000000000000600082015250565b7f596f752061726520616c72656164792072656769737465726564000000000000600082015250565b50565b7f496e73756666696369656e7420616d6f756e74206f6620636f6e74726962757460008201527f696f6e0000000000000000000000000000000000000000000000000000000000602082015250565b7f466f72207265676974657220696e2067616d6520796f75206e6565642070617960008201527f2031206574686572000000000000000000000000000000000000000000000000602082015250565b7f4e6f20636f6e7472616374730000000000000000000000000000000000000000600082015250565b7f596f7520617265206e6f74206f776e6572000000000000000000000000000000600082015250565b6124a281612225565b81146124ad57600080fd5b50565b6124b98161227f565b81146124c457600080fd5b50565b6124d081612289565b81146124db57600080fd5b5056fea264697066735822122083847b180e52b82be713755f7c82bf09206e55d8767f13f9a56b7fcb80329c8864736f6c63430008070033",
					"opcodes": "PUSH1 0x80 PUSH1 0x40 MSTORE CALLVALUE DUP1 ISZERO PUSH3 0x11 JUMPI PUSH1 0x0 DUP1 REVERT JUMPDEST POP CALLER PUSH1 0x1 DUP1 PUSH2 0x100 EXP DUP2 SLOAD DUP2 PUSH20 0xFFFFFFFFFFFFFFFFFFFFFFFFFFFFFFFFFFFFFFFF MUL NOT AND SWAP1 DUP4 PUSH20 0xFFFFFFFFFFFFFFFFFFFFFFFFFFFFFFFFFFFFFFFF AND MUL OR SWAP1 SSTORE POP PUSH1 0x1 DUP1 SLOAD SWAP1 PUSH2 0x100 EXP SWAP1 DIV PUSH20 0xFFFFFFFFFFFFFFFFFFFFFFFFFFFFFFFFFFFFFFFF AND PUSH1 0x4 PUSH1 0x0 DUP1 DUP2 MSTORE PUSH1 0x20 ADD SWAP1 DUP2 MSTORE PUSH1 0x20 ADD PUSH1 0x0 KECCAK256 PUSH1 0x0 PUSH2 0x100 EXP DUP2 SLOAD DUP2 PUSH20 0xFFFFFFFFFFFFFFFFFFFFFFFFFFFFFFFFFFFFFFFF MUL NOT AND SWAP1 DUP4 PUSH20 0xFFFFFFFFFFFFFFFFFFFFFFFFFFFFFFFFFFFFFFFF AND MUL OR SWAP1 SSTORE POP PUSH1 0x40 MLOAD DUP1 PUSH1 0x60 ADD PUSH1 0x40 MSTORE DUP1 PUSH1 0x0 DUP2 MSTORE PUSH1 0x20 ADD PUSH1 0x1 DUP1 SLOAD SWAP1 PUSH2 0x100 EXP SWAP1 DIV PUSH20 0xFFFFFFFFFFFFFFFFFFFFFFFFFFFFFFFFFFFFFFFF AND PUSH20 0xFFFFFFFFFFFFFFFFFFFFFFFFFFFFFFFFFFFFFFFF AND DUP2 MSTORE PUSH1 0x20 ADD PUSH1 0x0 DUP2 MSTORE POP PUSH1 0x6 PUSH1 0x0 PUSH1 0x1 DUP1 SLOAD SWAP1 PUSH2 0x100 EXP SWAP1 DIV PUSH20 0xFFFFFFFFFFFFFFFFFFFFFFFFFFFFFFFFFFFFFFFF AND PUSH20 0xFFFFFFFFFFFFFFFFFFFFFFFFFFFFFFFFFFFFFFFF AND PUSH20 0xFFFFFFFFFFFFFFFFFFFFFFFFFFFFFFFFFFFFFFFF AND DUP2 MSTORE PUSH1 0x20 ADD SWAP1 DUP2 MSTORE PUSH1 0x20 ADD PUSH1 0x0 KECCAK256 PUSH1 0x0 DUP3 ADD MLOAD DUP2 PUSH1 0x0 ADD SSTORE PUSH1 0x20 DUP3 ADD MLOAD DUP2 PUSH1 0x1 ADD PUSH1 0x0 PUSH2 0x100 EXP DUP2 SLOAD DUP2 PUSH20 0xFFFFFFFFFFFFFFFFFFFFFFFFFFFFFFFFFFFFFFFF MUL NOT AND SWAP1 DUP4 PUSH20 0xFFFFFFFFFFFFFFFFFFFFFFFFFFFFFFFFFFFFFFFF AND MUL OR SWAP1 SSTORE POP PUSH1 0x40 DUP3 ADD MLOAD DUP2 PUSH1 0x2 ADD SSTORE SWAP1 POP POP PUSH1 0x1 PUSH1 0x0 DUP2 SWAP1 SSTORE POP PUSH3 0x1F5 PUSH8 0xDE0B6B3A7640000 PUSH3 0x1FB PUSH1 0x20 SHL PUSH1 0x20 SHR JUMP JUMPDEST PUSH3 0x546 JUMP JUMPDEST PUSH3 0x20C CALLER PUSH3 0x35D PUSH1 0x20 SHL PUSH1 0x20 SHR JUMP JUMPDEST PUSH3 0x24E JUMPI PUSH1 0x40 MLOAD PUSH32 0x8C379A000000000000000000000000000000000000000000000000000000000 DUP2 MSTORE PUSH1 0x4 ADD PUSH3 0x245 SWAP1 PUSH3 0x3FE JUMP JUMPDEST PUSH1 0x40 MLOAD DUP1 SWAP2 SUB SWAP1 REVERT JUMPDEST PUSH1 0x40 MLOAD DUP1 PUSH1 0x40 ADD PUSH1 0x40 MSTORE DUP1 PUSH1 0x1 PUSH1 0x0 SWAP1 SLOAD SWAP1 PUSH2 0x100 EXP SWAP1 DIV PUSH1 0xFF AND PUSH1 0xFF AND DUP2 MSTORE PUSH1 0x20 ADD DUP3 DUP2 MSTORE POP PUSH1 0x3 PUSH1 0x0 PUSH1 0x1 PUSH1 0x0 SWAP1 SLOAD SWAP1 PUSH2 0x100 EXP SWAP1 DIV PUSH1 0xFF AND PUSH1 0xFF AND PUSH1 0xFF AND DUP2 MSTORE PUSH1 0x20 ADD SWAP1 DUP2 MSTORE PUSH1 0x20 ADD PUSH1 0x0 KECCAK256 PUSH1 0x0 DUP3 ADD MLOAD DUP2 PUSH1 0x0 ADD PUSH1 0x0 PUSH2 0x100 EXP DUP2 SLOAD DUP2 PUSH1 0xFF MUL NOT AND SWAP1 DUP4 PUSH1 0xFF AND MUL OR SWAP1 SSTORE POP PUSH1 0x20 DUP3 ADD MLOAD DUP2 PUSH1 0x1 ADD SSTORE SWAP1 POP POP PUSH1 0x1 DUP1 PUSH1 0x0 DUP3 DUP3 DUP3 SWAP1 SLOAD SWAP1 PUSH2 0x100 EXP SWAP1 DIV PUSH1 0xFF AND PUSH3 0x2EB SWAP2 SWAP1 PUSH3 0x45E JUMP JUMPDEST SWAP3 POP PUSH2 0x100 EXP DUP2 SLOAD DUP2 PUSH1 0xFF MUL NOT AND SWAP1 DUP4 PUSH1 0xFF AND MUL OR SWAP1 SSTORE POP PUSH32 0xCF1ED532D6B83B4290F2F407B156B17826F49752E7A8FF360F502C307E055663 PUSH1 0x1 DUP1 PUSH1 0x0 SWAP1 SLOAD SWAP1 PUSH2 0x100 EXP SWAP1 DIV PUSH1 0xFF AND PUSH3 0x341 SWAP2 SWAP1 PUSH3 0x49C JUMP JUMPDEST DUP3 PUSH1 0x40 MLOAD PUSH3 0x352 SWAP3 SWAP2 SWAP1 PUSH3 0x420 JUMP JUMPDEST PUSH1 0x40 MLOAD DUP1 SWAP2 SUB SWAP1 LOG1 POP JUMP JUMPDEST PUSH1 0x0 PUSH1 0x1 DUP1 SLOAD SWAP1 PUSH2 0x100 EXP SWAP1 DIV PUSH20 0xFFFFFFFFFFFFFFFFFFFFFFFFFFFFFFFFFFFFFFFF AND PUSH20 0xFFFFFFFFFFFFFFFFFFFFFFFFFFFFFFFFFFFFFFFF AND DUP3 PUSH20 0xFFFFFFFFFFFFFFFFFFFFFFFFFFFFFFFFFFFFFFFF AND EQ SWAP1 POP SWAP2 SWAP1 POP JUMP JUMPDEST PUSH1 0x0 PUSH3 0x3C4 PUSH1 0x11 DUP4 PUSH3 0x44D JUMP JUMPDEST SWAP2 POP PUSH3 0x3D1 DUP3 PUSH3 0x51D JUMP JUMPDEST PUSH1 0x20 DUP3 ADD SWAP1 POP SWAP2 SWAP1 POP JUMP JUMPDEST PUSH3 0x3E7 DUP2 PUSH3 0x4D7 JUMP JUMPDEST DUP3 MSTORE POP POP JUMP JUMPDEST PUSH3 0x3F8 DUP2 PUSH3 0x4E1 JUMP JUMPDEST DUP3 MSTORE POP POP JUMP JUMPDEST PUSH1 0x0 PUSH1 0x20 DUP3 ADD SWAP1 POP DUP2 DUP2 SUB PUSH1 0x0 DUP4 ADD MSTORE PUSH3 0x419 DUP2 PUSH3 0x3B5 JUMP JUMPDEST SWAP1 POP SWAP2 SWAP1 POP JUMP JUMPDEST PUSH1 0x0 PUSH1 0x40 DUP3 ADD SWAP1 POP PUSH3 0x437 PUSH1 0x0 DUP4 ADD DUP6 PUSH3 0x3ED JUMP JUMPDEST PUSH3 0x446 PUSH1 0x20 DUP4 ADD DUP5 PUSH3 0x3DC JUMP JUMPDEST SWAP4 SWAP3 POP POP POP JUMP JUMPDEST PUSH1 0x0 DUP3 DUP3 MSTORE PUSH1 0x20 DUP3 ADD SWAP1 POP SWAP3 SWAP2 POP POP JUMP JUMPDEST PUSH1 0x0 PUSH3 0x46B DUP3 PUSH3 0x4E1 JUMP JUMPDEST SWAP2 POP PUSH3 0x478 DUP4 PUSH3 0x4E1 JUMP JUMPDEST SWAP3 POP DUP3 PUSH1 0xFF SUB DUP3 GT ISZERO PUSH3 0x491 JUMPI PUSH3 0x490 PUSH3 0x4EE JUMP JUMPDEST JUMPDEST DUP3 DUP3 ADD SWAP1 POP SWAP3 SWAP2 POP POP JUMP JUMPDEST PUSH1 0x0 PUSH3 0x4A9 DUP3 PUSH3 0x4E1 JUMP JUMPDEST SWAP2 POP PUSH3 0x4B6 DUP4 PUSH3 0x4E1 JUMP JUMPDEST SWAP3 POP DUP3 DUP3 LT ISZERO PUSH3 0x4CC JUMPI PUSH3 0x4CB PUSH3 0x4EE JUMP JUMPDEST JUMPDEST DUP3 DUP3 SUB SWAP1 POP SWAP3 SWAP2 POP POP JUMP JUMPDEST PUSH1 0x0 DUP2 SWAP1 POP SWAP2 SWAP1 POP JUMP JUMPDEST PUSH1 0x0 PUSH1 0xFF DUP3 AND SWAP1 POP SWAP2 SWAP1 POP JUMP JUMPDEST PUSH32 0x4E487B7100000000000000000000000000000000000000000000000000000000 PUSH1 0x0 MSTORE PUSH1 0x11 PUSH1 0x4 MSTORE PUSH1 0x24 PUSH1 0x0 REVERT JUMPDEST PUSH32 0x596F7520617265206E6F74206F776E6572000000000000000000000000000000 PUSH1 0x0 DUP3 ADD MSTORE POP JUMP JUMPDEST PUSH2 0x2514 DUP1 PUSH3 0x556 PUSH1 0x0 CODECOPY PUSH1 0x0 RETURN INVALID PUSH1 0x80 PUSH1 0x40 MSTORE PUSH1 0x4 CALLDATASIZE LT PUSH2 0xF7 JUMPI PUSH1 0x0 CALLDATALOAD PUSH1 0xE0 SHR DUP1 PUSH4 0x78A32E21 GT PUSH2 0x8A JUMPI DUP1 PUSH4 0xAD39F0A3 GT PUSH2 0x59 JUMPI DUP1 PUSH4 0xAD39F0A3 EQ PUSH2 0x38F JUMPI DUP1 PUSH4 0xAE9283B5 EQ PUSH2 0x3BA JUMPI DUP1 PUSH4 0xBD233B91 EQ PUSH2 0x3E3 JUMPI DUP1 PUSH4 0xF1060006 EQ PUSH2 0x420 JUMPI PUSH2 0x108 JUMP JUMPDEST DUP1 PUSH4 0x78A32E21 EQ PUSH2 0x298 JUMPI DUP1 PUSH4 0x906CBF57 EQ PUSH2 0x2D7 JUMPI DUP1 PUSH4 0x95A078E8 EQ PUSH2 0x315 JUMPI DUP1 PUSH4 0x9B0B0AE3 EQ PUSH2 0x352 JUMPI PUSH2 0x108 JUMP JUMPDEST DUP1 PUSH4 0x2E8AAB9B GT PUSH2 0xC6 JUMPI DUP1 PUSH4 0x2E8AAB9B EQ PUSH2 0x1D7 JUMPI DUP1 PUSH4 0x33AFC80B EQ PUSH2 0x1F3 JUMPI DUP1 PUSH4 0x47734892 EQ PUSH2 0x230 JUMPI DUP1 PUSH4 0x556C9095 EQ PUSH2 0x26D JUMPI PUSH2 0x108 JUMP JUMPDEST DUP1 PUSH4 0x173C05B EQ PUSH2 0x114 JUMPI DUP1 PUSH4 0xC71C3A2 EQ PUSH2 0x130 JUMPI DUP1 PUSH4 0xE50CEE5 EQ PUSH2 0x15B JUMPI DUP1 PUSH4 0x2A648C89 EQ PUSH2 0x19A JUMPI PUSH2 0x108 JUMP JUMPDEST CALLDATASIZE PUSH2 0x108 JUMPI PUSH2 0x106 CALLER CALLVALUE PUSH2 0x45D JUMP JUMPDEST STOP JUMPDEST PUSH2 0x112 CALLER CALLVALUE PUSH2 0x45D JUMP JUMPDEST STOP JUMPDEST PUSH2 0x12E PUSH1 0x4 DUP1 CALLDATASIZE SUB DUP2 ADD SWAP1 PUSH2 0x129 SWAP2 SWAP1 PUSH2 0x1C31 JUMP JUMPDEST PUSH2 0x520 JUMP JUMPDEST STOP JUMPDEST CALLVALUE DUP1 ISZERO PUSH2 0x13C JUMPI PUSH1 0x0 DUP1 REVERT JUMPDEST POP PUSH2 0x145 PUSH2 0x857 JUMP JUMPDEST PUSH1 0x40 MLOAD PUSH2 0x152 SWAP2 SWAP1 PUSH2 0x1E65 JUMP JUMPDEST PUSH1 0x40 MLOAD DUP1 SWAP2 SUB SWAP1 RETURN JUMPDEST CALLVALUE DUP1 ISZERO PUSH2 0x167 JUMPI PUSH1 0x0 DUP1 REVERT JUMPDEST POP PUSH2 0x182 PUSH1 0x4 DUP1 CALLDATASIZE SUB DUP2 ADD SWAP1 PUSH2 0x17D SWAP2 SWAP1 PUSH2 0x1BC4 JUMP JUMPDEST PUSH2 0x85D JUMP JUMPDEST PUSH1 0x40 MLOAD PUSH2 0x191 SWAP4 SWAP3 SWAP2 SWAP1 PUSH2 0x1F5B JUMP JUMPDEST PUSH1 0x40 MLOAD DUP1 SWAP2 SUB SWAP1 RETURN JUMPDEST CALLVALUE DUP1 ISZERO PUSH2 0x1A6 JUMPI PUSH1 0x0 DUP1 REVERT JUMPDEST POP PUSH2 0x1C1 PUSH1 0x4 DUP1 CALLDATASIZE SUB DUP2 ADD SWAP1 PUSH2 0x1BC SWAP2 SWAP1 PUSH2 0x1BF1 JUMP JUMPDEST PUSH2 0x8A7 JUMP JUMPDEST PUSH1 0x40 MLOAD PUSH2 0x1CE SWAP2 SWAP1 PUSH2 0x1E4A JUMP JUMPDEST PUSH1 0x40 MLOAD DUP1 SWAP2 SUB SWAP1 RETURN JUMPDEST PUSH2 0x1F1 PUSH1 0x4 DUP1 CALLDATASIZE SUB DUP2 ADD SWAP1 PUSH2 0x1EC SWAP2 SWAP1 PUSH2 0x1C5E JUMP JUMPDEST PUSH2 0x8D6 JUMP JUMPDEST STOP JUMPDEST CALLVALUE DUP1 ISZERO PUSH2 0x1FF JUMPI PUSH1 0x0 DUP1 REVERT JUMPDEST POP PUSH2 0x21A PUSH1 0x4 DUP1 CALLDATASIZE SUB DUP2 ADD SWAP1 PUSH2 0x215 SWAP2 SWAP1 PUSH2 0x1C31 JUMP JUMPDEST PUSH2 0x980 JUMP JUMPDEST PUSH1 0x40 MLOAD PUSH2 0x227 SWAP2 SWAP1 PUSH2 0x1F40 JUMP JUMPDEST PUSH1 0x40 MLOAD DUP1 SWAP2 SUB SWAP1 RETURN JUMPDEST CALLVALUE DUP1 ISZERO PUSH2 0x23C JUMPI PUSH1 0x0 DUP1 REVERT JUMPDEST POP PUSH2 0x257 PUSH1 0x4 DUP1 CALLDATASIZE SUB DUP2 ADD SWAP1 PUSH2 0x252 SWAP2 SWAP1 PUSH2 0x1BC4 JUMP JUMPDEST PUSH2 0x9BF JUMP JUMPDEST PUSH1 0x40 MLOAD PUSH2 0x264 SWAP2 SWAP1 PUSH2 0x1F40 JUMP JUMPDEST PUSH1 0x40 MLOAD DUP1 SWAP2 SUB SWAP1 RETURN JUMPDEST CALLVALUE DUP1 ISZERO PUSH2 0x279 JUMPI PUSH1 0x0 DUP1 REVERT JUMPDEST POP PUSH2 0x282 PUSH2 0x9E0 JUMP JUMPDEST PUSH1 0x40 MLOAD PUSH2 0x28F SWAP2 SWAP1 PUSH2 0x1F40 JUMP JUMPDEST PUSH1 0x40 MLOAD DUP1 SWAP2 SUB SWAP1 RETURN JUMPDEST CALLVALUE DUP1 ISZERO PUSH2 0x2A4 JUMPI PUSH1 0x0 DUP1 REVERT JUMPDEST POP PUSH2 0x2BF PUSH1 0x4 DUP1 CALLDATASIZE SUB DUP2 ADD SWAP1 PUSH2 0x2BA SWAP2 SWAP1 PUSH2 0x1C8B JUMP JUMPDEST PUSH2 0x9E6 JUMP JUMPDEST PUSH1 0x40 MLOAD PUSH2 0x2CE SWAP4 SWAP3 SWAP2 SWAP1 PUSH2 0x1F5B JUMP JUMPDEST PUSH1 0x40 MLOAD DUP1 SWAP2 SUB SWAP1 RETURN JUMPDEST CALLVALUE DUP1 ISZERO PUSH2 0x2E3 JUMPI PUSH1 0x0 DUP1 REVERT JUMPDEST POP PUSH2 0x2FE PUSH1 0x4 DUP1 CALLDATASIZE SUB DUP2 ADD SWAP1 PUSH2 0x2F9 SWAP2 SWAP1 PUSH2 0x1C5E JUMP JUMPDEST PUSH2 0xA3D JUMP JUMPDEST PUSH1 0x40 MLOAD PUSH2 0x30C SWAP3 SWAP2 SWAP1 PUSH2 0x201B JUMP JUMPDEST PUSH1 0x40 MLOAD DUP1 SWAP2 SUB SWAP1 RETURN JUMPDEST CALLVALUE DUP1 ISZERO PUSH2 0x321 JUMPI PUSH1 0x0 DUP1 REVERT JUMPDEST POP PUSH2 0x33C PUSH1 0x4 DUP1 CALLDATASIZE SUB DUP2 ADD SWAP1 PUSH2 0x337 SWAP2 SWAP1 PUSH2 0x1BC4 JUMP JUMPDEST PUSH2 0xA6E JUMP JUMPDEST PUSH1 0x40 MLOAD PUSH2 0x349 SWAP2 SWAP1 PUSH2 0x1E4A JUMP JUMPDEST PUSH1 0x40 MLOAD DUP1 SWAP2 SUB SWAP1 RETURN JUMPDEST CALLVALUE DUP1 ISZERO PUSH2 0x35E JUMPI PUSH1 0x0 DUP1 REVERT JUMPDEST POP PUSH2 0x379 PUSH1 0x4 DUP1 CALLDATASIZE SUB DUP2 ADD SWAP1 PUSH2 0x374 SWAP2 SWAP1 PUSH2 0x1C5E JUMP JUMPDEST PUSH2 0xAC6 JUMP JUMPDEST PUSH1 0x40 MLOAD PUSH2 0x386 SWAP2 SWAP1 PUSH2 0x1F40 JUMP JUMPDEST PUSH1 0x40 MLOAD DUP1 SWAP2 SUB SWAP1 RETURN JUMPDEST CALLVALUE DUP1 ISZERO PUSH2 0x39B JUMPI PUSH1 0x0 DUP1 REVERT JUMPDEST POP PUSH2 0x3A4 PUSH2 0xADE JUMP JUMPDEST PUSH1 0x40 MLOAD PUSH2 0x3B1 SWAP2 SWAP1 PUSH2 0x1FC9 JUMP JUMPDEST PUSH1 0x40 MLOAD DUP1 SWAP2 SUB SWAP1 RETURN JUMPDEST CALLVALUE DUP1 ISZERO PUSH2 0x3C6 JUMPI PUSH1 0x0 DUP1 REVERT JUMPDEST POP PUSH2 0x3E1 PUSH1 0x4 DUP1 CALLDATASIZE SUB DUP2 ADD SWAP1 PUSH2 0x3DC SWAP2 SWAP1 PUSH2 0x1C31 JUMP JUMPDEST PUSH2 0xAF1 JUMP JUMPDEST STOP JUMPDEST CALLVALUE DUP1 ISZERO PUSH2 0x3EF JUMPI PUSH1 0x0 DUP1 REVERT JUMPDEST POP PUSH2 0x40A PUSH1 0x4 DUP1 CALLDATASIZE SUB DUP2 ADD SWAP1 PUSH2 0x405 SWAP2 SWAP1 PUSH2 0x1C31 JUMP JUMPDEST PUSH2 0xC42 JUMP JUMPDEST PUSH1 0x40 MLOAD PUSH2 0x417 SWAP2 SWAP1 PUSH2 0x1E2F JUMP JUMPDEST PUSH1 0x40 MLOAD DUP1 SWAP2 SUB SWAP1 RETURN JUMPDEST CALLVALUE DUP1 ISZERO PUSH2 0x42C JUMPI PUSH1 0x0 DUP1 REVERT JUMPDEST POP PUSH2 0x447 PUSH1 0x4 DUP1 CALLDATASIZE SUB DUP2 ADD SWAP1 PUSH2 0x442 SWAP2 SWAP1 PUSH2 0x1BF1 JUMP JUMPDEST PUSH2 0xC75 JUMP JUMPDEST PUSH1 0x40 MLOAD PUSH2 0x454 SWAP2 SWAP1 PUSH2 0x1F40 JUMP JUMPDEST PUSH1 0x40 MLOAD DUP1 SWAP2 SUB SWAP1 RETURN JUMPDEST PUSH1 0x0 DUP1 PUSH1 0x0 JUMPDEST PUSH1 0x1 DUP1 PUSH1 0x0 SWAP1 SLOAD SWAP1 PUSH2 0x100 EXP SWAP1 DIV PUSH1 0xFF AND PUSH2 0x47E SWAP2 SWAP1 PUSH2 0x20FB JUMP JUMPDEST PUSH1 0xFF AND DUP2 PUSH1 0xFF AND LT ISZERO PUSH2 0x4CE JUMPI CALLVALUE PUSH1 0x3 PUSH1 0x0 DUP4 PUSH1 0xFF AND PUSH1 0xFF AND DUP2 MSTORE PUSH1 0x20 ADD SWAP1 DUP2 MSTORE PUSH1 0x20 ADD PUSH1 0x0 KECCAK256 PUSH1 0x1 ADD SLOAD EQ ISZERO PUSH2 0x4BB JUMPI PUSH1 0x1 SWAP3 POP DUP1 SWAP2 POP PUSH2 0x4CE JUMP JUMPDEST DUP1 DUP1 PUSH2 0x4C6 SWAP1 PUSH2 0x2296 JUMP JUMPDEST SWAP2 POP POP PUSH2 0x463 JUMP JUMPDEST POP DUP2 PUSH2 0x50F JUMPI PUSH1 0x40 MLOAD PUSH32 0x8C379A000000000000000000000000000000000000000000000000000000000 DUP2 MSTORE PUSH1 0x4 ADD PUSH2 0x506 SWAP1 PUSH2 0x1E80 JUMP JUMPDEST PUSH1 0x40 MLOAD DUP1 SWAP2 SUB SWAP1 REVERT JUMPDEST PUSH2 0x51A DUP2 DUP6 DUP6 PUSH2 0xC9A JUMP JUMPDEST POP POP POP POP JUMP JUMPDEST PUSH1 0x0 DUP1 CALLER SWAP1 POP DUP1 EXTCODESIZE SWAP2 POP PUSH1 0x0 DUP3 PUSH4 0xFFFFFFFF AND GT ISZERO PUSH2 0x574 JUMPI PUSH1 0x40 MLOAD PUSH32 0x8C379A000000000000000000000000000000000000000000000000000000000 DUP2 MSTORE PUSH1 0x4 ADD PUSH2 0x56B SWAP1 PUSH2 0x1F00 JUMP JUMPDEST PUSH1 0x40 MLOAD DUP1 SWAP2 SUB SWAP1 REVERT JUMPDEST PUSH1 0x0 PUSH20 0xFFFFFFFFFFFFFFFFFFFFFFFFFFFFFFFFFFFFFFFF AND PUSH1 0x6 PUSH1 0x0 CALLER PUSH20 0xFFFFFFFFFFFFFFFFFFFFFFFFFFFFFFFFFFFFFFFF AND PUSH20 0xFFFFFFFFFFFFFFFFFFFFFFFFFFFFFFFFFFFFFFFF AND DUP2 MSTORE PUSH1 0x20 ADD SWAP1 DUP2 MSTORE PUSH1 0x20 ADD PUSH1 0x0 KECCAK256 PUSH1 0x1 ADD PUSH1 0x0 SWAP1 SLOAD SWAP1 PUSH2 0x100 EXP SWAP1 DIV PUSH20 0xFFFFFFFFFFFFFFFFFFFFFFFFFFFFFFFFFFFFFFFF AND PUSH20 0xFFFFFFFFFFFFFFFFFFFFFFFFFFFFFFFFFFFFFFFF AND EQ PUSH2 0x645 JUMPI PUSH1 0x40 MLOAD PUSH32 0x8C379A000000000000000000000000000000000000000000000000000000000 DUP2 MSTORE PUSH1 0x4 ADD PUSH2 0x63C SWAP1 PUSH2 0x1EA0 JUMP JUMPDEST PUSH1 0x40 MLOAD DUP1 SWAP2 SUB SWAP1 REVERT JUMPDEST PUSH8 0xDE0B6B3A7640000 CALLVALUE EQ PUSH2 0x68F JUMPI PUSH1 0x40 MLOAD PUSH32 0x8C379A000000000000000000000000000000000000000000000000000000000 DUP2 MSTORE PUSH1 0x4 ADD PUSH2 0x686 SWAP1 PUSH2 0x1EE0 JUMP JUMPDEST PUSH1 0x40 MLOAD DUP1 SWAP2 SUB SWAP1 REVERT JUMPDEST PUSH1 0x40 MLOAD DUP1 PUSH1 0x60 ADD PUSH1 0x40 MSTORE DUP1 PUSH1 0x0 SLOAD DUP2 MSTORE PUSH1 0x20 ADD CALLER PUSH20 0xFFFFFFFFFFFFFFFFFFFFFFFFFFFFFFFFFFFFFFFF AND DUP2 MSTORE PUSH1 0x20 ADD DUP5 DUP2 MSTORE POP PUSH1 0x6 PUSH1 0x0 CALLER PUSH20 0xFFFFFFFFFFFFFFFFFFFFFFFFFFFFFFFFFFFFFFFF AND PUSH20 0xFFFFFFFFFFFFFFFFFFFFFFFFFFFFFFFFFFFFFFFF AND DUP2 MSTORE PUSH1 0x20 ADD SWAP1 DUP2 MSTORE PUSH1 0x20 ADD PUSH1 0x0 KECCAK256 PUSH1 0x0 DUP3 ADD MLOAD DUP2 PUSH1 0x0 ADD SSTORE PUSH1 0x20 DUP3 ADD MLOAD DUP2 PUSH1 0x1 ADD PUSH1 0x0 PUSH2 0x100 EXP DUP2 SLOAD DUP2 PUSH20 0xFFFFFFFFFFFFFFFFFFFFFFFFFFFFFFFFFFFFFFFF MUL NOT AND SWAP1 DUP4 PUSH20 0xFFFFFFFFFFFFFFFFFFFFFFFFFFFFFFFFFFFFFFFF AND MUL OR SWAP1 SSTORE POP PUSH1 0x40 DUP3 ADD MLOAD DUP2 PUSH1 0x2 ADD SSTORE SWAP1 POP POP CALLER PUSH1 0x4 PUSH1 0x0 DUP1 SLOAD DUP2 MSTORE PUSH1 0x20 ADD SWAP1 DUP2 MSTORE PUSH1 0x20 ADD PUSH1 0x0 KECCAK256 PUSH1 0x0 PUSH2 0x100 EXP DUP2 SLOAD DUP2 PUSH20 0xFFFFFFFFFFFFFFFFFFFFFFFFFFFFFFFFFFFFFFFF MUL NOT AND SWAP1 DUP4 PUSH20 0xFFFFFFFFFFFFFFFFFFFFFFFFFFFFFFFFFFFFFFFF AND MUL OR SWAP1 SSTORE POP PUSH1 0x1 PUSH1 0x0 DUP1 DUP3 DUP3 SLOAD PUSH2 0x7C4 SWAP2 SWAP1 PUSH2 0x20A5 JUMP JUMPDEST SWAP3 POP POP DUP2 SWAP1 SSTORE POP PUSH1 0x1 PUSH1 0x5 PUSH1 0x0 DUP6 DUP2 MSTORE PUSH1 0x20 ADD SWAP1 DUP2 MSTORE PUSH1 0x20 ADD PUSH1 0x0 KECCAK256 PUSH1 0x0 DUP3 DUP3 SLOAD PUSH2 0x7EF SWAP2 SWAP1 PUSH2 0x20A5 JUMP JUMPDEST SWAP3 POP POP DUP2 SWAP1 SSTORE POP PUSH32 0x12888A3214FA3B6D599E2A7D3FF41E8AA7EF1295FE3BA5D428825DF6DA086885 PUSH1 0x1 PUSH1 0x0 SLOAD PUSH2 0x826 SWAP2 SWAP1 PUSH2 0x21BD JUMP JUMPDEST DUP5 PUSH1 0x5 PUSH1 0x0 DUP8 DUP2 MSTORE PUSH1 0x20 ADD SWAP1 DUP2 MSTORE PUSH1 0x20 ADD PUSH1 0x0 KECCAK256 SLOAD PUSH1 0x40 MLOAD PUSH2 0x84A SWAP4 SWAP3 SWAP2 SWAP1 PUSH2 0x1F92 JUMP JUMPDEST PUSH1 0x40 MLOAD DUP1 SWAP2 SUB SWAP1 LOG1 POP POP POP JUMP JUMPDEST PUSH1 0x2 SLOAD DUP2 JUMP JUMPDEST PUSH1 0x6 PUSH1 0x20 MSTORE DUP1 PUSH1 0x0 MSTORE PUSH1 0x40 PUSH1 0x0 KECCAK256 PUSH1 0x0 SWAP2 POP SWAP1 POP DUP1 PUSH1 0x0 ADD SLOAD SWAP1 DUP1 PUSH1 0x1 ADD PUSH1 0x0 SWAP1 SLOAD SWAP1 PUSH2 0x100 EXP SWAP1 DIV PUSH20 0xFFFFFFFFFFFFFFFFFFFFFFFFFFFFFFFFFFFFFFFF AND SWAP1 DUP1 PUSH1 0x2 ADD SLOAD SWAP1 POP DUP4 JUMP JUMPDEST PUSH1 0xA PUSH1 0x20 MSTORE DUP2 PUSH1 0x0 MSTORE PUSH1 0x40 PUSH1 0x0 KECCAK256 PUSH1 0x20 MSTORE DUP1 PUSH1 0x0 MSTORE PUSH1 0x40 PUSH1 0x0 KECCAK256 PUSH1 0x0 SWAP2 POP SWAP2 POP SWAP1 SLOAD SWAP1 PUSH2 0x100 EXP SWAP1 DIV PUSH1 0xFF AND DUP2 JUMP JUMPDEST PUSH1 0x0 PUSH20 0xFFFFFFFFFFFFFFFFFFFFFFFFFFFFFFFFFFFFFFFF AND PUSH1 0x6 PUSH1 0x0 CALLER PUSH20 0xFFFFFFFFFFFFFFFFFFFFFFFFFFFFFFFFFFFFFFFF AND PUSH20 0xFFFFFFFFFFFFFFFFFFFFFFFFFFFFFFFFFFFFFFFF AND DUP2 MSTORE PUSH1 0x20 ADD SWAP1 DUP2 MSTORE PUSH1 0x20 ADD PUSH1 0x0 KECCAK256 PUSH1 0x1 ADD PUSH1 0x0 SWAP1 SLOAD SWAP1 PUSH2 0x100 EXP SWAP1 DIV PUSH20 0xFFFFFFFFFFFFFFFFFFFFFFFFFFFFFFFFFFFFFFFF AND PUSH20 0xFFFFFFFFFFFFFFFFFFFFFFFFFFFFFFFFFFFFFFFF AND EQ ISZERO PUSH2 0x972 JUMPI PUSH1 0x0 DUP1 REVERT JUMPDEST PUSH2 0x97D DUP2 CALLER CALLVALUE PUSH2 0xC9A JUMP JUMPDEST POP JUMP JUMPDEST PUSH1 0x0 DUP1 PUSH2 0x997 PUSH1 0x2 DUP5 PUSH2 0x1B43 SWAP1 SWAP2 SWAP1 PUSH4 0xFFFFFFFF AND JUMP JUMPDEST EQ PUSH2 0x9B5 JUMPI PUSH2 0x9B0 PUSH1 0x2 DUP4 PUSH2 0x1B59 SWAP1 SWAP2 SWAP1 PUSH4 0xFFFFFFFF AND JUMP JUMPDEST PUSH2 0x9B8 JUMP JUMPDEST PUSH1 0x0 JUMPDEST SWAP1 POP SWAP2 SWAP1 POP JUMP JUMPDEST PUSH1 0x0 DUP2 PUSH20 0xFFFFFFFFFFFFFFFFFFFFFFFFFFFFFFFFFFFFFFFF AND BALANCE SWAP1 POP SWAP2 SWAP1 POP JUMP JUMPDEST PUSH1 0x0 SLOAD DUP2 JUMP JUMPDEST PUSH1 0x8 PUSH1 0x20 MSTORE DUP2 PUSH1 0x0 MSTORE PUSH1 0x40 PUSH1 0x0 KECCAK256 PUSH1 0x20 MSTORE DUP1 PUSH1 0x0 MSTORE PUSH1 0x40 PUSH1 0x0 KECCAK256 PUSH1 0x0 SWAP2 POP SWAP2 POP POP DUP1 PUSH1 0x0 ADD SLOAD SWAP1 DUP1 PUSH1 0x1 ADD PUSH1 0x0 SWAP1 SLOAD SWAP1 PUSH2 0x100 EXP SWAP1 DIV PUSH20 0xFFFFFFFFFFFFFFFFFFFFFFFFFFFFFFFFFFFFFFFF AND SWAP1 DUP1 PUSH1 0x2 ADD SLOAD SWAP1 POP DUP4 JUMP JUMPDEST PUSH1 0x3 PUSH1 0x20 MSTORE DUP1 PUSH1 0x0 MSTORE PUSH1 0x40 PUSH1 0x0 KECCAK256 PUSH1 0x0 SWAP2 POP SWAP1 POP DUP1 PUSH1 0x0 ADD PUSH1 0x0 SWAP1 SLOAD SWAP1 PUSH2 0x100 EXP SWAP1 DIV PUSH1 0xFF AND SWAP1 DUP1 PUSH1 0x1 ADD SLOAD SWAP1 POP DUP3 JUMP JUMPDEST PUSH1 0x0 PUSH1 0x1 DUP1 SLOAD SWAP1 PUSH2 0x100 EXP SWAP1 DIV PUSH20 0xFFFFFFFFFFFFFFFFFFFFFFFFFFFFFFFFFFFFFFFF AND PUSH20 0xFFFFFFFFFFFFFFFFFFFFFFFFFFFFFFFFFFFFFFFF AND DUP3 PUSH20 0xFFFFFFFFFFFFFFFFFFFFFFFFFFFFFFFFFFFFFFFF AND EQ SWAP1 POP SWAP2 SWAP1 POP JUMP JUMPDEST PUSH1 0x7 PUSH1 0x20 MSTORE DUP1 PUSH1 0x0 MSTORE PUSH1 0x40 PUSH1 0x0 KECCAK256 PUSH1 0x0 SWAP2 POP SWAP1 POP SLOAD DUP2 JUMP JUMPDEST PUSH1 0x1 PUSH1 0x0 SWAP1 SLOAD SWAP1 PUSH2 0x100 EXP SWAP1 DIV PUSH1 0xFF AND DUP2 JUMP JUMPDEST PUSH2 0xAFA CALLER PUSH2 0xA6E JUMP JUMPDEST PUSH2 0xB39 JUMPI PUSH1 0x40 MLOAD PUSH32 0x8C379A000000000000000000000000000000000000000000000000000000000 DUP2 MSTORE PUSH1 0x4 ADD PUSH2 0xB30 SWAP1 PUSH2 0x1F20 JUMP JUMPDEST PUSH1 0x40 MLOAD DUP1 SWAP2 SUB SWAP1 REVERT JUMPDEST PUSH1 0x40 MLOAD DUP1 PUSH1 0x40 ADD PUSH1 0x40 MSTORE DUP1 PUSH1 0x1 PUSH1 0x0 SWAP1 SLOAD SWAP1 PUSH2 0x100 EXP SWAP1 DIV PUSH1 0xFF AND PUSH1 0xFF AND DUP2 MSTORE PUSH1 0x20 ADD DUP3 DUP2 MSTORE POP PUSH1 0x3 PUSH1 0x0 PUSH1 0x1 PUSH1 0x0 SWAP1 SLOAD SWAP1 PUSH2 0x100 EXP SWAP1 DIV PUSH1 0xFF AND PUSH1 0xFF AND PUSH1 0xFF AND DUP2 MSTORE PUSH1 0x20 ADD SWAP1 DUP2 MSTORE PUSH1 0x20 ADD PUSH1 0x0 KECCAK256 PUSH1 0x0 DUP3 ADD MLOAD DUP2 PUSH1 0x0 ADD PUSH1 0x0 PUSH2 0x100 EXP DUP2 SLOAD DUP2 PUSH1 0xFF MUL NOT AND SWAP1 DUP4 PUSH1 0xFF AND MUL OR SWAP1 SSTORE POP PUSH1 0x20 DUP3 ADD MLOAD DUP2 PUSH1 0x1 ADD SSTORE SWAP1 POP POP PUSH1 0x1 DUP1 PUSH1 0x0 DUP3 DUP3 DUP3 SWAP1 SLOAD SWAP1 PUSH2 0x100 EXP SWAP1 DIV PUSH1 0xFF AND PUSH2 0xBD4 SWAP2 SWAP1 PUSH2 0x20FB JUMP JUMPDEST SWAP3 POP PUSH2 0x100 EXP DUP2 SLOAD DUP2 PUSH1 0xFF MUL NOT AND SWAP1 DUP4 PUSH1 0xFF AND MUL OR SWAP1 SSTORE POP PUSH32 0xCF1ED532D6B83B4290F2F407B156B17826F49752E7A8FF360F502C307E055663 PUSH1 0x1 DUP1 PUSH1 0x0 SWAP1 SLOAD SWAP1 PUSH2 0x100 EXP SWAP1 DIV PUSH1 0xFF AND PUSH2 0xC28 SWAP2 SWAP1 PUSH2 0x21F1 JUMP JUMPDEST DUP3 PUSH1 0x40 MLOAD PUSH2 0xC37 SWAP3 SWAP2 SWAP1 PUSH2 0x201B JUMP JUMPDEST PUSH1 0x40 MLOAD DUP1 SWAP2 SUB SWAP1 LOG1 POP JUMP JUMPDEST PUSH1 0x4 PUSH1 0x20 MSTORE DUP1 PUSH1 0x0 MSTORE PUSH1 0x40 PUSH1 0x0 KECCAK256 PUSH1 0x0 SWAP2 POP SLOAD SWAP1 PUSH2 0x100 EXP SWAP1 DIV PUSH20 0xFFFFFFFFFFFFFFFFFFFFFFFFFFFFFFFFFFFFFFFF AND DUP2 JUMP JUMPDEST PUSH1 0x9 PUSH1 0x20 MSTORE DUP2 PUSH1 0x0 MSTORE PUSH1 0x40 PUSH1 0x0 KECCAK256 PUSH1 0x20 MSTORE DUP1 PUSH1 0x0 MSTORE PUSH1 0x40 PUSH1 0x0 KECCAK256 PUSH1 0x0 SWAP2 POP SWAP2 POP POP SLOAD DUP2 JUMP JUMPDEST PUSH1 0x3 PUSH1 0x0 DUP5 PUSH1 0xFF AND PUSH1 0xFF AND DUP2 MSTORE PUSH1 0x20 ADD SWAP1 DUP2 MSTORE PUSH1 0x20 ADD PUSH1 0x0 KECCAK256 PUSH1 0x1 ADD SLOAD DUP2 LT ISZERO PUSH2 0xCF9 JUMPI PUSH1 0x40 MLOAD PUSH32 0x8C379A000000000000000000000000000000000000000000000000000000000 DUP2 MSTORE PUSH1 0x4 ADD PUSH2 0xCF0 SWAP1 PUSH2 0x1EC0 JUMP JUMPDEST PUSH1 0x40 MLOAD DUP1 SWAP2 SUB SWAP1 REVERT JUMPDEST PUSH1 0x6 PUSH1 0x0 DUP4 PUSH20 0xFFFFFFFFFFFFFFFFFFFFFFFFFFFFFFFFFFFFFFFF AND PUSH20 0xFFFFFFFFFFFFFFFFFFFFFFFFFFFFFFFFFFFFFFFF AND DUP2 MSTORE PUSH1 0x20 ADD SWAP1 DUP2 MSTORE PUSH1 0x20 ADD PUSH1 0x0 KECCAK256 PUSH1 0x8 PUSH1 0x0 DUP6 PUSH1 0xFF AND PUSH1 0xFF AND DUP2 MSTORE PUSH1 0x20 ADD SWAP1 DUP2 MSTORE PUSH1 0x20 ADD PUSH1 0x0 KECCAK256 PUSH1 0x0 PUSH1 0x7 PUSH1 0x0 DUP8 PUSH1 0xFF AND PUSH1 0xFF AND DUP2 MSTORE PUSH1 0x20 ADD SWAP1 DUP2 MSTORE PUSH1 0x20 ADD PUSH1 0x0 KECCAK256 SLOAD DUP2 MSTORE PUSH1 0x20 ADD SWAP1 DUP2 MSTORE PUSH1 0x20 ADD PUSH1 0x0 KECCAK256 PUSH1 0x0 DUP3 ADD SLOAD DUP2 PUSH1 0x0 ADD SSTORE PUSH1 0x1 DUP3 ADD PUSH1 0x0 SWAP1 SLOAD SWAP1 PUSH2 0x100 EXP SWAP1 DIV PUSH20 0xFFFFFFFFFFFFFFFFFFFFFFFFFFFFFFFFFFFFFFFF AND DUP2 PUSH1 0x1 ADD PUSH1 0x0 PUSH2 0x100 EXP DUP2 SLOAD DUP2 PUSH20 0xFFFFFFFFFFFFFFFFFFFFFFFFFFFFFFFFFFFFFFFF MUL NOT AND SWAP1 DUP4 PUSH20 0xFFFFFFFFFFFFFFFFFFFFFFFFFFFFFFFFFFFFFFFF AND MUL OR SWAP1 SSTORE POP PUSH1 0x2 DUP3 ADD SLOAD DUP2 PUSH1 0x2 ADD SSTORE SWAP1 POP POP PUSH1 0x1 PUSH1 0xA PUSH1 0x0 DUP5 PUSH20 0xFFFFFFFFFFFFFFFFFFFFFFFFFFFFFFFFFFFFFFFF AND PUSH20 0xFFFFFFFFFFFFFFFFFFFFFFFFFFFFFFFFFFFFFFFF AND DUP2 MSTORE PUSH1 0x20 ADD SWAP1 DUP2 MSTORE PUSH1 0x20 ADD PUSH1 0x0 KECCAK256 PUSH1 0x0 DUP6 PUSH1 0xFF AND PUSH1 0xFF AND DUP2 MSTORE PUSH1 0x20 ADD SWAP1 DUP2 MSTORE PUSH1 0x20 ADD PUSH1 0x0 KECCAK256 PUSH1 0x0 PUSH2 0x100 EXP DUP2 SLOAD DUP2 PUSH1 0xFF MUL NOT AND SWAP1 DUP4 ISZERO ISZERO MUL OR SWAP1 SSTORE POP PUSH1 0x1 PUSH1 0x7 PUSH1 0x0 DUP6 PUSH1 0xFF AND PUSH1 0xFF AND DUP2 MSTORE PUSH1 0x20 ADD SWAP1 DUP2 MSTORE PUSH1 0x20 ADD PUSH1 0x0 KECCAK256 PUSH1 0x0 DUP3 DUP3 SLOAD PUSH2 0xE92 SWAP2 SWAP1 PUSH2 0x20A5 JUMP JUMPDEST SWAP3 POP POP DUP2 SWAP1 SSTORE POP PUSH1 0x3 PUSH1 0x7 PUSH1 0x0 DUP6 PUSH1 0xFF AND PUSH1 0xFF AND DUP2 MSTORE PUSH1 0x20 ADD SWAP1 DUP2 MSTORE PUSH1 0x20 ADD PUSH1 0x0 KECCAK256 SLOAD LT PUSH2 0x1B3E JUMPI PUSH1 0x0 PUSH2 0xEDE PUSH1 0x7 PUSH1 0x0 DUP7 PUSH1 0xFF AND PUSH1 0xFF AND DUP2 MSTORE PUSH1 0x20 ADD SWAP1 DUP2 MSTORE PUSH1 0x20 ADD PUSH1 0x0 KECCAK256 SLOAD PUSH2 0x980 JUMP JUMPDEST SWAP1 POP JUMPDEST PUSH1 0x0 DUP2 EQ PUSH2 0x1B3C JUMPI PUSH1 0x0 PUSH1 0x8 PUSH1 0x0 DUP7 PUSH1 0xFF AND PUSH1 0xFF AND DUP2 MSTORE PUSH1 0x20 ADD SWAP1 DUP2 MSTORE PUSH1 0x20 ADD PUSH1 0x0 KECCAK256 PUSH1 0x0 PUSH1 0x1 DUP5 PUSH2 0xF13 SWAP2 SWAP1 PUSH2 0x21BD JUMP JUMPDEST DUP2 MSTORE PUSH1 0x20 ADD SWAP1 DUP2 MSTORE PUSH1 0x20 ADD PUSH1 0x0 KECCAK256 PUSH1 0x1 ADD PUSH1 0x0 SWAP1 SLOAD SWAP1 PUSH2 0x100 EXP SWAP1 DIV PUSH20 0xFFFFFFFFFFFFFFFFFFFFFFFFFFFFFFFFFFFFFFFF AND SWAP1 POP PUSH1 0x1 PUSH1 0x9 PUSH1 0x0 DUP4 PUSH20 0xFFFFFFFFFFFFFFFFFFFFFFFFFFFFFFFFFFFFFFFF AND PUSH20 0xFFFFFFFFFFFFFFFFFFFFFFFFFFFFFFFFFFFFFFFF AND DUP2 MSTORE PUSH1 0x20 ADD SWAP1 DUP2 MSTORE PUSH1 0x20 ADD PUSH1 0x0 KECCAK256 PUSH1 0x0 DUP8 PUSH1 0xFF AND PUSH1 0xFF AND DUP2 MSTORE PUSH1 0x20 ADD SWAP1 DUP2 MSTORE PUSH1 0x20 ADD PUSH1 0x0 KECCAK256 SLOAD GT ISZERO DUP1 PUSH2 0x1019 JUMPI POP PUSH1 0xA PUSH1 0x0 DUP3 PUSH20 0xFFFFFFFFFFFFFFFFFFFFFFFFFFFFFFFFFFFFFFFF AND PUSH20 0xFFFFFFFFFFFFFFFFFFFFFFFFFFFFFFFFFFFFFFFF AND DUP2 MSTORE PUSH1 0x20 ADD SWAP1 DUP2 MSTORE PUSH1 0x20 ADD PUSH1 0x0 KECCAK256 PUSH1 0x0 PUSH1 0x1 DUP8 PUSH2 0xFF6 SWAP2 SWAP1 PUSH2 0x20FB JUMP JUMPDEST PUSH1 0xFF AND PUSH1 0xFF AND DUP2 MSTORE PUSH1 0x20 ADD SWAP1 DUP2 MSTORE PUSH1 0x20 ADD PUSH1 0x0 KECCAK256 PUSH1 0x0 SWAP1 SLOAD SWAP1 PUSH2 0x100 EXP SWAP1 DIV PUSH1 0xFF AND JUMPDEST ISZERO PUSH2 0x1B2B JUMPI PUSH1 0x0 DUP2 PUSH20 0xFFFFFFFFFFFFFFFFFFFFFFFFFFFFFFFFFFFFFFFF AND PUSH2 0x107A PUSH1 0x64 PUSH2 0x106C PUSH1 0x4A PUSH1 0x3 PUSH1 0x0 DUP13 PUSH1 0xFF AND PUSH1 0xFF AND DUP2 MSTORE PUSH1 0x20 ADD SWAP1 DUP2 MSTORE PUSH1 0x20 ADD PUSH1 0x0 KECCAK256 PUSH1 0x1 ADD SLOAD PUSH2 0x1B6F SWAP1 SWAP2 SWAP1 PUSH4 0xFFFFFFFF AND JUMP JUMPDEST PUSH2 0x1B59 SWAP1 SWAP2 SWAP1 PUSH4 0xFFFFFFFF AND JUMP JUMPDEST PUSH1 0x40 MLOAD PUSH2 0x1086 SWAP1 PUSH2 0x1E1A JUMP JUMPDEST PUSH1 0x0 PUSH1 0x40 MLOAD DUP1 DUP4 SUB DUP2 DUP6 DUP8 GAS CALL SWAP3 POP POP POP RETURNDATASIZE DUP1 PUSH1 0x0 DUP2 EQ PUSH2 0x10C3 JUMPI PUSH1 0x40 MLOAD SWAP2 POP PUSH1 0x1F NOT PUSH1 0x3F RETURNDATASIZE ADD AND DUP3 ADD PUSH1 0x40 MSTORE RETURNDATASIZE DUP3 MSTORE RETURNDATASIZE PUSH1 0x0 PUSH1 0x20 DUP5 ADD RETURNDATACOPY PUSH2 0x10C8 JUMP JUMPDEST PUSH1 0x60 SWAP2 POP JUMPDEST POP POP SWAP1 POP PUSH1 0x1 PUSH1 0x9 PUSH1 0x0 DUP5 PUSH20 0xFFFFFFFFFFFFFFFFFFFFFFFFFFFFFFFFFFFFFFFF AND PUSH20 0xFFFFFFFFFFFFFFFFFFFFFFFFFFFFFFFFFFFFFFFF AND DUP2 MSTORE PUSH1 0x20 ADD SWAP1 DUP2 MSTORE PUSH1 0x20 ADD PUSH1 0x0 KECCAK256 PUSH1 0x0 DUP9 PUSH1 0xFF AND PUSH1 0xFF AND DUP2 MSTORE PUSH1 0x20 ADD SWAP1 DUP2 MSTORE PUSH1 0x20 ADD PUSH1 0x0 KECCAK256 PUSH1 0x0 DUP3 DUP3 SLOAD PUSH2 0x1133 SWAP2 SWAP1 PUSH2 0x20A5 JUMP JUMPDEST SWAP3 POP POP DUP2 SWAP1 SSTORE POP PUSH32 0xD9FF1D189BD8473F87A70327222795B92238D06F3EDF14FA23403AC2153C10A9 PUSH1 0x3 PUSH1 0x0 DUP9 PUSH1 0xFF AND PUSH1 0xFF AND DUP2 MSTORE PUSH1 0x20 ADD SWAP1 DUP2 MSTORE PUSH1 0x20 ADD PUSH1 0x0 KECCAK256 PUSH1 0x0 ADD PUSH1 0x0 SWAP1 SLOAD SWAP1 PUSH2 0x100 EXP SWAP1 DIV PUSH1 0xFF AND DUP4 DUP4 PUSH1 0x40 MLOAD PUSH2 0x1196 SWAP4 SWAP3 SWAP2 SWAP1 PUSH2 0x1FE4 JUMP JUMPDEST PUSH1 0x40 MLOAD DUP1 SWAP2 SUB SWAP1 LOG1 PUSH1 0x0 PUSH1 0x8 PUSH1 0x0 DUP9 PUSH1 0xFF AND PUSH1 0xFF AND DUP2 MSTORE PUSH1 0x20 ADD SWAP1 DUP2 MSTORE PUSH1 0x20 ADD PUSH1 0x0 KECCAK256 PUSH1 0x0 PUSH1 0x1 DUP7 PUSH2 0x11C8 SWAP2 SWAP1 PUSH2 0x21BD JUMP JUMPDEST DUP2 MSTORE PUSH1 0x20 ADD SWAP1 DUP2 MSTORE PUSH1 0x20 ADD PUSH1 0x0 KECCAK256 PUSH1 0x0 ADD SLOAD SWAP1 POP PUSH1 0x0 PUSH1 0x8 PUSH1 0x0 DUP10 PUSH1 0xFF AND PUSH1 0xFF AND DUP2 MSTORE PUSH1 0x20 ADD SWAP1 DUP2 MSTORE PUSH1 0x20 ADD PUSH1 0x0 KECCAK256 PUSH1 0x0 PUSH1 0x1 DUP8 PUSH2 0x1206 SWAP2 SWAP1 PUSH2 0x21BD JUMP JUMPDEST DUP2 MSTORE PUSH1 0x20 ADD SWAP1 DUP2 MSTORE PUSH1 0x20 ADD PUSH1 0x0 KECCAK256 PUSH1 0x2 ADD SLOAD SWAP1 POP PUSH1 0x0 PUSH2 0x125F PUSH1 0x64 PUSH2 0x1251 PUSH1 0xA PUSH1 0x3 PUSH1 0x0 DUP15 PUSH1 0xFF AND PUSH1 0xFF AND DUP2 MSTORE PUSH1 0x20 ADD SWAP1 DUP2 MSTORE PUSH1 0x20 ADD PUSH1 0x0 KECCAK256 PUSH1 0x1 ADD SLOAD PUSH2 0x1B6F SWAP1 SWAP2 SWAP1 PUSH4 0xFFFFFFFF AND JUMP JUMPDEST PUSH2 0x1B59 SWAP1 SWAP2 SWAP1 PUSH4 0xFFFFFFFF AND JUMP JUMPDEST SWAP1 POP PUSH1 0x4 PUSH1 0x0 DUP4 DUP2 MSTORE PUSH1 0x20 ADD SWAP1 DUP2 MSTORE PUSH1 0x20 ADD PUSH1 0x0 KECCAK256 PUSH1 0x0 SWAP1 SLOAD SWAP1 PUSH2 0x100 EXP SWAP1 DIV PUSH20 0xFFFFFFFFFFFFFFFFFFFFFFFFFFFFFFFFFFFFFFFF AND PUSH20 0xFFFFFFFFFFFFFFFFFFFFFFFFFFFFFFFFFFFFFFFF AND DUP2 PUSH1 0x40 MLOAD PUSH2 0x12B8 SWAP1 PUSH2 0x1E1A JUMP JUMPDEST PUSH1 0x0 PUSH1 0x40 MLOAD DUP1 DUP4 SUB DUP2 DUP6 DUP8 GAS CALL SWAP3 POP POP POP RETURNDATASIZE DUP1 PUSH1 0x0 DUP2 EQ PUSH2 0x12F5 JUMPI PUSH1 0x40 MLOAD SWAP2 POP PUSH1 0x1F NOT PUSH1 0x3F RETURNDATASIZE ADD AND DUP3 ADD PUSH1 0x40 MSTORE RETURNDATASIZE DUP3 MSTORE RETURNDATASIZE PUSH1 0x0 PUSH1 0x20 DUP5 ADD RETURNDATACOPY PUSH2 0x12FA JUMP JUMPDEST PUSH1 0x60 SWAP2 POP JUMPDEST POP POP DUP1 SWAP5 POP POP DUP4 ISZERO PUSH2 0x136D JUMPI PUSH32 0xAFE90BC52FC3DD02B2550B825FC68E93B4BFBCB8165BBACDA6CD14B2BAD5BC02 PUSH1 0x3 PUSH1 0x0 DUP12 PUSH1 0xFF AND PUSH1 0xFF AND DUP2 MSTORE PUSH1 0x20 ADD SWAP1 DUP2 MSTORE PUSH1 0x20 ADD PUSH1 0x0 KECCAK256 PUSH1 0x0 ADD PUSH1 0x0 SWAP1 SLOAD SWAP1 PUSH2 0x100 EXP SWAP1 DIV PUSH1 0xFF AND DUP5 DUP5 DUP5 PUSH1 0x40 MLOAD PUSH2 0x1364 SWAP5 SWAP4 SWAP3 SWAP2 SWAP1 PUSH2 0x2044 JUMP JUMPDEST PUSH1 0x40 MLOAD DUP1 SWAP2 SUB SWAP1 LOG1 JUMPDEST PUSH2 0x13B0 PUSH1 0x64 PUSH2 0x13A2 PUSH1 0x6 PUSH1 0x3 PUSH1 0x0 DUP15 PUSH1 0xFF AND PUSH1 0xFF AND DUP2 MSTORE PUSH1 0x20 ADD SWAP1 DUP2 MSTORE PUSH1 0x20 ADD PUSH1 0x0 KECCAK256 PUSH1 0x1 ADD SLOAD PUSH2 0x1B6F SWAP1 SWAP2 SWAP1 PUSH4 0xFFFFFFFF AND JUMP JUMPDEST PUSH2 0x1B59 SWAP1 SWAP2 SWAP1 PUSH4 0xFFFFFFFF AND JUMP JUMPDEST SWAP1 POP PUSH1 0x6 PUSH1 0x0 PUSH1 0x4 PUSH1 0x0 DUP6 DUP2 MSTORE PUSH1 0x20 ADD SWAP1 DUP2 MSTORE PUSH1 0x20 ADD PUSH1 0x0 KECCAK256 PUSH1 0x0 SWAP1 SLOAD SWAP1 PUSH2 0x100 EXP SWAP1 DIV PUSH20 0xFFFFFFFFFFFFFFFFFFFFFFFFFFFFFFFFFFFFFFFF AND PUSH20 0xFFFFFFFFFFFFFFFFFFFFFFFFFFFFFFFFFFFFFFFF AND PUSH20 0xFFFFFFFFFFFFFFFFFFFFFFFFFFFFFFFFFFFFFFFF AND DUP2 MSTORE PUSH1 0x20 ADD SWAP1 DUP2 MSTORE PUSH1 0x20 ADD PUSH1 0x0 KECCAK256 PUSH1 0x1 ADD PUSH1 0x0 SWAP1 SLOAD SWAP1 PUSH2 0x100 EXP SWAP1 DIV PUSH20 0xFFFFFFFFFFFFFFFFFFFFFFFFFFFFFFFFFFFFFFFF AND PUSH20 0xFFFFFFFFFFFFFFFFFFFFFFFFFFFFFFFFFFFFFFFF AND DUP2 PUSH1 0x40 MLOAD PUSH2 0x146B SWAP1 PUSH2 0x1E1A JUMP JUMPDEST PUSH1 0x0 PUSH1 0x40 MLOAD DUP1 DUP4 SUB DUP2 DUP6 DUP8 GAS CALL SWAP3 POP POP POP RETURNDATASIZE DUP1 PUSH1 0x0 DUP2 EQ PUSH2 0x14A8 JUMPI PUSH1 0x40 MLOAD SWAP2 POP PUSH1 0x1F NOT PUSH1 0x3F RETURNDATASIZE ADD AND DUP3 ADD PUSH1 0x40 MSTORE RETURNDATASIZE DUP3 MSTORE RETURNDATASIZE PUSH1 0x0 PUSH1 0x20 DUP5 ADD RETURNDATACOPY PUSH2 0x14AD JUMP JUMPDEST PUSH1 0x60 SWAP2 POP JUMPDEST POP POP DUP1 SWAP5 POP POP DUP4 ISZERO PUSH2 0x1595 JUMPI PUSH32 0xAFE90BC52FC3DD02B2550B825FC68E93B4BFBCB8165BBACDA6CD14B2BAD5BC02 PUSH1 0x3 PUSH1 0x0 DUP12 PUSH1 0xFF AND PUSH1 0xFF AND DUP2 MSTORE PUSH1 0x20 ADD SWAP1 DUP2 MSTORE PUSH1 0x20 ADD PUSH1 0x0 KECCAK256 PUSH1 0x0 ADD PUSH1 0x0 SWAP1 SLOAD SWAP1 PUSH2 0x100 EXP SWAP1 DIV PUSH1 0xFF AND DUP4 PUSH1 0x6 PUSH1 0x0 PUSH1 0x4 PUSH1 0x0 DUP9 DUP2 MSTORE PUSH1 0x20 ADD SWAP1 DUP2 MSTORE PUSH1 0x20 ADD PUSH1 0x0 KECCAK256 PUSH1 0x0 SWAP1 SLOAD SWAP1 PUSH2 0x100 EXP SWAP1 DIV PUSH20 0xFFFFFFFFFFFFFFFFFFFFFFFFFFFFFFFFFFFFFFFF AND PUSH20 0xFFFFFFFFFFFFFFFFFFFFFFFFFFFFFFFFFFFFFFFF AND PUSH20 0xFFFFFFFFFFFFFFFFFFFFFFFFFFFFFFFFFFFFFFFF AND DUP2 MSTORE PUSH1 0x20 ADD SWAP1 DUP2 MSTORE PUSH1 0x20 ADD PUSH1 0x0 KECCAK256 PUSH1 0x0 ADD SLOAD DUP5 PUSH1 0x40 MLOAD PUSH2 0x158C SWAP5 SWAP4 SWAP3 SWAP2 SWAP1 PUSH2 0x2044 JUMP JUMPDEST PUSH1 0x40 MLOAD DUP1 SWAP2 SUB SWAP1 LOG1 JUMPDEST PUSH2 0x15D8 PUSH1 0x64 PUSH2 0x15CA PUSH1 0x4 PUSH1 0x3 PUSH1 0x0 DUP15 PUSH1 0xFF AND PUSH1 0xFF AND DUP2 MSTORE PUSH1 0x20 ADD SWAP1 DUP2 MSTORE PUSH1 0x20 ADD PUSH1 0x0 KECCAK256 PUSH1 0x1 ADD SLOAD PUSH2 0x1B6F SWAP1 SWAP2 SWAP1 PUSH4 0xFFFFFFFF AND JUMP JUMPDEST PUSH2 0x1B59 SWAP1 SWAP2 SWAP1 PUSH4 0xFFFFFFFF AND JUMP JUMPDEST SWAP1 POP PUSH1 0x6 PUSH1 0x0 PUSH1 0x4 PUSH1 0x0 PUSH1 0x6 PUSH1 0x0 PUSH1 0x4 PUSH1 0x0 DUP10 DUP2 MSTORE PUSH1 0x20 ADD SWAP1 DUP2 MSTORE PUSH1 0x20 ADD PUSH1 0x0 KECCAK256 PUSH1 0x0 SWAP1 SLOAD SWAP1 PUSH2 0x100 EXP SWAP1 DIV PUSH20 0xFFFFFFFFFFFFFFFFFFFFFFFFFFFFFFFFFFFFFFFF AND PUSH20 0xFFFFFFFFFFFFFFFFFFFFFFFFFFFFFFFFFFFFFFFF AND PUSH20 0xFFFFFFFFFFFFFFFFFFFFFFFFFFFFFFFFFFFFFFFF AND DUP2 MSTORE PUSH1 0x20 ADD SWAP1 DUP2 MSTORE PUSH1 0x20 ADD PUSH1 0x0 KECCAK256 PUSH1 0x0 ADD SLOAD DUP2 MSTORE PUSH1 0x20 ADD SWAP1 DUP2 MSTORE PUSH1 0x20 ADD PUSH1 0x0 KECCAK256 PUSH1 0x0 SWAP1 SLOAD SWAP1 PUSH2 0x100 EXP SWAP1 DIV PUSH20 0xFFFFFFFFFFFFFFFFFFFFFFFFFFFFFFFFFFFFFFFF AND PUSH20 0xFFFFFFFFFFFFFFFFFFFFFFFFFFFFFFFFFFFFFFFF AND PUSH20 0xFFFFFFFFFFFFFFFFFFFFFFFFFFFFFFFFFFFFFFFF AND DUP2 MSTORE PUSH1 0x20 ADD SWAP1 DUP2 MSTORE PUSH1 0x20 ADD PUSH1 0x0 KECCAK256 PUSH1 0x1 ADD PUSH1 0x0 SWAP1 SLOAD SWAP1 PUSH2 0x100 EXP SWAP1 DIV PUSH20 0xFFFFFFFFFFFFFFFFFFFFFFFFFFFFFFFFFFFFFFFF AND PUSH20 0xFFFFFFFFFFFFFFFFFFFFFFFFFFFFFFFFFFFFFFFF AND DUP2 PUSH1 0x40 MLOAD PUSH2 0x1708 SWAP1 PUSH2 0x1E1A JUMP JUMPDEST PUSH1 0x0 PUSH1 0x40 MLOAD DUP1 DUP4 SUB DUP2 DUP6 DUP8 GAS CALL SWAP3 POP POP POP RETURNDATASIZE DUP1 PUSH1 0x0 DUP2 EQ PUSH2 0x1745 JUMPI PUSH1 0x40 MLOAD SWAP2 POP PUSH1 0x1F NOT PUSH1 0x3F RETURNDATASIZE ADD AND DUP3 ADD PUSH1 0x40 MSTORE RETURNDATASIZE DUP3 MSTORE RETURNDATASIZE PUSH1 0x0 PUSH1 0x20 DUP5 ADD RETURNDATACOPY PUSH2 0x174A JUMP JUMPDEST PUSH1 0x60 SWAP2 POP JUMPDEST POP POP DUP1 SWAP5 POP POP DUP4 ISZERO PUSH2 0x191C JUMPI PUSH32 0xAFE90BC52FC3DD02B2550B825FC68E93B4BFBCB8165BBACDA6CD14B2BAD5BC02 PUSH1 0x3 PUSH1 0x0 DUP12 PUSH1 0xFF AND PUSH1 0xFF AND DUP2 MSTORE PUSH1 0x20 ADD SWAP1 DUP2 MSTORE PUSH1 0x20 ADD PUSH1 0x0 KECCAK256 PUSH1 0x0 ADD PUSH1 0x0 SWAP1 SLOAD SWAP1 PUSH2 0x100 EXP SWAP1 DIV PUSH1 0xFF AND PUSH1 0x6 PUSH1 0x0 PUSH1 0x4 PUSH1 0x0 DUP8 DUP2 MSTORE PUSH1 0x20 ADD SWAP1 DUP2 MSTORE PUSH1 0x20 ADD PUSH1 0x0 KECCAK256 PUSH1 0x0 SWAP1 SLOAD SWAP1 PUSH2 0x100 EXP SWAP1 DIV PUSH20 0xFFFFFFFFFFFFFFFFFFFFFFFFFFFFFFFFFFFFFFFF AND PUSH20 0xFFFFFFFFFFFFFFFFFFFFFFFFFFFFFFFFFFFFFFFF AND PUSH20 0xFFFFFFFFFFFFFFFFFFFFFFFFFFFFFFFFFFFFFFFF AND DUP2 MSTORE PUSH1 0x20 ADD SWAP1 DUP2 MSTORE PUSH1 0x20 ADD PUSH1 0x0 KECCAK256 PUSH1 0x0 ADD SLOAD PUSH1 0x6 PUSH1 0x0 PUSH1 0x4 PUSH1 0x0 PUSH1 0x6 PUSH1 0x0 PUSH1 0x4 PUSH1 0x0 DUP13 DUP2 MSTORE PUSH1 0x20 ADD SWAP1 DUP2 MSTORE PUSH1 0x20 ADD PUSH1 0x0 KECCAK256 PUSH1 0x0 SWAP1 SLOAD SWAP1 PUSH2 0x100 EXP SWAP1 DIV PUSH20 0xFFFFFFFFFFFFFFFFFFFFFFFFFFFFFFFFFFFFFFFF AND PUSH20 0xFFFFFFFFFFFFFFFFFFFFFFFFFFFFFFFFFFFFFFFF AND PUSH20 0xFFFFFFFFFFFFFFFFFFFFFFFFFFFFFFFFFFFFFFFF AND DUP2 MSTORE PUSH1 0x20 ADD SWAP1 DUP2 MSTORE PUSH1 0x20 ADD PUSH1 0x0 KECCAK256 PUSH1 0x0 ADD SLOAD DUP2 MSTORE PUSH1 0x20 ADD SWAP1 DUP2 MSTORE PUSH1 0x20 ADD PUSH1 0x0 KECCAK256 PUSH1 0x0 SWAP1 SLOAD SWAP1 PUSH2 0x100 EXP SWAP1 DIV PUSH20 0xFFFFFFFFFFFFFFFFFFFFFFFFFFFFFFFFFFFFFFFF AND PUSH20 0xFFFFFFFFFFFFFFFFFFFFFFFFFFFFFFFFFFFFFFFF AND PUSH20 0xFFFFFFFFFFFFFFFFFFFFFFFFFFFFFFFFFFFFFFFF AND DUP2 MSTORE PUSH1 0x20 ADD SWAP1 DUP2 MSTORE PUSH1 0x20 ADD PUSH1 0x0 KECCAK256 PUSH1 0x0 ADD SLOAD DUP5 PUSH1 0x40 MLOAD PUSH2 0x1913 SWAP5 SWAP4 SWAP3 SWAP2 SWAP1 PUSH2 0x2044 JUMP JUMPDEST PUSH1 0x40 MLOAD DUP1 SWAP2 SUB SWAP1 LOG1 JUMPDEST PUSH2 0x195F PUSH1 0x64 PUSH2 0x1951 PUSH1 0x6 PUSH1 0x3 PUSH1 0x0 DUP15 PUSH1 0xFF AND PUSH1 0xFF AND DUP2 MSTORE PUSH1 0x20 ADD SWAP1 DUP2 MSTORE PUSH1 0x20 ADD PUSH1 0x0 KECCAK256 PUSH1 0x1 ADD SLOAD PUSH2 0x1B6F SWAP1 SWAP2 SWAP1 PUSH4 0xFFFFFFFF AND JUMP JUMPDEST PUSH2 0x1B59 SWAP1 SWAP2 SWAP1 PUSH4 0xFFFFFFFF AND JUMP JUMPDEST SWAP1 POP PUSH1 0x6 PUSH1 0x0 PUSH1 0x1 DUP1 SLOAD SWAP1 PUSH2 0x100 EXP SWAP1 DIV PUSH20 0xFFFFFFFFFFFFFFFFFFFFFFFFFFFFFFFFFFFFFFFF AND PUSH20 0xFFFFFFFFFFFFFFFFFFFFFFFFFFFFFFFFFFFFFFFF AND PUSH20 0xFFFFFFFFFFFFFFFFFFFFFFFFFFFFFFFFFFFFFFFF AND DUP2 MSTORE PUSH1 0x20 ADD SWAP1 DUP2 MSTORE PUSH1 0x20 ADD PUSH1 0x0 KECCAK256 PUSH1 0x1 ADD PUSH1 0x0 SWAP1 SLOAD SWAP1 PUSH2 0x100 EXP SWAP1 DIV PUSH20 0xFFFFFFFFFFFFFFFFFFFFFFFFFFFFFFFFFFFFFFFF AND PUSH20 0xFFFFFFFFFFFFFFFFFFFFFFFFFFFFFFFFFFFFFFFF AND DUP2 PUSH1 0x40 MLOAD PUSH2 0x1A07 SWAP1 PUSH2 0x1E1A JUMP JUMPDEST PUSH1 0x0 PUSH1 0x40 MLOAD DUP1 DUP4 SUB DUP2 DUP6 DUP8 GAS CALL SWAP3 POP POP POP RETURNDATASIZE DUP1 PUSH1 0x0 DUP2 EQ PUSH2 0x1A44 JUMPI PUSH1 0x40 MLOAD SWAP2 POP PUSH1 0x1F NOT PUSH1 0x3F RETURNDATASIZE ADD AND DUP3 ADD PUSH1 0x40 MSTORE RETURNDATASIZE DUP3 MSTORE RETURNDATASIZE PUSH1 0x0 PUSH1 0x20 DUP5 ADD RETURNDATACOPY PUSH2 0x1A49 JUMP JUMPDEST PUSH1 0x60 SWAP2 POP JUMPDEST POP POP DUP1 SWAP5 POP POP DUP4 ISZERO PUSH2 0x1B1E JUMPI PUSH32 0xAFE90BC52FC3DD02B2550B825FC68E93B4BFBCB8165BBACDA6CD14B2BAD5BC02 PUSH1 0x3 PUSH1 0x0 DUP12 PUSH1 0xFF AND PUSH1 0xFF AND DUP2 MSTORE PUSH1 0x20 ADD SWAP1 DUP2 MSTORE PUSH1 0x20 ADD PUSH1 0x0 KECCAK256 PUSH1 0x0 ADD PUSH1 0x0 SWAP1 SLOAD SWAP1 PUSH2 0x100 EXP SWAP1 DIV PUSH1 0xFF AND DUP5 PUSH1 0x6 PUSH1 0x0 PUSH1 0x1 DUP1 SLOAD SWAP1 PUSH2 0x100 EXP SWAP1 DIV PUSH20 0xFFFFFFFFFFFFFFFFFFFFFFFFFFFFFFFFFFFFFFFF AND PUSH20 0xFFFFFFFFFFFFFFFFFFFFFFFFFFFFFFFFFFFFFFFF AND PUSH20 0xFFFFFFFFFFFFFFFFFFFFFFFFFFFFFFFFFFFFFFFF AND DUP2 MSTORE PUSH1 0x20 ADD SWAP1 DUP2 MSTORE PUSH1 0x20 ADD PUSH1 0x0 KECCAK256 PUSH1 0x0 ADD SLOAD DUP5 PUSH1 0x40 MLOAD PUSH2 0x1B15 SWAP5 SWAP4 SWAP3 SWAP2 SWAP1 PUSH2 0x2044 JUMP JUMPDEST PUSH1 0x40 MLOAD DUP1 SWAP2 SUB SWAP1 LOG1 JUMPDEST NUMBER BLOCKHASH PUSH1 0x2 DUP2 SWAP1 SSTORE POP POP POP POP POP JUMPDEST PUSH2 0x1B34 DUP3 PUSH2 0x980 JUMP JUMPDEST SWAP2 POP POP PUSH2 0xEE1 JUMP JUMPDEST POP JUMPDEST POP POP POP JUMP JUMPDEST PUSH1 0x0 DUP2 DUP4 PUSH2 0x1B51 SWAP2 SWAP1 PUSH2 0x22C0 JUMP JUMPDEST SWAP1 POP SWAP3 SWAP2 POP POP JUMP JUMPDEST PUSH1 0x0 DUP2 DUP4 PUSH2 0x1B67 SWAP2 SWAP1 PUSH2 0x2132 JUMP JUMPDEST SWAP1 POP SWAP3 SWAP2 POP POP JUMP JUMPDEST PUSH1 0x0 DUP2 DUP4 PUSH2 0x1B7D SWAP2 SWAP1 PUSH2 0x2163 JUMP JUMPDEST SWAP1 POP SWAP3 SWAP2 POP POP JUMP JUMPDEST PUSH1 0x0 DUP2 CALLDATALOAD SWAP1 POP PUSH2 0x1B94 DUP2 PUSH2 0x2499 JUMP JUMPDEST SWAP3 SWAP2 POP POP JUMP JUMPDEST PUSH1 0x0 DUP2 CALLDATALOAD SWAP1 POP PUSH2 0x1BA9 DUP2 PUSH2 0x24B0 JUMP JUMPDEST SWAP3 SWAP2 POP POP JUMP JUMPDEST PUSH1 0x0 DUP2 CALLDATALOAD SWAP1 POP PUSH2 0x1BBE DUP2 PUSH2 0x24C7 JUMP JUMPDEST SWAP3 SWAP2 POP POP JUMP JUMPDEST PUSH1 0x0 PUSH1 0x20 DUP3 DUP5 SUB SLT ISZERO PUSH2 0x1BDA JUMPI PUSH2 0x1BD9 PUSH2 0x234F JUMP JUMPDEST JUMPDEST PUSH1 0x0 PUSH2 0x1BE8 DUP5 DUP3 DUP6 ADD PUSH2 0x1B85 JUMP JUMPDEST SWAP2 POP POP SWAP3 SWAP2 POP POP JUMP JUMPDEST PUSH1 0x0 DUP1 PUSH1 0x40 DUP4 DUP6 SUB SLT ISZERO PUSH2 0x1C08 JUMPI PUSH2 0x1C07 PUSH2 0x234F JUMP JUMPDEST JUMPDEST PUSH1 0x0 PUSH2 0x1C16 DUP6 DUP3 DUP7 ADD PUSH2 0x1B85 JUMP JUMPDEST SWAP3 POP POP PUSH1 0x20 PUSH2 0x1C27 DUP6 DUP3 DUP7 ADD PUSH2 0x1BAF JUMP JUMPDEST SWAP2 POP POP SWAP3 POP SWAP3 SWAP1 POP JUMP JUMPDEST PUSH1 0x0 PUSH1 0x20 DUP3 DUP5 SUB SLT ISZERO PUSH2 0x1C47 JUMPI PUSH2 0x1C46 PUSH2 0x234F JUMP JUMPDEST JUMPDEST PUSH1 0x0 PUSH2 0x1C55 DUP5 DUP3 DUP6 ADD PUSH2 0x1B9A JUMP JUMPDEST SWAP2 POP POP SWAP3 SWAP2 POP POP JUMP JUMPDEST PUSH1 0x0 PUSH1 0x20 DUP3 DUP5 SUB SLT ISZERO PUSH2 0x1C74 JUMPI PUSH2 0x1C73 PUSH2 0x234F JUMP JUMPDEST JUMPDEST PUSH1 0x0 PUSH2 0x1C82 DUP5 DUP3 DUP6 ADD PUSH2 0x1BAF JUMP JUMPDEST SWAP2 POP POP SWAP3 SWAP2 POP POP JUMP JUMPDEST PUSH1 0x0 DUP1 PUSH1 0x40 DUP4 DUP6 SUB SLT ISZERO PUSH2 0x1CA2 JUMPI PUSH2 0x1CA1 PUSH2 0x234F JUMP JUMPDEST JUMPDEST PUSH1 0x0 PUSH2 0x1CB0 DUP6 DUP3 DUP7 ADD PUSH2 0x1BAF JUMP JUMPDEST SWAP3 POP POP PUSH1 0x20 PUSH2 0x1CC1 DUP6 DUP3 DUP7 ADD PUSH2 0x1B9A JUMP JUMPDEST SWAP2 POP POP SWAP3 POP SWAP3 SWAP1 POP JUMP JUMPDEST PUSH2 0x1CD4 DUP2 PUSH2 0x2237 JUMP JUMPDEST DUP3 MSTORE POP POP JUMP JUMPDEST PUSH2 0x1CE3 DUP2 PUSH2 0x2225 JUMP JUMPDEST DUP3 MSTORE POP POP JUMP JUMPDEST PUSH2 0x1CF2 DUP2 PUSH2 0x2249 JUMP JUMPDEST DUP3 MSTORE POP POP JUMP JUMPDEST PUSH2 0x1D01 DUP2 PUSH2 0x2255 JUMP JUMPDEST DUP3 MSTORE POP POP JUMP JUMPDEST PUSH1 0x0 PUSH2 0x1D14 PUSH1 0xE DUP4 PUSH2 0x2094 JUMP JUMPDEST SWAP2 POP PUSH2 0x1D1F DUP3 PUSH2 0x2354 JUMP JUMPDEST PUSH1 0x20 DUP3 ADD SWAP1 POP SWAP2 SWAP1 POP JUMP JUMPDEST PUSH1 0x0 PUSH2 0x1D37 PUSH1 0x1A DUP4 PUSH2 0x2094 JUMP JUMPDEST SWAP2 POP PUSH2 0x1D42 DUP3 PUSH2 0x237D JUMP JUMPDEST PUSH1 0x20 DUP3 ADD SWAP1 POP SWAP2 SWAP1 POP JUMP JUMPDEST PUSH1 0x0 PUSH2 0x1D5A PUSH1 0x0 DUP4 PUSH2 0x2089 JUMP JUMPDEST SWAP2 POP PUSH2 0x1D65 DUP3 PUSH2 0x23A6 JUMP JUMPDEST PUSH1 0x0 DUP3 ADD SWAP1 POP SWAP2 SWAP1 POP JUMP JUMPDEST PUSH1 0x0 PUSH2 0x1D7D PUSH1 0x23 DUP4 PUSH2 0x2094 JUMP JUMPDEST SWAP2 POP PUSH2 0x1D88 DUP3 PUSH2 0x23A9 JUMP JUMPDEST PUSH1 0x40 DUP3 ADD SWAP1 POP SWAP2 SWAP1 POP JUMP JUMPDEST PUSH1 0x0 PUSH2 0x1DA0 PUSH1 0x28 DUP4 PUSH2 0x2094 JUMP JUMPDEST SWAP2 POP PUSH2 0x1DAB DUP3 PUSH2 0x23F8 JUMP JUMPDEST PUSH1 0x40 DUP3 ADD SWAP1 POP SWAP2 SWAP1 POP JUMP JUMPDEST PUSH1 0x0 PUSH2 0x1DC3 PUSH1 0xC DUP4 PUSH2 0x2094 JUMP JUMPDEST SWAP2 POP PUSH2 0x1DCE DUP3 PUSH2 0x2447 JUMP JUMPDEST PUSH1 0x20 DUP3 ADD SWAP1 POP SWAP2 SWAP1 POP JUMP JUMPDEST PUSH1 0x0 PUSH2 0x1DE6 PUSH1 0x11 DUP4 PUSH2 0x2094 JUMP JUMPDEST SWAP2 POP PUSH2 0x1DF1 DUP3 PUSH2 0x2470 JUMP JUMPDEST PUSH1 0x20 DUP3 ADD SWAP1 POP SWAP2 SWAP1 POP JUMP JUMPDEST PUSH2 0x1E05 DUP2 PUSH2 0x227F JUMP JUMPDEST DUP3 MSTORE POP POP JUMP JUMPDEST PUSH2 0x1E14 DUP2 PUSH2 0x2289 JUMP JUMPDEST DUP3 MSTORE POP POP JUMP JUMPDEST PUSH1 0x0 PUSH2 0x1E25 DUP3 PUSH2 0x1D4D JUMP JUMPDEST SWAP2 POP DUP2 SWAP1 POP SWAP2 SWAP1 POP JUMP JUMPDEST PUSH1 0x0 PUSH1 0x20 DUP3 ADD SWAP1 POP PUSH2 0x1E44 PUSH1 0x0 DUP4 ADD DUP5 PUSH2 0x1CDA JUMP JUMPDEST SWAP3 SWAP2 POP POP JUMP JUMPDEST PUSH1 0x0 PUSH1 0x20 DUP3 ADD SWAP1 POP PUSH2 0x1E5F PUSH1 0x0 DUP4 ADD DUP5 PUSH2 0x1CE9 JUMP JUMPDEST SWAP3 SWAP2 POP POP JUMP JUMPDEST PUSH1 0x0 PUSH1 0x20 DUP3 ADD SWAP1 POP PUSH2 0x1E7A PUSH1 0x0 DUP4 ADD DUP5 PUSH2 0x1CF8 JUMP JUMPDEST SWAP3 SWAP2 POP POP JUMP JUMPDEST PUSH1 0x0 PUSH1 0x20 DUP3 ADD SWAP1 POP DUP2 DUP2 SUB PUSH1 0x0 DUP4 ADD MSTORE PUSH2 0x1E99 DUP2 PUSH2 0x1D07 JUMP JUMPDEST SWAP1 POP SWAP2 SWAP1 POP JUMP JUMPDEST PUSH1 0x0 PUSH1 0x20 DUP3 ADD SWAP1 POP DUP2 DUP2 SUB PUSH1 0x0 DUP4 ADD MSTORE PUSH2 0x1EB9 DUP2 PUSH2 0x1D2A JUMP JUMPDEST SWAP1 POP SWAP2 SWAP1 POP JUMP JUMPDEST PUSH1 0x0 PUSH1 0x20 DUP3 ADD SWAP1 POP DUP2 DUP2 SUB PUSH1 0x0 DUP4 ADD MSTORE PUSH2 0x1ED9 DUP2 PUSH2 0x1D70 JUMP JUMPDEST SWAP1 POP SWAP2 SWAP1 POP JUMP JUMPDEST PUSH1 0x0 PUSH1 0x20 DUP3 ADD SWAP1 POP DUP2 DUP2 SUB PUSH1 0x0 DUP4 ADD MSTORE PUSH2 0x1EF9 DUP2 PUSH2 0x1D93 JUMP JUMPDEST SWAP1 POP SWAP2 SWAP1 POP JUMP JUMPDEST PUSH1 0x0 PUSH1 0x20 DUP3 ADD SWAP1 POP DUP2 DUP2 SUB PUSH1 0x0 DUP4 ADD MSTORE PUSH2 0x1F19 DUP2 PUSH2 0x1DB6 JUMP JUMPDEST SWAP1 POP SWAP2 SWAP1 POP JUMP JUMPDEST PUSH1 0x0 PUSH1 0x20 DUP3 ADD SWAP1 POP DUP2 DUP2 SUB PUSH1 0x0 DUP4 ADD MSTORE PUSH2 0x1F39 DUP2 PUSH2 0x1DD9 JUMP JUMPDEST SWAP1 POP SWAP2 SWAP1 POP JUMP JUMPDEST PUSH1 0x0 PUSH1 0x20 DUP3 ADD SWAP1 POP PUSH2 0x1F55 PUSH1 0x0 DUP4 ADD DUP5 PUSH2 0x1DFC JUMP JUMPDEST SWAP3 SWAP2 POP POP JUMP JUMPDEST PUSH1 0x0 PUSH1 0x60 DUP3 ADD SWAP1 POP PUSH2 0x1F70 PUSH1 0x0 DUP4 ADD DUP7 PUSH2 0x1DFC JUMP JUMPDEST PUSH2 0x1F7D PUSH1 0x20 DUP4 ADD DUP6 PUSH2 0x1CCB JUMP JUMPDEST PUSH2 0x1F8A PUSH1 0x40 DUP4 ADD DUP5 PUSH2 0x1DFC JUMP JUMPDEST SWAP5 SWAP4 POP POP POP POP JUMP JUMPDEST PUSH1 0x0 PUSH1 0x60 DUP3 ADD SWAP1 POP PUSH2 0x1FA7 PUSH1 0x0 DUP4 ADD DUP7 PUSH2 0x1DFC JUMP JUMPDEST PUSH2 0x1FB4 PUSH1 0x20 DUP4 ADD DUP6 PUSH2 0x1DFC JUMP JUMPDEST PUSH2 0x1FC1 PUSH1 0x40 DUP4 ADD DUP5 PUSH2 0x1DFC JUMP JUMPDEST SWAP5 SWAP4 POP POP POP POP JUMP JUMPDEST PUSH1 0x0 PUSH1 0x20 DUP3 ADD SWAP1 POP PUSH2 0x1FDE PUSH1 0x0 DUP4 ADD DUP5 PUSH2 0x1E0B JUMP JUMPDEST SWAP3 SWAP2 POP POP JUMP JUMPDEST PUSH1 0x0 PUSH1 0x60 DUP3 ADD SWAP1 POP PUSH2 0x1FF9 PUSH1 0x0 DUP4 ADD DUP7 PUSH2 0x1E0B JUMP JUMPDEST PUSH2 0x2006 PUSH1 0x20 DUP4 ADD DUP6 PUSH2 0x1CDA JUMP JUMPDEST PUSH2 0x2013 PUSH1 0x40 DUP4 ADD DUP5 PUSH2 0x1CE9 JUMP JUMPDEST SWAP5 SWAP4 POP POP POP POP JUMP JUMPDEST PUSH1 0x0 PUSH1 0x40 DUP3 ADD SWAP1 POP PUSH2 0x2030 PUSH1 0x0 DUP4 ADD DUP6 PUSH2 0x1E0B JUMP JUMPDEST PUSH2 0x203D PUSH1 0x20 DUP4 ADD DUP5 PUSH2 0x1DFC JUMP JUMPDEST SWAP4 SWAP3 POP POP POP JUMP JUMPDEST PUSH1 0x0 PUSH1 0x80 DUP3 ADD SWAP1 POP PUSH2 0x2059 PUSH1 0x0 DUP4 ADD DUP8 PUSH2 0x1E0B JUMP JUMPDEST PUSH2 0x2066 PUSH1 0x20 DUP4 ADD DUP7 PUSH2 0x1DFC JUMP JUMPDEST PUSH2 0x2073 PUSH1 0x40 DUP4 ADD DUP6 PUSH2 0x1DFC JUMP JUMPDEST PUSH2 0x2080 PUSH1 0x60 DUP4 ADD DUP5 PUSH2 0x1DFC JUMP JUMPDEST SWAP6 SWAP5 POP POP POP POP POP JUMP JUMPDEST PUSH1 0x0 DUP2 SWAP1 POP SWAP3 SWAP2 POP POP JUMP JUMPDEST PUSH1 0x0 DUP3 DUP3 MSTORE PUSH1 0x20 DUP3 ADD SWAP1 POP SWAP3 SWAP2 POP POP JUMP JUMPDEST PUSH1 0x0 PUSH2 0x20B0 DUP3 PUSH2 0x227F JUMP JUMPDEST SWAP2 POP PUSH2 0x20BB DUP4 PUSH2 0x227F JUMP JUMPDEST SWAP3 POP DUP3 PUSH32 0xFFFFFFFFFFFFFFFFFFFFFFFFFFFFFFFFFFFFFFFFFFFFFFFFFFFFFFFFFFFFFFFF SUB DUP3 GT ISZERO PUSH2 0x20F0 JUMPI PUSH2 0x20EF PUSH2 0x22F1 JUMP JUMPDEST JUMPDEST DUP3 DUP3 ADD SWAP1 POP SWAP3 SWAP2 POP POP JUMP JUMPDEST PUSH1 0x0 PUSH2 0x2106 DUP3 PUSH2 0x2289 JUMP JUMPDEST SWAP2 POP PUSH2 0x2111 DUP4 PUSH2 0x2289 JUMP JUMPDEST SWAP3 POP DUP3 PUSH1 0xFF SUB DUP3 GT ISZERO PUSH2 0x2127 JUMPI PUSH2 0x2126 PUSH2 0x22F1 JUMP JUMPDEST JUMPDEST DUP3 DUP3 ADD SWAP1 POP SWAP3 SWAP2 POP POP JUMP JUMPDEST PUSH1 0x0 PUSH2 0x213D DUP3 PUSH2 0x227F JUMP JUMPDEST SWAP2 POP PUSH2 0x2148 DUP4 PUSH2 0x227F JUMP JUMPDEST SWAP3 POP DUP3 PUSH2 0x2158 JUMPI PUSH2 0x2157 PUSH2 0x2320 JUMP JUMPDEST JUMPDEST DUP3 DUP3 DIV SWAP1 POP SWAP3 SWAP2 POP POP JUMP JUMPDEST PUSH1 0x0 PUSH2 0x216E DUP3 PUSH2 0x227F JUMP JUMPDEST SWAP2 POP PUSH2 0x2179 DUP4 PUSH2 0x227F JUMP JUMPDEST SWAP3 POP DUP2 PUSH32 0xFFFFFFFFFFFFFFFFFFFFFFFFFFFFFFFFFFFFFFFFFFFFFFFFFFFFFFFFFFFFFFFF DIV DUP4 GT DUP3 ISZERO ISZERO AND ISZERO PUSH2 0x21B2 JUMPI PUSH2 0x21B1 PUSH2 0x22F1 JUMP JUMPDEST JUMPDEST DUP3 DUP3 MUL SWAP1 POP SWAP3 SWAP2 POP POP JUMP JUMPDEST PUSH1 0x0 PUSH2 0x21C8 DUP3 PUSH2 0x227F JUMP JUMPDEST SWAP2 POP PUSH2 0x21D3 DUP4 PUSH2 0x227F JUMP JUMPDEST SWAP3 POP DUP3 DUP3 LT ISZERO PUSH2 0x21E6 JUMPI PUSH2 0x21E5 PUSH2 0x22F1 JUMP JUMPDEST JUMPDEST DUP3 DUP3 SUB SWAP1 POP SWAP3 SWAP2 POP POP JUMP JUMPDEST PUSH1 0x0 PUSH2 0x21FC DUP3 PUSH2 0x2289 JUMP JUMPDEST SWAP2 POP PUSH2 0x2207 DUP4 PUSH2 0x2289 JUMP JUMPDEST SWAP3 POP DUP3 DUP3 LT ISZERO PUSH2 0x221A JUMPI PUSH2 0x2219 PUSH2 0x22F1 JUMP JUMPDEST JUMPDEST DUP3 DUP3 SUB SWAP1 POP SWAP3 SWAP2 POP POP JUMP JUMPDEST PUSH1 0x0 PUSH2 0x2230 DUP3 PUSH2 0x225F JUMP JUMPDEST SWAP1 POP SWAP2 SWAP1 POP JUMP JUMPDEST PUSH1 0x0 PUSH2 0x2242 DUP3 PUSH2 0x225F JUMP JUMPDEST SWAP1 POP SWAP2 SWAP1 POP JUMP JUMPDEST PUSH1 0x0 DUP2 ISZERO ISZERO SWAP1 POP SWAP2 SWAP1 POP JUMP JUMPDEST PUSH1 0x0 DUP2 SWAP1 POP SWAP2 SWAP1 POP JUMP JUMPDEST PUSH1 0x0 PUSH20 0xFFFFFFFFFFFFFFFFFFFFFFFFFFFFFFFFFFFFFFFF DUP3 AND SWAP1 POP SWAP2 SWAP1 POP JUMP JUMPDEST PUSH1 0x0 DUP2 SWAP1 POP SWAP2 SWAP1 POP JUMP JUMPDEST PUSH1 0x0 PUSH1 0xFF DUP3 AND SWAP1 POP SWAP2 SWAP1 POP JUMP JUMPDEST PUSH1 0x0 PUSH2 0x22A1 DUP3 PUSH2 0x2289 JUMP JUMPDEST SWAP2 POP PUSH1 0xFF DUP3 EQ ISZERO PUSH2 0x22B5 JUMPI PUSH2 0x22B4 PUSH2 0x22F1 JUMP JUMPDEST JUMPDEST PUSH1 0x1 DUP3 ADD SWAP1 POP SWAP2 SWAP1 POP JUMP JUMPDEST PUSH1 0x0 PUSH2 0x22CB DUP3 PUSH2 0x227F JUMP JUMPDEST SWAP2 POP PUSH2 0x22D6 DUP4 PUSH2 0x227F JUMP JUMPDEST SWAP3 POP DUP3 PUSH2 0x22E6 JUMPI PUSH2 0x22E5 PUSH2 0x2320 JUMP JUMPDEST JUMPDEST DUP3 DUP3 MOD SWAP1 POP SWAP3 SWAP2 POP POP JUMP JUMPDEST PUSH32 0x4E487B7100000000000000000000000000000000000000000000000000000000 PUSH1 0x0 MSTORE PUSH1 0x11 PUSH1 0x4 MSTORE PUSH1 0x24 PUSH1 0x0 REVERT JUMPDEST PUSH32 0x4E487B7100000000000000000000000000000000000000000000000000000000 PUSH1 0x0 MSTORE PUSH1 0x12 PUSH1 0x4 MSTORE PUSH1 0x24 PUSH1 0x0 REVERT JUMPDEST PUSH1 0x0 DUP1 REVERT JUMPDEST PUSH32 0x47616D65206E6F7420666F756E64000000000000000000000000000000000000 PUSH1 0x0 DUP3 ADD MSTORE POP JUMP JUMPDEST PUSH32 0x596F752061726520616C72656164792072656769737465726564000000000000 PUSH1 0x0 DUP3 ADD MSTORE POP JUMP JUMPDEST POP JUMP JUMPDEST PUSH32 0x496E73756666696369656E7420616D6F756E74206F6620636F6E747269627574 PUSH1 0x0 DUP3 ADD MSTORE PUSH32 0x696F6E0000000000000000000000000000000000000000000000000000000000 PUSH1 0x20 DUP3 ADD MSTORE POP JUMP JUMPDEST PUSH32 0x466F72207265676974657220696E2067616D6520796F75206E65656420706179 PUSH1 0x0 DUP3 ADD MSTORE PUSH32 0x2031206574686572000000000000000000000000000000000000000000000000 PUSH1 0x20 DUP3 ADD MSTORE POP JUMP JUMPDEST PUSH32 0x4E6F20636F6E7472616374730000000000000000000000000000000000000000 PUSH1 0x0 DUP3 ADD MSTORE POP JUMP JUMPDEST PUSH32 0x596F7520617265206E6F74206F776E6572000000000000000000000000000000 PUSH1 0x0 DUP3 ADD MSTORE POP JUMP JUMPDEST PUSH2 0x24A2 DUP2 PUSH2 0x2225 JUMP JUMPDEST DUP2 EQ PUSH2 0x24AD JUMPI PUSH1 0x0 DUP1 REVERT JUMPDEST POP JUMP JUMPDEST PUSH2 0x24B9 DUP2 PUSH2 0x227F JUMP JUMPDEST DUP2 EQ PUSH2 0x24C4 JUMPI PUSH1 0x0 DUP1 REVERT JUMPDEST POP JUMP JUMPDEST PUSH2 0x24D0 DUP2 PUSH2 0x2289 JUMP JUMPDEST DUP2 EQ PUSH2 0x24DB JUMPI PUSH1 0x0 DUP1 REVERT JUMPDEST POP JUMP INVALID LOG2 PUSH5 0x6970667358 0x22 SLT KECCAK256 DUP4 DUP5 PUSH28 0x180E52B82BE713755F7C82BF09206E55D8767F13F9A56B7FCB80329C DUP9 PUSH5 0x736F6C6343 STOP ADDMOD SMOD STOP CALLER "
				},
				"gasEstimates": {
					"creation": {
						"codeDepositCost": "1898400",
						"executionCost": "infinite",
						"totalCost": "infinite"
					},
					"external": {
						"": "infinite",
						"addGameLevel(uint256)": "infinite",
						"culcNextWinnerIndex(uint256)": "infinite",
						"currentGameIdIndex()": "2493",
						"currentUserIdIndex()": "2518",
						"currentUserIndex(uint8)": "2860",
						"getUserBalance(address)": "3324",
						"hasAccess(address)": "2925",
						"joinToGame(uint8)": "infinite",
						"levels(uint8)": "infinite",
						"pools(uint8,uint256)": "infinite",
						"registerUserToGame(uint256)": "infinite",
						"registeredUsers(address)": "infinite",
						"transaction_hash()": "2475",
						"userGames(address,uint8)": "3183",
						"userPayments(address,uint8)": "3144",
						"usersId(uint256)": "2905"
					},
					"internal": {
						"_fallback(address,uint256)": "infinite",
						"_joinToGame(uint8,address,uint256)": "infinite"
					}
				},
				"methodIdentifiers": {
					"addGameLevel(uint256)": "ae9283b5",
					"culcNextWinnerIndex(uint256)": "33afc80b",
					"currentGameIdIndex()": "ad39f0a3",
					"currentUserIdIndex()": "556c9095",
					"currentUserIndex(uint8)": "9b0b0ae3",
					"getUserBalance(address)": "47734892",
					"hasAccess(address)": "95a078e8",
					"joinToGame(uint8)": "2e8aab9b",
					"levels(uint8)": "906cbf57",
					"pools(uint8,uint256)": "78a32e21",
					"registerUserToGame(uint256)": "0173c05b",
					"registeredUsers(address)": "0e50cee5",
					"transaction_hash()": "0c71c3a2",
					"userGames(address,uint8)": "2a648c89",
					"userPayments(address,uint8)": "f1060006",
					"usersId(uint256)": "bd233b91"
				}
			},
			"storageLayout": {
				"storage": [
					{
						"astId": 315,
						"contract": "Contract.sol:Pyramid",
						"label": "currentUserIdIndex",
						"offset": 0,
						"slot": "0",
						"type": "t_uint256"
					},
					{
						"astId": 317,
						"contract": "Contract.sol:Pyramid",
						"label": "currentGameIdIndex",
						"offset": 0,
						"slot": "1",
						"type": "t_uint8"
					},
					{
						"astId": 319,
						"contract": "Contract.sol:Pyramid",
						"label": "contractOwner",
						"offset": 1,
						"slot": "1",
						"type": "t_address"
					},
					{
						"astId": 321,
						"contract": "Contract.sol:Pyramid",
						"label": "transaction_hash",
						"offset": 0,
						"slot": "2",
						"type": "t_bytes32"
					},
					{
						"astId": 353,
						"contract": "Contract.sol:Pyramid",
						"label": "levels",
						"offset": 0,
						"slot": "3",
						"type": "t_mapping(t_uint8,t_struct(Game)348_storage)"
					},
					{
						"astId": 357,
						"contract": "Contract.sol:Pyramid",
						"label": "usersId",
						"offset": 0,
						"slot": "4",
						"type": "t_mapping(t_uint256,t_address)"
					},
					{
						"astId": 361,
						"contract": "Contract.sol:Pyramid",
						"label": "userPartnersCount",
						"offset": 0,
						"slot": "5",
						"type": "t_mapping(t_uint256,t_uint256)"
					},
					{
						"astId": 366,
						"contract": "Contract.sol:Pyramid",
						"label": "registeredUsers",
						"offset": 0,
						"slot": "6",
						"type": "t_mapping(t_address,t_struct(User)343_storage)"
					},
					{
						"astId": 370,
						"contract": "Contract.sol:Pyramid",
						"label": "currentUserIndex",
						"offset": 0,
						"slot": "7",
						"type": "t_mapping(t_uint8,t_uint256)"
					},
					{
						"astId": 377,
						"contract": "Contract.sol:Pyramid",
						"label": "pools",
						"offset": 0,
						"slot": "8",
						"type": "t_mapping(t_uint8,t_mapping(t_uint256,t_struct(User)343_storage))"
					},
					{
						"astId": 383,
						"contract": "Contract.sol:Pyramid",
						"label": "userPayments",
						"offset": 0,
						"slot": "9",
						"type": "t_mapping(t_address,t_mapping(t_uint8,t_uint256))"
					},
					{
						"astId": 389,
						"contract": "Contract.sol:Pyramid",
						"label": "userGames",
						"offset": 0,
						"slot": "10",
						"type": "t_mapping(t_address,t_mapping(t_uint8,t_bool))"
					}
				],
				"types": {
					"t_address": {
						"encoding": "inplace",
						"label": "address",
						"numberOfBytes": "20"
					},
					"t_address_payable": {
						"encoding": "inplace",
						"label": "address payable",
						"numberOfBytes": "20"
					},
					"t_bool": {
						"encoding": "inplace",
						"label": "bool",
						"numberOfBytes": "1"
					},
					"t_bytes32": {
						"encoding": "inplace",
						"label": "bytes32",
						"numberOfBytes": "32"
					},
					"t_mapping(t_address,t_mapping(t_uint8,t_bool))": {
						"encoding": "mapping",
						"key": "t_address",
						"label": "mapping(address => mapping(uint8 => bool))",
						"numberOfBytes": "32",
						"value": "t_mapping(t_uint8,t_bool)"
					},
					"t_mapping(t_address,t_mapping(t_uint8,t_uint256))": {
						"encoding": "mapping",
						"key": "t_address",
						"label": "mapping(address => mapping(uint8 => uint256))",
						"numberOfBytes": "32",
						"value": "t_mapping(t_uint8,t_uint256)"
					},
					"t_mapping(t_address,t_struct(User)343_storage)": {
						"encoding": "mapping",
						"key": "t_address",
						"label": "mapping(address => struct Pyramid.User)",
						"numberOfBytes": "32",
						"value": "t_struct(User)343_storage"
					},
					"t_mapping(t_uint256,t_address)": {
						"encoding": "mapping",
						"key": "t_uint256",
						"label": "mapping(uint256 => address)",
						"numberOfBytes": "32",
						"value": "t_address"
					},
					"t_mapping(t_uint256,t_struct(User)343_storage)": {
						"encoding": "mapping",
						"key": "t_uint256",
						"label": "mapping(uint256 => struct Pyramid.User)",
						"numberOfBytes": "32",
						"value": "t_struct(User)343_storage"
					},
					"t_mapping(t_uint256,t_uint256)": {
						"encoding": "mapping",
						"key": "t_uint256",
						"label": "mapping(uint256 => uint256)",
						"numberOfBytes": "32",
						"value": "t_uint256"
					},
					"t_mapping(t_uint8,t_bool)": {
						"encoding": "mapping",
						"key": "t_uint8",
						"label": "mapping(uint8 => bool)",
						"numberOfBytes": "32",
						"value": "t_bool"
					},
					"t_mapping(t_uint8,t_mapping(t_uint256,t_struct(User)343_storage))": {
						"encoding": "mapping",
						"key": "t_uint8",
						"label": "mapping(uint8 => mapping(uint256 => struct Pyramid.User))",
						"numberOfBytes": "32",
						"value": "t_mapping(t_uint256,t_struct(User)343_storage)"
					},
					"t_mapping(t_uint8,t_struct(Game)348_storage)": {
						"encoding": "mapping",
						"key": "t_uint8",
						"label": "mapping(uint8 => struct Pyramid.Game)",
						"numberOfBytes": "32",
						"value": "t_struct(Game)348_storage"
					},
					"t_mapping(t_uint8,t_uint256)": {
						"encoding": "mapping",
						"key": "t_uint8",
						"label": "mapping(uint8 => uint256)",
						"numberOfBytes": "32",
						"value": "t_uint256"
					},
					"t_struct(Game)348_storage": {
						"encoding": "inplace",
						"label": "struct Pyramid.Game",
						"members": [
							{
								"astId": 345,
								"contract": "Contract.sol:Pyramid",
								"label": "gameId",
								"offset": 0,
								"slot": "0",
								"type": "t_uint8"
							},
							{
								"astId": 347,
								"contract": "Contract.sol:Pyramid",
								"label": "amountToPay",
								"offset": 0,
								"slot": "1",
								"type": "t_uint256"
							}
						],
						"numberOfBytes": "64"
					},
					"t_struct(User)343_storage": {
						"encoding": "inplace",
						"label": "struct Pyramid.User",
						"members": [
							{
								"astId": 338,
								"contract": "Contract.sol:Pyramid",
								"label": "userId",
								"offset": 0,
								"slot": "0",
								"type": "t_uint256"
							},
							{
								"astId": 340,
								"contract": "Contract.sol:Pyramid",
								"label": "userAddress",
								"offset": 0,
								"slot": "1",
								"type": "t_address_payable"
							},
							{
								"astId": 342,
								"contract": "Contract.sol:Pyramid",
								"label": "invitedId",
								"offset": 0,
								"slot": "2",
								"type": "t_uint256"
							}
						],
						"numberOfBytes": "96"
					},
					"t_uint256": {
						"encoding": "inplace",
						"label": "uint256",
						"numberOfBytes": "32"
					},
					"t_uint8": {
						"encoding": "inplace",
						"label": "uint8",
						"numberOfBytes": "1"
					}
				}
			},
			"userdoc": {
				"kind": "user",
				"methods": {},
				"version": 1
			}
		}
	}
}