{
	"Contract.sol": {
		"Pyramid": {
			"abi": [
				{
					"inputs": [],
					"stateMutability": "nonpayable",
					"type": "constructor"
				},
				{
					"anonymous": false,
					"inputs": [
						{
							"indexed": false,
							"internalType": "uint8",
							"name": "gameId",
							"type": "uint8"
						},
						{
							"indexed": false,
							"internalType": "address",
							"name": "account",
							"type": "address"
						},
						{
							"indexed": false,
							"internalType": "bool",
							"name": "success",
							"type": "bool"
						}
					],
					"name": "GamePaymentEvent",
					"type": "event"
				},
				{
					"anonymous": false,
					"inputs": [
						{
							"indexed": false,
							"internalType": "uint8",
							"name": "gameId",
							"type": "uint8"
						},
						{
							"indexed": false,
							"internalType": "uint256",
							"name": "amount",
							"type": "uint256"
						}
					],
					"name": "NewGame",
					"type": "event"
				},
				{
					"anonymous": false,
					"inputs": [
						{
							"indexed": false,
							"internalType": "uint256",
							"name": "userId",
							"type": "uint256"
						},
						{
							"indexed": false,
							"internalType": "uint256",
							"name": "inviterId",
							"type": "uint256"
						},
						{
							"indexed": false,
							"internalType": "uint256",
							"name": "partnersCount",
							"type": "uint256"
						}
					],
					"name": "NewUserRegisteredEvent",
					"type": "event"
				},
				{
					"anonymous": false,
					"inputs": [
						{
							"indexed": false,
							"internalType": "uint8",
							"name": "gameId",
							"type": "uint8"
						},
						{
							"indexed": false,
							"internalType": "uint256",
							"name": "from",
							"type": "uint256"
						},
						{
							"indexed": false,
							"internalType": "uint256",
							"name": "to",
							"type": "uint256"
						},
						{
							"indexed": false,
							"internalType": "uint256",
							"name": "amount",
							"type": "uint256"
						}
					],
					"name": "ReferalPaymentEvent",
					"type": "event"
				},
				{
					"stateMutability": "payable",
					"type": "fallback"
				},
				{
					"inputs": [
						{
							"internalType": "uint256",
							"name": "amountToPay",
							"type": "uint256"
						}
					],
					"name": "addGameLevel",
					"outputs": [],
					"stateMutability": "nonpayable",
					"type": "function"
				},
				{
					"inputs": [],
					"name": "currentGameIdIndex",
					"outputs": [
						{
							"internalType": "uint8",
							"name": "",
							"type": "uint8"
						}
					],
					"stateMutability": "view",
					"type": "function"
				},
				{
					"inputs": [],
					"name": "currentUserIdIndex",
					"outputs": [
						{
							"internalType": "uint256",
							"name": "",
							"type": "uint256"
						}
					],
					"stateMutability": "view",
					"type": "function"
				},
				{
					"inputs": [
						{
							"internalType": "uint8",
							"name": "",
							"type": "uint8"
						}
					],
					"name": "currentUserIndex",
					"outputs": [
						{
							"internalType": "uint256",
							"name": "",
							"type": "uint256"
						}
					],
					"stateMutability": "view",
					"type": "function"
				},
				{
					"inputs": [
						{
							"internalType": "address",
							"name": "userAddress",
							"type": "address"
						}
					],
					"name": "getUserBalance",
					"outputs": [
						{
							"internalType": "uint256",
							"name": "",
							"type": "uint256"
						}
					],
					"stateMutability": "view",
					"type": "function"
				},
				{
					"inputs": [
						{
							"internalType": "address",
							"name": "userAdress",
							"type": "address"
						}
					],
					"name": "hasAccess",
					"outputs": [
						{
							"internalType": "bool",
							"name": "",
							"type": "bool"
						}
					],
					"stateMutability": "view",
					"type": "function"
				},
				{
					"inputs": [
						{
							"internalType": "uint8",
							"name": "gameId",
							"type": "uint8"
						}
					],
					"name": "joinToGame",
					"outputs": [],
					"stateMutability": "payable",
					"type": "function"
				},
				{
					"inputs": [
						{
							"internalType": "uint8",
							"name": "",
							"type": "uint8"
						}
					],
					"name": "levels",
					"outputs": [
						{
							"internalType": "uint8",
							"name": "gameId",
							"type": "uint8"
						},
						{
							"internalType": "uint256",
							"name": "amountToPay",
							"type": "uint256"
						}
					],
					"stateMutability": "view",
					"type": "function"
				},
				{
					"inputs": [
						{
							"internalType": "uint8",
							"name": "",
							"type": "uint8"
						},
						{
							"internalType": "uint256",
							"name": "",
							"type": "uint256"
						}
					],
					"name": "pools",
					"outputs": [
						{
							"internalType": "uint256",
							"name": "userId",
							"type": "uint256"
						},
						{
							"internalType": "address payable",
							"name": "userAddress",
							"type": "address"
						},
						{
							"internalType": "uint256",
							"name": "invitedId",
							"type": "uint256"
						}
					],
					"stateMutability": "view",
					"type": "function"
				},
				{
					"inputs": [
						{
							"internalType": "uint256",
							"name": "inviterId",
							"type": "uint256"
						}
					],
					"name": "registerUserToGame",
					"outputs": [],
					"stateMutability": "payable",
					"type": "function"
				},
				{
					"inputs": [
						{
							"internalType": "address",
							"name": "",
							"type": "address"
						}
					],
					"name": "registeredUsers",
					"outputs": [
						{
							"internalType": "uint256",
							"name": "userId",
							"type": "uint256"
						},
						{
							"internalType": "address payable",
							"name": "userAddress",
							"type": "address"
						},
						{
							"internalType": "uint256",
							"name": "invitedId",
							"type": "uint256"
						}
					],
					"stateMutability": "view",
					"type": "function"
				},
				{
					"inputs": [
						{
							"internalType": "address",
							"name": "",
							"type": "address"
						},
						{
							"internalType": "uint8",
							"name": "",
							"type": "uint8"
						}
					],
					"name": "userGames",
					"outputs": [
						{
							"internalType": "bool",
							"name": "",
							"type": "bool"
						}
					],
					"stateMutability": "view",
					"type": "function"
				},
				{
					"inputs": [
						{
							"internalType": "address",
							"name": "",
							"type": "address"
						},
						{
							"internalType": "uint8",
							"name": "",
							"type": "uint8"
						}
					],
					"name": "userPayments",
					"outputs": [
						{
							"internalType": "uint256",
							"name": "",
							"type": "uint256"
						}
					],
					"stateMutability": "view",
					"type": "function"
				},
				{
					"inputs": [
						{
							"internalType": "uint256",
							"name": "",
							"type": "uint256"
						}
					],
					"name": "usersId",
					"outputs": [
						{
							"internalType": "address",
							"name": "",
							"type": "address"
						}
					],
					"stateMutability": "view",
					"type": "function"
				},
				{
					"stateMutability": "payable",
					"type": "receive"
				}
			],
			"devdoc": {
				"kind": "dev",
				"methods": {},
				"version": 1
			},
			"evm": {
				"assembly": "    /* \"Contract.sol\":6575:16224  contract Pyramid {\r... */\n  mstore(0x40, 0x80)\n    /* \"Contract.sol\":9232:9491  constructor () {\r... */\n  callvalue\n  dup1\n  iszero\n  tag_1\n  jumpi\n  0x00\n  dup1\n  revert\ntag_1:\n  pop\n    /* \"Contract.sol\":9274:9284  msg.sender */\n  caller\n    /* \"Contract.sol\":9258:9271  contractOwner */\n  0x01\n  dup1\n    /* \"Contract.sol\":9258:9284  contractOwner = msg.sender */\n  0x0100\n  exp\n  dup2\n  sload\n  dup2\n  0xffffffffffffffffffffffffffffffffffffffff\n  mul\n  not\n  and\n  swap1\n  dup4\n  0xffffffffffffffffffffffffffffffffffffffff\n  and\n  mul\n  or\n  swap1\n  sstore\n  pop\n    /* \"Contract.sol\":9308:9321  contractOwner */\n  0x01\n  dup1\n  sload\n  swap1\n  0x0100\n  exp\n  swap1\n  div\n  0xffffffffffffffffffffffffffffffffffffffff\n  and\n    /* \"Contract.sol\":9295:9302  usersId */\n  0x03\n    /* \"Contract.sol\":9295:9305  usersId[0] */\n  0x00\n    /* \"Contract.sol\":9303:9304  0 */\n  dup1\n    /* \"Contract.sol\":9295:9305  usersId[0] */\n  dup2\n  mstore\n  0x20\n  add\n  swap1\n  dup2\n  mstore\n  0x20\n  add\n  0x00\n  keccak256\n  0x00\n    /* \"Contract.sol\":9295:9321  usersId[0] = contractOwner */\n  0x0100\n  exp\n  dup2\n  sload\n  dup2\n  0xffffffffffffffffffffffffffffffffffffffff\n  mul\n  not\n  and\n  swap1\n  dup4\n  0xffffffffffffffffffffffffffffffffffffffff\n  and\n  mul\n  or\n  swap1\n  sstore\n  pop\n    /* \"Contract.sol\":9365:9399  User(0, payable(contractOwner), 0) */\n  mload(0x40)\n  dup1\n  0x60\n  add\n  0x40\n  mstore\n  dup1\n    /* \"Contract.sol\":9370:9371  0 */\n  0x00\n    /* \"Contract.sol\":9365:9399  User(0, payable(contractOwner), 0) */\n  dup2\n  mstore\n  0x20\n  add\n    /* \"Contract.sol\":9381:9394  contractOwner */\n  0x01\n  dup1\n  sload\n  swap1\n  0x0100\n  exp\n  swap1\n  div\n  0xffffffffffffffffffffffffffffffffffffffff\n  and\n    /* \"Contract.sol\":9365:9399  User(0, payable(contractOwner), 0) */\n  0xffffffffffffffffffffffffffffffffffffffff\n  and\n  dup2\n  mstore\n  0x20\n  add\n    /* \"Contract.sol\":9397:9398  0 */\n  0x00\n    /* \"Contract.sol\":9365:9399  User(0, payable(contractOwner), 0) */\n  dup2\n  mstore\n  pop\n    /* \"Contract.sol\":9332:9347  registeredUsers */\n  0x05\n    /* \"Contract.sol\":9332:9362  registeredUsers[contractOwner] */\n  0x00\n    /* \"Contract.sol\":9348:9361  contractOwner */\n  0x01\n  dup1\n  sload\n  swap1\n  0x0100\n  exp\n  swap1\n  div\n  0xffffffffffffffffffffffffffffffffffffffff\n  and\n    /* \"Contract.sol\":9332:9362  registeredUsers[contractOwner] */\n  0xffffffffffffffffffffffffffffffffffffffff\n  and\n  0xffffffffffffffffffffffffffffffffffffffff\n  and\n  dup2\n  mstore\n  0x20\n  add\n  swap1\n  dup2\n  mstore\n  0x20\n  add\n  0x00\n  keccak256\n    /* \"Contract.sol\":9332:9399  registeredUsers[contractOwner] = User(0, payable(contractOwner), 0) */\n  0x00\n  dup3\n  add\n  mload\n  dup2\n  0x00\n  add\n  sstore\n  0x20\n  dup3\n  add\n  mload\n  dup2\n  0x01\n  add\n  exp(0x0100, 0x00)\n  dup2\n  sload\n  dup2\n  0xffffffffffffffffffffffffffffffffffffffff\n  mul\n  not\n  and\n  swap1\n  dup4\n  0xffffffffffffffffffffffffffffffffffffffff\n  and\n  mul\n  or\n  swap1\n  sstore\n  pop\n  0x40\n  dup3\n  add\n  mload\n  dup2\n  0x02\n  add\n  sstore\n  swap1\n  pop\n  pop\n    /* \"Contract.sol\":9431:9432  1 */\n  0x01\n    /* \"Contract.sol\":9410:9428  currentUserIdIndex */\n  0x00\n    /* \"Contract.sol\":9410:9432  currentUserIdIndex = 1 */\n  dup2\n  swap1\n  sstore\n  pop\n    /* \"Contract.sol\":9445:9483  addGameLevel({ amountToPay: 1 ether }) */\n  tag_4\n    /* \"Contract.sol\":9473:9480  1 ether */\n  0x0de0b6b3a7640000\n    /* \"Contract.sol\":9445:9457  addGameLevel */\n  shl(0x20, tag_5)\n    /* \"Contract.sol\":9445:9483  addGameLevel({ amountToPay: 1 ether }) */\n  0x20\n  shr\n  jump\t// in\ntag_4:\n    /* \"Contract.sol\":6575:16224  contract Pyramid {\r... */\n  jump(tag_6)\n    /* \"Contract.sol\":11222:11591  function addGameLevel(uint256 amountToPay) public onlyOwner {\r... */\ntag_5:\n    /* \"Contract.sol\":9161:9182  hasAccess(msg.sender) */\n  tag_8\n    /* \"Contract.sol\":9171:9181  msg.sender */\n  caller\n    /* \"Contract.sol\":9161:9170  hasAccess */\n  shl(0x20, tag_9)\n    /* \"Contract.sol\":9161:9182  hasAccess(msg.sender) */\n  0x20\n  shr\n  jump\t// in\ntag_8:\n    /* \"Contract.sol\":9153:9204  require(hasAccess(msg.sender), \"You are not owner\") */\n  tag_10\n  jumpi\n  mload(0x40)\n  0x08c379a000000000000000000000000000000000000000000000000000000000\n  dup2\n  mstore\n  0x04\n  add\n  tag_11\n  swap1\n  tag_12\n  jump\t// in\ntag_11:\n  mload(0x40)\n  dup1\n  swap2\n  sub\n  swap1\n  revert\ntag_10:\n    /* \"Contract.sol\":11427:11489  Game({ gameId: currentGameIdIndex, amountToPay: amountToPay }) */\n  mload(0x40)\n  dup1\n  0x40\n  add\n  0x40\n  mstore\n  dup1\n    /* \"Contract.sol\":11442:11460  currentGameIdIndex */\n  0x01\n  0x00\n  swap1\n  sload\n  swap1\n  0x0100\n  exp\n  swap1\n  div\n  0xff\n  and\n    /* \"Contract.sol\":11427:11489  Game({ gameId: currentGameIdIndex, amountToPay: amountToPay }) */\n  0xff\n  and\n  dup2\n  mstore\n  0x20\n  add\n    /* \"Contract.sol\":11475:11486  amountToPay */\n  dup3\n    /* \"Contract.sol\":11427:11489  Game({ gameId: currentGameIdIndex, amountToPay: amountToPay }) */\n  dup2\n  mstore\n  pop\n    /* \"Contract.sol\":11398:11404  levels */\n  0x02\n    /* \"Contract.sol\":11398:11424  levels[currentGameIdIndex] */\n  0x00\n    /* \"Contract.sol\":11405:11423  currentGameIdIndex */\n  0x01\n  0x00\n  swap1\n  sload\n  swap1\n  0x0100\n  exp\n  swap1\n  div\n  0xff\n  and\n    /* \"Contract.sol\":11398:11424  levels[currentGameIdIndex] */\n  0xff\n  and\n  0xff\n  and\n  dup2\n  mstore\n  0x20\n  add\n  swap1\n  dup2\n  mstore\n  0x20\n  add\n  0x00\n  keccak256\n    /* \"Contract.sol\":11398:11489  levels[currentGameIdIndex] = Game({ gameId: currentGameIdIndex, amountToPay: amountToPay }) */\n  0x00\n  dup3\n  add\n  mload\n  dup2\n  0x00\n  add\n  exp(0x0100, 0x00)\n  dup2\n  sload\n  dup2\n  0xff\n  mul\n  not\n  and\n  swap1\n  dup4\n  0xff\n  and\n  mul\n  or\n  swap1\n  sstore\n  pop\n  0x20\n  dup3\n  add\n  mload\n  dup2\n  0x01\n  add\n  sstore\n  swap1\n  pop\n  pop\n    /* \"Contract.sol\":11522:11523  1 */\n  0x01\n    /* \"Contract.sol\":11500:11518  currentGameIdIndex */\n  dup1\n  0x00\n    /* \"Contract.sol\":11500:11523  currentGameIdIndex += 1 */\n  dup3\n  dup3\n  dup3\n  swap1\n  sload\n  swap1\n  0x0100\n  exp\n  swap1\n  div\n  0xff\n  and\n  tag_14\n  swap2\n  swap1\n  tag_15\n  jump\t// in\ntag_14:\n  swap3\n  pop\n  0x0100\n  exp\n  dup2\n  sload\n  dup2\n  0xff\n  mul\n  not\n  and\n  swap1\n  dup4\n  0xff\n  and\n  mul\n  or\n  swap1\n  sstore\n  pop\n    /* \"Contract.sol\":11539:11583  NewGame( currentGameIdIndex-1, amountToPay ) */\n  0xcf1ed532d6b83b4290f2f407b156b17826f49752e7a8ff360f502c307e055663\n    /* \"Contract.sol\":11567:11568  1 */\n  0x01\n    /* \"Contract.sol\":11548:11566  currentGameIdIndex */\n  dup1\n  0x00\n  swap1\n  sload\n  swap1\n  0x0100\n  exp\n  swap1\n  div\n  0xff\n  and\n    /* \"Contract.sol\":11548:11568  currentGameIdIndex-1 */\n  tag_16\n  swap2\n  swap1\n  tag_17\n  jump\t// in\ntag_16:\n    /* \"Contract.sol\":11570:11581  amountToPay */\n  dup3\n    /* \"Contract.sol\":11539:11583  NewGame( currentGameIdIndex-1, amountToPay ) */\n  mload(0x40)\n  tag_18\n  swap3\n  swap2\n  swap1\n  tag_19\n  jump\t// in\ntag_18:\n  mload(0x40)\n  dup1\n  swap2\n  sub\n  swap1\n  log1\n    /* \"Contract.sol\":11222:11591  function addGameLevel(uint256 amountToPay) public onlyOwner {\r... */\n  pop\n  jump\t// out\n    /* \"Contract.sol\":10858:11087  function hasAccess(address userAdress) public view returns(bool) {\r... */\ntag_9:\n    /* \"Contract.sol\":10917:10921  bool */\n  0x00\n    /* \"Contract.sol\":11066:11079  contractOwner */\n  0x01\n  dup1\n  sload\n  swap1\n  0x0100\n  exp\n  swap1\n  div\n  0xffffffffffffffffffffffffffffffffffffffff\n  and\n    /* \"Contract.sol\":11052:11079  userAdress == contractOwner */\n  0xffffffffffffffffffffffffffffffffffffffff\n  and\n    /* \"Contract.sol\":11052:11062  userAdress */\n  dup3\n    /* \"Contract.sol\":11052:11079  userAdress == contractOwner */\n  0xffffffffffffffffffffffffffffffffffffffff\n  and\n  eq\n    /* \"Contract.sol\":11045:11079  return userAdress == contractOwner */\n  swap1\n  pop\n    /* \"Contract.sol\":10858:11087  function hasAccess(address userAdress) public view returns(bool) {\r... */\n  swap2\n  swap1\n  pop\n  jump\t// out\n    /* \"#utility.yul\":7:373   */\ntag_22:\n    /* \"#utility.yul\":149:152   */\n  0x00\n    /* \"#utility.yul\":170:237   */\n  tag_24\n    /* \"#utility.yul\":234:236   */\n  0x11\n    /* \"#utility.yul\":229:232   */\n  dup4\n    /* \"#utility.yul\":170:237   */\n  tag_25\n  jump\t// in\ntag_24:\n    /* \"#utility.yul\":163:237   */\n  swap2\n  pop\n    /* \"#utility.yul\":246:339   */\n  tag_26\n    /* \"#utility.yul\":335:338   */\n  dup3\n    /* \"#utility.yul\":246:339   */\n  tag_27\n  jump\t// in\ntag_26:\n    /* \"#utility.yul\":364:366   */\n  0x20\n    /* \"#utility.yul\":359:362   */\n  dup3\n    /* \"#utility.yul\":355:367   */\n  add\n    /* \"#utility.yul\":348:367   */\n  swap1\n  pop\n    /* \"#utility.yul\":7:373   */\n  swap2\n  swap1\n  pop\n  jump\t// out\n    /* \"#utility.yul\":379:497   */\ntag_28:\n    /* \"#utility.yul\":466:490   */\n  tag_30\n    /* \"#utility.yul\":484:489   */\n  dup2\n    /* \"#utility.yul\":466:490   */\n  tag_31\n  jump\t// in\ntag_30:\n    /* \"#utility.yul\":461:464   */\n  dup3\n    /* \"#utility.yul\":454:491   */\n  mstore\n    /* \"#utility.yul\":379:497   */\n  pop\n  pop\n  jump\t// out\n    /* \"#utility.yul\":503:615   */\ntag_32:\n    /* \"#utility.yul\":586:608   */\n  tag_34\n    /* \"#utility.yul\":602:607   */\n  dup2\n    /* \"#utility.yul\":586:608   */\n  tag_35\n  jump\t// in\ntag_34:\n    /* \"#utility.yul\":581:584   */\n  dup3\n    /* \"#utility.yul\":574:609   */\n  mstore\n    /* \"#utility.yul\":503:615   */\n  pop\n  pop\n  jump\t// out\n    /* \"#utility.yul\":621:1040   */\ntag_12:\n    /* \"#utility.yul\":787:791   */\n  0x00\n    /* \"#utility.yul\":825:827   */\n  0x20\n    /* \"#utility.yul\":814:823   */\n  dup3\n    /* \"#utility.yul\":810:828   */\n  add\n    /* \"#utility.yul\":802:828   */\n  swap1\n  pop\n    /* \"#utility.yul\":874:883   */\n  dup2\n    /* \"#utility.yul\":868:872   */\n  dup2\n    /* \"#utility.yul\":864:884   */\n  sub\n    /* \"#utility.yul\":860:861   */\n  0x00\n    /* \"#utility.yul\":849:858   */\n  dup4\n    /* \"#utility.yul\":845:862   */\n  add\n    /* \"#utility.yul\":838:885   */\n  mstore\n    /* \"#utility.yul\":902:1033   */\n  tag_37\n    /* \"#utility.yul\":1028:1032   */\n  dup2\n    /* \"#utility.yul\":902:1033   */\n  tag_22\n  jump\t// in\ntag_37:\n    /* \"#utility.yul\":894:1033   */\n  swap1\n  pop\n    /* \"#utility.yul\":621:1040   */\n  swap2\n  swap1\n  pop\n  jump\t// out\n    /* \"#utility.yul\":1046:1370   */\ntag_19:\n    /* \"#utility.yul\":1163:1167   */\n  0x00\n    /* \"#utility.yul\":1201:1203   */\n  0x40\n    /* \"#utility.yul\":1190:1199   */\n  dup3\n    /* \"#utility.yul\":1186:1204   */\n  add\n    /* \"#utility.yul\":1178:1204   */\n  swap1\n  pop\n    /* \"#utility.yul\":1214:1281   */\n  tag_39\n    /* \"#utility.yul\":1278:1279   */\n  0x00\n    /* \"#utility.yul\":1267:1276   */\n  dup4\n    /* \"#utility.yul\":1263:1280   */\n  add\n    /* \"#utility.yul\":1254:1260   */\n  dup6\n    /* \"#utility.yul\":1214:1281   */\n  tag_32\n  jump\t// in\ntag_39:\n    /* \"#utility.yul\":1291:1363   */\n  tag_40\n    /* \"#utility.yul\":1359:1361   */\n  0x20\n    /* \"#utility.yul\":1348:1357   */\n  dup4\n    /* \"#utility.yul\":1344:1362   */\n  add\n    /* \"#utility.yul\":1335:1341   */\n  dup5\n    /* \"#utility.yul\":1291:1363   */\n  tag_28\n  jump\t// in\ntag_40:\n    /* \"#utility.yul\":1046:1370   */\n  swap4\n  swap3\n  pop\n  pop\n  pop\n  jump\t// out\n    /* \"#utility.yul\":1376:1545   */\ntag_25:\n    /* \"#utility.yul\":1460:1471   */\n  0x00\n    /* \"#utility.yul\":1494:1500   */\n  dup3\n    /* \"#utility.yul\":1489:1492   */\n  dup3\n    /* \"#utility.yul\":1482:1501   */\n  mstore\n    /* \"#utility.yul\":1534:1538   */\n  0x20\n    /* \"#utility.yul\":1529:1532   */\n  dup3\n    /* \"#utility.yul\":1525:1539   */\n  add\n    /* \"#utility.yul\":1510:1539   */\n  swap1\n  pop\n    /* \"#utility.yul\":1376:1545   */\n  swap3\n  swap2\n  pop\n  pop\n  jump\t// out\n    /* \"#utility.yul\":1551:1788   */\ntag_15:\n    /* \"#utility.yul\":1589:1592   */\n  0x00\n    /* \"#utility.yul\":1608:1626   */\n  tag_43\n    /* \"#utility.yul\":1624:1625   */\n  dup3\n    /* \"#utility.yul\":1608:1626   */\n  tag_35\n  jump\t// in\ntag_43:\n    /* \"#utility.yul\":1603:1626   */\n  swap2\n  pop\n    /* \"#utility.yul\":1640:1658   */\n  tag_44\n    /* \"#utility.yul\":1656:1657   */\n  dup4\n    /* \"#utility.yul\":1640:1658   */\n  tag_35\n  jump\t// in\ntag_44:\n    /* \"#utility.yul\":1635:1658   */\n  swap3\n  pop\n    /* \"#utility.yul\":1730:1731   */\n  dup3\n    /* \"#utility.yul\":1724:1728   */\n  0xff\n    /* \"#utility.yul\":1720:1732   */\n  sub\n    /* \"#utility.yul\":1717:1718   */\n  dup3\n    /* \"#utility.yul\":1714:1733   */\n  gt\n    /* \"#utility.yul\":1711:1756   */\n  iszero\n  tag_45\n  jumpi\n    /* \"#utility.yul\":1736:1754   */\n  tag_46\n  tag_47\n  jump\t// in\ntag_46:\n    /* \"#utility.yul\":1711:1756   */\ntag_45:\n    /* \"#utility.yul\":1780:1781   */\n  dup3\n    /* \"#utility.yul\":1777:1778   */\n  dup3\n    /* \"#utility.yul\":1773:1782   */\n  add\n    /* \"#utility.yul\":1766:1782   */\n  swap1\n  pop\n    /* \"#utility.yul\":1551:1788   */\n  swap3\n  swap2\n  pop\n  pop\n  jump\t// out\n    /* \"#utility.yul\":1794:1979   */\ntag_17:\n    /* \"#utility.yul\":1832:1836   */\n  0x00\n    /* \"#utility.yul\":1852:1870   */\n  tag_49\n    /* \"#utility.yul\":1868:1869   */\n  dup3\n    /* \"#utility.yul\":1852:1870   */\n  tag_35\n  jump\t// in\ntag_49:\n    /* \"#utility.yul\":1847:1870   */\n  swap2\n  pop\n    /* \"#utility.yul\":1884:1902   */\n  tag_50\n    /* \"#utility.yul\":1900:1901   */\n  dup4\n    /* \"#utility.yul\":1884:1902   */\n  tag_35\n  jump\t// in\ntag_50:\n    /* \"#utility.yul\":1879:1902   */\n  swap3\n  pop\n    /* \"#utility.yul\":1921:1922   */\n  dup3\n    /* \"#utility.yul\":1918:1919   */\n  dup3\n    /* \"#utility.yul\":1915:1923   */\n  lt\n    /* \"#utility.yul\":1912:1946   */\n  iszero\n  tag_51\n  jumpi\n    /* \"#utility.yul\":1926:1944   */\n  tag_52\n  tag_47\n  jump\t// in\ntag_52:\n    /* \"#utility.yul\":1912:1946   */\ntag_51:\n    /* \"#utility.yul\":1971:1972   */\n  dup3\n    /* \"#utility.yul\":1968:1969   */\n  dup3\n    /* \"#utility.yul\":1964:1973   */\n  sub\n    /* \"#utility.yul\":1956:1973   */\n  swap1\n  pop\n    /* \"#utility.yul\":1794:1979   */\n  swap3\n  swap2\n  pop\n  pop\n  jump\t// out\n    /* \"#utility.yul\":1985:2062   */\ntag_31:\n    /* \"#utility.yul\":2022:2029   */\n  0x00\n    /* \"#utility.yul\":2051:2056   */\n  dup2\n    /* \"#utility.yul\":2040:2056   */\n  swap1\n  pop\n    /* \"#utility.yul\":1985:2062   */\n  swap2\n  swap1\n  pop\n  jump\t// out\n    /* \"#utility.yul\":2068:2154   */\ntag_35:\n    /* \"#utility.yul\":2103:2110   */\n  0x00\n    /* \"#utility.yul\":2143:2147   */\n  0xff\n    /* \"#utility.yul\":2136:2141   */\n  dup3\n    /* \"#utility.yul\":2132:2148   */\n  and\n    /* \"#utility.yul\":2121:2148   */\n  swap1\n  pop\n    /* \"#utility.yul\":2068:2154   */\n  swap2\n  swap1\n  pop\n  jump\t// out\n    /* \"#utility.yul\":2160:2340   */\ntag_47:\n    /* \"#utility.yul\":2208:2285   */\n  0x4e487b7100000000000000000000000000000000000000000000000000000000\n    /* \"#utility.yul\":2205:2206   */\n  0x00\n    /* \"#utility.yul\":2198:2286   */\n  mstore\n    /* \"#utility.yul\":2305:2309   */\n  0x11\n    /* \"#utility.yul\":2302:2303   */\n  0x04\n    /* \"#utility.yul\":2295:2310   */\n  mstore\n    /* \"#utility.yul\":2329:2333   */\n  0x24\n    /* \"#utility.yul\":2326:2327   */\n  0x00\n    /* \"#utility.yul\":2319:2334   */\n  revert\n    /* \"#utility.yul\":2346:2513   */\ntag_27:\n    /* \"#utility.yul\":2486:2505   */\n  0x596f7520617265206e6f74206f776e6572000000000000000000000000000000\n    /* \"#utility.yul\":2482:2483   */\n  0x00\n    /* \"#utility.yul\":2474:2480   */\n  dup3\n    /* \"#utility.yul\":2470:2484   */\n  add\n    /* \"#utility.yul\":2463:2506   */\n  mstore\n    /* \"#utility.yul\":2346:2513   */\n  pop\n  jump\t// out\n    /* \"Contract.sol\":6575:16224  contract Pyramid {\r... */\ntag_6:\n  dataSize(sub_0)\n  dup1\n  dataOffset(sub_0)\n  0x00\n  codecopy\n  0x00\n  return\nstop\n\nsub_0: assembly {\n        /* \"Contract.sol\":6575:16224  contract Pyramid {\r... */\n      mstore(0x40, 0x80)\n      jumpi(tag_1, lt(calldatasize, 0x04))\n      shr(0xe0, calldataload(0x00))\n      dup1\n      0x906cbf57\n      gt\n      tag_17\n      jumpi\n      dup1\n      0xad39f0a3\n      gt\n      tag_18\n      jumpi\n      dup1\n      0xad39f0a3\n      eq\n      tag_13\n      jumpi\n      dup1\n      0xae9283b5\n      eq\n      tag_14\n      jumpi\n      dup1\n      0xbd233b91\n      eq\n      tag_15\n      jumpi\n      dup1\n      0xf1060006\n      eq\n      tag_16\n      jumpi\n      jump(tag_2)\n    tag_18:\n      dup1\n      0x906cbf57\n      eq\n      tag_10\n      jumpi\n      dup1\n      0x95a078e8\n      eq\n      tag_11\n      jumpi\n      dup1\n      0x9b0b0ae3\n      eq\n      tag_12\n      jumpi\n      jump(tag_2)\n    tag_17:\n      dup1\n      0x2e8aab9b\n      gt\n      tag_19\n      jumpi\n      dup1\n      0x2e8aab9b\n      eq\n      tag_6\n      jumpi\n      dup1\n      0x47734892\n      eq\n      tag_7\n      jumpi\n      dup1\n      0x556c9095\n      eq\n      tag_8\n      jumpi\n      dup1\n      0x78a32e21\n      eq\n      tag_9\n      jumpi\n      jump(tag_2)\n    tag_19:\n      dup1\n      0x0173c05b\n      eq\n      tag_3\n      jumpi\n      dup1\n      0x0e50cee5\n      eq\n      tag_4\n      jumpi\n      dup1\n      0x2a648c89\n      eq\n      tag_5\n      jumpi\n      jump(tag_2)\n    tag_1:\n      jumpi(tag_2, calldatasize)\n        /* \"Contract.sol\":9538:9570  _fallback(msg.sender, msg.value) */\n      tag_22\n        /* \"Contract.sol\":9548:9558  msg.sender */\n      caller\n        /* \"Contract.sol\":9560:9569  msg.value */\n      callvalue\n        /* \"Contract.sol\":9538:9547  _fallback */\n      tag_23\n        /* \"Contract.sol\":9538:9570  _fallback(msg.sender, msg.value) */\n      jump\t// in\n    tag_22:\n        /* \"Contract.sol\":6575:16224  contract Pyramid {\r... */\n      stop\n    tag_2:\n        /* \"Contract.sol\":9626:9658  _fallback(msg.sender, msg.value) */\n      tag_26\n        /* \"Contract.sol\":9636:9646  msg.sender */\n      caller\n        /* \"Contract.sol\":9648:9657  msg.value */\n      callvalue\n        /* \"Contract.sol\":9626:9635  _fallback */\n      tag_23\n        /* \"Contract.sol\":9626:9658  _fallback(msg.sender, msg.value) */\n      jump\t// in\n    tag_26:\n        /* \"Contract.sol\":6575:16224  contract Pyramid {\r... */\n      stop\n        /* \"Contract.sol\":11599:12288  function registerUserToGame(uint256 inviterId) external payable noContractAccess {\r... */\n    tag_3:\n      tag_27\n      0x04\n      dup1\n      calldatasize\n      sub\n      dup2\n      add\n      swap1\n      tag_28\n      swap2\n      swap1\n      tag_29\n      jump\t// in\n    tag_28:\n      tag_30\n      jump\t// in\n    tag_27:\n      stop\n        /* \"Contract.sol\":7656:7704  mapping (address => User) public registeredUsers */\n    tag_4:\n      callvalue\n      dup1\n      iszero\n      tag_31\n      jumpi\n      0x00\n      dup1\n      revert\n    tag_31:\n      pop\n      tag_32\n      0x04\n      dup1\n      calldatasize\n      sub\n      dup2\n      add\n      swap1\n      tag_33\n      swap2\n      swap1\n      tag_34\n      jump\t// in\n    tag_33:\n      tag_35\n      jump\t// in\n    tag_32:\n      mload(0x40)\n      tag_36\n      swap4\n      swap3\n      swap2\n      swap1\n      tag_37\n      jump\t// in\n    tag_36:\n      mload(0x40)\n      dup1\n      swap2\n      sub\n      swap1\n      return\n        /* \"Contract.sol\":8060:8121  mapping (address => mapping (uint8 => bool)) public userGames */\n    tag_5:\n      callvalue\n      dup1\n      iszero\n      tag_38\n      jumpi\n      0x00\n      dup1\n      revert\n    tag_38:\n      pop\n      tag_39\n      0x04\n      dup1\n      calldatasize\n      sub\n      dup2\n      add\n      swap1\n      tag_40\n      swap2\n      swap1\n      tag_41\n      jump\t// in\n    tag_40:\n      tag_42\n      jump\t// in\n    tag_39:\n      mload(0x40)\n      tag_43\n      swap2\n      swap1\n      tag_44\n      jump\t// in\n    tag_43:\n      mload(0x40)\n      dup1\n      swap2\n      sub\n      swap1\n      return\n        /* \"Contract.sol\":12296:12515  function joinToGame(uint8 gameId) external payable onlyRegistered {\r... */\n    tag_6:\n      tag_45\n      0x04\n      dup1\n      calldatasize\n      sub\n      dup2\n      add\n      swap1\n      tag_46\n      swap2\n      swap1\n      tag_47\n      jump\t// in\n    tag_46:\n      tag_48\n      jump\t// in\n    tag_45:\n      stop\n        /* \"Contract.sol\":11095:11214  function getUserBalance(address userAddress) public view returns(uint256) {\r... */\n    tag_7:\n      callvalue\n      dup1\n      iszero\n      tag_49\n      jumpi\n      0x00\n      dup1\n      revert\n    tag_49:\n      pop\n      tag_50\n      0x04\n      dup1\n      calldatasize\n      sub\n      dup2\n      add\n      swap1\n      tag_51\n      swap2\n      swap1\n      tag_34\n      jump\t// in\n    tag_51:\n      tag_52\n      jump\t// in\n    tag_50:\n      mload(0x40)\n      tag_53\n      swap2\n      swap1\n      tag_54\n      jump\t// in\n    tag_53:\n      mload(0x40)\n      dup1\n      swap2\n      sub\n      swap1\n      return\n        /* \"Contract.sol\":6633:6666  uint256 public currentUserIdIndex */\n    tag_8:\n      callvalue\n      dup1\n      iszero\n      tag_55\n      jumpi\n      0x00\n      dup1\n      revert\n    tag_55:\n      pop\n      tag_56\n      tag_57\n      jump\t// in\n    tag_56:\n      mload(0x40)\n      tag_58\n      swap2\n      swap1\n      tag_54\n      jump\t// in\n    tag_58:\n      mload(0x40)\n      dup1\n      swap2\n      sub\n      swap1\n      return\n        /* \"Contract.sol\":7848:7905  mapping (uint8 => mapping (uint256 => User)) public pools */\n    tag_9:\n      callvalue\n      dup1\n      iszero\n      tag_59\n      jumpi\n      0x00\n      dup1\n      revert\n    tag_59:\n      pop\n      tag_60\n      0x04\n      dup1\n      calldatasize\n      sub\n      dup2\n      add\n      swap1\n      tag_61\n      swap2\n      swap1\n      tag_62\n      jump\t// in\n    tag_61:\n      tag_63\n      jump\t// in\n    tag_60:\n      mload(0x40)\n      tag_64\n      swap4\n      swap3\n      swap2\n      swap1\n      tag_37\n      jump\t// in\n    tag_64:\n      mload(0x40)\n      dup1\n      swap2\n      sub\n      swap1\n      return\n        /* \"Contract.sol\":7409:7446  mapping (uint8 => Game) public levels */\n    tag_10:\n      callvalue\n      dup1\n      iszero\n      tag_65\n      jumpi\n      0x00\n      dup1\n      revert\n    tag_65:\n      pop\n      tag_66\n      0x04\n      dup1\n      calldatasize\n      sub\n      dup2\n      add\n      swap1\n      tag_67\n      swap2\n      swap1\n      tag_47\n      jump\t// in\n    tag_67:\n      tag_68\n      jump\t// in\n    tag_66:\n      mload(0x40)\n      tag_69\n      swap3\n      swap2\n      swap1\n      tag_70\n      jump\t// in\n    tag_69:\n      mload(0x40)\n      dup1\n      swap2\n      sub\n      swap1\n      return\n        /* \"Contract.sol\":10858:11087  function hasAccess(address userAdress) public view returns(bool) {\r... */\n    tag_11:\n      callvalue\n      dup1\n      iszero\n      tag_71\n      jumpi\n      0x00\n      dup1\n      revert\n    tag_71:\n      pop\n      tag_72\n      0x04\n      dup1\n      calldatasize\n      sub\n      dup2\n      add\n      swap1\n      tag_73\n      swap2\n      swap1\n      tag_34\n      jump\t// in\n    tag_73:\n      tag_74\n      jump\t// in\n    tag_72:\n      mload(0x40)\n      tag_75\n      swap2\n      swap1\n      tag_44\n      jump\t// in\n    tag_75:\n      mload(0x40)\n      dup1\n      swap2\n      sub\n      swap1\n      return\n        /* \"Contract.sol\":7759:7809  mapping (uint8 => uint256) public currentUserIndex */\n    tag_12:\n      callvalue\n      dup1\n      iszero\n      tag_76\n      jumpi\n      0x00\n      dup1\n      revert\n    tag_76:\n      pop\n      tag_77\n      0x04\n      dup1\n      calldatasize\n      sub\n      dup2\n      add\n      swap1\n      tag_78\n      swap2\n      swap1\n      tag_47\n      jump\t// in\n    tag_78:\n      tag_79\n      jump\t// in\n    tag_77:\n      mload(0x40)\n      tag_80\n      swap2\n      swap1\n      tag_54\n      jump\t// in\n    tag_80:\n      mload(0x40)\n      dup1\n      swap2\n      sub\n      swap1\n      return\n        /* \"Contract.sol\":6702:6733  uint8 public currentGameIdIndex */\n    tag_13:\n      callvalue\n      dup1\n      iszero\n      tag_81\n      jumpi\n      0x00\n      dup1\n      revert\n    tag_81:\n      pop\n      tag_82\n      tag_83\n      jump\t// in\n    tag_82:\n      mload(0x40)\n      tag_84\n      swap2\n      swap1\n      tag_85\n      jump\t// in\n    tag_84:\n      mload(0x40)\n      dup1\n      swap2\n      sub\n      swap1\n      return\n        /* \"Contract.sol\":11222:11591  function addGameLevel(uint256 amountToPay) public onlyOwner {\r... */\n    tag_14:\n      callvalue\n      dup1\n      iszero\n      tag_86\n      jumpi\n      0x00\n      dup1\n      revert\n    tag_86:\n      pop\n      tag_87\n      0x04\n      dup1\n      calldatasize\n      sub\n      dup2\n      add\n      swap1\n      tag_88\n      swap2\n      swap1\n      tag_29\n      jump\t// in\n    tag_88:\n      tag_89\n      jump\t// in\n    tag_87:\n      stop\n        /* \"Contract.sol\":7470:7513  mapping (uint256 => address) public usersId */\n    tag_15:\n      callvalue\n      dup1\n      iszero\n      tag_90\n      jumpi\n      0x00\n      dup1\n      revert\n    tag_90:\n      pop\n      tag_91\n      0x04\n      dup1\n      calldatasize\n      sub\n      dup2\n      add\n      swap1\n      tag_92\n      swap2\n      swap1\n      tag_29\n      jump\t// in\n    tag_92:\n      tag_93\n      jump\t// in\n    tag_91:\n      mload(0x40)\n      tag_94\n      swap2\n      swap1\n      tag_95\n      jump\t// in\n    tag_94:\n      mload(0x40)\n      dup1\n      swap2\n      sub\n      swap1\n      return\n        /* \"Contract.sol\":7947:8014  mapping (address => mapping (uint8 => uint256)) public userPayments */\n    tag_16:\n      callvalue\n      dup1\n      iszero\n      tag_96\n      jumpi\n      0x00\n      dup1\n      revert\n    tag_96:\n      pop\n      tag_97\n      0x04\n      dup1\n      calldatasize\n      sub\n      dup2\n      add\n      swap1\n      tag_98\n      swap2\n      swap1\n      tag_41\n      jump\t// in\n    tag_98:\n      tag_99\n      jump\t// in\n    tag_97:\n      mload(0x40)\n      tag_100\n      swap2\n      swap1\n      tag_54\n      jump\t// in\n    tag_100:\n      mload(0x40)\n      dup1\n      swap2\n      sub\n      swap1\n      return\n        /* \"Contract.sol\":9674:10273  function _fallback(address sender, uint256 value) internal {\r... */\n    tag_23:\n        /* \"Contract.sol\":9885:9897  bool success */\n      0x00\n        /* \"Contract.sol\":9908:9920  uint8 gameId */\n      dup1\n        /* \"Contract.sol\":9938:9949  uint8 index */\n      0x00\n        /* \"Contract.sol\":9933:10166  for (uint8 index; index < currentGameIdIndex+1; index++) {\r... */\n    tag_102:\n        /* \"Contract.sol\":9978:9979  1 */\n      0x01\n        /* \"Contract.sol\":9959:9977  currentGameIdIndex */\n      dup1\n      0x00\n      swap1\n      sload\n      swap1\n      0x0100\n      exp\n      swap1\n      div\n      0xff\n      and\n        /* \"Contract.sol\":9959:9979  currentGameIdIndex+1 */\n      tag_105\n      swap2\n      swap1\n      tag_106\n      jump\t// in\n    tag_105:\n        /* \"Contract.sol\":9951:9979  index < currentGameIdIndex+1 */\n      0xff\n      and\n        /* \"Contract.sol\":9951:9956  index */\n      dup2\n        /* \"Contract.sol\":9951:9979  index < currentGameIdIndex+1 */\n      0xff\n      and\n      lt\n        /* \"Contract.sol\":9933:10166  for (uint8 index; index < currentGameIdIndex+1; index++) {\r... */\n      iszero\n      tag_103\n      jumpi\n        /* \"Contract.sol\":10038:10047  msg.value */\n      callvalue\n        /* \"Contract.sol\":10009:10015  levels */\n      0x02\n        /* \"Contract.sol\":10009:10022  levels[index] */\n      0x00\n        /* \"Contract.sol\":10016:10021  index */\n      dup4\n        /* \"Contract.sol\":10009:10022  levels[index] */\n      0xff\n      and\n      0xff\n      and\n      dup2\n      mstore\n      0x20\n      add\n      swap1\n      dup2\n      mstore\n      0x20\n      add\n      0x00\n      keccak256\n        /* \"Contract.sol\":10009:10034  levels[index].amountToPay */\n      0x01\n      add\n      sload\n        /* \"Contract.sol\":10009:10047  levels[index].amountToPay == msg.value */\n      eq\n        /* \"Contract.sol\":10005:10155  if (levels[index].amountToPay == msg.value) {\r... */\n      iszero\n      tag_107\n      jumpi\n        /* \"Contract.sol\":10078:10082  true */\n      0x01\n        /* \"Contract.sol\":10068:10082  success = true */\n      swap3\n      pop\n        /* \"Contract.sol\":10110:10115  index */\n      dup1\n        /* \"Contract.sol\":10101:10115  gameId = index */\n      swap2\n      pop\n        /* \"Contract.sol\":10134:10139  break */\n      jump(tag_103)\n        /* \"Contract.sol\":10005:10155  if (levels[index].amountToPay == msg.value) {\r... */\n    tag_107:\n        /* \"Contract.sol\":9981:9988  index++ */\n      dup1\n      dup1\n      tag_108\n      swap1\n      tag_109\n      jump\t// in\n    tag_108:\n      swap2\n      pop\n      pop\n        /* \"Contract.sol\":9933:10166  for (uint8 index; index < currentGameIdIndex+1; index++) {\r... */\n      jump(tag_102)\n    tag_103:\n      pop\n        /* \"Contract.sol\":10194:10201  success */\n      dup2\n        /* \"Contract.sol\":10186:10220  require(success, \"Game not found\") */\n      tag_110\n      jumpi\n      mload(0x40)\n      0x08c379a000000000000000000000000000000000000000000000000000000000\n      dup2\n      mstore\n      0x04\n      add\n      tag_111\n      swap1\n      tag_112\n      jump\t// in\n    tag_111:\n      mload(0x40)\n      dup1\n      swap2\n      sub\n      swap1\n      revert\n    tag_110:\n        /* \"Contract.sol\":10231:10265  _joinToGame(gameId, sender, value) */\n      tag_113\n        /* \"Contract.sol\":10243:10249  gameId */\n      dup2\n        /* \"Contract.sol\":10251:10257  sender */\n      dup6\n        /* \"Contract.sol\":10259:10264  value */\n      dup6\n        /* \"Contract.sol\":10231:10242  _joinToGame */\n      tag_114\n        /* \"Contract.sol\":10231:10265  _joinToGame(gameId, sender, value) */\n      jump\t// in\n    tag_113:\n        /* \"Contract.sol\":9733:10273  {\r... */\n      pop\n      pop\n        /* \"Contract.sol\":9674:10273  function _fallback(address sender, uint256 value) internal {\r... */\n      pop\n      pop\n      jump\t// out\n        /* \"Contract.sol\":11599:12288  function registerUserToGame(uint256 inviterId) external payable noContractAccess {\r... */\n    tag_30:\n        /* \"Contract.sol\":8887:8898  uint32 size */\n      0x00\n        /* \"Contract.sol\":8909:8923  address sender */\n      dup1\n        /* \"Contract.sol\":8926:8936  msg.sender */\n      caller\n        /* \"Contract.sol\":8909:8936  address sender = msg.sender */\n      swap1\n      pop\n        /* \"Contract.sol\":8978:8984  sender */\n      dup1\n        /* \"Contract.sol\":8966:8985  extcodesize(sender) */\n      extcodesize\n        /* \"Contract.sol\":8958:8985  size := extcodesize(sender) */\n      swap2\n      pop\n        /* \"Contract.sol\":9016:9017  0 */\n      0x00\n        /* \"Contract.sol\":9009:9013  size */\n      dup3\n        /* \"Contract.sol\":9009:9017  size > 0 */\n      0xffffffff\n      and\n      gt\n        /* \"Contract.sol\":9007:9018  !(size > 0) */\n      iszero\n        /* \"Contract.sol\":8999:9035  require(!(size > 0), \"No contracts\") */\n      tag_116\n      jumpi\n      mload(0x40)\n      0x08c379a000000000000000000000000000000000000000000000000000000000\n      dup2\n      mstore\n      0x04\n      add\n      tag_117\n      swap1\n      tag_118\n      jump\t// in\n    tag_117:\n      mload(0x40)\n      dup1\n      swap2\n      sub\n      swap1\n      revert\n    tag_116:\n        /* \"Contract.sol\":11829:11830  0 */\n      0x00\n        /* \"Contract.sol\":11778:11831  registeredUsers[msg.sender].userAddress == address(0) */\n      0xffffffffffffffffffffffffffffffffffffffff\n      and\n        /* \"Contract.sol\":11778:11793  registeredUsers */\n      0x05\n        /* \"Contract.sol\":11778:11805  registeredUsers[msg.sender] */\n      0x00\n        /* \"Contract.sol\":11794:11804  msg.sender */\n      caller\n        /* \"Contract.sol\":11778:11805  registeredUsers[msg.sender] */\n      0xffffffffffffffffffffffffffffffffffffffff\n      and\n      0xffffffffffffffffffffffffffffffffffffffff\n      and\n      dup2\n      mstore\n      0x20\n      add\n      swap1\n      dup2\n      mstore\n      0x20\n      add\n      0x00\n      keccak256\n        /* \"Contract.sol\":11778:11817  registeredUsers[msg.sender].userAddress */\n      0x01\n      add\n      0x00\n      swap1\n      sload\n      swap1\n      0x0100\n      exp\n      swap1\n      div\n      0xffffffffffffffffffffffffffffffffffffffff\n      and\n        /* \"Contract.sol\":11778:11831  registeredUsers[msg.sender].userAddress == address(0) */\n      0xffffffffffffffffffffffffffffffffffffffff\n      and\n      eq\n        /* \"Contract.sol\":11770:11862  require(registeredUsers[msg.sender].userAddress == address(0), \"You are already registered\") */\n      tag_120\n      jumpi\n      mload(0x40)\n      0x08c379a000000000000000000000000000000000000000000000000000000000\n      dup2\n      mstore\n      0x04\n      add\n      tag_121\n      swap1\n      tag_122\n      jump\t// in\n    tag_121:\n      mload(0x40)\n      dup1\n      swap2\n      sub\n      swap1\n      revert\n    tag_120:\n        /* \"Contract.sol\":11895:11902  1 ether */\n      0x0de0b6b3a7640000\n        /* \"Contract.sol\":11882:11891  msg.value */\n      callvalue\n        /* \"Contract.sol\":11882:11902  msg.value == 1 ether */\n      eq\n        /* \"Contract.sol\":11873:11947  require (msg.value == 1 ether, \"For regiter in game you need pay 1 ether\") */\n      tag_123\n      jumpi\n      mload(0x40)\n      0x08c379a000000000000000000000000000000000000000000000000000000000\n      dup2\n      mstore\n      0x04\n      add\n      tag_124\n      swap1\n      tag_125\n      jump\t// in\n    tag_124:\n      mload(0x40)\n      dup1\n      swap2\n      sub\n      swap1\n      revert\n    tag_123:\n        /* \"Contract.sol\":11990:12046  User(currentUserIdIndex, payable(msg.sender), inviterId) */\n      mload(0x40)\n      dup1\n      0x60\n      add\n      0x40\n      mstore\n      dup1\n        /* \"Contract.sol\":11995:12013  currentUserIdIndex */\n      sload(0x00)\n        /* \"Contract.sol\":11990:12046  User(currentUserIdIndex, payable(msg.sender), inviterId) */\n      dup2\n      mstore\n      0x20\n      add\n        /* \"Contract.sol\":12023:12033  msg.sender */\n      caller\n        /* \"Contract.sol\":11990:12046  User(currentUserIdIndex, payable(msg.sender), inviterId) */\n      0xffffffffffffffffffffffffffffffffffffffff\n      and\n      dup2\n      mstore\n      0x20\n      add\n        /* \"Contract.sol\":12036:12045  inviterId */\n      dup5\n        /* \"Contract.sol\":11990:12046  User(currentUserIdIndex, payable(msg.sender), inviterId) */\n      dup2\n      mstore\n      pop\n        /* \"Contract.sol\":11960:11975  registeredUsers */\n      0x05\n        /* \"Contract.sol\":11960:11987  registeredUsers[msg.sender] */\n      0x00\n        /* \"Contract.sol\":11976:11986  msg.sender */\n      caller\n        /* \"Contract.sol\":11960:11987  registeredUsers[msg.sender] */\n      0xffffffffffffffffffffffffffffffffffffffff\n      and\n      0xffffffffffffffffffffffffffffffffffffffff\n      and\n      dup2\n      mstore\n      0x20\n      add\n      swap1\n      dup2\n      mstore\n      0x20\n      add\n      0x00\n      keccak256\n        /* \"Contract.sol\":11960:12046  registeredUsers[msg.sender] = User(currentUserIdIndex, payable(msg.sender), inviterId) */\n      0x00\n      dup3\n      add\n      mload\n      dup2\n      0x00\n      add\n      sstore\n      0x20\n      dup3\n      add\n      mload\n      dup2\n      0x01\n      add\n      exp(0x0100, 0x00)\n      dup2\n      sload\n      dup2\n      0xffffffffffffffffffffffffffffffffffffffff\n      mul\n      not\n      and\n      swap1\n      dup4\n      0xffffffffffffffffffffffffffffffffffffffff\n      and\n      mul\n      or\n      swap1\n      sstore\n      pop\n      0x40\n      dup3\n      add\n      mload\n      dup2\n      0x02\n      add\n      sstore\n      swap1\n      pop\n      pop\n        /* \"Contract.sol\":12087:12097  msg.sender */\n      caller\n        /* \"Contract.sol\":12057:12064  usersId */\n      0x03\n        /* \"Contract.sol\":12057:12084  usersId[currentUserIdIndex] */\n      0x00\n        /* \"Contract.sol\":12065:12083  currentUserIdIndex */\n      dup1\n      sload\n        /* \"Contract.sol\":12057:12084  usersId[currentUserIdIndex] */\n      dup2\n      mstore\n      0x20\n      add\n      swap1\n      dup2\n      mstore\n      0x20\n      add\n      0x00\n      keccak256\n      0x00\n        /* \"Contract.sol\":12057:12097  usersId[currentUserIdIndex] = msg.sender */\n      0x0100\n      exp\n      dup2\n      sload\n      dup2\n      0xffffffffffffffffffffffffffffffffffffffff\n      mul\n      not\n      and\n      swap1\n      dup4\n      0xffffffffffffffffffffffffffffffffffffffff\n      and\n      mul\n      or\n      swap1\n      sstore\n      pop\n        /* \"Contract.sol\":12130:12131  1 */\n      0x01\n        /* \"Contract.sol\":12108:12126  currentUserIdIndex */\n      0x00\n      dup1\n        /* \"Contract.sol\":12108:12131  currentUserIdIndex += 1 */\n      dup3\n      dup3\n      sload\n      tag_126\n      swap2\n      swap1\n      tag_127\n      jump\t// in\n    tag_126:\n      swap3\n      pop\n      pop\n      dup2\n      swap1\n      sstore\n      pop\n        /* \"Contract.sol\":12174:12175  1 */\n      0x01\n        /* \"Contract.sol\":12142:12159  userPartnersCount */\n      0x04\n        /* \"Contract.sol\":12142:12170  userPartnersCount[inviterId] */\n      0x00\n        /* \"Contract.sol\":12160:12169  inviterId */\n      dup6\n        /* \"Contract.sol\":12142:12170  userPartnersCount[inviterId] */\n      dup2\n      mstore\n      0x20\n      add\n      swap1\n      dup2\n      mstore\n      0x20\n      add\n      0x00\n      keccak256\n      0x00\n        /* \"Contract.sol\":12142:12175  userPartnersCount[inviterId] += 1 */\n      dup3\n      dup3\n      sload\n      tag_128\n      swap2\n      swap1\n      tag_127\n      jump\t// in\n    tag_128:\n      swap3\n      pop\n      pop\n      dup2\n      swap1\n      sstore\n      pop\n        /* \"Contract.sol\":12193:12280  NewUserRegisteredEvent(currentUserIdIndex - 1, inviterId, userPartnersCount[inviterId]) */\n      0x12888a3214fa3b6d599e2a7d3ff41e8aa7ef1295fe3ba5d428825df6da086885\n        /* \"Contract.sol\":12237:12238  1 */\n      0x01\n        /* \"Contract.sol\":12216:12234  currentUserIdIndex */\n      sload(0x00)\n        /* \"Contract.sol\":12216:12238  currentUserIdIndex - 1 */\n      tag_129\n      swap2\n      swap1\n      tag_130\n      jump\t// in\n    tag_129:\n        /* \"Contract.sol\":12240:12249  inviterId */\n      dup5\n        /* \"Contract.sol\":12251:12268  userPartnersCount */\n      0x04\n        /* \"Contract.sol\":12251:12279  userPartnersCount[inviterId] */\n      0x00\n        /* \"Contract.sol\":12269:12278  inviterId */\n      dup8\n        /* \"Contract.sol\":12251:12279  userPartnersCount[inviterId] */\n      dup2\n      mstore\n      0x20\n      add\n      swap1\n      dup2\n      mstore\n      0x20\n      add\n      0x00\n      keccak256\n      sload\n        /* \"Contract.sol\":12193:12280  NewUserRegisteredEvent(currentUserIdIndex - 1, inviterId, userPartnersCount[inviterId]) */\n      mload(0x40)\n      tag_131\n      swap4\n      swap3\n      swap2\n      swap1\n      tag_132\n      jump\t// in\n    tag_131:\n      mload(0x40)\n      dup1\n      swap2\n      sub\n      swap1\n      log1\n        /* \"Contract.sol\":8809:9055  {\r... */\n      pop\n      pop\n        /* \"Contract.sol\":11599:12288  function registerUserToGame(uint256 inviterId) external payable noContractAccess {\r... */\n      pop\n      jump\t// out\n        /* \"Contract.sol\":7656:7704  mapping (address => User) public registeredUsers */\n    tag_35:\n      mstore(0x20, 0x05)\n      dup1\n      0x00\n      mstore\n      keccak256(0x00, 0x40)\n      0x00\n      swap2\n      pop\n      swap1\n      pop\n      dup1\n      0x00\n      add\n      sload\n      swap1\n      dup1\n      0x01\n      add\n      0x00\n      swap1\n      sload\n      swap1\n      0x0100\n      exp\n      swap1\n      div\n      0xffffffffffffffffffffffffffffffffffffffff\n      and\n      swap1\n      dup1\n      0x02\n      add\n      sload\n      swap1\n      pop\n      dup4\n      jump\t// out\n        /* \"Contract.sol\":8060:8121  mapping (address => mapping (uint8 => bool)) public userGames */\n    tag_42:\n      mstore(0x20, 0x09)\n      dup2\n      0x00\n      mstore\n      mstore(0x20, keccak256(0x00, 0x40))\n      dup1\n      0x00\n      mstore\n      keccak256(0x00, 0x40)\n      0x00\n      swap2\n      pop\n      swap2\n      pop\n      swap1\n      sload\n      swap1\n      0x0100\n      exp\n      swap1\n      div\n      0xff\n      and\n      dup2\n      jump\t// out\n        /* \"Contract.sol\":12296:12515  function joinToGame(uint8 gameId) external payable onlyRegistered {\r... */\n    tag_48:\n        /* \"Contract.sol\":8752:8753  0 */\n      0x00\n        /* \"Contract.sol\":8701:8754  registeredUsers[msg.sender].userAddress != address(0) */\n      0xffffffffffffffffffffffffffffffffffffffff\n      and\n        /* \"Contract.sol\":8701:8716  registeredUsers */\n      0x05\n        /* \"Contract.sol\":8701:8728  registeredUsers[msg.sender] */\n      0x00\n        /* \"Contract.sol\":8717:8727  msg.sender */\n      caller\n        /* \"Contract.sol\":8701:8728  registeredUsers[msg.sender] */\n      0xffffffffffffffffffffffffffffffffffffffff\n      and\n      0xffffffffffffffffffffffffffffffffffffffff\n      and\n      dup2\n      mstore\n      0x20\n      add\n      swap1\n      dup2\n      mstore\n      0x20\n      add\n      0x00\n      keccak256\n        /* \"Contract.sol\":8701:8740  registeredUsers[msg.sender].userAddress */\n      0x01\n      add\n      0x00\n      swap1\n      sload\n      swap1\n      0x0100\n      exp\n      swap1\n      div\n      0xffffffffffffffffffffffffffffffffffffffff\n      and\n        /* \"Contract.sol\":8701:8754  registeredUsers[msg.sender].userAddress != address(0) */\n      0xffffffffffffffffffffffffffffffffffffffff\n      and\n      eq\n      iszero\n        /* \"Contract.sol\":8693:8755  require(registeredUsers[msg.sender].userAddress != address(0)) */\n      tag_134\n      jumpi\n      0x00\n      dup1\n      revert\n    tag_134:\n        /* \"Contract.sol\":12465:12507  _joinToGame(gameId, msg.sender, msg.value) */\n      tag_136\n        /* \"Contract.sol\":12477:12483  gameId */\n      dup2\n        /* \"Contract.sol\":12485:12495  msg.sender */\n      caller\n        /* \"Contract.sol\":12497:12506  msg.value */\n      callvalue\n        /* \"Contract.sol\":12465:12476  _joinToGame */\n      tag_114\n        /* \"Contract.sol\":12465:12507  _joinToGame(gameId, msg.sender, msg.value) */\n      jump\t// in\n    tag_136:\n        /* \"Contract.sol\":12296:12515  function joinToGame(uint8 gameId) external payable onlyRegistered {\r... */\n      pop\n      jump\t// out\n        /* \"Contract.sol\":11095:11214  function getUserBalance(address userAddress) public view returns(uint256) {\r... */\n    tag_52:\n        /* \"Contract.sol\":11160:11167  uint256 */\n      0x00\n        /* \"Contract.sol\":11187:11198  userAddress */\n      dup2\n        /* \"Contract.sol\":11187:11206  userAddress.balance */\n      0xffffffffffffffffffffffffffffffffffffffff\n      and\n      balance\n        /* \"Contract.sol\":11180:11206  return userAddress.balance */\n      swap1\n      pop\n        /* \"Contract.sol\":11095:11214  function getUserBalance(address userAddress) public view returns(uint256) {\r... */\n      swap2\n      swap1\n      pop\n      jump\t// out\n        /* \"Contract.sol\":6633:6666  uint256 public currentUserIdIndex */\n    tag_57:\n      sload(0x00)\n      dup2\n      jump\t// out\n        /* \"Contract.sol\":7848:7905  mapping (uint8 => mapping (uint256 => User)) public pools */\n    tag_63:\n      mstore(0x20, 0x07)\n      dup2\n      0x00\n      mstore\n      mstore(0x20, keccak256(0x00, 0x40))\n      dup1\n      0x00\n      mstore\n      keccak256(0x00, 0x40)\n      0x00\n      swap2\n      pop\n      swap2\n      pop\n      pop\n      dup1\n      0x00\n      add\n      sload\n      swap1\n      dup1\n      0x01\n      add\n      0x00\n      swap1\n      sload\n      swap1\n      0x0100\n      exp\n      swap1\n      div\n      0xffffffffffffffffffffffffffffffffffffffff\n      and\n      swap1\n      dup1\n      0x02\n      add\n      sload\n      swap1\n      pop\n      dup4\n      jump\t// out\n        /* \"Contract.sol\":7409:7446  mapping (uint8 => Game) public levels */\n    tag_68:\n      mstore(0x20, 0x02)\n      dup1\n      0x00\n      mstore\n      keccak256(0x00, 0x40)\n      0x00\n      swap2\n      pop\n      swap1\n      pop\n      dup1\n      0x00\n      add\n      0x00\n      swap1\n      sload\n      swap1\n      0x0100\n      exp\n      swap1\n      div\n      0xff\n      and\n      swap1\n      dup1\n      0x01\n      add\n      sload\n      swap1\n      pop\n      dup3\n      jump\t// out\n        /* \"Contract.sol\":10858:11087  function hasAccess(address userAdress) public view returns(bool) {\r... */\n    tag_74:\n        /* \"Contract.sol\":10917:10921  bool */\n      0x00\n        /* \"Contract.sol\":11066:11079  contractOwner */\n      0x01\n      dup1\n      sload\n      swap1\n      0x0100\n      exp\n      swap1\n      div\n      0xffffffffffffffffffffffffffffffffffffffff\n      and\n        /* \"Contract.sol\":11052:11079  userAdress == contractOwner */\n      0xffffffffffffffffffffffffffffffffffffffff\n      and\n        /* \"Contract.sol\":11052:11062  userAdress */\n      dup3\n        /* \"Contract.sol\":11052:11079  userAdress == contractOwner */\n      0xffffffffffffffffffffffffffffffffffffffff\n      and\n      eq\n        /* \"Contract.sol\":11045:11079  return userAdress == contractOwner */\n      swap1\n      pop\n        /* \"Contract.sol\":10858:11087  function hasAccess(address userAdress) public view returns(bool) {\r... */\n      swap2\n      swap1\n      pop\n      jump\t// out\n        /* \"Contract.sol\":7759:7809  mapping (uint8 => uint256) public currentUserIndex */\n    tag_79:\n      mstore(0x20, 0x06)\n      dup1\n      0x00\n      mstore\n      keccak256(0x00, 0x40)\n      0x00\n      swap2\n      pop\n      swap1\n      pop\n      sload\n      dup2\n      jump\t// out\n        /* \"Contract.sol\":6702:6733  uint8 public currentGameIdIndex */\n    tag_83:\n      0x01\n      0x00\n      swap1\n      sload\n      swap1\n      0x0100\n      exp\n      swap1\n      div\n      0xff\n      and\n      dup2\n      jump\t// out\n        /* \"Contract.sol\":11222:11591  function addGameLevel(uint256 amountToPay) public onlyOwner {\r... */\n    tag_89:\n        /* \"Contract.sol\":9161:9182  hasAccess(msg.sender) */\n      tag_140\n        /* \"Contract.sol\":9171:9181  msg.sender */\n      caller\n        /* \"Contract.sol\":9161:9170  hasAccess */\n      tag_74\n        /* \"Contract.sol\":9161:9182  hasAccess(msg.sender) */\n      jump\t// in\n    tag_140:\n        /* \"Contract.sol\":9153:9204  require(hasAccess(msg.sender), \"You are not owner\") */\n      tag_141\n      jumpi\n      mload(0x40)\n      0x08c379a000000000000000000000000000000000000000000000000000000000\n      dup2\n      mstore\n      0x04\n      add\n      tag_142\n      swap1\n      tag_143\n      jump\t// in\n    tag_142:\n      mload(0x40)\n      dup1\n      swap2\n      sub\n      swap1\n      revert\n    tag_141:\n        /* \"Contract.sol\":11427:11489  Game({ gameId: currentGameIdIndex, amountToPay: amountToPay }) */\n      mload(0x40)\n      dup1\n      0x40\n      add\n      0x40\n      mstore\n      dup1\n        /* \"Contract.sol\":11442:11460  currentGameIdIndex */\n      0x01\n      0x00\n      swap1\n      sload\n      swap1\n      0x0100\n      exp\n      swap1\n      div\n      0xff\n      and\n        /* \"Contract.sol\":11427:11489  Game({ gameId: currentGameIdIndex, amountToPay: amountToPay }) */\n      0xff\n      and\n      dup2\n      mstore\n      0x20\n      add\n        /* \"Contract.sol\":11475:11486  amountToPay */\n      dup3\n        /* \"Contract.sol\":11427:11489  Game({ gameId: currentGameIdIndex, amountToPay: amountToPay }) */\n      dup2\n      mstore\n      pop\n        /* \"Contract.sol\":11398:11404  levels */\n      0x02\n        /* \"Contract.sol\":11398:11424  levels[currentGameIdIndex] */\n      0x00\n        /* \"Contract.sol\":11405:11423  currentGameIdIndex */\n      0x01\n      0x00\n      swap1\n      sload\n      swap1\n      0x0100\n      exp\n      swap1\n      div\n      0xff\n      and\n        /* \"Contract.sol\":11398:11424  levels[currentGameIdIndex] */\n      0xff\n      and\n      0xff\n      and\n      dup2\n      mstore\n      0x20\n      add\n      swap1\n      dup2\n      mstore\n      0x20\n      add\n      0x00\n      keccak256\n        /* \"Contract.sol\":11398:11489  levels[currentGameIdIndex] = Game({ gameId: currentGameIdIndex, amountToPay: amountToPay }) */\n      0x00\n      dup3\n      add\n      mload\n      dup2\n      0x00\n      add\n      exp(0x0100, 0x00)\n      dup2\n      sload\n      dup2\n      0xff\n      mul\n      not\n      and\n      swap1\n      dup4\n      0xff\n      and\n      mul\n      or\n      swap1\n      sstore\n      pop\n      0x20\n      dup3\n      add\n      mload\n      dup2\n      0x01\n      add\n      sstore\n      swap1\n      pop\n      pop\n        /* \"Contract.sol\":11522:11523  1 */\n      0x01\n        /* \"Contract.sol\":11500:11518  currentGameIdIndex */\n      dup1\n      0x00\n        /* \"Contract.sol\":11500:11523  currentGameIdIndex += 1 */\n      dup3\n      dup3\n      dup3\n      swap1\n      sload\n      swap1\n      0x0100\n      exp\n      swap1\n      div\n      0xff\n      and\n      tag_145\n      swap2\n      swap1\n      tag_106\n      jump\t// in\n    tag_145:\n      swap3\n      pop\n      0x0100\n      exp\n      dup2\n      sload\n      dup2\n      0xff\n      mul\n      not\n      and\n      swap1\n      dup4\n      0xff\n      and\n      mul\n      or\n      swap1\n      sstore\n      pop\n        /* \"Contract.sol\":11539:11583  NewGame( currentGameIdIndex-1, amountToPay ) */\n      0xcf1ed532d6b83b4290f2f407b156b17826f49752e7a8ff360f502c307e055663\n        /* \"Contract.sol\":11567:11568  1 */\n      0x01\n        /* \"Contract.sol\":11548:11566  currentGameIdIndex */\n      dup1\n      0x00\n      swap1\n      sload\n      swap1\n      0x0100\n      exp\n      swap1\n      div\n      0xff\n      and\n        /* \"Contract.sol\":11548:11568  currentGameIdIndex-1 */\n      tag_146\n      swap2\n      swap1\n      tag_147\n      jump\t// in\n    tag_146:\n        /* \"Contract.sol\":11570:11581  amountToPay */\n      dup3\n        /* \"Contract.sol\":11539:11583  NewGame( currentGameIdIndex-1, amountToPay ) */\n      mload(0x40)\n      tag_148\n      swap3\n      swap2\n      swap1\n      tag_70\n      jump\t// in\n    tag_148:\n      mload(0x40)\n      dup1\n      swap2\n      sub\n      swap1\n      log1\n        /* \"Contract.sol\":11222:11591  function addGameLevel(uint256 amountToPay) public onlyOwner {\r... */\n      pop\n      jump\t// out\n        /* \"Contract.sol\":7470:7513  mapping (uint256 => address) public usersId */\n    tag_93:\n      mstore(0x20, 0x03)\n      dup1\n      0x00\n      mstore\n      keccak256(0x00, 0x40)\n      0x00\n      swap2\n      pop\n      sload\n      swap1\n      0x0100\n      exp\n      swap1\n      div\n      0xffffffffffffffffffffffffffffffffffffffff\n      and\n      dup2\n      jump\t// out\n        /* \"Contract.sol\":7947:8014  mapping (address => mapping (uint8 => uint256)) public userPayments */\n    tag_99:\n      mstore(0x20, 0x08)\n      dup2\n      0x00\n      mstore\n      mstore(0x20, keccak256(0x00, 0x40))\n      dup1\n      0x00\n      mstore\n      keccak256(0x00, 0x40)\n      0x00\n      swap2\n      pop\n      swap2\n      pop\n      pop\n      sload\n      dup2\n      jump\t// out\n        /* \"Contract.sol\":12523:16221  function _joinToGame(uint8 gameId, address sender, uint256 value) internal {\r... */\n    tag_114:\n        /* \"Contract.sol\":12627:12633  levels */\n      0x02\n        /* \"Contract.sol\":12627:12641  levels[gameId] */\n      0x00\n        /* \"Contract.sol\":12634:12640  gameId */\n      dup5\n        /* \"Contract.sol\":12627:12641  levels[gameId] */\n      0xff\n      and\n      0xff\n      and\n      dup2\n      mstore\n      0x20\n      add\n      swap1\n      dup2\n      mstore\n      0x20\n      add\n      0x00\n      keccak256\n        /* \"Contract.sol\":12627:12653  levels[gameId].amountToPay */\n      0x01\n      add\n      sload\n        /* \"Contract.sol\":12618:12623  value */\n      dup2\n        /* \"Contract.sol\":12618:12653  value >= levels[gameId].amountToPay */\n      lt\n      iszero\n        /* \"Contract.sol\":12609:12693  require (value >= levels[gameId].amountToPay, \"Insufficient amount of contribution\") */\n      tag_150\n      jumpi\n      mload(0x40)\n      0x08c379a000000000000000000000000000000000000000000000000000000000\n      dup2\n      mstore\n      0x04\n      add\n      tag_151\n      swap1\n      tag_152\n      jump\t// in\n    tag_151:\n      mload(0x40)\n      dup1\n      swap2\n      sub\n      swap1\n      revert\n    tag_150:\n        /* \"Contract.sol\":12868:12883  registeredUsers */\n      0x05\n        /* \"Contract.sol\":12868:12891  registeredUsers[sender] */\n      0x00\n        /* \"Contract.sol\":12884:12890  sender */\n      dup4\n        /* \"Contract.sol\":12868:12891  registeredUsers[sender] */\n      0xffffffffffffffffffffffffffffffffffffffff\n      and\n      0xffffffffffffffffffffffffffffffffffffffff\n      and\n      dup2\n      mstore\n      0x20\n      add\n      swap1\n      dup2\n      mstore\n      0x20\n      add\n      0x00\n      keccak256\n        /* \"Contract.sol\":12826:12831  pools */\n      0x07\n        /* \"Contract.sol\":12826:12839  pools[gameId] */\n      0x00\n        /* \"Contract.sol\":12832:12838  gameId */\n      dup6\n        /* \"Contract.sol\":12826:12839  pools[gameId] */\n      0xff\n      and\n      0xff\n      and\n      dup2\n      mstore\n      0x20\n      add\n      swap1\n      dup2\n      mstore\n      0x20\n      add\n      0x00\n      keccak256\n        /* \"Contract.sol\":12826:12865  pools[gameId][currentUserIndex[gameId]] */\n      0x00\n        /* \"Contract.sol\":12840:12856  currentUserIndex */\n      0x06\n        /* \"Contract.sol\":12840:12864  currentUserIndex[gameId] */\n      0x00\n        /* \"Contract.sol\":12857:12863  gameId */\n      dup8\n        /* \"Contract.sol\":12840:12864  currentUserIndex[gameId] */\n      0xff\n      and\n      0xff\n      and\n      dup2\n      mstore\n      0x20\n      add\n      swap1\n      dup2\n      mstore\n      0x20\n      add\n      0x00\n      keccak256\n      sload\n        /* \"Contract.sol\":12826:12865  pools[gameId][currentUserIndex[gameId]] */\n      dup2\n      mstore\n      0x20\n      add\n      swap1\n      dup2\n      mstore\n      0x20\n      add\n      0x00\n      keccak256\n        /* \"Contract.sol\":12826:12891  pools[gameId][currentUserIndex[gameId]] = registeredUsers[sender] */\n      0x00\n      dup3\n      add\n      sload\n      dup2\n      0x00\n      add\n      sstore\n      0x01\n      dup3\n      add\n      0x00\n      swap1\n      sload\n      swap1\n      0x0100\n      exp\n      swap1\n      div\n      0xffffffffffffffffffffffffffffffffffffffff\n      and\n      dup2\n      0x01\n      add\n      exp(0x0100, 0x00)\n      dup2\n      sload\n      dup2\n      0xffffffffffffffffffffffffffffffffffffffff\n      mul\n      not\n      and\n      swap1\n      dup4\n      0xffffffffffffffffffffffffffffffffffffffff\n      and\n      mul\n      or\n      swap1\n      sstore\n      pop\n      0x02\n      dup3\n      add\n      sload\n      dup2\n      0x02\n      add\n      sstore\n      swap1\n      pop\n      pop\n        /* \"Contract.sol\":12930:12934  true */\n      0x01\n        /* \"Contract.sol\":12902:12911  userGames */\n      0x09\n        /* \"Contract.sol\":12902:12919  userGames[sender] */\n      0x00\n        /* \"Contract.sol\":12912:12918  sender */\n      dup5\n        /* \"Contract.sol\":12902:12919  userGames[sender] */\n      0xffffffffffffffffffffffffffffffffffffffff\n      and\n      0xffffffffffffffffffffffffffffffffffffffff\n      and\n      dup2\n      mstore\n      0x20\n      add\n      swap1\n      dup2\n      mstore\n      0x20\n      add\n      0x00\n      keccak256\n        /* \"Contract.sol\":12902:12927  userGames[sender][gameId] */\n      0x00\n        /* \"Contract.sol\":12920:12926  gameId */\n      dup6\n        /* \"Contract.sol\":12902:12927  userGames[sender][gameId] */\n      0xff\n      and\n      0xff\n      and\n      dup2\n      mstore\n      0x20\n      add\n      swap1\n      dup2\n      mstore\n      0x20\n      add\n      0x00\n      keccak256\n      0x00\n        /* \"Contract.sol\":12902:12934  userGames[sender][gameId] = true */\n      0x0100\n      exp\n      dup2\n      sload\n      dup2\n      0xff\n      mul\n      not\n      and\n      swap1\n      dup4\n      iszero\n      iszero\n      mul\n      or\n      swap1\n      sstore\n      pop\n        /* \"Contract.sol\":12973:12974  1 */\n      0x01\n        /* \"Contract.sol\":12945:12961  currentUserIndex */\n      0x06\n        /* \"Contract.sol\":12945:12969  currentUserIndex[gameId] */\n      0x00\n        /* \"Contract.sol\":12962:12968  gameId */\n      dup6\n        /* \"Contract.sol\":12945:12969  currentUserIndex[gameId] */\n      0xff\n      and\n      0xff\n      and\n      dup2\n      mstore\n      0x20\n      add\n      swap1\n      dup2\n      mstore\n      0x20\n      add\n      0x00\n      keccak256\n      0x00\n        /* \"Contract.sol\":12945:12974  currentUserIndex[gameId] += 1 */\n      dup3\n      dup3\n      sload\n      tag_153\n      swap2\n      swap1\n      tag_127\n      jump\t// in\n    tag_153:\n      swap3\n      pop\n      pop\n      dup2\n      swap1\n      sstore\n      pop\n        /* \"Contract.sol\":13118:13119  3 */\n      0x03\n        /* \"Contract.sol\":13090:13106  currentUserIndex */\n      0x06\n        /* \"Contract.sol\":13090:13114  currentUserIndex[gameId] */\n      0x00\n        /* \"Contract.sol\":13107:13113  gameId */\n      dup6\n        /* \"Contract.sol\":13090:13114  currentUserIndex[gameId] */\n      0xff\n      and\n      0xff\n      and\n      dup2\n      mstore\n      0x20\n      add\n      swap1\n      dup2\n      mstore\n      0x20\n      add\n      0x00\n      keccak256\n      sload\n        /* \"Contract.sol\":13090:13119  currentUserIndex[gameId] >= 3 */\n      lt\n        /* \"Contract.sol\":13086:16214  if (currentUserIndex[gameId] >= 3) {\r... */\n      tag_154\n      jumpi\n        /* \"Contract.sol\":13136:13153  uint256 userIndex */\n      0x00\n        /* \"Contract.sol\":13156:13201  culcNextWinnerIndex(currentUserIndex[gameId]) */\n      tag_155\n        /* \"Contract.sol\":13176:13192  currentUserIndex */\n      0x06\n        /* \"Contract.sol\":13176:13200  currentUserIndex[gameId] */\n      0x00\n        /* \"Contract.sol\":13193:13199  gameId */\n      dup7\n        /* \"Contract.sol\":13176:13200  currentUserIndex[gameId] */\n      0xff\n      and\n      0xff\n      and\n      dup2\n      mstore\n      0x20\n      add\n      swap1\n      dup2\n      mstore\n      0x20\n      add\n      0x00\n      keccak256\n      sload\n        /* \"Contract.sol\":13156:13175  culcNextWinnerIndex */\n      tag_156\n        /* \"Contract.sol\":13156:13201  culcNextWinnerIndex(currentUserIndex[gameId]) */\n      jump\t// in\n    tag_155:\n        /* \"Contract.sol\":13136:13201  uint256 userIndex = culcNextWinnerIndex(currentUserIndex[gameId]) */\n      swap1\n      pop\n        /* \"Contract.sol\":13342:16203  while (userIndex != 0) {\r... */\n    tag_157:\n        /* \"Contract.sol\":13362:13363  0 */\n      0x00\n        /* \"Contract.sol\":13349:13358  userIndex */\n      dup2\n        /* \"Contract.sol\":13349:13363  userIndex != 0 */\n      eq\n        /* \"Contract.sol\":13342:16203  while (userIndex != 0) {\r... */\n      tag_158\n      jumpi\n        /* \"Contract.sol\":13384:13407  address selectedAddress */\n      0x00\n        /* \"Contract.sol\":13410:13415  pools */\n      0x07\n        /* \"Contract.sol\":13410:13423  pools[gameId] */\n      0x00\n        /* \"Contract.sol\":13416:13422  gameId */\n      dup7\n        /* \"Contract.sol\":13410:13423  pools[gameId] */\n      0xff\n      and\n      0xff\n      and\n      dup2\n      mstore\n      0x20\n      add\n      swap1\n      dup2\n      mstore\n      0x20\n      add\n      0x00\n      keccak256\n        /* \"Contract.sol\":13410:13438  pools[gameId][userIndex - 1] */\n      0x00\n        /* \"Contract.sol\":13436:13437  1 */\n      0x01\n        /* \"Contract.sol\":13424:13433  userIndex */\n      dup5\n        /* \"Contract.sol\":13424:13437  userIndex - 1 */\n      tag_159\n      swap2\n      swap1\n      tag_130\n      jump\t// in\n    tag_159:\n        /* \"Contract.sol\":13410:13438  pools[gameId][userIndex - 1] */\n      dup2\n      mstore\n      0x20\n      add\n      swap1\n      dup2\n      mstore\n      0x20\n      add\n      0x00\n      keccak256\n        /* \"Contract.sol\":13410:13450  pools[gameId][userIndex - 1].userAddress */\n      0x01\n      add\n      0x00\n      swap1\n      sload\n      swap1\n      0x0100\n      exp\n      swap1\n      div\n      0xffffffffffffffffffffffffffffffffffffffff\n      and\n        /* \"Contract.sol\":13384:13450  address selectedAddress = pools[gameId][userIndex - 1].userAddress */\n      swap1\n      pop\n        /* \"Contract.sol\":13656:13657  1 */\n      0x01\n        /* \"Contract.sol\":13615:13627  userPayments */\n      0x08\n        /* \"Contract.sol\":13615:13644  userPayments[selectedAddress] */\n      0x00\n        /* \"Contract.sol\":13628:13643  selectedAddress */\n      dup4\n        /* \"Contract.sol\":13615:13644  userPayments[selectedAddress] */\n      0xffffffffffffffffffffffffffffffffffffffff\n      and\n      0xffffffffffffffffffffffffffffffffffffffff\n      and\n      dup2\n      mstore\n      0x20\n      add\n      swap1\n      dup2\n      mstore\n      0x20\n      add\n      0x00\n      keccak256\n        /* \"Contract.sol\":13615:13652  userPayments[selectedAddress][gameId] */\n      0x00\n        /* \"Contract.sol\":13645:13651  gameId */\n      dup8\n        /* \"Contract.sol\":13615:13652  userPayments[selectedAddress][gameId] */\n      0xff\n      and\n      0xff\n      and\n      dup2\n      mstore\n      0x20\n      add\n      swap1\n      dup2\n      mstore\n      0x20\n      add\n      0x00\n      keccak256\n      sload\n        /* \"Contract.sol\":13615:13657  userPayments[selectedAddress][gameId] <= 1 */\n      gt\n      iszero\n        /* \"Contract.sol\":13615:13697  userPayments[selectedAddress][gameId] <= 1 || userGames[selectedAddress][gameId+1] */\n      dup1\n      tag_160\n      jumpi\n      pop\n        /* \"Contract.sol\":13661:13670  userGames */\n      0x09\n        /* \"Contract.sol\":13661:13687  userGames[selectedAddress] */\n      0x00\n        /* \"Contract.sol\":13671:13686  selectedAddress */\n      dup3\n        /* \"Contract.sol\":13661:13687  userGames[selectedAddress] */\n      0xffffffffffffffffffffffffffffffffffffffff\n      and\n      0xffffffffffffffffffffffffffffffffffffffff\n      and\n      dup2\n      mstore\n      0x20\n      add\n      swap1\n      dup2\n      mstore\n      0x20\n      add\n      0x00\n      keccak256\n        /* \"Contract.sol\":13661:13697  userGames[selectedAddress][gameId+1] */\n      0x00\n        /* \"Contract.sol\":13695:13696  1 */\n      0x01\n        /* \"Contract.sol\":13688:13694  gameId */\n      dup8\n        /* \"Contract.sol\":13688:13696  gameId+1 */\n      tag_161\n      swap2\n      swap1\n      tag_106\n      jump\t// in\n    tag_161:\n        /* \"Contract.sol\":13661:13697  userGames[selectedAddress][gameId+1] */\n      0xff\n      and\n      0xff\n      and\n      dup2\n      mstore\n      0x20\n      add\n      swap1\n      dup2\n      mstore\n      0x20\n      add\n      0x00\n      keccak256\n      0x00\n      swap1\n      sload\n      swap1\n      0x0100\n      exp\n      swap1\n      div\n      0xff\n      and\n        /* \"Contract.sol\":13615:13697  userPayments[selectedAddress][gameId] <= 1 || userGames[selectedAddress][gameId+1] */\n    tag_160:\n        /* \"Contract.sol\":13611:16127  if (userPayments[selectedAddress][gameId] <= 1 || userGames[selectedAddress][gameId+1]) {\r... */\n      iszero\n      tag_162\n      jumpi\n        /* \"Contract.sol\":13899:13911  bool success */\n      0x00\n        /* \"Contract.sol\":13917:13932  selectedAddress */\n      dup2\n        /* \"Contract.sol\":13917:13937  selectedAddress.call */\n      0xffffffffffffffffffffffffffffffffffffffff\n      and\n        /* \"Contract.sol\":13945:13995  levels[gameId].amountToPay.mul(baseAward).div(100) */\n      tag_163\n        /* \"Contract.sol\":13991:13994  100 */\n      0x64\n        /* \"Contract.sol\":13945:13986  levels[gameId].amountToPay.mul(baseAward) */\n      tag_164\n        /* \"Contract.sol\":6822:6824  74 */\n      0x4a\n        /* \"Contract.sol\":13945:13951  levels */\n      0x02\n        /* \"Contract.sol\":13945:13959  levels[gameId] */\n      0x00\n        /* \"Contract.sol\":13952:13958  gameId */\n      dup13\n        /* \"Contract.sol\":13945:13959  levels[gameId] */\n      0xff\n      and\n      0xff\n      and\n      dup2\n      mstore\n      0x20\n      add\n      swap1\n      dup2\n      mstore\n      0x20\n      add\n      0x00\n      keccak256\n        /* \"Contract.sol\":13945:13971  levels[gameId].amountToPay */\n      0x01\n      add\n      sload\n        /* \"Contract.sol\":13945:13975  levels[gameId].amountToPay.mul */\n      tag_165\n      swap1\n        /* \"Contract.sol\":13945:13986  levels[gameId].amountToPay.mul(baseAward) */\n      swap2\n      swap1\n      0xffffffff\n      and\n      jump\t// in\n    tag_164:\n        /* \"Contract.sol\":13945:13990  levels[gameId].amountToPay.mul(baseAward).div */\n      tag_166\n      swap1\n        /* \"Contract.sol\":13945:13995  levels[gameId].amountToPay.mul(baseAward).div(100) */\n      swap2\n      swap1\n      0xffffffff\n      and\n      jump\t// in\n    tag_163:\n        /* \"Contract.sol\":13917:14000  selectedAddress.call{value: levels[gameId].amountToPay.mul(baseAward).div(100)}(\"\") */\n      mload(0x40)\n      tag_167\n      swap1\n      tag_168\n      jump\t// in\n    tag_167:\n      0x00\n      mload(0x40)\n      dup1\n      dup4\n      sub\n      dup2\n      dup6\n      dup8\n      gas\n      call\n      swap3\n      pop\n      pop\n      pop\n      returndatasize\n      dup1\n      0x00\n      dup2\n      eq\n      tag_171\n      jumpi\n      mload(0x40)\n      swap2\n      pop\n      and(add(returndatasize, 0x3f), not(0x1f))\n      dup3\n      add\n      0x40\n      mstore\n      returndatasize\n      dup3\n      mstore\n      returndatasize\n      0x00\n      0x20\n      dup5\n      add\n      returndatacopy\n      jump(tag_170)\n    tag_171:\n      0x60\n      swap2\n      pop\n    tag_170:\n      pop\n        /* \"Contract.sol\":13898:14000  (bool success, ) = selectedAddress.call{value: levels[gameId].amountToPay.mul(baseAward).div(100)}(\"\") */\n      pop\n      swap1\n      pop\n        /* \"Contract.sol\":14064:14065  1 */\n      0x01\n        /* \"Contract.sol\":14023:14035  userPayments */\n      0x08\n        /* \"Contract.sol\":14023:14052  userPayments[selectedAddress] */\n      0x00\n        /* \"Contract.sol\":14036:14051  selectedAddress */\n      dup5\n        /* \"Contract.sol\":14023:14052  userPayments[selectedAddress] */\n      0xffffffffffffffffffffffffffffffffffffffff\n      and\n      0xffffffffffffffffffffffffffffffffffffffff\n      and\n      dup2\n      mstore\n      0x20\n      add\n      swap1\n      dup2\n      mstore\n      0x20\n      add\n      0x00\n      keccak256\n        /* \"Contract.sol\":14023:14060  userPayments[selectedAddress][gameId] */\n      0x00\n        /* \"Contract.sol\":14053:14059  gameId */\n      dup9\n        /* \"Contract.sol\":14023:14060  userPayments[selectedAddress][gameId] */\n      0xff\n      and\n      0xff\n      and\n      dup2\n      mstore\n      0x20\n      add\n      swap1\n      dup2\n      mstore\n      0x20\n      add\n      0x00\n      keccak256\n      0x00\n        /* \"Contract.sol\":14023:14065  userPayments[selectedAddress][gameId] += 1 */\n      dup3\n      dup3\n      sload\n      tag_172\n      swap2\n      swap1\n      tag_127\n      jump\t// in\n    tag_172:\n      swap3\n      pop\n      pop\n      dup2\n      swap1\n      sstore\n      pop\n        /* \"Contract.sol\":14147:14212  GamePaymentEvent(levels[gameId].gameId, selectedAddress, success) */\n      0xd9ff1d189bd8473f87a70327222795b92238d06f3edf14fa23403ac2153c10a9\n        /* \"Contract.sol\":14164:14170  levels */\n      0x02\n        /* \"Contract.sol\":14164:14178  levels[gameId] */\n      0x00\n        /* \"Contract.sol\":14171:14177  gameId */\n      dup9\n        /* \"Contract.sol\":14164:14178  levels[gameId] */\n      0xff\n      and\n      0xff\n      and\n      dup2\n      mstore\n      0x20\n      add\n      swap1\n      dup2\n      mstore\n      0x20\n      add\n      0x00\n      keccak256\n        /* \"Contract.sol\":14164:14185  levels[gameId].gameId */\n      0x00\n      add\n      0x00\n      swap1\n      sload\n      swap1\n      0x0100\n      exp\n      swap1\n      div\n      0xff\n      and\n        /* \"Contract.sol\":14187:14202  selectedAddress */\n      dup4\n        /* \"Contract.sol\":14204:14211  success */\n      dup4\n        /* \"Contract.sol\":14147:14212  GamePaymentEvent(levels[gameId].gameId, selectedAddress, success) */\n      mload(0x40)\n      tag_173\n      swap4\n      swap3\n      swap2\n      swap1\n      tag_174\n      jump\t// in\n    tag_173:\n      mload(0x40)\n      dup1\n      swap2\n      sub\n      swap1\n      log1\n        /* \"Contract.sol\":14237:14251  uint256 userId */\n      0x00\n        /* \"Contract.sol\":14254:14259  pools */\n      0x07\n        /* \"Contract.sol\":14254:14267  pools[gameId] */\n      0x00\n        /* \"Contract.sol\":14260:14266  gameId */\n      dup9\n        /* \"Contract.sol\":14254:14267  pools[gameId] */\n      0xff\n      and\n      0xff\n      and\n      dup2\n      mstore\n      0x20\n      add\n      swap1\n      dup2\n      mstore\n      0x20\n      add\n      0x00\n      keccak256\n        /* \"Contract.sol\":14254:14282  pools[gameId][userIndex - 1] */\n      0x00\n        /* \"Contract.sol\":14280:14281  1 */\n      0x01\n        /* \"Contract.sol\":14268:14277  userIndex */\n      dup7\n        /* \"Contract.sol\":14268:14281  userIndex - 1 */\n      tag_175\n      swap2\n      swap1\n      tag_130\n      jump\t// in\n    tag_175:\n        /* \"Contract.sol\":14254:14282  pools[gameId][userIndex - 1] */\n      dup2\n      mstore\n      0x20\n      add\n      swap1\n      dup2\n      mstore\n      0x20\n      add\n      0x00\n      keccak256\n        /* \"Contract.sol\":14254:14289  pools[gameId][userIndex - 1].userId */\n      0x00\n      add\n      sload\n        /* \"Contract.sol\":14237:14289  uint256 userId = pools[gameId][userIndex - 1].userId */\n      swap1\n      pop\n        /* \"Contract.sol\":14341:14358  uint256 invitedId */\n      0x00\n        /* \"Contract.sol\":14361:14366  pools */\n      0x07\n        /* \"Contract.sol\":14361:14374  pools[gameId] */\n      0x00\n        /* \"Contract.sol\":14367:14373  gameId */\n      dup10\n        /* \"Contract.sol\":14361:14374  pools[gameId] */\n      0xff\n      and\n      0xff\n      and\n      dup2\n      mstore\n      0x20\n      add\n      swap1\n      dup2\n      mstore\n      0x20\n      add\n      0x00\n      keccak256\n        /* \"Contract.sol\":14361:14389  pools[gameId][userIndex - 1] */\n      0x00\n        /* \"Contract.sol\":14387:14388  1 */\n      0x01\n        /* \"Contract.sol\":14375:14384  userIndex */\n      dup8\n        /* \"Contract.sol\":14375:14388  userIndex - 1 */\n      tag_176\n      swap2\n      swap1\n      tag_130\n      jump\t// in\n    tag_176:\n        /* \"Contract.sol\":14361:14389  pools[gameId][userIndex - 1] */\n      dup2\n      mstore\n      0x20\n      add\n      swap1\n      dup2\n      mstore\n      0x20\n      add\n      0x00\n      keccak256\n        /* \"Contract.sol\":14361:14399  pools[gameId][userIndex - 1].invitedId */\n      0x02\n      add\n      sload\n        /* \"Contract.sol\":14341:14399  uint256 invitedId = pools[gameId][userIndex - 1].invitedId */\n      swap1\n      pop\n        /* \"Contract.sol\":14459:14472  uint refValue */\n      0x00\n        /* \"Contract.sol\":14475:14533  levels[gameId].amountToPay.mul(firstLevelReferal).div(100) */\n      tag_177\n        /* \"Contract.sol\":14529:14532  100 */\n      0x64\n        /* \"Contract.sol\":14475:14524  levels[gameId].amountToPay.mul(firstLevelReferal) */\n      tag_178\n        /* \"Contract.sol\":6885:6887  10 */\n      0x0a\n        /* \"Contract.sol\":14475:14481  levels */\n      0x02\n        /* \"Contract.sol\":14475:14489  levels[gameId] */\n      0x00\n        /* \"Contract.sol\":14482:14488  gameId */\n      dup15\n        /* \"Contract.sol\":14475:14489  levels[gameId] */\n      0xff\n      and\n      0xff\n      and\n      dup2\n      mstore\n      0x20\n      add\n      swap1\n      dup2\n      mstore\n      0x20\n      add\n      0x00\n      keccak256\n        /* \"Contract.sol\":14475:14501  levels[gameId].amountToPay */\n      0x01\n      add\n      sload\n        /* \"Contract.sol\":14475:14505  levels[gameId].amountToPay.mul */\n      tag_165\n      swap1\n        /* \"Contract.sol\":14475:14524  levels[gameId].amountToPay.mul(firstLevelReferal) */\n      swap2\n      swap1\n      0xffffffff\n      and\n      jump\t// in\n    tag_178:\n        /* \"Contract.sol\":14475:14528  levels[gameId].amountToPay.mul(firstLevelReferal).div */\n      tag_166\n      swap1\n        /* \"Contract.sol\":14475:14533  levels[gameId].amountToPay.mul(firstLevelReferal).div(100) */\n      swap2\n      swap1\n      0xffffffff\n      and\n      jump\t// in\n    tag_177:\n        /* \"Contract.sol\":14459:14533  uint refValue = levels[gameId].amountToPay.mul(firstLevelReferal).div(100) */\n      swap1\n      pop\n        /* \"Contract.sol\":14595:14602  usersId */\n      0x03\n        /* \"Contract.sol\":14595:14613  usersId[invitedId] */\n      0x00\n        /* \"Contract.sol\":14603:14612  invitedId */\n      dup4\n        /* \"Contract.sol\":14595:14613  usersId[invitedId] */\n      dup2\n      mstore\n      0x20\n      add\n      swap1\n      dup2\n      mstore\n      0x20\n      add\n      0x00\n      keccak256\n      0x00\n      swap1\n      sload\n      swap1\n      0x0100\n      exp\n      swap1\n      div\n      0xffffffffffffffffffffffffffffffffffffffff\n      and\n        /* \"Contract.sol\":14595:14618  usersId[invitedId].call */\n      0xffffffffffffffffffffffffffffffffffffffff\n      and\n        /* \"Contract.sol\":14626:14634  refValue */\n      dup2\n        /* \"Contract.sol\":14595:14639  usersId[invitedId].call{value: refValue}(\"\") */\n      mload(0x40)\n      tag_179\n      swap1\n      tag_168\n      jump\t// in\n    tag_179:\n      0x00\n      mload(0x40)\n      dup1\n      dup4\n      sub\n      dup2\n      dup6\n      dup8\n      gas\n      call\n      swap3\n      pop\n      pop\n      pop\n      returndatasize\n      dup1\n      0x00\n      dup2\n      eq\n      tag_182\n      jumpi\n      mload(0x40)\n      swap2\n      pop\n      and(add(returndatasize, 0x3f), not(0x1f))\n      dup3\n      add\n      0x40\n      mstore\n      returndatasize\n      dup3\n      mstore\n      returndatasize\n      0x00\n      0x20\n      dup5\n      add\n      returndatacopy\n      jump(tag_181)\n    tag_182:\n      0x60\n      swap2\n      pop\n    tag_181:\n      pop\n        /* \"Contract.sol\":14581:14639  (success, ) = usersId[invitedId].call{value: refValue}(\"\") */\n      pop\n      dup1\n      swap5\n      pop\n      pop\n        /* \"Contract.sol\":14668:14675  success */\n      dup4\n        /* \"Contract.sol\":14664:14753  if (success) emit ReferalPaymentEvent(levels[gameId].gameId, userId, invitedId, refValue) */\n      iszero\n      tag_183\n      jumpi\n        /* \"Contract.sol\":14682:14753  ReferalPaymentEvent(levels[gameId].gameId, userId, invitedId, refValue) */\n      0xafe90bc52fc3dd02b2550b825fc68e93b4bfbcb8165bbacda6cd14b2bad5bc02\n        /* \"Contract.sol\":14702:14708  levels */\n      0x02\n        /* \"Contract.sol\":14702:14716  levels[gameId] */\n      0x00\n        /* \"Contract.sol\":14709:14715  gameId */\n      dup12\n        /* \"Contract.sol\":14702:14716  levels[gameId] */\n      0xff\n      and\n      0xff\n      and\n      dup2\n      mstore\n      0x20\n      add\n      swap1\n      dup2\n      mstore\n      0x20\n      add\n      0x00\n      keccak256\n        /* \"Contract.sol\":14702:14723  levels[gameId].gameId */\n      0x00\n      add\n      0x00\n      swap1\n      sload\n      swap1\n      0x0100\n      exp\n      swap1\n      div\n      0xff\n      and\n        /* \"Contract.sol\":14725:14731  userId */\n      dup5\n        /* \"Contract.sol\":14733:14742  invitedId */\n      dup5\n        /* \"Contract.sol\":14744:14752  refValue */\n      dup5\n        /* \"Contract.sol\":14682:14753  ReferalPaymentEvent(levels[gameId].gameId, userId, invitedId, refValue) */\n      mload(0x40)\n      tag_184\n      swap5\n      swap4\n      swap3\n      swap2\n      swap1\n      tag_185\n      jump\t// in\n    tag_184:\n      mload(0x40)\n      dup1\n      swap2\n      sub\n      swap1\n      log1\n        /* \"Contract.sol\":14664:14753  if (success) emit ReferalPaymentEvent(levels[gameId].gameId, userId, invitedId, refValue) */\n    tag_183:\n        /* \"Contract.sol\":14789:14848  levels[gameId].amountToPay.mul(secondLevelReferal).div(100) */\n      tag_186\n        /* \"Contract.sol\":14844:14847  100 */\n      0x64\n        /* \"Contract.sol\":14789:14839  levels[gameId].amountToPay.mul(secondLevelReferal) */\n      tag_187\n        /* \"Contract.sol\":6962:6963  6 */\n      0x06\n        /* \"Contract.sol\":14789:14795  levels */\n      0x02\n        /* \"Contract.sol\":14789:14803  levels[gameId] */\n      0x00\n        /* \"Contract.sol\":14796:14802  gameId */\n      dup15\n        /* \"Contract.sol\":14789:14803  levels[gameId] */\n      0xff\n      and\n      0xff\n      and\n      dup2\n      mstore\n      0x20\n      add\n      swap1\n      dup2\n      mstore\n      0x20\n      add\n      0x00\n      keccak256\n        /* \"Contract.sol\":14789:14815  levels[gameId].amountToPay */\n      0x01\n      add\n      sload\n        /* \"Contract.sol\":14789:14819  levels[gameId].amountToPay.mul */\n      tag_165\n      swap1\n        /* \"Contract.sol\":14789:14839  levels[gameId].amountToPay.mul(secondLevelReferal) */\n      swap2\n      swap1\n      0xffffffff\n      and\n      jump\t// in\n    tag_187:\n        /* \"Contract.sol\":14789:14843  levels[gameId].amountToPay.mul(secondLevelReferal).div */\n      tag_166\n      swap1\n        /* \"Contract.sol\":14789:14848  levels[gameId].amountToPay.mul(secondLevelReferal).div(100) */\n      swap2\n      swap1\n      0xffffffff\n      and\n      jump\t// in\n    tag_186:\n        /* \"Contract.sol\":14778:14848  refValue = levels[gameId].amountToPay.mul(secondLevelReferal).div(100) */\n      swap1\n      pop\n        /* \"Contract.sol\":14909:14924  registeredUsers */\n      0x05\n        /* \"Contract.sol\":14909:14944  registeredUsers[usersId[invitedId]] */\n      0x00\n        /* \"Contract.sol\":14925:14932  usersId */\n      0x03\n        /* \"Contract.sol\":14925:14943  usersId[invitedId] */\n      0x00\n        /* \"Contract.sol\":14933:14942  invitedId */\n      dup6\n        /* \"Contract.sol\":14925:14943  usersId[invitedId] */\n      dup2\n      mstore\n      0x20\n      add\n      swap1\n      dup2\n      mstore\n      0x20\n      add\n      0x00\n      keccak256\n      0x00\n      swap1\n      sload\n      swap1\n      0x0100\n      exp\n      swap1\n      div\n      0xffffffffffffffffffffffffffffffffffffffff\n      and\n        /* \"Contract.sol\":14909:14944  registeredUsers[usersId[invitedId]] */\n      0xffffffffffffffffffffffffffffffffffffffff\n      and\n      0xffffffffffffffffffffffffffffffffffffffff\n      and\n      dup2\n      mstore\n      0x20\n      add\n      swap1\n      dup2\n      mstore\n      0x20\n      add\n      0x00\n      keccak256\n        /* \"Contract.sol\":14909:14956  registeredUsers[usersId[invitedId]].userAddress */\n      0x01\n      add\n      0x00\n      swap1\n      sload\n      swap1\n      0x0100\n      exp\n      swap1\n      div\n      0xffffffffffffffffffffffffffffffffffffffff\n      and\n        /* \"Contract.sol\":14909:14961  registeredUsers[usersId[invitedId]].userAddress.call */\n      0xffffffffffffffffffffffffffffffffffffffff\n      and\n        /* \"Contract.sol\":14969:14977  refValue */\n      dup2\n        /* \"Contract.sol\":14909:14982  registeredUsers[usersId[invitedId]].userAddress.call{value: refValue}(\"\") */\n      mload(0x40)\n      tag_188\n      swap1\n      tag_168\n      jump\t// in\n    tag_188:\n      0x00\n      mload(0x40)\n      dup1\n      dup4\n      sub\n      dup2\n      dup6\n      dup8\n      gas\n      call\n      swap3\n      pop\n      pop\n      pop\n      returndatasize\n      dup1\n      0x00\n      dup2\n      eq\n      tag_191\n      jumpi\n      mload(0x40)\n      swap2\n      pop\n      and(add(returndatasize, 0x3f), not(0x1f))\n      dup3\n      add\n      0x40\n      mstore\n      returndatasize\n      dup3\n      mstore\n      returndatasize\n      0x00\n      0x20\n      dup5\n      add\n      returndatacopy\n      jump(tag_190)\n    tag_191:\n      0x60\n      swap2\n      pop\n    tag_190:\n      pop\n        /* \"Contract.sol\":14895:14982  (success, ) = registeredUsers[usersId[invitedId]].userAddress.call{value: refValue}(\"\") */\n      pop\n      dup1\n      swap5\n      pop\n      pop\n        /* \"Contract.sol\":15037:15044  success */\n      dup4\n        /* \"Contract.sol\":15033:15158  if (success) emit ReferalPaymentEvent(levels[gameId].gameId, invitedId, registeredUsers[usersId[invitedId]].userId, refValue) */\n      iszero\n      tag_192\n      jumpi\n        /* \"Contract.sol\":15051:15158  ReferalPaymentEvent(levels[gameId].gameId, invitedId, registeredUsers[usersId[invitedId]].userId, refValue) */\n      0xafe90bc52fc3dd02b2550b825fc68e93b4bfbcb8165bbacda6cd14b2bad5bc02\n        /* \"Contract.sol\":15071:15077  levels */\n      0x02\n        /* \"Contract.sol\":15071:15085  levels[gameId] */\n      0x00\n        /* \"Contract.sol\":15078:15084  gameId */\n      dup12\n        /* \"Contract.sol\":15071:15085  levels[gameId] */\n      0xff\n      and\n      0xff\n      and\n      dup2\n      mstore\n      0x20\n      add\n      swap1\n      dup2\n      mstore\n      0x20\n      add\n      0x00\n      keccak256\n        /* \"Contract.sol\":15071:15092  levels[gameId].gameId */\n      0x00\n      add\n      0x00\n      swap1\n      sload\n      swap1\n      0x0100\n      exp\n      swap1\n      div\n      0xff\n      and\n        /* \"Contract.sol\":15094:15103  invitedId */\n      dup4\n        /* \"Contract.sol\":15105:15120  registeredUsers */\n      0x05\n        /* \"Contract.sol\":15105:15140  registeredUsers[usersId[invitedId]] */\n      0x00\n        /* \"Contract.sol\":15121:15128  usersId */\n      0x03\n        /* \"Contract.sol\":15121:15139  usersId[invitedId] */\n      0x00\n        /* \"Contract.sol\":15129:15138  invitedId */\n      dup9\n        /* \"Contract.sol\":15121:15139  usersId[invitedId] */\n      dup2\n      mstore\n      0x20\n      add\n      swap1\n      dup2\n      mstore\n      0x20\n      add\n      0x00\n      keccak256\n      0x00\n      swap1\n      sload\n      swap1\n      0x0100\n      exp\n      swap1\n      div\n      0xffffffffffffffffffffffffffffffffffffffff\n      and\n        /* \"Contract.sol\":15105:15140  registeredUsers[usersId[invitedId]] */\n      0xffffffffffffffffffffffffffffffffffffffff\n      and\n      0xffffffffffffffffffffffffffffffffffffffff\n      and\n      dup2\n      mstore\n      0x20\n      add\n      swap1\n      dup2\n      mstore\n      0x20\n      add\n      0x00\n      keccak256\n        /* \"Contract.sol\":15105:15147  registeredUsers[usersId[invitedId]].userId */\n      0x00\n      add\n      sload\n        /* \"Contract.sol\":15149:15157  refValue */\n      dup5\n        /* \"Contract.sol\":15051:15158  ReferalPaymentEvent(levels[gameId].gameId, invitedId, registeredUsers[usersId[invitedId]].userId, refValue) */\n      mload(0x40)\n      tag_193\n      swap5\n      swap4\n      swap3\n      swap2\n      swap1\n      tag_185\n      jump\t// in\n    tag_193:\n      mload(0x40)\n      dup1\n      swap2\n      sub\n      swap1\n      log1\n        /* \"Contract.sol\":15033:15158  if (success) emit ReferalPaymentEvent(levels[gameId].gameId, invitedId, registeredUsers[usersId[invitedId]].userId, refValue) */\n    tag_192:\n        /* \"Contract.sol\":15194:15252  levels[gameId].amountToPay.mul(thirdLevelReferal).div(100) */\n      tag_194\n        /* \"Contract.sol\":15248:15251  100 */\n      0x64\n        /* \"Contract.sol\":15194:15243  levels[gameId].amountToPay.mul(thirdLevelReferal) */\n      tag_195\n        /* \"Contract.sol\":7037:7038  4 */\n      0x04\n        /* \"Contract.sol\":15194:15200  levels */\n      0x02\n        /* \"Contract.sol\":15194:15208  levels[gameId] */\n      0x00\n        /* \"Contract.sol\":15201:15207  gameId */\n      dup15\n        /* \"Contract.sol\":15194:15208  levels[gameId] */\n      0xff\n      and\n      0xff\n      and\n      dup2\n      mstore\n      0x20\n      add\n      swap1\n      dup2\n      mstore\n      0x20\n      add\n      0x00\n      keccak256\n        /* \"Contract.sol\":15194:15220  levels[gameId].amountToPay */\n      0x01\n      add\n      sload\n        /* \"Contract.sol\":15194:15224  levels[gameId].amountToPay.mul */\n      tag_165\n      swap1\n        /* \"Contract.sol\":15194:15243  levels[gameId].amountToPay.mul(thirdLevelReferal) */\n      swap2\n      swap1\n      0xffffffff\n      and\n      jump\t// in\n    tag_195:\n        /* \"Contract.sol\":15194:15247  levels[gameId].amountToPay.mul(thirdLevelReferal).div */\n      tag_166\n      swap1\n        /* \"Contract.sol\":15194:15252  levels[gameId].amountToPay.mul(thirdLevelReferal).div(100) */\n      swap2\n      swap1\n      0xffffffff\n      and\n      jump\t// in\n    tag_194:\n        /* \"Contract.sol\":15183:15252  refValue = levels[gameId].amountToPay.mul(thirdLevelReferal).div(100) */\n      swap1\n      pop\n        /* \"Contract.sol\":15312:15327  registeredUsers */\n      0x05\n        /* \"Contract.sol\":15312:15380  registeredUsers[usersId[registeredUsers[usersId[invitedId]].userId]] */\n      0x00\n        /* \"Contract.sol\":15328:15335  usersId */\n      0x03\n        /* \"Contract.sol\":15328:15379  usersId[registeredUsers[usersId[invitedId]].userId] */\n      0x00\n        /* \"Contract.sol\":15336:15351  registeredUsers */\n      0x05\n        /* \"Contract.sol\":15336:15371  registeredUsers[usersId[invitedId]] */\n      0x00\n        /* \"Contract.sol\":15352:15359  usersId */\n      0x03\n        /* \"Contract.sol\":15352:15370  usersId[invitedId] */\n      0x00\n        /* \"Contract.sol\":15360:15369  invitedId */\n      dup10\n        /* \"Contract.sol\":15352:15370  usersId[invitedId] */\n      dup2\n      mstore\n      0x20\n      add\n      swap1\n      dup2\n      mstore\n      0x20\n      add\n      0x00\n      keccak256\n      0x00\n      swap1\n      sload\n      swap1\n      0x0100\n      exp\n      swap1\n      div\n      0xffffffffffffffffffffffffffffffffffffffff\n      and\n        /* \"Contract.sol\":15336:15371  registeredUsers[usersId[invitedId]] */\n      0xffffffffffffffffffffffffffffffffffffffff\n      and\n      0xffffffffffffffffffffffffffffffffffffffff\n      and\n      dup2\n      mstore\n      0x20\n      add\n      swap1\n      dup2\n      mstore\n      0x20\n      add\n      0x00\n      keccak256\n        /* \"Contract.sol\":15336:15378  registeredUsers[usersId[invitedId]].userId */\n      0x00\n      add\n      sload\n        /* \"Contract.sol\":15328:15379  usersId[registeredUsers[usersId[invitedId]].userId] */\n      dup2\n      mstore\n      0x20\n      add\n      swap1\n      dup2\n      mstore\n      0x20\n      add\n      0x00\n      keccak256\n      0x00\n      swap1\n      sload\n      swap1\n      0x0100\n      exp\n      swap1\n      div\n      0xffffffffffffffffffffffffffffffffffffffff\n      and\n        /* \"Contract.sol\":15312:15380  registeredUsers[usersId[registeredUsers[usersId[invitedId]].userId]] */\n      0xffffffffffffffffffffffffffffffffffffffff\n      and\n      0xffffffffffffffffffffffffffffffffffffffff\n      and\n      dup2\n      mstore\n      0x20\n      add\n      swap1\n      dup2\n      mstore\n      0x20\n      add\n      0x00\n      keccak256\n        /* \"Contract.sol\":15312:15392  registeredUsers[usersId[registeredUsers[usersId[invitedId]].userId]].userAddress */\n      0x01\n      add\n      0x00\n      swap1\n      sload\n      swap1\n      0x0100\n      exp\n      swap1\n      div\n      0xffffffffffffffffffffffffffffffffffffffff\n      and\n        /* \"Contract.sol\":15312:15397  registeredUsers[usersId[registeredUsers[usersId[invitedId]].userId]].userAddress.call */\n      0xffffffffffffffffffffffffffffffffffffffff\n      and\n        /* \"Contract.sol\":15405:15413  refValue */\n      dup2\n        /* \"Contract.sol\":15312:15418  registeredUsers[usersId[registeredUsers[usersId[invitedId]].userId]].userAddress.call{value: refValue}(\"\") */\n      mload(0x40)\n      tag_196\n      swap1\n      tag_168\n      jump\t// in\n    tag_196:\n      0x00\n      mload(0x40)\n      dup1\n      dup4\n      sub\n      dup2\n      dup6\n      dup8\n      gas\n      call\n      swap3\n      pop\n      pop\n      pop\n      returndatasize\n      dup1\n      0x00\n      dup2\n      eq\n      tag_199\n      jumpi\n      mload(0x40)\n      swap2\n      pop\n      and(add(returndatasize, 0x3f), not(0x1f))\n      dup3\n      add\n      0x40\n      mstore\n      returndatasize\n      dup3\n      mstore\n      returndatasize\n      0x00\n      0x20\n      dup5\n      add\n      returndatacopy\n      jump(tag_198)\n    tag_199:\n      0x60\n      swap2\n      pop\n    tag_198:\n      pop\n        /* \"Contract.sol\":15298:15418  (success, ) = registeredUsers[usersId[registeredUsers[usersId[invitedId]].userId]].userAddress.call{value: refValue}(\"\") */\n      pop\n      dup1\n      swap5\n      pop\n      pop\n        /* \"Contract.sol\":15447:15454  success */\n      dup4\n        /* \"Contract.sol\":15443:15634  if (success) emit ReferalPaymentEvent(levels[gameId].gameId, registeredUsers[usersId[invitedId]].userId, registeredUsers[usersId[registeredUsers[usersId[invitedId]].userId]].userId, refValue) */\n      iszero\n      tag_200\n      jumpi\n        /* \"Contract.sol\":15461:15634  ReferalPaymentEvent(levels[gameId].gameId, registeredUsers[usersId[invitedId]].userId, registeredUsers[usersId[registeredUsers[usersId[invitedId]].userId]].userId, refValue) */\n      0xafe90bc52fc3dd02b2550b825fc68e93b4bfbcb8165bbacda6cd14b2bad5bc02\n        /* \"Contract.sol\":15481:15487  levels */\n      0x02\n        /* \"Contract.sol\":15481:15495  levels[gameId] */\n      0x00\n        /* \"Contract.sol\":15488:15494  gameId */\n      dup12\n        /* \"Contract.sol\":15481:15495  levels[gameId] */\n      0xff\n      and\n      0xff\n      and\n      dup2\n      mstore\n      0x20\n      add\n      swap1\n      dup2\n      mstore\n      0x20\n      add\n      0x00\n      keccak256\n        /* \"Contract.sol\":15481:15502  levels[gameId].gameId */\n      0x00\n      add\n      0x00\n      swap1\n      sload\n      swap1\n      0x0100\n      exp\n      swap1\n      div\n      0xff\n      and\n        /* \"Contract.sol\":15504:15519  registeredUsers */\n      0x05\n        /* \"Contract.sol\":15504:15539  registeredUsers[usersId[invitedId]] */\n      0x00\n        /* \"Contract.sol\":15520:15527  usersId */\n      0x03\n        /* \"Contract.sol\":15520:15538  usersId[invitedId] */\n      0x00\n        /* \"Contract.sol\":15528:15537  invitedId */\n      dup8\n        /* \"Contract.sol\":15520:15538  usersId[invitedId] */\n      dup2\n      mstore\n      0x20\n      add\n      swap1\n      dup2\n      mstore\n      0x20\n      add\n      0x00\n      keccak256\n      0x00\n      swap1\n      sload\n      swap1\n      0x0100\n      exp\n      swap1\n      div\n      0xffffffffffffffffffffffffffffffffffffffff\n      and\n        /* \"Contract.sol\":15504:15539  registeredUsers[usersId[invitedId]] */\n      0xffffffffffffffffffffffffffffffffffffffff\n      and\n      0xffffffffffffffffffffffffffffffffffffffff\n      and\n      dup2\n      mstore\n      0x20\n      add\n      swap1\n      dup2\n      mstore\n      0x20\n      add\n      0x00\n      keccak256\n        /* \"Contract.sol\":15504:15546  registeredUsers[usersId[invitedId]].userId */\n      0x00\n      add\n      sload\n        /* \"Contract.sol\":15548:15563  registeredUsers */\n      0x05\n        /* \"Contract.sol\":15548:15616  registeredUsers[usersId[registeredUsers[usersId[invitedId]].userId]] */\n      0x00\n        /* \"Contract.sol\":15564:15571  usersId */\n      0x03\n        /* \"Contract.sol\":15564:15615  usersId[registeredUsers[usersId[invitedId]].userId] */\n      0x00\n        /* \"Contract.sol\":15572:15587  registeredUsers */\n      0x05\n        /* \"Contract.sol\":15572:15607  registeredUsers[usersId[invitedId]] */\n      0x00\n        /* \"Contract.sol\":15588:15595  usersId */\n      0x03\n        /* \"Contract.sol\":15588:15606  usersId[invitedId] */\n      0x00\n        /* \"Contract.sol\":15596:15605  invitedId */\n      dup13\n        /* \"Contract.sol\":15588:15606  usersId[invitedId] */\n      dup2\n      mstore\n      0x20\n      add\n      swap1\n      dup2\n      mstore\n      0x20\n      add\n      0x00\n      keccak256\n      0x00\n      swap1\n      sload\n      swap1\n      0x0100\n      exp\n      swap1\n      div\n      0xffffffffffffffffffffffffffffffffffffffff\n      and\n        /* \"Contract.sol\":15572:15607  registeredUsers[usersId[invitedId]] */\n      0xffffffffffffffffffffffffffffffffffffffff\n      and\n      0xffffffffffffffffffffffffffffffffffffffff\n      and\n      dup2\n      mstore\n      0x20\n      add\n      swap1\n      dup2\n      mstore\n      0x20\n      add\n      0x00\n      keccak256\n        /* \"Contract.sol\":15572:15614  registeredUsers[usersId[invitedId]].userId */\n      0x00\n      add\n      sload\n        /* \"Contract.sol\":15564:15615  usersId[registeredUsers[usersId[invitedId]].userId] */\n      dup2\n      mstore\n      0x20\n      add\n      swap1\n      dup2\n      mstore\n      0x20\n      add\n      0x00\n      keccak256\n      0x00\n      swap1\n      sload\n      swap1\n      0x0100\n      exp\n      swap1\n      div\n      0xffffffffffffffffffffffffffffffffffffffff\n      and\n        /* \"Contract.sol\":15548:15616  registeredUsers[usersId[registeredUsers[usersId[invitedId]].userId]] */\n      0xffffffffffffffffffffffffffffffffffffffff\n      and\n      0xffffffffffffffffffffffffffffffffffffffff\n      and\n      dup2\n      mstore\n      0x20\n      add\n      swap1\n      dup2\n      mstore\n      0x20\n      add\n      0x00\n      keccak256\n        /* \"Contract.sol\":15548:15623  registeredUsers[usersId[registeredUsers[usersId[invitedId]].userId]].userId */\n      0x00\n      add\n      sload\n        /* \"Contract.sol\":15625:15633  refValue */\n      dup5\n        /* \"Contract.sol\":15461:15634  ReferalPaymentEvent(levels[gameId].gameId, registeredUsers[usersId[invitedId]].userId, registeredUsers[usersId[registeredUsers[usersId[invitedId]].userId]].userId, refValue) */\n      mload(0x40)\n      tag_201\n      swap5\n      swap4\n      swap3\n      swap2\n      swap1\n      tag_185\n      jump\t// in\n    tag_201:\n      mload(0x40)\n      dup1\n      swap2\n      sub\n      swap1\n      log1\n        /* \"Contract.sol\":15443:15634  if (success) emit ReferalPaymentEvent(levels[gameId].gameId, registeredUsers[usersId[invitedId]].userId, registeredUsers[usersId[registeredUsers[usersId[invitedId]].userId]].userId, refValue) */\n    tag_200:\n        /* \"Contract.sol\":15790:15843  levels[gameId].amountToPay.mul(ownerReferal).div(100) */\n      tag_202\n        /* \"Contract.sol\":15839:15842  100 */\n      0x64\n        /* \"Contract.sol\":15790:15834  levels[gameId].amountToPay.mul(ownerReferal) */\n      tag_203\n        /* \"Contract.sol\":7106:7107  6 */\n      0x06\n        /* \"Contract.sol\":15790:15796  levels */\n      0x02\n        /* \"Contract.sol\":15790:15804  levels[gameId] */\n      0x00\n        /* \"Contract.sol\":15797:15803  gameId */\n      dup15\n        /* \"Contract.sol\":15790:15804  levels[gameId] */\n      0xff\n      and\n      0xff\n      and\n      dup2\n      mstore\n      0x20\n      add\n      swap1\n      dup2\n      mstore\n      0x20\n      add\n      0x00\n      keccak256\n        /* \"Contract.sol\":15790:15816  levels[gameId].amountToPay */\n      0x01\n      add\n      sload\n        /* \"Contract.sol\":15790:15820  levels[gameId].amountToPay.mul */\n      tag_165\n      swap1\n        /* \"Contract.sol\":15790:15834  levels[gameId].amountToPay.mul(ownerReferal) */\n      swap2\n      swap1\n      0xffffffff\n      and\n      jump\t// in\n    tag_203:\n        /* \"Contract.sol\":15790:15838  levels[gameId].amountToPay.mul(ownerReferal).div */\n      tag_166\n      swap1\n        /* \"Contract.sol\":15790:15843  levels[gameId].amountToPay.mul(ownerReferal).div(100) */\n      swap2\n      swap1\n      0xffffffff\n      and\n      jump\t// in\n    tag_202:\n        /* \"Contract.sol\":15779:15843  refValue = levels[gameId].amountToPay.mul(ownerReferal).div(100) */\n      swap1\n      pop\n        /* \"Contract.sol\":15897:15912  registeredUsers */\n      0x05\n        /* \"Contract.sol\":15897:15927  registeredUsers[contractOwner] */\n      0x00\n        /* \"Contract.sol\":15913:15926  contractOwner */\n      0x01\n      dup1\n      sload\n      swap1\n      0x0100\n      exp\n      swap1\n      div\n      0xffffffffffffffffffffffffffffffffffffffff\n      and\n        /* \"Contract.sol\":15897:15927  registeredUsers[contractOwner] */\n      0xffffffffffffffffffffffffffffffffffffffff\n      and\n      0xffffffffffffffffffffffffffffffffffffffff\n      and\n      dup2\n      mstore\n      0x20\n      add\n      swap1\n      dup2\n      mstore\n      0x20\n      add\n      0x00\n      keccak256\n        /* \"Contract.sol\":15897:15939  registeredUsers[contractOwner].userAddress */\n      0x01\n      add\n      0x00\n      swap1\n      sload\n      swap1\n      0x0100\n      exp\n      swap1\n      div\n      0xffffffffffffffffffffffffffffffffffffffff\n      and\n        /* \"Contract.sol\":15897:15944  registeredUsers[contractOwner].userAddress.call */\n      0xffffffffffffffffffffffffffffffffffffffff\n      and\n        /* \"Contract.sol\":15952:15960  refValue */\n      dup2\n        /* \"Contract.sol\":15897:15965  registeredUsers[contractOwner].userAddress.call{value: refValue}(\"\") */\n      mload(0x40)\n      tag_204\n      swap1\n      tag_168\n      jump\t// in\n    tag_204:\n      0x00\n      mload(0x40)\n      dup1\n      dup4\n      sub\n      dup2\n      dup6\n      dup8\n      gas\n      call\n      swap3\n      pop\n      pop\n      pop\n      returndatasize\n      dup1\n      0x00\n      dup2\n      eq\n      tag_207\n      jumpi\n      mload(0x40)\n      swap2\n      pop\n      and(add(returndatasize, 0x3f), not(0x1f))\n      dup3\n      add\n      0x40\n      mstore\n      returndatasize\n      dup3\n      mstore\n      returndatasize\n      0x00\n      0x20\n      dup5\n      add\n      returndatacopy\n      jump(tag_206)\n    tag_207:\n      0x60\n      swap2\n      pop\n    tag_206:\n      pop\n        /* \"Contract.sol\":15883:15965  (success, ) = registeredUsers[contractOwner].userAddress.call{value: refValue}(\"\") */\n      pop\n      dup1\n      swap5\n      pop\n      pop\n        /* \"Contract.sol\":15994:16001  success */\n      dup4\n        /* \"Contract.sol\":15990:16107  if (success) emit ReferalPaymentEvent(levels[gameId].gameId, userId, registeredUsers[contractOwner].userId, refValue) */\n      iszero\n      tag_208\n      jumpi\n        /* \"Contract.sol\":16008:16107  ReferalPaymentEvent(levels[gameId].gameId, userId, registeredUsers[contractOwner].userId, refValue) */\n      0xafe90bc52fc3dd02b2550b825fc68e93b4bfbcb8165bbacda6cd14b2bad5bc02\n        /* \"Contract.sol\":16028:16034  levels */\n      0x02\n        /* \"Contract.sol\":16028:16042  levels[gameId] */\n      0x00\n        /* \"Contract.sol\":16035:16041  gameId */\n      dup12\n        /* \"Contract.sol\":16028:16042  levels[gameId] */\n      0xff\n      and\n      0xff\n      and\n      dup2\n      mstore\n      0x20\n      add\n      swap1\n      dup2\n      mstore\n      0x20\n      add\n      0x00\n      keccak256\n        /* \"Contract.sol\":16028:16049  levels[gameId].gameId */\n      0x00\n      add\n      0x00\n      swap1\n      sload\n      swap1\n      0x0100\n      exp\n      swap1\n      div\n      0xff\n      and\n        /* \"Contract.sol\":16051:16057  userId */\n      dup5\n        /* \"Contract.sol\":16059:16074  registeredUsers */\n      0x05\n        /* \"Contract.sol\":16059:16089  registeredUsers[contractOwner] */\n      0x00\n        /* \"Contract.sol\":16075:16088  contractOwner */\n      0x01\n      dup1\n      sload\n      swap1\n      0x0100\n      exp\n      swap1\n      div\n      0xffffffffffffffffffffffffffffffffffffffff\n      and\n        /* \"Contract.sol\":16059:16089  registeredUsers[contractOwner] */\n      0xffffffffffffffffffffffffffffffffffffffff\n      and\n      0xffffffffffffffffffffffffffffffffffffffff\n      and\n      dup2\n      mstore\n      0x20\n      add\n      swap1\n      dup2\n      mstore\n      0x20\n      add\n      0x00\n      keccak256\n        /* \"Contract.sol\":16059:16096  registeredUsers[contractOwner].userId */\n      0x00\n      add\n      sload\n        /* \"Contract.sol\":16098:16106  refValue */\n      dup5\n        /* \"Contract.sol\":16008:16107  ReferalPaymentEvent(levels[gameId].gameId, userId, registeredUsers[contractOwner].userId, refValue) */\n      mload(0x40)\n      tag_209\n      swap5\n      swap4\n      swap3\n      swap2\n      swap1\n      tag_185\n      jump\t// in\n    tag_209:\n      mload(0x40)\n      dup1\n      swap2\n      sub\n      swap1\n      log1\n        /* \"Contract.sol\":15990:16107  if (success) emit ReferalPaymentEvent(levels[gameId].gameId, userId, registeredUsers[contractOwner].userId, refValue) */\n    tag_208:\n        /* \"Contract.sol\":13699:16127  {\r... */\n      pop\n      pop\n      pop\n      pop\n        /* \"Contract.sol\":13611:16127  if (userPayments[selectedAddress][gameId] <= 1 || userGames[selectedAddress][gameId+1]) {\r... */\n    tag_162:\n        /* \"Contract.sol\":16157:16187  culcNextWinnerIndex(userIndex) */\n      tag_210\n        /* \"Contract.sol\":16177:16186  userIndex */\n      dup3\n        /* \"Contract.sol\":16157:16176  culcNextWinnerIndex */\n      tag_156\n        /* \"Contract.sol\":16157:16187  culcNextWinnerIndex(userIndex) */\n      jump\t// in\n    tag_210:\n        /* \"Contract.sol\":16145:16187  userIndex = culcNextWinnerIndex(userIndex) */\n      swap2\n      pop\n        /* \"Contract.sol\":13365:16203  {\r... */\n      pop\n        /* \"Contract.sol\":13342:16203  while (userIndex != 0) {\r... */\n      jump(tag_157)\n    tag_158:\n        /* \"Contract.sol\":13121:16214  {\r... */\n      pop\n        /* \"Contract.sol\":13086:16214  if (currentUserIndex[gameId] >= 3) {\r... */\n    tag_154:\n        /* \"Contract.sol\":12523:16221  function _joinToGame(uint8 gameId, address sender, uint256 value) internal {\r... */\n      pop\n      pop\n      pop\n      jump\t// out\n        /* \"Contract.sol\":10281:10850  function culcNextWinnerIndex(uint256 index) internal pure returns(uint256) {\r... */\n    tag_156:\n        /* \"Contract.sol\":10347:10354  uint256 */\n      0x00\n        /* \"Contract.sol\":10822:10823  0 */\n      dup1\n        /* \"Contract.sol\":10806:10818  index.mod(2) */\n      tag_212\n        /* \"Contract.sol\":10816:10817  2 */\n      0x02\n        /* \"Contract.sol\":10806:10811  index */\n      dup5\n        /* \"Contract.sol\":10806:10815  index.mod */\n      tag_213\n      swap1\n        /* \"Contract.sol\":10806:10818  index.mod(2) */\n      swap2\n      swap1\n      0xffffffff\n      and\n      jump\t// in\n    tag_212:\n        /* \"Contract.sol\":10806:10823  index.mod(2) == 0 */\n      eq\n        /* \"Contract.sol\":10806:10842  index.mod(2) == 0 ? 0 : index.div(2) */\n      tag_214\n      jumpi\n        /* \"Contract.sol\":10830:10842  index.div(2) */\n      tag_215\n        /* \"Contract.sol\":10840:10841  2 */\n      0x02\n        /* \"Contract.sol\":10830:10835  index */\n      dup4\n        /* \"Contract.sol\":10830:10839  index.div */\n      tag_166\n      swap1\n        /* \"Contract.sol\":10830:10842  index.div(2) */\n      swap2\n      swap1\n      0xffffffff\n      and\n      jump\t// in\n    tag_215:\n        /* \"Contract.sol\":10806:10842  index.mod(2) == 0 ? 0 : index.div(2) */\n      jump(tag_216)\n    tag_214:\n        /* \"Contract.sol\":10826:10827  0 */\n      0x00\n        /* \"Contract.sol\":10806:10842  index.mod(2) == 0 ? 0 : index.div(2) */\n    tag_216:\n        /* \"Contract.sol\":10799:10842  return index.mod(2) == 0 ? 0 : index.div(2) */\n      swap1\n      pop\n        /* \"Contract.sol\":10281:10850  function culcNextWinnerIndex(uint256 index) internal pure returns(uint256) {\r... */\n      swap2\n      swap1\n      pop\n      jump\t// out\n        /* \"Contract.sol\":3148:3246  function mul(uint256 a, uint256 b) internal pure returns (uint256) {\r... */\n    tag_165:\n        /* \"Contract.sol\":3206:3213  uint256 */\n      0x00\n        /* \"Contract.sol\":3237:3238  b */\n      dup2\n        /* \"Contract.sol\":3233:3234  a */\n      dup4\n        /* \"Contract.sol\":3233:3238  a * b */\n      tag_218\n      swap2\n      swap1\n      tag_219\n      jump\t// in\n    tag_218:\n        /* \"Contract.sol\":3226:3238  return a * b */\n      swap1\n      pop\n        /* \"Contract.sol\":3148:3246  function mul(uint256 a, uint256 b) internal pure returns (uint256) {\r... */\n      swap3\n      swap2\n      pop\n      pop\n      jump\t// out\n        /* \"Contract.sol\":3547:3645  function div(uint256 a, uint256 b) internal pure returns (uint256) {\r... */\n    tag_166:\n        /* \"Contract.sol\":3605:3612  uint256 */\n      0x00\n        /* \"Contract.sol\":3636:3637  b */\n      dup2\n        /* \"Contract.sol\":3632:3633  a */\n      dup4\n        /* \"Contract.sol\":3632:3637  a / b */\n      tag_221\n      swap2\n      swap1\n      tag_222\n      jump\t// in\n    tag_221:\n        /* \"Contract.sol\":3625:3637  return a / b */\n      swap1\n      pop\n        /* \"Contract.sol\":3547:3645  function div(uint256 a, uint256 b) internal pure returns (uint256) {\r... */\n      swap3\n      swap2\n      pop\n      pop\n      jump\t// out\n        /* \"Contract.sol\":4112:4210  function mod(uint256 a, uint256 b) internal pure returns (uint256) {\r... */\n    tag_213:\n        /* \"Contract.sol\":4170:4177  uint256 */\n      0x00\n        /* \"Contract.sol\":4201:4202  b */\n      dup2\n        /* \"Contract.sol\":4197:4198  a */\n      dup4\n        /* \"Contract.sol\":4197:4202  a % b */\n      tag_224\n      swap2\n      swap1\n      tag_225\n      jump\t// in\n    tag_224:\n        /* \"Contract.sol\":4190:4202  return a % b */\n      swap1\n      pop\n        /* \"Contract.sol\":4112:4210  function mod(uint256 a, uint256 b) internal pure returns (uint256) {\r... */\n      swap3\n      swap2\n      pop\n      pop\n      jump\t// out\n        /* \"#utility.yul\":7:146   */\n    tag_227:\n        /* \"#utility.yul\":53:58   */\n      0x00\n        /* \"#utility.yul\":91:97   */\n      dup2\n        /* \"#utility.yul\":78:98   */\n      calldataload\n        /* \"#utility.yul\":69:98   */\n      swap1\n      pop\n        /* \"#utility.yul\":107:140   */\n      tag_229\n        /* \"#utility.yul\":134:139   */\n      dup2\n        /* \"#utility.yul\":107:140   */\n      tag_230\n      jump\t// in\n    tag_229:\n        /* \"#utility.yul\":7:146   */\n      swap3\n      swap2\n      pop\n      pop\n      jump\t// out\n        /* \"#utility.yul\":152:291   */\n    tag_231:\n        /* \"#utility.yul\":198:203   */\n      0x00\n        /* \"#utility.yul\":236:242   */\n      dup2\n        /* \"#utility.yul\":223:243   */\n      calldataload\n        /* \"#utility.yul\":214:243   */\n      swap1\n      pop\n        /* \"#utility.yul\":252:285   */\n      tag_233\n        /* \"#utility.yul\":279:284   */\n      dup2\n        /* \"#utility.yul\":252:285   */\n      tag_234\n      jump\t// in\n    tag_233:\n        /* \"#utility.yul\":152:291   */\n      swap3\n      swap2\n      pop\n      pop\n      jump\t// out\n        /* \"#utility.yul\":297:432   */\n    tag_235:\n        /* \"#utility.yul\":341:346   */\n      0x00\n        /* \"#utility.yul\":379:385   */\n      dup2\n        /* \"#utility.yul\":366:386   */\n      calldataload\n        /* \"#utility.yul\":357:386   */\n      swap1\n      pop\n        /* \"#utility.yul\":395:426   */\n      tag_237\n        /* \"#utility.yul\":420:425   */\n      dup2\n        /* \"#utility.yul\":395:426   */\n      tag_238\n      jump\t// in\n    tag_237:\n        /* \"#utility.yul\":297:432   */\n      swap3\n      swap2\n      pop\n      pop\n      jump\t// out\n        /* \"#utility.yul\":438:767   */\n    tag_34:\n        /* \"#utility.yul\":497:503   */\n      0x00\n        /* \"#utility.yul\":546:548   */\n      0x20\n        /* \"#utility.yul\":534:543   */\n      dup3\n        /* \"#utility.yul\":525:532   */\n      dup5\n        /* \"#utility.yul\":521:544   */\n      sub\n        /* \"#utility.yul\":517:549   */\n      slt\n        /* \"#utility.yul\":514:633   */\n      iszero\n      tag_240\n      jumpi\n        /* \"#utility.yul\":552:631   */\n      tag_241\n      tag_242\n      jump\t// in\n    tag_241:\n        /* \"#utility.yul\":514:633   */\n    tag_240:\n        /* \"#utility.yul\":672:673   */\n      0x00\n        /* \"#utility.yul\":697:750   */\n      tag_243\n        /* \"#utility.yul\":742:749   */\n      dup5\n        /* \"#utility.yul\":733:739   */\n      dup3\n        /* \"#utility.yul\":722:731   */\n      dup6\n        /* \"#utility.yul\":718:740   */\n      add\n        /* \"#utility.yul\":697:750   */\n      tag_227\n      jump\t// in\n    tag_243:\n        /* \"#utility.yul\":687:750   */\n      swap2\n      pop\n        /* \"#utility.yul\":643:760   */\n      pop\n        /* \"#utility.yul\":438:767   */\n      swap3\n      swap2\n      pop\n      pop\n      jump\t// out\n        /* \"#utility.yul\":773:1243   */\n    tag_41:\n        /* \"#utility.yul\":839:845   */\n      0x00\n        /* \"#utility.yul\":847:853   */\n      dup1\n        /* \"#utility.yul\":896:898   */\n      0x40\n        /* \"#utility.yul\":884:893   */\n      dup4\n        /* \"#utility.yul\":875:882   */\n      dup6\n        /* \"#utility.yul\":871:894   */\n      sub\n        /* \"#utility.yul\":867:899   */\n      slt\n        /* \"#utility.yul\":864:983   */\n      iszero\n      tag_245\n      jumpi\n        /* \"#utility.yul\":902:981   */\n      tag_246\n      tag_242\n      jump\t// in\n    tag_246:\n        /* \"#utility.yul\":864:983   */\n    tag_245:\n        /* \"#utility.yul\":1022:1023   */\n      0x00\n        /* \"#utility.yul\":1047:1100   */\n      tag_247\n        /* \"#utility.yul\":1092:1099   */\n      dup6\n        /* \"#utility.yul\":1083:1089   */\n      dup3\n        /* \"#utility.yul\":1072:1081   */\n      dup7\n        /* \"#utility.yul\":1068:1090   */\n      add\n        /* \"#utility.yul\":1047:1100   */\n      tag_227\n      jump\t// in\n    tag_247:\n        /* \"#utility.yul\":1037:1100   */\n      swap3\n      pop\n        /* \"#utility.yul\":993:1110   */\n      pop\n        /* \"#utility.yul\":1149:1151   */\n      0x20\n        /* \"#utility.yul\":1175:1226   */\n      tag_248\n        /* \"#utility.yul\":1218:1225   */\n      dup6\n        /* \"#utility.yul\":1209:1215   */\n      dup3\n        /* \"#utility.yul\":1198:1207   */\n      dup7\n        /* \"#utility.yul\":1194:1216   */\n      add\n        /* \"#utility.yul\":1175:1226   */\n      tag_235\n      jump\t// in\n    tag_248:\n        /* \"#utility.yul\":1165:1226   */\n      swap2\n      pop\n        /* \"#utility.yul\":1120:1236   */\n      pop\n        /* \"#utility.yul\":773:1243   */\n      swap3\n      pop\n      swap3\n      swap1\n      pop\n      jump\t// out\n        /* \"#utility.yul\":1249:1578   */\n    tag_29:\n        /* \"#utility.yul\":1308:1314   */\n      0x00\n        /* \"#utility.yul\":1357:1359   */\n      0x20\n        /* \"#utility.yul\":1345:1354   */\n      dup3\n        /* \"#utility.yul\":1336:1343   */\n      dup5\n        /* \"#utility.yul\":1332:1355   */\n      sub\n        /* \"#utility.yul\":1328:1360   */\n      slt\n        /* \"#utility.yul\":1325:1444   */\n      iszero\n      tag_250\n      jumpi\n        /* \"#utility.yul\":1363:1442   */\n      tag_251\n      tag_242\n      jump\t// in\n    tag_251:\n        /* \"#utility.yul\":1325:1444   */\n    tag_250:\n        /* \"#utility.yul\":1483:1484   */\n      0x00\n        /* \"#utility.yul\":1508:1561   */\n      tag_252\n        /* \"#utility.yul\":1553:1560   */\n      dup5\n        /* \"#utility.yul\":1544:1550   */\n      dup3\n        /* \"#utility.yul\":1533:1542   */\n      dup6\n        /* \"#utility.yul\":1529:1551   */\n      add\n        /* \"#utility.yul\":1508:1561   */\n      tag_231\n      jump\t// in\n    tag_252:\n        /* \"#utility.yul\":1498:1561   */\n      swap2\n      pop\n        /* \"#utility.yul\":1454:1571   */\n      pop\n        /* \"#utility.yul\":1249:1578   */\n      swap3\n      swap2\n      pop\n      pop\n      jump\t// out\n        /* \"#utility.yul\":1584:1909   */\n    tag_47:\n        /* \"#utility.yul\":1641:1647   */\n      0x00\n        /* \"#utility.yul\":1690:1692   */\n      0x20\n        /* \"#utility.yul\":1678:1687   */\n      dup3\n        /* \"#utility.yul\":1669:1676   */\n      dup5\n        /* \"#utility.yul\":1665:1688   */\n      sub\n        /* \"#utility.yul\":1661:1693   */\n      slt\n        /* \"#utility.yul\":1658:1777   */\n      iszero\n      tag_254\n      jumpi\n        /* \"#utility.yul\":1696:1775   */\n      tag_255\n      tag_242\n      jump\t// in\n    tag_255:\n        /* \"#utility.yul\":1658:1777   */\n    tag_254:\n        /* \"#utility.yul\":1816:1817   */\n      0x00\n        /* \"#utility.yul\":1841:1892   */\n      tag_256\n        /* \"#utility.yul\":1884:1891   */\n      dup5\n        /* \"#utility.yul\":1875:1881   */\n      dup3\n        /* \"#utility.yul\":1864:1873   */\n      dup6\n        /* \"#utility.yul\":1860:1882   */\n      add\n        /* \"#utility.yul\":1841:1892   */\n      tag_235\n      jump\t// in\n    tag_256:\n        /* \"#utility.yul\":1831:1892   */\n      swap2\n      pop\n        /* \"#utility.yul\":1787:1902   */\n      pop\n        /* \"#utility.yul\":1584:1909   */\n      swap3\n      swap2\n      pop\n      pop\n      jump\t// out\n        /* \"#utility.yul\":1915:2385   */\n    tag_62:\n        /* \"#utility.yul\":1981:1987   */\n      0x00\n        /* \"#utility.yul\":1989:1995   */\n      dup1\n        /* \"#utility.yul\":2038:2040   */\n      0x40\n        /* \"#utility.yul\":2026:2035   */\n      dup4\n        /* \"#utility.yul\":2017:2024   */\n      dup6\n        /* \"#utility.yul\":2013:2036   */\n      sub\n        /* \"#utility.yul\":2009:2041   */\n      slt\n        /* \"#utility.yul\":2006:2125   */\n      iszero\n      tag_258\n      jumpi\n        /* \"#utility.yul\":2044:2123   */\n      tag_259\n      tag_242\n      jump\t// in\n    tag_259:\n        /* \"#utility.yul\":2006:2125   */\n    tag_258:\n        /* \"#utility.yul\":2164:2165   */\n      0x00\n        /* \"#utility.yul\":2189:2240   */\n      tag_260\n        /* \"#utility.yul\":2232:2239   */\n      dup6\n        /* \"#utility.yul\":2223:2229   */\n      dup3\n        /* \"#utility.yul\":2212:2221   */\n      dup7\n        /* \"#utility.yul\":2208:2230   */\n      add\n        /* \"#utility.yul\":2189:2240   */\n      tag_235\n      jump\t// in\n    tag_260:\n        /* \"#utility.yul\":2179:2240   */\n      swap3\n      pop\n        /* \"#utility.yul\":2135:2250   */\n      pop\n        /* \"#utility.yul\":2289:2291   */\n      0x20\n        /* \"#utility.yul\":2315:2368   */\n      tag_261\n        /* \"#utility.yul\":2360:2367   */\n      dup6\n        /* \"#utility.yul\":2351:2357   */\n      dup3\n        /* \"#utility.yul\":2340:2349   */\n      dup7\n        /* \"#utility.yul\":2336:2358   */\n      add\n        /* \"#utility.yul\":2315:2368   */\n      tag_231\n      jump\t// in\n    tag_261:\n        /* \"#utility.yul\":2305:2368   */\n      swap2\n      pop\n        /* \"#utility.yul\":2260:2378   */\n      pop\n        /* \"#utility.yul\":1915:2385   */\n      swap3\n      pop\n      swap3\n      swap1\n      pop\n      jump\t// out\n        /* \"#utility.yul\":2391:2533   */\n    tag_262:\n        /* \"#utility.yul\":2494:2526   */\n      tag_264\n        /* \"#utility.yul\":2520:2525   */\n      dup2\n        /* \"#utility.yul\":2494:2526   */\n      tag_265\n      jump\t// in\n    tag_264:\n        /* \"#utility.yul\":2489:2492   */\n      dup3\n        /* \"#utility.yul\":2482:2527   */\n      mstore\n        /* \"#utility.yul\":2391:2533   */\n      pop\n      pop\n      jump\t// out\n        /* \"#utility.yul\":2539:2657   */\n    tag_266:\n        /* \"#utility.yul\":2626:2650   */\n      tag_268\n        /* \"#utility.yul\":2644:2649   */\n      dup2\n        /* \"#utility.yul\":2626:2650   */\n      tag_269\n      jump\t// in\n    tag_268:\n        /* \"#utility.yul\":2621:2624   */\n      dup3\n        /* \"#utility.yul\":2614:2651   */\n      mstore\n        /* \"#utility.yul\":2539:2657   */\n      pop\n      pop\n      jump\t// out\n        /* \"#utility.yul\":2663:2772   */\n    tag_270:\n        /* \"#utility.yul\":2744:2765   */\n      tag_272\n        /* \"#utility.yul\":2759:2764   */\n      dup2\n        /* \"#utility.yul\":2744:2765   */\n      tag_273\n      jump\t// in\n    tag_272:\n        /* \"#utility.yul\":2739:2742   */\n      dup3\n        /* \"#utility.yul\":2732:2766   */\n      mstore\n        /* \"#utility.yul\":2663:2772   */\n      pop\n      pop\n      jump\t// out\n        /* \"#utility.yul\":2778:3144   */\n    tag_274:\n        /* \"#utility.yul\":2920:2923   */\n      0x00\n        /* \"#utility.yul\":2941:3008   */\n      tag_276\n        /* \"#utility.yul\":3005:3007   */\n      0x0e\n        /* \"#utility.yul\":3000:3003   */\n      dup4\n        /* \"#utility.yul\":2941:3008   */\n      tag_277\n      jump\t// in\n    tag_276:\n        /* \"#utility.yul\":2934:3008   */\n      swap2\n      pop\n        /* \"#utility.yul\":3017:3110   */\n      tag_278\n        /* \"#utility.yul\":3106:3109   */\n      dup3\n        /* \"#utility.yul\":3017:3110   */\n      tag_279\n      jump\t// in\n    tag_278:\n        /* \"#utility.yul\":3135:3137   */\n      0x20\n        /* \"#utility.yul\":3130:3133   */\n      dup3\n        /* \"#utility.yul\":3126:3138   */\n      add\n        /* \"#utility.yul\":3119:3138   */\n      swap1\n      pop\n        /* \"#utility.yul\":2778:3144   */\n      swap2\n      swap1\n      pop\n      jump\t// out\n        /* \"#utility.yul\":3150:3516   */\n    tag_280:\n        /* \"#utility.yul\":3292:3295   */\n      0x00\n        /* \"#utility.yul\":3313:3380   */\n      tag_282\n        /* \"#utility.yul\":3377:3379   */\n      0x1a\n        /* \"#utility.yul\":3372:3375   */\n      dup4\n        /* \"#utility.yul\":3313:3380   */\n      tag_277\n      jump\t// in\n    tag_282:\n        /* \"#utility.yul\":3306:3380   */\n      swap2\n      pop\n        /* \"#utility.yul\":3389:3482   */\n      tag_283\n        /* \"#utility.yul\":3478:3481   */\n      dup3\n        /* \"#utility.yul\":3389:3482   */\n      tag_284\n      jump\t// in\n    tag_283:\n        /* \"#utility.yul\":3507:3509   */\n      0x20\n        /* \"#utility.yul\":3502:3505   */\n      dup3\n        /* \"#utility.yul\":3498:3510   */\n      add\n        /* \"#utility.yul\":3491:3510   */\n      swap1\n      pop\n        /* \"#utility.yul\":3150:3516   */\n      swap2\n      swap1\n      pop\n      jump\t// out\n        /* \"#utility.yul\":3522:3920   */\n    tag_285:\n        /* \"#utility.yul\":3681:3684   */\n      0x00\n        /* \"#utility.yul\":3702:3785   */\n      tag_287\n        /* \"#utility.yul\":3783:3784   */\n      0x00\n        /* \"#utility.yul\":3778:3781   */\n      dup4\n        /* \"#utility.yul\":3702:3785   */\n      tag_288\n      jump\t// in\n    tag_287:\n        /* \"#utility.yul\":3695:3785   */\n      swap2\n      pop\n        /* \"#utility.yul\":3794:3887   */\n      tag_289\n        /* \"#utility.yul\":3883:3886   */\n      dup3\n        /* \"#utility.yul\":3794:3887   */\n      tag_290\n      jump\t// in\n    tag_289:\n        /* \"#utility.yul\":3912:3913   */\n      0x00\n        /* \"#utility.yul\":3907:3910   */\n      dup3\n        /* \"#utility.yul\":3903:3914   */\n      add\n        /* \"#utility.yul\":3896:3914   */\n      swap1\n      pop\n        /* \"#utility.yul\":3522:3920   */\n      swap2\n      swap1\n      pop\n      jump\t// out\n        /* \"#utility.yul\":3926:4292   */\n    tag_291:\n        /* \"#utility.yul\":4068:4071   */\n      0x00\n        /* \"#utility.yul\":4089:4156   */\n      tag_293\n        /* \"#utility.yul\":4153:4155   */\n      0x23\n        /* \"#utility.yul\":4148:4151   */\n      dup4\n        /* \"#utility.yul\":4089:4156   */\n      tag_277\n      jump\t// in\n    tag_293:\n        /* \"#utility.yul\":4082:4156   */\n      swap2\n      pop\n        /* \"#utility.yul\":4165:4258   */\n      tag_294\n        /* \"#utility.yul\":4254:4257   */\n      dup3\n        /* \"#utility.yul\":4165:4258   */\n      tag_295\n      jump\t// in\n    tag_294:\n        /* \"#utility.yul\":4283:4285   */\n      0x40\n        /* \"#utility.yul\":4278:4281   */\n      dup3\n        /* \"#utility.yul\":4274:4286   */\n      add\n        /* \"#utility.yul\":4267:4286   */\n      swap1\n      pop\n        /* \"#utility.yul\":3926:4292   */\n      swap2\n      swap1\n      pop\n      jump\t// out\n        /* \"#utility.yul\":4298:4664   */\n    tag_296:\n        /* \"#utility.yul\":4440:4443   */\n      0x00\n        /* \"#utility.yul\":4461:4528   */\n      tag_298\n        /* \"#utility.yul\":4525:4527   */\n      0x28\n        /* \"#utility.yul\":4520:4523   */\n      dup4\n        /* \"#utility.yul\":4461:4528   */\n      tag_277\n      jump\t// in\n    tag_298:\n        /* \"#utility.yul\":4454:4528   */\n      swap2\n      pop\n        /* \"#utility.yul\":4537:4630   */\n      tag_299\n        /* \"#utility.yul\":4626:4629   */\n      dup3\n        /* \"#utility.yul\":4537:4630   */\n      tag_300\n      jump\t// in\n    tag_299:\n        /* \"#utility.yul\":4655:4657   */\n      0x40\n        /* \"#utility.yul\":4650:4653   */\n      dup3\n        /* \"#utility.yul\":4646:4658   */\n      add\n        /* \"#utility.yul\":4639:4658   */\n      swap1\n      pop\n        /* \"#utility.yul\":4298:4664   */\n      swap2\n      swap1\n      pop\n      jump\t// out\n        /* \"#utility.yul\":4670:5036   */\n    tag_301:\n        /* \"#utility.yul\":4812:4815   */\n      0x00\n        /* \"#utility.yul\":4833:4900   */\n      tag_303\n        /* \"#utility.yul\":4897:4899   */\n      0x0c\n        /* \"#utility.yul\":4892:4895   */\n      dup4\n        /* \"#utility.yul\":4833:4900   */\n      tag_277\n      jump\t// in\n    tag_303:\n        /* \"#utility.yul\":4826:4900   */\n      swap2\n      pop\n        /* \"#utility.yul\":4909:5002   */\n      tag_304\n        /* \"#utility.yul\":4998:5001   */\n      dup3\n        /* \"#utility.yul\":4909:5002   */\n      tag_305\n      jump\t// in\n    tag_304:\n        /* \"#utility.yul\":5027:5029   */\n      0x20\n        /* \"#utility.yul\":5022:5025   */\n      dup3\n        /* \"#utility.yul\":5018:5030   */\n      add\n        /* \"#utility.yul\":5011:5030   */\n      swap1\n      pop\n        /* \"#utility.yul\":4670:5036   */\n      swap2\n      swap1\n      pop\n      jump\t// out\n        /* \"#utility.yul\":5042:5408   */\n    tag_306:\n        /* \"#utility.yul\":5184:5187   */\n      0x00\n        /* \"#utility.yul\":5205:5272   */\n      tag_308\n        /* \"#utility.yul\":5269:5271   */\n      0x11\n        /* \"#utility.yul\":5264:5267   */\n      dup4\n        /* \"#utility.yul\":5205:5272   */\n      tag_277\n      jump\t// in\n    tag_308:\n        /* \"#utility.yul\":5198:5272   */\n      swap2\n      pop\n        /* \"#utility.yul\":5281:5374   */\n      tag_309\n        /* \"#utility.yul\":5370:5373   */\n      dup3\n        /* \"#utility.yul\":5281:5374   */\n      tag_310\n      jump\t// in\n    tag_309:\n        /* \"#utility.yul\":5399:5401   */\n      0x20\n        /* \"#utility.yul\":5394:5397   */\n      dup3\n        /* \"#utility.yul\":5390:5402   */\n      add\n        /* \"#utility.yul\":5383:5402   */\n      swap1\n      pop\n        /* \"#utility.yul\":5042:5408   */\n      swap2\n      swap1\n      pop\n      jump\t// out\n        /* \"#utility.yul\":5414:5532   */\n    tag_311:\n        /* \"#utility.yul\":5501:5525   */\n      tag_313\n        /* \"#utility.yul\":5519:5524   */\n      dup2\n        /* \"#utility.yul\":5501:5525   */\n      tag_314\n      jump\t// in\n    tag_313:\n        /* \"#utility.yul\":5496:5499   */\n      dup3\n        /* \"#utility.yul\":5489:5526   */\n      mstore\n        /* \"#utility.yul\":5414:5532   */\n      pop\n      pop\n      jump\t// out\n        /* \"#utility.yul\":5538:5650   */\n    tag_315:\n        /* \"#utility.yul\":5621:5643   */\n      tag_317\n        /* \"#utility.yul\":5637:5642   */\n      dup2\n        /* \"#utility.yul\":5621:5643   */\n      tag_318\n      jump\t// in\n    tag_317:\n        /* \"#utility.yul\":5616:5619   */\n      dup3\n        /* \"#utility.yul\":5609:5644   */\n      mstore\n        /* \"#utility.yul\":5538:5650   */\n      pop\n      pop\n      jump\t// out\n        /* \"#utility.yul\":5656:6035   */\n    tag_168:\n        /* \"#utility.yul\":5840:5843   */\n      0x00\n        /* \"#utility.yul\":5862:6009   */\n      tag_320\n        /* \"#utility.yul\":6005:6008   */\n      dup3\n        /* \"#utility.yul\":5862:6009   */\n      tag_285\n      jump\t// in\n    tag_320:\n        /* \"#utility.yul\":5855:6009   */\n      swap2\n      pop\n        /* \"#utility.yul\":6026:6029   */\n      dup2\n        /* \"#utility.yul\":6019:6029   */\n      swap1\n      pop\n        /* \"#utility.yul\":5656:6035   */\n      swap2\n      swap1\n      pop\n      jump\t// out\n        /* \"#utility.yul\":6041:6263   */\n    tag_95:\n        /* \"#utility.yul\":6134:6138   */\n      0x00\n        /* \"#utility.yul\":6172:6174   */\n      0x20\n        /* \"#utility.yul\":6161:6170   */\n      dup3\n        /* \"#utility.yul\":6157:6175   */\n      add\n        /* \"#utility.yul\":6149:6175   */\n      swap1\n      pop\n        /* \"#utility.yul\":6185:6256   */\n      tag_322\n        /* \"#utility.yul\":6253:6254   */\n      0x00\n        /* \"#utility.yul\":6242:6251   */\n      dup4\n        /* \"#utility.yul\":6238:6255   */\n      add\n        /* \"#utility.yul\":6229:6235   */\n      dup5\n        /* \"#utility.yul\":6185:6256   */\n      tag_266\n      jump\t// in\n    tag_322:\n        /* \"#utility.yul\":6041:6263   */\n      swap3\n      swap2\n      pop\n      pop\n      jump\t// out\n        /* \"#utility.yul\":6269:6479   */\n    tag_44:\n        /* \"#utility.yul\":6356:6360   */\n      0x00\n        /* \"#utility.yul\":6394:6396   */\n      0x20\n        /* \"#utility.yul\":6383:6392   */\n      dup3\n        /* \"#utility.yul\":6379:6397   */\n      add\n        /* \"#utility.yul\":6371:6397   */\n      swap1\n      pop\n        /* \"#utility.yul\":6407:6472   */\n      tag_324\n        /* \"#utility.yul\":6469:6470   */\n      0x00\n        /* \"#utility.yul\":6458:6467   */\n      dup4\n        /* \"#utility.yul\":6454:6471   */\n      add\n        /* \"#utility.yul\":6445:6451   */\n      dup5\n        /* \"#utility.yul\":6407:6472   */\n      tag_270\n      jump\t// in\n    tag_324:\n        /* \"#utility.yul\":6269:6479   */\n      swap3\n      swap2\n      pop\n      pop\n      jump\t// out\n        /* \"#utility.yul\":6485:6904   */\n    tag_112:\n        /* \"#utility.yul\":6651:6655   */\n      0x00\n        /* \"#utility.yul\":6689:6691   */\n      0x20\n        /* \"#utility.yul\":6678:6687   */\n      dup3\n        /* \"#utility.yul\":6674:6692   */\n      add\n        /* \"#utility.yul\":6666:6692   */\n      swap1\n      pop\n        /* \"#utility.yul\":6738:6747   */\n      dup2\n        /* \"#utility.yul\":6732:6736   */\n      dup2\n        /* \"#utility.yul\":6728:6748   */\n      sub\n        /* \"#utility.yul\":6724:6725   */\n      0x00\n        /* \"#utility.yul\":6713:6722   */\n      dup4\n        /* \"#utility.yul\":6709:6726   */\n      add\n        /* \"#utility.yul\":6702:6749   */\n      mstore\n        /* \"#utility.yul\":6766:6897   */\n      tag_326\n        /* \"#utility.yul\":6892:6896   */\n      dup2\n        /* \"#utility.yul\":6766:6897   */\n      tag_274\n      jump\t// in\n    tag_326:\n        /* \"#utility.yul\":6758:6897   */\n      swap1\n      pop\n        /* \"#utility.yul\":6485:6904   */\n      swap2\n      swap1\n      pop\n      jump\t// out\n        /* \"#utility.yul\":6910:7329   */\n    tag_122:\n        /* \"#utility.yul\":7076:7080   */\n      0x00\n        /* \"#utility.yul\":7114:7116   */\n      0x20\n        /* \"#utility.yul\":7103:7112   */\n      dup3\n        /* \"#utility.yul\":7099:7117   */\n      add\n        /* \"#utility.yul\":7091:7117   */\n      swap1\n      pop\n        /* \"#utility.yul\":7163:7172   */\n      dup2\n        /* \"#utility.yul\":7157:7161   */\n      dup2\n        /* \"#utility.yul\":7153:7173   */\n      sub\n        /* \"#utility.yul\":7149:7150   */\n      0x00\n        /* \"#utility.yul\":7138:7147   */\n      dup4\n        /* \"#utility.yul\":7134:7151   */\n      add\n        /* \"#utility.yul\":7127:7174   */\n      mstore\n        /* \"#utility.yul\":7191:7322   */\n      tag_328\n        /* \"#utility.yul\":7317:7321   */\n      dup2\n        /* \"#utility.yul\":7191:7322   */\n      tag_280\n      jump\t// in\n    tag_328:\n        /* \"#utility.yul\":7183:7322   */\n      swap1\n      pop\n        /* \"#utility.yul\":6910:7329   */\n      swap2\n      swap1\n      pop\n      jump\t// out\n        /* \"#utility.yul\":7335:7754   */\n    tag_152:\n        /* \"#utility.yul\":7501:7505   */\n      0x00\n        /* \"#utility.yul\":7539:7541   */\n      0x20\n        /* \"#utility.yul\":7528:7537   */\n      dup3\n        /* \"#utility.yul\":7524:7542   */\n      add\n        /* \"#utility.yul\":7516:7542   */\n      swap1\n      pop\n        /* \"#utility.yul\":7588:7597   */\n      dup2\n        /* \"#utility.yul\":7582:7586   */\n      dup2\n        /* \"#utility.yul\":7578:7598   */\n      sub\n        /* \"#utility.yul\":7574:7575   */\n      0x00\n        /* \"#utility.yul\":7563:7572   */\n      dup4\n        /* \"#utility.yul\":7559:7576   */\n      add\n        /* \"#utility.yul\":7552:7599   */\n      mstore\n        /* \"#utility.yul\":7616:7747   */\n      tag_330\n        /* \"#utility.yul\":7742:7746   */\n      dup2\n        /* \"#utility.yul\":7616:7747   */\n      tag_291\n      jump\t// in\n    tag_330:\n        /* \"#utility.yul\":7608:7747   */\n      swap1\n      pop\n        /* \"#utility.yul\":7335:7754   */\n      swap2\n      swap1\n      pop\n      jump\t// out\n        /* \"#utility.yul\":7760:8179   */\n    tag_125:\n        /* \"#utility.yul\":7926:7930   */\n      0x00\n        /* \"#utility.yul\":7964:7966   */\n      0x20\n        /* \"#utility.yul\":7953:7962   */\n      dup3\n        /* \"#utility.yul\":7949:7967   */\n      add\n        /* \"#utility.yul\":7941:7967   */\n      swap1\n      pop\n        /* \"#utility.yul\":8013:8022   */\n      dup2\n        /* \"#utility.yul\":8007:8011   */\n      dup2\n        /* \"#utility.yul\":8003:8023   */\n      sub\n        /* \"#utility.yul\":7999:8000   */\n      0x00\n        /* \"#utility.yul\":7988:7997   */\n      dup4\n        /* \"#utility.yul\":7984:8001   */\n      add\n        /* \"#utility.yul\":7977:8024   */\n      mstore\n        /* \"#utility.yul\":8041:8172   */\n      tag_332\n        /* \"#utility.yul\":8167:8171   */\n      dup2\n        /* \"#utility.yul\":8041:8172   */\n      tag_296\n      jump\t// in\n    tag_332:\n        /* \"#utility.yul\":8033:8172   */\n      swap1\n      pop\n        /* \"#utility.yul\":7760:8179   */\n      swap2\n      swap1\n      pop\n      jump\t// out\n        /* \"#utility.yul\":8185:8604   */\n    tag_118:\n        /* \"#utility.yul\":8351:8355   */\n      0x00\n        /* \"#utility.yul\":8389:8391   */\n      0x20\n        /* \"#utility.yul\":8378:8387   */\n      dup3\n        /* \"#utility.yul\":8374:8392   */\n      add\n        /* \"#utility.yul\":8366:8392   */\n      swap1\n      pop\n        /* \"#utility.yul\":8438:8447   */\n      dup2\n        /* \"#utility.yul\":8432:8436   */\n      dup2\n        /* \"#utility.yul\":8428:8448   */\n      sub\n        /* \"#utility.yul\":8424:8425   */\n      0x00\n        /* \"#utility.yul\":8413:8422   */\n      dup4\n        /* \"#utility.yul\":8409:8426   */\n      add\n        /* \"#utility.yul\":8402:8449   */\n      mstore\n        /* \"#utility.yul\":8466:8597   */\n      tag_334\n        /* \"#utility.yul\":8592:8596   */\n      dup2\n        /* \"#utility.yul\":8466:8597   */\n      tag_301\n      jump\t// in\n    tag_334:\n        /* \"#utility.yul\":8458:8597   */\n      swap1\n      pop\n        /* \"#utility.yul\":8185:8604   */\n      swap2\n      swap1\n      pop\n      jump\t// out\n        /* \"#utility.yul\":8610:9029   */\n    tag_143:\n        /* \"#utility.yul\":8776:8780   */\n      0x00\n        /* \"#utility.yul\":8814:8816   */\n      0x20\n        /* \"#utility.yul\":8803:8812   */\n      dup3\n        /* \"#utility.yul\":8799:8817   */\n      add\n        /* \"#utility.yul\":8791:8817   */\n      swap1\n      pop\n        /* \"#utility.yul\":8863:8872   */\n      dup2\n        /* \"#utility.yul\":8857:8861   */\n      dup2\n        /* \"#utility.yul\":8853:8873   */\n      sub\n        /* \"#utility.yul\":8849:8850   */\n      0x00\n        /* \"#utility.yul\":8838:8847   */\n      dup4\n        /* \"#utility.yul\":8834:8851   */\n      add\n        /* \"#utility.yul\":8827:8874   */\n      mstore\n        /* \"#utility.yul\":8891:9022   */\n      tag_336\n        /* \"#utility.yul\":9017:9021   */\n      dup2\n        /* \"#utility.yul\":8891:9022   */\n      tag_306\n      jump\t// in\n    tag_336:\n        /* \"#utility.yul\":8883:9022   */\n      swap1\n      pop\n        /* \"#utility.yul\":8610:9029   */\n      swap2\n      swap1\n      pop\n      jump\t// out\n        /* \"#utility.yul\":9035:9257   */\n    tag_54:\n        /* \"#utility.yul\":9128:9132   */\n      0x00\n        /* \"#utility.yul\":9166:9168   */\n      0x20\n        /* \"#utility.yul\":9155:9164   */\n      dup3\n        /* \"#utility.yul\":9151:9169   */\n      add\n        /* \"#utility.yul\":9143:9169   */\n      swap1\n      pop\n        /* \"#utility.yul\":9179:9250   */\n      tag_338\n        /* \"#utility.yul\":9247:9248   */\n      0x00\n        /* \"#utility.yul\":9236:9245   */\n      dup4\n        /* \"#utility.yul\":9232:9249   */\n      add\n        /* \"#utility.yul\":9223:9229   */\n      dup5\n        /* \"#utility.yul\":9179:9250   */\n      tag_311\n      jump\t// in\n    tag_338:\n        /* \"#utility.yul\":9035:9257   */\n      swap3\n      swap2\n      pop\n      pop\n      jump\t// out\n        /* \"#utility.yul\":9263:9737   */\n    tag_37:\n        /* \"#utility.yul\":9428:9432   */\n      0x00\n        /* \"#utility.yul\":9466:9468   */\n      0x60\n        /* \"#utility.yul\":9455:9464   */\n      dup3\n        /* \"#utility.yul\":9451:9469   */\n      add\n        /* \"#utility.yul\":9443:9469   */\n      swap1\n      pop\n        /* \"#utility.yul\":9479:9550   */\n      tag_340\n        /* \"#utility.yul\":9547:9548   */\n      0x00\n        /* \"#utility.yul\":9536:9545   */\n      dup4\n        /* \"#utility.yul\":9532:9549   */\n      add\n        /* \"#utility.yul\":9523:9529   */\n      dup7\n        /* \"#utility.yul\":9479:9550   */\n      tag_311\n      jump\t// in\n    tag_340:\n        /* \"#utility.yul\":9560:9648   */\n      tag_341\n        /* \"#utility.yul\":9644:9646   */\n      0x20\n        /* \"#utility.yul\":9633:9642   */\n      dup4\n        /* \"#utility.yul\":9629:9647   */\n      add\n        /* \"#utility.yul\":9620:9626   */\n      dup6\n        /* \"#utility.yul\":9560:9648   */\n      tag_262\n      jump\t// in\n    tag_341:\n        /* \"#utility.yul\":9658:9730   */\n      tag_342\n        /* \"#utility.yul\":9726:9728   */\n      0x40\n        /* \"#utility.yul\":9715:9724   */\n      dup4\n        /* \"#utility.yul\":9711:9729   */\n      add\n        /* \"#utility.yul\":9702:9708   */\n      dup5\n        /* \"#utility.yul\":9658:9730   */\n      tag_311\n      jump\t// in\n    tag_342:\n        /* \"#utility.yul\":9263:9737   */\n      swap5\n      swap4\n      pop\n      pop\n      pop\n      pop\n      jump\t// out\n        /* \"#utility.yul\":9743:10185   */\n    tag_132:\n        /* \"#utility.yul\":9892:9896   */\n      0x00\n        /* \"#utility.yul\":9930:9932   */\n      0x60\n        /* \"#utility.yul\":9919:9928   */\n      dup3\n        /* \"#utility.yul\":9915:9933   */\n      add\n        /* \"#utility.yul\":9907:9933   */\n      swap1\n      pop\n        /* \"#utility.yul\":9943:10014   */\n      tag_344\n        /* \"#utility.yul\":10011:10012   */\n      0x00\n        /* \"#utility.yul\":10000:10009   */\n      dup4\n        /* \"#utility.yul\":9996:10013   */\n      add\n        /* \"#utility.yul\":9987:9993   */\n      dup7\n        /* \"#utility.yul\":9943:10014   */\n      tag_311\n      jump\t// in\n    tag_344:\n        /* \"#utility.yul\":10024:10096   */\n      tag_345\n        /* \"#utility.yul\":10092:10094   */\n      0x20\n        /* \"#utility.yul\":10081:10090   */\n      dup4\n        /* \"#utility.yul\":10077:10095   */\n      add\n        /* \"#utility.yul\":10068:10074   */\n      dup6\n        /* \"#utility.yul\":10024:10096   */\n      tag_311\n      jump\t// in\n    tag_345:\n        /* \"#utility.yul\":10106:10178   */\n      tag_346\n        /* \"#utility.yul\":10174:10176   */\n      0x40\n        /* \"#utility.yul\":10163:10172   */\n      dup4\n        /* \"#utility.yul\":10159:10177   */\n      add\n        /* \"#utility.yul\":10150:10156   */\n      dup5\n        /* \"#utility.yul\":10106:10178   */\n      tag_311\n      jump\t// in\n    tag_346:\n        /* \"#utility.yul\":9743:10185   */\n      swap5\n      swap4\n      pop\n      pop\n      pop\n      pop\n      jump\t// out\n        /* \"#utility.yul\":10191:10405   */\n    tag_85:\n        /* \"#utility.yul\":10280:10284   */\n      0x00\n        /* \"#utility.yul\":10318:10320   */\n      0x20\n        /* \"#utility.yul\":10307:10316   */\n      dup3\n        /* \"#utility.yul\":10303:10321   */\n      add\n        /* \"#utility.yul\":10295:10321   */\n      swap1\n      pop\n        /* \"#utility.yul\":10331:10398   */\n      tag_348\n        /* \"#utility.yul\":10395:10396   */\n      0x00\n        /* \"#utility.yul\":10384:10393   */\n      dup4\n        /* \"#utility.yul\":10380:10397   */\n      add\n        /* \"#utility.yul\":10371:10377   */\n      dup5\n        /* \"#utility.yul\":10331:10398   */\n      tag_315\n      jump\t// in\n    tag_348:\n        /* \"#utility.yul\":10191:10405   */\n      swap3\n      swap2\n      pop\n      pop\n      jump\t// out\n        /* \"#utility.yul\":10411:10833   */\n    tag_174:\n        /* \"#utility.yul\":10550:10554   */\n      0x00\n        /* \"#utility.yul\":10588:10590   */\n      0x60\n        /* \"#utility.yul\":10577:10586   */\n      dup3\n        /* \"#utility.yul\":10573:10591   */\n      add\n        /* \"#utility.yul\":10565:10591   */\n      swap1\n      pop\n        /* \"#utility.yul\":10601:10668   */\n      tag_350\n        /* \"#utility.yul\":10665:10666   */\n      0x00\n        /* \"#utility.yul\":10654:10663   */\n      dup4\n        /* \"#utility.yul\":10650:10667   */\n      add\n        /* \"#utility.yul\":10641:10647   */\n      dup7\n        /* \"#utility.yul\":10601:10668   */\n      tag_315\n      jump\t// in\n    tag_350:\n        /* \"#utility.yul\":10678:10750   */\n      tag_351\n        /* \"#utility.yul\":10746:10748   */\n      0x20\n        /* \"#utility.yul\":10735:10744   */\n      dup4\n        /* \"#utility.yul\":10731:10749   */\n      add\n        /* \"#utility.yul\":10722:10728   */\n      dup6\n        /* \"#utility.yul\":10678:10750   */\n      tag_266\n      jump\t// in\n    tag_351:\n        /* \"#utility.yul\":10760:10826   */\n      tag_352\n        /* \"#utility.yul\":10822:10824   */\n      0x40\n        /* \"#utility.yul\":10811:10820   */\n      dup4\n        /* \"#utility.yul\":10807:10825   */\n      add\n        /* \"#utility.yul\":10798:10804   */\n      dup5\n        /* \"#utility.yul\":10760:10826   */\n      tag_270\n      jump\t// in\n    tag_352:\n        /* \"#utility.yul\":10411:10833   */\n      swap5\n      swap4\n      pop\n      pop\n      pop\n      pop\n      jump\t// out\n        /* \"#utility.yul\":10839:11163   */\n    tag_70:\n        /* \"#utility.yul\":10956:10960   */\n      0x00\n        /* \"#utility.yul\":10994:10996   */\n      0x40\n        /* \"#utility.yul\":10983:10992   */\n      dup3\n        /* \"#utility.yul\":10979:10997   */\n      add\n        /* \"#utility.yul\":10971:10997   */\n      swap1\n      pop\n        /* \"#utility.yul\":11007:11074   */\n      tag_354\n        /* \"#utility.yul\":11071:11072   */\n      0x00\n        /* \"#utility.yul\":11060:11069   */\n      dup4\n        /* \"#utility.yul\":11056:11073   */\n      add\n        /* \"#utility.yul\":11047:11053   */\n      dup6\n        /* \"#utility.yul\":11007:11074   */\n      tag_315\n      jump\t// in\n    tag_354:\n        /* \"#utility.yul\":11084:11156   */\n      tag_355\n        /* \"#utility.yul\":11152:11154   */\n      0x20\n        /* \"#utility.yul\":11141:11150   */\n      dup4\n        /* \"#utility.yul\":11137:11155   */\n      add\n        /* \"#utility.yul\":11128:11134   */\n      dup5\n        /* \"#utility.yul\":11084:11156   */\n      tag_311\n      jump\t// in\n    tag_355:\n        /* \"#utility.yul\":10839:11163   */\n      swap4\n      swap3\n      pop\n      pop\n      pop\n      jump\t// out\n        /* \"#utility.yul\":11169:11714   */\n    tag_185:\n        /* \"#utility.yul\":11342:11346   */\n      0x00\n        /* \"#utility.yul\":11380:11383   */\n      0x80\n        /* \"#utility.yul\":11369:11378   */\n      dup3\n        /* \"#utility.yul\":11365:11384   */\n      add\n        /* \"#utility.yul\":11357:11384   */\n      swap1\n      pop\n        /* \"#utility.yul\":11394:11461   */\n      tag_357\n        /* \"#utility.yul\":11458:11459   */\n      0x00\n        /* \"#utility.yul\":11447:11456   */\n      dup4\n        /* \"#utility.yul\":11443:11460   */\n      add\n        /* \"#utility.yul\":11434:11440   */\n      dup8\n        /* \"#utility.yul\":11394:11461   */\n      tag_315\n      jump\t// in\n    tag_357:\n        /* \"#utility.yul\":11471:11543   */\n      tag_358\n        /* \"#utility.yul\":11539:11541   */\n      0x20\n        /* \"#utility.yul\":11528:11537   */\n      dup4\n        /* \"#utility.yul\":11524:11542   */\n      add\n        /* \"#utility.yul\":11515:11521   */\n      dup7\n        /* \"#utility.yul\":11471:11543   */\n      tag_311\n      jump\t// in\n    tag_358:\n        /* \"#utility.yul\":11553:11625   */\n      tag_359\n        /* \"#utility.yul\":11621:11623   */\n      0x40\n        /* \"#utility.yul\":11610:11619   */\n      dup4\n        /* \"#utility.yul\":11606:11624   */\n      add\n        /* \"#utility.yul\":11597:11603   */\n      dup6\n        /* \"#utility.yul\":11553:11625   */\n      tag_311\n      jump\t// in\n    tag_359:\n        /* \"#utility.yul\":11635:11707   */\n      tag_360\n        /* \"#utility.yul\":11703:11705   */\n      0x60\n        /* \"#utility.yul\":11692:11701   */\n      dup4\n        /* \"#utility.yul\":11688:11706   */\n      add\n        /* \"#utility.yul\":11679:11685   */\n      dup5\n        /* \"#utility.yul\":11635:11707   */\n      tag_311\n      jump\t// in\n    tag_360:\n        /* \"#utility.yul\":11169:11714   */\n      swap6\n      swap5\n      pop\n      pop\n      pop\n      pop\n      pop\n      jump\t// out\n        /* \"#utility.yul\":11801:11948   */\n    tag_288:\n        /* \"#utility.yul\":11902:11913   */\n      0x00\n        /* \"#utility.yul\":11939:11942   */\n      dup2\n        /* \"#utility.yul\":11924:11942   */\n      swap1\n      pop\n        /* \"#utility.yul\":11801:11948   */\n      swap3\n      swap2\n      pop\n      pop\n      jump\t// out\n        /* \"#utility.yul\":11954:12123   */\n    tag_277:\n        /* \"#utility.yul\":12038:12049   */\n      0x00\n        /* \"#utility.yul\":12072:12078   */\n      dup3\n        /* \"#utility.yul\":12067:12070   */\n      dup3\n        /* \"#utility.yul\":12060:12079   */\n      mstore\n        /* \"#utility.yul\":12112:12116   */\n      0x20\n        /* \"#utility.yul\":12107:12110   */\n      dup3\n        /* \"#utility.yul\":12103:12117   */\n      add\n        /* \"#utility.yul\":12088:12117   */\n      swap1\n      pop\n        /* \"#utility.yul\":11954:12123   */\n      swap3\n      swap2\n      pop\n      pop\n      jump\t// out\n        /* \"#utility.yul\":12129:12434   */\n    tag_127:\n        /* \"#utility.yul\":12169:12172   */\n      0x00\n        /* \"#utility.yul\":12188:12208   */\n      tag_366\n        /* \"#utility.yul\":12206:12207   */\n      dup3\n        /* \"#utility.yul\":12188:12208   */\n      tag_314\n      jump\t// in\n    tag_366:\n        /* \"#utility.yul\":12183:12208   */\n      swap2\n      pop\n        /* \"#utility.yul\":12222:12242   */\n      tag_367\n        /* \"#utility.yul\":12240:12241   */\n      dup4\n        /* \"#utility.yul\":12222:12242   */\n      tag_314\n      jump\t// in\n    tag_367:\n        /* \"#utility.yul\":12217:12242   */\n      swap3\n      pop\n        /* \"#utility.yul\":12376:12377   */\n      dup3\n        /* \"#utility.yul\":12308:12374   */\n      0xffffffffffffffffffffffffffffffffffffffffffffffffffffffffffffffff\n        /* \"#utility.yul\":12304:12378   */\n      sub\n        /* \"#utility.yul\":12301:12302   */\n      dup3\n        /* \"#utility.yul\":12298:12379   */\n      gt\n        /* \"#utility.yul\":12295:12402   */\n      iszero\n      tag_368\n      jumpi\n        /* \"#utility.yul\":12382:12400   */\n      tag_369\n      tag_370\n      jump\t// in\n    tag_369:\n        /* \"#utility.yul\":12295:12402   */\n    tag_368:\n        /* \"#utility.yul\":12426:12427   */\n      dup3\n        /* \"#utility.yul\":12423:12424   */\n      dup3\n        /* \"#utility.yul\":12419:12428   */\n      add\n        /* \"#utility.yul\":12412:12428   */\n      swap1\n      pop\n        /* \"#utility.yul\":12129:12434   */\n      swap3\n      swap2\n      pop\n      pop\n      jump\t// out\n        /* \"#utility.yul\":12440:12677   */\n    tag_106:\n        /* \"#utility.yul\":12478:12481   */\n      0x00\n        /* \"#utility.yul\":12497:12515   */\n      tag_372\n        /* \"#utility.yul\":12513:12514   */\n      dup3\n        /* \"#utility.yul\":12497:12515   */\n      tag_318\n      jump\t// in\n    tag_372:\n        /* \"#utility.yul\":12492:12515   */\n      swap2\n      pop\n        /* \"#utility.yul\":12529:12547   */\n      tag_373\n        /* \"#utility.yul\":12545:12546   */\n      dup4\n        /* \"#utility.yul\":12529:12547   */\n      tag_318\n      jump\t// in\n    tag_373:\n        /* \"#utility.yul\":12524:12547   */\n      swap3\n      pop\n        /* \"#utility.yul\":12619:12620   */\n      dup3\n        /* \"#utility.yul\":12613:12617   */\n      0xff\n        /* \"#utility.yul\":12609:12621   */\n      sub\n        /* \"#utility.yul\":12606:12607   */\n      dup3\n        /* \"#utility.yul\":12603:12622   */\n      gt\n        /* \"#utility.yul\":12600:12645   */\n      iszero\n      tag_374\n      jumpi\n        /* \"#utility.yul\":12625:12643   */\n      tag_375\n      tag_370\n      jump\t// in\n    tag_375:\n        /* \"#utility.yul\":12600:12645   */\n    tag_374:\n        /* \"#utility.yul\":12669:12670   */\n      dup3\n        /* \"#utility.yul\":12666:12667   */\n      dup3\n        /* \"#utility.yul\":12662:12671   */\n      add\n        /* \"#utility.yul\":12655:12671   */\n      swap1\n      pop\n        /* \"#utility.yul\":12440:12677   */\n      swap3\n      swap2\n      pop\n      pop\n      jump\t// out\n        /* \"#utility.yul\":12683:12868   */\n    tag_222:\n        /* \"#utility.yul\":12723:12724   */\n      0x00\n        /* \"#utility.yul\":12740:12760   */\n      tag_377\n        /* \"#utility.yul\":12758:12759   */\n      dup3\n        /* \"#utility.yul\":12740:12760   */\n      tag_314\n      jump\t// in\n    tag_377:\n        /* \"#utility.yul\":12735:12760   */\n      swap2\n      pop\n        /* \"#utility.yul\":12774:12794   */\n      tag_378\n        /* \"#utility.yul\":12792:12793   */\n      dup4\n        /* \"#utility.yul\":12774:12794   */\n      tag_314\n      jump\t// in\n    tag_378:\n        /* \"#utility.yul\":12769:12794   */\n      swap3\n      pop\n        /* \"#utility.yul\":12813:12814   */\n      dup3\n        /* \"#utility.yul\":12803:12838   */\n      tag_379\n      jumpi\n        /* \"#utility.yul\":12818:12836   */\n      tag_380\n      tag_381\n      jump\t// in\n    tag_380:\n        /* \"#utility.yul\":12803:12838   */\n    tag_379:\n        /* \"#utility.yul\":12860:12861   */\n      dup3\n        /* \"#utility.yul\":12857:12858   */\n      dup3\n        /* \"#utility.yul\":12853:12862   */\n      div\n        /* \"#utility.yul\":12848:12862   */\n      swap1\n      pop\n        /* \"#utility.yul\":12683:12868   */\n      swap3\n      swap2\n      pop\n      pop\n      jump\t// out\n        /* \"#utility.yul\":12874:13222   */\n    tag_219:\n        /* \"#utility.yul\":12914:12921   */\n      0x00\n        /* \"#utility.yul\":12937:12957   */\n      tag_383\n        /* \"#utility.yul\":12955:12956   */\n      dup3\n        /* \"#utility.yul\":12937:12957   */\n      tag_314\n      jump\t// in\n    tag_383:\n        /* \"#utility.yul\":12932:12957   */\n      swap2\n      pop\n        /* \"#utility.yul\":12971:12991   */\n      tag_384\n        /* \"#utility.yul\":12989:12990   */\n      dup4\n        /* \"#utility.yul\":12971:12991   */\n      tag_314\n      jump\t// in\n    tag_384:\n        /* \"#utility.yul\":12966:12991   */\n      swap3\n      pop\n        /* \"#utility.yul\":13159:13160   */\n      dup2\n        /* \"#utility.yul\":13091:13157   */\n      0xffffffffffffffffffffffffffffffffffffffffffffffffffffffffffffffff\n        /* \"#utility.yul\":13087:13161   */\n      div\n        /* \"#utility.yul\":13084:13085   */\n      dup4\n        /* \"#utility.yul\":13081:13162   */\n      gt\n        /* \"#utility.yul\":13076:13077   */\n      dup3\n        /* \"#utility.yul\":13069:13078   */\n      iszero\n        /* \"#utility.yul\":13062:13079   */\n      iszero\n        /* \"#utility.yul\":13058:13163   */\n      and\n        /* \"#utility.yul\":13055:13186   */\n      iszero\n      tag_385\n      jumpi\n        /* \"#utility.yul\":13166:13184   */\n      tag_386\n      tag_370\n      jump\t// in\n    tag_386:\n        /* \"#utility.yul\":13055:13186   */\n    tag_385:\n        /* \"#utility.yul\":13214:13215   */\n      dup3\n        /* \"#utility.yul\":13211:13212   */\n      dup3\n        /* \"#utility.yul\":13207:13216   */\n      mul\n        /* \"#utility.yul\":13196:13216   */\n      swap1\n      pop\n        /* \"#utility.yul\":12874:13222   */\n      swap3\n      swap2\n      pop\n      pop\n      jump\t// out\n        /* \"#utility.yul\":13228:13419   */\n    tag_130:\n        /* \"#utility.yul\":13268:13272   */\n      0x00\n        /* \"#utility.yul\":13288:13308   */\n      tag_388\n        /* \"#utility.yul\":13306:13307   */\n      dup3\n        /* \"#utility.yul\":13288:13308   */\n      tag_314\n      jump\t// in\n    tag_388:\n        /* \"#utility.yul\":13283:13308   */\n      swap2\n      pop\n        /* \"#utility.yul\":13322:13342   */\n      tag_389\n        /* \"#utility.yul\":13340:13341   */\n      dup4\n        /* \"#utility.yul\":13322:13342   */\n      tag_314\n      jump\t// in\n    tag_389:\n        /* \"#utility.yul\":13317:13342   */\n      swap3\n      pop\n        /* \"#utility.yul\":13361:13362   */\n      dup3\n        /* \"#utility.yul\":13358:13359   */\n      dup3\n        /* \"#utility.yul\":13355:13363   */\n      lt\n        /* \"#utility.yul\":13352:13386   */\n      iszero\n      tag_390\n      jumpi\n        /* \"#utility.yul\":13366:13384   */\n      tag_391\n      tag_370\n      jump\t// in\n    tag_391:\n        /* \"#utility.yul\":13352:13386   */\n    tag_390:\n        /* \"#utility.yul\":13411:13412   */\n      dup3\n        /* \"#utility.yul\":13408:13409   */\n      dup3\n        /* \"#utility.yul\":13404:13413   */\n      sub\n        /* \"#utility.yul\":13396:13413   */\n      swap1\n      pop\n        /* \"#utility.yul\":13228:13419   */\n      swap3\n      swap2\n      pop\n      pop\n      jump\t// out\n        /* \"#utility.yul\":13425:13610   */\n    tag_147:\n        /* \"#utility.yul\":13463:13467   */\n      0x00\n        /* \"#utility.yul\":13483:13501   */\n      tag_393\n        /* \"#utility.yul\":13499:13500   */\n      dup3\n        /* \"#utility.yul\":13483:13501   */\n      tag_318\n      jump\t// in\n    tag_393:\n        /* \"#utility.yul\":13478:13501   */\n      swap2\n      pop\n        /* \"#utility.yul\":13515:13533   */\n      tag_394\n        /* \"#utility.yul\":13531:13532   */\n      dup4\n        /* \"#utility.yul\":13515:13533   */\n      tag_318\n      jump\t// in\n    tag_394:\n        /* \"#utility.yul\":13510:13533   */\n      swap3\n      pop\n        /* \"#utility.yul\":13552:13553   */\n      dup3\n        /* \"#utility.yul\":13549:13550   */\n      dup3\n        /* \"#utility.yul\":13546:13554   */\n      lt\n        /* \"#utility.yul\":13543:13577   */\n      iszero\n      tag_395\n      jumpi\n        /* \"#utility.yul\":13557:13575   */\n      tag_396\n      tag_370\n      jump\t// in\n    tag_396:\n        /* \"#utility.yul\":13543:13577   */\n    tag_395:\n        /* \"#utility.yul\":13602:13603   */\n      dup3\n        /* \"#utility.yul\":13599:13600   */\n      dup3\n        /* \"#utility.yul\":13595:13604   */\n      sub\n        /* \"#utility.yul\":13587:13604   */\n      swap1\n      pop\n        /* \"#utility.yul\":13425:13610   */\n      swap3\n      swap2\n      pop\n      pop\n      jump\t// out\n        /* \"#utility.yul\":13616:13712   */\n    tag_269:\n        /* \"#utility.yul\":13653:13660   */\n      0x00\n        /* \"#utility.yul\":13682:13706   */\n      tag_398\n        /* \"#utility.yul\":13700:13705   */\n      dup3\n        /* \"#utility.yul\":13682:13706   */\n      tag_399\n      jump\t// in\n    tag_398:\n        /* \"#utility.yul\":13671:13706   */\n      swap1\n      pop\n        /* \"#utility.yul\":13616:13712   */\n      swap2\n      swap1\n      pop\n      jump\t// out\n        /* \"#utility.yul\":13718:13822   */\n    tag_265:\n        /* \"#utility.yul\":13763:13770   */\n      0x00\n        /* \"#utility.yul\":13792:13816   */\n      tag_401\n        /* \"#utility.yul\":13810:13815   */\n      dup3\n        /* \"#utility.yul\":13792:13816   */\n      tag_399\n      jump\t// in\n    tag_401:\n        /* \"#utility.yul\":13781:13816   */\n      swap1\n      pop\n        /* \"#utility.yul\":13718:13822   */\n      swap2\n      swap1\n      pop\n      jump\t// out\n        /* \"#utility.yul\":13828:13918   */\n    tag_273:\n        /* \"#utility.yul\":13862:13869   */\n      0x00\n        /* \"#utility.yul\":13905:13910   */\n      dup2\n        /* \"#utility.yul\":13898:13911   */\n      iszero\n        /* \"#utility.yul\":13891:13912   */\n      iszero\n        /* \"#utility.yul\":13880:13912   */\n      swap1\n      pop\n        /* \"#utility.yul\":13828:13918   */\n      swap2\n      swap1\n      pop\n      jump\t// out\n        /* \"#utility.yul\":13924:14050   */\n    tag_399:\n        /* \"#utility.yul\":13961:13968   */\n      0x00\n        /* \"#utility.yul\":14001:14043   */\n      0xffffffffffffffffffffffffffffffffffffffff\n        /* \"#utility.yul\":13994:13999   */\n      dup3\n        /* \"#utility.yul\":13990:14044   */\n      and\n        /* \"#utility.yul\":13979:14044   */\n      swap1\n      pop\n        /* \"#utility.yul\":13924:14050   */\n      swap2\n      swap1\n      pop\n      jump\t// out\n        /* \"#utility.yul\":14056:14133   */\n    tag_314:\n        /* \"#utility.yul\":14093:14100   */\n      0x00\n        /* \"#utility.yul\":14122:14127   */\n      dup2\n        /* \"#utility.yul\":14111:14127   */\n      swap1\n      pop\n        /* \"#utility.yul\":14056:14133   */\n      swap2\n      swap1\n      pop\n      jump\t// out\n        /* \"#utility.yul\":14139:14225   */\n    tag_318:\n        /* \"#utility.yul\":14174:14181   */\n      0x00\n        /* \"#utility.yul\":14214:14218   */\n      0xff\n        /* \"#utility.yul\":14207:14212   */\n      dup3\n        /* \"#utility.yul\":14203:14219   */\n      and\n        /* \"#utility.yul\":14192:14219   */\n      swap1\n      pop\n        /* \"#utility.yul\":14139:14225   */\n      swap2\n      swap1\n      pop\n      jump\t// out\n        /* \"#utility.yul\":14231:14398   */\n    tag_109:\n        /* \"#utility.yul\":14268:14271   */\n      0x00\n        /* \"#utility.yul\":14291:14313   */\n      tag_407\n        /* \"#utility.yul\":14307:14312   */\n      dup3\n        /* \"#utility.yul\":14291:14313   */\n      tag_318\n      jump\t// in\n    tag_407:\n        /* \"#utility.yul\":14282:14313   */\n      swap2\n      pop\n        /* \"#utility.yul\":14335:14339   */\n      0xff\n        /* \"#utility.yul\":14328:14333   */\n      dup3\n        /* \"#utility.yul\":14325:14340   */\n      eq\n        /* \"#utility.yul\":14322:14363   */\n      iszero\n      tag_408\n      jumpi\n        /* \"#utility.yul\":14343:14361   */\n      tag_409\n      tag_370\n      jump\t// in\n    tag_409:\n        /* \"#utility.yul\":14322:14363   */\n    tag_408:\n        /* \"#utility.yul\":14390:14391   */\n      0x01\n        /* \"#utility.yul\":14383:14388   */\n      dup3\n        /* \"#utility.yul\":14379:14392   */\n      add\n        /* \"#utility.yul\":14372:14392   */\n      swap1\n      pop\n        /* \"#utility.yul\":14231:14398   */\n      swap2\n      swap1\n      pop\n      jump\t// out\n        /* \"#utility.yul\":14404:14580   */\n    tag_225:\n        /* \"#utility.yul\":14436:14437   */\n      0x00\n        /* \"#utility.yul\":14453:14473   */\n      tag_411\n        /* \"#utility.yul\":14471:14472   */\n      dup3\n        /* \"#utility.yul\":14453:14473   */\n      tag_314\n      jump\t// in\n    tag_411:\n        /* \"#utility.yul\":14448:14473   */\n      swap2\n      pop\n        /* \"#utility.yul\":14487:14507   */\n      tag_412\n        /* \"#utility.yul\":14505:14506   */\n      dup4\n        /* \"#utility.yul\":14487:14507   */\n      tag_314\n      jump\t// in\n    tag_412:\n        /* \"#utility.yul\":14482:14507   */\n      swap3\n      pop\n        /* \"#utility.yul\":14526:14527   */\n      dup3\n        /* \"#utility.yul\":14516:14551   */\n      tag_413\n      jumpi\n        /* \"#utility.yul\":14531:14549   */\n      tag_414\n      tag_381\n      jump\t// in\n    tag_414:\n        /* \"#utility.yul\":14516:14551   */\n    tag_413:\n        /* \"#utility.yul\":14572:14573   */\n      dup3\n        /* \"#utility.yul\":14569:14570   */\n      dup3\n        /* \"#utility.yul\":14565:14574   */\n      mod\n        /* \"#utility.yul\":14560:14574   */\n      swap1\n      pop\n        /* \"#utility.yul\":14404:14580   */\n      swap3\n      swap2\n      pop\n      pop\n      jump\t// out\n        /* \"#utility.yul\":14586:14766   */\n    tag_370:\n        /* \"#utility.yul\":14634:14711   */\n      0x4e487b7100000000000000000000000000000000000000000000000000000000\n        /* \"#utility.yul\":14631:14632   */\n      0x00\n        /* \"#utility.yul\":14624:14712   */\n      mstore\n        /* \"#utility.yul\":14731:14735   */\n      0x11\n        /* \"#utility.yul\":14728:14729   */\n      0x04\n        /* \"#utility.yul\":14721:14736   */\n      mstore\n        /* \"#utility.yul\":14755:14759   */\n      0x24\n        /* \"#utility.yul\":14752:14753   */\n      0x00\n        /* \"#utility.yul\":14745:14760   */\n      revert\n        /* \"#utility.yul\":14772:14952   */\n    tag_381:\n        /* \"#utility.yul\":14820:14897   */\n      0x4e487b7100000000000000000000000000000000000000000000000000000000\n        /* \"#utility.yul\":14817:14818   */\n      0x00\n        /* \"#utility.yul\":14810:14898   */\n      mstore\n        /* \"#utility.yul\":14917:14921   */\n      0x12\n        /* \"#utility.yul\":14914:14915   */\n      0x04\n        /* \"#utility.yul\":14907:14922   */\n      mstore\n        /* \"#utility.yul\":14941:14945   */\n      0x24\n        /* \"#utility.yul\":14938:14939   */\n      0x00\n        /* \"#utility.yul\":14931:14946   */\n      revert\n        /* \"#utility.yul\":15081:15198   */\n    tag_242:\n        /* \"#utility.yul\":15190:15191   */\n      0x00\n        /* \"#utility.yul\":15187:15188   */\n      dup1\n        /* \"#utility.yul\":15180:15192   */\n      revert\n        /* \"#utility.yul\":15204:15368   */\n    tag_279:\n        /* \"#utility.yul\":15344:15360   */\n      0x47616d65206e6f7420666f756e64000000000000000000000000000000000000\n        /* \"#utility.yul\":15340:15341   */\n      0x00\n        /* \"#utility.yul\":15332:15338   */\n      dup3\n        /* \"#utility.yul\":15328:15342   */\n      add\n        /* \"#utility.yul\":15321:15361   */\n      mstore\n        /* \"#utility.yul\":15204:15368   */\n      pop\n      jump\t// out\n        /* \"#utility.yul\":15374:15550   */\n    tag_284:\n        /* \"#utility.yul\":15514:15542   */\n      0x596f752061726520616c72656164792072656769737465726564000000000000\n        /* \"#utility.yul\":15510:15511   */\n      0x00\n        /* \"#utility.yul\":15502:15508   */\n      dup3\n        /* \"#utility.yul\":15498:15512   */\n      add\n        /* \"#utility.yul\":15491:15543   */\n      mstore\n        /* \"#utility.yul\":15374:15550   */\n      pop\n      jump\t// out\n        /* \"#utility.yul\":15556:15670   */\n    tag_290:\n      pop\n      jump\t// out\n        /* \"#utility.yul\":15676:15898   */\n    tag_295:\n        /* \"#utility.yul\":15816:15850   */\n      0x496e73756666696369656e7420616d6f756e74206f6620636f6e747269627574\n        /* \"#utility.yul\":15812:15813   */\n      0x00\n        /* \"#utility.yul\":15804:15810   */\n      dup3\n        /* \"#utility.yul\":15800:15814   */\n      add\n        /* \"#utility.yul\":15793:15851   */\n      mstore\n        /* \"#utility.yul\":15885:15890   */\n      0x696f6e0000000000000000000000000000000000000000000000000000000000\n        /* \"#utility.yul\":15880:15882   */\n      0x20\n        /* \"#utility.yul\":15872:15878   */\n      dup3\n        /* \"#utility.yul\":15868:15883   */\n      add\n        /* \"#utility.yul\":15861:15891   */\n      mstore\n        /* \"#utility.yul\":15676:15898   */\n      pop\n      jump\t// out\n        /* \"#utility.yul\":15904:16131   */\n    tag_300:\n        /* \"#utility.yul\":16044:16078   */\n      0x466f72207265676974657220696e2067616d6520796f75206e65656420706179\n        /* \"#utility.yul\":16040:16041   */\n      0x00\n        /* \"#utility.yul\":16032:16038   */\n      dup3\n        /* \"#utility.yul\":16028:16042   */\n      add\n        /* \"#utility.yul\":16021:16079   */\n      mstore\n        /* \"#utility.yul\":16113:16123   */\n      0x2031206574686572000000000000000000000000000000000000000000000000\n        /* \"#utility.yul\":16108:16110   */\n      0x20\n        /* \"#utility.yul\":16100:16106   */\n      dup3\n        /* \"#utility.yul\":16096:16111   */\n      add\n        /* \"#utility.yul\":16089:16124   */\n      mstore\n        /* \"#utility.yul\":15904:16131   */\n      pop\n      jump\t// out\n        /* \"#utility.yul\":16137:16299   */\n    tag_305:\n        /* \"#utility.yul\":16277:16291   */\n      0x4e6f20636f6e7472616374730000000000000000000000000000000000000000\n        /* \"#utility.yul\":16273:16274   */\n      0x00\n        /* \"#utility.yul\":16265:16271   */\n      dup3\n        /* \"#utility.yul\":16261:16275   */\n      add\n        /* \"#utility.yul\":16254:16292   */\n      mstore\n        /* \"#utility.yul\":16137:16299   */\n      pop\n      jump\t// out\n        /* \"#utility.yul\":16305:16472   */\n    tag_310:\n        /* \"#utility.yul\":16445:16464   */\n      0x596f7520617265206e6f74206f776e6572000000000000000000000000000000\n        /* \"#utility.yul\":16441:16442   */\n      0x00\n        /* \"#utility.yul\":16433:16439   */\n      dup3\n        /* \"#utility.yul\":16429:16443   */\n      add\n        /* \"#utility.yul\":16422:16465   */\n      mstore\n        /* \"#utility.yul\":16305:16472   */\n      pop\n      jump\t// out\n        /* \"#utility.yul\":16478:16600   */\n    tag_230:\n        /* \"#utility.yul\":16551:16575   */\n      tag_428\n        /* \"#utility.yul\":16569:16574   */\n      dup2\n        /* \"#utility.yul\":16551:16575   */\n      tag_269\n      jump\t// in\n    tag_428:\n        /* \"#utility.yul\":16544:16549   */\n      dup2\n        /* \"#utility.yul\":16541:16576   */\n      eq\n        /* \"#utility.yul\":16531:16594   */\n      tag_429\n      jumpi\n        /* \"#utility.yul\":16590:16591   */\n      0x00\n        /* \"#utility.yul\":16587:16588   */\n      dup1\n        /* \"#utility.yul\":16580:16592   */\n      revert\n        /* \"#utility.yul\":16531:16594   */\n    tag_429:\n        /* \"#utility.yul\":16478:16600   */\n      pop\n      jump\t// out\n        /* \"#utility.yul\":16606:16728   */\n    tag_234:\n        /* \"#utility.yul\":16679:16703   */\n      tag_431\n        /* \"#utility.yul\":16697:16702   */\n      dup2\n        /* \"#utility.yul\":16679:16703   */\n      tag_314\n      jump\t// in\n    tag_431:\n        /* \"#utility.yul\":16672:16677   */\n      dup2\n        /* \"#utility.yul\":16669:16704   */\n      eq\n        /* \"#utility.yul\":16659:16722   */\n      tag_432\n      jumpi\n        /* \"#utility.yul\":16718:16719   */\n      0x00\n        /* \"#utility.yul\":16715:16716   */\n      dup1\n        /* \"#utility.yul\":16708:16720   */\n      revert\n        /* \"#utility.yul\":16659:16722   */\n    tag_432:\n        /* \"#utility.yul\":16606:16728   */\n      pop\n      jump\t// out\n        /* \"#utility.yul\":16734:16852   */\n    tag_238:\n        /* \"#utility.yul\":16805:16827   */\n      tag_434\n        /* \"#utility.yul\":16821:16826   */\n      dup2\n        /* \"#utility.yul\":16805:16827   */\n      tag_318\n      jump\t// in\n    tag_434:\n        /* \"#utility.yul\":16798:16803   */\n      dup2\n        /* \"#utility.yul\":16795:16828   */\n      eq\n        /* \"#utility.yul\":16785:16846   */\n      tag_435\n      jumpi\n        /* \"#utility.yul\":16842:16843   */\n      0x00\n        /* \"#utility.yul\":16839:16840   */\n      dup1\n        /* \"#utility.yul\":16832:16844   */\n      revert\n        /* \"#utility.yul\":16785:16846   */\n    tag_435:\n        /* \"#utility.yul\":16734:16852   */\n      pop\n      jump\t// out\n\n    auxdata: 0xa2646970667358221220dd79b00def35cc9adb76d9ad0581394055b5f5662826ee5b8f1977cc5ceabf8564736f6c63430008070033\n}\n",
				"bytecode": {
					"linkReferences": {},
					"object": "60806040523480156200001157600080fd5b50336001806101000a81548173ffffffffffffffffffffffffffffffffffffffff021916908373ffffffffffffffffffffffffffffffffffffffff16021790555060018054906101000a900473ffffffffffffffffffffffffffffffffffffffff166003600080815260200190815260200160002060006101000a81548173ffffffffffffffffffffffffffffffffffffffff021916908373ffffffffffffffffffffffffffffffffffffffff16021790555060405180606001604052806000815260200160018054906101000a900473ffffffffffffffffffffffffffffffffffffffff1673ffffffffffffffffffffffffffffffffffffffff16815260200160008152506005600060018054906101000a900473ffffffffffffffffffffffffffffffffffffffff1673ffffffffffffffffffffffffffffffffffffffff1673ffffffffffffffffffffffffffffffffffffffff1681526020019081526020016000206000820151816000015560208201518160010160006101000a81548173ffffffffffffffffffffffffffffffffffffffff021916908373ffffffffffffffffffffffffffffffffffffffff160217905550604082015181600201559050506001600081905550620001f5670de0b6b3a7640000620001fb60201b60201c565b62000546565b6200020c336200035d60201b60201c565b6200024e576040517f08c379a00000000000000000000000000000000000000000000000000000000081526004016200024590620003fe565b60405180910390fd5b6040518060400160405280600160009054906101000a900460ff1660ff1681526020018281525060026000600160009054906101000a900460ff1660ff1660ff16815260200190815260200160002060008201518160000160006101000a81548160ff021916908360ff1602179055506020820151816001015590505060018060008282829054906101000a900460ff16620002eb91906200045e565b92506101000a81548160ff021916908360ff1602179055507fcf1ed532d6b83b4290f2f407b156b17826f49752e7a8ff360f502c307e05566360018060009054906101000a900460ff166200034191906200049c565b826040516200035292919062000420565b60405180910390a150565b600060018054906101000a900473ffffffffffffffffffffffffffffffffffffffff1673ffffffffffffffffffffffffffffffffffffffff168273ffffffffffffffffffffffffffffffffffffffff16149050919050565b6000620003c46011836200044d565b9150620003d1826200051d565b602082019050919050565b620003e781620004d7565b82525050565b620003f881620004e1565b82525050565b600060208201905081810360008301526200041981620003b5565b9050919050565b6000604082019050620004376000830185620003ed565b620004466020830184620003dc565b9392505050565b600082825260208201905092915050565b60006200046b82620004e1565b91506200047883620004e1565b92508260ff03821115620004915762000490620004ee565b5b828201905092915050565b6000620004a982620004e1565b9150620004b683620004e1565b925082821015620004cc57620004cb620004ee565b5b828203905092915050565b6000819050919050565b600060ff82169050919050565b7f4e487b7100000000000000000000000000000000000000000000000000000000600052601160045260246000fd5b7f596f7520617265206e6f74206f776e6572000000000000000000000000000000600082015250565b61245480620005566000396000f3fe6080604052600436106100e15760003560e01c8063906cbf571161007f578063ad39f0a311610059578063ad39f0a314610311578063ae9283b51461033c578063bd233b9114610365578063f1060006146103a2576100f2565b8063906cbf571461025957806395a078e8146102975780639b0b0ae3146102d4576100f2565b80632e8aab9b116100bb5780632e8aab9b1461019657806347734892146101b2578063556c9095146101ef57806378a32e211461021a576100f2565b80630173c05b146100fe5780630e50cee51461011a5780632a648c8914610159576100f2565b366100f2576100f033346103df565b005b6100fc33346103df565b005b61011860048036038101906101139190611ba5565b6104a2565b005b34801561012657600080fd5b50610141600480360381019061013c9190611b38565b6107d9565b60405161015093929190611ea5565b60405180910390f35b34801561016557600080fd5b50610180600480360381019061017b9190611b65565b610823565b60405161018d9190611daf565b60405180910390f35b6101b060048036038101906101ab9190611bd2565b610852565b005b3480156101be57600080fd5b506101d960048036038101906101d49190611b38565b6108fc565b6040516101e69190611e8a565b60405180910390f35b3480156101fb57600080fd5b5061020461091d565b6040516102119190611e8a565b60405180910390f35b34801561022657600080fd5b50610241600480360381019061023c9190611bff565b610923565b60405161025093929190611ea5565b60405180910390f35b34801561026557600080fd5b50610280600480360381019061027b9190611bd2565b61097a565b60405161028e929190611f65565b60405180910390f35b3480156102a357600080fd5b506102be60048036038101906102b99190611b38565b6109ab565b6040516102cb9190611daf565b60405180910390f35b3480156102e057600080fd5b506102fb60048036038101906102f69190611bd2565b610a03565b6040516103089190611e8a565b60405180910390f35b34801561031d57600080fd5b50610326610a1b565b6040516103339190611f13565b60405180910390f35b34801561034857600080fd5b50610363600480360381019061035e9190611ba5565b610a2e565b005b34801561037157600080fd5b5061038c60048036038101906103879190611ba5565b610b7f565b6040516103999190611d94565b60405180910390f35b3480156103ae57600080fd5b506103c960048036038101906103c49190611b65565b610bb2565b6040516103d69190611e8a565b60405180910390f35b60008060005b60018060009054906101000a900460ff166104009190612045565b60ff168160ff1610156104505734600260008360ff1660ff16815260200190815260200160002060010154141561043d5760019250809150610450565b8080610448906121d6565b9150506103e5565b5081610491576040517f08c379a000000000000000000000000000000000000000000000000000000000815260040161048890611dca565b60405180910390fd5b61049c818585610bd7565b50505050565b600080339050803b915060008263ffffffff1611156104f6576040517f08c379a00000000000000000000000000000000000000000000000000000000081526004016104ed90611e4a565b60405180910390fd5b600073ffffffffffffffffffffffffffffffffffffffff16600560003373ffffffffffffffffffffffffffffffffffffffff1673ffffffffffffffffffffffffffffffffffffffff16815260200190815260200160002060010160009054906101000a900473ffffffffffffffffffffffffffffffffffffffff1673ffffffffffffffffffffffffffffffffffffffff16146105c7576040517f08c379a00000000000000000000000000000000000000000000000000000000081526004016105be90611dea565b60405180910390fd5b670de0b6b3a76400003414610611576040517f08c379a000000000000000000000000000000000000000000000000000000000815260040161060890611e2a565b60405180910390fd5b604051806060016040528060005481526020013373ffffffffffffffffffffffffffffffffffffffff16815260200184815250600560003373ffffffffffffffffffffffffffffffffffffffff1673ffffffffffffffffffffffffffffffffffffffff1681526020019081526020016000206000820151816000015560208201518160010160006101000a81548173ffffffffffffffffffffffffffffffffffffffff021916908373ffffffffffffffffffffffffffffffffffffffff1602179055506040820151816002015590505033600360008054815260200190815260200160002060006101000a81548173ffffffffffffffffffffffffffffffffffffffff021916908373ffffffffffffffffffffffffffffffffffffffff16021790555060016000808282546107469190611fef565b9250508190555060016004600085815260200190815260200160002060008282546107719190611fef565b925050819055507f12888a3214fa3b6d599e2a7d3ff41e8aa7ef1295fe3ba5d428825df6da08688560016000546107a89190612107565b8460046000878152602001908152602001600020546040516107cc93929190611edc565b60405180910390a1505050565b60056020528060005260406000206000915090508060000154908060010160009054906101000a900473ffffffffffffffffffffffffffffffffffffffff16908060020154905083565b60096020528160005260406000206020528060005260406000206000915091509054906101000a900460ff1681565b600073ffffffffffffffffffffffffffffffffffffffff16600560003373ffffffffffffffffffffffffffffffffffffffff1673ffffffffffffffffffffffffffffffffffffffff16815260200190815260200160002060010160009054906101000a900473ffffffffffffffffffffffffffffffffffffffff1673ffffffffffffffffffffffffffffffffffffffff1614156108ee57600080fd5b6108f9813334610bd7565b50565b60008173ffffffffffffffffffffffffffffffffffffffff16319050919050565b60005481565b6007602052816000526040600020602052806000526040600020600091509150508060000154908060010160009054906101000a900473ffffffffffffffffffffffffffffffffffffffff16908060020154905083565b60026020528060005260406000206000915090508060000160009054906101000a900460ff16908060010154905082565b600060018054906101000a900473ffffffffffffffffffffffffffffffffffffffff1673ffffffffffffffffffffffffffffffffffffffff168273ffffffffffffffffffffffffffffffffffffffff16149050919050565b60066020528060005260406000206000915090505481565b600160009054906101000a900460ff1681565b610a37336109ab565b610a76576040517f08c379a0000000000000000000000000000000000000000000000000000000008152600401610a6d90611e6a565b60405180910390fd5b6040518060400160405280600160009054906101000a900460ff1660ff1681526020018281525060026000600160009054906101000a900460ff1660ff1660ff16815260200190815260200160002060008201518160000160006101000a81548160ff021916908360ff1602179055506020820151816001015590505060018060008282829054906101000a900460ff16610b119190612045565b92506101000a81548160ff021916908360ff1602179055507fcf1ed532d6b83b4290f2f407b156b17826f49752e7a8ff360f502c307e05566360018060009054906101000a900460ff16610b65919061213b565b82604051610b74929190611f65565b60405180910390a150565b60036020528060005260406000206000915054906101000a900473ffffffffffffffffffffffffffffffffffffffff1681565b6008602052816000526040600020602052806000526040600020600091509150505481565b600260008460ff1660ff16815260200190815260200160002060010154811015610c36576040517f08c379a0000000000000000000000000000000000000000000000000000000008152600401610c2d90611e0a565b60405180910390fd5b600560008373ffffffffffffffffffffffffffffffffffffffff1673ffffffffffffffffffffffffffffffffffffffff168152602001908152602001600020600760008560ff1660ff1681526020019081526020016000206000600660008760ff1660ff168152602001908152602001600020548152602001908152602001600020600082015481600001556001820160009054906101000a900473ffffffffffffffffffffffffffffffffffffffff168160010160006101000a81548173ffffffffffffffffffffffffffffffffffffffff021916908373ffffffffffffffffffffffffffffffffffffffff160217905550600282015481600201559050506001600960008473ffffffffffffffffffffffffffffffffffffffff1673ffffffffffffffffffffffffffffffffffffffff16815260200190815260200160002060008560ff1660ff16815260200190815260200160002060006101000a81548160ff0219169083151502179055506001600660008560ff1660ff1681526020019081526020016000206000828254610dcf9190611fef565b925050819055506003600660008560ff1660ff1681526020019081526020016000205410611a73576000610e1b600660008660ff1660ff16815260200190815260200160002054611a78565b90505b60008114611a71576000600760008660ff1660ff1681526020019081526020016000206000600184610e509190612107565b815260200190815260200160002060010160009054906101000a900473ffffffffffffffffffffffffffffffffffffffff1690506001600860008373ffffffffffffffffffffffffffffffffffffffff1673ffffffffffffffffffffffffffffffffffffffff16815260200190815260200160002060008760ff1660ff16815260200190815260200160002054111580610f565750600960008273ffffffffffffffffffffffffffffffffffffffff1673ffffffffffffffffffffffffffffffffffffffff1681526020019081526020016000206000600187610f339190612045565b60ff1660ff16815260200190815260200160002060009054906101000a900460ff165b15611a605760008173ffffffffffffffffffffffffffffffffffffffff16610fb76064610fa9604a600260008c60ff1660ff16815260200190815260200160002060010154611ab790919063ffffffff16565b611acd90919063ffffffff16565b604051610fc390611d7f565b60006040518083038185875af1925050503d8060008114611000576040519150601f19603f3d011682016040523d82523d6000602084013e611005565b606091505b505090506001600860008473ffffffffffffffffffffffffffffffffffffffff1673ffffffffffffffffffffffffffffffffffffffff16815260200190815260200160002060008860ff1660ff16815260200190815260200160002060008282546110709190611fef565b925050819055507fd9ff1d189bd8473f87a70327222795b92238d06f3edf14fa23403ac2153c10a9600260008860ff1660ff16815260200190815260200160002060000160009054906101000a900460ff1683836040516110d393929190611f2e565b60405180910390a16000600760008860ff1660ff16815260200190815260200160002060006001866111059190612107565b81526020019081526020016000206000015490506000600760008960ff1660ff16815260200190815260200160002060006001876111439190612107565b8152602001908152602001600020600201549050600061119c606461118e600a600260008e60ff1660ff16815260200190815260200160002060010154611ab790919063ffffffff16565b611acd90919063ffffffff16565b90506003600083815260200190815260200160002060009054906101000a900473ffffffffffffffffffffffffffffffffffffffff1673ffffffffffffffffffffffffffffffffffffffff16816040516111f590611d7f565b60006040518083038185875af1925050503d8060008114611232576040519150601f19603f3d011682016040523d82523d6000602084013e611237565b606091505b50508094505083156112aa577fafe90bc52fc3dd02b2550b825fc68e93b4bfbcb8165bbacda6cd14b2bad5bc02600260008b60ff1660ff16815260200190815260200160002060000160009054906101000a900460ff168484846040516112a19493929190611f8e565b60405180910390a15b6112ed60646112df6006600260008e60ff1660ff16815260200190815260200160002060010154611ab790919063ffffffff16565b611acd90919063ffffffff16565b9050600560006003600085815260200190815260200160002060009054906101000a900473ffffffffffffffffffffffffffffffffffffffff1673ffffffffffffffffffffffffffffffffffffffff1673ffffffffffffffffffffffffffffffffffffffff16815260200190815260200160002060010160009054906101000a900473ffffffffffffffffffffffffffffffffffffffff1673ffffffffffffffffffffffffffffffffffffffff16816040516113a890611d7f565b60006040518083038185875af1925050503d80600081146113e5576040519150601f19603f3d011682016040523d82523d6000602084013e6113ea565b606091505b50508094505083156114d2577fafe90bc52fc3dd02b2550b825fc68e93b4bfbcb8165bbacda6cd14b2bad5bc02600260008b60ff1660ff16815260200190815260200160002060000160009054906101000a900460ff1683600560006003600088815260200190815260200160002060009054906101000a900473ffffffffffffffffffffffffffffffffffffffff1673ffffffffffffffffffffffffffffffffffffffff1673ffffffffffffffffffffffffffffffffffffffff16815260200190815260200160002060000154846040516114c99493929190611f8e565b60405180910390a15b61151560646115076004600260008e60ff1660ff16815260200190815260200160002060010154611ab790919063ffffffff16565b611acd90919063ffffffff16565b90506005600060036000600560006003600089815260200190815260200160002060009054906101000a900473ffffffffffffffffffffffffffffffffffffffff1673ffffffffffffffffffffffffffffffffffffffff1673ffffffffffffffffffffffffffffffffffffffff16815260200190815260200160002060000154815260200190815260200160002060009054906101000a900473ffffffffffffffffffffffffffffffffffffffff1673ffffffffffffffffffffffffffffffffffffffff1673ffffffffffffffffffffffffffffffffffffffff16815260200190815260200160002060010160009054906101000a900473ffffffffffffffffffffffffffffffffffffffff1673ffffffffffffffffffffffffffffffffffffffff168160405161164590611d7f565b60006040518083038185875af1925050503d8060008114611682576040519150601f19603f3d011682016040523d82523d6000602084013e611687565b606091505b5050809450508315611859577fafe90bc52fc3dd02b2550b825fc68e93b4bfbcb8165bbacda6cd14b2bad5bc02600260008b60ff1660ff16815260200190815260200160002060000160009054906101000a900460ff16600560006003600087815260200190815260200160002060009054906101000a900473ffffffffffffffffffffffffffffffffffffffff1673ffffffffffffffffffffffffffffffffffffffff1673ffffffffffffffffffffffffffffffffffffffff16815260200190815260200160002060000154600560006003600060056000600360008c815260200190815260200160002060009054906101000a900473ffffffffffffffffffffffffffffffffffffffff1673ffffffffffffffffffffffffffffffffffffffff1673ffffffffffffffffffffffffffffffffffffffff16815260200190815260200160002060000154815260200190815260200160002060009054906101000a900473ffffffffffffffffffffffffffffffffffffffff1673ffffffffffffffffffffffffffffffffffffffff1673ffffffffffffffffffffffffffffffffffffffff16815260200190815260200160002060000154846040516118509493929190611f8e565b60405180910390a15b61189c606461188e6006600260008e60ff1660ff16815260200190815260200160002060010154611ab790919063ffffffff16565b611acd90919063ffffffff16565b90506005600060018054906101000a900473ffffffffffffffffffffffffffffffffffffffff1673ffffffffffffffffffffffffffffffffffffffff1673ffffffffffffffffffffffffffffffffffffffff16815260200190815260200160002060010160009054906101000a900473ffffffffffffffffffffffffffffffffffffffff1673ffffffffffffffffffffffffffffffffffffffff168160405161194490611d7f565b60006040518083038185875af1925050503d8060008114611981576040519150601f19603f3d011682016040523d82523d6000602084013e611986565b606091505b5050809450508315611a5b577fafe90bc52fc3dd02b2550b825fc68e93b4bfbcb8165bbacda6cd14b2bad5bc02600260008b60ff1660ff16815260200190815260200160002060000160009054906101000a900460ff16846005600060018054906101000a900473ffffffffffffffffffffffffffffffffffffffff1673ffffffffffffffffffffffffffffffffffffffff1673ffffffffffffffffffffffffffffffffffffffff1681526020019081526020016000206000015484604051611a529493929190611f8e565b60405180910390a15b505050505b611a6982611a78565b915050610e1e565b505b505050565b600080611a8f600284611ae390919063ffffffff16565b14611aad57611aa8600283611acd90919063ffffffff16565b611ab0565b60005b9050919050565b60008183611ac591906120ad565b905092915050565b60008183611adb919061207c565b905092915050565b60008183611af19190612200565b905092915050565b600081359050611b08816123d9565b92915050565b600081359050611b1d816123f0565b92915050565b600081359050611b3281612407565b92915050565b600060208284031215611b4e57611b4d61228f565b5b6000611b5c84828501611af9565b91505092915050565b60008060408385031215611b7c57611b7b61228f565b5b6000611b8a85828601611af9565b9250506020611b9b85828601611b23565b9150509250929050565b600060208284031215611bbb57611bba61228f565b5b6000611bc984828501611b0e565b91505092915050565b600060208284031215611be857611be761228f565b5b6000611bf684828501611b23565b91505092915050565b60008060408385031215611c1657611c1561228f565b5b6000611c2485828601611b23565b9250506020611c3585828601611b0e565b9150509250929050565b611c4881612181565b82525050565b611c578161216f565b82525050565b611c6681612193565b82525050565b6000611c79600e83611fde565b9150611c8482612294565b602082019050919050565b6000611c9c601a83611fde565b9150611ca7826122bd565b602082019050919050565b6000611cbf600083611fd3565b9150611cca826122e6565b600082019050919050565b6000611ce2602383611fde565b9150611ced826122e9565b604082019050919050565b6000611d05602883611fde565b9150611d1082612338565b604082019050919050565b6000611d28600c83611fde565b9150611d3382612387565b602082019050919050565b6000611d4b601183611fde565b9150611d56826123b0565b602082019050919050565b611d6a816121bf565b82525050565b611d79816121c9565b82525050565b6000611d8a82611cb2565b9150819050919050565b6000602082019050611da96000830184611c4e565b92915050565b6000602082019050611dc46000830184611c5d565b92915050565b60006020820190508181036000830152611de381611c6c565b9050919050565b60006020820190508181036000830152611e0381611c8f565b9050919050565b60006020820190508181036000830152611e2381611cd5565b9050919050565b60006020820190508181036000830152611e4381611cf8565b9050919050565b60006020820190508181036000830152611e6381611d1b565b9050919050565b60006020820190508181036000830152611e8381611d3e565b9050919050565b6000602082019050611e9f6000830184611d61565b92915050565b6000606082019050611eba6000830186611d61565b611ec76020830185611c3f565b611ed46040830184611d61565b949350505050565b6000606082019050611ef16000830186611d61565b611efe6020830185611d61565b611f0b6040830184611d61565b949350505050565b6000602082019050611f286000830184611d70565b92915050565b6000606082019050611f436000830186611d70565b611f506020830185611c4e565b611f5d6040830184611c5d565b949350505050565b6000604082019050611f7a6000830185611d70565b611f876020830184611d61565b9392505050565b6000608082019050611fa36000830187611d70565b611fb06020830186611d61565b611fbd6040830185611d61565b611fca6060830184611d61565b95945050505050565b600081905092915050565b600082825260208201905092915050565b6000611ffa826121bf565b9150612005836121bf565b9250827fffffffffffffffffffffffffffffffffffffffffffffffffffffffffffffffff0382111561203a57612039612231565b5b828201905092915050565b6000612050826121c9565b915061205b836121c9565b92508260ff0382111561207157612070612231565b5b828201905092915050565b6000612087826121bf565b9150612092836121bf565b9250826120a2576120a1612260565b5b828204905092915050565b60006120b8826121bf565b91506120c3836121bf565b9250817fffffffffffffffffffffffffffffffffffffffffffffffffffffffffffffffff04831182151516156120fc576120fb612231565b5b828202905092915050565b6000612112826121bf565b915061211d836121bf565b9250828210156121305761212f612231565b5b828203905092915050565b6000612146826121c9565b9150612151836121c9565b92508282101561216457612163612231565b5b828203905092915050565b600061217a8261219f565b9050919050565b600061218c8261219f565b9050919050565b60008115159050919050565b600073ffffffffffffffffffffffffffffffffffffffff82169050919050565b6000819050919050565b600060ff82169050919050565b60006121e1826121c9565b915060ff8214156121f5576121f4612231565b5b600182019050919050565b600061220b826121bf565b9150612216836121bf565b92508261222657612225612260565b5b828206905092915050565b7f4e487b7100000000000000000000000000000000000000000000000000000000600052601160045260246000fd5b7f4e487b7100000000000000000000000000000000000000000000000000000000600052601260045260246000fd5b600080fd5b7f47616d65206e6f7420666f756e64000000000000000000000000000000000000600082015250565b7f596f752061726520616c72656164792072656769737465726564000000000000600082015250565b50565b7f496e73756666696369656e7420616d6f756e74206f6620636f6e74726962757460008201527f696f6e0000000000000000000000000000000000000000000000000000000000602082015250565b7f466f72207265676974657220696e2067616d6520796f75206e6565642070617960008201527f2031206574686572000000000000000000000000000000000000000000000000602082015250565b7f4e6f20636f6e7472616374730000000000000000000000000000000000000000600082015250565b7f596f7520617265206e6f74206f776e6572000000000000000000000000000000600082015250565b6123e28161216f565b81146123ed57600080fd5b50565b6123f9816121bf565b811461240457600080fd5b50565b612410816121c9565b811461241b57600080fd5b5056fea2646970667358221220dd79b00def35cc9adb76d9ad0581394055b5f5662826ee5b8f1977cc5ceabf8564736f6c63430008070033",
					"opcodes": "PUSH1 0x80 PUSH1 0x40 MSTORE CALLVALUE DUP1 ISZERO PUSH3 0x11 JUMPI PUSH1 0x0 DUP1 REVERT JUMPDEST POP CALLER PUSH1 0x1 DUP1 PUSH2 0x100 EXP DUP2 SLOAD DUP2 PUSH20 0xFFFFFFFFFFFFFFFFFFFFFFFFFFFFFFFFFFFFFFFF MUL NOT AND SWAP1 DUP4 PUSH20 0xFFFFFFFFFFFFFFFFFFFFFFFFFFFFFFFFFFFFFFFF AND MUL OR SWAP1 SSTORE POP PUSH1 0x1 DUP1 SLOAD SWAP1 PUSH2 0x100 EXP SWAP1 DIV PUSH20 0xFFFFFFFFFFFFFFFFFFFFFFFFFFFFFFFFFFFFFFFF AND PUSH1 0x3 PUSH1 0x0 DUP1 DUP2 MSTORE PUSH1 0x20 ADD SWAP1 DUP2 MSTORE PUSH1 0x20 ADD PUSH1 0x0 KECCAK256 PUSH1 0x0 PUSH2 0x100 EXP DUP2 SLOAD DUP2 PUSH20 0xFFFFFFFFFFFFFFFFFFFFFFFFFFFFFFFFFFFFFFFF MUL NOT AND SWAP1 DUP4 PUSH20 0xFFFFFFFFFFFFFFFFFFFFFFFFFFFFFFFFFFFFFFFF AND MUL OR SWAP1 SSTORE POP PUSH1 0x40 MLOAD DUP1 PUSH1 0x60 ADD PUSH1 0x40 MSTORE DUP1 PUSH1 0x0 DUP2 MSTORE PUSH1 0x20 ADD PUSH1 0x1 DUP1 SLOAD SWAP1 PUSH2 0x100 EXP SWAP1 DIV PUSH20 0xFFFFFFFFFFFFFFFFFFFFFFFFFFFFFFFFFFFFFFFF AND PUSH20 0xFFFFFFFFFFFFFFFFFFFFFFFFFFFFFFFFFFFFFFFF AND DUP2 MSTORE PUSH1 0x20 ADD PUSH1 0x0 DUP2 MSTORE POP PUSH1 0x5 PUSH1 0x0 PUSH1 0x1 DUP1 SLOAD SWAP1 PUSH2 0x100 EXP SWAP1 DIV PUSH20 0xFFFFFFFFFFFFFFFFFFFFFFFFFFFFFFFFFFFFFFFF AND PUSH20 0xFFFFFFFFFFFFFFFFFFFFFFFFFFFFFFFFFFFFFFFF AND PUSH20 0xFFFFFFFFFFFFFFFFFFFFFFFFFFFFFFFFFFFFFFFF AND DUP2 MSTORE PUSH1 0x20 ADD SWAP1 DUP2 MSTORE PUSH1 0x20 ADD PUSH1 0x0 KECCAK256 PUSH1 0x0 DUP3 ADD MLOAD DUP2 PUSH1 0x0 ADD SSTORE PUSH1 0x20 DUP3 ADD MLOAD DUP2 PUSH1 0x1 ADD PUSH1 0x0 PUSH2 0x100 EXP DUP2 SLOAD DUP2 PUSH20 0xFFFFFFFFFFFFFFFFFFFFFFFFFFFFFFFFFFFFFFFF MUL NOT AND SWAP1 DUP4 PUSH20 0xFFFFFFFFFFFFFFFFFFFFFFFFFFFFFFFFFFFFFFFF AND MUL OR SWAP1 SSTORE POP PUSH1 0x40 DUP3 ADD MLOAD DUP2 PUSH1 0x2 ADD SSTORE SWAP1 POP POP PUSH1 0x1 PUSH1 0x0 DUP2 SWAP1 SSTORE POP PUSH3 0x1F5 PUSH8 0xDE0B6B3A7640000 PUSH3 0x1FB PUSH1 0x20 SHL PUSH1 0x20 SHR JUMP JUMPDEST PUSH3 0x546 JUMP JUMPDEST PUSH3 0x20C CALLER PUSH3 0x35D PUSH1 0x20 SHL PUSH1 0x20 SHR JUMP JUMPDEST PUSH3 0x24E JUMPI PUSH1 0x40 MLOAD PUSH32 0x8C379A000000000000000000000000000000000000000000000000000000000 DUP2 MSTORE PUSH1 0x4 ADD PUSH3 0x245 SWAP1 PUSH3 0x3FE JUMP JUMPDEST PUSH1 0x40 MLOAD DUP1 SWAP2 SUB SWAP1 REVERT JUMPDEST PUSH1 0x40 MLOAD DUP1 PUSH1 0x40 ADD PUSH1 0x40 MSTORE DUP1 PUSH1 0x1 PUSH1 0x0 SWAP1 SLOAD SWAP1 PUSH2 0x100 EXP SWAP1 DIV PUSH1 0xFF AND PUSH1 0xFF AND DUP2 MSTORE PUSH1 0x20 ADD DUP3 DUP2 MSTORE POP PUSH1 0x2 PUSH1 0x0 PUSH1 0x1 PUSH1 0x0 SWAP1 SLOAD SWAP1 PUSH2 0x100 EXP SWAP1 DIV PUSH1 0xFF AND PUSH1 0xFF AND PUSH1 0xFF AND DUP2 MSTORE PUSH1 0x20 ADD SWAP1 DUP2 MSTORE PUSH1 0x20 ADD PUSH1 0x0 KECCAK256 PUSH1 0x0 DUP3 ADD MLOAD DUP2 PUSH1 0x0 ADD PUSH1 0x0 PUSH2 0x100 EXP DUP2 SLOAD DUP2 PUSH1 0xFF MUL NOT AND SWAP1 DUP4 PUSH1 0xFF AND MUL OR SWAP1 SSTORE POP PUSH1 0x20 DUP3 ADD MLOAD DUP2 PUSH1 0x1 ADD SSTORE SWAP1 POP POP PUSH1 0x1 DUP1 PUSH1 0x0 DUP3 DUP3 DUP3 SWAP1 SLOAD SWAP1 PUSH2 0x100 EXP SWAP1 DIV PUSH1 0xFF AND PUSH3 0x2EB SWAP2 SWAP1 PUSH3 0x45E JUMP JUMPDEST SWAP3 POP PUSH2 0x100 EXP DUP2 SLOAD DUP2 PUSH1 0xFF MUL NOT AND SWAP1 DUP4 PUSH1 0xFF AND MUL OR SWAP1 SSTORE POP PUSH32 0xCF1ED532D6B83B4290F2F407B156B17826F49752E7A8FF360F502C307E055663 PUSH1 0x1 DUP1 PUSH1 0x0 SWAP1 SLOAD SWAP1 PUSH2 0x100 EXP SWAP1 DIV PUSH1 0xFF AND PUSH3 0x341 SWAP2 SWAP1 PUSH3 0x49C JUMP JUMPDEST DUP3 PUSH1 0x40 MLOAD PUSH3 0x352 SWAP3 SWAP2 SWAP1 PUSH3 0x420 JUMP JUMPDEST PUSH1 0x40 MLOAD DUP1 SWAP2 SUB SWAP1 LOG1 POP JUMP JUMPDEST PUSH1 0x0 PUSH1 0x1 DUP1 SLOAD SWAP1 PUSH2 0x100 EXP SWAP1 DIV PUSH20 0xFFFFFFFFFFFFFFFFFFFFFFFFFFFFFFFFFFFFFFFF AND PUSH20 0xFFFFFFFFFFFFFFFFFFFFFFFFFFFFFFFFFFFFFFFF AND DUP3 PUSH20 0xFFFFFFFFFFFFFFFFFFFFFFFFFFFFFFFFFFFFFFFF AND EQ SWAP1 POP SWAP2 SWAP1 POP JUMP JUMPDEST PUSH1 0x0 PUSH3 0x3C4 PUSH1 0x11 DUP4 PUSH3 0x44D JUMP JUMPDEST SWAP2 POP PUSH3 0x3D1 DUP3 PUSH3 0x51D JUMP JUMPDEST PUSH1 0x20 DUP3 ADD SWAP1 POP SWAP2 SWAP1 POP JUMP JUMPDEST PUSH3 0x3E7 DUP2 PUSH3 0x4D7 JUMP JUMPDEST DUP3 MSTORE POP POP JUMP JUMPDEST PUSH3 0x3F8 DUP2 PUSH3 0x4E1 JUMP JUMPDEST DUP3 MSTORE POP POP JUMP JUMPDEST PUSH1 0x0 PUSH1 0x20 DUP3 ADD SWAP1 POP DUP2 DUP2 SUB PUSH1 0x0 DUP4 ADD MSTORE PUSH3 0x419 DUP2 PUSH3 0x3B5 JUMP JUMPDEST SWAP1 POP SWAP2 SWAP1 POP JUMP JUMPDEST PUSH1 0x0 PUSH1 0x40 DUP3 ADD SWAP1 POP PUSH3 0x437 PUSH1 0x0 DUP4 ADD DUP6 PUSH3 0x3ED JUMP JUMPDEST PUSH3 0x446 PUSH1 0x20 DUP4 ADD DUP5 PUSH3 0x3DC JUMP JUMPDEST SWAP4 SWAP3 POP POP POP JUMP JUMPDEST PUSH1 0x0 DUP3 DUP3 MSTORE PUSH1 0x20 DUP3 ADD SWAP1 POP SWAP3 SWAP2 POP POP JUMP JUMPDEST PUSH1 0x0 PUSH3 0x46B DUP3 PUSH3 0x4E1 JUMP JUMPDEST SWAP2 POP PUSH3 0x478 DUP4 PUSH3 0x4E1 JUMP JUMPDEST SWAP3 POP DUP3 PUSH1 0xFF SUB DUP3 GT ISZERO PUSH3 0x491 JUMPI PUSH3 0x490 PUSH3 0x4EE JUMP JUMPDEST JUMPDEST DUP3 DUP3 ADD SWAP1 POP SWAP3 SWAP2 POP POP JUMP JUMPDEST PUSH1 0x0 PUSH3 0x4A9 DUP3 PUSH3 0x4E1 JUMP JUMPDEST SWAP2 POP PUSH3 0x4B6 DUP4 PUSH3 0x4E1 JUMP JUMPDEST SWAP3 POP DUP3 DUP3 LT ISZERO PUSH3 0x4CC JUMPI PUSH3 0x4CB PUSH3 0x4EE JUMP JUMPDEST JUMPDEST DUP3 DUP3 SUB SWAP1 POP SWAP3 SWAP2 POP POP JUMP JUMPDEST PUSH1 0x0 DUP2 SWAP1 POP SWAP2 SWAP1 POP JUMP JUMPDEST PUSH1 0x0 PUSH1 0xFF DUP3 AND SWAP1 POP SWAP2 SWAP1 POP JUMP JUMPDEST PUSH32 0x4E487B7100000000000000000000000000000000000000000000000000000000 PUSH1 0x0 MSTORE PUSH1 0x11 PUSH1 0x4 MSTORE PUSH1 0x24 PUSH1 0x0 REVERT JUMPDEST PUSH32 0x596F7520617265206E6F74206F776E6572000000000000000000000000000000 PUSH1 0x0 DUP3 ADD MSTORE POP JUMP JUMPDEST PUSH2 0x2454 DUP1 PUSH3 0x556 PUSH1 0x0 CODECOPY PUSH1 0x0 RETURN INVALID PUSH1 0x80 PUSH1 0x40 MSTORE PUSH1 0x4 CALLDATASIZE LT PUSH2 0xE1 JUMPI PUSH1 0x0 CALLDATALOAD PUSH1 0xE0 SHR DUP1 PUSH4 0x906CBF57 GT PUSH2 0x7F JUMPI DUP1 PUSH4 0xAD39F0A3 GT PUSH2 0x59 JUMPI DUP1 PUSH4 0xAD39F0A3 EQ PUSH2 0x311 JUMPI DUP1 PUSH4 0xAE9283B5 EQ PUSH2 0x33C JUMPI DUP1 PUSH4 0xBD233B91 EQ PUSH2 0x365 JUMPI DUP1 PUSH4 0xF1060006 EQ PUSH2 0x3A2 JUMPI PUSH2 0xF2 JUMP JUMPDEST DUP1 PUSH4 0x906CBF57 EQ PUSH2 0x259 JUMPI DUP1 PUSH4 0x95A078E8 EQ PUSH2 0x297 JUMPI DUP1 PUSH4 0x9B0B0AE3 EQ PUSH2 0x2D4 JUMPI PUSH2 0xF2 JUMP JUMPDEST DUP1 PUSH4 0x2E8AAB9B GT PUSH2 0xBB JUMPI DUP1 PUSH4 0x2E8AAB9B EQ PUSH2 0x196 JUMPI DUP1 PUSH4 0x47734892 EQ PUSH2 0x1B2 JUMPI DUP1 PUSH4 0x556C9095 EQ PUSH2 0x1EF JUMPI DUP1 PUSH4 0x78A32E21 EQ PUSH2 0x21A JUMPI PUSH2 0xF2 JUMP JUMPDEST DUP1 PUSH4 0x173C05B EQ PUSH2 0xFE JUMPI DUP1 PUSH4 0xE50CEE5 EQ PUSH2 0x11A JUMPI DUP1 PUSH4 0x2A648C89 EQ PUSH2 0x159 JUMPI PUSH2 0xF2 JUMP JUMPDEST CALLDATASIZE PUSH2 0xF2 JUMPI PUSH2 0xF0 CALLER CALLVALUE PUSH2 0x3DF JUMP JUMPDEST STOP JUMPDEST PUSH2 0xFC CALLER CALLVALUE PUSH2 0x3DF JUMP JUMPDEST STOP JUMPDEST PUSH2 0x118 PUSH1 0x4 DUP1 CALLDATASIZE SUB DUP2 ADD SWAP1 PUSH2 0x113 SWAP2 SWAP1 PUSH2 0x1BA5 JUMP JUMPDEST PUSH2 0x4A2 JUMP JUMPDEST STOP JUMPDEST CALLVALUE DUP1 ISZERO PUSH2 0x126 JUMPI PUSH1 0x0 DUP1 REVERT JUMPDEST POP PUSH2 0x141 PUSH1 0x4 DUP1 CALLDATASIZE SUB DUP2 ADD SWAP1 PUSH2 0x13C SWAP2 SWAP1 PUSH2 0x1B38 JUMP JUMPDEST PUSH2 0x7D9 JUMP JUMPDEST PUSH1 0x40 MLOAD PUSH2 0x150 SWAP4 SWAP3 SWAP2 SWAP1 PUSH2 0x1EA5 JUMP JUMPDEST PUSH1 0x40 MLOAD DUP1 SWAP2 SUB SWAP1 RETURN JUMPDEST CALLVALUE DUP1 ISZERO PUSH2 0x165 JUMPI PUSH1 0x0 DUP1 REVERT JUMPDEST POP PUSH2 0x180 PUSH1 0x4 DUP1 CALLDATASIZE SUB DUP2 ADD SWAP1 PUSH2 0x17B SWAP2 SWAP1 PUSH2 0x1B65 JUMP JUMPDEST PUSH2 0x823 JUMP JUMPDEST PUSH1 0x40 MLOAD PUSH2 0x18D SWAP2 SWAP1 PUSH2 0x1DAF JUMP JUMPDEST PUSH1 0x40 MLOAD DUP1 SWAP2 SUB SWAP1 RETURN JUMPDEST PUSH2 0x1B0 PUSH1 0x4 DUP1 CALLDATASIZE SUB DUP2 ADD SWAP1 PUSH2 0x1AB SWAP2 SWAP1 PUSH2 0x1BD2 JUMP JUMPDEST PUSH2 0x852 JUMP JUMPDEST STOP JUMPDEST CALLVALUE DUP1 ISZERO PUSH2 0x1BE JUMPI PUSH1 0x0 DUP1 REVERT JUMPDEST POP PUSH2 0x1D9 PUSH1 0x4 DUP1 CALLDATASIZE SUB DUP2 ADD SWAP1 PUSH2 0x1D4 SWAP2 SWAP1 PUSH2 0x1B38 JUMP JUMPDEST PUSH2 0x8FC JUMP JUMPDEST PUSH1 0x40 MLOAD PUSH2 0x1E6 SWAP2 SWAP1 PUSH2 0x1E8A JUMP JUMPDEST PUSH1 0x40 MLOAD DUP1 SWAP2 SUB SWAP1 RETURN JUMPDEST CALLVALUE DUP1 ISZERO PUSH2 0x1FB JUMPI PUSH1 0x0 DUP1 REVERT JUMPDEST POP PUSH2 0x204 PUSH2 0x91D JUMP JUMPDEST PUSH1 0x40 MLOAD PUSH2 0x211 SWAP2 SWAP1 PUSH2 0x1E8A JUMP JUMPDEST PUSH1 0x40 MLOAD DUP1 SWAP2 SUB SWAP1 RETURN JUMPDEST CALLVALUE DUP1 ISZERO PUSH2 0x226 JUMPI PUSH1 0x0 DUP1 REVERT JUMPDEST POP PUSH2 0x241 PUSH1 0x4 DUP1 CALLDATASIZE SUB DUP2 ADD SWAP1 PUSH2 0x23C SWAP2 SWAP1 PUSH2 0x1BFF JUMP JUMPDEST PUSH2 0x923 JUMP JUMPDEST PUSH1 0x40 MLOAD PUSH2 0x250 SWAP4 SWAP3 SWAP2 SWAP1 PUSH2 0x1EA5 JUMP JUMPDEST PUSH1 0x40 MLOAD DUP1 SWAP2 SUB SWAP1 RETURN JUMPDEST CALLVALUE DUP1 ISZERO PUSH2 0x265 JUMPI PUSH1 0x0 DUP1 REVERT JUMPDEST POP PUSH2 0x280 PUSH1 0x4 DUP1 CALLDATASIZE SUB DUP2 ADD SWAP1 PUSH2 0x27B SWAP2 SWAP1 PUSH2 0x1BD2 JUMP JUMPDEST PUSH2 0x97A JUMP JUMPDEST PUSH1 0x40 MLOAD PUSH2 0x28E SWAP3 SWAP2 SWAP1 PUSH2 0x1F65 JUMP JUMPDEST PUSH1 0x40 MLOAD DUP1 SWAP2 SUB SWAP1 RETURN JUMPDEST CALLVALUE DUP1 ISZERO PUSH2 0x2A3 JUMPI PUSH1 0x0 DUP1 REVERT JUMPDEST POP PUSH2 0x2BE PUSH1 0x4 DUP1 CALLDATASIZE SUB DUP2 ADD SWAP1 PUSH2 0x2B9 SWAP2 SWAP1 PUSH2 0x1B38 JUMP JUMPDEST PUSH2 0x9AB JUMP JUMPDEST PUSH1 0x40 MLOAD PUSH2 0x2CB SWAP2 SWAP1 PUSH2 0x1DAF JUMP JUMPDEST PUSH1 0x40 MLOAD DUP1 SWAP2 SUB SWAP1 RETURN JUMPDEST CALLVALUE DUP1 ISZERO PUSH2 0x2E0 JUMPI PUSH1 0x0 DUP1 REVERT JUMPDEST POP PUSH2 0x2FB PUSH1 0x4 DUP1 CALLDATASIZE SUB DUP2 ADD SWAP1 PUSH2 0x2F6 SWAP2 SWAP1 PUSH2 0x1BD2 JUMP JUMPDEST PUSH2 0xA03 JUMP JUMPDEST PUSH1 0x40 MLOAD PUSH2 0x308 SWAP2 SWAP1 PUSH2 0x1E8A JUMP JUMPDEST PUSH1 0x40 MLOAD DUP1 SWAP2 SUB SWAP1 RETURN JUMPDEST CALLVALUE DUP1 ISZERO PUSH2 0x31D JUMPI PUSH1 0x0 DUP1 REVERT JUMPDEST POP PUSH2 0x326 PUSH2 0xA1B JUMP JUMPDEST PUSH1 0x40 MLOAD PUSH2 0x333 SWAP2 SWAP1 PUSH2 0x1F13 JUMP JUMPDEST PUSH1 0x40 MLOAD DUP1 SWAP2 SUB SWAP1 RETURN JUMPDEST CALLVALUE DUP1 ISZERO PUSH2 0x348 JUMPI PUSH1 0x0 DUP1 REVERT JUMPDEST POP PUSH2 0x363 PUSH1 0x4 DUP1 CALLDATASIZE SUB DUP2 ADD SWAP1 PUSH2 0x35E SWAP2 SWAP1 PUSH2 0x1BA5 JUMP JUMPDEST PUSH2 0xA2E JUMP JUMPDEST STOP JUMPDEST CALLVALUE DUP1 ISZERO PUSH2 0x371 JUMPI PUSH1 0x0 DUP1 REVERT JUMPDEST POP PUSH2 0x38C PUSH1 0x4 DUP1 CALLDATASIZE SUB DUP2 ADD SWAP1 PUSH2 0x387 SWAP2 SWAP1 PUSH2 0x1BA5 JUMP JUMPDEST PUSH2 0xB7F JUMP JUMPDEST PUSH1 0x40 MLOAD PUSH2 0x399 SWAP2 SWAP1 PUSH2 0x1D94 JUMP JUMPDEST PUSH1 0x40 MLOAD DUP1 SWAP2 SUB SWAP1 RETURN JUMPDEST CALLVALUE DUP1 ISZERO PUSH2 0x3AE JUMPI PUSH1 0x0 DUP1 REVERT JUMPDEST POP PUSH2 0x3C9 PUSH1 0x4 DUP1 CALLDATASIZE SUB DUP2 ADD SWAP1 PUSH2 0x3C4 SWAP2 SWAP1 PUSH2 0x1B65 JUMP JUMPDEST PUSH2 0xBB2 JUMP JUMPDEST PUSH1 0x40 MLOAD PUSH2 0x3D6 SWAP2 SWAP1 PUSH2 0x1E8A JUMP JUMPDEST PUSH1 0x40 MLOAD DUP1 SWAP2 SUB SWAP1 RETURN JUMPDEST PUSH1 0x0 DUP1 PUSH1 0x0 JUMPDEST PUSH1 0x1 DUP1 PUSH1 0x0 SWAP1 SLOAD SWAP1 PUSH2 0x100 EXP SWAP1 DIV PUSH1 0xFF AND PUSH2 0x400 SWAP2 SWAP1 PUSH2 0x2045 JUMP JUMPDEST PUSH1 0xFF AND DUP2 PUSH1 0xFF AND LT ISZERO PUSH2 0x450 JUMPI CALLVALUE PUSH1 0x2 PUSH1 0x0 DUP4 PUSH1 0xFF AND PUSH1 0xFF AND DUP2 MSTORE PUSH1 0x20 ADD SWAP1 DUP2 MSTORE PUSH1 0x20 ADD PUSH1 0x0 KECCAK256 PUSH1 0x1 ADD SLOAD EQ ISZERO PUSH2 0x43D JUMPI PUSH1 0x1 SWAP3 POP DUP1 SWAP2 POP PUSH2 0x450 JUMP JUMPDEST DUP1 DUP1 PUSH2 0x448 SWAP1 PUSH2 0x21D6 JUMP JUMPDEST SWAP2 POP POP PUSH2 0x3E5 JUMP JUMPDEST POP DUP2 PUSH2 0x491 JUMPI PUSH1 0x40 MLOAD PUSH32 0x8C379A000000000000000000000000000000000000000000000000000000000 DUP2 MSTORE PUSH1 0x4 ADD PUSH2 0x488 SWAP1 PUSH2 0x1DCA JUMP JUMPDEST PUSH1 0x40 MLOAD DUP1 SWAP2 SUB SWAP1 REVERT JUMPDEST PUSH2 0x49C DUP2 DUP6 DUP6 PUSH2 0xBD7 JUMP JUMPDEST POP POP POP POP JUMP JUMPDEST PUSH1 0x0 DUP1 CALLER SWAP1 POP DUP1 EXTCODESIZE SWAP2 POP PUSH1 0x0 DUP3 PUSH4 0xFFFFFFFF AND GT ISZERO PUSH2 0x4F6 JUMPI PUSH1 0x40 MLOAD PUSH32 0x8C379A000000000000000000000000000000000000000000000000000000000 DUP2 MSTORE PUSH1 0x4 ADD PUSH2 0x4ED SWAP1 PUSH2 0x1E4A JUMP JUMPDEST PUSH1 0x40 MLOAD DUP1 SWAP2 SUB SWAP1 REVERT JUMPDEST PUSH1 0x0 PUSH20 0xFFFFFFFFFFFFFFFFFFFFFFFFFFFFFFFFFFFFFFFF AND PUSH1 0x5 PUSH1 0x0 CALLER PUSH20 0xFFFFFFFFFFFFFFFFFFFFFFFFFFFFFFFFFFFFFFFF AND PUSH20 0xFFFFFFFFFFFFFFFFFFFFFFFFFFFFFFFFFFFFFFFF AND DUP2 MSTORE PUSH1 0x20 ADD SWAP1 DUP2 MSTORE PUSH1 0x20 ADD PUSH1 0x0 KECCAK256 PUSH1 0x1 ADD PUSH1 0x0 SWAP1 SLOAD SWAP1 PUSH2 0x100 EXP SWAP1 DIV PUSH20 0xFFFFFFFFFFFFFFFFFFFFFFFFFFFFFFFFFFFFFFFF AND PUSH20 0xFFFFFFFFFFFFFFFFFFFFFFFFFFFFFFFFFFFFFFFF AND EQ PUSH2 0x5C7 JUMPI PUSH1 0x40 MLOAD PUSH32 0x8C379A000000000000000000000000000000000000000000000000000000000 DUP2 MSTORE PUSH1 0x4 ADD PUSH2 0x5BE SWAP1 PUSH2 0x1DEA JUMP JUMPDEST PUSH1 0x40 MLOAD DUP1 SWAP2 SUB SWAP1 REVERT JUMPDEST PUSH8 0xDE0B6B3A7640000 CALLVALUE EQ PUSH2 0x611 JUMPI PUSH1 0x40 MLOAD PUSH32 0x8C379A000000000000000000000000000000000000000000000000000000000 DUP2 MSTORE PUSH1 0x4 ADD PUSH2 0x608 SWAP1 PUSH2 0x1E2A JUMP JUMPDEST PUSH1 0x40 MLOAD DUP1 SWAP2 SUB SWAP1 REVERT JUMPDEST PUSH1 0x40 MLOAD DUP1 PUSH1 0x60 ADD PUSH1 0x40 MSTORE DUP1 PUSH1 0x0 SLOAD DUP2 MSTORE PUSH1 0x20 ADD CALLER PUSH20 0xFFFFFFFFFFFFFFFFFFFFFFFFFFFFFFFFFFFFFFFF AND DUP2 MSTORE PUSH1 0x20 ADD DUP5 DUP2 MSTORE POP PUSH1 0x5 PUSH1 0x0 CALLER PUSH20 0xFFFFFFFFFFFFFFFFFFFFFFFFFFFFFFFFFFFFFFFF AND PUSH20 0xFFFFFFFFFFFFFFFFFFFFFFFFFFFFFFFFFFFFFFFF AND DUP2 MSTORE PUSH1 0x20 ADD SWAP1 DUP2 MSTORE PUSH1 0x20 ADD PUSH1 0x0 KECCAK256 PUSH1 0x0 DUP3 ADD MLOAD DUP2 PUSH1 0x0 ADD SSTORE PUSH1 0x20 DUP3 ADD MLOAD DUP2 PUSH1 0x1 ADD PUSH1 0x0 PUSH2 0x100 EXP DUP2 SLOAD DUP2 PUSH20 0xFFFFFFFFFFFFFFFFFFFFFFFFFFFFFFFFFFFFFFFF MUL NOT AND SWAP1 DUP4 PUSH20 0xFFFFFFFFFFFFFFFFFFFFFFFFFFFFFFFFFFFFFFFF AND MUL OR SWAP1 SSTORE POP PUSH1 0x40 DUP3 ADD MLOAD DUP2 PUSH1 0x2 ADD SSTORE SWAP1 POP POP CALLER PUSH1 0x3 PUSH1 0x0 DUP1 SLOAD DUP2 MSTORE PUSH1 0x20 ADD SWAP1 DUP2 MSTORE PUSH1 0x20 ADD PUSH1 0x0 KECCAK256 PUSH1 0x0 PUSH2 0x100 EXP DUP2 SLOAD DUP2 PUSH20 0xFFFFFFFFFFFFFFFFFFFFFFFFFFFFFFFFFFFFFFFF MUL NOT AND SWAP1 DUP4 PUSH20 0xFFFFFFFFFFFFFFFFFFFFFFFFFFFFFFFFFFFFFFFF AND MUL OR SWAP1 SSTORE POP PUSH1 0x1 PUSH1 0x0 DUP1 DUP3 DUP3 SLOAD PUSH2 0x746 SWAP2 SWAP1 PUSH2 0x1FEF JUMP JUMPDEST SWAP3 POP POP DUP2 SWAP1 SSTORE POP PUSH1 0x1 PUSH1 0x4 PUSH1 0x0 DUP6 DUP2 MSTORE PUSH1 0x20 ADD SWAP1 DUP2 MSTORE PUSH1 0x20 ADD PUSH1 0x0 KECCAK256 PUSH1 0x0 DUP3 DUP3 SLOAD PUSH2 0x771 SWAP2 SWAP1 PUSH2 0x1FEF JUMP JUMPDEST SWAP3 POP POP DUP2 SWAP1 SSTORE POP PUSH32 0x12888A3214FA3B6D599E2A7D3FF41E8AA7EF1295FE3BA5D428825DF6DA086885 PUSH1 0x1 PUSH1 0x0 SLOAD PUSH2 0x7A8 SWAP2 SWAP1 PUSH2 0x2107 JUMP JUMPDEST DUP5 PUSH1 0x4 PUSH1 0x0 DUP8 DUP2 MSTORE PUSH1 0x20 ADD SWAP1 DUP2 MSTORE PUSH1 0x20 ADD PUSH1 0x0 KECCAK256 SLOAD PUSH1 0x40 MLOAD PUSH2 0x7CC SWAP4 SWAP3 SWAP2 SWAP1 PUSH2 0x1EDC JUMP JUMPDEST PUSH1 0x40 MLOAD DUP1 SWAP2 SUB SWAP1 LOG1 POP POP POP JUMP JUMPDEST PUSH1 0x5 PUSH1 0x20 MSTORE DUP1 PUSH1 0x0 MSTORE PUSH1 0x40 PUSH1 0x0 KECCAK256 PUSH1 0x0 SWAP2 POP SWAP1 POP DUP1 PUSH1 0x0 ADD SLOAD SWAP1 DUP1 PUSH1 0x1 ADD PUSH1 0x0 SWAP1 SLOAD SWAP1 PUSH2 0x100 EXP SWAP1 DIV PUSH20 0xFFFFFFFFFFFFFFFFFFFFFFFFFFFFFFFFFFFFFFFF AND SWAP1 DUP1 PUSH1 0x2 ADD SLOAD SWAP1 POP DUP4 JUMP JUMPDEST PUSH1 0x9 PUSH1 0x20 MSTORE DUP2 PUSH1 0x0 MSTORE PUSH1 0x40 PUSH1 0x0 KECCAK256 PUSH1 0x20 MSTORE DUP1 PUSH1 0x0 MSTORE PUSH1 0x40 PUSH1 0x0 KECCAK256 PUSH1 0x0 SWAP2 POP SWAP2 POP SWAP1 SLOAD SWAP1 PUSH2 0x100 EXP SWAP1 DIV PUSH1 0xFF AND DUP2 JUMP JUMPDEST PUSH1 0x0 PUSH20 0xFFFFFFFFFFFFFFFFFFFFFFFFFFFFFFFFFFFFFFFF AND PUSH1 0x5 PUSH1 0x0 CALLER PUSH20 0xFFFFFFFFFFFFFFFFFFFFFFFFFFFFFFFFFFFFFFFF AND PUSH20 0xFFFFFFFFFFFFFFFFFFFFFFFFFFFFFFFFFFFFFFFF AND DUP2 MSTORE PUSH1 0x20 ADD SWAP1 DUP2 MSTORE PUSH1 0x20 ADD PUSH1 0x0 KECCAK256 PUSH1 0x1 ADD PUSH1 0x0 SWAP1 SLOAD SWAP1 PUSH2 0x100 EXP SWAP1 DIV PUSH20 0xFFFFFFFFFFFFFFFFFFFFFFFFFFFFFFFFFFFFFFFF AND PUSH20 0xFFFFFFFFFFFFFFFFFFFFFFFFFFFFFFFFFFFFFFFF AND EQ ISZERO PUSH2 0x8EE JUMPI PUSH1 0x0 DUP1 REVERT JUMPDEST PUSH2 0x8F9 DUP2 CALLER CALLVALUE PUSH2 0xBD7 JUMP JUMPDEST POP JUMP JUMPDEST PUSH1 0x0 DUP2 PUSH20 0xFFFFFFFFFFFFFFFFFFFFFFFFFFFFFFFFFFFFFFFF AND BALANCE SWAP1 POP SWAP2 SWAP1 POP JUMP JUMPDEST PUSH1 0x0 SLOAD DUP2 JUMP JUMPDEST PUSH1 0x7 PUSH1 0x20 MSTORE DUP2 PUSH1 0x0 MSTORE PUSH1 0x40 PUSH1 0x0 KECCAK256 PUSH1 0x20 MSTORE DUP1 PUSH1 0x0 MSTORE PUSH1 0x40 PUSH1 0x0 KECCAK256 PUSH1 0x0 SWAP2 POP SWAP2 POP POP DUP1 PUSH1 0x0 ADD SLOAD SWAP1 DUP1 PUSH1 0x1 ADD PUSH1 0x0 SWAP1 SLOAD SWAP1 PUSH2 0x100 EXP SWAP1 DIV PUSH20 0xFFFFFFFFFFFFFFFFFFFFFFFFFFFFFFFFFFFFFFFF AND SWAP1 DUP1 PUSH1 0x2 ADD SLOAD SWAP1 POP DUP4 JUMP JUMPDEST PUSH1 0x2 PUSH1 0x20 MSTORE DUP1 PUSH1 0x0 MSTORE PUSH1 0x40 PUSH1 0x0 KECCAK256 PUSH1 0x0 SWAP2 POP SWAP1 POP DUP1 PUSH1 0x0 ADD PUSH1 0x0 SWAP1 SLOAD SWAP1 PUSH2 0x100 EXP SWAP1 DIV PUSH1 0xFF AND SWAP1 DUP1 PUSH1 0x1 ADD SLOAD SWAP1 POP DUP3 JUMP JUMPDEST PUSH1 0x0 PUSH1 0x1 DUP1 SLOAD SWAP1 PUSH2 0x100 EXP SWAP1 DIV PUSH20 0xFFFFFFFFFFFFFFFFFFFFFFFFFFFFFFFFFFFFFFFF AND PUSH20 0xFFFFFFFFFFFFFFFFFFFFFFFFFFFFFFFFFFFFFFFF AND DUP3 PUSH20 0xFFFFFFFFFFFFFFFFFFFFFFFFFFFFFFFFFFFFFFFF AND EQ SWAP1 POP SWAP2 SWAP1 POP JUMP JUMPDEST PUSH1 0x6 PUSH1 0x20 MSTORE DUP1 PUSH1 0x0 MSTORE PUSH1 0x40 PUSH1 0x0 KECCAK256 PUSH1 0x0 SWAP2 POP SWAP1 POP SLOAD DUP2 JUMP JUMPDEST PUSH1 0x1 PUSH1 0x0 SWAP1 SLOAD SWAP1 PUSH2 0x100 EXP SWAP1 DIV PUSH1 0xFF AND DUP2 JUMP JUMPDEST PUSH2 0xA37 CALLER PUSH2 0x9AB JUMP JUMPDEST PUSH2 0xA76 JUMPI PUSH1 0x40 MLOAD PUSH32 0x8C379A000000000000000000000000000000000000000000000000000000000 DUP2 MSTORE PUSH1 0x4 ADD PUSH2 0xA6D SWAP1 PUSH2 0x1E6A JUMP JUMPDEST PUSH1 0x40 MLOAD DUP1 SWAP2 SUB SWAP1 REVERT JUMPDEST PUSH1 0x40 MLOAD DUP1 PUSH1 0x40 ADD PUSH1 0x40 MSTORE DUP1 PUSH1 0x1 PUSH1 0x0 SWAP1 SLOAD SWAP1 PUSH2 0x100 EXP SWAP1 DIV PUSH1 0xFF AND PUSH1 0xFF AND DUP2 MSTORE PUSH1 0x20 ADD DUP3 DUP2 MSTORE POP PUSH1 0x2 PUSH1 0x0 PUSH1 0x1 PUSH1 0x0 SWAP1 SLOAD SWAP1 PUSH2 0x100 EXP SWAP1 DIV PUSH1 0xFF AND PUSH1 0xFF AND PUSH1 0xFF AND DUP2 MSTORE PUSH1 0x20 ADD SWAP1 DUP2 MSTORE PUSH1 0x20 ADD PUSH1 0x0 KECCAK256 PUSH1 0x0 DUP3 ADD MLOAD DUP2 PUSH1 0x0 ADD PUSH1 0x0 PUSH2 0x100 EXP DUP2 SLOAD DUP2 PUSH1 0xFF MUL NOT AND SWAP1 DUP4 PUSH1 0xFF AND MUL OR SWAP1 SSTORE POP PUSH1 0x20 DUP3 ADD MLOAD DUP2 PUSH1 0x1 ADD SSTORE SWAP1 POP POP PUSH1 0x1 DUP1 PUSH1 0x0 DUP3 DUP3 DUP3 SWAP1 SLOAD SWAP1 PUSH2 0x100 EXP SWAP1 DIV PUSH1 0xFF AND PUSH2 0xB11 SWAP2 SWAP1 PUSH2 0x2045 JUMP JUMPDEST SWAP3 POP PUSH2 0x100 EXP DUP2 SLOAD DUP2 PUSH1 0xFF MUL NOT AND SWAP1 DUP4 PUSH1 0xFF AND MUL OR SWAP1 SSTORE POP PUSH32 0xCF1ED532D6B83B4290F2F407B156B17826F49752E7A8FF360F502C307E055663 PUSH1 0x1 DUP1 PUSH1 0x0 SWAP1 SLOAD SWAP1 PUSH2 0x100 EXP SWAP1 DIV PUSH1 0xFF AND PUSH2 0xB65 SWAP2 SWAP1 PUSH2 0x213B JUMP JUMPDEST DUP3 PUSH1 0x40 MLOAD PUSH2 0xB74 SWAP3 SWAP2 SWAP1 PUSH2 0x1F65 JUMP JUMPDEST PUSH1 0x40 MLOAD DUP1 SWAP2 SUB SWAP1 LOG1 POP JUMP JUMPDEST PUSH1 0x3 PUSH1 0x20 MSTORE DUP1 PUSH1 0x0 MSTORE PUSH1 0x40 PUSH1 0x0 KECCAK256 PUSH1 0x0 SWAP2 POP SLOAD SWAP1 PUSH2 0x100 EXP SWAP1 DIV PUSH20 0xFFFFFFFFFFFFFFFFFFFFFFFFFFFFFFFFFFFFFFFF AND DUP2 JUMP JUMPDEST PUSH1 0x8 PUSH1 0x20 MSTORE DUP2 PUSH1 0x0 MSTORE PUSH1 0x40 PUSH1 0x0 KECCAK256 PUSH1 0x20 MSTORE DUP1 PUSH1 0x0 MSTORE PUSH1 0x40 PUSH1 0x0 KECCAK256 PUSH1 0x0 SWAP2 POP SWAP2 POP POP SLOAD DUP2 JUMP JUMPDEST PUSH1 0x2 PUSH1 0x0 DUP5 PUSH1 0xFF AND PUSH1 0xFF AND DUP2 MSTORE PUSH1 0x20 ADD SWAP1 DUP2 MSTORE PUSH1 0x20 ADD PUSH1 0x0 KECCAK256 PUSH1 0x1 ADD SLOAD DUP2 LT ISZERO PUSH2 0xC36 JUMPI PUSH1 0x40 MLOAD PUSH32 0x8C379A000000000000000000000000000000000000000000000000000000000 DUP2 MSTORE PUSH1 0x4 ADD PUSH2 0xC2D SWAP1 PUSH2 0x1E0A JUMP JUMPDEST PUSH1 0x40 MLOAD DUP1 SWAP2 SUB SWAP1 REVERT JUMPDEST PUSH1 0x5 PUSH1 0x0 DUP4 PUSH20 0xFFFFFFFFFFFFFFFFFFFFFFFFFFFFFFFFFFFFFFFF AND PUSH20 0xFFFFFFFFFFFFFFFFFFFFFFFFFFFFFFFFFFFFFFFF AND DUP2 MSTORE PUSH1 0x20 ADD SWAP1 DUP2 MSTORE PUSH1 0x20 ADD PUSH1 0x0 KECCAK256 PUSH1 0x7 PUSH1 0x0 DUP6 PUSH1 0xFF AND PUSH1 0xFF AND DUP2 MSTORE PUSH1 0x20 ADD SWAP1 DUP2 MSTORE PUSH1 0x20 ADD PUSH1 0x0 KECCAK256 PUSH1 0x0 PUSH1 0x6 PUSH1 0x0 DUP8 PUSH1 0xFF AND PUSH1 0xFF AND DUP2 MSTORE PUSH1 0x20 ADD SWAP1 DUP2 MSTORE PUSH1 0x20 ADD PUSH1 0x0 KECCAK256 SLOAD DUP2 MSTORE PUSH1 0x20 ADD SWAP1 DUP2 MSTORE PUSH1 0x20 ADD PUSH1 0x0 KECCAK256 PUSH1 0x0 DUP3 ADD SLOAD DUP2 PUSH1 0x0 ADD SSTORE PUSH1 0x1 DUP3 ADD PUSH1 0x0 SWAP1 SLOAD SWAP1 PUSH2 0x100 EXP SWAP1 DIV PUSH20 0xFFFFFFFFFFFFFFFFFFFFFFFFFFFFFFFFFFFFFFFF AND DUP2 PUSH1 0x1 ADD PUSH1 0x0 PUSH2 0x100 EXP DUP2 SLOAD DUP2 PUSH20 0xFFFFFFFFFFFFFFFFFFFFFFFFFFFFFFFFFFFFFFFF MUL NOT AND SWAP1 DUP4 PUSH20 0xFFFFFFFFFFFFFFFFFFFFFFFFFFFFFFFFFFFFFFFF AND MUL OR SWAP1 SSTORE POP PUSH1 0x2 DUP3 ADD SLOAD DUP2 PUSH1 0x2 ADD SSTORE SWAP1 POP POP PUSH1 0x1 PUSH1 0x9 PUSH1 0x0 DUP5 PUSH20 0xFFFFFFFFFFFFFFFFFFFFFFFFFFFFFFFFFFFFFFFF AND PUSH20 0xFFFFFFFFFFFFFFFFFFFFFFFFFFFFFFFFFFFFFFFF AND DUP2 MSTORE PUSH1 0x20 ADD SWAP1 DUP2 MSTORE PUSH1 0x20 ADD PUSH1 0x0 KECCAK256 PUSH1 0x0 DUP6 PUSH1 0xFF AND PUSH1 0xFF AND DUP2 MSTORE PUSH1 0x20 ADD SWAP1 DUP2 MSTORE PUSH1 0x20 ADD PUSH1 0x0 KECCAK256 PUSH1 0x0 PUSH2 0x100 EXP DUP2 SLOAD DUP2 PUSH1 0xFF MUL NOT AND SWAP1 DUP4 ISZERO ISZERO MUL OR SWAP1 SSTORE POP PUSH1 0x1 PUSH1 0x6 PUSH1 0x0 DUP6 PUSH1 0xFF AND PUSH1 0xFF AND DUP2 MSTORE PUSH1 0x20 ADD SWAP1 DUP2 MSTORE PUSH1 0x20 ADD PUSH1 0x0 KECCAK256 PUSH1 0x0 DUP3 DUP3 SLOAD PUSH2 0xDCF SWAP2 SWAP1 PUSH2 0x1FEF JUMP JUMPDEST SWAP3 POP POP DUP2 SWAP1 SSTORE POP PUSH1 0x3 PUSH1 0x6 PUSH1 0x0 DUP6 PUSH1 0xFF AND PUSH1 0xFF AND DUP2 MSTORE PUSH1 0x20 ADD SWAP1 DUP2 MSTORE PUSH1 0x20 ADD PUSH1 0x0 KECCAK256 SLOAD LT PUSH2 0x1A73 JUMPI PUSH1 0x0 PUSH2 0xE1B PUSH1 0x6 PUSH1 0x0 DUP7 PUSH1 0xFF AND PUSH1 0xFF AND DUP2 MSTORE PUSH1 0x20 ADD SWAP1 DUP2 MSTORE PUSH1 0x20 ADD PUSH1 0x0 KECCAK256 SLOAD PUSH2 0x1A78 JUMP JUMPDEST SWAP1 POP JUMPDEST PUSH1 0x0 DUP2 EQ PUSH2 0x1A71 JUMPI PUSH1 0x0 PUSH1 0x7 PUSH1 0x0 DUP7 PUSH1 0xFF AND PUSH1 0xFF AND DUP2 MSTORE PUSH1 0x20 ADD SWAP1 DUP2 MSTORE PUSH1 0x20 ADD PUSH1 0x0 KECCAK256 PUSH1 0x0 PUSH1 0x1 DUP5 PUSH2 0xE50 SWAP2 SWAP1 PUSH2 0x2107 JUMP JUMPDEST DUP2 MSTORE PUSH1 0x20 ADD SWAP1 DUP2 MSTORE PUSH1 0x20 ADD PUSH1 0x0 KECCAK256 PUSH1 0x1 ADD PUSH1 0x0 SWAP1 SLOAD SWAP1 PUSH2 0x100 EXP SWAP1 DIV PUSH20 0xFFFFFFFFFFFFFFFFFFFFFFFFFFFFFFFFFFFFFFFF AND SWAP1 POP PUSH1 0x1 PUSH1 0x8 PUSH1 0x0 DUP4 PUSH20 0xFFFFFFFFFFFFFFFFFFFFFFFFFFFFFFFFFFFFFFFF AND PUSH20 0xFFFFFFFFFFFFFFFFFFFFFFFFFFFFFFFFFFFFFFFF AND DUP2 MSTORE PUSH1 0x20 ADD SWAP1 DUP2 MSTORE PUSH1 0x20 ADD PUSH1 0x0 KECCAK256 PUSH1 0x0 DUP8 PUSH1 0xFF AND PUSH1 0xFF AND DUP2 MSTORE PUSH1 0x20 ADD SWAP1 DUP2 MSTORE PUSH1 0x20 ADD PUSH1 0x0 KECCAK256 SLOAD GT ISZERO DUP1 PUSH2 0xF56 JUMPI POP PUSH1 0x9 PUSH1 0x0 DUP3 PUSH20 0xFFFFFFFFFFFFFFFFFFFFFFFFFFFFFFFFFFFFFFFF AND PUSH20 0xFFFFFFFFFFFFFFFFFFFFFFFFFFFFFFFFFFFFFFFF AND DUP2 MSTORE PUSH1 0x20 ADD SWAP1 DUP2 MSTORE PUSH1 0x20 ADD PUSH1 0x0 KECCAK256 PUSH1 0x0 PUSH1 0x1 DUP8 PUSH2 0xF33 SWAP2 SWAP1 PUSH2 0x2045 JUMP JUMPDEST PUSH1 0xFF AND PUSH1 0xFF AND DUP2 MSTORE PUSH1 0x20 ADD SWAP1 DUP2 MSTORE PUSH1 0x20 ADD PUSH1 0x0 KECCAK256 PUSH1 0x0 SWAP1 SLOAD SWAP1 PUSH2 0x100 EXP SWAP1 DIV PUSH1 0xFF AND JUMPDEST ISZERO PUSH2 0x1A60 JUMPI PUSH1 0x0 DUP2 PUSH20 0xFFFFFFFFFFFFFFFFFFFFFFFFFFFFFFFFFFFFFFFF AND PUSH2 0xFB7 PUSH1 0x64 PUSH2 0xFA9 PUSH1 0x4A PUSH1 0x2 PUSH1 0x0 DUP13 PUSH1 0xFF AND PUSH1 0xFF AND DUP2 MSTORE PUSH1 0x20 ADD SWAP1 DUP2 MSTORE PUSH1 0x20 ADD PUSH1 0x0 KECCAK256 PUSH1 0x1 ADD SLOAD PUSH2 0x1AB7 SWAP1 SWAP2 SWAP1 PUSH4 0xFFFFFFFF AND JUMP JUMPDEST PUSH2 0x1ACD SWAP1 SWAP2 SWAP1 PUSH4 0xFFFFFFFF AND JUMP JUMPDEST PUSH1 0x40 MLOAD PUSH2 0xFC3 SWAP1 PUSH2 0x1D7F JUMP JUMPDEST PUSH1 0x0 PUSH1 0x40 MLOAD DUP1 DUP4 SUB DUP2 DUP6 DUP8 GAS CALL SWAP3 POP POP POP RETURNDATASIZE DUP1 PUSH1 0x0 DUP2 EQ PUSH2 0x1000 JUMPI PUSH1 0x40 MLOAD SWAP2 POP PUSH1 0x1F NOT PUSH1 0x3F RETURNDATASIZE ADD AND DUP3 ADD PUSH1 0x40 MSTORE RETURNDATASIZE DUP3 MSTORE RETURNDATASIZE PUSH1 0x0 PUSH1 0x20 DUP5 ADD RETURNDATACOPY PUSH2 0x1005 JUMP JUMPDEST PUSH1 0x60 SWAP2 POP JUMPDEST POP POP SWAP1 POP PUSH1 0x1 PUSH1 0x8 PUSH1 0x0 DUP5 PUSH20 0xFFFFFFFFFFFFFFFFFFFFFFFFFFFFFFFFFFFFFFFF AND PUSH20 0xFFFFFFFFFFFFFFFFFFFFFFFFFFFFFFFFFFFFFFFF AND DUP2 MSTORE PUSH1 0x20 ADD SWAP1 DUP2 MSTORE PUSH1 0x20 ADD PUSH1 0x0 KECCAK256 PUSH1 0x0 DUP9 PUSH1 0xFF AND PUSH1 0xFF AND DUP2 MSTORE PUSH1 0x20 ADD SWAP1 DUP2 MSTORE PUSH1 0x20 ADD PUSH1 0x0 KECCAK256 PUSH1 0x0 DUP3 DUP3 SLOAD PUSH2 0x1070 SWAP2 SWAP1 PUSH2 0x1FEF JUMP JUMPDEST SWAP3 POP POP DUP2 SWAP1 SSTORE POP PUSH32 0xD9FF1D189BD8473F87A70327222795B92238D06F3EDF14FA23403AC2153C10A9 PUSH1 0x2 PUSH1 0x0 DUP9 PUSH1 0xFF AND PUSH1 0xFF AND DUP2 MSTORE PUSH1 0x20 ADD SWAP1 DUP2 MSTORE PUSH1 0x20 ADD PUSH1 0x0 KECCAK256 PUSH1 0x0 ADD PUSH1 0x0 SWAP1 SLOAD SWAP1 PUSH2 0x100 EXP SWAP1 DIV PUSH1 0xFF AND DUP4 DUP4 PUSH1 0x40 MLOAD PUSH2 0x10D3 SWAP4 SWAP3 SWAP2 SWAP1 PUSH2 0x1F2E JUMP JUMPDEST PUSH1 0x40 MLOAD DUP1 SWAP2 SUB SWAP1 LOG1 PUSH1 0x0 PUSH1 0x7 PUSH1 0x0 DUP9 PUSH1 0xFF AND PUSH1 0xFF AND DUP2 MSTORE PUSH1 0x20 ADD SWAP1 DUP2 MSTORE PUSH1 0x20 ADD PUSH1 0x0 KECCAK256 PUSH1 0x0 PUSH1 0x1 DUP7 PUSH2 0x1105 SWAP2 SWAP1 PUSH2 0x2107 JUMP JUMPDEST DUP2 MSTORE PUSH1 0x20 ADD SWAP1 DUP2 MSTORE PUSH1 0x20 ADD PUSH1 0x0 KECCAK256 PUSH1 0x0 ADD SLOAD SWAP1 POP PUSH1 0x0 PUSH1 0x7 PUSH1 0x0 DUP10 PUSH1 0xFF AND PUSH1 0xFF AND DUP2 MSTORE PUSH1 0x20 ADD SWAP1 DUP2 MSTORE PUSH1 0x20 ADD PUSH1 0x0 KECCAK256 PUSH1 0x0 PUSH1 0x1 DUP8 PUSH2 0x1143 SWAP2 SWAP1 PUSH2 0x2107 JUMP JUMPDEST DUP2 MSTORE PUSH1 0x20 ADD SWAP1 DUP2 MSTORE PUSH1 0x20 ADD PUSH1 0x0 KECCAK256 PUSH1 0x2 ADD SLOAD SWAP1 POP PUSH1 0x0 PUSH2 0x119C PUSH1 0x64 PUSH2 0x118E PUSH1 0xA PUSH1 0x2 PUSH1 0x0 DUP15 PUSH1 0xFF AND PUSH1 0xFF AND DUP2 MSTORE PUSH1 0x20 ADD SWAP1 DUP2 MSTORE PUSH1 0x20 ADD PUSH1 0x0 KECCAK256 PUSH1 0x1 ADD SLOAD PUSH2 0x1AB7 SWAP1 SWAP2 SWAP1 PUSH4 0xFFFFFFFF AND JUMP JUMPDEST PUSH2 0x1ACD SWAP1 SWAP2 SWAP1 PUSH4 0xFFFFFFFF AND JUMP JUMPDEST SWAP1 POP PUSH1 0x3 PUSH1 0x0 DUP4 DUP2 MSTORE PUSH1 0x20 ADD SWAP1 DUP2 MSTORE PUSH1 0x20 ADD PUSH1 0x0 KECCAK256 PUSH1 0x0 SWAP1 SLOAD SWAP1 PUSH2 0x100 EXP SWAP1 DIV PUSH20 0xFFFFFFFFFFFFFFFFFFFFFFFFFFFFFFFFFFFFFFFF AND PUSH20 0xFFFFFFFFFFFFFFFFFFFFFFFFFFFFFFFFFFFFFFFF AND DUP2 PUSH1 0x40 MLOAD PUSH2 0x11F5 SWAP1 PUSH2 0x1D7F JUMP JUMPDEST PUSH1 0x0 PUSH1 0x40 MLOAD DUP1 DUP4 SUB DUP2 DUP6 DUP8 GAS CALL SWAP3 POP POP POP RETURNDATASIZE DUP1 PUSH1 0x0 DUP2 EQ PUSH2 0x1232 JUMPI PUSH1 0x40 MLOAD SWAP2 POP PUSH1 0x1F NOT PUSH1 0x3F RETURNDATASIZE ADD AND DUP3 ADD PUSH1 0x40 MSTORE RETURNDATASIZE DUP3 MSTORE RETURNDATASIZE PUSH1 0x0 PUSH1 0x20 DUP5 ADD RETURNDATACOPY PUSH2 0x1237 JUMP JUMPDEST PUSH1 0x60 SWAP2 POP JUMPDEST POP POP DUP1 SWAP5 POP POP DUP4 ISZERO PUSH2 0x12AA JUMPI PUSH32 0xAFE90BC52FC3DD02B2550B825FC68E93B4BFBCB8165BBACDA6CD14B2BAD5BC02 PUSH1 0x2 PUSH1 0x0 DUP12 PUSH1 0xFF AND PUSH1 0xFF AND DUP2 MSTORE PUSH1 0x20 ADD SWAP1 DUP2 MSTORE PUSH1 0x20 ADD PUSH1 0x0 KECCAK256 PUSH1 0x0 ADD PUSH1 0x0 SWAP1 SLOAD SWAP1 PUSH2 0x100 EXP SWAP1 DIV PUSH1 0xFF AND DUP5 DUP5 DUP5 PUSH1 0x40 MLOAD PUSH2 0x12A1 SWAP5 SWAP4 SWAP3 SWAP2 SWAP1 PUSH2 0x1F8E JUMP JUMPDEST PUSH1 0x40 MLOAD DUP1 SWAP2 SUB SWAP1 LOG1 JUMPDEST PUSH2 0x12ED PUSH1 0x64 PUSH2 0x12DF PUSH1 0x6 PUSH1 0x2 PUSH1 0x0 DUP15 PUSH1 0xFF AND PUSH1 0xFF AND DUP2 MSTORE PUSH1 0x20 ADD SWAP1 DUP2 MSTORE PUSH1 0x20 ADD PUSH1 0x0 KECCAK256 PUSH1 0x1 ADD SLOAD PUSH2 0x1AB7 SWAP1 SWAP2 SWAP1 PUSH4 0xFFFFFFFF AND JUMP JUMPDEST PUSH2 0x1ACD SWAP1 SWAP2 SWAP1 PUSH4 0xFFFFFFFF AND JUMP JUMPDEST SWAP1 POP PUSH1 0x5 PUSH1 0x0 PUSH1 0x3 PUSH1 0x0 DUP6 DUP2 MSTORE PUSH1 0x20 ADD SWAP1 DUP2 MSTORE PUSH1 0x20 ADD PUSH1 0x0 KECCAK256 PUSH1 0x0 SWAP1 SLOAD SWAP1 PUSH2 0x100 EXP SWAP1 DIV PUSH20 0xFFFFFFFFFFFFFFFFFFFFFFFFFFFFFFFFFFFFFFFF AND PUSH20 0xFFFFFFFFFFFFFFFFFFFFFFFFFFFFFFFFFFFFFFFF AND PUSH20 0xFFFFFFFFFFFFFFFFFFFFFFFFFFFFFFFFFFFFFFFF AND DUP2 MSTORE PUSH1 0x20 ADD SWAP1 DUP2 MSTORE PUSH1 0x20 ADD PUSH1 0x0 KECCAK256 PUSH1 0x1 ADD PUSH1 0x0 SWAP1 SLOAD SWAP1 PUSH2 0x100 EXP SWAP1 DIV PUSH20 0xFFFFFFFFFFFFFFFFFFFFFFFFFFFFFFFFFFFFFFFF AND PUSH20 0xFFFFFFFFFFFFFFFFFFFFFFFFFFFFFFFFFFFFFFFF AND DUP2 PUSH1 0x40 MLOAD PUSH2 0x13A8 SWAP1 PUSH2 0x1D7F JUMP JUMPDEST PUSH1 0x0 PUSH1 0x40 MLOAD DUP1 DUP4 SUB DUP2 DUP6 DUP8 GAS CALL SWAP3 POP POP POP RETURNDATASIZE DUP1 PUSH1 0x0 DUP2 EQ PUSH2 0x13E5 JUMPI PUSH1 0x40 MLOAD SWAP2 POP PUSH1 0x1F NOT PUSH1 0x3F RETURNDATASIZE ADD AND DUP3 ADD PUSH1 0x40 MSTORE RETURNDATASIZE DUP3 MSTORE RETURNDATASIZE PUSH1 0x0 PUSH1 0x20 DUP5 ADD RETURNDATACOPY PUSH2 0x13EA JUMP JUMPDEST PUSH1 0x60 SWAP2 POP JUMPDEST POP POP DUP1 SWAP5 POP POP DUP4 ISZERO PUSH2 0x14D2 JUMPI PUSH32 0xAFE90BC52FC3DD02B2550B825FC68E93B4BFBCB8165BBACDA6CD14B2BAD5BC02 PUSH1 0x2 PUSH1 0x0 DUP12 PUSH1 0xFF AND PUSH1 0xFF AND DUP2 MSTORE PUSH1 0x20 ADD SWAP1 DUP2 MSTORE PUSH1 0x20 ADD PUSH1 0x0 KECCAK256 PUSH1 0x0 ADD PUSH1 0x0 SWAP1 SLOAD SWAP1 PUSH2 0x100 EXP SWAP1 DIV PUSH1 0xFF AND DUP4 PUSH1 0x5 PUSH1 0x0 PUSH1 0x3 PUSH1 0x0 DUP9 DUP2 MSTORE PUSH1 0x20 ADD SWAP1 DUP2 MSTORE PUSH1 0x20 ADD PUSH1 0x0 KECCAK256 PUSH1 0x0 SWAP1 SLOAD SWAP1 PUSH2 0x100 EXP SWAP1 DIV PUSH20 0xFFFFFFFFFFFFFFFFFFFFFFFFFFFFFFFFFFFFFFFF AND PUSH20 0xFFFFFFFFFFFFFFFFFFFFFFFFFFFFFFFFFFFFFFFF AND PUSH20 0xFFFFFFFFFFFFFFFFFFFFFFFFFFFFFFFFFFFFFFFF AND DUP2 MSTORE PUSH1 0x20 ADD SWAP1 DUP2 MSTORE PUSH1 0x20 ADD PUSH1 0x0 KECCAK256 PUSH1 0x0 ADD SLOAD DUP5 PUSH1 0x40 MLOAD PUSH2 0x14C9 SWAP5 SWAP4 SWAP3 SWAP2 SWAP1 PUSH2 0x1F8E JUMP JUMPDEST PUSH1 0x40 MLOAD DUP1 SWAP2 SUB SWAP1 LOG1 JUMPDEST PUSH2 0x1515 PUSH1 0x64 PUSH2 0x1507 PUSH1 0x4 PUSH1 0x2 PUSH1 0x0 DUP15 PUSH1 0xFF AND PUSH1 0xFF AND DUP2 MSTORE PUSH1 0x20 ADD SWAP1 DUP2 MSTORE PUSH1 0x20 ADD PUSH1 0x0 KECCAK256 PUSH1 0x1 ADD SLOAD PUSH2 0x1AB7 SWAP1 SWAP2 SWAP1 PUSH4 0xFFFFFFFF AND JUMP JUMPDEST PUSH2 0x1ACD SWAP1 SWAP2 SWAP1 PUSH4 0xFFFFFFFF AND JUMP JUMPDEST SWAP1 POP PUSH1 0x5 PUSH1 0x0 PUSH1 0x3 PUSH1 0x0 PUSH1 0x5 PUSH1 0x0 PUSH1 0x3 PUSH1 0x0 DUP10 DUP2 MSTORE PUSH1 0x20 ADD SWAP1 DUP2 MSTORE PUSH1 0x20 ADD PUSH1 0x0 KECCAK256 PUSH1 0x0 SWAP1 SLOAD SWAP1 PUSH2 0x100 EXP SWAP1 DIV PUSH20 0xFFFFFFFFFFFFFFFFFFFFFFFFFFFFFFFFFFFFFFFF AND PUSH20 0xFFFFFFFFFFFFFFFFFFFFFFFFFFFFFFFFFFFFFFFF AND PUSH20 0xFFFFFFFFFFFFFFFFFFFFFFFFFFFFFFFFFFFFFFFF AND DUP2 MSTORE PUSH1 0x20 ADD SWAP1 DUP2 MSTORE PUSH1 0x20 ADD PUSH1 0x0 KECCAK256 PUSH1 0x0 ADD SLOAD DUP2 MSTORE PUSH1 0x20 ADD SWAP1 DUP2 MSTORE PUSH1 0x20 ADD PUSH1 0x0 KECCAK256 PUSH1 0x0 SWAP1 SLOAD SWAP1 PUSH2 0x100 EXP SWAP1 DIV PUSH20 0xFFFFFFFFFFFFFFFFFFFFFFFFFFFFFFFFFFFFFFFF AND PUSH20 0xFFFFFFFFFFFFFFFFFFFFFFFFFFFFFFFFFFFFFFFF AND PUSH20 0xFFFFFFFFFFFFFFFFFFFFFFFFFFFFFFFFFFFFFFFF AND DUP2 MSTORE PUSH1 0x20 ADD SWAP1 DUP2 MSTORE PUSH1 0x20 ADD PUSH1 0x0 KECCAK256 PUSH1 0x1 ADD PUSH1 0x0 SWAP1 SLOAD SWAP1 PUSH2 0x100 EXP SWAP1 DIV PUSH20 0xFFFFFFFFFFFFFFFFFFFFFFFFFFFFFFFFFFFFFFFF AND PUSH20 0xFFFFFFFFFFFFFFFFFFFFFFFFFFFFFFFFFFFFFFFF AND DUP2 PUSH1 0x40 MLOAD PUSH2 0x1645 SWAP1 PUSH2 0x1D7F JUMP JUMPDEST PUSH1 0x0 PUSH1 0x40 MLOAD DUP1 DUP4 SUB DUP2 DUP6 DUP8 GAS CALL SWAP3 POP POP POP RETURNDATASIZE DUP1 PUSH1 0x0 DUP2 EQ PUSH2 0x1682 JUMPI PUSH1 0x40 MLOAD SWAP2 POP PUSH1 0x1F NOT PUSH1 0x3F RETURNDATASIZE ADD AND DUP3 ADD PUSH1 0x40 MSTORE RETURNDATASIZE DUP3 MSTORE RETURNDATASIZE PUSH1 0x0 PUSH1 0x20 DUP5 ADD RETURNDATACOPY PUSH2 0x1687 JUMP JUMPDEST PUSH1 0x60 SWAP2 POP JUMPDEST POP POP DUP1 SWAP5 POP POP DUP4 ISZERO PUSH2 0x1859 JUMPI PUSH32 0xAFE90BC52FC3DD02B2550B825FC68E93B4BFBCB8165BBACDA6CD14B2BAD5BC02 PUSH1 0x2 PUSH1 0x0 DUP12 PUSH1 0xFF AND PUSH1 0xFF AND DUP2 MSTORE PUSH1 0x20 ADD SWAP1 DUP2 MSTORE PUSH1 0x20 ADD PUSH1 0x0 KECCAK256 PUSH1 0x0 ADD PUSH1 0x0 SWAP1 SLOAD SWAP1 PUSH2 0x100 EXP SWAP1 DIV PUSH1 0xFF AND PUSH1 0x5 PUSH1 0x0 PUSH1 0x3 PUSH1 0x0 DUP8 DUP2 MSTORE PUSH1 0x20 ADD SWAP1 DUP2 MSTORE PUSH1 0x20 ADD PUSH1 0x0 KECCAK256 PUSH1 0x0 SWAP1 SLOAD SWAP1 PUSH2 0x100 EXP SWAP1 DIV PUSH20 0xFFFFFFFFFFFFFFFFFFFFFFFFFFFFFFFFFFFFFFFF AND PUSH20 0xFFFFFFFFFFFFFFFFFFFFFFFFFFFFFFFFFFFFFFFF AND PUSH20 0xFFFFFFFFFFFFFFFFFFFFFFFFFFFFFFFFFFFFFFFF AND DUP2 MSTORE PUSH1 0x20 ADD SWAP1 DUP2 MSTORE PUSH1 0x20 ADD PUSH1 0x0 KECCAK256 PUSH1 0x0 ADD SLOAD PUSH1 0x5 PUSH1 0x0 PUSH1 0x3 PUSH1 0x0 PUSH1 0x5 PUSH1 0x0 PUSH1 0x3 PUSH1 0x0 DUP13 DUP2 MSTORE PUSH1 0x20 ADD SWAP1 DUP2 MSTORE PUSH1 0x20 ADD PUSH1 0x0 KECCAK256 PUSH1 0x0 SWAP1 SLOAD SWAP1 PUSH2 0x100 EXP SWAP1 DIV PUSH20 0xFFFFFFFFFFFFFFFFFFFFFFFFFFFFFFFFFFFFFFFF AND PUSH20 0xFFFFFFFFFFFFFFFFFFFFFFFFFFFFFFFFFFFFFFFF AND PUSH20 0xFFFFFFFFFFFFFFFFFFFFFFFFFFFFFFFFFFFFFFFF AND DUP2 MSTORE PUSH1 0x20 ADD SWAP1 DUP2 MSTORE PUSH1 0x20 ADD PUSH1 0x0 KECCAK256 PUSH1 0x0 ADD SLOAD DUP2 MSTORE PUSH1 0x20 ADD SWAP1 DUP2 MSTORE PUSH1 0x20 ADD PUSH1 0x0 KECCAK256 PUSH1 0x0 SWAP1 SLOAD SWAP1 PUSH2 0x100 EXP SWAP1 DIV PUSH20 0xFFFFFFFFFFFFFFFFFFFFFFFFFFFFFFFFFFFFFFFF AND PUSH20 0xFFFFFFFFFFFFFFFFFFFFFFFFFFFFFFFFFFFFFFFF AND PUSH20 0xFFFFFFFFFFFFFFFFFFFFFFFFFFFFFFFFFFFFFFFF AND DUP2 MSTORE PUSH1 0x20 ADD SWAP1 DUP2 MSTORE PUSH1 0x20 ADD PUSH1 0x0 KECCAK256 PUSH1 0x0 ADD SLOAD DUP5 PUSH1 0x40 MLOAD PUSH2 0x1850 SWAP5 SWAP4 SWAP3 SWAP2 SWAP1 PUSH2 0x1F8E JUMP JUMPDEST PUSH1 0x40 MLOAD DUP1 SWAP2 SUB SWAP1 LOG1 JUMPDEST PUSH2 0x189C PUSH1 0x64 PUSH2 0x188E PUSH1 0x6 PUSH1 0x2 PUSH1 0x0 DUP15 PUSH1 0xFF AND PUSH1 0xFF AND DUP2 MSTORE PUSH1 0x20 ADD SWAP1 DUP2 MSTORE PUSH1 0x20 ADD PUSH1 0x0 KECCAK256 PUSH1 0x1 ADD SLOAD PUSH2 0x1AB7 SWAP1 SWAP2 SWAP1 PUSH4 0xFFFFFFFF AND JUMP JUMPDEST PUSH2 0x1ACD SWAP1 SWAP2 SWAP1 PUSH4 0xFFFFFFFF AND JUMP JUMPDEST SWAP1 POP PUSH1 0x5 PUSH1 0x0 PUSH1 0x1 DUP1 SLOAD SWAP1 PUSH2 0x100 EXP SWAP1 DIV PUSH20 0xFFFFFFFFFFFFFFFFFFFFFFFFFFFFFFFFFFFFFFFF AND PUSH20 0xFFFFFFFFFFFFFFFFFFFFFFFFFFFFFFFFFFFFFFFF AND PUSH20 0xFFFFFFFFFFFFFFFFFFFFFFFFFFFFFFFFFFFFFFFF AND DUP2 MSTORE PUSH1 0x20 ADD SWAP1 DUP2 MSTORE PUSH1 0x20 ADD PUSH1 0x0 KECCAK256 PUSH1 0x1 ADD PUSH1 0x0 SWAP1 SLOAD SWAP1 PUSH2 0x100 EXP SWAP1 DIV PUSH20 0xFFFFFFFFFFFFFFFFFFFFFFFFFFFFFFFFFFFFFFFF AND PUSH20 0xFFFFFFFFFFFFFFFFFFFFFFFFFFFFFFFFFFFFFFFF AND DUP2 PUSH1 0x40 MLOAD PUSH2 0x1944 SWAP1 PUSH2 0x1D7F JUMP JUMPDEST PUSH1 0x0 PUSH1 0x40 MLOAD DUP1 DUP4 SUB DUP2 DUP6 DUP8 GAS CALL SWAP3 POP POP POP RETURNDATASIZE DUP1 PUSH1 0x0 DUP2 EQ PUSH2 0x1981 JUMPI PUSH1 0x40 MLOAD SWAP2 POP PUSH1 0x1F NOT PUSH1 0x3F RETURNDATASIZE ADD AND DUP3 ADD PUSH1 0x40 MSTORE RETURNDATASIZE DUP3 MSTORE RETURNDATASIZE PUSH1 0x0 PUSH1 0x20 DUP5 ADD RETURNDATACOPY PUSH2 0x1986 JUMP JUMPDEST PUSH1 0x60 SWAP2 POP JUMPDEST POP POP DUP1 SWAP5 POP POP DUP4 ISZERO PUSH2 0x1A5B JUMPI PUSH32 0xAFE90BC52FC3DD02B2550B825FC68E93B4BFBCB8165BBACDA6CD14B2BAD5BC02 PUSH1 0x2 PUSH1 0x0 DUP12 PUSH1 0xFF AND PUSH1 0xFF AND DUP2 MSTORE PUSH1 0x20 ADD SWAP1 DUP2 MSTORE PUSH1 0x20 ADD PUSH1 0x0 KECCAK256 PUSH1 0x0 ADD PUSH1 0x0 SWAP1 SLOAD SWAP1 PUSH2 0x100 EXP SWAP1 DIV PUSH1 0xFF AND DUP5 PUSH1 0x5 PUSH1 0x0 PUSH1 0x1 DUP1 SLOAD SWAP1 PUSH2 0x100 EXP SWAP1 DIV PUSH20 0xFFFFFFFFFFFFFFFFFFFFFFFFFFFFFFFFFFFFFFFF AND PUSH20 0xFFFFFFFFFFFFFFFFFFFFFFFFFFFFFFFFFFFFFFFF AND PUSH20 0xFFFFFFFFFFFFFFFFFFFFFFFFFFFFFFFFFFFFFFFF AND DUP2 MSTORE PUSH1 0x20 ADD SWAP1 DUP2 MSTORE PUSH1 0x20 ADD PUSH1 0x0 KECCAK256 PUSH1 0x0 ADD SLOAD DUP5 PUSH1 0x40 MLOAD PUSH2 0x1A52 SWAP5 SWAP4 SWAP3 SWAP2 SWAP1 PUSH2 0x1F8E JUMP JUMPDEST PUSH1 0x40 MLOAD DUP1 SWAP2 SUB SWAP1 LOG1 JUMPDEST POP POP POP POP JUMPDEST PUSH2 0x1A69 DUP3 PUSH2 0x1A78 JUMP JUMPDEST SWAP2 POP POP PUSH2 0xE1E JUMP JUMPDEST POP JUMPDEST POP POP POP JUMP JUMPDEST PUSH1 0x0 DUP1 PUSH2 0x1A8F PUSH1 0x2 DUP5 PUSH2 0x1AE3 SWAP1 SWAP2 SWAP1 PUSH4 0xFFFFFFFF AND JUMP JUMPDEST EQ PUSH2 0x1AAD JUMPI PUSH2 0x1AA8 PUSH1 0x2 DUP4 PUSH2 0x1ACD SWAP1 SWAP2 SWAP1 PUSH4 0xFFFFFFFF AND JUMP JUMPDEST PUSH2 0x1AB0 JUMP JUMPDEST PUSH1 0x0 JUMPDEST SWAP1 POP SWAP2 SWAP1 POP JUMP JUMPDEST PUSH1 0x0 DUP2 DUP4 PUSH2 0x1AC5 SWAP2 SWAP1 PUSH2 0x20AD JUMP JUMPDEST SWAP1 POP SWAP3 SWAP2 POP POP JUMP JUMPDEST PUSH1 0x0 DUP2 DUP4 PUSH2 0x1ADB SWAP2 SWAP1 PUSH2 0x207C JUMP JUMPDEST SWAP1 POP SWAP3 SWAP2 POP POP JUMP JUMPDEST PUSH1 0x0 DUP2 DUP4 PUSH2 0x1AF1 SWAP2 SWAP1 PUSH2 0x2200 JUMP JUMPDEST SWAP1 POP SWAP3 SWAP2 POP POP JUMP JUMPDEST PUSH1 0x0 DUP2 CALLDATALOAD SWAP1 POP PUSH2 0x1B08 DUP2 PUSH2 0x23D9 JUMP JUMPDEST SWAP3 SWAP2 POP POP JUMP JUMPDEST PUSH1 0x0 DUP2 CALLDATALOAD SWAP1 POP PUSH2 0x1B1D DUP2 PUSH2 0x23F0 JUMP JUMPDEST SWAP3 SWAP2 POP POP JUMP JUMPDEST PUSH1 0x0 DUP2 CALLDATALOAD SWAP1 POP PUSH2 0x1B32 DUP2 PUSH2 0x2407 JUMP JUMPDEST SWAP3 SWAP2 POP POP JUMP JUMPDEST PUSH1 0x0 PUSH1 0x20 DUP3 DUP5 SUB SLT ISZERO PUSH2 0x1B4E JUMPI PUSH2 0x1B4D PUSH2 0x228F JUMP JUMPDEST JUMPDEST PUSH1 0x0 PUSH2 0x1B5C DUP5 DUP3 DUP6 ADD PUSH2 0x1AF9 JUMP JUMPDEST SWAP2 POP POP SWAP3 SWAP2 POP POP JUMP JUMPDEST PUSH1 0x0 DUP1 PUSH1 0x40 DUP4 DUP6 SUB SLT ISZERO PUSH2 0x1B7C JUMPI PUSH2 0x1B7B PUSH2 0x228F JUMP JUMPDEST JUMPDEST PUSH1 0x0 PUSH2 0x1B8A DUP6 DUP3 DUP7 ADD PUSH2 0x1AF9 JUMP JUMPDEST SWAP3 POP POP PUSH1 0x20 PUSH2 0x1B9B DUP6 DUP3 DUP7 ADD PUSH2 0x1B23 JUMP JUMPDEST SWAP2 POP POP SWAP3 POP SWAP3 SWAP1 POP JUMP JUMPDEST PUSH1 0x0 PUSH1 0x20 DUP3 DUP5 SUB SLT ISZERO PUSH2 0x1BBB JUMPI PUSH2 0x1BBA PUSH2 0x228F JUMP JUMPDEST JUMPDEST PUSH1 0x0 PUSH2 0x1BC9 DUP5 DUP3 DUP6 ADD PUSH2 0x1B0E JUMP JUMPDEST SWAP2 POP POP SWAP3 SWAP2 POP POP JUMP JUMPDEST PUSH1 0x0 PUSH1 0x20 DUP3 DUP5 SUB SLT ISZERO PUSH2 0x1BE8 JUMPI PUSH2 0x1BE7 PUSH2 0x228F JUMP JUMPDEST JUMPDEST PUSH1 0x0 PUSH2 0x1BF6 DUP5 DUP3 DUP6 ADD PUSH2 0x1B23 JUMP JUMPDEST SWAP2 POP POP SWAP3 SWAP2 POP POP JUMP JUMPDEST PUSH1 0x0 DUP1 PUSH1 0x40 DUP4 DUP6 SUB SLT ISZERO PUSH2 0x1C16 JUMPI PUSH2 0x1C15 PUSH2 0x228F JUMP JUMPDEST JUMPDEST PUSH1 0x0 PUSH2 0x1C24 DUP6 DUP3 DUP7 ADD PUSH2 0x1B23 JUMP JUMPDEST SWAP3 POP POP PUSH1 0x20 PUSH2 0x1C35 DUP6 DUP3 DUP7 ADD PUSH2 0x1B0E JUMP JUMPDEST SWAP2 POP POP SWAP3 POP SWAP3 SWAP1 POP JUMP JUMPDEST PUSH2 0x1C48 DUP2 PUSH2 0x2181 JUMP JUMPDEST DUP3 MSTORE POP POP JUMP JUMPDEST PUSH2 0x1C57 DUP2 PUSH2 0x216F JUMP JUMPDEST DUP3 MSTORE POP POP JUMP JUMPDEST PUSH2 0x1C66 DUP2 PUSH2 0x2193 JUMP JUMPDEST DUP3 MSTORE POP POP JUMP JUMPDEST PUSH1 0x0 PUSH2 0x1C79 PUSH1 0xE DUP4 PUSH2 0x1FDE JUMP JUMPDEST SWAP2 POP PUSH2 0x1C84 DUP3 PUSH2 0x2294 JUMP JUMPDEST PUSH1 0x20 DUP3 ADD SWAP1 POP SWAP2 SWAP1 POP JUMP JUMPDEST PUSH1 0x0 PUSH2 0x1C9C PUSH1 0x1A DUP4 PUSH2 0x1FDE JUMP JUMPDEST SWAP2 POP PUSH2 0x1CA7 DUP3 PUSH2 0x22BD JUMP JUMPDEST PUSH1 0x20 DUP3 ADD SWAP1 POP SWAP2 SWAP1 POP JUMP JUMPDEST PUSH1 0x0 PUSH2 0x1CBF PUSH1 0x0 DUP4 PUSH2 0x1FD3 JUMP JUMPDEST SWAP2 POP PUSH2 0x1CCA DUP3 PUSH2 0x22E6 JUMP JUMPDEST PUSH1 0x0 DUP3 ADD SWAP1 POP SWAP2 SWAP1 POP JUMP JUMPDEST PUSH1 0x0 PUSH2 0x1CE2 PUSH1 0x23 DUP4 PUSH2 0x1FDE JUMP JUMPDEST SWAP2 POP PUSH2 0x1CED DUP3 PUSH2 0x22E9 JUMP JUMPDEST PUSH1 0x40 DUP3 ADD SWAP1 POP SWAP2 SWAP1 POP JUMP JUMPDEST PUSH1 0x0 PUSH2 0x1D05 PUSH1 0x28 DUP4 PUSH2 0x1FDE JUMP JUMPDEST SWAP2 POP PUSH2 0x1D10 DUP3 PUSH2 0x2338 JUMP JUMPDEST PUSH1 0x40 DUP3 ADD SWAP1 POP SWAP2 SWAP1 POP JUMP JUMPDEST PUSH1 0x0 PUSH2 0x1D28 PUSH1 0xC DUP4 PUSH2 0x1FDE JUMP JUMPDEST SWAP2 POP PUSH2 0x1D33 DUP3 PUSH2 0x2387 JUMP JUMPDEST PUSH1 0x20 DUP3 ADD SWAP1 POP SWAP2 SWAP1 POP JUMP JUMPDEST PUSH1 0x0 PUSH2 0x1D4B PUSH1 0x11 DUP4 PUSH2 0x1FDE JUMP JUMPDEST SWAP2 POP PUSH2 0x1D56 DUP3 PUSH2 0x23B0 JUMP JUMPDEST PUSH1 0x20 DUP3 ADD SWAP1 POP SWAP2 SWAP1 POP JUMP JUMPDEST PUSH2 0x1D6A DUP2 PUSH2 0x21BF JUMP JUMPDEST DUP3 MSTORE POP POP JUMP JUMPDEST PUSH2 0x1D79 DUP2 PUSH2 0x21C9 JUMP JUMPDEST DUP3 MSTORE POP POP JUMP JUMPDEST PUSH1 0x0 PUSH2 0x1D8A DUP3 PUSH2 0x1CB2 JUMP JUMPDEST SWAP2 POP DUP2 SWAP1 POP SWAP2 SWAP1 POP JUMP JUMPDEST PUSH1 0x0 PUSH1 0x20 DUP3 ADD SWAP1 POP PUSH2 0x1DA9 PUSH1 0x0 DUP4 ADD DUP5 PUSH2 0x1C4E JUMP JUMPDEST SWAP3 SWAP2 POP POP JUMP JUMPDEST PUSH1 0x0 PUSH1 0x20 DUP3 ADD SWAP1 POP PUSH2 0x1DC4 PUSH1 0x0 DUP4 ADD DUP5 PUSH2 0x1C5D JUMP JUMPDEST SWAP3 SWAP2 POP POP JUMP JUMPDEST PUSH1 0x0 PUSH1 0x20 DUP3 ADD SWAP1 POP DUP2 DUP2 SUB PUSH1 0x0 DUP4 ADD MSTORE PUSH2 0x1DE3 DUP2 PUSH2 0x1C6C JUMP JUMPDEST SWAP1 POP SWAP2 SWAP1 POP JUMP JUMPDEST PUSH1 0x0 PUSH1 0x20 DUP3 ADD SWAP1 POP DUP2 DUP2 SUB PUSH1 0x0 DUP4 ADD MSTORE PUSH2 0x1E03 DUP2 PUSH2 0x1C8F JUMP JUMPDEST SWAP1 POP SWAP2 SWAP1 POP JUMP JUMPDEST PUSH1 0x0 PUSH1 0x20 DUP3 ADD SWAP1 POP DUP2 DUP2 SUB PUSH1 0x0 DUP4 ADD MSTORE PUSH2 0x1E23 DUP2 PUSH2 0x1CD5 JUMP JUMPDEST SWAP1 POP SWAP2 SWAP1 POP JUMP JUMPDEST PUSH1 0x0 PUSH1 0x20 DUP3 ADD SWAP1 POP DUP2 DUP2 SUB PUSH1 0x0 DUP4 ADD MSTORE PUSH2 0x1E43 DUP2 PUSH2 0x1CF8 JUMP JUMPDEST SWAP1 POP SWAP2 SWAP1 POP JUMP JUMPDEST PUSH1 0x0 PUSH1 0x20 DUP3 ADD SWAP1 POP DUP2 DUP2 SUB PUSH1 0x0 DUP4 ADD MSTORE PUSH2 0x1E63 DUP2 PUSH2 0x1D1B JUMP JUMPDEST SWAP1 POP SWAP2 SWAP1 POP JUMP JUMPDEST PUSH1 0x0 PUSH1 0x20 DUP3 ADD SWAP1 POP DUP2 DUP2 SUB PUSH1 0x0 DUP4 ADD MSTORE PUSH2 0x1E83 DUP2 PUSH2 0x1D3E JUMP JUMPDEST SWAP1 POP SWAP2 SWAP1 POP JUMP JUMPDEST PUSH1 0x0 PUSH1 0x20 DUP3 ADD SWAP1 POP PUSH2 0x1E9F PUSH1 0x0 DUP4 ADD DUP5 PUSH2 0x1D61 JUMP JUMPDEST SWAP3 SWAP2 POP POP JUMP JUMPDEST PUSH1 0x0 PUSH1 0x60 DUP3 ADD SWAP1 POP PUSH2 0x1EBA PUSH1 0x0 DUP4 ADD DUP7 PUSH2 0x1D61 JUMP JUMPDEST PUSH2 0x1EC7 PUSH1 0x20 DUP4 ADD DUP6 PUSH2 0x1C3F JUMP JUMPDEST PUSH2 0x1ED4 PUSH1 0x40 DUP4 ADD DUP5 PUSH2 0x1D61 JUMP JUMPDEST SWAP5 SWAP4 POP POP POP POP JUMP JUMPDEST PUSH1 0x0 PUSH1 0x60 DUP3 ADD SWAP1 POP PUSH2 0x1EF1 PUSH1 0x0 DUP4 ADD DUP7 PUSH2 0x1D61 JUMP JUMPDEST PUSH2 0x1EFE PUSH1 0x20 DUP4 ADD DUP6 PUSH2 0x1D61 JUMP JUMPDEST PUSH2 0x1F0B PUSH1 0x40 DUP4 ADD DUP5 PUSH2 0x1D61 JUMP JUMPDEST SWAP5 SWAP4 POP POP POP POP JUMP JUMPDEST PUSH1 0x0 PUSH1 0x20 DUP3 ADD SWAP1 POP PUSH2 0x1F28 PUSH1 0x0 DUP4 ADD DUP5 PUSH2 0x1D70 JUMP JUMPDEST SWAP3 SWAP2 POP POP JUMP JUMPDEST PUSH1 0x0 PUSH1 0x60 DUP3 ADD SWAP1 POP PUSH2 0x1F43 PUSH1 0x0 DUP4 ADD DUP7 PUSH2 0x1D70 JUMP JUMPDEST PUSH2 0x1F50 PUSH1 0x20 DUP4 ADD DUP6 PUSH2 0x1C4E JUMP JUMPDEST PUSH2 0x1F5D PUSH1 0x40 DUP4 ADD DUP5 PUSH2 0x1C5D JUMP JUMPDEST SWAP5 SWAP4 POP POP POP POP JUMP JUMPDEST PUSH1 0x0 PUSH1 0x40 DUP3 ADD SWAP1 POP PUSH2 0x1F7A PUSH1 0x0 DUP4 ADD DUP6 PUSH2 0x1D70 JUMP JUMPDEST PUSH2 0x1F87 PUSH1 0x20 DUP4 ADD DUP5 PUSH2 0x1D61 JUMP JUMPDEST SWAP4 SWAP3 POP POP POP JUMP JUMPDEST PUSH1 0x0 PUSH1 0x80 DUP3 ADD SWAP1 POP PUSH2 0x1FA3 PUSH1 0x0 DUP4 ADD DUP8 PUSH2 0x1D70 JUMP JUMPDEST PUSH2 0x1FB0 PUSH1 0x20 DUP4 ADD DUP7 PUSH2 0x1D61 JUMP JUMPDEST PUSH2 0x1FBD PUSH1 0x40 DUP4 ADD DUP6 PUSH2 0x1D61 JUMP JUMPDEST PUSH2 0x1FCA PUSH1 0x60 DUP4 ADD DUP5 PUSH2 0x1D61 JUMP JUMPDEST SWAP6 SWAP5 POP POP POP POP POP JUMP JUMPDEST PUSH1 0x0 DUP2 SWAP1 POP SWAP3 SWAP2 POP POP JUMP JUMPDEST PUSH1 0x0 DUP3 DUP3 MSTORE PUSH1 0x20 DUP3 ADD SWAP1 POP SWAP3 SWAP2 POP POP JUMP JUMPDEST PUSH1 0x0 PUSH2 0x1FFA DUP3 PUSH2 0x21BF JUMP JUMPDEST SWAP2 POP PUSH2 0x2005 DUP4 PUSH2 0x21BF JUMP JUMPDEST SWAP3 POP DUP3 PUSH32 0xFFFFFFFFFFFFFFFFFFFFFFFFFFFFFFFFFFFFFFFFFFFFFFFFFFFFFFFFFFFFFFFF SUB DUP3 GT ISZERO PUSH2 0x203A JUMPI PUSH2 0x2039 PUSH2 0x2231 JUMP JUMPDEST JUMPDEST DUP3 DUP3 ADD SWAP1 POP SWAP3 SWAP2 POP POP JUMP JUMPDEST PUSH1 0x0 PUSH2 0x2050 DUP3 PUSH2 0x21C9 JUMP JUMPDEST SWAP2 POP PUSH2 0x205B DUP4 PUSH2 0x21C9 JUMP JUMPDEST SWAP3 POP DUP3 PUSH1 0xFF SUB DUP3 GT ISZERO PUSH2 0x2071 JUMPI PUSH2 0x2070 PUSH2 0x2231 JUMP JUMPDEST JUMPDEST DUP3 DUP3 ADD SWAP1 POP SWAP3 SWAP2 POP POP JUMP JUMPDEST PUSH1 0x0 PUSH2 0x2087 DUP3 PUSH2 0x21BF JUMP JUMPDEST SWAP2 POP PUSH2 0x2092 DUP4 PUSH2 0x21BF JUMP JUMPDEST SWAP3 POP DUP3 PUSH2 0x20A2 JUMPI PUSH2 0x20A1 PUSH2 0x2260 JUMP JUMPDEST JUMPDEST DUP3 DUP3 DIV SWAP1 POP SWAP3 SWAP2 POP POP JUMP JUMPDEST PUSH1 0x0 PUSH2 0x20B8 DUP3 PUSH2 0x21BF JUMP JUMPDEST SWAP2 POP PUSH2 0x20C3 DUP4 PUSH2 0x21BF JUMP JUMPDEST SWAP3 POP DUP2 PUSH32 0xFFFFFFFFFFFFFFFFFFFFFFFFFFFFFFFFFFFFFFFFFFFFFFFFFFFFFFFFFFFFFFFF DIV DUP4 GT DUP3 ISZERO ISZERO AND ISZERO PUSH2 0x20FC JUMPI PUSH2 0x20FB PUSH2 0x2231 JUMP JUMPDEST JUMPDEST DUP3 DUP3 MUL SWAP1 POP SWAP3 SWAP2 POP POP JUMP JUMPDEST PUSH1 0x0 PUSH2 0x2112 DUP3 PUSH2 0x21BF JUMP JUMPDEST SWAP2 POP PUSH2 0x211D DUP4 PUSH2 0x21BF JUMP JUMPDEST SWAP3 POP DUP3 DUP3 LT ISZERO PUSH2 0x2130 JUMPI PUSH2 0x212F PUSH2 0x2231 JUMP JUMPDEST JUMPDEST DUP3 DUP3 SUB SWAP1 POP SWAP3 SWAP2 POP POP JUMP JUMPDEST PUSH1 0x0 PUSH2 0x2146 DUP3 PUSH2 0x21C9 JUMP JUMPDEST SWAP2 POP PUSH2 0x2151 DUP4 PUSH2 0x21C9 JUMP JUMPDEST SWAP3 POP DUP3 DUP3 LT ISZERO PUSH2 0x2164 JUMPI PUSH2 0x2163 PUSH2 0x2231 JUMP JUMPDEST JUMPDEST DUP3 DUP3 SUB SWAP1 POP SWAP3 SWAP2 POP POP JUMP JUMPDEST PUSH1 0x0 PUSH2 0x217A DUP3 PUSH2 0x219F JUMP JUMPDEST SWAP1 POP SWAP2 SWAP1 POP JUMP JUMPDEST PUSH1 0x0 PUSH2 0x218C DUP3 PUSH2 0x219F JUMP JUMPDEST SWAP1 POP SWAP2 SWAP1 POP JUMP JUMPDEST PUSH1 0x0 DUP2 ISZERO ISZERO SWAP1 POP SWAP2 SWAP1 POP JUMP JUMPDEST PUSH1 0x0 PUSH20 0xFFFFFFFFFFFFFFFFFFFFFFFFFFFFFFFFFFFFFFFF DUP3 AND SWAP1 POP SWAP2 SWAP1 POP JUMP JUMPDEST PUSH1 0x0 DUP2 SWAP1 POP SWAP2 SWAP1 POP JUMP JUMPDEST PUSH1 0x0 PUSH1 0xFF DUP3 AND SWAP1 POP SWAP2 SWAP1 POP JUMP JUMPDEST PUSH1 0x0 PUSH2 0x21E1 DUP3 PUSH2 0x21C9 JUMP JUMPDEST SWAP2 POP PUSH1 0xFF DUP3 EQ ISZERO PUSH2 0x21F5 JUMPI PUSH2 0x21F4 PUSH2 0x2231 JUMP JUMPDEST JUMPDEST PUSH1 0x1 DUP3 ADD SWAP1 POP SWAP2 SWAP1 POP JUMP JUMPDEST PUSH1 0x0 PUSH2 0x220B DUP3 PUSH2 0x21BF JUMP JUMPDEST SWAP2 POP PUSH2 0x2216 DUP4 PUSH2 0x21BF JUMP JUMPDEST SWAP3 POP DUP3 PUSH2 0x2226 JUMPI PUSH2 0x2225 PUSH2 0x2260 JUMP JUMPDEST JUMPDEST DUP3 DUP3 MOD SWAP1 POP SWAP3 SWAP2 POP POP JUMP JUMPDEST PUSH32 0x4E487B7100000000000000000000000000000000000000000000000000000000 PUSH1 0x0 MSTORE PUSH1 0x11 PUSH1 0x4 MSTORE PUSH1 0x24 PUSH1 0x0 REVERT JUMPDEST PUSH32 0x4E487B7100000000000000000000000000000000000000000000000000000000 PUSH1 0x0 MSTORE PUSH1 0x12 PUSH1 0x4 MSTORE PUSH1 0x24 PUSH1 0x0 REVERT JUMPDEST PUSH1 0x0 DUP1 REVERT JUMPDEST PUSH32 0x47616D65206E6F7420666F756E64000000000000000000000000000000000000 PUSH1 0x0 DUP3 ADD MSTORE POP JUMP JUMPDEST PUSH32 0x596F752061726520616C72656164792072656769737465726564000000000000 PUSH1 0x0 DUP3 ADD MSTORE POP JUMP JUMPDEST POP JUMP JUMPDEST PUSH32 0x496E73756666696369656E7420616D6F756E74206F6620636F6E747269627574 PUSH1 0x0 DUP3 ADD MSTORE PUSH32 0x696F6E0000000000000000000000000000000000000000000000000000000000 PUSH1 0x20 DUP3 ADD MSTORE POP JUMP JUMPDEST PUSH32 0x466F72207265676974657220696E2067616D6520796F75206E65656420706179 PUSH1 0x0 DUP3 ADD MSTORE PUSH32 0x2031206574686572000000000000000000000000000000000000000000000000 PUSH1 0x20 DUP3 ADD MSTORE POP JUMP JUMPDEST PUSH32 0x4E6F20636F6E7472616374730000000000000000000000000000000000000000 PUSH1 0x0 DUP3 ADD MSTORE POP JUMP JUMPDEST PUSH32 0x596F7520617265206E6F74206F776E6572000000000000000000000000000000 PUSH1 0x0 DUP3 ADD MSTORE POP JUMP JUMPDEST PUSH2 0x23E2 DUP2 PUSH2 0x216F JUMP JUMPDEST DUP2 EQ PUSH2 0x23ED JUMPI PUSH1 0x0 DUP1 REVERT JUMPDEST POP JUMP JUMPDEST PUSH2 0x23F9 DUP2 PUSH2 0x21BF JUMP JUMPDEST DUP2 EQ PUSH2 0x2404 JUMPI PUSH1 0x0 DUP1 REVERT JUMPDEST POP JUMP JUMPDEST PUSH2 0x2410 DUP2 PUSH2 0x21C9 JUMP JUMPDEST DUP2 EQ PUSH2 0x241B JUMPI PUSH1 0x0 DUP1 REVERT JUMPDEST POP JUMP INVALID LOG2 PUSH5 0x6970667358 0x22 SLT KECCAK256 0xDD PUSH26 0xB00DEF35CC9ADB76D9AD0581394055B5F5662826EE5B8F1977CC 0x5C 0xEA 0xBF DUP6 PUSH5 0x736F6C6343 STOP ADDMOD SMOD STOP CALLER "
				},
				"gasEstimates": {
					"creation": {
						"codeDepositCost": "1860000",
						"executionCost": "infinite",
						"totalCost": "infinite"
					},
					"external": {
						"": "infinite",
						"addGameLevel(uint256)": "infinite",
						"currentGameIdIndex()": "2493",
						"currentUserIdIndex()": "2496",
						"currentUserIndex(uint8)": "2838",
						"getUserBalance(address)": "3302",
						"hasAccess(address)": "2903",
						"joinToGame(uint8)": "infinite",
						"levels(uint8)": "infinite",
						"pools(uint8,uint256)": "infinite",
						"registerUserToGame(uint256)": "infinite",
						"registeredUsers(address)": "infinite",
						"userGames(address,uint8)": "3161",
						"userPayments(address,uint8)": "3144",
						"usersId(uint256)": "2905"
					},
					"internal": {
						"_fallback(address,uint256)": "infinite",
						"_joinToGame(uint8,address,uint256)": "infinite",
						"culcNextWinnerIndex(uint256)": "infinite"
					}
				},
				"methodIdentifiers": {
					"addGameLevel(uint256)": "ae9283b5",
					"currentGameIdIndex()": "ad39f0a3",
					"currentUserIdIndex()": "556c9095",
					"currentUserIndex(uint8)": "9b0b0ae3",
					"getUserBalance(address)": "47734892",
					"hasAccess(address)": "95a078e8",
					"joinToGame(uint8)": "2e8aab9b",
					"levels(uint8)": "906cbf57",
					"pools(uint8,uint256)": "78a32e21",
					"registerUserToGame(uint256)": "0173c05b",
					"registeredUsers(address)": "0e50cee5",
					"userGames(address,uint8)": "2a648c89",
					"userPayments(address,uint8)": "f1060006",
					"usersId(uint256)": "bd233b91"
				}
			},
			"storageLayout": {
				"storage": [
					{
						"astId": 315,
						"contract": "Contract.sol:Pyramid",
						"label": "currentUserIdIndex",
						"offset": 0,
						"slot": "0",
						"type": "t_uint256"
					},
					{
						"astId": 317,
						"contract": "Contract.sol:Pyramid",
						"label": "currentGameIdIndex",
						"offset": 0,
						"slot": "1",
						"type": "t_uint8"
					},
					{
						"astId": 319,
						"contract": "Contract.sol:Pyramid",
						"label": "contractOwner",
						"offset": 1,
						"slot": "1",
						"type": "t_address"
					},
					{
						"astId": 351,
						"contract": "Contract.sol:Pyramid",
						"label": "levels",
						"offset": 0,
						"slot": "2",
						"type": "t_mapping(t_uint8,t_struct(Game)346_storage)"
					},
					{
						"astId": 355,
						"contract": "Contract.sol:Pyramid",
						"label": "usersId",
						"offset": 0,
						"slot": "3",
						"type": "t_mapping(t_uint256,t_address)"
					},
					{
						"astId": 359,
						"contract": "Contract.sol:Pyramid",
						"label": "userPartnersCount",
						"offset": 0,
						"slot": "4",
						"type": "t_mapping(t_uint256,t_uint256)"
					},
					{
						"astId": 364,
						"contract": "Contract.sol:Pyramid",
						"label": "registeredUsers",
						"offset": 0,
						"slot": "5",
						"type": "t_mapping(t_address,t_struct(User)341_storage)"
					},
					{
						"astId": 368,
						"contract": "Contract.sol:Pyramid",
						"label": "currentUserIndex",
						"offset": 0,
						"slot": "6",
						"type": "t_mapping(t_uint8,t_uint256)"
					},
					{
						"astId": 375,
						"contract": "Contract.sol:Pyramid",
						"label": "pools",
						"offset": 0,
						"slot": "7",
						"type": "t_mapping(t_uint8,t_mapping(t_uint256,t_struct(User)341_storage))"
					},
					{
						"astId": 381,
						"contract": "Contract.sol:Pyramid",
						"label": "userPayments",
						"offset": 0,
						"slot": "8",
						"type": "t_mapping(t_address,t_mapping(t_uint8,t_uint256))"
					},
					{
						"astId": 387,
						"contract": "Contract.sol:Pyramid",
						"label": "userGames",
						"offset": 0,
						"slot": "9",
						"type": "t_mapping(t_address,t_mapping(t_uint8,t_bool))"
					}
				],
				"types": {
					"t_address": {
						"encoding": "inplace",
						"label": "address",
						"numberOfBytes": "20"
					},
					"t_address_payable": {
						"encoding": "inplace",
						"label": "address payable",
						"numberOfBytes": "20"
					},
					"t_bool": {
						"encoding": "inplace",
						"label": "bool",
						"numberOfBytes": "1"
					},
					"t_mapping(t_address,t_mapping(t_uint8,t_bool))": {
						"encoding": "mapping",
						"key": "t_address",
						"label": "mapping(address => mapping(uint8 => bool))",
						"numberOfBytes": "32",
						"value": "t_mapping(t_uint8,t_bool)"
					},
					"t_mapping(t_address,t_mapping(t_uint8,t_uint256))": {
						"encoding": "mapping",
						"key": "t_address",
						"label": "mapping(address => mapping(uint8 => uint256))",
						"numberOfBytes": "32",
						"value": "t_mapping(t_uint8,t_uint256)"
					},
					"t_mapping(t_address,t_struct(User)341_storage)": {
						"encoding": "mapping",
						"key": "t_address",
						"label": "mapping(address => struct Pyramid.User)",
						"numberOfBytes": "32",
						"value": "t_struct(User)341_storage"
					},
					"t_mapping(t_uint256,t_address)": {
						"encoding": "mapping",
						"key": "t_uint256",
						"label": "mapping(uint256 => address)",
						"numberOfBytes": "32",
						"value": "t_address"
					},
					"t_mapping(t_uint256,t_struct(User)341_storage)": {
						"encoding": "mapping",
						"key": "t_uint256",
						"label": "mapping(uint256 => struct Pyramid.User)",
						"numberOfBytes": "32",
						"value": "t_struct(User)341_storage"
					},
					"t_mapping(t_uint256,t_uint256)": {
						"encoding": "mapping",
						"key": "t_uint256",
						"label": "mapping(uint256 => uint256)",
						"numberOfBytes": "32",
						"value": "t_uint256"
					},
					"t_mapping(t_uint8,t_bool)": {
						"encoding": "mapping",
						"key": "t_uint8",
						"label": "mapping(uint8 => bool)",
						"numberOfBytes": "32",
						"value": "t_bool"
					},
					"t_mapping(t_uint8,t_mapping(t_uint256,t_struct(User)341_storage))": {
						"encoding": "mapping",
						"key": "t_uint8",
						"label": "mapping(uint8 => mapping(uint256 => struct Pyramid.User))",
						"numberOfBytes": "32",
						"value": "t_mapping(t_uint256,t_struct(User)341_storage)"
					},
					"t_mapping(t_uint8,t_struct(Game)346_storage)": {
						"encoding": "mapping",
						"key": "t_uint8",
						"label": "mapping(uint8 => struct Pyramid.Game)",
						"numberOfBytes": "32",
						"value": "t_struct(Game)346_storage"
					},
					"t_mapping(t_uint8,t_uint256)": {
						"encoding": "mapping",
						"key": "t_uint8",
						"label": "mapping(uint8 => uint256)",
						"numberOfBytes": "32",
						"value": "t_uint256"
					},
					"t_struct(Game)346_storage": {
						"encoding": "inplace",
						"label": "struct Pyramid.Game",
						"members": [
							{
								"astId": 343,
								"contract": "Contract.sol:Pyramid",
								"label": "gameId",
								"offset": 0,
								"slot": "0",
								"type": "t_uint8"
							},
							{
								"astId": 345,
								"contract": "Contract.sol:Pyramid",
								"label": "amountToPay",
								"offset": 0,
								"slot": "1",
								"type": "t_uint256"
							}
						],
						"numberOfBytes": "64"
					},
					"t_struct(User)341_storage": {
						"encoding": "inplace",
						"label": "struct Pyramid.User",
						"members": [
							{
								"astId": 336,
								"contract": "Contract.sol:Pyramid",
								"label": "userId",
								"offset": 0,
								"slot": "0",
								"type": "t_uint256"
							},
							{
								"astId": 338,
								"contract": "Contract.sol:Pyramid",
								"label": "userAddress",
								"offset": 0,
								"slot": "1",
								"type": "t_address_payable"
							},
							{
								"astId": 340,
								"contract": "Contract.sol:Pyramid",
								"label": "invitedId",
								"offset": 0,
								"slot": "2",
								"type": "t_uint256"
							}
						],
						"numberOfBytes": "96"
					},
					"t_uint256": {
						"encoding": "inplace",
						"label": "uint256",
						"numberOfBytes": "32"
					},
					"t_uint8": {
						"encoding": "inplace",
						"label": "uint8",
						"numberOfBytes": "1"
					}
				}
			},
			"userdoc": {
				"kind": "user",
				"methods": {},
				"version": 1
			}
		}
	}
}