{
	"cobraBot/Contract.sol": {
		"Pyramid": {
			"abi": [
				{
					"inputs": [],
					"stateMutability": "nonpayable",
					"type": "constructor"
				},
				{
					"anonymous": false,
					"inputs": [
						{
							"components": [
								{
									"internalType": "uint256",
									"name": "circleCount",
									"type": "uint256"
								},
								{
									"internalType": "uint256",
									"name": "amountToPay",
									"type": "uint256"
								}
							],
							"indexed": false,
							"internalType": "struct Pyramid.Game",
							"name": "game",
							"type": "tuple"
						},
						{
							"indexed": false,
							"internalType": "address",
							"name": "account",
							"type": "address"
						},
						{
							"indexed": false,
							"internalType": "bool",
							"name": "success",
							"type": "bool"
						}
					],
					"name": "GamePaymentEvent",
					"type": "event"
				},
				{
					"anonymous": false,
					"inputs": [
						{
							"components": [
								{
									"internalType": "uint256",
									"name": "circleCount",
									"type": "uint256"
								},
								{
									"internalType": "uint256",
									"name": "amountToPay",
									"type": "uint256"
								}
							],
							"indexed": false,
							"internalType": "struct Pyramid.Game",
							"name": "game",
							"type": "tuple"
						}
					],
					"name": "NewGame",
					"type": "event"
				},
				{
					"anonymous": false,
					"inputs": [
						{
							"components": [
								{
									"internalType": "uint256",
									"name": "circleCount",
									"type": "uint256"
								},
								{
									"internalType": "uint256",
									"name": "amountToPay",
									"type": "uint256"
								}
							],
							"indexed": false,
							"internalType": "struct Pyramid.Game",
							"name": "game",
							"type": "tuple"
						},
						{
							"indexed": false,
							"internalType": "uint256",
							"name": "from",
							"type": "uint256"
						},
						{
							"indexed": false,
							"internalType": "uint256",
							"name": "to",
							"type": "uint256"
						},
						{
							"indexed": false,
							"internalType": "uint256",
							"name": "amount",
							"type": "uint256"
						}
					],
					"name": "ReferalPaymentEvent",
					"type": "event"
				},
				{
					"stateMutability": "payable",
					"type": "fallback"
				},
				{
					"inputs": [
						{
							"internalType": "uint256",
							"name": "circleCount",
							"type": "uint256"
						},
						{
							"internalType": "uint256",
							"name": "amountToPay",
							"type": "uint256"
						}
					],
					"name": "addGameLevel",
					"outputs": [],
					"stateMutability": "nonpayable",
					"type": "function"
				},
				{
					"inputs": [],
					"name": "currentGameIdIndex",
					"outputs": [
						{
							"internalType": "uint8",
							"name": "",
							"type": "uint8"
						}
					],
					"stateMutability": "view",
					"type": "function"
				},
				{
					"inputs": [
						{
							"internalType": "uint8",
							"name": "",
							"type": "uint8"
						}
					],
					"name": "currentUserIndex",
					"outputs": [
						{
							"internalType": "uint256",
							"name": "",
							"type": "uint256"
						}
					],
					"stateMutability": "view",
					"type": "function"
				},
				{
					"inputs": [
						{
							"internalType": "address",
							"name": "userAddress",
							"type": "address"
						}
					],
					"name": "getUserBalance",
					"outputs": [
						{
							"internalType": "uint256",
							"name": "",
							"type": "uint256"
						}
					],
					"stateMutability": "view",
					"type": "function"
				},
				{
					"inputs": [
						{
							"internalType": "address",
							"name": "userAdress",
							"type": "address"
						}
					],
					"name": "hasAccess",
					"outputs": [
						{
							"internalType": "bool",
							"name": "",
							"type": "bool"
						}
					],
					"stateMutability": "view",
					"type": "function"
				},
				{
					"inputs": [
						{
							"internalType": "uint8",
							"name": "gameId",
							"type": "uint8"
						}
					],
					"name": "joinToGame",
					"outputs": [],
					"stateMutability": "payable",
					"type": "function"
				},
				{
					"inputs": [
						{
							"internalType": "uint8",
							"name": "",
							"type": "uint8"
						}
					],
					"name": "levels",
					"outputs": [
						{
							"internalType": "uint256",
							"name": "circleCount",
							"type": "uint256"
						},
						{
							"internalType": "uint256",
							"name": "amountToPay",
							"type": "uint256"
						}
					],
					"stateMutability": "view",
					"type": "function"
				},
				{
					"inputs": [
						{
							"internalType": "uint8",
							"name": "",
							"type": "uint8"
						},
						{
							"internalType": "uint256",
							"name": "",
							"type": "uint256"
						}
					],
					"name": "pools",
					"outputs": [
						{
							"internalType": "uint256",
							"name": "userId",
							"type": "uint256"
						},
						{
							"internalType": "address payable",
							"name": "userAddress",
							"type": "address"
						},
						{
							"internalType": "uint256",
							"name": "invitedId",
							"type": "uint256"
						}
					],
					"stateMutability": "view",
					"type": "function"
				},
				{
					"inputs": [
						{
							"internalType": "uint256",
							"name": "inviterId",
							"type": "uint256"
						}
					],
					"name": "registerUserToGame",
					"outputs": [],
					"stateMutability": "payable",
					"type": "function"
				},
				{
					"inputs": [
						{
							"internalType": "address",
							"name": "",
							"type": "address"
						}
					],
					"name": "registeredUsers",
					"outputs": [
						{
							"internalType": "uint256",
							"name": "userId",
							"type": "uint256"
						},
						{
							"internalType": "address payable",
							"name": "userAddress",
							"type": "address"
						},
						{
							"internalType": "uint256",
							"name": "invitedId",
							"type": "uint256"
						}
					],
					"stateMutability": "view",
					"type": "function"
				},
				{
					"inputs": [
						{
							"internalType": "uint256",
							"name": "a",
							"type": "uint256"
						}
					],
					"name": "test",
					"outputs": [
						{
							"internalType": "uint256",
							"name": "b",
							"type": "uint256"
						}
					],
					"stateMutability": "nonpayable",
					"type": "function"
				},
				{
					"inputs": [
						{
							"internalType": "address",
							"name": "",
							"type": "address"
						},
						{
							"internalType": "uint8",
							"name": "",
							"type": "uint8"
						}
					],
					"name": "userGames",
					"outputs": [
						{
							"internalType": "bool",
							"name": "",
							"type": "bool"
						}
					],
					"stateMutability": "view",
					"type": "function"
				},
				{
					"inputs": [
						{
							"internalType": "address",
							"name": "",
							"type": "address"
						},
						{
							"internalType": "uint8",
							"name": "",
							"type": "uint8"
						}
					],
					"name": "userPayments",
					"outputs": [
						{
							"internalType": "uint256",
							"name": "",
							"type": "uint256"
						}
					],
					"stateMutability": "view",
					"type": "function"
				},
				{
					"inputs": [
						{
							"internalType": "uint256",
							"name": "",
							"type": "uint256"
						}
					],
					"name": "usersId",
					"outputs": [
						{
							"internalType": "address",
							"name": "",
							"type": "address"
						}
					],
					"stateMutability": "view",
					"type": "function"
				},
				{
					"stateMutability": "payable",
					"type": "receive"
				}
			],
			"devdoc": {
				"kind": "dev",
				"methods": {},
				"version": 1
			},
			"evm": {
				"assembly": "    /* \"cobraBot/Contract.sol\":64:8260  contract Pyramid {\r... */\n  mstore(0x40, 0x80)\n    /* \"cobraBot/Contract.sol\":2247:2522  constructor () {\r... */\n  callvalue\n  dup1\n  iszero\n  tag_1\n  jumpi\n  0x00\n  dup1\n  revert\ntag_1:\n  pop\n    /* \"cobraBot/Contract.sol\":2289:2299  msg.sender */\n  caller\n    /* \"cobraBot/Contract.sol\":2273:2286  contractOwner */\n  0x01\n  dup1\n    /* \"cobraBot/Contract.sol\":2273:2299  contractOwner = msg.sender */\n  0x0100\n  exp\n  dup2\n  sload\n  dup2\n  0xffffffffffffffffffffffffffffffffffffffff\n  mul\n  not\n  and\n  swap1\n  dup4\n  0xffffffffffffffffffffffffffffffffffffffff\n  and\n  mul\n  or\n  swap1\n  sstore\n  pop\n    /* \"cobraBot/Contract.sol\":2323:2336  contractOwner */\n  0x01\n  dup1\n  sload\n  swap1\n  0x0100\n  exp\n  swap1\n  div\n  0xffffffffffffffffffffffffffffffffffffffff\n  and\n    /* \"cobraBot/Contract.sol\":2310:2317  usersId */\n  0x03\n    /* \"cobraBot/Contract.sol\":2310:2320  usersId[0] */\n  0x00\n    /* \"cobraBot/Contract.sol\":2318:2319  0 */\n  dup1\n    /* \"cobraBot/Contract.sol\":2310:2320  usersId[0] */\n  dup2\n  mstore\n  0x20\n  add\n  swap1\n  dup2\n  mstore\n  0x20\n  add\n  0x00\n  keccak256\n  0x00\n    /* \"cobraBot/Contract.sol\":2310:2336  usersId[0] = contractOwner */\n  0x0100\n  exp\n  dup2\n  sload\n  dup2\n  0xffffffffffffffffffffffffffffffffffffffff\n  mul\n  not\n  and\n  swap1\n  dup4\n  0xffffffffffffffffffffffffffffffffffffffff\n  and\n  mul\n  or\n  swap1\n  sstore\n  pop\n    /* \"cobraBot/Contract.sol\":2380:2414  User(0, payable(contractOwner), 0) */\n  mload(0x40)\n  dup1\n  0x60\n  add\n  0x40\n  mstore\n  dup1\n    /* \"cobraBot/Contract.sol\":2385:2386  0 */\n  0x00\n    /* \"cobraBot/Contract.sol\":2380:2414  User(0, payable(contractOwner), 0) */\n  dup2\n  mstore\n  0x20\n  add\n    /* \"cobraBot/Contract.sol\":2396:2409  contractOwner */\n  0x01\n  dup1\n  sload\n  swap1\n  0x0100\n  exp\n  swap1\n  div\n  0xffffffffffffffffffffffffffffffffffffffff\n  and\n    /* \"cobraBot/Contract.sol\":2380:2414  User(0, payable(contractOwner), 0) */\n  0xffffffffffffffffffffffffffffffffffffffff\n  and\n  dup2\n  mstore\n  0x20\n  add\n    /* \"cobraBot/Contract.sol\":2412:2413  0 */\n  0x00\n    /* \"cobraBot/Contract.sol\":2380:2414  User(0, payable(contractOwner), 0) */\n  dup2\n  mstore\n  pop\n    /* \"cobraBot/Contract.sol\":2347:2362  registeredUsers */\n  0x04\n    /* \"cobraBot/Contract.sol\":2347:2377  registeredUsers[contractOwner] */\n  0x00\n    /* \"cobraBot/Contract.sol\":2363:2376  contractOwner */\n  0x01\n  dup1\n  sload\n  swap1\n  0x0100\n  exp\n  swap1\n  div\n  0xffffffffffffffffffffffffffffffffffffffff\n  and\n    /* \"cobraBot/Contract.sol\":2347:2377  registeredUsers[contractOwner] */\n  0xffffffffffffffffffffffffffffffffffffffff\n  and\n  0xffffffffffffffffffffffffffffffffffffffff\n  and\n  dup2\n  mstore\n  0x20\n  add\n  swap1\n  dup2\n  mstore\n  0x20\n  add\n  0x00\n  keccak256\n    /* \"cobraBot/Contract.sol\":2347:2414  registeredUsers[contractOwner] = User(0, payable(contractOwner), 0) */\n  0x00\n  dup3\n  add\n  mload\n  dup2\n  0x00\n  add\n  sstore\n  0x20\n  dup3\n  add\n  mload\n  dup2\n  0x01\n  add\n  exp(0x0100, 0x00)\n  dup2\n  sload\n  dup2\n  0xffffffffffffffffffffffffffffffffffffffff\n  mul\n  not\n  and\n  swap1\n  dup4\n  0xffffffffffffffffffffffffffffffffffffffff\n  and\n  mul\n  or\n  swap1\n  sstore\n  pop\n  0x40\n  dup3\n  add\n  mload\n  dup2\n  0x02\n  add\n  sstore\n  swap1\n  pop\n  pop\n    /* \"cobraBot/Contract.sol\":2446:2447  1 */\n  0x01\n    /* \"cobraBot/Contract.sol\":2425:2443  currentUserIdIndex */\n  0x00\n    /* \"cobraBot/Contract.sol\":2425:2447  currentUserIdIndex = 1 */\n  dup2\n  swap1\n  sstore\n  pop\n    /* \"cobraBot/Contract.sol\":2460:2514  addGameLevel({ circleCount: 3, amountToPay: 1 ether }) */\n  tag_4\n    /* \"cobraBot/Contract.sol\":2488:2489  3 */\n  0x03\n    /* \"cobraBot/Contract.sol\":2504:2511  1 ether */\n  0x0de0b6b3a7640000\n    /* \"cobraBot/Contract.sol\":2460:2472  addGameLevel */\n  shl(0x20, tag_5)\n    /* \"cobraBot/Contract.sol\":2460:2514  addGameLevel({ circleCount: 3, amountToPay: 1 ether }) */\n  0x20\n  shr\n  jump\t// in\ntag_4:\n    /* \"cobraBot/Contract.sol\":64:8260  contract Pyramid {\r... */\n  jump(tag_6)\n    /* \"cobraBot/Contract.sol\":3757:4136  function addGameLevel(uint256 circleCount, uint256 amountToPay) public onlyOwner {\r... */\ntag_5:\n    /* \"cobraBot/Contract.sol\":2197:2218  hasAccess(msg.sender) */\n  tag_8\n    /* \"cobraBot/Contract.sol\":2207:2217  msg.sender */\n  caller\n    /* \"cobraBot/Contract.sol\":2197:2206  hasAccess */\n  shl(0x20, tag_9)\n    /* \"cobraBot/Contract.sol\":2197:2218  hasAccess(msg.sender) */\n  0x20\n  shr\n  jump\t// in\ntag_8:\n    /* \"cobraBot/Contract.sol\":2189:2219  require(hasAccess(msg.sender)) */\n  tag_10\n  jumpi\n  0x00\n  dup1\n  revert\ntag_10:\n    /* \"cobraBot/Contract.sol\":3983:4043  Game({ circleCount: circleCount, amountToPay: amountToPay }) */\n  mload(0x40)\n  dup1\n  0x40\n  add\n  0x40\n  mstore\n  dup1\n    /* \"cobraBot/Contract.sol\":4003:4014  circleCount */\n  dup4\n    /* \"cobraBot/Contract.sol\":3983:4043  Game({ circleCount: circleCount, amountToPay: amountToPay }) */\n  dup2\n  mstore\n  0x20\n  add\n    /* \"cobraBot/Contract.sol\":4029:4040  amountToPay */\n  dup3\n    /* \"cobraBot/Contract.sol\":3983:4043  Game({ circleCount: circleCount, amountToPay: amountToPay }) */\n  dup2\n  mstore\n  pop\n    /* \"cobraBot/Contract.sol\":3954:3960  levels */\n  0x02\n    /* \"cobraBot/Contract.sol\":3954:3980  levels[currentGameIdIndex] */\n  0x00\n    /* \"cobraBot/Contract.sol\":3961:3979  currentGameIdIndex */\n  0x01\n  0x00\n  swap1\n  sload\n  swap1\n  0x0100\n  exp\n  swap1\n  div\n  0xff\n  and\n    /* \"cobraBot/Contract.sol\":3954:3980  levels[currentGameIdIndex] */\n  0xff\n  and\n  0xff\n  and\n  dup2\n  mstore\n  0x20\n  add\n  swap1\n  dup2\n  mstore\n  0x20\n  add\n  0x00\n  keccak256\n    /* \"cobraBot/Contract.sol\":3954:4043  levels[currentGameIdIndex] = Game({ circleCount: circleCount, amountToPay: amountToPay }) */\n  0x00\n  dup3\n  add\n  mload\n  dup2\n  0x00\n  add\n  sstore\n  0x20\n  dup3\n  add\n  mload\n  dup2\n  0x01\n  add\n  sstore\n  swap1\n  pop\n  pop\n    /* \"cobraBot/Contract.sol\":4059:4094  NewGame(levels[currentGameIdIndex]) */\n  0x954900f0fb49268c265d1bafbfbf6c060c8b41cdb6b0bcaa575389d650b5e374\n    /* \"cobraBot/Contract.sol\":4067:4073  levels */\n  0x02\n    /* \"cobraBot/Contract.sol\":4067:4093  levels[currentGameIdIndex] */\n  0x00\n    /* \"cobraBot/Contract.sol\":4074:4092  currentGameIdIndex */\n  0x01\n  0x00\n  swap1\n  sload\n  swap1\n  0x0100\n  exp\n  swap1\n  div\n  0xff\n  and\n    /* \"cobraBot/Contract.sol\":4067:4093  levels[currentGameIdIndex] */\n  0xff\n  and\n  0xff\n  and\n  dup2\n  mstore\n  0x20\n  add\n  swap1\n  dup2\n  mstore\n  0x20\n  add\n  0x00\n  keccak256\n    /* \"cobraBot/Contract.sol\":4059:4094  NewGame(levels[currentGameIdIndex]) */\n  mload(0x40)\n  tag_12\n  swap2\n  swap1\n  tag_13\n  jump\t// in\ntag_12:\n  mload(0x40)\n  dup1\n  swap2\n  sub\n  swap1\n  log1\n    /* \"cobraBot/Contract.sol\":4127:4128  1 */\n  0x01\n    /* \"cobraBot/Contract.sol\":4105:4123  currentGameIdIndex */\n  dup1\n  0x00\n    /* \"cobraBot/Contract.sol\":4105:4128  currentGameIdIndex += 1 */\n  dup3\n  dup3\n  dup3\n  swap1\n  sload\n  swap1\n  0x0100\n  exp\n  swap1\n  div\n  0xff\n  and\n  tag_14\n  swap2\n  swap1\n  tag_15\n  jump\t// in\ntag_14:\n  swap3\n  pop\n  0x0100\n  exp\n  dup2\n  sload\n  dup2\n  0xff\n  mul\n  not\n  and\n  swap1\n  dup4\n  0xff\n  and\n  mul\n  or\n  swap1\n  sstore\n  pop\n    /* \"cobraBot/Contract.sol\":3757:4136  function addGameLevel(uint256 circleCount, uint256 amountToPay) public onlyOwner {\r... */\n  pop\n  pop\n  jump\t// out\n    /* \"cobraBot/Contract.sol\":3393:3622  function hasAccess(address userAdress) public view returns(bool) {\r... */\ntag_9:\n    /* \"cobraBot/Contract.sol\":3452:3456  bool */\n  0x00\n    /* \"cobraBot/Contract.sol\":3601:3614  contractOwner */\n  0x01\n  dup1\n  sload\n  swap1\n  0x0100\n  exp\n  swap1\n  div\n  0xffffffffffffffffffffffffffffffffffffffff\n  and\n    /* \"cobraBot/Contract.sol\":3587:3614  userAdress == contractOwner */\n  0xffffffffffffffffffffffffffffffffffffffff\n  and\n    /* \"cobraBot/Contract.sol\":3587:3597  userAdress */\n  dup3\n    /* \"cobraBot/Contract.sol\":3587:3614  userAdress == contractOwner */\n  0xffffffffffffffffffffffffffffffffffffffff\n  and\n  eq\n    /* \"cobraBot/Contract.sol\":3580:3614  return userAdress == contractOwner */\n  swap1\n  pop\n    /* \"cobraBot/Contract.sol\":3393:3622  function hasAccess(address userAdress) public view returns(bool) {\r... */\n  swap2\n  swap1\n  pop\n  jump\t// out\n    /* \"#utility.yul\":57:752   */\ntag_18:\n    /* \"#utility.yul\":191:195   */\n  0x40\n    /* \"#utility.yul\":186:189   */\n  dup3\n    /* \"#utility.yul\":182:196   */\n  add\n    /* \"#utility.yul\":222:223   */\n  0x00\n    /* \"#utility.yul\":304:308   */\n  dup1\n    /* \"#utility.yul\":297:302   */\n  dup4\n    /* \"#utility.yul\":293:309   */\n  add\n    /* \"#utility.yul\":287:310   */\n  sload\n    /* \"#utility.yul\":274:310   */\n  swap1\n  pop\n    /* \"#utility.yul\":343:398   */\n  tag_20\n    /* \"#utility.yul\":388:397   */\n  dup2\n    /* \"#utility.yul\":343:398   */\n  tag_21\n  jump\t// in\ntag_20:\n    /* \"#utility.yul\":411:474   */\n  tag_22\n    /* \"#utility.yul\":468:472   */\n  0x00\n    /* \"#utility.yul\":463:466   */\n  dup7\n    /* \"#utility.yul\":459:473   */\n  add\n    /* \"#utility.yul\":445:457   */\n  dup3\n    /* \"#utility.yul\":411:474   */\n  tag_23\n  jump\t// in\ntag_22:\n    /* \"#utility.yul\":233:484   */\n  pop\n    /* \"#utility.yul\":565:569   */\n  0x01\n    /* \"#utility.yul\":558:563   */\n  dup4\n    /* \"#utility.yul\":554:570   */\n  add\n    /* \"#utility.yul\":548:571   */\n  sload\n    /* \"#utility.yul\":535:571   */\n  swap1\n  pop\n    /* \"#utility.yul\":604:659   */\n  tag_24\n    /* \"#utility.yul\":649:658   */\n  dup2\n    /* \"#utility.yul\":604:659   */\n  tag_21\n  jump\t// in\ntag_24:\n    /* \"#utility.yul\":672:735   */\n  tag_25\n    /* \"#utility.yul\":729:733   */\n  0x20\n    /* \"#utility.yul\":724:727   */\n  dup7\n    /* \"#utility.yul\":720:734   */\n  add\n    /* \"#utility.yul\":706:718   */\n  dup3\n    /* \"#utility.yul\":672:735   */\n  tag_23\n  jump\t// in\ntag_25:\n    /* \"#utility.yul\":494:745   */\n  pop\n    /* \"#utility.yul\":160:752   */\n  pop\n  pop\n    /* \"#utility.yul\":57:752   */\n  pop\n  pop\n  jump\t// out\n    /* \"#utility.yul\":758:866   */\ntag_23:\n    /* \"#utility.yul\":835:859   */\n  tag_27\n    /* \"#utility.yul\":853:858   */\n  dup2\n    /* \"#utility.yul\":835:859   */\n  tag_28\n  jump\t// in\ntag_27:\n    /* \"#utility.yul\":830:833   */\n  dup3\n    /* \"#utility.yul\":823:860   */\n  mstore\n    /* \"#utility.yul\":758:866   */\n  pop\n  pop\n  jump\t// out\n    /* \"#utility.yul\":872:1168   */\ntag_13:\n    /* \"#utility.yul\":1002:1006   */\n  0x00\n    /* \"#utility.yul\":1040:1042   */\n  0x40\n    /* \"#utility.yul\":1029:1038   */\n  dup3\n    /* \"#utility.yul\":1025:1043   */\n  add\n    /* \"#utility.yul\":1017:1043   */\n  swap1\n  pop\n    /* \"#utility.yul\":1053:1161   */\n  tag_30\n    /* \"#utility.yul\":1158:1159   */\n  0x00\n    /* \"#utility.yul\":1147:1156   */\n  dup4\n    /* \"#utility.yul\":1143:1160   */\n  add\n    /* \"#utility.yul\":1134:1140   */\n  dup5\n    /* \"#utility.yul\":1053:1161   */\n  tag_18\n  jump\t// in\ntag_30:\n    /* \"#utility.yul\":872:1168   */\n  swap3\n  swap2\n  pop\n  pop\n  jump\t// out\n    /* \"#utility.yul\":1174:1411   */\ntag_15:\n    /* \"#utility.yul\":1212:1215   */\n  0x00\n    /* \"#utility.yul\":1231:1249   */\n  tag_32\n    /* \"#utility.yul\":1247:1248   */\n  dup3\n    /* \"#utility.yul\":1231:1249   */\n  tag_33\n  jump\t// in\ntag_32:\n    /* \"#utility.yul\":1226:1249   */\n  swap2\n  pop\n    /* \"#utility.yul\":1263:1281   */\n  tag_34\n    /* \"#utility.yul\":1279:1280   */\n  dup4\n    /* \"#utility.yul\":1263:1281   */\n  tag_33\n  jump\t// in\ntag_34:\n    /* \"#utility.yul\":1258:1281   */\n  swap3\n  pop\n    /* \"#utility.yul\":1353:1354   */\n  dup3\n    /* \"#utility.yul\":1347:1351   */\n  0xff\n    /* \"#utility.yul\":1343:1355   */\n  sub\n    /* \"#utility.yul\":1340:1341   */\n  dup3\n    /* \"#utility.yul\":1337:1356   */\n  gt\n    /* \"#utility.yul\":1334:1379   */\n  iszero\n  tag_35\n  jumpi\n    /* \"#utility.yul\":1359:1377   */\n  tag_36\n  tag_37\n  jump\t// in\ntag_36:\n    /* \"#utility.yul\":1334:1379   */\ntag_35:\n    /* \"#utility.yul\":1403:1404   */\n  dup3\n    /* \"#utility.yul\":1400:1401   */\n  dup3\n    /* \"#utility.yul\":1396:1405   */\n  add\n    /* \"#utility.yul\":1389:1405   */\n  swap1\n  pop\n    /* \"#utility.yul\":1174:1411   */\n  swap3\n  swap2\n  pop\n  pop\n  jump\t// out\n    /* \"#utility.yul\":1417:1507   */\ntag_38:\n    /* \"#utility.yul\":1467:1474   */\n  0x00\n    /* \"#utility.yul\":1496:1501   */\n  dup2\n    /* \"#utility.yul\":1485:1501   */\n  swap1\n  pop\n    /* \"#utility.yul\":1417:1507   */\n  swap2\n  swap1\n  pop\n  jump\t// out\n    /* \"#utility.yul\":1513:1590   */\ntag_28:\n    /* \"#utility.yul\":1550:1557   */\n  0x00\n    /* \"#utility.yul\":1579:1584   */\n  dup2\n    /* \"#utility.yul\":1568:1584   */\n  swap1\n  pop\n    /* \"#utility.yul\":1513:1590   */\n  swap2\n  swap1\n  pop\n  jump\t// out\n    /* \"#utility.yul\":1596:1682   */\ntag_33:\n    /* \"#utility.yul\":1631:1638   */\n  0x00\n    /* \"#utility.yul\":1671:1675   */\n  0xff\n    /* \"#utility.yul\":1664:1669   */\n  dup3\n    /* \"#utility.yul\":1660:1676   */\n  and\n    /* \"#utility.yul\":1649:1676   */\n  swap1\n  pop\n    /* \"#utility.yul\":1596:1682   */\n  swap2\n  swap1\n  pop\n  jump\t// out\n    /* \"#utility.yul\":1688:1854   */\ntag_21:\n    /* \"#utility.yul\":1757:1762   */\n  0x00\n    /* \"#utility.yul\":1782:1848   */\n  tag_43\n    /* \"#utility.yul\":1813:1847   */\n  tag_44\n    /* \"#utility.yul\":1836:1846   */\n  dup4\n    /* \"#utility.yul\":1813:1847   */\n  tag_45\n  jump\t// in\ntag_44:\n    /* \"#utility.yul\":1782:1848   */\n  tag_38\n  jump\t// in\ntag_43:\n    /* \"#utility.yul\":1773:1848   */\n  swap1\n  pop\n    /* \"#utility.yul\":1688:1854   */\n  swap2\n  swap1\n  pop\n  jump\t// out\n    /* \"#utility.yul\":1860:2040   */\ntag_37:\n    /* \"#utility.yul\":1908:1985   */\n  0x4e487b7100000000000000000000000000000000000000000000000000000000\n    /* \"#utility.yul\":1905:1906   */\n  0x00\n    /* \"#utility.yul\":1898:1986   */\n  mstore\n    /* \"#utility.yul\":2005:2009   */\n  0x11\n    /* \"#utility.yul\":2002:2003   */\n  0x04\n    /* \"#utility.yul\":1995:2010   */\n  mstore\n    /* \"#utility.yul\":2029:2033   */\n  0x24\n    /* \"#utility.yul\":2026:2027   */\n  0x00\n    /* \"#utility.yul\":2019:2034   */\n  revert\n    /* \"#utility.yul\":2046:2148   */\ntag_45:\n    /* \"#utility.yul\":2088:2096   */\n  0x00\n    /* \"#utility.yul\":2135:2140   */\n  dup2\n    /* \"#utility.yul\":2132:2133   */\n  0x00\n    /* \"#utility.yul\":2128:2141   */\n  shr\n    /* \"#utility.yul\":2107:2141   */\n  swap1\n  pop\n    /* \"#utility.yul\":2046:2148   */\n  swap2\n  swap1\n  pop\n  jump\t// out\n    /* \"cobraBot/Contract.sol\":64:8260  contract Pyramid {\r... */\ntag_6:\n  dataSize(sub_0)\n  dup1\n  dataOffset(sub_0)\n  0x00\n  codecopy\n  0x00\n  return\nstop\n\nsub_0: assembly {\n        /* \"cobraBot/Contract.sol\":64:8260  contract Pyramid {\r... */\n      mstore(0x40, 0x80)\n      jumpi(tag_1, lt(calldatasize, 0x04))\n      shr(0xe0, calldataload(0x00))\n      dup1\n      0x7b0d5efa\n      gt\n      tag_17\n      jumpi\n      dup1\n      0x9b0b0ae3\n      gt\n      tag_18\n      jumpi\n      dup1\n      0x9b0b0ae3\n      eq\n      tag_13\n      jumpi\n      dup1\n      0xad39f0a3\n      eq\n      tag_14\n      jumpi\n      dup1\n      0xbd233b91\n      eq\n      tag_15\n      jumpi\n      dup1\n      0xf1060006\n      eq\n      tag_16\n      jumpi\n      jump(tag_2)\n    tag_18:\n      dup1\n      0x7b0d5efa\n      eq\n      tag_10\n      jumpi\n      dup1\n      0x906cbf57\n      eq\n      tag_11\n      jumpi\n      dup1\n      0x95a078e8\n      eq\n      tag_12\n      jumpi\n      jump(tag_2)\n    tag_17:\n      dup1\n      0x2a648c89\n      gt\n      tag_19\n      jumpi\n      dup1\n      0x2a648c89\n      eq\n      tag_6\n      jumpi\n      dup1\n      0x2e8aab9b\n      eq\n      tag_7\n      jumpi\n      dup1\n      0x47734892\n      eq\n      tag_8\n      jumpi\n      dup1\n      0x78a32e21\n      eq\n      tag_9\n      jumpi\n      jump(tag_2)\n    tag_19:\n      dup1\n      0x0173c05b\n      eq\n      tag_3\n      jumpi\n      dup1\n      0x0e50cee5\n      eq\n      tag_4\n      jumpi\n      dup1\n      0x29e99f07\n      eq\n      tag_5\n      jumpi\n      jump(tag_2)\n    tag_1:\n      jumpi(tag_2, calldatasize)\n        /* \"cobraBot/Contract.sol\":2569:2601  _fallback(msg.sender, msg.value) */\n      tag_22\n        /* \"cobraBot/Contract.sol\":2579:2589  msg.sender */\n      caller\n        /* \"cobraBot/Contract.sol\":2591:2600  msg.value */\n      callvalue\n        /* \"cobraBot/Contract.sol\":2569:2578  _fallback */\n      tag_23\n        /* \"cobraBot/Contract.sol\":2569:2601  _fallback(msg.sender, msg.value) */\n      jump\t// in\n    tag_22:\n        /* \"cobraBot/Contract.sol\":64:8260  contract Pyramid {\r... */\n      stop\n    tag_2:\n        /* \"cobraBot/Contract.sol\":2657:2689  _fallback(msg.sender, msg.value) */\n      tag_26\n        /* \"cobraBot/Contract.sol\":2667:2677  msg.sender */\n      caller\n        /* \"cobraBot/Contract.sol\":2679:2688  msg.value */\n      callvalue\n        /* \"cobraBot/Contract.sol\":2657:2666  _fallback */\n      tag_23\n        /* \"cobraBot/Contract.sol\":2657:2689  _fallback(msg.sender, msg.value) */\n      jump\t// in\n    tag_26:\n        /* \"cobraBot/Contract.sol\":64:8260  contract Pyramid {\r... */\n      stop\n        /* \"cobraBot/Contract.sol\":4144:4581  function registerUserToGame(uint256 inviterId) external payable noContractAccess {\r... */\n    tag_3:\n      tag_27\n      0x04\n      dup1\n      calldatasize\n      sub\n      dup2\n      add\n      swap1\n      tag_28\n      swap2\n      swap1\n      tag_29\n      jump\t// in\n    tag_28:\n      tag_30\n      jump\t// in\n    tag_27:\n      stop\n        /* \"cobraBot/Contract.sol\":943:991  mapping (address => User) public registeredUsers */\n    tag_4:\n      callvalue\n      dup1\n      iszero\n      tag_31\n      jumpi\n      0x00\n      dup1\n      revert\n    tag_31:\n      pop\n      tag_32\n      0x04\n      dup1\n      calldatasize\n      sub\n      dup2\n      add\n      swap1\n      tag_33\n      swap2\n      swap1\n      tag_34\n      jump\t// in\n    tag_33:\n      tag_35\n      jump\t// in\n    tag_32:\n      mload(0x40)\n      tag_36\n      swap4\n      swap3\n      swap2\n      swap1\n      tag_37\n      jump\t// in\n    tag_36:\n      mload(0x40)\n      dup1\n      swap2\n      sub\n      swap1\n      return\n        /* \"cobraBot/Contract.sol\":2705:2778  function test(uint a) public returns(uint b) {\r... */\n    tag_5:\n      callvalue\n      dup1\n      iszero\n      tag_38\n      jumpi\n      0x00\n      dup1\n      revert\n    tag_38:\n      pop\n      tag_39\n      0x04\n      dup1\n      calldatasize\n      sub\n      dup2\n      add\n      swap1\n      tag_40\n      swap2\n      swap1\n      tag_29\n      jump\t// in\n    tag_40:\n      tag_41\n      jump\t// in\n    tag_39:\n      mload(0x40)\n      tag_42\n      swap2\n      swap1\n      tag_43\n      jump\t// in\n    tag_42:\n      mload(0x40)\n      dup1\n      swap2\n      sub\n      swap1\n      return\n        /* \"cobraBot/Contract.sol\":1347:1408  mapping (address => mapping (uint8 => bool)) public userGames */\n    tag_6:\n      callvalue\n      dup1\n      iszero\n      tag_44\n      jumpi\n      0x00\n      dup1\n      revert\n    tag_44:\n      pop\n      tag_45\n      0x04\n      dup1\n      calldatasize\n      sub\n      dup2\n      add\n      swap1\n      tag_46\n      swap2\n      swap1\n      tag_47\n      jump\t// in\n    tag_46:\n      tag_48\n      jump\t// in\n    tag_45:\n      mload(0x40)\n      tag_49\n      swap2\n      swap1\n      tag_50\n      jump\t// in\n    tag_49:\n      mload(0x40)\n      dup1\n      swap2\n      sub\n      swap1\n      return\n        /* \"cobraBot/Contract.sol\":4589:4806  function joinToGame(uint8 gameId) public payable onlyRegistered {\r... */\n    tag_7:\n      tag_51\n      0x04\n      dup1\n      calldatasize\n      sub\n      dup2\n      add\n      swap1\n      tag_52\n      swap2\n      swap1\n      tag_53\n      jump\t// in\n    tag_52:\n      tag_54\n      jump\t// in\n    tag_51:\n      stop\n        /* \"cobraBot/Contract.sol\":3630:3749  function getUserBalance(address userAddress) public view returns(uint256) {\r... */\n    tag_8:\n      callvalue\n      dup1\n      iszero\n      tag_55\n      jumpi\n      0x00\n      dup1\n      revert\n    tag_55:\n      pop\n      tag_56\n      0x04\n      dup1\n      calldatasize\n      sub\n      dup2\n      add\n      swap1\n      tag_57\n      swap2\n      swap1\n      tag_34\n      jump\t// in\n    tag_57:\n      tag_58\n      jump\t// in\n    tag_56:\n      mload(0x40)\n      tag_59\n      swap2\n      swap1\n      tag_43\n      jump\t// in\n    tag_59:\n      mload(0x40)\n      dup1\n      swap2\n      sub\n      swap1\n      return\n        /* \"cobraBot/Contract.sol\":1135:1192  mapping (uint8 => mapping (uint256 => User)) public pools */\n    tag_9:\n      callvalue\n      dup1\n      iszero\n      tag_60\n      jumpi\n      0x00\n      dup1\n      revert\n    tag_60:\n      pop\n      tag_61\n      0x04\n      dup1\n      calldatasize\n      sub\n      dup2\n      add\n      swap1\n      tag_62\n      swap2\n      swap1\n      tag_63\n      jump\t// in\n    tag_62:\n      tag_64\n      jump\t// in\n    tag_61:\n      mload(0x40)\n      tag_65\n      swap4\n      swap3\n      swap2\n      swap1\n      tag_37\n      jump\t// in\n    tag_65:\n      mload(0x40)\n      dup1\n      swap2\n      sub\n      swap1\n      return\n        /* \"cobraBot/Contract.sol\":3757:4136  function addGameLevel(uint256 circleCount, uint256 amountToPay) public onlyOwner {\r... */\n    tag_10:\n      callvalue\n      dup1\n      iszero\n      tag_66\n      jumpi\n      0x00\n      dup1\n      revert\n    tag_66:\n      pop\n      tag_67\n      0x04\n      dup1\n      calldatasize\n      sub\n      dup2\n      add\n      swap1\n      tag_68\n      swap2\n      swap1\n      tag_69\n      jump\t// in\n    tag_68:\n      tag_70\n      jump\t// in\n    tag_67:\n      stop\n        /* \"cobraBot/Contract.sol\":795:832  mapping (uint8 => Game) public levels */\n    tag_11:\n      callvalue\n      dup1\n      iszero\n      tag_71\n      jumpi\n      0x00\n      dup1\n      revert\n    tag_71:\n      pop\n      tag_72\n      0x04\n      dup1\n      calldatasize\n      sub\n      dup2\n      add\n      swap1\n      tag_73\n      swap2\n      swap1\n      tag_53\n      jump\t// in\n    tag_73:\n      tag_74\n      jump\t// in\n    tag_72:\n      mload(0x40)\n      tag_75\n      swap3\n      swap2\n      swap1\n      tag_76\n      jump\t// in\n    tag_75:\n      mload(0x40)\n      dup1\n      swap2\n      sub\n      swap1\n      return\n        /* \"cobraBot/Contract.sol\":3393:3622  function hasAccess(address userAdress) public view returns(bool) {\r... */\n    tag_12:\n      callvalue\n      dup1\n      iszero\n      tag_77\n      jumpi\n      0x00\n      dup1\n      revert\n    tag_77:\n      pop\n      tag_78\n      0x04\n      dup1\n      calldatasize\n      sub\n      dup2\n      add\n      swap1\n      tag_79\n      swap2\n      swap1\n      tag_34\n      jump\t// in\n    tag_79:\n      tag_80\n      jump\t// in\n    tag_78:\n      mload(0x40)\n      tag_81\n      swap2\n      swap1\n      tag_50\n      jump\t// in\n    tag_81:\n      mload(0x40)\n      dup1\n      swap2\n      sub\n      swap1\n      return\n        /* \"cobraBot/Contract.sol\":1046:1096  mapping (uint8 => uint256) public currentUserIndex */\n    tag_13:\n      callvalue\n      dup1\n      iszero\n      tag_82\n      jumpi\n      0x00\n      dup1\n      revert\n    tag_82:\n      pop\n      tag_83\n      0x04\n      dup1\n      calldatasize\n      sub\n      dup2\n      add\n      swap1\n      tag_84\n      swap2\n      swap1\n      tag_53\n      jump\t// in\n    tag_84:\n      tag_85\n      jump\t// in\n    tag_83:\n      mload(0x40)\n      tag_86\n      swap2\n      swap1\n      tag_43\n      jump\t// in\n    tag_86:\n      mload(0x40)\n      dup1\n      swap2\n      sub\n      swap1\n      return\n        /* \"cobraBot/Contract.sol\":150:181  uint8 public currentGameIdIndex */\n    tag_14:\n      callvalue\n      dup1\n      iszero\n      tag_87\n      jumpi\n      0x00\n      dup1\n      revert\n    tag_87:\n      pop\n      tag_88\n      tag_89\n      jump\t// in\n    tag_88:\n      mload(0x40)\n      tag_90\n      swap2\n      swap1\n      tag_91\n      jump\t// in\n    tag_90:\n      mload(0x40)\n      dup1\n      swap2\n      sub\n      swap1\n      return\n        /* \"cobraBot/Contract.sol\":856:899  mapping (uint256 => address) public usersId */\n    tag_15:\n      callvalue\n      dup1\n      iszero\n      tag_92\n      jumpi\n      0x00\n      dup1\n      revert\n    tag_92:\n      pop\n      tag_93\n      0x04\n      dup1\n      calldatasize\n      sub\n      dup2\n      add\n      swap1\n      tag_94\n      swap2\n      swap1\n      tag_29\n      jump\t// in\n    tag_94:\n      tag_95\n      jump\t// in\n    tag_93:\n      mload(0x40)\n      tag_96\n      swap2\n      swap1\n      tag_97\n      jump\t// in\n    tag_96:\n      mload(0x40)\n      dup1\n      swap2\n      sub\n      swap1\n      return\n        /* \"cobraBot/Contract.sol\":1234:1301  mapping (address => mapping (uint8 => uint256)) public userPayments */\n    tag_16:\n      callvalue\n      dup1\n      iszero\n      tag_98\n      jumpi\n      0x00\n      dup1\n      revert\n    tag_98:\n      pop\n      tag_99\n      0x04\n      dup1\n      calldatasize\n      sub\n      dup2\n      add\n      swap1\n      tag_100\n      swap2\n      swap1\n      tag_47\n      jump\t// in\n    tag_100:\n      tag_101\n      jump\t// in\n    tag_99:\n      mload(0x40)\n      tag_102\n      swap2\n      swap1\n      tag_43\n      jump\t// in\n    tag_102:\n      mload(0x40)\n      dup1\n      swap2\n      sub\n      swap1\n      return\n        /* \"cobraBot/Contract.sol\":2786:3385  function _fallback(address sender, uint256 value) internal {\r... */\n    tag_23:\n        /* \"cobraBot/Contract.sol\":2997:3009  bool success */\n      0x00\n        /* \"cobraBot/Contract.sol\":3020:3032  uint8 gameId */\n      dup1\n        /* \"cobraBot/Contract.sol\":3050:3061  uint8 index */\n      0x00\n        /* \"cobraBot/Contract.sol\":3045:3278  for (uint8 index; index < currentGameIdIndex+1; index++) {\r... */\n    tag_104:\n        /* \"cobraBot/Contract.sol\":3090:3091  1 */\n      0x01\n        /* \"cobraBot/Contract.sol\":3071:3089  currentGameIdIndex */\n      dup1\n      0x00\n      swap1\n      sload\n      swap1\n      0x0100\n      exp\n      swap1\n      div\n      0xff\n      and\n        /* \"cobraBot/Contract.sol\":3071:3091  currentGameIdIndex+1 */\n      tag_107\n      swap2\n      swap1\n      tag_108\n      jump\t// in\n    tag_107:\n        /* \"cobraBot/Contract.sol\":3063:3091  index < currentGameIdIndex+1 */\n      0xff\n      and\n        /* \"cobraBot/Contract.sol\":3063:3068  index */\n      dup2\n        /* \"cobraBot/Contract.sol\":3063:3091  index < currentGameIdIndex+1 */\n      0xff\n      and\n      lt\n        /* \"cobraBot/Contract.sol\":3045:3278  for (uint8 index; index < currentGameIdIndex+1; index++) {\r... */\n      iszero\n      tag_105\n      jumpi\n        /* \"cobraBot/Contract.sol\":3150:3159  msg.value */\n      callvalue\n        /* \"cobraBot/Contract.sol\":3121:3127  levels */\n      0x02\n        /* \"cobraBot/Contract.sol\":3121:3134  levels[index] */\n      0x00\n        /* \"cobraBot/Contract.sol\":3128:3133  index */\n      dup4\n        /* \"cobraBot/Contract.sol\":3121:3134  levels[index] */\n      0xff\n      and\n      0xff\n      and\n      dup2\n      mstore\n      0x20\n      add\n      swap1\n      dup2\n      mstore\n      0x20\n      add\n      0x00\n      keccak256\n        /* \"cobraBot/Contract.sol\":3121:3146  levels[index].amountToPay */\n      0x01\n      add\n      sload\n        /* \"cobraBot/Contract.sol\":3121:3159  levels[index].amountToPay == msg.value */\n      eq\n        /* \"cobraBot/Contract.sol\":3117:3267  if (levels[index].amountToPay == msg.value) {\r... */\n      iszero\n      tag_109\n      jumpi\n        /* \"cobraBot/Contract.sol\":3190:3194  true */\n      0x01\n        /* \"cobraBot/Contract.sol\":3180:3194  success = true */\n      swap3\n      pop\n        /* \"cobraBot/Contract.sol\":3222:3227  index */\n      dup1\n        /* \"cobraBot/Contract.sol\":3213:3227  gameId = index */\n      swap2\n      pop\n        /* \"cobraBot/Contract.sol\":3246:3251  break */\n      jump(tag_105)\n        /* \"cobraBot/Contract.sol\":3117:3267  if (levels[index].amountToPay == msg.value) {\r... */\n    tag_109:\n        /* \"cobraBot/Contract.sol\":3093:3100  index++ */\n      dup1\n      dup1\n      tag_110\n      swap1\n      tag_111\n      jump\t// in\n    tag_110:\n      swap2\n      pop\n      pop\n        /* \"cobraBot/Contract.sol\":3045:3278  for (uint8 index; index < currentGameIdIndex+1; index++) {\r... */\n      jump(tag_104)\n    tag_105:\n      pop\n        /* \"cobraBot/Contract.sol\":3306:3313  success */\n      dup2\n        /* \"cobraBot/Contract.sol\":3298:3332  require(success, \"Game not found\") */\n      tag_112\n      jumpi\n      mload(0x40)\n      0x08c379a000000000000000000000000000000000000000000000000000000000\n      dup2\n      mstore\n      0x04\n      add\n      tag_113\n      swap1\n      tag_114\n      jump\t// in\n    tag_113:\n      mload(0x40)\n      dup1\n      swap2\n      sub\n      swap1\n      revert\n    tag_112:\n        /* \"cobraBot/Contract.sol\":3343:3377  _joinToGame(gameId, sender, value) */\n      tag_115\n        /* \"cobraBot/Contract.sol\":3355:3361  gameId */\n      dup2\n        /* \"cobraBot/Contract.sol\":3363:3369  sender */\n      dup6\n        /* \"cobraBot/Contract.sol\":3371:3376  value */\n      dup6\n        /* \"cobraBot/Contract.sol\":3343:3354  _joinToGame */\n      tag_116\n        /* \"cobraBot/Contract.sol\":3343:3377  _joinToGame(gameId, sender, value) */\n      jump\t// in\n    tag_115:\n        /* \"cobraBot/Contract.sol\":2845:3385  {\r... */\n      pop\n      pop\n        /* \"cobraBot/Contract.sol\":2786:3385  function _fallback(address sender, uint256 value) internal {\r... */\n      pop\n      pop\n      jump\t// out\n        /* \"cobraBot/Contract.sol\":4144:4581  function registerUserToGame(uint256 inviterId) external payable noContractAccess {\r... */\n    tag_30:\n        /* \"cobraBot/Contract.sol\":1954:1965  uint32 size */\n      0x00\n        /* \"cobraBot/Contract.sol\":1976:1990  address sender */\n      dup1\n        /* \"cobraBot/Contract.sol\":1993:2003  msg.sender */\n      caller\n        /* \"cobraBot/Contract.sol\":1976:2003  address sender = msg.sender */\n      swap1\n      pop\n        /* \"cobraBot/Contract.sol\":2045:2051  sender */\n      dup1\n        /* \"cobraBot/Contract.sol\":2033:2052  extcodesize(sender) */\n      extcodesize\n        /* \"cobraBot/Contract.sol\":2025:2052  size := extcodesize(sender) */\n      swap2\n      pop\n        /* \"cobraBot/Contract.sol\":2083:2084  0 */\n      0x00\n        /* \"cobraBot/Contract.sol\":2076:2080  size */\n      dup3\n        /* \"cobraBot/Contract.sol\":2076:2084  size > 0 */\n      0xffffffff\n      and\n      gt\n        /* \"cobraBot/Contract.sol\":2074:2085  !(size > 0) */\n      iszero\n        /* \"cobraBot/Contract.sol\":2066:2102  require(!(size > 0), \"No contracts\") */\n      tag_118\n      jumpi\n      mload(0x40)\n      0x08c379a000000000000000000000000000000000000000000000000000000000\n      dup2\n      mstore\n      0x04\n      add\n      tag_119\n      swap1\n      tag_120\n      jump\t// in\n    tag_119:\n      mload(0x40)\n      dup1\n      swap2\n      sub\n      swap1\n      revert\n    tag_118:\n        /* \"cobraBot/Contract.sol\":4337:4344  1 ether */\n      0x0de0b6b3a7640000\n        /* \"cobraBot/Contract.sol\":4324:4333  msg.value */\n      callvalue\n        /* \"cobraBot/Contract.sol\":4324:4344  msg.value == 1 ether */\n      eq\n        /* \"cobraBot/Contract.sol\":4315:4389  require (msg.value == 1 ether, \"For regiter in game you need pay 1 ether\") */\n      tag_122\n      jumpi\n      mload(0x40)\n      0x08c379a000000000000000000000000000000000000000000000000000000000\n      dup2\n      mstore\n      0x04\n      add\n      tag_123\n      swap1\n      tag_124\n      jump\t// in\n    tag_123:\n      mload(0x40)\n      dup1\n      swap2\n      sub\n      swap1\n      revert\n    tag_122:\n        /* \"cobraBot/Contract.sol\":4432:4488  User(currentUserIdIndex, payable(msg.sender), inviterId) */\n      mload(0x40)\n      dup1\n      0x60\n      add\n      0x40\n      mstore\n      dup1\n        /* \"cobraBot/Contract.sol\":4437:4455  currentUserIdIndex */\n      sload(0x00)\n        /* \"cobraBot/Contract.sol\":4432:4488  User(currentUserIdIndex, payable(msg.sender), inviterId) */\n      dup2\n      mstore\n      0x20\n      add\n        /* \"cobraBot/Contract.sol\":4465:4475  msg.sender */\n      caller\n        /* \"cobraBot/Contract.sol\":4432:4488  User(currentUserIdIndex, payable(msg.sender), inviterId) */\n      0xffffffffffffffffffffffffffffffffffffffff\n      and\n      dup2\n      mstore\n      0x20\n      add\n        /* \"cobraBot/Contract.sol\":4478:4487  inviterId */\n      dup5\n        /* \"cobraBot/Contract.sol\":4432:4488  User(currentUserIdIndex, payable(msg.sender), inviterId) */\n      dup2\n      mstore\n      pop\n        /* \"cobraBot/Contract.sol\":4402:4417  registeredUsers */\n      0x04\n        /* \"cobraBot/Contract.sol\":4402:4429  registeredUsers[msg.sender] */\n      0x00\n        /* \"cobraBot/Contract.sol\":4418:4428  msg.sender */\n      caller\n        /* \"cobraBot/Contract.sol\":4402:4429  registeredUsers[msg.sender] */\n      0xffffffffffffffffffffffffffffffffffffffff\n      and\n      0xffffffffffffffffffffffffffffffffffffffff\n      and\n      dup2\n      mstore\n      0x20\n      add\n      swap1\n      dup2\n      mstore\n      0x20\n      add\n      0x00\n      keccak256\n        /* \"cobraBot/Contract.sol\":4402:4488  registeredUsers[msg.sender] = User(currentUserIdIndex, payable(msg.sender), inviterId) */\n      0x00\n      dup3\n      add\n      mload\n      dup2\n      0x00\n      add\n      sstore\n      0x20\n      dup3\n      add\n      mload\n      dup2\n      0x01\n      add\n      exp(0x0100, 0x00)\n      dup2\n      sload\n      dup2\n      0xffffffffffffffffffffffffffffffffffffffff\n      mul\n      not\n      and\n      swap1\n      dup4\n      0xffffffffffffffffffffffffffffffffffffffff\n      and\n      mul\n      or\n      swap1\n      sstore\n      pop\n      0x40\n      dup3\n      add\n      mload\n      dup2\n      0x02\n      add\n      sstore\n      swap1\n      pop\n      pop\n        /* \"cobraBot/Contract.sol\":4529:4539  msg.sender */\n      caller\n        /* \"cobraBot/Contract.sol\":4499:4506  usersId */\n      0x03\n        /* \"cobraBot/Contract.sol\":4499:4526  usersId[currentUserIdIndex] */\n      0x00\n        /* \"cobraBot/Contract.sol\":4507:4525  currentUserIdIndex */\n      dup1\n      sload\n        /* \"cobraBot/Contract.sol\":4499:4526  usersId[currentUserIdIndex] */\n      dup2\n      mstore\n      0x20\n      add\n      swap1\n      dup2\n      mstore\n      0x20\n      add\n      0x00\n      keccak256\n      0x00\n        /* \"cobraBot/Contract.sol\":4499:4539  usersId[currentUserIdIndex] = msg.sender */\n      0x0100\n      exp\n      dup2\n      sload\n      dup2\n      0xffffffffffffffffffffffffffffffffffffffff\n      mul\n      not\n      and\n      swap1\n      dup4\n      0xffffffffffffffffffffffffffffffffffffffff\n      and\n      mul\n      or\n      swap1\n      sstore\n      pop\n        /* \"cobraBot/Contract.sol\":4572:4573  1 */\n      0x01\n        /* \"cobraBot/Contract.sol\":4550:4568  currentUserIdIndex */\n      0x00\n      dup1\n        /* \"cobraBot/Contract.sol\":4550:4573  currentUserIdIndex += 1 */\n      dup3\n      dup3\n      sload\n      tag_125\n      swap2\n      swap1\n      tag_126\n      jump\t// in\n    tag_125:\n      swap3\n      pop\n      pop\n      dup2\n      swap1\n      sstore\n      pop\n        /* \"cobraBot/Contract.sol\":1907:2122  {\r... */\n      pop\n      pop\n        /* \"cobraBot/Contract.sol\":4144:4581  function registerUserToGame(uint256 inviterId) external payable noContractAccess {\r... */\n      pop\n      jump\t// out\n        /* \"cobraBot/Contract.sol\":943:991  mapping (address => User) public registeredUsers */\n    tag_35:\n      mstore(0x20, 0x04)\n      dup1\n      0x00\n      mstore\n      keccak256(0x00, 0x40)\n      0x00\n      swap2\n      pop\n      swap1\n      pop\n      dup1\n      0x00\n      add\n      sload\n      swap1\n      dup1\n      0x01\n      add\n      0x00\n      swap1\n      sload\n      swap1\n      0x0100\n      exp\n      swap1\n      div\n      0xffffffffffffffffffffffffffffffffffffffff\n      and\n      swap1\n      dup1\n      0x02\n      add\n      sload\n      swap1\n      pop\n      dup4\n      jump\t// out\n        /* \"cobraBot/Contract.sol\":2705:2778  function test(uint a) public returns(uint b) {\r... */\n    tag_41:\n        /* \"cobraBot/Contract.sol\":2742:2748  uint b */\n      0x00\n        /* \"cobraBot/Contract.sol\":2769:2770  2 */\n      0x02\n        /* \"cobraBot/Contract.sol\":2765:2766  a */\n      dup3\n        /* \"cobraBot/Contract.sol\":2765:2770  a / 2 */\n      tag_128\n      swap2\n      swap1\n      tag_129\n      jump\t// in\n    tag_128:\n        /* \"cobraBot/Contract.sol\":2761:2770  b = a / 2 */\n      swap1\n      pop\n        /* \"cobraBot/Contract.sol\":2705:2778  function test(uint a) public returns(uint b) {\r... */\n      swap2\n      swap1\n      pop\n      jump\t// out\n        /* \"cobraBot/Contract.sol\":1347:1408  mapping (address => mapping (uint8 => bool)) public userGames */\n    tag_48:\n      mstore(0x20, 0x08)\n      dup2\n      0x00\n      mstore\n      mstore(0x20, keccak256(0x00, 0x40))\n      dup1\n      0x00\n      mstore\n      keccak256(0x00, 0x40)\n      0x00\n      swap2\n      pop\n      swap2\n      pop\n      swap1\n      sload\n      swap1\n      0x0100\n      exp\n      swap1\n      div\n      0xff\n      and\n      dup2\n      jump\t// out\n        /* \"cobraBot/Contract.sol\":4589:4806  function joinToGame(uint8 gameId) public payable onlyRegistered {\r... */\n    tag_54:\n        /* \"cobraBot/Contract.sol\":1850:1851  0 */\n      0x00\n        /* \"cobraBot/Contract.sol\":1799:1852  registeredUsers[msg.sender].userAddress != address(0) */\n      0xffffffffffffffffffffffffffffffffffffffff\n      and\n        /* \"cobraBot/Contract.sol\":1799:1814  registeredUsers */\n      0x04\n        /* \"cobraBot/Contract.sol\":1799:1826  registeredUsers[msg.sender] */\n      0x00\n        /* \"cobraBot/Contract.sol\":1815:1825  msg.sender */\n      caller\n        /* \"cobraBot/Contract.sol\":1799:1826  registeredUsers[msg.sender] */\n      0xffffffffffffffffffffffffffffffffffffffff\n      and\n      0xffffffffffffffffffffffffffffffffffffffff\n      and\n      dup2\n      mstore\n      0x20\n      add\n      swap1\n      dup2\n      mstore\n      0x20\n      add\n      0x00\n      keccak256\n        /* \"cobraBot/Contract.sol\":1799:1838  registeredUsers[msg.sender].userAddress */\n      0x01\n      add\n      0x00\n      swap1\n      sload\n      swap1\n      0x0100\n      exp\n      swap1\n      div\n      0xffffffffffffffffffffffffffffffffffffffff\n      and\n        /* \"cobraBot/Contract.sol\":1799:1852  registeredUsers[msg.sender].userAddress != address(0) */\n      0xffffffffffffffffffffffffffffffffffffffff\n      and\n      eq\n      iszero\n        /* \"cobraBot/Contract.sol\":1791:1853  require(registeredUsers[msg.sender].userAddress != address(0)) */\n      tag_131\n      jumpi\n      0x00\n      dup1\n      revert\n    tag_131:\n        /* \"cobraBot/Contract.sol\":4756:4798  _joinToGame(gameId, msg.sender, msg.value) */\n      tag_133\n        /* \"cobraBot/Contract.sol\":4768:4774  gameId */\n      dup2\n        /* \"cobraBot/Contract.sol\":4776:4786  msg.sender */\n      caller\n        /* \"cobraBot/Contract.sol\":4788:4797  msg.value */\n      callvalue\n        /* \"cobraBot/Contract.sol\":4756:4767  _joinToGame */\n      tag_116\n        /* \"cobraBot/Contract.sol\":4756:4798  _joinToGame(gameId, msg.sender, msg.value) */\n      jump\t// in\n    tag_133:\n        /* \"cobraBot/Contract.sol\":4589:4806  function joinToGame(uint8 gameId) public payable onlyRegistered {\r... */\n      pop\n      jump\t// out\n        /* \"cobraBot/Contract.sol\":3630:3749  function getUserBalance(address userAddress) public view returns(uint256) {\r... */\n    tag_58:\n        /* \"cobraBot/Contract.sol\":3695:3702  uint256 */\n      0x00\n        /* \"cobraBot/Contract.sol\":3722:3733  userAddress */\n      dup2\n        /* \"cobraBot/Contract.sol\":3722:3741  userAddress.balance */\n      0xffffffffffffffffffffffffffffffffffffffff\n      and\n      balance\n        /* \"cobraBot/Contract.sol\":3715:3741  return userAddress.balance */\n      swap1\n      pop\n        /* \"cobraBot/Contract.sol\":3630:3749  function getUserBalance(address userAddress) public view returns(uint256) {\r... */\n      swap2\n      swap1\n      pop\n      jump\t// out\n        /* \"cobraBot/Contract.sol\":1135:1192  mapping (uint8 => mapping (uint256 => User)) public pools */\n    tag_64:\n      mstore(0x20, 0x06)\n      dup2\n      0x00\n      mstore\n      mstore(0x20, keccak256(0x00, 0x40))\n      dup1\n      0x00\n      mstore\n      keccak256(0x00, 0x40)\n      0x00\n      swap2\n      pop\n      swap2\n      pop\n      pop\n      dup1\n      0x00\n      add\n      sload\n      swap1\n      dup1\n      0x01\n      add\n      0x00\n      swap1\n      sload\n      swap1\n      0x0100\n      exp\n      swap1\n      div\n      0xffffffffffffffffffffffffffffffffffffffff\n      and\n      swap1\n      dup1\n      0x02\n      add\n      sload\n      swap1\n      pop\n      dup4\n      jump\t// out\n        /* \"cobraBot/Contract.sol\":3757:4136  function addGameLevel(uint256 circleCount, uint256 amountToPay) public onlyOwner {\r... */\n    tag_70:\n        /* \"cobraBot/Contract.sol\":2197:2218  hasAccess(msg.sender) */\n      tag_136\n        /* \"cobraBot/Contract.sol\":2207:2217  msg.sender */\n      caller\n        /* \"cobraBot/Contract.sol\":2197:2206  hasAccess */\n      tag_80\n        /* \"cobraBot/Contract.sol\":2197:2218  hasAccess(msg.sender) */\n      jump\t// in\n    tag_136:\n        /* \"cobraBot/Contract.sol\":2189:2219  require(hasAccess(msg.sender)) */\n      tag_137\n      jumpi\n      0x00\n      dup1\n      revert\n    tag_137:\n        /* \"cobraBot/Contract.sol\":3983:4043  Game({ circleCount: circleCount, amountToPay: amountToPay }) */\n      mload(0x40)\n      dup1\n      0x40\n      add\n      0x40\n      mstore\n      dup1\n        /* \"cobraBot/Contract.sol\":4003:4014  circleCount */\n      dup4\n        /* \"cobraBot/Contract.sol\":3983:4043  Game({ circleCount: circleCount, amountToPay: amountToPay }) */\n      dup2\n      mstore\n      0x20\n      add\n        /* \"cobraBot/Contract.sol\":4029:4040  amountToPay */\n      dup3\n        /* \"cobraBot/Contract.sol\":3983:4043  Game({ circleCount: circleCount, amountToPay: amountToPay }) */\n      dup2\n      mstore\n      pop\n        /* \"cobraBot/Contract.sol\":3954:3960  levels */\n      0x02\n        /* \"cobraBot/Contract.sol\":3954:3980  levels[currentGameIdIndex] */\n      0x00\n        /* \"cobraBot/Contract.sol\":3961:3979  currentGameIdIndex */\n      0x01\n      0x00\n      swap1\n      sload\n      swap1\n      0x0100\n      exp\n      swap1\n      div\n      0xff\n      and\n        /* \"cobraBot/Contract.sol\":3954:3980  levels[currentGameIdIndex] */\n      0xff\n      and\n      0xff\n      and\n      dup2\n      mstore\n      0x20\n      add\n      swap1\n      dup2\n      mstore\n      0x20\n      add\n      0x00\n      keccak256\n        /* \"cobraBot/Contract.sol\":3954:4043  levels[currentGameIdIndex] = Game({ circleCount: circleCount, amountToPay: amountToPay }) */\n      0x00\n      dup3\n      add\n      mload\n      dup2\n      0x00\n      add\n      sstore\n      0x20\n      dup3\n      add\n      mload\n      dup2\n      0x01\n      add\n      sstore\n      swap1\n      pop\n      pop\n        /* \"cobraBot/Contract.sol\":4059:4094  NewGame(levels[currentGameIdIndex]) */\n      0x954900f0fb49268c265d1bafbfbf6c060c8b41cdb6b0bcaa575389d650b5e374\n        /* \"cobraBot/Contract.sol\":4067:4073  levels */\n      0x02\n        /* \"cobraBot/Contract.sol\":4067:4093  levels[currentGameIdIndex] */\n      0x00\n        /* \"cobraBot/Contract.sol\":4074:4092  currentGameIdIndex */\n      0x01\n      0x00\n      swap1\n      sload\n      swap1\n      0x0100\n      exp\n      swap1\n      div\n      0xff\n      and\n        /* \"cobraBot/Contract.sol\":4067:4093  levels[currentGameIdIndex] */\n      0xff\n      and\n      0xff\n      and\n      dup2\n      mstore\n      0x20\n      add\n      swap1\n      dup2\n      mstore\n      0x20\n      add\n      0x00\n      keccak256\n        /* \"cobraBot/Contract.sol\":4059:4094  NewGame(levels[currentGameIdIndex]) */\n      mload(0x40)\n      tag_139\n      swap2\n      swap1\n      tag_140\n      jump\t// in\n    tag_139:\n      mload(0x40)\n      dup1\n      swap2\n      sub\n      swap1\n      log1\n        /* \"cobraBot/Contract.sol\":4127:4128  1 */\n      0x01\n        /* \"cobraBot/Contract.sol\":4105:4123  currentGameIdIndex */\n      dup1\n      0x00\n        /* \"cobraBot/Contract.sol\":4105:4128  currentGameIdIndex += 1 */\n      dup3\n      dup3\n      dup3\n      swap1\n      sload\n      swap1\n      0x0100\n      exp\n      swap1\n      div\n      0xff\n      and\n      tag_141\n      swap2\n      swap1\n      tag_108\n      jump\t// in\n    tag_141:\n      swap3\n      pop\n      0x0100\n      exp\n      dup2\n      sload\n      dup2\n      0xff\n      mul\n      not\n      and\n      swap1\n      dup4\n      0xff\n      and\n      mul\n      or\n      swap1\n      sstore\n      pop\n        /* \"cobraBot/Contract.sol\":3757:4136  function addGameLevel(uint256 circleCount, uint256 amountToPay) public onlyOwner {\r... */\n      pop\n      pop\n      jump\t// out\n        /* \"cobraBot/Contract.sol\":795:832  mapping (uint8 => Game) public levels */\n    tag_74:\n      mstore(0x20, 0x02)\n      dup1\n      0x00\n      mstore\n      keccak256(0x00, 0x40)\n      0x00\n      swap2\n      pop\n      swap1\n      pop\n      dup1\n      0x00\n      add\n      sload\n      swap1\n      dup1\n      0x01\n      add\n      sload\n      swap1\n      pop\n      dup3\n      jump\t// out\n        /* \"cobraBot/Contract.sol\":3393:3622  function hasAccess(address userAdress) public view returns(bool) {\r... */\n    tag_80:\n        /* \"cobraBot/Contract.sol\":3452:3456  bool */\n      0x00\n        /* \"cobraBot/Contract.sol\":3601:3614  contractOwner */\n      0x01\n      dup1\n      sload\n      swap1\n      0x0100\n      exp\n      swap1\n      div\n      0xffffffffffffffffffffffffffffffffffffffff\n      and\n        /* \"cobraBot/Contract.sol\":3587:3614  userAdress == contractOwner */\n      0xffffffffffffffffffffffffffffffffffffffff\n      and\n        /* \"cobraBot/Contract.sol\":3587:3597  userAdress */\n      dup3\n        /* \"cobraBot/Contract.sol\":3587:3614  userAdress == contractOwner */\n      0xffffffffffffffffffffffffffffffffffffffff\n      and\n      eq\n        /* \"cobraBot/Contract.sol\":3580:3614  return userAdress == contractOwner */\n      swap1\n      pop\n        /* \"cobraBot/Contract.sol\":3393:3622  function hasAccess(address userAdress) public view returns(bool) {\r... */\n      swap2\n      swap1\n      pop\n      jump\t// out\n        /* \"cobraBot/Contract.sol\":1046:1096  mapping (uint8 => uint256) public currentUserIndex */\n    tag_85:\n      mstore(0x20, 0x05)\n      dup1\n      0x00\n      mstore\n      keccak256(0x00, 0x40)\n      0x00\n      swap2\n      pop\n      swap1\n      pop\n      sload\n      dup2\n      jump\t// out\n        /* \"cobraBot/Contract.sol\":150:181  uint8 public currentGameIdIndex */\n    tag_89:\n      0x01\n      0x00\n      swap1\n      sload\n      swap1\n      0x0100\n      exp\n      swap1\n      div\n      0xff\n      and\n      dup2\n      jump\t// out\n        /* \"cobraBot/Contract.sol\":856:899  mapping (uint256 => address) public usersId */\n    tag_95:\n      mstore(0x20, 0x03)\n      dup1\n      0x00\n      mstore\n      keccak256(0x00, 0x40)\n      0x00\n      swap2\n      pop\n      sload\n      swap1\n      0x0100\n      exp\n      swap1\n      div\n      0xffffffffffffffffffffffffffffffffffffffff\n      and\n      dup2\n      jump\t// out\n        /* \"cobraBot/Contract.sol\":1234:1301  mapping (address => mapping (uint8 => uint256)) public userPayments */\n    tag_101:\n      mstore(0x20, 0x07)\n      dup2\n      0x00\n      mstore\n      mstore(0x20, keccak256(0x00, 0x40))\n      dup1\n      0x00\n      mstore\n      keccak256(0x00, 0x40)\n      0x00\n      swap2\n      pop\n      swap2\n      pop\n      pop\n      sload\n      dup2\n      jump\t// out\n        /* \"cobraBot/Contract.sol\":4814:8257  function _joinToGame(uint8 gameId, address sender, uint256 value) internal {\r... */\n    tag_116:\n        /* \"cobraBot/Contract.sol\":4918:4924  levels */\n      0x02\n        /* \"cobraBot/Contract.sol\":4918:4932  levels[gameId] */\n      0x00\n        /* \"cobraBot/Contract.sol\":4925:4931  gameId */\n      dup5\n        /* \"cobraBot/Contract.sol\":4918:4932  levels[gameId] */\n      0xff\n      and\n      0xff\n      and\n      dup2\n      mstore\n      0x20\n      add\n      swap1\n      dup2\n      mstore\n      0x20\n      add\n      0x00\n      keccak256\n        /* \"cobraBot/Contract.sol\":4918:4944  levels[gameId].amountToPay */\n      0x01\n      add\n      sload\n        /* \"cobraBot/Contract.sol\":4909:4914  value */\n      dup2\n        /* \"cobraBot/Contract.sol\":4909:4944  value >= levels[gameId].amountToPay */\n      lt\n      iszero\n        /* \"cobraBot/Contract.sol\":4900:4984  require (value >= levels[gameId].amountToPay, \"Insufficient amount of contribution\") */\n      tag_144\n      jumpi\n      mload(0x40)\n      0x08c379a000000000000000000000000000000000000000000000000000000000\n      dup2\n      mstore\n      0x04\n      add\n      tag_145\n      swap1\n      tag_146\n      jump\t// in\n    tag_145:\n      mload(0x40)\n      dup1\n      swap2\n      sub\n      swap1\n      revert\n    tag_144:\n        /* \"cobraBot/Contract.sol\":5161:5176  registeredUsers */\n      0x04\n        /* \"cobraBot/Contract.sol\":5161:5184  registeredUsers[sender] */\n      0x00\n        /* \"cobraBot/Contract.sol\":5177:5183  sender */\n      dup4\n        /* \"cobraBot/Contract.sol\":5161:5184  registeredUsers[sender] */\n      0xffffffffffffffffffffffffffffffffffffffff\n      and\n      0xffffffffffffffffffffffffffffffffffffffff\n      and\n      dup2\n      mstore\n      0x20\n      add\n      swap1\n      dup2\n      mstore\n      0x20\n      add\n      0x00\n      keccak256\n        /* \"cobraBot/Contract.sol\":5119:5124  pools */\n      0x06\n        /* \"cobraBot/Contract.sol\":5119:5132  pools[gameId] */\n      0x00\n        /* \"cobraBot/Contract.sol\":5125:5131  gameId */\n      dup6\n        /* \"cobraBot/Contract.sol\":5119:5132  pools[gameId] */\n      0xff\n      and\n      0xff\n      and\n      dup2\n      mstore\n      0x20\n      add\n      swap1\n      dup2\n      mstore\n      0x20\n      add\n      0x00\n      keccak256\n        /* \"cobraBot/Contract.sol\":5119:5158  pools[gameId][currentUserIndex[gameId]] */\n      0x00\n        /* \"cobraBot/Contract.sol\":5133:5149  currentUserIndex */\n      0x05\n        /* \"cobraBot/Contract.sol\":5133:5157  currentUserIndex[gameId] */\n      0x00\n        /* \"cobraBot/Contract.sol\":5150:5156  gameId */\n      dup8\n        /* \"cobraBot/Contract.sol\":5133:5157  currentUserIndex[gameId] */\n      0xff\n      and\n      0xff\n      and\n      dup2\n      mstore\n      0x20\n      add\n      swap1\n      dup2\n      mstore\n      0x20\n      add\n      0x00\n      keccak256\n      sload\n        /* \"cobraBot/Contract.sol\":5119:5158  pools[gameId][currentUserIndex[gameId]] */\n      dup2\n      mstore\n      0x20\n      add\n      swap1\n      dup2\n      mstore\n      0x20\n      add\n      0x00\n      keccak256\n        /* \"cobraBot/Contract.sol\":5119:5184  pools[gameId][currentUserIndex[gameId]] = registeredUsers[sender] */\n      0x00\n      dup3\n      add\n      sload\n      dup2\n      0x00\n      add\n      sstore\n      0x01\n      dup3\n      add\n      0x00\n      swap1\n      sload\n      swap1\n      0x0100\n      exp\n      swap1\n      div\n      0xffffffffffffffffffffffffffffffffffffffff\n      and\n      dup2\n      0x01\n      add\n      exp(0x0100, 0x00)\n      dup2\n      sload\n      dup2\n      0xffffffffffffffffffffffffffffffffffffffff\n      mul\n      not\n      and\n      swap1\n      dup4\n      0xffffffffffffffffffffffffffffffffffffffff\n      and\n      mul\n      or\n      swap1\n      sstore\n      pop\n      0x02\n      dup3\n      add\n      sload\n      dup2\n      0x02\n      add\n      sstore\n      swap1\n      pop\n      pop\n        /* \"cobraBot/Contract.sol\":5223:5224  1 */\n      0x01\n        /* \"cobraBot/Contract.sol\":5195:5211  currentUserIndex */\n      0x05\n        /* \"cobraBot/Contract.sol\":5195:5219  currentUserIndex[gameId] */\n      0x00\n        /* \"cobraBot/Contract.sol\":5212:5218  gameId */\n      dup6\n        /* \"cobraBot/Contract.sol\":5195:5219  currentUserIndex[gameId] */\n      0xff\n      and\n      0xff\n      and\n      dup2\n      mstore\n      0x20\n      add\n      swap1\n      dup2\n      mstore\n      0x20\n      add\n      0x00\n      keccak256\n      0x00\n        /* \"cobraBot/Contract.sol\":5195:5224  currentUserIndex[gameId] += 1 */\n      dup3\n      dup3\n      sload\n      tag_147\n      swap2\n      swap1\n      tag_126\n      jump\t// in\n    tag_147:\n      swap3\n      pop\n      pop\n      dup2\n      swap1\n      sstore\n      pop\n        /* \"cobraBot/Contract.sol\":5263:5267  true */\n      0x01\n        /* \"cobraBot/Contract.sol\":5235:5244  userGames */\n      0x08\n        /* \"cobraBot/Contract.sol\":5235:5252  userGames[sender] */\n      0x00\n        /* \"cobraBot/Contract.sol\":5245:5251  sender */\n      dup5\n        /* \"cobraBot/Contract.sol\":5235:5252  userGames[sender] */\n      0xffffffffffffffffffffffffffffffffffffffff\n      and\n      0xffffffffffffffffffffffffffffffffffffffff\n      and\n      dup2\n      mstore\n      0x20\n      add\n      swap1\n      dup2\n      mstore\n      0x20\n      add\n      0x00\n      keccak256\n        /* \"cobraBot/Contract.sol\":5235:5260  userGames[sender][gameId] */\n      0x00\n        /* \"cobraBot/Contract.sol\":5253:5259  gameId */\n      dup6\n        /* \"cobraBot/Contract.sol\":5235:5260  userGames[sender][gameId] */\n      0xff\n      and\n      0xff\n      and\n      dup2\n      mstore\n      0x20\n      add\n      swap1\n      dup2\n      mstore\n      0x20\n      add\n      0x00\n      keccak256\n      0x00\n        /* \"cobraBot/Contract.sol\":5235:5267  userGames[sender][gameId] = true */\n      0x0100\n      exp\n      dup2\n      sload\n      dup2\n      0xff\n      mul\n      not\n      and\n      swap1\n      dup4\n      iszero\n      iszero\n      mul\n      or\n      swap1\n      sstore\n      pop\n        /* \"cobraBot/Contract.sol\":5411:5412  3 */\n      0x03\n        /* \"cobraBot/Contract.sol\":5383:5399  currentUserIndex */\n      0x05\n        /* \"cobraBot/Contract.sol\":5383:5407  currentUserIndex[gameId] */\n      0x00\n        /* \"cobraBot/Contract.sol\":5400:5406  gameId */\n      dup6\n        /* \"cobraBot/Contract.sol\":5383:5407  currentUserIndex[gameId] */\n      0xff\n      and\n      0xff\n      and\n      dup2\n      mstore\n      0x20\n      add\n      swap1\n      dup2\n      mstore\n      0x20\n      add\n      0x00\n      keccak256\n      sload\n        /* \"cobraBot/Contract.sol\":5383:5412  currentUserIndex[gameId] >= 3 */\n      lt\n        /* \"cobraBot/Contract.sol\":5379:8250  if (currentUserIndex[gameId] >= 3) {\r... */\n      tag_148\n      jumpi\n        /* \"cobraBot/Contract.sol\":5429:5446  uint256 userIndex */\n      0x00\n        /* \"cobraBot/Contract.sol\":5476:5477  2 */\n      0x02\n        /* \"cobraBot/Contract.sol\":5449:5465  currentUserIndex */\n      0x05\n        /* \"cobraBot/Contract.sol\":5449:5473  currentUserIndex[gameId] */\n      0x00\n        /* \"cobraBot/Contract.sol\":5466:5472  gameId */\n      dup7\n        /* \"cobraBot/Contract.sol\":5449:5473  currentUserIndex[gameId] */\n      0xff\n      and\n      0xff\n      and\n      dup2\n      mstore\n      0x20\n      add\n      swap1\n      dup2\n      mstore\n      0x20\n      add\n      0x00\n      keccak256\n      sload\n        /* \"cobraBot/Contract.sol\":5449:5477  currentUserIndex[gameId] / 2 */\n      tag_149\n      swap2\n      swap1\n      tag_129\n      jump\t// in\n    tag_149:\n        /* \"cobraBot/Contract.sol\":5429:5477  uint256 userIndex = currentUserIndex[gameId] / 2 */\n      swap1\n      pop\n        /* \"cobraBot/Contract.sol\":5494:8239  do {\r... */\n    tag_150:\n        /* \"cobraBot/Contract.sol\":5516:5539  address selectedAddress */\n      0x00\n        /* \"cobraBot/Contract.sol\":5542:5547  pools */\n      0x06\n        /* \"cobraBot/Contract.sol\":5542:5555  pools[gameId] */\n      0x00\n        /* \"cobraBot/Contract.sol\":5548:5554  gameId */\n      dup7\n        /* \"cobraBot/Contract.sol\":5542:5555  pools[gameId] */\n      0xff\n      and\n      0xff\n      and\n      dup2\n      mstore\n      0x20\n      add\n      swap1\n      dup2\n      mstore\n      0x20\n      add\n      0x00\n      keccak256\n        /* \"cobraBot/Contract.sol\":5542:5566  pools[gameId][userIndex] */\n      0x00\n        /* \"cobraBot/Contract.sol\":5556:5565  userIndex */\n      dup4\n        /* \"cobraBot/Contract.sol\":5542:5566  pools[gameId][userIndex] */\n      dup2\n      mstore\n      0x20\n      add\n      swap1\n      dup2\n      mstore\n      0x20\n      add\n      0x00\n      keccak256\n        /* \"cobraBot/Contract.sol\":5542:5578  pools[gameId][userIndex].userAddress */\n      0x01\n      add\n      0x00\n      swap1\n      sload\n      swap1\n      0x0100\n      exp\n      swap1\n      div\n      0xffffffffffffffffffffffffffffffffffffffff\n      and\n        /* \"cobraBot/Contract.sol\":5516:5578  address selectedAddress = pools[gameId][userIndex].userAddress */\n      swap1\n      pop\n        /* \"cobraBot/Contract.sol\":5784:5785  1 */\n      0x01\n        /* \"cobraBot/Contract.sol\":5743:5755  userPayments */\n      0x07\n        /* \"cobraBot/Contract.sol\":5743:5772  userPayments[selectedAddress] */\n      0x00\n        /* \"cobraBot/Contract.sol\":5756:5771  selectedAddress */\n      dup4\n        /* \"cobraBot/Contract.sol\":5743:5772  userPayments[selectedAddress] */\n      0xffffffffffffffffffffffffffffffffffffffff\n      and\n      0xffffffffffffffffffffffffffffffffffffffff\n      and\n      dup2\n      mstore\n      0x20\n      add\n      swap1\n      dup2\n      mstore\n      0x20\n      add\n      0x00\n      keccak256\n        /* \"cobraBot/Contract.sol\":5743:5780  userPayments[selectedAddress][gameId] */\n      0x00\n        /* \"cobraBot/Contract.sol\":5773:5779  gameId */\n      dup8\n        /* \"cobraBot/Contract.sol\":5743:5780  userPayments[selectedAddress][gameId] */\n      0xff\n      and\n      0xff\n      and\n      dup2\n      mstore\n      0x20\n      add\n      swap1\n      dup2\n      mstore\n      0x20\n      add\n      0x00\n      keccak256\n      sload\n        /* \"cobraBot/Contract.sol\":5743:5785  userPayments[selectedAddress][gameId] <= 1 */\n      gt\n      iszero\n        /* \"cobraBot/Contract.sol\":5743:5825  userPayments[selectedAddress][gameId] <= 1 || userGames[selectedAddress][gameId+1] */\n      dup1\n      tag_153\n      jumpi\n      pop\n        /* \"cobraBot/Contract.sol\":5789:5798  userGames */\n      0x08\n        /* \"cobraBot/Contract.sol\":5789:5815  userGames[selectedAddress] */\n      0x00\n        /* \"cobraBot/Contract.sol\":5799:5814  selectedAddress */\n      dup3\n        /* \"cobraBot/Contract.sol\":5789:5815  userGames[selectedAddress] */\n      0xffffffffffffffffffffffffffffffffffffffff\n      and\n      0xffffffffffffffffffffffffffffffffffffffff\n      and\n      dup2\n      mstore\n      0x20\n      add\n      swap1\n      dup2\n      mstore\n      0x20\n      add\n      0x00\n      keccak256\n        /* \"cobraBot/Contract.sol\":5789:5825  userGames[selectedAddress][gameId+1] */\n      0x00\n        /* \"cobraBot/Contract.sol\":5823:5824  1 */\n      0x01\n        /* \"cobraBot/Contract.sol\":5816:5822  gameId */\n      dup8\n        /* \"cobraBot/Contract.sol\":5816:5824  gameId+1 */\n      tag_154\n      swap2\n      swap1\n      tag_108\n      jump\t// in\n    tag_154:\n        /* \"cobraBot/Contract.sol\":5789:5825  userGames[selectedAddress][gameId+1] */\n      0xff\n      and\n      0xff\n      and\n      dup2\n      mstore\n      0x20\n      add\n      swap1\n      dup2\n      mstore\n      0x20\n      add\n      0x00\n      keccak256\n      0x00\n      swap1\n      sload\n      swap1\n      0x0100\n      exp\n      swap1\n      div\n      0xff\n      and\n        /* \"cobraBot/Contract.sol\":5743:5825  userPayments[selectedAddress][gameId] <= 1 || userGames[selectedAddress][gameId+1] */\n    tag_153:\n        /* \"cobraBot/Contract.sol\":5739:8200  if (userPayments[selectedAddress][gameId] <= 1 || userGames[selectedAddress][gameId+1]) {\r... */\n      iszero\n      tag_155\n      jumpi\n        /* \"cobraBot/Contract.sol\":6027:6039  bool success */\n      0x00\n        /* \"cobraBot/Contract.sol\":6045:6060  selectedAddress */\n      dup2\n        /* \"cobraBot/Contract.sol\":6045:6065  selectedAddress.call */\n      0xffffffffffffffffffffffffffffffffffffffff\n      and\n        /* \"cobraBot/Contract.sol\":6114:6117  100 */\n      0x64\n        /* \"cobraBot/Contract.sol\":270:272  74 */\n      0x4a\n        /* \"cobraBot/Contract.sol\":6073:6079  levels */\n      0x02\n        /* \"cobraBot/Contract.sol\":6073:6087  levels[gameId] */\n      0x00\n        /* \"cobraBot/Contract.sol\":6080:6086  gameId */\n      dup11\n        /* \"cobraBot/Contract.sol\":6073:6087  levels[gameId] */\n      0xff\n      and\n      0xff\n      and\n      dup2\n      mstore\n      0x20\n      add\n      swap1\n      dup2\n      mstore\n      0x20\n      add\n      0x00\n      keccak256\n        /* \"cobraBot/Contract.sol\":6073:6099  levels[gameId].amountToPay */\n      0x01\n      add\n      sload\n        /* \"cobraBot/Contract.sol\":6073:6111  levels[gameId].amountToPay * baseAward */\n      tag_156\n      swap2\n      swap1\n      tag_157\n      jump\t// in\n    tag_156:\n        /* \"cobraBot/Contract.sol\":6073:6117  levels[gameId].amountToPay * baseAward / 100 */\n      tag_158\n      swap2\n      swap1\n      tag_129\n      jump\t// in\n    tag_158:\n        /* \"cobraBot/Contract.sol\":6045:6122  selectedAddress.call{value: levels[gameId].amountToPay * baseAward / 100}(\"\") */\n      mload(0x40)\n      tag_159\n      swap1\n      tag_160\n      jump\t// in\n    tag_159:\n      0x00\n      mload(0x40)\n      dup1\n      dup4\n      sub\n      dup2\n      dup6\n      dup8\n      gas\n      call\n      swap3\n      pop\n      pop\n      pop\n      returndatasize\n      dup1\n      0x00\n      dup2\n      eq\n      tag_163\n      jumpi\n      mload(0x40)\n      swap2\n      pop\n      and(add(returndatasize, 0x3f), not(0x1f))\n      dup3\n      add\n      0x40\n      mstore\n      returndatasize\n      dup3\n      mstore\n      returndatasize\n      0x00\n      0x20\n      dup5\n      add\n      returndatacopy\n      jump(tag_162)\n    tag_163:\n      0x60\n      swap2\n      pop\n    tag_162:\n      pop\n        /* \"cobraBot/Contract.sol\":6026:6122  (bool success, ) = selectedAddress.call{value: levels[gameId].amountToPay * baseAward / 100}(\"\") */\n      pop\n      swap1\n      pop\n        /* \"cobraBot/Contract.sol\":6186:6187  1 */\n      0x01\n        /* \"cobraBot/Contract.sol\":6145:6157  userPayments */\n      0x07\n        /* \"cobraBot/Contract.sol\":6145:6174  userPayments[selectedAddress] */\n      0x00\n        /* \"cobraBot/Contract.sol\":6158:6173  selectedAddress */\n      dup5\n        /* \"cobraBot/Contract.sol\":6145:6174  userPayments[selectedAddress] */\n      0xffffffffffffffffffffffffffffffffffffffff\n      and\n      0xffffffffffffffffffffffffffffffffffffffff\n      and\n      dup2\n      mstore\n      0x20\n      add\n      swap1\n      dup2\n      mstore\n      0x20\n      add\n      0x00\n      keccak256\n        /* \"cobraBot/Contract.sol\":6145:6182  userPayments[selectedAddress][gameId] */\n      0x00\n        /* \"cobraBot/Contract.sol\":6175:6181  gameId */\n      dup9\n        /* \"cobraBot/Contract.sol\":6145:6182  userPayments[selectedAddress][gameId] */\n      0xff\n      and\n      0xff\n      and\n      dup2\n      mstore\n      0x20\n      add\n      swap1\n      dup2\n      mstore\n      0x20\n      add\n      0x00\n      keccak256\n      0x00\n        /* \"cobraBot/Contract.sol\":6145:6187  userPayments[selectedAddress][gameId] += 1 */\n      dup3\n      dup3\n      sload\n      tag_164\n      swap2\n      swap1\n      tag_126\n      jump\t// in\n    tag_164:\n      swap3\n      pop\n      pop\n      dup2\n      swap1\n      sstore\n      pop\n        /* \"cobraBot/Contract.sol\":6269:6327  GamePaymentEvent(levels[gameId], selectedAddress, success) */\n      0x48926dbe5ddf41609856a5a4f394bd85410dfcedaa2cfefb48bbb3bbab8b6be7\n        /* \"cobraBot/Contract.sol\":6286:6292  levels */\n      0x02\n        /* \"cobraBot/Contract.sol\":6286:6300  levels[gameId] */\n      0x00\n        /* \"cobraBot/Contract.sol\":6293:6299  gameId */\n      dup9\n        /* \"cobraBot/Contract.sol\":6286:6300  levels[gameId] */\n      0xff\n      and\n      0xff\n      and\n      dup2\n      mstore\n      0x20\n      add\n      swap1\n      dup2\n      mstore\n      0x20\n      add\n      0x00\n      keccak256\n        /* \"cobraBot/Contract.sol\":6302:6317  selectedAddress */\n      dup4\n        /* \"cobraBot/Contract.sol\":6319:6326  success */\n      dup4\n        /* \"cobraBot/Contract.sol\":6269:6327  GamePaymentEvent(levels[gameId], selectedAddress, success) */\n      mload(0x40)\n      tag_165\n      swap4\n      swap3\n      swap2\n      swap1\n      tag_166\n      jump\t// in\n    tag_165:\n      mload(0x40)\n      dup1\n      swap2\n      sub\n      swap1\n      log1\n        /* \"cobraBot/Contract.sol\":6352:6366  uint256 userId */\n      0x00\n        /* \"cobraBot/Contract.sol\":6369:6374  pools */\n      0x06\n        /* \"cobraBot/Contract.sol\":6369:6382  pools[gameId] */\n      0x00\n        /* \"cobraBot/Contract.sol\":6375:6381  gameId */\n      dup9\n        /* \"cobraBot/Contract.sol\":6369:6382  pools[gameId] */\n      0xff\n      and\n      0xff\n      and\n      dup2\n      mstore\n      0x20\n      add\n      swap1\n      dup2\n      mstore\n      0x20\n      add\n      0x00\n      keccak256\n        /* \"cobraBot/Contract.sol\":6369:6393  pools[gameId][userIndex] */\n      0x00\n        /* \"cobraBot/Contract.sol\":6383:6392  userIndex */\n      dup6\n        /* \"cobraBot/Contract.sol\":6369:6393  pools[gameId][userIndex] */\n      dup2\n      mstore\n      0x20\n      add\n      swap1\n      dup2\n      mstore\n      0x20\n      add\n      0x00\n      keccak256\n        /* \"cobraBot/Contract.sol\":6369:6400  pools[gameId][userIndex].userId */\n      0x00\n      add\n      sload\n        /* \"cobraBot/Contract.sol\":6352:6400  uint256 userId = pools[gameId][userIndex].userId */\n      swap1\n      pop\n        /* \"cobraBot/Contract.sol\":6452:6469  uint256 invitedId */\n      0x00\n        /* \"cobraBot/Contract.sol\":6472:6477  pools */\n      0x06\n        /* \"cobraBot/Contract.sol\":6472:6485  pools[gameId] */\n      0x00\n        /* \"cobraBot/Contract.sol\":6478:6484  gameId */\n      dup10\n        /* \"cobraBot/Contract.sol\":6472:6485  pools[gameId] */\n      0xff\n      and\n      0xff\n      and\n      dup2\n      mstore\n      0x20\n      add\n      swap1\n      dup2\n      mstore\n      0x20\n      add\n      0x00\n      keccak256\n        /* \"cobraBot/Contract.sol\":6472:6496  pools[gameId][userIndex] */\n      0x00\n        /* \"cobraBot/Contract.sol\":6486:6495  userIndex */\n      dup7\n        /* \"cobraBot/Contract.sol\":6472:6496  pools[gameId][userIndex] */\n      dup2\n      mstore\n      0x20\n      add\n      swap1\n      dup2\n      mstore\n      0x20\n      add\n      0x00\n      keccak256\n        /* \"cobraBot/Contract.sol\":6472:6506  pools[gameId][userIndex].invitedId */\n      0x02\n      add\n      sload\n        /* \"cobraBot/Contract.sol\":6452:6506  uint256 invitedId = pools[gameId][userIndex].invitedId */\n      swap1\n      pop\n        /* \"cobraBot/Contract.sol\":6566:6579  uint refValue */\n      0x00\n        /* \"cobraBot/Contract.sol\":6631:6634  100 */\n      0x64\n        /* \"cobraBot/Contract.sol\":333:335  10 */\n      0x0a\n        /* \"cobraBot/Contract.sol\":6582:6588  levels */\n      0x02\n        /* \"cobraBot/Contract.sol\":6582:6596  levels[gameId] */\n      0x00\n        /* \"cobraBot/Contract.sol\":6589:6595  gameId */\n      dup13\n        /* \"cobraBot/Contract.sol\":6582:6596  levels[gameId] */\n      0xff\n      and\n      0xff\n      and\n      dup2\n      mstore\n      0x20\n      add\n      swap1\n      dup2\n      mstore\n      0x20\n      add\n      0x00\n      keccak256\n        /* \"cobraBot/Contract.sol\":6582:6608  levels[gameId].amountToPay */\n      0x01\n      add\n      sload\n        /* \"cobraBot/Contract.sol\":6582:6628  levels[gameId].amountToPay * firstLevelReferal */\n      tag_167\n      swap2\n      swap1\n      tag_157\n      jump\t// in\n    tag_167:\n        /* \"cobraBot/Contract.sol\":6582:6634  levels[gameId].amountToPay * firstLevelReferal / 100 */\n      tag_168\n      swap2\n      swap1\n      tag_129\n      jump\t// in\n    tag_168:\n        /* \"cobraBot/Contract.sol\":6566:6634  uint refValue = levels[gameId].amountToPay * firstLevelReferal / 100 */\n      swap1\n      pop\n        /* \"cobraBot/Contract.sol\":6696:6703  usersId */\n      0x03\n        /* \"cobraBot/Contract.sol\":6696:6714  usersId[invitedId] */\n      0x00\n        /* \"cobraBot/Contract.sol\":6704:6713  invitedId */\n      dup4\n        /* \"cobraBot/Contract.sol\":6696:6714  usersId[invitedId] */\n      dup2\n      mstore\n      0x20\n      add\n      swap1\n      dup2\n      mstore\n      0x20\n      add\n      0x00\n      keccak256\n      0x00\n      swap1\n      sload\n      swap1\n      0x0100\n      exp\n      swap1\n      div\n      0xffffffffffffffffffffffffffffffffffffffff\n      and\n        /* \"cobraBot/Contract.sol\":6696:6719  usersId[invitedId].call */\n      0xffffffffffffffffffffffffffffffffffffffff\n      and\n        /* \"cobraBot/Contract.sol\":6727:6735  refValue */\n      dup2\n        /* \"cobraBot/Contract.sol\":6696:6740  usersId[invitedId].call{value: refValue}(\"\") */\n      mload(0x40)\n      tag_169\n      swap1\n      tag_160\n      jump\t// in\n    tag_169:\n      0x00\n      mload(0x40)\n      dup1\n      dup4\n      sub\n      dup2\n      dup6\n      dup8\n      gas\n      call\n      swap3\n      pop\n      pop\n      pop\n      returndatasize\n      dup1\n      0x00\n      dup2\n      eq\n      tag_172\n      jumpi\n      mload(0x40)\n      swap2\n      pop\n      and(add(returndatasize, 0x3f), not(0x1f))\n      dup3\n      add\n      0x40\n      mstore\n      returndatasize\n      dup3\n      mstore\n      returndatasize\n      0x00\n      0x20\n      dup5\n      add\n      returndatacopy\n      jump(tag_171)\n    tag_172:\n      0x60\n      swap2\n      pop\n    tag_171:\n      pop\n        /* \"cobraBot/Contract.sol\":6682:6740  (success, ) = usersId[invitedId].call{value: refValue}(\"\") */\n      pop\n      dup1\n      swap5\n      pop\n      pop\n        /* \"cobraBot/Contract.sol\":6769:6776  success */\n      dup4\n        /* \"cobraBot/Contract.sol\":6765:6847  if (success) emit ReferalPaymentEvent(levels[gameId], userId, invitedId, refValue) */\n      iszero\n      tag_173\n      jumpi\n        /* \"cobraBot/Contract.sol\":6783:6847  ReferalPaymentEvent(levels[gameId], userId, invitedId, refValue) */\n      0x99a41df4773da34d9d98cc939025289e5db562f8fb5df346a9e7a1672bd288e3\n        /* \"cobraBot/Contract.sol\":6803:6809  levels */\n      0x02\n        /* \"cobraBot/Contract.sol\":6803:6817  levels[gameId] */\n      0x00\n        /* \"cobraBot/Contract.sol\":6810:6816  gameId */\n      dup12\n        /* \"cobraBot/Contract.sol\":6803:6817  levels[gameId] */\n      0xff\n      and\n      0xff\n      and\n      dup2\n      mstore\n      0x20\n      add\n      swap1\n      dup2\n      mstore\n      0x20\n      add\n      0x00\n      keccak256\n        /* \"cobraBot/Contract.sol\":6819:6825  userId */\n      dup5\n        /* \"cobraBot/Contract.sol\":6827:6836  invitedId */\n      dup5\n        /* \"cobraBot/Contract.sol\":6838:6846  refValue */\n      dup5\n        /* \"cobraBot/Contract.sol\":6783:6847  ReferalPaymentEvent(levels[gameId], userId, invitedId, refValue) */\n      mload(0x40)\n      tag_174\n      swap5\n      swap4\n      swap3\n      swap2\n      swap1\n      tag_175\n      jump\t// in\n    tag_174:\n      mload(0x40)\n      dup1\n      swap2\n      sub\n      swap1\n      log1\n        /* \"cobraBot/Contract.sol\":6765:6847  if (success) emit ReferalPaymentEvent(levels[gameId], userId, invitedId, refValue) */\n    tag_173:\n        /* \"cobraBot/Contract.sol\":6933:6936  100 */\n      0x64\n        /* \"cobraBot/Contract.sol\":410:411  6 */\n      0x06\n        /* \"cobraBot/Contract.sol\":6883:6889  levels */\n      0x02\n        /* \"cobraBot/Contract.sol\":6883:6897  levels[gameId] */\n      0x00\n        /* \"cobraBot/Contract.sol\":6890:6896  gameId */\n      dup13\n        /* \"cobraBot/Contract.sol\":6883:6897  levels[gameId] */\n      0xff\n      and\n      0xff\n      and\n      dup2\n      mstore\n      0x20\n      add\n      swap1\n      dup2\n      mstore\n      0x20\n      add\n      0x00\n      keccak256\n        /* \"cobraBot/Contract.sol\":6883:6909  levels[gameId].amountToPay */\n      0x01\n      add\n      sload\n        /* \"cobraBot/Contract.sol\":6883:6930  levels[gameId].amountToPay * secondLevelReferal */\n      tag_176\n      swap2\n      swap1\n      tag_157\n      jump\t// in\n    tag_176:\n        /* \"cobraBot/Contract.sol\":6883:6936  levels[gameId].amountToPay * secondLevelReferal / 100 */\n      tag_177\n      swap2\n      swap1\n      tag_129\n      jump\t// in\n    tag_177:\n        /* \"cobraBot/Contract.sol\":6872:6936  refValue = levels[gameId].amountToPay * secondLevelReferal / 100 */\n      swap1\n      pop\n        /* \"cobraBot/Contract.sol\":6997:7012  registeredUsers */\n      0x04\n        /* \"cobraBot/Contract.sol\":6997:7032  registeredUsers[usersId[invitedId]] */\n      0x00\n        /* \"cobraBot/Contract.sol\":7013:7020  usersId */\n      0x03\n        /* \"cobraBot/Contract.sol\":7013:7031  usersId[invitedId] */\n      0x00\n        /* \"cobraBot/Contract.sol\":7021:7030  invitedId */\n      dup6\n        /* \"cobraBot/Contract.sol\":7013:7031  usersId[invitedId] */\n      dup2\n      mstore\n      0x20\n      add\n      swap1\n      dup2\n      mstore\n      0x20\n      add\n      0x00\n      keccak256\n      0x00\n      swap1\n      sload\n      swap1\n      0x0100\n      exp\n      swap1\n      div\n      0xffffffffffffffffffffffffffffffffffffffff\n      and\n        /* \"cobraBot/Contract.sol\":6997:7032  registeredUsers[usersId[invitedId]] */\n      0xffffffffffffffffffffffffffffffffffffffff\n      and\n      0xffffffffffffffffffffffffffffffffffffffff\n      and\n      dup2\n      mstore\n      0x20\n      add\n      swap1\n      dup2\n      mstore\n      0x20\n      add\n      0x00\n      keccak256\n        /* \"cobraBot/Contract.sol\":6997:7044  registeredUsers[usersId[invitedId]].userAddress */\n      0x01\n      add\n      0x00\n      swap1\n      sload\n      swap1\n      0x0100\n      exp\n      swap1\n      div\n      0xffffffffffffffffffffffffffffffffffffffff\n      and\n        /* \"cobraBot/Contract.sol\":6997:7049  registeredUsers[usersId[invitedId]].userAddress.call */\n      0xffffffffffffffffffffffffffffffffffffffff\n      and\n        /* \"cobraBot/Contract.sol\":7057:7065  refValue */\n      dup2\n        /* \"cobraBot/Contract.sol\":6997:7070  registeredUsers[usersId[invitedId]].userAddress.call{value: refValue}(\"\") */\n      mload(0x40)\n      tag_178\n      swap1\n      tag_160\n      jump\t// in\n    tag_178:\n      0x00\n      mload(0x40)\n      dup1\n      dup4\n      sub\n      dup2\n      dup6\n      dup8\n      gas\n      call\n      swap3\n      pop\n      pop\n      pop\n      returndatasize\n      dup1\n      0x00\n      dup2\n      eq\n      tag_181\n      jumpi\n      mload(0x40)\n      swap2\n      pop\n      and(add(returndatasize, 0x3f), not(0x1f))\n      dup3\n      add\n      0x40\n      mstore\n      returndatasize\n      dup3\n      mstore\n      returndatasize\n      0x00\n      0x20\n      dup5\n      add\n      returndatacopy\n      jump(tag_180)\n    tag_181:\n      0x60\n      swap2\n      pop\n    tag_180:\n      pop\n        /* \"cobraBot/Contract.sol\":6983:7070  (success, ) = registeredUsers[usersId[invitedId]].userAddress.call{value: refValue}(\"\") */\n      pop\n      dup1\n      swap5\n      pop\n      pop\n        /* \"cobraBot/Contract.sol\":7125:7132  success */\n      dup4\n        /* \"cobraBot/Contract.sol\":7121:7239  if (success) emit ReferalPaymentEvent(levels[gameId], invitedId, registeredUsers[usersId[invitedId]].userId, refValue) */\n      iszero\n      tag_182\n      jumpi\n        /* \"cobraBot/Contract.sol\":7139:7239  ReferalPaymentEvent(levels[gameId], invitedId, registeredUsers[usersId[invitedId]].userId, refValue) */\n      0x99a41df4773da34d9d98cc939025289e5db562f8fb5df346a9e7a1672bd288e3\n        /* \"cobraBot/Contract.sol\":7159:7165  levels */\n      0x02\n        /* \"cobraBot/Contract.sol\":7159:7173  levels[gameId] */\n      0x00\n        /* \"cobraBot/Contract.sol\":7166:7172  gameId */\n      dup12\n        /* \"cobraBot/Contract.sol\":7159:7173  levels[gameId] */\n      0xff\n      and\n      0xff\n      and\n      dup2\n      mstore\n      0x20\n      add\n      swap1\n      dup2\n      mstore\n      0x20\n      add\n      0x00\n      keccak256\n        /* \"cobraBot/Contract.sol\":7175:7184  invitedId */\n      dup4\n        /* \"cobraBot/Contract.sol\":7186:7201  registeredUsers */\n      0x04\n        /* \"cobraBot/Contract.sol\":7186:7221  registeredUsers[usersId[invitedId]] */\n      0x00\n        /* \"cobraBot/Contract.sol\":7202:7209  usersId */\n      0x03\n        /* \"cobraBot/Contract.sol\":7202:7220  usersId[invitedId] */\n      0x00\n        /* \"cobraBot/Contract.sol\":7210:7219  invitedId */\n      dup9\n        /* \"cobraBot/Contract.sol\":7202:7220  usersId[invitedId] */\n      dup2\n      mstore\n      0x20\n      add\n      swap1\n      dup2\n      mstore\n      0x20\n      add\n      0x00\n      keccak256\n      0x00\n      swap1\n      sload\n      swap1\n      0x0100\n      exp\n      swap1\n      div\n      0xffffffffffffffffffffffffffffffffffffffff\n      and\n        /* \"cobraBot/Contract.sol\":7186:7221  registeredUsers[usersId[invitedId]] */\n      0xffffffffffffffffffffffffffffffffffffffff\n      and\n      0xffffffffffffffffffffffffffffffffffffffff\n      and\n      dup2\n      mstore\n      0x20\n      add\n      swap1\n      dup2\n      mstore\n      0x20\n      add\n      0x00\n      keccak256\n        /* \"cobraBot/Contract.sol\":7186:7228  registeredUsers[usersId[invitedId]].userId */\n      0x00\n      add\n      sload\n        /* \"cobraBot/Contract.sol\":7230:7238  refValue */\n      dup5\n        /* \"cobraBot/Contract.sol\":7139:7239  ReferalPaymentEvent(levels[gameId], invitedId, registeredUsers[usersId[invitedId]].userId, refValue) */\n      mload(0x40)\n      tag_183\n      swap5\n      swap4\n      swap3\n      swap2\n      swap1\n      tag_175\n      jump\t// in\n    tag_183:\n      mload(0x40)\n      dup1\n      swap2\n      sub\n      swap1\n      log1\n        /* \"cobraBot/Contract.sol\":7121:7239  if (success) emit ReferalPaymentEvent(levels[gameId], invitedId, registeredUsers[usersId[invitedId]].userId, refValue) */\n    tag_182:\n        /* \"cobraBot/Contract.sol\":7324:7327  100 */\n      0x64\n        /* \"cobraBot/Contract.sol\":485:486  4 */\n      0x04\n        /* \"cobraBot/Contract.sol\":7275:7281  levels */\n      0x02\n        /* \"cobraBot/Contract.sol\":7275:7289  levels[gameId] */\n      0x00\n        /* \"cobraBot/Contract.sol\":7282:7288  gameId */\n      dup13\n        /* \"cobraBot/Contract.sol\":7275:7289  levels[gameId] */\n      0xff\n      and\n      0xff\n      and\n      dup2\n      mstore\n      0x20\n      add\n      swap1\n      dup2\n      mstore\n      0x20\n      add\n      0x00\n      keccak256\n        /* \"cobraBot/Contract.sol\":7275:7301  levels[gameId].amountToPay */\n      0x01\n      add\n      sload\n        /* \"cobraBot/Contract.sol\":7275:7321  levels[gameId].amountToPay * thirdLevelReferal */\n      tag_184\n      swap2\n      swap1\n      tag_157\n      jump\t// in\n    tag_184:\n        /* \"cobraBot/Contract.sol\":7275:7327  levels[gameId].amountToPay * thirdLevelReferal / 100 */\n      tag_185\n      swap2\n      swap1\n      tag_129\n      jump\t// in\n    tag_185:\n        /* \"cobraBot/Contract.sol\":7264:7327  refValue = levels[gameId].amountToPay * thirdLevelReferal / 100 */\n      swap1\n      pop\n        /* \"cobraBot/Contract.sol\":7387:7402  registeredUsers */\n      0x04\n        /* \"cobraBot/Contract.sol\":7387:7455  registeredUsers[usersId[registeredUsers[usersId[invitedId]].userId]] */\n      0x00\n        /* \"cobraBot/Contract.sol\":7403:7410  usersId */\n      0x03\n        /* \"cobraBot/Contract.sol\":7403:7454  usersId[registeredUsers[usersId[invitedId]].userId] */\n      0x00\n        /* \"cobraBot/Contract.sol\":7411:7426  registeredUsers */\n      0x04\n        /* \"cobraBot/Contract.sol\":7411:7446  registeredUsers[usersId[invitedId]] */\n      0x00\n        /* \"cobraBot/Contract.sol\":7427:7434  usersId */\n      0x03\n        /* \"cobraBot/Contract.sol\":7427:7445  usersId[invitedId] */\n      0x00\n        /* \"cobraBot/Contract.sol\":7435:7444  invitedId */\n      dup10\n        /* \"cobraBot/Contract.sol\":7427:7445  usersId[invitedId] */\n      dup2\n      mstore\n      0x20\n      add\n      swap1\n      dup2\n      mstore\n      0x20\n      add\n      0x00\n      keccak256\n      0x00\n      swap1\n      sload\n      swap1\n      0x0100\n      exp\n      swap1\n      div\n      0xffffffffffffffffffffffffffffffffffffffff\n      and\n        /* \"cobraBot/Contract.sol\":7411:7446  registeredUsers[usersId[invitedId]] */\n      0xffffffffffffffffffffffffffffffffffffffff\n      and\n      0xffffffffffffffffffffffffffffffffffffffff\n      and\n      dup2\n      mstore\n      0x20\n      add\n      swap1\n      dup2\n      mstore\n      0x20\n      add\n      0x00\n      keccak256\n        /* \"cobraBot/Contract.sol\":7411:7453  registeredUsers[usersId[invitedId]].userId */\n      0x00\n      add\n      sload\n        /* \"cobraBot/Contract.sol\":7403:7454  usersId[registeredUsers[usersId[invitedId]].userId] */\n      dup2\n      mstore\n      0x20\n      add\n      swap1\n      dup2\n      mstore\n      0x20\n      add\n      0x00\n      keccak256\n      0x00\n      swap1\n      sload\n      swap1\n      0x0100\n      exp\n      swap1\n      div\n      0xffffffffffffffffffffffffffffffffffffffff\n      and\n        /* \"cobraBot/Contract.sol\":7387:7455  registeredUsers[usersId[registeredUsers[usersId[invitedId]].userId]] */\n      0xffffffffffffffffffffffffffffffffffffffff\n      and\n      0xffffffffffffffffffffffffffffffffffffffff\n      and\n      dup2\n      mstore\n      0x20\n      add\n      swap1\n      dup2\n      mstore\n      0x20\n      add\n      0x00\n      keccak256\n        /* \"cobraBot/Contract.sol\":7387:7467  registeredUsers[usersId[registeredUsers[usersId[invitedId]].userId]].userAddress */\n      0x01\n      add\n      0x00\n      swap1\n      sload\n      swap1\n      0x0100\n      exp\n      swap1\n      div\n      0xffffffffffffffffffffffffffffffffffffffff\n      and\n        /* \"cobraBot/Contract.sol\":7387:7472  registeredUsers[usersId[registeredUsers[usersId[invitedId]].userId]].userAddress.call */\n      0xffffffffffffffffffffffffffffffffffffffff\n      and\n        /* \"cobraBot/Contract.sol\":7480:7488  refValue */\n      dup2\n        /* \"cobraBot/Contract.sol\":7387:7493  registeredUsers[usersId[registeredUsers[usersId[invitedId]].userId]].userAddress.call{value: refValue}(\"\") */\n      mload(0x40)\n      tag_186\n      swap1\n      tag_160\n      jump\t// in\n    tag_186:\n      0x00\n      mload(0x40)\n      dup1\n      dup4\n      sub\n      dup2\n      dup6\n      dup8\n      gas\n      call\n      swap3\n      pop\n      pop\n      pop\n      returndatasize\n      dup1\n      0x00\n      dup2\n      eq\n      tag_189\n      jumpi\n      mload(0x40)\n      swap2\n      pop\n      and(add(returndatasize, 0x3f), not(0x1f))\n      dup3\n      add\n      0x40\n      mstore\n      returndatasize\n      dup3\n      mstore\n      returndatasize\n      0x00\n      0x20\n      dup5\n      add\n      returndatacopy\n      jump(tag_188)\n    tag_189:\n      0x60\n      swap2\n      pop\n    tag_188:\n      pop\n        /* \"cobraBot/Contract.sol\":7373:7493  (success, ) = registeredUsers[usersId[registeredUsers[usersId[invitedId]].userId]].userAddress.call{value: refValue}(\"\") */\n      pop\n      dup1\n      swap5\n      pop\n      pop\n        /* \"cobraBot/Contract.sol\":7522:7529  success */\n      dup4\n        /* \"cobraBot/Contract.sol\":7518:7702  if (success) emit ReferalPaymentEvent(levels[gameId], registeredUsers[usersId[invitedId]].userId, registeredUsers[usersId[registeredUsers[usersId[invitedId]].userId]].userId, refValue) */\n      iszero\n      tag_190\n      jumpi\n        /* \"cobraBot/Contract.sol\":7536:7702  ReferalPaymentEvent(levels[gameId], registeredUsers[usersId[invitedId]].userId, registeredUsers[usersId[registeredUsers[usersId[invitedId]].userId]].userId, refValue) */\n      0x99a41df4773da34d9d98cc939025289e5db562f8fb5df346a9e7a1672bd288e3\n        /* \"cobraBot/Contract.sol\":7556:7562  levels */\n      0x02\n        /* \"cobraBot/Contract.sol\":7556:7570  levels[gameId] */\n      0x00\n        /* \"cobraBot/Contract.sol\":7563:7569  gameId */\n      dup12\n        /* \"cobraBot/Contract.sol\":7556:7570  levels[gameId] */\n      0xff\n      and\n      0xff\n      and\n      dup2\n      mstore\n      0x20\n      add\n      swap1\n      dup2\n      mstore\n      0x20\n      add\n      0x00\n      keccak256\n        /* \"cobraBot/Contract.sol\":7572:7587  registeredUsers */\n      0x04\n        /* \"cobraBot/Contract.sol\":7572:7607  registeredUsers[usersId[invitedId]] */\n      0x00\n        /* \"cobraBot/Contract.sol\":7588:7595  usersId */\n      0x03\n        /* \"cobraBot/Contract.sol\":7588:7606  usersId[invitedId] */\n      0x00\n        /* \"cobraBot/Contract.sol\":7596:7605  invitedId */\n      dup8\n        /* \"cobraBot/Contract.sol\":7588:7606  usersId[invitedId] */\n      dup2\n      mstore\n      0x20\n      add\n      swap1\n      dup2\n      mstore\n      0x20\n      add\n      0x00\n      keccak256\n      0x00\n      swap1\n      sload\n      swap1\n      0x0100\n      exp\n      swap1\n      div\n      0xffffffffffffffffffffffffffffffffffffffff\n      and\n        /* \"cobraBot/Contract.sol\":7572:7607  registeredUsers[usersId[invitedId]] */\n      0xffffffffffffffffffffffffffffffffffffffff\n      and\n      0xffffffffffffffffffffffffffffffffffffffff\n      and\n      dup2\n      mstore\n      0x20\n      add\n      swap1\n      dup2\n      mstore\n      0x20\n      add\n      0x00\n      keccak256\n        /* \"cobraBot/Contract.sol\":7572:7614  registeredUsers[usersId[invitedId]].userId */\n      0x00\n      add\n      sload\n        /* \"cobraBot/Contract.sol\":7616:7631  registeredUsers */\n      0x04\n        /* \"cobraBot/Contract.sol\":7616:7684  registeredUsers[usersId[registeredUsers[usersId[invitedId]].userId]] */\n      0x00\n        /* \"cobraBot/Contract.sol\":7632:7639  usersId */\n      0x03\n        /* \"cobraBot/Contract.sol\":7632:7683  usersId[registeredUsers[usersId[invitedId]].userId] */\n      0x00\n        /* \"cobraBot/Contract.sol\":7640:7655  registeredUsers */\n      0x04\n        /* \"cobraBot/Contract.sol\":7640:7675  registeredUsers[usersId[invitedId]] */\n      0x00\n        /* \"cobraBot/Contract.sol\":7656:7663  usersId */\n      0x03\n        /* \"cobraBot/Contract.sol\":7656:7674  usersId[invitedId] */\n      0x00\n        /* \"cobraBot/Contract.sol\":7664:7673  invitedId */\n      dup13\n        /* \"cobraBot/Contract.sol\":7656:7674  usersId[invitedId] */\n      dup2\n      mstore\n      0x20\n      add\n      swap1\n      dup2\n      mstore\n      0x20\n      add\n      0x00\n      keccak256\n      0x00\n      swap1\n      sload\n      swap1\n      0x0100\n      exp\n      swap1\n      div\n      0xffffffffffffffffffffffffffffffffffffffff\n      and\n        /* \"cobraBot/Contract.sol\":7640:7675  registeredUsers[usersId[invitedId]] */\n      0xffffffffffffffffffffffffffffffffffffffff\n      and\n      0xffffffffffffffffffffffffffffffffffffffff\n      and\n      dup2\n      mstore\n      0x20\n      add\n      swap1\n      dup2\n      mstore\n      0x20\n      add\n      0x00\n      keccak256\n        /* \"cobraBot/Contract.sol\":7640:7682  registeredUsers[usersId[invitedId]].userId */\n      0x00\n      add\n      sload\n        /* \"cobraBot/Contract.sol\":7632:7683  usersId[registeredUsers[usersId[invitedId]].userId] */\n      dup2\n      mstore\n      0x20\n      add\n      swap1\n      dup2\n      mstore\n      0x20\n      add\n      0x00\n      keccak256\n      0x00\n      swap1\n      sload\n      swap1\n      0x0100\n      exp\n      swap1\n      div\n      0xffffffffffffffffffffffffffffffffffffffff\n      and\n        /* \"cobraBot/Contract.sol\":7616:7684  registeredUsers[usersId[registeredUsers[usersId[invitedId]].userId]] */\n      0xffffffffffffffffffffffffffffffffffffffff\n      and\n      0xffffffffffffffffffffffffffffffffffffffff\n      and\n      dup2\n      mstore\n      0x20\n      add\n      swap1\n      dup2\n      mstore\n      0x20\n      add\n      0x00\n      keccak256\n        /* \"cobraBot/Contract.sol\":7616:7691  registeredUsers[usersId[registeredUsers[usersId[invitedId]].userId]].userId */\n      0x00\n      add\n      sload\n        /* \"cobraBot/Contract.sol\":7693:7701  refValue */\n      dup5\n        /* \"cobraBot/Contract.sol\":7536:7702  ReferalPaymentEvent(levels[gameId], registeredUsers[usersId[invitedId]].userId, registeredUsers[usersId[registeredUsers[usersId[invitedId]].userId]].userId, refValue) */\n      mload(0x40)\n      tag_191\n      swap5\n      swap4\n      swap3\n      swap2\n      swap1\n      tag_175\n      jump\t// in\n    tag_191:\n      mload(0x40)\n      dup1\n      swap2\n      sub\n      swap1\n      log1\n        /* \"cobraBot/Contract.sol\":7518:7702  if (success) emit ReferalPaymentEvent(levels[gameId], registeredUsers[usersId[invitedId]].userId, registeredUsers[usersId[registeredUsers[usersId[invitedId]].userId]].userId, refValue) */\n    tag_190:\n        /* \"cobraBot/Contract.sol\":7902:7905  100 */\n      0x64\n        /* \"cobraBot/Contract.sol\":554:555  6 */\n      0x06\n        /* \"cobraBot/Contract.sol\":7858:7864  levels */\n      0x02\n        /* \"cobraBot/Contract.sol\":7858:7872  levels[gameId] */\n      0x00\n        /* \"cobraBot/Contract.sol\":7865:7871  gameId */\n      dup13\n        /* \"cobraBot/Contract.sol\":7858:7872  levels[gameId] */\n      0xff\n      and\n      0xff\n      and\n      dup2\n      mstore\n      0x20\n      add\n      swap1\n      dup2\n      mstore\n      0x20\n      add\n      0x00\n      keccak256\n        /* \"cobraBot/Contract.sol\":7858:7884  levels[gameId].amountToPay */\n      0x01\n      add\n      sload\n        /* \"cobraBot/Contract.sol\":7858:7899  levels[gameId].amountToPay * ownerReferal */\n      tag_192\n      swap2\n      swap1\n      tag_157\n      jump\t// in\n    tag_192:\n        /* \"cobraBot/Contract.sol\":7858:7905  levels[gameId].amountToPay * ownerReferal / 100 */\n      tag_193\n      swap2\n      swap1\n      tag_129\n      jump\t// in\n    tag_193:\n        /* \"cobraBot/Contract.sol\":7847:7905  refValue = levels[gameId].amountToPay * ownerReferal / 100 */\n      swap1\n      pop\n        /* \"cobraBot/Contract.sol\":7959:7974  registeredUsers */\n      0x04\n        /* \"cobraBot/Contract.sol\":7959:7989  registeredUsers[contractOwner] */\n      0x00\n        /* \"cobraBot/Contract.sol\":7975:7988  contractOwner */\n      0x01\n      dup1\n      sload\n      swap1\n      0x0100\n      exp\n      swap1\n      div\n      0xffffffffffffffffffffffffffffffffffffffff\n      and\n        /* \"cobraBot/Contract.sol\":7959:7989  registeredUsers[contractOwner] */\n      0xffffffffffffffffffffffffffffffffffffffff\n      and\n      0xffffffffffffffffffffffffffffffffffffffff\n      and\n      dup2\n      mstore\n      0x20\n      add\n      swap1\n      dup2\n      mstore\n      0x20\n      add\n      0x00\n      keccak256\n        /* \"cobraBot/Contract.sol\":7959:8001  registeredUsers[contractOwner].userAddress */\n      0x01\n      add\n      0x00\n      swap1\n      sload\n      swap1\n      0x0100\n      exp\n      swap1\n      div\n      0xffffffffffffffffffffffffffffffffffffffff\n      and\n        /* \"cobraBot/Contract.sol\":7959:8006  registeredUsers[contractOwner].userAddress.call */\n      0xffffffffffffffffffffffffffffffffffffffff\n      and\n        /* \"cobraBot/Contract.sol\":8014:8022  refValue */\n      dup2\n        /* \"cobraBot/Contract.sol\":7959:8027  registeredUsers[contractOwner].userAddress.call{value: refValue}(\"\") */\n      mload(0x40)\n      tag_194\n      swap1\n      tag_160\n      jump\t// in\n    tag_194:\n      0x00\n      mload(0x40)\n      dup1\n      dup4\n      sub\n      dup2\n      dup6\n      dup8\n      gas\n      call\n      swap3\n      pop\n      pop\n      pop\n      returndatasize\n      dup1\n      0x00\n      dup2\n      eq\n      tag_197\n      jumpi\n      mload(0x40)\n      swap2\n      pop\n      and(add(returndatasize, 0x3f), not(0x1f))\n      dup3\n      add\n      0x40\n      mstore\n      returndatasize\n      dup3\n      mstore\n      returndatasize\n      0x00\n      0x20\n      dup5\n      add\n      returndatacopy\n      jump(tag_196)\n    tag_197:\n      0x60\n      swap2\n      pop\n    tag_196:\n      pop\n        /* \"cobraBot/Contract.sol\":7945:8027  (success, ) = registeredUsers[contractOwner].userAddress.call{value: refValue}(\"\") */\n      pop\n      dup1\n      swap5\n      pop\n      pop\n        /* \"cobraBot/Contract.sol\":8056:8063  success */\n      dup4\n        /* \"cobraBot/Contract.sol\":8052:8162  if (success) emit ReferalPaymentEvent(levels[gameId], userId, registeredUsers[contractOwner].userId, refValue) */\n      iszero\n      tag_198\n      jumpi\n        /* \"cobraBot/Contract.sol\":8070:8162  ReferalPaymentEvent(levels[gameId], userId, registeredUsers[contractOwner].userId, refValue) */\n      0x99a41df4773da34d9d98cc939025289e5db562f8fb5df346a9e7a1672bd288e3\n        /* \"cobraBot/Contract.sol\":8090:8096  levels */\n      0x02\n        /* \"cobraBot/Contract.sol\":8090:8104  levels[gameId] */\n      0x00\n        /* \"cobraBot/Contract.sol\":8097:8103  gameId */\n      dup12\n        /* \"cobraBot/Contract.sol\":8090:8104  levels[gameId] */\n      0xff\n      and\n      0xff\n      and\n      dup2\n      mstore\n      0x20\n      add\n      swap1\n      dup2\n      mstore\n      0x20\n      add\n      0x00\n      keccak256\n        /* \"cobraBot/Contract.sol\":8106:8112  userId */\n      dup5\n        /* \"cobraBot/Contract.sol\":8114:8129  registeredUsers */\n      0x04\n        /* \"cobraBot/Contract.sol\":8114:8144  registeredUsers[contractOwner] */\n      0x00\n        /* \"cobraBot/Contract.sol\":8130:8143  contractOwner */\n      0x01\n      dup1\n      sload\n      swap1\n      0x0100\n      exp\n      swap1\n      div\n      0xffffffffffffffffffffffffffffffffffffffff\n      and\n        /* \"cobraBot/Contract.sol\":8114:8144  registeredUsers[contractOwner] */\n      0xffffffffffffffffffffffffffffffffffffffff\n      and\n      0xffffffffffffffffffffffffffffffffffffffff\n      and\n      dup2\n      mstore\n      0x20\n      add\n      swap1\n      dup2\n      mstore\n      0x20\n      add\n      0x00\n      keccak256\n        /* \"cobraBot/Contract.sol\":8114:8151  registeredUsers[contractOwner].userId */\n      0x00\n      add\n      sload\n        /* \"cobraBot/Contract.sol\":8153:8161  refValue */\n      dup5\n        /* \"cobraBot/Contract.sol\":8070:8162  ReferalPaymentEvent(levels[gameId], userId, registeredUsers[contractOwner].userId, refValue) */\n      mload(0x40)\n      tag_199\n      swap5\n      swap4\n      swap3\n      swap2\n      swap1\n      tag_175\n      jump\t// in\n    tag_199:\n      mload(0x40)\n      dup1\n      swap2\n      sub\n      swap1\n      log1\n        /* \"cobraBot/Contract.sol\":8052:8162  if (success) emit ReferalPaymentEvent(levels[gameId], userId, registeredUsers[contractOwner].userId, refValue) */\n    tag_198:\n        /* \"cobraBot/Contract.sol\":5827:8200  {\r... */\n      pop\n      pop\n      pop\n      pop\n        /* \"cobraBot/Contract.sol\":5739:8200  if (userPayments[selectedAddress][gameId] <= 1 || userGames[selectedAddress][gameId+1]) {\r... */\n    tag_155:\n        /* \"cobraBot/Contract.sol\":5497:8215  {\r... */\n      pop\n        /* \"cobraBot/Contract.sol\":8236:8237  0 */\n      0x00\n        /* \"cobraBot/Contract.sol\":8223:8232  userIndex */\n      dup2\n        /* \"cobraBot/Contract.sol\":8223:8237  userIndex != 0 */\n      eq\n      iszero\n        /* \"cobraBot/Contract.sol\":5494:8239  do {\r... */\n      tag_150\n      jumpi\n        /* \"cobraBot/Contract.sol\":5414:8250  {\r... */\n      pop\n        /* \"cobraBot/Contract.sol\":5379:8250  if (currentUserIndex[gameId] >= 3) {\r... */\n    tag_148:\n        /* \"cobraBot/Contract.sol\":4814:8257  function _joinToGame(uint8 gameId, address sender, uint256 value) internal {\r... */\n      pop\n      pop\n      pop\n      jump\t// out\n        /* \"#utility.yul\":7:146   */\n    tag_201:\n        /* \"#utility.yul\":53:58   */\n      0x00\n        /* \"#utility.yul\":91:97   */\n      dup2\n        /* \"#utility.yul\":78:98   */\n      calldataload\n        /* \"#utility.yul\":69:98   */\n      swap1\n      pop\n        /* \"#utility.yul\":107:140   */\n      tag_203\n        /* \"#utility.yul\":134:139   */\n      dup2\n        /* \"#utility.yul\":107:140   */\n      tag_204\n      jump\t// in\n    tag_203:\n        /* \"#utility.yul\":7:146   */\n      swap3\n      swap2\n      pop\n      pop\n      jump\t// out\n        /* \"#utility.yul\":152:291   */\n    tag_205:\n        /* \"#utility.yul\":198:203   */\n      0x00\n        /* \"#utility.yul\":236:242   */\n      dup2\n        /* \"#utility.yul\":223:243   */\n      calldataload\n        /* \"#utility.yul\":214:243   */\n      swap1\n      pop\n        /* \"#utility.yul\":252:285   */\n      tag_207\n        /* \"#utility.yul\":279:284   */\n      dup2\n        /* \"#utility.yul\":252:285   */\n      tag_208\n      jump\t// in\n    tag_207:\n        /* \"#utility.yul\":152:291   */\n      swap3\n      swap2\n      pop\n      pop\n      jump\t// out\n        /* \"#utility.yul\":297:432   */\n    tag_209:\n        /* \"#utility.yul\":341:346   */\n      0x00\n        /* \"#utility.yul\":379:385   */\n      dup2\n        /* \"#utility.yul\":366:386   */\n      calldataload\n        /* \"#utility.yul\":357:386   */\n      swap1\n      pop\n        /* \"#utility.yul\":395:426   */\n      tag_211\n        /* \"#utility.yul\":420:425   */\n      dup2\n        /* \"#utility.yul\":395:426   */\n      tag_212\n      jump\t// in\n    tag_211:\n        /* \"#utility.yul\":297:432   */\n      swap3\n      swap2\n      pop\n      pop\n      jump\t// out\n        /* \"#utility.yul\":438:767   */\n    tag_34:\n        /* \"#utility.yul\":497:503   */\n      0x00\n        /* \"#utility.yul\":546:548   */\n      0x20\n        /* \"#utility.yul\":534:543   */\n      dup3\n        /* \"#utility.yul\":525:532   */\n      dup5\n        /* \"#utility.yul\":521:544   */\n      sub\n        /* \"#utility.yul\":517:549   */\n      slt\n        /* \"#utility.yul\":514:633   */\n      iszero\n      tag_214\n      jumpi\n        /* \"#utility.yul\":552:631   */\n      tag_215\n      tag_216\n      jump\t// in\n    tag_215:\n        /* \"#utility.yul\":514:633   */\n    tag_214:\n        /* \"#utility.yul\":672:673   */\n      0x00\n        /* \"#utility.yul\":697:750   */\n      tag_217\n        /* \"#utility.yul\":742:749   */\n      dup5\n        /* \"#utility.yul\":733:739   */\n      dup3\n        /* \"#utility.yul\":722:731   */\n      dup6\n        /* \"#utility.yul\":718:740   */\n      add\n        /* \"#utility.yul\":697:750   */\n      tag_201\n      jump\t// in\n    tag_217:\n        /* \"#utility.yul\":687:750   */\n      swap2\n      pop\n        /* \"#utility.yul\":643:760   */\n      pop\n        /* \"#utility.yul\":438:767   */\n      swap3\n      swap2\n      pop\n      pop\n      jump\t// out\n        /* \"#utility.yul\":773:1243   */\n    tag_47:\n        /* \"#utility.yul\":839:845   */\n      0x00\n        /* \"#utility.yul\":847:853   */\n      dup1\n        /* \"#utility.yul\":896:898   */\n      0x40\n        /* \"#utility.yul\":884:893   */\n      dup4\n        /* \"#utility.yul\":875:882   */\n      dup6\n        /* \"#utility.yul\":871:894   */\n      sub\n        /* \"#utility.yul\":867:899   */\n      slt\n        /* \"#utility.yul\":864:983   */\n      iszero\n      tag_219\n      jumpi\n        /* \"#utility.yul\":902:981   */\n      tag_220\n      tag_216\n      jump\t// in\n    tag_220:\n        /* \"#utility.yul\":864:983   */\n    tag_219:\n        /* \"#utility.yul\":1022:1023   */\n      0x00\n        /* \"#utility.yul\":1047:1100   */\n      tag_221\n        /* \"#utility.yul\":1092:1099   */\n      dup6\n        /* \"#utility.yul\":1083:1089   */\n      dup3\n        /* \"#utility.yul\":1072:1081   */\n      dup7\n        /* \"#utility.yul\":1068:1090   */\n      add\n        /* \"#utility.yul\":1047:1100   */\n      tag_201\n      jump\t// in\n    tag_221:\n        /* \"#utility.yul\":1037:1100   */\n      swap3\n      pop\n        /* \"#utility.yul\":993:1110   */\n      pop\n        /* \"#utility.yul\":1149:1151   */\n      0x20\n        /* \"#utility.yul\":1175:1226   */\n      tag_222\n        /* \"#utility.yul\":1218:1225   */\n      dup6\n        /* \"#utility.yul\":1209:1215   */\n      dup3\n        /* \"#utility.yul\":1198:1207   */\n      dup7\n        /* \"#utility.yul\":1194:1216   */\n      add\n        /* \"#utility.yul\":1175:1226   */\n      tag_209\n      jump\t// in\n    tag_222:\n        /* \"#utility.yul\":1165:1226   */\n      swap2\n      pop\n        /* \"#utility.yul\":1120:1236   */\n      pop\n        /* \"#utility.yul\":773:1243   */\n      swap3\n      pop\n      swap3\n      swap1\n      pop\n      jump\t// out\n        /* \"#utility.yul\":1249:1578   */\n    tag_29:\n        /* \"#utility.yul\":1308:1314   */\n      0x00\n        /* \"#utility.yul\":1357:1359   */\n      0x20\n        /* \"#utility.yul\":1345:1354   */\n      dup3\n        /* \"#utility.yul\":1336:1343   */\n      dup5\n        /* \"#utility.yul\":1332:1355   */\n      sub\n        /* \"#utility.yul\":1328:1360   */\n      slt\n        /* \"#utility.yul\":1325:1444   */\n      iszero\n      tag_224\n      jumpi\n        /* \"#utility.yul\":1363:1442   */\n      tag_225\n      tag_216\n      jump\t// in\n    tag_225:\n        /* \"#utility.yul\":1325:1444   */\n    tag_224:\n        /* \"#utility.yul\":1483:1484   */\n      0x00\n        /* \"#utility.yul\":1508:1561   */\n      tag_226\n        /* \"#utility.yul\":1553:1560   */\n      dup5\n        /* \"#utility.yul\":1544:1550   */\n      dup3\n        /* \"#utility.yul\":1533:1542   */\n      dup6\n        /* \"#utility.yul\":1529:1551   */\n      add\n        /* \"#utility.yul\":1508:1561   */\n      tag_205\n      jump\t// in\n    tag_226:\n        /* \"#utility.yul\":1498:1561   */\n      swap2\n      pop\n        /* \"#utility.yul\":1454:1571   */\n      pop\n        /* \"#utility.yul\":1249:1578   */\n      swap3\n      swap2\n      pop\n      pop\n      jump\t// out\n        /* \"#utility.yul\":1584:2058   */\n    tag_69:\n        /* \"#utility.yul\":1652:1658   */\n      0x00\n        /* \"#utility.yul\":1660:1666   */\n      dup1\n        /* \"#utility.yul\":1709:1711   */\n      0x40\n        /* \"#utility.yul\":1697:1706   */\n      dup4\n        /* \"#utility.yul\":1688:1695   */\n      dup6\n        /* \"#utility.yul\":1684:1707   */\n      sub\n        /* \"#utility.yul\":1680:1712   */\n      slt\n        /* \"#utility.yul\":1677:1796   */\n      iszero\n      tag_228\n      jumpi\n        /* \"#utility.yul\":1715:1794   */\n      tag_229\n      tag_216\n      jump\t// in\n    tag_229:\n        /* \"#utility.yul\":1677:1796   */\n    tag_228:\n        /* \"#utility.yul\":1835:1836   */\n      0x00\n        /* \"#utility.yul\":1860:1913   */\n      tag_230\n        /* \"#utility.yul\":1905:1912   */\n      dup6\n        /* \"#utility.yul\":1896:1902   */\n      dup3\n        /* \"#utility.yul\":1885:1894   */\n      dup7\n        /* \"#utility.yul\":1881:1903   */\n      add\n        /* \"#utility.yul\":1860:1913   */\n      tag_205\n      jump\t// in\n    tag_230:\n        /* \"#utility.yul\":1850:1913   */\n      swap3\n      pop\n        /* \"#utility.yul\":1806:1923   */\n      pop\n        /* \"#utility.yul\":1962:1964   */\n      0x20\n        /* \"#utility.yul\":1988:2041   */\n      tag_231\n        /* \"#utility.yul\":2033:2040   */\n      dup6\n        /* \"#utility.yul\":2024:2030   */\n      dup3\n        /* \"#utility.yul\":2013:2022   */\n      dup7\n        /* \"#utility.yul\":2009:2031   */\n      add\n        /* \"#utility.yul\":1988:2041   */\n      tag_205\n      jump\t// in\n    tag_231:\n        /* \"#utility.yul\":1978:2041   */\n      swap2\n      pop\n        /* \"#utility.yul\":1933:2051   */\n      pop\n        /* \"#utility.yul\":1584:2058   */\n      swap3\n      pop\n      swap3\n      swap1\n      pop\n      jump\t// out\n        /* \"#utility.yul\":2064:2389   */\n    tag_53:\n        /* \"#utility.yul\":2121:2127   */\n      0x00\n        /* \"#utility.yul\":2170:2172   */\n      0x20\n        /* \"#utility.yul\":2158:2167   */\n      dup3\n        /* \"#utility.yul\":2149:2156   */\n      dup5\n        /* \"#utility.yul\":2145:2168   */\n      sub\n        /* \"#utility.yul\":2141:2173   */\n      slt\n        /* \"#utility.yul\":2138:2257   */\n      iszero\n      tag_233\n      jumpi\n        /* \"#utility.yul\":2176:2255   */\n      tag_234\n      tag_216\n      jump\t// in\n    tag_234:\n        /* \"#utility.yul\":2138:2257   */\n    tag_233:\n        /* \"#utility.yul\":2296:2297   */\n      0x00\n        /* \"#utility.yul\":2321:2372   */\n      tag_235\n        /* \"#utility.yul\":2364:2371   */\n      dup5\n        /* \"#utility.yul\":2355:2361   */\n      dup3\n        /* \"#utility.yul\":2344:2353   */\n      dup6\n        /* \"#utility.yul\":2340:2362   */\n      add\n        /* \"#utility.yul\":2321:2372   */\n      tag_209\n      jump\t// in\n    tag_235:\n        /* \"#utility.yul\":2311:2372   */\n      swap2\n      pop\n        /* \"#utility.yul\":2267:2382   */\n      pop\n        /* \"#utility.yul\":2064:2389   */\n      swap3\n      swap2\n      pop\n      pop\n      jump\t// out\n        /* \"#utility.yul\":2395:2865   */\n    tag_63:\n        /* \"#utility.yul\":2461:2467   */\n      0x00\n        /* \"#utility.yul\":2469:2475   */\n      dup1\n        /* \"#utility.yul\":2518:2520   */\n      0x40\n        /* \"#utility.yul\":2506:2515   */\n      dup4\n        /* \"#utility.yul\":2497:2504   */\n      dup6\n        /* \"#utility.yul\":2493:2516   */\n      sub\n        /* \"#utility.yul\":2489:2521   */\n      slt\n        /* \"#utility.yul\":2486:2605   */\n      iszero\n      tag_237\n      jumpi\n        /* \"#utility.yul\":2524:2603   */\n      tag_238\n      tag_216\n      jump\t// in\n    tag_238:\n        /* \"#utility.yul\":2486:2605   */\n    tag_237:\n        /* \"#utility.yul\":2644:2645   */\n      0x00\n        /* \"#utility.yul\":2669:2720   */\n      tag_239\n        /* \"#utility.yul\":2712:2719   */\n      dup6\n        /* \"#utility.yul\":2703:2709   */\n      dup3\n        /* \"#utility.yul\":2692:2701   */\n      dup7\n        /* \"#utility.yul\":2688:2710   */\n      add\n        /* \"#utility.yul\":2669:2720   */\n      tag_209\n      jump\t// in\n    tag_239:\n        /* \"#utility.yul\":2659:2720   */\n      swap3\n      pop\n        /* \"#utility.yul\":2615:2730   */\n      pop\n        /* \"#utility.yul\":2769:2771   */\n      0x20\n        /* \"#utility.yul\":2795:2848   */\n      tag_240\n        /* \"#utility.yul\":2840:2847   */\n      dup6\n        /* \"#utility.yul\":2831:2837   */\n      dup3\n        /* \"#utility.yul\":2820:2829   */\n      dup7\n        /* \"#utility.yul\":2816:2838   */\n      add\n        /* \"#utility.yul\":2795:2848   */\n      tag_205\n      jump\t// in\n    tag_240:\n        /* \"#utility.yul\":2785:2848   */\n      swap2\n      pop\n        /* \"#utility.yul\":2740:2858   */\n      pop\n        /* \"#utility.yul\":2395:2865   */\n      swap3\n      pop\n      swap3\n      swap1\n      pop\n      jump\t// out\n        /* \"#utility.yul\":2871:3013   */\n    tag_241:\n        /* \"#utility.yul\":2974:3006   */\n      tag_243\n        /* \"#utility.yul\":3000:3005   */\n      dup2\n        /* \"#utility.yul\":2974:3006   */\n      tag_244\n      jump\t// in\n    tag_243:\n        /* \"#utility.yul\":2969:2972   */\n      dup3\n        /* \"#utility.yul\":2962:3007   */\n      mstore\n        /* \"#utility.yul\":2871:3013   */\n      pop\n      pop\n      jump\t// out\n        /* \"#utility.yul\":3019:3137   */\n    tag_245:\n        /* \"#utility.yul\":3106:3130   */\n      tag_247\n        /* \"#utility.yul\":3124:3129   */\n      dup2\n        /* \"#utility.yul\":3106:3130   */\n      tag_248\n      jump\t// in\n    tag_247:\n        /* \"#utility.yul\":3101:3104   */\n      dup3\n        /* \"#utility.yul\":3094:3131   */\n      mstore\n        /* \"#utility.yul\":3019:3137   */\n      pop\n      pop\n      jump\t// out\n        /* \"#utility.yul\":3143:3252   */\n    tag_249:\n        /* \"#utility.yul\":3224:3245   */\n      tag_251\n        /* \"#utility.yul\":3239:3244   */\n      dup2\n        /* \"#utility.yul\":3224:3245   */\n      tag_252\n      jump\t// in\n    tag_251:\n        /* \"#utility.yul\":3219:3222   */\n      dup3\n        /* \"#utility.yul\":3212:3246   */\n      mstore\n        /* \"#utility.yul\":3143:3252   */\n      pop\n      pop\n      jump\t// out\n        /* \"#utility.yul\":3258:3624   */\n    tag_253:\n        /* \"#utility.yul\":3400:3403   */\n      0x00\n        /* \"#utility.yul\":3421:3488   */\n      tag_255\n        /* \"#utility.yul\":3485:3487   */\n      0x0e\n        /* \"#utility.yul\":3480:3483   */\n      dup4\n        /* \"#utility.yul\":3421:3488   */\n      tag_256\n      jump\t// in\n    tag_255:\n        /* \"#utility.yul\":3414:3488   */\n      swap2\n      pop\n        /* \"#utility.yul\":3497:3590   */\n      tag_257\n        /* \"#utility.yul\":3586:3589   */\n      dup3\n        /* \"#utility.yul\":3497:3590   */\n      tag_258\n      jump\t// in\n    tag_257:\n        /* \"#utility.yul\":3615:3617   */\n      0x20\n        /* \"#utility.yul\":3610:3613   */\n      dup3\n        /* \"#utility.yul\":3606:3618   */\n      add\n        /* \"#utility.yul\":3599:3618   */\n      swap1\n      pop\n        /* \"#utility.yul\":3258:3624   */\n      swap2\n      swap1\n      pop\n      jump\t// out\n        /* \"#utility.yul\":3630:4028   */\n    tag_259:\n        /* \"#utility.yul\":3789:3792   */\n      0x00\n        /* \"#utility.yul\":3810:3893   */\n      tag_261\n        /* \"#utility.yul\":3891:3892   */\n      0x00\n        /* \"#utility.yul\":3886:3889   */\n      dup4\n        /* \"#utility.yul\":3810:3893   */\n      tag_262\n      jump\t// in\n    tag_261:\n        /* \"#utility.yul\":3803:3893   */\n      swap2\n      pop\n        /* \"#utility.yul\":3902:3995   */\n      tag_263\n        /* \"#utility.yul\":3991:3994   */\n      dup3\n        /* \"#utility.yul\":3902:3995   */\n      tag_264\n      jump\t// in\n    tag_263:\n        /* \"#utility.yul\":4020:4021   */\n      0x00\n        /* \"#utility.yul\":4015:4018   */\n      dup3\n        /* \"#utility.yul\":4011:4022   */\n      add\n        /* \"#utility.yul\":4004:4022   */\n      swap1\n      pop\n        /* \"#utility.yul\":3630:4028   */\n      swap2\n      swap1\n      pop\n      jump\t// out\n        /* \"#utility.yul\":4034:4400   */\n    tag_265:\n        /* \"#utility.yul\":4176:4179   */\n      0x00\n        /* \"#utility.yul\":4197:4264   */\n      tag_267\n        /* \"#utility.yul\":4261:4263   */\n      0x23\n        /* \"#utility.yul\":4256:4259   */\n      dup4\n        /* \"#utility.yul\":4197:4264   */\n      tag_256\n      jump\t// in\n    tag_267:\n        /* \"#utility.yul\":4190:4264   */\n      swap2\n      pop\n        /* \"#utility.yul\":4273:4366   */\n      tag_268\n        /* \"#utility.yul\":4362:4365   */\n      dup3\n        /* \"#utility.yul\":4273:4366   */\n      tag_269\n      jump\t// in\n    tag_268:\n        /* \"#utility.yul\":4391:4393   */\n      0x40\n        /* \"#utility.yul\":4386:4389   */\n      dup3\n        /* \"#utility.yul\":4382:4394   */\n      add\n        /* \"#utility.yul\":4375:4394   */\n      swap1\n      pop\n        /* \"#utility.yul\":4034:4400   */\n      swap2\n      swap1\n      pop\n      jump\t// out\n        /* \"#utility.yul\":4406:4772   */\n    tag_270:\n        /* \"#utility.yul\":4548:4551   */\n      0x00\n        /* \"#utility.yul\":4569:4636   */\n      tag_272\n        /* \"#utility.yul\":4633:4635   */\n      0x28\n        /* \"#utility.yul\":4628:4631   */\n      dup4\n        /* \"#utility.yul\":4569:4636   */\n      tag_256\n      jump\t// in\n    tag_272:\n        /* \"#utility.yul\":4562:4636   */\n      swap2\n      pop\n        /* \"#utility.yul\":4645:4738   */\n      tag_273\n        /* \"#utility.yul\":4734:4737   */\n      dup3\n        /* \"#utility.yul\":4645:4738   */\n      tag_274\n      jump\t// in\n    tag_273:\n        /* \"#utility.yul\":4763:4765   */\n      0x40\n        /* \"#utility.yul\":4758:4761   */\n      dup3\n        /* \"#utility.yul\":4754:4766   */\n      add\n        /* \"#utility.yul\":4747:4766   */\n      swap1\n      pop\n        /* \"#utility.yul\":4406:4772   */\n      swap2\n      swap1\n      pop\n      jump\t// out\n        /* \"#utility.yul\":4778:5144   */\n    tag_275:\n        /* \"#utility.yul\":4920:4923   */\n      0x00\n        /* \"#utility.yul\":4941:5008   */\n      tag_277\n        /* \"#utility.yul\":5005:5007   */\n      0x0c\n        /* \"#utility.yul\":5000:5003   */\n      dup4\n        /* \"#utility.yul\":4941:5008   */\n      tag_256\n      jump\t// in\n    tag_277:\n        /* \"#utility.yul\":4934:5008   */\n      swap2\n      pop\n        /* \"#utility.yul\":5017:5110   */\n      tag_278\n        /* \"#utility.yul\":5106:5109   */\n      dup3\n        /* \"#utility.yul\":5017:5110   */\n      tag_279\n      jump\t// in\n    tag_278:\n        /* \"#utility.yul\":5135:5137   */\n      0x20\n        /* \"#utility.yul\":5130:5133   */\n      dup3\n        /* \"#utility.yul\":5126:5138   */\n      add\n        /* \"#utility.yul\":5119:5138   */\n      swap1\n      pop\n        /* \"#utility.yul\":4778:5144   */\n      swap2\n      swap1\n      pop\n      jump\t// out\n        /* \"#utility.yul\":5200:5895   */\n    tag_280:\n        /* \"#utility.yul\":5334:5338   */\n      0x40\n        /* \"#utility.yul\":5329:5332   */\n      dup3\n        /* \"#utility.yul\":5325:5339   */\n      add\n        /* \"#utility.yul\":5365:5366   */\n      0x00\n        /* \"#utility.yul\":5447:5451   */\n      dup1\n        /* \"#utility.yul\":5440:5445   */\n      dup4\n        /* \"#utility.yul\":5436:5452   */\n      add\n        /* \"#utility.yul\":5430:5453   */\n      sload\n        /* \"#utility.yul\":5417:5453   */\n      swap1\n      pop\n        /* \"#utility.yul\":5486:5541   */\n      tag_282\n        /* \"#utility.yul\":5531:5540   */\n      dup2\n        /* \"#utility.yul\":5486:5541   */\n      tag_283\n      jump\t// in\n    tag_282:\n        /* \"#utility.yul\":5554:5617   */\n      tag_284\n        /* \"#utility.yul\":5611:5615   */\n      0x00\n        /* \"#utility.yul\":5606:5609   */\n      dup7\n        /* \"#utility.yul\":5602:5616   */\n      add\n        /* \"#utility.yul\":5588:5600   */\n      dup3\n        /* \"#utility.yul\":5554:5617   */\n      tag_285\n      jump\t// in\n    tag_284:\n        /* \"#utility.yul\":5376:5627   */\n      pop\n        /* \"#utility.yul\":5708:5712   */\n      0x01\n        /* \"#utility.yul\":5701:5706   */\n      dup4\n        /* \"#utility.yul\":5697:5713   */\n      add\n        /* \"#utility.yul\":5691:5714   */\n      sload\n        /* \"#utility.yul\":5678:5714   */\n      swap1\n      pop\n        /* \"#utility.yul\":5747:5802   */\n      tag_286\n        /* \"#utility.yul\":5792:5801   */\n      dup2\n        /* \"#utility.yul\":5747:5802   */\n      tag_283\n      jump\t// in\n    tag_286:\n        /* \"#utility.yul\":5815:5878   */\n      tag_287\n        /* \"#utility.yul\":5872:5876   */\n      0x20\n        /* \"#utility.yul\":5867:5870   */\n      dup7\n        /* \"#utility.yul\":5863:5877   */\n      add\n        /* \"#utility.yul\":5849:5861   */\n      dup3\n        /* \"#utility.yul\":5815:5878   */\n      tag_285\n      jump\t// in\n    tag_287:\n        /* \"#utility.yul\":5637:5888   */\n      pop\n        /* \"#utility.yul\":5303:5895   */\n      pop\n      pop\n        /* \"#utility.yul\":5200:5895   */\n      pop\n      pop\n      jump\t// out\n        /* \"#utility.yul\":5901:6009   */\n    tag_285:\n        /* \"#utility.yul\":5978:6002   */\n      tag_289\n        /* \"#utility.yul\":5996:6001   */\n      dup2\n        /* \"#utility.yul\":5978:6002   */\n      tag_290\n      jump\t// in\n    tag_289:\n        /* \"#utility.yul\":5973:5976   */\n      dup3\n        /* \"#utility.yul\":5966:6003   */\n      mstore\n        /* \"#utility.yul\":5901:6009   */\n      pop\n      pop\n      jump\t// out\n        /* \"#utility.yul\":6015:6133   */\n    tag_291:\n        /* \"#utility.yul\":6102:6126   */\n      tag_293\n        /* \"#utility.yul\":6120:6125   */\n      dup2\n        /* \"#utility.yul\":6102:6126   */\n      tag_290\n      jump\t// in\n    tag_293:\n        /* \"#utility.yul\":6097:6100   */\n      dup3\n        /* \"#utility.yul\":6090:6127   */\n      mstore\n        /* \"#utility.yul\":6015:6133   */\n      pop\n      pop\n      jump\t// out\n        /* \"#utility.yul\":6139:6251   */\n    tag_294:\n        /* \"#utility.yul\":6222:6244   */\n      tag_296\n        /* \"#utility.yul\":6238:6243   */\n      dup2\n        /* \"#utility.yul\":6222:6244   */\n      tag_297\n      jump\t// in\n    tag_296:\n        /* \"#utility.yul\":6217:6220   */\n      dup3\n        /* \"#utility.yul\":6210:6245   */\n      mstore\n        /* \"#utility.yul\":6139:6251   */\n      pop\n      pop\n      jump\t// out\n        /* \"#utility.yul\":6257:6636   */\n    tag_160:\n        /* \"#utility.yul\":6441:6444   */\n      0x00\n        /* \"#utility.yul\":6463:6610   */\n      tag_299\n        /* \"#utility.yul\":6606:6609   */\n      dup3\n        /* \"#utility.yul\":6463:6610   */\n      tag_259\n      jump\t// in\n    tag_299:\n        /* \"#utility.yul\":6456:6610   */\n      swap2\n      pop\n        /* \"#utility.yul\":6627:6630   */\n      dup2\n        /* \"#utility.yul\":6620:6630   */\n      swap1\n      pop\n        /* \"#utility.yul\":6257:6636   */\n      swap2\n      swap1\n      pop\n      jump\t// out\n        /* \"#utility.yul\":6642:6864   */\n    tag_97:\n        /* \"#utility.yul\":6735:6739   */\n      0x00\n        /* \"#utility.yul\":6773:6775   */\n      0x20\n        /* \"#utility.yul\":6762:6771   */\n      dup3\n        /* \"#utility.yul\":6758:6776   */\n      add\n        /* \"#utility.yul\":6750:6776   */\n      swap1\n      pop\n        /* \"#utility.yul\":6786:6857   */\n      tag_301\n        /* \"#utility.yul\":6854:6855   */\n      0x00\n        /* \"#utility.yul\":6843:6852   */\n      dup4\n        /* \"#utility.yul\":6839:6856   */\n      add\n        /* \"#utility.yul\":6830:6836   */\n      dup5\n        /* \"#utility.yul\":6786:6857   */\n      tag_245\n      jump\t// in\n    tag_301:\n        /* \"#utility.yul\":6642:6864   */\n      swap3\n      swap2\n      pop\n      pop\n      jump\t// out\n        /* \"#utility.yul\":6870:7080   */\n    tag_50:\n        /* \"#utility.yul\":6957:6961   */\n      0x00\n        /* \"#utility.yul\":6995:6997   */\n      0x20\n        /* \"#utility.yul\":6984:6993   */\n      dup3\n        /* \"#utility.yul\":6980:6998   */\n      add\n        /* \"#utility.yul\":6972:6998   */\n      swap1\n      pop\n        /* \"#utility.yul\":7008:7073   */\n      tag_303\n        /* \"#utility.yul\":7070:7071   */\n      0x00\n        /* \"#utility.yul\":7059:7068   */\n      dup4\n        /* \"#utility.yul\":7055:7072   */\n      add\n        /* \"#utility.yul\":7046:7052   */\n      dup5\n        /* \"#utility.yul\":7008:7073   */\n      tag_249\n      jump\t// in\n    tag_303:\n        /* \"#utility.yul\":6870:7080   */\n      swap3\n      swap2\n      pop\n      pop\n      jump\t// out\n        /* \"#utility.yul\":7086:7505   */\n    tag_114:\n        /* \"#utility.yul\":7252:7256   */\n      0x00\n        /* \"#utility.yul\":7290:7292   */\n      0x20\n        /* \"#utility.yul\":7279:7288   */\n      dup3\n        /* \"#utility.yul\":7275:7293   */\n      add\n        /* \"#utility.yul\":7267:7293   */\n      swap1\n      pop\n        /* \"#utility.yul\":7339:7348   */\n      dup2\n        /* \"#utility.yul\":7333:7337   */\n      dup2\n        /* \"#utility.yul\":7329:7349   */\n      sub\n        /* \"#utility.yul\":7325:7326   */\n      0x00\n        /* \"#utility.yul\":7314:7323   */\n      dup4\n        /* \"#utility.yul\":7310:7327   */\n      add\n        /* \"#utility.yul\":7303:7350   */\n      mstore\n        /* \"#utility.yul\":7367:7498   */\n      tag_305\n        /* \"#utility.yul\":7493:7497   */\n      dup2\n        /* \"#utility.yul\":7367:7498   */\n      tag_253\n      jump\t// in\n    tag_305:\n        /* \"#utility.yul\":7359:7498   */\n      swap1\n      pop\n        /* \"#utility.yul\":7086:7505   */\n      swap2\n      swap1\n      pop\n      jump\t// out\n        /* \"#utility.yul\":7511:7930   */\n    tag_146:\n        /* \"#utility.yul\":7677:7681   */\n      0x00\n        /* \"#utility.yul\":7715:7717   */\n      0x20\n        /* \"#utility.yul\":7704:7713   */\n      dup3\n        /* \"#utility.yul\":7700:7718   */\n      add\n        /* \"#utility.yul\":7692:7718   */\n      swap1\n      pop\n        /* \"#utility.yul\":7764:7773   */\n      dup2\n        /* \"#utility.yul\":7758:7762   */\n      dup2\n        /* \"#utility.yul\":7754:7774   */\n      sub\n        /* \"#utility.yul\":7750:7751   */\n      0x00\n        /* \"#utility.yul\":7739:7748   */\n      dup4\n        /* \"#utility.yul\":7735:7752   */\n      add\n        /* \"#utility.yul\":7728:7775   */\n      mstore\n        /* \"#utility.yul\":7792:7923   */\n      tag_307\n        /* \"#utility.yul\":7918:7922   */\n      dup2\n        /* \"#utility.yul\":7792:7923   */\n      tag_265\n      jump\t// in\n    tag_307:\n        /* \"#utility.yul\":7784:7923   */\n      swap1\n      pop\n        /* \"#utility.yul\":7511:7930   */\n      swap2\n      swap1\n      pop\n      jump\t// out\n        /* \"#utility.yul\":7936:8355   */\n    tag_124:\n        /* \"#utility.yul\":8102:8106   */\n      0x00\n        /* \"#utility.yul\":8140:8142   */\n      0x20\n        /* \"#utility.yul\":8129:8138   */\n      dup3\n        /* \"#utility.yul\":8125:8143   */\n      add\n        /* \"#utility.yul\":8117:8143   */\n      swap1\n      pop\n        /* \"#utility.yul\":8189:8198   */\n      dup2\n        /* \"#utility.yul\":8183:8187   */\n      dup2\n        /* \"#utility.yul\":8179:8199   */\n      sub\n        /* \"#utility.yul\":8175:8176   */\n      0x00\n        /* \"#utility.yul\":8164:8173   */\n      dup4\n        /* \"#utility.yul\":8160:8177   */\n      add\n        /* \"#utility.yul\":8153:8200   */\n      mstore\n        /* \"#utility.yul\":8217:8348   */\n      tag_309\n        /* \"#utility.yul\":8343:8347   */\n      dup2\n        /* \"#utility.yul\":8217:8348   */\n      tag_270\n      jump\t// in\n    tag_309:\n        /* \"#utility.yul\":8209:8348   */\n      swap1\n      pop\n        /* \"#utility.yul\":7936:8355   */\n      swap2\n      swap1\n      pop\n      jump\t// out\n        /* \"#utility.yul\":8361:8780   */\n    tag_120:\n        /* \"#utility.yul\":8527:8531   */\n      0x00\n        /* \"#utility.yul\":8565:8567   */\n      0x20\n        /* \"#utility.yul\":8554:8563   */\n      dup3\n        /* \"#utility.yul\":8550:8568   */\n      add\n        /* \"#utility.yul\":8542:8568   */\n      swap1\n      pop\n        /* \"#utility.yul\":8614:8623   */\n      dup2\n        /* \"#utility.yul\":8608:8612   */\n      dup2\n        /* \"#utility.yul\":8604:8624   */\n      sub\n        /* \"#utility.yul\":8600:8601   */\n      0x00\n        /* \"#utility.yul\":8589:8598   */\n      dup4\n        /* \"#utility.yul\":8585:8602   */\n      add\n        /* \"#utility.yul\":8578:8625   */\n      mstore\n        /* \"#utility.yul\":8642:8773   */\n      tag_311\n        /* \"#utility.yul\":8768:8772   */\n      dup2\n        /* \"#utility.yul\":8642:8773   */\n      tag_275\n      jump\t// in\n    tag_311:\n        /* \"#utility.yul\":8634:8773   */\n      swap1\n      pop\n        /* \"#utility.yul\":8361:8780   */\n      swap2\n      swap1\n      pop\n      jump\t// out\n        /* \"#utility.yul\":8786:9082   */\n    tag_140:\n        /* \"#utility.yul\":8916:8920   */\n      0x00\n        /* \"#utility.yul\":8954:8956   */\n      0x40\n        /* \"#utility.yul\":8943:8952   */\n      dup3\n        /* \"#utility.yul\":8939:8957   */\n      add\n        /* \"#utility.yul\":8931:8957   */\n      swap1\n      pop\n        /* \"#utility.yul\":8967:9075   */\n      tag_313\n        /* \"#utility.yul\":9072:9073   */\n      0x00\n        /* \"#utility.yul\":9061:9070   */\n      dup4\n        /* \"#utility.yul\":9057:9074   */\n      add\n        /* \"#utility.yul\":9048:9054   */\n      dup5\n        /* \"#utility.yul\":8967:9075   */\n      tag_280\n      jump\t// in\n    tag_313:\n        /* \"#utility.yul\":8786:9082   */\n      swap3\n      swap2\n      pop\n      pop\n      jump\t// out\n        /* \"#utility.yul\":9088:9593   */\n    tag_166:\n        /* \"#utility.yul\":9268:9272   */\n      0x00\n        /* \"#utility.yul\":9306:9309   */\n      0x80\n        /* \"#utility.yul\":9295:9304   */\n      dup3\n        /* \"#utility.yul\":9291:9310   */\n      add\n        /* \"#utility.yul\":9283:9310   */\n      swap1\n      pop\n        /* \"#utility.yul\":9320:9428   */\n      tag_315\n        /* \"#utility.yul\":9425:9426   */\n      0x00\n        /* \"#utility.yul\":9414:9423   */\n      dup4\n        /* \"#utility.yul\":9410:9427   */\n      add\n        /* \"#utility.yul\":9401:9407   */\n      dup7\n        /* \"#utility.yul\":9320:9428   */\n      tag_280\n      jump\t// in\n    tag_315:\n        /* \"#utility.yul\":9438:9510   */\n      tag_316\n        /* \"#utility.yul\":9506:9508   */\n      0x40\n        /* \"#utility.yul\":9495:9504   */\n      dup4\n        /* \"#utility.yul\":9491:9509   */\n      add\n        /* \"#utility.yul\":9482:9488   */\n      dup6\n        /* \"#utility.yul\":9438:9510   */\n      tag_245\n      jump\t// in\n    tag_316:\n        /* \"#utility.yul\":9520:9586   */\n      tag_317\n        /* \"#utility.yul\":9582:9584   */\n      0x60\n        /* \"#utility.yul\":9571:9580   */\n      dup4\n        /* \"#utility.yul\":9567:9585   */\n      add\n        /* \"#utility.yul\":9558:9564   */\n      dup5\n        /* \"#utility.yul\":9520:9586   */\n      tag_249\n      jump\t// in\n    tag_317:\n        /* \"#utility.yul\":9088:9593   */\n      swap5\n      swap4\n      pop\n      pop\n      pop\n      pop\n      jump\t// out\n        /* \"#utility.yul\":9599:10227   */\n    tag_175:\n        /* \"#utility.yul\":9813:9817   */\n      0x00\n        /* \"#utility.yul\":9851:9854   */\n      0xa0\n        /* \"#utility.yul\":9840:9849   */\n      dup3\n        /* \"#utility.yul\":9836:9855   */\n      add\n        /* \"#utility.yul\":9828:9855   */\n      swap1\n      pop\n        /* \"#utility.yul\":9865:9973   */\n      tag_319\n        /* \"#utility.yul\":9970:9971   */\n      0x00\n        /* \"#utility.yul\":9959:9968   */\n      dup4\n        /* \"#utility.yul\":9955:9972   */\n      add\n        /* \"#utility.yul\":9946:9952   */\n      dup8\n        /* \"#utility.yul\":9865:9973   */\n      tag_280\n      jump\t// in\n    tag_319:\n        /* \"#utility.yul\":9983:10055   */\n      tag_320\n        /* \"#utility.yul\":10051:10053   */\n      0x40\n        /* \"#utility.yul\":10040:10049   */\n      dup4\n        /* \"#utility.yul\":10036:10054   */\n      add\n        /* \"#utility.yul\":10027:10033   */\n      dup7\n        /* \"#utility.yul\":9983:10055   */\n      tag_291\n      jump\t// in\n    tag_320:\n        /* \"#utility.yul\":10065:10137   */\n      tag_321\n        /* \"#utility.yul\":10133:10135   */\n      0x60\n        /* \"#utility.yul\":10122:10131   */\n      dup4\n        /* \"#utility.yul\":10118:10136   */\n      add\n        /* \"#utility.yul\":10109:10115   */\n      dup6\n        /* \"#utility.yul\":10065:10137   */\n      tag_291\n      jump\t// in\n    tag_321:\n        /* \"#utility.yul\":10147:10220   */\n      tag_322\n        /* \"#utility.yul\":10215:10218   */\n      0x80\n        /* \"#utility.yul\":10204:10213   */\n      dup4\n        /* \"#utility.yul\":10200:10219   */\n      add\n        /* \"#utility.yul\":10191:10197   */\n      dup5\n        /* \"#utility.yul\":10147:10220   */\n      tag_291\n      jump\t// in\n    tag_322:\n        /* \"#utility.yul\":9599:10227   */\n      swap6\n      swap5\n      pop\n      pop\n      pop\n      pop\n      pop\n      jump\t// out\n        /* \"#utility.yul\":10233:10455   */\n    tag_43:\n        /* \"#utility.yul\":10326:10330   */\n      0x00\n        /* \"#utility.yul\":10364:10366   */\n      0x20\n        /* \"#utility.yul\":10353:10362   */\n      dup3\n        /* \"#utility.yul\":10349:10367   */\n      add\n        /* \"#utility.yul\":10341:10367   */\n      swap1\n      pop\n        /* \"#utility.yul\":10377:10448   */\n      tag_324\n        /* \"#utility.yul\":10445:10446   */\n      0x00\n        /* \"#utility.yul\":10434:10443   */\n      dup4\n        /* \"#utility.yul\":10430:10447   */\n      add\n        /* \"#utility.yul\":10421:10427   */\n      dup5\n        /* \"#utility.yul\":10377:10448   */\n      tag_291\n      jump\t// in\n    tag_324:\n        /* \"#utility.yul\":10233:10455   */\n      swap3\n      swap2\n      pop\n      pop\n      jump\t// out\n        /* \"#utility.yul\":10461:10935   */\n    tag_37:\n        /* \"#utility.yul\":10626:10630   */\n      0x00\n        /* \"#utility.yul\":10664:10666   */\n      0x60\n        /* \"#utility.yul\":10653:10662   */\n      dup3\n        /* \"#utility.yul\":10649:10667   */\n      add\n        /* \"#utility.yul\":10641:10667   */\n      swap1\n      pop\n        /* \"#utility.yul\":10677:10748   */\n      tag_326\n        /* \"#utility.yul\":10745:10746   */\n      0x00\n        /* \"#utility.yul\":10734:10743   */\n      dup4\n        /* \"#utility.yul\":10730:10747   */\n      add\n        /* \"#utility.yul\":10721:10727   */\n      dup7\n        /* \"#utility.yul\":10677:10748   */\n      tag_291\n      jump\t// in\n    tag_326:\n        /* \"#utility.yul\":10758:10846   */\n      tag_327\n        /* \"#utility.yul\":10842:10844   */\n      0x20\n        /* \"#utility.yul\":10831:10840   */\n      dup4\n        /* \"#utility.yul\":10827:10845   */\n      add\n        /* \"#utility.yul\":10818:10824   */\n      dup6\n        /* \"#utility.yul\":10758:10846   */\n      tag_241\n      jump\t// in\n    tag_327:\n        /* \"#utility.yul\":10856:10928   */\n      tag_328\n        /* \"#utility.yul\":10924:10926   */\n      0x40\n        /* \"#utility.yul\":10913:10922   */\n      dup4\n        /* \"#utility.yul\":10909:10927   */\n      add\n        /* \"#utility.yul\":10900:10906   */\n      dup5\n        /* \"#utility.yul\":10856:10928   */\n      tag_291\n      jump\t// in\n    tag_328:\n        /* \"#utility.yul\":10461:10935   */\n      swap5\n      swap4\n      pop\n      pop\n      pop\n      pop\n      jump\t// out\n        /* \"#utility.yul\":10941:11273   */\n    tag_76:\n        /* \"#utility.yul\":11062:11066   */\n      0x00\n        /* \"#utility.yul\":11100:11102   */\n      0x40\n        /* \"#utility.yul\":11089:11098   */\n      dup3\n        /* \"#utility.yul\":11085:11103   */\n      add\n        /* \"#utility.yul\":11077:11103   */\n      swap1\n      pop\n        /* \"#utility.yul\":11113:11184   */\n      tag_330\n        /* \"#utility.yul\":11181:11182   */\n      0x00\n        /* \"#utility.yul\":11170:11179   */\n      dup4\n        /* \"#utility.yul\":11166:11183   */\n      add\n        /* \"#utility.yul\":11157:11163   */\n      dup6\n        /* \"#utility.yul\":11113:11184   */\n      tag_291\n      jump\t// in\n    tag_330:\n        /* \"#utility.yul\":11194:11266   */\n      tag_331\n        /* \"#utility.yul\":11262:11264   */\n      0x20\n        /* \"#utility.yul\":11251:11260   */\n      dup4\n        /* \"#utility.yul\":11247:11265   */\n      add\n        /* \"#utility.yul\":11238:11244   */\n      dup5\n        /* \"#utility.yul\":11194:11266   */\n      tag_291\n      jump\t// in\n    tag_331:\n        /* \"#utility.yul\":10941:11273   */\n      swap4\n      swap3\n      pop\n      pop\n      pop\n      jump\t// out\n        /* \"#utility.yul\":11279:11493   */\n    tag_91:\n        /* \"#utility.yul\":11368:11372   */\n      0x00\n        /* \"#utility.yul\":11406:11408   */\n      0x20\n        /* \"#utility.yul\":11395:11404   */\n      dup3\n        /* \"#utility.yul\":11391:11409   */\n      add\n        /* \"#utility.yul\":11383:11409   */\n      swap1\n      pop\n        /* \"#utility.yul\":11419:11486   */\n      tag_333\n        /* \"#utility.yul\":11483:11484   */\n      0x00\n        /* \"#utility.yul\":11472:11481   */\n      dup4\n        /* \"#utility.yul\":11468:11485   */\n      add\n        /* \"#utility.yul\":11459:11465   */\n      dup5\n        /* \"#utility.yul\":11419:11486   */\n      tag_294\n      jump\t// in\n    tag_333:\n        /* \"#utility.yul\":11279:11493   */\n      swap3\n      swap2\n      pop\n      pop\n      jump\t// out\n        /* \"#utility.yul\":11580:11727   */\n    tag_262:\n        /* \"#utility.yul\":11681:11692   */\n      0x00\n        /* \"#utility.yul\":11718:11721   */\n      dup2\n        /* \"#utility.yul\":11703:11721   */\n      swap1\n      pop\n        /* \"#utility.yul\":11580:11727   */\n      swap3\n      swap2\n      pop\n      pop\n      jump\t// out\n        /* \"#utility.yul\":11733:11902   */\n    tag_256:\n        /* \"#utility.yul\":11817:11828   */\n      0x00\n        /* \"#utility.yul\":11851:11857   */\n      dup3\n        /* \"#utility.yul\":11846:11849   */\n      dup3\n        /* \"#utility.yul\":11839:11858   */\n      mstore\n        /* \"#utility.yul\":11891:11895   */\n      0x20\n        /* \"#utility.yul\":11886:11889   */\n      dup3\n        /* \"#utility.yul\":11882:11896   */\n      add\n        /* \"#utility.yul\":11867:11896   */\n      swap1\n      pop\n        /* \"#utility.yul\":11733:11902   */\n      swap3\n      swap2\n      pop\n      pop\n      jump\t// out\n        /* \"#utility.yul\":11908:12213   */\n    tag_126:\n        /* \"#utility.yul\":11948:11951   */\n      0x00\n        /* \"#utility.yul\":11967:11987   */\n      tag_339\n        /* \"#utility.yul\":11985:11986   */\n      dup3\n        /* \"#utility.yul\":11967:11987   */\n      tag_290\n      jump\t// in\n    tag_339:\n        /* \"#utility.yul\":11962:11987   */\n      swap2\n      pop\n        /* \"#utility.yul\":12001:12021   */\n      tag_340\n        /* \"#utility.yul\":12019:12020   */\n      dup4\n        /* \"#utility.yul\":12001:12021   */\n      tag_290\n      jump\t// in\n    tag_340:\n        /* \"#utility.yul\":11996:12021   */\n      swap3\n      pop\n        /* \"#utility.yul\":12155:12156   */\n      dup3\n        /* \"#utility.yul\":12087:12153   */\n      0xffffffffffffffffffffffffffffffffffffffffffffffffffffffffffffffff\n        /* \"#utility.yul\":12083:12157   */\n      sub\n        /* \"#utility.yul\":12080:12081   */\n      dup3\n        /* \"#utility.yul\":12077:12158   */\n      gt\n        /* \"#utility.yul\":12074:12181   */\n      iszero\n      tag_341\n      jumpi\n        /* \"#utility.yul\":12161:12179   */\n      tag_342\n      tag_343\n      jump\t// in\n    tag_342:\n        /* \"#utility.yul\":12074:12181   */\n    tag_341:\n        /* \"#utility.yul\":12205:12206   */\n      dup3\n        /* \"#utility.yul\":12202:12203   */\n      dup3\n        /* \"#utility.yul\":12198:12207   */\n      add\n        /* \"#utility.yul\":12191:12207   */\n      swap1\n      pop\n        /* \"#utility.yul\":11908:12213   */\n      swap3\n      swap2\n      pop\n      pop\n      jump\t// out\n        /* \"#utility.yul\":12219:12456   */\n    tag_108:\n        /* \"#utility.yul\":12257:12260   */\n      0x00\n        /* \"#utility.yul\":12276:12294   */\n      tag_345\n        /* \"#utility.yul\":12292:12293   */\n      dup3\n        /* \"#utility.yul\":12276:12294   */\n      tag_297\n      jump\t// in\n    tag_345:\n        /* \"#utility.yul\":12271:12294   */\n      swap2\n      pop\n        /* \"#utility.yul\":12308:12326   */\n      tag_346\n        /* \"#utility.yul\":12324:12325   */\n      dup4\n        /* \"#utility.yul\":12308:12326   */\n      tag_297\n      jump\t// in\n    tag_346:\n        /* \"#utility.yul\":12303:12326   */\n      swap3\n      pop\n        /* \"#utility.yul\":12398:12399   */\n      dup3\n        /* \"#utility.yul\":12392:12396   */\n      0xff\n        /* \"#utility.yul\":12388:12400   */\n      sub\n        /* \"#utility.yul\":12385:12386   */\n      dup3\n        /* \"#utility.yul\":12382:12401   */\n      gt\n        /* \"#utility.yul\":12379:12424   */\n      iszero\n      tag_347\n      jumpi\n        /* \"#utility.yul\":12404:12422   */\n      tag_348\n      tag_343\n      jump\t// in\n    tag_348:\n        /* \"#utility.yul\":12379:12424   */\n    tag_347:\n        /* \"#utility.yul\":12448:12449   */\n      dup3\n        /* \"#utility.yul\":12445:12446   */\n      dup3\n        /* \"#utility.yul\":12441:12450   */\n      add\n        /* \"#utility.yul\":12434:12450   */\n      swap1\n      pop\n        /* \"#utility.yul\":12219:12456   */\n      swap3\n      swap2\n      pop\n      pop\n      jump\t// out\n        /* \"#utility.yul\":12462:12647   */\n    tag_129:\n        /* \"#utility.yul\":12502:12503   */\n      0x00\n        /* \"#utility.yul\":12519:12539   */\n      tag_350\n        /* \"#utility.yul\":12537:12538   */\n      dup3\n        /* \"#utility.yul\":12519:12539   */\n      tag_290\n      jump\t// in\n    tag_350:\n        /* \"#utility.yul\":12514:12539   */\n      swap2\n      pop\n        /* \"#utility.yul\":12553:12573   */\n      tag_351\n        /* \"#utility.yul\":12571:12572   */\n      dup4\n        /* \"#utility.yul\":12553:12573   */\n      tag_290\n      jump\t// in\n    tag_351:\n        /* \"#utility.yul\":12548:12573   */\n      swap3\n      pop\n        /* \"#utility.yul\":12592:12593   */\n      dup3\n        /* \"#utility.yul\":12582:12617   */\n      tag_352\n      jumpi\n        /* \"#utility.yul\":12597:12615   */\n      tag_353\n      tag_354\n      jump\t// in\n    tag_353:\n        /* \"#utility.yul\":12582:12617   */\n    tag_352:\n        /* \"#utility.yul\":12639:12640   */\n      dup3\n        /* \"#utility.yul\":12636:12637   */\n      dup3\n        /* \"#utility.yul\":12632:12641   */\n      div\n        /* \"#utility.yul\":12627:12641   */\n      swap1\n      pop\n        /* \"#utility.yul\":12462:12647   */\n      swap3\n      swap2\n      pop\n      pop\n      jump\t// out\n        /* \"#utility.yul\":12653:13001   */\n    tag_157:\n        /* \"#utility.yul\":12693:12700   */\n      0x00\n        /* \"#utility.yul\":12716:12736   */\n      tag_356\n        /* \"#utility.yul\":12734:12735   */\n      dup3\n        /* \"#utility.yul\":12716:12736   */\n      tag_290\n      jump\t// in\n    tag_356:\n        /* \"#utility.yul\":12711:12736   */\n      swap2\n      pop\n        /* \"#utility.yul\":12750:12770   */\n      tag_357\n        /* \"#utility.yul\":12768:12769   */\n      dup4\n        /* \"#utility.yul\":12750:12770   */\n      tag_290\n      jump\t// in\n    tag_357:\n        /* \"#utility.yul\":12745:12770   */\n      swap3\n      pop\n        /* \"#utility.yul\":12938:12939   */\n      dup2\n        /* \"#utility.yul\":12870:12936   */\n      0xffffffffffffffffffffffffffffffffffffffffffffffffffffffffffffffff\n        /* \"#utility.yul\":12866:12940   */\n      div\n        /* \"#utility.yul\":12863:12864   */\n      dup4\n        /* \"#utility.yul\":12860:12941   */\n      gt\n        /* \"#utility.yul\":12855:12856   */\n      dup3\n        /* \"#utility.yul\":12848:12857   */\n      iszero\n        /* \"#utility.yul\":12841:12858   */\n      iszero\n        /* \"#utility.yul\":12837:12942   */\n      and\n        /* \"#utility.yul\":12834:12965   */\n      iszero\n      tag_358\n      jumpi\n        /* \"#utility.yul\":12945:12963   */\n      tag_359\n      tag_343\n      jump\t// in\n    tag_359:\n        /* \"#utility.yul\":12834:12965   */\n    tag_358:\n        /* \"#utility.yul\":12993:12994   */\n      dup3\n        /* \"#utility.yul\":12990:12991   */\n      dup3\n        /* \"#utility.yul\":12986:12995   */\n      mul\n        /* \"#utility.yul\":12975:12995   */\n      swap1\n      pop\n        /* \"#utility.yul\":12653:13001   */\n      swap3\n      swap2\n      pop\n      pop\n      jump\t// out\n        /* \"#utility.yul\":13007:13097   */\n    tag_360:\n        /* \"#utility.yul\":13057:13064   */\n      0x00\n        /* \"#utility.yul\":13086:13091   */\n      dup2\n        /* \"#utility.yul\":13075:13091   */\n      swap1\n      pop\n        /* \"#utility.yul\":13007:13097   */\n      swap2\n      swap1\n      pop\n      jump\t// out\n        /* \"#utility.yul\":13103:13199   */\n    tag_248:\n        /* \"#utility.yul\":13140:13147   */\n      0x00\n        /* \"#utility.yul\":13169:13193   */\n      tag_363\n        /* \"#utility.yul\":13187:13192   */\n      dup3\n        /* \"#utility.yul\":13169:13193   */\n      tag_364\n      jump\t// in\n    tag_363:\n        /* \"#utility.yul\":13158:13193   */\n      swap1\n      pop\n        /* \"#utility.yul\":13103:13199   */\n      swap2\n      swap1\n      pop\n      jump\t// out\n        /* \"#utility.yul\":13205:13309   */\n    tag_244:\n        /* \"#utility.yul\":13250:13257   */\n      0x00\n        /* \"#utility.yul\":13279:13303   */\n      tag_366\n        /* \"#utility.yul\":13297:13302   */\n      dup3\n        /* \"#utility.yul\":13279:13303   */\n      tag_364\n      jump\t// in\n    tag_366:\n        /* \"#utility.yul\":13268:13303   */\n      swap1\n      pop\n        /* \"#utility.yul\":13205:13309   */\n      swap2\n      swap1\n      pop\n      jump\t// out\n        /* \"#utility.yul\":13315:13405   */\n    tag_252:\n        /* \"#utility.yul\":13349:13356   */\n      0x00\n        /* \"#utility.yul\":13392:13397   */\n      dup2\n        /* \"#utility.yul\":13385:13398   */\n      iszero\n        /* \"#utility.yul\":13378:13399   */\n      iszero\n        /* \"#utility.yul\":13367:13399   */\n      swap1\n      pop\n        /* \"#utility.yul\":13315:13405   */\n      swap2\n      swap1\n      pop\n      jump\t// out\n        /* \"#utility.yul\":13411:13537   */\n    tag_364:\n        /* \"#utility.yul\":13448:13455   */\n      0x00\n        /* \"#utility.yul\":13488:13530   */\n      0xffffffffffffffffffffffffffffffffffffffff\n        /* \"#utility.yul\":13481:13486   */\n      dup3\n        /* \"#utility.yul\":13477:13531   */\n      and\n        /* \"#utility.yul\":13466:13531   */\n      swap1\n      pop\n        /* \"#utility.yul\":13411:13537   */\n      swap2\n      swap1\n      pop\n      jump\t// out\n        /* \"#utility.yul\":13543:13620   */\n    tag_290:\n        /* \"#utility.yul\":13580:13587   */\n      0x00\n        /* \"#utility.yul\":13609:13614   */\n      dup2\n        /* \"#utility.yul\":13598:13614   */\n      swap1\n      pop\n        /* \"#utility.yul\":13543:13620   */\n      swap2\n      swap1\n      pop\n      jump\t// out\n        /* \"#utility.yul\":13626:13712   */\n    tag_297:\n        /* \"#utility.yul\":13661:13668   */\n      0x00\n        /* \"#utility.yul\":13701:13705   */\n      0xff\n        /* \"#utility.yul\":13694:13699   */\n      dup3\n        /* \"#utility.yul\":13690:13706   */\n      and\n        /* \"#utility.yul\":13679:13706   */\n      swap1\n      pop\n        /* \"#utility.yul\":13626:13712   */\n      swap2\n      swap1\n      pop\n      jump\t// out\n        /* \"#utility.yul\":13718:13884   */\n    tag_283:\n        /* \"#utility.yul\":13787:13792   */\n      0x00\n        /* \"#utility.yul\":13812:13878   */\n      tag_372\n        /* \"#utility.yul\":13843:13877   */\n      tag_373\n        /* \"#utility.yul\":13866:13876   */\n      dup4\n        /* \"#utility.yul\":13843:13877   */\n      tag_374\n      jump\t// in\n    tag_373:\n        /* \"#utility.yul\":13812:13878   */\n      tag_360\n      jump\t// in\n    tag_372:\n        /* \"#utility.yul\":13803:13878   */\n      swap1\n      pop\n        /* \"#utility.yul\":13718:13884   */\n      swap2\n      swap1\n      pop\n      jump\t// out\n        /* \"#utility.yul\":13890:14057   */\n    tag_111:\n        /* \"#utility.yul\":13927:13930   */\n      0x00\n        /* \"#utility.yul\":13950:13972   */\n      tag_376\n        /* \"#utility.yul\":13966:13971   */\n      dup3\n        /* \"#utility.yul\":13950:13972   */\n      tag_297\n      jump\t// in\n    tag_376:\n        /* \"#utility.yul\":13941:13972   */\n      swap2\n      pop\n        /* \"#utility.yul\":13994:13998   */\n      0xff\n        /* \"#utility.yul\":13987:13992   */\n      dup3\n        /* \"#utility.yul\":13984:13999   */\n      eq\n        /* \"#utility.yul\":13981:14022   */\n      iszero\n      tag_377\n      jumpi\n        /* \"#utility.yul\":14002:14020   */\n      tag_378\n      tag_343\n      jump\t// in\n    tag_378:\n        /* \"#utility.yul\":13981:14022   */\n    tag_377:\n        /* \"#utility.yul\":14049:14050   */\n      0x01\n        /* \"#utility.yul\":14042:14047   */\n      dup3\n        /* \"#utility.yul\":14038:14051   */\n      add\n        /* \"#utility.yul\":14031:14051   */\n      swap1\n      pop\n        /* \"#utility.yul\":13890:14057   */\n      swap2\n      swap1\n      pop\n      jump\t// out\n        /* \"#utility.yul\":14063:14243   */\n    tag_343:\n        /* \"#utility.yul\":14111:14188   */\n      0x4e487b7100000000000000000000000000000000000000000000000000000000\n        /* \"#utility.yul\":14108:14109   */\n      0x00\n        /* \"#utility.yul\":14101:14189   */\n      mstore\n        /* \"#utility.yul\":14208:14212   */\n      0x11\n        /* \"#utility.yul\":14205:14206   */\n      0x04\n        /* \"#utility.yul\":14198:14213   */\n      mstore\n        /* \"#utility.yul\":14232:14236   */\n      0x24\n        /* \"#utility.yul\":14229:14230   */\n      0x00\n        /* \"#utility.yul\":14222:14237   */\n      revert\n        /* \"#utility.yul\":14249:14429   */\n    tag_354:\n        /* \"#utility.yul\":14297:14374   */\n      0x4e487b7100000000000000000000000000000000000000000000000000000000\n        /* \"#utility.yul\":14294:14295   */\n      0x00\n        /* \"#utility.yul\":14287:14375   */\n      mstore\n        /* \"#utility.yul\":14394:14398   */\n      0x12\n        /* \"#utility.yul\":14391:14392   */\n      0x04\n        /* \"#utility.yul\":14384:14399   */\n      mstore\n        /* \"#utility.yul\":14418:14422   */\n      0x24\n        /* \"#utility.yul\":14415:14416   */\n      0x00\n        /* \"#utility.yul\":14408:14423   */\n      revert\n        /* \"#utility.yul\":14558:14675   */\n    tag_216:\n        /* \"#utility.yul\":14667:14668   */\n      0x00\n        /* \"#utility.yul\":14664:14665   */\n      dup1\n        /* \"#utility.yul\":14657:14669   */\n      revert\n        /* \"#utility.yul\":14681:14783   */\n    tag_374:\n        /* \"#utility.yul\":14723:14731   */\n      0x00\n        /* \"#utility.yul\":14770:14775   */\n      dup2\n        /* \"#utility.yul\":14767:14768   */\n      0x00\n        /* \"#utility.yul\":14763:14776   */\n      shr\n        /* \"#utility.yul\":14742:14776   */\n      swap1\n      pop\n        /* \"#utility.yul\":14681:14783   */\n      swap2\n      swap1\n      pop\n      jump\t// out\n        /* \"#utility.yul\":14789:14953   */\n    tag_258:\n        /* \"#utility.yul\":14929:14945   */\n      0x47616d65206e6f7420666f756e64000000000000000000000000000000000000\n        /* \"#utility.yul\":14925:14926   */\n      0x00\n        /* \"#utility.yul\":14917:14923   */\n      dup3\n        /* \"#utility.yul\":14913:14927   */\n      add\n        /* \"#utility.yul\":14906:14946   */\n      mstore\n        /* \"#utility.yul\":14789:14953   */\n      pop\n      jump\t// out\n        /* \"#utility.yul\":14959:15073   */\n    tag_264:\n      pop\n      jump\t// out\n        /* \"#utility.yul\":15079:15301   */\n    tag_269:\n        /* \"#utility.yul\":15219:15253   */\n      0x496e73756666696369656e7420616d6f756e74206f6620636f6e747269627574\n        /* \"#utility.yul\":15215:15216   */\n      0x00\n        /* \"#utility.yul\":15207:15213   */\n      dup3\n        /* \"#utility.yul\":15203:15217   */\n      add\n        /* \"#utility.yul\":15196:15254   */\n      mstore\n        /* \"#utility.yul\":15288:15293   */\n      0x696f6e0000000000000000000000000000000000000000000000000000000000\n        /* \"#utility.yul\":15283:15285   */\n      0x20\n        /* \"#utility.yul\":15275:15281   */\n      dup3\n        /* \"#utility.yul\":15271:15286   */\n      add\n        /* \"#utility.yul\":15264:15294   */\n      mstore\n        /* \"#utility.yul\":15079:15301   */\n      pop\n      jump\t// out\n        /* \"#utility.yul\":15307:15534   */\n    tag_274:\n        /* \"#utility.yul\":15447:15481   */\n      0x466f72207265676974657220696e2067616d6520796f75206e65656420706179\n        /* \"#utility.yul\":15443:15444   */\n      0x00\n        /* \"#utility.yul\":15435:15441   */\n      dup3\n        /* \"#utility.yul\":15431:15445   */\n      add\n        /* \"#utility.yul\":15424:15482   */\n      mstore\n        /* \"#utility.yul\":15516:15526   */\n      0x2031206574686572000000000000000000000000000000000000000000000000\n        /* \"#utility.yul\":15511:15513   */\n      0x20\n        /* \"#utility.yul\":15503:15509   */\n      dup3\n        /* \"#utility.yul\":15499:15514   */\n      add\n        /* \"#utility.yul\":15492:15527   */\n      mstore\n        /* \"#utility.yul\":15307:15534   */\n      pop\n      jump\t// out\n        /* \"#utility.yul\":15540:15702   */\n    tag_279:\n        /* \"#utility.yul\":15680:15694   */\n      0x4e6f20636f6e7472616374730000000000000000000000000000000000000000\n        /* \"#utility.yul\":15676:15677   */\n      0x00\n        /* \"#utility.yul\":15668:15674   */\n      dup3\n        /* \"#utility.yul\":15664:15678   */\n      add\n        /* \"#utility.yul\":15657:15695   */\n      mstore\n        /* \"#utility.yul\":15540:15702   */\n      pop\n      jump\t// out\n        /* \"#utility.yul\":15708:15830   */\n    tag_204:\n        /* \"#utility.yul\":15781:15805   */\n      tag_391\n        /* \"#utility.yul\":15799:15804   */\n      dup2\n        /* \"#utility.yul\":15781:15805   */\n      tag_248\n      jump\t// in\n    tag_391:\n        /* \"#utility.yul\":15774:15779   */\n      dup2\n        /* \"#utility.yul\":15771:15806   */\n      eq\n        /* \"#utility.yul\":15761:15824   */\n      tag_392\n      jumpi\n        /* \"#utility.yul\":15820:15821   */\n      0x00\n        /* \"#utility.yul\":15817:15818   */\n      dup1\n        /* \"#utility.yul\":15810:15822   */\n      revert\n        /* \"#utility.yul\":15761:15824   */\n    tag_392:\n        /* \"#utility.yul\":15708:15830   */\n      pop\n      jump\t// out\n        /* \"#utility.yul\":15836:15958   */\n    tag_208:\n        /* \"#utility.yul\":15909:15933   */\n      tag_394\n        /* \"#utility.yul\":15927:15932   */\n      dup2\n        /* \"#utility.yul\":15909:15933   */\n      tag_290\n      jump\t// in\n    tag_394:\n        /* \"#utility.yul\":15902:15907   */\n      dup2\n        /* \"#utility.yul\":15899:15934   */\n      eq\n        /* \"#utility.yul\":15889:15952   */\n      tag_395\n      jumpi\n        /* \"#utility.yul\":15948:15949   */\n      0x00\n        /* \"#utility.yul\":15945:15946   */\n      dup1\n        /* \"#utility.yul\":15938:15950   */\n      revert\n        /* \"#utility.yul\":15889:15952   */\n    tag_395:\n        /* \"#utility.yul\":15836:15958   */\n      pop\n      jump\t// out\n        /* \"#utility.yul\":15964:16082   */\n    tag_212:\n        /* \"#utility.yul\":16035:16057   */\n      tag_397\n        /* \"#utility.yul\":16051:16056   */\n      dup2\n        /* \"#utility.yul\":16035:16057   */\n      tag_297\n      jump\t// in\n    tag_397:\n        /* \"#utility.yul\":16028:16033   */\n      dup2\n        /* \"#utility.yul\":16025:16058   */\n      eq\n        /* \"#utility.yul\":16015:16076   */\n      tag_398\n      jumpi\n        /* \"#utility.yul\":16072:16073   */\n      0x00\n        /* \"#utility.yul\":16069:16070   */\n      dup1\n        /* \"#utility.yul\":16062:16074   */\n      revert\n        /* \"#utility.yul\":16015:16076   */\n    tag_398:\n        /* \"#utility.yul\":15964:16082   */\n      pop\n      jump\t// out\n\n    auxdata: 0xa26469706673582212203201b541f17c874688101a864ad653b7f54cba92b91c6e9450ac87bdefc8fdbc64736f6c63430008070033\n}\n",
				"bytecode": {
					"linkReferences": {},
					"object": "60806040523480156200001157600080fd5b50336001806101000a81548173ffffffffffffffffffffffffffffffffffffffff021916908373ffffffffffffffffffffffffffffffffffffffff16021790555060018054906101000a900473ffffffffffffffffffffffffffffffffffffffff166003600080815260200190815260200160002060006101000a81548173ffffffffffffffffffffffffffffffffffffffff021916908373ffffffffffffffffffffffffffffffffffffffff16021790555060405180606001604052806000815260200160018054906101000a900473ffffffffffffffffffffffffffffffffffffffff1673ffffffffffffffffffffffffffffffffffffffff16815260200160008152506004600060018054906101000a900473ffffffffffffffffffffffffffffffffffffffff1673ffffffffffffffffffffffffffffffffffffffff1673ffffffffffffffffffffffffffffffffffffffff1681526020019081526020016000206000820151816000015560208201518160010160006101000a81548173ffffffffffffffffffffffffffffffffffffffff021916908373ffffffffffffffffffffffffffffffffffffffff160217905550604082015181600201559050506001600081905550620001f76003670de0b6b3a7640000620001fd60201b60201c565b62000496565b6200020e336200030860201b60201c565b6200021857600080fd5b60405180604001604052808381526020018281525060026000600160009054906101000a900460ff1660ff1660ff16815260200190815260200160002060008201518160000155602082015181600101559050507f954900f0fb49268c265d1bafbfbf6c060c8b41cdb6b0bcaa575389d650b5e37460026000600160009054906101000a900460ff1660ff1660ff168152602001908152602001600020604051620002c49190620003c0565b60405180910390a160018060008282829054906101000a900460ff16620002ec9190620003dd565b92506101000a81548160ff021916908360ff1602179055505050565b600060018054906101000a900473ffffffffffffffffffffffffffffffffffffffff1673ffffffffffffffffffffffffffffffffffffffff168273ffffffffffffffffffffffffffffffffffffffff16149050919050565b60408201600080830154905062000377816200043c565b620003866000860182620003af565b506001830154905062000399816200043c565b620003a86020860182620003af565b5050505050565b620003ba8162000425565b82525050565b6000604082019050620003d7600083018462000360565b92915050565b6000620003ea826200042f565b9150620003f7836200042f565b92508260ff0382111562000410576200040f6200045a565b5b828201905092915050565b6000819050919050565b6000819050919050565b600060ff82169050919050565b6000620004536200044d8362000489565b6200041b565b9050919050565b7f4e487b7100000000000000000000000000000000000000000000000000000000600052601160045260246000fd5b60008160001c9050919050565b6120ad80620004a66000396000f3fe6080604052600436106100e15760003560e01c80637b0d5efa1161007f5780639b0b0ae3116100595780639b0b0ae31461030f578063ad39f0a31461034c578063bd233b9114610377578063f1060006146103b4576100f2565b80637b0d5efa1461026b578063906cbf571461029457806395a078e8146102d2576100f2565b80632a648c89116100bb5780632a648c89146101965780632e8aab9b146101d357806347734892146101ef57806378a32e211461022c576100f2565b80630173c05b146100fe5780630e50cee51461011a57806329e99f0714610159576100f2565b366100f2576100f033346103f1565b005b6100fc33346103f1565b005b610118600480360381019061011391906118c4565b6104b4565b005b34801561012657600080fd5b50610141600480360381019061013c9190611857565b610693565b60405161015093929190611c6b565b60405180910390f35b34801561016557600080fd5b50610180600480360381019061017b91906118c4565b6106dd565b60405161018d9190611c50565b60405180910390f35b3480156101a257600080fd5b506101bd60048036038101906101b89190611884565b6106f3565b6040516101ca9190611b1e565b60405180910390f35b6101ed60048036038101906101e89190611931565b610722565b005b3480156101fb57600080fd5b5061021660048036038101906102119190611857565b6107cc565b6040516102239190611c50565b60405180910390f35b34801561023857600080fd5b50610253600480360381019061024e919061195e565b6107ed565b60405161026293929190611c6b565b60405180910390f35b34801561027757600080fd5b50610292600480360381019061028d91906118f1565b610844565b005b3480156102a057600080fd5b506102bb60048036038101906102b69190611931565b610942565b6040516102c9929190611ca2565b60405180910390f35b3480156102de57600080fd5b506102f960048036038101906102f49190611857565b610966565b6040516103069190611b1e565b60405180910390f35b34801561031b57600080fd5b5061033660048036038101906103319190611931565b6109be565b6040516103439190611c50565b60405180910390f35b34801561035857600080fd5b506103616109d6565b60405161036e9190611ccb565b60405180910390f35b34801561038357600080fd5b5061039e600480360381019061039991906118c4565b6109e9565b6040516103ab9190611b03565b60405180910390f35b3480156103c057600080fd5b506103db60048036038101906103d69190611884565b610a1c565b6040516103e89190611c50565b60405180910390f35b60008060005b60018060009054906101000a900460ff166104129190611d58565b60ff168160ff1610156104625734600260008360ff1660ff16815260200190815260200160002060010154141561044f5760019250809150610462565b808061045a90611ea5565b9150506103f7565b50816104a3576040517f08c379a000000000000000000000000000000000000000000000000000000000815260040161049a90611b39565b60405180910390fd5b6104ae818585610a41565b50505050565b600080339050803b915060008263ffffffff161115610508576040517f08c379a00000000000000000000000000000000000000000000000000000000081526004016104ff90611b99565b60405180910390fd5b670de0b6b3a76400003414610552576040517f08c379a000000000000000000000000000000000000000000000000000000000815260040161054990611b79565b60405180910390fd5b604051806060016040528060005481526020013373ffffffffffffffffffffffffffffffffffffffff16815260200184815250600460003373ffffffffffffffffffffffffffffffffffffffff1673ffffffffffffffffffffffffffffffffffffffff1681526020019081526020016000206000820151816000015560208201518160010160006101000a81548173ffffffffffffffffffffffffffffffffffffffff021916908373ffffffffffffffffffffffffffffffffffffffff1602179055506040820151816002015590505033600360008054815260200190815260200160002060006101000a81548173ffffffffffffffffffffffffffffffffffffffff021916908373ffffffffffffffffffffffffffffffffffffffff16021790555060016000808282546106879190611d02565b92505081905550505050565b60046020528060005260406000206000915090508060000154908060010160009054906101000a900473ffffffffffffffffffffffffffffffffffffffff16908060020154905083565b60006002826106ec9190611d8f565b9050919050565b60086020528160005260406000206020528060005260406000206000915091509054906101000a900460ff1681565b600073ffffffffffffffffffffffffffffffffffffffff16600460003373ffffffffffffffffffffffffffffffffffffffff1673ffffffffffffffffffffffffffffffffffffffff16815260200190815260200160002060010160009054906101000a900473ffffffffffffffffffffffffffffffffffffffff1673ffffffffffffffffffffffffffffffffffffffff1614156107be57600080fd5b6107c9813334610a41565b50565b60008173ffffffffffffffffffffffffffffffffffffffff16319050919050565b6006602052816000526040600020602052806000526040600020600091509150508060000154908060010160009054906101000a900473ffffffffffffffffffffffffffffffffffffffff16908060020154905083565b61084d33610966565b61085657600080fd5b60405180604001604052808381526020018281525060026000600160009054906101000a900460ff1660ff1660ff16815260200190815260200160002060008201518160000155602082015181600101559050507f954900f0fb49268c265d1bafbfbf6c060c8b41cdb6b0bcaa575389d650b5e37460026000600160009054906101000a900460ff1660ff1660ff1681526020019081526020016000206040516109009190611bb9565b60405180910390a160018060008282829054906101000a900460ff166109269190611d58565b92506101000a81548160ff021916908360ff1602179055505050565b60026020528060005260406000206000915090508060000154908060010154905082565b600060018054906101000a900473ffffffffffffffffffffffffffffffffffffffff1673ffffffffffffffffffffffffffffffffffffffff168273ffffffffffffffffffffffffffffffffffffffff16149050919050565b60056020528060005260406000206000915090505481565b600160009054906101000a900460ff1681565b60036020528060005260406000206000915054906101000a900473ffffffffffffffffffffffffffffffffffffffff1681565b6007602052816000526040600020602052806000526040600020600091509150505481565b600260008460ff1660ff16815260200190815260200160002060010154811015610aa0576040517f08c379a0000000000000000000000000000000000000000000000000000000008152600401610a9790611b59565b60405180910390fd5b600460008373ffffffffffffffffffffffffffffffffffffffff1673ffffffffffffffffffffffffffffffffffffffff168152602001908152602001600020600660008560ff1660ff1681526020019081526020016000206000600560008760ff1660ff168152602001908152602001600020548152602001908152602001600020600082015481600001556001820160009054906101000a900473ffffffffffffffffffffffffffffffffffffffff168160010160006101000a81548173ffffffffffffffffffffffffffffffffffffffff021916908373ffffffffffffffffffffffffffffffffffffffff160217905550600282015481600201559050506001600560008560ff1660ff1681526020019081526020016000206000828254610bca9190611d02565b925050819055506001600860008473ffffffffffffffffffffffffffffffffffffffff1673ffffffffffffffffffffffffffffffffffffffff16815260200190815260200160002060008560ff1660ff16815260200190815260200160002060006101000a81548160ff0219169083151502179055506003600560008560ff1660ff16815260200190815260200160002054106118135760006002600560008660ff1660ff16815260200190815260200160002054610c899190611d8f565b90505b6000600660008660ff1660ff168152602001908152602001600020600083815260200190815260200160002060010160009054906101000a900473ffffffffffffffffffffffffffffffffffffffff1690506001600760008373ffffffffffffffffffffffffffffffffffffffff1673ffffffffffffffffffffffffffffffffffffffff16815260200190815260200160002060008760ff1660ff16815260200190815260200160002054111580610db05750600860008273ffffffffffffffffffffffffffffffffffffffff1673ffffffffffffffffffffffffffffffffffffffff1681526020019081526020016000206000600187610d8d9190611d58565b60ff1660ff16815260200190815260200160002060009054906101000a900460ff165b156118075760008173ffffffffffffffffffffffffffffffffffffffff166064604a600260008a60ff1660ff16815260200190815260200160002060010154610df99190611dc0565b610e039190611d8f565b604051610e0f90611aee565b60006040518083038185875af1925050503d8060008114610e4c576040519150601f19603f3d011682016040523d82523d6000602084013e610e51565b606091505b505090506001600760008473ffffffffffffffffffffffffffffffffffffffff1673ffffffffffffffffffffffffffffffffffffffff16815260200190815260200160002060008860ff1660ff1681526020019081526020016000206000828254610ebc9190611d02565b925050819055507f48926dbe5ddf41609856a5a4f394bd85410dfcedaa2cfefb48bbb3bbab8b6be7600260008860ff1660ff1681526020019081526020016000208383604051610f0e93929190611bd4565b60405180910390a16000600660008860ff1660ff16815260200190815260200160002060008581526020019081526020016000206000015490506000600660008960ff1660ff168152602001908152602001600020600086815260200190815260200160002060020154905060006064600a600260008c60ff1660ff16815260200190815260200160002060010154610fa79190611dc0565b610fb19190611d8f565b90506003600083815260200190815260200160002060009054906101000a900473ffffffffffffffffffffffffffffffffffffffff1673ffffffffffffffffffffffffffffffffffffffff168160405161100a90611aee565b60006040518083038185875af1925050503d8060008114611047576040519150601f19603f3d011682016040523d82523d6000602084013e61104c565b606091505b50508094505083156110ae577f99a41df4773da34d9d98cc939025289e5db562f8fb5df346a9e7a1672bd288e3600260008b60ff1660ff1681526020019081526020016000208484846040516110a59493929190611c0b565b60405180910390a15b60646006600260008c60ff1660ff168152602001908152602001600020600101546110d99190611dc0565b6110e39190611d8f565b9050600460006003600085815260200190815260200160002060009054906101000a900473ffffffffffffffffffffffffffffffffffffffff1673ffffffffffffffffffffffffffffffffffffffff1673ffffffffffffffffffffffffffffffffffffffff16815260200190815260200160002060010160009054906101000a900473ffffffffffffffffffffffffffffffffffffffff1673ffffffffffffffffffffffffffffffffffffffff168160405161119e90611aee565b60006040518083038185875af1925050503d80600081146111db576040519150601f19603f3d011682016040523d82523d6000602084013e6111e0565b606091505b50508094505083156112b7577f99a41df4773da34d9d98cc939025289e5db562f8fb5df346a9e7a1672bd288e3600260008b60ff1660ff16815260200190815260200160002083600460006003600088815260200190815260200160002060009054906101000a900473ffffffffffffffffffffffffffffffffffffffff1673ffffffffffffffffffffffffffffffffffffffff1673ffffffffffffffffffffffffffffffffffffffff16815260200190815260200160002060000154846040516112ae9493929190611c0b565b60405180910390a15b60646004600260008c60ff1660ff168152602001908152602001600020600101546112e29190611dc0565b6112ec9190611d8f565b90506004600060036000600460006003600089815260200190815260200160002060009054906101000a900473ffffffffffffffffffffffffffffffffffffffff1673ffffffffffffffffffffffffffffffffffffffff1673ffffffffffffffffffffffffffffffffffffffff16815260200190815260200160002060000154815260200190815260200160002060009054906101000a900473ffffffffffffffffffffffffffffffffffffffff1673ffffffffffffffffffffffffffffffffffffffff1673ffffffffffffffffffffffffffffffffffffffff16815260200190815260200160002060010160009054906101000a900473ffffffffffffffffffffffffffffffffffffffff1673ffffffffffffffffffffffffffffffffffffffff168160405161141c90611aee565b60006040518083038185875af1925050503d8060008114611459576040519150601f19603f3d011682016040523d82523d6000602084013e61145e565b606091505b505080945050831561161f577f99a41df4773da34d9d98cc939025289e5db562f8fb5df346a9e7a1672bd288e3600260008b60ff1660ff168152602001908152602001600020600460006003600087815260200190815260200160002060009054906101000a900473ffffffffffffffffffffffffffffffffffffffff1673ffffffffffffffffffffffffffffffffffffffff1673ffffffffffffffffffffffffffffffffffffffff16815260200190815260200160002060000154600460006003600060046000600360008c815260200190815260200160002060009054906101000a900473ffffffffffffffffffffffffffffffffffffffff1673ffffffffffffffffffffffffffffffffffffffff1673ffffffffffffffffffffffffffffffffffffffff16815260200190815260200160002060000154815260200190815260200160002060009054906101000a900473ffffffffffffffffffffffffffffffffffffffff1673ffffffffffffffffffffffffffffffffffffffff1673ffffffffffffffffffffffffffffffffffffffff16815260200190815260200160002060000154846040516116169493929190611c0b565b60405180910390a15b60646006600260008c60ff1660ff1681526020019081526020016000206001015461164a9190611dc0565b6116549190611d8f565b90506004600060018054906101000a900473ffffffffffffffffffffffffffffffffffffffff1673ffffffffffffffffffffffffffffffffffffffff1673ffffffffffffffffffffffffffffffffffffffff16815260200190815260200160002060010160009054906101000a900473ffffffffffffffffffffffffffffffffffffffff1673ffffffffffffffffffffffffffffffffffffffff16816040516116fc90611aee565b60006040518083038185875af1925050503d8060008114611739576040519150601f19603f3d011682016040523d82523d6000602084013e61173e565b606091505b5050809450508315611802577f99a41df4773da34d9d98cc939025289e5db562f8fb5df346a9e7a1672bd288e3600260008b60ff1660ff168152602001908152602001600020846004600060018054906101000a900473ffffffffffffffffffffffffffffffffffffffff1673ffffffffffffffffffffffffffffffffffffffff1673ffffffffffffffffffffffffffffffffffffffff16815260200190815260200160002060000154846040516117f99493929190611c0b565b60405180910390a15b505050505b506000811415610c8c57505b505050565b60008135905061182781612032565b92915050565b60008135905061183c81612049565b92915050565b60008135905061185181612060565b92915050565b60006020828403121561186d5761186c611f2d565b5b600061187b84828501611818565b91505092915050565b6000806040838503121561189b5761189a611f2d565b5b60006118a985828601611818565b92505060206118ba85828601611842565b9150509250929050565b6000602082840312156118da576118d9611f2d565b5b60006118e88482850161182d565b91505092915050565b6000806040838503121561190857611907611f2d565b5b60006119168582860161182d565b92505060206119278582860161182d565b9150509250929050565b60006020828403121561194757611946611f2d565b5b600061195584828501611842565b91505092915050565b6000806040838503121561197557611974611f2d565b5b600061198385828601611842565b92505060206119948582860161182d565b9150509250929050565b6119a781611e36565b82525050565b6119b681611e24565b82525050565b6119c581611e48565b82525050565b60006119d8600e83611cf1565b91506119e382611f3f565b602082019050919050565b60006119fb600083611ce6565b9150611a0682611f68565b600082019050919050565b6000611a1e602383611cf1565b9150611a2982611f6b565b604082019050919050565b6000611a41602883611cf1565b9150611a4c82611fba565b604082019050919050565b6000611a64600c83611cf1565b9150611a6f82612009565b602082019050919050565b604082016000808301549050611a8f81611e8b565b611a9c6000860182611ac1565b5060018301549050611aad81611e8b565b611aba6020860182611ac1565b5050505050565b611aca81611e74565b82525050565b611ad981611e74565b82525050565b611ae881611e7e565b82525050565b6000611af9826119ee565b9150819050919050565b6000602082019050611b1860008301846119ad565b92915050565b6000602082019050611b3360008301846119bc565b92915050565b60006020820190508181036000830152611b52816119cb565b9050919050565b60006020820190508181036000830152611b7281611a11565b9050919050565b60006020820190508181036000830152611b9281611a34565b9050919050565b60006020820190508181036000830152611bb281611a57565b9050919050565b6000604082019050611bce6000830184611a7a565b92915050565b6000608082019050611be96000830186611a7a565b611bf660408301856119ad565b611c0360608301846119bc565b949350505050565b600060a082019050611c206000830187611a7a565b611c2d6040830186611ad0565b611c3a6060830185611ad0565b611c476080830184611ad0565b95945050505050565b6000602082019050611c656000830184611ad0565b92915050565b6000606082019050611c806000830186611ad0565b611c8d602083018561199e565b611c9a6040830184611ad0565b949350505050565b6000604082019050611cb76000830185611ad0565b611cc46020830184611ad0565b9392505050565b6000602082019050611ce06000830184611adf565b92915050565b600081905092915050565b600082825260208201905092915050565b6000611d0d82611e74565b9150611d1883611e74565b9250827fffffffffffffffffffffffffffffffffffffffffffffffffffffffffffffffff03821115611d4d57611d4c611ecf565b5b828201905092915050565b6000611d6382611e7e565b9150611d6e83611e7e565b92508260ff03821115611d8457611d83611ecf565b5b828201905092915050565b6000611d9a82611e74565b9150611da583611e74565b925082611db557611db4611efe565b5b828204905092915050565b6000611dcb82611e74565b9150611dd683611e74565b9250817fffffffffffffffffffffffffffffffffffffffffffffffffffffffffffffffff0483118215151615611e0f57611e0e611ecf565b5b828202905092915050565b6000819050919050565b6000611e2f82611e54565b9050919050565b6000611e4182611e54565b9050919050565b60008115159050919050565b600073ffffffffffffffffffffffffffffffffffffffff82169050919050565b6000819050919050565b600060ff82169050919050565b6000611e9e611e9983611f32565b611e1a565b9050919050565b6000611eb082611e7e565b915060ff821415611ec457611ec3611ecf565b5b600182019050919050565b7f4e487b7100000000000000000000000000000000000000000000000000000000600052601160045260246000fd5b7f4e487b7100000000000000000000000000000000000000000000000000000000600052601260045260246000fd5b600080fd5b60008160001c9050919050565b7f47616d65206e6f7420666f756e64000000000000000000000000000000000000600082015250565b50565b7f496e73756666696369656e7420616d6f756e74206f6620636f6e74726962757460008201527f696f6e0000000000000000000000000000000000000000000000000000000000602082015250565b7f466f72207265676974657220696e2067616d6520796f75206e6565642070617960008201527f2031206574686572000000000000000000000000000000000000000000000000602082015250565b7f4e6f20636f6e7472616374730000000000000000000000000000000000000000600082015250565b61203b81611e24565b811461204657600080fd5b50565b61205281611e74565b811461205d57600080fd5b50565b61206981611e7e565b811461207457600080fd5b5056fea26469706673582212203201b541f17c874688101a864ad653b7f54cba92b91c6e9450ac87bdefc8fdbc64736f6c63430008070033",
					"opcodes": "PUSH1 0x80 PUSH1 0x40 MSTORE CALLVALUE DUP1 ISZERO PUSH3 0x11 JUMPI PUSH1 0x0 DUP1 REVERT JUMPDEST POP CALLER PUSH1 0x1 DUP1 PUSH2 0x100 EXP DUP2 SLOAD DUP2 PUSH20 0xFFFFFFFFFFFFFFFFFFFFFFFFFFFFFFFFFFFFFFFF MUL NOT AND SWAP1 DUP4 PUSH20 0xFFFFFFFFFFFFFFFFFFFFFFFFFFFFFFFFFFFFFFFF AND MUL OR SWAP1 SSTORE POP PUSH1 0x1 DUP1 SLOAD SWAP1 PUSH2 0x100 EXP SWAP1 DIV PUSH20 0xFFFFFFFFFFFFFFFFFFFFFFFFFFFFFFFFFFFFFFFF AND PUSH1 0x3 PUSH1 0x0 DUP1 DUP2 MSTORE PUSH1 0x20 ADD SWAP1 DUP2 MSTORE PUSH1 0x20 ADD PUSH1 0x0 KECCAK256 PUSH1 0x0 PUSH2 0x100 EXP DUP2 SLOAD DUP2 PUSH20 0xFFFFFFFFFFFFFFFFFFFFFFFFFFFFFFFFFFFFFFFF MUL NOT AND SWAP1 DUP4 PUSH20 0xFFFFFFFFFFFFFFFFFFFFFFFFFFFFFFFFFFFFFFFF AND MUL OR SWAP1 SSTORE POP PUSH1 0x40 MLOAD DUP1 PUSH1 0x60 ADD PUSH1 0x40 MSTORE DUP1 PUSH1 0x0 DUP2 MSTORE PUSH1 0x20 ADD PUSH1 0x1 DUP1 SLOAD SWAP1 PUSH2 0x100 EXP SWAP1 DIV PUSH20 0xFFFFFFFFFFFFFFFFFFFFFFFFFFFFFFFFFFFFFFFF AND PUSH20 0xFFFFFFFFFFFFFFFFFFFFFFFFFFFFFFFFFFFFFFFF AND DUP2 MSTORE PUSH1 0x20 ADD PUSH1 0x0 DUP2 MSTORE POP PUSH1 0x4 PUSH1 0x0 PUSH1 0x1 DUP1 SLOAD SWAP1 PUSH2 0x100 EXP SWAP1 DIV PUSH20 0xFFFFFFFFFFFFFFFFFFFFFFFFFFFFFFFFFFFFFFFF AND PUSH20 0xFFFFFFFFFFFFFFFFFFFFFFFFFFFFFFFFFFFFFFFF AND PUSH20 0xFFFFFFFFFFFFFFFFFFFFFFFFFFFFFFFFFFFFFFFF AND DUP2 MSTORE PUSH1 0x20 ADD SWAP1 DUP2 MSTORE PUSH1 0x20 ADD PUSH1 0x0 KECCAK256 PUSH1 0x0 DUP3 ADD MLOAD DUP2 PUSH1 0x0 ADD SSTORE PUSH1 0x20 DUP3 ADD MLOAD DUP2 PUSH1 0x1 ADD PUSH1 0x0 PUSH2 0x100 EXP DUP2 SLOAD DUP2 PUSH20 0xFFFFFFFFFFFFFFFFFFFFFFFFFFFFFFFFFFFFFFFF MUL NOT AND SWAP1 DUP4 PUSH20 0xFFFFFFFFFFFFFFFFFFFFFFFFFFFFFFFFFFFFFFFF AND MUL OR SWAP1 SSTORE POP PUSH1 0x40 DUP3 ADD MLOAD DUP2 PUSH1 0x2 ADD SSTORE SWAP1 POP POP PUSH1 0x1 PUSH1 0x0 DUP2 SWAP1 SSTORE POP PUSH3 0x1F7 PUSH1 0x3 PUSH8 0xDE0B6B3A7640000 PUSH3 0x1FD PUSH1 0x20 SHL PUSH1 0x20 SHR JUMP JUMPDEST PUSH3 0x496 JUMP JUMPDEST PUSH3 0x20E CALLER PUSH3 0x308 PUSH1 0x20 SHL PUSH1 0x20 SHR JUMP JUMPDEST PUSH3 0x218 JUMPI PUSH1 0x0 DUP1 REVERT JUMPDEST PUSH1 0x40 MLOAD DUP1 PUSH1 0x40 ADD PUSH1 0x40 MSTORE DUP1 DUP4 DUP2 MSTORE PUSH1 0x20 ADD DUP3 DUP2 MSTORE POP PUSH1 0x2 PUSH1 0x0 PUSH1 0x1 PUSH1 0x0 SWAP1 SLOAD SWAP1 PUSH2 0x100 EXP SWAP1 DIV PUSH1 0xFF AND PUSH1 0xFF AND PUSH1 0xFF AND DUP2 MSTORE PUSH1 0x20 ADD SWAP1 DUP2 MSTORE PUSH1 0x20 ADD PUSH1 0x0 KECCAK256 PUSH1 0x0 DUP3 ADD MLOAD DUP2 PUSH1 0x0 ADD SSTORE PUSH1 0x20 DUP3 ADD MLOAD DUP2 PUSH1 0x1 ADD SSTORE SWAP1 POP POP PUSH32 0x954900F0FB49268C265D1BAFBFBF6C060C8B41CDB6B0BCAA575389D650B5E374 PUSH1 0x2 PUSH1 0x0 PUSH1 0x1 PUSH1 0x0 SWAP1 SLOAD SWAP1 PUSH2 0x100 EXP SWAP1 DIV PUSH1 0xFF AND PUSH1 0xFF AND PUSH1 0xFF AND DUP2 MSTORE PUSH1 0x20 ADD SWAP1 DUP2 MSTORE PUSH1 0x20 ADD PUSH1 0x0 KECCAK256 PUSH1 0x40 MLOAD PUSH3 0x2C4 SWAP2 SWAP1 PUSH3 0x3C0 JUMP JUMPDEST PUSH1 0x40 MLOAD DUP1 SWAP2 SUB SWAP1 LOG1 PUSH1 0x1 DUP1 PUSH1 0x0 DUP3 DUP3 DUP3 SWAP1 SLOAD SWAP1 PUSH2 0x100 EXP SWAP1 DIV PUSH1 0xFF AND PUSH3 0x2EC SWAP2 SWAP1 PUSH3 0x3DD JUMP JUMPDEST SWAP3 POP PUSH2 0x100 EXP DUP2 SLOAD DUP2 PUSH1 0xFF MUL NOT AND SWAP1 DUP4 PUSH1 0xFF AND MUL OR SWAP1 SSTORE POP POP POP JUMP JUMPDEST PUSH1 0x0 PUSH1 0x1 DUP1 SLOAD SWAP1 PUSH2 0x100 EXP SWAP1 DIV PUSH20 0xFFFFFFFFFFFFFFFFFFFFFFFFFFFFFFFFFFFFFFFF AND PUSH20 0xFFFFFFFFFFFFFFFFFFFFFFFFFFFFFFFFFFFFFFFF AND DUP3 PUSH20 0xFFFFFFFFFFFFFFFFFFFFFFFFFFFFFFFFFFFFFFFF AND EQ SWAP1 POP SWAP2 SWAP1 POP JUMP JUMPDEST PUSH1 0x40 DUP3 ADD PUSH1 0x0 DUP1 DUP4 ADD SLOAD SWAP1 POP PUSH3 0x377 DUP2 PUSH3 0x43C JUMP JUMPDEST PUSH3 0x386 PUSH1 0x0 DUP7 ADD DUP3 PUSH3 0x3AF JUMP JUMPDEST POP PUSH1 0x1 DUP4 ADD SLOAD SWAP1 POP PUSH3 0x399 DUP2 PUSH3 0x43C JUMP JUMPDEST PUSH3 0x3A8 PUSH1 0x20 DUP7 ADD DUP3 PUSH3 0x3AF JUMP JUMPDEST POP POP POP POP POP JUMP JUMPDEST PUSH3 0x3BA DUP2 PUSH3 0x425 JUMP JUMPDEST DUP3 MSTORE POP POP JUMP JUMPDEST PUSH1 0x0 PUSH1 0x40 DUP3 ADD SWAP1 POP PUSH3 0x3D7 PUSH1 0x0 DUP4 ADD DUP5 PUSH3 0x360 JUMP JUMPDEST SWAP3 SWAP2 POP POP JUMP JUMPDEST PUSH1 0x0 PUSH3 0x3EA DUP3 PUSH3 0x42F JUMP JUMPDEST SWAP2 POP PUSH3 0x3F7 DUP4 PUSH3 0x42F JUMP JUMPDEST SWAP3 POP DUP3 PUSH1 0xFF SUB DUP3 GT ISZERO PUSH3 0x410 JUMPI PUSH3 0x40F PUSH3 0x45A JUMP JUMPDEST JUMPDEST DUP3 DUP3 ADD SWAP1 POP SWAP3 SWAP2 POP POP JUMP JUMPDEST PUSH1 0x0 DUP2 SWAP1 POP SWAP2 SWAP1 POP JUMP JUMPDEST PUSH1 0x0 DUP2 SWAP1 POP SWAP2 SWAP1 POP JUMP JUMPDEST PUSH1 0x0 PUSH1 0xFF DUP3 AND SWAP1 POP SWAP2 SWAP1 POP JUMP JUMPDEST PUSH1 0x0 PUSH3 0x453 PUSH3 0x44D DUP4 PUSH3 0x489 JUMP JUMPDEST PUSH3 0x41B JUMP JUMPDEST SWAP1 POP SWAP2 SWAP1 POP JUMP JUMPDEST PUSH32 0x4E487B7100000000000000000000000000000000000000000000000000000000 PUSH1 0x0 MSTORE PUSH1 0x11 PUSH1 0x4 MSTORE PUSH1 0x24 PUSH1 0x0 REVERT JUMPDEST PUSH1 0x0 DUP2 PUSH1 0x0 SHR SWAP1 POP SWAP2 SWAP1 POP JUMP JUMPDEST PUSH2 0x20AD DUP1 PUSH3 0x4A6 PUSH1 0x0 CODECOPY PUSH1 0x0 RETURN INVALID PUSH1 0x80 PUSH1 0x40 MSTORE PUSH1 0x4 CALLDATASIZE LT PUSH2 0xE1 JUMPI PUSH1 0x0 CALLDATALOAD PUSH1 0xE0 SHR DUP1 PUSH4 0x7B0D5EFA GT PUSH2 0x7F JUMPI DUP1 PUSH4 0x9B0B0AE3 GT PUSH2 0x59 JUMPI DUP1 PUSH4 0x9B0B0AE3 EQ PUSH2 0x30F JUMPI DUP1 PUSH4 0xAD39F0A3 EQ PUSH2 0x34C JUMPI DUP1 PUSH4 0xBD233B91 EQ PUSH2 0x377 JUMPI DUP1 PUSH4 0xF1060006 EQ PUSH2 0x3B4 JUMPI PUSH2 0xF2 JUMP JUMPDEST DUP1 PUSH4 0x7B0D5EFA EQ PUSH2 0x26B JUMPI DUP1 PUSH4 0x906CBF57 EQ PUSH2 0x294 JUMPI DUP1 PUSH4 0x95A078E8 EQ PUSH2 0x2D2 JUMPI PUSH2 0xF2 JUMP JUMPDEST DUP1 PUSH4 0x2A648C89 GT PUSH2 0xBB JUMPI DUP1 PUSH4 0x2A648C89 EQ PUSH2 0x196 JUMPI DUP1 PUSH4 0x2E8AAB9B EQ PUSH2 0x1D3 JUMPI DUP1 PUSH4 0x47734892 EQ PUSH2 0x1EF JUMPI DUP1 PUSH4 0x78A32E21 EQ PUSH2 0x22C JUMPI PUSH2 0xF2 JUMP JUMPDEST DUP1 PUSH4 0x173C05B EQ PUSH2 0xFE JUMPI DUP1 PUSH4 0xE50CEE5 EQ PUSH2 0x11A JUMPI DUP1 PUSH4 0x29E99F07 EQ PUSH2 0x159 JUMPI PUSH2 0xF2 JUMP JUMPDEST CALLDATASIZE PUSH2 0xF2 JUMPI PUSH2 0xF0 CALLER CALLVALUE PUSH2 0x3F1 JUMP JUMPDEST STOP JUMPDEST PUSH2 0xFC CALLER CALLVALUE PUSH2 0x3F1 JUMP JUMPDEST STOP JUMPDEST PUSH2 0x118 PUSH1 0x4 DUP1 CALLDATASIZE SUB DUP2 ADD SWAP1 PUSH2 0x113 SWAP2 SWAP1 PUSH2 0x18C4 JUMP JUMPDEST PUSH2 0x4B4 JUMP JUMPDEST STOP JUMPDEST CALLVALUE DUP1 ISZERO PUSH2 0x126 JUMPI PUSH1 0x0 DUP1 REVERT JUMPDEST POP PUSH2 0x141 PUSH1 0x4 DUP1 CALLDATASIZE SUB DUP2 ADD SWAP1 PUSH2 0x13C SWAP2 SWAP1 PUSH2 0x1857 JUMP JUMPDEST PUSH2 0x693 JUMP JUMPDEST PUSH1 0x40 MLOAD PUSH2 0x150 SWAP4 SWAP3 SWAP2 SWAP1 PUSH2 0x1C6B JUMP JUMPDEST PUSH1 0x40 MLOAD DUP1 SWAP2 SUB SWAP1 RETURN JUMPDEST CALLVALUE DUP1 ISZERO PUSH2 0x165 JUMPI PUSH1 0x0 DUP1 REVERT JUMPDEST POP PUSH2 0x180 PUSH1 0x4 DUP1 CALLDATASIZE SUB DUP2 ADD SWAP1 PUSH2 0x17B SWAP2 SWAP1 PUSH2 0x18C4 JUMP JUMPDEST PUSH2 0x6DD JUMP JUMPDEST PUSH1 0x40 MLOAD PUSH2 0x18D SWAP2 SWAP1 PUSH2 0x1C50 JUMP JUMPDEST PUSH1 0x40 MLOAD DUP1 SWAP2 SUB SWAP1 RETURN JUMPDEST CALLVALUE DUP1 ISZERO PUSH2 0x1A2 JUMPI PUSH1 0x0 DUP1 REVERT JUMPDEST POP PUSH2 0x1BD PUSH1 0x4 DUP1 CALLDATASIZE SUB DUP2 ADD SWAP1 PUSH2 0x1B8 SWAP2 SWAP1 PUSH2 0x1884 JUMP JUMPDEST PUSH2 0x6F3 JUMP JUMPDEST PUSH1 0x40 MLOAD PUSH2 0x1CA SWAP2 SWAP1 PUSH2 0x1B1E JUMP JUMPDEST PUSH1 0x40 MLOAD DUP1 SWAP2 SUB SWAP1 RETURN JUMPDEST PUSH2 0x1ED PUSH1 0x4 DUP1 CALLDATASIZE SUB DUP2 ADD SWAP1 PUSH2 0x1E8 SWAP2 SWAP1 PUSH2 0x1931 JUMP JUMPDEST PUSH2 0x722 JUMP JUMPDEST STOP JUMPDEST CALLVALUE DUP1 ISZERO PUSH2 0x1FB JUMPI PUSH1 0x0 DUP1 REVERT JUMPDEST POP PUSH2 0x216 PUSH1 0x4 DUP1 CALLDATASIZE SUB DUP2 ADD SWAP1 PUSH2 0x211 SWAP2 SWAP1 PUSH2 0x1857 JUMP JUMPDEST PUSH2 0x7CC JUMP JUMPDEST PUSH1 0x40 MLOAD PUSH2 0x223 SWAP2 SWAP1 PUSH2 0x1C50 JUMP JUMPDEST PUSH1 0x40 MLOAD DUP1 SWAP2 SUB SWAP1 RETURN JUMPDEST CALLVALUE DUP1 ISZERO PUSH2 0x238 JUMPI PUSH1 0x0 DUP1 REVERT JUMPDEST POP PUSH2 0x253 PUSH1 0x4 DUP1 CALLDATASIZE SUB DUP2 ADD SWAP1 PUSH2 0x24E SWAP2 SWAP1 PUSH2 0x195E JUMP JUMPDEST PUSH2 0x7ED JUMP JUMPDEST PUSH1 0x40 MLOAD PUSH2 0x262 SWAP4 SWAP3 SWAP2 SWAP1 PUSH2 0x1C6B JUMP JUMPDEST PUSH1 0x40 MLOAD DUP1 SWAP2 SUB SWAP1 RETURN JUMPDEST CALLVALUE DUP1 ISZERO PUSH2 0x277 JUMPI PUSH1 0x0 DUP1 REVERT JUMPDEST POP PUSH2 0x292 PUSH1 0x4 DUP1 CALLDATASIZE SUB DUP2 ADD SWAP1 PUSH2 0x28D SWAP2 SWAP1 PUSH2 0x18F1 JUMP JUMPDEST PUSH2 0x844 JUMP JUMPDEST STOP JUMPDEST CALLVALUE DUP1 ISZERO PUSH2 0x2A0 JUMPI PUSH1 0x0 DUP1 REVERT JUMPDEST POP PUSH2 0x2BB PUSH1 0x4 DUP1 CALLDATASIZE SUB DUP2 ADD SWAP1 PUSH2 0x2B6 SWAP2 SWAP1 PUSH2 0x1931 JUMP JUMPDEST PUSH2 0x942 JUMP JUMPDEST PUSH1 0x40 MLOAD PUSH2 0x2C9 SWAP3 SWAP2 SWAP1 PUSH2 0x1CA2 JUMP JUMPDEST PUSH1 0x40 MLOAD DUP1 SWAP2 SUB SWAP1 RETURN JUMPDEST CALLVALUE DUP1 ISZERO PUSH2 0x2DE JUMPI PUSH1 0x0 DUP1 REVERT JUMPDEST POP PUSH2 0x2F9 PUSH1 0x4 DUP1 CALLDATASIZE SUB DUP2 ADD SWAP1 PUSH2 0x2F4 SWAP2 SWAP1 PUSH2 0x1857 JUMP JUMPDEST PUSH2 0x966 JUMP JUMPDEST PUSH1 0x40 MLOAD PUSH2 0x306 SWAP2 SWAP1 PUSH2 0x1B1E JUMP JUMPDEST PUSH1 0x40 MLOAD DUP1 SWAP2 SUB SWAP1 RETURN JUMPDEST CALLVALUE DUP1 ISZERO PUSH2 0x31B JUMPI PUSH1 0x0 DUP1 REVERT JUMPDEST POP PUSH2 0x336 PUSH1 0x4 DUP1 CALLDATASIZE SUB DUP2 ADD SWAP1 PUSH2 0x331 SWAP2 SWAP1 PUSH2 0x1931 JUMP JUMPDEST PUSH2 0x9BE JUMP JUMPDEST PUSH1 0x40 MLOAD PUSH2 0x343 SWAP2 SWAP1 PUSH2 0x1C50 JUMP JUMPDEST PUSH1 0x40 MLOAD DUP1 SWAP2 SUB SWAP1 RETURN JUMPDEST CALLVALUE DUP1 ISZERO PUSH2 0x358 JUMPI PUSH1 0x0 DUP1 REVERT JUMPDEST POP PUSH2 0x361 PUSH2 0x9D6 JUMP JUMPDEST PUSH1 0x40 MLOAD PUSH2 0x36E SWAP2 SWAP1 PUSH2 0x1CCB JUMP JUMPDEST PUSH1 0x40 MLOAD DUP1 SWAP2 SUB SWAP1 RETURN JUMPDEST CALLVALUE DUP1 ISZERO PUSH2 0x383 JUMPI PUSH1 0x0 DUP1 REVERT JUMPDEST POP PUSH2 0x39E PUSH1 0x4 DUP1 CALLDATASIZE SUB DUP2 ADD SWAP1 PUSH2 0x399 SWAP2 SWAP1 PUSH2 0x18C4 JUMP JUMPDEST PUSH2 0x9E9 JUMP JUMPDEST PUSH1 0x40 MLOAD PUSH2 0x3AB SWAP2 SWAP1 PUSH2 0x1B03 JUMP JUMPDEST PUSH1 0x40 MLOAD DUP1 SWAP2 SUB SWAP1 RETURN JUMPDEST CALLVALUE DUP1 ISZERO PUSH2 0x3C0 JUMPI PUSH1 0x0 DUP1 REVERT JUMPDEST POP PUSH2 0x3DB PUSH1 0x4 DUP1 CALLDATASIZE SUB DUP2 ADD SWAP1 PUSH2 0x3D6 SWAP2 SWAP1 PUSH2 0x1884 JUMP JUMPDEST PUSH2 0xA1C JUMP JUMPDEST PUSH1 0x40 MLOAD PUSH2 0x3E8 SWAP2 SWAP1 PUSH2 0x1C50 JUMP JUMPDEST PUSH1 0x40 MLOAD DUP1 SWAP2 SUB SWAP1 RETURN JUMPDEST PUSH1 0x0 DUP1 PUSH1 0x0 JUMPDEST PUSH1 0x1 DUP1 PUSH1 0x0 SWAP1 SLOAD SWAP1 PUSH2 0x100 EXP SWAP1 DIV PUSH1 0xFF AND PUSH2 0x412 SWAP2 SWAP1 PUSH2 0x1D58 JUMP JUMPDEST PUSH1 0xFF AND DUP2 PUSH1 0xFF AND LT ISZERO PUSH2 0x462 JUMPI CALLVALUE PUSH1 0x2 PUSH1 0x0 DUP4 PUSH1 0xFF AND PUSH1 0xFF AND DUP2 MSTORE PUSH1 0x20 ADD SWAP1 DUP2 MSTORE PUSH1 0x20 ADD PUSH1 0x0 KECCAK256 PUSH1 0x1 ADD SLOAD EQ ISZERO PUSH2 0x44F JUMPI PUSH1 0x1 SWAP3 POP DUP1 SWAP2 POP PUSH2 0x462 JUMP JUMPDEST DUP1 DUP1 PUSH2 0x45A SWAP1 PUSH2 0x1EA5 JUMP JUMPDEST SWAP2 POP POP PUSH2 0x3F7 JUMP JUMPDEST POP DUP2 PUSH2 0x4A3 JUMPI PUSH1 0x40 MLOAD PUSH32 0x8C379A000000000000000000000000000000000000000000000000000000000 DUP2 MSTORE PUSH1 0x4 ADD PUSH2 0x49A SWAP1 PUSH2 0x1B39 JUMP JUMPDEST PUSH1 0x40 MLOAD DUP1 SWAP2 SUB SWAP1 REVERT JUMPDEST PUSH2 0x4AE DUP2 DUP6 DUP6 PUSH2 0xA41 JUMP JUMPDEST POP POP POP POP JUMP JUMPDEST PUSH1 0x0 DUP1 CALLER SWAP1 POP DUP1 EXTCODESIZE SWAP2 POP PUSH1 0x0 DUP3 PUSH4 0xFFFFFFFF AND GT ISZERO PUSH2 0x508 JUMPI PUSH1 0x40 MLOAD PUSH32 0x8C379A000000000000000000000000000000000000000000000000000000000 DUP2 MSTORE PUSH1 0x4 ADD PUSH2 0x4FF SWAP1 PUSH2 0x1B99 JUMP JUMPDEST PUSH1 0x40 MLOAD DUP1 SWAP2 SUB SWAP1 REVERT JUMPDEST PUSH8 0xDE0B6B3A7640000 CALLVALUE EQ PUSH2 0x552 JUMPI PUSH1 0x40 MLOAD PUSH32 0x8C379A000000000000000000000000000000000000000000000000000000000 DUP2 MSTORE PUSH1 0x4 ADD PUSH2 0x549 SWAP1 PUSH2 0x1B79 JUMP JUMPDEST PUSH1 0x40 MLOAD DUP1 SWAP2 SUB SWAP1 REVERT JUMPDEST PUSH1 0x40 MLOAD DUP1 PUSH1 0x60 ADD PUSH1 0x40 MSTORE DUP1 PUSH1 0x0 SLOAD DUP2 MSTORE PUSH1 0x20 ADD CALLER PUSH20 0xFFFFFFFFFFFFFFFFFFFFFFFFFFFFFFFFFFFFFFFF AND DUP2 MSTORE PUSH1 0x20 ADD DUP5 DUP2 MSTORE POP PUSH1 0x4 PUSH1 0x0 CALLER PUSH20 0xFFFFFFFFFFFFFFFFFFFFFFFFFFFFFFFFFFFFFFFF AND PUSH20 0xFFFFFFFFFFFFFFFFFFFFFFFFFFFFFFFFFFFFFFFF AND DUP2 MSTORE PUSH1 0x20 ADD SWAP1 DUP2 MSTORE PUSH1 0x20 ADD PUSH1 0x0 KECCAK256 PUSH1 0x0 DUP3 ADD MLOAD DUP2 PUSH1 0x0 ADD SSTORE PUSH1 0x20 DUP3 ADD MLOAD DUP2 PUSH1 0x1 ADD PUSH1 0x0 PUSH2 0x100 EXP DUP2 SLOAD DUP2 PUSH20 0xFFFFFFFFFFFFFFFFFFFFFFFFFFFFFFFFFFFFFFFF MUL NOT AND SWAP1 DUP4 PUSH20 0xFFFFFFFFFFFFFFFFFFFFFFFFFFFFFFFFFFFFFFFF AND MUL OR SWAP1 SSTORE POP PUSH1 0x40 DUP3 ADD MLOAD DUP2 PUSH1 0x2 ADD SSTORE SWAP1 POP POP CALLER PUSH1 0x3 PUSH1 0x0 DUP1 SLOAD DUP2 MSTORE PUSH1 0x20 ADD SWAP1 DUP2 MSTORE PUSH1 0x20 ADD PUSH1 0x0 KECCAK256 PUSH1 0x0 PUSH2 0x100 EXP DUP2 SLOAD DUP2 PUSH20 0xFFFFFFFFFFFFFFFFFFFFFFFFFFFFFFFFFFFFFFFF MUL NOT AND SWAP1 DUP4 PUSH20 0xFFFFFFFFFFFFFFFFFFFFFFFFFFFFFFFFFFFFFFFF AND MUL OR SWAP1 SSTORE POP PUSH1 0x1 PUSH1 0x0 DUP1 DUP3 DUP3 SLOAD PUSH2 0x687 SWAP2 SWAP1 PUSH2 0x1D02 JUMP JUMPDEST SWAP3 POP POP DUP2 SWAP1 SSTORE POP POP POP POP JUMP JUMPDEST PUSH1 0x4 PUSH1 0x20 MSTORE DUP1 PUSH1 0x0 MSTORE PUSH1 0x40 PUSH1 0x0 KECCAK256 PUSH1 0x0 SWAP2 POP SWAP1 POP DUP1 PUSH1 0x0 ADD SLOAD SWAP1 DUP1 PUSH1 0x1 ADD PUSH1 0x0 SWAP1 SLOAD SWAP1 PUSH2 0x100 EXP SWAP1 DIV PUSH20 0xFFFFFFFFFFFFFFFFFFFFFFFFFFFFFFFFFFFFFFFF AND SWAP1 DUP1 PUSH1 0x2 ADD SLOAD SWAP1 POP DUP4 JUMP JUMPDEST PUSH1 0x0 PUSH1 0x2 DUP3 PUSH2 0x6EC SWAP2 SWAP1 PUSH2 0x1D8F JUMP JUMPDEST SWAP1 POP SWAP2 SWAP1 POP JUMP JUMPDEST PUSH1 0x8 PUSH1 0x20 MSTORE DUP2 PUSH1 0x0 MSTORE PUSH1 0x40 PUSH1 0x0 KECCAK256 PUSH1 0x20 MSTORE DUP1 PUSH1 0x0 MSTORE PUSH1 0x40 PUSH1 0x0 KECCAK256 PUSH1 0x0 SWAP2 POP SWAP2 POP SWAP1 SLOAD SWAP1 PUSH2 0x100 EXP SWAP1 DIV PUSH1 0xFF AND DUP2 JUMP JUMPDEST PUSH1 0x0 PUSH20 0xFFFFFFFFFFFFFFFFFFFFFFFFFFFFFFFFFFFFFFFF AND PUSH1 0x4 PUSH1 0x0 CALLER PUSH20 0xFFFFFFFFFFFFFFFFFFFFFFFFFFFFFFFFFFFFFFFF AND PUSH20 0xFFFFFFFFFFFFFFFFFFFFFFFFFFFFFFFFFFFFFFFF AND DUP2 MSTORE PUSH1 0x20 ADD SWAP1 DUP2 MSTORE PUSH1 0x20 ADD PUSH1 0x0 KECCAK256 PUSH1 0x1 ADD PUSH1 0x0 SWAP1 SLOAD SWAP1 PUSH2 0x100 EXP SWAP1 DIV PUSH20 0xFFFFFFFFFFFFFFFFFFFFFFFFFFFFFFFFFFFFFFFF AND PUSH20 0xFFFFFFFFFFFFFFFFFFFFFFFFFFFFFFFFFFFFFFFF AND EQ ISZERO PUSH2 0x7BE JUMPI PUSH1 0x0 DUP1 REVERT JUMPDEST PUSH2 0x7C9 DUP2 CALLER CALLVALUE PUSH2 0xA41 JUMP JUMPDEST POP JUMP JUMPDEST PUSH1 0x0 DUP2 PUSH20 0xFFFFFFFFFFFFFFFFFFFFFFFFFFFFFFFFFFFFFFFF AND BALANCE SWAP1 POP SWAP2 SWAP1 POP JUMP JUMPDEST PUSH1 0x6 PUSH1 0x20 MSTORE DUP2 PUSH1 0x0 MSTORE PUSH1 0x40 PUSH1 0x0 KECCAK256 PUSH1 0x20 MSTORE DUP1 PUSH1 0x0 MSTORE PUSH1 0x40 PUSH1 0x0 KECCAK256 PUSH1 0x0 SWAP2 POP SWAP2 POP POP DUP1 PUSH1 0x0 ADD SLOAD SWAP1 DUP1 PUSH1 0x1 ADD PUSH1 0x0 SWAP1 SLOAD SWAP1 PUSH2 0x100 EXP SWAP1 DIV PUSH20 0xFFFFFFFFFFFFFFFFFFFFFFFFFFFFFFFFFFFFFFFF AND SWAP1 DUP1 PUSH1 0x2 ADD SLOAD SWAP1 POP DUP4 JUMP JUMPDEST PUSH2 0x84D CALLER PUSH2 0x966 JUMP JUMPDEST PUSH2 0x856 JUMPI PUSH1 0x0 DUP1 REVERT JUMPDEST PUSH1 0x40 MLOAD DUP1 PUSH1 0x40 ADD PUSH1 0x40 MSTORE DUP1 DUP4 DUP2 MSTORE PUSH1 0x20 ADD DUP3 DUP2 MSTORE POP PUSH1 0x2 PUSH1 0x0 PUSH1 0x1 PUSH1 0x0 SWAP1 SLOAD SWAP1 PUSH2 0x100 EXP SWAP1 DIV PUSH1 0xFF AND PUSH1 0xFF AND PUSH1 0xFF AND DUP2 MSTORE PUSH1 0x20 ADD SWAP1 DUP2 MSTORE PUSH1 0x20 ADD PUSH1 0x0 KECCAK256 PUSH1 0x0 DUP3 ADD MLOAD DUP2 PUSH1 0x0 ADD SSTORE PUSH1 0x20 DUP3 ADD MLOAD DUP2 PUSH1 0x1 ADD SSTORE SWAP1 POP POP PUSH32 0x954900F0FB49268C265D1BAFBFBF6C060C8B41CDB6B0BCAA575389D650B5E374 PUSH1 0x2 PUSH1 0x0 PUSH1 0x1 PUSH1 0x0 SWAP1 SLOAD SWAP1 PUSH2 0x100 EXP SWAP1 DIV PUSH1 0xFF AND PUSH1 0xFF AND PUSH1 0xFF AND DUP2 MSTORE PUSH1 0x20 ADD SWAP1 DUP2 MSTORE PUSH1 0x20 ADD PUSH1 0x0 KECCAK256 PUSH1 0x40 MLOAD PUSH2 0x900 SWAP2 SWAP1 PUSH2 0x1BB9 JUMP JUMPDEST PUSH1 0x40 MLOAD DUP1 SWAP2 SUB SWAP1 LOG1 PUSH1 0x1 DUP1 PUSH1 0x0 DUP3 DUP3 DUP3 SWAP1 SLOAD SWAP1 PUSH2 0x100 EXP SWAP1 DIV PUSH1 0xFF AND PUSH2 0x926 SWAP2 SWAP1 PUSH2 0x1D58 JUMP JUMPDEST SWAP3 POP PUSH2 0x100 EXP DUP2 SLOAD DUP2 PUSH1 0xFF MUL NOT AND SWAP1 DUP4 PUSH1 0xFF AND MUL OR SWAP1 SSTORE POP POP POP JUMP JUMPDEST PUSH1 0x2 PUSH1 0x20 MSTORE DUP1 PUSH1 0x0 MSTORE PUSH1 0x40 PUSH1 0x0 KECCAK256 PUSH1 0x0 SWAP2 POP SWAP1 POP DUP1 PUSH1 0x0 ADD SLOAD SWAP1 DUP1 PUSH1 0x1 ADD SLOAD SWAP1 POP DUP3 JUMP JUMPDEST PUSH1 0x0 PUSH1 0x1 DUP1 SLOAD SWAP1 PUSH2 0x100 EXP SWAP1 DIV PUSH20 0xFFFFFFFFFFFFFFFFFFFFFFFFFFFFFFFFFFFFFFFF AND PUSH20 0xFFFFFFFFFFFFFFFFFFFFFFFFFFFFFFFFFFFFFFFF AND DUP3 PUSH20 0xFFFFFFFFFFFFFFFFFFFFFFFFFFFFFFFFFFFFFFFF AND EQ SWAP1 POP SWAP2 SWAP1 POP JUMP JUMPDEST PUSH1 0x5 PUSH1 0x20 MSTORE DUP1 PUSH1 0x0 MSTORE PUSH1 0x40 PUSH1 0x0 KECCAK256 PUSH1 0x0 SWAP2 POP SWAP1 POP SLOAD DUP2 JUMP JUMPDEST PUSH1 0x1 PUSH1 0x0 SWAP1 SLOAD SWAP1 PUSH2 0x100 EXP SWAP1 DIV PUSH1 0xFF AND DUP2 JUMP JUMPDEST PUSH1 0x3 PUSH1 0x20 MSTORE DUP1 PUSH1 0x0 MSTORE PUSH1 0x40 PUSH1 0x0 KECCAK256 PUSH1 0x0 SWAP2 POP SLOAD SWAP1 PUSH2 0x100 EXP SWAP1 DIV PUSH20 0xFFFFFFFFFFFFFFFFFFFFFFFFFFFFFFFFFFFFFFFF AND DUP2 JUMP JUMPDEST PUSH1 0x7 PUSH1 0x20 MSTORE DUP2 PUSH1 0x0 MSTORE PUSH1 0x40 PUSH1 0x0 KECCAK256 PUSH1 0x20 MSTORE DUP1 PUSH1 0x0 MSTORE PUSH1 0x40 PUSH1 0x0 KECCAK256 PUSH1 0x0 SWAP2 POP SWAP2 POP POP SLOAD DUP2 JUMP JUMPDEST PUSH1 0x2 PUSH1 0x0 DUP5 PUSH1 0xFF AND PUSH1 0xFF AND DUP2 MSTORE PUSH1 0x20 ADD SWAP1 DUP2 MSTORE PUSH1 0x20 ADD PUSH1 0x0 KECCAK256 PUSH1 0x1 ADD SLOAD DUP2 LT ISZERO PUSH2 0xAA0 JUMPI PUSH1 0x40 MLOAD PUSH32 0x8C379A000000000000000000000000000000000000000000000000000000000 DUP2 MSTORE PUSH1 0x4 ADD PUSH2 0xA97 SWAP1 PUSH2 0x1B59 JUMP JUMPDEST PUSH1 0x40 MLOAD DUP1 SWAP2 SUB SWAP1 REVERT JUMPDEST PUSH1 0x4 PUSH1 0x0 DUP4 PUSH20 0xFFFFFFFFFFFFFFFFFFFFFFFFFFFFFFFFFFFFFFFF AND PUSH20 0xFFFFFFFFFFFFFFFFFFFFFFFFFFFFFFFFFFFFFFFF AND DUP2 MSTORE PUSH1 0x20 ADD SWAP1 DUP2 MSTORE PUSH1 0x20 ADD PUSH1 0x0 KECCAK256 PUSH1 0x6 PUSH1 0x0 DUP6 PUSH1 0xFF AND PUSH1 0xFF AND DUP2 MSTORE PUSH1 0x20 ADD SWAP1 DUP2 MSTORE PUSH1 0x20 ADD PUSH1 0x0 KECCAK256 PUSH1 0x0 PUSH1 0x5 PUSH1 0x0 DUP8 PUSH1 0xFF AND PUSH1 0xFF AND DUP2 MSTORE PUSH1 0x20 ADD SWAP1 DUP2 MSTORE PUSH1 0x20 ADD PUSH1 0x0 KECCAK256 SLOAD DUP2 MSTORE PUSH1 0x20 ADD SWAP1 DUP2 MSTORE PUSH1 0x20 ADD PUSH1 0x0 KECCAK256 PUSH1 0x0 DUP3 ADD SLOAD DUP2 PUSH1 0x0 ADD SSTORE PUSH1 0x1 DUP3 ADD PUSH1 0x0 SWAP1 SLOAD SWAP1 PUSH2 0x100 EXP SWAP1 DIV PUSH20 0xFFFFFFFFFFFFFFFFFFFFFFFFFFFFFFFFFFFFFFFF AND DUP2 PUSH1 0x1 ADD PUSH1 0x0 PUSH2 0x100 EXP DUP2 SLOAD DUP2 PUSH20 0xFFFFFFFFFFFFFFFFFFFFFFFFFFFFFFFFFFFFFFFF MUL NOT AND SWAP1 DUP4 PUSH20 0xFFFFFFFFFFFFFFFFFFFFFFFFFFFFFFFFFFFFFFFF AND MUL OR SWAP1 SSTORE POP PUSH1 0x2 DUP3 ADD SLOAD DUP2 PUSH1 0x2 ADD SSTORE SWAP1 POP POP PUSH1 0x1 PUSH1 0x5 PUSH1 0x0 DUP6 PUSH1 0xFF AND PUSH1 0xFF AND DUP2 MSTORE PUSH1 0x20 ADD SWAP1 DUP2 MSTORE PUSH1 0x20 ADD PUSH1 0x0 KECCAK256 PUSH1 0x0 DUP3 DUP3 SLOAD PUSH2 0xBCA SWAP2 SWAP1 PUSH2 0x1D02 JUMP JUMPDEST SWAP3 POP POP DUP2 SWAP1 SSTORE POP PUSH1 0x1 PUSH1 0x8 PUSH1 0x0 DUP5 PUSH20 0xFFFFFFFFFFFFFFFFFFFFFFFFFFFFFFFFFFFFFFFF AND PUSH20 0xFFFFFFFFFFFFFFFFFFFFFFFFFFFFFFFFFFFFFFFF AND DUP2 MSTORE PUSH1 0x20 ADD SWAP1 DUP2 MSTORE PUSH1 0x20 ADD PUSH1 0x0 KECCAK256 PUSH1 0x0 DUP6 PUSH1 0xFF AND PUSH1 0xFF AND DUP2 MSTORE PUSH1 0x20 ADD SWAP1 DUP2 MSTORE PUSH1 0x20 ADD PUSH1 0x0 KECCAK256 PUSH1 0x0 PUSH2 0x100 EXP DUP2 SLOAD DUP2 PUSH1 0xFF MUL NOT AND SWAP1 DUP4 ISZERO ISZERO MUL OR SWAP1 SSTORE POP PUSH1 0x3 PUSH1 0x5 PUSH1 0x0 DUP6 PUSH1 0xFF AND PUSH1 0xFF AND DUP2 MSTORE PUSH1 0x20 ADD SWAP1 DUP2 MSTORE PUSH1 0x20 ADD PUSH1 0x0 KECCAK256 SLOAD LT PUSH2 0x1813 JUMPI PUSH1 0x0 PUSH1 0x2 PUSH1 0x5 PUSH1 0x0 DUP7 PUSH1 0xFF AND PUSH1 0xFF AND DUP2 MSTORE PUSH1 0x20 ADD SWAP1 DUP2 MSTORE PUSH1 0x20 ADD PUSH1 0x0 KECCAK256 SLOAD PUSH2 0xC89 SWAP2 SWAP1 PUSH2 0x1D8F JUMP JUMPDEST SWAP1 POP JUMPDEST PUSH1 0x0 PUSH1 0x6 PUSH1 0x0 DUP7 PUSH1 0xFF AND PUSH1 0xFF AND DUP2 MSTORE PUSH1 0x20 ADD SWAP1 DUP2 MSTORE PUSH1 0x20 ADD PUSH1 0x0 KECCAK256 PUSH1 0x0 DUP4 DUP2 MSTORE PUSH1 0x20 ADD SWAP1 DUP2 MSTORE PUSH1 0x20 ADD PUSH1 0x0 KECCAK256 PUSH1 0x1 ADD PUSH1 0x0 SWAP1 SLOAD SWAP1 PUSH2 0x100 EXP SWAP1 DIV PUSH20 0xFFFFFFFFFFFFFFFFFFFFFFFFFFFFFFFFFFFFFFFF AND SWAP1 POP PUSH1 0x1 PUSH1 0x7 PUSH1 0x0 DUP4 PUSH20 0xFFFFFFFFFFFFFFFFFFFFFFFFFFFFFFFFFFFFFFFF AND PUSH20 0xFFFFFFFFFFFFFFFFFFFFFFFFFFFFFFFFFFFFFFFF AND DUP2 MSTORE PUSH1 0x20 ADD SWAP1 DUP2 MSTORE PUSH1 0x20 ADD PUSH1 0x0 KECCAK256 PUSH1 0x0 DUP8 PUSH1 0xFF AND PUSH1 0xFF AND DUP2 MSTORE PUSH1 0x20 ADD SWAP1 DUP2 MSTORE PUSH1 0x20 ADD PUSH1 0x0 KECCAK256 SLOAD GT ISZERO DUP1 PUSH2 0xDB0 JUMPI POP PUSH1 0x8 PUSH1 0x0 DUP3 PUSH20 0xFFFFFFFFFFFFFFFFFFFFFFFFFFFFFFFFFFFFFFFF AND PUSH20 0xFFFFFFFFFFFFFFFFFFFFFFFFFFFFFFFFFFFFFFFF AND DUP2 MSTORE PUSH1 0x20 ADD SWAP1 DUP2 MSTORE PUSH1 0x20 ADD PUSH1 0x0 KECCAK256 PUSH1 0x0 PUSH1 0x1 DUP8 PUSH2 0xD8D SWAP2 SWAP1 PUSH2 0x1D58 JUMP JUMPDEST PUSH1 0xFF AND PUSH1 0xFF AND DUP2 MSTORE PUSH1 0x20 ADD SWAP1 DUP2 MSTORE PUSH1 0x20 ADD PUSH1 0x0 KECCAK256 PUSH1 0x0 SWAP1 SLOAD SWAP1 PUSH2 0x100 EXP SWAP1 DIV PUSH1 0xFF AND JUMPDEST ISZERO PUSH2 0x1807 JUMPI PUSH1 0x0 DUP2 PUSH20 0xFFFFFFFFFFFFFFFFFFFFFFFFFFFFFFFFFFFFFFFF AND PUSH1 0x64 PUSH1 0x4A PUSH1 0x2 PUSH1 0x0 DUP11 PUSH1 0xFF AND PUSH1 0xFF AND DUP2 MSTORE PUSH1 0x20 ADD SWAP1 DUP2 MSTORE PUSH1 0x20 ADD PUSH1 0x0 KECCAK256 PUSH1 0x1 ADD SLOAD PUSH2 0xDF9 SWAP2 SWAP1 PUSH2 0x1DC0 JUMP JUMPDEST PUSH2 0xE03 SWAP2 SWAP1 PUSH2 0x1D8F JUMP JUMPDEST PUSH1 0x40 MLOAD PUSH2 0xE0F SWAP1 PUSH2 0x1AEE JUMP JUMPDEST PUSH1 0x0 PUSH1 0x40 MLOAD DUP1 DUP4 SUB DUP2 DUP6 DUP8 GAS CALL SWAP3 POP POP POP RETURNDATASIZE DUP1 PUSH1 0x0 DUP2 EQ PUSH2 0xE4C JUMPI PUSH1 0x40 MLOAD SWAP2 POP PUSH1 0x1F NOT PUSH1 0x3F RETURNDATASIZE ADD AND DUP3 ADD PUSH1 0x40 MSTORE RETURNDATASIZE DUP3 MSTORE RETURNDATASIZE PUSH1 0x0 PUSH1 0x20 DUP5 ADD RETURNDATACOPY PUSH2 0xE51 JUMP JUMPDEST PUSH1 0x60 SWAP2 POP JUMPDEST POP POP SWAP1 POP PUSH1 0x1 PUSH1 0x7 PUSH1 0x0 DUP5 PUSH20 0xFFFFFFFFFFFFFFFFFFFFFFFFFFFFFFFFFFFFFFFF AND PUSH20 0xFFFFFFFFFFFFFFFFFFFFFFFFFFFFFFFFFFFFFFFF AND DUP2 MSTORE PUSH1 0x20 ADD SWAP1 DUP2 MSTORE PUSH1 0x20 ADD PUSH1 0x0 KECCAK256 PUSH1 0x0 DUP9 PUSH1 0xFF AND PUSH1 0xFF AND DUP2 MSTORE PUSH1 0x20 ADD SWAP1 DUP2 MSTORE PUSH1 0x20 ADD PUSH1 0x0 KECCAK256 PUSH1 0x0 DUP3 DUP3 SLOAD PUSH2 0xEBC SWAP2 SWAP1 PUSH2 0x1D02 JUMP JUMPDEST SWAP3 POP POP DUP2 SWAP1 SSTORE POP PUSH32 0x48926DBE5DDF41609856A5A4F394BD85410DFCEDAA2CFEFB48BBB3BBAB8B6BE7 PUSH1 0x2 PUSH1 0x0 DUP9 PUSH1 0xFF AND PUSH1 0xFF AND DUP2 MSTORE PUSH1 0x20 ADD SWAP1 DUP2 MSTORE PUSH1 0x20 ADD PUSH1 0x0 KECCAK256 DUP4 DUP4 PUSH1 0x40 MLOAD PUSH2 0xF0E SWAP4 SWAP3 SWAP2 SWAP1 PUSH2 0x1BD4 JUMP JUMPDEST PUSH1 0x40 MLOAD DUP1 SWAP2 SUB SWAP1 LOG1 PUSH1 0x0 PUSH1 0x6 PUSH1 0x0 DUP9 PUSH1 0xFF AND PUSH1 0xFF AND DUP2 MSTORE PUSH1 0x20 ADD SWAP1 DUP2 MSTORE PUSH1 0x20 ADD PUSH1 0x0 KECCAK256 PUSH1 0x0 DUP6 DUP2 MSTORE PUSH1 0x20 ADD SWAP1 DUP2 MSTORE PUSH1 0x20 ADD PUSH1 0x0 KECCAK256 PUSH1 0x0 ADD SLOAD SWAP1 POP PUSH1 0x0 PUSH1 0x6 PUSH1 0x0 DUP10 PUSH1 0xFF AND PUSH1 0xFF AND DUP2 MSTORE PUSH1 0x20 ADD SWAP1 DUP2 MSTORE PUSH1 0x20 ADD PUSH1 0x0 KECCAK256 PUSH1 0x0 DUP7 DUP2 MSTORE PUSH1 0x20 ADD SWAP1 DUP2 MSTORE PUSH1 0x20 ADD PUSH1 0x0 KECCAK256 PUSH1 0x2 ADD SLOAD SWAP1 POP PUSH1 0x0 PUSH1 0x64 PUSH1 0xA PUSH1 0x2 PUSH1 0x0 DUP13 PUSH1 0xFF AND PUSH1 0xFF AND DUP2 MSTORE PUSH1 0x20 ADD SWAP1 DUP2 MSTORE PUSH1 0x20 ADD PUSH1 0x0 KECCAK256 PUSH1 0x1 ADD SLOAD PUSH2 0xFA7 SWAP2 SWAP1 PUSH2 0x1DC0 JUMP JUMPDEST PUSH2 0xFB1 SWAP2 SWAP1 PUSH2 0x1D8F JUMP JUMPDEST SWAP1 POP PUSH1 0x3 PUSH1 0x0 DUP4 DUP2 MSTORE PUSH1 0x20 ADD SWAP1 DUP2 MSTORE PUSH1 0x20 ADD PUSH1 0x0 KECCAK256 PUSH1 0x0 SWAP1 SLOAD SWAP1 PUSH2 0x100 EXP SWAP1 DIV PUSH20 0xFFFFFFFFFFFFFFFFFFFFFFFFFFFFFFFFFFFFFFFF AND PUSH20 0xFFFFFFFFFFFFFFFFFFFFFFFFFFFFFFFFFFFFFFFF AND DUP2 PUSH1 0x40 MLOAD PUSH2 0x100A SWAP1 PUSH2 0x1AEE JUMP JUMPDEST PUSH1 0x0 PUSH1 0x40 MLOAD DUP1 DUP4 SUB DUP2 DUP6 DUP8 GAS CALL SWAP3 POP POP POP RETURNDATASIZE DUP1 PUSH1 0x0 DUP2 EQ PUSH2 0x1047 JUMPI PUSH1 0x40 MLOAD SWAP2 POP PUSH1 0x1F NOT PUSH1 0x3F RETURNDATASIZE ADD AND DUP3 ADD PUSH1 0x40 MSTORE RETURNDATASIZE DUP3 MSTORE RETURNDATASIZE PUSH1 0x0 PUSH1 0x20 DUP5 ADD RETURNDATACOPY PUSH2 0x104C JUMP JUMPDEST PUSH1 0x60 SWAP2 POP JUMPDEST POP POP DUP1 SWAP5 POP POP DUP4 ISZERO PUSH2 0x10AE JUMPI PUSH32 0x99A41DF4773DA34D9D98CC939025289E5DB562F8FB5DF346A9E7A1672BD288E3 PUSH1 0x2 PUSH1 0x0 DUP12 PUSH1 0xFF AND PUSH1 0xFF AND DUP2 MSTORE PUSH1 0x20 ADD SWAP1 DUP2 MSTORE PUSH1 0x20 ADD PUSH1 0x0 KECCAK256 DUP5 DUP5 DUP5 PUSH1 0x40 MLOAD PUSH2 0x10A5 SWAP5 SWAP4 SWAP3 SWAP2 SWAP1 PUSH2 0x1C0B JUMP JUMPDEST PUSH1 0x40 MLOAD DUP1 SWAP2 SUB SWAP1 LOG1 JUMPDEST PUSH1 0x64 PUSH1 0x6 PUSH1 0x2 PUSH1 0x0 DUP13 PUSH1 0xFF AND PUSH1 0xFF AND DUP2 MSTORE PUSH1 0x20 ADD SWAP1 DUP2 MSTORE PUSH1 0x20 ADD PUSH1 0x0 KECCAK256 PUSH1 0x1 ADD SLOAD PUSH2 0x10D9 SWAP2 SWAP1 PUSH2 0x1DC0 JUMP JUMPDEST PUSH2 0x10E3 SWAP2 SWAP1 PUSH2 0x1D8F JUMP JUMPDEST SWAP1 POP PUSH1 0x4 PUSH1 0x0 PUSH1 0x3 PUSH1 0x0 DUP6 DUP2 MSTORE PUSH1 0x20 ADD SWAP1 DUP2 MSTORE PUSH1 0x20 ADD PUSH1 0x0 KECCAK256 PUSH1 0x0 SWAP1 SLOAD SWAP1 PUSH2 0x100 EXP SWAP1 DIV PUSH20 0xFFFFFFFFFFFFFFFFFFFFFFFFFFFFFFFFFFFFFFFF AND PUSH20 0xFFFFFFFFFFFFFFFFFFFFFFFFFFFFFFFFFFFFFFFF AND PUSH20 0xFFFFFFFFFFFFFFFFFFFFFFFFFFFFFFFFFFFFFFFF AND DUP2 MSTORE PUSH1 0x20 ADD SWAP1 DUP2 MSTORE PUSH1 0x20 ADD PUSH1 0x0 KECCAK256 PUSH1 0x1 ADD PUSH1 0x0 SWAP1 SLOAD SWAP1 PUSH2 0x100 EXP SWAP1 DIV PUSH20 0xFFFFFFFFFFFFFFFFFFFFFFFFFFFFFFFFFFFFFFFF AND PUSH20 0xFFFFFFFFFFFFFFFFFFFFFFFFFFFFFFFFFFFFFFFF AND DUP2 PUSH1 0x40 MLOAD PUSH2 0x119E SWAP1 PUSH2 0x1AEE JUMP JUMPDEST PUSH1 0x0 PUSH1 0x40 MLOAD DUP1 DUP4 SUB DUP2 DUP6 DUP8 GAS CALL SWAP3 POP POP POP RETURNDATASIZE DUP1 PUSH1 0x0 DUP2 EQ PUSH2 0x11DB JUMPI PUSH1 0x40 MLOAD SWAP2 POP PUSH1 0x1F NOT PUSH1 0x3F RETURNDATASIZE ADD AND DUP3 ADD PUSH1 0x40 MSTORE RETURNDATASIZE DUP3 MSTORE RETURNDATASIZE PUSH1 0x0 PUSH1 0x20 DUP5 ADD RETURNDATACOPY PUSH2 0x11E0 JUMP JUMPDEST PUSH1 0x60 SWAP2 POP JUMPDEST POP POP DUP1 SWAP5 POP POP DUP4 ISZERO PUSH2 0x12B7 JUMPI PUSH32 0x99A41DF4773DA34D9D98CC939025289E5DB562F8FB5DF346A9E7A1672BD288E3 PUSH1 0x2 PUSH1 0x0 DUP12 PUSH1 0xFF AND PUSH1 0xFF AND DUP2 MSTORE PUSH1 0x20 ADD SWAP1 DUP2 MSTORE PUSH1 0x20 ADD PUSH1 0x0 KECCAK256 DUP4 PUSH1 0x4 PUSH1 0x0 PUSH1 0x3 PUSH1 0x0 DUP9 DUP2 MSTORE PUSH1 0x20 ADD SWAP1 DUP2 MSTORE PUSH1 0x20 ADD PUSH1 0x0 KECCAK256 PUSH1 0x0 SWAP1 SLOAD SWAP1 PUSH2 0x100 EXP SWAP1 DIV PUSH20 0xFFFFFFFFFFFFFFFFFFFFFFFFFFFFFFFFFFFFFFFF AND PUSH20 0xFFFFFFFFFFFFFFFFFFFFFFFFFFFFFFFFFFFFFFFF AND PUSH20 0xFFFFFFFFFFFFFFFFFFFFFFFFFFFFFFFFFFFFFFFF AND DUP2 MSTORE PUSH1 0x20 ADD SWAP1 DUP2 MSTORE PUSH1 0x20 ADD PUSH1 0x0 KECCAK256 PUSH1 0x0 ADD SLOAD DUP5 PUSH1 0x40 MLOAD PUSH2 0x12AE SWAP5 SWAP4 SWAP3 SWAP2 SWAP1 PUSH2 0x1C0B JUMP JUMPDEST PUSH1 0x40 MLOAD DUP1 SWAP2 SUB SWAP1 LOG1 JUMPDEST PUSH1 0x64 PUSH1 0x4 PUSH1 0x2 PUSH1 0x0 DUP13 PUSH1 0xFF AND PUSH1 0xFF AND DUP2 MSTORE PUSH1 0x20 ADD SWAP1 DUP2 MSTORE PUSH1 0x20 ADD PUSH1 0x0 KECCAK256 PUSH1 0x1 ADD SLOAD PUSH2 0x12E2 SWAP2 SWAP1 PUSH2 0x1DC0 JUMP JUMPDEST PUSH2 0x12EC SWAP2 SWAP1 PUSH2 0x1D8F JUMP JUMPDEST SWAP1 POP PUSH1 0x4 PUSH1 0x0 PUSH1 0x3 PUSH1 0x0 PUSH1 0x4 PUSH1 0x0 PUSH1 0x3 PUSH1 0x0 DUP10 DUP2 MSTORE PUSH1 0x20 ADD SWAP1 DUP2 MSTORE PUSH1 0x20 ADD PUSH1 0x0 KECCAK256 PUSH1 0x0 SWAP1 SLOAD SWAP1 PUSH2 0x100 EXP SWAP1 DIV PUSH20 0xFFFFFFFFFFFFFFFFFFFFFFFFFFFFFFFFFFFFFFFF AND PUSH20 0xFFFFFFFFFFFFFFFFFFFFFFFFFFFFFFFFFFFFFFFF AND PUSH20 0xFFFFFFFFFFFFFFFFFFFFFFFFFFFFFFFFFFFFFFFF AND DUP2 MSTORE PUSH1 0x20 ADD SWAP1 DUP2 MSTORE PUSH1 0x20 ADD PUSH1 0x0 KECCAK256 PUSH1 0x0 ADD SLOAD DUP2 MSTORE PUSH1 0x20 ADD SWAP1 DUP2 MSTORE PUSH1 0x20 ADD PUSH1 0x0 KECCAK256 PUSH1 0x0 SWAP1 SLOAD SWAP1 PUSH2 0x100 EXP SWAP1 DIV PUSH20 0xFFFFFFFFFFFFFFFFFFFFFFFFFFFFFFFFFFFFFFFF AND PUSH20 0xFFFFFFFFFFFFFFFFFFFFFFFFFFFFFFFFFFFFFFFF AND PUSH20 0xFFFFFFFFFFFFFFFFFFFFFFFFFFFFFFFFFFFFFFFF AND DUP2 MSTORE PUSH1 0x20 ADD SWAP1 DUP2 MSTORE PUSH1 0x20 ADD PUSH1 0x0 KECCAK256 PUSH1 0x1 ADD PUSH1 0x0 SWAP1 SLOAD SWAP1 PUSH2 0x100 EXP SWAP1 DIV PUSH20 0xFFFFFFFFFFFFFFFFFFFFFFFFFFFFFFFFFFFFFFFF AND PUSH20 0xFFFFFFFFFFFFFFFFFFFFFFFFFFFFFFFFFFFFFFFF AND DUP2 PUSH1 0x40 MLOAD PUSH2 0x141C SWAP1 PUSH2 0x1AEE JUMP JUMPDEST PUSH1 0x0 PUSH1 0x40 MLOAD DUP1 DUP4 SUB DUP2 DUP6 DUP8 GAS CALL SWAP3 POP POP POP RETURNDATASIZE DUP1 PUSH1 0x0 DUP2 EQ PUSH2 0x1459 JUMPI PUSH1 0x40 MLOAD SWAP2 POP PUSH1 0x1F NOT PUSH1 0x3F RETURNDATASIZE ADD AND DUP3 ADD PUSH1 0x40 MSTORE RETURNDATASIZE DUP3 MSTORE RETURNDATASIZE PUSH1 0x0 PUSH1 0x20 DUP5 ADD RETURNDATACOPY PUSH2 0x145E JUMP JUMPDEST PUSH1 0x60 SWAP2 POP JUMPDEST POP POP DUP1 SWAP5 POP POP DUP4 ISZERO PUSH2 0x161F JUMPI PUSH32 0x99A41DF4773DA34D9D98CC939025289E5DB562F8FB5DF346A9E7A1672BD288E3 PUSH1 0x2 PUSH1 0x0 DUP12 PUSH1 0xFF AND PUSH1 0xFF AND DUP2 MSTORE PUSH1 0x20 ADD SWAP1 DUP2 MSTORE PUSH1 0x20 ADD PUSH1 0x0 KECCAK256 PUSH1 0x4 PUSH1 0x0 PUSH1 0x3 PUSH1 0x0 DUP8 DUP2 MSTORE PUSH1 0x20 ADD SWAP1 DUP2 MSTORE PUSH1 0x20 ADD PUSH1 0x0 KECCAK256 PUSH1 0x0 SWAP1 SLOAD SWAP1 PUSH2 0x100 EXP SWAP1 DIV PUSH20 0xFFFFFFFFFFFFFFFFFFFFFFFFFFFFFFFFFFFFFFFF AND PUSH20 0xFFFFFFFFFFFFFFFFFFFFFFFFFFFFFFFFFFFFFFFF AND PUSH20 0xFFFFFFFFFFFFFFFFFFFFFFFFFFFFFFFFFFFFFFFF AND DUP2 MSTORE PUSH1 0x20 ADD SWAP1 DUP2 MSTORE PUSH1 0x20 ADD PUSH1 0x0 KECCAK256 PUSH1 0x0 ADD SLOAD PUSH1 0x4 PUSH1 0x0 PUSH1 0x3 PUSH1 0x0 PUSH1 0x4 PUSH1 0x0 PUSH1 0x3 PUSH1 0x0 DUP13 DUP2 MSTORE PUSH1 0x20 ADD SWAP1 DUP2 MSTORE PUSH1 0x20 ADD PUSH1 0x0 KECCAK256 PUSH1 0x0 SWAP1 SLOAD SWAP1 PUSH2 0x100 EXP SWAP1 DIV PUSH20 0xFFFFFFFFFFFFFFFFFFFFFFFFFFFFFFFFFFFFFFFF AND PUSH20 0xFFFFFFFFFFFFFFFFFFFFFFFFFFFFFFFFFFFFFFFF AND PUSH20 0xFFFFFFFFFFFFFFFFFFFFFFFFFFFFFFFFFFFFFFFF AND DUP2 MSTORE PUSH1 0x20 ADD SWAP1 DUP2 MSTORE PUSH1 0x20 ADD PUSH1 0x0 KECCAK256 PUSH1 0x0 ADD SLOAD DUP2 MSTORE PUSH1 0x20 ADD SWAP1 DUP2 MSTORE PUSH1 0x20 ADD PUSH1 0x0 KECCAK256 PUSH1 0x0 SWAP1 SLOAD SWAP1 PUSH2 0x100 EXP SWAP1 DIV PUSH20 0xFFFFFFFFFFFFFFFFFFFFFFFFFFFFFFFFFFFFFFFF AND PUSH20 0xFFFFFFFFFFFFFFFFFFFFFFFFFFFFFFFFFFFFFFFF AND PUSH20 0xFFFFFFFFFFFFFFFFFFFFFFFFFFFFFFFFFFFFFFFF AND DUP2 MSTORE PUSH1 0x20 ADD SWAP1 DUP2 MSTORE PUSH1 0x20 ADD PUSH1 0x0 KECCAK256 PUSH1 0x0 ADD SLOAD DUP5 PUSH1 0x40 MLOAD PUSH2 0x1616 SWAP5 SWAP4 SWAP3 SWAP2 SWAP1 PUSH2 0x1C0B JUMP JUMPDEST PUSH1 0x40 MLOAD DUP1 SWAP2 SUB SWAP1 LOG1 JUMPDEST PUSH1 0x64 PUSH1 0x6 PUSH1 0x2 PUSH1 0x0 DUP13 PUSH1 0xFF AND PUSH1 0xFF AND DUP2 MSTORE PUSH1 0x20 ADD SWAP1 DUP2 MSTORE PUSH1 0x20 ADD PUSH1 0x0 KECCAK256 PUSH1 0x1 ADD SLOAD PUSH2 0x164A SWAP2 SWAP1 PUSH2 0x1DC0 JUMP JUMPDEST PUSH2 0x1654 SWAP2 SWAP1 PUSH2 0x1D8F JUMP JUMPDEST SWAP1 POP PUSH1 0x4 PUSH1 0x0 PUSH1 0x1 DUP1 SLOAD SWAP1 PUSH2 0x100 EXP SWAP1 DIV PUSH20 0xFFFFFFFFFFFFFFFFFFFFFFFFFFFFFFFFFFFFFFFF AND PUSH20 0xFFFFFFFFFFFFFFFFFFFFFFFFFFFFFFFFFFFFFFFF AND PUSH20 0xFFFFFFFFFFFFFFFFFFFFFFFFFFFFFFFFFFFFFFFF AND DUP2 MSTORE PUSH1 0x20 ADD SWAP1 DUP2 MSTORE PUSH1 0x20 ADD PUSH1 0x0 KECCAK256 PUSH1 0x1 ADD PUSH1 0x0 SWAP1 SLOAD SWAP1 PUSH2 0x100 EXP SWAP1 DIV PUSH20 0xFFFFFFFFFFFFFFFFFFFFFFFFFFFFFFFFFFFFFFFF AND PUSH20 0xFFFFFFFFFFFFFFFFFFFFFFFFFFFFFFFFFFFFFFFF AND DUP2 PUSH1 0x40 MLOAD PUSH2 0x16FC SWAP1 PUSH2 0x1AEE JUMP JUMPDEST PUSH1 0x0 PUSH1 0x40 MLOAD DUP1 DUP4 SUB DUP2 DUP6 DUP8 GAS CALL SWAP3 POP POP POP RETURNDATASIZE DUP1 PUSH1 0x0 DUP2 EQ PUSH2 0x1739 JUMPI PUSH1 0x40 MLOAD SWAP2 POP PUSH1 0x1F NOT PUSH1 0x3F RETURNDATASIZE ADD AND DUP3 ADD PUSH1 0x40 MSTORE RETURNDATASIZE DUP3 MSTORE RETURNDATASIZE PUSH1 0x0 PUSH1 0x20 DUP5 ADD RETURNDATACOPY PUSH2 0x173E JUMP JUMPDEST PUSH1 0x60 SWAP2 POP JUMPDEST POP POP DUP1 SWAP5 POP POP DUP4 ISZERO PUSH2 0x1802 JUMPI PUSH32 0x99A41DF4773DA34D9D98CC939025289E5DB562F8FB5DF346A9E7A1672BD288E3 PUSH1 0x2 PUSH1 0x0 DUP12 PUSH1 0xFF AND PUSH1 0xFF AND DUP2 MSTORE PUSH1 0x20 ADD SWAP1 DUP2 MSTORE PUSH1 0x20 ADD PUSH1 0x0 KECCAK256 DUP5 PUSH1 0x4 PUSH1 0x0 PUSH1 0x1 DUP1 SLOAD SWAP1 PUSH2 0x100 EXP SWAP1 DIV PUSH20 0xFFFFFFFFFFFFFFFFFFFFFFFFFFFFFFFFFFFFFFFF AND PUSH20 0xFFFFFFFFFFFFFFFFFFFFFFFFFFFFFFFFFFFFFFFF AND PUSH20 0xFFFFFFFFFFFFFFFFFFFFFFFFFFFFFFFFFFFFFFFF AND DUP2 MSTORE PUSH1 0x20 ADD SWAP1 DUP2 MSTORE PUSH1 0x20 ADD PUSH1 0x0 KECCAK256 PUSH1 0x0 ADD SLOAD DUP5 PUSH1 0x40 MLOAD PUSH2 0x17F9 SWAP5 SWAP4 SWAP3 SWAP2 SWAP1 PUSH2 0x1C0B JUMP JUMPDEST PUSH1 0x40 MLOAD DUP1 SWAP2 SUB SWAP1 LOG1 JUMPDEST POP POP POP POP JUMPDEST POP PUSH1 0x0 DUP2 EQ ISZERO PUSH2 0xC8C JUMPI POP JUMPDEST POP POP POP JUMP JUMPDEST PUSH1 0x0 DUP2 CALLDATALOAD SWAP1 POP PUSH2 0x1827 DUP2 PUSH2 0x2032 JUMP JUMPDEST SWAP3 SWAP2 POP POP JUMP JUMPDEST PUSH1 0x0 DUP2 CALLDATALOAD SWAP1 POP PUSH2 0x183C DUP2 PUSH2 0x2049 JUMP JUMPDEST SWAP3 SWAP2 POP POP JUMP JUMPDEST PUSH1 0x0 DUP2 CALLDATALOAD SWAP1 POP PUSH2 0x1851 DUP2 PUSH2 0x2060 JUMP JUMPDEST SWAP3 SWAP2 POP POP JUMP JUMPDEST PUSH1 0x0 PUSH1 0x20 DUP3 DUP5 SUB SLT ISZERO PUSH2 0x186D JUMPI PUSH2 0x186C PUSH2 0x1F2D JUMP JUMPDEST JUMPDEST PUSH1 0x0 PUSH2 0x187B DUP5 DUP3 DUP6 ADD PUSH2 0x1818 JUMP JUMPDEST SWAP2 POP POP SWAP3 SWAP2 POP POP JUMP JUMPDEST PUSH1 0x0 DUP1 PUSH1 0x40 DUP4 DUP6 SUB SLT ISZERO PUSH2 0x189B JUMPI PUSH2 0x189A PUSH2 0x1F2D JUMP JUMPDEST JUMPDEST PUSH1 0x0 PUSH2 0x18A9 DUP6 DUP3 DUP7 ADD PUSH2 0x1818 JUMP JUMPDEST SWAP3 POP POP PUSH1 0x20 PUSH2 0x18BA DUP6 DUP3 DUP7 ADD PUSH2 0x1842 JUMP JUMPDEST SWAP2 POP POP SWAP3 POP SWAP3 SWAP1 POP JUMP JUMPDEST PUSH1 0x0 PUSH1 0x20 DUP3 DUP5 SUB SLT ISZERO PUSH2 0x18DA JUMPI PUSH2 0x18D9 PUSH2 0x1F2D JUMP JUMPDEST JUMPDEST PUSH1 0x0 PUSH2 0x18E8 DUP5 DUP3 DUP6 ADD PUSH2 0x182D JUMP JUMPDEST SWAP2 POP POP SWAP3 SWAP2 POP POP JUMP JUMPDEST PUSH1 0x0 DUP1 PUSH1 0x40 DUP4 DUP6 SUB SLT ISZERO PUSH2 0x1908 JUMPI PUSH2 0x1907 PUSH2 0x1F2D JUMP JUMPDEST JUMPDEST PUSH1 0x0 PUSH2 0x1916 DUP6 DUP3 DUP7 ADD PUSH2 0x182D JUMP JUMPDEST SWAP3 POP POP PUSH1 0x20 PUSH2 0x1927 DUP6 DUP3 DUP7 ADD PUSH2 0x182D JUMP JUMPDEST SWAP2 POP POP SWAP3 POP SWAP3 SWAP1 POP JUMP JUMPDEST PUSH1 0x0 PUSH1 0x20 DUP3 DUP5 SUB SLT ISZERO PUSH2 0x1947 JUMPI PUSH2 0x1946 PUSH2 0x1F2D JUMP JUMPDEST JUMPDEST PUSH1 0x0 PUSH2 0x1955 DUP5 DUP3 DUP6 ADD PUSH2 0x1842 JUMP JUMPDEST SWAP2 POP POP SWAP3 SWAP2 POP POP JUMP JUMPDEST PUSH1 0x0 DUP1 PUSH1 0x40 DUP4 DUP6 SUB SLT ISZERO PUSH2 0x1975 JUMPI PUSH2 0x1974 PUSH2 0x1F2D JUMP JUMPDEST JUMPDEST PUSH1 0x0 PUSH2 0x1983 DUP6 DUP3 DUP7 ADD PUSH2 0x1842 JUMP JUMPDEST SWAP3 POP POP PUSH1 0x20 PUSH2 0x1994 DUP6 DUP3 DUP7 ADD PUSH2 0x182D JUMP JUMPDEST SWAP2 POP POP SWAP3 POP SWAP3 SWAP1 POP JUMP JUMPDEST PUSH2 0x19A7 DUP2 PUSH2 0x1E36 JUMP JUMPDEST DUP3 MSTORE POP POP JUMP JUMPDEST PUSH2 0x19B6 DUP2 PUSH2 0x1E24 JUMP JUMPDEST DUP3 MSTORE POP POP JUMP JUMPDEST PUSH2 0x19C5 DUP2 PUSH2 0x1E48 JUMP JUMPDEST DUP3 MSTORE POP POP JUMP JUMPDEST PUSH1 0x0 PUSH2 0x19D8 PUSH1 0xE DUP4 PUSH2 0x1CF1 JUMP JUMPDEST SWAP2 POP PUSH2 0x19E3 DUP3 PUSH2 0x1F3F JUMP JUMPDEST PUSH1 0x20 DUP3 ADD SWAP1 POP SWAP2 SWAP1 POP JUMP JUMPDEST PUSH1 0x0 PUSH2 0x19FB PUSH1 0x0 DUP4 PUSH2 0x1CE6 JUMP JUMPDEST SWAP2 POP PUSH2 0x1A06 DUP3 PUSH2 0x1F68 JUMP JUMPDEST PUSH1 0x0 DUP3 ADD SWAP1 POP SWAP2 SWAP1 POP JUMP JUMPDEST PUSH1 0x0 PUSH2 0x1A1E PUSH1 0x23 DUP4 PUSH2 0x1CF1 JUMP JUMPDEST SWAP2 POP PUSH2 0x1A29 DUP3 PUSH2 0x1F6B JUMP JUMPDEST PUSH1 0x40 DUP3 ADD SWAP1 POP SWAP2 SWAP1 POP JUMP JUMPDEST PUSH1 0x0 PUSH2 0x1A41 PUSH1 0x28 DUP4 PUSH2 0x1CF1 JUMP JUMPDEST SWAP2 POP PUSH2 0x1A4C DUP3 PUSH2 0x1FBA JUMP JUMPDEST PUSH1 0x40 DUP3 ADD SWAP1 POP SWAP2 SWAP1 POP JUMP JUMPDEST PUSH1 0x0 PUSH2 0x1A64 PUSH1 0xC DUP4 PUSH2 0x1CF1 JUMP JUMPDEST SWAP2 POP PUSH2 0x1A6F DUP3 PUSH2 0x2009 JUMP JUMPDEST PUSH1 0x20 DUP3 ADD SWAP1 POP SWAP2 SWAP1 POP JUMP JUMPDEST PUSH1 0x40 DUP3 ADD PUSH1 0x0 DUP1 DUP4 ADD SLOAD SWAP1 POP PUSH2 0x1A8F DUP2 PUSH2 0x1E8B JUMP JUMPDEST PUSH2 0x1A9C PUSH1 0x0 DUP7 ADD DUP3 PUSH2 0x1AC1 JUMP JUMPDEST POP PUSH1 0x1 DUP4 ADD SLOAD SWAP1 POP PUSH2 0x1AAD DUP2 PUSH2 0x1E8B JUMP JUMPDEST PUSH2 0x1ABA PUSH1 0x20 DUP7 ADD DUP3 PUSH2 0x1AC1 JUMP JUMPDEST POP POP POP POP POP JUMP JUMPDEST PUSH2 0x1ACA DUP2 PUSH2 0x1E74 JUMP JUMPDEST DUP3 MSTORE POP POP JUMP JUMPDEST PUSH2 0x1AD9 DUP2 PUSH2 0x1E74 JUMP JUMPDEST DUP3 MSTORE POP POP JUMP JUMPDEST PUSH2 0x1AE8 DUP2 PUSH2 0x1E7E JUMP JUMPDEST DUP3 MSTORE POP POP JUMP JUMPDEST PUSH1 0x0 PUSH2 0x1AF9 DUP3 PUSH2 0x19EE JUMP JUMPDEST SWAP2 POP DUP2 SWAP1 POP SWAP2 SWAP1 POP JUMP JUMPDEST PUSH1 0x0 PUSH1 0x20 DUP3 ADD SWAP1 POP PUSH2 0x1B18 PUSH1 0x0 DUP4 ADD DUP5 PUSH2 0x19AD JUMP JUMPDEST SWAP3 SWAP2 POP POP JUMP JUMPDEST PUSH1 0x0 PUSH1 0x20 DUP3 ADD SWAP1 POP PUSH2 0x1B33 PUSH1 0x0 DUP4 ADD DUP5 PUSH2 0x19BC JUMP JUMPDEST SWAP3 SWAP2 POP POP JUMP JUMPDEST PUSH1 0x0 PUSH1 0x20 DUP3 ADD SWAP1 POP DUP2 DUP2 SUB PUSH1 0x0 DUP4 ADD MSTORE PUSH2 0x1B52 DUP2 PUSH2 0x19CB JUMP JUMPDEST SWAP1 POP SWAP2 SWAP1 POP JUMP JUMPDEST PUSH1 0x0 PUSH1 0x20 DUP3 ADD SWAP1 POP DUP2 DUP2 SUB PUSH1 0x0 DUP4 ADD MSTORE PUSH2 0x1B72 DUP2 PUSH2 0x1A11 JUMP JUMPDEST SWAP1 POP SWAP2 SWAP1 POP JUMP JUMPDEST PUSH1 0x0 PUSH1 0x20 DUP3 ADD SWAP1 POP DUP2 DUP2 SUB PUSH1 0x0 DUP4 ADD MSTORE PUSH2 0x1B92 DUP2 PUSH2 0x1A34 JUMP JUMPDEST SWAP1 POP SWAP2 SWAP1 POP JUMP JUMPDEST PUSH1 0x0 PUSH1 0x20 DUP3 ADD SWAP1 POP DUP2 DUP2 SUB PUSH1 0x0 DUP4 ADD MSTORE PUSH2 0x1BB2 DUP2 PUSH2 0x1A57 JUMP JUMPDEST SWAP1 POP SWAP2 SWAP1 POP JUMP JUMPDEST PUSH1 0x0 PUSH1 0x40 DUP3 ADD SWAP1 POP PUSH2 0x1BCE PUSH1 0x0 DUP4 ADD DUP5 PUSH2 0x1A7A JUMP JUMPDEST SWAP3 SWAP2 POP POP JUMP JUMPDEST PUSH1 0x0 PUSH1 0x80 DUP3 ADD SWAP1 POP PUSH2 0x1BE9 PUSH1 0x0 DUP4 ADD DUP7 PUSH2 0x1A7A JUMP JUMPDEST PUSH2 0x1BF6 PUSH1 0x40 DUP4 ADD DUP6 PUSH2 0x19AD JUMP JUMPDEST PUSH2 0x1C03 PUSH1 0x60 DUP4 ADD DUP5 PUSH2 0x19BC JUMP JUMPDEST SWAP5 SWAP4 POP POP POP POP JUMP JUMPDEST PUSH1 0x0 PUSH1 0xA0 DUP3 ADD SWAP1 POP PUSH2 0x1C20 PUSH1 0x0 DUP4 ADD DUP8 PUSH2 0x1A7A JUMP JUMPDEST PUSH2 0x1C2D PUSH1 0x40 DUP4 ADD DUP7 PUSH2 0x1AD0 JUMP JUMPDEST PUSH2 0x1C3A PUSH1 0x60 DUP4 ADD DUP6 PUSH2 0x1AD0 JUMP JUMPDEST PUSH2 0x1C47 PUSH1 0x80 DUP4 ADD DUP5 PUSH2 0x1AD0 JUMP JUMPDEST SWAP6 SWAP5 POP POP POP POP POP JUMP JUMPDEST PUSH1 0x0 PUSH1 0x20 DUP3 ADD SWAP1 POP PUSH2 0x1C65 PUSH1 0x0 DUP4 ADD DUP5 PUSH2 0x1AD0 JUMP JUMPDEST SWAP3 SWAP2 POP POP JUMP JUMPDEST PUSH1 0x0 PUSH1 0x60 DUP3 ADD SWAP1 POP PUSH2 0x1C80 PUSH1 0x0 DUP4 ADD DUP7 PUSH2 0x1AD0 JUMP JUMPDEST PUSH2 0x1C8D PUSH1 0x20 DUP4 ADD DUP6 PUSH2 0x199E JUMP JUMPDEST PUSH2 0x1C9A PUSH1 0x40 DUP4 ADD DUP5 PUSH2 0x1AD0 JUMP JUMPDEST SWAP5 SWAP4 POP POP POP POP JUMP JUMPDEST PUSH1 0x0 PUSH1 0x40 DUP3 ADD SWAP1 POP PUSH2 0x1CB7 PUSH1 0x0 DUP4 ADD DUP6 PUSH2 0x1AD0 JUMP JUMPDEST PUSH2 0x1CC4 PUSH1 0x20 DUP4 ADD DUP5 PUSH2 0x1AD0 JUMP JUMPDEST SWAP4 SWAP3 POP POP POP JUMP JUMPDEST PUSH1 0x0 PUSH1 0x20 DUP3 ADD SWAP1 POP PUSH2 0x1CE0 PUSH1 0x0 DUP4 ADD DUP5 PUSH2 0x1ADF JUMP JUMPDEST SWAP3 SWAP2 POP POP JUMP JUMPDEST PUSH1 0x0 DUP2 SWAP1 POP SWAP3 SWAP2 POP POP JUMP JUMPDEST PUSH1 0x0 DUP3 DUP3 MSTORE PUSH1 0x20 DUP3 ADD SWAP1 POP SWAP3 SWAP2 POP POP JUMP JUMPDEST PUSH1 0x0 PUSH2 0x1D0D DUP3 PUSH2 0x1E74 JUMP JUMPDEST SWAP2 POP PUSH2 0x1D18 DUP4 PUSH2 0x1E74 JUMP JUMPDEST SWAP3 POP DUP3 PUSH32 0xFFFFFFFFFFFFFFFFFFFFFFFFFFFFFFFFFFFFFFFFFFFFFFFFFFFFFFFFFFFFFFFF SUB DUP3 GT ISZERO PUSH2 0x1D4D JUMPI PUSH2 0x1D4C PUSH2 0x1ECF JUMP JUMPDEST JUMPDEST DUP3 DUP3 ADD SWAP1 POP SWAP3 SWAP2 POP POP JUMP JUMPDEST PUSH1 0x0 PUSH2 0x1D63 DUP3 PUSH2 0x1E7E JUMP JUMPDEST SWAP2 POP PUSH2 0x1D6E DUP4 PUSH2 0x1E7E JUMP JUMPDEST SWAP3 POP DUP3 PUSH1 0xFF SUB DUP3 GT ISZERO PUSH2 0x1D84 JUMPI PUSH2 0x1D83 PUSH2 0x1ECF JUMP JUMPDEST JUMPDEST DUP3 DUP3 ADD SWAP1 POP SWAP3 SWAP2 POP POP JUMP JUMPDEST PUSH1 0x0 PUSH2 0x1D9A DUP3 PUSH2 0x1E74 JUMP JUMPDEST SWAP2 POP PUSH2 0x1DA5 DUP4 PUSH2 0x1E74 JUMP JUMPDEST SWAP3 POP DUP3 PUSH2 0x1DB5 JUMPI PUSH2 0x1DB4 PUSH2 0x1EFE JUMP JUMPDEST JUMPDEST DUP3 DUP3 DIV SWAP1 POP SWAP3 SWAP2 POP POP JUMP JUMPDEST PUSH1 0x0 PUSH2 0x1DCB DUP3 PUSH2 0x1E74 JUMP JUMPDEST SWAP2 POP PUSH2 0x1DD6 DUP4 PUSH2 0x1E74 JUMP JUMPDEST SWAP3 POP DUP2 PUSH32 0xFFFFFFFFFFFFFFFFFFFFFFFFFFFFFFFFFFFFFFFFFFFFFFFFFFFFFFFFFFFFFFFF DIV DUP4 GT DUP3 ISZERO ISZERO AND ISZERO PUSH2 0x1E0F JUMPI PUSH2 0x1E0E PUSH2 0x1ECF JUMP JUMPDEST JUMPDEST DUP3 DUP3 MUL SWAP1 POP SWAP3 SWAP2 POP POP JUMP JUMPDEST PUSH1 0x0 DUP2 SWAP1 POP SWAP2 SWAP1 POP JUMP JUMPDEST PUSH1 0x0 PUSH2 0x1E2F DUP3 PUSH2 0x1E54 JUMP JUMPDEST SWAP1 POP SWAP2 SWAP1 POP JUMP JUMPDEST PUSH1 0x0 PUSH2 0x1E41 DUP3 PUSH2 0x1E54 JUMP JUMPDEST SWAP1 POP SWAP2 SWAP1 POP JUMP JUMPDEST PUSH1 0x0 DUP2 ISZERO ISZERO SWAP1 POP SWAP2 SWAP1 POP JUMP JUMPDEST PUSH1 0x0 PUSH20 0xFFFFFFFFFFFFFFFFFFFFFFFFFFFFFFFFFFFFFFFF DUP3 AND SWAP1 POP SWAP2 SWAP1 POP JUMP JUMPDEST PUSH1 0x0 DUP2 SWAP1 POP SWAP2 SWAP1 POP JUMP JUMPDEST PUSH1 0x0 PUSH1 0xFF DUP3 AND SWAP1 POP SWAP2 SWAP1 POP JUMP JUMPDEST PUSH1 0x0 PUSH2 0x1E9E PUSH2 0x1E99 DUP4 PUSH2 0x1F32 JUMP JUMPDEST PUSH2 0x1E1A JUMP JUMPDEST SWAP1 POP SWAP2 SWAP1 POP JUMP JUMPDEST PUSH1 0x0 PUSH2 0x1EB0 DUP3 PUSH2 0x1E7E JUMP JUMPDEST SWAP2 POP PUSH1 0xFF DUP3 EQ ISZERO PUSH2 0x1EC4 JUMPI PUSH2 0x1EC3 PUSH2 0x1ECF JUMP JUMPDEST JUMPDEST PUSH1 0x1 DUP3 ADD SWAP1 POP SWAP2 SWAP1 POP JUMP JUMPDEST PUSH32 0x4E487B7100000000000000000000000000000000000000000000000000000000 PUSH1 0x0 MSTORE PUSH1 0x11 PUSH1 0x4 MSTORE PUSH1 0x24 PUSH1 0x0 REVERT JUMPDEST PUSH32 0x4E487B7100000000000000000000000000000000000000000000000000000000 PUSH1 0x0 MSTORE PUSH1 0x12 PUSH1 0x4 MSTORE PUSH1 0x24 PUSH1 0x0 REVERT JUMPDEST PUSH1 0x0 DUP1 REVERT JUMPDEST PUSH1 0x0 DUP2 PUSH1 0x0 SHR SWAP1 POP SWAP2 SWAP1 POP JUMP JUMPDEST PUSH32 0x47616D65206E6F7420666F756E64000000000000000000000000000000000000 PUSH1 0x0 DUP3 ADD MSTORE POP JUMP JUMPDEST POP JUMP JUMPDEST PUSH32 0x496E73756666696369656E7420616D6F756E74206F6620636F6E747269627574 PUSH1 0x0 DUP3 ADD MSTORE PUSH32 0x696F6E0000000000000000000000000000000000000000000000000000000000 PUSH1 0x20 DUP3 ADD MSTORE POP JUMP JUMPDEST PUSH32 0x466F72207265676974657220696E2067616D6520796F75206E65656420706179 PUSH1 0x0 DUP3 ADD MSTORE PUSH32 0x2031206574686572000000000000000000000000000000000000000000000000 PUSH1 0x20 DUP3 ADD MSTORE POP JUMP JUMPDEST PUSH32 0x4E6F20636F6E7472616374730000000000000000000000000000000000000000 PUSH1 0x0 DUP3 ADD MSTORE POP JUMP JUMPDEST PUSH2 0x203B DUP2 PUSH2 0x1E24 JUMP JUMPDEST DUP2 EQ PUSH2 0x2046 JUMPI PUSH1 0x0 DUP1 REVERT JUMPDEST POP JUMP JUMPDEST PUSH2 0x2052 DUP2 PUSH2 0x1E74 JUMP JUMPDEST DUP2 EQ PUSH2 0x205D JUMPI PUSH1 0x0 DUP1 REVERT JUMPDEST POP JUMP JUMPDEST PUSH2 0x2069 DUP2 PUSH2 0x1E7E JUMP JUMPDEST DUP2 EQ PUSH2 0x2074 JUMPI PUSH1 0x0 DUP1 REVERT JUMPDEST POP JUMP INVALID LOG2 PUSH5 0x6970667358 0x22 SLT KECCAK256 ORIGIN ADD 0xB5 COINBASE CALL PUSH29 0x874688101A864AD653B7F54CBA92B91C6E9450AC87BDEFC8FDBC64736F PUSH13 0x63430008070033000000000000 "
				},
				"gasEstimates": {
					"creation": {
						"codeDepositCost": "1673000",
						"executionCost": "infinite",
						"totalCost": "infinite"
					},
					"external": {
						"": "infinite",
						"addGameLevel(uint256,uint256)": "infinite",
						"currentGameIdIndex()": "2515",
						"currentUserIndex(uint8)": "2793",
						"getUserBalance(address)": "3324",
						"hasAccess(address)": "2925",
						"joinToGame(uint8)": "infinite",
						"levels(uint8)": "infinite",
						"pools(uint8,uint256)": "infinite",
						"registerUserToGame(uint256)": "infinite",
						"registeredUsers(address)": "infinite",
						"test(uint256)": "infinite",
						"userGames(address,uint8)": "3116",
						"userPayments(address,uint8)": "3144",
						"usersId(uint256)": "2905"
					},
					"internal": {
						"_fallback(address,uint256)": "infinite",
						"_joinToGame(uint8,address,uint256)": "infinite"
					}
				},
				"methodIdentifiers": {
					"addGameLevel(uint256,uint256)": "7b0d5efa",
					"currentGameIdIndex()": "ad39f0a3",
					"currentUserIndex(uint8)": "9b0b0ae3",
					"getUserBalance(address)": "47734892",
					"hasAccess(address)": "95a078e8",
					"joinToGame(uint8)": "2e8aab9b",
					"levels(uint8)": "906cbf57",
					"pools(uint8,uint256)": "78a32e21",
					"registerUserToGame(uint256)": "0173c05b",
					"registeredUsers(address)": "0e50cee5",
					"test(uint256)": "29e99f07",
					"userGames(address,uint8)": "2a648c89",
					"userPayments(address,uint8)": "f1060006",
					"usersId(uint256)": "bd233b91"
				}
			},
			"storageLayout": {
				"storage": [
					{
						"astId": 3,
						"contract": "cobraBot/Contract.sol:Pyramid",
						"label": "currentUserIdIndex",
						"offset": 0,
						"slot": "0",
						"type": "t_uint256"
					},
					{
						"astId": 5,
						"contract": "cobraBot/Contract.sol:Pyramid",
						"label": "currentGameIdIndex",
						"offset": 0,
						"slot": "1",
						"type": "t_uint8"
					},
					{
						"astId": 7,
						"contract": "cobraBot/Contract.sol:Pyramid",
						"label": "contractOwner",
						"offset": 1,
						"slot": "1",
						"type": "t_address"
					},
					{
						"astId": 39,
						"contract": "cobraBot/Contract.sol:Pyramid",
						"label": "levels",
						"offset": 0,
						"slot": "2",
						"type": "t_mapping(t_uint8,t_struct(Game)34_storage)"
					},
					{
						"astId": 43,
						"contract": "cobraBot/Contract.sol:Pyramid",
						"label": "usersId",
						"offset": 0,
						"slot": "3",
						"type": "t_mapping(t_uint256,t_address)"
					},
					{
						"astId": 48,
						"contract": "cobraBot/Contract.sol:Pyramid",
						"label": "registeredUsers",
						"offset": 0,
						"slot": "4",
						"type": "t_mapping(t_address,t_struct(User)29_storage)"
					},
					{
						"astId": 52,
						"contract": "cobraBot/Contract.sol:Pyramid",
						"label": "currentUserIndex",
						"offset": 0,
						"slot": "5",
						"type": "t_mapping(t_uint8,t_uint256)"
					},
					{
						"astId": 59,
						"contract": "cobraBot/Contract.sol:Pyramid",
						"label": "pools",
						"offset": 0,
						"slot": "6",
						"type": "t_mapping(t_uint8,t_mapping(t_uint256,t_struct(User)29_storage))"
					},
					{
						"astId": 65,
						"contract": "cobraBot/Contract.sol:Pyramid",
						"label": "userPayments",
						"offset": 0,
						"slot": "7",
						"type": "t_mapping(t_address,t_mapping(t_uint8,t_uint256))"
					},
					{
						"astId": 71,
						"contract": "cobraBot/Contract.sol:Pyramid",
						"label": "userGames",
						"offset": 0,
						"slot": "8",
						"type": "t_mapping(t_address,t_mapping(t_uint8,t_bool))"
					}
				],
				"types": {
					"t_address": {
						"encoding": "inplace",
						"label": "address",
						"numberOfBytes": "20"
					},
					"t_address_payable": {
						"encoding": "inplace",
						"label": "address payable",
						"numberOfBytes": "20"
					},
					"t_bool": {
						"encoding": "inplace",
						"label": "bool",
						"numberOfBytes": "1"
					},
					"t_mapping(t_address,t_mapping(t_uint8,t_bool))": {
						"encoding": "mapping",
						"key": "t_address",
						"label": "mapping(address => mapping(uint8 => bool))",
						"numberOfBytes": "32",
						"value": "t_mapping(t_uint8,t_bool)"
					},
					"t_mapping(t_address,t_mapping(t_uint8,t_uint256))": {
						"encoding": "mapping",
						"key": "t_address",
						"label": "mapping(address => mapping(uint8 => uint256))",
						"numberOfBytes": "32",
						"value": "t_mapping(t_uint8,t_uint256)"
					},
					"t_mapping(t_address,t_struct(User)29_storage)": {
						"encoding": "mapping",
						"key": "t_address",
						"label": "mapping(address => struct Pyramid.User)",
						"numberOfBytes": "32",
						"value": "t_struct(User)29_storage"
					},
					"t_mapping(t_uint256,t_address)": {
						"encoding": "mapping",
						"key": "t_uint256",
						"label": "mapping(uint256 => address)",
						"numberOfBytes": "32",
						"value": "t_address"
					},
					"t_mapping(t_uint256,t_struct(User)29_storage)": {
						"encoding": "mapping",
						"key": "t_uint256",
						"label": "mapping(uint256 => struct Pyramid.User)",
						"numberOfBytes": "32",
						"value": "t_struct(User)29_storage"
					},
					"t_mapping(t_uint8,t_bool)": {
						"encoding": "mapping",
						"key": "t_uint8",
						"label": "mapping(uint8 => bool)",
						"numberOfBytes": "32",
						"value": "t_bool"
					},
					"t_mapping(t_uint8,t_mapping(t_uint256,t_struct(User)29_storage))": {
						"encoding": "mapping",
						"key": "t_uint8",
						"label": "mapping(uint8 => mapping(uint256 => struct Pyramid.User))",
						"numberOfBytes": "32",
						"value": "t_mapping(t_uint256,t_struct(User)29_storage)"
					},
					"t_mapping(t_uint8,t_struct(Game)34_storage)": {
						"encoding": "mapping",
						"key": "t_uint8",
						"label": "mapping(uint8 => struct Pyramid.Game)",
						"numberOfBytes": "32",
						"value": "t_struct(Game)34_storage"
					},
					"t_mapping(t_uint8,t_uint256)": {
						"encoding": "mapping",
						"key": "t_uint8",
						"label": "mapping(uint8 => uint256)",
						"numberOfBytes": "32",
						"value": "t_uint256"
					},
					"t_struct(Game)34_storage": {
						"encoding": "inplace",
						"label": "struct Pyramid.Game",
						"members": [
							{
								"astId": 31,
								"contract": "cobraBot/Contract.sol:Pyramid",
								"label": "circleCount",
								"offset": 0,
								"slot": "0",
								"type": "t_uint256"
							},
							{
								"astId": 33,
								"contract": "cobraBot/Contract.sol:Pyramid",
								"label": "amountToPay",
								"offset": 0,
								"slot": "1",
								"type": "t_uint256"
							}
						],
						"numberOfBytes": "64"
					},
					"t_struct(User)29_storage": {
						"encoding": "inplace",
						"label": "struct Pyramid.User",
						"members": [
							{
								"astId": 24,
								"contract": "cobraBot/Contract.sol:Pyramid",
								"label": "userId",
								"offset": 0,
								"slot": "0",
								"type": "t_uint256"
							},
							{
								"astId": 26,
								"contract": "cobraBot/Contract.sol:Pyramid",
								"label": "userAddress",
								"offset": 0,
								"slot": "1",
								"type": "t_address_payable"
							},
							{
								"astId": 28,
								"contract": "cobraBot/Contract.sol:Pyramid",
								"label": "invitedId",
								"offset": 0,
								"slot": "2",
								"type": "t_uint256"
							}
						],
						"numberOfBytes": "96"
					},
					"t_uint256": {
						"encoding": "inplace",
						"label": "uint256",
						"numberOfBytes": "32"
					},
					"t_uint8": {
						"encoding": "inplace",
						"label": "uint8",
						"numberOfBytes": "1"
					}
				}
			},
			"userdoc": {
				"kind": "user",
				"methods": {},
				"version": 1
			}
		}
	}
}