{
	"cobraBot/Contract.sol": {
		"Pyramid": {
			"abi": [
				{
					"inputs": [],
					"stateMutability": "nonpayable",
					"type": "constructor"
				},
				{
					"anonymous": false,
					"inputs": [
						{
							"indexed": false,
							"internalType": "uint256",
							"name": "amountToPay",
							"type": "uint256"
						},
						{
							"indexed": false,
							"internalType": "address",
							"name": "account",
							"type": "address"
						},
						{
							"indexed": false,
							"internalType": "bool",
							"name": "success",
							"type": "bool"
						}
					],
					"name": "GamePaymentEvent",
					"type": "event"
				},
				{
					"anonymous": false,
					"inputs": [
						{
							"indexed": false,
							"internalType": "uint256",
							"name": "amountToPay",
							"type": "uint256"
						}
					],
					"name": "NewGame",
					"type": "event"
				},
				{
					"anonymous": false,
					"inputs": [
						{
							"indexed": false,
							"internalType": "uint256",
							"name": "amountToPay",
							"type": "uint256"
						},
						{
							"indexed": false,
							"internalType": "uint256",
							"name": "from",
							"type": "uint256"
						},
						{
							"indexed": false,
							"internalType": "uint256",
							"name": "to",
							"type": "uint256"
						},
						{
							"indexed": false,
							"internalType": "uint256",
							"name": "amount",
							"type": "uint256"
						}
					],
					"name": "ReferalPaymentEvent",
					"type": "event"
				},
				{
					"stateMutability": "payable",
					"type": "fallback"
				},
				{
					"inputs": [
						{
							"internalType": "uint256",
							"name": "amountToPay",
							"type": "uint256"
						}
					],
					"name": "addGameLevel",
					"outputs": [],
					"stateMutability": "nonpayable",
					"type": "function"
				},
				{
					"inputs": [],
					"name": "currentGameIdIndex",
					"outputs": [
						{
							"internalType": "uint8",
							"name": "",
							"type": "uint8"
						}
					],
					"stateMutability": "view",
					"type": "function"
				},
				{
					"inputs": [
						{
							"internalType": "uint8",
							"name": "",
							"type": "uint8"
						}
					],
					"name": "currentUserIndex",
					"outputs": [
						{
							"internalType": "uint256",
							"name": "",
							"type": "uint256"
						}
					],
					"stateMutability": "view",
					"type": "function"
				},
				{
					"inputs": [
						{
							"internalType": "address",
							"name": "userAddress",
							"type": "address"
						}
					],
					"name": "getUserBalance",
					"outputs": [
						{
							"internalType": "uint256",
							"name": "",
							"type": "uint256"
						}
					],
					"stateMutability": "view",
					"type": "function"
				},
				{
					"inputs": [
						{
							"internalType": "address",
							"name": "userAdress",
							"type": "address"
						}
					],
					"name": "hasAccess",
					"outputs": [
						{
							"internalType": "bool",
							"name": "",
							"type": "bool"
						}
					],
					"stateMutability": "view",
					"type": "function"
				},
				{
					"inputs": [
						{
							"internalType": "uint8",
							"name": "gameId",
							"type": "uint8"
						}
					],
					"name": "joinToGame",
					"outputs": [],
					"stateMutability": "payable",
					"type": "function"
				},
				{
					"inputs": [
						{
							"internalType": "uint8",
							"name": "",
							"type": "uint8"
						}
					],
					"name": "levels",
					"outputs": [
						{
							"internalType": "uint256",
							"name": "amountToPay",
							"type": "uint256"
						}
					],
					"stateMutability": "view",
					"type": "function"
				},
				{
					"inputs": [
						{
							"internalType": "uint8",
							"name": "",
							"type": "uint8"
						},
						{
							"internalType": "uint256",
							"name": "",
							"type": "uint256"
						}
					],
					"name": "pools",
					"outputs": [
						{
							"internalType": "uint256",
							"name": "userId",
							"type": "uint256"
						},
						{
							"internalType": "address payable",
							"name": "userAddress",
							"type": "address"
						},
						{
							"internalType": "uint256",
							"name": "invitedId",
							"type": "uint256"
						}
					],
					"stateMutability": "view",
					"type": "function"
				},
				{
					"inputs": [
						{
							"internalType": "uint256",
							"name": "inviterId",
							"type": "uint256"
						}
					],
					"name": "registerUserToGame",
					"outputs": [],
					"stateMutability": "payable",
					"type": "function"
				},
				{
					"inputs": [
						{
							"internalType": "address",
							"name": "",
							"type": "address"
						}
					],
					"name": "registeredUsers",
					"outputs": [
						{
							"internalType": "uint256",
							"name": "userId",
							"type": "uint256"
						},
						{
							"internalType": "address payable",
							"name": "userAddress",
							"type": "address"
						},
						{
							"internalType": "uint256",
							"name": "invitedId",
							"type": "uint256"
						}
					],
					"stateMutability": "view",
					"type": "function"
				},
				{
					"inputs": [
						{
							"internalType": "address",
							"name": "",
							"type": "address"
						},
						{
							"internalType": "uint8",
							"name": "",
							"type": "uint8"
						}
					],
					"name": "userGames",
					"outputs": [
						{
							"internalType": "bool",
							"name": "",
							"type": "bool"
						}
					],
					"stateMutability": "view",
					"type": "function"
				},
				{
					"inputs": [
						{
							"internalType": "address",
							"name": "",
							"type": "address"
						},
						{
							"internalType": "uint8",
							"name": "",
							"type": "uint8"
						}
					],
					"name": "userPayments",
					"outputs": [
						{
							"internalType": "uint256",
							"name": "",
							"type": "uint256"
						}
					],
					"stateMutability": "view",
					"type": "function"
				},
				{
					"inputs": [
						{
							"internalType": "uint256",
							"name": "",
							"type": "uint256"
						}
					],
					"name": "usersId",
					"outputs": [
						{
							"internalType": "address",
							"name": "",
							"type": "address"
						}
					],
					"stateMutability": "view",
					"type": "function"
				},
				{
					"stateMutability": "payable",
					"type": "receive"
				}
			],
			"devdoc": {
				"kind": "dev",
				"methods": {},
				"version": 1
			},
			"evm": {
				"assembly": "    /* \"cobraBot/Contract.sol\":64:9017  contract Pyramid {\r... */\n  mstore(0x40, 0x80)\n    /* \"cobraBot/Contract.sol\":2233:2492  constructor () {\r... */\n  callvalue\n  dup1\n  iszero\n  tag_1\n  jumpi\n  0x00\n  dup1\n  revert\ntag_1:\n  pop\n    /* \"cobraBot/Contract.sol\":2275:2285  msg.sender */\n  caller\n    /* \"cobraBot/Contract.sol\":2259:2272  contractOwner */\n  0x01\n  dup1\n    /* \"cobraBot/Contract.sol\":2259:2285  contractOwner = msg.sender */\n  0x0100\n  exp\n  dup2\n  sload\n  dup2\n  0xffffffffffffffffffffffffffffffffffffffff\n  mul\n  not\n  and\n  swap1\n  dup4\n  0xffffffffffffffffffffffffffffffffffffffff\n  and\n  mul\n  or\n  swap1\n  sstore\n  pop\n    /* \"cobraBot/Contract.sol\":2309:2322  contractOwner */\n  0x01\n  dup1\n  sload\n  swap1\n  0x0100\n  exp\n  swap1\n  div\n  0xffffffffffffffffffffffffffffffffffffffff\n  and\n    /* \"cobraBot/Contract.sol\":2296:2303  usersId */\n  0x03\n    /* \"cobraBot/Contract.sol\":2296:2306  usersId[0] */\n  0x00\n    /* \"cobraBot/Contract.sol\":2304:2305  0 */\n  dup1\n    /* \"cobraBot/Contract.sol\":2296:2306  usersId[0] */\n  dup2\n  mstore\n  0x20\n  add\n  swap1\n  dup2\n  mstore\n  0x20\n  add\n  0x00\n  keccak256\n  0x00\n    /* \"cobraBot/Contract.sol\":2296:2322  usersId[0] = contractOwner */\n  0x0100\n  exp\n  dup2\n  sload\n  dup2\n  0xffffffffffffffffffffffffffffffffffffffff\n  mul\n  not\n  and\n  swap1\n  dup4\n  0xffffffffffffffffffffffffffffffffffffffff\n  and\n  mul\n  or\n  swap1\n  sstore\n  pop\n    /* \"cobraBot/Contract.sol\":2366:2400  User(0, payable(contractOwner), 0) */\n  mload(0x40)\n  dup1\n  0x60\n  add\n  0x40\n  mstore\n  dup1\n    /* \"cobraBot/Contract.sol\":2371:2372  0 */\n  0x00\n    /* \"cobraBot/Contract.sol\":2366:2400  User(0, payable(contractOwner), 0) */\n  dup2\n  mstore\n  0x20\n  add\n    /* \"cobraBot/Contract.sol\":2382:2395  contractOwner */\n  0x01\n  dup1\n  sload\n  swap1\n  0x0100\n  exp\n  swap1\n  div\n  0xffffffffffffffffffffffffffffffffffffffff\n  and\n    /* \"cobraBot/Contract.sol\":2366:2400  User(0, payable(contractOwner), 0) */\n  0xffffffffffffffffffffffffffffffffffffffff\n  and\n  dup2\n  mstore\n  0x20\n  add\n    /* \"cobraBot/Contract.sol\":2398:2399  0 */\n  0x00\n    /* \"cobraBot/Contract.sol\":2366:2400  User(0, payable(contractOwner), 0) */\n  dup2\n  mstore\n  pop\n    /* \"cobraBot/Contract.sol\":2333:2348  registeredUsers */\n  0x04\n    /* \"cobraBot/Contract.sol\":2333:2363  registeredUsers[contractOwner] */\n  0x00\n    /* \"cobraBot/Contract.sol\":2349:2362  contractOwner */\n  0x01\n  dup1\n  sload\n  swap1\n  0x0100\n  exp\n  swap1\n  div\n  0xffffffffffffffffffffffffffffffffffffffff\n  and\n    /* \"cobraBot/Contract.sol\":2333:2363  registeredUsers[contractOwner] */\n  0xffffffffffffffffffffffffffffffffffffffff\n  and\n  0xffffffffffffffffffffffffffffffffffffffff\n  and\n  dup2\n  mstore\n  0x20\n  add\n  swap1\n  dup2\n  mstore\n  0x20\n  add\n  0x00\n  keccak256\n    /* \"cobraBot/Contract.sol\":2333:2400  registeredUsers[contractOwner] = User(0, payable(contractOwner), 0) */\n  0x00\n  dup3\n  add\n  mload\n  dup2\n  0x00\n  add\n  sstore\n  0x20\n  dup3\n  add\n  mload\n  dup2\n  0x01\n  add\n  exp(0x0100, 0x00)\n  dup2\n  sload\n  dup2\n  0xffffffffffffffffffffffffffffffffffffffff\n  mul\n  not\n  and\n  swap1\n  dup4\n  0xffffffffffffffffffffffffffffffffffffffff\n  and\n  mul\n  or\n  swap1\n  sstore\n  pop\n  0x40\n  dup3\n  add\n  mload\n  dup2\n  0x02\n  add\n  sstore\n  swap1\n  pop\n  pop\n    /* \"cobraBot/Contract.sol\":2432:2433  1 */\n  0x01\n    /* \"cobraBot/Contract.sol\":2411:2429  currentUserIdIndex */\n  0x00\n    /* \"cobraBot/Contract.sol\":2411:2433  currentUserIdIndex = 1 */\n  dup2\n  swap1\n  sstore\n  pop\n    /* \"cobraBot/Contract.sol\":2446:2484  addGameLevel({ amountToPay: 1 ether }) */\n  tag_4\n    /* \"cobraBot/Contract.sol\":2474:2481  1 ether */\n  0x0de0b6b3a7640000\n    /* \"cobraBot/Contract.sol\":2446:2458  addGameLevel */\n  shl(0x20, tag_5)\n    /* \"cobraBot/Contract.sol\":2446:2484  addGameLevel({ amountToPay: 1 ether }) */\n  0x20\n  shr\n  jump\t// in\ntag_4:\n    /* \"cobraBot/Contract.sol\":64:9017  contract Pyramid {\r... */\n  jump(tag_6)\n    /* \"cobraBot/Contract.sol\":4217:4578  function addGameLevel(uint256 amountToPay) public onlyOwner {\r... */\ntag_5:\n    /* \"cobraBot/Contract.sol\":2183:2204  hasAccess(msg.sender) */\n  tag_8\n    /* \"cobraBot/Contract.sol\":2193:2203  msg.sender */\n  caller\n    /* \"cobraBot/Contract.sol\":2183:2192  hasAccess */\n  shl(0x20, tag_9)\n    /* \"cobraBot/Contract.sol\":2183:2204  hasAccess(msg.sender) */\n  0x20\n  shr\n  jump\t// in\ntag_8:\n    /* \"cobraBot/Contract.sol\":2175:2205  require(hasAccess(msg.sender)) */\n  tag_10\n  jumpi\n  0x00\n  dup1\n  revert\ntag_10:\n    /* \"cobraBot/Contract.sol\":4422:4456  Game({ amountToPay: amountToPay }) */\n  mload(0x40)\n  dup1\n  0x20\n  add\n  0x40\n  mstore\n  dup1\n    /* \"cobraBot/Contract.sol\":4442:4453  amountToPay */\n  dup3\n    /* \"cobraBot/Contract.sol\":4422:4456  Game({ amountToPay: amountToPay }) */\n  dup2\n  mstore\n  pop\n    /* \"cobraBot/Contract.sol\":4393:4399  levels */\n  0x02\n    /* \"cobraBot/Contract.sol\":4393:4419  levels[currentGameIdIndex] */\n  0x00\n    /* \"cobraBot/Contract.sol\":4400:4418  currentGameIdIndex */\n  0x01\n  0x00\n  swap1\n  sload\n  swap1\n  0x0100\n  exp\n  swap1\n  div\n  0xff\n  and\n    /* \"cobraBot/Contract.sol\":4393:4419  levels[currentGameIdIndex] */\n  0xff\n  and\n  0xff\n  and\n  dup2\n  mstore\n  0x20\n  add\n  swap1\n  dup2\n  mstore\n  0x20\n  add\n  0x00\n  keccak256\n    /* \"cobraBot/Contract.sol\":4393:4456  levels[currentGameIdIndex] = Game({ amountToPay: amountToPay }) */\n  0x00\n  dup3\n  add\n  mload\n  dup2\n  0x00\n  add\n  sstore\n  swap1\n  pop\n  pop\n    /* \"cobraBot/Contract.sol\":4506:4507  1 */\n  0x01\n    /* \"cobraBot/Contract.sol\":4467:4483  currentUserIndex */\n  0x05\n    /* \"cobraBot/Contract.sol\":4467:4503  currentUserIndex[currentGameIdIndex] */\n  0x00\n    /* \"cobraBot/Contract.sol\":4484:4502  currentGameIdIndex */\n  0x01\n  0x00\n  swap1\n  sload\n  swap1\n  0x0100\n  exp\n  swap1\n  div\n  0xff\n  and\n    /* \"cobraBot/Contract.sol\":4467:4503  currentUserIndex[currentGameIdIndex] */\n  0xff\n  and\n  0xff\n  and\n  dup2\n  mstore\n  0x20\n  add\n  swap1\n  dup2\n  mstore\n  0x20\n  add\n  0x00\n  keccak256\n    /* \"cobraBot/Contract.sol\":4467:4507  currentUserIndex[currentGameIdIndex] = 1 */\n  dup2\n  swap1\n  sstore\n  pop\n    /* \"cobraBot/Contract.sol\":4523:4570  NewGame(levels[currentGameIdIndex].amountToPay) */\n  0xa0b7f6f22bb4f69adc52dd16ffe2a964ab8b577be274247fa9a1547b03ce3e55\n    /* \"cobraBot/Contract.sol\":4531:4537  levels */\n  0x02\n    /* \"cobraBot/Contract.sol\":4531:4557  levels[currentGameIdIndex] */\n  0x00\n    /* \"cobraBot/Contract.sol\":4538:4556  currentGameIdIndex */\n  0x01\n  0x00\n  swap1\n  sload\n  swap1\n  0x0100\n  exp\n  swap1\n  div\n  0xff\n  and\n    /* \"cobraBot/Contract.sol\":4531:4557  levels[currentGameIdIndex] */\n  0xff\n  and\n  0xff\n  and\n  dup2\n  mstore\n  0x20\n  add\n  swap1\n  dup2\n  mstore\n  0x20\n  add\n  0x00\n  keccak256\n    /* \"cobraBot/Contract.sol\":4531:4569  levels[currentGameIdIndex].amountToPay */\n  0x00\n  add\n  sload\n    /* \"cobraBot/Contract.sol\":4523:4570  NewGame(levels[currentGameIdIndex].amountToPay) */\n  mload(0x40)\n  tag_12\n  swap2\n  swap1\n  tag_13\n  jump\t// in\ntag_12:\n  mload(0x40)\n  dup1\n  swap2\n  sub\n  swap1\n  log1\n    /* \"cobraBot/Contract.sol\":4217:4578  function addGameLevel(uint256 amountToPay) public onlyOwner {\r... */\n  pop\n  jump\t// out\n    /* \"cobraBot/Contract.sol\":3853:4082  function hasAccess(address userAdress) public view returns(bool) {\r... */\ntag_9:\n    /* \"cobraBot/Contract.sol\":3912:3916  bool */\n  0x00\n    /* \"cobraBot/Contract.sol\":4061:4074  contractOwner */\n  0x01\n  dup1\n  sload\n  swap1\n  0x0100\n  exp\n  swap1\n  div\n  0xffffffffffffffffffffffffffffffffffffffff\n  and\n    /* \"cobraBot/Contract.sol\":4047:4074  userAdress == contractOwner */\n  0xffffffffffffffffffffffffffffffffffffffff\n  and\n    /* \"cobraBot/Contract.sol\":4047:4057  userAdress */\n  dup3\n    /* \"cobraBot/Contract.sol\":4047:4074  userAdress == contractOwner */\n  0xffffffffffffffffffffffffffffffffffffffff\n  and\n  eq\n    /* \"cobraBot/Contract.sol\":4040:4074  return userAdress == contractOwner */\n  swap1\n  pop\n    /* \"cobraBot/Contract.sol\":3853:4082  function hasAccess(address userAdress) public view returns(bool) {\r... */\n  swap2\n  swap1\n  pop\n  jump\t// out\n    /* \"#utility.yul\":7:125   */\ntag_16:\n    /* \"#utility.yul\":94:118   */\n  tag_18\n    /* \"#utility.yul\":112:117   */\n  dup2\n    /* \"#utility.yul\":94:118   */\n  tag_19\n  jump\t// in\ntag_18:\n    /* \"#utility.yul\":89:92   */\n  dup3\n    /* \"#utility.yul\":82:119   */\n  mstore\n    /* \"#utility.yul\":7:125   */\n  pop\n  pop\n  jump\t// out\n    /* \"#utility.yul\":131:353   */\ntag_13:\n    /* \"#utility.yul\":224:228   */\n  0x00\n    /* \"#utility.yul\":262:264   */\n  0x20\n    /* \"#utility.yul\":251:260   */\n  dup3\n    /* \"#utility.yul\":247:265   */\n  add\n    /* \"#utility.yul\":239:265   */\n  swap1\n  pop\n    /* \"#utility.yul\":275:346   */\n  tag_21\n    /* \"#utility.yul\":343:344   */\n  0x00\n    /* \"#utility.yul\":332:341   */\n  dup4\n    /* \"#utility.yul\":328:345   */\n  add\n    /* \"#utility.yul\":319:325   */\n  dup5\n    /* \"#utility.yul\":275:346   */\n  tag_16\n  jump\t// in\ntag_21:\n    /* \"#utility.yul\":131:353   */\n  swap3\n  swap2\n  pop\n  pop\n  jump\t// out\n    /* \"#utility.yul\":359:436   */\ntag_19:\n    /* \"#utility.yul\":396:403   */\n  0x00\n    /* \"#utility.yul\":425:430   */\n  dup2\n    /* \"#utility.yul\":414:430   */\n  swap1\n  pop\n    /* \"#utility.yul\":359:436   */\n  swap2\n  swap1\n  pop\n  jump\t// out\n    /* \"cobraBot/Contract.sol\":64:9017  contract Pyramid {\r... */\ntag_6:\n  dataSize(sub_0)\n  dup1\n  dataOffset(sub_0)\n  0x00\n  codecopy\n  0x00\n  return\nstop\n\nsub_0: assembly {\n        /* \"cobraBot/Contract.sol\":64:9017  contract Pyramid {\r... */\n      mstore(0x40, 0x80)\n      jumpi(tag_1, lt(calldatasize, 0x04))\n      shr(0xe0, calldataload(0x00))\n      dup1\n      0x906cbf57\n      gt\n      tag_16\n      jumpi\n      dup1\n      0xad39f0a3\n      gt\n      tag_17\n      jumpi\n      dup1\n      0xad39f0a3\n      eq\n      tag_12\n      jumpi\n      dup1\n      0xae9283b5\n      eq\n      tag_13\n      jumpi\n      dup1\n      0xbd233b91\n      eq\n      tag_14\n      jumpi\n      dup1\n      0xf1060006\n      eq\n      tag_15\n      jumpi\n      jump(tag_2)\n    tag_17:\n      dup1\n      0x906cbf57\n      eq\n      tag_9\n      jumpi\n      dup1\n      0x95a078e8\n      eq\n      tag_10\n      jumpi\n      dup1\n      0x9b0b0ae3\n      eq\n      tag_11\n      jumpi\n      jump(tag_2)\n    tag_16:\n      dup1\n      0x0173c05b\n      eq\n      tag_3\n      jumpi\n      dup1\n      0x0e50cee5\n      eq\n      tag_4\n      jumpi\n      dup1\n      0x2a648c89\n      eq\n      tag_5\n      jumpi\n      dup1\n      0x2e8aab9b\n      eq\n      tag_6\n      jumpi\n      dup1\n      0x47734892\n      eq\n      tag_7\n      jumpi\n      dup1\n      0x78a32e21\n      eq\n      tag_8\n      jumpi\n      jump(tag_2)\n    tag_1:\n      jumpi(tag_2, calldatasize)\n        /* \"cobraBot/Contract.sol\":2539:2571  _fallback(msg.sender, msg.value) */\n      tag_20\n        /* \"cobraBot/Contract.sol\":2549:2559  msg.sender */\n      caller\n        /* \"cobraBot/Contract.sol\":2561:2570  msg.value */\n      callvalue\n        /* \"cobraBot/Contract.sol\":2539:2548  _fallback */\n      tag_21\n        /* \"cobraBot/Contract.sol\":2539:2571  _fallback(msg.sender, msg.value) */\n      jump\t// in\n    tag_20:\n        /* \"cobraBot/Contract.sol\":64:9017  contract Pyramid {\r... */\n      stop\n    tag_2:\n        /* \"cobraBot/Contract.sol\":2627:2659  _fallback(msg.sender, msg.value) */\n      tag_24\n        /* \"cobraBot/Contract.sol\":2637:2647  msg.sender */\n      caller\n        /* \"cobraBot/Contract.sol\":2649:2658  msg.value */\n      callvalue\n        /* \"cobraBot/Contract.sol\":2627:2636  _fallback */\n      tag_21\n        /* \"cobraBot/Contract.sol\":2627:2659  _fallback(msg.sender, msg.value) */\n      jump\t// in\n    tag_24:\n        /* \"cobraBot/Contract.sol\":64:9017  contract Pyramid {\r... */\n      stop\n        /* \"cobraBot/Contract.sol\":4586:5023  function registerUserToGame(uint256 inviterId) external payable noContractAccess {\r... */\n    tag_3:\n      tag_25\n      0x04\n      dup1\n      calldatasize\n      sub\n      dup2\n      add\n      swap1\n      tag_26\n      swap2\n      swap1\n      tag_27\n      jump\t// in\n    tag_26:\n      tag_28\n      jump\t// in\n    tag_25:\n      stop\n        /* \"cobraBot/Contract.sol\":899:947  mapping (address => User) public registeredUsers */\n    tag_4:\n      callvalue\n      dup1\n      iszero\n      tag_29\n      jumpi\n      0x00\n      dup1\n      revert\n    tag_29:\n      pop\n      tag_30\n      0x04\n      dup1\n      calldatasize\n      sub\n      dup2\n      add\n      swap1\n      tag_31\n      swap2\n      swap1\n      tag_32\n      jump\t// in\n    tag_31:\n      tag_33\n      jump\t// in\n    tag_30:\n      mload(0x40)\n      tag_34\n      swap4\n      swap3\n      swap2\n      swap1\n      tag_35\n      jump\t// in\n    tag_34:\n      mload(0x40)\n      dup1\n      swap2\n      sub\n      swap1\n      return\n        /* \"cobraBot/Contract.sol\":1303:1364  mapping (address => mapping (uint8 => bool)) public userGames */\n    tag_5:\n      callvalue\n      dup1\n      iszero\n      tag_36\n      jumpi\n      0x00\n      dup1\n      revert\n    tag_36:\n      pop\n      tag_37\n      0x04\n      dup1\n      calldatasize\n      sub\n      dup2\n      add\n      swap1\n      tag_38\n      swap2\n      swap1\n      tag_39\n      jump\t// in\n    tag_38:\n      tag_40\n      jump\t// in\n    tag_37:\n      mload(0x40)\n      tag_41\n      swap2\n      swap1\n      tag_42\n      jump\t// in\n    tag_41:\n      mload(0x40)\n      dup1\n      swap2\n      sub\n      swap1\n      return\n        /* \"cobraBot/Contract.sol\":5031:5248  function joinToGame(uint8 gameId) public payable onlyRegistered {\r... */\n    tag_6:\n      tag_43\n      0x04\n      dup1\n      calldatasize\n      sub\n      dup2\n      add\n      swap1\n      tag_44\n      swap2\n      swap1\n      tag_45\n      jump\t// in\n    tag_44:\n      tag_46\n      jump\t// in\n    tag_43:\n      stop\n        /* \"cobraBot/Contract.sol\":4090:4209  function getUserBalance(address userAddress) public view returns(uint256) {\r... */\n    tag_7:\n      callvalue\n      dup1\n      iszero\n      tag_47\n      jumpi\n      0x00\n      dup1\n      revert\n    tag_47:\n      pop\n      tag_48\n      0x04\n      dup1\n      calldatasize\n      sub\n      dup2\n      add\n      swap1\n      tag_49\n      swap2\n      swap1\n      tag_32\n      jump\t// in\n    tag_49:\n      tag_50\n      jump\t// in\n    tag_48:\n      mload(0x40)\n      tag_51\n      swap2\n      swap1\n      tag_52\n      jump\t// in\n    tag_51:\n      mload(0x40)\n      dup1\n      swap2\n      sub\n      swap1\n      return\n        /* \"cobraBot/Contract.sol\":1091:1148  mapping (uint8 => mapping (uint256 => User)) public pools */\n    tag_8:\n      callvalue\n      dup1\n      iszero\n      tag_53\n      jumpi\n      0x00\n      dup1\n      revert\n    tag_53:\n      pop\n      tag_54\n      0x04\n      dup1\n      calldatasize\n      sub\n      dup2\n      add\n      swap1\n      tag_55\n      swap2\n      swap1\n      tag_56\n      jump\t// in\n    tag_55:\n      tag_57\n      jump\t// in\n    tag_54:\n      mload(0x40)\n      tag_58\n      swap4\n      swap3\n      swap2\n      swap1\n      tag_35\n      jump\t// in\n    tag_58:\n      mload(0x40)\n      dup1\n      swap2\n      sub\n      swap1\n      return\n        /* \"cobraBot/Contract.sol\":751:788  mapping (uint8 => Game) public levels */\n    tag_9:\n      callvalue\n      dup1\n      iszero\n      tag_59\n      jumpi\n      0x00\n      dup1\n      revert\n    tag_59:\n      pop\n      tag_60\n      0x04\n      dup1\n      calldatasize\n      sub\n      dup2\n      add\n      swap1\n      tag_61\n      swap2\n      swap1\n      tag_45\n      jump\t// in\n    tag_61:\n      tag_62\n      jump\t// in\n    tag_60:\n      mload(0x40)\n      tag_63\n      swap2\n      swap1\n      tag_52\n      jump\t// in\n    tag_63:\n      mload(0x40)\n      dup1\n      swap2\n      sub\n      swap1\n      return\n        /* \"cobraBot/Contract.sol\":3853:4082  function hasAccess(address userAdress) public view returns(bool) {\r... */\n    tag_10:\n      callvalue\n      dup1\n      iszero\n      tag_64\n      jumpi\n      0x00\n      dup1\n      revert\n    tag_64:\n      pop\n      tag_65\n      0x04\n      dup1\n      calldatasize\n      sub\n      dup2\n      add\n      swap1\n      tag_66\n      swap2\n      swap1\n      tag_32\n      jump\t// in\n    tag_66:\n      tag_67\n      jump\t// in\n    tag_65:\n      mload(0x40)\n      tag_68\n      swap2\n      swap1\n      tag_42\n      jump\t// in\n    tag_68:\n      mload(0x40)\n      dup1\n      swap2\n      sub\n      swap1\n      return\n        /* \"cobraBot/Contract.sol\":1002:1052  mapping (uint8 => uint256) public currentUserIndex */\n    tag_11:\n      callvalue\n      dup1\n      iszero\n      tag_69\n      jumpi\n      0x00\n      dup1\n      revert\n    tag_69:\n      pop\n      tag_70\n      0x04\n      dup1\n      calldatasize\n      sub\n      dup2\n      add\n      swap1\n      tag_71\n      swap2\n      swap1\n      tag_45\n      jump\t// in\n    tag_71:\n      tag_72\n      jump\t// in\n    tag_70:\n      mload(0x40)\n      tag_73\n      swap2\n      swap1\n      tag_52\n      jump\t// in\n    tag_73:\n      mload(0x40)\n      dup1\n      swap2\n      sub\n      swap1\n      return\n        /* \"cobraBot/Contract.sol\":150:181  uint8 public currentGameIdIndex */\n    tag_12:\n      callvalue\n      dup1\n      iszero\n      tag_74\n      jumpi\n      0x00\n      dup1\n      revert\n    tag_74:\n      pop\n      tag_75\n      tag_76\n      jump\t// in\n    tag_75:\n      mload(0x40)\n      tag_77\n      swap2\n      swap1\n      tag_78\n      jump\t// in\n    tag_77:\n      mload(0x40)\n      dup1\n      swap2\n      sub\n      swap1\n      return\n        /* \"cobraBot/Contract.sol\":4217:4578  function addGameLevel(uint256 amountToPay) public onlyOwner {\r... */\n    tag_13:\n      callvalue\n      dup1\n      iszero\n      tag_79\n      jumpi\n      0x00\n      dup1\n      revert\n    tag_79:\n      pop\n      tag_80\n      0x04\n      dup1\n      calldatasize\n      sub\n      dup2\n      add\n      swap1\n      tag_81\n      swap2\n      swap1\n      tag_27\n      jump\t// in\n    tag_81:\n      tag_82\n      jump\t// in\n    tag_80:\n      stop\n        /* \"cobraBot/Contract.sol\":812:855  mapping (uint256 => address) public usersId */\n    tag_14:\n      callvalue\n      dup1\n      iszero\n      tag_83\n      jumpi\n      0x00\n      dup1\n      revert\n    tag_83:\n      pop\n      tag_84\n      0x04\n      dup1\n      calldatasize\n      sub\n      dup2\n      add\n      swap1\n      tag_85\n      swap2\n      swap1\n      tag_27\n      jump\t// in\n    tag_85:\n      tag_86\n      jump\t// in\n    tag_84:\n      mload(0x40)\n      tag_87\n      swap2\n      swap1\n      tag_88\n      jump\t// in\n    tag_87:\n      mload(0x40)\n      dup1\n      swap2\n      sub\n      swap1\n      return\n        /* \"cobraBot/Contract.sol\":1190:1257  mapping (address => mapping (uint8 => uint256)) public userPayments */\n    tag_15:\n      callvalue\n      dup1\n      iszero\n      tag_89\n      jumpi\n      0x00\n      dup1\n      revert\n    tag_89:\n      pop\n      tag_90\n      0x04\n      dup1\n      calldatasize\n      sub\n      dup2\n      add\n      swap1\n      tag_91\n      swap2\n      swap1\n      tag_39\n      jump\t// in\n    tag_91:\n      tag_92\n      jump\t// in\n    tag_90:\n      mload(0x40)\n      tag_93\n      swap2\n      swap1\n      tag_52\n      jump\t// in\n    tag_93:\n      mload(0x40)\n      dup1\n      swap2\n      sub\n      swap1\n      return\n        /* \"cobraBot/Contract.sol\":2675:3274  function _fallback(address sender, uint256 value) internal {\r... */\n    tag_21:\n        /* \"cobraBot/Contract.sol\":2886:2898  bool success */\n      0x00\n        /* \"cobraBot/Contract.sol\":2909:2921  uint8 gameId */\n      dup1\n        /* \"cobraBot/Contract.sol\":2939:2950  uint8 index */\n      0x00\n        /* \"cobraBot/Contract.sol\":2934:3167  for (uint8 index; index < currentGameIdIndex+1; index++) {\r... */\n    tag_95:\n        /* \"cobraBot/Contract.sol\":2979:2980  1 */\n      0x01\n        /* \"cobraBot/Contract.sol\":2960:2978  currentGameIdIndex */\n      dup1\n      0x00\n      swap1\n      sload\n      swap1\n      0x0100\n      exp\n      swap1\n      div\n      0xff\n      and\n        /* \"cobraBot/Contract.sol\":2960:2980  currentGameIdIndex+1 */\n      tag_98\n      swap2\n      swap1\n      tag_99\n      jump\t// in\n    tag_98:\n        /* \"cobraBot/Contract.sol\":2952:2980  index < currentGameIdIndex+1 */\n      0xff\n      and\n        /* \"cobraBot/Contract.sol\":2952:2957  index */\n      dup2\n        /* \"cobraBot/Contract.sol\":2952:2980  index < currentGameIdIndex+1 */\n      0xff\n      and\n      lt\n        /* \"cobraBot/Contract.sol\":2934:3167  for (uint8 index; index < currentGameIdIndex+1; index++) {\r... */\n      iszero\n      tag_96\n      jumpi\n        /* \"cobraBot/Contract.sol\":3039:3048  msg.value */\n      callvalue\n        /* \"cobraBot/Contract.sol\":3010:3016  levels */\n      0x02\n        /* \"cobraBot/Contract.sol\":3010:3023  levels[index] */\n      0x00\n        /* \"cobraBot/Contract.sol\":3017:3022  index */\n      dup4\n        /* \"cobraBot/Contract.sol\":3010:3023  levels[index] */\n      0xff\n      and\n      0xff\n      and\n      dup2\n      mstore\n      0x20\n      add\n      swap1\n      dup2\n      mstore\n      0x20\n      add\n      0x00\n      keccak256\n        /* \"cobraBot/Contract.sol\":3010:3035  levels[index].amountToPay */\n      0x00\n      add\n      sload\n        /* \"cobraBot/Contract.sol\":3010:3048  levels[index].amountToPay == msg.value */\n      eq\n        /* \"cobraBot/Contract.sol\":3006:3156  if (levels[index].amountToPay == msg.value) {\r... */\n      iszero\n      tag_100\n      jumpi\n        /* \"cobraBot/Contract.sol\":3079:3083  true */\n      0x01\n        /* \"cobraBot/Contract.sol\":3069:3083  success = true */\n      swap3\n      pop\n        /* \"cobraBot/Contract.sol\":3111:3116  index */\n      dup1\n        /* \"cobraBot/Contract.sol\":3102:3116  gameId = index */\n      swap2\n      pop\n        /* \"cobraBot/Contract.sol\":3135:3140  break */\n      jump(tag_96)\n        /* \"cobraBot/Contract.sol\":3006:3156  if (levels[index].amountToPay == msg.value) {\r... */\n    tag_100:\n        /* \"cobraBot/Contract.sol\":2982:2989  index++ */\n      dup1\n      dup1\n      tag_101\n      swap1\n      tag_102\n      jump\t// in\n    tag_101:\n      swap2\n      pop\n      pop\n        /* \"cobraBot/Contract.sol\":2934:3167  for (uint8 index; index < currentGameIdIndex+1; index++) {\r... */\n      jump(tag_95)\n    tag_96:\n      pop\n        /* \"cobraBot/Contract.sol\":3195:3202  success */\n      dup2\n        /* \"cobraBot/Contract.sol\":3187:3221  require(success, \"Game not found\") */\n      tag_103\n      jumpi\n      mload(0x40)\n      0x08c379a000000000000000000000000000000000000000000000000000000000\n      dup2\n      mstore\n      0x04\n      add\n      tag_104\n      swap1\n      tag_105\n      jump\t// in\n    tag_104:\n      mload(0x40)\n      dup1\n      swap2\n      sub\n      swap1\n      revert\n    tag_103:\n        /* \"cobraBot/Contract.sol\":3232:3266  _joinToGame(gameId, sender, value) */\n      tag_106\n        /* \"cobraBot/Contract.sol\":3244:3250  gameId */\n      dup2\n        /* \"cobraBot/Contract.sol\":3252:3258  sender */\n      dup6\n        /* \"cobraBot/Contract.sol\":3260:3265  value */\n      dup6\n        /* \"cobraBot/Contract.sol\":3232:3243  _joinToGame */\n      tag_107\n        /* \"cobraBot/Contract.sol\":3232:3266  _joinToGame(gameId, sender, value) */\n      jump\t// in\n    tag_106:\n        /* \"cobraBot/Contract.sol\":2734:3274  {\r... */\n      pop\n      pop\n        /* \"cobraBot/Contract.sol\":2675:3274  function _fallback(address sender, uint256 value) internal {\r... */\n      pop\n      pop\n      jump\t// out\n        /* \"cobraBot/Contract.sol\":4586:5023  function registerUserToGame(uint256 inviterId) external payable noContractAccess {\r... */\n    tag_28:\n        /* \"cobraBot/Contract.sol\":1940:1951  uint32 size */\n      0x00\n        /* \"cobraBot/Contract.sol\":1962:1976  address sender */\n      dup1\n        /* \"cobraBot/Contract.sol\":1979:1989  msg.sender */\n      caller\n        /* \"cobraBot/Contract.sol\":1962:1989  address sender = msg.sender */\n      swap1\n      pop\n        /* \"cobraBot/Contract.sol\":2031:2037  sender */\n      dup1\n        /* \"cobraBot/Contract.sol\":2019:2038  extcodesize(sender) */\n      extcodesize\n        /* \"cobraBot/Contract.sol\":2011:2038  size := extcodesize(sender) */\n      swap2\n      pop\n        /* \"cobraBot/Contract.sol\":2069:2070  0 */\n      0x00\n        /* \"cobraBot/Contract.sol\":2062:2066  size */\n      dup3\n        /* \"cobraBot/Contract.sol\":2062:2070  size > 0 */\n      0xffffffff\n      and\n      gt\n        /* \"cobraBot/Contract.sol\":2060:2071  !(size > 0) */\n      iszero\n        /* \"cobraBot/Contract.sol\":2052:2088  require(!(size > 0), \"No contracts\") */\n      tag_109\n      jumpi\n      mload(0x40)\n      0x08c379a000000000000000000000000000000000000000000000000000000000\n      dup2\n      mstore\n      0x04\n      add\n      tag_110\n      swap1\n      tag_111\n      jump\t// in\n    tag_110:\n      mload(0x40)\n      dup1\n      swap2\n      sub\n      swap1\n      revert\n    tag_109:\n        /* \"cobraBot/Contract.sol\":4779:4786  1 ether */\n      0x0de0b6b3a7640000\n        /* \"cobraBot/Contract.sol\":4766:4775  msg.value */\n      callvalue\n        /* \"cobraBot/Contract.sol\":4766:4786  msg.value == 1 ether */\n      eq\n        /* \"cobraBot/Contract.sol\":4757:4831  require (msg.value == 1 ether, \"For regiter in game you need pay 1 ether\") */\n      tag_113\n      jumpi\n      mload(0x40)\n      0x08c379a000000000000000000000000000000000000000000000000000000000\n      dup2\n      mstore\n      0x04\n      add\n      tag_114\n      swap1\n      tag_115\n      jump\t// in\n    tag_114:\n      mload(0x40)\n      dup1\n      swap2\n      sub\n      swap1\n      revert\n    tag_113:\n        /* \"cobraBot/Contract.sol\":4874:4930  User(currentUserIdIndex, payable(msg.sender), inviterId) */\n      mload(0x40)\n      dup1\n      0x60\n      add\n      0x40\n      mstore\n      dup1\n        /* \"cobraBot/Contract.sol\":4879:4897  currentUserIdIndex */\n      sload(0x00)\n        /* \"cobraBot/Contract.sol\":4874:4930  User(currentUserIdIndex, payable(msg.sender), inviterId) */\n      dup2\n      mstore\n      0x20\n      add\n        /* \"cobraBot/Contract.sol\":4907:4917  msg.sender */\n      caller\n        /* \"cobraBot/Contract.sol\":4874:4930  User(currentUserIdIndex, payable(msg.sender), inviterId) */\n      0xffffffffffffffffffffffffffffffffffffffff\n      and\n      dup2\n      mstore\n      0x20\n      add\n        /* \"cobraBot/Contract.sol\":4920:4929  inviterId */\n      dup5\n        /* \"cobraBot/Contract.sol\":4874:4930  User(currentUserIdIndex, payable(msg.sender), inviterId) */\n      dup2\n      mstore\n      pop\n        /* \"cobraBot/Contract.sol\":4844:4859  registeredUsers */\n      0x04\n        /* \"cobraBot/Contract.sol\":4844:4871  registeredUsers[msg.sender] */\n      0x00\n        /* \"cobraBot/Contract.sol\":4860:4870  msg.sender */\n      caller\n        /* \"cobraBot/Contract.sol\":4844:4871  registeredUsers[msg.sender] */\n      0xffffffffffffffffffffffffffffffffffffffff\n      and\n      0xffffffffffffffffffffffffffffffffffffffff\n      and\n      dup2\n      mstore\n      0x20\n      add\n      swap1\n      dup2\n      mstore\n      0x20\n      add\n      0x00\n      keccak256\n        /* \"cobraBot/Contract.sol\":4844:4930  registeredUsers[msg.sender] = User(currentUserIdIndex, payable(msg.sender), inviterId) */\n      0x00\n      dup3\n      add\n      mload\n      dup2\n      0x00\n      add\n      sstore\n      0x20\n      dup3\n      add\n      mload\n      dup2\n      0x01\n      add\n      exp(0x0100, 0x00)\n      dup2\n      sload\n      dup2\n      0xffffffffffffffffffffffffffffffffffffffff\n      mul\n      not\n      and\n      swap1\n      dup4\n      0xffffffffffffffffffffffffffffffffffffffff\n      and\n      mul\n      or\n      swap1\n      sstore\n      pop\n      0x40\n      dup3\n      add\n      mload\n      dup2\n      0x02\n      add\n      sstore\n      swap1\n      pop\n      pop\n        /* \"cobraBot/Contract.sol\":4971:4981  msg.sender */\n      caller\n        /* \"cobraBot/Contract.sol\":4941:4948  usersId */\n      0x03\n        /* \"cobraBot/Contract.sol\":4941:4968  usersId[currentUserIdIndex] */\n      0x00\n        /* \"cobraBot/Contract.sol\":4949:4967  currentUserIdIndex */\n      dup1\n      sload\n        /* \"cobraBot/Contract.sol\":4941:4968  usersId[currentUserIdIndex] */\n      dup2\n      mstore\n      0x20\n      add\n      swap1\n      dup2\n      mstore\n      0x20\n      add\n      0x00\n      keccak256\n      0x00\n        /* \"cobraBot/Contract.sol\":4941:4981  usersId[currentUserIdIndex] = msg.sender */\n      0x0100\n      exp\n      dup2\n      sload\n      dup2\n      0xffffffffffffffffffffffffffffffffffffffff\n      mul\n      not\n      and\n      swap1\n      dup4\n      0xffffffffffffffffffffffffffffffffffffffff\n      and\n      mul\n      or\n      swap1\n      sstore\n      pop\n        /* \"cobraBot/Contract.sol\":5014:5015  1 */\n      0x01\n        /* \"cobraBot/Contract.sol\":4992:5010  currentUserIdIndex */\n      0x00\n      dup1\n        /* \"cobraBot/Contract.sol\":4992:5015  currentUserIdIndex += 1 */\n      dup3\n      dup3\n      sload\n      tag_116\n      swap2\n      swap1\n      tag_117\n      jump\t// in\n    tag_116:\n      swap3\n      pop\n      pop\n      dup2\n      swap1\n      sstore\n      pop\n        /* \"cobraBot/Contract.sol\":1893:2108  {\r... */\n      pop\n      pop\n        /* \"cobraBot/Contract.sol\":4586:5023  function registerUserToGame(uint256 inviterId) external payable noContractAccess {\r... */\n      pop\n      jump\t// out\n        /* \"cobraBot/Contract.sol\":899:947  mapping (address => User) public registeredUsers */\n    tag_33:\n      mstore(0x20, 0x04)\n      dup1\n      0x00\n      mstore\n      keccak256(0x00, 0x40)\n      0x00\n      swap2\n      pop\n      swap1\n      pop\n      dup1\n      0x00\n      add\n      sload\n      swap1\n      dup1\n      0x01\n      add\n      0x00\n      swap1\n      sload\n      swap1\n      0x0100\n      exp\n      swap1\n      div\n      0xffffffffffffffffffffffffffffffffffffffff\n      and\n      swap1\n      dup1\n      0x02\n      add\n      sload\n      swap1\n      pop\n      dup4\n      jump\t// out\n        /* \"cobraBot/Contract.sol\":1303:1364  mapping (address => mapping (uint8 => bool)) public userGames */\n    tag_40:\n      mstore(0x20, 0x08)\n      dup2\n      0x00\n      mstore\n      mstore(0x20, keccak256(0x00, 0x40))\n      dup1\n      0x00\n      mstore\n      keccak256(0x00, 0x40)\n      0x00\n      swap2\n      pop\n      swap2\n      pop\n      swap1\n      sload\n      swap1\n      0x0100\n      exp\n      swap1\n      div\n      0xff\n      and\n      dup2\n      jump\t// out\n        /* \"cobraBot/Contract.sol\":5031:5248  function joinToGame(uint8 gameId) public payable onlyRegistered {\r... */\n    tag_46:\n        /* \"cobraBot/Contract.sol\":1836:1837  0 */\n      0x00\n        /* \"cobraBot/Contract.sol\":1785:1838  registeredUsers[msg.sender].userAddress != address(0) */\n      0xffffffffffffffffffffffffffffffffffffffff\n      and\n        /* \"cobraBot/Contract.sol\":1785:1800  registeredUsers */\n      0x04\n        /* \"cobraBot/Contract.sol\":1785:1812  registeredUsers[msg.sender] */\n      0x00\n        /* \"cobraBot/Contract.sol\":1801:1811  msg.sender */\n      caller\n        /* \"cobraBot/Contract.sol\":1785:1812  registeredUsers[msg.sender] */\n      0xffffffffffffffffffffffffffffffffffffffff\n      and\n      0xffffffffffffffffffffffffffffffffffffffff\n      and\n      dup2\n      mstore\n      0x20\n      add\n      swap1\n      dup2\n      mstore\n      0x20\n      add\n      0x00\n      keccak256\n        /* \"cobraBot/Contract.sol\":1785:1824  registeredUsers[msg.sender].userAddress */\n      0x01\n      add\n      0x00\n      swap1\n      sload\n      swap1\n      0x0100\n      exp\n      swap1\n      div\n      0xffffffffffffffffffffffffffffffffffffffff\n      and\n        /* \"cobraBot/Contract.sol\":1785:1838  registeredUsers[msg.sender].userAddress != address(0) */\n      0xffffffffffffffffffffffffffffffffffffffff\n      and\n      eq\n      iszero\n        /* \"cobraBot/Contract.sol\":1777:1839  require(registeredUsers[msg.sender].userAddress != address(0)) */\n      tag_119\n      jumpi\n      0x00\n      dup1\n      revert\n    tag_119:\n        /* \"cobraBot/Contract.sol\":5198:5240  _joinToGame(gameId, msg.sender, msg.value) */\n      tag_121\n        /* \"cobraBot/Contract.sol\":5210:5216  gameId */\n      dup2\n        /* \"cobraBot/Contract.sol\":5218:5228  msg.sender */\n      caller\n        /* \"cobraBot/Contract.sol\":5230:5239  msg.value */\n      callvalue\n        /* \"cobraBot/Contract.sol\":5198:5209  _joinToGame */\n      tag_107\n        /* \"cobraBot/Contract.sol\":5198:5240  _joinToGame(gameId, msg.sender, msg.value) */\n      jump\t// in\n    tag_121:\n        /* \"cobraBot/Contract.sol\":5031:5248  function joinToGame(uint8 gameId) public payable onlyRegistered {\r... */\n      pop\n      jump\t// out\n        /* \"cobraBot/Contract.sol\":4090:4209  function getUserBalance(address userAddress) public view returns(uint256) {\r... */\n    tag_50:\n        /* \"cobraBot/Contract.sol\":4155:4162  uint256 */\n      0x00\n        /* \"cobraBot/Contract.sol\":4182:4193  userAddress */\n      dup2\n        /* \"cobraBot/Contract.sol\":4182:4201  userAddress.balance */\n      0xffffffffffffffffffffffffffffffffffffffff\n      and\n      balance\n        /* \"cobraBot/Contract.sol\":4175:4201  return userAddress.balance */\n      swap1\n      pop\n        /* \"cobraBot/Contract.sol\":4090:4209  function getUserBalance(address userAddress) public view returns(uint256) {\r... */\n      swap2\n      swap1\n      pop\n      jump\t// out\n        /* \"cobraBot/Contract.sol\":1091:1148  mapping (uint8 => mapping (uint256 => User)) public pools */\n    tag_57:\n      mstore(0x20, 0x06)\n      dup2\n      0x00\n      mstore\n      mstore(0x20, keccak256(0x00, 0x40))\n      dup1\n      0x00\n      mstore\n      keccak256(0x00, 0x40)\n      0x00\n      swap2\n      pop\n      swap2\n      pop\n      pop\n      dup1\n      0x00\n      add\n      sload\n      swap1\n      dup1\n      0x01\n      add\n      0x00\n      swap1\n      sload\n      swap1\n      0x0100\n      exp\n      swap1\n      div\n      0xffffffffffffffffffffffffffffffffffffffff\n      and\n      swap1\n      dup1\n      0x02\n      add\n      sload\n      swap1\n      pop\n      dup4\n      jump\t// out\n        /* \"cobraBot/Contract.sol\":751:788  mapping (uint8 => Game) public levels */\n    tag_62:\n      mstore(0x20, 0x02)\n      dup1\n      0x00\n      mstore\n      keccak256(0x00, 0x40)\n      0x00\n      swap2\n      pop\n      swap1\n      pop\n      dup1\n      0x00\n      add\n      sload\n      swap1\n      pop\n      dup2\n      jump\t// out\n        /* \"cobraBot/Contract.sol\":3853:4082  function hasAccess(address userAdress) public view returns(bool) {\r... */\n    tag_67:\n        /* \"cobraBot/Contract.sol\":3912:3916  bool */\n      0x00\n        /* \"cobraBot/Contract.sol\":4061:4074  contractOwner */\n      0x01\n      dup1\n      sload\n      swap1\n      0x0100\n      exp\n      swap1\n      div\n      0xffffffffffffffffffffffffffffffffffffffff\n      and\n        /* \"cobraBot/Contract.sol\":4047:4074  userAdress == contractOwner */\n      0xffffffffffffffffffffffffffffffffffffffff\n      and\n        /* \"cobraBot/Contract.sol\":4047:4057  userAdress */\n      dup3\n        /* \"cobraBot/Contract.sol\":4047:4074  userAdress == contractOwner */\n      0xffffffffffffffffffffffffffffffffffffffff\n      and\n      eq\n        /* \"cobraBot/Contract.sol\":4040:4074  return userAdress == contractOwner */\n      swap1\n      pop\n        /* \"cobraBot/Contract.sol\":3853:4082  function hasAccess(address userAdress) public view returns(bool) {\r... */\n      swap2\n      swap1\n      pop\n      jump\t// out\n        /* \"cobraBot/Contract.sol\":1002:1052  mapping (uint8 => uint256) public currentUserIndex */\n    tag_72:\n      mstore(0x20, 0x05)\n      dup1\n      0x00\n      mstore\n      keccak256(0x00, 0x40)\n      0x00\n      swap2\n      pop\n      swap1\n      pop\n      sload\n      dup2\n      jump\t// out\n        /* \"cobraBot/Contract.sol\":150:181  uint8 public currentGameIdIndex */\n    tag_76:\n      0x01\n      0x00\n      swap1\n      sload\n      swap1\n      0x0100\n      exp\n      swap1\n      div\n      0xff\n      and\n      dup2\n      jump\t// out\n        /* \"cobraBot/Contract.sol\":4217:4578  function addGameLevel(uint256 amountToPay) public onlyOwner {\r... */\n    tag_82:\n        /* \"cobraBot/Contract.sol\":2183:2204  hasAccess(msg.sender) */\n      tag_125\n        /* \"cobraBot/Contract.sol\":2193:2203  msg.sender */\n      caller\n        /* \"cobraBot/Contract.sol\":2183:2192  hasAccess */\n      tag_67\n        /* \"cobraBot/Contract.sol\":2183:2204  hasAccess(msg.sender) */\n      jump\t// in\n    tag_125:\n        /* \"cobraBot/Contract.sol\":2175:2205  require(hasAccess(msg.sender)) */\n      tag_126\n      jumpi\n      0x00\n      dup1\n      revert\n    tag_126:\n        /* \"cobraBot/Contract.sol\":4422:4456  Game({ amountToPay: amountToPay }) */\n      mload(0x40)\n      dup1\n      0x20\n      add\n      0x40\n      mstore\n      dup1\n        /* \"cobraBot/Contract.sol\":4442:4453  amountToPay */\n      dup3\n        /* \"cobraBot/Contract.sol\":4422:4456  Game({ amountToPay: amountToPay }) */\n      dup2\n      mstore\n      pop\n        /* \"cobraBot/Contract.sol\":4393:4399  levels */\n      0x02\n        /* \"cobraBot/Contract.sol\":4393:4419  levels[currentGameIdIndex] */\n      0x00\n        /* \"cobraBot/Contract.sol\":4400:4418  currentGameIdIndex */\n      0x01\n      0x00\n      swap1\n      sload\n      swap1\n      0x0100\n      exp\n      swap1\n      div\n      0xff\n      and\n        /* \"cobraBot/Contract.sol\":4393:4419  levels[currentGameIdIndex] */\n      0xff\n      and\n      0xff\n      and\n      dup2\n      mstore\n      0x20\n      add\n      swap1\n      dup2\n      mstore\n      0x20\n      add\n      0x00\n      keccak256\n        /* \"cobraBot/Contract.sol\":4393:4456  levels[currentGameIdIndex] = Game({ amountToPay: amountToPay }) */\n      0x00\n      dup3\n      add\n      mload\n      dup2\n      0x00\n      add\n      sstore\n      swap1\n      pop\n      pop\n        /* \"cobraBot/Contract.sol\":4506:4507  1 */\n      0x01\n        /* \"cobraBot/Contract.sol\":4467:4483  currentUserIndex */\n      0x05\n        /* \"cobraBot/Contract.sol\":4467:4503  currentUserIndex[currentGameIdIndex] */\n      0x00\n        /* \"cobraBot/Contract.sol\":4484:4502  currentGameIdIndex */\n      0x01\n      0x00\n      swap1\n      sload\n      swap1\n      0x0100\n      exp\n      swap1\n      div\n      0xff\n      and\n        /* \"cobraBot/Contract.sol\":4467:4503  currentUserIndex[currentGameIdIndex] */\n      0xff\n      and\n      0xff\n      and\n      dup2\n      mstore\n      0x20\n      add\n      swap1\n      dup2\n      mstore\n      0x20\n      add\n      0x00\n      keccak256\n        /* \"cobraBot/Contract.sol\":4467:4507  currentUserIndex[currentGameIdIndex] = 1 */\n      dup2\n      swap1\n      sstore\n      pop\n        /* \"cobraBot/Contract.sol\":4523:4570  NewGame(levels[currentGameIdIndex].amountToPay) */\n      0xa0b7f6f22bb4f69adc52dd16ffe2a964ab8b577be274247fa9a1547b03ce3e55\n        /* \"cobraBot/Contract.sol\":4531:4537  levels */\n      0x02\n        /* \"cobraBot/Contract.sol\":4531:4557  levels[currentGameIdIndex] */\n      0x00\n        /* \"cobraBot/Contract.sol\":4538:4556  currentGameIdIndex */\n      0x01\n      0x00\n      swap1\n      sload\n      swap1\n      0x0100\n      exp\n      swap1\n      div\n      0xff\n      and\n        /* \"cobraBot/Contract.sol\":4531:4557  levels[currentGameIdIndex] */\n      0xff\n      and\n      0xff\n      and\n      dup2\n      mstore\n      0x20\n      add\n      swap1\n      dup2\n      mstore\n      0x20\n      add\n      0x00\n      keccak256\n        /* \"cobraBot/Contract.sol\":4531:4569  levels[currentGameIdIndex].amountToPay */\n      0x00\n      add\n      sload\n        /* \"cobraBot/Contract.sol\":4523:4570  NewGame(levels[currentGameIdIndex].amountToPay) */\n      mload(0x40)\n      tag_128\n      swap2\n      swap1\n      tag_52\n      jump\t// in\n    tag_128:\n      mload(0x40)\n      dup1\n      swap2\n      sub\n      swap1\n      log1\n        /* \"cobraBot/Contract.sol\":4217:4578  function addGameLevel(uint256 amountToPay) public onlyOwner {\r... */\n      pop\n      jump\t// out\n        /* \"cobraBot/Contract.sol\":812:855  mapping (uint256 => address) public usersId */\n    tag_86:\n      mstore(0x20, 0x03)\n      dup1\n      0x00\n      mstore\n      keccak256(0x00, 0x40)\n      0x00\n      swap2\n      pop\n      sload\n      swap1\n      0x0100\n      exp\n      swap1\n      div\n      0xffffffffffffffffffffffffffffffffffffffff\n      and\n      dup2\n      jump\t// out\n        /* \"cobraBot/Contract.sol\":1190:1257  mapping (address => mapping (uint8 => uint256)) public userPayments */\n    tag_92:\n      mstore(0x20, 0x07)\n      dup2\n      0x00\n      mstore\n      mstore(0x20, keccak256(0x00, 0x40))\n      dup1\n      0x00\n      mstore\n      keccak256(0x00, 0x40)\n      0x00\n      swap2\n      pop\n      swap2\n      pop\n      pop\n      sload\n      dup2\n      jump\t// out\n        /* \"cobraBot/Contract.sol\":5256:9014  function _joinToGame(uint8 gameId, address sender, uint256 value) internal {\r... */\n    tag_107:\n        /* \"cobraBot/Contract.sol\":5360:5366  levels */\n      0x02\n        /* \"cobraBot/Contract.sol\":5360:5374  levels[gameId] */\n      0x00\n        /* \"cobraBot/Contract.sol\":5367:5373  gameId */\n      dup5\n        /* \"cobraBot/Contract.sol\":5360:5374  levels[gameId] */\n      0xff\n      and\n      0xff\n      and\n      dup2\n      mstore\n      0x20\n      add\n      swap1\n      dup2\n      mstore\n      0x20\n      add\n      0x00\n      keccak256\n        /* \"cobraBot/Contract.sol\":5360:5386  levels[gameId].amountToPay */\n      0x00\n      add\n      sload\n        /* \"cobraBot/Contract.sol\":5351:5356  value */\n      dup2\n        /* \"cobraBot/Contract.sol\":5351:5386  value >= levels[gameId].amountToPay */\n      lt\n      iszero\n        /* \"cobraBot/Contract.sol\":5342:5426  require (value >= levels[gameId].amountToPay, \"Insufficient amount of contribution\") */\n      tag_130\n      jumpi\n      mload(0x40)\n      0x08c379a000000000000000000000000000000000000000000000000000000000\n      dup2\n      mstore\n      0x04\n      add\n      tag_131\n      swap1\n      tag_132\n      jump\t// in\n    tag_131:\n      mload(0x40)\n      dup1\n      swap2\n      sub\n      swap1\n      revert\n    tag_130:\n        /* \"cobraBot/Contract.sol\":5601:5616  registeredUsers */\n      0x04\n        /* \"cobraBot/Contract.sol\":5601:5624  registeredUsers[sender] */\n      0x00\n        /* \"cobraBot/Contract.sol\":5617:5623  sender */\n      dup4\n        /* \"cobraBot/Contract.sol\":5601:5624  registeredUsers[sender] */\n      0xffffffffffffffffffffffffffffffffffffffff\n      and\n      0xffffffffffffffffffffffffffffffffffffffff\n      and\n      dup2\n      mstore\n      0x20\n      add\n      swap1\n      dup2\n      mstore\n      0x20\n      add\n      0x00\n      keccak256\n        /* \"cobraBot/Contract.sol\":5559:5564  pools */\n      0x06\n        /* \"cobraBot/Contract.sol\":5559:5572  pools[gameId] */\n      0x00\n        /* \"cobraBot/Contract.sol\":5565:5571  gameId */\n      dup6\n        /* \"cobraBot/Contract.sol\":5559:5572  pools[gameId] */\n      0xff\n      and\n      0xff\n      and\n      dup2\n      mstore\n      0x20\n      add\n      swap1\n      dup2\n      mstore\n      0x20\n      add\n      0x00\n      keccak256\n        /* \"cobraBot/Contract.sol\":5559:5598  pools[gameId][currentUserIndex[gameId]] */\n      0x00\n        /* \"cobraBot/Contract.sol\":5573:5589  currentUserIndex */\n      0x05\n        /* \"cobraBot/Contract.sol\":5573:5597  currentUserIndex[gameId] */\n      0x00\n        /* \"cobraBot/Contract.sol\":5590:5596  gameId */\n      dup8\n        /* \"cobraBot/Contract.sol\":5573:5597  currentUserIndex[gameId] */\n      0xff\n      and\n      0xff\n      and\n      dup2\n      mstore\n      0x20\n      add\n      swap1\n      dup2\n      mstore\n      0x20\n      add\n      0x00\n      keccak256\n      sload\n        /* \"cobraBot/Contract.sol\":5559:5598  pools[gameId][currentUserIndex[gameId]] */\n      dup2\n      mstore\n      0x20\n      add\n      swap1\n      dup2\n      mstore\n      0x20\n      add\n      0x00\n      keccak256\n        /* \"cobraBot/Contract.sol\":5559:5624  pools[gameId][currentUserIndex[gameId]] = registeredUsers[sender] */\n      0x00\n      dup3\n      add\n      sload\n      dup2\n      0x00\n      add\n      sstore\n      0x01\n      dup3\n      add\n      0x00\n      swap1\n      sload\n      swap1\n      0x0100\n      exp\n      swap1\n      div\n      0xffffffffffffffffffffffffffffffffffffffff\n      and\n      dup2\n      0x01\n      add\n      exp(0x0100, 0x00)\n      dup2\n      sload\n      dup2\n      0xffffffffffffffffffffffffffffffffffffffff\n      mul\n      not\n      and\n      swap1\n      dup4\n      0xffffffffffffffffffffffffffffffffffffffff\n      and\n      mul\n      or\n      swap1\n      sstore\n      pop\n      0x02\n      dup3\n      add\n      sload\n      dup2\n      0x02\n      add\n      sstore\n      swap1\n      pop\n      pop\n        /* \"cobraBot/Contract.sol\":5663:5667  true */\n      0x01\n        /* \"cobraBot/Contract.sol\":5635:5644  userGames */\n      0x08\n        /* \"cobraBot/Contract.sol\":5635:5652  userGames[sender] */\n      0x00\n        /* \"cobraBot/Contract.sol\":5645:5651  sender */\n      dup5\n        /* \"cobraBot/Contract.sol\":5635:5652  userGames[sender] */\n      0xffffffffffffffffffffffffffffffffffffffff\n      and\n      0xffffffffffffffffffffffffffffffffffffffff\n      and\n      dup2\n      mstore\n      0x20\n      add\n      swap1\n      dup2\n      mstore\n      0x20\n      add\n      0x00\n      keccak256\n        /* \"cobraBot/Contract.sol\":5635:5660  userGames[sender][gameId] */\n      0x00\n        /* \"cobraBot/Contract.sol\":5653:5659  gameId */\n      dup6\n        /* \"cobraBot/Contract.sol\":5635:5660  userGames[sender][gameId] */\n      0xff\n      and\n      0xff\n      and\n      dup2\n      mstore\n      0x20\n      add\n      swap1\n      dup2\n      mstore\n      0x20\n      add\n      0x00\n      keccak256\n      0x00\n        /* \"cobraBot/Contract.sol\":5635:5667  userGames[sender][gameId] = true */\n      0x0100\n      exp\n      dup2\n      sload\n      dup2\n      0xff\n      mul\n      not\n      and\n      swap1\n      dup4\n      iszero\n      iszero\n      mul\n      or\n      swap1\n      sstore\n      pop\n        /* \"cobraBot/Contract.sol\":5811:5812  3 */\n      0x03\n        /* \"cobraBot/Contract.sol\":5783:5799  currentUserIndex */\n      0x05\n        /* \"cobraBot/Contract.sol\":5783:5807  currentUserIndex[gameId] */\n      0x00\n        /* \"cobraBot/Contract.sol\":5800:5806  gameId */\n      dup6\n        /* \"cobraBot/Contract.sol\":5783:5807  currentUserIndex[gameId] */\n      0xff\n      and\n      0xff\n      and\n      dup2\n      mstore\n      0x20\n      add\n      swap1\n      dup2\n      mstore\n      0x20\n      add\n      0x00\n      keccak256\n      sload\n        /* \"cobraBot/Contract.sol\":5783:5812  currentUserIndex[gameId] >= 3 */\n      lt\n        /* \"cobraBot/Contract.sol\":5779:8896  if (currentUserIndex[gameId] >= 3) {\r... */\n      tag_133\n      jumpi\n        /* \"cobraBot/Contract.sol\":5829:5846  uint256 userIndex */\n      0x00\n        /* \"cobraBot/Contract.sol\":5849:5894  culcNextWinnerIndex(currentUserIndex[gameId]) */\n      tag_134\n        /* \"cobraBot/Contract.sol\":5869:5885  currentUserIndex */\n      0x05\n        /* \"cobraBot/Contract.sol\":5869:5893  currentUserIndex[gameId] */\n      0x00\n        /* \"cobraBot/Contract.sol\":5886:5892  gameId */\n      dup7\n        /* \"cobraBot/Contract.sol\":5869:5893  currentUserIndex[gameId] */\n      0xff\n      and\n      0xff\n      and\n      dup2\n      mstore\n      0x20\n      add\n      swap1\n      dup2\n      mstore\n      0x20\n      add\n      0x00\n      keccak256\n      sload\n        /* \"cobraBot/Contract.sol\":5849:5868  culcNextWinnerIndex */\n      tag_135\n        /* \"cobraBot/Contract.sol\":5849:5894  culcNextWinnerIndex(currentUserIndex[gameId]) */\n      jump\t// in\n    tag_134:\n        /* \"cobraBot/Contract.sol\":5829:5894  uint256 userIndex = culcNextWinnerIndex(currentUserIndex[gameId]) */\n      swap1\n      pop\n        /* \"cobraBot/Contract.sol\":6035:8885  while (userIndex != 0) {\r... */\n    tag_136:\n        /* \"cobraBot/Contract.sol\":6055:6056  0 */\n      0x00\n        /* \"cobraBot/Contract.sol\":6042:6051  userIndex */\n      dup2\n        /* \"cobraBot/Contract.sol\":6042:6056  userIndex != 0 */\n      eq\n        /* \"cobraBot/Contract.sol\":6035:8885  while (userIndex != 0) {\r... */\n      tag_137\n      jumpi\n        /* \"cobraBot/Contract.sol\":6077:6100  address selectedAddress */\n      0x00\n        /* \"cobraBot/Contract.sol\":6103:6108  pools */\n      0x06\n        /* \"cobraBot/Contract.sol\":6103:6116  pools[gameId] */\n      0x00\n        /* \"cobraBot/Contract.sol\":6109:6115  gameId */\n      dup7\n        /* \"cobraBot/Contract.sol\":6103:6116  pools[gameId] */\n      0xff\n      and\n      0xff\n      and\n      dup2\n      mstore\n      0x20\n      add\n      swap1\n      dup2\n      mstore\n      0x20\n      add\n      0x00\n      keccak256\n        /* \"cobraBot/Contract.sol\":6103:6127  pools[gameId][userIndex] */\n      0x00\n        /* \"cobraBot/Contract.sol\":6117:6126  userIndex */\n      dup4\n        /* \"cobraBot/Contract.sol\":6103:6127  pools[gameId][userIndex] */\n      dup2\n      mstore\n      0x20\n      add\n      swap1\n      dup2\n      mstore\n      0x20\n      add\n      0x00\n      keccak256\n        /* \"cobraBot/Contract.sol\":6103:6139  pools[gameId][userIndex].userAddress */\n      0x01\n      add\n      0x00\n      swap1\n      sload\n      swap1\n      0x0100\n      exp\n      swap1\n      div\n      0xffffffffffffffffffffffffffffffffffffffff\n      and\n        /* \"cobraBot/Contract.sol\":6077:6139  address selectedAddress = pools[gameId][userIndex].userAddress */\n      swap1\n      pop\n        /* \"cobraBot/Contract.sol\":6345:6346  1 */\n      0x01\n        /* \"cobraBot/Contract.sol\":6304:6316  userPayments */\n      0x07\n        /* \"cobraBot/Contract.sol\":6304:6333  userPayments[selectedAddress] */\n      0x00\n        /* \"cobraBot/Contract.sol\":6317:6332  selectedAddress */\n      dup4\n        /* \"cobraBot/Contract.sol\":6304:6333  userPayments[selectedAddress] */\n      0xffffffffffffffffffffffffffffffffffffffff\n      and\n      0xffffffffffffffffffffffffffffffffffffffff\n      and\n      dup2\n      mstore\n      0x20\n      add\n      swap1\n      dup2\n      mstore\n      0x20\n      add\n      0x00\n      keccak256\n        /* \"cobraBot/Contract.sol\":6304:6341  userPayments[selectedAddress][gameId] */\n      0x00\n        /* \"cobraBot/Contract.sol\":6334:6340  gameId */\n      dup8\n        /* \"cobraBot/Contract.sol\":6304:6341  userPayments[selectedAddress][gameId] */\n      0xff\n      and\n      0xff\n      and\n      dup2\n      mstore\n      0x20\n      add\n      swap1\n      dup2\n      mstore\n      0x20\n      add\n      0x00\n      keccak256\n      sload\n        /* \"cobraBot/Contract.sol\":6304:6346  userPayments[selectedAddress][gameId] <= 1 */\n      gt\n      iszero\n        /* \"cobraBot/Contract.sol\":6304:6386  userPayments[selectedAddress][gameId] <= 1 || userGames[selectedAddress][gameId+1] */\n      dup1\n      tag_138\n      jumpi\n      pop\n        /* \"cobraBot/Contract.sol\":6350:6359  userGames */\n      0x08\n        /* \"cobraBot/Contract.sol\":6350:6376  userGames[selectedAddress] */\n      0x00\n        /* \"cobraBot/Contract.sol\":6360:6375  selectedAddress */\n      dup3\n        /* \"cobraBot/Contract.sol\":6350:6376  userGames[selectedAddress] */\n      0xffffffffffffffffffffffffffffffffffffffff\n      and\n      0xffffffffffffffffffffffffffffffffffffffff\n      and\n      dup2\n      mstore\n      0x20\n      add\n      swap1\n      dup2\n      mstore\n      0x20\n      add\n      0x00\n      keccak256\n        /* \"cobraBot/Contract.sol\":6350:6386  userGames[selectedAddress][gameId+1] */\n      0x00\n        /* \"cobraBot/Contract.sol\":6384:6385  1 */\n      0x01\n        /* \"cobraBot/Contract.sol\":6377:6383  gameId */\n      dup8\n        /* \"cobraBot/Contract.sol\":6377:6385  gameId+1 */\n      tag_139\n      swap2\n      swap1\n      tag_99\n      jump\t// in\n    tag_139:\n        /* \"cobraBot/Contract.sol\":6350:6386  userGames[selectedAddress][gameId+1] */\n      0xff\n      and\n      0xff\n      and\n      dup2\n      mstore\n      0x20\n      add\n      swap1\n      dup2\n      mstore\n      0x20\n      add\n      0x00\n      keccak256\n      0x00\n      swap1\n      sload\n      swap1\n      0x0100\n      exp\n      swap1\n      div\n      0xff\n      and\n        /* \"cobraBot/Contract.sol\":6304:6386  userPayments[selectedAddress][gameId] <= 1 || userGames[selectedAddress][gameId+1] */\n    tag_138:\n        /* \"cobraBot/Contract.sol\":6300:8870  if (userPayments[selectedAddress][gameId] <= 1 || userGames[selectedAddress][gameId+1]) {\r... */\n      iszero\n      tag_140\n      jumpi\n        /* \"cobraBot/Contract.sol\":6588:6600  bool success */\n      0x00\n        /* \"cobraBot/Contract.sol\":6606:6621  selectedAddress */\n      dup2\n        /* \"cobraBot/Contract.sol\":6606:6626  selectedAddress.call */\n      0xffffffffffffffffffffffffffffffffffffffff\n      and\n        /* \"cobraBot/Contract.sol\":6675:6678  100 */\n      0x64\n        /* \"cobraBot/Contract.sol\":270:272  74 */\n      0x4a\n        /* \"cobraBot/Contract.sol\":6634:6640  levels */\n      0x02\n        /* \"cobraBot/Contract.sol\":6634:6648  levels[gameId] */\n      0x00\n        /* \"cobraBot/Contract.sol\":6641:6647  gameId */\n      dup11\n        /* \"cobraBot/Contract.sol\":6634:6648  levels[gameId] */\n      0xff\n      and\n      0xff\n      and\n      dup2\n      mstore\n      0x20\n      add\n      swap1\n      dup2\n      mstore\n      0x20\n      add\n      0x00\n      keccak256\n        /* \"cobraBot/Contract.sol\":6634:6660  levels[gameId].amountToPay */\n      0x00\n      add\n      sload\n        /* \"cobraBot/Contract.sol\":6634:6672  levels[gameId].amountToPay * baseAward */\n      tag_141\n      swap2\n      swap1\n      tag_142\n      jump\t// in\n    tag_141:\n        /* \"cobraBot/Contract.sol\":6634:6678  levels[gameId].amountToPay * baseAward / 100 */\n      tag_143\n      swap2\n      swap1\n      tag_144\n      jump\t// in\n    tag_143:\n        /* \"cobraBot/Contract.sol\":6606:6683  selectedAddress.call{value: levels[gameId].amountToPay * baseAward / 100}(\"\") */\n      mload(0x40)\n      tag_145\n      swap1\n      tag_146\n      jump\t// in\n    tag_145:\n      0x00\n      mload(0x40)\n      dup1\n      dup4\n      sub\n      dup2\n      dup6\n      dup8\n      gas\n      call\n      swap3\n      pop\n      pop\n      pop\n      returndatasize\n      dup1\n      0x00\n      dup2\n      eq\n      tag_149\n      jumpi\n      mload(0x40)\n      swap2\n      pop\n      and(add(returndatasize, 0x3f), not(0x1f))\n      dup3\n      add\n      0x40\n      mstore\n      returndatasize\n      dup3\n      mstore\n      returndatasize\n      0x00\n      0x20\n      dup5\n      add\n      returndatacopy\n      jump(tag_148)\n    tag_149:\n      0x60\n      swap2\n      pop\n    tag_148:\n      pop\n        /* \"cobraBot/Contract.sol\":6587:6683  (bool success, ) = selectedAddress.call{value: levels[gameId].amountToPay * baseAward / 100}(\"\") */\n      pop\n      swap1\n      pop\n        /* \"cobraBot/Contract.sol\":6747:6748  1 */\n      0x01\n        /* \"cobraBot/Contract.sol\":6706:6718  userPayments */\n      0x07\n        /* \"cobraBot/Contract.sol\":6706:6735  userPayments[selectedAddress] */\n      0x00\n        /* \"cobraBot/Contract.sol\":6719:6734  selectedAddress */\n      dup5\n        /* \"cobraBot/Contract.sol\":6706:6735  userPayments[selectedAddress] */\n      0xffffffffffffffffffffffffffffffffffffffff\n      and\n      0xffffffffffffffffffffffffffffffffffffffff\n      and\n      dup2\n      mstore\n      0x20\n      add\n      swap1\n      dup2\n      mstore\n      0x20\n      add\n      0x00\n      keccak256\n        /* \"cobraBot/Contract.sol\":6706:6743  userPayments[selectedAddress][gameId] */\n      0x00\n        /* \"cobraBot/Contract.sol\":6736:6742  gameId */\n      dup9\n        /* \"cobraBot/Contract.sol\":6706:6743  userPayments[selectedAddress][gameId] */\n      0xff\n      and\n      0xff\n      and\n      dup2\n      mstore\n      0x20\n      add\n      swap1\n      dup2\n      mstore\n      0x20\n      add\n      0x00\n      keccak256\n      0x00\n        /* \"cobraBot/Contract.sol\":6706:6748  userPayments[selectedAddress][gameId] += 1 */\n      dup3\n      dup3\n      sload\n      tag_150\n      swap2\n      swap1\n      tag_117\n      jump\t// in\n    tag_150:\n      swap3\n      pop\n      pop\n      dup2\n      swap1\n      sstore\n      pop\n        /* \"cobraBot/Contract.sol\":6830:6900  GamePaymentEvent(levels[gameId].amountToPay, selectedAddress, success) */\n      0x99af5599bf20c9414934ff2eb4264f5ac1a42fe0e5ec331366cf59ed0641c1bd\n        /* \"cobraBot/Contract.sol\":6847:6853  levels */\n      0x02\n        /* \"cobraBot/Contract.sol\":6847:6861  levels[gameId] */\n      0x00\n        /* \"cobraBot/Contract.sol\":6854:6860  gameId */\n      dup9\n        /* \"cobraBot/Contract.sol\":6847:6861  levels[gameId] */\n      0xff\n      and\n      0xff\n      and\n      dup2\n      mstore\n      0x20\n      add\n      swap1\n      dup2\n      mstore\n      0x20\n      add\n      0x00\n      keccak256\n        /* \"cobraBot/Contract.sol\":6847:6873  levels[gameId].amountToPay */\n      0x00\n      add\n      sload\n        /* \"cobraBot/Contract.sol\":6875:6890  selectedAddress */\n      dup4\n        /* \"cobraBot/Contract.sol\":6892:6899  success */\n      dup4\n        /* \"cobraBot/Contract.sol\":6830:6900  GamePaymentEvent(levels[gameId].amountToPay, selectedAddress, success) */\n      mload(0x40)\n      tag_151\n      swap4\n      swap3\n      swap2\n      swap1\n      tag_152\n      jump\t// in\n    tag_151:\n      mload(0x40)\n      dup1\n      swap2\n      sub\n      swap1\n      log1\n        /* \"cobraBot/Contract.sol\":6925:6939  uint256 userId */\n      0x00\n        /* \"cobraBot/Contract.sol\":6942:6947  pools */\n      0x06\n        /* \"cobraBot/Contract.sol\":6942:6955  pools[gameId] */\n      0x00\n        /* \"cobraBot/Contract.sol\":6948:6954  gameId */\n      dup9\n        /* \"cobraBot/Contract.sol\":6942:6955  pools[gameId] */\n      0xff\n      and\n      0xff\n      and\n      dup2\n      mstore\n      0x20\n      add\n      swap1\n      dup2\n      mstore\n      0x20\n      add\n      0x00\n      keccak256\n        /* \"cobraBot/Contract.sol\":6942:6966  pools[gameId][userIndex] */\n      0x00\n        /* \"cobraBot/Contract.sol\":6956:6965  userIndex */\n      dup6\n        /* \"cobraBot/Contract.sol\":6942:6966  pools[gameId][userIndex] */\n      dup2\n      mstore\n      0x20\n      add\n      swap1\n      dup2\n      mstore\n      0x20\n      add\n      0x00\n      keccak256\n        /* \"cobraBot/Contract.sol\":6942:6973  pools[gameId][userIndex].userId */\n      0x00\n      add\n      sload\n        /* \"cobraBot/Contract.sol\":6925:6973  uint256 userId = pools[gameId][userIndex].userId */\n      swap1\n      pop\n        /* \"cobraBot/Contract.sol\":7025:7042  uint256 invitedId */\n      0x00\n        /* \"cobraBot/Contract.sol\":7045:7050  pools */\n      0x06\n        /* \"cobraBot/Contract.sol\":7045:7058  pools[gameId] */\n      0x00\n        /* \"cobraBot/Contract.sol\":7051:7057  gameId */\n      dup10\n        /* \"cobraBot/Contract.sol\":7045:7058  pools[gameId] */\n      0xff\n      and\n      0xff\n      and\n      dup2\n      mstore\n      0x20\n      add\n      swap1\n      dup2\n      mstore\n      0x20\n      add\n      0x00\n      keccak256\n        /* \"cobraBot/Contract.sol\":7045:7069  pools[gameId][userIndex] */\n      0x00\n        /* \"cobraBot/Contract.sol\":7059:7068  userIndex */\n      dup7\n        /* \"cobraBot/Contract.sol\":7045:7069  pools[gameId][userIndex] */\n      dup2\n      mstore\n      0x20\n      add\n      swap1\n      dup2\n      mstore\n      0x20\n      add\n      0x00\n      keccak256\n        /* \"cobraBot/Contract.sol\":7045:7079  pools[gameId][userIndex].invitedId */\n      0x02\n      add\n      sload\n        /* \"cobraBot/Contract.sol\":7025:7079  uint256 invitedId = pools[gameId][userIndex].invitedId */\n      swap1\n      pop\n        /* \"cobraBot/Contract.sol\":7139:7152  uint refValue */\n      0x00\n        /* \"cobraBot/Contract.sol\":7204:7207  100 */\n      0x64\n        /* \"cobraBot/Contract.sol\":333:335  10 */\n      0x0a\n        /* \"cobraBot/Contract.sol\":7155:7161  levels */\n      0x02\n        /* \"cobraBot/Contract.sol\":7155:7169  levels[gameId] */\n      0x00\n        /* \"cobraBot/Contract.sol\":7162:7168  gameId */\n      dup13\n        /* \"cobraBot/Contract.sol\":7155:7169  levels[gameId] */\n      0xff\n      and\n      0xff\n      and\n      dup2\n      mstore\n      0x20\n      add\n      swap1\n      dup2\n      mstore\n      0x20\n      add\n      0x00\n      keccak256\n        /* \"cobraBot/Contract.sol\":7155:7181  levels[gameId].amountToPay */\n      0x00\n      add\n      sload\n        /* \"cobraBot/Contract.sol\":7155:7201  levels[gameId].amountToPay * firstLevelReferal */\n      tag_153\n      swap2\n      swap1\n      tag_142\n      jump\t// in\n    tag_153:\n        /* \"cobraBot/Contract.sol\":7155:7207  levels[gameId].amountToPay * firstLevelReferal / 100 */\n      tag_154\n      swap2\n      swap1\n      tag_144\n      jump\t// in\n    tag_154:\n        /* \"cobraBot/Contract.sol\":7139:7207  uint refValue = levels[gameId].amountToPay * firstLevelReferal / 100 */\n      swap1\n      pop\n        /* \"cobraBot/Contract.sol\":7269:7276  usersId */\n      0x03\n        /* \"cobraBot/Contract.sol\":7269:7287  usersId[invitedId] */\n      0x00\n        /* \"cobraBot/Contract.sol\":7277:7286  invitedId */\n      dup4\n        /* \"cobraBot/Contract.sol\":7269:7287  usersId[invitedId] */\n      dup2\n      mstore\n      0x20\n      add\n      swap1\n      dup2\n      mstore\n      0x20\n      add\n      0x00\n      keccak256\n      0x00\n      swap1\n      sload\n      swap1\n      0x0100\n      exp\n      swap1\n      div\n      0xffffffffffffffffffffffffffffffffffffffff\n      and\n        /* \"cobraBot/Contract.sol\":7269:7292  usersId[invitedId].call */\n      0xffffffffffffffffffffffffffffffffffffffff\n      and\n        /* \"cobraBot/Contract.sol\":7300:7308  refValue */\n      dup2\n        /* \"cobraBot/Contract.sol\":7269:7313  usersId[invitedId].call{value: refValue}(\"\") */\n      mload(0x40)\n      tag_155\n      swap1\n      tag_146\n      jump\t// in\n    tag_155:\n      0x00\n      mload(0x40)\n      dup1\n      dup4\n      sub\n      dup2\n      dup6\n      dup8\n      gas\n      call\n      swap3\n      pop\n      pop\n      pop\n      returndatasize\n      dup1\n      0x00\n      dup2\n      eq\n      tag_158\n      jumpi\n      mload(0x40)\n      swap2\n      pop\n      and(add(returndatasize, 0x3f), not(0x1f))\n      dup3\n      add\n      0x40\n      mstore\n      returndatasize\n      dup3\n      mstore\n      returndatasize\n      0x00\n      0x20\n      dup5\n      add\n      returndatacopy\n      jump(tag_157)\n    tag_158:\n      0x60\n      swap2\n      pop\n    tag_157:\n      pop\n        /* \"cobraBot/Contract.sol\":7255:7313  (success, ) = usersId[invitedId].call{value: refValue}(\"\") */\n      pop\n      dup1\n      swap5\n      pop\n      pop\n        /* \"cobraBot/Contract.sol\":7342:7349  success */\n      dup4\n        /* \"cobraBot/Contract.sol\":7338:7432  if (success) emit ReferalPaymentEvent(levels[gameId].amountToPay, userId, invitedId, refValue) */\n      iszero\n      tag_159\n      jumpi\n        /* \"cobraBot/Contract.sol\":7356:7432  ReferalPaymentEvent(levels[gameId].amountToPay, userId, invitedId, refValue) */\n      0x394d81fc6d726f376ac7e03cfb1bf07f04a993ec0a3fe7f4782e2ef8e5416145\n        /* \"cobraBot/Contract.sol\":7376:7382  levels */\n      0x02\n        /* \"cobraBot/Contract.sol\":7376:7390  levels[gameId] */\n      0x00\n        /* \"cobraBot/Contract.sol\":7383:7389  gameId */\n      dup12\n        /* \"cobraBot/Contract.sol\":7376:7390  levels[gameId] */\n      0xff\n      and\n      0xff\n      and\n      dup2\n      mstore\n      0x20\n      add\n      swap1\n      dup2\n      mstore\n      0x20\n      add\n      0x00\n      keccak256\n        /* \"cobraBot/Contract.sol\":7376:7402  levels[gameId].amountToPay */\n      0x00\n      add\n      sload\n        /* \"cobraBot/Contract.sol\":7404:7410  userId */\n      dup5\n        /* \"cobraBot/Contract.sol\":7412:7421  invitedId */\n      dup5\n        /* \"cobraBot/Contract.sol\":7423:7431  refValue */\n      dup5\n        /* \"cobraBot/Contract.sol\":7356:7432  ReferalPaymentEvent(levels[gameId].amountToPay, userId, invitedId, refValue) */\n      mload(0x40)\n      tag_160\n      swap5\n      swap4\n      swap3\n      swap2\n      swap1\n      tag_161\n      jump\t// in\n    tag_160:\n      mload(0x40)\n      dup1\n      swap2\n      sub\n      swap1\n      log1\n        /* \"cobraBot/Contract.sol\":7338:7432  if (success) emit ReferalPaymentEvent(levels[gameId].amountToPay, userId, invitedId, refValue) */\n    tag_159:\n        /* \"cobraBot/Contract.sol\":7518:7521  100 */\n      0x64\n        /* \"cobraBot/Contract.sol\":410:411  6 */\n      0x06\n        /* \"cobraBot/Contract.sol\":7468:7474  levels */\n      0x02\n        /* \"cobraBot/Contract.sol\":7468:7482  levels[gameId] */\n      0x00\n        /* \"cobraBot/Contract.sol\":7475:7481  gameId */\n      dup13\n        /* \"cobraBot/Contract.sol\":7468:7482  levels[gameId] */\n      0xff\n      and\n      0xff\n      and\n      dup2\n      mstore\n      0x20\n      add\n      swap1\n      dup2\n      mstore\n      0x20\n      add\n      0x00\n      keccak256\n        /* \"cobraBot/Contract.sol\":7468:7494  levels[gameId].amountToPay */\n      0x00\n      add\n      sload\n        /* \"cobraBot/Contract.sol\":7468:7515  levels[gameId].amountToPay * secondLevelReferal */\n      tag_162\n      swap2\n      swap1\n      tag_142\n      jump\t// in\n    tag_162:\n        /* \"cobraBot/Contract.sol\":7468:7521  levels[gameId].amountToPay * secondLevelReferal / 100 */\n      tag_163\n      swap2\n      swap1\n      tag_144\n      jump\t// in\n    tag_163:\n        /* \"cobraBot/Contract.sol\":7457:7521  refValue = levels[gameId].amountToPay * secondLevelReferal / 100 */\n      swap1\n      pop\n        /* \"cobraBot/Contract.sol\":7582:7597  registeredUsers */\n      0x04\n        /* \"cobraBot/Contract.sol\":7582:7617  registeredUsers[usersId[invitedId]] */\n      0x00\n        /* \"cobraBot/Contract.sol\":7598:7605  usersId */\n      0x03\n        /* \"cobraBot/Contract.sol\":7598:7616  usersId[invitedId] */\n      0x00\n        /* \"cobraBot/Contract.sol\":7606:7615  invitedId */\n      dup6\n        /* \"cobraBot/Contract.sol\":7598:7616  usersId[invitedId] */\n      dup2\n      mstore\n      0x20\n      add\n      swap1\n      dup2\n      mstore\n      0x20\n      add\n      0x00\n      keccak256\n      0x00\n      swap1\n      sload\n      swap1\n      0x0100\n      exp\n      swap1\n      div\n      0xffffffffffffffffffffffffffffffffffffffff\n      and\n        /* \"cobraBot/Contract.sol\":7582:7617  registeredUsers[usersId[invitedId]] */\n      0xffffffffffffffffffffffffffffffffffffffff\n      and\n      0xffffffffffffffffffffffffffffffffffffffff\n      and\n      dup2\n      mstore\n      0x20\n      add\n      swap1\n      dup2\n      mstore\n      0x20\n      add\n      0x00\n      keccak256\n        /* \"cobraBot/Contract.sol\":7582:7629  registeredUsers[usersId[invitedId]].userAddress */\n      0x01\n      add\n      0x00\n      swap1\n      sload\n      swap1\n      0x0100\n      exp\n      swap1\n      div\n      0xffffffffffffffffffffffffffffffffffffffff\n      and\n        /* \"cobraBot/Contract.sol\":7582:7634  registeredUsers[usersId[invitedId]].userAddress.call */\n      0xffffffffffffffffffffffffffffffffffffffff\n      and\n        /* \"cobraBot/Contract.sol\":7642:7650  refValue */\n      dup2\n        /* \"cobraBot/Contract.sol\":7582:7655  registeredUsers[usersId[invitedId]].userAddress.call{value: refValue}(\"\") */\n      mload(0x40)\n      tag_164\n      swap1\n      tag_146\n      jump\t// in\n    tag_164:\n      0x00\n      mload(0x40)\n      dup1\n      dup4\n      sub\n      dup2\n      dup6\n      dup8\n      gas\n      call\n      swap3\n      pop\n      pop\n      pop\n      returndatasize\n      dup1\n      0x00\n      dup2\n      eq\n      tag_167\n      jumpi\n      mload(0x40)\n      swap2\n      pop\n      and(add(returndatasize, 0x3f), not(0x1f))\n      dup3\n      add\n      0x40\n      mstore\n      returndatasize\n      dup3\n      mstore\n      returndatasize\n      0x00\n      0x20\n      dup5\n      add\n      returndatacopy\n      jump(tag_166)\n    tag_167:\n      0x60\n      swap2\n      pop\n    tag_166:\n      pop\n        /* \"cobraBot/Contract.sol\":7568:7655  (success, ) = registeredUsers[usersId[invitedId]].userAddress.call{value: refValue}(\"\") */\n      pop\n      dup1\n      swap5\n      pop\n      pop\n        /* \"cobraBot/Contract.sol\":7710:7717  success */\n      dup4\n        /* \"cobraBot/Contract.sol\":7706:7836  if (success) emit ReferalPaymentEvent(levels[gameId].amountToPay, invitedId, registeredUsers[usersId[invitedId]].userId, refValue) */\n      iszero\n      tag_168\n      jumpi\n        /* \"cobraBot/Contract.sol\":7724:7836  ReferalPaymentEvent(levels[gameId].amountToPay, invitedId, registeredUsers[usersId[invitedId]].userId, refValue) */\n      0x394d81fc6d726f376ac7e03cfb1bf07f04a993ec0a3fe7f4782e2ef8e5416145\n        /* \"cobraBot/Contract.sol\":7744:7750  levels */\n      0x02\n        /* \"cobraBot/Contract.sol\":7744:7758  levels[gameId] */\n      0x00\n        /* \"cobraBot/Contract.sol\":7751:7757  gameId */\n      dup12\n        /* \"cobraBot/Contract.sol\":7744:7758  levels[gameId] */\n      0xff\n      and\n      0xff\n      and\n      dup2\n      mstore\n      0x20\n      add\n      swap1\n      dup2\n      mstore\n      0x20\n      add\n      0x00\n      keccak256\n        /* \"cobraBot/Contract.sol\":7744:7770  levels[gameId].amountToPay */\n      0x00\n      add\n      sload\n        /* \"cobraBot/Contract.sol\":7772:7781  invitedId */\n      dup4\n        /* \"cobraBot/Contract.sol\":7783:7798  registeredUsers */\n      0x04\n        /* \"cobraBot/Contract.sol\":7783:7818  registeredUsers[usersId[invitedId]] */\n      0x00\n        /* \"cobraBot/Contract.sol\":7799:7806  usersId */\n      0x03\n        /* \"cobraBot/Contract.sol\":7799:7817  usersId[invitedId] */\n      0x00\n        /* \"cobraBot/Contract.sol\":7807:7816  invitedId */\n      dup9\n        /* \"cobraBot/Contract.sol\":7799:7817  usersId[invitedId] */\n      dup2\n      mstore\n      0x20\n      add\n      swap1\n      dup2\n      mstore\n      0x20\n      add\n      0x00\n      keccak256\n      0x00\n      swap1\n      sload\n      swap1\n      0x0100\n      exp\n      swap1\n      div\n      0xffffffffffffffffffffffffffffffffffffffff\n      and\n        /* \"cobraBot/Contract.sol\":7783:7818  registeredUsers[usersId[invitedId]] */\n      0xffffffffffffffffffffffffffffffffffffffff\n      and\n      0xffffffffffffffffffffffffffffffffffffffff\n      and\n      dup2\n      mstore\n      0x20\n      add\n      swap1\n      dup2\n      mstore\n      0x20\n      add\n      0x00\n      keccak256\n        /* \"cobraBot/Contract.sol\":7783:7825  registeredUsers[usersId[invitedId]].userId */\n      0x00\n      add\n      sload\n        /* \"cobraBot/Contract.sol\":7827:7835  refValue */\n      dup5\n        /* \"cobraBot/Contract.sol\":7724:7836  ReferalPaymentEvent(levels[gameId].amountToPay, invitedId, registeredUsers[usersId[invitedId]].userId, refValue) */\n      mload(0x40)\n      tag_169\n      swap5\n      swap4\n      swap3\n      swap2\n      swap1\n      tag_161\n      jump\t// in\n    tag_169:\n      mload(0x40)\n      dup1\n      swap2\n      sub\n      swap1\n      log1\n        /* \"cobraBot/Contract.sol\":7706:7836  if (success) emit ReferalPaymentEvent(levels[gameId].amountToPay, invitedId, registeredUsers[usersId[invitedId]].userId, refValue) */\n    tag_168:\n        /* \"cobraBot/Contract.sol\":7921:7924  100 */\n      0x64\n        /* \"cobraBot/Contract.sol\":485:486  4 */\n      0x04\n        /* \"cobraBot/Contract.sol\":7872:7878  levels */\n      0x02\n        /* \"cobraBot/Contract.sol\":7872:7886  levels[gameId] */\n      0x00\n        /* \"cobraBot/Contract.sol\":7879:7885  gameId */\n      dup13\n        /* \"cobraBot/Contract.sol\":7872:7886  levels[gameId] */\n      0xff\n      and\n      0xff\n      and\n      dup2\n      mstore\n      0x20\n      add\n      swap1\n      dup2\n      mstore\n      0x20\n      add\n      0x00\n      keccak256\n        /* \"cobraBot/Contract.sol\":7872:7898  levels[gameId].amountToPay */\n      0x00\n      add\n      sload\n        /* \"cobraBot/Contract.sol\":7872:7918  levels[gameId].amountToPay * thirdLevelReferal */\n      tag_170\n      swap2\n      swap1\n      tag_142\n      jump\t// in\n    tag_170:\n        /* \"cobraBot/Contract.sol\":7872:7924  levels[gameId].amountToPay * thirdLevelReferal / 100 */\n      tag_171\n      swap2\n      swap1\n      tag_144\n      jump\t// in\n    tag_171:\n        /* \"cobraBot/Contract.sol\":7861:7924  refValue = levels[gameId].amountToPay * thirdLevelReferal / 100 */\n      swap1\n      pop\n        /* \"cobraBot/Contract.sol\":7984:7999  registeredUsers */\n      0x04\n        /* \"cobraBot/Contract.sol\":7984:8052  registeredUsers[usersId[registeredUsers[usersId[invitedId]].userId]] */\n      0x00\n        /* \"cobraBot/Contract.sol\":8000:8007  usersId */\n      0x03\n        /* \"cobraBot/Contract.sol\":8000:8051  usersId[registeredUsers[usersId[invitedId]].userId] */\n      0x00\n        /* \"cobraBot/Contract.sol\":8008:8023  registeredUsers */\n      0x04\n        /* \"cobraBot/Contract.sol\":8008:8043  registeredUsers[usersId[invitedId]] */\n      0x00\n        /* \"cobraBot/Contract.sol\":8024:8031  usersId */\n      0x03\n        /* \"cobraBot/Contract.sol\":8024:8042  usersId[invitedId] */\n      0x00\n        /* \"cobraBot/Contract.sol\":8032:8041  invitedId */\n      dup10\n        /* \"cobraBot/Contract.sol\":8024:8042  usersId[invitedId] */\n      dup2\n      mstore\n      0x20\n      add\n      swap1\n      dup2\n      mstore\n      0x20\n      add\n      0x00\n      keccak256\n      0x00\n      swap1\n      sload\n      swap1\n      0x0100\n      exp\n      swap1\n      div\n      0xffffffffffffffffffffffffffffffffffffffff\n      and\n        /* \"cobraBot/Contract.sol\":8008:8043  registeredUsers[usersId[invitedId]] */\n      0xffffffffffffffffffffffffffffffffffffffff\n      and\n      0xffffffffffffffffffffffffffffffffffffffff\n      and\n      dup2\n      mstore\n      0x20\n      add\n      swap1\n      dup2\n      mstore\n      0x20\n      add\n      0x00\n      keccak256\n        /* \"cobraBot/Contract.sol\":8008:8050  registeredUsers[usersId[invitedId]].userId */\n      0x00\n      add\n      sload\n        /* \"cobraBot/Contract.sol\":8000:8051  usersId[registeredUsers[usersId[invitedId]].userId] */\n      dup2\n      mstore\n      0x20\n      add\n      swap1\n      dup2\n      mstore\n      0x20\n      add\n      0x00\n      keccak256\n      0x00\n      swap1\n      sload\n      swap1\n      0x0100\n      exp\n      swap1\n      div\n      0xffffffffffffffffffffffffffffffffffffffff\n      and\n        /* \"cobraBot/Contract.sol\":7984:8052  registeredUsers[usersId[registeredUsers[usersId[invitedId]].userId]] */\n      0xffffffffffffffffffffffffffffffffffffffff\n      and\n      0xffffffffffffffffffffffffffffffffffffffff\n      and\n      dup2\n      mstore\n      0x20\n      add\n      swap1\n      dup2\n      mstore\n      0x20\n      add\n      0x00\n      keccak256\n        /* \"cobraBot/Contract.sol\":7984:8064  registeredUsers[usersId[registeredUsers[usersId[invitedId]].userId]].userAddress */\n      0x01\n      add\n      0x00\n      swap1\n      sload\n      swap1\n      0x0100\n      exp\n      swap1\n      div\n      0xffffffffffffffffffffffffffffffffffffffff\n      and\n        /* \"cobraBot/Contract.sol\":7984:8069  registeredUsers[usersId[registeredUsers[usersId[invitedId]].userId]].userAddress.call */\n      0xffffffffffffffffffffffffffffffffffffffff\n      and\n        /* \"cobraBot/Contract.sol\":8077:8085  refValue */\n      dup2\n        /* \"cobraBot/Contract.sol\":7984:8090  registeredUsers[usersId[registeredUsers[usersId[invitedId]].userId]].userAddress.call{value: refValue}(\"\") */\n      mload(0x40)\n      tag_172\n      swap1\n      tag_146\n      jump\t// in\n    tag_172:\n      0x00\n      mload(0x40)\n      dup1\n      dup4\n      sub\n      dup2\n      dup6\n      dup8\n      gas\n      call\n      swap3\n      pop\n      pop\n      pop\n      returndatasize\n      dup1\n      0x00\n      dup2\n      eq\n      tag_175\n      jumpi\n      mload(0x40)\n      swap2\n      pop\n      and(add(returndatasize, 0x3f), not(0x1f))\n      dup3\n      add\n      0x40\n      mstore\n      returndatasize\n      dup3\n      mstore\n      returndatasize\n      0x00\n      0x20\n      dup5\n      add\n      returndatacopy\n      jump(tag_174)\n    tag_175:\n      0x60\n      swap2\n      pop\n    tag_174:\n      pop\n        /* \"cobraBot/Contract.sol\":7970:8090  (success, ) = registeredUsers[usersId[registeredUsers[usersId[invitedId]].userId]].userAddress.call{value: refValue}(\"\") */\n      pop\n      dup1\n      swap5\n      pop\n      pop\n        /* \"cobraBot/Contract.sol\":8119:8126  success */\n      dup4\n        /* \"cobraBot/Contract.sol\":8115:8311  if (success) emit ReferalPaymentEvent(levels[gameId].amountToPay, registeredUsers[usersId[invitedId]].userId, registeredUsers[usersId[registeredUsers[usersId[invitedId]].userId]].userId, refValue) */\n      iszero\n      tag_176\n      jumpi\n        /* \"cobraBot/Contract.sol\":8133:8311  ReferalPaymentEvent(levels[gameId].amountToPay, registeredUsers[usersId[invitedId]].userId, registeredUsers[usersId[registeredUsers[usersId[invitedId]].userId]].userId, refValue) */\n      0x394d81fc6d726f376ac7e03cfb1bf07f04a993ec0a3fe7f4782e2ef8e5416145\n        /* \"cobraBot/Contract.sol\":8153:8159  levels */\n      0x02\n        /* \"cobraBot/Contract.sol\":8153:8167  levels[gameId] */\n      0x00\n        /* \"cobraBot/Contract.sol\":8160:8166  gameId */\n      dup12\n        /* \"cobraBot/Contract.sol\":8153:8167  levels[gameId] */\n      0xff\n      and\n      0xff\n      and\n      dup2\n      mstore\n      0x20\n      add\n      swap1\n      dup2\n      mstore\n      0x20\n      add\n      0x00\n      keccak256\n        /* \"cobraBot/Contract.sol\":8153:8179  levels[gameId].amountToPay */\n      0x00\n      add\n      sload\n        /* \"cobraBot/Contract.sol\":8181:8196  registeredUsers */\n      0x04\n        /* \"cobraBot/Contract.sol\":8181:8216  registeredUsers[usersId[invitedId]] */\n      0x00\n        /* \"cobraBot/Contract.sol\":8197:8204  usersId */\n      0x03\n        /* \"cobraBot/Contract.sol\":8197:8215  usersId[invitedId] */\n      0x00\n        /* \"cobraBot/Contract.sol\":8205:8214  invitedId */\n      dup8\n        /* \"cobraBot/Contract.sol\":8197:8215  usersId[invitedId] */\n      dup2\n      mstore\n      0x20\n      add\n      swap1\n      dup2\n      mstore\n      0x20\n      add\n      0x00\n      keccak256\n      0x00\n      swap1\n      sload\n      swap1\n      0x0100\n      exp\n      swap1\n      div\n      0xffffffffffffffffffffffffffffffffffffffff\n      and\n        /* \"cobraBot/Contract.sol\":8181:8216  registeredUsers[usersId[invitedId]] */\n      0xffffffffffffffffffffffffffffffffffffffff\n      and\n      0xffffffffffffffffffffffffffffffffffffffff\n      and\n      dup2\n      mstore\n      0x20\n      add\n      swap1\n      dup2\n      mstore\n      0x20\n      add\n      0x00\n      keccak256\n        /* \"cobraBot/Contract.sol\":8181:8223  registeredUsers[usersId[invitedId]].userId */\n      0x00\n      add\n      sload\n        /* \"cobraBot/Contract.sol\":8225:8240  registeredUsers */\n      0x04\n        /* \"cobraBot/Contract.sol\":8225:8293  registeredUsers[usersId[registeredUsers[usersId[invitedId]].userId]] */\n      0x00\n        /* \"cobraBot/Contract.sol\":8241:8248  usersId */\n      0x03\n        /* \"cobraBot/Contract.sol\":8241:8292  usersId[registeredUsers[usersId[invitedId]].userId] */\n      0x00\n        /* \"cobraBot/Contract.sol\":8249:8264  registeredUsers */\n      0x04\n        /* \"cobraBot/Contract.sol\":8249:8284  registeredUsers[usersId[invitedId]] */\n      0x00\n        /* \"cobraBot/Contract.sol\":8265:8272  usersId */\n      0x03\n        /* \"cobraBot/Contract.sol\":8265:8283  usersId[invitedId] */\n      0x00\n        /* \"cobraBot/Contract.sol\":8273:8282  invitedId */\n      dup13\n        /* \"cobraBot/Contract.sol\":8265:8283  usersId[invitedId] */\n      dup2\n      mstore\n      0x20\n      add\n      swap1\n      dup2\n      mstore\n      0x20\n      add\n      0x00\n      keccak256\n      0x00\n      swap1\n      sload\n      swap1\n      0x0100\n      exp\n      swap1\n      div\n      0xffffffffffffffffffffffffffffffffffffffff\n      and\n        /* \"cobraBot/Contract.sol\":8249:8284  registeredUsers[usersId[invitedId]] */\n      0xffffffffffffffffffffffffffffffffffffffff\n      and\n      0xffffffffffffffffffffffffffffffffffffffff\n      and\n      dup2\n      mstore\n      0x20\n      add\n      swap1\n      dup2\n      mstore\n      0x20\n      add\n      0x00\n      keccak256\n        /* \"cobraBot/Contract.sol\":8249:8291  registeredUsers[usersId[invitedId]].userId */\n      0x00\n      add\n      sload\n        /* \"cobraBot/Contract.sol\":8241:8292  usersId[registeredUsers[usersId[invitedId]].userId] */\n      dup2\n      mstore\n      0x20\n      add\n      swap1\n      dup2\n      mstore\n      0x20\n      add\n      0x00\n      keccak256\n      0x00\n      swap1\n      sload\n      swap1\n      0x0100\n      exp\n      swap1\n      div\n      0xffffffffffffffffffffffffffffffffffffffff\n      and\n        /* \"cobraBot/Contract.sol\":8225:8293  registeredUsers[usersId[registeredUsers[usersId[invitedId]].userId]] */\n      0xffffffffffffffffffffffffffffffffffffffff\n      and\n      0xffffffffffffffffffffffffffffffffffffffff\n      and\n      dup2\n      mstore\n      0x20\n      add\n      swap1\n      dup2\n      mstore\n      0x20\n      add\n      0x00\n      keccak256\n        /* \"cobraBot/Contract.sol\":8225:8300  registeredUsers[usersId[registeredUsers[usersId[invitedId]].userId]].userId */\n      0x00\n      add\n      sload\n        /* \"cobraBot/Contract.sol\":8302:8310  refValue */\n      dup5\n        /* \"cobraBot/Contract.sol\":8133:8311  ReferalPaymentEvent(levels[gameId].amountToPay, registeredUsers[usersId[invitedId]].userId, registeredUsers[usersId[registeredUsers[usersId[invitedId]].userId]].userId, refValue) */\n      mload(0x40)\n      tag_177\n      swap5\n      swap4\n      swap3\n      swap2\n      swap1\n      tag_161\n      jump\t// in\n    tag_177:\n      mload(0x40)\n      dup1\n      swap2\n      sub\n      swap1\n      log1\n        /* \"cobraBot/Contract.sol\":8115:8311  if (success) emit ReferalPaymentEvent(levels[gameId].amountToPay, registeredUsers[usersId[invitedId]].userId, registeredUsers[usersId[registeredUsers[usersId[invitedId]].userId]].userId, refValue) */\n    tag_176:\n        /* \"cobraBot/Contract.sol\":8511:8514  100 */\n      0x64\n        /* \"cobraBot/Contract.sol\":554:555  6 */\n      0x06\n        /* \"cobraBot/Contract.sol\":8467:8473  levels */\n      0x02\n        /* \"cobraBot/Contract.sol\":8467:8481  levels[gameId] */\n      0x00\n        /* \"cobraBot/Contract.sol\":8474:8480  gameId */\n      dup13\n        /* \"cobraBot/Contract.sol\":8467:8481  levels[gameId] */\n      0xff\n      and\n      0xff\n      and\n      dup2\n      mstore\n      0x20\n      add\n      swap1\n      dup2\n      mstore\n      0x20\n      add\n      0x00\n      keccak256\n        /* \"cobraBot/Contract.sol\":8467:8493  levels[gameId].amountToPay */\n      0x00\n      add\n      sload\n        /* \"cobraBot/Contract.sol\":8467:8508  levels[gameId].amountToPay * ownerReferal */\n      tag_178\n      swap2\n      swap1\n      tag_142\n      jump\t// in\n    tag_178:\n        /* \"cobraBot/Contract.sol\":8467:8514  levels[gameId].amountToPay * ownerReferal / 100 */\n      tag_179\n      swap2\n      swap1\n      tag_144\n      jump\t// in\n    tag_179:\n        /* \"cobraBot/Contract.sol\":8456:8514  refValue = levels[gameId].amountToPay * ownerReferal / 100 */\n      swap1\n      pop\n        /* \"cobraBot/Contract.sol\":8568:8583  registeredUsers */\n      0x04\n        /* \"cobraBot/Contract.sol\":8568:8598  registeredUsers[contractOwner] */\n      0x00\n        /* \"cobraBot/Contract.sol\":8584:8597  contractOwner */\n      0x01\n      dup1\n      sload\n      swap1\n      0x0100\n      exp\n      swap1\n      div\n      0xffffffffffffffffffffffffffffffffffffffff\n      and\n        /* \"cobraBot/Contract.sol\":8568:8598  registeredUsers[contractOwner] */\n      0xffffffffffffffffffffffffffffffffffffffff\n      and\n      0xffffffffffffffffffffffffffffffffffffffff\n      and\n      dup2\n      mstore\n      0x20\n      add\n      swap1\n      dup2\n      mstore\n      0x20\n      add\n      0x00\n      keccak256\n        /* \"cobraBot/Contract.sol\":8568:8610  registeredUsers[contractOwner].userAddress */\n      0x01\n      add\n      0x00\n      swap1\n      sload\n      swap1\n      0x0100\n      exp\n      swap1\n      div\n      0xffffffffffffffffffffffffffffffffffffffff\n      and\n        /* \"cobraBot/Contract.sol\":8568:8615  registeredUsers[contractOwner].userAddress.call */\n      0xffffffffffffffffffffffffffffffffffffffff\n      and\n        /* \"cobraBot/Contract.sol\":8623:8631  refValue */\n      dup2\n        /* \"cobraBot/Contract.sol\":8568:8636  registeredUsers[contractOwner].userAddress.call{value: refValue}(\"\") */\n      mload(0x40)\n      tag_180\n      swap1\n      tag_146\n      jump\t// in\n    tag_180:\n      0x00\n      mload(0x40)\n      dup1\n      dup4\n      sub\n      dup2\n      dup6\n      dup8\n      gas\n      call\n      swap3\n      pop\n      pop\n      pop\n      returndatasize\n      dup1\n      0x00\n      dup2\n      eq\n      tag_183\n      jumpi\n      mload(0x40)\n      swap2\n      pop\n      and(add(returndatasize, 0x3f), not(0x1f))\n      dup3\n      add\n      0x40\n      mstore\n      returndatasize\n      dup3\n      mstore\n      returndatasize\n      0x00\n      0x20\n      dup5\n      add\n      returndatacopy\n      jump(tag_182)\n    tag_183:\n      0x60\n      swap2\n      pop\n    tag_182:\n      pop\n        /* \"cobraBot/Contract.sol\":8554:8636  (success, ) = registeredUsers[contractOwner].userAddress.call{value: refValue}(\"\") */\n      pop\n      dup1\n      swap5\n      pop\n      pop\n        /* \"cobraBot/Contract.sol\":8665:8672  success */\n      dup4\n        /* \"cobraBot/Contract.sol\":8661:8783  if (success) emit ReferalPaymentEvent(levels[gameId].amountToPay, userId, registeredUsers[contractOwner].userId, refValue) */\n      iszero\n      tag_184\n      jumpi\n        /* \"cobraBot/Contract.sol\":8679:8783  ReferalPaymentEvent(levels[gameId].amountToPay, userId, registeredUsers[contractOwner].userId, refValue) */\n      0x394d81fc6d726f376ac7e03cfb1bf07f04a993ec0a3fe7f4782e2ef8e5416145\n        /* \"cobraBot/Contract.sol\":8699:8705  levels */\n      0x02\n        /* \"cobraBot/Contract.sol\":8699:8713  levels[gameId] */\n      0x00\n        /* \"cobraBot/Contract.sol\":8706:8712  gameId */\n      dup12\n        /* \"cobraBot/Contract.sol\":8699:8713  levels[gameId] */\n      0xff\n      and\n      0xff\n      and\n      dup2\n      mstore\n      0x20\n      add\n      swap1\n      dup2\n      mstore\n      0x20\n      add\n      0x00\n      keccak256\n        /* \"cobraBot/Contract.sol\":8699:8725  levels[gameId].amountToPay */\n      0x00\n      add\n      sload\n        /* \"cobraBot/Contract.sol\":8727:8733  userId */\n      dup5\n        /* \"cobraBot/Contract.sol\":8735:8750  registeredUsers */\n      0x04\n        /* \"cobraBot/Contract.sol\":8735:8765  registeredUsers[contractOwner] */\n      0x00\n        /* \"cobraBot/Contract.sol\":8751:8764  contractOwner */\n      0x01\n      dup1\n      sload\n      swap1\n      0x0100\n      exp\n      swap1\n      div\n      0xffffffffffffffffffffffffffffffffffffffff\n      and\n        /* \"cobraBot/Contract.sol\":8735:8765  registeredUsers[contractOwner] */\n      0xffffffffffffffffffffffffffffffffffffffff\n      and\n      0xffffffffffffffffffffffffffffffffffffffff\n      and\n      dup2\n      mstore\n      0x20\n      add\n      swap1\n      dup2\n      mstore\n      0x20\n      add\n      0x00\n      keccak256\n        /* \"cobraBot/Contract.sol\":8735:8772  registeredUsers[contractOwner].userId */\n      0x00\n      add\n      sload\n        /* \"cobraBot/Contract.sol\":8774:8782  refValue */\n      dup5\n        /* \"cobraBot/Contract.sol\":8679:8783  ReferalPaymentEvent(levels[gameId].amountToPay, userId, registeredUsers[contractOwner].userId, refValue) */\n      mload(0x40)\n      tag_185\n      swap5\n      swap4\n      swap3\n      swap2\n      swap1\n      tag_161\n      jump\t// in\n    tag_185:\n      mload(0x40)\n      dup1\n      swap2\n      sub\n      swap1\n      log1\n        /* \"cobraBot/Contract.sol\":8661:8783  if (success) emit ReferalPaymentEvent(levels[gameId].amountToPay, userId, registeredUsers[contractOwner].userId, refValue) */\n    tag_184:\n        /* \"cobraBot/Contract.sol\":8820:8850  culcNextWinnerIndex(userIndex) */\n      tag_186\n        /* \"cobraBot/Contract.sol\":8840:8849  userIndex */\n      dup7\n        /* \"cobraBot/Contract.sol\":8820:8839  culcNextWinnerIndex */\n      tag_135\n        /* \"cobraBot/Contract.sol\":8820:8850  culcNextWinnerIndex(userIndex) */\n      jump\t// in\n    tag_186:\n        /* \"cobraBot/Contract.sol\":8808:8850  userIndex = culcNextWinnerIndex(userIndex) */\n      swap6\n      pop\n        /* \"cobraBot/Contract.sol\":6388:8870  {\r... */\n      pop\n      pop\n      pop\n      pop\n        /* \"cobraBot/Contract.sol\":6300:8870  if (userPayments[selectedAddress][gameId] <= 1 || userGames[selectedAddress][gameId+1]) {\r... */\n    tag_140:\n        /* \"cobraBot/Contract.sol\":6058:8885  {\r... */\n      pop\n        /* \"cobraBot/Contract.sol\":6035:8885  while (userIndex != 0) {\r... */\n      jump(tag_136)\n    tag_137:\n        /* \"cobraBot/Contract.sol\":5814:8896  {\r... */\n      pop\n        /* \"cobraBot/Contract.sol\":5779:8896  if (currentUserIndex[gameId] >= 3) {\r... */\n    tag_133:\n        /* \"cobraBot/Contract.sol\":9005:9006  1 */\n      0x01\n        /* \"cobraBot/Contract.sol\":8977:8993  currentUserIndex */\n      0x05\n        /* \"cobraBot/Contract.sol\":8977:9001  currentUserIndex[gameId] */\n      0x00\n        /* \"cobraBot/Contract.sol\":8994:9000  gameId */\n      dup6\n        /* \"cobraBot/Contract.sol\":8977:9001  currentUserIndex[gameId] */\n      0xff\n      and\n      0xff\n      and\n      dup2\n      mstore\n      0x20\n      add\n      swap1\n      dup2\n      mstore\n      0x20\n      add\n      0x00\n      keccak256\n      0x00\n        /* \"cobraBot/Contract.sol\":8977:9006  currentUserIndex[gameId] += 1 */\n      dup3\n      dup3\n      sload\n      tag_187\n      swap2\n      swap1\n      tag_117\n      jump\t// in\n    tag_187:\n      swap3\n      pop\n      pop\n      dup2\n      swap1\n      sstore\n      pop\n        /* \"cobraBot/Contract.sol\":5256:9014  function _joinToGame(uint8 gameId, address sender, uint256 value) internal {\r... */\n      pop\n      pop\n      pop\n      jump\t// out\n        /* \"cobraBot/Contract.sol\":3282:3845  function culcNextWinnerIndex(uint256 index) internal pure returns(uint256) {\r... */\n    tag_135:\n        /* \"cobraBot/Contract.sol\":3348:3355  uint256 */\n      0x00\n        /* \"cobraBot/Contract.sol\":3820:3821  0 */\n      dup1\n        /* \"cobraBot/Contract.sol\":3815:3816  2 */\n      0x02\n        /* \"cobraBot/Contract.sol\":3807:3812  index */\n      dup4\n        /* \"cobraBot/Contract.sol\":3807:3816  index % 2 */\n      tag_189\n      swap2\n      swap1\n      tag_190\n      jump\t// in\n    tag_189:\n        /* \"cobraBot/Contract.sol\":3807:3821  index % 2 == 0 */\n      eq\n        /* \"cobraBot/Contract.sol\":3807:3837  index % 2 == 0 ? 0 : index / 2 */\n      tag_191\n      jumpi\n        /* \"cobraBot/Contract.sol\":3836:3837  2 */\n      0x02\n        /* \"cobraBot/Contract.sol\":3828:3833  index */\n      dup3\n        /* \"cobraBot/Contract.sol\":3828:3837  index / 2 */\n      tag_192\n      swap2\n      swap1\n      tag_144\n      jump\t// in\n    tag_192:\n        /* \"cobraBot/Contract.sol\":3807:3837  index % 2 == 0 ? 0 : index / 2 */\n      jump(tag_193)\n    tag_191:\n        /* \"cobraBot/Contract.sol\":3824:3825  0 */\n      0x00\n        /* \"cobraBot/Contract.sol\":3807:3837  index % 2 == 0 ? 0 : index / 2 */\n    tag_193:\n        /* \"cobraBot/Contract.sol\":3800:3837  return index % 2 == 0 ? 0 : index / 2 */\n      swap1\n      pop\n        /* \"cobraBot/Contract.sol\":3282:3845  function culcNextWinnerIndex(uint256 index) internal pure returns(uint256) {\r... */\n      swap2\n      swap1\n      pop\n      jump\t// out\n        /* \"#utility.yul\":7:146   */\n    tag_195:\n        /* \"#utility.yul\":53:58   */\n      0x00\n        /* \"#utility.yul\":91:97   */\n      dup2\n        /* \"#utility.yul\":78:98   */\n      calldataload\n        /* \"#utility.yul\":69:98   */\n      swap1\n      pop\n        /* \"#utility.yul\":107:140   */\n      tag_197\n        /* \"#utility.yul\":134:139   */\n      dup2\n        /* \"#utility.yul\":107:140   */\n      tag_198\n      jump\t// in\n    tag_197:\n        /* \"#utility.yul\":7:146   */\n      swap3\n      swap2\n      pop\n      pop\n      jump\t// out\n        /* \"#utility.yul\":152:291   */\n    tag_199:\n        /* \"#utility.yul\":198:203   */\n      0x00\n        /* \"#utility.yul\":236:242   */\n      dup2\n        /* \"#utility.yul\":223:243   */\n      calldataload\n        /* \"#utility.yul\":214:243   */\n      swap1\n      pop\n        /* \"#utility.yul\":252:285   */\n      tag_201\n        /* \"#utility.yul\":279:284   */\n      dup2\n        /* \"#utility.yul\":252:285   */\n      tag_202\n      jump\t// in\n    tag_201:\n        /* \"#utility.yul\":152:291   */\n      swap3\n      swap2\n      pop\n      pop\n      jump\t// out\n        /* \"#utility.yul\":297:432   */\n    tag_203:\n        /* \"#utility.yul\":341:346   */\n      0x00\n        /* \"#utility.yul\":379:385   */\n      dup2\n        /* \"#utility.yul\":366:386   */\n      calldataload\n        /* \"#utility.yul\":357:386   */\n      swap1\n      pop\n        /* \"#utility.yul\":395:426   */\n      tag_205\n        /* \"#utility.yul\":420:425   */\n      dup2\n        /* \"#utility.yul\":395:426   */\n      tag_206\n      jump\t// in\n    tag_205:\n        /* \"#utility.yul\":297:432   */\n      swap3\n      swap2\n      pop\n      pop\n      jump\t// out\n        /* \"#utility.yul\":438:767   */\n    tag_32:\n        /* \"#utility.yul\":497:503   */\n      0x00\n        /* \"#utility.yul\":546:548   */\n      0x20\n        /* \"#utility.yul\":534:543   */\n      dup3\n        /* \"#utility.yul\":525:532   */\n      dup5\n        /* \"#utility.yul\":521:544   */\n      sub\n        /* \"#utility.yul\":517:549   */\n      slt\n        /* \"#utility.yul\":514:633   */\n      iszero\n      tag_208\n      jumpi\n        /* \"#utility.yul\":552:631   */\n      tag_209\n      tag_210\n      jump\t// in\n    tag_209:\n        /* \"#utility.yul\":514:633   */\n    tag_208:\n        /* \"#utility.yul\":672:673   */\n      0x00\n        /* \"#utility.yul\":697:750   */\n      tag_211\n        /* \"#utility.yul\":742:749   */\n      dup5\n        /* \"#utility.yul\":733:739   */\n      dup3\n        /* \"#utility.yul\":722:731   */\n      dup6\n        /* \"#utility.yul\":718:740   */\n      add\n        /* \"#utility.yul\":697:750   */\n      tag_195\n      jump\t// in\n    tag_211:\n        /* \"#utility.yul\":687:750   */\n      swap2\n      pop\n        /* \"#utility.yul\":643:760   */\n      pop\n        /* \"#utility.yul\":438:767   */\n      swap3\n      swap2\n      pop\n      pop\n      jump\t// out\n        /* \"#utility.yul\":773:1243   */\n    tag_39:\n        /* \"#utility.yul\":839:845   */\n      0x00\n        /* \"#utility.yul\":847:853   */\n      dup1\n        /* \"#utility.yul\":896:898   */\n      0x40\n        /* \"#utility.yul\":884:893   */\n      dup4\n        /* \"#utility.yul\":875:882   */\n      dup6\n        /* \"#utility.yul\":871:894   */\n      sub\n        /* \"#utility.yul\":867:899   */\n      slt\n        /* \"#utility.yul\":864:983   */\n      iszero\n      tag_213\n      jumpi\n        /* \"#utility.yul\":902:981   */\n      tag_214\n      tag_210\n      jump\t// in\n    tag_214:\n        /* \"#utility.yul\":864:983   */\n    tag_213:\n        /* \"#utility.yul\":1022:1023   */\n      0x00\n        /* \"#utility.yul\":1047:1100   */\n      tag_215\n        /* \"#utility.yul\":1092:1099   */\n      dup6\n        /* \"#utility.yul\":1083:1089   */\n      dup3\n        /* \"#utility.yul\":1072:1081   */\n      dup7\n        /* \"#utility.yul\":1068:1090   */\n      add\n        /* \"#utility.yul\":1047:1100   */\n      tag_195\n      jump\t// in\n    tag_215:\n        /* \"#utility.yul\":1037:1100   */\n      swap3\n      pop\n        /* \"#utility.yul\":993:1110   */\n      pop\n        /* \"#utility.yul\":1149:1151   */\n      0x20\n        /* \"#utility.yul\":1175:1226   */\n      tag_216\n        /* \"#utility.yul\":1218:1225   */\n      dup6\n        /* \"#utility.yul\":1209:1215   */\n      dup3\n        /* \"#utility.yul\":1198:1207   */\n      dup7\n        /* \"#utility.yul\":1194:1216   */\n      add\n        /* \"#utility.yul\":1175:1226   */\n      tag_203\n      jump\t// in\n    tag_216:\n        /* \"#utility.yul\":1165:1226   */\n      swap2\n      pop\n        /* \"#utility.yul\":1120:1236   */\n      pop\n        /* \"#utility.yul\":773:1243   */\n      swap3\n      pop\n      swap3\n      swap1\n      pop\n      jump\t// out\n        /* \"#utility.yul\":1249:1578   */\n    tag_27:\n        /* \"#utility.yul\":1308:1314   */\n      0x00\n        /* \"#utility.yul\":1357:1359   */\n      0x20\n        /* \"#utility.yul\":1345:1354   */\n      dup3\n        /* \"#utility.yul\":1336:1343   */\n      dup5\n        /* \"#utility.yul\":1332:1355   */\n      sub\n        /* \"#utility.yul\":1328:1360   */\n      slt\n        /* \"#utility.yul\":1325:1444   */\n      iszero\n      tag_218\n      jumpi\n        /* \"#utility.yul\":1363:1442   */\n      tag_219\n      tag_210\n      jump\t// in\n    tag_219:\n        /* \"#utility.yul\":1325:1444   */\n    tag_218:\n        /* \"#utility.yul\":1483:1484   */\n      0x00\n        /* \"#utility.yul\":1508:1561   */\n      tag_220\n        /* \"#utility.yul\":1553:1560   */\n      dup5\n        /* \"#utility.yul\":1544:1550   */\n      dup3\n        /* \"#utility.yul\":1533:1542   */\n      dup6\n        /* \"#utility.yul\":1529:1551   */\n      add\n        /* \"#utility.yul\":1508:1561   */\n      tag_199\n      jump\t// in\n    tag_220:\n        /* \"#utility.yul\":1498:1561   */\n      swap2\n      pop\n        /* \"#utility.yul\":1454:1571   */\n      pop\n        /* \"#utility.yul\":1249:1578   */\n      swap3\n      swap2\n      pop\n      pop\n      jump\t// out\n        /* \"#utility.yul\":1584:1909   */\n    tag_45:\n        /* \"#utility.yul\":1641:1647   */\n      0x00\n        /* \"#utility.yul\":1690:1692   */\n      0x20\n        /* \"#utility.yul\":1678:1687   */\n      dup3\n        /* \"#utility.yul\":1669:1676   */\n      dup5\n        /* \"#utility.yul\":1665:1688   */\n      sub\n        /* \"#utility.yul\":1661:1693   */\n      slt\n        /* \"#utility.yul\":1658:1777   */\n      iszero\n      tag_222\n      jumpi\n        /* \"#utility.yul\":1696:1775   */\n      tag_223\n      tag_210\n      jump\t// in\n    tag_223:\n        /* \"#utility.yul\":1658:1777   */\n    tag_222:\n        /* \"#utility.yul\":1816:1817   */\n      0x00\n        /* \"#utility.yul\":1841:1892   */\n      tag_224\n        /* \"#utility.yul\":1884:1891   */\n      dup5\n        /* \"#utility.yul\":1875:1881   */\n      dup3\n        /* \"#utility.yul\":1864:1873   */\n      dup6\n        /* \"#utility.yul\":1860:1882   */\n      add\n        /* \"#utility.yul\":1841:1892   */\n      tag_203\n      jump\t// in\n    tag_224:\n        /* \"#utility.yul\":1831:1892   */\n      swap2\n      pop\n        /* \"#utility.yul\":1787:1902   */\n      pop\n        /* \"#utility.yul\":1584:1909   */\n      swap3\n      swap2\n      pop\n      pop\n      jump\t// out\n        /* \"#utility.yul\":1915:2385   */\n    tag_56:\n        /* \"#utility.yul\":1981:1987   */\n      0x00\n        /* \"#utility.yul\":1989:1995   */\n      dup1\n        /* \"#utility.yul\":2038:2040   */\n      0x40\n        /* \"#utility.yul\":2026:2035   */\n      dup4\n        /* \"#utility.yul\":2017:2024   */\n      dup6\n        /* \"#utility.yul\":2013:2036   */\n      sub\n        /* \"#utility.yul\":2009:2041   */\n      slt\n        /* \"#utility.yul\":2006:2125   */\n      iszero\n      tag_226\n      jumpi\n        /* \"#utility.yul\":2044:2123   */\n      tag_227\n      tag_210\n      jump\t// in\n    tag_227:\n        /* \"#utility.yul\":2006:2125   */\n    tag_226:\n        /* \"#utility.yul\":2164:2165   */\n      0x00\n        /* \"#utility.yul\":2189:2240   */\n      tag_228\n        /* \"#utility.yul\":2232:2239   */\n      dup6\n        /* \"#utility.yul\":2223:2229   */\n      dup3\n        /* \"#utility.yul\":2212:2221   */\n      dup7\n        /* \"#utility.yul\":2208:2230   */\n      add\n        /* \"#utility.yul\":2189:2240   */\n      tag_203\n      jump\t// in\n    tag_228:\n        /* \"#utility.yul\":2179:2240   */\n      swap3\n      pop\n        /* \"#utility.yul\":2135:2250   */\n      pop\n        /* \"#utility.yul\":2289:2291   */\n      0x20\n        /* \"#utility.yul\":2315:2368   */\n      tag_229\n        /* \"#utility.yul\":2360:2367   */\n      dup6\n        /* \"#utility.yul\":2351:2357   */\n      dup3\n        /* \"#utility.yul\":2340:2349   */\n      dup7\n        /* \"#utility.yul\":2336:2358   */\n      add\n        /* \"#utility.yul\":2315:2368   */\n      tag_199\n      jump\t// in\n    tag_229:\n        /* \"#utility.yul\":2305:2368   */\n      swap2\n      pop\n        /* \"#utility.yul\":2260:2378   */\n      pop\n        /* \"#utility.yul\":1915:2385   */\n      swap3\n      pop\n      swap3\n      swap1\n      pop\n      jump\t// out\n        /* \"#utility.yul\":2391:2533   */\n    tag_230:\n        /* \"#utility.yul\":2494:2526   */\n      tag_232\n        /* \"#utility.yul\":2520:2525   */\n      dup2\n        /* \"#utility.yul\":2494:2526   */\n      tag_233\n      jump\t// in\n    tag_232:\n        /* \"#utility.yul\":2489:2492   */\n      dup3\n        /* \"#utility.yul\":2482:2527   */\n      mstore\n        /* \"#utility.yul\":2391:2533   */\n      pop\n      pop\n      jump\t// out\n        /* \"#utility.yul\":2539:2657   */\n    tag_234:\n        /* \"#utility.yul\":2626:2650   */\n      tag_236\n        /* \"#utility.yul\":2644:2649   */\n      dup2\n        /* \"#utility.yul\":2626:2650   */\n      tag_237\n      jump\t// in\n    tag_236:\n        /* \"#utility.yul\":2621:2624   */\n      dup3\n        /* \"#utility.yul\":2614:2651   */\n      mstore\n        /* \"#utility.yul\":2539:2657   */\n      pop\n      pop\n      jump\t// out\n        /* \"#utility.yul\":2663:2772   */\n    tag_238:\n        /* \"#utility.yul\":2744:2765   */\n      tag_240\n        /* \"#utility.yul\":2759:2764   */\n      dup2\n        /* \"#utility.yul\":2744:2765   */\n      tag_241\n      jump\t// in\n    tag_240:\n        /* \"#utility.yul\":2739:2742   */\n      dup3\n        /* \"#utility.yul\":2732:2766   */\n      mstore\n        /* \"#utility.yul\":2663:2772   */\n      pop\n      pop\n      jump\t// out\n        /* \"#utility.yul\":2778:3144   */\n    tag_242:\n        /* \"#utility.yul\":2920:2923   */\n      0x00\n        /* \"#utility.yul\":2941:3008   */\n      tag_244\n        /* \"#utility.yul\":3005:3007   */\n      0x0e\n        /* \"#utility.yul\":3000:3003   */\n      dup4\n        /* \"#utility.yul\":2941:3008   */\n      tag_245\n      jump\t// in\n    tag_244:\n        /* \"#utility.yul\":2934:3008   */\n      swap2\n      pop\n        /* \"#utility.yul\":3017:3110   */\n      tag_246\n        /* \"#utility.yul\":3106:3109   */\n      dup3\n        /* \"#utility.yul\":3017:3110   */\n      tag_247\n      jump\t// in\n    tag_246:\n        /* \"#utility.yul\":3135:3137   */\n      0x20\n        /* \"#utility.yul\":3130:3133   */\n      dup3\n        /* \"#utility.yul\":3126:3138   */\n      add\n        /* \"#utility.yul\":3119:3138   */\n      swap1\n      pop\n        /* \"#utility.yul\":2778:3144   */\n      swap2\n      swap1\n      pop\n      jump\t// out\n        /* \"#utility.yul\":3150:3548   */\n    tag_248:\n        /* \"#utility.yul\":3309:3312   */\n      0x00\n        /* \"#utility.yul\":3330:3413   */\n      tag_250\n        /* \"#utility.yul\":3411:3412   */\n      0x00\n        /* \"#utility.yul\":3406:3409   */\n      dup4\n        /* \"#utility.yul\":3330:3413   */\n      tag_251\n      jump\t// in\n    tag_250:\n        /* \"#utility.yul\":3323:3413   */\n      swap2\n      pop\n        /* \"#utility.yul\":3422:3515   */\n      tag_252\n        /* \"#utility.yul\":3511:3514   */\n      dup3\n        /* \"#utility.yul\":3422:3515   */\n      tag_253\n      jump\t// in\n    tag_252:\n        /* \"#utility.yul\":3540:3541   */\n      0x00\n        /* \"#utility.yul\":3535:3538   */\n      dup3\n        /* \"#utility.yul\":3531:3542   */\n      add\n        /* \"#utility.yul\":3524:3542   */\n      swap1\n      pop\n        /* \"#utility.yul\":3150:3548   */\n      swap2\n      swap1\n      pop\n      jump\t// out\n        /* \"#utility.yul\":3554:3920   */\n    tag_254:\n        /* \"#utility.yul\":3696:3699   */\n      0x00\n        /* \"#utility.yul\":3717:3784   */\n      tag_256\n        /* \"#utility.yul\":3781:3783   */\n      0x23\n        /* \"#utility.yul\":3776:3779   */\n      dup4\n        /* \"#utility.yul\":3717:3784   */\n      tag_245\n      jump\t// in\n    tag_256:\n        /* \"#utility.yul\":3710:3784   */\n      swap2\n      pop\n        /* \"#utility.yul\":3793:3886   */\n      tag_257\n        /* \"#utility.yul\":3882:3885   */\n      dup3\n        /* \"#utility.yul\":3793:3886   */\n      tag_258\n      jump\t// in\n    tag_257:\n        /* \"#utility.yul\":3911:3913   */\n      0x40\n        /* \"#utility.yul\":3906:3909   */\n      dup3\n        /* \"#utility.yul\":3902:3914   */\n      add\n        /* \"#utility.yul\":3895:3914   */\n      swap1\n      pop\n        /* \"#utility.yul\":3554:3920   */\n      swap2\n      swap1\n      pop\n      jump\t// out\n        /* \"#utility.yul\":3926:4292   */\n    tag_259:\n        /* \"#utility.yul\":4068:4071   */\n      0x00\n        /* \"#utility.yul\":4089:4156   */\n      tag_261\n        /* \"#utility.yul\":4153:4155   */\n      0x28\n        /* \"#utility.yul\":4148:4151   */\n      dup4\n        /* \"#utility.yul\":4089:4156   */\n      tag_245\n      jump\t// in\n    tag_261:\n        /* \"#utility.yul\":4082:4156   */\n      swap2\n      pop\n        /* \"#utility.yul\":4165:4258   */\n      tag_262\n        /* \"#utility.yul\":4254:4257   */\n      dup3\n        /* \"#utility.yul\":4165:4258   */\n      tag_263\n      jump\t// in\n    tag_262:\n        /* \"#utility.yul\":4283:4285   */\n      0x40\n        /* \"#utility.yul\":4278:4281   */\n      dup3\n        /* \"#utility.yul\":4274:4286   */\n      add\n        /* \"#utility.yul\":4267:4286   */\n      swap1\n      pop\n        /* \"#utility.yul\":3926:4292   */\n      swap2\n      swap1\n      pop\n      jump\t// out\n        /* \"#utility.yul\":4298:4664   */\n    tag_264:\n        /* \"#utility.yul\":4440:4443   */\n      0x00\n        /* \"#utility.yul\":4461:4528   */\n      tag_266\n        /* \"#utility.yul\":4525:4527   */\n      0x0c\n        /* \"#utility.yul\":4520:4523   */\n      dup4\n        /* \"#utility.yul\":4461:4528   */\n      tag_245\n      jump\t// in\n    tag_266:\n        /* \"#utility.yul\":4454:4528   */\n      swap2\n      pop\n        /* \"#utility.yul\":4537:4630   */\n      tag_267\n        /* \"#utility.yul\":4626:4629   */\n      dup3\n        /* \"#utility.yul\":4537:4630   */\n      tag_268\n      jump\t// in\n    tag_267:\n        /* \"#utility.yul\":4655:4657   */\n      0x20\n        /* \"#utility.yul\":4650:4653   */\n      dup3\n        /* \"#utility.yul\":4646:4658   */\n      add\n        /* \"#utility.yul\":4639:4658   */\n      swap1\n      pop\n        /* \"#utility.yul\":4298:4664   */\n      swap2\n      swap1\n      pop\n      jump\t// out\n        /* \"#utility.yul\":4670:4788   */\n    tag_269:\n        /* \"#utility.yul\":4757:4781   */\n      tag_271\n        /* \"#utility.yul\":4775:4780   */\n      dup2\n        /* \"#utility.yul\":4757:4781   */\n      tag_272\n      jump\t// in\n    tag_271:\n        /* \"#utility.yul\":4752:4755   */\n      dup3\n        /* \"#utility.yul\":4745:4782   */\n      mstore\n        /* \"#utility.yul\":4670:4788   */\n      pop\n      pop\n      jump\t// out\n        /* \"#utility.yul\":4794:4906   */\n    tag_273:\n        /* \"#utility.yul\":4877:4899   */\n      tag_275\n        /* \"#utility.yul\":4893:4898   */\n      dup2\n        /* \"#utility.yul\":4877:4899   */\n      tag_276\n      jump\t// in\n    tag_275:\n        /* \"#utility.yul\":4872:4875   */\n      dup3\n        /* \"#utility.yul\":4865:4900   */\n      mstore\n        /* \"#utility.yul\":4794:4906   */\n      pop\n      pop\n      jump\t// out\n        /* \"#utility.yul\":4912:5291   */\n    tag_146:\n        /* \"#utility.yul\":5096:5099   */\n      0x00\n        /* \"#utility.yul\":5118:5265   */\n      tag_278\n        /* \"#utility.yul\":5261:5264   */\n      dup3\n        /* \"#utility.yul\":5118:5265   */\n      tag_248\n      jump\t// in\n    tag_278:\n        /* \"#utility.yul\":5111:5265   */\n      swap2\n      pop\n        /* \"#utility.yul\":5282:5285   */\n      dup2\n        /* \"#utility.yul\":5275:5285   */\n      swap1\n      pop\n        /* \"#utility.yul\":4912:5291   */\n      swap2\n      swap1\n      pop\n      jump\t// out\n        /* \"#utility.yul\":5297:5519   */\n    tag_88:\n        /* \"#utility.yul\":5390:5394   */\n      0x00\n        /* \"#utility.yul\":5428:5430   */\n      0x20\n        /* \"#utility.yul\":5417:5426   */\n      dup3\n        /* \"#utility.yul\":5413:5431   */\n      add\n        /* \"#utility.yul\":5405:5431   */\n      swap1\n      pop\n        /* \"#utility.yul\":5441:5512   */\n      tag_280\n        /* \"#utility.yul\":5509:5510   */\n      0x00\n        /* \"#utility.yul\":5498:5507   */\n      dup4\n        /* \"#utility.yul\":5494:5511   */\n      add\n        /* \"#utility.yul\":5485:5491   */\n      dup5\n        /* \"#utility.yul\":5441:5512   */\n      tag_234\n      jump\t// in\n    tag_280:\n        /* \"#utility.yul\":5297:5519   */\n      swap3\n      swap2\n      pop\n      pop\n      jump\t// out\n        /* \"#utility.yul\":5525:5735   */\n    tag_42:\n        /* \"#utility.yul\":5612:5616   */\n      0x00\n        /* \"#utility.yul\":5650:5652   */\n      0x20\n        /* \"#utility.yul\":5639:5648   */\n      dup3\n        /* \"#utility.yul\":5635:5653   */\n      add\n        /* \"#utility.yul\":5627:5653   */\n      swap1\n      pop\n        /* \"#utility.yul\":5663:5728   */\n      tag_282\n        /* \"#utility.yul\":5725:5726   */\n      0x00\n        /* \"#utility.yul\":5714:5723   */\n      dup4\n        /* \"#utility.yul\":5710:5727   */\n      add\n        /* \"#utility.yul\":5701:5707   */\n      dup5\n        /* \"#utility.yul\":5663:5728   */\n      tag_238\n      jump\t// in\n    tag_282:\n        /* \"#utility.yul\":5525:5735   */\n      swap3\n      swap2\n      pop\n      pop\n      jump\t// out\n        /* \"#utility.yul\":5741:6160   */\n    tag_105:\n        /* \"#utility.yul\":5907:5911   */\n      0x00\n        /* \"#utility.yul\":5945:5947   */\n      0x20\n        /* \"#utility.yul\":5934:5943   */\n      dup3\n        /* \"#utility.yul\":5930:5948   */\n      add\n        /* \"#utility.yul\":5922:5948   */\n      swap1\n      pop\n        /* \"#utility.yul\":5994:6003   */\n      dup2\n        /* \"#utility.yul\":5988:5992   */\n      dup2\n        /* \"#utility.yul\":5984:6004   */\n      sub\n        /* \"#utility.yul\":5980:5981   */\n      0x00\n        /* \"#utility.yul\":5969:5978   */\n      dup4\n        /* \"#utility.yul\":5965:5982   */\n      add\n        /* \"#utility.yul\":5958:6005   */\n      mstore\n        /* \"#utility.yul\":6022:6153   */\n      tag_284\n        /* \"#utility.yul\":6148:6152   */\n      dup2\n        /* \"#utility.yul\":6022:6153   */\n      tag_242\n      jump\t// in\n    tag_284:\n        /* \"#utility.yul\":6014:6153   */\n      swap1\n      pop\n        /* \"#utility.yul\":5741:6160   */\n      swap2\n      swap1\n      pop\n      jump\t// out\n        /* \"#utility.yul\":6166:6585   */\n    tag_132:\n        /* \"#utility.yul\":6332:6336   */\n      0x00\n        /* \"#utility.yul\":6370:6372   */\n      0x20\n        /* \"#utility.yul\":6359:6368   */\n      dup3\n        /* \"#utility.yul\":6355:6373   */\n      add\n        /* \"#utility.yul\":6347:6373   */\n      swap1\n      pop\n        /* \"#utility.yul\":6419:6428   */\n      dup2\n        /* \"#utility.yul\":6413:6417   */\n      dup2\n        /* \"#utility.yul\":6409:6429   */\n      sub\n        /* \"#utility.yul\":6405:6406   */\n      0x00\n        /* \"#utility.yul\":6394:6403   */\n      dup4\n        /* \"#utility.yul\":6390:6407   */\n      add\n        /* \"#utility.yul\":6383:6430   */\n      mstore\n        /* \"#utility.yul\":6447:6578   */\n      tag_286\n        /* \"#utility.yul\":6573:6577   */\n      dup2\n        /* \"#utility.yul\":6447:6578   */\n      tag_254\n      jump\t// in\n    tag_286:\n        /* \"#utility.yul\":6439:6578   */\n      swap1\n      pop\n        /* \"#utility.yul\":6166:6585   */\n      swap2\n      swap1\n      pop\n      jump\t// out\n        /* \"#utility.yul\":6591:7010   */\n    tag_115:\n        /* \"#utility.yul\":6757:6761   */\n      0x00\n        /* \"#utility.yul\":6795:6797   */\n      0x20\n        /* \"#utility.yul\":6784:6793   */\n      dup3\n        /* \"#utility.yul\":6780:6798   */\n      add\n        /* \"#utility.yul\":6772:6798   */\n      swap1\n      pop\n        /* \"#utility.yul\":6844:6853   */\n      dup2\n        /* \"#utility.yul\":6838:6842   */\n      dup2\n        /* \"#utility.yul\":6834:6854   */\n      sub\n        /* \"#utility.yul\":6830:6831   */\n      0x00\n        /* \"#utility.yul\":6819:6828   */\n      dup4\n        /* \"#utility.yul\":6815:6832   */\n      add\n        /* \"#utility.yul\":6808:6855   */\n      mstore\n        /* \"#utility.yul\":6872:7003   */\n      tag_288\n        /* \"#utility.yul\":6998:7002   */\n      dup2\n        /* \"#utility.yul\":6872:7003   */\n      tag_259\n      jump\t// in\n    tag_288:\n        /* \"#utility.yul\":6864:7003   */\n      swap1\n      pop\n        /* \"#utility.yul\":6591:7010   */\n      swap2\n      swap1\n      pop\n      jump\t// out\n        /* \"#utility.yul\":7016:7435   */\n    tag_111:\n        /* \"#utility.yul\":7182:7186   */\n      0x00\n        /* \"#utility.yul\":7220:7222   */\n      0x20\n        /* \"#utility.yul\":7209:7218   */\n      dup3\n        /* \"#utility.yul\":7205:7223   */\n      add\n        /* \"#utility.yul\":7197:7223   */\n      swap1\n      pop\n        /* \"#utility.yul\":7269:7278   */\n      dup2\n        /* \"#utility.yul\":7263:7267   */\n      dup2\n        /* \"#utility.yul\":7259:7279   */\n      sub\n        /* \"#utility.yul\":7255:7256   */\n      0x00\n        /* \"#utility.yul\":7244:7253   */\n      dup4\n        /* \"#utility.yul\":7240:7257   */\n      add\n        /* \"#utility.yul\":7233:7280   */\n      mstore\n        /* \"#utility.yul\":7297:7428   */\n      tag_290\n        /* \"#utility.yul\":7423:7427   */\n      dup2\n        /* \"#utility.yul\":7297:7428   */\n      tag_264\n      jump\t// in\n    tag_290:\n        /* \"#utility.yul\":7289:7428   */\n      swap1\n      pop\n        /* \"#utility.yul\":7016:7435   */\n      swap2\n      swap1\n      pop\n      jump\t// out\n        /* \"#utility.yul\":7441:7663   */\n    tag_52:\n        /* \"#utility.yul\":7534:7538   */\n      0x00\n        /* \"#utility.yul\":7572:7574   */\n      0x20\n        /* \"#utility.yul\":7561:7570   */\n      dup3\n        /* \"#utility.yul\":7557:7575   */\n      add\n        /* \"#utility.yul\":7549:7575   */\n      swap1\n      pop\n        /* \"#utility.yul\":7585:7656   */\n      tag_292\n        /* \"#utility.yul\":7653:7654   */\n      0x00\n        /* \"#utility.yul\":7642:7651   */\n      dup4\n        /* \"#utility.yul\":7638:7655   */\n      add\n        /* \"#utility.yul\":7629:7635   */\n      dup5\n        /* \"#utility.yul\":7585:7656   */\n      tag_269\n      jump\t// in\n    tag_292:\n        /* \"#utility.yul\":7441:7663   */\n      swap3\n      swap2\n      pop\n      pop\n      jump\t// out\n        /* \"#utility.yul\":7669:8143   */\n    tag_35:\n        /* \"#utility.yul\":7834:7838   */\n      0x00\n        /* \"#utility.yul\":7872:7874   */\n      0x60\n        /* \"#utility.yul\":7861:7870   */\n      dup3\n        /* \"#utility.yul\":7857:7875   */\n      add\n        /* \"#utility.yul\":7849:7875   */\n      swap1\n      pop\n        /* \"#utility.yul\":7885:7956   */\n      tag_294\n        /* \"#utility.yul\":7953:7954   */\n      0x00\n        /* \"#utility.yul\":7942:7951   */\n      dup4\n        /* \"#utility.yul\":7938:7955   */\n      add\n        /* \"#utility.yul\":7929:7935   */\n      dup7\n        /* \"#utility.yul\":7885:7956   */\n      tag_269\n      jump\t// in\n    tag_294:\n        /* \"#utility.yul\":7966:8054   */\n      tag_295\n        /* \"#utility.yul\":8050:8052   */\n      0x20\n        /* \"#utility.yul\":8039:8048   */\n      dup4\n        /* \"#utility.yul\":8035:8053   */\n      add\n        /* \"#utility.yul\":8026:8032   */\n      dup6\n        /* \"#utility.yul\":7966:8054   */\n      tag_230\n      jump\t// in\n    tag_295:\n        /* \"#utility.yul\":8064:8136   */\n      tag_296\n        /* \"#utility.yul\":8132:8134   */\n      0x40\n        /* \"#utility.yul\":8121:8130   */\n      dup4\n        /* \"#utility.yul\":8117:8135   */\n      add\n        /* \"#utility.yul\":8108:8114   */\n      dup5\n        /* \"#utility.yul\":8064:8136   */\n      tag_269\n      jump\t// in\n    tag_296:\n        /* \"#utility.yul\":7669:8143   */\n      swap5\n      swap4\n      pop\n      pop\n      pop\n      pop\n      jump\t// out\n        /* \"#utility.yul\":8149:8579   */\n    tag_152:\n        /* \"#utility.yul\":8292:8296   */\n      0x00\n        /* \"#utility.yul\":8330:8332   */\n      0x60\n        /* \"#utility.yul\":8319:8328   */\n      dup3\n        /* \"#utility.yul\":8315:8333   */\n      add\n        /* \"#utility.yul\":8307:8333   */\n      swap1\n      pop\n        /* \"#utility.yul\":8343:8414   */\n      tag_298\n        /* \"#utility.yul\":8411:8412   */\n      0x00\n        /* \"#utility.yul\":8400:8409   */\n      dup4\n        /* \"#utility.yul\":8396:8413   */\n      add\n        /* \"#utility.yul\":8387:8393   */\n      dup7\n        /* \"#utility.yul\":8343:8414   */\n      tag_269\n      jump\t// in\n    tag_298:\n        /* \"#utility.yul\":8424:8496   */\n      tag_299\n        /* \"#utility.yul\":8492:8494   */\n      0x20\n        /* \"#utility.yul\":8481:8490   */\n      dup4\n        /* \"#utility.yul\":8477:8495   */\n      add\n        /* \"#utility.yul\":8468:8474   */\n      dup6\n        /* \"#utility.yul\":8424:8496   */\n      tag_234\n      jump\t// in\n    tag_299:\n        /* \"#utility.yul\":8506:8572   */\n      tag_300\n        /* \"#utility.yul\":8568:8570   */\n      0x40\n        /* \"#utility.yul\":8557:8566   */\n      dup4\n        /* \"#utility.yul\":8553:8571   */\n      add\n        /* \"#utility.yul\":8544:8550   */\n      dup5\n        /* \"#utility.yul\":8506:8572   */\n      tag_238\n      jump\t// in\n    tag_300:\n        /* \"#utility.yul\":8149:8579   */\n      swap5\n      swap4\n      pop\n      pop\n      pop\n      pop\n      jump\t// out\n        /* \"#utility.yul\":8585:9138   */\n    tag_161:\n        /* \"#utility.yul\":8762:8766   */\n      0x00\n        /* \"#utility.yul\":8800:8803   */\n      0x80\n        /* \"#utility.yul\":8789:8798   */\n      dup3\n        /* \"#utility.yul\":8785:8804   */\n      add\n        /* \"#utility.yul\":8777:8804   */\n      swap1\n      pop\n        /* \"#utility.yul\":8814:8885   */\n      tag_302\n        /* \"#utility.yul\":8882:8883   */\n      0x00\n        /* \"#utility.yul\":8871:8880   */\n      dup4\n        /* \"#utility.yul\":8867:8884   */\n      add\n        /* \"#utility.yul\":8858:8864   */\n      dup8\n        /* \"#utility.yul\":8814:8885   */\n      tag_269\n      jump\t// in\n    tag_302:\n        /* \"#utility.yul\":8895:8967   */\n      tag_303\n        /* \"#utility.yul\":8963:8965   */\n      0x20\n        /* \"#utility.yul\":8952:8961   */\n      dup4\n        /* \"#utility.yul\":8948:8966   */\n      add\n        /* \"#utility.yul\":8939:8945   */\n      dup7\n        /* \"#utility.yul\":8895:8967   */\n      tag_269\n      jump\t// in\n    tag_303:\n        /* \"#utility.yul\":8977:9049   */\n      tag_304\n        /* \"#utility.yul\":9045:9047   */\n      0x40\n        /* \"#utility.yul\":9034:9043   */\n      dup4\n        /* \"#utility.yul\":9030:9048   */\n      add\n        /* \"#utility.yul\":9021:9027   */\n      dup6\n        /* \"#utility.yul\":8977:9049   */\n      tag_269\n      jump\t// in\n    tag_304:\n        /* \"#utility.yul\":9059:9131   */\n      tag_305\n        /* \"#utility.yul\":9127:9129   */\n      0x60\n        /* \"#utility.yul\":9116:9125   */\n      dup4\n        /* \"#utility.yul\":9112:9130   */\n      add\n        /* \"#utility.yul\":9103:9109   */\n      dup5\n        /* \"#utility.yul\":9059:9131   */\n      tag_269\n      jump\t// in\n    tag_305:\n        /* \"#utility.yul\":8585:9138   */\n      swap6\n      swap5\n      pop\n      pop\n      pop\n      pop\n      pop\n      jump\t// out\n        /* \"#utility.yul\":9144:9358   */\n    tag_78:\n        /* \"#utility.yul\":9233:9237   */\n      0x00\n        /* \"#utility.yul\":9271:9273   */\n      0x20\n        /* \"#utility.yul\":9260:9269   */\n      dup3\n        /* \"#utility.yul\":9256:9274   */\n      add\n        /* \"#utility.yul\":9248:9274   */\n      swap1\n      pop\n        /* \"#utility.yul\":9284:9351   */\n      tag_307\n        /* \"#utility.yul\":9348:9349   */\n      0x00\n        /* \"#utility.yul\":9337:9346   */\n      dup4\n        /* \"#utility.yul\":9333:9350   */\n      add\n        /* \"#utility.yul\":9324:9330   */\n      dup5\n        /* \"#utility.yul\":9284:9351   */\n      tag_273\n      jump\t// in\n    tag_307:\n        /* \"#utility.yul\":9144:9358   */\n      swap3\n      swap2\n      pop\n      pop\n      jump\t// out\n        /* \"#utility.yul\":9445:9592   */\n    tag_251:\n        /* \"#utility.yul\":9546:9557   */\n      0x00\n        /* \"#utility.yul\":9583:9586   */\n      dup2\n        /* \"#utility.yul\":9568:9586   */\n      swap1\n      pop\n        /* \"#utility.yul\":9445:9592   */\n      swap3\n      swap2\n      pop\n      pop\n      jump\t// out\n        /* \"#utility.yul\":9598:9767   */\n    tag_245:\n        /* \"#utility.yul\":9682:9693   */\n      0x00\n        /* \"#utility.yul\":9716:9722   */\n      dup3\n        /* \"#utility.yul\":9711:9714   */\n      dup3\n        /* \"#utility.yul\":9704:9723   */\n      mstore\n        /* \"#utility.yul\":9756:9760   */\n      0x20\n        /* \"#utility.yul\":9751:9754   */\n      dup3\n        /* \"#utility.yul\":9747:9761   */\n      add\n        /* \"#utility.yul\":9732:9761   */\n      swap1\n      pop\n        /* \"#utility.yul\":9598:9767   */\n      swap3\n      swap2\n      pop\n      pop\n      jump\t// out\n        /* \"#utility.yul\":9773:10078   */\n    tag_117:\n        /* \"#utility.yul\":9813:9816   */\n      0x00\n        /* \"#utility.yul\":9832:9852   */\n      tag_313\n        /* \"#utility.yul\":9850:9851   */\n      dup3\n        /* \"#utility.yul\":9832:9852   */\n      tag_272\n      jump\t// in\n    tag_313:\n        /* \"#utility.yul\":9827:9852   */\n      swap2\n      pop\n        /* \"#utility.yul\":9866:9886   */\n      tag_314\n        /* \"#utility.yul\":9884:9885   */\n      dup4\n        /* \"#utility.yul\":9866:9886   */\n      tag_272\n      jump\t// in\n    tag_314:\n        /* \"#utility.yul\":9861:9886   */\n      swap3\n      pop\n        /* \"#utility.yul\":10020:10021   */\n      dup3\n        /* \"#utility.yul\":9952:10018   */\n      0xffffffffffffffffffffffffffffffffffffffffffffffffffffffffffffffff\n        /* \"#utility.yul\":9948:10022   */\n      sub\n        /* \"#utility.yul\":9945:9946   */\n      dup3\n        /* \"#utility.yul\":9942:10023   */\n      gt\n        /* \"#utility.yul\":9939:10046   */\n      iszero\n      tag_315\n      jumpi\n        /* \"#utility.yul\":10026:10044   */\n      tag_316\n      tag_317\n      jump\t// in\n    tag_316:\n        /* \"#utility.yul\":9939:10046   */\n    tag_315:\n        /* \"#utility.yul\":10070:10071   */\n      dup3\n        /* \"#utility.yul\":10067:10068   */\n      dup3\n        /* \"#utility.yul\":10063:10072   */\n      add\n        /* \"#utility.yul\":10056:10072   */\n      swap1\n      pop\n        /* \"#utility.yul\":9773:10078   */\n      swap3\n      swap2\n      pop\n      pop\n      jump\t// out\n        /* \"#utility.yul\":10084:10321   */\n    tag_99:\n        /* \"#utility.yul\":10122:10125   */\n      0x00\n        /* \"#utility.yul\":10141:10159   */\n      tag_319\n        /* \"#utility.yul\":10157:10158   */\n      dup3\n        /* \"#utility.yul\":10141:10159   */\n      tag_276\n      jump\t// in\n    tag_319:\n        /* \"#utility.yul\":10136:10159   */\n      swap2\n      pop\n        /* \"#utility.yul\":10173:10191   */\n      tag_320\n        /* \"#utility.yul\":10189:10190   */\n      dup4\n        /* \"#utility.yul\":10173:10191   */\n      tag_276\n      jump\t// in\n    tag_320:\n        /* \"#utility.yul\":10168:10191   */\n      swap3\n      pop\n        /* \"#utility.yul\":10263:10264   */\n      dup3\n        /* \"#utility.yul\":10257:10261   */\n      0xff\n        /* \"#utility.yul\":10253:10265   */\n      sub\n        /* \"#utility.yul\":10250:10251   */\n      dup3\n        /* \"#utility.yul\":10247:10266   */\n      gt\n        /* \"#utility.yul\":10244:10289   */\n      iszero\n      tag_321\n      jumpi\n        /* \"#utility.yul\":10269:10287   */\n      tag_322\n      tag_317\n      jump\t// in\n    tag_322:\n        /* \"#utility.yul\":10244:10289   */\n    tag_321:\n        /* \"#utility.yul\":10313:10314   */\n      dup3\n        /* \"#utility.yul\":10310:10311   */\n      dup3\n        /* \"#utility.yul\":10306:10315   */\n      add\n        /* \"#utility.yul\":10299:10315   */\n      swap1\n      pop\n        /* \"#utility.yul\":10084:10321   */\n      swap3\n      swap2\n      pop\n      pop\n      jump\t// out\n        /* \"#utility.yul\":10327:10512   */\n    tag_144:\n        /* \"#utility.yul\":10367:10368   */\n      0x00\n        /* \"#utility.yul\":10384:10404   */\n      tag_324\n        /* \"#utility.yul\":10402:10403   */\n      dup3\n        /* \"#utility.yul\":10384:10404   */\n      tag_272\n      jump\t// in\n    tag_324:\n        /* \"#utility.yul\":10379:10404   */\n      swap2\n      pop\n        /* \"#utility.yul\":10418:10438   */\n      tag_325\n        /* \"#utility.yul\":10436:10437   */\n      dup4\n        /* \"#utility.yul\":10418:10438   */\n      tag_272\n      jump\t// in\n    tag_325:\n        /* \"#utility.yul\":10413:10438   */\n      swap3\n      pop\n        /* \"#utility.yul\":10457:10458   */\n      dup3\n        /* \"#utility.yul\":10447:10482   */\n      tag_326\n      jumpi\n        /* \"#utility.yul\":10462:10480   */\n      tag_327\n      tag_328\n      jump\t// in\n    tag_327:\n        /* \"#utility.yul\":10447:10482   */\n    tag_326:\n        /* \"#utility.yul\":10504:10505   */\n      dup3\n        /* \"#utility.yul\":10501:10502   */\n      dup3\n        /* \"#utility.yul\":10497:10506   */\n      div\n        /* \"#utility.yul\":10492:10506   */\n      swap1\n      pop\n        /* \"#utility.yul\":10327:10512   */\n      swap3\n      swap2\n      pop\n      pop\n      jump\t// out\n        /* \"#utility.yul\":10518:10866   */\n    tag_142:\n        /* \"#utility.yul\":10558:10565   */\n      0x00\n        /* \"#utility.yul\":10581:10601   */\n      tag_330\n        /* \"#utility.yul\":10599:10600   */\n      dup3\n        /* \"#utility.yul\":10581:10601   */\n      tag_272\n      jump\t// in\n    tag_330:\n        /* \"#utility.yul\":10576:10601   */\n      swap2\n      pop\n        /* \"#utility.yul\":10615:10635   */\n      tag_331\n        /* \"#utility.yul\":10633:10634   */\n      dup4\n        /* \"#utility.yul\":10615:10635   */\n      tag_272\n      jump\t// in\n    tag_331:\n        /* \"#utility.yul\":10610:10635   */\n      swap3\n      pop\n        /* \"#utility.yul\":10803:10804   */\n      dup2\n        /* \"#utility.yul\":10735:10801   */\n      0xffffffffffffffffffffffffffffffffffffffffffffffffffffffffffffffff\n        /* \"#utility.yul\":10731:10805   */\n      div\n        /* \"#utility.yul\":10728:10729   */\n      dup4\n        /* \"#utility.yul\":10725:10806   */\n      gt\n        /* \"#utility.yul\":10720:10721   */\n      dup3\n        /* \"#utility.yul\":10713:10722   */\n      iszero\n        /* \"#utility.yul\":10706:10723   */\n      iszero\n        /* \"#utility.yul\":10702:10807   */\n      and\n        /* \"#utility.yul\":10699:10830   */\n      iszero\n      tag_332\n      jumpi\n        /* \"#utility.yul\":10810:10828   */\n      tag_333\n      tag_317\n      jump\t// in\n    tag_333:\n        /* \"#utility.yul\":10699:10830   */\n    tag_332:\n        /* \"#utility.yul\":10858:10859   */\n      dup3\n        /* \"#utility.yul\":10855:10856   */\n      dup3\n        /* \"#utility.yul\":10851:10860   */\n      mul\n        /* \"#utility.yul\":10840:10860   */\n      swap1\n      pop\n        /* \"#utility.yul\":10518:10866   */\n      swap3\n      swap2\n      pop\n      pop\n      jump\t// out\n        /* \"#utility.yul\":10872:10968   */\n    tag_237:\n        /* \"#utility.yul\":10909:10916   */\n      0x00\n        /* \"#utility.yul\":10938:10962   */\n      tag_335\n        /* \"#utility.yul\":10956:10961   */\n      dup3\n        /* \"#utility.yul\":10938:10962   */\n      tag_336\n      jump\t// in\n    tag_335:\n        /* \"#utility.yul\":10927:10962   */\n      swap1\n      pop\n        /* \"#utility.yul\":10872:10968   */\n      swap2\n      swap1\n      pop\n      jump\t// out\n        /* \"#utility.yul\":10974:11078   */\n    tag_233:\n        /* \"#utility.yul\":11019:11026   */\n      0x00\n        /* \"#utility.yul\":11048:11072   */\n      tag_338\n        /* \"#utility.yul\":11066:11071   */\n      dup3\n        /* \"#utility.yul\":11048:11072   */\n      tag_336\n      jump\t// in\n    tag_338:\n        /* \"#utility.yul\":11037:11072   */\n      swap1\n      pop\n        /* \"#utility.yul\":10974:11078   */\n      swap2\n      swap1\n      pop\n      jump\t// out\n        /* \"#utility.yul\":11084:11174   */\n    tag_241:\n        /* \"#utility.yul\":11118:11125   */\n      0x00\n        /* \"#utility.yul\":11161:11166   */\n      dup2\n        /* \"#utility.yul\":11154:11167   */\n      iszero\n        /* \"#utility.yul\":11147:11168   */\n      iszero\n        /* \"#utility.yul\":11136:11168   */\n      swap1\n      pop\n        /* \"#utility.yul\":11084:11174   */\n      swap2\n      swap1\n      pop\n      jump\t// out\n        /* \"#utility.yul\":11180:11306   */\n    tag_336:\n        /* \"#utility.yul\":11217:11224   */\n      0x00\n        /* \"#utility.yul\":11257:11299   */\n      0xffffffffffffffffffffffffffffffffffffffff\n        /* \"#utility.yul\":11250:11255   */\n      dup3\n        /* \"#utility.yul\":11246:11300   */\n      and\n        /* \"#utility.yul\":11235:11300   */\n      swap1\n      pop\n        /* \"#utility.yul\":11180:11306   */\n      swap2\n      swap1\n      pop\n      jump\t// out\n        /* \"#utility.yul\":11312:11389   */\n    tag_272:\n        /* \"#utility.yul\":11349:11356   */\n      0x00\n        /* \"#utility.yul\":11378:11383   */\n      dup2\n        /* \"#utility.yul\":11367:11383   */\n      swap1\n      pop\n        /* \"#utility.yul\":11312:11389   */\n      swap2\n      swap1\n      pop\n      jump\t// out\n        /* \"#utility.yul\":11395:11481   */\n    tag_276:\n        /* \"#utility.yul\":11430:11437   */\n      0x00\n        /* \"#utility.yul\":11470:11474   */\n      0xff\n        /* \"#utility.yul\":11463:11468   */\n      dup3\n        /* \"#utility.yul\":11459:11475   */\n      and\n        /* \"#utility.yul\":11448:11475   */\n      swap1\n      pop\n        /* \"#utility.yul\":11395:11481   */\n      swap2\n      swap1\n      pop\n      jump\t// out\n        /* \"#utility.yul\":11487:11654   */\n    tag_102:\n        /* \"#utility.yul\":11524:11527   */\n      0x00\n        /* \"#utility.yul\":11547:11569   */\n      tag_344\n        /* \"#utility.yul\":11563:11568   */\n      dup3\n        /* \"#utility.yul\":11547:11569   */\n      tag_276\n      jump\t// in\n    tag_344:\n        /* \"#utility.yul\":11538:11569   */\n      swap2\n      pop\n        /* \"#utility.yul\":11591:11595   */\n      0xff\n        /* \"#utility.yul\":11584:11589   */\n      dup3\n        /* \"#utility.yul\":11581:11596   */\n      eq\n        /* \"#utility.yul\":11578:11619   */\n      iszero\n      tag_345\n      jumpi\n        /* \"#utility.yul\":11599:11617   */\n      tag_346\n      tag_317\n      jump\t// in\n    tag_346:\n        /* \"#utility.yul\":11578:11619   */\n    tag_345:\n        /* \"#utility.yul\":11646:11647   */\n      0x01\n        /* \"#utility.yul\":11639:11644   */\n      dup3\n        /* \"#utility.yul\":11635:11648   */\n      add\n        /* \"#utility.yul\":11628:11648   */\n      swap1\n      pop\n        /* \"#utility.yul\":11487:11654   */\n      swap2\n      swap1\n      pop\n      jump\t// out\n        /* \"#utility.yul\":11660:11836   */\n    tag_190:\n        /* \"#utility.yul\":11692:11693   */\n      0x00\n        /* \"#utility.yul\":11709:11729   */\n      tag_348\n        /* \"#utility.yul\":11727:11728   */\n      dup3\n        /* \"#utility.yul\":11709:11729   */\n      tag_272\n      jump\t// in\n    tag_348:\n        /* \"#utility.yul\":11704:11729   */\n      swap2\n      pop\n        /* \"#utility.yul\":11743:11763   */\n      tag_349\n        /* \"#utility.yul\":11761:11762   */\n      dup4\n        /* \"#utility.yul\":11743:11763   */\n      tag_272\n      jump\t// in\n    tag_349:\n        /* \"#utility.yul\":11738:11763   */\n      swap3\n      pop\n        /* \"#utility.yul\":11782:11783   */\n      dup3\n        /* \"#utility.yul\":11772:11807   */\n      tag_350\n      jumpi\n        /* \"#utility.yul\":11787:11805   */\n      tag_351\n      tag_328\n      jump\t// in\n    tag_351:\n        /* \"#utility.yul\":11772:11807   */\n    tag_350:\n        /* \"#utility.yul\":11828:11829   */\n      dup3\n        /* \"#utility.yul\":11825:11826   */\n      dup3\n        /* \"#utility.yul\":11821:11830   */\n      mod\n        /* \"#utility.yul\":11816:11830   */\n      swap1\n      pop\n        /* \"#utility.yul\":11660:11836   */\n      swap3\n      swap2\n      pop\n      pop\n      jump\t// out\n        /* \"#utility.yul\":11842:12022   */\n    tag_317:\n        /* \"#utility.yul\":11890:11967   */\n      0x4e487b7100000000000000000000000000000000000000000000000000000000\n        /* \"#utility.yul\":11887:11888   */\n      0x00\n        /* \"#utility.yul\":11880:11968   */\n      mstore\n        /* \"#utility.yul\":11987:11991   */\n      0x11\n        /* \"#utility.yul\":11984:11985   */\n      0x04\n        /* \"#utility.yul\":11977:11992   */\n      mstore\n        /* \"#utility.yul\":12011:12015   */\n      0x24\n        /* \"#utility.yul\":12008:12009   */\n      0x00\n        /* \"#utility.yul\":12001:12016   */\n      revert\n        /* \"#utility.yul\":12028:12208   */\n    tag_328:\n        /* \"#utility.yul\":12076:12153   */\n      0x4e487b7100000000000000000000000000000000000000000000000000000000\n        /* \"#utility.yul\":12073:12074   */\n      0x00\n        /* \"#utility.yul\":12066:12154   */\n      mstore\n        /* \"#utility.yul\":12173:12177   */\n      0x12\n        /* \"#utility.yul\":12170:12171   */\n      0x04\n        /* \"#utility.yul\":12163:12178   */\n      mstore\n        /* \"#utility.yul\":12197:12201   */\n      0x24\n        /* \"#utility.yul\":12194:12195   */\n      0x00\n        /* \"#utility.yul\":12187:12202   */\n      revert\n        /* \"#utility.yul\":12337:12454   */\n    tag_210:\n        /* \"#utility.yul\":12446:12447   */\n      0x00\n        /* \"#utility.yul\":12443:12444   */\n      dup1\n        /* \"#utility.yul\":12436:12448   */\n      revert\n        /* \"#utility.yul\":12460:12624   */\n    tag_247:\n        /* \"#utility.yul\":12600:12616   */\n      0x47616d65206e6f7420666f756e64000000000000000000000000000000000000\n        /* \"#utility.yul\":12596:12597   */\n      0x00\n        /* \"#utility.yul\":12588:12594   */\n      dup3\n        /* \"#utility.yul\":12584:12598   */\n      add\n        /* \"#utility.yul\":12577:12617   */\n      mstore\n        /* \"#utility.yul\":12460:12624   */\n      pop\n      jump\t// out\n        /* \"#utility.yul\":12630:12744   */\n    tag_253:\n      pop\n      jump\t// out\n        /* \"#utility.yul\":12750:12972   */\n    tag_258:\n        /* \"#utility.yul\":12890:12924   */\n      0x496e73756666696369656e7420616d6f756e74206f6620636f6e747269627574\n        /* \"#utility.yul\":12886:12887   */\n      0x00\n        /* \"#utility.yul\":12878:12884   */\n      dup3\n        /* \"#utility.yul\":12874:12888   */\n      add\n        /* \"#utility.yul\":12867:12925   */\n      mstore\n        /* \"#utility.yul\":12959:12964   */\n      0x696f6e0000000000000000000000000000000000000000000000000000000000\n        /* \"#utility.yul\":12954:12956   */\n      0x20\n        /* \"#utility.yul\":12946:12952   */\n      dup3\n        /* \"#utility.yul\":12942:12957   */\n      add\n        /* \"#utility.yul\":12935:12965   */\n      mstore\n        /* \"#utility.yul\":12750:12972   */\n      pop\n      jump\t// out\n        /* \"#utility.yul\":12978:13205   */\n    tag_263:\n        /* \"#utility.yul\":13118:13152   */\n      0x466f72207265676974657220696e2067616d6520796f75206e65656420706179\n        /* \"#utility.yul\":13114:13115   */\n      0x00\n        /* \"#utility.yul\":13106:13112   */\n      dup3\n        /* \"#utility.yul\":13102:13116   */\n      add\n        /* \"#utility.yul\":13095:13153   */\n      mstore\n        /* \"#utility.yul\":13187:13197   */\n      0x2031206574686572000000000000000000000000000000000000000000000000\n        /* \"#utility.yul\":13182:13184   */\n      0x20\n        /* \"#utility.yul\":13174:13180   */\n      dup3\n        /* \"#utility.yul\":13170:13185   */\n      add\n        /* \"#utility.yul\":13163:13198   */\n      mstore\n        /* \"#utility.yul\":12978:13205   */\n      pop\n      jump\t// out\n        /* \"#utility.yul\":13211:13373   */\n    tag_268:\n        /* \"#utility.yul\":13351:13365   */\n      0x4e6f20636f6e7472616374730000000000000000000000000000000000000000\n        /* \"#utility.yul\":13347:13348   */\n      0x00\n        /* \"#utility.yul\":13339:13345   */\n      dup3\n        /* \"#utility.yul\":13335:13349   */\n      add\n        /* \"#utility.yul\":13328:13366   */\n      mstore\n        /* \"#utility.yul\":13211:13373   */\n      pop\n      jump\t// out\n        /* \"#utility.yul\":13379:13501   */\n    tag_198:\n        /* \"#utility.yul\":13452:13476   */\n      tag_363\n        /* \"#utility.yul\":13470:13475   */\n      dup2\n        /* \"#utility.yul\":13452:13476   */\n      tag_237\n      jump\t// in\n    tag_363:\n        /* \"#utility.yul\":13445:13450   */\n      dup2\n        /* \"#utility.yul\":13442:13477   */\n      eq\n        /* \"#utility.yul\":13432:13495   */\n      tag_364\n      jumpi\n        /* \"#utility.yul\":13491:13492   */\n      0x00\n        /* \"#utility.yul\":13488:13489   */\n      dup1\n        /* \"#utility.yul\":13481:13493   */\n      revert\n        /* \"#utility.yul\":13432:13495   */\n    tag_364:\n        /* \"#utility.yul\":13379:13501   */\n      pop\n      jump\t// out\n        /* \"#utility.yul\":13507:13629   */\n    tag_202:\n        /* \"#utility.yul\":13580:13604   */\n      tag_366\n        /* \"#utility.yul\":13598:13603   */\n      dup2\n        /* \"#utility.yul\":13580:13604   */\n      tag_272\n      jump\t// in\n    tag_366:\n        /* \"#utility.yul\":13573:13578   */\n      dup2\n        /* \"#utility.yul\":13570:13605   */\n      eq\n        /* \"#utility.yul\":13560:13623   */\n      tag_367\n      jumpi\n        /* \"#utility.yul\":13619:13620   */\n      0x00\n        /* \"#utility.yul\":13616:13617   */\n      dup1\n        /* \"#utility.yul\":13609:13621   */\n      revert\n        /* \"#utility.yul\":13560:13623   */\n    tag_367:\n        /* \"#utility.yul\":13507:13629   */\n      pop\n      jump\t// out\n        /* \"#utility.yul\":13635:13753   */\n    tag_206:\n        /* \"#utility.yul\":13706:13728   */\n      tag_369\n        /* \"#utility.yul\":13722:13727   */\n      dup2\n        /* \"#utility.yul\":13706:13728   */\n      tag_276\n      jump\t// in\n    tag_369:\n        /* \"#utility.yul\":13699:13704   */\n      dup2\n        /* \"#utility.yul\":13696:13729   */\n      eq\n        /* \"#utility.yul\":13686:13747   */\n      tag_370\n      jumpi\n        /* \"#utility.yul\":13743:13744   */\n      0x00\n        /* \"#utility.yul\":13740:13741   */\n      dup1\n        /* \"#utility.yul\":13733:13745   */\n      revert\n        /* \"#utility.yul\":13686:13747   */\n    tag_370:\n        /* \"#utility.yul\":13635:13753   */\n      pop\n      jump\t// out\n\n    auxdata: 0xa2646970667358221220f5d3873b6604eae5e0d35722dfed08d54bbbdad1b8ae88de89062eb984380c1464736f6c63430008070033\n}\n",
				"bytecode": {
					"linkReferences": {},
					"object": "60806040523480156200001157600080fd5b50336001806101000a81548173ffffffffffffffffffffffffffffffffffffffff021916908373ffffffffffffffffffffffffffffffffffffffff16021790555060018054906101000a900473ffffffffffffffffffffffffffffffffffffffff166003600080815260200190815260200160002060006101000a81548173ffffffffffffffffffffffffffffffffffffffff021916908373ffffffffffffffffffffffffffffffffffffffff16021790555060405180606001604052806000815260200160018054906101000a900473ffffffffffffffffffffffffffffffffffffffff1673ffffffffffffffffffffffffffffffffffffffff16815260200160008152506004600060018054906101000a900473ffffffffffffffffffffffffffffffffffffffff1673ffffffffffffffffffffffffffffffffffffffff1673ffffffffffffffffffffffffffffffffffffffff1681526020019081526020016000206000820151816000015560208201518160010160006101000a81548173ffffffffffffffffffffffffffffffffffffffff021916908373ffffffffffffffffffffffffffffffffffffffff160217905550604082015181600201559050506001600081905550620001f5670de0b6b3a7640000620001fb60201b60201c565b6200037f565b6200020c33620002ef60201b60201c565b6200021657600080fd5b60405180602001604052808281525060026000600160009054906101000a900460ff1660ff1660ff16815260200190815260200160002060008201518160000155905050600160056000600160009054906101000a900460ff1660ff1660ff168152602001908152602001600020819055507fa0b7f6f22bb4f69adc52dd16ffe2a964ab8b577be274247fa9a1547b03ce3e5560026000600160009054906101000a900460ff1660ff1660ff16815260200190815260200160002060000154604051620002e4919062000358565b60405180910390a150565b600060018054906101000a900473ffffffffffffffffffffffffffffffffffffffff1673ffffffffffffffffffffffffffffffffffffffff168273ffffffffffffffffffffffffffffffffffffffff16149050919050565b620003528162000375565b82525050565b60006020820190506200036f600083018462000347565b92915050565b6000819050919050565b611f99806200038f6000396000f3fe6080604052600436106100c65760003560e01c8063906cbf571161007f578063ad39f0a311610059578063ad39f0a3146102ca578063ae9283b5146102f5578063bd233b911461031e578063f10600061461035b576100d7565b8063906cbf571461021357806395a078e8146102505780639b0b0ae31461028d576100d7565b80630173c05b146100e35780630e50cee5146100ff5780632a648c891461013e5780632e8aab9b1461017b578063477348921461019757806378a32e21146101d4576100d7565b366100d7576100d53334610398565b005b6100e13334610398565b005b6100fd60048036038101906100f8919061188a565b61045b565b005b34801561010b57600080fd5b506101266004803603810190610121919061181d565b61063a565b60405161013593929190611b04565b60405180910390f35b34801561014a57600080fd5b506101656004803603810190610160919061184a565b610684565b6040516101729190611a4e565b60405180910390f35b610195600480360381019061019091906118b7565b6106b3565b005b3480156101a357600080fd5b506101be60048036038101906101b9919061181d565b61075d565b6040516101cb9190611ae9565b60405180910390f35b3480156101e057600080fd5b506101fb60048036038101906101f691906118e4565b61077e565b60405161020a93929190611b04565b60405180910390f35b34801561021f57600080fd5b5061023a600480360381019061023591906118b7565b6107d5565b6040516102479190611ae9565b60405180910390f35b34801561025c57600080fd5b506102776004803603810190610272919061181d565b6107f3565b6040516102849190611a4e565b60405180910390f35b34801561029957600080fd5b506102b460048036038101906102af91906118b7565b61084b565b6040516102c19190611ae9565b60405180910390f35b3480156102d657600080fd5b506102df610863565b6040516102ec9190611bb7565b60405180910390f35b34801561030157600080fd5b5061031c6004803603810190610317919061188a565b610876565b005b34801561032a57600080fd5b506103456004803603810190610340919061188a565b61095f565b6040516103529190611a33565b60405180910390f35b34801561036757600080fd5b50610382600480360381019061037d919061184a565b610992565b60405161038f9190611ae9565b60405180910390f35b60008060005b60018060009054906101000a900460ff166103b99190611c44565b60ff168160ff1610156104095734600260008360ff1660ff1681526020019081526020016000206000015414156103f65760019250809150610409565b808061040190611d6d565b91505061039e565b508161044a576040517f08c379a000000000000000000000000000000000000000000000000000000000815260040161044190611a69565b60405180910390fd5b6104558185856109b7565b50505050565b600080339050803b915060008263ffffffff1611156104af576040517f08c379a00000000000000000000000000000000000000000000000000000000081526004016104a690611ac9565b60405180910390fd5b670de0b6b3a764000034146104f9576040517f08c379a00000000000000000000000000000000000000000000000000000000081526004016104f090611aa9565b60405180910390fd5b604051806060016040528060005481526020013373ffffffffffffffffffffffffffffffffffffffff16815260200184815250600460003373ffffffffffffffffffffffffffffffffffffffff1673ffffffffffffffffffffffffffffffffffffffff1681526020019081526020016000206000820151816000015560208201518160010160006101000a81548173ffffffffffffffffffffffffffffffffffffffff021916908373ffffffffffffffffffffffffffffffffffffffff1602179055506040820151816002015590505033600360008054815260200190815260200160002060006101000a81548173ffffffffffffffffffffffffffffffffffffffff021916908373ffffffffffffffffffffffffffffffffffffffff160217905550600160008082825461062e9190611bee565b92505081905550505050565b60046020528060005260406000206000915090508060000154908060010160009054906101000a900473ffffffffffffffffffffffffffffffffffffffff16908060020154905083565b60086020528160005260406000206020528060005260406000206000915091509054906101000a900460ff1681565b600073ffffffffffffffffffffffffffffffffffffffff16600460003373ffffffffffffffffffffffffffffffffffffffff1673ffffffffffffffffffffffffffffffffffffffff16815260200190815260200160002060010160009054906101000a900473ffffffffffffffffffffffffffffffffffffffff1673ffffffffffffffffffffffffffffffffffffffff16141561074f57600080fd5b61075a8133346109b7565b50565b60008173ffffffffffffffffffffffffffffffffffffffff16319050919050565b6006602052816000526040600020602052806000526040600020600091509150508060000154908060010160009054906101000a900473ffffffffffffffffffffffffffffffffffffffff16908060020154905083565b60026020528060005260406000206000915090508060000154905081565b600060018054906101000a900473ffffffffffffffffffffffffffffffffffffffff1673ffffffffffffffffffffffffffffffffffffffff168273ffffffffffffffffffffffffffffffffffffffff16149050919050565b60056020528060005260406000206000915090505481565b600160009054906101000a900460ff1681565b61087f336107f3565b61088857600080fd5b60405180602001604052808281525060026000600160009054906101000a900460ff1660ff1660ff16815260200190815260200160002060008201518160000155905050600160056000600160009054906101000a900460ff1660ff1660ff168152602001908152602001600020819055507fa0b7f6f22bb4f69adc52dd16ffe2a964ab8b577be274247fa9a1547b03ce3e5560026000600160009054906101000a900460ff1660ff1660ff168152602001908152602001600020600001546040516109549190611ae9565b60405180910390a150565b60036020528060005260406000206000915054906101000a900473ffffffffffffffffffffffffffffffffffffffff1681565b6007602052816000526040600020602052806000526040600020600091509150505481565b600260008460ff1660ff16815260200190815260200160002060000154811015610a16576040517f08c379a0000000000000000000000000000000000000000000000000000000008152600401610a0d90611a89565b60405180910390fd5b600460008373ffffffffffffffffffffffffffffffffffffffff1673ffffffffffffffffffffffffffffffffffffffff168152602001908152602001600020600660008560ff1660ff1681526020019081526020016000206000600560008760ff1660ff168152602001908152602001600020548152602001908152602001600020600082015481600001556001820160009054906101000a900473ffffffffffffffffffffffffffffffffffffffff168160010160006101000a81548173ffffffffffffffffffffffffffffffffffffffff021916908373ffffffffffffffffffffffffffffffffffffffff160217905550600282015481600201559050506001600860008473ffffffffffffffffffffffffffffffffffffffff1673ffffffffffffffffffffffffffffffffffffffff16815260200190815260200160002060008560ff1660ff16815260200190815260200160002060006101000a81548160ff0219169083151502179055506003600560008560ff1660ff1681526020019081526020016000205410611777576000610bca600560008660ff1660ff168152602001908152602001600020546117ad565b90505b60008114611775576000600660008660ff1660ff168152602001908152602001600020600083815260200190815260200160002060010160009054906101000a900473ffffffffffffffffffffffffffffffffffffffff1690506001600760008373ffffffffffffffffffffffffffffffffffffffff1673ffffffffffffffffffffffffffffffffffffffff16815260200190815260200160002060008760ff1660ff16815260200190815260200160002054111580610cf95750600860008273ffffffffffffffffffffffffffffffffffffffff1673ffffffffffffffffffffffffffffffffffffffff1681526020019081526020016000206000600187610cd69190611c44565b60ff1660ff16815260200190815260200160002060009054906101000a900460ff165b1561176f5760008173ffffffffffffffffffffffffffffffffffffffff166064604a600260008a60ff1660ff16815260200190815260200160002060000154610d429190611cac565b610d4c9190611c7b565b604051610d5890611a1e565b60006040518083038185875af1925050503d8060008114610d95576040519150601f19603f3d011682016040523d82523d6000602084013e610d9a565b606091505b505090506001600760008473ffffffffffffffffffffffffffffffffffffffff1673ffffffffffffffffffffffffffffffffffffffff16815260200190815260200160002060008860ff1660ff1681526020019081526020016000206000828254610e059190611bee565b925050819055507f99af5599bf20c9414934ff2eb4264f5ac1a42fe0e5ec331366cf59ed0641c1bd600260008860ff1660ff168152602001908152602001600020600001548383604051610e5b93929190611b3b565b60405180910390a16000600660008860ff1660ff16815260200190815260200160002060008581526020019081526020016000206000015490506000600660008960ff1660ff168152602001908152602001600020600086815260200190815260200160002060020154905060006064600a600260008c60ff1660ff16815260200190815260200160002060000154610ef49190611cac565b610efe9190611c7b565b90506003600083815260200190815260200160002060009054906101000a900473ffffffffffffffffffffffffffffffffffffffff1673ffffffffffffffffffffffffffffffffffffffff1681604051610f5790611a1e565b60006040518083038185875af1925050503d8060008114610f94576040519150601f19603f3d011682016040523d82523d6000602084013e610f99565b606091505b5050809450508315610fff577f394d81fc6d726f376ac7e03cfb1bf07f04a993ec0a3fe7f4782e2ef8e5416145600260008b60ff1660ff16815260200190815260200160002060000154848484604051610ff69493929190611b72565b60405180910390a15b60646006600260008c60ff1660ff1681526020019081526020016000206000015461102a9190611cac565b6110349190611c7b565b9050600460006003600085815260200190815260200160002060009054906101000a900473ffffffffffffffffffffffffffffffffffffffff1673ffffffffffffffffffffffffffffffffffffffff1673ffffffffffffffffffffffffffffffffffffffff16815260200190815260200160002060010160009054906101000a900473ffffffffffffffffffffffffffffffffffffffff1673ffffffffffffffffffffffffffffffffffffffff16816040516110ef90611a1e565b60006040518083038185875af1925050503d806000811461112c576040519150601f19603f3d011682016040523d82523d6000602084013e611131565b606091505b505080945050831561120c577f394d81fc6d726f376ac7e03cfb1bf07f04a993ec0a3fe7f4782e2ef8e5416145600260008b60ff1660ff1681526020019081526020016000206000015483600460006003600088815260200190815260200160002060009054906101000a900473ffffffffffffffffffffffffffffffffffffffff1673ffffffffffffffffffffffffffffffffffffffff1673ffffffffffffffffffffffffffffffffffffffff16815260200190815260200160002060000154846040516112039493929190611b72565b60405180910390a15b60646004600260008c60ff1660ff168152602001908152602001600020600001546112379190611cac565b6112419190611c7b565b90506004600060036000600460006003600089815260200190815260200160002060009054906101000a900473ffffffffffffffffffffffffffffffffffffffff1673ffffffffffffffffffffffffffffffffffffffff1673ffffffffffffffffffffffffffffffffffffffff16815260200190815260200160002060000154815260200190815260200160002060009054906101000a900473ffffffffffffffffffffffffffffffffffffffff1673ffffffffffffffffffffffffffffffffffffffff1673ffffffffffffffffffffffffffffffffffffffff16815260200190815260200160002060010160009054906101000a900473ffffffffffffffffffffffffffffffffffffffff1673ffffffffffffffffffffffffffffffffffffffff168160405161137190611a1e565b60006040518083038185875af1925050503d80600081146113ae576040519150601f19603f3d011682016040523d82523d6000602084013e6113b3565b606091505b5050809450508315611578577f394d81fc6d726f376ac7e03cfb1bf07f04a993ec0a3fe7f4782e2ef8e5416145600260008b60ff1660ff16815260200190815260200160002060000154600460006003600087815260200190815260200160002060009054906101000a900473ffffffffffffffffffffffffffffffffffffffff1673ffffffffffffffffffffffffffffffffffffffff1673ffffffffffffffffffffffffffffffffffffffff16815260200190815260200160002060000154600460006003600060046000600360008c815260200190815260200160002060009054906101000a900473ffffffffffffffffffffffffffffffffffffffff1673ffffffffffffffffffffffffffffffffffffffff1673ffffffffffffffffffffffffffffffffffffffff16815260200190815260200160002060000154815260200190815260200160002060009054906101000a900473ffffffffffffffffffffffffffffffffffffffff1673ffffffffffffffffffffffffffffffffffffffff1673ffffffffffffffffffffffffffffffffffffffff168152602001908152602001600020600001548460405161156f9493929190611b72565b60405180910390a15b60646006600260008c60ff1660ff168152602001908152602001600020600001546115a39190611cac565b6115ad9190611c7b565b90506004600060018054906101000a900473ffffffffffffffffffffffffffffffffffffffff1673ffffffffffffffffffffffffffffffffffffffff1673ffffffffffffffffffffffffffffffffffffffff16815260200190815260200160002060010160009054906101000a900473ffffffffffffffffffffffffffffffffffffffff1673ffffffffffffffffffffffffffffffffffffffff168160405161165590611a1e565b60006040518083038185875af1925050503d8060008114611692576040519150601f19603f3d011682016040523d82523d6000602084013e611697565b606091505b505080945050831561175f577f394d81fc6d726f376ac7e03cfb1bf07f04a993ec0a3fe7f4782e2ef8e5416145600260008b60ff1660ff16815260200190815260200160002060000154846004600060018054906101000a900473ffffffffffffffffffffffffffffffffffffffff1673ffffffffffffffffffffffffffffffffffffffff1673ffffffffffffffffffffffffffffffffffffffff16815260200190815260200160002060000154846040516117569493929190611b72565b60405180910390a15b611768866117ad565b9550505050505b50610bcd565b505b6001600560008560ff1660ff16815260200190815260200160002060008282546117a19190611bee565b92505081905550505050565b6000806002836117bd9190611d97565b146117d4576002826117cf9190611c7b565b6117d7565b60005b9050919050565b6000813590506117ed81611f1e565b92915050565b60008135905061180281611f35565b92915050565b60008135905061181781611f4c565b92915050565b60006020828403121561183357611832611e26565b5b6000611841848285016117de565b91505092915050565b6000806040838503121561186157611860611e26565b5b600061186f858286016117de565b925050602061188085828601611808565b9150509250929050565b6000602082840312156118a05761189f611e26565b5b60006118ae848285016117f3565b91505092915050565b6000602082840312156118cd576118cc611e26565b5b60006118db84828501611808565b91505092915050565b600080604083850312156118fb576118fa611e26565b5b600061190985828601611808565b925050602061191a858286016117f3565b9150509250929050565b61192d81611d18565b82525050565b61193c81611d06565b82525050565b61194b81611d2a565b82525050565b600061195e600e83611bdd565b915061196982611e2b565b602082019050919050565b6000611981600083611bd2565b915061198c82611e54565b600082019050919050565b60006119a4602383611bdd565b91506119af82611e57565b604082019050919050565b60006119c7602883611bdd565b91506119d282611ea6565b604082019050919050565b60006119ea600c83611bdd565b91506119f582611ef5565b602082019050919050565b611a0981611d56565b82525050565b611a1881611d60565b82525050565b6000611a2982611974565b9150819050919050565b6000602082019050611a486000830184611933565b92915050565b6000602082019050611a636000830184611942565b92915050565b60006020820190508181036000830152611a8281611951565b9050919050565b60006020820190508181036000830152611aa281611997565b9050919050565b60006020820190508181036000830152611ac2816119ba565b9050919050565b60006020820190508181036000830152611ae2816119dd565b9050919050565b6000602082019050611afe6000830184611a00565b92915050565b6000606082019050611b196000830186611a00565b611b266020830185611924565b611b336040830184611a00565b949350505050565b6000606082019050611b506000830186611a00565b611b5d6020830185611933565b611b6a6040830184611942565b949350505050565b6000608082019050611b876000830187611a00565b611b946020830186611a00565b611ba16040830185611a00565b611bae6060830184611a00565b95945050505050565b6000602082019050611bcc6000830184611a0f565b92915050565b600081905092915050565b600082825260208201905092915050565b6000611bf982611d56565b9150611c0483611d56565b9250827fffffffffffffffffffffffffffffffffffffffffffffffffffffffffffffffff03821115611c3957611c38611dc8565b5b828201905092915050565b6000611c4f82611d60565b9150611c5a83611d60565b92508260ff03821115611c7057611c6f611dc8565b5b828201905092915050565b6000611c8682611d56565b9150611c9183611d56565b925082611ca157611ca0611df7565b5b828204905092915050565b6000611cb782611d56565b9150611cc283611d56565b9250817fffffffffffffffffffffffffffffffffffffffffffffffffffffffffffffffff0483118215151615611cfb57611cfa611dc8565b5b828202905092915050565b6000611d1182611d36565b9050919050565b6000611d2382611d36565b9050919050565b60008115159050919050565b600073ffffffffffffffffffffffffffffffffffffffff82169050919050565b6000819050919050565b600060ff82169050919050565b6000611d7882611d60565b915060ff821415611d8c57611d8b611dc8565b5b600182019050919050565b6000611da282611d56565b9150611dad83611d56565b925082611dbd57611dbc611df7565b5b828206905092915050565b7f4e487b7100000000000000000000000000000000000000000000000000000000600052601160045260246000fd5b7f4e487b7100000000000000000000000000000000000000000000000000000000600052601260045260246000fd5b600080fd5b7f47616d65206e6f7420666f756e64000000000000000000000000000000000000600082015250565b50565b7f496e73756666696369656e7420616d6f756e74206f6620636f6e74726962757460008201527f696f6e0000000000000000000000000000000000000000000000000000000000602082015250565b7f466f72207265676974657220696e2067616d6520796f75206e6565642070617960008201527f2031206574686572000000000000000000000000000000000000000000000000602082015250565b7f4e6f20636f6e7472616374730000000000000000000000000000000000000000600082015250565b611f2781611d06565b8114611f3257600080fd5b50565b611f3e81611d56565b8114611f4957600080fd5b50565b611f5581611d60565b8114611f6057600080fd5b5056fea2646970667358221220f5d3873b6604eae5e0d35722dfed08d54bbbdad1b8ae88de89062eb984380c1464736f6c63430008070033",
					"opcodes": "PUSH1 0x80 PUSH1 0x40 MSTORE CALLVALUE DUP1 ISZERO PUSH3 0x11 JUMPI PUSH1 0x0 DUP1 REVERT JUMPDEST POP CALLER PUSH1 0x1 DUP1 PUSH2 0x100 EXP DUP2 SLOAD DUP2 PUSH20 0xFFFFFFFFFFFFFFFFFFFFFFFFFFFFFFFFFFFFFFFF MUL NOT AND SWAP1 DUP4 PUSH20 0xFFFFFFFFFFFFFFFFFFFFFFFFFFFFFFFFFFFFFFFF AND MUL OR SWAP1 SSTORE POP PUSH1 0x1 DUP1 SLOAD SWAP1 PUSH2 0x100 EXP SWAP1 DIV PUSH20 0xFFFFFFFFFFFFFFFFFFFFFFFFFFFFFFFFFFFFFFFF AND PUSH1 0x3 PUSH1 0x0 DUP1 DUP2 MSTORE PUSH1 0x20 ADD SWAP1 DUP2 MSTORE PUSH1 0x20 ADD PUSH1 0x0 KECCAK256 PUSH1 0x0 PUSH2 0x100 EXP DUP2 SLOAD DUP2 PUSH20 0xFFFFFFFFFFFFFFFFFFFFFFFFFFFFFFFFFFFFFFFF MUL NOT AND SWAP1 DUP4 PUSH20 0xFFFFFFFFFFFFFFFFFFFFFFFFFFFFFFFFFFFFFFFF AND MUL OR SWAP1 SSTORE POP PUSH1 0x40 MLOAD DUP1 PUSH1 0x60 ADD PUSH1 0x40 MSTORE DUP1 PUSH1 0x0 DUP2 MSTORE PUSH1 0x20 ADD PUSH1 0x1 DUP1 SLOAD SWAP1 PUSH2 0x100 EXP SWAP1 DIV PUSH20 0xFFFFFFFFFFFFFFFFFFFFFFFFFFFFFFFFFFFFFFFF AND PUSH20 0xFFFFFFFFFFFFFFFFFFFFFFFFFFFFFFFFFFFFFFFF AND DUP2 MSTORE PUSH1 0x20 ADD PUSH1 0x0 DUP2 MSTORE POP PUSH1 0x4 PUSH1 0x0 PUSH1 0x1 DUP1 SLOAD SWAP1 PUSH2 0x100 EXP SWAP1 DIV PUSH20 0xFFFFFFFFFFFFFFFFFFFFFFFFFFFFFFFFFFFFFFFF AND PUSH20 0xFFFFFFFFFFFFFFFFFFFFFFFFFFFFFFFFFFFFFFFF AND PUSH20 0xFFFFFFFFFFFFFFFFFFFFFFFFFFFFFFFFFFFFFFFF AND DUP2 MSTORE PUSH1 0x20 ADD SWAP1 DUP2 MSTORE PUSH1 0x20 ADD PUSH1 0x0 KECCAK256 PUSH1 0x0 DUP3 ADD MLOAD DUP2 PUSH1 0x0 ADD SSTORE PUSH1 0x20 DUP3 ADD MLOAD DUP2 PUSH1 0x1 ADD PUSH1 0x0 PUSH2 0x100 EXP DUP2 SLOAD DUP2 PUSH20 0xFFFFFFFFFFFFFFFFFFFFFFFFFFFFFFFFFFFFFFFF MUL NOT AND SWAP1 DUP4 PUSH20 0xFFFFFFFFFFFFFFFFFFFFFFFFFFFFFFFFFFFFFFFF AND MUL OR SWAP1 SSTORE POP PUSH1 0x40 DUP3 ADD MLOAD DUP2 PUSH1 0x2 ADD SSTORE SWAP1 POP POP PUSH1 0x1 PUSH1 0x0 DUP2 SWAP1 SSTORE POP PUSH3 0x1F5 PUSH8 0xDE0B6B3A7640000 PUSH3 0x1FB PUSH1 0x20 SHL PUSH1 0x20 SHR JUMP JUMPDEST PUSH3 0x37F JUMP JUMPDEST PUSH3 0x20C CALLER PUSH3 0x2EF PUSH1 0x20 SHL PUSH1 0x20 SHR JUMP JUMPDEST PUSH3 0x216 JUMPI PUSH1 0x0 DUP1 REVERT JUMPDEST PUSH1 0x40 MLOAD DUP1 PUSH1 0x20 ADD PUSH1 0x40 MSTORE DUP1 DUP3 DUP2 MSTORE POP PUSH1 0x2 PUSH1 0x0 PUSH1 0x1 PUSH1 0x0 SWAP1 SLOAD SWAP1 PUSH2 0x100 EXP SWAP1 DIV PUSH1 0xFF AND PUSH1 0xFF AND PUSH1 0xFF AND DUP2 MSTORE PUSH1 0x20 ADD SWAP1 DUP2 MSTORE PUSH1 0x20 ADD PUSH1 0x0 KECCAK256 PUSH1 0x0 DUP3 ADD MLOAD DUP2 PUSH1 0x0 ADD SSTORE SWAP1 POP POP PUSH1 0x1 PUSH1 0x5 PUSH1 0x0 PUSH1 0x1 PUSH1 0x0 SWAP1 SLOAD SWAP1 PUSH2 0x100 EXP SWAP1 DIV PUSH1 0xFF AND PUSH1 0xFF AND PUSH1 0xFF AND DUP2 MSTORE PUSH1 0x20 ADD SWAP1 DUP2 MSTORE PUSH1 0x20 ADD PUSH1 0x0 KECCAK256 DUP2 SWAP1 SSTORE POP PUSH32 0xA0B7F6F22BB4F69ADC52DD16FFE2A964AB8B577BE274247FA9A1547B03CE3E55 PUSH1 0x2 PUSH1 0x0 PUSH1 0x1 PUSH1 0x0 SWAP1 SLOAD SWAP1 PUSH2 0x100 EXP SWAP1 DIV PUSH1 0xFF AND PUSH1 0xFF AND PUSH1 0xFF AND DUP2 MSTORE PUSH1 0x20 ADD SWAP1 DUP2 MSTORE PUSH1 0x20 ADD PUSH1 0x0 KECCAK256 PUSH1 0x0 ADD SLOAD PUSH1 0x40 MLOAD PUSH3 0x2E4 SWAP2 SWAP1 PUSH3 0x358 JUMP JUMPDEST PUSH1 0x40 MLOAD DUP1 SWAP2 SUB SWAP1 LOG1 POP JUMP JUMPDEST PUSH1 0x0 PUSH1 0x1 DUP1 SLOAD SWAP1 PUSH2 0x100 EXP SWAP1 DIV PUSH20 0xFFFFFFFFFFFFFFFFFFFFFFFFFFFFFFFFFFFFFFFF AND PUSH20 0xFFFFFFFFFFFFFFFFFFFFFFFFFFFFFFFFFFFFFFFF AND DUP3 PUSH20 0xFFFFFFFFFFFFFFFFFFFFFFFFFFFFFFFFFFFFFFFF AND EQ SWAP1 POP SWAP2 SWAP1 POP JUMP JUMPDEST PUSH3 0x352 DUP2 PUSH3 0x375 JUMP JUMPDEST DUP3 MSTORE POP POP JUMP JUMPDEST PUSH1 0x0 PUSH1 0x20 DUP3 ADD SWAP1 POP PUSH3 0x36F PUSH1 0x0 DUP4 ADD DUP5 PUSH3 0x347 JUMP JUMPDEST SWAP3 SWAP2 POP POP JUMP JUMPDEST PUSH1 0x0 DUP2 SWAP1 POP SWAP2 SWAP1 POP JUMP JUMPDEST PUSH2 0x1F99 DUP1 PUSH3 0x38F PUSH1 0x0 CODECOPY PUSH1 0x0 RETURN INVALID PUSH1 0x80 PUSH1 0x40 MSTORE PUSH1 0x4 CALLDATASIZE LT PUSH2 0xC6 JUMPI PUSH1 0x0 CALLDATALOAD PUSH1 0xE0 SHR DUP1 PUSH4 0x906CBF57 GT PUSH2 0x7F JUMPI DUP1 PUSH4 0xAD39F0A3 GT PUSH2 0x59 JUMPI DUP1 PUSH4 0xAD39F0A3 EQ PUSH2 0x2CA JUMPI DUP1 PUSH4 0xAE9283B5 EQ PUSH2 0x2F5 JUMPI DUP1 PUSH4 0xBD233B91 EQ PUSH2 0x31E JUMPI DUP1 PUSH4 0xF1060006 EQ PUSH2 0x35B JUMPI PUSH2 0xD7 JUMP JUMPDEST DUP1 PUSH4 0x906CBF57 EQ PUSH2 0x213 JUMPI DUP1 PUSH4 0x95A078E8 EQ PUSH2 0x250 JUMPI DUP1 PUSH4 0x9B0B0AE3 EQ PUSH2 0x28D JUMPI PUSH2 0xD7 JUMP JUMPDEST DUP1 PUSH4 0x173C05B EQ PUSH2 0xE3 JUMPI DUP1 PUSH4 0xE50CEE5 EQ PUSH2 0xFF JUMPI DUP1 PUSH4 0x2A648C89 EQ PUSH2 0x13E JUMPI DUP1 PUSH4 0x2E8AAB9B EQ PUSH2 0x17B JUMPI DUP1 PUSH4 0x47734892 EQ PUSH2 0x197 JUMPI DUP1 PUSH4 0x78A32E21 EQ PUSH2 0x1D4 JUMPI PUSH2 0xD7 JUMP JUMPDEST CALLDATASIZE PUSH2 0xD7 JUMPI PUSH2 0xD5 CALLER CALLVALUE PUSH2 0x398 JUMP JUMPDEST STOP JUMPDEST PUSH2 0xE1 CALLER CALLVALUE PUSH2 0x398 JUMP JUMPDEST STOP JUMPDEST PUSH2 0xFD PUSH1 0x4 DUP1 CALLDATASIZE SUB DUP2 ADD SWAP1 PUSH2 0xF8 SWAP2 SWAP1 PUSH2 0x188A JUMP JUMPDEST PUSH2 0x45B JUMP JUMPDEST STOP JUMPDEST CALLVALUE DUP1 ISZERO PUSH2 0x10B JUMPI PUSH1 0x0 DUP1 REVERT JUMPDEST POP PUSH2 0x126 PUSH1 0x4 DUP1 CALLDATASIZE SUB DUP2 ADD SWAP1 PUSH2 0x121 SWAP2 SWAP1 PUSH2 0x181D JUMP JUMPDEST PUSH2 0x63A JUMP JUMPDEST PUSH1 0x40 MLOAD PUSH2 0x135 SWAP4 SWAP3 SWAP2 SWAP1 PUSH2 0x1B04 JUMP JUMPDEST PUSH1 0x40 MLOAD DUP1 SWAP2 SUB SWAP1 RETURN JUMPDEST CALLVALUE DUP1 ISZERO PUSH2 0x14A JUMPI PUSH1 0x0 DUP1 REVERT JUMPDEST POP PUSH2 0x165 PUSH1 0x4 DUP1 CALLDATASIZE SUB DUP2 ADD SWAP1 PUSH2 0x160 SWAP2 SWAP1 PUSH2 0x184A JUMP JUMPDEST PUSH2 0x684 JUMP JUMPDEST PUSH1 0x40 MLOAD PUSH2 0x172 SWAP2 SWAP1 PUSH2 0x1A4E JUMP JUMPDEST PUSH1 0x40 MLOAD DUP1 SWAP2 SUB SWAP1 RETURN JUMPDEST PUSH2 0x195 PUSH1 0x4 DUP1 CALLDATASIZE SUB DUP2 ADD SWAP1 PUSH2 0x190 SWAP2 SWAP1 PUSH2 0x18B7 JUMP JUMPDEST PUSH2 0x6B3 JUMP JUMPDEST STOP JUMPDEST CALLVALUE DUP1 ISZERO PUSH2 0x1A3 JUMPI PUSH1 0x0 DUP1 REVERT JUMPDEST POP PUSH2 0x1BE PUSH1 0x4 DUP1 CALLDATASIZE SUB DUP2 ADD SWAP1 PUSH2 0x1B9 SWAP2 SWAP1 PUSH2 0x181D JUMP JUMPDEST PUSH2 0x75D JUMP JUMPDEST PUSH1 0x40 MLOAD PUSH2 0x1CB SWAP2 SWAP1 PUSH2 0x1AE9 JUMP JUMPDEST PUSH1 0x40 MLOAD DUP1 SWAP2 SUB SWAP1 RETURN JUMPDEST CALLVALUE DUP1 ISZERO PUSH2 0x1E0 JUMPI PUSH1 0x0 DUP1 REVERT JUMPDEST POP PUSH2 0x1FB PUSH1 0x4 DUP1 CALLDATASIZE SUB DUP2 ADD SWAP1 PUSH2 0x1F6 SWAP2 SWAP1 PUSH2 0x18E4 JUMP JUMPDEST PUSH2 0x77E JUMP JUMPDEST PUSH1 0x40 MLOAD PUSH2 0x20A SWAP4 SWAP3 SWAP2 SWAP1 PUSH2 0x1B04 JUMP JUMPDEST PUSH1 0x40 MLOAD DUP1 SWAP2 SUB SWAP1 RETURN JUMPDEST CALLVALUE DUP1 ISZERO PUSH2 0x21F JUMPI PUSH1 0x0 DUP1 REVERT JUMPDEST POP PUSH2 0x23A PUSH1 0x4 DUP1 CALLDATASIZE SUB DUP2 ADD SWAP1 PUSH2 0x235 SWAP2 SWAP1 PUSH2 0x18B7 JUMP JUMPDEST PUSH2 0x7D5 JUMP JUMPDEST PUSH1 0x40 MLOAD PUSH2 0x247 SWAP2 SWAP1 PUSH2 0x1AE9 JUMP JUMPDEST PUSH1 0x40 MLOAD DUP1 SWAP2 SUB SWAP1 RETURN JUMPDEST CALLVALUE DUP1 ISZERO PUSH2 0x25C JUMPI PUSH1 0x0 DUP1 REVERT JUMPDEST POP PUSH2 0x277 PUSH1 0x4 DUP1 CALLDATASIZE SUB DUP2 ADD SWAP1 PUSH2 0x272 SWAP2 SWAP1 PUSH2 0x181D JUMP JUMPDEST PUSH2 0x7F3 JUMP JUMPDEST PUSH1 0x40 MLOAD PUSH2 0x284 SWAP2 SWAP1 PUSH2 0x1A4E JUMP JUMPDEST PUSH1 0x40 MLOAD DUP1 SWAP2 SUB SWAP1 RETURN JUMPDEST CALLVALUE DUP1 ISZERO PUSH2 0x299 JUMPI PUSH1 0x0 DUP1 REVERT JUMPDEST POP PUSH2 0x2B4 PUSH1 0x4 DUP1 CALLDATASIZE SUB DUP2 ADD SWAP1 PUSH2 0x2AF SWAP2 SWAP1 PUSH2 0x18B7 JUMP JUMPDEST PUSH2 0x84B JUMP JUMPDEST PUSH1 0x40 MLOAD PUSH2 0x2C1 SWAP2 SWAP1 PUSH2 0x1AE9 JUMP JUMPDEST PUSH1 0x40 MLOAD DUP1 SWAP2 SUB SWAP1 RETURN JUMPDEST CALLVALUE DUP1 ISZERO PUSH2 0x2D6 JUMPI PUSH1 0x0 DUP1 REVERT JUMPDEST POP PUSH2 0x2DF PUSH2 0x863 JUMP JUMPDEST PUSH1 0x40 MLOAD PUSH2 0x2EC SWAP2 SWAP1 PUSH2 0x1BB7 JUMP JUMPDEST PUSH1 0x40 MLOAD DUP1 SWAP2 SUB SWAP1 RETURN JUMPDEST CALLVALUE DUP1 ISZERO PUSH2 0x301 JUMPI PUSH1 0x0 DUP1 REVERT JUMPDEST POP PUSH2 0x31C PUSH1 0x4 DUP1 CALLDATASIZE SUB DUP2 ADD SWAP1 PUSH2 0x317 SWAP2 SWAP1 PUSH2 0x188A JUMP JUMPDEST PUSH2 0x876 JUMP JUMPDEST STOP JUMPDEST CALLVALUE DUP1 ISZERO PUSH2 0x32A JUMPI PUSH1 0x0 DUP1 REVERT JUMPDEST POP PUSH2 0x345 PUSH1 0x4 DUP1 CALLDATASIZE SUB DUP2 ADD SWAP1 PUSH2 0x340 SWAP2 SWAP1 PUSH2 0x188A JUMP JUMPDEST PUSH2 0x95F JUMP JUMPDEST PUSH1 0x40 MLOAD PUSH2 0x352 SWAP2 SWAP1 PUSH2 0x1A33 JUMP JUMPDEST PUSH1 0x40 MLOAD DUP1 SWAP2 SUB SWAP1 RETURN JUMPDEST CALLVALUE DUP1 ISZERO PUSH2 0x367 JUMPI PUSH1 0x0 DUP1 REVERT JUMPDEST POP PUSH2 0x382 PUSH1 0x4 DUP1 CALLDATASIZE SUB DUP2 ADD SWAP1 PUSH2 0x37D SWAP2 SWAP1 PUSH2 0x184A JUMP JUMPDEST PUSH2 0x992 JUMP JUMPDEST PUSH1 0x40 MLOAD PUSH2 0x38F SWAP2 SWAP1 PUSH2 0x1AE9 JUMP JUMPDEST PUSH1 0x40 MLOAD DUP1 SWAP2 SUB SWAP1 RETURN JUMPDEST PUSH1 0x0 DUP1 PUSH1 0x0 JUMPDEST PUSH1 0x1 DUP1 PUSH1 0x0 SWAP1 SLOAD SWAP1 PUSH2 0x100 EXP SWAP1 DIV PUSH1 0xFF AND PUSH2 0x3B9 SWAP2 SWAP1 PUSH2 0x1C44 JUMP JUMPDEST PUSH1 0xFF AND DUP2 PUSH1 0xFF AND LT ISZERO PUSH2 0x409 JUMPI CALLVALUE PUSH1 0x2 PUSH1 0x0 DUP4 PUSH1 0xFF AND PUSH1 0xFF AND DUP2 MSTORE PUSH1 0x20 ADD SWAP1 DUP2 MSTORE PUSH1 0x20 ADD PUSH1 0x0 KECCAK256 PUSH1 0x0 ADD SLOAD EQ ISZERO PUSH2 0x3F6 JUMPI PUSH1 0x1 SWAP3 POP DUP1 SWAP2 POP PUSH2 0x409 JUMP JUMPDEST DUP1 DUP1 PUSH2 0x401 SWAP1 PUSH2 0x1D6D JUMP JUMPDEST SWAP2 POP POP PUSH2 0x39E JUMP JUMPDEST POP DUP2 PUSH2 0x44A JUMPI PUSH1 0x40 MLOAD PUSH32 0x8C379A000000000000000000000000000000000000000000000000000000000 DUP2 MSTORE PUSH1 0x4 ADD PUSH2 0x441 SWAP1 PUSH2 0x1A69 JUMP JUMPDEST PUSH1 0x40 MLOAD DUP1 SWAP2 SUB SWAP1 REVERT JUMPDEST PUSH2 0x455 DUP2 DUP6 DUP6 PUSH2 0x9B7 JUMP JUMPDEST POP POP POP POP JUMP JUMPDEST PUSH1 0x0 DUP1 CALLER SWAP1 POP DUP1 EXTCODESIZE SWAP2 POP PUSH1 0x0 DUP3 PUSH4 0xFFFFFFFF AND GT ISZERO PUSH2 0x4AF JUMPI PUSH1 0x40 MLOAD PUSH32 0x8C379A000000000000000000000000000000000000000000000000000000000 DUP2 MSTORE PUSH1 0x4 ADD PUSH2 0x4A6 SWAP1 PUSH2 0x1AC9 JUMP JUMPDEST PUSH1 0x40 MLOAD DUP1 SWAP2 SUB SWAP1 REVERT JUMPDEST PUSH8 0xDE0B6B3A7640000 CALLVALUE EQ PUSH2 0x4F9 JUMPI PUSH1 0x40 MLOAD PUSH32 0x8C379A000000000000000000000000000000000000000000000000000000000 DUP2 MSTORE PUSH1 0x4 ADD PUSH2 0x4F0 SWAP1 PUSH2 0x1AA9 JUMP JUMPDEST PUSH1 0x40 MLOAD DUP1 SWAP2 SUB SWAP1 REVERT JUMPDEST PUSH1 0x40 MLOAD DUP1 PUSH1 0x60 ADD PUSH1 0x40 MSTORE DUP1 PUSH1 0x0 SLOAD DUP2 MSTORE PUSH1 0x20 ADD CALLER PUSH20 0xFFFFFFFFFFFFFFFFFFFFFFFFFFFFFFFFFFFFFFFF AND DUP2 MSTORE PUSH1 0x20 ADD DUP5 DUP2 MSTORE POP PUSH1 0x4 PUSH1 0x0 CALLER PUSH20 0xFFFFFFFFFFFFFFFFFFFFFFFFFFFFFFFFFFFFFFFF AND PUSH20 0xFFFFFFFFFFFFFFFFFFFFFFFFFFFFFFFFFFFFFFFF AND DUP2 MSTORE PUSH1 0x20 ADD SWAP1 DUP2 MSTORE PUSH1 0x20 ADD PUSH1 0x0 KECCAK256 PUSH1 0x0 DUP3 ADD MLOAD DUP2 PUSH1 0x0 ADD SSTORE PUSH1 0x20 DUP3 ADD MLOAD DUP2 PUSH1 0x1 ADD PUSH1 0x0 PUSH2 0x100 EXP DUP2 SLOAD DUP2 PUSH20 0xFFFFFFFFFFFFFFFFFFFFFFFFFFFFFFFFFFFFFFFF MUL NOT AND SWAP1 DUP4 PUSH20 0xFFFFFFFFFFFFFFFFFFFFFFFFFFFFFFFFFFFFFFFF AND MUL OR SWAP1 SSTORE POP PUSH1 0x40 DUP3 ADD MLOAD DUP2 PUSH1 0x2 ADD SSTORE SWAP1 POP POP CALLER PUSH1 0x3 PUSH1 0x0 DUP1 SLOAD DUP2 MSTORE PUSH1 0x20 ADD SWAP1 DUP2 MSTORE PUSH1 0x20 ADD PUSH1 0x0 KECCAK256 PUSH1 0x0 PUSH2 0x100 EXP DUP2 SLOAD DUP2 PUSH20 0xFFFFFFFFFFFFFFFFFFFFFFFFFFFFFFFFFFFFFFFF MUL NOT AND SWAP1 DUP4 PUSH20 0xFFFFFFFFFFFFFFFFFFFFFFFFFFFFFFFFFFFFFFFF AND MUL OR SWAP1 SSTORE POP PUSH1 0x1 PUSH1 0x0 DUP1 DUP3 DUP3 SLOAD PUSH2 0x62E SWAP2 SWAP1 PUSH2 0x1BEE JUMP JUMPDEST SWAP3 POP POP DUP2 SWAP1 SSTORE POP POP POP POP JUMP JUMPDEST PUSH1 0x4 PUSH1 0x20 MSTORE DUP1 PUSH1 0x0 MSTORE PUSH1 0x40 PUSH1 0x0 KECCAK256 PUSH1 0x0 SWAP2 POP SWAP1 POP DUP1 PUSH1 0x0 ADD SLOAD SWAP1 DUP1 PUSH1 0x1 ADD PUSH1 0x0 SWAP1 SLOAD SWAP1 PUSH2 0x100 EXP SWAP1 DIV PUSH20 0xFFFFFFFFFFFFFFFFFFFFFFFFFFFFFFFFFFFFFFFF AND SWAP1 DUP1 PUSH1 0x2 ADD SLOAD SWAP1 POP DUP4 JUMP JUMPDEST PUSH1 0x8 PUSH1 0x20 MSTORE DUP2 PUSH1 0x0 MSTORE PUSH1 0x40 PUSH1 0x0 KECCAK256 PUSH1 0x20 MSTORE DUP1 PUSH1 0x0 MSTORE PUSH1 0x40 PUSH1 0x0 KECCAK256 PUSH1 0x0 SWAP2 POP SWAP2 POP SWAP1 SLOAD SWAP1 PUSH2 0x100 EXP SWAP1 DIV PUSH1 0xFF AND DUP2 JUMP JUMPDEST PUSH1 0x0 PUSH20 0xFFFFFFFFFFFFFFFFFFFFFFFFFFFFFFFFFFFFFFFF AND PUSH1 0x4 PUSH1 0x0 CALLER PUSH20 0xFFFFFFFFFFFFFFFFFFFFFFFFFFFFFFFFFFFFFFFF AND PUSH20 0xFFFFFFFFFFFFFFFFFFFFFFFFFFFFFFFFFFFFFFFF AND DUP2 MSTORE PUSH1 0x20 ADD SWAP1 DUP2 MSTORE PUSH1 0x20 ADD PUSH1 0x0 KECCAK256 PUSH1 0x1 ADD PUSH1 0x0 SWAP1 SLOAD SWAP1 PUSH2 0x100 EXP SWAP1 DIV PUSH20 0xFFFFFFFFFFFFFFFFFFFFFFFFFFFFFFFFFFFFFFFF AND PUSH20 0xFFFFFFFFFFFFFFFFFFFFFFFFFFFFFFFFFFFFFFFF AND EQ ISZERO PUSH2 0x74F JUMPI PUSH1 0x0 DUP1 REVERT JUMPDEST PUSH2 0x75A DUP2 CALLER CALLVALUE PUSH2 0x9B7 JUMP JUMPDEST POP JUMP JUMPDEST PUSH1 0x0 DUP2 PUSH20 0xFFFFFFFFFFFFFFFFFFFFFFFFFFFFFFFFFFFFFFFF AND BALANCE SWAP1 POP SWAP2 SWAP1 POP JUMP JUMPDEST PUSH1 0x6 PUSH1 0x20 MSTORE DUP2 PUSH1 0x0 MSTORE PUSH1 0x40 PUSH1 0x0 KECCAK256 PUSH1 0x20 MSTORE DUP1 PUSH1 0x0 MSTORE PUSH1 0x40 PUSH1 0x0 KECCAK256 PUSH1 0x0 SWAP2 POP SWAP2 POP POP DUP1 PUSH1 0x0 ADD SLOAD SWAP1 DUP1 PUSH1 0x1 ADD PUSH1 0x0 SWAP1 SLOAD SWAP1 PUSH2 0x100 EXP SWAP1 DIV PUSH20 0xFFFFFFFFFFFFFFFFFFFFFFFFFFFFFFFFFFFFFFFF AND SWAP1 DUP1 PUSH1 0x2 ADD SLOAD SWAP1 POP DUP4 JUMP JUMPDEST PUSH1 0x2 PUSH1 0x20 MSTORE DUP1 PUSH1 0x0 MSTORE PUSH1 0x40 PUSH1 0x0 KECCAK256 PUSH1 0x0 SWAP2 POP SWAP1 POP DUP1 PUSH1 0x0 ADD SLOAD SWAP1 POP DUP2 JUMP JUMPDEST PUSH1 0x0 PUSH1 0x1 DUP1 SLOAD SWAP1 PUSH2 0x100 EXP SWAP1 DIV PUSH20 0xFFFFFFFFFFFFFFFFFFFFFFFFFFFFFFFFFFFFFFFF AND PUSH20 0xFFFFFFFFFFFFFFFFFFFFFFFFFFFFFFFFFFFFFFFF AND DUP3 PUSH20 0xFFFFFFFFFFFFFFFFFFFFFFFFFFFFFFFFFFFFFFFF AND EQ SWAP1 POP SWAP2 SWAP1 POP JUMP JUMPDEST PUSH1 0x5 PUSH1 0x20 MSTORE DUP1 PUSH1 0x0 MSTORE PUSH1 0x40 PUSH1 0x0 KECCAK256 PUSH1 0x0 SWAP2 POP SWAP1 POP SLOAD DUP2 JUMP JUMPDEST PUSH1 0x1 PUSH1 0x0 SWAP1 SLOAD SWAP1 PUSH2 0x100 EXP SWAP1 DIV PUSH1 0xFF AND DUP2 JUMP JUMPDEST PUSH2 0x87F CALLER PUSH2 0x7F3 JUMP JUMPDEST PUSH2 0x888 JUMPI PUSH1 0x0 DUP1 REVERT JUMPDEST PUSH1 0x40 MLOAD DUP1 PUSH1 0x20 ADD PUSH1 0x40 MSTORE DUP1 DUP3 DUP2 MSTORE POP PUSH1 0x2 PUSH1 0x0 PUSH1 0x1 PUSH1 0x0 SWAP1 SLOAD SWAP1 PUSH2 0x100 EXP SWAP1 DIV PUSH1 0xFF AND PUSH1 0xFF AND PUSH1 0xFF AND DUP2 MSTORE PUSH1 0x20 ADD SWAP1 DUP2 MSTORE PUSH1 0x20 ADD PUSH1 0x0 KECCAK256 PUSH1 0x0 DUP3 ADD MLOAD DUP2 PUSH1 0x0 ADD SSTORE SWAP1 POP POP PUSH1 0x1 PUSH1 0x5 PUSH1 0x0 PUSH1 0x1 PUSH1 0x0 SWAP1 SLOAD SWAP1 PUSH2 0x100 EXP SWAP1 DIV PUSH1 0xFF AND PUSH1 0xFF AND PUSH1 0xFF AND DUP2 MSTORE PUSH1 0x20 ADD SWAP1 DUP2 MSTORE PUSH1 0x20 ADD PUSH1 0x0 KECCAK256 DUP2 SWAP1 SSTORE POP PUSH32 0xA0B7F6F22BB4F69ADC52DD16FFE2A964AB8B577BE274247FA9A1547B03CE3E55 PUSH1 0x2 PUSH1 0x0 PUSH1 0x1 PUSH1 0x0 SWAP1 SLOAD SWAP1 PUSH2 0x100 EXP SWAP1 DIV PUSH1 0xFF AND PUSH1 0xFF AND PUSH1 0xFF AND DUP2 MSTORE PUSH1 0x20 ADD SWAP1 DUP2 MSTORE PUSH1 0x20 ADD PUSH1 0x0 KECCAK256 PUSH1 0x0 ADD SLOAD PUSH1 0x40 MLOAD PUSH2 0x954 SWAP2 SWAP1 PUSH2 0x1AE9 JUMP JUMPDEST PUSH1 0x40 MLOAD DUP1 SWAP2 SUB SWAP1 LOG1 POP JUMP JUMPDEST PUSH1 0x3 PUSH1 0x20 MSTORE DUP1 PUSH1 0x0 MSTORE PUSH1 0x40 PUSH1 0x0 KECCAK256 PUSH1 0x0 SWAP2 POP SLOAD SWAP1 PUSH2 0x100 EXP SWAP1 DIV PUSH20 0xFFFFFFFFFFFFFFFFFFFFFFFFFFFFFFFFFFFFFFFF AND DUP2 JUMP JUMPDEST PUSH1 0x7 PUSH1 0x20 MSTORE DUP2 PUSH1 0x0 MSTORE PUSH1 0x40 PUSH1 0x0 KECCAK256 PUSH1 0x20 MSTORE DUP1 PUSH1 0x0 MSTORE PUSH1 0x40 PUSH1 0x0 KECCAK256 PUSH1 0x0 SWAP2 POP SWAP2 POP POP SLOAD DUP2 JUMP JUMPDEST PUSH1 0x2 PUSH1 0x0 DUP5 PUSH1 0xFF AND PUSH1 0xFF AND DUP2 MSTORE PUSH1 0x20 ADD SWAP1 DUP2 MSTORE PUSH1 0x20 ADD PUSH1 0x0 KECCAK256 PUSH1 0x0 ADD SLOAD DUP2 LT ISZERO PUSH2 0xA16 JUMPI PUSH1 0x40 MLOAD PUSH32 0x8C379A000000000000000000000000000000000000000000000000000000000 DUP2 MSTORE PUSH1 0x4 ADD PUSH2 0xA0D SWAP1 PUSH2 0x1A89 JUMP JUMPDEST PUSH1 0x40 MLOAD DUP1 SWAP2 SUB SWAP1 REVERT JUMPDEST PUSH1 0x4 PUSH1 0x0 DUP4 PUSH20 0xFFFFFFFFFFFFFFFFFFFFFFFFFFFFFFFFFFFFFFFF AND PUSH20 0xFFFFFFFFFFFFFFFFFFFFFFFFFFFFFFFFFFFFFFFF AND DUP2 MSTORE PUSH1 0x20 ADD SWAP1 DUP2 MSTORE PUSH1 0x20 ADD PUSH1 0x0 KECCAK256 PUSH1 0x6 PUSH1 0x0 DUP6 PUSH1 0xFF AND PUSH1 0xFF AND DUP2 MSTORE PUSH1 0x20 ADD SWAP1 DUP2 MSTORE PUSH1 0x20 ADD PUSH1 0x0 KECCAK256 PUSH1 0x0 PUSH1 0x5 PUSH1 0x0 DUP8 PUSH1 0xFF AND PUSH1 0xFF AND DUP2 MSTORE PUSH1 0x20 ADD SWAP1 DUP2 MSTORE PUSH1 0x20 ADD PUSH1 0x0 KECCAK256 SLOAD DUP2 MSTORE PUSH1 0x20 ADD SWAP1 DUP2 MSTORE PUSH1 0x20 ADD PUSH1 0x0 KECCAK256 PUSH1 0x0 DUP3 ADD SLOAD DUP2 PUSH1 0x0 ADD SSTORE PUSH1 0x1 DUP3 ADD PUSH1 0x0 SWAP1 SLOAD SWAP1 PUSH2 0x100 EXP SWAP1 DIV PUSH20 0xFFFFFFFFFFFFFFFFFFFFFFFFFFFFFFFFFFFFFFFF AND DUP2 PUSH1 0x1 ADD PUSH1 0x0 PUSH2 0x100 EXP DUP2 SLOAD DUP2 PUSH20 0xFFFFFFFFFFFFFFFFFFFFFFFFFFFFFFFFFFFFFFFF MUL NOT AND SWAP1 DUP4 PUSH20 0xFFFFFFFFFFFFFFFFFFFFFFFFFFFFFFFFFFFFFFFF AND MUL OR SWAP1 SSTORE POP PUSH1 0x2 DUP3 ADD SLOAD DUP2 PUSH1 0x2 ADD SSTORE SWAP1 POP POP PUSH1 0x1 PUSH1 0x8 PUSH1 0x0 DUP5 PUSH20 0xFFFFFFFFFFFFFFFFFFFFFFFFFFFFFFFFFFFFFFFF AND PUSH20 0xFFFFFFFFFFFFFFFFFFFFFFFFFFFFFFFFFFFFFFFF AND DUP2 MSTORE PUSH1 0x20 ADD SWAP1 DUP2 MSTORE PUSH1 0x20 ADD PUSH1 0x0 KECCAK256 PUSH1 0x0 DUP6 PUSH1 0xFF AND PUSH1 0xFF AND DUP2 MSTORE PUSH1 0x20 ADD SWAP1 DUP2 MSTORE PUSH1 0x20 ADD PUSH1 0x0 KECCAK256 PUSH1 0x0 PUSH2 0x100 EXP DUP2 SLOAD DUP2 PUSH1 0xFF MUL NOT AND SWAP1 DUP4 ISZERO ISZERO MUL OR SWAP1 SSTORE POP PUSH1 0x3 PUSH1 0x5 PUSH1 0x0 DUP6 PUSH1 0xFF AND PUSH1 0xFF AND DUP2 MSTORE PUSH1 0x20 ADD SWAP1 DUP2 MSTORE PUSH1 0x20 ADD PUSH1 0x0 KECCAK256 SLOAD LT PUSH2 0x1777 JUMPI PUSH1 0x0 PUSH2 0xBCA PUSH1 0x5 PUSH1 0x0 DUP7 PUSH1 0xFF AND PUSH1 0xFF AND DUP2 MSTORE PUSH1 0x20 ADD SWAP1 DUP2 MSTORE PUSH1 0x20 ADD PUSH1 0x0 KECCAK256 SLOAD PUSH2 0x17AD JUMP JUMPDEST SWAP1 POP JUMPDEST PUSH1 0x0 DUP2 EQ PUSH2 0x1775 JUMPI PUSH1 0x0 PUSH1 0x6 PUSH1 0x0 DUP7 PUSH1 0xFF AND PUSH1 0xFF AND DUP2 MSTORE PUSH1 0x20 ADD SWAP1 DUP2 MSTORE PUSH1 0x20 ADD PUSH1 0x0 KECCAK256 PUSH1 0x0 DUP4 DUP2 MSTORE PUSH1 0x20 ADD SWAP1 DUP2 MSTORE PUSH1 0x20 ADD PUSH1 0x0 KECCAK256 PUSH1 0x1 ADD PUSH1 0x0 SWAP1 SLOAD SWAP1 PUSH2 0x100 EXP SWAP1 DIV PUSH20 0xFFFFFFFFFFFFFFFFFFFFFFFFFFFFFFFFFFFFFFFF AND SWAP1 POP PUSH1 0x1 PUSH1 0x7 PUSH1 0x0 DUP4 PUSH20 0xFFFFFFFFFFFFFFFFFFFFFFFFFFFFFFFFFFFFFFFF AND PUSH20 0xFFFFFFFFFFFFFFFFFFFFFFFFFFFFFFFFFFFFFFFF AND DUP2 MSTORE PUSH1 0x20 ADD SWAP1 DUP2 MSTORE PUSH1 0x20 ADD PUSH1 0x0 KECCAK256 PUSH1 0x0 DUP8 PUSH1 0xFF AND PUSH1 0xFF AND DUP2 MSTORE PUSH1 0x20 ADD SWAP1 DUP2 MSTORE PUSH1 0x20 ADD PUSH1 0x0 KECCAK256 SLOAD GT ISZERO DUP1 PUSH2 0xCF9 JUMPI POP PUSH1 0x8 PUSH1 0x0 DUP3 PUSH20 0xFFFFFFFFFFFFFFFFFFFFFFFFFFFFFFFFFFFFFFFF AND PUSH20 0xFFFFFFFFFFFFFFFFFFFFFFFFFFFFFFFFFFFFFFFF AND DUP2 MSTORE PUSH1 0x20 ADD SWAP1 DUP2 MSTORE PUSH1 0x20 ADD PUSH1 0x0 KECCAK256 PUSH1 0x0 PUSH1 0x1 DUP8 PUSH2 0xCD6 SWAP2 SWAP1 PUSH2 0x1C44 JUMP JUMPDEST PUSH1 0xFF AND PUSH1 0xFF AND DUP2 MSTORE PUSH1 0x20 ADD SWAP1 DUP2 MSTORE PUSH1 0x20 ADD PUSH1 0x0 KECCAK256 PUSH1 0x0 SWAP1 SLOAD SWAP1 PUSH2 0x100 EXP SWAP1 DIV PUSH1 0xFF AND JUMPDEST ISZERO PUSH2 0x176F JUMPI PUSH1 0x0 DUP2 PUSH20 0xFFFFFFFFFFFFFFFFFFFFFFFFFFFFFFFFFFFFFFFF AND PUSH1 0x64 PUSH1 0x4A PUSH1 0x2 PUSH1 0x0 DUP11 PUSH1 0xFF AND PUSH1 0xFF AND DUP2 MSTORE PUSH1 0x20 ADD SWAP1 DUP2 MSTORE PUSH1 0x20 ADD PUSH1 0x0 KECCAK256 PUSH1 0x0 ADD SLOAD PUSH2 0xD42 SWAP2 SWAP1 PUSH2 0x1CAC JUMP JUMPDEST PUSH2 0xD4C SWAP2 SWAP1 PUSH2 0x1C7B JUMP JUMPDEST PUSH1 0x40 MLOAD PUSH2 0xD58 SWAP1 PUSH2 0x1A1E JUMP JUMPDEST PUSH1 0x0 PUSH1 0x40 MLOAD DUP1 DUP4 SUB DUP2 DUP6 DUP8 GAS CALL SWAP3 POP POP POP RETURNDATASIZE DUP1 PUSH1 0x0 DUP2 EQ PUSH2 0xD95 JUMPI PUSH1 0x40 MLOAD SWAP2 POP PUSH1 0x1F NOT PUSH1 0x3F RETURNDATASIZE ADD AND DUP3 ADD PUSH1 0x40 MSTORE RETURNDATASIZE DUP3 MSTORE RETURNDATASIZE PUSH1 0x0 PUSH1 0x20 DUP5 ADD RETURNDATACOPY PUSH2 0xD9A JUMP JUMPDEST PUSH1 0x60 SWAP2 POP JUMPDEST POP POP SWAP1 POP PUSH1 0x1 PUSH1 0x7 PUSH1 0x0 DUP5 PUSH20 0xFFFFFFFFFFFFFFFFFFFFFFFFFFFFFFFFFFFFFFFF AND PUSH20 0xFFFFFFFFFFFFFFFFFFFFFFFFFFFFFFFFFFFFFFFF AND DUP2 MSTORE PUSH1 0x20 ADD SWAP1 DUP2 MSTORE PUSH1 0x20 ADD PUSH1 0x0 KECCAK256 PUSH1 0x0 DUP9 PUSH1 0xFF AND PUSH1 0xFF AND DUP2 MSTORE PUSH1 0x20 ADD SWAP1 DUP2 MSTORE PUSH1 0x20 ADD PUSH1 0x0 KECCAK256 PUSH1 0x0 DUP3 DUP3 SLOAD PUSH2 0xE05 SWAP2 SWAP1 PUSH2 0x1BEE JUMP JUMPDEST SWAP3 POP POP DUP2 SWAP1 SSTORE POP PUSH32 0x99AF5599BF20C9414934FF2EB4264F5AC1A42FE0E5EC331366CF59ED0641C1BD PUSH1 0x2 PUSH1 0x0 DUP9 PUSH1 0xFF AND PUSH1 0xFF AND DUP2 MSTORE PUSH1 0x20 ADD SWAP1 DUP2 MSTORE PUSH1 0x20 ADD PUSH1 0x0 KECCAK256 PUSH1 0x0 ADD SLOAD DUP4 DUP4 PUSH1 0x40 MLOAD PUSH2 0xE5B SWAP4 SWAP3 SWAP2 SWAP1 PUSH2 0x1B3B JUMP JUMPDEST PUSH1 0x40 MLOAD DUP1 SWAP2 SUB SWAP1 LOG1 PUSH1 0x0 PUSH1 0x6 PUSH1 0x0 DUP9 PUSH1 0xFF AND PUSH1 0xFF AND DUP2 MSTORE PUSH1 0x20 ADD SWAP1 DUP2 MSTORE PUSH1 0x20 ADD PUSH1 0x0 KECCAK256 PUSH1 0x0 DUP6 DUP2 MSTORE PUSH1 0x20 ADD SWAP1 DUP2 MSTORE PUSH1 0x20 ADD PUSH1 0x0 KECCAK256 PUSH1 0x0 ADD SLOAD SWAP1 POP PUSH1 0x0 PUSH1 0x6 PUSH1 0x0 DUP10 PUSH1 0xFF AND PUSH1 0xFF AND DUP2 MSTORE PUSH1 0x20 ADD SWAP1 DUP2 MSTORE PUSH1 0x20 ADD PUSH1 0x0 KECCAK256 PUSH1 0x0 DUP7 DUP2 MSTORE PUSH1 0x20 ADD SWAP1 DUP2 MSTORE PUSH1 0x20 ADD PUSH1 0x0 KECCAK256 PUSH1 0x2 ADD SLOAD SWAP1 POP PUSH1 0x0 PUSH1 0x64 PUSH1 0xA PUSH1 0x2 PUSH1 0x0 DUP13 PUSH1 0xFF AND PUSH1 0xFF AND DUP2 MSTORE PUSH1 0x20 ADD SWAP1 DUP2 MSTORE PUSH1 0x20 ADD PUSH1 0x0 KECCAK256 PUSH1 0x0 ADD SLOAD PUSH2 0xEF4 SWAP2 SWAP1 PUSH2 0x1CAC JUMP JUMPDEST PUSH2 0xEFE SWAP2 SWAP1 PUSH2 0x1C7B JUMP JUMPDEST SWAP1 POP PUSH1 0x3 PUSH1 0x0 DUP4 DUP2 MSTORE PUSH1 0x20 ADD SWAP1 DUP2 MSTORE PUSH1 0x20 ADD PUSH1 0x0 KECCAK256 PUSH1 0x0 SWAP1 SLOAD SWAP1 PUSH2 0x100 EXP SWAP1 DIV PUSH20 0xFFFFFFFFFFFFFFFFFFFFFFFFFFFFFFFFFFFFFFFF AND PUSH20 0xFFFFFFFFFFFFFFFFFFFFFFFFFFFFFFFFFFFFFFFF AND DUP2 PUSH1 0x40 MLOAD PUSH2 0xF57 SWAP1 PUSH2 0x1A1E JUMP JUMPDEST PUSH1 0x0 PUSH1 0x40 MLOAD DUP1 DUP4 SUB DUP2 DUP6 DUP8 GAS CALL SWAP3 POP POP POP RETURNDATASIZE DUP1 PUSH1 0x0 DUP2 EQ PUSH2 0xF94 JUMPI PUSH1 0x40 MLOAD SWAP2 POP PUSH1 0x1F NOT PUSH1 0x3F RETURNDATASIZE ADD AND DUP3 ADD PUSH1 0x40 MSTORE RETURNDATASIZE DUP3 MSTORE RETURNDATASIZE PUSH1 0x0 PUSH1 0x20 DUP5 ADD RETURNDATACOPY PUSH2 0xF99 JUMP JUMPDEST PUSH1 0x60 SWAP2 POP JUMPDEST POP POP DUP1 SWAP5 POP POP DUP4 ISZERO PUSH2 0xFFF JUMPI PUSH32 0x394D81FC6D726F376AC7E03CFB1BF07F04A993EC0A3FE7F4782E2EF8E5416145 PUSH1 0x2 PUSH1 0x0 DUP12 PUSH1 0xFF AND PUSH1 0xFF AND DUP2 MSTORE PUSH1 0x20 ADD SWAP1 DUP2 MSTORE PUSH1 0x20 ADD PUSH1 0x0 KECCAK256 PUSH1 0x0 ADD SLOAD DUP5 DUP5 DUP5 PUSH1 0x40 MLOAD PUSH2 0xFF6 SWAP5 SWAP4 SWAP3 SWAP2 SWAP1 PUSH2 0x1B72 JUMP JUMPDEST PUSH1 0x40 MLOAD DUP1 SWAP2 SUB SWAP1 LOG1 JUMPDEST PUSH1 0x64 PUSH1 0x6 PUSH1 0x2 PUSH1 0x0 DUP13 PUSH1 0xFF AND PUSH1 0xFF AND DUP2 MSTORE PUSH1 0x20 ADD SWAP1 DUP2 MSTORE PUSH1 0x20 ADD PUSH1 0x0 KECCAK256 PUSH1 0x0 ADD SLOAD PUSH2 0x102A SWAP2 SWAP1 PUSH2 0x1CAC JUMP JUMPDEST PUSH2 0x1034 SWAP2 SWAP1 PUSH2 0x1C7B JUMP JUMPDEST SWAP1 POP PUSH1 0x4 PUSH1 0x0 PUSH1 0x3 PUSH1 0x0 DUP6 DUP2 MSTORE PUSH1 0x20 ADD SWAP1 DUP2 MSTORE PUSH1 0x20 ADD PUSH1 0x0 KECCAK256 PUSH1 0x0 SWAP1 SLOAD SWAP1 PUSH2 0x100 EXP SWAP1 DIV PUSH20 0xFFFFFFFFFFFFFFFFFFFFFFFFFFFFFFFFFFFFFFFF AND PUSH20 0xFFFFFFFFFFFFFFFFFFFFFFFFFFFFFFFFFFFFFFFF AND PUSH20 0xFFFFFFFFFFFFFFFFFFFFFFFFFFFFFFFFFFFFFFFF AND DUP2 MSTORE PUSH1 0x20 ADD SWAP1 DUP2 MSTORE PUSH1 0x20 ADD PUSH1 0x0 KECCAK256 PUSH1 0x1 ADD PUSH1 0x0 SWAP1 SLOAD SWAP1 PUSH2 0x100 EXP SWAP1 DIV PUSH20 0xFFFFFFFFFFFFFFFFFFFFFFFFFFFFFFFFFFFFFFFF AND PUSH20 0xFFFFFFFFFFFFFFFFFFFFFFFFFFFFFFFFFFFFFFFF AND DUP2 PUSH1 0x40 MLOAD PUSH2 0x10EF SWAP1 PUSH2 0x1A1E JUMP JUMPDEST PUSH1 0x0 PUSH1 0x40 MLOAD DUP1 DUP4 SUB DUP2 DUP6 DUP8 GAS CALL SWAP3 POP POP POP RETURNDATASIZE DUP1 PUSH1 0x0 DUP2 EQ PUSH2 0x112C JUMPI PUSH1 0x40 MLOAD SWAP2 POP PUSH1 0x1F NOT PUSH1 0x3F RETURNDATASIZE ADD AND DUP3 ADD PUSH1 0x40 MSTORE RETURNDATASIZE DUP3 MSTORE RETURNDATASIZE PUSH1 0x0 PUSH1 0x20 DUP5 ADD RETURNDATACOPY PUSH2 0x1131 JUMP JUMPDEST PUSH1 0x60 SWAP2 POP JUMPDEST POP POP DUP1 SWAP5 POP POP DUP4 ISZERO PUSH2 0x120C JUMPI PUSH32 0x394D81FC6D726F376AC7E03CFB1BF07F04A993EC0A3FE7F4782E2EF8E5416145 PUSH1 0x2 PUSH1 0x0 DUP12 PUSH1 0xFF AND PUSH1 0xFF AND DUP2 MSTORE PUSH1 0x20 ADD SWAP1 DUP2 MSTORE PUSH1 0x20 ADD PUSH1 0x0 KECCAK256 PUSH1 0x0 ADD SLOAD DUP4 PUSH1 0x4 PUSH1 0x0 PUSH1 0x3 PUSH1 0x0 DUP9 DUP2 MSTORE PUSH1 0x20 ADD SWAP1 DUP2 MSTORE PUSH1 0x20 ADD PUSH1 0x0 KECCAK256 PUSH1 0x0 SWAP1 SLOAD SWAP1 PUSH2 0x100 EXP SWAP1 DIV PUSH20 0xFFFFFFFFFFFFFFFFFFFFFFFFFFFFFFFFFFFFFFFF AND PUSH20 0xFFFFFFFFFFFFFFFFFFFFFFFFFFFFFFFFFFFFFFFF AND PUSH20 0xFFFFFFFFFFFFFFFFFFFFFFFFFFFFFFFFFFFFFFFF AND DUP2 MSTORE PUSH1 0x20 ADD SWAP1 DUP2 MSTORE PUSH1 0x20 ADD PUSH1 0x0 KECCAK256 PUSH1 0x0 ADD SLOAD DUP5 PUSH1 0x40 MLOAD PUSH2 0x1203 SWAP5 SWAP4 SWAP3 SWAP2 SWAP1 PUSH2 0x1B72 JUMP JUMPDEST PUSH1 0x40 MLOAD DUP1 SWAP2 SUB SWAP1 LOG1 JUMPDEST PUSH1 0x64 PUSH1 0x4 PUSH1 0x2 PUSH1 0x0 DUP13 PUSH1 0xFF AND PUSH1 0xFF AND DUP2 MSTORE PUSH1 0x20 ADD SWAP1 DUP2 MSTORE PUSH1 0x20 ADD PUSH1 0x0 KECCAK256 PUSH1 0x0 ADD SLOAD PUSH2 0x1237 SWAP2 SWAP1 PUSH2 0x1CAC JUMP JUMPDEST PUSH2 0x1241 SWAP2 SWAP1 PUSH2 0x1C7B JUMP JUMPDEST SWAP1 POP PUSH1 0x4 PUSH1 0x0 PUSH1 0x3 PUSH1 0x0 PUSH1 0x4 PUSH1 0x0 PUSH1 0x3 PUSH1 0x0 DUP10 DUP2 MSTORE PUSH1 0x20 ADD SWAP1 DUP2 MSTORE PUSH1 0x20 ADD PUSH1 0x0 KECCAK256 PUSH1 0x0 SWAP1 SLOAD SWAP1 PUSH2 0x100 EXP SWAP1 DIV PUSH20 0xFFFFFFFFFFFFFFFFFFFFFFFFFFFFFFFFFFFFFFFF AND PUSH20 0xFFFFFFFFFFFFFFFFFFFFFFFFFFFFFFFFFFFFFFFF AND PUSH20 0xFFFFFFFFFFFFFFFFFFFFFFFFFFFFFFFFFFFFFFFF AND DUP2 MSTORE PUSH1 0x20 ADD SWAP1 DUP2 MSTORE PUSH1 0x20 ADD PUSH1 0x0 KECCAK256 PUSH1 0x0 ADD SLOAD DUP2 MSTORE PUSH1 0x20 ADD SWAP1 DUP2 MSTORE PUSH1 0x20 ADD PUSH1 0x0 KECCAK256 PUSH1 0x0 SWAP1 SLOAD SWAP1 PUSH2 0x100 EXP SWAP1 DIV PUSH20 0xFFFFFFFFFFFFFFFFFFFFFFFFFFFFFFFFFFFFFFFF AND PUSH20 0xFFFFFFFFFFFFFFFFFFFFFFFFFFFFFFFFFFFFFFFF AND PUSH20 0xFFFFFFFFFFFFFFFFFFFFFFFFFFFFFFFFFFFFFFFF AND DUP2 MSTORE PUSH1 0x20 ADD SWAP1 DUP2 MSTORE PUSH1 0x20 ADD PUSH1 0x0 KECCAK256 PUSH1 0x1 ADD PUSH1 0x0 SWAP1 SLOAD SWAP1 PUSH2 0x100 EXP SWAP1 DIV PUSH20 0xFFFFFFFFFFFFFFFFFFFFFFFFFFFFFFFFFFFFFFFF AND PUSH20 0xFFFFFFFFFFFFFFFFFFFFFFFFFFFFFFFFFFFFFFFF AND DUP2 PUSH1 0x40 MLOAD PUSH2 0x1371 SWAP1 PUSH2 0x1A1E JUMP JUMPDEST PUSH1 0x0 PUSH1 0x40 MLOAD DUP1 DUP4 SUB DUP2 DUP6 DUP8 GAS CALL SWAP3 POP POP POP RETURNDATASIZE DUP1 PUSH1 0x0 DUP2 EQ PUSH2 0x13AE JUMPI PUSH1 0x40 MLOAD SWAP2 POP PUSH1 0x1F NOT PUSH1 0x3F RETURNDATASIZE ADD AND DUP3 ADD PUSH1 0x40 MSTORE RETURNDATASIZE DUP3 MSTORE RETURNDATASIZE PUSH1 0x0 PUSH1 0x20 DUP5 ADD RETURNDATACOPY PUSH2 0x13B3 JUMP JUMPDEST PUSH1 0x60 SWAP2 POP JUMPDEST POP POP DUP1 SWAP5 POP POP DUP4 ISZERO PUSH2 0x1578 JUMPI PUSH32 0x394D81FC6D726F376AC7E03CFB1BF07F04A993EC0A3FE7F4782E2EF8E5416145 PUSH1 0x2 PUSH1 0x0 DUP12 PUSH1 0xFF AND PUSH1 0xFF AND DUP2 MSTORE PUSH1 0x20 ADD SWAP1 DUP2 MSTORE PUSH1 0x20 ADD PUSH1 0x0 KECCAK256 PUSH1 0x0 ADD SLOAD PUSH1 0x4 PUSH1 0x0 PUSH1 0x3 PUSH1 0x0 DUP8 DUP2 MSTORE PUSH1 0x20 ADD SWAP1 DUP2 MSTORE PUSH1 0x20 ADD PUSH1 0x0 KECCAK256 PUSH1 0x0 SWAP1 SLOAD SWAP1 PUSH2 0x100 EXP SWAP1 DIV PUSH20 0xFFFFFFFFFFFFFFFFFFFFFFFFFFFFFFFFFFFFFFFF AND PUSH20 0xFFFFFFFFFFFFFFFFFFFFFFFFFFFFFFFFFFFFFFFF AND PUSH20 0xFFFFFFFFFFFFFFFFFFFFFFFFFFFFFFFFFFFFFFFF AND DUP2 MSTORE PUSH1 0x20 ADD SWAP1 DUP2 MSTORE PUSH1 0x20 ADD PUSH1 0x0 KECCAK256 PUSH1 0x0 ADD SLOAD PUSH1 0x4 PUSH1 0x0 PUSH1 0x3 PUSH1 0x0 PUSH1 0x4 PUSH1 0x0 PUSH1 0x3 PUSH1 0x0 DUP13 DUP2 MSTORE PUSH1 0x20 ADD SWAP1 DUP2 MSTORE PUSH1 0x20 ADD PUSH1 0x0 KECCAK256 PUSH1 0x0 SWAP1 SLOAD SWAP1 PUSH2 0x100 EXP SWAP1 DIV PUSH20 0xFFFFFFFFFFFFFFFFFFFFFFFFFFFFFFFFFFFFFFFF AND PUSH20 0xFFFFFFFFFFFFFFFFFFFFFFFFFFFFFFFFFFFFFFFF AND PUSH20 0xFFFFFFFFFFFFFFFFFFFFFFFFFFFFFFFFFFFFFFFF AND DUP2 MSTORE PUSH1 0x20 ADD SWAP1 DUP2 MSTORE PUSH1 0x20 ADD PUSH1 0x0 KECCAK256 PUSH1 0x0 ADD SLOAD DUP2 MSTORE PUSH1 0x20 ADD SWAP1 DUP2 MSTORE PUSH1 0x20 ADD PUSH1 0x0 KECCAK256 PUSH1 0x0 SWAP1 SLOAD SWAP1 PUSH2 0x100 EXP SWAP1 DIV PUSH20 0xFFFFFFFFFFFFFFFFFFFFFFFFFFFFFFFFFFFFFFFF AND PUSH20 0xFFFFFFFFFFFFFFFFFFFFFFFFFFFFFFFFFFFFFFFF AND PUSH20 0xFFFFFFFFFFFFFFFFFFFFFFFFFFFFFFFFFFFFFFFF AND DUP2 MSTORE PUSH1 0x20 ADD SWAP1 DUP2 MSTORE PUSH1 0x20 ADD PUSH1 0x0 KECCAK256 PUSH1 0x0 ADD SLOAD DUP5 PUSH1 0x40 MLOAD PUSH2 0x156F SWAP5 SWAP4 SWAP3 SWAP2 SWAP1 PUSH2 0x1B72 JUMP JUMPDEST PUSH1 0x40 MLOAD DUP1 SWAP2 SUB SWAP1 LOG1 JUMPDEST PUSH1 0x64 PUSH1 0x6 PUSH1 0x2 PUSH1 0x0 DUP13 PUSH1 0xFF AND PUSH1 0xFF AND DUP2 MSTORE PUSH1 0x20 ADD SWAP1 DUP2 MSTORE PUSH1 0x20 ADD PUSH1 0x0 KECCAK256 PUSH1 0x0 ADD SLOAD PUSH2 0x15A3 SWAP2 SWAP1 PUSH2 0x1CAC JUMP JUMPDEST PUSH2 0x15AD SWAP2 SWAP1 PUSH2 0x1C7B JUMP JUMPDEST SWAP1 POP PUSH1 0x4 PUSH1 0x0 PUSH1 0x1 DUP1 SLOAD SWAP1 PUSH2 0x100 EXP SWAP1 DIV PUSH20 0xFFFFFFFFFFFFFFFFFFFFFFFFFFFFFFFFFFFFFFFF AND PUSH20 0xFFFFFFFFFFFFFFFFFFFFFFFFFFFFFFFFFFFFFFFF AND PUSH20 0xFFFFFFFFFFFFFFFFFFFFFFFFFFFFFFFFFFFFFFFF AND DUP2 MSTORE PUSH1 0x20 ADD SWAP1 DUP2 MSTORE PUSH1 0x20 ADD PUSH1 0x0 KECCAK256 PUSH1 0x1 ADD PUSH1 0x0 SWAP1 SLOAD SWAP1 PUSH2 0x100 EXP SWAP1 DIV PUSH20 0xFFFFFFFFFFFFFFFFFFFFFFFFFFFFFFFFFFFFFFFF AND PUSH20 0xFFFFFFFFFFFFFFFFFFFFFFFFFFFFFFFFFFFFFFFF AND DUP2 PUSH1 0x40 MLOAD PUSH2 0x1655 SWAP1 PUSH2 0x1A1E JUMP JUMPDEST PUSH1 0x0 PUSH1 0x40 MLOAD DUP1 DUP4 SUB DUP2 DUP6 DUP8 GAS CALL SWAP3 POP POP POP RETURNDATASIZE DUP1 PUSH1 0x0 DUP2 EQ PUSH2 0x1692 JUMPI PUSH1 0x40 MLOAD SWAP2 POP PUSH1 0x1F NOT PUSH1 0x3F RETURNDATASIZE ADD AND DUP3 ADD PUSH1 0x40 MSTORE RETURNDATASIZE DUP3 MSTORE RETURNDATASIZE PUSH1 0x0 PUSH1 0x20 DUP5 ADD RETURNDATACOPY PUSH2 0x1697 JUMP JUMPDEST PUSH1 0x60 SWAP2 POP JUMPDEST POP POP DUP1 SWAP5 POP POP DUP4 ISZERO PUSH2 0x175F JUMPI PUSH32 0x394D81FC6D726F376AC7E03CFB1BF07F04A993EC0A3FE7F4782E2EF8E5416145 PUSH1 0x2 PUSH1 0x0 DUP12 PUSH1 0xFF AND PUSH1 0xFF AND DUP2 MSTORE PUSH1 0x20 ADD SWAP1 DUP2 MSTORE PUSH1 0x20 ADD PUSH1 0x0 KECCAK256 PUSH1 0x0 ADD SLOAD DUP5 PUSH1 0x4 PUSH1 0x0 PUSH1 0x1 DUP1 SLOAD SWAP1 PUSH2 0x100 EXP SWAP1 DIV PUSH20 0xFFFFFFFFFFFFFFFFFFFFFFFFFFFFFFFFFFFFFFFF AND PUSH20 0xFFFFFFFFFFFFFFFFFFFFFFFFFFFFFFFFFFFFFFFF AND PUSH20 0xFFFFFFFFFFFFFFFFFFFFFFFFFFFFFFFFFFFFFFFF AND DUP2 MSTORE PUSH1 0x20 ADD SWAP1 DUP2 MSTORE PUSH1 0x20 ADD PUSH1 0x0 KECCAK256 PUSH1 0x0 ADD SLOAD DUP5 PUSH1 0x40 MLOAD PUSH2 0x1756 SWAP5 SWAP4 SWAP3 SWAP2 SWAP1 PUSH2 0x1B72 JUMP JUMPDEST PUSH1 0x40 MLOAD DUP1 SWAP2 SUB SWAP1 LOG1 JUMPDEST PUSH2 0x1768 DUP7 PUSH2 0x17AD JUMP JUMPDEST SWAP6 POP POP POP POP POP JUMPDEST POP PUSH2 0xBCD JUMP JUMPDEST POP JUMPDEST PUSH1 0x1 PUSH1 0x5 PUSH1 0x0 DUP6 PUSH1 0xFF AND PUSH1 0xFF AND DUP2 MSTORE PUSH1 0x20 ADD SWAP1 DUP2 MSTORE PUSH1 0x20 ADD PUSH1 0x0 KECCAK256 PUSH1 0x0 DUP3 DUP3 SLOAD PUSH2 0x17A1 SWAP2 SWAP1 PUSH2 0x1BEE JUMP JUMPDEST SWAP3 POP POP DUP2 SWAP1 SSTORE POP POP POP POP JUMP JUMPDEST PUSH1 0x0 DUP1 PUSH1 0x2 DUP4 PUSH2 0x17BD SWAP2 SWAP1 PUSH2 0x1D97 JUMP JUMPDEST EQ PUSH2 0x17D4 JUMPI PUSH1 0x2 DUP3 PUSH2 0x17CF SWAP2 SWAP1 PUSH2 0x1C7B JUMP JUMPDEST PUSH2 0x17D7 JUMP JUMPDEST PUSH1 0x0 JUMPDEST SWAP1 POP SWAP2 SWAP1 POP JUMP JUMPDEST PUSH1 0x0 DUP2 CALLDATALOAD SWAP1 POP PUSH2 0x17ED DUP2 PUSH2 0x1F1E JUMP JUMPDEST SWAP3 SWAP2 POP POP JUMP JUMPDEST PUSH1 0x0 DUP2 CALLDATALOAD SWAP1 POP PUSH2 0x1802 DUP2 PUSH2 0x1F35 JUMP JUMPDEST SWAP3 SWAP2 POP POP JUMP JUMPDEST PUSH1 0x0 DUP2 CALLDATALOAD SWAP1 POP PUSH2 0x1817 DUP2 PUSH2 0x1F4C JUMP JUMPDEST SWAP3 SWAP2 POP POP JUMP JUMPDEST PUSH1 0x0 PUSH1 0x20 DUP3 DUP5 SUB SLT ISZERO PUSH2 0x1833 JUMPI PUSH2 0x1832 PUSH2 0x1E26 JUMP JUMPDEST JUMPDEST PUSH1 0x0 PUSH2 0x1841 DUP5 DUP3 DUP6 ADD PUSH2 0x17DE JUMP JUMPDEST SWAP2 POP POP SWAP3 SWAP2 POP POP JUMP JUMPDEST PUSH1 0x0 DUP1 PUSH1 0x40 DUP4 DUP6 SUB SLT ISZERO PUSH2 0x1861 JUMPI PUSH2 0x1860 PUSH2 0x1E26 JUMP JUMPDEST JUMPDEST PUSH1 0x0 PUSH2 0x186F DUP6 DUP3 DUP7 ADD PUSH2 0x17DE JUMP JUMPDEST SWAP3 POP POP PUSH1 0x20 PUSH2 0x1880 DUP6 DUP3 DUP7 ADD PUSH2 0x1808 JUMP JUMPDEST SWAP2 POP POP SWAP3 POP SWAP3 SWAP1 POP JUMP JUMPDEST PUSH1 0x0 PUSH1 0x20 DUP3 DUP5 SUB SLT ISZERO PUSH2 0x18A0 JUMPI PUSH2 0x189F PUSH2 0x1E26 JUMP JUMPDEST JUMPDEST PUSH1 0x0 PUSH2 0x18AE DUP5 DUP3 DUP6 ADD PUSH2 0x17F3 JUMP JUMPDEST SWAP2 POP POP SWAP3 SWAP2 POP POP JUMP JUMPDEST PUSH1 0x0 PUSH1 0x20 DUP3 DUP5 SUB SLT ISZERO PUSH2 0x18CD JUMPI PUSH2 0x18CC PUSH2 0x1E26 JUMP JUMPDEST JUMPDEST PUSH1 0x0 PUSH2 0x18DB DUP5 DUP3 DUP6 ADD PUSH2 0x1808 JUMP JUMPDEST SWAP2 POP POP SWAP3 SWAP2 POP POP JUMP JUMPDEST PUSH1 0x0 DUP1 PUSH1 0x40 DUP4 DUP6 SUB SLT ISZERO PUSH2 0x18FB JUMPI PUSH2 0x18FA PUSH2 0x1E26 JUMP JUMPDEST JUMPDEST PUSH1 0x0 PUSH2 0x1909 DUP6 DUP3 DUP7 ADD PUSH2 0x1808 JUMP JUMPDEST SWAP3 POP POP PUSH1 0x20 PUSH2 0x191A DUP6 DUP3 DUP7 ADD PUSH2 0x17F3 JUMP JUMPDEST SWAP2 POP POP SWAP3 POP SWAP3 SWAP1 POP JUMP JUMPDEST PUSH2 0x192D DUP2 PUSH2 0x1D18 JUMP JUMPDEST DUP3 MSTORE POP POP JUMP JUMPDEST PUSH2 0x193C DUP2 PUSH2 0x1D06 JUMP JUMPDEST DUP3 MSTORE POP POP JUMP JUMPDEST PUSH2 0x194B DUP2 PUSH2 0x1D2A JUMP JUMPDEST DUP3 MSTORE POP POP JUMP JUMPDEST PUSH1 0x0 PUSH2 0x195E PUSH1 0xE DUP4 PUSH2 0x1BDD JUMP JUMPDEST SWAP2 POP PUSH2 0x1969 DUP3 PUSH2 0x1E2B JUMP JUMPDEST PUSH1 0x20 DUP3 ADD SWAP1 POP SWAP2 SWAP1 POP JUMP JUMPDEST PUSH1 0x0 PUSH2 0x1981 PUSH1 0x0 DUP4 PUSH2 0x1BD2 JUMP JUMPDEST SWAP2 POP PUSH2 0x198C DUP3 PUSH2 0x1E54 JUMP JUMPDEST PUSH1 0x0 DUP3 ADD SWAP1 POP SWAP2 SWAP1 POP JUMP JUMPDEST PUSH1 0x0 PUSH2 0x19A4 PUSH1 0x23 DUP4 PUSH2 0x1BDD JUMP JUMPDEST SWAP2 POP PUSH2 0x19AF DUP3 PUSH2 0x1E57 JUMP JUMPDEST PUSH1 0x40 DUP3 ADD SWAP1 POP SWAP2 SWAP1 POP JUMP JUMPDEST PUSH1 0x0 PUSH2 0x19C7 PUSH1 0x28 DUP4 PUSH2 0x1BDD JUMP JUMPDEST SWAP2 POP PUSH2 0x19D2 DUP3 PUSH2 0x1EA6 JUMP JUMPDEST PUSH1 0x40 DUP3 ADD SWAP1 POP SWAP2 SWAP1 POP JUMP JUMPDEST PUSH1 0x0 PUSH2 0x19EA PUSH1 0xC DUP4 PUSH2 0x1BDD JUMP JUMPDEST SWAP2 POP PUSH2 0x19F5 DUP3 PUSH2 0x1EF5 JUMP JUMPDEST PUSH1 0x20 DUP3 ADD SWAP1 POP SWAP2 SWAP1 POP JUMP JUMPDEST PUSH2 0x1A09 DUP2 PUSH2 0x1D56 JUMP JUMPDEST DUP3 MSTORE POP POP JUMP JUMPDEST PUSH2 0x1A18 DUP2 PUSH2 0x1D60 JUMP JUMPDEST DUP3 MSTORE POP POP JUMP JUMPDEST PUSH1 0x0 PUSH2 0x1A29 DUP3 PUSH2 0x1974 JUMP JUMPDEST SWAP2 POP DUP2 SWAP1 POP SWAP2 SWAP1 POP JUMP JUMPDEST PUSH1 0x0 PUSH1 0x20 DUP3 ADD SWAP1 POP PUSH2 0x1A48 PUSH1 0x0 DUP4 ADD DUP5 PUSH2 0x1933 JUMP JUMPDEST SWAP3 SWAP2 POP POP JUMP JUMPDEST PUSH1 0x0 PUSH1 0x20 DUP3 ADD SWAP1 POP PUSH2 0x1A63 PUSH1 0x0 DUP4 ADD DUP5 PUSH2 0x1942 JUMP JUMPDEST SWAP3 SWAP2 POP POP JUMP JUMPDEST PUSH1 0x0 PUSH1 0x20 DUP3 ADD SWAP1 POP DUP2 DUP2 SUB PUSH1 0x0 DUP4 ADD MSTORE PUSH2 0x1A82 DUP2 PUSH2 0x1951 JUMP JUMPDEST SWAP1 POP SWAP2 SWAP1 POP JUMP JUMPDEST PUSH1 0x0 PUSH1 0x20 DUP3 ADD SWAP1 POP DUP2 DUP2 SUB PUSH1 0x0 DUP4 ADD MSTORE PUSH2 0x1AA2 DUP2 PUSH2 0x1997 JUMP JUMPDEST SWAP1 POP SWAP2 SWAP1 POP JUMP JUMPDEST PUSH1 0x0 PUSH1 0x20 DUP3 ADD SWAP1 POP DUP2 DUP2 SUB PUSH1 0x0 DUP4 ADD MSTORE PUSH2 0x1AC2 DUP2 PUSH2 0x19BA JUMP JUMPDEST SWAP1 POP SWAP2 SWAP1 POP JUMP JUMPDEST PUSH1 0x0 PUSH1 0x20 DUP3 ADD SWAP1 POP DUP2 DUP2 SUB PUSH1 0x0 DUP4 ADD MSTORE PUSH2 0x1AE2 DUP2 PUSH2 0x19DD JUMP JUMPDEST SWAP1 POP SWAP2 SWAP1 POP JUMP JUMPDEST PUSH1 0x0 PUSH1 0x20 DUP3 ADD SWAP1 POP PUSH2 0x1AFE PUSH1 0x0 DUP4 ADD DUP5 PUSH2 0x1A00 JUMP JUMPDEST SWAP3 SWAP2 POP POP JUMP JUMPDEST PUSH1 0x0 PUSH1 0x60 DUP3 ADD SWAP1 POP PUSH2 0x1B19 PUSH1 0x0 DUP4 ADD DUP7 PUSH2 0x1A00 JUMP JUMPDEST PUSH2 0x1B26 PUSH1 0x20 DUP4 ADD DUP6 PUSH2 0x1924 JUMP JUMPDEST PUSH2 0x1B33 PUSH1 0x40 DUP4 ADD DUP5 PUSH2 0x1A00 JUMP JUMPDEST SWAP5 SWAP4 POP POP POP POP JUMP JUMPDEST PUSH1 0x0 PUSH1 0x60 DUP3 ADD SWAP1 POP PUSH2 0x1B50 PUSH1 0x0 DUP4 ADD DUP7 PUSH2 0x1A00 JUMP JUMPDEST PUSH2 0x1B5D PUSH1 0x20 DUP4 ADD DUP6 PUSH2 0x1933 JUMP JUMPDEST PUSH2 0x1B6A PUSH1 0x40 DUP4 ADD DUP5 PUSH2 0x1942 JUMP JUMPDEST SWAP5 SWAP4 POP POP POP POP JUMP JUMPDEST PUSH1 0x0 PUSH1 0x80 DUP3 ADD SWAP1 POP PUSH2 0x1B87 PUSH1 0x0 DUP4 ADD DUP8 PUSH2 0x1A00 JUMP JUMPDEST PUSH2 0x1B94 PUSH1 0x20 DUP4 ADD DUP7 PUSH2 0x1A00 JUMP JUMPDEST PUSH2 0x1BA1 PUSH1 0x40 DUP4 ADD DUP6 PUSH2 0x1A00 JUMP JUMPDEST PUSH2 0x1BAE PUSH1 0x60 DUP4 ADD DUP5 PUSH2 0x1A00 JUMP JUMPDEST SWAP6 SWAP5 POP POP POP POP POP JUMP JUMPDEST PUSH1 0x0 PUSH1 0x20 DUP3 ADD SWAP1 POP PUSH2 0x1BCC PUSH1 0x0 DUP4 ADD DUP5 PUSH2 0x1A0F JUMP JUMPDEST SWAP3 SWAP2 POP POP JUMP JUMPDEST PUSH1 0x0 DUP2 SWAP1 POP SWAP3 SWAP2 POP POP JUMP JUMPDEST PUSH1 0x0 DUP3 DUP3 MSTORE PUSH1 0x20 DUP3 ADD SWAP1 POP SWAP3 SWAP2 POP POP JUMP JUMPDEST PUSH1 0x0 PUSH2 0x1BF9 DUP3 PUSH2 0x1D56 JUMP JUMPDEST SWAP2 POP PUSH2 0x1C04 DUP4 PUSH2 0x1D56 JUMP JUMPDEST SWAP3 POP DUP3 PUSH32 0xFFFFFFFFFFFFFFFFFFFFFFFFFFFFFFFFFFFFFFFFFFFFFFFFFFFFFFFFFFFFFFFF SUB DUP3 GT ISZERO PUSH2 0x1C39 JUMPI PUSH2 0x1C38 PUSH2 0x1DC8 JUMP JUMPDEST JUMPDEST DUP3 DUP3 ADD SWAP1 POP SWAP3 SWAP2 POP POP JUMP JUMPDEST PUSH1 0x0 PUSH2 0x1C4F DUP3 PUSH2 0x1D60 JUMP JUMPDEST SWAP2 POP PUSH2 0x1C5A DUP4 PUSH2 0x1D60 JUMP JUMPDEST SWAP3 POP DUP3 PUSH1 0xFF SUB DUP3 GT ISZERO PUSH2 0x1C70 JUMPI PUSH2 0x1C6F PUSH2 0x1DC8 JUMP JUMPDEST JUMPDEST DUP3 DUP3 ADD SWAP1 POP SWAP3 SWAP2 POP POP JUMP JUMPDEST PUSH1 0x0 PUSH2 0x1C86 DUP3 PUSH2 0x1D56 JUMP JUMPDEST SWAP2 POP PUSH2 0x1C91 DUP4 PUSH2 0x1D56 JUMP JUMPDEST SWAP3 POP DUP3 PUSH2 0x1CA1 JUMPI PUSH2 0x1CA0 PUSH2 0x1DF7 JUMP JUMPDEST JUMPDEST DUP3 DUP3 DIV SWAP1 POP SWAP3 SWAP2 POP POP JUMP JUMPDEST PUSH1 0x0 PUSH2 0x1CB7 DUP3 PUSH2 0x1D56 JUMP JUMPDEST SWAP2 POP PUSH2 0x1CC2 DUP4 PUSH2 0x1D56 JUMP JUMPDEST SWAP3 POP DUP2 PUSH32 0xFFFFFFFFFFFFFFFFFFFFFFFFFFFFFFFFFFFFFFFFFFFFFFFFFFFFFFFFFFFFFFFF DIV DUP4 GT DUP3 ISZERO ISZERO AND ISZERO PUSH2 0x1CFB JUMPI PUSH2 0x1CFA PUSH2 0x1DC8 JUMP JUMPDEST JUMPDEST DUP3 DUP3 MUL SWAP1 POP SWAP3 SWAP2 POP POP JUMP JUMPDEST PUSH1 0x0 PUSH2 0x1D11 DUP3 PUSH2 0x1D36 JUMP JUMPDEST SWAP1 POP SWAP2 SWAP1 POP JUMP JUMPDEST PUSH1 0x0 PUSH2 0x1D23 DUP3 PUSH2 0x1D36 JUMP JUMPDEST SWAP1 POP SWAP2 SWAP1 POP JUMP JUMPDEST PUSH1 0x0 DUP2 ISZERO ISZERO SWAP1 POP SWAP2 SWAP1 POP JUMP JUMPDEST PUSH1 0x0 PUSH20 0xFFFFFFFFFFFFFFFFFFFFFFFFFFFFFFFFFFFFFFFF DUP3 AND SWAP1 POP SWAP2 SWAP1 POP JUMP JUMPDEST PUSH1 0x0 DUP2 SWAP1 POP SWAP2 SWAP1 POP JUMP JUMPDEST PUSH1 0x0 PUSH1 0xFF DUP3 AND SWAP1 POP SWAP2 SWAP1 POP JUMP JUMPDEST PUSH1 0x0 PUSH2 0x1D78 DUP3 PUSH2 0x1D60 JUMP JUMPDEST SWAP2 POP PUSH1 0xFF DUP3 EQ ISZERO PUSH2 0x1D8C JUMPI PUSH2 0x1D8B PUSH2 0x1DC8 JUMP JUMPDEST JUMPDEST PUSH1 0x1 DUP3 ADD SWAP1 POP SWAP2 SWAP1 POP JUMP JUMPDEST PUSH1 0x0 PUSH2 0x1DA2 DUP3 PUSH2 0x1D56 JUMP JUMPDEST SWAP2 POP PUSH2 0x1DAD DUP4 PUSH2 0x1D56 JUMP JUMPDEST SWAP3 POP DUP3 PUSH2 0x1DBD JUMPI PUSH2 0x1DBC PUSH2 0x1DF7 JUMP JUMPDEST JUMPDEST DUP3 DUP3 MOD SWAP1 POP SWAP3 SWAP2 POP POP JUMP JUMPDEST PUSH32 0x4E487B7100000000000000000000000000000000000000000000000000000000 PUSH1 0x0 MSTORE PUSH1 0x11 PUSH1 0x4 MSTORE PUSH1 0x24 PUSH1 0x0 REVERT JUMPDEST PUSH32 0x4E487B7100000000000000000000000000000000000000000000000000000000 PUSH1 0x0 MSTORE PUSH1 0x12 PUSH1 0x4 MSTORE PUSH1 0x24 PUSH1 0x0 REVERT JUMPDEST PUSH1 0x0 DUP1 REVERT JUMPDEST PUSH32 0x47616D65206E6F7420666F756E64000000000000000000000000000000000000 PUSH1 0x0 DUP3 ADD MSTORE POP JUMP JUMPDEST POP JUMP JUMPDEST PUSH32 0x496E73756666696369656E7420616D6F756E74206F6620636F6E747269627574 PUSH1 0x0 DUP3 ADD MSTORE PUSH32 0x696F6E0000000000000000000000000000000000000000000000000000000000 PUSH1 0x20 DUP3 ADD MSTORE POP JUMP JUMPDEST PUSH32 0x466F72207265676974657220696E2067616D6520796F75206E65656420706179 PUSH1 0x0 DUP3 ADD MSTORE PUSH32 0x2031206574686572000000000000000000000000000000000000000000000000 PUSH1 0x20 DUP3 ADD MSTORE POP JUMP JUMPDEST PUSH32 0x4E6F20636F6E7472616374730000000000000000000000000000000000000000 PUSH1 0x0 DUP3 ADD MSTORE POP JUMP JUMPDEST PUSH2 0x1F27 DUP2 PUSH2 0x1D06 JUMP JUMPDEST DUP2 EQ PUSH2 0x1F32 JUMPI PUSH1 0x0 DUP1 REVERT JUMPDEST POP JUMP JUMPDEST PUSH2 0x1F3E DUP2 PUSH2 0x1D56 JUMP JUMPDEST DUP2 EQ PUSH2 0x1F49 JUMPI PUSH1 0x0 DUP1 REVERT JUMPDEST POP JUMP JUMPDEST PUSH2 0x1F55 DUP2 PUSH2 0x1D60 JUMP JUMPDEST DUP2 EQ PUSH2 0x1F60 JUMPI PUSH1 0x0 DUP1 REVERT JUMPDEST POP JUMP INVALID LOG2 PUSH5 0x6970667358 0x22 SLT KECCAK256 CREATE2 0xD3 DUP8 EXTCODESIZE PUSH7 0x4EAE5E0D35722 0xDF 0xED ADDMOD 0xD5 0x4B 0xBB 0xDA 0xD1 0xB8 0xAE DUP9 0xDE DUP10 MOD 0x2E 0xB9 DUP5 CODESIZE 0xC EQ PUSH5 0x736F6C6343 STOP ADDMOD SMOD STOP CALLER "
				},
				"gasEstimates": {
					"creation": {
						"codeDepositCost": "1617800",
						"executionCost": "infinite",
						"totalCost": "infinite"
					},
					"external": {
						"": "infinite",
						"addGameLevel(uint256)": "infinite",
						"currentGameIdIndex()": "2493",
						"currentUserIndex(uint8)": "2838",
						"getUserBalance(address)": "3346",
						"hasAccess(address)": "2903",
						"joinToGame(uint8)": "infinite",
						"levels(uint8)": "2808",
						"pools(uint8,uint256)": "infinite",
						"registerUserToGame(uint256)": "infinite",
						"registeredUsers(address)": "infinite",
						"userGames(address,uint8)": "3138",
						"userPayments(address,uint8)": "3144",
						"usersId(uint256)": "2905"
					},
					"internal": {
						"_fallback(address,uint256)": "infinite",
						"_joinToGame(uint8,address,uint256)": "infinite",
						"culcNextWinnerIndex(uint256)": "infinite"
					}
				},
				"methodIdentifiers": {
					"addGameLevel(uint256)": "ae9283b5",
					"currentGameIdIndex()": "ad39f0a3",
					"currentUserIndex(uint8)": "9b0b0ae3",
					"getUserBalance(address)": "47734892",
					"hasAccess(address)": "95a078e8",
					"joinToGame(uint8)": "2e8aab9b",
					"levels(uint8)": "906cbf57",
					"pools(uint8,uint256)": "78a32e21",
					"registerUserToGame(uint256)": "0173c05b",
					"registeredUsers(address)": "0e50cee5",
					"userGames(address,uint8)": "2a648c89",
					"userPayments(address,uint8)": "f1060006",
					"usersId(uint256)": "bd233b91"
				}
			},
			"storageLayout": {
				"storage": [
					{
						"astId": 3,
						"contract": "cobraBot/Contract.sol:Pyramid",
						"label": "currentUserIdIndex",
						"offset": 0,
						"slot": "0",
						"type": "t_uint256"
					},
					{
						"astId": 5,
						"contract": "cobraBot/Contract.sol:Pyramid",
						"label": "currentGameIdIndex",
						"offset": 0,
						"slot": "1",
						"type": "t_uint8"
					},
					{
						"astId": 7,
						"contract": "cobraBot/Contract.sol:Pyramid",
						"label": "contractOwner",
						"offset": 1,
						"slot": "1",
						"type": "t_address"
					},
					{
						"astId": 37,
						"contract": "cobraBot/Contract.sol:Pyramid",
						"label": "levels",
						"offset": 0,
						"slot": "2",
						"type": "t_mapping(t_uint8,t_struct(Game)32_storage)"
					},
					{
						"astId": 41,
						"contract": "cobraBot/Contract.sol:Pyramid",
						"label": "usersId",
						"offset": 0,
						"slot": "3",
						"type": "t_mapping(t_uint256,t_address)"
					},
					{
						"astId": 46,
						"contract": "cobraBot/Contract.sol:Pyramid",
						"label": "registeredUsers",
						"offset": 0,
						"slot": "4",
						"type": "t_mapping(t_address,t_struct(User)29_storage)"
					},
					{
						"astId": 50,
						"contract": "cobraBot/Contract.sol:Pyramid",
						"label": "currentUserIndex",
						"offset": 0,
						"slot": "5",
						"type": "t_mapping(t_uint8,t_uint256)"
					},
					{
						"astId": 57,
						"contract": "cobraBot/Contract.sol:Pyramid",
						"label": "pools",
						"offset": 0,
						"slot": "6",
						"type": "t_mapping(t_uint8,t_mapping(t_uint256,t_struct(User)29_storage))"
					},
					{
						"astId": 63,
						"contract": "cobraBot/Contract.sol:Pyramid",
						"label": "userPayments",
						"offset": 0,
						"slot": "7",
						"type": "t_mapping(t_address,t_mapping(t_uint8,t_uint256))"
					},
					{
						"astId": 69,
						"contract": "cobraBot/Contract.sol:Pyramid",
						"label": "userGames",
						"offset": 0,
						"slot": "8",
						"type": "t_mapping(t_address,t_mapping(t_uint8,t_bool))"
					}
				],
				"types": {
					"t_address": {
						"encoding": "inplace",
						"label": "address",
						"numberOfBytes": "20"
					},
					"t_address_payable": {
						"encoding": "inplace",
						"label": "address payable",
						"numberOfBytes": "20"
					},
					"t_bool": {
						"encoding": "inplace",
						"label": "bool",
						"numberOfBytes": "1"
					},
					"t_mapping(t_address,t_mapping(t_uint8,t_bool))": {
						"encoding": "mapping",
						"key": "t_address",
						"label": "mapping(address => mapping(uint8 => bool))",
						"numberOfBytes": "32",
						"value": "t_mapping(t_uint8,t_bool)"
					},
					"t_mapping(t_address,t_mapping(t_uint8,t_uint256))": {
						"encoding": "mapping",
						"key": "t_address",
						"label": "mapping(address => mapping(uint8 => uint256))",
						"numberOfBytes": "32",
						"value": "t_mapping(t_uint8,t_uint256)"
					},
					"t_mapping(t_address,t_struct(User)29_storage)": {
						"encoding": "mapping",
						"key": "t_address",
						"label": "mapping(address => struct Pyramid.User)",
						"numberOfBytes": "32",
						"value": "t_struct(User)29_storage"
					},
					"t_mapping(t_uint256,t_address)": {
						"encoding": "mapping",
						"key": "t_uint256",
						"label": "mapping(uint256 => address)",
						"numberOfBytes": "32",
						"value": "t_address"
					},
					"t_mapping(t_uint256,t_struct(User)29_storage)": {
						"encoding": "mapping",
						"key": "t_uint256",
						"label": "mapping(uint256 => struct Pyramid.User)",
						"numberOfBytes": "32",
						"value": "t_struct(User)29_storage"
					},
					"t_mapping(t_uint8,t_bool)": {
						"encoding": "mapping",
						"key": "t_uint8",
						"label": "mapping(uint8 => bool)",
						"numberOfBytes": "32",
						"value": "t_bool"
					},
					"t_mapping(t_uint8,t_mapping(t_uint256,t_struct(User)29_storage))": {
						"encoding": "mapping",
						"key": "t_uint8",
						"label": "mapping(uint8 => mapping(uint256 => struct Pyramid.User))",
						"numberOfBytes": "32",
						"value": "t_mapping(t_uint256,t_struct(User)29_storage)"
					},
					"t_mapping(t_uint8,t_struct(Game)32_storage)": {
						"encoding": "mapping",
						"key": "t_uint8",
						"label": "mapping(uint8 => struct Pyramid.Game)",
						"numberOfBytes": "32",
						"value": "t_struct(Game)32_storage"
					},
					"t_mapping(t_uint8,t_uint256)": {
						"encoding": "mapping",
						"key": "t_uint8",
						"label": "mapping(uint8 => uint256)",
						"numberOfBytes": "32",
						"value": "t_uint256"
					},
					"t_struct(Game)32_storage": {
						"encoding": "inplace",
						"label": "struct Pyramid.Game",
						"members": [
							{
								"astId": 31,
								"contract": "cobraBot/Contract.sol:Pyramid",
								"label": "amountToPay",
								"offset": 0,
								"slot": "0",
								"type": "t_uint256"
							}
						],
						"numberOfBytes": "32"
					},
					"t_struct(User)29_storage": {
						"encoding": "inplace",
						"label": "struct Pyramid.User",
						"members": [
							{
								"astId": 24,
								"contract": "cobraBot/Contract.sol:Pyramid",
								"label": "userId",
								"offset": 0,
								"slot": "0",
								"type": "t_uint256"
							},
							{
								"astId": 26,
								"contract": "cobraBot/Contract.sol:Pyramid",
								"label": "userAddress",
								"offset": 0,
								"slot": "1",
								"type": "t_address_payable"
							},
							{
								"astId": 28,
								"contract": "cobraBot/Contract.sol:Pyramid",
								"label": "invitedId",
								"offset": 0,
								"slot": "2",
								"type": "t_uint256"
							}
						],
						"numberOfBytes": "96"
					},
					"t_uint256": {
						"encoding": "inplace",
						"label": "uint256",
						"numberOfBytes": "32"
					},
					"t_uint8": {
						"encoding": "inplace",
						"label": "uint8",
						"numberOfBytes": "1"
					}
				}
			},
			"userdoc": {
				"kind": "user",
				"methods": {},
				"version": 1
			}
		}
	}
}